{
	"contracts/_Database8.sol": {
		"MedicalRecords": {
			"abi": [
				{
					"inputs": [],
					"stateMutability": "nonpayable",
					"type": "constructor"
				},
				{
					"inputs": [
						{
							"internalType": "string",
							"name": "_id",
							"type": "string"
						},
						{
							"internalType": "string",
							"name": "_name",
							"type": "string"
						},
						{
							"internalType": "string",
							"name": "_DOB",
							"type": "string"
						},
						{
							"internalType": "string",
							"name": "_phoneNo",
							"type": "string"
						},
						{
							"internalType": "string",
							"name": "_specialConditions",
							"type": "string"
						},
						{
							"internalType": "string",
							"name": "_allergies",
							"type": "string"
						},
						{
							"internalType": "string",
							"name": "_bloodGroup",
							"type": "string"
						}
					],
					"name": "addPatient",
					"outputs": [],
					"stateMutability": "nonpayable",
					"type": "function"
				},
				{
					"inputs": [
						{
							"internalType": "string",
							"name": "_p_id",
							"type": "string"
						},
						{
							"internalType": "bool",
							"name": "_prescriptions",
							"type": "bool"
						}
					],
					"name": "getPrescriptions",
					"outputs": [
						{
							"components": [
								{
									"internalType": "uint256",
									"name": "prescriptionId",
									"type": "uint256"
								},
								{
									"internalType": "string",
									"name": "date",
									"type": "string"
								},
								{
									"internalType": "string",
									"name": "doctorName",
									"type": "string"
								}
							],
							"internalType": "struct MedicalRecords.Prescription[]",
							"name": "",
							"type": "tuple[]"
						}
					],
					"stateMutability": "view",
					"type": "function"
				},
				{
					"inputs": [
						{
							"internalType": "string",
							"name": "_p_id",
							"type": "string"
						},
						{
							"internalType": "uint256",
							"name": "_prescriptionId",
							"type": "uint256"
						},
						{
							"internalType": "bool",
							"name": "_morning",
							"type": "bool"
						},
						{
							"internalType": "bool",
							"name": "_afternoon",
							"type": "bool"
						},
						{
							"internalType": "bool",
							"name": "_evening",
							"type": "bool"
						},
						{
							"internalType": "string",
							"name": "_name",
							"type": "string"
						},
						{
							"internalType": "string",
							"name": "_description",
							"type": "string"
						}
					],
					"name": "updateMedicine",
					"outputs": [],
					"stateMutability": "nonpayable",
					"type": "function"
				},
				{
					"inputs": [
						{
							"internalType": "string",
							"name": "_p_id",
							"type": "string"
						},
						{
							"internalType": "string",
							"name": "_date",
							"type": "string"
						},
						{
							"internalType": "string",
							"name": "_doctorName",
							"type": "string"
						}
					],
					"name": "updatePrescription",
					"outputs": [],
					"stateMutability": "nonpayable",
					"type": "function"
				},
				{
					"inputs": [
						{
							"internalType": "string",
							"name": "_p_id",
							"type": "string"
						},
						{
							"internalType": "string",
							"name": "_name",
							"type": "string"
						},
						{
							"internalType": "string",
							"name": "_date",
							"type": "string"
						}
					],
					"name": "updateVaccine",
					"outputs": [],
					"stateMutability": "nonpayable",
					"type": "function"
				}
			],
			"devdoc": {
				"kind": "dev",
				"methods": {},
				"version": 1
			},
			"evm": {
				"assembly": "    /* \"contracts/_Database8.sol\":60:4727  contract MedicalRecords {... */\n  mstore(0x40, 0x80)\n    /* \"contracts/_Database8.sol\":1469:1485  constructor() {} */\n  callvalue\n  dup1\n  iszero\n  tag_1\n  jumpi\n  0x00\n  dup1\n  revert\ntag_1:\n  pop\n    /* \"contracts/_Database8.sol\":60:4727  contract MedicalRecords {... */\n  dataSize(sub_0)\n  dup1\n  dataOffset(sub_0)\n  0x00\n  codecopy\n  0x00\n  return\nstop\n\nsub_0: assembly {\n        /* \"contracts/_Database8.sol\":60:4727  contract MedicalRecords {... */\n      mstore(0x40, 0x80)\n      callvalue\n      dup1\n      iszero\n      tag_1\n      jumpi\n      0x00\n      dup1\n      revert\n    tag_1:\n      pop\n      jumpi(tag_2, lt(calldatasize, 0x04))\n      shr(0xe0, calldataload(0x00))\n      dup1\n      0x54506048\n      eq\n      tag_3\n      jumpi\n      dup1\n      0x83162c7a\n      eq\n      tag_4\n      jumpi\n      dup1\n      0x8a11aba4\n      eq\n      tag_5\n      jumpi\n      dup1\n      0x9ab8b822\n      eq\n      tag_6\n      jumpi\n      dup1\n      0xa7a16181\n      eq\n      tag_7\n      jumpi\n    tag_2:\n      0x00\n      dup1\n      revert\n        /* \"contracts/_Database8.sol\":2065:2404  function updateVaccine(... */\n    tag_3:\n      tag_8\n      0x04\n      dup1\n      calldatasize\n      sub\n      dup2\n      add\n      swap1\n      tag_9\n      swap2\n      swap1\n      tag_10\n      jump\t// in\n    tag_9:\n      tag_11\n      jump\t// in\n    tag_8:\n      stop\n        /* \"contracts/_Database8.sol\":3547:4209  function getPrescriptions(string memory _p_id, bool _prescriptions)... */\n    tag_4:\n      tag_12\n      0x04\n      dup1\n      calldatasize\n      sub\n      dup2\n      add\n      swap1\n      tag_13\n      swap2\n      swap1\n      tag_14\n      jump\t// in\n    tag_13:\n      tag_15\n      jump\t// in\n    tag_12:\n      mload(0x40)\n      tag_16\n      swap2\n      swap1\n      tag_17\n      jump\t// in\n    tag_16:\n      mload(0x40)\n      dup1\n      swap2\n      sub\n      swap1\n      return\n        /* \"contracts/_Database8.sol\":1493:2057  function addPatient(... */\n    tag_5:\n      tag_18\n      0x04\n      dup1\n      calldatasize\n      sub\n      dup2\n      add\n      swap1\n      tag_19\n      swap2\n      swap1\n      tag_20\n      jump\t// in\n    tag_19:\n      tag_21\n      jump\t// in\n    tag_18:\n      stop\n        /* \"contracts/_Database8.sol\":2412:2867  function updatePrescription(... */\n    tag_6:\n      tag_22\n      0x04\n      dup1\n      calldatasize\n      sub\n      dup2\n      add\n      swap1\n      tag_23\n      swap2\n      swap1\n      tag_10\n      jump\t// in\n    tag_23:\n      tag_24\n      jump\t// in\n    tag_22:\n      stop\n        /* \"contracts/_Database8.sol\":2875:3537  function updateMedicine(... */\n    tag_7:\n      tag_25\n      0x04\n      dup1\n      calldatasize\n      sub\n      dup2\n      add\n      swap1\n      tag_26\n      swap2\n      swap1\n      tag_27\n      jump\t// in\n    tag_26:\n      tag_28\n      jump\t// in\n    tag_25:\n      stop\n        /* \"contracts/_Database8.sol\":2065:2404  function updateVaccine(... */\n    tag_11:\n        /* \"contracts/_Database8.sol\":2203:2226  Patient storage patient */\n      0x00\n        /* \"contracts/_Database8.sol\":2229:2237  patients */\n      dup1\n        /* \"contracts/_Database8.sol\":2238:2243  _p_id */\n      dup5\n        /* \"contracts/_Database8.sol\":2229:2244  patients[_p_id] */\n      mload(0x40)\n      tag_30\n      swap2\n      swap1\n      tag_31\n      jump\t// in\n    tag_30:\n      swap1\n      dup2\n      mstore\n      0x20\n      add\n      mload(0x40)\n      dup1\n      swap2\n      sub\n      swap1\n      keccak256\n        /* \"contracts/_Database8.sol\":2203:2244  Patient storage patient = patients[_p_id] */\n      swap1\n      pop\n        /* \"contracts/_Database8.sol\":2255:2275  uint256 vaccineIndex */\n      0x00\n        /* \"contracts/_Database8.sol\":2278:2285  patient */\n      dup2\n        /* \"contracts/_Database8.sol\":2278:2298  patient.vaccineCount */\n      0x0f\n      add\n      sload\n        /* \"contracts/_Database8.sol\":2255:2298  uint256 vaccineIndex = patient.vaccineCount */\n      swap1\n      pop\n        /* \"contracts/_Database8.sol\":2342:2363  Vaccine(_name, _date) */\n      mload(0x40)\n      dup1\n      0x40\n      add\n      0x40\n      mstore\n      dup1\n        /* \"contracts/_Database8.sol\":2350:2355  _name */\n      dup6\n        /* \"contracts/_Database8.sol\":2342:2363  Vaccine(_name, _date) */\n      dup2\n      mstore\n      0x20\n      add\n        /* \"contracts/_Database8.sol\":2357:2362  _date */\n      dup5\n        /* \"contracts/_Database8.sol\":2342:2363  Vaccine(_name, _date) */\n      dup2\n      mstore\n      pop\n        /* \"contracts/_Database8.sol\":2309:2316  patient */\n      dup3\n        /* \"contracts/_Database8.sol\":2309:2325  patient.vaccines */\n      0x0e\n      add\n        /* \"contracts/_Database8.sol\":2309:2339  patient.vaccines[vaccineIndex] */\n      0x00\n        /* \"contracts/_Database8.sol\":2326:2338  vaccineIndex */\n      dup4\n        /* \"contracts/_Database8.sol\":2309:2339  patient.vaccines[vaccineIndex] */\n      dup2\n      mstore\n      0x20\n      add\n      swap1\n      dup2\n      mstore\n      0x20\n      add\n      0x00\n      keccak256\n        /* \"contracts/_Database8.sol\":2309:2363  patient.vaccines[vaccineIndex] = Vaccine(_name, _date) */\n      0x00\n      dup3\n      add\n      mload\n      dup2\n      0x00\n      add\n      swap1\n      dup2\n      tag_32\n      swap2\n      swap1\n      tag_33\n      jump\t// in\n    tag_32:\n      pop\n      0x20\n      dup3\n      add\n      mload\n      dup2\n      0x01\n      add\n      swap1\n      dup2\n      tag_34\n      swap2\n      swap1\n      tag_33\n      jump\t// in\n    tag_34:\n      pop\n      swap1\n      pop\n      pop\n        /* \"contracts/_Database8.sol\":2374:2381  patient */\n      dup2\n        /* \"contracts/_Database8.sol\":2374:2394  patient.vaccineCount */\n      0x0f\n      add\n      0x00\n        /* \"contracts/_Database8.sol\":2374:2396  patient.vaccineCount++ */\n      dup2\n      sload\n      dup1\n      swap3\n      swap2\n      swap1\n      tag_35\n      swap1\n      tag_36\n      jump\t// in\n    tag_35:\n      swap2\n      swap1\n      pop\n      sstore\n      pop\n        /* \"contracts/_Database8.sol\":2192:2404  {... */\n      pop\n      pop\n        /* \"contracts/_Database8.sol\":2065:2404  function updateVaccine(... */\n      pop\n      pop\n      pop\n      jump\t// out\n        /* \"contracts/_Database8.sol\":3547:4209  function getPrescriptions(string memory _p_id, bool _prescriptions)... */\n    tag_15:\n        /* \"contracts/_Database8.sol\":3663:3684  Prescription[] memory */\n      0x60\n        /* \"contracts/_Database8.sol\":3706:3720  _prescriptions */\n      dup2\n        /* \"contracts/_Database8.sol\":3702:4202  if (_prescriptions) {... */\n      iszero\n      tag_38\n      jumpi\n        /* \"contracts/_Database8.sol\":3737:3760  Patient storage patient */\n      0x00\n        /* \"contracts/_Database8.sol\":3763:3771  patients */\n      dup1\n        /* \"contracts/_Database8.sol\":3772:3777  _p_id */\n      dup5\n        /* \"contracts/_Database8.sol\":3763:3778  patients[_p_id] */\n      mload(0x40)\n      tag_39\n      swap2\n      swap1\n      tag_31\n      jump\t// in\n    tag_39:\n      swap1\n      dup2\n      mstore\n      0x20\n      add\n      mload(0x40)\n      dup1\n      swap2\n      sub\n      swap1\n      keccak256\n        /* \"contracts/_Database8.sol\":3737:3778  Patient storage patient = patients[_p_id] */\n      swap1\n      pop\n        /* \"contracts/_Database8.sol\":3793:3806  uint256 count */\n      0x00\n        /* \"contracts/_Database8.sol\":3809:3816  patient */\n      dup2\n        /* \"contracts/_Database8.sol\":3809:3834  patient.prescriptionCount */\n      0x08\n      add\n      sload\n        /* \"contracts/_Database8.sol\":3793:3834  uint256 count = patient.prescriptionCount */\n      swap1\n      pop\n        /* \"contracts/_Database8.sol\":3849:3884  Prescription[] memory prescriptions */\n      0x00\n        /* \"contracts/_Database8.sol\":3906:3911  count */\n      dup2\n        /* \"contracts/_Database8.sol\":3887:3912  new Prescription[](count) */\n      0xffffffffffffffff\n      dup2\n      gt\n      iszero\n      tag_40\n      jumpi\n      tag_41\n      tag_42\n      jump\t// in\n    tag_41:\n    tag_40:\n      mload(0x40)\n      swap1\n      dup1\n      dup3\n      mstore\n      dup1\n      0x20\n      mul\n      0x20\n      add\n      dup3\n      add\n      0x40\n      mstore\n      dup1\n      iszero\n      tag_43\n      jumpi\n      dup2\n      0x20\n      add\n    tag_44:\n      tag_45\n      tag_46\n      jump\t// in\n    tag_45:\n      dup2\n      mstore\n      0x20\n      add\n      swap1\n      0x01\n      swap1\n      sub\n      swap1\n      dup2\n      tag_44\n      jumpi\n      swap1\n      pop\n    tag_43:\n      pop\n        /* \"contracts/_Database8.sol\":3849:3912  Prescription[] memory prescriptions = new Prescription[](count) */\n      swap1\n      pop\n        /* \"contracts/_Database8.sol\":3934:3943  uint256 i */\n      0x00\n        /* \"contracts/_Database8.sol\":3929:4043  for (uint256 i = 0; i < count; i++) {... */\n    tag_47:\n        /* \"contracts/_Database8.sol\":3953:3958  count */\n      dup3\n        /* \"contracts/_Database8.sol\":3949:3950  i */\n      dup2\n        /* \"contracts/_Database8.sol\":3949:3958  i < count */\n      lt\n        /* \"contracts/_Database8.sol\":3929:4043  for (uint256 i = 0; i < count; i++) {... */\n      iszero\n      tag_48\n      jumpi\n        /* \"contracts/_Database8.sol\":4003:4010  patient */\n      dup4\n        /* \"contracts/_Database8.sol\":4003:4024  patient.prescriptions */\n      0x06\n      add\n        /* \"contracts/_Database8.sol\":4003:4027  patient.prescriptions[i] */\n      0x00\n        /* \"contracts/_Database8.sol\":4025:4026  i */\n      dup3\n        /* \"contracts/_Database8.sol\":4003:4027  patient.prescriptions[i] */\n      dup2\n      mstore\n      0x20\n      add\n      swap1\n      dup2\n      mstore\n      0x20\n      add\n      0x00\n      keccak256\n        /* \"contracts/_Database8.sol\":3984:4027  prescriptions[i] = patient.prescriptions[i] */\n      mload(0x40)\n      dup1\n      0x60\n      add\n      0x40\n      mstore\n      swap1\n      dup2\n      0x00\n      dup3\n      add\n      sload\n      dup2\n      mstore\n      0x20\n      add\n      0x01\n      dup3\n      add\n      dup1\n      sload\n      tag_50\n      swap1\n      tag_51\n      jump\t// in\n    tag_50:\n      dup1\n      0x1f\n      add\n      0x20\n      dup1\n      swap2\n      div\n      mul\n      0x20\n      add\n      mload(0x40)\n      swap1\n      dup2\n      add\n      0x40\n      mstore\n      dup1\n      swap3\n      swap2\n      swap1\n      dup2\n      dup2\n      mstore\n      0x20\n      add\n      dup3\n      dup1\n      sload\n      tag_52\n      swap1\n      tag_51\n      jump\t// in\n    tag_52:\n      dup1\n      iszero\n      tag_53\n      jumpi\n      dup1\n      0x1f\n      lt\n      tag_54\n      jumpi\n      0x0100\n      dup1\n      dup4\n      sload\n      div\n      mul\n      dup4\n      mstore\n      swap2\n      0x20\n      add\n      swap2\n      jump(tag_53)\n    tag_54:\n      dup3\n      add\n      swap2\n      swap1\n      0x00\n      mstore\n      keccak256(0x00, 0x20)\n      swap1\n    tag_55:\n      dup2\n      sload\n      dup2\n      mstore\n      swap1\n      0x01\n      add\n      swap1\n      0x20\n      add\n      dup1\n      dup4\n      gt\n      tag_55\n      jumpi\n      dup3\n      swap1\n      sub\n      0x1f\n      and\n      dup3\n      add\n      swap2\n    tag_53:\n      pop\n      pop\n      pop\n      pop\n      pop\n      dup2\n      mstore\n      0x20\n      add\n      0x02\n      dup3\n      add\n      dup1\n      sload\n      tag_56\n      swap1\n      tag_51\n      jump\t// in\n    tag_56:\n      dup1\n      0x1f\n      add\n      0x20\n      dup1\n      swap2\n      div\n      mul\n      0x20\n      add\n      mload(0x40)\n      swap1\n      dup2\n      add\n      0x40\n      mstore\n      dup1\n      swap3\n      swap2\n      swap1\n      dup2\n      dup2\n      mstore\n      0x20\n      add\n      dup3\n      dup1\n      sload\n      tag_57\n      swap1\n      tag_51\n      jump\t// in\n    tag_57:\n      dup1\n      iszero\n      tag_58\n      jumpi\n      dup1\n      0x1f\n      lt\n      tag_59\n      jumpi\n      0x0100\n      dup1\n      dup4\n      sload\n      div\n      mul\n      dup4\n      mstore\n      swap2\n      0x20\n      add\n      swap2\n      jump(tag_58)\n    tag_59:\n      dup3\n      add\n      swap2\n      swap1\n      0x00\n      mstore\n      keccak256(0x00, 0x20)\n      swap1\n    tag_60:\n      dup2\n      sload\n      dup2\n      mstore\n      swap1\n      0x01\n      add\n      swap1\n      0x20\n      add\n      dup1\n      dup4\n      gt\n      tag_60\n      jumpi\n      dup3\n      swap1\n      sub\n      0x1f\n      and\n      dup3\n      add\n      swap2\n    tag_58:\n      pop\n      pop\n      pop\n      pop\n      pop\n      dup2\n      mstore\n      pop\n      pop\n        /* \"contracts/_Database8.sol\":3984:3997  prescriptions */\n      dup3\n        /* \"contracts/_Database8.sol\":3998:3999  i */\n      dup3\n        /* \"contracts/_Database8.sol\":3984:4000  prescriptions[i] */\n      dup2\n      mload\n      dup2\n      lt\n      tag_61\n      jumpi\n      tag_62\n      tag_63\n      jump\t// in\n    tag_62:\n    tag_61:\n      0x20\n      mul\n      0x20\n      add\n      add\n        /* \"contracts/_Database8.sol\":3984:4027  prescriptions[i] = patient.prescriptions[i] */\n      dup2\n      swap1\n      mstore\n      pop\n        /* \"contracts/_Database8.sol\":3960:3963  i++ */\n      dup1\n      dup1\n      tag_64\n      swap1\n      tag_36\n      jump\t// in\n    tag_64:\n      swap2\n      pop\n      pop\n        /* \"contracts/_Database8.sol\":3929:4043  for (uint256 i = 0; i < count; i++) {... */\n      jump(tag_47)\n    tag_48:\n      pop\n        /* \"contracts/_Database8.sol\":4064:4077  prescriptions */\n      dup1\n        /* \"contracts/_Database8.sol\":4057:4077  return prescriptions */\n      swap4\n      pop\n      pop\n      pop\n      pop\n      jump(tag_37)\n        /* \"contracts/_Database8.sol\":3702:4202  if (_prescriptions) {... */\n    tag_38:\n        /* \"contracts/_Database8.sol\":4136:4137  0 */\n      0x00\n        /* \"contracts/_Database8.sol\":4117:4138  new Prescription[](0) */\n      0xffffffffffffffff\n      dup2\n      gt\n      iszero\n      tag_66\n      jumpi\n      tag_67\n      tag_42\n      jump\t// in\n    tag_67:\n    tag_66:\n      mload(0x40)\n      swap1\n      dup1\n      dup3\n      mstore\n      dup1\n      0x20\n      mul\n      0x20\n      add\n      dup3\n      add\n      0x40\n      mstore\n      dup1\n      iszero\n      tag_68\n      jumpi\n      dup2\n      0x20\n      add\n    tag_69:\n      tag_70\n      tag_46\n      jump\t// in\n    tag_70:\n      dup2\n      mstore\n      0x20\n      add\n      swap1\n      0x01\n      swap1\n      sub\n      swap1\n      dup2\n      tag_69\n      jumpi\n      swap1\n      pop\n    tag_68:\n      pop\n        /* \"contracts/_Database8.sol\":4110:4138  return new Prescription[](0) */\n      swap1\n      pop\n        /* \"contracts/_Database8.sol\":3547:4209  function getPrescriptions(string memory _p_id, bool _prescriptions)... */\n    tag_37:\n      swap3\n      swap2\n      pop\n      pop\n      jump\t// out\n        /* \"contracts/_Database8.sol\":1493:2057  function addPatient(... */\n    tag_21:\n        /* \"contracts/_Database8.sol\":1772:1795  Patient storage patient */\n      0x00\n        /* \"contracts/_Database8.sol\":1798:1806  patients */\n      dup1\n        /* \"contracts/_Database8.sol\":1807:1810  _id */\n      dup9\n        /* \"contracts/_Database8.sol\":1798:1811  patients[_id] */\n      mload(0x40)\n      tag_72\n      swap2\n      swap1\n      tag_31\n      jump\t// in\n    tag_72:\n      swap1\n      dup2\n      mstore\n      0x20\n      add\n      mload(0x40)\n      dup1\n      swap2\n      sub\n      swap1\n      keccak256\n        /* \"contracts/_Database8.sol\":1772:1811  Patient storage patient = patients[_id] */\n      swap1\n      pop\n        /* \"contracts/_Database8.sol\":1837:1842  _name */\n      dup7\n        /* \"contracts/_Database8.sol\":1822:1829  patient */\n      dup2\n        /* \"contracts/_Database8.sol\":1822:1834  patient.name */\n      0x00\n      add\n        /* \"contracts/_Database8.sol\":1822:1842  patient.name = _name */\n      swap1\n      dup2\n      tag_73\n      swap2\n      swap1\n      tag_33\n      jump\t// in\n    tag_73:\n      pop\n        /* \"contracts/_Database8.sol\":1867:1871  _DOB */\n      dup6\n        /* \"contracts/_Database8.sol\":1853:1860  patient */\n      dup2\n        /* \"contracts/_Database8.sol\":1853:1864  patient.DOB */\n      0x01\n      add\n        /* \"contracts/_Database8.sol\":1853:1871  patient.DOB = _DOB */\n      swap1\n      dup2\n      tag_74\n      swap2\n      swap1\n      tag_33\n      jump\t// in\n    tag_74:\n      pop\n        /* \"contracts/_Database8.sol\":1900:1908  _phoneNo */\n      dup5\n        /* \"contracts/_Database8.sol\":1882:1889  patient */\n      dup2\n        /* \"contracts/_Database8.sol\":1882:1897  patient.phoneNo */\n      0x02\n      add\n        /* \"contracts/_Database8.sol\":1882:1908  patient.phoneNo = _phoneNo */\n      swap1\n      dup2\n      tag_75\n      swap2\n      swap1\n      tag_33\n      jump\t// in\n    tag_75:\n      pop\n        /* \"contracts/_Database8.sol\":1939:1949  _allergies */\n      dup3\n        /* \"contracts/_Database8.sol\":1919:1926  patient */\n      dup2\n        /* \"contracts/_Database8.sol\":1919:1936  patient.allergies */\n      0x05\n      add\n        /* \"contracts/_Database8.sol\":1919:1949  patient.allergies = _allergies */\n      swap1\n      dup2\n      tag_76\n      swap2\n      swap1\n      tag_33\n      jump\t// in\n    tag_76:\n      pop\n        /* \"contracts/_Database8.sol\":1988:2006  _specialConditions */\n      dup4\n        /* \"contracts/_Database8.sol\":1960:1967  patient */\n      dup2\n        /* \"contracts/_Database8.sol\":1960:1985  patient.specialConditions */\n      0x03\n      add\n        /* \"contracts/_Database8.sol\":1960:2006  patient.specialConditions = _specialConditions */\n      swap1\n      dup2\n      tag_77\n      swap2\n      swap1\n      tag_33\n      jump\t// in\n    tag_77:\n      pop\n        /* \"contracts/_Database8.sol\":2038:2049  _bloodGroup */\n      dup2\n        /* \"contracts/_Database8.sol\":2017:2024  patient */\n      dup2\n        /* \"contracts/_Database8.sol\":2017:2035  patient.bloodGroup */\n      0x04\n      add\n        /* \"contracts/_Database8.sol\":2017:2049  patient.bloodGroup = _bloodGroup */\n      swap1\n      dup2\n      tag_78\n      swap2\n      swap1\n      tag_33\n      jump\t// in\n    tag_78:\n      pop\n        /* \"contracts/_Database8.sol\":1761:2057  {... */\n      pop\n        /* \"contracts/_Database8.sol\":1493:2057  function addPatient(... */\n      pop\n      pop\n      pop\n      pop\n      pop\n      pop\n      pop\n      jump\t// out\n        /* \"contracts/_Database8.sol\":2412:2867  function updatePrescription(... */\n    tag_24:\n        /* \"contracts/_Database8.sol\":2561:2584  Patient storage patient */\n      0x00\n        /* \"contracts/_Database8.sol\":2587:2595  patients */\n      dup1\n        /* \"contracts/_Database8.sol\":2596:2601  _p_id */\n      dup5\n        /* \"contracts/_Database8.sol\":2587:2602  patients[_p_id] */\n      mload(0x40)\n      tag_80\n      swap2\n      swap1\n      tag_31\n      jump\t// in\n    tag_80:\n      swap1\n      dup2\n      mstore\n      0x20\n      add\n      mload(0x40)\n      dup1\n      swap2\n      sub\n      swap1\n      keccak256\n        /* \"contracts/_Database8.sol\":2561:2602  Patient storage patient = patients[_p_id] */\n      swap1\n      pop\n        /* \"contracts/_Database8.sol\":2613:2638  uint256 prescriptionIndex */\n      0x00\n        /* \"contracts/_Database8.sol\":2641:2648  patient */\n      dup2\n        /* \"contracts/_Database8.sol\":2641:2666  patient.prescriptionCount */\n      0x08\n      add\n      sload\n        /* \"contracts/_Database8.sol\":2613:2666  uint256 prescriptionIndex = patient.prescriptionCount */\n      swap1\n      pop\n        /* \"contracts/_Database8.sol\":2720:2821  Prescription(... */\n      mload(0x40)\n      dup1\n      0x60\n      add\n      0x40\n      mstore\n      dup1\n        /* \"contracts/_Database8.sol\":2747:2764  prescriptionIndex */\n      dup3\n        /* \"contracts/_Database8.sol\":2720:2821  Prescription(... */\n      dup2\n      mstore\n      0x20\n      add\n        /* \"contracts/_Database8.sol\":2779:2784  _date */\n      dup6\n        /* \"contracts/_Database8.sol\":2720:2821  Prescription(... */\n      dup2\n      mstore\n      0x20\n      add\n        /* \"contracts/_Database8.sol\":2799:2810  _doctorName */\n      dup5\n        /* \"contracts/_Database8.sol\":2720:2821  Prescription(... */\n      dup2\n      mstore\n      pop\n        /* \"contracts/_Database8.sol\":2677:2684  patient */\n      dup3\n        /* \"contracts/_Database8.sol\":2677:2698  patient.prescriptions */\n      0x06\n      add\n        /* \"contracts/_Database8.sol\":2677:2717  patient.prescriptions[prescriptionIndex] */\n      0x00\n        /* \"contracts/_Database8.sol\":2699:2716  prescriptionIndex */\n      dup4\n        /* \"contracts/_Database8.sol\":2677:2717  patient.prescriptions[prescriptionIndex] */\n      dup2\n      mstore\n      0x20\n      add\n      swap1\n      dup2\n      mstore\n      0x20\n      add\n      0x00\n      keccak256\n        /* \"contracts/_Database8.sol\":2677:2821  patient.prescriptions[prescriptionIndex] = Prescription(... */\n      0x00\n      dup3\n      add\n      mload\n      dup2\n      0x00\n      add\n      sstore\n      0x20\n      dup3\n      add\n      mload\n      dup2\n      0x01\n      add\n      swap1\n      dup2\n      tag_81\n      swap2\n      swap1\n      tag_33\n      jump\t// in\n    tag_81:\n      pop\n      0x40\n      dup3\n      add\n      mload\n      dup2\n      0x02\n      add\n      swap1\n      dup2\n      tag_82\n      swap2\n      swap1\n      tag_33\n      jump\t// in\n    tag_82:\n      pop\n      swap1\n      pop\n      pop\n        /* \"contracts/_Database8.sol\":2832:2839  patient */\n      dup2\n        /* \"contracts/_Database8.sol\":2832:2857  patient.prescriptionCount */\n      0x08\n      add\n      0x00\n        /* \"contracts/_Database8.sol\":2832:2859  patient.prescriptionCount++ */\n      dup2\n      sload\n      dup1\n      swap3\n      swap2\n      swap1\n      tag_83\n      swap1\n      tag_36\n      jump\t// in\n    tag_83:\n      swap2\n      swap1\n      pop\n      sstore\n      pop\n        /* \"contracts/_Database8.sol\":2550:2867  {... */\n      pop\n      pop\n        /* \"contracts/_Database8.sol\":2412:2867  function updatePrescription(... */\n      pop\n      pop\n      pop\n      jump\t// out\n        /* \"contracts/_Database8.sol\":2875:3537  function updateMedicine(... */\n    tag_28:\n        /* \"contracts/_Database8.sol\":3129:3152  Patient storage patient */\n      0x00\n        /* \"contracts/_Database8.sol\":3155:3163  patients */\n      dup1\n        /* \"contracts/_Database8.sol\":3164:3169  _p_id */\n      dup9\n        /* \"contracts/_Database8.sol\":3155:3170  patients[_p_id] */\n      mload(0x40)\n      tag_85\n      swap2\n      swap1\n      tag_31\n      jump\t// in\n    tag_85:\n      swap1\n      dup2\n      mstore\n      0x20\n      add\n      mload(0x40)\n      dup1\n      swap2\n      sub\n      swap1\n      keccak256\n        /* \"contracts/_Database8.sol\":3129:3170  Patient storage patient = patients[_p_id] */\n      swap1\n      pop\n        /* \"contracts/_Database8.sol\":3181:3202  uint256 medicineIndex */\n      0x00\n        /* \"contracts/_Database8.sol\":3205:3212  patient */\n      dup2\n        /* \"contracts/_Database8.sol\":3205:3226  patient.medicineCount */\n      0x09\n      add\n      sload\n        /* \"contracts/_Database8.sol\":3181:3226  uint256 medicineIndex = patient.medicineCount */\n      swap1\n      pop\n        /* \"contracts/_Database8.sol\":3288:3315  Medicine memory newMedicine */\n      0x00\n        /* \"contracts/_Database8.sol\":3318:3455  Medicine(... */\n      mload(0x40)\n      dup1\n      0xa0\n      add\n      0x40\n      mstore\n      dup1\n        /* \"contracts/_Database8.sol\":3341:3349  _morning */\n      dup10\n        /* \"contracts/_Database8.sol\":3318:3455  Medicine(... */\n      iszero\n      iszero\n      dup2\n      mstore\n      0x20\n      add\n        /* \"contracts/_Database8.sol\":3364:3374  _afternoon */\n      dup9\n        /* \"contracts/_Database8.sol\":3318:3455  Medicine(... */\n      iszero\n      iszero\n      dup2\n      mstore\n      0x20\n      add\n        /* \"contracts/_Database8.sol\":3389:3397  _evening */\n      dup8\n        /* \"contracts/_Database8.sol\":3318:3455  Medicine(... */\n      iszero\n      iszero\n      dup2\n      mstore\n      0x20\n      add\n        /* \"contracts/_Database8.sol\":3412:3417  _name */\n      dup7\n        /* \"contracts/_Database8.sol\":3318:3455  Medicine(... */\n      dup2\n      mstore\n      0x20\n      add\n        /* \"contracts/_Database8.sol\":3432:3444  _description */\n      dup6\n        /* \"contracts/_Database8.sol\":3318:3455  Medicine(... */\n      dup2\n      mstore\n      pop\n        /* \"contracts/_Database8.sol\":3288:3455  Medicine memory newMedicine = Medicine(... */\n      swap1\n      pop\n        /* \"contracts/_Database8.sol\":3518:3529  newMedicine */\n      dup1\n        /* \"contracts/_Database8.sol\":3466:3473  patient */\n      dup4\n        /* \"contracts/_Database8.sol\":3466:3483  patient.medicines */\n      0x07\n      add\n        /* \"contracts/_Database8.sol\":3466:3500  patient.medicines[_prescriptionId] */\n      0x00\n        /* \"contracts/_Database8.sol\":3484:3499  _prescriptionId */\n      dup12\n        /* \"contracts/_Database8.sol\":3466:3500  patient.medicines[_prescriptionId] */\n      dup2\n      mstore\n      0x20\n      add\n      swap1\n      dup2\n      mstore\n      0x20\n      add\n      0x00\n      keccak256\n        /* \"contracts/_Database8.sol\":3466:3515  patient.medicines[_prescriptionId][medicineIndex] */\n      0x00\n        /* \"contracts/_Database8.sol\":3501:3514  medicineIndex */\n      dup5\n        /* \"contracts/_Database8.sol\":3466:3515  patient.medicines[_prescriptionId][medicineIndex] */\n      dup2\n      mstore\n      0x20\n      add\n      swap1\n      dup2\n      mstore\n      0x20\n      add\n      0x00\n      keccak256\n        /* \"contracts/_Database8.sol\":3466:3529  patient.medicines[_prescriptionId][medicineIndex] = newMedicine */\n      0x00\n      dup3\n      add\n      mload\n      dup2\n      0x00\n      add\n      exp(0x0100, 0x00)\n      dup2\n      sload\n      dup2\n      0xff\n      mul\n      not\n      and\n      swap1\n      dup4\n      iszero\n      iszero\n      mul\n      or\n      swap1\n      sstore\n      pop\n      0x20\n      dup3\n      add\n      mload\n      dup2\n      0x00\n      add\n      exp(0x0100, 0x01)\n      dup2\n      sload\n      dup2\n      0xff\n      mul\n      not\n      and\n      swap1\n      dup4\n      iszero\n      iszero\n      mul\n      or\n      swap1\n      sstore\n      pop\n      0x40\n      dup3\n      add\n      mload\n      dup2\n      0x00\n      add\n      exp(0x0100, 0x02)\n      dup2\n      sload\n      dup2\n      0xff\n      mul\n      not\n      and\n      swap1\n      dup4\n      iszero\n      iszero\n      mul\n      or\n      swap1\n      sstore\n      pop\n      0x60\n      dup3\n      add\n      mload\n      dup2\n      0x01\n      add\n      swap1\n      dup2\n      tag_86\n      swap2\n      swap1\n      tag_33\n      jump\t// in\n    tag_86:\n      pop\n      0x80\n      dup3\n      add\n      mload\n      dup2\n      0x02\n      add\n      swap1\n      dup2\n      tag_87\n      swap2\n      swap1\n      tag_33\n      jump\t// in\n    tag_87:\n      pop\n      swap1\n      pop\n      pop\n        /* \"contracts/_Database8.sol\":3118:3537  {... */\n      pop\n      pop\n      pop\n        /* \"contracts/_Database8.sol\":2875:3537  function updateMedicine(... */\n      pop\n      pop\n      pop\n      pop\n      pop\n      pop\n      pop\n      jump\t// out\n    tag_46:\n      mload(0x40)\n      dup1\n      0x60\n      add\n      0x40\n      mstore\n      dup1\n      0x00\n      dup2\n      mstore\n      0x20\n      add\n      0x60\n      dup2\n      mstore\n      0x20\n      add\n      0x60\n      dup2\n      mstore\n      pop\n      swap1\n      jump\t// out\n        /* \"#utility.yul\":7:82   */\n    tag_88:\n        /* \"#utility.yul\":40:46   */\n      0x00\n        /* \"#utility.yul\":73:75   */\n      0x40\n        /* \"#utility.yul\":67:76   */\n      mload\n        /* \"#utility.yul\":57:76   */\n      swap1\n      pop\n        /* \"#utility.yul\":7:82   */\n      swap1\n      jump\t// out\n        /* \"#utility.yul\":88:205   */\n    tag_89:\n        /* \"#utility.yul\":197:198   */\n      0x00\n        /* \"#utility.yul\":194:195   */\n      dup1\n        /* \"#utility.yul\":187:199   */\n      revert\n        /* \"#utility.yul\":211:328   */\n    tag_90:\n        /* \"#utility.yul\":320:321   */\n      0x00\n        /* \"#utility.yul\":317:318   */\n      dup1\n        /* \"#utility.yul\":310:322   */\n      revert\n        /* \"#utility.yul\":334:451   */\n    tag_91:\n        /* \"#utility.yul\":443:444   */\n      0x00\n        /* \"#utility.yul\":440:441   */\n      dup1\n        /* \"#utility.yul\":433:445   */\n      revert\n        /* \"#utility.yul\":457:574   */\n    tag_92:\n        /* \"#utility.yul\":566:567   */\n      0x00\n        /* \"#utility.yul\":563:564   */\n      dup1\n        /* \"#utility.yul\":556:568   */\n      revert\n        /* \"#utility.yul\":580:682   */\n    tag_93:\n        /* \"#utility.yul\":621:627   */\n      0x00\n        /* \"#utility.yul\":672:674   */\n      0x1f\n        /* \"#utility.yul\":668:675   */\n      not\n        /* \"#utility.yul\":663:665   */\n      0x1f\n        /* \"#utility.yul\":656:661   */\n      dup4\n        /* \"#utility.yul\":652:666   */\n      add\n        /* \"#utility.yul\":648:676   */\n      and\n        /* \"#utility.yul\":638:676   */\n      swap1\n      pop\n        /* \"#utility.yul\":580:682   */\n      swap2\n      swap1\n      pop\n      jump\t// out\n        /* \"#utility.yul\":688:868   */\n    tag_42:\n        /* \"#utility.yul\":736:813   */\n      0x4e487b7100000000000000000000000000000000000000000000000000000000\n        /* \"#utility.yul\":733:734   */\n      0x00\n        /* \"#utility.yul\":726:814   */\n      mstore\n        /* \"#utility.yul\":833:837   */\n      0x41\n        /* \"#utility.yul\":830:831   */\n      0x04\n        /* \"#utility.yul\":823:838   */\n      mstore\n        /* \"#utility.yul\":857:861   */\n      0x24\n        /* \"#utility.yul\":854:855   */\n      0x00\n        /* \"#utility.yul\":847:862   */\n      revert\n        /* \"#utility.yul\":874:1155   */\n    tag_94:\n        /* \"#utility.yul\":957:984   */\n      tag_146\n        /* \"#utility.yul\":979:983   */\n      dup3\n        /* \"#utility.yul\":957:984   */\n      tag_93\n      jump\t// in\n    tag_146:\n        /* \"#utility.yul\":949:955   */\n      dup2\n        /* \"#utility.yul\":945:985   */\n      add\n        /* \"#utility.yul\":1087:1093   */\n      dup2\n        /* \"#utility.yul\":1075:1085   */\n      dup2\n        /* \"#utility.yul\":1072:1094   */\n      lt\n        /* \"#utility.yul\":1051:1069   */\n      0xffffffffffffffff\n        /* \"#utility.yul\":1039:1049   */\n      dup3\n        /* \"#utility.yul\":1036:1070   */\n      gt\n        /* \"#utility.yul\":1033:1095   */\n      or\n        /* \"#utility.yul\":1030:1118   */\n      iszero\n      tag_147\n      jumpi\n        /* \"#utility.yul\":1098:1116   */\n      tag_148\n      tag_42\n      jump\t// in\n    tag_148:\n        /* \"#utility.yul\":1030:1118   */\n    tag_147:\n        /* \"#utility.yul\":1138:1148   */\n      dup1\n        /* \"#utility.yul\":1134:1136   */\n      0x40\n        /* \"#utility.yul\":1127:1149   */\n      mstore\n        /* \"#utility.yul\":917:1155   */\n      pop\n        /* \"#utility.yul\":874:1155   */\n      pop\n      pop\n      jump\t// out\n        /* \"#utility.yul\":1161:1290   */\n    tag_95:\n        /* \"#utility.yul\":1195:1201   */\n      0x00\n        /* \"#utility.yul\":1222:1242   */\n      tag_150\n      tag_88\n      jump\t// in\n    tag_150:\n        /* \"#utility.yul\":1212:1242   */\n      swap1\n      pop\n        /* \"#utility.yul\":1251:1284   */\n      tag_151\n        /* \"#utility.yul\":1279:1283   */\n      dup3\n        /* \"#utility.yul\":1271:1277   */\n      dup3\n        /* \"#utility.yul\":1251:1284   */\n      tag_94\n      jump\t// in\n    tag_151:\n        /* \"#utility.yul\":1161:1290   */\n      swap2\n      swap1\n      pop\n      jump\t// out\n        /* \"#utility.yul\":1296:1604   */\n    tag_96:\n        /* \"#utility.yul\":1358:1362   */\n      0x00\n        /* \"#utility.yul\":1448:1466   */\n      0xffffffffffffffff\n        /* \"#utility.yul\":1440:1446   */\n      dup3\n        /* \"#utility.yul\":1437:1467   */\n      gt\n        /* \"#utility.yul\":1434:1490   */\n      iszero\n      tag_153\n      jumpi\n        /* \"#utility.yul\":1470:1488   */\n      tag_154\n      tag_42\n      jump\t// in\n    tag_154:\n        /* \"#utility.yul\":1434:1490   */\n    tag_153:\n        /* \"#utility.yul\":1508:1537   */\n      tag_155\n        /* \"#utility.yul\":1530:1536   */\n      dup3\n        /* \"#utility.yul\":1508:1537   */\n      tag_93\n      jump\t// in\n    tag_155:\n        /* \"#utility.yul\":1500:1537   */\n      swap1\n      pop\n        /* \"#utility.yul\":1592:1596   */\n      0x20\n        /* \"#utility.yul\":1586:1590   */\n      dup2\n        /* \"#utility.yul\":1582:1597   */\n      add\n        /* \"#utility.yul\":1574:1597   */\n      swap1\n      pop\n        /* \"#utility.yul\":1296:1604   */\n      swap2\n      swap1\n      pop\n      jump\t// out\n        /* \"#utility.yul\":1610:1756   */\n    tag_97:\n        /* \"#utility.yul\":1707:1713   */\n      dup3\n        /* \"#utility.yul\":1702:1705   */\n      dup2\n        /* \"#utility.yul\":1697:1700   */\n      dup4\n        /* \"#utility.yul\":1684:1714   */\n      calldatacopy\n        /* \"#utility.yul\":1748:1749   */\n      0x00\n        /* \"#utility.yul\":1739:1745   */\n      dup4\n        /* \"#utility.yul\":1734:1737   */\n      dup4\n        /* \"#utility.yul\":1730:1746   */\n      add\n        /* \"#utility.yul\":1723:1750   */\n      mstore\n        /* \"#utility.yul\":1610:1756   */\n      pop\n      pop\n      pop\n      jump\t// out\n        /* \"#utility.yul\":1762:2187   */\n    tag_98:\n        /* \"#utility.yul\":1840:1845   */\n      0x00\n        /* \"#utility.yul\":1865:1931   */\n      tag_158\n        /* \"#utility.yul\":1881:1930   */\n      tag_159\n        /* \"#utility.yul\":1923:1929   */\n      dup5\n        /* \"#utility.yul\":1881:1930   */\n      tag_96\n      jump\t// in\n    tag_159:\n        /* \"#utility.yul\":1865:1931   */\n      tag_95\n      jump\t// in\n    tag_158:\n        /* \"#utility.yul\":1856:1931   */\n      swap1\n      pop\n        /* \"#utility.yul\":1954:1960   */\n      dup3\n        /* \"#utility.yul\":1947:1952   */\n      dup2\n        /* \"#utility.yul\":1940:1961   */\n      mstore\n        /* \"#utility.yul\":1992:1996   */\n      0x20\n        /* \"#utility.yul\":1985:1990   */\n      dup2\n        /* \"#utility.yul\":1981:1997   */\n      add\n        /* \"#utility.yul\":2030:2033   */\n      dup5\n        /* \"#utility.yul\":2021:2027   */\n      dup5\n        /* \"#utility.yul\":2016:2019   */\n      dup5\n        /* \"#utility.yul\":2012:2028   */\n      add\n        /* \"#utility.yul\":2009:2034   */\n      gt\n        /* \"#utility.yul\":2006:2118   */\n      iszero\n      tag_160\n      jumpi\n        /* \"#utility.yul\":2037:2116   */\n      tag_161\n      tag_92\n      jump\t// in\n    tag_161:\n        /* \"#utility.yul\":2006:2118   */\n    tag_160:\n        /* \"#utility.yul\":2127:2181   */\n      tag_162\n        /* \"#utility.yul\":2174:2180   */\n      dup5\n        /* \"#utility.yul\":2169:2172   */\n      dup3\n        /* \"#utility.yul\":2164:2167   */\n      dup6\n        /* \"#utility.yul\":2127:2181   */\n      tag_97\n      jump\t// in\n    tag_162:\n        /* \"#utility.yul\":1846:2187   */\n      pop\n        /* \"#utility.yul\":1762:2187   */\n      swap4\n      swap3\n      pop\n      pop\n      pop\n      jump\t// out\n        /* \"#utility.yul\":2207:2547   */\n    tag_99:\n        /* \"#utility.yul\":2263:2268   */\n      0x00\n        /* \"#utility.yul\":2312:2315   */\n      dup3\n        /* \"#utility.yul\":2305:2309   */\n      0x1f\n        /* \"#utility.yul\":2297:2303   */\n      dup4\n        /* \"#utility.yul\":2293:2310   */\n      add\n        /* \"#utility.yul\":2289:2316   */\n      slt\n        /* \"#utility.yul\":2279:2401   */\n      tag_164\n      jumpi\n        /* \"#utility.yul\":2320:2399   */\n      tag_165\n      tag_91\n      jump\t// in\n    tag_165:\n        /* \"#utility.yul\":2279:2401   */\n    tag_164:\n        /* \"#utility.yul\":2437:2443   */\n      dup2\n        /* \"#utility.yul\":2424:2444   */\n      calldataload\n        /* \"#utility.yul\":2462:2541   */\n      tag_166\n        /* \"#utility.yul\":2537:2540   */\n      dup5\n        /* \"#utility.yul\":2529:2535   */\n      dup3\n        /* \"#utility.yul\":2522:2526   */\n      0x20\n        /* \"#utility.yul\":2514:2520   */\n      dup7\n        /* \"#utility.yul\":2510:2527   */\n      add\n        /* \"#utility.yul\":2462:2541   */\n      tag_98\n      jump\t// in\n    tag_166:\n        /* \"#utility.yul\":2453:2541   */\n      swap2\n      pop\n        /* \"#utility.yul\":2269:2547   */\n      pop\n        /* \"#utility.yul\":2207:2547   */\n      swap3\n      swap2\n      pop\n      pop\n      jump\t// out\n        /* \"#utility.yul\":2553:3712   */\n    tag_10:\n        /* \"#utility.yul\":2660:2666   */\n      0x00\n        /* \"#utility.yul\":2668:2674   */\n      dup1\n        /* \"#utility.yul\":2676:2682   */\n      0x00\n        /* \"#utility.yul\":2725:2727   */\n      0x60\n        /* \"#utility.yul\":2713:2722   */\n      dup5\n        /* \"#utility.yul\":2704:2711   */\n      dup7\n        /* \"#utility.yul\":2700:2723   */\n      sub\n        /* \"#utility.yul\":2696:2728   */\n      slt\n        /* \"#utility.yul\":2693:2812   */\n      iszero\n      tag_168\n      jumpi\n        /* \"#utility.yul\":2731:2810   */\n      tag_169\n      tag_89\n      jump\t// in\n    tag_169:\n        /* \"#utility.yul\":2693:2812   */\n    tag_168:\n        /* \"#utility.yul\":2879:2880   */\n      0x00\n        /* \"#utility.yul\":2868:2877   */\n      dup5\n        /* \"#utility.yul\":2864:2881   */\n      add\n        /* \"#utility.yul\":2851:2882   */\n      calldataload\n        /* \"#utility.yul\":2909:2927   */\n      0xffffffffffffffff\n        /* \"#utility.yul\":2901:2907   */\n      dup2\n        /* \"#utility.yul\":2898:2928   */\n      gt\n        /* \"#utility.yul\":2895:3012   */\n      iszero\n      tag_170\n      jumpi\n        /* \"#utility.yul\":2931:3010   */\n      tag_171\n      tag_90\n      jump\t// in\n    tag_171:\n        /* \"#utility.yul\":2895:3012   */\n    tag_170:\n        /* \"#utility.yul\":3036:3099   */\n      tag_172\n        /* \"#utility.yul\":3091:3098   */\n      dup7\n        /* \"#utility.yul\":3082:3088   */\n      dup3\n        /* \"#utility.yul\":3071:3080   */\n      dup8\n        /* \"#utility.yul\":3067:3089   */\n      add\n        /* \"#utility.yul\":3036:3099   */\n      tag_99\n      jump\t// in\n    tag_172:\n        /* \"#utility.yul\":3026:3099   */\n      swap4\n      pop\n        /* \"#utility.yul\":2822:3109   */\n      pop\n        /* \"#utility.yul\":3176:3178   */\n      0x20\n        /* \"#utility.yul\":3165:3174   */\n      dup5\n        /* \"#utility.yul\":3161:3179   */\n      add\n        /* \"#utility.yul\":3148:3180   */\n      calldataload\n        /* \"#utility.yul\":3207:3225   */\n      0xffffffffffffffff\n        /* \"#utility.yul\":3199:3205   */\n      dup2\n        /* \"#utility.yul\":3196:3226   */\n      gt\n        /* \"#utility.yul\":3193:3310   */\n      iszero\n      tag_173\n      jumpi\n        /* \"#utility.yul\":3229:3308   */\n      tag_174\n      tag_90\n      jump\t// in\n    tag_174:\n        /* \"#utility.yul\":3193:3310   */\n    tag_173:\n        /* \"#utility.yul\":3334:3397   */\n      tag_175\n        /* \"#utility.yul\":3389:3396   */\n      dup7\n        /* \"#utility.yul\":3380:3386   */\n      dup3\n        /* \"#utility.yul\":3369:3378   */\n      dup8\n        /* \"#utility.yul\":3365:3387   */\n      add\n        /* \"#utility.yul\":3334:3397   */\n      tag_99\n      jump\t// in\n    tag_175:\n        /* \"#utility.yul\":3324:3397   */\n      swap3\n      pop\n        /* \"#utility.yul\":3119:3407   */\n      pop\n        /* \"#utility.yul\":3474:3476   */\n      0x40\n        /* \"#utility.yul\":3463:3472   */\n      dup5\n        /* \"#utility.yul\":3459:3477   */\n      add\n        /* \"#utility.yul\":3446:3478   */\n      calldataload\n        /* \"#utility.yul\":3505:3523   */\n      0xffffffffffffffff\n        /* \"#utility.yul\":3497:3503   */\n      dup2\n        /* \"#utility.yul\":3494:3524   */\n      gt\n        /* \"#utility.yul\":3491:3608   */\n      iszero\n      tag_176\n      jumpi\n        /* \"#utility.yul\":3527:3606   */\n      tag_177\n      tag_90\n      jump\t// in\n    tag_177:\n        /* \"#utility.yul\":3491:3608   */\n    tag_176:\n        /* \"#utility.yul\":3632:3695   */\n      tag_178\n        /* \"#utility.yul\":3687:3694   */\n      dup7\n        /* \"#utility.yul\":3678:3684   */\n      dup3\n        /* \"#utility.yul\":3667:3676   */\n      dup8\n        /* \"#utility.yul\":3663:3685   */\n      add\n        /* \"#utility.yul\":3632:3695   */\n      tag_99\n      jump\t// in\n    tag_178:\n        /* \"#utility.yul\":3622:3695   */\n      swap2\n      pop\n        /* \"#utility.yul\":3417:3705   */\n      pop\n        /* \"#utility.yul\":2553:3712   */\n      swap3\n      pop\n      swap3\n      pop\n      swap3\n      jump\t// out\n        /* \"#utility.yul\":3718:3808   */\n    tag_100:\n        /* \"#utility.yul\":3752:3759   */\n      0x00\n        /* \"#utility.yul\":3795:3800   */\n      dup2\n        /* \"#utility.yul\":3788:3801   */\n      iszero\n        /* \"#utility.yul\":3781:3802   */\n      iszero\n        /* \"#utility.yul\":3770:3802   */\n      swap1\n      pop\n        /* \"#utility.yul\":3718:3808   */\n      swap2\n      swap1\n      pop\n      jump\t// out\n        /* \"#utility.yul\":3814:3930   */\n    tag_101:\n        /* \"#utility.yul\":3884:3905   */\n      tag_181\n        /* \"#utility.yul\":3899:3904   */\n      dup2\n        /* \"#utility.yul\":3884:3905   */\n      tag_100\n      jump\t// in\n    tag_181:\n        /* \"#utility.yul\":3877:3882   */\n      dup2\n        /* \"#utility.yul\":3874:3906   */\n      eq\n        /* \"#utility.yul\":3864:3924   */\n      tag_182\n      jumpi\n        /* \"#utility.yul\":3920:3921   */\n      0x00\n        /* \"#utility.yul\":3917:3918   */\n      dup1\n        /* \"#utility.yul\":3910:3922   */\n      revert\n        /* \"#utility.yul\":3864:3924   */\n    tag_182:\n        /* \"#utility.yul\":3814:3930   */\n      pop\n      jump\t// out\n        /* \"#utility.yul\":3936:4069   */\n    tag_102:\n        /* \"#utility.yul\":3979:3984   */\n      0x00\n        /* \"#utility.yul\":4017:4023   */\n      dup2\n        /* \"#utility.yul\":4004:4024   */\n      calldataload\n        /* \"#utility.yul\":3995:4024   */\n      swap1\n      pop\n        /* \"#utility.yul\":4033:4063   */\n      tag_184\n        /* \"#utility.yul\":4057:4062   */\n      dup2\n        /* \"#utility.yul\":4033:4063   */\n      tag_101\n      jump\t// in\n    tag_184:\n        /* \"#utility.yul\":3936:4069   */\n      swap3\n      swap2\n      pop\n      pop\n      jump\t// out\n        /* \"#utility.yul\":4075:4723   */\n    tag_14:\n        /* \"#utility.yul\":4150:4156   */\n      0x00\n        /* \"#utility.yul\":4158:4164   */\n      dup1\n        /* \"#utility.yul\":4207:4209   */\n      0x40\n        /* \"#utility.yul\":4195:4204   */\n      dup4\n        /* \"#utility.yul\":4186:4193   */\n      dup6\n        /* \"#utility.yul\":4182:4205   */\n      sub\n        /* \"#utility.yul\":4178:4210   */\n      slt\n        /* \"#utility.yul\":4175:4294   */\n      iszero\n      tag_186\n      jumpi\n        /* \"#utility.yul\":4213:4292   */\n      tag_187\n      tag_89\n      jump\t// in\n    tag_187:\n        /* \"#utility.yul\":4175:4294   */\n    tag_186:\n        /* \"#utility.yul\":4361:4362   */\n      0x00\n        /* \"#utility.yul\":4350:4359   */\n      dup4\n        /* \"#utility.yul\":4346:4363   */\n      add\n        /* \"#utility.yul\":4333:4364   */\n      calldataload\n        /* \"#utility.yul\":4391:4409   */\n      0xffffffffffffffff\n        /* \"#utility.yul\":4383:4389   */\n      dup2\n        /* \"#utility.yul\":4380:4410   */\n      gt\n        /* \"#utility.yul\":4377:4494   */\n      iszero\n      tag_188\n      jumpi\n        /* \"#utility.yul\":4413:4492   */\n      tag_189\n      tag_90\n      jump\t// in\n    tag_189:\n        /* \"#utility.yul\":4377:4494   */\n    tag_188:\n        /* \"#utility.yul\":4518:4581   */\n      tag_190\n        /* \"#utility.yul\":4573:4580   */\n      dup6\n        /* \"#utility.yul\":4564:4570   */\n      dup3\n        /* \"#utility.yul\":4553:4562   */\n      dup7\n        /* \"#utility.yul\":4549:4571   */\n      add\n        /* \"#utility.yul\":4518:4581   */\n      tag_99\n      jump\t// in\n    tag_190:\n        /* \"#utility.yul\":4508:4581   */\n      swap3\n      pop\n        /* \"#utility.yul\":4304:4591   */\n      pop\n        /* \"#utility.yul\":4630:4632   */\n      0x20\n        /* \"#utility.yul\":4656:4706   */\n      tag_191\n        /* \"#utility.yul\":4698:4705   */\n      dup6\n        /* \"#utility.yul\":4689:4695   */\n      dup3\n        /* \"#utility.yul\":4678:4687   */\n      dup7\n        /* \"#utility.yul\":4674:4696   */\n      add\n        /* \"#utility.yul\":4656:4706   */\n      tag_102\n      jump\t// in\n    tag_191:\n        /* \"#utility.yul\":4646:4706   */\n      swap2\n      pop\n        /* \"#utility.yul\":4601:4716   */\n      pop\n        /* \"#utility.yul\":4075:4723   */\n      swap3\n      pop\n      swap3\n      swap1\n      pop\n      jump\t// out\n        /* \"#utility.yul\":4729:4871   */\n    tag_103:\n        /* \"#utility.yul\":4824:4830   */\n      0x00\n        /* \"#utility.yul\":4858:4863   */\n      dup2\n        /* \"#utility.yul\":4852:4864   */\n      mload\n        /* \"#utility.yul\":4842:4864   */\n      swap1\n      pop\n        /* \"#utility.yul\":4729:4871   */\n      swap2\n      swap1\n      pop\n      jump\t// out\n        /* \"#utility.yul\":4877:5089   */\n    tag_104:\n        /* \"#utility.yul\":5004:5015   */\n      0x00\n        /* \"#utility.yul\":5038:5044   */\n      dup3\n        /* \"#utility.yul\":5033:5036   */\n      dup3\n        /* \"#utility.yul\":5026:5045   */\n      mstore\n        /* \"#utility.yul\":5078:5082   */\n      0x20\n        /* \"#utility.yul\":5073:5076   */\n      dup3\n        /* \"#utility.yul\":5069:5083   */\n      add\n        /* \"#utility.yul\":5054:5083   */\n      swap1\n      pop\n        /* \"#utility.yul\":4877:5089   */\n      swap3\n      swap2\n      pop\n      pop\n      jump\t// out\n        /* \"#utility.yul\":5095:5255   */\n    tag_105:\n        /* \"#utility.yul\":5190:5194   */\n      0x00\n        /* \"#utility.yul\":5213:5216   */\n      dup2\n        /* \"#utility.yul\":5205:5216   */\n      swap1\n      pop\n        /* \"#utility.yul\":5243:5247   */\n      0x20\n        /* \"#utility.yul\":5238:5241   */\n      dup3\n        /* \"#utility.yul\":5234:5248   */\n      add\n        /* \"#utility.yul\":5226:5248   */\n      swap1\n      pop\n        /* \"#utility.yul\":5095:5255   */\n      swap2\n      swap1\n      pop\n      jump\t// out\n        /* \"#utility.yul\":5261:5338   */\n    tag_106:\n        /* \"#utility.yul\":5298:5305   */\n      0x00\n        /* \"#utility.yul\":5327:5332   */\n      dup2\n        /* \"#utility.yul\":5316:5332   */\n      swap1\n      pop\n        /* \"#utility.yul\":5261:5338   */\n      swap2\n      swap1\n      pop\n      jump\t// out\n        /* \"#utility.yul\":5344:5452   */\n    tag_107:\n        /* \"#utility.yul\":5421:5445   */\n      tag_197\n        /* \"#utility.yul\":5439:5444   */\n      dup2\n        /* \"#utility.yul\":5421:5445   */\n      tag_106\n      jump\t// in\n    tag_197:\n        /* \"#utility.yul\":5416:5419   */\n      dup3\n        /* \"#utility.yul\":5409:5446   */\n      mstore\n        /* \"#utility.yul\":5344:5452   */\n      pop\n      pop\n      jump\t// out\n        /* \"#utility.yul\":5458:5557   */\n    tag_108:\n        /* \"#utility.yul\":5510:5516   */\n      0x00\n        /* \"#utility.yul\":5544:5549   */\n      dup2\n        /* \"#utility.yul\":5538:5550   */\n      mload\n        /* \"#utility.yul\":5528:5550   */\n      swap1\n      pop\n        /* \"#utility.yul\":5458:5557   */\n      swap2\n      swap1\n      pop\n      jump\t// out\n        /* \"#utility.yul\":5563:5722   */\n    tag_109:\n        /* \"#utility.yul\":5637:5648   */\n      0x00\n        /* \"#utility.yul\":5671:5677   */\n      dup3\n        /* \"#utility.yul\":5666:5669   */\n      dup3\n        /* \"#utility.yul\":5659:5678   */\n      mstore\n        /* \"#utility.yul\":5711:5715   */\n      0x20\n        /* \"#utility.yul\":5706:5709   */\n      dup3\n        /* \"#utility.yul\":5702:5716   */\n      add\n        /* \"#utility.yul\":5687:5716   */\n      swap1\n      pop\n        /* \"#utility.yul\":5563:5722   */\n      swap3\n      swap2\n      pop\n      pop\n      jump\t// out\n        /* \"#utility.yul\":5728:5974   */\n    tag_110:\n        /* \"#utility.yul\":5809:5810   */\n      0x00\n        /* \"#utility.yul\":5819:5932   */\n    tag_201:\n        /* \"#utility.yul\":5833:5839   */\n      dup4\n        /* \"#utility.yul\":5830:5831   */\n      dup2\n        /* \"#utility.yul\":5827:5840   */\n      lt\n        /* \"#utility.yul\":5819:5932   */\n      iszero\n      tag_203\n      jumpi\n        /* \"#utility.yul\":5918:5919   */\n      dup1\n        /* \"#utility.yul\":5913:5916   */\n      dup3\n        /* \"#utility.yul\":5909:5920   */\n      add\n        /* \"#utility.yul\":5903:5921   */\n      mload\n        /* \"#utility.yul\":5899:5900   */\n      dup2\n        /* \"#utility.yul\":5894:5897   */\n      dup5\n        /* \"#utility.yul\":5890:5901   */\n      add\n        /* \"#utility.yul\":5883:5922   */\n      mstore\n        /* \"#utility.yul\":5855:5857   */\n      0x20\n        /* \"#utility.yul\":5852:5853   */\n      dup2\n        /* \"#utility.yul\":5848:5858   */\n      add\n        /* \"#utility.yul\":5843:5858   */\n      swap1\n      pop\n        /* \"#utility.yul\":5819:5932   */\n      jump(tag_201)\n    tag_203:\n        /* \"#utility.yul\":5966:5967   */\n      0x00\n        /* \"#utility.yul\":5957:5963   */\n      dup5\n        /* \"#utility.yul\":5952:5955   */\n      dup5\n        /* \"#utility.yul\":5948:5964   */\n      add\n        /* \"#utility.yul\":5941:5968   */\n      mstore\n        /* \"#utility.yul\":5790:5974   */\n      pop\n        /* \"#utility.yul\":5728:5974   */\n      pop\n      pop\n      pop\n      jump\t// out\n        /* \"#utility.yul\":5980:6337   */\n    tag_111:\n        /* \"#utility.yul\":6058:6061   */\n      0x00\n        /* \"#utility.yul\":6086:6125   */\n      tag_205\n        /* \"#utility.yul\":6119:6124   */\n      dup3\n        /* \"#utility.yul\":6086:6125   */\n      tag_108\n      jump\t// in\n    tag_205:\n        /* \"#utility.yul\":6141:6202   */\n      tag_206\n        /* \"#utility.yul\":6195:6201   */\n      dup2\n        /* \"#utility.yul\":6190:6193   */\n      dup6\n        /* \"#utility.yul\":6141:6202   */\n      tag_109\n      jump\t// in\n    tag_206:\n        /* \"#utility.yul\":6134:6202   */\n      swap4\n      pop\n        /* \"#utility.yul\":6211:6276   */\n      tag_207\n        /* \"#utility.yul\":6269:6275   */\n      dup2\n        /* \"#utility.yul\":6264:6267   */\n      dup6\n        /* \"#utility.yul\":6257:6261   */\n      0x20\n        /* \"#utility.yul\":6250:6255   */\n      dup7\n        /* \"#utility.yul\":6246:6262   */\n      add\n        /* \"#utility.yul\":6211:6276   */\n      tag_110\n      jump\t// in\n    tag_207:\n        /* \"#utility.yul\":6301:6330   */\n      tag_208\n        /* \"#utility.yul\":6323:6329   */\n      dup2\n        /* \"#utility.yul\":6301:6330   */\n      tag_93\n      jump\t// in\n    tag_208:\n        /* \"#utility.yul\":6296:6299   */\n      dup5\n        /* \"#utility.yul\":6292:6331   */\n      add\n        /* \"#utility.yul\":6285:6331   */\n      swap2\n      pop\n        /* \"#utility.yul\":6062:6337   */\n      pop\n        /* \"#utility.yul\":5980:6337   */\n      swap3\n      swap2\n      pop\n      pop\n      jump\t// out\n        /* \"#utility.yul\":6423:7286   */\n    tag_112:\n        /* \"#utility.yul\":6538:6541   */\n      0x00\n        /* \"#utility.yul\":6574:6578   */\n      0x60\n        /* \"#utility.yul\":6569:6572   */\n      dup4\n        /* \"#utility.yul\":6565:6579   */\n      add\n        /* \"#utility.yul\":6671:6675   */\n      0x00\n        /* \"#utility.yul\":6664:6669   */\n      dup4\n        /* \"#utility.yul\":6660:6676   */\n      add\n        /* \"#utility.yul\":6654:6677   */\n      mload\n        /* \"#utility.yul\":6690:6753   */\n      tag_210\n        /* \"#utility.yul\":6747:6751   */\n      0x00\n        /* \"#utility.yul\":6742:6745   */\n      dup7\n        /* \"#utility.yul\":6738:6752   */\n      add\n        /* \"#utility.yul\":6724:6736   */\n      dup3\n        /* \"#utility.yul\":6690:6753   */\n      tag_107\n      jump\t// in\n    tag_210:\n        /* \"#utility.yul\":6589:6763   */\n      pop\n        /* \"#utility.yul\":6845:6849   */\n      0x20\n        /* \"#utility.yul\":6838:6843   */\n      dup4\n        /* \"#utility.yul\":6834:6850   */\n      add\n        /* \"#utility.yul\":6828:6851   */\n      mload\n        /* \"#utility.yul\":6898:6901   */\n      dup5\n        /* \"#utility.yul\":6892:6896   */\n      dup3\n        /* \"#utility.yul\":6888:6902   */\n      sub\n        /* \"#utility.yul\":6881:6885   */\n      0x20\n        /* \"#utility.yul\":6876:6879   */\n      dup7\n        /* \"#utility.yul\":6872:6886   */\n      add\n        /* \"#utility.yul\":6865:6903   */\n      mstore\n        /* \"#utility.yul\":6924:6997   */\n      tag_211\n        /* \"#utility.yul\":6992:6996   */\n      dup3\n        /* \"#utility.yul\":6978:6990   */\n      dup3\n        /* \"#utility.yul\":6924:6997   */\n      tag_111\n      jump\t// in\n    tag_211:\n        /* \"#utility.yul\":6916:6997   */\n      swap2\n      pop\n        /* \"#utility.yul\":6773:7008   */\n      pop\n        /* \"#utility.yul\":7096:7100   */\n      0x40\n        /* \"#utility.yul\":7089:7094   */\n      dup4\n        /* \"#utility.yul\":7085:7101   */\n      add\n        /* \"#utility.yul\":7079:7102   */\n      mload\n        /* \"#utility.yul\":7149:7152   */\n      dup5\n        /* \"#utility.yul\":7143:7147   */\n      dup3\n        /* \"#utility.yul\":7139:7153   */\n      sub\n        /* \"#utility.yul\":7132:7136   */\n      0x40\n        /* \"#utility.yul\":7127:7130   */\n      dup7\n        /* \"#utility.yul\":7123:7137   */\n      add\n        /* \"#utility.yul\":7116:7154   */\n      mstore\n        /* \"#utility.yul\":7175:7248   */\n      tag_212\n        /* \"#utility.yul\":7243:7247   */\n      dup3\n        /* \"#utility.yul\":7229:7241   */\n      dup3\n        /* \"#utility.yul\":7175:7248   */\n      tag_111\n      jump\t// in\n    tag_212:\n        /* \"#utility.yul\":7167:7248   */\n      swap2\n      pop\n        /* \"#utility.yul\":7018:7259   */\n      pop\n        /* \"#utility.yul\":7276:7280   */\n      dup1\n        /* \"#utility.yul\":7269:7280   */\n      swap2\n      pop\n        /* \"#utility.yul\":6543:7286   */\n      pop\n        /* \"#utility.yul\":6423:7286   */\n      swap3\n      swap2\n      pop\n      pop\n      jump\t// out\n        /* \"#utility.yul\":7292:7560   */\n    tag_113:\n        /* \"#utility.yul\":7417:7427   */\n      0x00\n        /* \"#utility.yul\":7452:7554   */\n      tag_214\n        /* \"#utility.yul\":7550:7553   */\n      dup4\n        /* \"#utility.yul\":7542:7548   */\n      dup4\n        /* \"#utility.yul\":7452:7554   */\n      tag_112\n      jump\t// in\n    tag_214:\n        /* \"#utility.yul\":7438:7554   */\n      swap1\n      pop\n        /* \"#utility.yul\":7292:7560   */\n      swap3\n      swap2\n      pop\n      pop\n      jump\t// out\n        /* \"#utility.yul\":7566:7707   */\n    tag_114:\n        /* \"#utility.yul\":7664:7668   */\n      0x00\n        /* \"#utility.yul\":7696:7700   */\n      0x20\n        /* \"#utility.yul\":7691:7694   */\n      dup3\n        /* \"#utility.yul\":7687:7701   */\n      add\n        /* \"#utility.yul\":7679:7701   */\n      swap1\n      pop\n        /* \"#utility.yul\":7566:7707   */\n      swap2\n      swap1\n      pop\n      jump\t// out\n        /* \"#utility.yul\":7797:8932   */\n    tag_115:\n        /* \"#utility.yul\":7972:7975   */\n      0x00\n        /* \"#utility.yul\":8001:8083   */\n      tag_217\n        /* \"#utility.yul\":8077:8082   */\n      dup3\n        /* \"#utility.yul\":8001:8083   */\n      tag_103\n      jump\t// in\n    tag_217:\n        /* \"#utility.yul\":8099:8213   */\n      tag_218\n        /* \"#utility.yul\":8206:8212   */\n      dup2\n        /* \"#utility.yul\":8201:8204   */\n      dup6\n        /* \"#utility.yul\":8099:8213   */\n      tag_104\n      jump\t// in\n    tag_218:\n        /* \"#utility.yul\":8092:8213   */\n      swap4\n      pop\n        /* \"#utility.yul\":8239:8242   */\n      dup4\n        /* \"#utility.yul\":8284:8288   */\n      0x20\n        /* \"#utility.yul\":8276:8282   */\n      dup3\n        /* \"#utility.yul\":8272:8289   */\n      mul\n        /* \"#utility.yul\":8267:8270   */\n      dup6\n        /* \"#utility.yul\":8263:8290   */\n      add\n        /* \"#utility.yul\":8314:8398   */\n      tag_219\n        /* \"#utility.yul\":8392:8397   */\n      dup6\n        /* \"#utility.yul\":8314:8398   */\n      tag_105\n      jump\t// in\n    tag_219:\n        /* \"#utility.yul\":8421:8428   */\n      dup1\n        /* \"#utility.yul\":8452:8453   */\n      0x00\n        /* \"#utility.yul\":8437:8887   */\n    tag_220:\n        /* \"#utility.yul\":8462:8468   */\n      dup6\n        /* \"#utility.yul\":8459:8460   */\n      dup2\n        /* \"#utility.yul\":8456:8469   */\n      lt\n        /* \"#utility.yul\":8437:8887   */\n      iszero\n      tag_222\n      jumpi\n        /* \"#utility.yul\":8533:8542   */\n      dup5\n        /* \"#utility.yul\":8527:8531   */\n      dup5\n        /* \"#utility.yul\":8523:8543   */\n      sub\n        /* \"#utility.yul\":8518:8521   */\n      dup10\n        /* \"#utility.yul\":8511:8544   */\n      mstore\n        /* \"#utility.yul\":8584:8590   */\n      dup2\n        /* \"#utility.yul\":8578:8591   */\n      mload\n        /* \"#utility.yul\":8612:8732   */\n      tag_223\n        /* \"#utility.yul\":8727:8731   */\n      dup6\n        /* \"#utility.yul\":8712:8725   */\n      dup3\n        /* \"#utility.yul\":8612:8732   */\n      tag_113\n      jump\t// in\n    tag_223:\n        /* \"#utility.yul\":8604:8732   */\n      swap5\n      pop\n        /* \"#utility.yul\":8755:8843   */\n      tag_224\n        /* \"#utility.yul\":8836:8842   */\n      dup4\n        /* \"#utility.yul\":8755:8843   */\n      tag_114\n      jump\t// in\n    tag_224:\n        /* \"#utility.yul\":8745:8843   */\n      swap3\n      pop\n        /* \"#utility.yul\":8872:8876   */\n      0x20\n        /* \"#utility.yul\":8867:8870   */\n      dup11\n        /* \"#utility.yul\":8863:8877   */\n      add\n        /* \"#utility.yul\":8856:8877   */\n      swap10\n      pop\n        /* \"#utility.yul\":8497:8887   */\n      pop\n        /* \"#utility.yul\":8484:8485   */\n      0x01\n        /* \"#utility.yul\":8481:8482   */\n      dup2\n        /* \"#utility.yul\":8477:8486   */\n      add\n        /* \"#utility.yul\":8472:8486   */\n      swap1\n      pop\n        /* \"#utility.yul\":8437:8887   */\n      jump(tag_220)\n    tag_222:\n        /* \"#utility.yul\":8441:8455   */\n      pop\n        /* \"#utility.yul\":8903:8907   */\n      dup3\n        /* \"#utility.yul\":8896:8907   */\n      swap8\n      pop\n        /* \"#utility.yul\":8923:8926   */\n      dup8\n        /* \"#utility.yul\":8916:8926   */\n      swap6\n      pop\n        /* \"#utility.yul\":7977:8932   */\n      pop\n      pop\n      pop\n      pop\n      pop\n        /* \"#utility.yul\":7797:8932   */\n      swap3\n      swap2\n      pop\n      pop\n      jump\t// out\n        /* \"#utility.yul\":8938:9423   */\n    tag_17:\n        /* \"#utility.yul\":9137:9141   */\n      0x00\n        /* \"#utility.yul\":9175:9177   */\n      0x20\n        /* \"#utility.yul\":9164:9173   */\n      dup3\n        /* \"#utility.yul\":9160:9178   */\n      add\n        /* \"#utility.yul\":9152:9178   */\n      swap1\n      pop\n        /* \"#utility.yul\":9224:9233   */\n      dup2\n        /* \"#utility.yul\":9218:9222   */\n      dup2\n        /* \"#utility.yul\":9214:9234   */\n      sub\n        /* \"#utility.yul\":9210:9211   */\n      0x00\n        /* \"#utility.yul\":9199:9208   */\n      dup4\n        /* \"#utility.yul\":9195:9212   */\n      add\n        /* \"#utility.yul\":9188:9235   */\n      mstore\n        /* \"#utility.yul\":9252:9416   */\n      tag_226\n        /* \"#utility.yul\":9411:9415   */\n      dup2\n        /* \"#utility.yul\":9402:9408   */\n      dup5\n        /* \"#utility.yul\":9252:9416   */\n      tag_115\n      jump\t// in\n    tag_226:\n        /* \"#utility.yul\":9244:9416   */\n      swap1\n      pop\n        /* \"#utility.yul\":8938:9423   */\n      swap3\n      swap2\n      pop\n      pop\n      jump\t// out\n        /* \"#utility.yul\":9429:11892   */\n    tag_20:\n        /* \"#utility.yul\":9612:9618   */\n      0x00\n        /* \"#utility.yul\":9620:9626   */\n      dup1\n        /* \"#utility.yul\":9628:9634   */\n      0x00\n        /* \"#utility.yul\":9636:9642   */\n      dup1\n        /* \"#utility.yul\":9644:9650   */\n      0x00\n        /* \"#utility.yul\":9652:9658   */\n      dup1\n        /* \"#utility.yul\":9660:9666   */\n      0x00\n        /* \"#utility.yul\":9709:9712   */\n      0xe0\n        /* \"#utility.yul\":9697:9706   */\n      dup9\n        /* \"#utility.yul\":9688:9695   */\n      dup11\n        /* \"#utility.yul\":9684:9707   */\n      sub\n        /* \"#utility.yul\":9680:9713   */\n      slt\n        /* \"#utility.yul\":9677:9797   */\n      iszero\n      tag_228\n      jumpi\n        /* \"#utility.yul\":9716:9795   */\n      tag_229\n      tag_89\n      jump\t// in\n    tag_229:\n        /* \"#utility.yul\":9677:9797   */\n    tag_228:\n        /* \"#utility.yul\":9864:9865   */\n      0x00\n        /* \"#utility.yul\":9853:9862   */\n      dup9\n        /* \"#utility.yul\":9849:9866   */\n      add\n        /* \"#utility.yul\":9836:9867   */\n      calldataload\n        /* \"#utility.yul\":9894:9912   */\n      0xffffffffffffffff\n        /* \"#utility.yul\":9886:9892   */\n      dup2\n        /* \"#utility.yul\":9883:9913   */\n      gt\n        /* \"#utility.yul\":9880:9997   */\n      iszero\n      tag_230\n      jumpi\n        /* \"#utility.yul\":9916:9995   */\n      tag_231\n      tag_90\n      jump\t// in\n    tag_231:\n        /* \"#utility.yul\":9880:9997   */\n    tag_230:\n        /* \"#utility.yul\":10021:10084   */\n      tag_232\n        /* \"#utility.yul\":10076:10083   */\n      dup11\n        /* \"#utility.yul\":10067:10073   */\n      dup3\n        /* \"#utility.yul\":10056:10065   */\n      dup12\n        /* \"#utility.yul\":10052:10074   */\n      add\n        /* \"#utility.yul\":10021:10084   */\n      tag_99\n      jump\t// in\n    tag_232:\n        /* \"#utility.yul\":10011:10084   */\n      swap8\n      pop\n        /* \"#utility.yul\":9807:10094   */\n      pop\n        /* \"#utility.yul\":10161:10163   */\n      0x20\n        /* \"#utility.yul\":10150:10159   */\n      dup9\n        /* \"#utility.yul\":10146:10164   */\n      add\n        /* \"#utility.yul\":10133:10165   */\n      calldataload\n        /* \"#utility.yul\":10192:10210   */\n      0xffffffffffffffff\n        /* \"#utility.yul\":10184:10190   */\n      dup2\n        /* \"#utility.yul\":10181:10211   */\n      gt\n        /* \"#utility.yul\":10178:10295   */\n      iszero\n      tag_233\n      jumpi\n        /* \"#utility.yul\":10214:10293   */\n      tag_234\n      tag_90\n      jump\t// in\n    tag_234:\n        /* \"#utility.yul\":10178:10295   */\n    tag_233:\n        /* \"#utility.yul\":10319:10382   */\n      tag_235\n        /* \"#utility.yul\":10374:10381   */\n      dup11\n        /* \"#utility.yul\":10365:10371   */\n      dup3\n        /* \"#utility.yul\":10354:10363   */\n      dup12\n        /* \"#utility.yul\":10350:10372   */\n      add\n        /* \"#utility.yul\":10319:10382   */\n      tag_99\n      jump\t// in\n    tag_235:\n        /* \"#utility.yul\":10309:10382   */\n      swap7\n      pop\n        /* \"#utility.yul\":10104:10392   */\n      pop\n        /* \"#utility.yul\":10459:10461   */\n      0x40\n        /* \"#utility.yul\":10448:10457   */\n      dup9\n        /* \"#utility.yul\":10444:10462   */\n      add\n        /* \"#utility.yul\":10431:10463   */\n      calldataload\n        /* \"#utility.yul\":10490:10508   */\n      0xffffffffffffffff\n        /* \"#utility.yul\":10482:10488   */\n      dup2\n        /* \"#utility.yul\":10479:10509   */\n      gt\n        /* \"#utility.yul\":10476:10593   */\n      iszero\n      tag_236\n      jumpi\n        /* \"#utility.yul\":10512:10591   */\n      tag_237\n      tag_90\n      jump\t// in\n    tag_237:\n        /* \"#utility.yul\":10476:10593   */\n    tag_236:\n        /* \"#utility.yul\":10617:10680   */\n      tag_238\n        /* \"#utility.yul\":10672:10679   */\n      dup11\n        /* \"#utility.yul\":10663:10669   */\n      dup3\n        /* \"#utility.yul\":10652:10661   */\n      dup12\n        /* \"#utility.yul\":10648:10670   */\n      add\n        /* \"#utility.yul\":10617:10680   */\n      tag_99\n      jump\t// in\n    tag_238:\n        /* \"#utility.yul\":10607:10680   */\n      swap6\n      pop\n        /* \"#utility.yul\":10402:10690   */\n      pop\n        /* \"#utility.yul\":10757:10759   */\n      0x60\n        /* \"#utility.yul\":10746:10755   */\n      dup9\n        /* \"#utility.yul\":10742:10760   */\n      add\n        /* \"#utility.yul\":10729:10761   */\n      calldataload\n        /* \"#utility.yul\":10788:10806   */\n      0xffffffffffffffff\n        /* \"#utility.yul\":10780:10786   */\n      dup2\n        /* \"#utility.yul\":10777:10807   */\n      gt\n        /* \"#utility.yul\":10774:10891   */\n      iszero\n      tag_239\n      jumpi\n        /* \"#utility.yul\":10810:10889   */\n      tag_240\n      tag_90\n      jump\t// in\n    tag_240:\n        /* \"#utility.yul\":10774:10891   */\n    tag_239:\n        /* \"#utility.yul\":10915:10978   */\n      tag_241\n        /* \"#utility.yul\":10970:10977   */\n      dup11\n        /* \"#utility.yul\":10961:10967   */\n      dup3\n        /* \"#utility.yul\":10950:10959   */\n      dup12\n        /* \"#utility.yul\":10946:10968   */\n      add\n        /* \"#utility.yul\":10915:10978   */\n      tag_99\n      jump\t// in\n    tag_241:\n        /* \"#utility.yul\":10905:10978   */\n      swap5\n      pop\n        /* \"#utility.yul\":10700:10988   */\n      pop\n        /* \"#utility.yul\":11055:11058   */\n      0x80\n        /* \"#utility.yul\":11044:11053   */\n      dup9\n        /* \"#utility.yul\":11040:11059   */\n      add\n        /* \"#utility.yul\":11027:11060   */\n      calldataload\n        /* \"#utility.yul\":11087:11105   */\n      0xffffffffffffffff\n        /* \"#utility.yul\":11079:11085   */\n      dup2\n        /* \"#utility.yul\":11076:11106   */\n      gt\n        /* \"#utility.yul\":11073:11190   */\n      iszero\n      tag_242\n      jumpi\n        /* \"#utility.yul\":11109:11188   */\n      tag_243\n      tag_90\n      jump\t// in\n    tag_243:\n        /* \"#utility.yul\":11073:11190   */\n    tag_242:\n        /* \"#utility.yul\":11214:11277   */\n      tag_244\n        /* \"#utility.yul\":11269:11276   */\n      dup11\n        /* \"#utility.yul\":11260:11266   */\n      dup3\n        /* \"#utility.yul\":11249:11258   */\n      dup12\n        /* \"#utility.yul\":11245:11267   */\n      add\n        /* \"#utility.yul\":11214:11277   */\n      tag_99\n      jump\t// in\n    tag_244:\n        /* \"#utility.yul\":11204:11277   */\n      swap4\n      pop\n        /* \"#utility.yul\":10998:11287   */\n      pop\n        /* \"#utility.yul\":11354:11357   */\n      0xa0\n        /* \"#utility.yul\":11343:11352   */\n      dup9\n        /* \"#utility.yul\":11339:11358   */\n      add\n        /* \"#utility.yul\":11326:11359   */\n      calldataload\n        /* \"#utility.yul\":11386:11404   */\n      0xffffffffffffffff\n        /* \"#utility.yul\":11378:11384   */\n      dup2\n        /* \"#utility.yul\":11375:11405   */\n      gt\n        /* \"#utility.yul\":11372:11489   */\n      iszero\n      tag_245\n      jumpi\n        /* \"#utility.yul\":11408:11487   */\n      tag_246\n      tag_90\n      jump\t// in\n    tag_246:\n        /* \"#utility.yul\":11372:11489   */\n    tag_245:\n        /* \"#utility.yul\":11513:11576   */\n      tag_247\n        /* \"#utility.yul\":11568:11575   */\n      dup11\n        /* \"#utility.yul\":11559:11565   */\n      dup3\n        /* \"#utility.yul\":11548:11557   */\n      dup12\n        /* \"#utility.yul\":11544:11566   */\n      add\n        /* \"#utility.yul\":11513:11576   */\n      tag_99\n      jump\t// in\n    tag_247:\n        /* \"#utility.yul\":11503:11576   */\n      swap3\n      pop\n        /* \"#utility.yul\":11297:11586   */\n      pop\n        /* \"#utility.yul\":11653:11656   */\n      0xc0\n        /* \"#utility.yul\":11642:11651   */\n      dup9\n        /* \"#utility.yul\":11638:11657   */\n      add\n        /* \"#utility.yul\":11625:11658   */\n      calldataload\n        /* \"#utility.yul\":11685:11703   */\n      0xffffffffffffffff\n        /* \"#utility.yul\":11677:11683   */\n      dup2\n        /* \"#utility.yul\":11674:11704   */\n      gt\n        /* \"#utility.yul\":11671:11788   */\n      iszero\n      tag_248\n      jumpi\n        /* \"#utility.yul\":11707:11786   */\n      tag_249\n      tag_90\n      jump\t// in\n    tag_249:\n        /* \"#utility.yul\":11671:11788   */\n    tag_248:\n        /* \"#utility.yul\":11812:11875   */\n      tag_250\n        /* \"#utility.yul\":11867:11874   */\n      dup11\n        /* \"#utility.yul\":11858:11864   */\n      dup3\n        /* \"#utility.yul\":11847:11856   */\n      dup12\n        /* \"#utility.yul\":11843:11865   */\n      add\n        /* \"#utility.yul\":11812:11875   */\n      tag_99\n      jump\t// in\n    tag_250:\n        /* \"#utility.yul\":11802:11875   */\n      swap2\n      pop\n        /* \"#utility.yul\":11596:11885   */\n      pop\n        /* \"#utility.yul\":9429:11892   */\n      swap3\n      swap6\n      swap9\n      swap2\n      swap5\n      swap8\n      pop\n      swap3\n      swap6\n      pop\n      jump\t// out\n        /* \"#utility.yul\":11898:12020   */\n    tag_116:\n        /* \"#utility.yul\":11971:11995   */\n      tag_252\n        /* \"#utility.yul\":11989:11994   */\n      dup2\n        /* \"#utility.yul\":11971:11995   */\n      tag_106\n      jump\t// in\n    tag_252:\n        /* \"#utility.yul\":11964:11969   */\n      dup2\n        /* \"#utility.yul\":11961:11996   */\n      eq\n        /* \"#utility.yul\":11951:12014   */\n      tag_253\n      jumpi\n        /* \"#utility.yul\":12010:12011   */\n      0x00\n        /* \"#utility.yul\":12007:12008   */\n      dup1\n        /* \"#utility.yul\":12000:12012   */\n      revert\n        /* \"#utility.yul\":11951:12014   */\n    tag_253:\n        /* \"#utility.yul\":11898:12020   */\n      pop\n      jump\t// out\n        /* \"#utility.yul\":12026:12165   */\n    tag_117:\n        /* \"#utility.yul\":12072:12077   */\n      0x00\n        /* \"#utility.yul\":12110:12116   */\n      dup2\n        /* \"#utility.yul\":12097:12117   */\n      calldataload\n        /* \"#utility.yul\":12088:12117   */\n      swap1\n      pop\n        /* \"#utility.yul\":12126:12159   */\n      tag_255\n        /* \"#utility.yul\":12153:12158   */\n      dup2\n        /* \"#utility.yul\":12126:12159   */\n      tag_116\n      jump\t// in\n    tag_255:\n        /* \"#utility.yul\":12026:12165   */\n      swap3\n      swap2\n      pop\n      pop\n      jump\t// out\n        /* \"#utility.yul\":12171:13896   */\n    tag_27:\n        /* \"#utility.yul\":12305:12311   */\n      0x00\n        /* \"#utility.yul\":12313:12319   */\n      dup1\n        /* \"#utility.yul\":12321:12327   */\n      0x00\n        /* \"#utility.yul\":12329:12335   */\n      dup1\n        /* \"#utility.yul\":12337:12343   */\n      0x00\n        /* \"#utility.yul\":12345:12351   */\n      dup1\n        /* \"#utility.yul\":12353:12359   */\n      0x00\n        /* \"#utility.yul\":12402:12405   */\n      0xe0\n        /* \"#utility.yul\":12390:12399   */\n      dup9\n        /* \"#utility.yul\":12381:12388   */\n      dup11\n        /* \"#utility.yul\":12377:12400   */\n      sub\n        /* \"#utility.yul\":12373:12406   */\n      slt\n        /* \"#utility.yul\":12370:12490   */\n      iszero\n      tag_257\n      jumpi\n        /* \"#utility.yul\":12409:12488   */\n      tag_258\n      tag_89\n      jump\t// in\n    tag_258:\n        /* \"#utility.yul\":12370:12490   */\n    tag_257:\n        /* \"#utility.yul\":12557:12558   */\n      0x00\n        /* \"#utility.yul\":12546:12555   */\n      dup9\n        /* \"#utility.yul\":12542:12559   */\n      add\n        /* \"#utility.yul\":12529:12560   */\n      calldataload\n        /* \"#utility.yul\":12587:12605   */\n      0xffffffffffffffff\n        /* \"#utility.yul\":12579:12585   */\n      dup2\n        /* \"#utility.yul\":12576:12606   */\n      gt\n        /* \"#utility.yul\":12573:12690   */\n      iszero\n      tag_259\n      jumpi\n        /* \"#utility.yul\":12609:12688   */\n      tag_260\n      tag_90\n      jump\t// in\n    tag_260:\n        /* \"#utility.yul\":12573:12690   */\n    tag_259:\n        /* \"#utility.yul\":12714:12777   */\n      tag_261\n        /* \"#utility.yul\":12769:12776   */\n      dup11\n        /* \"#utility.yul\":12760:12766   */\n      dup3\n        /* \"#utility.yul\":12749:12758   */\n      dup12\n        /* \"#utility.yul\":12745:12767   */\n      add\n        /* \"#utility.yul\":12714:12777   */\n      tag_99\n      jump\t// in\n    tag_261:\n        /* \"#utility.yul\":12704:12777   */\n      swap8\n      pop\n        /* \"#utility.yul\":12500:12787   */\n      pop\n        /* \"#utility.yul\":12826:12828   */\n      0x20\n        /* \"#utility.yul\":12852:12905   */\n      tag_262\n        /* \"#utility.yul\":12897:12904   */\n      dup11\n        /* \"#utility.yul\":12888:12894   */\n      dup3\n        /* \"#utility.yul\":12877:12886   */\n      dup12\n        /* \"#utility.yul\":12873:12895   */\n      add\n        /* \"#utility.yul\":12852:12905   */\n      tag_117\n      jump\t// in\n    tag_262:\n        /* \"#utility.yul\":12842:12905   */\n      swap7\n      pop\n        /* \"#utility.yul\":12797:12915   */\n      pop\n        /* \"#utility.yul\":12954:12956   */\n      0x40\n        /* \"#utility.yul\":12980:13030   */\n      tag_263\n        /* \"#utility.yul\":13022:13029   */\n      dup11\n        /* \"#utility.yul\":13013:13019   */\n      dup3\n        /* \"#utility.yul\":13002:13011   */\n      dup12\n        /* \"#utility.yul\":12998:13020   */\n      add\n        /* \"#utility.yul\":12980:13030   */\n      tag_102\n      jump\t// in\n    tag_263:\n        /* \"#utility.yul\":12970:13030   */\n      swap6\n      pop\n        /* \"#utility.yul\":12925:13040   */\n      pop\n        /* \"#utility.yul\":13079:13081   */\n      0x60\n        /* \"#utility.yul\":13105:13155   */\n      tag_264\n        /* \"#utility.yul\":13147:13154   */\n      dup11\n        /* \"#utility.yul\":13138:13144   */\n      dup3\n        /* \"#utility.yul\":13127:13136   */\n      dup12\n        /* \"#utility.yul\":13123:13145   */\n      add\n        /* \"#utility.yul\":13105:13155   */\n      tag_102\n      jump\t// in\n    tag_264:\n        /* \"#utility.yul\":13095:13155   */\n      swap5\n      pop\n        /* \"#utility.yul\":13050:13165   */\n      pop\n        /* \"#utility.yul\":13204:13207   */\n      0x80\n        /* \"#utility.yul\":13231:13281   */\n      tag_265\n        /* \"#utility.yul\":13273:13280   */\n      dup11\n        /* \"#utility.yul\":13264:13270   */\n      dup3\n        /* \"#utility.yul\":13253:13262   */\n      dup12\n        /* \"#utility.yul\":13249:13271   */\n      add\n        /* \"#utility.yul\":13231:13281   */\n      tag_102\n      jump\t// in\n    tag_265:\n        /* \"#utility.yul\":13221:13281   */\n      swap4\n      pop\n        /* \"#utility.yul\":13175:13291   */\n      pop\n        /* \"#utility.yul\":13358:13361   */\n      0xa0\n        /* \"#utility.yul\":13347:13356   */\n      dup9\n        /* \"#utility.yul\":13343:13362   */\n      add\n        /* \"#utility.yul\":13330:13363   */\n      calldataload\n        /* \"#utility.yul\":13390:13408   */\n      0xffffffffffffffff\n        /* \"#utility.yul\":13382:13388   */\n      dup2\n        /* \"#utility.yul\":13379:13409   */\n      gt\n        /* \"#utility.yul\":13376:13493   */\n      iszero\n      tag_266\n      jumpi\n        /* \"#utility.yul\":13412:13491   */\n      tag_267\n      tag_90\n      jump\t// in\n    tag_267:\n        /* \"#utility.yul\":13376:13493   */\n    tag_266:\n        /* \"#utility.yul\":13517:13580   */\n      tag_268\n        /* \"#utility.yul\":13572:13579   */\n      dup11\n        /* \"#utility.yul\":13563:13569   */\n      dup3\n        /* \"#utility.yul\":13552:13561   */\n      dup12\n        /* \"#utility.yul\":13548:13570   */\n      add\n        /* \"#utility.yul\":13517:13580   */\n      tag_99\n      jump\t// in\n    tag_268:\n        /* \"#utility.yul\":13507:13580   */\n      swap3\n      pop\n        /* \"#utility.yul\":13301:13590   */\n      pop\n        /* \"#utility.yul\":13657:13660   */\n      0xc0\n        /* \"#utility.yul\":13646:13655   */\n      dup9\n        /* \"#utility.yul\":13642:13661   */\n      add\n        /* \"#utility.yul\":13629:13662   */\n      calldataload\n        /* \"#utility.yul\":13689:13707   */\n      0xffffffffffffffff\n        /* \"#utility.yul\":13681:13687   */\n      dup2\n        /* \"#utility.yul\":13678:13708   */\n      gt\n        /* \"#utility.yul\":13675:13792   */\n      iszero\n      tag_269\n      jumpi\n        /* \"#utility.yul\":13711:13790   */\n      tag_270\n      tag_90\n      jump\t// in\n    tag_270:\n        /* \"#utility.yul\":13675:13792   */\n    tag_269:\n        /* \"#utility.yul\":13816:13879   */\n      tag_271\n        /* \"#utility.yul\":13871:13878   */\n      dup11\n        /* \"#utility.yul\":13862:13868   */\n      dup3\n        /* \"#utility.yul\":13851:13860   */\n      dup12\n        /* \"#utility.yul\":13847:13869   */\n      add\n        /* \"#utility.yul\":13816:13879   */\n      tag_99\n      jump\t// in\n    tag_271:\n        /* \"#utility.yul\":13806:13879   */\n      swap2\n      pop\n        /* \"#utility.yul\":13600:13889   */\n      pop\n        /* \"#utility.yul\":12171:13896   */\n      swap3\n      swap6\n      swap9\n      swap2\n      swap5\n      swap8\n      pop\n      swap3\n      swap6\n      pop\n      jump\t// out\n        /* \"#utility.yul\":13902:14050   */\n    tag_118:\n        /* \"#utility.yul\":14004:14015   */\n      0x00\n        /* \"#utility.yul\":14041:14044   */\n      dup2\n        /* \"#utility.yul\":14026:14044   */\n      swap1\n      pop\n        /* \"#utility.yul\":13902:14050   */\n      swap3\n      swap2\n      pop\n      pop\n      jump\t// out\n        /* \"#utility.yul\":14056:14446   */\n    tag_119:\n        /* \"#utility.yul\":14162:14165   */\n      0x00\n        /* \"#utility.yul\":14190:14229   */\n      tag_274\n        /* \"#utility.yul\":14223:14228   */\n      dup3\n        /* \"#utility.yul\":14190:14229   */\n      tag_108\n      jump\t// in\n    tag_274:\n        /* \"#utility.yul\":14245:14334   */\n      tag_275\n        /* \"#utility.yul\":14327:14333   */\n      dup2\n        /* \"#utility.yul\":14322:14325   */\n      dup6\n        /* \"#utility.yul\":14245:14334   */\n      tag_118\n      jump\t// in\n    tag_275:\n        /* \"#utility.yul\":14238:14334   */\n      swap4\n      pop\n        /* \"#utility.yul\":14343:14408   */\n      tag_276\n        /* \"#utility.yul\":14401:14407   */\n      dup2\n        /* \"#utility.yul\":14396:14399   */\n      dup6\n        /* \"#utility.yul\":14389:14393   */\n      0x20\n        /* \"#utility.yul\":14382:14387   */\n      dup7\n        /* \"#utility.yul\":14378:14394   */\n      add\n        /* \"#utility.yul\":14343:14408   */\n      tag_110\n      jump\t// in\n    tag_276:\n        /* \"#utility.yul\":14433:14439   */\n      dup1\n        /* \"#utility.yul\":14428:14431   */\n      dup5\n        /* \"#utility.yul\":14424:14440   */\n      add\n        /* \"#utility.yul\":14417:14440   */\n      swap2\n      pop\n        /* \"#utility.yul\":14166:14446   */\n      pop\n        /* \"#utility.yul\":14056:14446   */\n      swap3\n      swap2\n      pop\n      pop\n      jump\t// out\n        /* \"#utility.yul\":14452:14727   */\n    tag_31:\n        /* \"#utility.yul\":14584:14587   */\n      0x00\n        /* \"#utility.yul\":14606:14701   */\n      tag_278\n        /* \"#utility.yul\":14697:14700   */\n      dup3\n        /* \"#utility.yul\":14688:14694   */\n      dup5\n        /* \"#utility.yul\":14606:14701   */\n      tag_119\n      jump\t// in\n    tag_278:\n        /* \"#utility.yul\":14599:14701   */\n      swap2\n      pop\n        /* \"#utility.yul\":14718:14721   */\n      dup2\n        /* \"#utility.yul\":14711:14721   */\n      swap1\n      pop\n        /* \"#utility.yul\":14452:14727   */\n      swap3\n      swap2\n      pop\n      pop\n      jump\t// out\n        /* \"#utility.yul\":14733:14913   */\n    tag_120:\n        /* \"#utility.yul\":14781:14858   */\n      0x4e487b7100000000000000000000000000000000000000000000000000000000\n        /* \"#utility.yul\":14778:14779   */\n      0x00\n        /* \"#utility.yul\":14771:14859   */\n      mstore\n        /* \"#utility.yul\":14878:14882   */\n      0x22\n        /* \"#utility.yul\":14875:14876   */\n      0x04\n        /* \"#utility.yul\":14868:14883   */\n      mstore\n        /* \"#utility.yul\":14902:14906   */\n      0x24\n        /* \"#utility.yul\":14899:14900   */\n      0x00\n        /* \"#utility.yul\":14892:14907   */\n      revert\n        /* \"#utility.yul\":14919:15239   */\n    tag_51:\n        /* \"#utility.yul\":14963:14969   */\n      0x00\n        /* \"#utility.yul\":15000:15001   */\n      0x02\n        /* \"#utility.yul\":14994:14998   */\n      dup3\n        /* \"#utility.yul\":14990:15002   */\n      div\n        /* \"#utility.yul\":14980:15002   */\n      swap1\n      pop\n        /* \"#utility.yul\":15047:15048   */\n      0x01\n        /* \"#utility.yul\":15041:15045   */\n      dup3\n        /* \"#utility.yul\":15037:15049   */\n      and\n        /* \"#utility.yul\":15068:15086   */\n      dup1\n        /* \"#utility.yul\":15058:15139   */\n      tag_281\n      jumpi\n        /* \"#utility.yul\":15124:15128   */\n      0x7f\n        /* \"#utility.yul\":15116:15122   */\n      dup3\n        /* \"#utility.yul\":15112:15129   */\n      and\n        /* \"#utility.yul\":15102:15129   */\n      swap2\n      pop\n        /* \"#utility.yul\":15058:15139   */\n    tag_281:\n        /* \"#utility.yul\":15186:15188   */\n      0x20\n        /* \"#utility.yul\":15178:15184   */\n      dup3\n        /* \"#utility.yul\":15175:15189   */\n      lt\n        /* \"#utility.yul\":15155:15173   */\n      dup2\n        /* \"#utility.yul\":15152:15190   */\n      sub\n        /* \"#utility.yul\":15149:15233   */\n      tag_282\n      jumpi\n        /* \"#utility.yul\":15205:15223   */\n      tag_283\n      tag_120\n      jump\t// in\n    tag_283:\n        /* \"#utility.yul\":15149:15233   */\n    tag_282:\n        /* \"#utility.yul\":14970:15239   */\n      pop\n        /* \"#utility.yul\":14919:15239   */\n      swap2\n      swap1\n      pop\n      jump\t// out\n        /* \"#utility.yul\":15245:15386   */\n    tag_121:\n        /* \"#utility.yul\":15294:15298   */\n      0x00\n        /* \"#utility.yul\":15317:15320   */\n      dup2\n        /* \"#utility.yul\":15309:15320   */\n      swap1\n      pop\n        /* \"#utility.yul\":15340:15343   */\n      dup2\n        /* \"#utility.yul\":15337:15338   */\n      0x00\n        /* \"#utility.yul\":15330:15344   */\n      mstore\n        /* \"#utility.yul\":15374:15378   */\n      0x20\n        /* \"#utility.yul\":15371:15372   */\n      0x00\n        /* \"#utility.yul\":15361:15379   */\n      keccak256\n        /* \"#utility.yul\":15353:15379   */\n      swap1\n      pop\n        /* \"#utility.yul\":15245:15386   */\n      swap2\n      swap1\n      pop\n      jump\t// out\n        /* \"#utility.yul\":15392:15485   */\n    tag_122:\n        /* \"#utility.yul\":15429:15435   */\n      0x00\n        /* \"#utility.yul\":15476:15478   */\n      0x20\n        /* \"#utility.yul\":15471:15473   */\n      0x1f\n        /* \"#utility.yul\":15464:15469   */\n      dup4\n        /* \"#utility.yul\":15460:15474   */\n      add\n        /* \"#utility.yul\":15456:15479   */\n      div\n        /* \"#utility.yul\":15446:15479   */\n      swap1\n      pop\n        /* \"#utility.yul\":15392:15485   */\n      swap2\n      swap1\n      pop\n      jump\t// out\n        /* \"#utility.yul\":15491:15598   */\n    tag_123:\n        /* \"#utility.yul\":15535:15543   */\n      0x00\n        /* \"#utility.yul\":15585:15590   */\n      dup3\n        /* \"#utility.yul\":15579:15583   */\n      dup3\n        /* \"#utility.yul\":15575:15591   */\n      shl\n        /* \"#utility.yul\":15554:15591   */\n      swap1\n      pop\n        /* \"#utility.yul\":15491:15598   */\n      swap3\n      swap2\n      pop\n      pop\n      jump\t// out\n        /* \"#utility.yul\":15604:15997   */\n    tag_124:\n        /* \"#utility.yul\":15673:15679   */\n      0x00\n        /* \"#utility.yul\":15723:15724   */\n      0x08\n        /* \"#utility.yul\":15711:15721   */\n      dup4\n        /* \"#utility.yul\":15707:15725   */\n      mul\n        /* \"#utility.yul\":15746:15843   */\n      tag_288\n        /* \"#utility.yul\":15776:15842   */\n      0xffffffffffffffffffffffffffffffffffffffffffffffffffffffffffffffff\n        /* \"#utility.yul\":15765:15774   */\n      dup3\n        /* \"#utility.yul\":15746:15843   */\n      tag_123\n      jump\t// in\n    tag_288:\n        /* \"#utility.yul\":15864:15903   */\n      tag_289\n        /* \"#utility.yul\":15894:15902   */\n      dup7\n        /* \"#utility.yul\":15883:15892   */\n      dup4\n        /* \"#utility.yul\":15864:15903   */\n      tag_123\n      jump\t// in\n    tag_289:\n        /* \"#utility.yul\":15852:15903   */\n      swap6\n      pop\n        /* \"#utility.yul\":15936:15940   */\n      dup1\n        /* \"#utility.yul\":15932:15941   */\n      not\n        /* \"#utility.yul\":15925:15930   */\n      dup5\n        /* \"#utility.yul\":15921:15942   */\n      and\n        /* \"#utility.yul\":15912:15942   */\n      swap4\n      pop\n        /* \"#utility.yul\":15985:15989   */\n      dup1\n        /* \"#utility.yul\":15975:15983   */\n      dup7\n        /* \"#utility.yul\":15971:15990   */\n      and\n        /* \"#utility.yul\":15964:15969   */\n      dup5\n        /* \"#utility.yul\":15961:15991   */\n      or\n        /* \"#utility.yul\":15951:15991   */\n      swap3\n      pop\n        /* \"#utility.yul\":15680:15997   */\n      pop\n      pop\n        /* \"#utility.yul\":15604:15997   */\n      swap4\n      swap3\n      pop\n      pop\n      pop\n      jump\t// out\n        /* \"#utility.yul\":16003:16063   */\n    tag_125:\n        /* \"#utility.yul\":16031:16034   */\n      0x00\n        /* \"#utility.yul\":16052:16057   */\n      dup2\n        /* \"#utility.yul\":16045:16057   */\n      swap1\n      pop\n        /* \"#utility.yul\":16003:16063   */\n      swap2\n      swap1\n      pop\n      jump\t// out\n        /* \"#utility.yul\":16069:16211   */\n    tag_126:\n        /* \"#utility.yul\":16119:16128   */\n      0x00\n        /* \"#utility.yul\":16152:16205   */\n      tag_292\n        /* \"#utility.yul\":16170:16204   */\n      tag_293\n        /* \"#utility.yul\":16179:16203   */\n      tag_294\n        /* \"#utility.yul\":16197:16202   */\n      dup5\n        /* \"#utility.yul\":16179:16203   */\n      tag_106\n      jump\t// in\n    tag_294:\n        /* \"#utility.yul\":16170:16204   */\n      tag_125\n      jump\t// in\n    tag_293:\n        /* \"#utility.yul\":16152:16205   */\n      tag_106\n      jump\t// in\n    tag_292:\n        /* \"#utility.yul\":16139:16205   */\n      swap1\n      pop\n        /* \"#utility.yul\":16069:16211   */\n      swap2\n      swap1\n      pop\n      jump\t// out\n        /* \"#utility.yul\":16217:16292   */\n    tag_127:\n        /* \"#utility.yul\":16260:16263   */\n      0x00\n        /* \"#utility.yul\":16281:16286   */\n      dup2\n        /* \"#utility.yul\":16274:16286   */\n      swap1\n      pop\n        /* \"#utility.yul\":16217:16292   */\n      swap2\n      swap1\n      pop\n      jump\t// out\n        /* \"#utility.yul\":16298:16567   */\n    tag_128:\n        /* \"#utility.yul\":16408:16447   */\n      tag_297\n        /* \"#utility.yul\":16439:16446   */\n      dup4\n        /* \"#utility.yul\":16408:16447   */\n      tag_126\n      jump\t// in\n    tag_297:\n        /* \"#utility.yul\":16469:16560   */\n      tag_298\n        /* \"#utility.yul\":16518:16559   */\n      tag_299\n        /* \"#utility.yul\":16542:16558   */\n      dup3\n        /* \"#utility.yul\":16518:16559   */\n      tag_127\n      jump\t// in\n    tag_299:\n        /* \"#utility.yul\":16510:16516   */\n      dup5\n        /* \"#utility.yul\":16503:16507   */\n      dup5\n        /* \"#utility.yul\":16497:16508   */\n      sload\n        /* \"#utility.yul\":16469:16560   */\n      tag_124\n      jump\t// in\n    tag_298:\n        /* \"#utility.yul\":16463:16467   */\n      dup3\n        /* \"#utility.yul\":16456:16561   */\n      sstore\n        /* \"#utility.yul\":16374:16567   */\n      pop\n        /* \"#utility.yul\":16298:16567   */\n      pop\n      pop\n      pop\n      jump\t// out\n        /* \"#utility.yul\":16573:16646   */\n    tag_129:\n        /* \"#utility.yul\":16618:16621   */\n      0x00\n        /* \"#utility.yul\":16573:16646   */\n      swap1\n      jump\t// out\n        /* \"#utility.yul\":16652:16841   */\n    tag_130:\n        /* \"#utility.yul\":16729:16761   */\n      tag_302\n      tag_129\n      jump\t// in\n    tag_302:\n        /* \"#utility.yul\":16770:16835   */\n      tag_303\n        /* \"#utility.yul\":16828:16834   */\n      dup2\n        /* \"#utility.yul\":16820:16826   */\n      dup5\n        /* \"#utility.yul\":16814:16818   */\n      dup5\n        /* \"#utility.yul\":16770:16835   */\n      tag_128\n      jump\t// in\n    tag_303:\n        /* \"#utility.yul\":16705:16841   */\n      pop\n        /* \"#utility.yul\":16652:16841   */\n      pop\n      pop\n      jump\t// out\n        /* \"#utility.yul\":16847:17033   */\n    tag_131:\n        /* \"#utility.yul\":16907:17027   */\n    tag_305:\n        /* \"#utility.yul\":16924:16927   */\n      dup2\n        /* \"#utility.yul\":16917:16922   */\n      dup2\n        /* \"#utility.yul\":16914:16928   */\n      lt\n        /* \"#utility.yul\":16907:17027   */\n      iszero\n      tag_307\n      jumpi\n        /* \"#utility.yul\":16978:17017   */\n      tag_308\n        /* \"#utility.yul\":17015:17016   */\n      0x00\n        /* \"#utility.yul\":17008:17013   */\n      dup3\n        /* \"#utility.yul\":16978:17017   */\n      tag_130\n      jump\t// in\n    tag_308:\n        /* \"#utility.yul\":16951:16952   */\n      0x01\n        /* \"#utility.yul\":16944:16949   */\n      dup2\n        /* \"#utility.yul\":16940:16953   */\n      add\n        /* \"#utility.yul\":16931:16953   */\n      swap1\n      pop\n        /* \"#utility.yul\":16907:17027   */\n      jump(tag_305)\n    tag_307:\n        /* \"#utility.yul\":16847:17033   */\n      pop\n      pop\n      jump\t// out\n        /* \"#utility.yul\":17039:17582   */\n    tag_132:\n        /* \"#utility.yul\":17140:17142   */\n      0x1f\n        /* \"#utility.yul\":17135:17138   */\n      dup3\n        /* \"#utility.yul\":17132:17143   */\n      gt\n        /* \"#utility.yul\":17129:17575   */\n      iszero\n      tag_310\n      jumpi\n        /* \"#utility.yul\":17174:17212   */\n      tag_311\n        /* \"#utility.yul\":17206:17211   */\n      dup2\n        /* \"#utility.yul\":17174:17212   */\n      tag_121\n      jump\t// in\n    tag_311:\n        /* \"#utility.yul\":17258:17287   */\n      tag_312\n        /* \"#utility.yul\":17276:17286   */\n      dup5\n        /* \"#utility.yul\":17258:17287   */\n      tag_122\n      jump\t// in\n    tag_312:\n        /* \"#utility.yul\":17248:17256   */\n      dup2\n        /* \"#utility.yul\":17244:17288   */\n      add\n        /* \"#utility.yul\":17441:17443   */\n      0x20\n        /* \"#utility.yul\":17429:17439   */\n      dup6\n        /* \"#utility.yul\":17426:17444   */\n      lt\n        /* \"#utility.yul\":17423:17472   */\n      iszero\n      tag_313\n      jumpi\n        /* \"#utility.yul\":17462:17470   */\n      dup2\n        /* \"#utility.yul\":17447:17470   */\n      swap1\n      pop\n        /* \"#utility.yul\":17423:17472   */\n    tag_313:\n        /* \"#utility.yul\":17485:17565   */\n      tag_314\n        /* \"#utility.yul\":17541:17563   */\n      tag_315\n        /* \"#utility.yul\":17559:17562   */\n      dup6\n        /* \"#utility.yul\":17541:17563   */\n      tag_122\n      jump\t// in\n    tag_315:\n        /* \"#utility.yul\":17531:17539   */\n      dup4\n        /* \"#utility.yul\":17527:17564   */\n      add\n        /* \"#utility.yul\":17514:17525   */\n      dup3\n        /* \"#utility.yul\":17485:17565   */\n      tag_131\n      jump\t// in\n    tag_314:\n        /* \"#utility.yul\":17144:17575   */\n      pop\n      pop\n        /* \"#utility.yul\":17129:17575   */\n    tag_310:\n        /* \"#utility.yul\":17039:17582   */\n      pop\n      pop\n      pop\n      jump\t// out\n        /* \"#utility.yul\":17588:17705   */\n    tag_133:\n        /* \"#utility.yul\":17642:17650   */\n      0x00\n        /* \"#utility.yul\":17692:17697   */\n      dup3\n        /* \"#utility.yul\":17686:17690   */\n      dup3\n        /* \"#utility.yul\":17682:17698   */\n      shr\n        /* \"#utility.yul\":17661:17698   */\n      swap1\n      pop\n        /* \"#utility.yul\":17588:17705   */\n      swap3\n      swap2\n      pop\n      pop\n      jump\t// out\n        /* \"#utility.yul\":17711:17880   */\n    tag_134:\n        /* \"#utility.yul\":17755:17761   */\n      0x00\n        /* \"#utility.yul\":17788:17839   */\n      tag_318\n        /* \"#utility.yul\":17836:17837   */\n      0x00\n        /* \"#utility.yul\":17832:17838   */\n      not\n        /* \"#utility.yul\":17824:17829   */\n      dup5\n        /* \"#utility.yul\":17821:17822   */\n      0x08\n        /* \"#utility.yul\":17817:17830   */\n      mul\n        /* \"#utility.yul\":17788:17839   */\n      tag_133\n      jump\t// in\n    tag_318:\n        /* \"#utility.yul\":17784:17840   */\n      not\n        /* \"#utility.yul\":17869:17873   */\n      dup1\n        /* \"#utility.yul\":17863:17867   */\n      dup4\n        /* \"#utility.yul\":17859:17874   */\n      and\n        /* \"#utility.yul\":17849:17874   */\n      swap2\n      pop\n        /* \"#utility.yul\":17762:17880   */\n      pop\n        /* \"#utility.yul\":17711:17880   */\n      swap3\n      swap2\n      pop\n      pop\n      jump\t// out\n        /* \"#utility.yul\":17885:18180   */\n    tag_135:\n        /* \"#utility.yul\":17961:17965   */\n      0x00\n        /* \"#utility.yul\":18107:18136   */\n      tag_320\n        /* \"#utility.yul\":18132:18135   */\n      dup4\n        /* \"#utility.yul\":18126:18130   */\n      dup4\n        /* \"#utility.yul\":18107:18136   */\n      tag_134\n      jump\t// in\n    tag_320:\n        /* \"#utility.yul\":18099:18136   */\n      swap2\n      pop\n        /* \"#utility.yul\":18169:18172   */\n      dup3\n        /* \"#utility.yul\":18166:18167   */\n      0x02\n        /* \"#utility.yul\":18162:18173   */\n      mul\n        /* \"#utility.yul\":18156:18160   */\n      dup3\n        /* \"#utility.yul\":18153:18174   */\n      or\n        /* \"#utility.yul\":18145:18174   */\n      swap1\n      pop\n        /* \"#utility.yul\":17885:18180   */\n      swap3\n      swap2\n      pop\n      pop\n      jump\t// out\n        /* \"#utility.yul\":18185:19580   */\n    tag_33:\n        /* \"#utility.yul\":18302:18339   */\n      tag_322\n        /* \"#utility.yul\":18335:18338   */\n      dup3\n        /* \"#utility.yul\":18302:18339   */\n      tag_108\n      jump\t// in\n    tag_322:\n        /* \"#utility.yul\":18404:18422   */\n      0xffffffffffffffff\n        /* \"#utility.yul\":18396:18402   */\n      dup2\n        /* \"#utility.yul\":18393:18423   */\n      gt\n        /* \"#utility.yul\":18390:18446   */\n      iszero\n      tag_323\n      jumpi\n        /* \"#utility.yul\":18426:18444   */\n      tag_324\n      tag_42\n      jump\t// in\n    tag_324:\n        /* \"#utility.yul\":18390:18446   */\n    tag_323:\n        /* \"#utility.yul\":18470:18508   */\n      tag_325\n        /* \"#utility.yul\":18502:18506   */\n      dup3\n        /* \"#utility.yul\":18496:18507   */\n      sload\n        /* \"#utility.yul\":18470:18508   */\n      tag_51\n      jump\t// in\n    tag_325:\n        /* \"#utility.yul\":18555:18622   */\n      tag_326\n        /* \"#utility.yul\":18615:18621   */\n      dup3\n        /* \"#utility.yul\":18607:18613   */\n      dup3\n        /* \"#utility.yul\":18601:18605   */\n      dup6\n        /* \"#utility.yul\":18555:18622   */\n      tag_132\n      jump\t// in\n    tag_326:\n        /* \"#utility.yul\":18649:18650   */\n      0x00\n        /* \"#utility.yul\":18673:18677   */\n      0x20\n        /* \"#utility.yul\":18660:18677   */\n      swap1\n      pop\n        /* \"#utility.yul\":18705:18707   */\n      0x1f\n        /* \"#utility.yul\":18697:18703   */\n      dup4\n        /* \"#utility.yul\":18694:18708   */\n      gt\n        /* \"#utility.yul\":18722:18723   */\n      0x01\n        /* \"#utility.yul\":18717:19335   */\n      dup2\n      eq\n      tag_328\n      jumpi\n        /* \"#utility.yul\":19379:19380   */\n      0x00\n        /* \"#utility.yul\":19396:19402   */\n      dup5\n        /* \"#utility.yul\":19393:19470   */\n      iszero\n      tag_329\n      jumpi\n        /* \"#utility.yul\":19445:19454   */\n      dup3\n        /* \"#utility.yul\":19440:19443   */\n      dup8\n        /* \"#utility.yul\":19436:19455   */\n      add\n        /* \"#utility.yul\":19430:19456   */\n      mload\n        /* \"#utility.yul\":19421:19456   */\n      swap1\n      pop\n        /* \"#utility.yul\":19393:19470   */\n    tag_329:\n        /* \"#utility.yul\":19496:19563   */\n      tag_330\n        /* \"#utility.yul\":19556:19562   */\n      dup6\n        /* \"#utility.yul\":19549:19554   */\n      dup3\n        /* \"#utility.yul\":19496:19563   */\n      tag_135\n      jump\t// in\n    tag_330:\n        /* \"#utility.yul\":19490:19494   */\n      dup7\n        /* \"#utility.yul\":19483:19564   */\n      sstore\n        /* \"#utility.yul\":19352:19574   */\n      pop\n        /* \"#utility.yul\":18687:19574   */\n      jump(tag_327)\n        /* \"#utility.yul\":18717:19335   */\n    tag_328:\n        /* \"#utility.yul\":18769:18773   */\n      0x1f\n        /* \"#utility.yul\":18765:18774   */\n      not\n        /* \"#utility.yul\":18757:18763   */\n      dup5\n        /* \"#utility.yul\":18753:18775   */\n      and\n        /* \"#utility.yul\":18803:18840   */\n      tag_331\n        /* \"#utility.yul\":18835:18839   */\n      dup7\n        /* \"#utility.yul\":18803:18840   */\n      tag_121\n      jump\t// in\n    tag_331:\n        /* \"#utility.yul\":18862:18863   */\n      0x00\n        /* \"#utility.yul\":18876:19084   */\n    tag_332:\n        /* \"#utility.yul\":18890:18897   */\n      dup3\n        /* \"#utility.yul\":18887:18888   */\n      dup2\n        /* \"#utility.yul\":18884:18898   */\n      lt\n        /* \"#utility.yul\":18876:19084   */\n      iszero\n      tag_334\n      jumpi\n        /* \"#utility.yul\":18969:18978   */\n      dup5\n        /* \"#utility.yul\":18964:18967   */\n      dup10\n        /* \"#utility.yul\":18960:18979   */\n      add\n        /* \"#utility.yul\":18954:18980   */\n      mload\n        /* \"#utility.yul\":18946:18952   */\n      dup3\n        /* \"#utility.yul\":18939:18981   */\n      sstore\n        /* \"#utility.yul\":19020:19021   */\n      0x01\n        /* \"#utility.yul\":19012:19018   */\n      dup3\n        /* \"#utility.yul\":19008:19022   */\n      add\n        /* \"#utility.yul\":18998:19022   */\n      swap2\n      pop\n        /* \"#utility.yul\":19067:19069   */\n      0x20\n        /* \"#utility.yul\":19056:19065   */\n      dup6\n        /* \"#utility.yul\":19052:19070   */\n      add\n        /* \"#utility.yul\":19039:19070   */\n      swap5\n      pop\n        /* \"#utility.yul\":18913:18917   */\n      0x20\n        /* \"#utility.yul\":18910:18911   */\n      dup2\n        /* \"#utility.yul\":18906:18918   */\n      add\n        /* \"#utility.yul\":18901:18918   */\n      swap1\n      pop\n        /* \"#utility.yul\":18876:19084   */\n      jump(tag_332)\n    tag_334:\n        /* \"#utility.yul\":19112:19118   */\n      dup7\n        /* \"#utility.yul\":19103:19110   */\n      dup4\n        /* \"#utility.yul\":19100:19119   */\n      lt\n        /* \"#utility.yul\":19097:19276   */\n      iszero\n      tag_335\n      jumpi\n        /* \"#utility.yul\":19170:19179   */\n      dup5\n        /* \"#utility.yul\":19165:19168   */\n      dup10\n        /* \"#utility.yul\":19161:19180   */\n      add\n        /* \"#utility.yul\":19155:19181   */\n      mload\n        /* \"#utility.yul\":19213:19261   */\n      tag_336\n        /* \"#utility.yul\":19255:19259   */\n      0x1f\n        /* \"#utility.yul\":19247:19253   */\n      dup10\n        /* \"#utility.yul\":19243:19260   */\n      and\n        /* \"#utility.yul\":19232:19241   */\n      dup3\n        /* \"#utility.yul\":19213:19261   */\n      tag_134\n      jump\t// in\n    tag_336:\n        /* \"#utility.yul\":19205:19211   */\n      dup4\n        /* \"#utility.yul\":19198:19262   */\n      sstore\n        /* \"#utility.yul\":19120:19276   */\n      pop\n        /* \"#utility.yul\":19097:19276   */\n    tag_335:\n        /* \"#utility.yul\":19322:19323   */\n      0x01\n        /* \"#utility.yul\":19318:19319   */\n      0x02\n        /* \"#utility.yul\":19310:19316   */\n      dup9\n        /* \"#utility.yul\":19306:19320   */\n      mul\n        /* \"#utility.yul\":19302:19324   */\n      add\n        /* \"#utility.yul\":19296:19300   */\n      dup9\n        /* \"#utility.yul\":19289:19325   */\n      sstore\n        /* \"#utility.yul\":18724:19335   */\n      pop\n      pop\n      pop\n        /* \"#utility.yul\":18687:19574   */\n    tag_327:\n      pop\n        /* \"#utility.yul\":18277:19580   */\n      pop\n      pop\n      pop\n        /* \"#utility.yul\":18185:19580   */\n      pop\n      pop\n      jump\t// out\n        /* \"#utility.yul\":19586:19766   */\n    tag_136:\n        /* \"#utility.yul\":19634:19711   */\n      0x4e487b7100000000000000000000000000000000000000000000000000000000\n        /* \"#utility.yul\":19631:19632   */\n      0x00\n        /* \"#utility.yul\":19624:19712   */\n      mstore\n        /* \"#utility.yul\":19731:19735   */\n      0x11\n        /* \"#utility.yul\":19728:19729   */\n      0x04\n        /* \"#utility.yul\":19721:19736   */\n      mstore\n        /* \"#utility.yul\":19755:19759   */\n      0x24\n        /* \"#utility.yul\":19752:19753   */\n      0x00\n        /* \"#utility.yul\":19745:19760   */\n      revert\n        /* \"#utility.yul\":19772:20005   */\n    tag_36:\n        /* \"#utility.yul\":19811:19814   */\n      0x00\n        /* \"#utility.yul\":19834:19858   */\n      tag_339\n        /* \"#utility.yul\":19852:19857   */\n      dup3\n        /* \"#utility.yul\":19834:19858   */\n      tag_106\n      jump\t// in\n    tag_339:\n        /* \"#utility.yul\":19825:19858   */\n      swap2\n      pop\n        /* \"#utility.yul\":19880:19946   */\n      0xffffffffffffffffffffffffffffffffffffffffffffffffffffffffffffffff\n        /* \"#utility.yul\":19873:19878   */\n      dup3\n        /* \"#utility.yul\":19870:19947   */\n      sub\n        /* \"#utility.yul\":19867:19970   */\n      tag_340\n      jumpi\n        /* \"#utility.yul\":19950:19968   */\n      tag_341\n      tag_136\n      jump\t// in\n    tag_341:\n        /* \"#utility.yul\":19867:19970   */\n    tag_340:\n        /* \"#utility.yul\":19997:19998   */\n      0x01\n        /* \"#utility.yul\":19990:19995   */\n      dup3\n        /* \"#utility.yul\":19986:19999   */\n      add\n        /* \"#utility.yul\":19979:19999   */\n      swap1\n      pop\n        /* \"#utility.yul\":19772:20005   */\n      swap2\n      swap1\n      pop\n      jump\t// out\n        /* \"#utility.yul\":20011:20191   */\n    tag_63:\n        /* \"#utility.yul\":20059:20136   */\n      0x4e487b7100000000000000000000000000000000000000000000000000000000\n        /* \"#utility.yul\":20056:20057   */\n      0x00\n        /* \"#utility.yul\":20049:20137   */\n      mstore\n        /* \"#utility.yul\":20156:20160   */\n      0x32\n        /* \"#utility.yul\":20153:20154   */\n      0x04\n        /* \"#utility.yul\":20146:20161   */\n      mstore\n        /* \"#utility.yul\":20180:20184   */\n      0x24\n        /* \"#utility.yul\":20177:20178   */\n      0x00\n        /* \"#utility.yul\":20170:20185   */\n      revert\n\n    auxdata: 0xa26469706673582212201153b8f0df43bf3e56a649ec26c7a6fadf825e6c1d94cefd17e41db4bdb8137b64736f6c63430008120033\n}\n",
				"bytecode": {
					"linkReferences": {},
					"object": "608060405234801561001057600080fd5b506111a4806100206000396000f3fe608060405234801561001057600080fd5b50600436106100575760003560e01c8063545060481461005c57806383162c7a146100785780638a11aba4146100a85780639ab8b822146100c4578063a7a16181146100e0575b600080fd5b61007660048036038101906100719190610801565b6100fc565b005b610092600480360381019061008d91906108e0565b6101a0565b60405161009f9190610aed565b60405180910390f35b6100c260048036038101906100bd9190610b0f565b61041e565b005b6100de60048036038101906100d99190610801565b6104b5565b005b6100fa60048036038101906100f59190610ca1565b610569565b005b6000808460405161010d9190610dd3565b90815260200160405180910390209050600081600f0154905060405180604001604052808581526020018481525082600e01600083815260200190815260200160002060008201518160000190816101659190610ff6565b50602082015181600101908161017b9190610ff6565b5090505081600f016000815480929190610194906110f7565b91905055505050505050565b606081156103c057600080846040516101b99190610dd3565b9081526020016040518091039020905060008160080154905060008167ffffffffffffffff8111156101ee576101ed6106d6565b5b60405190808252806020026020018201604052801561022757816020015b610214610686565b81526020019060019003908161020c5790505b50905060005b828110156103b4578360060160008281526020019081526020016000206040518060600160405290816000820154815260200160018201805461026f90610e19565b80601f016020809104026020016040519081016040528092919081815260200182805461029b90610e19565b80156102e85780601f106102bd576101008083540402835291602001916102e8565b820191906000526020600020905b8154815290600101906020018083116102cb57829003601f168201915b5050505050815260200160028201805461030190610e19565b80601f016020809104026020016040519081016040528092919081815260200182805461032d90610e19565b801561037a5780601f1061034f5761010080835404028352916020019161037a565b820191906000526020600020905b81548152906001019060200180831161035d57829003601f168201915b5050505050815250508282815181106103965761039561113f565b5b602002602001018190525080806103ac906110f7565b91505061022d565b50809350505050610418565b600067ffffffffffffffff8111156103db576103da6106d6565b5b60405190808252806020026020018201604052801561041457816020015b610401610686565b8152602001906001900390816103f95790505b5090505b92915050565b6000808860405161042f9190610dd3565b90815260200160405180910390209050868160000190816104509190610ff6565b50858160010190816104629190610ff6565b50848160020190816104749190610ff6565b50828160050190816104869190610ff6565b50838160030190816104989190610ff6565b50818160040190816104aa9190610ff6565b505050505050505050565b600080846040516104c69190610dd3565b9081526020016040518091039020905060008160080154905060405180606001604052808281526020018581526020018481525082600601600083815260200190815260200160002060008201518160000155602082015181600101908161052e9190610ff6565b5060408201518160020190816105449190610ff6565b5090505081600801600081548092919061055d906110f7565b91905055505050505050565b6000808860405161057a9190610dd3565b9081526020016040518091039020905060008160090154905060006040518060a00160405280891515815260200188151581526020018715158152602001868152602001858152509050808360070160008b8152602001908152602001600020600084815260200190815260200160002060008201518160000160006101000a81548160ff02191690831515021790555060208201518160000160016101000a81548160ff02191690831515021790555060408201518160000160026101000a81548160ff02191690831515021790555060608201518160010190816106609190610ff6565b5060808201518160020190816106769190610ff6565b5090505050505050505050505050565b60405180606001604052806000815260200160608152602001606081525090565b6000604051905090565b600080fd5b600080fd5b600080fd5b600080fd5b6000601f19601f8301169050919050565b7f4e487b7100000000000000000000000000000000000000000000000000000000600052604160045260246000fd5b61070e826106c5565b810181811067ffffffffffffffff8211171561072d5761072c6106d6565b5b80604052505050565b60006107406106a7565b905061074c8282610705565b919050565b600067ffffffffffffffff82111561076c5761076b6106d6565b5b610775826106c5565b9050602081019050919050565b82818337600083830152505050565b60006107a461079f84610751565b610736565b9050828152602081018484840111156107c0576107bf6106c0565b5b6107cb848285610782565b509392505050565b600082601f8301126107e8576107e76106bb565b5b81356107f8848260208601610791565b91505092915050565b60008060006060848603121561081a576108196106b1565b5b600084013567ffffffffffffffff811115610838576108376106b6565b5b610844868287016107d3565b935050602084013567ffffffffffffffff811115610865576108646106b6565b5b610871868287016107d3565b925050604084013567ffffffffffffffff811115610892576108916106b6565b5b61089e868287016107d3565b9150509250925092565b60008115159050919050565b6108bd816108a8565b81146108c857600080fd5b50565b6000813590506108da816108b4565b92915050565b600080604083850312156108f7576108f66106b1565b5b600083013567ffffffffffffffff811115610915576109146106b6565b5b610921858286016107d3565b9250506020610932858286016108cb565b9150509250929050565b600081519050919050565b600082825260208201905092915050565b6000819050602082019050919050565b6000819050919050565b61097b81610968565b82525050565b600081519050919050565b600082825260208201905092915050565b60005b838110156109bb5780820151818401526020810190506109a0565b60008484015250505050565b60006109d282610981565b6109dc818561098c565b93506109ec81856020860161099d565b6109f5816106c5565b840191505092915050565b6000606083016000830151610a186000860182610972565b5060208301518482036020860152610a3082826109c7565b91505060408301518482036040860152610a4a82826109c7565b9150508091505092915050565b6000610a638383610a00565b905092915050565b6000602082019050919050565b6000610a838261093c565b610a8d8185610947565b935083602082028501610a9f85610958565b8060005b85811015610adb5784840389528151610abc8582610a57565b9450610ac783610a6b565b925060208a01995050600181019050610aa3565b50829750879550505050505092915050565b60006020820190508181036000830152610b078184610a78565b905092915050565b600080600080600080600060e0888a031215610b2e57610b2d6106b1565b5b600088013567ffffffffffffffff811115610b4c57610b4b6106b6565b5b610b588a828b016107d3565b975050602088013567ffffffffffffffff811115610b7957610b786106b6565b5b610b858a828b016107d3565b965050604088013567ffffffffffffffff811115610ba657610ba56106b6565b5b610bb28a828b016107d3565b955050606088013567ffffffffffffffff811115610bd357610bd26106b6565b5b610bdf8a828b016107d3565b945050608088013567ffffffffffffffff811115610c0057610bff6106b6565b5b610c0c8a828b016107d3565b93505060a088013567ffffffffffffffff811115610c2d57610c2c6106b6565b5b610c398a828b016107d3565b92505060c088013567ffffffffffffffff811115610c5a57610c596106b6565b5b610c668a828b016107d3565b91505092959891949750929550565b610c7e81610968565b8114610c8957600080fd5b50565b600081359050610c9b81610c75565b92915050565b600080600080600080600060e0888a031215610cc057610cbf6106b1565b5b600088013567ffffffffffffffff811115610cde57610cdd6106b6565b5b610cea8a828b016107d3565b9750506020610cfb8a828b01610c8c565b9650506040610d0c8a828b016108cb565b9550506060610d1d8a828b016108cb565b9450506080610d2e8a828b016108cb565b93505060a088013567ffffffffffffffff811115610d4f57610d4e6106b6565b5b610d5b8a828b016107d3565b92505060c088013567ffffffffffffffff811115610d7c57610d7b6106b6565b5b610d888a828b016107d3565b91505092959891949750929550565b600081905092915050565b6000610dad82610981565b610db78185610d97565b9350610dc781856020860161099d565b80840191505092915050565b6000610ddf8284610da2565b915081905092915050565b7f4e487b7100000000000000000000000000000000000000000000000000000000600052602260045260246000fd5b60006002820490506001821680610e3157607f821691505b602082108103610e4457610e43610dea565b5b50919050565b60008190508160005260206000209050919050565b60006020601f8301049050919050565b600082821b905092915050565b600060088302610eac7fffffffffffffffffffffffffffffffffffffffffffffffffffffffffffffffff82610e6f565b610eb68683610e6f565b95508019841693508086168417925050509392505050565b6000819050919050565b6000610ef3610eee610ee984610968565b610ece565b610968565b9050919050565b6000819050919050565b610f0d83610ed8565b610f21610f1982610efa565b848454610e7c565b825550505050565b600090565b610f36610f29565b610f41818484610f04565b505050565b5b81811015610f6557610f5a600082610f2e565b600181019050610f47565b5050565b601f821115610faa57610f7b81610e4a565b610f8484610e5f565b81016020851015610f93578190505b610fa7610f9f85610e5f565b830182610f46565b50505b505050565b600082821c905092915050565b6000610fcd60001984600802610faf565b1980831691505092915050565b6000610fe68383610fbc565b9150826002028217905092915050565b610fff82610981565b67ffffffffffffffff811115611018576110176106d6565b5b6110228254610e19565b61102d828285610f69565b600060209050601f831160018114611060576000841561104e578287015190505b6110588582610fda565b8655506110c0565b601f19841661106e86610e4a565b60005b8281101561109657848901518255600182019150602085019450602081019050611071565b868310156110b357848901516110af601f891682610fbc565b8355505b6001600288020188555050505b505050505050565b7f4e487b7100000000000000000000000000000000000000000000000000000000600052601160045260246000fd5b600061110282610968565b91507fffffffffffffffffffffffffffffffffffffffffffffffffffffffffffffffff8203611134576111336110c8565b5b600182019050919050565b7f4e487b7100000000000000000000000000000000000000000000000000000000600052603260045260246000fdfea26469706673582212201153b8f0df43bf3e56a649ec26c7a6fadf825e6c1d94cefd17e41db4bdb8137b64736f6c63430008120033",
					"opcodes": "PUSH1 0x80 PUSH1 0x40 MSTORE CALLVALUE DUP1 ISZERO PUSH2 0x10 JUMPI PUSH1 0x0 DUP1 REVERT JUMPDEST POP PUSH2 0x11A4 DUP1 PUSH2 0x20 PUSH1 0x0 CODECOPY PUSH1 0x0 RETURN INVALID PUSH1 0x80 PUSH1 0x40 MSTORE CALLVALUE DUP1 ISZERO PUSH2 0x10 JUMPI PUSH1 0x0 DUP1 REVERT JUMPDEST POP PUSH1 0x4 CALLDATASIZE LT PUSH2 0x57 JUMPI PUSH1 0x0 CALLDATALOAD PUSH1 0xE0 SHR DUP1 PUSH4 0x54506048 EQ PUSH2 0x5C JUMPI DUP1 PUSH4 0x83162C7A EQ PUSH2 0x78 JUMPI DUP1 PUSH4 0x8A11ABA4 EQ PUSH2 0xA8 JUMPI DUP1 PUSH4 0x9AB8B822 EQ PUSH2 0xC4 JUMPI DUP1 PUSH4 0xA7A16181 EQ PUSH2 0xE0 JUMPI JUMPDEST PUSH1 0x0 DUP1 REVERT JUMPDEST PUSH2 0x76 PUSH1 0x4 DUP1 CALLDATASIZE SUB DUP2 ADD SWAP1 PUSH2 0x71 SWAP2 SWAP1 PUSH2 0x801 JUMP JUMPDEST PUSH2 0xFC JUMP JUMPDEST STOP JUMPDEST PUSH2 0x92 PUSH1 0x4 DUP1 CALLDATASIZE SUB DUP2 ADD SWAP1 PUSH2 0x8D SWAP2 SWAP1 PUSH2 0x8E0 JUMP JUMPDEST PUSH2 0x1A0 JUMP JUMPDEST PUSH1 0x40 MLOAD PUSH2 0x9F SWAP2 SWAP1 PUSH2 0xAED JUMP JUMPDEST PUSH1 0x40 MLOAD DUP1 SWAP2 SUB SWAP1 RETURN JUMPDEST PUSH2 0xC2 PUSH1 0x4 DUP1 CALLDATASIZE SUB DUP2 ADD SWAP1 PUSH2 0xBD SWAP2 SWAP1 PUSH2 0xB0F JUMP JUMPDEST PUSH2 0x41E JUMP JUMPDEST STOP JUMPDEST PUSH2 0xDE PUSH1 0x4 DUP1 CALLDATASIZE SUB DUP2 ADD SWAP1 PUSH2 0xD9 SWAP2 SWAP1 PUSH2 0x801 JUMP JUMPDEST PUSH2 0x4B5 JUMP JUMPDEST STOP JUMPDEST PUSH2 0xFA PUSH1 0x4 DUP1 CALLDATASIZE SUB DUP2 ADD SWAP1 PUSH2 0xF5 SWAP2 SWAP1 PUSH2 0xCA1 JUMP JUMPDEST PUSH2 0x569 JUMP JUMPDEST STOP JUMPDEST PUSH1 0x0 DUP1 DUP5 PUSH1 0x40 MLOAD PUSH2 0x10D SWAP2 SWAP1 PUSH2 0xDD3 JUMP JUMPDEST SWAP1 DUP2 MSTORE PUSH1 0x20 ADD PUSH1 0x40 MLOAD DUP1 SWAP2 SUB SWAP1 KECCAK256 SWAP1 POP PUSH1 0x0 DUP2 PUSH1 0xF ADD SLOAD SWAP1 POP PUSH1 0x40 MLOAD DUP1 PUSH1 0x40 ADD PUSH1 0x40 MSTORE DUP1 DUP6 DUP2 MSTORE PUSH1 0x20 ADD DUP5 DUP2 MSTORE POP DUP3 PUSH1 0xE ADD PUSH1 0x0 DUP4 DUP2 MSTORE PUSH1 0x20 ADD SWAP1 DUP2 MSTORE PUSH1 0x20 ADD PUSH1 0x0 KECCAK256 PUSH1 0x0 DUP3 ADD MLOAD DUP2 PUSH1 0x0 ADD SWAP1 DUP2 PUSH2 0x165 SWAP2 SWAP1 PUSH2 0xFF6 JUMP JUMPDEST POP PUSH1 0x20 DUP3 ADD MLOAD DUP2 PUSH1 0x1 ADD SWAP1 DUP2 PUSH2 0x17B SWAP2 SWAP1 PUSH2 0xFF6 JUMP JUMPDEST POP SWAP1 POP POP DUP2 PUSH1 0xF ADD PUSH1 0x0 DUP2 SLOAD DUP1 SWAP3 SWAP2 SWAP1 PUSH2 0x194 SWAP1 PUSH2 0x10F7 JUMP JUMPDEST SWAP2 SWAP1 POP SSTORE POP POP POP POP POP POP JUMP JUMPDEST PUSH1 0x60 DUP2 ISZERO PUSH2 0x3C0 JUMPI PUSH1 0x0 DUP1 DUP5 PUSH1 0x40 MLOAD PUSH2 0x1B9 SWAP2 SWAP1 PUSH2 0xDD3 JUMP JUMPDEST SWAP1 DUP2 MSTORE PUSH1 0x20 ADD PUSH1 0x40 MLOAD DUP1 SWAP2 SUB SWAP1 KECCAK256 SWAP1 POP PUSH1 0x0 DUP2 PUSH1 0x8 ADD SLOAD SWAP1 POP PUSH1 0x0 DUP2 PUSH8 0xFFFFFFFFFFFFFFFF DUP2 GT ISZERO PUSH2 0x1EE JUMPI PUSH2 0x1ED PUSH2 0x6D6 JUMP JUMPDEST JUMPDEST PUSH1 0x40 MLOAD SWAP1 DUP1 DUP3 MSTORE DUP1 PUSH1 0x20 MUL PUSH1 0x20 ADD DUP3 ADD PUSH1 0x40 MSTORE DUP1 ISZERO PUSH2 0x227 JUMPI DUP2 PUSH1 0x20 ADD JUMPDEST PUSH2 0x214 PUSH2 0x686 JUMP JUMPDEST DUP2 MSTORE PUSH1 0x20 ADD SWAP1 PUSH1 0x1 SWAP1 SUB SWAP1 DUP2 PUSH2 0x20C JUMPI SWAP1 POP JUMPDEST POP SWAP1 POP PUSH1 0x0 JUMPDEST DUP3 DUP2 LT ISZERO PUSH2 0x3B4 JUMPI DUP4 PUSH1 0x6 ADD PUSH1 0x0 DUP3 DUP2 MSTORE PUSH1 0x20 ADD SWAP1 DUP2 MSTORE PUSH1 0x20 ADD PUSH1 0x0 KECCAK256 PUSH1 0x40 MLOAD DUP1 PUSH1 0x60 ADD PUSH1 0x40 MSTORE SWAP1 DUP2 PUSH1 0x0 DUP3 ADD SLOAD DUP2 MSTORE PUSH1 0x20 ADD PUSH1 0x1 DUP3 ADD DUP1 SLOAD PUSH2 0x26F SWAP1 PUSH2 0xE19 JUMP JUMPDEST DUP1 PUSH1 0x1F ADD PUSH1 0x20 DUP1 SWAP2 DIV MUL PUSH1 0x20 ADD PUSH1 0x40 MLOAD SWAP1 DUP2 ADD PUSH1 0x40 MSTORE DUP1 SWAP3 SWAP2 SWAP1 DUP2 DUP2 MSTORE PUSH1 0x20 ADD DUP3 DUP1 SLOAD PUSH2 0x29B SWAP1 PUSH2 0xE19 JUMP JUMPDEST DUP1 ISZERO PUSH2 0x2E8 JUMPI DUP1 PUSH1 0x1F LT PUSH2 0x2BD JUMPI PUSH2 0x100 DUP1 DUP4 SLOAD DIV MUL DUP4 MSTORE SWAP2 PUSH1 0x20 ADD SWAP2 PUSH2 0x2E8 JUMP JUMPDEST DUP3 ADD SWAP2 SWAP1 PUSH1 0x0 MSTORE PUSH1 0x20 PUSH1 0x0 KECCAK256 SWAP1 JUMPDEST DUP2 SLOAD DUP2 MSTORE SWAP1 PUSH1 0x1 ADD SWAP1 PUSH1 0x20 ADD DUP1 DUP4 GT PUSH2 0x2CB JUMPI DUP3 SWAP1 SUB PUSH1 0x1F AND DUP3 ADD SWAP2 JUMPDEST POP POP POP POP POP DUP2 MSTORE PUSH1 0x20 ADD PUSH1 0x2 DUP3 ADD DUP1 SLOAD PUSH2 0x301 SWAP1 PUSH2 0xE19 JUMP JUMPDEST DUP1 PUSH1 0x1F ADD PUSH1 0x20 DUP1 SWAP2 DIV MUL PUSH1 0x20 ADD PUSH1 0x40 MLOAD SWAP1 DUP2 ADD PUSH1 0x40 MSTORE DUP1 SWAP3 SWAP2 SWAP1 DUP2 DUP2 MSTORE PUSH1 0x20 ADD DUP3 DUP1 SLOAD PUSH2 0x32D SWAP1 PUSH2 0xE19 JUMP JUMPDEST DUP1 ISZERO PUSH2 0x37A JUMPI DUP1 PUSH1 0x1F LT PUSH2 0x34F JUMPI PUSH2 0x100 DUP1 DUP4 SLOAD DIV MUL DUP4 MSTORE SWAP2 PUSH1 0x20 ADD SWAP2 PUSH2 0x37A JUMP JUMPDEST DUP3 ADD SWAP2 SWAP1 PUSH1 0x0 MSTORE PUSH1 0x20 PUSH1 0x0 KECCAK256 SWAP1 JUMPDEST DUP2 SLOAD DUP2 MSTORE SWAP1 PUSH1 0x1 ADD SWAP1 PUSH1 0x20 ADD DUP1 DUP4 GT PUSH2 0x35D JUMPI DUP3 SWAP1 SUB PUSH1 0x1F AND DUP3 ADD SWAP2 JUMPDEST POP POP POP POP POP DUP2 MSTORE POP POP DUP3 DUP3 DUP2 MLOAD DUP2 LT PUSH2 0x396 JUMPI PUSH2 0x395 PUSH2 0x113F JUMP JUMPDEST JUMPDEST PUSH1 0x20 MUL PUSH1 0x20 ADD ADD DUP2 SWAP1 MSTORE POP DUP1 DUP1 PUSH2 0x3AC SWAP1 PUSH2 0x10F7 JUMP JUMPDEST SWAP2 POP POP PUSH2 0x22D JUMP JUMPDEST POP DUP1 SWAP4 POP POP POP POP PUSH2 0x418 JUMP JUMPDEST PUSH1 0x0 PUSH8 0xFFFFFFFFFFFFFFFF DUP2 GT ISZERO PUSH2 0x3DB JUMPI PUSH2 0x3DA PUSH2 0x6D6 JUMP JUMPDEST JUMPDEST PUSH1 0x40 MLOAD SWAP1 DUP1 DUP3 MSTORE DUP1 PUSH1 0x20 MUL PUSH1 0x20 ADD DUP3 ADD PUSH1 0x40 MSTORE DUP1 ISZERO PUSH2 0x414 JUMPI DUP2 PUSH1 0x20 ADD JUMPDEST PUSH2 0x401 PUSH2 0x686 JUMP JUMPDEST DUP2 MSTORE PUSH1 0x20 ADD SWAP1 PUSH1 0x1 SWAP1 SUB SWAP1 DUP2 PUSH2 0x3F9 JUMPI SWAP1 POP JUMPDEST POP SWAP1 POP JUMPDEST SWAP3 SWAP2 POP POP JUMP JUMPDEST PUSH1 0x0 DUP1 DUP9 PUSH1 0x40 MLOAD PUSH2 0x42F SWAP2 SWAP1 PUSH2 0xDD3 JUMP JUMPDEST SWAP1 DUP2 MSTORE PUSH1 0x20 ADD PUSH1 0x40 MLOAD DUP1 SWAP2 SUB SWAP1 KECCAK256 SWAP1 POP DUP7 DUP2 PUSH1 0x0 ADD SWAP1 DUP2 PUSH2 0x450 SWAP2 SWAP1 PUSH2 0xFF6 JUMP JUMPDEST POP DUP6 DUP2 PUSH1 0x1 ADD SWAP1 DUP2 PUSH2 0x462 SWAP2 SWAP1 PUSH2 0xFF6 JUMP JUMPDEST POP DUP5 DUP2 PUSH1 0x2 ADD SWAP1 DUP2 PUSH2 0x474 SWAP2 SWAP1 PUSH2 0xFF6 JUMP JUMPDEST POP DUP3 DUP2 PUSH1 0x5 ADD SWAP1 DUP2 PUSH2 0x486 SWAP2 SWAP1 PUSH2 0xFF6 JUMP JUMPDEST POP DUP4 DUP2 PUSH1 0x3 ADD SWAP1 DUP2 PUSH2 0x498 SWAP2 SWAP1 PUSH2 0xFF6 JUMP JUMPDEST POP DUP2 DUP2 PUSH1 0x4 ADD SWAP1 DUP2 PUSH2 0x4AA SWAP2 SWAP1 PUSH2 0xFF6 JUMP JUMPDEST POP POP POP POP POP POP POP POP POP JUMP JUMPDEST PUSH1 0x0 DUP1 DUP5 PUSH1 0x40 MLOAD PUSH2 0x4C6 SWAP2 SWAP1 PUSH2 0xDD3 JUMP JUMPDEST SWAP1 DUP2 MSTORE PUSH1 0x20 ADD PUSH1 0x40 MLOAD DUP1 SWAP2 SUB SWAP1 KECCAK256 SWAP1 POP PUSH1 0x0 DUP2 PUSH1 0x8 ADD SLOAD SWAP1 POP PUSH1 0x40 MLOAD DUP1 PUSH1 0x60 ADD PUSH1 0x40 MSTORE DUP1 DUP3 DUP2 MSTORE PUSH1 0x20 ADD DUP6 DUP2 MSTORE PUSH1 0x20 ADD DUP5 DUP2 MSTORE POP DUP3 PUSH1 0x6 ADD PUSH1 0x0 DUP4 DUP2 MSTORE PUSH1 0x20 ADD SWAP1 DUP2 MSTORE PUSH1 0x20 ADD PUSH1 0x0 KECCAK256 PUSH1 0x0 DUP3 ADD MLOAD DUP2 PUSH1 0x0 ADD SSTORE PUSH1 0x20 DUP3 ADD MLOAD DUP2 PUSH1 0x1 ADD SWAP1 DUP2 PUSH2 0x52E SWAP2 SWAP1 PUSH2 0xFF6 JUMP JUMPDEST POP PUSH1 0x40 DUP3 ADD MLOAD DUP2 PUSH1 0x2 ADD SWAP1 DUP2 PUSH2 0x544 SWAP2 SWAP1 PUSH2 0xFF6 JUMP JUMPDEST POP SWAP1 POP POP DUP2 PUSH1 0x8 ADD PUSH1 0x0 DUP2 SLOAD DUP1 SWAP3 SWAP2 SWAP1 PUSH2 0x55D SWAP1 PUSH2 0x10F7 JUMP JUMPDEST SWAP2 SWAP1 POP SSTORE POP POP POP POP POP POP JUMP JUMPDEST PUSH1 0x0 DUP1 DUP9 PUSH1 0x40 MLOAD PUSH2 0x57A SWAP2 SWAP1 PUSH2 0xDD3 JUMP JUMPDEST SWAP1 DUP2 MSTORE PUSH1 0x20 ADD PUSH1 0x40 MLOAD DUP1 SWAP2 SUB SWAP1 KECCAK256 SWAP1 POP PUSH1 0x0 DUP2 PUSH1 0x9 ADD SLOAD SWAP1 POP PUSH1 0x0 PUSH1 0x40 MLOAD DUP1 PUSH1 0xA0 ADD PUSH1 0x40 MSTORE DUP1 DUP10 ISZERO ISZERO DUP2 MSTORE PUSH1 0x20 ADD DUP9 ISZERO ISZERO DUP2 MSTORE PUSH1 0x20 ADD DUP8 ISZERO ISZERO DUP2 MSTORE PUSH1 0x20 ADD DUP7 DUP2 MSTORE PUSH1 0x20 ADD DUP6 DUP2 MSTORE POP SWAP1 POP DUP1 DUP4 PUSH1 0x7 ADD PUSH1 0x0 DUP12 DUP2 MSTORE PUSH1 0x20 ADD SWAP1 DUP2 MSTORE PUSH1 0x20 ADD PUSH1 0x0 KECCAK256 PUSH1 0x0 DUP5 DUP2 MSTORE PUSH1 0x20 ADD SWAP1 DUP2 MSTORE PUSH1 0x20 ADD PUSH1 0x0 KECCAK256 PUSH1 0x0 DUP3 ADD MLOAD DUP2 PUSH1 0x0 ADD PUSH1 0x0 PUSH2 0x100 EXP DUP2 SLOAD DUP2 PUSH1 0xFF MUL NOT AND SWAP1 DUP4 ISZERO ISZERO MUL OR SWAP1 SSTORE POP PUSH1 0x20 DUP3 ADD MLOAD DUP2 PUSH1 0x0 ADD PUSH1 0x1 PUSH2 0x100 EXP DUP2 SLOAD DUP2 PUSH1 0xFF MUL NOT AND SWAP1 DUP4 ISZERO ISZERO MUL OR SWAP1 SSTORE POP PUSH1 0x40 DUP3 ADD MLOAD DUP2 PUSH1 0x0 ADD PUSH1 0x2 PUSH2 0x100 EXP DUP2 SLOAD DUP2 PUSH1 0xFF MUL NOT AND SWAP1 DUP4 ISZERO ISZERO MUL OR SWAP1 SSTORE POP PUSH1 0x60 DUP3 ADD MLOAD DUP2 PUSH1 0x1 ADD SWAP1 DUP2 PUSH2 0x660 SWAP2 SWAP1 PUSH2 0xFF6 JUMP JUMPDEST POP PUSH1 0x80 DUP3 ADD MLOAD DUP2 PUSH1 0x2 ADD SWAP1 DUP2 PUSH2 0x676 SWAP2 SWAP1 PUSH2 0xFF6 JUMP JUMPDEST POP SWAP1 POP POP POP POP POP POP POP POP POP POP POP POP JUMP JUMPDEST PUSH1 0x40 MLOAD DUP1 PUSH1 0x60 ADD PUSH1 0x40 MSTORE DUP1 PUSH1 0x0 DUP2 MSTORE PUSH1 0x20 ADD PUSH1 0x60 DUP2 MSTORE PUSH1 0x20 ADD PUSH1 0x60 DUP2 MSTORE POP SWAP1 JUMP JUMPDEST PUSH1 0x0 PUSH1 0x40 MLOAD SWAP1 POP SWAP1 JUMP JUMPDEST PUSH1 0x0 DUP1 REVERT JUMPDEST PUSH1 0x0 DUP1 REVERT JUMPDEST PUSH1 0x0 DUP1 REVERT JUMPDEST PUSH1 0x0 DUP1 REVERT JUMPDEST PUSH1 0x0 PUSH1 0x1F NOT PUSH1 0x1F DUP4 ADD AND SWAP1 POP SWAP2 SWAP1 POP JUMP JUMPDEST PUSH32 0x4E487B7100000000000000000000000000000000000000000000000000000000 PUSH1 0x0 MSTORE PUSH1 0x41 PUSH1 0x4 MSTORE PUSH1 0x24 PUSH1 0x0 REVERT JUMPDEST PUSH2 0x70E DUP3 PUSH2 0x6C5 JUMP JUMPDEST DUP2 ADD DUP2 DUP2 LT PUSH8 0xFFFFFFFFFFFFFFFF DUP3 GT OR ISZERO PUSH2 0x72D JUMPI PUSH2 0x72C PUSH2 0x6D6 JUMP JUMPDEST JUMPDEST DUP1 PUSH1 0x40 MSTORE POP POP POP JUMP JUMPDEST PUSH1 0x0 PUSH2 0x740 PUSH2 0x6A7 JUMP JUMPDEST SWAP1 POP PUSH2 0x74C DUP3 DUP3 PUSH2 0x705 JUMP JUMPDEST SWAP2 SWAP1 POP JUMP JUMPDEST PUSH1 0x0 PUSH8 0xFFFFFFFFFFFFFFFF DUP3 GT ISZERO PUSH2 0x76C JUMPI PUSH2 0x76B PUSH2 0x6D6 JUMP JUMPDEST JUMPDEST PUSH2 0x775 DUP3 PUSH2 0x6C5 JUMP JUMPDEST SWAP1 POP PUSH1 0x20 DUP2 ADD SWAP1 POP SWAP2 SWAP1 POP JUMP JUMPDEST DUP3 DUP2 DUP4 CALLDATACOPY PUSH1 0x0 DUP4 DUP4 ADD MSTORE POP POP POP JUMP JUMPDEST PUSH1 0x0 PUSH2 0x7A4 PUSH2 0x79F DUP5 PUSH2 0x751 JUMP JUMPDEST PUSH2 0x736 JUMP JUMPDEST SWAP1 POP DUP3 DUP2 MSTORE PUSH1 0x20 DUP2 ADD DUP5 DUP5 DUP5 ADD GT ISZERO PUSH2 0x7C0 JUMPI PUSH2 0x7BF PUSH2 0x6C0 JUMP JUMPDEST JUMPDEST PUSH2 0x7CB DUP5 DUP3 DUP6 PUSH2 0x782 JUMP JUMPDEST POP SWAP4 SWAP3 POP POP POP JUMP JUMPDEST PUSH1 0x0 DUP3 PUSH1 0x1F DUP4 ADD SLT PUSH2 0x7E8 JUMPI PUSH2 0x7E7 PUSH2 0x6BB JUMP JUMPDEST JUMPDEST DUP2 CALLDATALOAD PUSH2 0x7F8 DUP5 DUP3 PUSH1 0x20 DUP7 ADD PUSH2 0x791 JUMP JUMPDEST SWAP2 POP POP SWAP3 SWAP2 POP POP JUMP JUMPDEST PUSH1 0x0 DUP1 PUSH1 0x0 PUSH1 0x60 DUP5 DUP7 SUB SLT ISZERO PUSH2 0x81A JUMPI PUSH2 0x819 PUSH2 0x6B1 JUMP JUMPDEST JUMPDEST PUSH1 0x0 DUP5 ADD CALLDATALOAD PUSH8 0xFFFFFFFFFFFFFFFF DUP2 GT ISZERO PUSH2 0x838 JUMPI PUSH2 0x837 PUSH2 0x6B6 JUMP JUMPDEST JUMPDEST PUSH2 0x844 DUP7 DUP3 DUP8 ADD PUSH2 0x7D3 JUMP JUMPDEST SWAP4 POP POP PUSH1 0x20 DUP5 ADD CALLDATALOAD PUSH8 0xFFFFFFFFFFFFFFFF DUP2 GT ISZERO PUSH2 0x865 JUMPI PUSH2 0x864 PUSH2 0x6B6 JUMP JUMPDEST JUMPDEST PUSH2 0x871 DUP7 DUP3 DUP8 ADD PUSH2 0x7D3 JUMP JUMPDEST SWAP3 POP POP PUSH1 0x40 DUP5 ADD CALLDATALOAD PUSH8 0xFFFFFFFFFFFFFFFF DUP2 GT ISZERO PUSH2 0x892 JUMPI PUSH2 0x891 PUSH2 0x6B6 JUMP JUMPDEST JUMPDEST PUSH2 0x89E DUP7 DUP3 DUP8 ADD PUSH2 0x7D3 JUMP JUMPDEST SWAP2 POP POP SWAP3 POP SWAP3 POP SWAP3 JUMP JUMPDEST PUSH1 0x0 DUP2 ISZERO ISZERO SWAP1 POP SWAP2 SWAP1 POP JUMP JUMPDEST PUSH2 0x8BD DUP2 PUSH2 0x8A8 JUMP JUMPDEST DUP2 EQ PUSH2 0x8C8 JUMPI PUSH1 0x0 DUP1 REVERT JUMPDEST POP JUMP JUMPDEST PUSH1 0x0 DUP2 CALLDATALOAD SWAP1 POP PUSH2 0x8DA DUP2 PUSH2 0x8B4 JUMP JUMPDEST SWAP3 SWAP2 POP POP JUMP JUMPDEST PUSH1 0x0 DUP1 PUSH1 0x40 DUP4 DUP6 SUB SLT ISZERO PUSH2 0x8F7 JUMPI PUSH2 0x8F6 PUSH2 0x6B1 JUMP JUMPDEST JUMPDEST PUSH1 0x0 DUP4 ADD CALLDATALOAD PUSH8 0xFFFFFFFFFFFFFFFF DUP2 GT ISZERO PUSH2 0x915 JUMPI PUSH2 0x914 PUSH2 0x6B6 JUMP JUMPDEST JUMPDEST PUSH2 0x921 DUP6 DUP3 DUP7 ADD PUSH2 0x7D3 JUMP JUMPDEST SWAP3 POP POP PUSH1 0x20 PUSH2 0x932 DUP6 DUP3 DUP7 ADD PUSH2 0x8CB JUMP JUMPDEST SWAP2 POP POP SWAP3 POP SWAP3 SWAP1 POP JUMP JUMPDEST PUSH1 0x0 DUP2 MLOAD SWAP1 POP SWAP2 SWAP1 POP JUMP JUMPDEST PUSH1 0x0 DUP3 DUP3 MSTORE PUSH1 0x20 DUP3 ADD SWAP1 POP SWAP3 SWAP2 POP POP JUMP JUMPDEST PUSH1 0x0 DUP2 SWAP1 POP PUSH1 0x20 DUP3 ADD SWAP1 POP SWAP2 SWAP1 POP JUMP JUMPDEST PUSH1 0x0 DUP2 SWAP1 POP SWAP2 SWAP1 POP JUMP JUMPDEST PUSH2 0x97B DUP2 PUSH2 0x968 JUMP JUMPDEST DUP3 MSTORE POP POP JUMP JUMPDEST PUSH1 0x0 DUP2 MLOAD SWAP1 POP SWAP2 SWAP1 POP JUMP JUMPDEST PUSH1 0x0 DUP3 DUP3 MSTORE PUSH1 0x20 DUP3 ADD SWAP1 POP SWAP3 SWAP2 POP POP JUMP JUMPDEST PUSH1 0x0 JUMPDEST DUP4 DUP2 LT ISZERO PUSH2 0x9BB JUMPI DUP1 DUP3 ADD MLOAD DUP2 DUP5 ADD MSTORE PUSH1 0x20 DUP2 ADD SWAP1 POP PUSH2 0x9A0 JUMP JUMPDEST PUSH1 0x0 DUP5 DUP5 ADD MSTORE POP POP POP POP JUMP JUMPDEST PUSH1 0x0 PUSH2 0x9D2 DUP3 PUSH2 0x981 JUMP JUMPDEST PUSH2 0x9DC DUP2 DUP6 PUSH2 0x98C JUMP JUMPDEST SWAP4 POP PUSH2 0x9EC DUP2 DUP6 PUSH1 0x20 DUP7 ADD PUSH2 0x99D JUMP JUMPDEST PUSH2 0x9F5 DUP2 PUSH2 0x6C5 JUMP JUMPDEST DUP5 ADD SWAP2 POP POP SWAP3 SWAP2 POP POP JUMP JUMPDEST PUSH1 0x0 PUSH1 0x60 DUP4 ADD PUSH1 0x0 DUP4 ADD MLOAD PUSH2 0xA18 PUSH1 0x0 DUP7 ADD DUP3 PUSH2 0x972 JUMP JUMPDEST POP PUSH1 0x20 DUP4 ADD MLOAD DUP5 DUP3 SUB PUSH1 0x20 DUP7 ADD MSTORE PUSH2 0xA30 DUP3 DUP3 PUSH2 0x9C7 JUMP JUMPDEST SWAP2 POP POP PUSH1 0x40 DUP4 ADD MLOAD DUP5 DUP3 SUB PUSH1 0x40 DUP7 ADD MSTORE PUSH2 0xA4A DUP3 DUP3 PUSH2 0x9C7 JUMP JUMPDEST SWAP2 POP POP DUP1 SWAP2 POP POP SWAP3 SWAP2 POP POP JUMP JUMPDEST PUSH1 0x0 PUSH2 0xA63 DUP4 DUP4 PUSH2 0xA00 JUMP JUMPDEST SWAP1 POP SWAP3 SWAP2 POP POP JUMP JUMPDEST PUSH1 0x0 PUSH1 0x20 DUP3 ADD SWAP1 POP SWAP2 SWAP1 POP JUMP JUMPDEST PUSH1 0x0 PUSH2 0xA83 DUP3 PUSH2 0x93C JUMP JUMPDEST PUSH2 0xA8D DUP2 DUP6 PUSH2 0x947 JUMP JUMPDEST SWAP4 POP DUP4 PUSH1 0x20 DUP3 MUL DUP6 ADD PUSH2 0xA9F DUP6 PUSH2 0x958 JUMP JUMPDEST DUP1 PUSH1 0x0 JUMPDEST DUP6 DUP2 LT ISZERO PUSH2 0xADB JUMPI DUP5 DUP5 SUB DUP10 MSTORE DUP2 MLOAD PUSH2 0xABC DUP6 DUP3 PUSH2 0xA57 JUMP JUMPDEST SWAP5 POP PUSH2 0xAC7 DUP4 PUSH2 0xA6B JUMP JUMPDEST SWAP3 POP PUSH1 0x20 DUP11 ADD SWAP10 POP POP PUSH1 0x1 DUP2 ADD SWAP1 POP PUSH2 0xAA3 JUMP JUMPDEST POP DUP3 SWAP8 POP DUP8 SWAP6 POP POP POP POP POP POP SWAP3 SWAP2 POP POP JUMP JUMPDEST PUSH1 0x0 PUSH1 0x20 DUP3 ADD SWAP1 POP DUP2 DUP2 SUB PUSH1 0x0 DUP4 ADD MSTORE PUSH2 0xB07 DUP2 DUP5 PUSH2 0xA78 JUMP JUMPDEST SWAP1 POP SWAP3 SWAP2 POP POP JUMP JUMPDEST PUSH1 0x0 DUP1 PUSH1 0x0 DUP1 PUSH1 0x0 DUP1 PUSH1 0x0 PUSH1 0xE0 DUP9 DUP11 SUB SLT ISZERO PUSH2 0xB2E JUMPI PUSH2 0xB2D PUSH2 0x6B1 JUMP JUMPDEST JUMPDEST PUSH1 0x0 DUP9 ADD CALLDATALOAD PUSH8 0xFFFFFFFFFFFFFFFF DUP2 GT ISZERO PUSH2 0xB4C JUMPI PUSH2 0xB4B PUSH2 0x6B6 JUMP JUMPDEST JUMPDEST PUSH2 0xB58 DUP11 DUP3 DUP12 ADD PUSH2 0x7D3 JUMP JUMPDEST SWAP8 POP POP PUSH1 0x20 DUP9 ADD CALLDATALOAD PUSH8 0xFFFFFFFFFFFFFFFF DUP2 GT ISZERO PUSH2 0xB79 JUMPI PUSH2 0xB78 PUSH2 0x6B6 JUMP JUMPDEST JUMPDEST PUSH2 0xB85 DUP11 DUP3 DUP12 ADD PUSH2 0x7D3 JUMP JUMPDEST SWAP7 POP POP PUSH1 0x40 DUP9 ADD CALLDATALOAD PUSH8 0xFFFFFFFFFFFFFFFF DUP2 GT ISZERO PUSH2 0xBA6 JUMPI PUSH2 0xBA5 PUSH2 0x6B6 JUMP JUMPDEST JUMPDEST PUSH2 0xBB2 DUP11 DUP3 DUP12 ADD PUSH2 0x7D3 JUMP JUMPDEST SWAP6 POP POP PUSH1 0x60 DUP9 ADD CALLDATALOAD PUSH8 0xFFFFFFFFFFFFFFFF DUP2 GT ISZERO PUSH2 0xBD3 JUMPI PUSH2 0xBD2 PUSH2 0x6B6 JUMP JUMPDEST JUMPDEST PUSH2 0xBDF DUP11 DUP3 DUP12 ADD PUSH2 0x7D3 JUMP JUMPDEST SWAP5 POP POP PUSH1 0x80 DUP9 ADD CALLDATALOAD PUSH8 0xFFFFFFFFFFFFFFFF DUP2 GT ISZERO PUSH2 0xC00 JUMPI PUSH2 0xBFF PUSH2 0x6B6 JUMP JUMPDEST JUMPDEST PUSH2 0xC0C DUP11 DUP3 DUP12 ADD PUSH2 0x7D3 JUMP JUMPDEST SWAP4 POP POP PUSH1 0xA0 DUP9 ADD CALLDATALOAD PUSH8 0xFFFFFFFFFFFFFFFF DUP2 GT ISZERO PUSH2 0xC2D JUMPI PUSH2 0xC2C PUSH2 0x6B6 JUMP JUMPDEST JUMPDEST PUSH2 0xC39 DUP11 DUP3 DUP12 ADD PUSH2 0x7D3 JUMP JUMPDEST SWAP3 POP POP PUSH1 0xC0 DUP9 ADD CALLDATALOAD PUSH8 0xFFFFFFFFFFFFFFFF DUP2 GT ISZERO PUSH2 0xC5A JUMPI PUSH2 0xC59 PUSH2 0x6B6 JUMP JUMPDEST JUMPDEST PUSH2 0xC66 DUP11 DUP3 DUP12 ADD PUSH2 0x7D3 JUMP JUMPDEST SWAP2 POP POP SWAP3 SWAP6 SWAP9 SWAP2 SWAP5 SWAP8 POP SWAP3 SWAP6 POP JUMP JUMPDEST PUSH2 0xC7E DUP2 PUSH2 0x968 JUMP JUMPDEST DUP2 EQ PUSH2 0xC89 JUMPI PUSH1 0x0 DUP1 REVERT JUMPDEST POP JUMP JUMPDEST PUSH1 0x0 DUP2 CALLDATALOAD SWAP1 POP PUSH2 0xC9B DUP2 PUSH2 0xC75 JUMP JUMPDEST SWAP3 SWAP2 POP POP JUMP JUMPDEST PUSH1 0x0 DUP1 PUSH1 0x0 DUP1 PUSH1 0x0 DUP1 PUSH1 0x0 PUSH1 0xE0 DUP9 DUP11 SUB SLT ISZERO PUSH2 0xCC0 JUMPI PUSH2 0xCBF PUSH2 0x6B1 JUMP JUMPDEST JUMPDEST PUSH1 0x0 DUP9 ADD CALLDATALOAD PUSH8 0xFFFFFFFFFFFFFFFF DUP2 GT ISZERO PUSH2 0xCDE JUMPI PUSH2 0xCDD PUSH2 0x6B6 JUMP JUMPDEST JUMPDEST PUSH2 0xCEA DUP11 DUP3 DUP12 ADD PUSH2 0x7D3 JUMP JUMPDEST SWAP8 POP POP PUSH1 0x20 PUSH2 0xCFB DUP11 DUP3 DUP12 ADD PUSH2 0xC8C JUMP JUMPDEST SWAP7 POP POP PUSH1 0x40 PUSH2 0xD0C DUP11 DUP3 DUP12 ADD PUSH2 0x8CB JUMP JUMPDEST SWAP6 POP POP PUSH1 0x60 PUSH2 0xD1D DUP11 DUP3 DUP12 ADD PUSH2 0x8CB JUMP JUMPDEST SWAP5 POP POP PUSH1 0x80 PUSH2 0xD2E DUP11 DUP3 DUP12 ADD PUSH2 0x8CB JUMP JUMPDEST SWAP4 POP POP PUSH1 0xA0 DUP9 ADD CALLDATALOAD PUSH8 0xFFFFFFFFFFFFFFFF DUP2 GT ISZERO PUSH2 0xD4F JUMPI PUSH2 0xD4E PUSH2 0x6B6 JUMP JUMPDEST JUMPDEST PUSH2 0xD5B DUP11 DUP3 DUP12 ADD PUSH2 0x7D3 JUMP JUMPDEST SWAP3 POP POP PUSH1 0xC0 DUP9 ADD CALLDATALOAD PUSH8 0xFFFFFFFFFFFFFFFF DUP2 GT ISZERO PUSH2 0xD7C JUMPI PUSH2 0xD7B PUSH2 0x6B6 JUMP JUMPDEST JUMPDEST PUSH2 0xD88 DUP11 DUP3 DUP12 ADD PUSH2 0x7D3 JUMP JUMPDEST SWAP2 POP POP SWAP3 SWAP6 SWAP9 SWAP2 SWAP5 SWAP8 POP SWAP3 SWAP6 POP JUMP JUMPDEST PUSH1 0x0 DUP2 SWAP1 POP SWAP3 SWAP2 POP POP JUMP JUMPDEST PUSH1 0x0 PUSH2 0xDAD DUP3 PUSH2 0x981 JUMP JUMPDEST PUSH2 0xDB7 DUP2 DUP6 PUSH2 0xD97 JUMP JUMPDEST SWAP4 POP PUSH2 0xDC7 DUP2 DUP6 PUSH1 0x20 DUP7 ADD PUSH2 0x99D JUMP JUMPDEST DUP1 DUP5 ADD SWAP2 POP POP SWAP3 SWAP2 POP POP JUMP JUMPDEST PUSH1 0x0 PUSH2 0xDDF DUP3 DUP5 PUSH2 0xDA2 JUMP JUMPDEST SWAP2 POP DUP2 SWAP1 POP SWAP3 SWAP2 POP POP JUMP JUMPDEST PUSH32 0x4E487B7100000000000000000000000000000000000000000000000000000000 PUSH1 0x0 MSTORE PUSH1 0x22 PUSH1 0x4 MSTORE PUSH1 0x24 PUSH1 0x0 REVERT JUMPDEST PUSH1 0x0 PUSH1 0x2 DUP3 DIV SWAP1 POP PUSH1 0x1 DUP3 AND DUP1 PUSH2 0xE31 JUMPI PUSH1 0x7F DUP3 AND SWAP2 POP JUMPDEST PUSH1 0x20 DUP3 LT DUP2 SUB PUSH2 0xE44 JUMPI PUSH2 0xE43 PUSH2 0xDEA JUMP JUMPDEST JUMPDEST POP SWAP2 SWAP1 POP JUMP JUMPDEST PUSH1 0x0 DUP2 SWAP1 POP DUP2 PUSH1 0x0 MSTORE PUSH1 0x20 PUSH1 0x0 KECCAK256 SWAP1 POP SWAP2 SWAP1 POP JUMP JUMPDEST PUSH1 0x0 PUSH1 0x20 PUSH1 0x1F DUP4 ADD DIV SWAP1 POP SWAP2 SWAP1 POP JUMP JUMPDEST PUSH1 0x0 DUP3 DUP3 SHL SWAP1 POP SWAP3 SWAP2 POP POP JUMP JUMPDEST PUSH1 0x0 PUSH1 0x8 DUP4 MUL PUSH2 0xEAC PUSH32 0xFFFFFFFFFFFFFFFFFFFFFFFFFFFFFFFFFFFFFFFFFFFFFFFFFFFFFFFFFFFFFFFF DUP3 PUSH2 0xE6F JUMP JUMPDEST PUSH2 0xEB6 DUP7 DUP4 PUSH2 0xE6F JUMP JUMPDEST SWAP6 POP DUP1 NOT DUP5 AND SWAP4 POP DUP1 DUP7 AND DUP5 OR SWAP3 POP POP POP SWAP4 SWAP3 POP POP POP JUMP JUMPDEST PUSH1 0x0 DUP2 SWAP1 POP SWAP2 SWAP1 POP JUMP JUMPDEST PUSH1 0x0 PUSH2 0xEF3 PUSH2 0xEEE PUSH2 0xEE9 DUP5 PUSH2 0x968 JUMP JUMPDEST PUSH2 0xECE JUMP JUMPDEST PUSH2 0x968 JUMP JUMPDEST SWAP1 POP SWAP2 SWAP1 POP JUMP JUMPDEST PUSH1 0x0 DUP2 SWAP1 POP SWAP2 SWAP1 POP JUMP JUMPDEST PUSH2 0xF0D DUP4 PUSH2 0xED8 JUMP JUMPDEST PUSH2 0xF21 PUSH2 0xF19 DUP3 PUSH2 0xEFA JUMP JUMPDEST DUP5 DUP5 SLOAD PUSH2 0xE7C JUMP JUMPDEST DUP3 SSTORE POP POP POP POP JUMP JUMPDEST PUSH1 0x0 SWAP1 JUMP JUMPDEST PUSH2 0xF36 PUSH2 0xF29 JUMP JUMPDEST PUSH2 0xF41 DUP2 DUP5 DUP5 PUSH2 0xF04 JUMP JUMPDEST POP POP POP JUMP JUMPDEST JUMPDEST DUP2 DUP2 LT ISZERO PUSH2 0xF65 JUMPI PUSH2 0xF5A PUSH1 0x0 DUP3 PUSH2 0xF2E JUMP JUMPDEST PUSH1 0x1 DUP2 ADD SWAP1 POP PUSH2 0xF47 JUMP JUMPDEST POP POP JUMP JUMPDEST PUSH1 0x1F DUP3 GT ISZERO PUSH2 0xFAA JUMPI PUSH2 0xF7B DUP2 PUSH2 0xE4A JUMP JUMPDEST PUSH2 0xF84 DUP5 PUSH2 0xE5F JUMP JUMPDEST DUP2 ADD PUSH1 0x20 DUP6 LT ISZERO PUSH2 0xF93 JUMPI DUP2 SWAP1 POP JUMPDEST PUSH2 0xFA7 PUSH2 0xF9F DUP6 PUSH2 0xE5F JUMP JUMPDEST DUP4 ADD DUP3 PUSH2 0xF46 JUMP JUMPDEST POP POP JUMPDEST POP POP POP JUMP JUMPDEST PUSH1 0x0 DUP3 DUP3 SHR SWAP1 POP SWAP3 SWAP2 POP POP JUMP JUMPDEST PUSH1 0x0 PUSH2 0xFCD PUSH1 0x0 NOT DUP5 PUSH1 0x8 MUL PUSH2 0xFAF JUMP JUMPDEST NOT DUP1 DUP4 AND SWAP2 POP POP SWAP3 SWAP2 POP POP JUMP JUMPDEST PUSH1 0x0 PUSH2 0xFE6 DUP4 DUP4 PUSH2 0xFBC JUMP JUMPDEST SWAP2 POP DUP3 PUSH1 0x2 MUL DUP3 OR SWAP1 POP SWAP3 SWAP2 POP POP JUMP JUMPDEST PUSH2 0xFFF DUP3 PUSH2 0x981 JUMP JUMPDEST PUSH8 0xFFFFFFFFFFFFFFFF DUP2 GT ISZERO PUSH2 0x1018 JUMPI PUSH2 0x1017 PUSH2 0x6D6 JUMP JUMPDEST JUMPDEST PUSH2 0x1022 DUP3 SLOAD PUSH2 0xE19 JUMP JUMPDEST PUSH2 0x102D DUP3 DUP3 DUP6 PUSH2 0xF69 JUMP JUMPDEST PUSH1 0x0 PUSH1 0x20 SWAP1 POP PUSH1 0x1F DUP4 GT PUSH1 0x1 DUP2 EQ PUSH2 0x1060 JUMPI PUSH1 0x0 DUP5 ISZERO PUSH2 0x104E JUMPI DUP3 DUP8 ADD MLOAD SWAP1 POP JUMPDEST PUSH2 0x1058 DUP6 DUP3 PUSH2 0xFDA JUMP JUMPDEST DUP7 SSTORE POP PUSH2 0x10C0 JUMP JUMPDEST PUSH1 0x1F NOT DUP5 AND PUSH2 0x106E DUP7 PUSH2 0xE4A JUMP JUMPDEST PUSH1 0x0 JUMPDEST DUP3 DUP2 LT ISZERO PUSH2 0x1096 JUMPI DUP5 DUP10 ADD MLOAD DUP3 SSTORE PUSH1 0x1 DUP3 ADD SWAP2 POP PUSH1 0x20 DUP6 ADD SWAP5 POP PUSH1 0x20 DUP2 ADD SWAP1 POP PUSH2 0x1071 JUMP JUMPDEST DUP7 DUP4 LT ISZERO PUSH2 0x10B3 JUMPI DUP5 DUP10 ADD MLOAD PUSH2 0x10AF PUSH1 0x1F DUP10 AND DUP3 PUSH2 0xFBC JUMP JUMPDEST DUP4 SSTORE POP JUMPDEST PUSH1 0x1 PUSH1 0x2 DUP9 MUL ADD DUP9 SSTORE POP POP POP JUMPDEST POP POP POP POP POP POP JUMP JUMPDEST PUSH32 0x4E487B7100000000000000000000000000000000000000000000000000000000 PUSH1 0x0 MSTORE PUSH1 0x11 PUSH1 0x4 MSTORE PUSH1 0x24 PUSH1 0x0 REVERT JUMPDEST PUSH1 0x0 PUSH2 0x1102 DUP3 PUSH2 0x968 JUMP JUMPDEST SWAP2 POP PUSH32 0xFFFFFFFFFFFFFFFFFFFFFFFFFFFFFFFFFFFFFFFFFFFFFFFFFFFFFFFFFFFFFFFF DUP3 SUB PUSH2 0x1134 JUMPI PUSH2 0x1133 PUSH2 0x10C8 JUMP JUMPDEST JUMPDEST PUSH1 0x1 DUP3 ADD SWAP1 POP SWAP2 SWAP1 POP JUMP JUMPDEST PUSH32 0x4E487B7100000000000000000000000000000000000000000000000000000000 PUSH1 0x0 MSTORE PUSH1 0x32 PUSH1 0x4 MSTORE PUSH1 0x24 PUSH1 0x0 REVERT INVALID LOG2 PUSH5 0x6970667358 0x22 SLT KECCAK256 GT MSTORE8 0xB8 CREATE 0xDF NUMBER 0xBF RETURNDATACOPY JUMP 0xA6 0x49 0xEC 0x26 0xC7 0xA6 STATICCALL 0xDF DUP3 0x5E PUSH13 0x1D94CEFD17E41DB4BDB8137B64 PUSH20 0x6F6C634300081200330000000000000000000000 "
				},
				"gasEstimates": {
					"creation": {
						"codeDepositCost": "903200",
						"executionCost": "942",
						"totalCost": "904142"
					},
					"external": {
						"addPatient(string,string,string,string,string,string,string)": "infinite",
						"getPrescriptions(string,bool)": "infinite",
						"updateMedicine(string,uint256,bool,bool,bool,string,string)": "infinite",
						"updatePrescription(string,string,string)": "infinite",
						"updateVaccine(string,string,string)": "infinite"
					}
				},
				"methodIdentifiers": {
					"addPatient(string,string,string,string,string,string,string)": "8a11aba4",
					"getPrescriptions(string,bool)": "83162c7a",
					"updateMedicine(string,uint256,bool,bool,bool,string,string)": "a7a16181",
					"updatePrescription(string,string,string)": "9ab8b822",
					"updateVaccine(string,string,string)": "54506048"
				}
			},
			"storageLayout": {
				"storage": [
					{
						"astId": 101,
						"contract": "contracts/_Database8.sol:MedicalRecords",
						"label": "patients",
						"offset": 0,
						"slot": "0",
						"type": "t_mapping(t_string_memory_ptr,t_struct(Patient)78_storage)"
					}
				],
				"types": {
					"t_bool": {
						"encoding": "inplace",
						"label": "bool",
						"numberOfBytes": "1"
					},
					"t_mapping(t_string_memory_ptr,t_bool)": {
						"encoding": "mapping",
						"key": "t_string_memory_ptr",
						"label": "mapping(string => bool)",
						"numberOfBytes": "32",
						"value": "t_bool"
					},
					"t_mapping(t_string_memory_ptr,t_struct(Patient)78_storage)": {
						"encoding": "mapping",
						"key": "t_string_memory_ptr",
						"label": "mapping(string => struct MedicalRecords.Patient)",
						"numberOfBytes": "32",
						"value": "t_struct(Patient)78_storage"
					},
					"t_mapping(t_uint256,t_mapping(t_uint256,t_struct(Medicine)24_storage))": {
						"encoding": "mapping",
						"key": "t_uint256",
						"label": "mapping(uint256 => mapping(uint256 => struct MedicalRecords.Medicine))",
						"numberOfBytes": "32",
						"value": "t_mapping(t_uint256,t_struct(Medicine)24_storage)"
					},
					"t_mapping(t_uint256,t_struct(BloodPressure)87_storage)": {
						"encoding": "mapping",
						"key": "t_uint256",
						"label": "mapping(uint256 => struct MedicalRecords.BloodPressure)",
						"numberOfBytes": "32",
						"value": "t_struct(BloodPressure)87_storage"
					},
					"t_mapping(t_uint256,t_struct(Medicine)24_storage)": {
						"encoding": "mapping",
						"key": "t_uint256",
						"label": "mapping(uint256 => struct MedicalRecords.Medicine)",
						"numberOfBytes": "32",
						"value": "t_struct(Medicine)24_storage"
					},
					"t_mapping(t_uint256,t_struct(Prescription)13_storage)": {
						"encoding": "mapping",
						"key": "t_uint256",
						"label": "mapping(uint256 => struct MedicalRecords.Prescription)",
						"numberOfBytes": "32",
						"value": "t_struct(Prescription)13_storage"
					},
					"t_mapping(t_uint256,t_struct(Sugar)96_storage)": {
						"encoding": "mapping",
						"key": "t_uint256",
						"label": "mapping(uint256 => struct MedicalRecords.Sugar)",
						"numberOfBytes": "32",
						"value": "t_struct(Sugar)96_storage"
					},
					"t_mapping(t_uint256,t_struct(Vaccine)6_storage)": {
						"encoding": "mapping",
						"key": "t_uint256",
						"label": "mapping(uint256 => struct MedicalRecords.Vaccine)",
						"numberOfBytes": "32",
						"value": "t_struct(Vaccine)6_storage"
					},
					"t_string_memory_ptr": {
						"encoding": "bytes",
						"label": "string",
						"numberOfBytes": "32"
					},
					"t_string_storage": {
						"encoding": "bytes",
						"label": "string",
						"numberOfBytes": "32"
					},
					"t_struct(BloodPressure)87_storage": {
						"encoding": "inplace",
						"label": "struct MedicalRecords.BloodPressure",
						"members": [
							{
								"astId": 80,
								"contract": "contracts/_Database8.sol:MedicalRecords",
								"label": "date",
								"offset": 0,
								"slot": "0",
								"type": "t_string_storage"
							},
							{
								"astId": 82,
								"contract": "contracts/_Database8.sol:MedicalRecords",
								"label": "SP",
								"offset": 0,
								"slot": "1",
								"type": "t_uint256"
							},
							{
								"astId": 84,
								"contract": "contracts/_Database8.sol:MedicalRecords",
								"label": "DP",
								"offset": 0,
								"slot": "2",
								"type": "t_uint256"
							},
							{
								"astId": 86,
								"contract": "contracts/_Database8.sol:MedicalRecords",
								"label": "HB",
								"offset": 0,
								"slot": "3",
								"type": "t_uint256"
							}
						],
						"numberOfBytes": "128"
					},
					"t_struct(Medicine)24_storage": {
						"encoding": "inplace",
						"label": "struct MedicalRecords.Medicine",
						"members": [
							{
								"astId": 15,
								"contract": "contracts/_Database8.sol:MedicalRecords",
								"label": "morning",
								"offset": 0,
								"slot": "0",
								"type": "t_bool"
							},
							{
								"astId": 17,
								"contract": "contracts/_Database8.sol:MedicalRecords",
								"label": "afternoon",
								"offset": 1,
								"slot": "0",
								"type": "t_bool"
							},
							{
								"astId": 19,
								"contract": "contracts/_Database8.sol:MedicalRecords",
								"label": "evening",
								"offset": 2,
								"slot": "0",
								"type": "t_bool"
							},
							{
								"astId": 21,
								"contract": "contracts/_Database8.sol:MedicalRecords",
								"label": "name",
								"offset": 0,
								"slot": "1",
								"type": "t_string_storage"
							},
							{
								"astId": 23,
								"contract": "contracts/_Database8.sol:MedicalRecords",
								"label": "description",
								"offset": 0,
								"slot": "2",
								"type": "t_string_storage"
							}
						],
						"numberOfBytes": "96"
					},
					"t_struct(Patient)78_storage": {
						"encoding": "inplace",
						"label": "struct MedicalRecords.Patient",
						"members": [
							{
								"astId": 26,
								"contract": "contracts/_Database8.sol:MedicalRecords",
								"label": "name",
								"offset": 0,
								"slot": "0",
								"type": "t_string_storage"
							},
							{
								"astId": 28,
								"contract": "contracts/_Database8.sol:MedicalRecords",
								"label": "DOB",
								"offset": 0,
								"slot": "1",
								"type": "t_string_storage"
							},
							{
								"astId": 30,
								"contract": "contracts/_Database8.sol:MedicalRecords",
								"label": "phoneNo",
								"offset": 0,
								"slot": "2",
								"type": "t_string_storage"
							},
							{
								"astId": 32,
								"contract": "contracts/_Database8.sol:MedicalRecords",
								"label": "specialConditions",
								"offset": 0,
								"slot": "3",
								"type": "t_string_storage"
							},
							{
								"astId": 34,
								"contract": "contracts/_Database8.sol:MedicalRecords",
								"label": "bloodGroup",
								"offset": 0,
								"slot": "4",
								"type": "t_string_storage"
							},
							{
								"astId": 36,
								"contract": "contracts/_Database8.sol:MedicalRecords",
								"label": "allergies",
								"offset": 0,
								"slot": "5",
								"type": "t_string_storage"
							},
							{
								"astId": 41,
								"contract": "contracts/_Database8.sol:MedicalRecords",
								"label": "prescriptions",
								"offset": 0,
								"slot": "6",
								"type": "t_mapping(t_uint256,t_struct(Prescription)13_storage)"
							},
							{
								"astId": 48,
								"contract": "contracts/_Database8.sol:MedicalRecords",
								"label": "medicines",
								"offset": 0,
								"slot": "7",
								"type": "t_mapping(t_uint256,t_mapping(t_uint256,t_struct(Medicine)24_storage))"
							},
							{
								"astId": 50,
								"contract": "contracts/_Database8.sol:MedicalRecords",
								"label": "prescriptionCount",
								"offset": 0,
								"slot": "8",
								"type": "t_uint256"
							},
							{
								"astId": 52,
								"contract": "contracts/_Database8.sol:MedicalRecords",
								"label": "medicineCount",
								"offset": 0,
								"slot": "9",
								"type": "t_uint256"
							},
							{
								"astId": 57,
								"contract": "contracts/_Database8.sol:MedicalRecords",
								"label": "bloodPressures",
								"offset": 0,
								"slot": "10",
								"type": "t_mapping(t_uint256,t_struct(BloodPressure)87_storage)"
							},
							{
								"astId": 59,
								"contract": "contracts/_Database8.sol:MedicalRecords",
								"label": "bloodPressureCount",
								"offset": 0,
								"slot": "11",
								"type": "t_uint256"
							},
							{
								"astId": 64,
								"contract": "contracts/_Database8.sol:MedicalRecords",
								"label": "sugars",
								"offset": 0,
								"slot": "12",
								"type": "t_mapping(t_uint256,t_struct(Sugar)96_storage)"
							},
							{
								"astId": 66,
								"contract": "contracts/_Database8.sol:MedicalRecords",
								"label": "sugarCount",
								"offset": 0,
								"slot": "13",
								"type": "t_uint256"
							},
							{
								"astId": 71,
								"contract": "contracts/_Database8.sol:MedicalRecords",
								"label": "vaccines",
								"offset": 0,
								"slot": "14",
								"type": "t_mapping(t_uint256,t_struct(Vaccine)6_storage)"
							},
							{
								"astId": 73,
								"contract": "contracts/_Database8.sol:MedicalRecords",
								"label": "vaccineCount",
								"offset": 0,
								"slot": "15",
								"type": "t_uint256"
							},
							{
								"astId": 77,
								"contract": "contracts/_Database8.sol:MedicalRecords",
								"label": "authorizedDoctors",
								"offset": 0,
								"slot": "16",
								"type": "t_mapping(t_string_memory_ptr,t_bool)"
							}
						],
						"numberOfBytes": "544"
					},
					"t_struct(Prescription)13_storage": {
						"encoding": "inplace",
						"label": "struct MedicalRecords.Prescription",
						"members": [
							{
								"astId": 8,
								"contract": "contracts/_Database8.sol:MedicalRecords",
								"label": "prescriptionId",
								"offset": 0,
								"slot": "0",
								"type": "t_uint256"
							},
							{
								"astId": 10,
								"contract": "contracts/_Database8.sol:MedicalRecords",
								"label": "date",
								"offset": 0,
								"slot": "1",
								"type": "t_string_storage"
							},
							{
								"astId": 12,
								"contract": "contracts/_Database8.sol:MedicalRecords",
								"label": "doctorName",
								"offset": 0,
								"slot": "2",
								"type": "t_string_storage"
							}
						],
						"numberOfBytes": "96"
					},
					"t_struct(Sugar)96_storage": {
						"encoding": "inplace",
						"label": "struct MedicalRecords.Sugar",
						"members": [
							{
								"astId": 89,
								"contract": "contracts/_Database8.sol:MedicalRecords",
								"label": "date",
								"offset": 0,
								"slot": "0",
								"type": "t_string_storage"
							},
							{
								"astId": 91,
								"contract": "contracts/_Database8.sol:MedicalRecords",
								"label": "fasting",
								"offset": 0,
								"slot": "1",
								"type": "t_bool"
							},
							{
								"astId": 93,
								"contract": "contracts/_Database8.sol:MedicalRecords",
								"label": "afterMeal",
								"offset": 1,
								"slot": "1",
								"type": "t_bool"
							},
							{
								"astId": 95,
								"contract": "contracts/_Database8.sol:MedicalRecords",
								"label": "level",
								"offset": 0,
								"slot": "2",
								"type": "t_uint256"
							}
						],
						"numberOfBytes": "96"
					},
					"t_struct(Vaccine)6_storage": {
						"encoding": "inplace",
						"label": "struct MedicalRecords.Vaccine",
						"members": [
							{
								"astId": 3,
								"contract": "contracts/_Database8.sol:MedicalRecords",
								"label": "name",
								"offset": 0,
								"slot": "0",
								"type": "t_string_storage"
							},
							{
								"astId": 5,
								"contract": "contracts/_Database8.sol:MedicalRecords",
								"label": "date",
								"offset": 0,
								"slot": "1",
								"type": "t_string_storage"
							}
						],
						"numberOfBytes": "64"
					},
					"t_uint256": {
						"encoding": "inplace",
						"label": "uint256",
						"numberOfBytes": "32"
					}
				}
			},
			"userdoc": {
				"kind": "user",
				"methods": {},
				"version": 1
			}
		}
	}
}