{
	"contracts/_Database.sol": {
		"MedicalRecords": {
			"abi": [
				{
					"inputs": [
						{
							"internalType": "string",
							"name": "_name",
							"type": "string"
						},
						{
							"internalType": "string",
							"name": "_d_id",
							"type": "string"
						},
						{
							"internalType": "string",
							"name": "_hospital",
							"type": "string"
						},
						{
							"internalType": "string",
							"name": "_license",
							"type": "string"
						},
						{
							"internalType": "string",
							"name": "_description",
							"type": "string"
						}
					],
					"name": "addDoctor",
					"outputs": [],
					"stateMutability": "nonpayable",
					"type": "function"
				},
				{
					"inputs": [
						{
							"internalType": "string",
							"name": "_name",
							"type": "string"
						},
						{
							"internalType": "string",
							"name": "_p_id",
							"type": "string"
						},
						{
							"internalType": "uint256",
							"name": "_age",
							"type": "uint256"
						},
						{
							"internalType": "string",
							"name": "_specialConditions",
							"type": "string"
						},
						{
							"internalType": "string",
							"name": "_bloodGroup",
							"type": "string"
						}
					],
					"name": "addPatient",
					"outputs": [],
					"stateMutability": "nonpayable",
					"type": "function"
				},
				{
					"inputs": [
						{
							"internalType": "string",
							"name": "_p_id",
							"type": "string"
						}
					],
					"name": "getPatientAllergies",
					"outputs": [
						{
							"internalType": "string[]",
							"name": "",
							"type": "string[]"
						},
						{
							"internalType": "string[]",
							"name": "",
							"type": "string[]"
						},
						{
							"internalType": "string[]",
							"name": "",
							"type": "string[]"
						}
					],
					"stateMutability": "view",
					"type": "function"
				},
				{
					"inputs": [
						{
							"internalType": "string",
							"name": "_p_id",
							"type": "string"
						}
					],
					"name": "getPatientInfo",
					"outputs": [
						{
							"internalType": "string",
							"name": "",
							"type": "string"
						},
						{
							"internalType": "string",
							"name": "",
							"type": "string"
						},
						{
							"internalType": "uint256",
							"name": "",
							"type": "uint256"
						},
						{
							"internalType": "uint256[]",
							"name": "",
							"type": "uint256[]"
						},
						{
							"internalType": "uint256[]",
							"name": "",
							"type": "uint256[]"
						},
						{
							"internalType": "string",
							"name": "",
							"type": "string"
						},
						{
							"internalType": "string",
							"name": "",
							"type": "string"
						},
						{
							"components": [
								{
									"internalType": "string",
									"name": "date",
									"type": "string"
								},
								{
									"internalType": "string",
									"name": "doctorName",
									"type": "string"
								},
								{
									"internalType": "uint256",
									"name": "interval",
									"type": "uint256"
								},
								{
									"internalType": "string",
									"name": "name",
									"type": "string"
								},
								{
									"internalType": "string",
									"name": "description",
									"type": "string"
								},
								{
									"internalType": "bool",
									"name": "isVisible",
									"type": "bool"
								}
							],
							"internalType": "struct MedicalRecords.Prescription[]",
							"name": "",
							"type": "tuple[]"
						}
					],
					"stateMutability": "view",
					"type": "function"
				},
				{
					"inputs": [
						{
							"internalType": "string",
							"name": "_p_id",
							"type": "string"
						},
						{
							"internalType": "string[]",
							"name": "_food",
							"type": "string[]"
						},
						{
							"internalType": "string[]",
							"name": "_medicines",
							"type": "string[]"
						},
						{
							"internalType": "string[]",
							"name": "_others",
							"type": "string[]"
						}
					],
					"name": "updateAllergy",
					"outputs": [],
					"stateMutability": "nonpayable",
					"type": "function"
				},
				{
					"inputs": [
						{
							"internalType": "string",
							"name": "_p_id",
							"type": "string"
						},
						{
							"internalType": "string",
							"name": "_date",
							"type": "string"
						},
						{
							"internalType": "string",
							"name": "_doctorName",
							"type": "string"
						},
						{
							"internalType": "uint256",
							"name": "_interval",
							"type": "uint256"
						},
						{
							"internalType": "string",
							"name": "_name",
							"type": "string"
						},
						{
							"internalType": "string",
							"name": "_description",
							"type": "string"
						},
						{
							"internalType": "bool",
							"name": "_isVisible",
							"type": "bool"
						}
					],
					"name": "updatePrescription",
					"outputs": [],
					"stateMutability": "nonpayable",
					"type": "function"
				},
				{
					"inputs": [
						{
							"internalType": "string",
							"name": "_p_id",
							"type": "string"
						},
						{
							"internalType": "string",
							"name": "_name",
							"type": "string"
						},
						{
							"internalType": "string",
							"name": "_date",
							"type": "string"
						}
					],
					"name": "updateVaccine",
					"outputs": [],
					"stateMutability": "nonpayable",
					"type": "function"
				}
			],
			"devdoc": {
				"kind": "dev",
				"methods": {},
				"version": 1
			},
			"evm": {
				"assembly": "    /* \"contracts/_Database.sol\":60:4501  contract MedicalRecords {... */\n  mstore(0x40, 0x80)\n  callvalue\n  dup1\n  iszero\n  tag_1\n  jumpi\n  0x00\n  dup1\n  revert\ntag_1:\n  pop\n  dataSize(sub_0)\n  dup1\n  dataOffset(sub_0)\n  0x00\n  codecopy\n  0x00\n  return\nstop\n\nsub_0: assembly {\n        /* \"contracts/_Database.sol\":60:4501  contract MedicalRecords {... */\n      mstore(0x40, 0x80)\n      callvalue\n      dup1\n      iszero\n      tag_1\n      jumpi\n      0x00\n      dup1\n      revert\n    tag_1:\n      pop\n      jumpi(tag_2, lt(calldatasize, 0x04))\n      shr(0xe0, calldataload(0x00))\n      dup1\n      0x54506048\n      gt\n      tag_10\n      jumpi\n      dup1\n      0x54506048\n      eq\n      tag_6\n      jumpi\n      dup1\n      0x68cdafb3\n      eq\n      tag_7\n      jumpi\n      dup1\n      0x6df36bc6\n      eq\n      tag_8\n      jumpi\n      dup1\n      0x75b39e2b\n      eq\n      tag_9\n      jumpi\n      jump(tag_2)\n    tag_10:\n      dup1\n      0x16c11d68\n      eq\n      tag_3\n      jumpi\n      dup1\n      0x1f56c50a\n      eq\n      tag_4\n      jumpi\n      dup1\n      0x3276a2ac\n      eq\n      tag_5\n      jumpi\n    tag_2:\n      0x00\n      dup1\n      revert\n        /* \"contracts/_Database.sol\":3093:3507  function updatePrescription(... */\n    tag_3:\n      tag_11\n      0x04\n      dup1\n      calldatasize\n      sub\n      dup2\n      add\n      swap1\n      tag_12\n      swap2\n      swap1\n      tag_13\n      jump\t// in\n    tag_12:\n      tag_14\n      jump\t// in\n    tag_11:\n      stop\n        /* \"contracts/_Database.sol\":1686:1991  function addDoctor(... */\n    tag_4:\n      tag_15\n      0x04\n      dup1\n      calldatasize\n      sub\n      dup2\n      add\n      swap1\n      tag_16\n      swap2\n      swap1\n      tag_17\n      jump\t// in\n    tag_16:\n      tag_18\n      jump\t// in\n    tag_15:\n      stop\n        /* \"contracts/_Database.sol\":1999:2465  function addPatient (... */\n    tag_5:\n      tag_19\n      0x04\n      dup1\n      calldatasize\n      sub\n      dup2\n      add\n      swap1\n      tag_20\n      swap2\n      swap1\n      tag_21\n      jump\t// in\n    tag_20:\n      tag_22\n      jump\t// in\n    tag_19:\n      stop\n        /* \"contracts/_Database.sol\":2746:3085  function updateVaccine(... */\n    tag_6:\n      tag_23\n      0x04\n      dup1\n      calldatasize\n      sub\n      dup2\n      add\n      swap1\n      tag_24\n      swap2\n      swap1\n      tag_25\n      jump\t// in\n    tag_24:\n      tag_26\n      jump\t// in\n    tag_23:\n      stop\n        /* \"contracts/_Database.sol\":3824:4498  function getPatientInfo(string memory _p_id)... */\n    tag_7:\n      tag_27\n      0x04\n      dup1\n      calldatasize\n      sub\n      dup2\n      add\n      swap1\n      tag_28\n      swap2\n      swap1\n      tag_29\n      jump\t// in\n    tag_28:\n      tag_30\n      jump\t// in\n    tag_27:\n      mload(0x40)\n      tag_31\n      swap9\n      swap8\n      swap7\n      swap6\n      swap5\n      swap4\n      swap3\n      swap2\n      swap1\n      tag_32\n      jump\t// in\n    tag_31:\n      mload(0x40)\n      dup1\n      swap2\n      sub\n      swap1\n      return\n        /* \"contracts/_Database.sol\":3515:3816  function getPatientAllergies(string memory _p_id)... */\n    tag_8:\n      tag_33\n      0x04\n      dup1\n      calldatasize\n      sub\n      dup2\n      add\n      swap1\n      tag_34\n      swap2\n      swap1\n      tag_29\n      jump\t// in\n    tag_34:\n      tag_35\n      jump\t// in\n    tag_33:\n      mload(0x40)\n      tag_36\n      swap4\n      swap3\n      swap2\n      swap1\n      tag_37\n      jump\t// in\n    tag_36:\n      mload(0x40)\n      dup1\n      swap2\n      sub\n      swap1\n      return\n        /* \"contracts/_Database.sol\":2473:2738  function updateAllergy(... */\n    tag_9:\n      tag_38\n      0x04\n      dup1\n      calldatasize\n      sub\n      dup2\n      add\n      swap1\n      tag_39\n      swap2\n      swap1\n      tag_40\n      jump\t// in\n    tag_39:\n      tag_41\n      jump\t// in\n    tag_38:\n      stop\n        /* \"contracts/_Database.sol\":3093:3507  function updatePrescription(... */\n    tag_14:\n        /* \"contracts/_Database.sol\":3363:3371  patients */\n      0x01\n        /* \"contracts/_Database.sol\":3372:3377  _p_id */\n      dup8\n        /* \"contracts/_Database.sol\":3363:3378  patients[_p_id] */\n      mload(0x40)\n      tag_43\n      swap2\n      swap1\n      tag_44\n      jump\t// in\n    tag_43:\n      swap1\n      dup2\n      mstore\n      0x20\n      add\n      mload(0x40)\n      dup1\n      swap2\n      sub\n      swap1\n      keccak256\n        /* \"contracts/_Database.sol\":3363:3392  patients[_p_id].prescriptions */\n      0x09\n      add\n        /* \"contracts/_Database.sol\":3412:3488  Prescription(_date, _doctorName, _interval, _name, _description, _isVisible) */\n      mload(0x40)\n      dup1\n      0xc0\n      add\n      0x40\n      mstore\n      dup1\n        /* \"contracts/_Database.sol\":3425:3430  _date */\n      dup9\n        /* \"contracts/_Database.sol\":3412:3488  Prescription(_date, _doctorName, _interval, _name, _description, _isVisible) */\n      dup2\n      mstore\n      0x20\n      add\n        /* \"contracts/_Database.sol\":3432:3443  _doctorName */\n      dup8\n        /* \"contracts/_Database.sol\":3412:3488  Prescription(_date, _doctorName, _interval, _name, _description, _isVisible) */\n      dup2\n      mstore\n      0x20\n      add\n        /* \"contracts/_Database.sol\":3445:3454  _interval */\n      dup7\n        /* \"contracts/_Database.sol\":3412:3488  Prescription(_date, _doctorName, _interval, _name, _description, _isVisible) */\n      dup2\n      mstore\n      0x20\n      add\n        /* \"contracts/_Database.sol\":3456:3461  _name */\n      dup6\n        /* \"contracts/_Database.sol\":3412:3488  Prescription(_date, _doctorName, _interval, _name, _description, _isVisible) */\n      dup2\n      mstore\n      0x20\n      add\n        /* \"contracts/_Database.sol\":3463:3475  _description */\n      dup5\n        /* \"contracts/_Database.sol\":3412:3488  Prescription(_date, _doctorName, _interval, _name, _description, _isVisible) */\n      dup2\n      mstore\n      0x20\n      add\n        /* \"contracts/_Database.sol\":3477:3487  _isVisible */\n      dup4\n        /* \"contracts/_Database.sol\":3412:3488  Prescription(_date, _doctorName, _interval, _name, _description, _isVisible) */\n      iszero\n      iszero\n      dup2\n      mstore\n      pop\n        /* \"contracts/_Database.sol\":3363:3499  patients[_p_id].prescriptions.push(... */\n      swap1\n      dup1\n      0x01\n      dup2\n      sload\n      add\n      dup1\n      dup3\n      sstore\n      dup1\n      swap2\n      pop\n      pop\n      0x01\n      swap1\n      sub\n      swap1\n      0x00\n      mstore\n      keccak256(0x00, 0x20)\n      swap1\n      0x06\n      mul\n      add\n      0x00\n      swap1\n      swap2\n      swap1\n      swap2\n      swap1\n      swap2\n      pop\n      0x00\n      dup3\n      add\n      mload\n      dup2\n      0x00\n      add\n      swap1\n      dup2\n      tag_46\n      swap2\n      swap1\n      tag_47\n      jump\t// in\n    tag_46:\n      pop\n      0x20\n      dup3\n      add\n      mload\n      dup2\n      0x01\n      add\n      swap1\n      dup2\n      tag_48\n      swap2\n      swap1\n      tag_47\n      jump\t// in\n    tag_48:\n      pop\n      0x40\n      dup3\n      add\n      mload\n      dup2\n      0x02\n      add\n      sstore\n      0x60\n      dup3\n      add\n      mload\n      dup2\n      0x03\n      add\n      swap1\n      dup2\n      tag_49\n      swap2\n      swap1\n      tag_47\n      jump\t// in\n    tag_49:\n      pop\n      0x80\n      dup3\n      add\n      mload\n      dup2\n      0x04\n      add\n      swap1\n      dup2\n      tag_50\n      swap2\n      swap1\n      tag_47\n      jump\t// in\n    tag_50:\n      pop\n      0xa0\n      dup3\n      add\n      mload\n      dup2\n      0x05\n      add\n      exp(0x0100, 0x00)\n      dup2\n      sload\n      dup2\n      0xff\n      mul\n      not\n      and\n      swap1\n      dup4\n      iszero\n      iszero\n      mul\n      or\n      swap1\n      sstore\n      pop\n      pop\n      pop\n        /* \"contracts/_Database.sol\":3093:3507  function updatePrescription(... */\n      pop\n      pop\n      pop\n      pop\n      pop\n      pop\n      pop\n      jump\t// out\n        /* \"contracts/_Database.sol\":1686:1991  function addDoctor(... */\n    tag_18:\n        /* \"contracts/_Database.sol\":1916:1983  Doctor(msg.sender, _name, _d_id, _hospital, _license, _description) */\n      mload(0x40)\n      dup1\n      0xc0\n      add\n      0x40\n      mstore\n      dup1\n        /* \"contracts/_Database.sol\":1923:1933  msg.sender */\n      caller\n        /* \"contracts/_Database.sol\":1916:1983  Doctor(msg.sender, _name, _d_id, _hospital, _license, _description) */\n      0xffffffffffffffffffffffffffffffffffffffff\n      and\n      dup2\n      mstore\n      0x20\n      add\n        /* \"contracts/_Database.sol\":1935:1940  _name */\n      dup7\n        /* \"contracts/_Database.sol\":1916:1983  Doctor(msg.sender, _name, _d_id, _hospital, _license, _description) */\n      dup2\n      mstore\n      0x20\n      add\n        /* \"contracts/_Database.sol\":1942:1947  _d_id */\n      dup6\n        /* \"contracts/_Database.sol\":1916:1983  Doctor(msg.sender, _name, _d_id, _hospital, _license, _description) */\n      dup2\n      mstore\n      0x20\n      add\n        /* \"contracts/_Database.sol\":1949:1958  _hospital */\n      dup5\n        /* \"contracts/_Database.sol\":1916:1983  Doctor(msg.sender, _name, _d_id, _hospital, _license, _description) */\n      dup2\n      mstore\n      0x20\n      add\n        /* \"contracts/_Database.sol\":1960:1968  _license */\n      dup4\n        /* \"contracts/_Database.sol\":1916:1983  Doctor(msg.sender, _name, _d_id, _hospital, _license, _description) */\n      dup2\n      mstore\n      0x20\n      add\n        /* \"contracts/_Database.sol\":1970:1982  _description */\n      dup3\n        /* \"contracts/_Database.sol\":1916:1983  Doctor(msg.sender, _name, _d_id, _hospital, _license, _description) */\n      dup2\n      mstore\n      pop\n        /* \"contracts/_Database.sol\":1894:1901  doctors */\n      0x00\n        /* \"contracts/_Database.sol\":1894:1913  doctors[msg.sender] */\n      dup1\n        /* \"contracts/_Database.sol\":1902:1912  msg.sender */\n      caller\n        /* \"contracts/_Database.sol\":1894:1913  doctors[msg.sender] */\n      0xffffffffffffffffffffffffffffffffffffffff\n      and\n      0xffffffffffffffffffffffffffffffffffffffff\n      and\n      dup2\n      mstore\n      0x20\n      add\n      swap1\n      dup2\n      mstore\n      0x20\n      add\n      0x00\n      keccak256\n        /* \"contracts/_Database.sol\":1894:1983  doctors[msg.sender] = Doctor(msg.sender, _name, _d_id, _hospital, _license, _description) */\n      0x00\n      dup3\n      add\n      mload\n      dup2\n      0x00\n      add\n      exp(0x0100, 0x00)\n      dup2\n      sload\n      dup2\n      0xffffffffffffffffffffffffffffffffffffffff\n      mul\n      not\n      and\n      swap1\n      dup4\n      0xffffffffffffffffffffffffffffffffffffffff\n      and\n      mul\n      or\n      swap1\n      sstore\n      pop\n      0x20\n      dup3\n      add\n      mload\n      dup2\n      0x01\n      add\n      swap1\n      dup2\n      tag_52\n      swap2\n      swap1\n      tag_47\n      jump\t// in\n    tag_52:\n      pop\n      0x40\n      dup3\n      add\n      mload\n      dup2\n      0x02\n      add\n      swap1\n      dup2\n      tag_53\n      swap2\n      swap1\n      tag_47\n      jump\t// in\n    tag_53:\n      pop\n      0x60\n      dup3\n      add\n      mload\n      dup2\n      0x03\n      add\n      swap1\n      dup2\n      tag_54\n      swap2\n      swap1\n      tag_47\n      jump\t// in\n    tag_54:\n      pop\n      0x80\n      dup3\n      add\n      mload\n      dup2\n      0x04\n      add\n      swap1\n      dup2\n      tag_55\n      swap2\n      swap1\n      tag_47\n      jump\t// in\n    tag_55:\n      pop\n      0xa0\n      dup3\n      add\n      mload\n      dup2\n      0x05\n      add\n      swap1\n      dup2\n      tag_56\n      swap2\n      swap1\n      tag_47\n      jump\t// in\n    tag_56:\n      pop\n      swap1\n      pop\n      pop\n        /* \"contracts/_Database.sol\":1686:1991  function addDoctor(... */\n      pop\n      pop\n      pop\n      pop\n      pop\n      jump\t// out\n        /* \"contracts/_Database.sol\":1999:2465  function addPatient (... */\n    tag_22:\n        /* \"contracts/_Database.sol\":2207:2233  Patient storage newPatient */\n      0x00\n        /* \"contracts/_Database.sol\":2236:2244  patients */\n      0x01\n        /* \"contracts/_Database.sol\":2245:2250  _p_id */\n      dup6\n        /* \"contracts/_Database.sol\":2236:2251  patients[_p_id] */\n      mload(0x40)\n      tag_58\n      swap2\n      swap1\n      tag_44\n      jump\t// in\n    tag_58:\n      swap1\n      dup2\n      mstore\n      0x20\n      add\n      mload(0x40)\n      dup1\n      swap2\n      sub\n      swap1\n      keccak256\n        /* \"contracts/_Database.sol\":2207:2251  Patient storage newPatient = patients[_p_id] */\n      swap1\n      pop\n        /* \"contracts/_Database.sol\":2280:2285  _name */\n      dup6\n        /* \"contracts/_Database.sol\":2262:2272  newPatient */\n      dup2\n        /* \"contracts/_Database.sol\":2262:2277  newPatient.name */\n      0x00\n      add\n        /* \"contracts/_Database.sol\":2262:2285  newPatient.name = _name */\n      swap1\n      dup2\n      tag_59\n      swap2\n      swap1\n      tag_47\n      jump\t// in\n    tag_59:\n      pop\n        /* \"contracts/_Database.sol\":2314:2319  _p_id */\n      dup5\n        /* \"contracts/_Database.sol\":2296:2306  newPatient */\n      dup2\n        /* \"contracts/_Database.sol\":2296:2311  newPatient.p_id */\n      0x01\n      add\n        /* \"contracts/_Database.sol\":2296:2319  newPatient.p_id = _p_id */\n      swap1\n      dup2\n      tag_60\n      swap2\n      swap1\n      tag_47\n      jump\t// in\n    tag_60:\n      pop\n        /* \"contracts/_Database.sol\":2347:2351  _age */\n      dup4\n        /* \"contracts/_Database.sol\":2330:2340  newPatient */\n      dup2\n        /* \"contracts/_Database.sol\":2330:2344  newPatient.age */\n      0x02\n      add\n        /* \"contracts/_Database.sol\":2330:2351  newPatient.age = _age */\n      dup2\n      swap1\n      sstore\n      pop\n        /* \"contracts/_Database.sol\":2393:2411  _specialConditions */\n      dup3\n        /* \"contracts/_Database.sol\":2362:2372  newPatient */\n      dup2\n        /* \"contracts/_Database.sol\":2362:2390  newPatient.specialConditions */\n      0x07\n      add\n        /* \"contracts/_Database.sol\":2362:2411  newPatient.specialConditions = _specialConditions */\n      swap1\n      dup2\n      tag_61\n      swap2\n      swap1\n      tag_47\n      jump\t// in\n    tag_61:\n      pop\n        /* \"contracts/_Database.sol\":2446:2457  _bloodGroup */\n      dup2\n        /* \"contracts/_Database.sol\":2422:2432  newPatient */\n      dup2\n        /* \"contracts/_Database.sol\":2422:2443  newPatient.bloodGroup */\n      0x08\n      add\n        /* \"contracts/_Database.sol\":2422:2457  newPatient.bloodGroup = _bloodGroup */\n      swap1\n      dup2\n      tag_62\n      swap2\n      swap1\n      tag_47\n      jump\t// in\n    tag_62:\n      pop\n        /* \"contracts/_Database.sol\":2196:2465  {... */\n      pop\n        /* \"contracts/_Database.sol\":1999:2465  function addPatient (... */\n      pop\n      pop\n      pop\n      pop\n      pop\n      jump\t// out\n        /* \"contracts/_Database.sol\":2746:3085  function updateVaccine(... */\n    tag_26:\n        /* \"contracts/_Database.sol\":2884:2907  Patient storage patient */\n      0x00\n        /* \"contracts/_Database.sol\":2910:2918  patients */\n      0x01\n        /* \"contracts/_Database.sol\":2919:2924  _p_id */\n      dup5\n        /* \"contracts/_Database.sol\":2910:2925  patients[_p_id] */\n      mload(0x40)\n      tag_64\n      swap2\n      swap1\n      tag_44\n      jump\t// in\n    tag_64:\n      swap1\n      dup2\n      mstore\n      0x20\n      add\n      mload(0x40)\n      dup1\n      swap2\n      sub\n      swap1\n      keccak256\n        /* \"contracts/_Database.sol\":2884:2925  Patient storage patient = patients[_p_id] */\n      swap1\n      pop\n        /* \"contracts/_Database.sol\":2936:2956  uint256 vaccineIndex */\n      0x00\n        /* \"contracts/_Database.sol\":2959:2966  patient */\n      dup2\n        /* \"contracts/_Database.sol\":2959:2979  patient.vaccineCount */\n      0x06\n      add\n      sload\n        /* \"contracts/_Database.sol\":2936:2979  uint256 vaccineIndex = patient.vaccineCount */\n      swap1\n      pop\n        /* \"contracts/_Database.sol\":3023:3044  Vaccine(_name, _date) */\n      mload(0x40)\n      dup1\n      0x40\n      add\n      0x40\n      mstore\n      dup1\n        /* \"contracts/_Database.sol\":3031:3036  _name */\n      dup6\n        /* \"contracts/_Database.sol\":3023:3044  Vaccine(_name, _date) */\n      dup2\n      mstore\n      0x20\n      add\n        /* \"contracts/_Database.sol\":3038:3043  _date */\n      dup5\n        /* \"contracts/_Database.sol\":3023:3044  Vaccine(_name, _date) */\n      dup2\n      mstore\n      pop\n        /* \"contracts/_Database.sol\":2990:2997  patient */\n      dup3\n        /* \"contracts/_Database.sol\":2990:3006  patient.vaccines */\n      0x05\n      add\n        /* \"contracts/_Database.sol\":2990:3020  patient.vaccines[vaccineIndex] */\n      0x00\n        /* \"contracts/_Database.sol\":3007:3019  vaccineIndex */\n      dup4\n        /* \"contracts/_Database.sol\":2990:3020  patient.vaccines[vaccineIndex] */\n      dup2\n      mstore\n      0x20\n      add\n      swap1\n      dup2\n      mstore\n      0x20\n      add\n      0x00\n      keccak256\n        /* \"contracts/_Database.sol\":2990:3044  patient.vaccines[vaccineIndex] = Vaccine(_name, _date) */\n      0x00\n      dup3\n      add\n      mload\n      dup2\n      0x00\n      add\n      swap1\n      dup2\n      tag_65\n      swap2\n      swap1\n      tag_47\n      jump\t// in\n    tag_65:\n      pop\n      0x20\n      dup3\n      add\n      mload\n      dup2\n      0x01\n      add\n      swap1\n      dup2\n      tag_66\n      swap2\n      swap1\n      tag_47\n      jump\t// in\n    tag_66:\n      pop\n      swap1\n      pop\n      pop\n        /* \"contracts/_Database.sol\":3055:3062  patient */\n      dup2\n        /* \"contracts/_Database.sol\":3055:3075  patient.vaccineCount */\n      0x06\n      add\n      0x00\n        /* \"contracts/_Database.sol\":3055:3077  patient.vaccineCount++ */\n      dup2\n      sload\n      dup1\n      swap3\n      swap2\n      swap1\n      tag_67\n      swap1\n      tag_68\n      jump\t// in\n    tag_67:\n      swap2\n      swap1\n      pop\n      sstore\n      pop\n        /* \"contracts/_Database.sol\":2873:3085  {... */\n      pop\n      pop\n        /* \"contracts/_Database.sol\":2746:3085  function updateVaccine(... */\n      pop\n      pop\n      pop\n      jump\t// out\n        /* \"contracts/_Database.sol\":3824:4498  function getPatientInfo(string memory _p_id)... */\n    tag_30:\n        /* \"contracts/_Database.sol\":3933:3946  string memory */\n      0x60\n        /* \"contracts/_Database.sol\":3961:3974  string memory */\n      dup1\n        /* \"contracts/_Database.sol\":3989:3996  uint256 */\n      0x00\n        /* \"contracts/_Database.sol\":4011:4027  uint256[] memory */\n      0x60\n        /* \"contracts/_Database.sol\":4042:4058  uint256[] memory */\n      dup1\n        /* \"contracts/_Database.sol\":4073:4086  string memory */\n      0x60\n        /* \"contracts/_Database.sol\":4101:4114  string memory */\n      dup1\n        /* \"contracts/_Database.sol\":4129:4150  Prescription[] memory */\n      0x60\n        /* \"contracts/_Database.sol\":4178:4201  Patient storage patient */\n      0x00\n        /* \"contracts/_Database.sol\":4204:4212  patients */\n      0x01\n        /* \"contracts/_Database.sol\":4213:4218  _p_id */\n      dup11\n        /* \"contracts/_Database.sol\":4204:4219  patients[_p_id] */\n      mload(0x40)\n      tag_70\n      swap2\n      swap1\n      tag_44\n      jump\t// in\n    tag_70:\n      swap1\n      dup2\n      mstore\n      0x20\n      add\n      mload(0x40)\n      dup1\n      swap2\n      sub\n      swap1\n      keccak256\n        /* \"contracts/_Database.sol\":4178:4219  Patient storage patient = patients[_p_id] */\n      swap1\n      pop\n        /* \"contracts/_Database.sol\":4252:4259  patient */\n      dup1\n        /* \"contracts/_Database.sol\":4252:4264  patient.name */\n      0x00\n      add\n        /* \"contracts/_Database.sol\":4279:4286  patient */\n      dup2\n        /* \"contracts/_Database.sol\":4279:4291  patient.p_id */\n      0x01\n      add\n        /* \"contracts/_Database.sol\":4306:4313  patient */\n      dup3\n        /* \"contracts/_Database.sol\":4306:4317  patient.age */\n      0x02\n      add\n      sload\n        /* \"contracts/_Database.sol\":4332:4339  patient */\n      dup4\n        /* \"contracts/_Database.sol\":4332:4342  patient.BP */\n      0x03\n      add\n        /* \"contracts/_Database.sol\":4357:4364  patient */\n      dup5\n        /* \"contracts/_Database.sol\":4357:4370  patient.sugar */\n      0x04\n      add\n        /* \"contracts/_Database.sol\":4385:4392  patient */\n      dup6\n        /* \"contracts/_Database.sol\":4385:4410  patient.specialConditions */\n      0x07\n      add\n        /* \"contracts/_Database.sol\":4425:4432  patient */\n      dup7\n        /* \"contracts/_Database.sol\":4425:4443  patient.bloodGroup */\n      0x08\n      add\n        /* \"contracts/_Database.sol\":4458:4465  patient */\n      dup8\n        /* \"contracts/_Database.sol\":4458:4479  patient.prescriptions */\n      0x09\n      add\n        /* \"contracts/_Database.sol\":4230:4490  return (... */\n      dup8\n      dup1\n      sload\n      tag_71\n      swap1\n      tag_72\n      jump\t// in\n    tag_71:\n      dup1\n      0x1f\n      add\n      0x20\n      dup1\n      swap2\n      div\n      mul\n      0x20\n      add\n      mload(0x40)\n      swap1\n      dup2\n      add\n      0x40\n      mstore\n      dup1\n      swap3\n      swap2\n      swap1\n      dup2\n      dup2\n      mstore\n      0x20\n      add\n      dup3\n      dup1\n      sload\n      tag_73\n      swap1\n      tag_72\n      jump\t// in\n    tag_73:\n      dup1\n      iszero\n      tag_74\n      jumpi\n      dup1\n      0x1f\n      lt\n      tag_75\n      jumpi\n      0x0100\n      dup1\n      dup4\n      sload\n      div\n      mul\n      dup4\n      mstore\n      swap2\n      0x20\n      add\n      swap2\n      jump(tag_74)\n    tag_75:\n      dup3\n      add\n      swap2\n      swap1\n      0x00\n      mstore\n      keccak256(0x00, 0x20)\n      swap1\n    tag_76:\n      dup2\n      sload\n      dup2\n      mstore\n      swap1\n      0x01\n      add\n      swap1\n      0x20\n      add\n      dup1\n      dup4\n      gt\n      tag_76\n      jumpi\n      dup3\n      swap1\n      sub\n      0x1f\n      and\n      dup3\n      add\n      swap2\n    tag_74:\n      pop\n      pop\n      pop\n      pop\n      pop\n      swap8\n      pop\n      dup7\n      dup1\n      sload\n      tag_77\n      swap1\n      tag_72\n      jump\t// in\n    tag_77:\n      dup1\n      0x1f\n      add\n      0x20\n      dup1\n      swap2\n      div\n      mul\n      0x20\n      add\n      mload(0x40)\n      swap1\n      dup2\n      add\n      0x40\n      mstore\n      dup1\n      swap3\n      swap2\n      swap1\n      dup2\n      dup2\n      mstore\n      0x20\n      add\n      dup3\n      dup1\n      sload\n      tag_78\n      swap1\n      tag_72\n      jump\t// in\n    tag_78:\n      dup1\n      iszero\n      tag_79\n      jumpi\n      dup1\n      0x1f\n      lt\n      tag_80\n      jumpi\n      0x0100\n      dup1\n      dup4\n      sload\n      div\n      mul\n      dup4\n      mstore\n      swap2\n      0x20\n      add\n      swap2\n      jump(tag_79)\n    tag_80:\n      dup3\n      add\n      swap2\n      swap1\n      0x00\n      mstore\n      keccak256(0x00, 0x20)\n      swap1\n    tag_81:\n      dup2\n      sload\n      dup2\n      mstore\n      swap1\n      0x01\n      add\n      swap1\n      0x20\n      add\n      dup1\n      dup4\n      gt\n      tag_81\n      jumpi\n      dup3\n      swap1\n      sub\n      0x1f\n      and\n      dup3\n      add\n      swap2\n    tag_79:\n      pop\n      pop\n      pop\n      pop\n      pop\n      swap7\n      pop\n      dup5\n      dup1\n      sload\n      dup1\n      0x20\n      mul\n      0x20\n      add\n      mload(0x40)\n      swap1\n      dup2\n      add\n      0x40\n      mstore\n      dup1\n      swap3\n      swap2\n      swap1\n      dup2\n      dup2\n      mstore\n      0x20\n      add\n      dup3\n      dup1\n      sload\n      dup1\n      iszero\n      tag_82\n      jumpi\n      0x20\n      mul\n      dup3\n      add\n      swap2\n      swap1\n      0x00\n      mstore\n      keccak256(0x00, 0x20)\n      swap1\n    tag_83:\n      dup2\n      sload\n      dup2\n      mstore\n      0x20\n      add\n      swap1\n      0x01\n      add\n      swap1\n      dup1\n      dup4\n      gt\n      tag_83\n      jumpi\n    tag_82:\n      pop\n      pop\n      pop\n      pop\n      pop\n      swap5\n      pop\n      dup4\n      dup1\n      sload\n      dup1\n      0x20\n      mul\n      0x20\n      add\n      mload(0x40)\n      swap1\n      dup2\n      add\n      0x40\n      mstore\n      dup1\n      swap3\n      swap2\n      swap1\n      dup2\n      dup2\n      mstore\n      0x20\n      add\n      dup3\n      dup1\n      sload\n      dup1\n      iszero\n      tag_84\n      jumpi\n      0x20\n      mul\n      dup3\n      add\n      swap2\n      swap1\n      0x00\n      mstore\n      keccak256(0x00, 0x20)\n      swap1\n    tag_85:\n      dup2\n      sload\n      dup2\n      mstore\n      0x20\n      add\n      swap1\n      0x01\n      add\n      swap1\n      dup1\n      dup4\n      gt\n      tag_85\n      jumpi\n    tag_84:\n      pop\n      pop\n      pop\n      pop\n      pop\n      swap4\n      pop\n      dup3\n      dup1\n      sload\n      tag_86\n      swap1\n      tag_72\n      jump\t// in\n    tag_86:\n      dup1\n      0x1f\n      add\n      0x20\n      dup1\n      swap2\n      div\n      mul\n      0x20\n      add\n      mload(0x40)\n      swap1\n      dup2\n      add\n      0x40\n      mstore\n      dup1\n      swap3\n      swap2\n      swap1\n      dup2\n      dup2\n      mstore\n      0x20\n      add\n      dup3\n      dup1\n      sload\n      tag_87\n      swap1\n      tag_72\n      jump\t// in\n    tag_87:\n      dup1\n      iszero\n      tag_88\n      jumpi\n      dup1\n      0x1f\n      lt\n      tag_89\n      jumpi\n      0x0100\n      dup1\n      dup4\n      sload\n      div\n      mul\n      dup4\n      mstore\n      swap2\n      0x20\n      add\n      swap2\n      jump(tag_88)\n    tag_89:\n      dup3\n      add\n      swap2\n      swap1\n      0x00\n      mstore\n      keccak256(0x00, 0x20)\n      swap1\n    tag_90:\n      dup2\n      sload\n      dup2\n      mstore\n      swap1\n      0x01\n      add\n      swap1\n      0x20\n      add\n      dup1\n      dup4\n      gt\n      tag_90\n      jumpi\n      dup3\n      swap1\n      sub\n      0x1f\n      and\n      dup3\n      add\n      swap2\n    tag_88:\n      pop\n      pop\n      pop\n      pop\n      pop\n      swap3\n      pop\n      dup2\n      dup1\n      sload\n      tag_91\n      swap1\n      tag_72\n      jump\t// in\n    tag_91:\n      dup1\n      0x1f\n      add\n      0x20\n      dup1\n      swap2\n      div\n      mul\n      0x20\n      add\n      mload(0x40)\n      swap1\n      dup2\n      add\n      0x40\n      mstore\n      dup1\n      swap3\n      swap2\n      swap1\n      dup2\n      dup2\n      mstore\n      0x20\n      add\n      dup3\n      dup1\n      sload\n      tag_92\n      swap1\n      tag_72\n      jump\t// in\n    tag_92:\n      dup1\n      iszero\n      tag_93\n      jumpi\n      dup1\n      0x1f\n      lt\n      tag_94\n      jumpi\n      0x0100\n      dup1\n      dup4\n      sload\n      div\n      mul\n      dup4\n      mstore\n      swap2\n      0x20\n      add\n      swap2\n      jump(tag_93)\n    tag_94:\n      dup3\n      add\n      swap2\n      swap1\n      0x00\n      mstore\n      keccak256(0x00, 0x20)\n      swap1\n    tag_95:\n      dup2\n      sload\n      dup2\n      mstore\n      swap1\n      0x01\n      add\n      swap1\n      0x20\n      add\n      dup1\n      dup4\n      gt\n      tag_95\n      jumpi\n      dup3\n      swap1\n      sub\n      0x1f\n      and\n      dup3\n      add\n      swap2\n    tag_93:\n      pop\n      pop\n      pop\n      pop\n      pop\n      swap2\n      pop\n      dup1\n      dup1\n      sload\n      dup1\n      0x20\n      mul\n      0x20\n      add\n      mload(0x40)\n      swap1\n      dup2\n      add\n      0x40\n      mstore\n      dup1\n      swap3\n      swap2\n      swap1\n      dup2\n      dup2\n      mstore\n      0x20\n      add\n      0x00\n      swap1\n    tag_96:\n      dup3\n      dup3\n      lt\n      iszero\n      tag_97\n      jumpi\n      dup4\n      dup3\n      swap1\n      0x00\n      mstore\n      keccak256(0x00, 0x20)\n      swap1\n      0x06\n      mul\n      add\n      mload(0x40)\n      dup1\n      0xc0\n      add\n      0x40\n      mstore\n      swap1\n      dup2\n      0x00\n      dup3\n      add\n      dup1\n      sload\n      tag_99\n      swap1\n      tag_72\n      jump\t// in\n    tag_99:\n      dup1\n      0x1f\n      add\n      0x20\n      dup1\n      swap2\n      div\n      mul\n      0x20\n      add\n      mload(0x40)\n      swap1\n      dup2\n      add\n      0x40\n      mstore\n      dup1\n      swap3\n      swap2\n      swap1\n      dup2\n      dup2\n      mstore\n      0x20\n      add\n      dup3\n      dup1\n      sload\n      tag_100\n      swap1\n      tag_72\n      jump\t// in\n    tag_100:\n      dup1\n      iszero\n      tag_101\n      jumpi\n      dup1\n      0x1f\n      lt\n      tag_102\n      jumpi\n      0x0100\n      dup1\n      dup4\n      sload\n      div\n      mul\n      dup4\n      mstore\n      swap2\n      0x20\n      add\n      swap2\n      jump(tag_101)\n    tag_102:\n      dup3\n      add\n      swap2\n      swap1\n      0x00\n      mstore\n      keccak256(0x00, 0x20)\n      swap1\n    tag_103:\n      dup2\n      sload\n      dup2\n      mstore\n      swap1\n      0x01\n      add\n      swap1\n      0x20\n      add\n      dup1\n      dup4\n      gt\n      tag_103\n      jumpi\n      dup3\n      swap1\n      sub\n      0x1f\n      and\n      dup3\n      add\n      swap2\n    tag_101:\n      pop\n      pop\n      pop\n      pop\n      pop\n      dup2\n      mstore\n      0x20\n      add\n      0x01\n      dup3\n      add\n      dup1\n      sload\n      tag_104\n      swap1\n      tag_72\n      jump\t// in\n    tag_104:\n      dup1\n      0x1f\n      add\n      0x20\n      dup1\n      swap2\n      div\n      mul\n      0x20\n      add\n      mload(0x40)\n      swap1\n      dup2\n      add\n      0x40\n      mstore\n      dup1\n      swap3\n      swap2\n      swap1\n      dup2\n      dup2\n      mstore\n      0x20\n      add\n      dup3\n      dup1\n      sload\n      tag_105\n      swap1\n      tag_72\n      jump\t// in\n    tag_105:\n      dup1\n      iszero\n      tag_106\n      jumpi\n      dup1\n      0x1f\n      lt\n      tag_107\n      jumpi\n      0x0100\n      dup1\n      dup4\n      sload\n      div\n      mul\n      dup4\n      mstore\n      swap2\n      0x20\n      add\n      swap2\n      jump(tag_106)\n    tag_107:\n      dup3\n      add\n      swap2\n      swap1\n      0x00\n      mstore\n      keccak256(0x00, 0x20)\n      swap1\n    tag_108:\n      dup2\n      sload\n      dup2\n      mstore\n      swap1\n      0x01\n      add\n      swap1\n      0x20\n      add\n      dup1\n      dup4\n      gt\n      tag_108\n      jumpi\n      dup3\n      swap1\n      sub\n      0x1f\n      and\n      dup3\n      add\n      swap2\n    tag_106:\n      pop\n      pop\n      pop\n      pop\n      pop\n      dup2\n      mstore\n      0x20\n      add\n      0x02\n      dup3\n      add\n      sload\n      dup2\n      mstore\n      0x20\n      add\n      0x03\n      dup3\n      add\n      dup1\n      sload\n      tag_109\n      swap1\n      tag_72\n      jump\t// in\n    tag_109:\n      dup1\n      0x1f\n      add\n      0x20\n      dup1\n      swap2\n      div\n      mul\n      0x20\n      add\n      mload(0x40)\n      swap1\n      dup2\n      add\n      0x40\n      mstore\n      dup1\n      swap3\n      swap2\n      swap1\n      dup2\n      dup2\n      mstore\n      0x20\n      add\n      dup3\n      dup1\n      sload\n      tag_110\n      swap1\n      tag_72\n      jump\t// in\n    tag_110:\n      dup1\n      iszero\n      tag_111\n      jumpi\n      dup1\n      0x1f\n      lt\n      tag_112\n      jumpi\n      0x0100\n      dup1\n      dup4\n      sload\n      div\n      mul\n      dup4\n      mstore\n      swap2\n      0x20\n      add\n      swap2\n      jump(tag_111)\n    tag_112:\n      dup3\n      add\n      swap2\n      swap1\n      0x00\n      mstore\n      keccak256(0x00, 0x20)\n      swap1\n    tag_113:\n      dup2\n      sload\n      dup2\n      mstore\n      swap1\n      0x01\n      add\n      swap1\n      0x20\n      add\n      dup1\n      dup4\n      gt\n      tag_113\n      jumpi\n      dup3\n      swap1\n      sub\n      0x1f\n      and\n      dup3\n      add\n      swap2\n    tag_111:\n      pop\n      pop\n      pop\n      pop\n      pop\n      dup2\n      mstore\n      0x20\n      add\n      0x04\n      dup3\n      add\n      dup1\n      sload\n      tag_114\n      swap1\n      tag_72\n      jump\t// in\n    tag_114:\n      dup1\n      0x1f\n      add\n      0x20\n      dup1\n      swap2\n      div\n      mul\n      0x20\n      add\n      mload(0x40)\n      swap1\n      dup2\n      add\n      0x40\n      mstore\n      dup1\n      swap3\n      swap2\n      swap1\n      dup2\n      dup2\n      mstore\n      0x20\n      add\n      dup3\n      dup1\n      sload\n      tag_115\n      swap1\n      tag_72\n      jump\t// in\n    tag_115:\n      dup1\n      iszero\n      tag_116\n      jumpi\n      dup1\n      0x1f\n      lt\n      tag_117\n      jumpi\n      0x0100\n      dup1\n      dup4\n      sload\n      div\n      mul\n      dup4\n      mstore\n      swap2\n      0x20\n      add\n      swap2\n      jump(tag_116)\n    tag_117:\n      dup3\n      add\n      swap2\n      swap1\n      0x00\n      mstore\n      keccak256(0x00, 0x20)\n      swap1\n    tag_118:\n      dup2\n      sload\n      dup2\n      mstore\n      swap1\n      0x01\n      add\n      swap1\n      0x20\n      add\n      dup1\n      dup4\n      gt\n      tag_118\n      jumpi\n      dup3\n      swap1\n      sub\n      0x1f\n      and\n      dup3\n      add\n      swap2\n    tag_116:\n      pop\n      pop\n      pop\n      pop\n      pop\n      dup2\n      mstore\n      0x20\n      add\n      0x05\n      dup3\n      add\n      0x00\n      swap1\n      sload\n      swap1\n      0x0100\n      exp\n      swap1\n      div\n      0xff\n      and\n      iszero\n      iszero\n      iszero\n      iszero\n      dup2\n      mstore\n      pop\n      pop\n      dup2\n      mstore\n      0x20\n      add\n      swap1\n      0x01\n      add\n      swap1\n      jump(tag_96)\n    tag_97:\n      pop\n      pop\n      pop\n      pop\n      swap1\n      pop\n      swap9\n      pop\n      swap9\n      pop\n      swap9\n      pop\n      swap9\n      pop\n      swap9\n      pop\n      swap9\n      pop\n      swap9\n      pop\n      swap9\n      pop\n      pop\n        /* \"contracts/_Database.sol\":3824:4498  function getPatientInfo(string memory _p_id)... */\n      swap2\n      swap4\n      swap6\n      swap8\n      pop\n      swap2\n      swap4\n      swap6\n      swap8\n      jump\t// out\n        /* \"contracts/_Database.sol\":3515:3816  function getPatientAllergies(string memory _p_id)... */\n    tag_35:\n        /* \"contracts/_Database.sol\":3615:3630  string[] memory */\n      0x60\n        /* \"contracts/_Database.sol\":3632:3647  string[] memory */\n      dup1\n        /* \"contracts/_Database.sol\":3649:3664  string[] memory */\n      0x60\n        /* \"contracts/_Database.sol\":3682:3709  Allergies storage allergies */\n      0x00\n        /* \"contracts/_Database.sol\":3712:3728  patientAllergies */\n      0x02\n        /* \"contracts/_Database.sol\":3729:3734  _p_id */\n      dup6\n        /* \"contracts/_Database.sol\":3712:3735  patientAllergies[_p_id] */\n      mload(0x40)\n      tag_120\n      swap2\n      swap1\n      tag_44\n      jump\t// in\n    tag_120:\n      swap1\n      dup2\n      mstore\n      0x20\n      add\n      mload(0x40)\n      dup1\n      swap2\n      sub\n      swap1\n      keccak256\n        /* \"contracts/_Database.sol\":3682:3735  Allergies storage allergies = patientAllergies[_p_id] */\n      swap1\n      pop\n        /* \"contracts/_Database.sol\":3754:3763  allergies */\n      dup1\n        /* \"contracts/_Database.sol\":3754:3768  allergies.food */\n      0x00\n      add\n        /* \"contracts/_Database.sol\":3770:3779  allergies */\n      dup2\n        /* \"contracts/_Database.sol\":3770:3789  allergies.medicines */\n      0x01\n      add\n        /* \"contracts/_Database.sol\":3791:3800  allergies */\n      dup3\n        /* \"contracts/_Database.sol\":3791:3807  allergies.others */\n      0x02\n      add\n        /* \"contracts/_Database.sol\":3746:3808  return (allergies.food, allergies.medicines, allergies.others) */\n      dup3\n      dup1\n      sload\n      dup1\n      0x20\n      mul\n      0x20\n      add\n      mload(0x40)\n      swap1\n      dup2\n      add\n      0x40\n      mstore\n      dup1\n      swap3\n      swap2\n      swap1\n      dup2\n      dup2\n      mstore\n      0x20\n      add\n      0x00\n      swap1\n    tag_121:\n      dup3\n      dup3\n      lt\n      iszero\n      tag_122\n      jumpi\n      dup4\n      dup3\n      swap1\n      0x00\n      mstore\n      keccak256(0x00, 0x20)\n      add\n      dup1\n      sload\n      tag_124\n      swap1\n      tag_72\n      jump\t// in\n    tag_124:\n      dup1\n      0x1f\n      add\n      0x20\n      dup1\n      swap2\n      div\n      mul\n      0x20\n      add\n      mload(0x40)\n      swap1\n      dup2\n      add\n      0x40\n      mstore\n      dup1\n      swap3\n      swap2\n      swap1\n      dup2\n      dup2\n      mstore\n      0x20\n      add\n      dup3\n      dup1\n      sload\n      tag_125\n      swap1\n      tag_72\n      jump\t// in\n    tag_125:\n      dup1\n      iszero\n      tag_126\n      jumpi\n      dup1\n      0x1f\n      lt\n      tag_127\n      jumpi\n      0x0100\n      dup1\n      dup4\n      sload\n      div\n      mul\n      dup4\n      mstore\n      swap2\n      0x20\n      add\n      swap2\n      jump(tag_126)\n    tag_127:\n      dup3\n      add\n      swap2\n      swap1\n      0x00\n      mstore\n      keccak256(0x00, 0x20)\n      swap1\n    tag_128:\n      dup2\n      sload\n      dup2\n      mstore\n      swap1\n      0x01\n      add\n      swap1\n      0x20\n      add\n      dup1\n      dup4\n      gt\n      tag_128\n      jumpi\n      dup3\n      swap1\n      sub\n      0x1f\n      and\n      dup3\n      add\n      swap2\n    tag_126:\n      pop\n      pop\n      pop\n      pop\n      pop\n      dup2\n      mstore\n      0x20\n      add\n      swap1\n      0x01\n      add\n      swap1\n      jump(tag_121)\n    tag_122:\n      pop\n      pop\n      pop\n      pop\n      swap3\n      pop\n      dup2\n      dup1\n      sload\n      dup1\n      0x20\n      mul\n      0x20\n      add\n      mload(0x40)\n      swap1\n      dup2\n      add\n      0x40\n      mstore\n      dup1\n      swap3\n      swap2\n      swap1\n      dup2\n      dup2\n      mstore\n      0x20\n      add\n      0x00\n      swap1\n    tag_129:\n      dup3\n      dup3\n      lt\n      iszero\n      tag_130\n      jumpi\n      dup4\n      dup3\n      swap1\n      0x00\n      mstore\n      keccak256(0x00, 0x20)\n      add\n      dup1\n      sload\n      tag_132\n      swap1\n      tag_72\n      jump\t// in\n    tag_132:\n      dup1\n      0x1f\n      add\n      0x20\n      dup1\n      swap2\n      div\n      mul\n      0x20\n      add\n      mload(0x40)\n      swap1\n      dup2\n      add\n      0x40\n      mstore\n      dup1\n      swap3\n      swap2\n      swap1\n      dup2\n      dup2\n      mstore\n      0x20\n      add\n      dup3\n      dup1\n      sload\n      tag_133\n      swap1\n      tag_72\n      jump\t// in\n    tag_133:\n      dup1\n      iszero\n      tag_134\n      jumpi\n      dup1\n      0x1f\n      lt\n      tag_135\n      jumpi\n      0x0100\n      dup1\n      dup4\n      sload\n      div\n      mul\n      dup4\n      mstore\n      swap2\n      0x20\n      add\n      swap2\n      jump(tag_134)\n    tag_135:\n      dup3\n      add\n      swap2\n      swap1\n      0x00\n      mstore\n      keccak256(0x00, 0x20)\n      swap1\n    tag_136:\n      dup2\n      sload\n      dup2\n      mstore\n      swap1\n      0x01\n      add\n      swap1\n      0x20\n      add\n      dup1\n      dup4\n      gt\n      tag_136\n      jumpi\n      dup3\n      swap1\n      sub\n      0x1f\n      and\n      dup3\n      add\n      swap2\n    tag_134:\n      pop\n      pop\n      pop\n      pop\n      pop\n      dup2\n      mstore\n      0x20\n      add\n      swap1\n      0x01\n      add\n      swap1\n      jump(tag_129)\n    tag_130:\n      pop\n      pop\n      pop\n      pop\n      swap2\n      pop\n      dup1\n      dup1\n      sload\n      dup1\n      0x20\n      mul\n      0x20\n      add\n      mload(0x40)\n      swap1\n      dup2\n      add\n      0x40\n      mstore\n      dup1\n      swap3\n      swap2\n      swap1\n      dup2\n      dup2\n      mstore\n      0x20\n      add\n      0x00\n      swap1\n    tag_137:\n      dup3\n      dup3\n      lt\n      iszero\n      tag_138\n      jumpi\n      dup4\n      dup3\n      swap1\n      0x00\n      mstore\n      keccak256(0x00, 0x20)\n      add\n      dup1\n      sload\n      tag_140\n      swap1\n      tag_72\n      jump\t// in\n    tag_140:\n      dup1\n      0x1f\n      add\n      0x20\n      dup1\n      swap2\n      div\n      mul\n      0x20\n      add\n      mload(0x40)\n      swap1\n      dup2\n      add\n      0x40\n      mstore\n      dup1\n      swap3\n      swap2\n      swap1\n      dup2\n      dup2\n      mstore\n      0x20\n      add\n      dup3\n      dup1\n      sload\n      tag_141\n      swap1\n      tag_72\n      jump\t// in\n    tag_141:\n      dup1\n      iszero\n      tag_142\n      jumpi\n      dup1\n      0x1f\n      lt\n      tag_143\n      jumpi\n      0x0100\n      dup1\n      dup4\n      sload\n      div\n      mul\n      dup4\n      mstore\n      swap2\n      0x20\n      add\n      swap2\n      jump(tag_142)\n    tag_143:\n      dup3\n      add\n      swap2\n      swap1\n      0x00\n      mstore\n      keccak256(0x00, 0x20)\n      swap1\n    tag_144:\n      dup2\n      sload\n      dup2\n      mstore\n      swap1\n      0x01\n      add\n      swap1\n      0x20\n      add\n      dup1\n      dup4\n      gt\n      tag_144\n      jumpi\n      dup3\n      swap1\n      sub\n      0x1f\n      and\n      dup3\n      add\n      swap2\n    tag_142:\n      pop\n      pop\n      pop\n      pop\n      pop\n      dup2\n      mstore\n      0x20\n      add\n      swap1\n      0x01\n      add\n      swap1\n      jump(tag_137)\n    tag_138:\n      pop\n      pop\n      pop\n      pop\n      swap1\n      pop\n      swap4\n      pop\n      swap4\n      pop\n      swap4\n      pop\n      pop\n        /* \"contracts/_Database.sol\":3515:3816  function getPatientAllergies(string memory _p_id)... */\n      swap2\n      swap4\n      swap1\n      swap3\n      pop\n      jump\t// out\n        /* \"contracts/_Database.sol\":2473:2738  function updateAllergy(... */\n    tag_41:\n        /* \"contracts/_Database.sol\":1595:1605  msg.sender */\n      caller\n        /* \"contracts/_Database.sol\":1558:1605  doctors[msg.sender].doctorAddress == msg.sender */\n      0xffffffffffffffffffffffffffffffffffffffff\n      and\n        /* \"contracts/_Database.sol\":1558:1565  doctors */\n      0x00\n        /* \"contracts/_Database.sol\":1558:1577  doctors[msg.sender] */\n      dup1\n        /* \"contracts/_Database.sol\":1566:1576  msg.sender */\n      caller\n        /* \"contracts/_Database.sol\":1558:1577  doctors[msg.sender] */\n      0xffffffffffffffffffffffffffffffffffffffff\n      and\n      0xffffffffffffffffffffffffffffffffffffffff\n      and\n      dup2\n      mstore\n      0x20\n      add\n      swap1\n      dup2\n      mstore\n      0x20\n      add\n      0x00\n      keccak256\n        /* \"contracts/_Database.sol\":1558:1591  doctors[msg.sender].doctorAddress */\n      0x00\n      add\n      0x00\n      swap1\n      sload\n      swap1\n      0x0100\n      exp\n      swap1\n      div\n      0xffffffffffffffffffffffffffffffffffffffff\n      and\n        /* \"contracts/_Database.sol\":1558:1605  doctors[msg.sender].doctorAddress == msg.sender */\n      0xffffffffffffffffffffffffffffffffffffffff\n      and\n      eq\n        /* \"contracts/_Database.sol\":1550:1658  require(doctors[msg.sender].doctorAddress == msg.sender, \"Only authorized doctors can access this function\") */\n      tag_146\n      jumpi\n      mload(0x40)\n      0x08c379a000000000000000000000000000000000000000000000000000000000\n      dup2\n      mstore\n      0x04\n      add\n      tag_147\n      swap1\n      tag_148\n      jump\t// in\n    tag_147:\n      mload(0x40)\n      dup1\n      swap2\n      sub\n      swap1\n      revert\n    tag_146:\n        /* \"contracts/_Database.sol\":2693:2730  Allergies(_food, _medicines, _others) */\n      mload(0x40)\n      dup1\n      0x60\n      add\n      0x40\n      mstore\n      dup1\n        /* \"contracts/_Database.sol\":2703:2708  _food */\n      dup5\n        /* \"contracts/_Database.sol\":2693:2730  Allergies(_food, _medicines, _others) */\n      dup2\n      mstore\n      0x20\n      add\n        /* \"contracts/_Database.sol\":2710:2720  _medicines */\n      dup4\n        /* \"contracts/_Database.sol\":2693:2730  Allergies(_food, _medicines, _others) */\n      dup2\n      mstore\n      0x20\n      add\n        /* \"contracts/_Database.sol\":2722:2729  _others */\n      dup3\n        /* \"contracts/_Database.sol\":2693:2730  Allergies(_food, _medicines, _others) */\n      dup2\n      mstore\n      pop\n        /* \"contracts/_Database.sol\":2667:2683  patientAllergies */\n      0x02\n        /* \"contracts/_Database.sol\":2684:2689  _p_id */\n      dup6\n        /* \"contracts/_Database.sol\":2667:2690  patientAllergies[_p_id] */\n      mload(0x40)\n      tag_150\n      swap2\n      swap1\n      tag_44\n      jump\t// in\n    tag_150:\n      swap1\n      dup2\n      mstore\n      0x20\n      add\n      mload(0x40)\n      dup1\n      swap2\n      sub\n      swap1\n      keccak256\n        /* \"contracts/_Database.sol\":2667:2730  patientAllergies[_p_id] = Allergies(_food, _medicines, _others) */\n      0x00\n      dup3\n      add\n      mload\n      dup2\n      0x00\n      add\n      swap1\n      dup1\n      mload\n      swap1\n      0x20\n      add\n      swap1\n      tag_151\n      swap3\n      swap2\n      swap1\n      tag_152\n      jump\t// in\n    tag_151:\n      pop\n      0x20\n      dup3\n      add\n      mload\n      dup2\n      0x01\n      add\n      swap1\n      dup1\n      mload\n      swap1\n      0x20\n      add\n      swap1\n      tag_153\n      swap3\n      swap2\n      swap1\n      tag_152\n      jump\t// in\n    tag_153:\n      pop\n      0x40\n      dup3\n      add\n      mload\n      dup2\n      0x02\n      add\n      swap1\n      dup1\n      mload\n      swap1\n      0x20\n      add\n      swap1\n      tag_154\n      swap3\n      swap2\n      swap1\n      tag_152\n      jump\t// in\n    tag_154:\n      pop\n      swap1\n      pop\n      pop\n        /* \"contracts/_Database.sol\":2473:2738  function updateAllergy(... */\n      pop\n      pop\n      pop\n      pop\n      jump\t// out\n    tag_152:\n      dup3\n      dup1\n      sload\n      dup3\n      dup3\n      sstore\n      swap1\n      0x00\n      mstore\n      keccak256(0x00, 0x20)\n      swap1\n      dup2\n      add\n      swap3\n      dup3\n      iszero\n      tag_155\n      jumpi\n      swap2\n      0x20\n      mul\n      dup3\n      add\n    tag_156:\n      dup3\n      dup2\n      gt\n      iszero\n      tag_157\n      jumpi\n      dup3\n      mload\n      dup3\n      swap1\n      dup2\n      tag_158\n      swap2\n      swap1\n      tag_47\n      jump\t// in\n    tag_158:\n      pop\n      swap2\n      0x20\n      add\n      swap2\n      swap1\n      0x01\n      add\n      swap1\n      jump(tag_156)\n    tag_157:\n    tag_155:\n      pop\n      swap1\n      pop\n      tag_159\n      swap2\n      swap1\n      tag_160\n      jump\t// in\n    tag_159:\n      pop\n      swap1\n      jump\t// out\n    tag_160:\n    tag_161:\n      dup1\n      dup3\n      gt\n      iszero\n      tag_162\n      jumpi\n      0x00\n      dup2\n      dup2\n      tag_163\n      swap2\n      swap1\n      tag_164\n      jump\t// in\n    tag_163:\n      pop\n      0x01\n      add\n      jump(tag_161)\n    tag_162:\n      pop\n      swap1\n      jump\t// out\n    tag_164:\n      pop\n      dup1\n      sload\n      tag_165\n      swap1\n      tag_72\n      jump\t// in\n    tag_165:\n      0x00\n      dup3\n      sstore\n      dup1\n      0x1f\n      lt\n      tag_167\n      jumpi\n      pop\n      jump(tag_166)\n    tag_167:\n      0x1f\n      add\n      0x20\n      swap1\n      div\n      swap1\n      0x00\n      mstore\n      keccak256(0x00, 0x20)\n      swap1\n      dup2\n      add\n      swap1\n      tag_168\n      swap2\n      swap1\n      tag_169\n      jump\t// in\n    tag_168:\n    tag_166:\n      pop\n      jump\t// out\n    tag_169:\n    tag_170:\n      dup1\n      dup3\n      gt\n      iszero\n      tag_171\n      jumpi\n      0x00\n      dup2\n      0x00\n      swap1\n      sstore\n      pop\n      0x01\n      add\n      jump(tag_170)\n    tag_171:\n      pop\n      swap1\n      jump\t// out\n        /* \"#utility.yul\":7:82   */\n    tag_172:\n        /* \"#utility.yul\":40:46   */\n      0x00\n        /* \"#utility.yul\":73:75   */\n      0x40\n        /* \"#utility.yul\":67:76   */\n      mload\n        /* \"#utility.yul\":57:76   */\n      swap1\n      pop\n        /* \"#utility.yul\":7:82   */\n      swap1\n      jump\t// out\n        /* \"#utility.yul\":88:205   */\n    tag_173:\n        /* \"#utility.yul\":197:198   */\n      0x00\n        /* \"#utility.yul\":194:195   */\n      dup1\n        /* \"#utility.yul\":187:199   */\n      revert\n        /* \"#utility.yul\":211:328   */\n    tag_174:\n        /* \"#utility.yul\":320:321   */\n      0x00\n        /* \"#utility.yul\":317:318   */\n      dup1\n        /* \"#utility.yul\":310:322   */\n      revert\n        /* \"#utility.yul\":334:451   */\n    tag_175:\n        /* \"#utility.yul\":443:444   */\n      0x00\n        /* \"#utility.yul\":440:441   */\n      dup1\n        /* \"#utility.yul\":433:445   */\n      revert\n        /* \"#utility.yul\":457:574   */\n    tag_176:\n        /* \"#utility.yul\":566:567   */\n      0x00\n        /* \"#utility.yul\":563:564   */\n      dup1\n        /* \"#utility.yul\":556:568   */\n      revert\n        /* \"#utility.yul\":580:682   */\n    tag_177:\n        /* \"#utility.yul\":621:627   */\n      0x00\n        /* \"#utility.yul\":672:674   */\n      0x1f\n        /* \"#utility.yul\":668:675   */\n      not\n        /* \"#utility.yul\":663:665   */\n      0x1f\n        /* \"#utility.yul\":656:661   */\n      dup4\n        /* \"#utility.yul\":652:666   */\n      add\n        /* \"#utility.yul\":648:676   */\n      and\n        /* \"#utility.yul\":638:676   */\n      swap1\n      pop\n        /* \"#utility.yul\":580:682   */\n      swap2\n      swap1\n      pop\n      jump\t// out\n        /* \"#utility.yul\":688:868   */\n    tag_178:\n        /* \"#utility.yul\":736:813   */\n      0x4e487b7100000000000000000000000000000000000000000000000000000000\n        /* \"#utility.yul\":733:734   */\n      0x00\n        /* \"#utility.yul\":726:814   */\n      mstore\n        /* \"#utility.yul\":833:837   */\n      0x41\n        /* \"#utility.yul\":830:831   */\n      0x04\n        /* \"#utility.yul\":823:838   */\n      mstore\n        /* \"#utility.yul\":857:861   */\n      0x24\n        /* \"#utility.yul\":854:855   */\n      0x00\n        /* \"#utility.yul\":847:862   */\n      revert\n        /* \"#utility.yul\":874:1155   */\n    tag_179:\n        /* \"#utility.yul\":957:984   */\n      tag_253\n        /* \"#utility.yul\":979:983   */\n      dup3\n        /* \"#utility.yul\":957:984   */\n      tag_177\n      jump\t// in\n    tag_253:\n        /* \"#utility.yul\":949:955   */\n      dup2\n        /* \"#utility.yul\":945:985   */\n      add\n        /* \"#utility.yul\":1087:1093   */\n      dup2\n        /* \"#utility.yul\":1075:1085   */\n      dup2\n        /* \"#utility.yul\":1072:1094   */\n      lt\n        /* \"#utility.yul\":1051:1069   */\n      0xffffffffffffffff\n        /* \"#utility.yul\":1039:1049   */\n      dup3\n        /* \"#utility.yul\":1036:1070   */\n      gt\n        /* \"#utility.yul\":1033:1095   */\n      or\n        /* \"#utility.yul\":1030:1118   */\n      iszero\n      tag_254\n      jumpi\n        /* \"#utility.yul\":1098:1116   */\n      tag_255\n      tag_178\n      jump\t// in\n    tag_255:\n        /* \"#utility.yul\":1030:1118   */\n    tag_254:\n        /* \"#utility.yul\":1138:1148   */\n      dup1\n        /* \"#utility.yul\":1134:1136   */\n      0x40\n        /* \"#utility.yul\":1127:1149   */\n      mstore\n        /* \"#utility.yul\":917:1155   */\n      pop\n        /* \"#utility.yul\":874:1155   */\n      pop\n      pop\n      jump\t// out\n        /* \"#utility.yul\":1161:1290   */\n    tag_180:\n        /* \"#utility.yul\":1195:1201   */\n      0x00\n        /* \"#utility.yul\":1222:1242   */\n      tag_257\n      tag_172\n      jump\t// in\n    tag_257:\n        /* \"#utility.yul\":1212:1242   */\n      swap1\n      pop\n        /* \"#utility.yul\":1251:1284   */\n      tag_258\n        /* \"#utility.yul\":1279:1283   */\n      dup3\n        /* \"#utility.yul\":1271:1277   */\n      dup3\n        /* \"#utility.yul\":1251:1284   */\n      tag_179\n      jump\t// in\n    tag_258:\n        /* \"#utility.yul\":1161:1290   */\n      swap2\n      swap1\n      pop\n      jump\t// out\n        /* \"#utility.yul\":1296:1604   */\n    tag_181:\n        /* \"#utility.yul\":1358:1362   */\n      0x00\n        /* \"#utility.yul\":1448:1466   */\n      0xffffffffffffffff\n        /* \"#utility.yul\":1440:1446   */\n      dup3\n        /* \"#utility.yul\":1437:1467   */\n      gt\n        /* \"#utility.yul\":1434:1490   */\n      iszero\n      tag_260\n      jumpi\n        /* \"#utility.yul\":1470:1488   */\n      tag_261\n      tag_178\n      jump\t// in\n    tag_261:\n        /* \"#utility.yul\":1434:1490   */\n    tag_260:\n        /* \"#utility.yul\":1508:1537   */\n      tag_262\n        /* \"#utility.yul\":1530:1536   */\n      dup3\n        /* \"#utility.yul\":1508:1537   */\n      tag_177\n      jump\t// in\n    tag_262:\n        /* \"#utility.yul\":1500:1537   */\n      swap1\n      pop\n        /* \"#utility.yul\":1592:1596   */\n      0x20\n        /* \"#utility.yul\":1586:1590   */\n      dup2\n        /* \"#utility.yul\":1582:1597   */\n      add\n        /* \"#utility.yul\":1574:1597   */\n      swap1\n      pop\n        /* \"#utility.yul\":1296:1604   */\n      swap2\n      swap1\n      pop\n      jump\t// out\n        /* \"#utility.yul\":1610:1756   */\n    tag_182:\n        /* \"#utility.yul\":1707:1713   */\n      dup3\n        /* \"#utility.yul\":1702:1705   */\n      dup2\n        /* \"#utility.yul\":1697:1700   */\n      dup4\n        /* \"#utility.yul\":1684:1714   */\n      calldatacopy\n        /* \"#utility.yul\":1748:1749   */\n      0x00\n        /* \"#utility.yul\":1739:1745   */\n      dup4\n        /* \"#utility.yul\":1734:1737   */\n      dup4\n        /* \"#utility.yul\":1730:1746   */\n      add\n        /* \"#utility.yul\":1723:1750   */\n      mstore\n        /* \"#utility.yul\":1610:1756   */\n      pop\n      pop\n      pop\n      jump\t// out\n        /* \"#utility.yul\":1762:2187   */\n    tag_183:\n        /* \"#utility.yul\":1840:1845   */\n      0x00\n        /* \"#utility.yul\":1865:1931   */\n      tag_265\n        /* \"#utility.yul\":1881:1930   */\n      tag_266\n        /* \"#utility.yul\":1923:1929   */\n      dup5\n        /* \"#utility.yul\":1881:1930   */\n      tag_181\n      jump\t// in\n    tag_266:\n        /* \"#utility.yul\":1865:1931   */\n      tag_180\n      jump\t// in\n    tag_265:\n        /* \"#utility.yul\":1856:1931   */\n      swap1\n      pop\n        /* \"#utility.yul\":1954:1960   */\n      dup3\n        /* \"#utility.yul\":1947:1952   */\n      dup2\n        /* \"#utility.yul\":1940:1961   */\n      mstore\n        /* \"#utility.yul\":1992:1996   */\n      0x20\n        /* \"#utility.yul\":1985:1990   */\n      dup2\n        /* \"#utility.yul\":1981:1997   */\n      add\n        /* \"#utility.yul\":2030:2033   */\n      dup5\n        /* \"#utility.yul\":2021:2027   */\n      dup5\n        /* \"#utility.yul\":2016:2019   */\n      dup5\n        /* \"#utility.yul\":2012:2028   */\n      add\n        /* \"#utility.yul\":2009:2034   */\n      gt\n        /* \"#utility.yul\":2006:2118   */\n      iszero\n      tag_267\n      jumpi\n        /* \"#utility.yul\":2037:2116   */\n      tag_268\n      tag_176\n      jump\t// in\n    tag_268:\n        /* \"#utility.yul\":2006:2118   */\n    tag_267:\n        /* \"#utility.yul\":2127:2181   */\n      tag_269\n        /* \"#utility.yul\":2174:2180   */\n      dup5\n        /* \"#utility.yul\":2169:2172   */\n      dup3\n        /* \"#utility.yul\":2164:2167   */\n      dup6\n        /* \"#utility.yul\":2127:2181   */\n      tag_182\n      jump\t// in\n    tag_269:\n        /* \"#utility.yul\":1846:2187   */\n      pop\n        /* \"#utility.yul\":1762:2187   */\n      swap4\n      swap3\n      pop\n      pop\n      pop\n      jump\t// out\n        /* \"#utility.yul\":2207:2547   */\n    tag_184:\n        /* \"#utility.yul\":2263:2268   */\n      0x00\n        /* \"#utility.yul\":2312:2315   */\n      dup3\n        /* \"#utility.yul\":2305:2309   */\n      0x1f\n        /* \"#utility.yul\":2297:2303   */\n      dup4\n        /* \"#utility.yul\":2293:2310   */\n      add\n        /* \"#utility.yul\":2289:2316   */\n      slt\n        /* \"#utility.yul\":2279:2401   */\n      tag_271\n      jumpi\n        /* \"#utility.yul\":2320:2399   */\n      tag_272\n      tag_175\n      jump\t// in\n    tag_272:\n        /* \"#utility.yul\":2279:2401   */\n    tag_271:\n        /* \"#utility.yul\":2437:2443   */\n      dup2\n        /* \"#utility.yul\":2424:2444   */\n      calldataload\n        /* \"#utility.yul\":2462:2541   */\n      tag_273\n        /* \"#utility.yul\":2537:2540   */\n      dup5\n        /* \"#utility.yul\":2529:2535   */\n      dup3\n        /* \"#utility.yul\":2522:2526   */\n      0x20\n        /* \"#utility.yul\":2514:2520   */\n      dup7\n        /* \"#utility.yul\":2510:2527   */\n      add\n        /* \"#utility.yul\":2462:2541   */\n      tag_183\n      jump\t// in\n    tag_273:\n        /* \"#utility.yul\":2453:2541   */\n      swap2\n      pop\n        /* \"#utility.yul\":2269:2547   */\n      pop\n        /* \"#utility.yul\":2207:2547   */\n      swap3\n      swap2\n      pop\n      pop\n      jump\t// out\n        /* \"#utility.yul\":2553:2630   */\n    tag_185:\n        /* \"#utility.yul\":2590:2597   */\n      0x00\n        /* \"#utility.yul\":2619:2624   */\n      dup2\n        /* \"#utility.yul\":2608:2624   */\n      swap1\n      pop\n        /* \"#utility.yul\":2553:2630   */\n      swap2\n      swap1\n      pop\n      jump\t// out\n        /* \"#utility.yul\":2636:2758   */\n    tag_186:\n        /* \"#utility.yul\":2709:2733   */\n      tag_276\n        /* \"#utility.yul\":2727:2732   */\n      dup2\n        /* \"#utility.yul\":2709:2733   */\n      tag_185\n      jump\t// in\n    tag_276:\n        /* \"#utility.yul\":2702:2707   */\n      dup2\n        /* \"#utility.yul\":2699:2734   */\n      eq\n        /* \"#utility.yul\":2689:2752   */\n      tag_277\n      jumpi\n        /* \"#utility.yul\":2748:2749   */\n      0x00\n        /* \"#utility.yul\":2745:2746   */\n      dup1\n        /* \"#utility.yul\":2738:2750   */\n      revert\n        /* \"#utility.yul\":2689:2752   */\n    tag_277:\n        /* \"#utility.yul\":2636:2758   */\n      pop\n      jump\t// out\n        /* \"#utility.yul\":2764:2903   */\n    tag_187:\n        /* \"#utility.yul\":2810:2815   */\n      0x00\n        /* \"#utility.yul\":2848:2854   */\n      dup2\n        /* \"#utility.yul\":2835:2855   */\n      calldataload\n        /* \"#utility.yul\":2826:2855   */\n      swap1\n      pop\n        /* \"#utility.yul\":2864:2897   */\n      tag_279\n        /* \"#utility.yul\":2891:2896   */\n      dup2\n        /* \"#utility.yul\":2864:2897   */\n      tag_186\n      jump\t// in\n    tag_279:\n        /* \"#utility.yul\":2764:2903   */\n      swap3\n      swap2\n      pop\n      pop\n      jump\t// out\n        /* \"#utility.yul\":2909:2999   */\n    tag_188:\n        /* \"#utility.yul\":2943:2950   */\n      0x00\n        /* \"#utility.yul\":2986:2991   */\n      dup2\n        /* \"#utility.yul\":2979:2992   */\n      iszero\n        /* \"#utility.yul\":2972:2993   */\n      iszero\n        /* \"#utility.yul\":2961:2993   */\n      swap1\n      pop\n        /* \"#utility.yul\":2909:2999   */\n      swap2\n      swap1\n      pop\n      jump\t// out\n        /* \"#utility.yul\":3005:3121   */\n    tag_189:\n        /* \"#utility.yul\":3075:3096   */\n      tag_282\n        /* \"#utility.yul\":3090:3095   */\n      dup2\n        /* \"#utility.yul\":3075:3096   */\n      tag_188\n      jump\t// in\n    tag_282:\n        /* \"#utility.yul\":3068:3073   */\n      dup2\n        /* \"#utility.yul\":3065:3097   */\n      eq\n        /* \"#utility.yul\":3055:3115   */\n      tag_283\n      jumpi\n        /* \"#utility.yul\":3111:3112   */\n      0x00\n        /* \"#utility.yul\":3108:3109   */\n      dup1\n        /* \"#utility.yul\":3101:3113   */\n      revert\n        /* \"#utility.yul\":3055:3115   */\n    tag_283:\n        /* \"#utility.yul\":3005:3121   */\n      pop\n      jump\t// out\n        /* \"#utility.yul\":3127:3260   */\n    tag_190:\n        /* \"#utility.yul\":3170:3175   */\n      0x00\n        /* \"#utility.yul\":3208:3214   */\n      dup2\n        /* \"#utility.yul\":3195:3215   */\n      calldataload\n        /* \"#utility.yul\":3186:3215   */\n      swap1\n      pop\n        /* \"#utility.yul\":3224:3254   */\n      tag_285\n        /* \"#utility.yul\":3248:3253   */\n      dup2\n        /* \"#utility.yul\":3224:3254   */\n      tag_189\n      jump\t// in\n    tag_285:\n        /* \"#utility.yul\":3127:3260   */\n      swap3\n      swap2\n      pop\n      pop\n      jump\t// out\n        /* \"#utility.yul\":3266:5363   */\n    tag_13:\n        /* \"#utility.yul\":3426:3432   */\n      0x00\n        /* \"#utility.yul\":3434:3440   */\n      dup1\n        /* \"#utility.yul\":3442:3448   */\n      0x00\n        /* \"#utility.yul\":3450:3456   */\n      dup1\n        /* \"#utility.yul\":3458:3464   */\n      0x00\n        /* \"#utility.yul\":3466:3472   */\n      dup1\n        /* \"#utility.yul\":3474:3480   */\n      0x00\n        /* \"#utility.yul\":3523:3526   */\n      0xe0\n        /* \"#utility.yul\":3511:3520   */\n      dup9\n        /* \"#utility.yul\":3502:3509   */\n      dup11\n        /* \"#utility.yul\":3498:3521   */\n      sub\n        /* \"#utility.yul\":3494:3527   */\n      slt\n        /* \"#utility.yul\":3491:3611   */\n      iszero\n      tag_287\n      jumpi\n        /* \"#utility.yul\":3530:3609   */\n      tag_288\n      tag_173\n      jump\t// in\n    tag_288:\n        /* \"#utility.yul\":3491:3611   */\n    tag_287:\n        /* \"#utility.yul\":3678:3679   */\n      0x00\n        /* \"#utility.yul\":3667:3676   */\n      dup9\n        /* \"#utility.yul\":3663:3680   */\n      add\n        /* \"#utility.yul\":3650:3681   */\n      calldataload\n        /* \"#utility.yul\":3708:3726   */\n      0xffffffffffffffff\n        /* \"#utility.yul\":3700:3706   */\n      dup2\n        /* \"#utility.yul\":3697:3727   */\n      gt\n        /* \"#utility.yul\":3694:3811   */\n      iszero\n      tag_289\n      jumpi\n        /* \"#utility.yul\":3730:3809   */\n      tag_290\n      tag_174\n      jump\t// in\n    tag_290:\n        /* \"#utility.yul\":3694:3811   */\n    tag_289:\n        /* \"#utility.yul\":3835:3898   */\n      tag_291\n        /* \"#utility.yul\":3890:3897   */\n      dup11\n        /* \"#utility.yul\":3881:3887   */\n      dup3\n        /* \"#utility.yul\":3870:3879   */\n      dup12\n        /* \"#utility.yul\":3866:3888   */\n      add\n        /* \"#utility.yul\":3835:3898   */\n      tag_184\n      jump\t// in\n    tag_291:\n        /* \"#utility.yul\":3825:3898   */\n      swap8\n      pop\n        /* \"#utility.yul\":3621:3908   */\n      pop\n        /* \"#utility.yul\":3975:3977   */\n      0x20\n        /* \"#utility.yul\":3964:3973   */\n      dup9\n        /* \"#utility.yul\":3960:3978   */\n      add\n        /* \"#utility.yul\":3947:3979   */\n      calldataload\n        /* \"#utility.yul\":4006:4024   */\n      0xffffffffffffffff\n        /* \"#utility.yul\":3998:4004   */\n      dup2\n        /* \"#utility.yul\":3995:4025   */\n      gt\n        /* \"#utility.yul\":3992:4109   */\n      iszero\n      tag_292\n      jumpi\n        /* \"#utility.yul\":4028:4107   */\n      tag_293\n      tag_174\n      jump\t// in\n    tag_293:\n        /* \"#utility.yul\":3992:4109   */\n    tag_292:\n        /* \"#utility.yul\":4133:4196   */\n      tag_294\n        /* \"#utility.yul\":4188:4195   */\n      dup11\n        /* \"#utility.yul\":4179:4185   */\n      dup3\n        /* \"#utility.yul\":4168:4177   */\n      dup12\n        /* \"#utility.yul\":4164:4186   */\n      add\n        /* \"#utility.yul\":4133:4196   */\n      tag_184\n      jump\t// in\n    tag_294:\n        /* \"#utility.yul\":4123:4196   */\n      swap7\n      pop\n        /* \"#utility.yul\":3918:4206   */\n      pop\n        /* \"#utility.yul\":4273:4275   */\n      0x40\n        /* \"#utility.yul\":4262:4271   */\n      dup9\n        /* \"#utility.yul\":4258:4276   */\n      add\n        /* \"#utility.yul\":4245:4277   */\n      calldataload\n        /* \"#utility.yul\":4304:4322   */\n      0xffffffffffffffff\n        /* \"#utility.yul\":4296:4302   */\n      dup2\n        /* \"#utility.yul\":4293:4323   */\n      gt\n        /* \"#utility.yul\":4290:4407   */\n      iszero\n      tag_295\n      jumpi\n        /* \"#utility.yul\":4326:4405   */\n      tag_296\n      tag_174\n      jump\t// in\n    tag_296:\n        /* \"#utility.yul\":4290:4407   */\n    tag_295:\n        /* \"#utility.yul\":4431:4494   */\n      tag_297\n        /* \"#utility.yul\":4486:4493   */\n      dup11\n        /* \"#utility.yul\":4477:4483   */\n      dup3\n        /* \"#utility.yul\":4466:4475   */\n      dup12\n        /* \"#utility.yul\":4462:4484   */\n      add\n        /* \"#utility.yul\":4431:4494   */\n      tag_184\n      jump\t// in\n    tag_297:\n        /* \"#utility.yul\":4421:4494   */\n      swap6\n      pop\n        /* \"#utility.yul\":4216:4504   */\n      pop\n        /* \"#utility.yul\":4543:4545   */\n      0x60\n        /* \"#utility.yul\":4569:4622   */\n      tag_298\n        /* \"#utility.yul\":4614:4621   */\n      dup11\n        /* \"#utility.yul\":4605:4611   */\n      dup3\n        /* \"#utility.yul\":4594:4603   */\n      dup12\n        /* \"#utility.yul\":4590:4612   */\n      add\n        /* \"#utility.yul\":4569:4622   */\n      tag_187\n      jump\t// in\n    tag_298:\n        /* \"#utility.yul\":4559:4622   */\n      swap5\n      pop\n        /* \"#utility.yul\":4514:4632   */\n      pop\n        /* \"#utility.yul\":4699:4702   */\n      0x80\n        /* \"#utility.yul\":4688:4697   */\n      dup9\n        /* \"#utility.yul\":4684:4703   */\n      add\n        /* \"#utility.yul\":4671:4704   */\n      calldataload\n        /* \"#utility.yul\":4731:4749   */\n      0xffffffffffffffff\n        /* \"#utility.yul\":4723:4729   */\n      dup2\n        /* \"#utility.yul\":4720:4750   */\n      gt\n        /* \"#utility.yul\":4717:4834   */\n      iszero\n      tag_299\n      jumpi\n        /* \"#utility.yul\":4753:4832   */\n      tag_300\n      tag_174\n      jump\t// in\n    tag_300:\n        /* \"#utility.yul\":4717:4834   */\n    tag_299:\n        /* \"#utility.yul\":4858:4921   */\n      tag_301\n        /* \"#utility.yul\":4913:4920   */\n      dup11\n        /* \"#utility.yul\":4904:4910   */\n      dup3\n        /* \"#utility.yul\":4893:4902   */\n      dup12\n        /* \"#utility.yul\":4889:4911   */\n      add\n        /* \"#utility.yul\":4858:4921   */\n      tag_184\n      jump\t// in\n    tag_301:\n        /* \"#utility.yul\":4848:4921   */\n      swap4\n      pop\n        /* \"#utility.yul\":4642:4931   */\n      pop\n        /* \"#utility.yul\":4998:5001   */\n      0xa0\n        /* \"#utility.yul\":4987:4996   */\n      dup9\n        /* \"#utility.yul\":4983:5002   */\n      add\n        /* \"#utility.yul\":4970:5003   */\n      calldataload\n        /* \"#utility.yul\":5030:5048   */\n      0xffffffffffffffff\n        /* \"#utility.yul\":5022:5028   */\n      dup2\n        /* \"#utility.yul\":5019:5049   */\n      gt\n        /* \"#utility.yul\":5016:5133   */\n      iszero\n      tag_302\n      jumpi\n        /* \"#utility.yul\":5052:5131   */\n      tag_303\n      tag_174\n      jump\t// in\n    tag_303:\n        /* \"#utility.yul\":5016:5133   */\n    tag_302:\n        /* \"#utility.yul\":5157:5220   */\n      tag_304\n        /* \"#utility.yul\":5212:5219   */\n      dup11\n        /* \"#utility.yul\":5203:5209   */\n      dup3\n        /* \"#utility.yul\":5192:5201   */\n      dup12\n        /* \"#utility.yul\":5188:5210   */\n      add\n        /* \"#utility.yul\":5157:5220   */\n      tag_184\n      jump\t// in\n    tag_304:\n        /* \"#utility.yul\":5147:5220   */\n      swap3\n      pop\n        /* \"#utility.yul\":4941:5230   */\n      pop\n        /* \"#utility.yul\":5269:5272   */\n      0xc0\n        /* \"#utility.yul\":5296:5346   */\n      tag_305\n        /* \"#utility.yul\":5338:5345   */\n      dup11\n        /* \"#utility.yul\":5329:5335   */\n      dup3\n        /* \"#utility.yul\":5318:5327   */\n      dup12\n        /* \"#utility.yul\":5314:5336   */\n      add\n        /* \"#utility.yul\":5296:5346   */\n      tag_190\n      jump\t// in\n    tag_305:\n        /* \"#utility.yul\":5286:5346   */\n      swap2\n      pop\n        /* \"#utility.yul\":5240:5356   */\n      pop\n        /* \"#utility.yul\":3266:5363   */\n      swap3\n      swap6\n      swap9\n      swap2\n      swap5\n      swap8\n      pop\n      swap3\n      swap6\n      pop\n      jump\t// out\n        /* \"#utility.yul\":5369:7180   */\n    tag_17:\n        /* \"#utility.yul\":5514:5520   */\n      0x00\n        /* \"#utility.yul\":5522:5528   */\n      dup1\n        /* \"#utility.yul\":5530:5536   */\n      0x00\n        /* \"#utility.yul\":5538:5544   */\n      dup1\n        /* \"#utility.yul\":5546:5552   */\n      0x00\n        /* \"#utility.yul\":5595:5598   */\n      0xa0\n        /* \"#utility.yul\":5583:5592   */\n      dup7\n        /* \"#utility.yul\":5574:5581   */\n      dup9\n        /* \"#utility.yul\":5570:5593   */\n      sub\n        /* \"#utility.yul\":5566:5599   */\n      slt\n        /* \"#utility.yul\":5563:5683   */\n      iszero\n      tag_307\n      jumpi\n        /* \"#utility.yul\":5602:5681   */\n      tag_308\n      tag_173\n      jump\t// in\n    tag_308:\n        /* \"#utility.yul\":5563:5683   */\n    tag_307:\n        /* \"#utility.yul\":5750:5751   */\n      0x00\n        /* \"#utility.yul\":5739:5748   */\n      dup7\n        /* \"#utility.yul\":5735:5752   */\n      add\n        /* \"#utility.yul\":5722:5753   */\n      calldataload\n        /* \"#utility.yul\":5780:5798   */\n      0xffffffffffffffff\n        /* \"#utility.yul\":5772:5778   */\n      dup2\n        /* \"#utility.yul\":5769:5799   */\n      gt\n        /* \"#utility.yul\":5766:5883   */\n      iszero\n      tag_309\n      jumpi\n        /* \"#utility.yul\":5802:5881   */\n      tag_310\n      tag_174\n      jump\t// in\n    tag_310:\n        /* \"#utility.yul\":5766:5883   */\n    tag_309:\n        /* \"#utility.yul\":5907:5970   */\n      tag_311\n        /* \"#utility.yul\":5962:5969   */\n      dup9\n        /* \"#utility.yul\":5953:5959   */\n      dup3\n        /* \"#utility.yul\":5942:5951   */\n      dup10\n        /* \"#utility.yul\":5938:5960   */\n      add\n        /* \"#utility.yul\":5907:5970   */\n      tag_184\n      jump\t// in\n    tag_311:\n        /* \"#utility.yul\":5897:5970   */\n      swap6\n      pop\n        /* \"#utility.yul\":5693:5980   */\n      pop\n        /* \"#utility.yul\":6047:6049   */\n      0x20\n        /* \"#utility.yul\":6036:6045   */\n      dup7\n        /* \"#utility.yul\":6032:6050   */\n      add\n        /* \"#utility.yul\":6019:6051   */\n      calldataload\n        /* \"#utility.yul\":6078:6096   */\n      0xffffffffffffffff\n        /* \"#utility.yul\":6070:6076   */\n      dup2\n        /* \"#utility.yul\":6067:6097   */\n      gt\n        /* \"#utility.yul\":6064:6181   */\n      iszero\n      tag_312\n      jumpi\n        /* \"#utility.yul\":6100:6179   */\n      tag_313\n      tag_174\n      jump\t// in\n    tag_313:\n        /* \"#utility.yul\":6064:6181   */\n    tag_312:\n        /* \"#utility.yul\":6205:6268   */\n      tag_314\n        /* \"#utility.yul\":6260:6267   */\n      dup9\n        /* \"#utility.yul\":6251:6257   */\n      dup3\n        /* \"#utility.yul\":6240:6249   */\n      dup10\n        /* \"#utility.yul\":6236:6258   */\n      add\n        /* \"#utility.yul\":6205:6268   */\n      tag_184\n      jump\t// in\n    tag_314:\n        /* \"#utility.yul\":6195:6268   */\n      swap5\n      pop\n        /* \"#utility.yul\":5990:6278   */\n      pop\n        /* \"#utility.yul\":6345:6347   */\n      0x40\n        /* \"#utility.yul\":6334:6343   */\n      dup7\n        /* \"#utility.yul\":6330:6348   */\n      add\n        /* \"#utility.yul\":6317:6349   */\n      calldataload\n        /* \"#utility.yul\":6376:6394   */\n      0xffffffffffffffff\n        /* \"#utility.yul\":6368:6374   */\n      dup2\n        /* \"#utility.yul\":6365:6395   */\n      gt\n        /* \"#utility.yul\":6362:6479   */\n      iszero\n      tag_315\n      jumpi\n        /* \"#utility.yul\":6398:6477   */\n      tag_316\n      tag_174\n      jump\t// in\n    tag_316:\n        /* \"#utility.yul\":6362:6479   */\n    tag_315:\n        /* \"#utility.yul\":6503:6566   */\n      tag_317\n        /* \"#utility.yul\":6558:6565   */\n      dup9\n        /* \"#utility.yul\":6549:6555   */\n      dup3\n        /* \"#utility.yul\":6538:6547   */\n      dup10\n        /* \"#utility.yul\":6534:6556   */\n      add\n        /* \"#utility.yul\":6503:6566   */\n      tag_184\n      jump\t// in\n    tag_317:\n        /* \"#utility.yul\":6493:6566   */\n      swap4\n      pop\n        /* \"#utility.yul\":6288:6576   */\n      pop\n        /* \"#utility.yul\":6643:6645   */\n      0x60\n        /* \"#utility.yul\":6632:6641   */\n      dup7\n        /* \"#utility.yul\":6628:6646   */\n      add\n        /* \"#utility.yul\":6615:6647   */\n      calldataload\n        /* \"#utility.yul\":6674:6692   */\n      0xffffffffffffffff\n        /* \"#utility.yul\":6666:6672   */\n      dup2\n        /* \"#utility.yul\":6663:6693   */\n      gt\n        /* \"#utility.yul\":6660:6777   */\n      iszero\n      tag_318\n      jumpi\n        /* \"#utility.yul\":6696:6775   */\n      tag_319\n      tag_174\n      jump\t// in\n    tag_319:\n        /* \"#utility.yul\":6660:6777   */\n    tag_318:\n        /* \"#utility.yul\":6801:6864   */\n      tag_320\n        /* \"#utility.yul\":6856:6863   */\n      dup9\n        /* \"#utility.yul\":6847:6853   */\n      dup3\n        /* \"#utility.yul\":6836:6845   */\n      dup10\n        /* \"#utility.yul\":6832:6854   */\n      add\n        /* \"#utility.yul\":6801:6864   */\n      tag_184\n      jump\t// in\n    tag_320:\n        /* \"#utility.yul\":6791:6864   */\n      swap3\n      pop\n        /* \"#utility.yul\":6586:6874   */\n      pop\n        /* \"#utility.yul\":6941:6944   */\n      0x80\n        /* \"#utility.yul\":6930:6939   */\n      dup7\n        /* \"#utility.yul\":6926:6945   */\n      add\n        /* \"#utility.yul\":6913:6946   */\n      calldataload\n        /* \"#utility.yul\":6973:6991   */\n      0xffffffffffffffff\n        /* \"#utility.yul\":6965:6971   */\n      dup2\n        /* \"#utility.yul\":6962:6992   */\n      gt\n        /* \"#utility.yul\":6959:7076   */\n      iszero\n      tag_321\n      jumpi\n        /* \"#utility.yul\":6995:7074   */\n      tag_322\n      tag_174\n      jump\t// in\n    tag_322:\n        /* \"#utility.yul\":6959:7076   */\n    tag_321:\n        /* \"#utility.yul\":7100:7163   */\n      tag_323\n        /* \"#utility.yul\":7155:7162   */\n      dup9\n        /* \"#utility.yul\":7146:7152   */\n      dup3\n        /* \"#utility.yul\":7135:7144   */\n      dup10\n        /* \"#utility.yul\":7131:7153   */\n      add\n        /* \"#utility.yul\":7100:7163   */\n      tag_184\n      jump\t// in\n    tag_323:\n        /* \"#utility.yul\":7090:7163   */\n      swap2\n      pop\n        /* \"#utility.yul\":6884:7173   */\n      pop\n        /* \"#utility.yul\":5369:7180   */\n      swap3\n      swap6\n      pop\n      swap3\n      swap6\n      swap1\n      swap4\n      pop\n      jump\t// out\n        /* \"#utility.yul\":7186:8817   */\n    tag_21:\n        /* \"#utility.yul\":7321:7327   */\n      0x00\n        /* \"#utility.yul\":7329:7335   */\n      dup1\n        /* \"#utility.yul\":7337:7343   */\n      0x00\n        /* \"#utility.yul\":7345:7351   */\n      dup1\n        /* \"#utility.yul\":7353:7359   */\n      0x00\n        /* \"#utility.yul\":7402:7405   */\n      0xa0\n        /* \"#utility.yul\":7390:7399   */\n      dup7\n        /* \"#utility.yul\":7381:7388   */\n      dup9\n        /* \"#utility.yul\":7377:7400   */\n      sub\n        /* \"#utility.yul\":7373:7406   */\n      slt\n        /* \"#utility.yul\":7370:7490   */\n      iszero\n      tag_325\n      jumpi\n        /* \"#utility.yul\":7409:7488   */\n      tag_326\n      tag_173\n      jump\t// in\n    tag_326:\n        /* \"#utility.yul\":7370:7490   */\n    tag_325:\n        /* \"#utility.yul\":7557:7558   */\n      0x00\n        /* \"#utility.yul\":7546:7555   */\n      dup7\n        /* \"#utility.yul\":7542:7559   */\n      add\n        /* \"#utility.yul\":7529:7560   */\n      calldataload\n        /* \"#utility.yul\":7587:7605   */\n      0xffffffffffffffff\n        /* \"#utility.yul\":7579:7585   */\n      dup2\n        /* \"#utility.yul\":7576:7606   */\n      gt\n        /* \"#utility.yul\":7573:7690   */\n      iszero\n      tag_327\n      jumpi\n        /* \"#utility.yul\":7609:7688   */\n      tag_328\n      tag_174\n      jump\t// in\n    tag_328:\n        /* \"#utility.yul\":7573:7690   */\n    tag_327:\n        /* \"#utility.yul\":7714:7777   */\n      tag_329\n        /* \"#utility.yul\":7769:7776   */\n      dup9\n        /* \"#utility.yul\":7760:7766   */\n      dup3\n        /* \"#utility.yul\":7749:7758   */\n      dup10\n        /* \"#utility.yul\":7745:7767   */\n      add\n        /* \"#utility.yul\":7714:7777   */\n      tag_184\n      jump\t// in\n    tag_329:\n        /* \"#utility.yul\":7704:7777   */\n      swap6\n      pop\n        /* \"#utility.yul\":7500:7787   */\n      pop\n        /* \"#utility.yul\":7854:7856   */\n      0x20\n        /* \"#utility.yul\":7843:7852   */\n      dup7\n        /* \"#utility.yul\":7839:7857   */\n      add\n        /* \"#utility.yul\":7826:7858   */\n      calldataload\n        /* \"#utility.yul\":7885:7903   */\n      0xffffffffffffffff\n        /* \"#utility.yul\":7877:7883   */\n      dup2\n        /* \"#utility.yul\":7874:7904   */\n      gt\n        /* \"#utility.yul\":7871:7988   */\n      iszero\n      tag_330\n      jumpi\n        /* \"#utility.yul\":7907:7986   */\n      tag_331\n      tag_174\n      jump\t// in\n    tag_331:\n        /* \"#utility.yul\":7871:7988   */\n    tag_330:\n        /* \"#utility.yul\":8012:8075   */\n      tag_332\n        /* \"#utility.yul\":8067:8074   */\n      dup9\n        /* \"#utility.yul\":8058:8064   */\n      dup3\n        /* \"#utility.yul\":8047:8056   */\n      dup10\n        /* \"#utility.yul\":8043:8065   */\n      add\n        /* \"#utility.yul\":8012:8075   */\n      tag_184\n      jump\t// in\n    tag_332:\n        /* \"#utility.yul\":8002:8075   */\n      swap5\n      pop\n        /* \"#utility.yul\":7797:8085   */\n      pop\n        /* \"#utility.yul\":8124:8126   */\n      0x40\n        /* \"#utility.yul\":8150:8203   */\n      tag_333\n        /* \"#utility.yul\":8195:8202   */\n      dup9\n        /* \"#utility.yul\":8186:8192   */\n      dup3\n        /* \"#utility.yul\":8175:8184   */\n      dup10\n        /* \"#utility.yul\":8171:8193   */\n      add\n        /* \"#utility.yul\":8150:8203   */\n      tag_187\n      jump\t// in\n    tag_333:\n        /* \"#utility.yul\":8140:8203   */\n      swap4\n      pop\n        /* \"#utility.yul\":8095:8213   */\n      pop\n        /* \"#utility.yul\":8280:8282   */\n      0x60\n        /* \"#utility.yul\":8269:8278   */\n      dup7\n        /* \"#utility.yul\":8265:8283   */\n      add\n        /* \"#utility.yul\":8252:8284   */\n      calldataload\n        /* \"#utility.yul\":8311:8329   */\n      0xffffffffffffffff\n        /* \"#utility.yul\":8303:8309   */\n      dup2\n        /* \"#utility.yul\":8300:8330   */\n      gt\n        /* \"#utility.yul\":8297:8414   */\n      iszero\n      tag_334\n      jumpi\n        /* \"#utility.yul\":8333:8412   */\n      tag_335\n      tag_174\n      jump\t// in\n    tag_335:\n        /* \"#utility.yul\":8297:8414   */\n    tag_334:\n        /* \"#utility.yul\":8438:8501   */\n      tag_336\n        /* \"#utility.yul\":8493:8500   */\n      dup9\n        /* \"#utility.yul\":8484:8490   */\n      dup3\n        /* \"#utility.yul\":8473:8482   */\n      dup10\n        /* \"#utility.yul\":8469:8491   */\n      add\n        /* \"#utility.yul\":8438:8501   */\n      tag_184\n      jump\t// in\n    tag_336:\n        /* \"#utility.yul\":8428:8501   */\n      swap3\n      pop\n        /* \"#utility.yul\":8223:8511   */\n      pop\n        /* \"#utility.yul\":8578:8581   */\n      0x80\n        /* \"#utility.yul\":8567:8576   */\n      dup7\n        /* \"#utility.yul\":8563:8582   */\n      add\n        /* \"#utility.yul\":8550:8583   */\n      calldataload\n        /* \"#utility.yul\":8610:8628   */\n      0xffffffffffffffff\n        /* \"#utility.yul\":8602:8608   */\n      dup2\n        /* \"#utility.yul\":8599:8629   */\n      gt\n        /* \"#utility.yul\":8596:8713   */\n      iszero\n      tag_337\n      jumpi\n        /* \"#utility.yul\":8632:8711   */\n      tag_338\n      tag_174\n      jump\t// in\n    tag_338:\n        /* \"#utility.yul\":8596:8713   */\n    tag_337:\n        /* \"#utility.yul\":8737:8800   */\n      tag_339\n        /* \"#utility.yul\":8792:8799   */\n      dup9\n        /* \"#utility.yul\":8783:8789   */\n      dup3\n        /* \"#utility.yul\":8772:8781   */\n      dup10\n        /* \"#utility.yul\":8768:8790   */\n      add\n        /* \"#utility.yul\":8737:8800   */\n      tag_184\n      jump\t// in\n    tag_339:\n        /* \"#utility.yul\":8727:8800   */\n      swap2\n      pop\n        /* \"#utility.yul\":8521:8810   */\n      pop\n        /* \"#utility.yul\":7186:8817   */\n      swap3\n      swap6\n      pop\n      swap3\n      swap6\n      swap1\n      swap4\n      pop\n      jump\t// out\n        /* \"#utility.yul\":8823:9982   */\n    tag_25:\n        /* \"#utility.yul\":8930:8936   */\n      0x00\n        /* \"#utility.yul\":8938:8944   */\n      dup1\n        /* \"#utility.yul\":8946:8952   */\n      0x00\n        /* \"#utility.yul\":8995:8997   */\n      0x60\n        /* \"#utility.yul\":8983:8992   */\n      dup5\n        /* \"#utility.yul\":8974:8981   */\n      dup7\n        /* \"#utility.yul\":8970:8993   */\n      sub\n        /* \"#utility.yul\":8966:8998   */\n      slt\n        /* \"#utility.yul\":8963:9082   */\n      iszero\n      tag_341\n      jumpi\n        /* \"#utility.yul\":9001:9080   */\n      tag_342\n      tag_173\n      jump\t// in\n    tag_342:\n        /* \"#utility.yul\":8963:9082   */\n    tag_341:\n        /* \"#utility.yul\":9149:9150   */\n      0x00\n        /* \"#utility.yul\":9138:9147   */\n      dup5\n        /* \"#utility.yul\":9134:9151   */\n      add\n        /* \"#utility.yul\":9121:9152   */\n      calldataload\n        /* \"#utility.yul\":9179:9197   */\n      0xffffffffffffffff\n        /* \"#utility.yul\":9171:9177   */\n      dup2\n        /* \"#utility.yul\":9168:9198   */\n      gt\n        /* \"#utility.yul\":9165:9282   */\n      iszero\n      tag_343\n      jumpi\n        /* \"#utility.yul\":9201:9280   */\n      tag_344\n      tag_174\n      jump\t// in\n    tag_344:\n        /* \"#utility.yul\":9165:9282   */\n    tag_343:\n        /* \"#utility.yul\":9306:9369   */\n      tag_345\n        /* \"#utility.yul\":9361:9368   */\n      dup7\n        /* \"#utility.yul\":9352:9358   */\n      dup3\n        /* \"#utility.yul\":9341:9350   */\n      dup8\n        /* \"#utility.yul\":9337:9359   */\n      add\n        /* \"#utility.yul\":9306:9369   */\n      tag_184\n      jump\t// in\n    tag_345:\n        /* \"#utility.yul\":9296:9369   */\n      swap4\n      pop\n        /* \"#utility.yul\":9092:9379   */\n      pop\n        /* \"#utility.yul\":9446:9448   */\n      0x20\n        /* \"#utility.yul\":9435:9444   */\n      dup5\n        /* \"#utility.yul\":9431:9449   */\n      add\n        /* \"#utility.yul\":9418:9450   */\n      calldataload\n        /* \"#utility.yul\":9477:9495   */\n      0xffffffffffffffff\n        /* \"#utility.yul\":9469:9475   */\n      dup2\n        /* \"#utility.yul\":9466:9496   */\n      gt\n        /* \"#utility.yul\":9463:9580   */\n      iszero\n      tag_346\n      jumpi\n        /* \"#utility.yul\":9499:9578   */\n      tag_347\n      tag_174\n      jump\t// in\n    tag_347:\n        /* \"#utility.yul\":9463:9580   */\n    tag_346:\n        /* \"#utility.yul\":9604:9667   */\n      tag_348\n        /* \"#utility.yul\":9659:9666   */\n      dup7\n        /* \"#utility.yul\":9650:9656   */\n      dup3\n        /* \"#utility.yul\":9639:9648   */\n      dup8\n        /* \"#utility.yul\":9635:9657   */\n      add\n        /* \"#utility.yul\":9604:9667   */\n      tag_184\n      jump\t// in\n    tag_348:\n        /* \"#utility.yul\":9594:9667   */\n      swap3\n      pop\n        /* \"#utility.yul\":9389:9677   */\n      pop\n        /* \"#utility.yul\":9744:9746   */\n      0x40\n        /* \"#utility.yul\":9733:9742   */\n      dup5\n        /* \"#utility.yul\":9729:9747   */\n      add\n        /* \"#utility.yul\":9716:9748   */\n      calldataload\n        /* \"#utility.yul\":9775:9793   */\n      0xffffffffffffffff\n        /* \"#utility.yul\":9767:9773   */\n      dup2\n        /* \"#utility.yul\":9764:9794   */\n      gt\n        /* \"#utility.yul\":9761:9878   */\n      iszero\n      tag_349\n      jumpi\n        /* \"#utility.yul\":9797:9876   */\n      tag_350\n      tag_174\n      jump\t// in\n    tag_350:\n        /* \"#utility.yul\":9761:9878   */\n    tag_349:\n        /* \"#utility.yul\":9902:9965   */\n      tag_351\n        /* \"#utility.yul\":9957:9964   */\n      dup7\n        /* \"#utility.yul\":9948:9954   */\n      dup3\n        /* \"#utility.yul\":9937:9946   */\n      dup8\n        /* \"#utility.yul\":9933:9955   */\n      add\n        /* \"#utility.yul\":9902:9965   */\n      tag_184\n      jump\t// in\n    tag_351:\n        /* \"#utility.yul\":9892:9965   */\n      swap2\n      pop\n        /* \"#utility.yul\":9687:9975   */\n      pop\n        /* \"#utility.yul\":8823:9982   */\n      swap3\n      pop\n      swap3\n      pop\n      swap3\n      jump\t// out\n        /* \"#utility.yul\":9988:10497   */\n    tag_29:\n        /* \"#utility.yul\":10057:10063   */\n      0x00\n        /* \"#utility.yul\":10106:10108   */\n      0x20\n        /* \"#utility.yul\":10094:10103   */\n      dup3\n        /* \"#utility.yul\":10085:10092   */\n      dup5\n        /* \"#utility.yul\":10081:10104   */\n      sub\n        /* \"#utility.yul\":10077:10109   */\n      slt\n        /* \"#utility.yul\":10074:10193   */\n      iszero\n      tag_353\n      jumpi\n        /* \"#utility.yul\":10112:10191   */\n      tag_354\n      tag_173\n      jump\t// in\n    tag_354:\n        /* \"#utility.yul\":10074:10193   */\n    tag_353:\n        /* \"#utility.yul\":10260:10261   */\n      0x00\n        /* \"#utility.yul\":10249:10258   */\n      dup3\n        /* \"#utility.yul\":10245:10262   */\n      add\n        /* \"#utility.yul\":10232:10263   */\n      calldataload\n        /* \"#utility.yul\":10290:10308   */\n      0xffffffffffffffff\n        /* \"#utility.yul\":10282:10288   */\n      dup2\n        /* \"#utility.yul\":10279:10309   */\n      gt\n        /* \"#utility.yul\":10276:10393   */\n      iszero\n      tag_355\n      jumpi\n        /* \"#utility.yul\":10312:10391   */\n      tag_356\n      tag_174\n      jump\t// in\n    tag_356:\n        /* \"#utility.yul\":10276:10393   */\n    tag_355:\n        /* \"#utility.yul\":10417:10480   */\n      tag_357\n        /* \"#utility.yul\":10472:10479   */\n      dup5\n        /* \"#utility.yul\":10463:10469   */\n      dup3\n        /* \"#utility.yul\":10452:10461   */\n      dup6\n        /* \"#utility.yul\":10448:10470   */\n      add\n        /* \"#utility.yul\":10417:10480   */\n      tag_184\n      jump\t// in\n    tag_357:\n        /* \"#utility.yul\":10407:10480   */\n      swap2\n      pop\n        /* \"#utility.yul\":10203:10490   */\n      pop\n        /* \"#utility.yul\":9988:10497   */\n      swap3\n      swap2\n      pop\n      pop\n      jump\t// out\n        /* \"#utility.yul\":10503:10602   */\n    tag_191:\n        /* \"#utility.yul\":10555:10561   */\n      0x00\n        /* \"#utility.yul\":10589:10594   */\n      dup2\n        /* \"#utility.yul\":10583:10595   */\n      mload\n        /* \"#utility.yul\":10573:10595   */\n      swap1\n      pop\n        /* \"#utility.yul\":10503:10602   */\n      swap2\n      swap1\n      pop\n      jump\t// out\n        /* \"#utility.yul\":10608:10777   */\n    tag_192:\n        /* \"#utility.yul\":10692:10703   */\n      0x00\n        /* \"#utility.yul\":10726:10732   */\n      dup3\n        /* \"#utility.yul\":10721:10724   */\n      dup3\n        /* \"#utility.yul\":10714:10733   */\n      mstore\n        /* \"#utility.yul\":10766:10770   */\n      0x20\n        /* \"#utility.yul\":10761:10764   */\n      dup3\n        /* \"#utility.yul\":10757:10771   */\n      add\n        /* \"#utility.yul\":10742:10771   */\n      swap1\n      pop\n        /* \"#utility.yul\":10608:10777   */\n      swap3\n      swap2\n      pop\n      pop\n      jump\t// out\n        /* \"#utility.yul\":10783:11029   */\n    tag_193:\n        /* \"#utility.yul\":10864:10865   */\n      0x00\n        /* \"#utility.yul\":10874:10987   */\n    tag_361:\n        /* \"#utility.yul\":10888:10894   */\n      dup4\n        /* \"#utility.yul\":10885:10886   */\n      dup2\n        /* \"#utility.yul\":10882:10895   */\n      lt\n        /* \"#utility.yul\":10874:10987   */\n      iszero\n      tag_363\n      jumpi\n        /* \"#utility.yul\":10973:10974   */\n      dup1\n        /* \"#utility.yul\":10968:10971   */\n      dup3\n        /* \"#utility.yul\":10964:10975   */\n      add\n        /* \"#utility.yul\":10958:10976   */\n      mload\n        /* \"#utility.yul\":10954:10955   */\n      dup2\n        /* \"#utility.yul\":10949:10952   */\n      dup5\n        /* \"#utility.yul\":10945:10956   */\n      add\n        /* \"#utility.yul\":10938:10977   */\n      mstore\n        /* \"#utility.yul\":10910:10912   */\n      0x20\n        /* \"#utility.yul\":10907:10908   */\n      dup2\n        /* \"#utility.yul\":10903:10913   */\n      add\n        /* \"#utility.yul\":10898:10913   */\n      swap1\n      pop\n        /* \"#utility.yul\":10874:10987   */\n      jump(tag_361)\n    tag_363:\n        /* \"#utility.yul\":11021:11022   */\n      0x00\n        /* \"#utility.yul\":11012:11018   */\n      dup5\n        /* \"#utility.yul\":11007:11010   */\n      dup5\n        /* \"#utility.yul\":11003:11019   */\n      add\n        /* \"#utility.yul\":10996:11023   */\n      mstore\n        /* \"#utility.yul\":10845:11029   */\n      pop\n        /* \"#utility.yul\":10783:11029   */\n      pop\n      pop\n      pop\n      jump\t// out\n        /* \"#utility.yul\":11035:11412   */\n    tag_194:\n        /* \"#utility.yul\":11123:11126   */\n      0x00\n        /* \"#utility.yul\":11151:11190   */\n      tag_365\n        /* \"#utility.yul\":11184:11189   */\n      dup3\n        /* \"#utility.yul\":11151:11190   */\n      tag_191\n      jump\t// in\n    tag_365:\n        /* \"#utility.yul\":11206:11277   */\n      tag_366\n        /* \"#utility.yul\":11270:11276   */\n      dup2\n        /* \"#utility.yul\":11265:11268   */\n      dup6\n        /* \"#utility.yul\":11206:11277   */\n      tag_192\n      jump\t// in\n    tag_366:\n        /* \"#utility.yul\":11199:11277   */\n      swap4\n      pop\n        /* \"#utility.yul\":11286:11351   */\n      tag_367\n        /* \"#utility.yul\":11344:11350   */\n      dup2\n        /* \"#utility.yul\":11339:11342   */\n      dup6\n        /* \"#utility.yul\":11332:11336   */\n      0x20\n        /* \"#utility.yul\":11325:11330   */\n      dup7\n        /* \"#utility.yul\":11321:11337   */\n      add\n        /* \"#utility.yul\":11286:11351   */\n      tag_193\n      jump\t// in\n    tag_367:\n        /* \"#utility.yul\":11376:11405   */\n      tag_368\n        /* \"#utility.yul\":11398:11404   */\n      dup2\n        /* \"#utility.yul\":11376:11405   */\n      tag_177\n      jump\t// in\n    tag_368:\n        /* \"#utility.yul\":11371:11374   */\n      dup5\n        /* \"#utility.yul\":11367:11406   */\n      add\n        /* \"#utility.yul\":11360:11406   */\n      swap2\n      pop\n        /* \"#utility.yul\":11127:11412   */\n      pop\n        /* \"#utility.yul\":11035:11412   */\n      swap3\n      swap2\n      pop\n      pop\n      jump\t// out\n        /* \"#utility.yul\":11418:11536   */\n    tag_195:\n        /* \"#utility.yul\":11505:11529   */\n      tag_370\n        /* \"#utility.yul\":11523:11528   */\n      dup2\n        /* \"#utility.yul\":11505:11529   */\n      tag_185\n      jump\t// in\n    tag_370:\n        /* \"#utility.yul\":11500:11503   */\n      dup3\n        /* \"#utility.yul\":11493:11530   */\n      mstore\n        /* \"#utility.yul\":11418:11536   */\n      pop\n      pop\n      jump\t// out\n        /* \"#utility.yul\":11542:11656   */\n    tag_196:\n        /* \"#utility.yul\":11609:11615   */\n      0x00\n        /* \"#utility.yul\":11643:11648   */\n      dup2\n        /* \"#utility.yul\":11637:11649   */\n      mload\n        /* \"#utility.yul\":11627:11649   */\n      swap1\n      pop\n        /* \"#utility.yul\":11542:11656   */\n      swap2\n      swap1\n      pop\n      jump\t// out\n        /* \"#utility.yul\":11662:11846   */\n    tag_197:\n        /* \"#utility.yul\":11761:11772   */\n      0x00\n        /* \"#utility.yul\":11795:11801   */\n      dup3\n        /* \"#utility.yul\":11790:11793   */\n      dup3\n        /* \"#utility.yul\":11783:11802   */\n      mstore\n        /* \"#utility.yul\":11835:11839   */\n      0x20\n        /* \"#utility.yul\":11830:11833   */\n      dup3\n        /* \"#utility.yul\":11826:11840   */\n      add\n        /* \"#utility.yul\":11811:11840   */\n      swap1\n      pop\n        /* \"#utility.yul\":11662:11846   */\n      swap3\n      swap2\n      pop\n      pop\n      jump\t// out\n        /* \"#utility.yul\":11852:11984   */\n    tag_198:\n        /* \"#utility.yul\":11919:11923   */\n      0x00\n        /* \"#utility.yul\":11942:11945   */\n      dup2\n        /* \"#utility.yul\":11934:11945   */\n      swap1\n      pop\n        /* \"#utility.yul\":11972:11976   */\n      0x20\n        /* \"#utility.yul\":11967:11970   */\n      dup3\n        /* \"#utility.yul\":11963:11977   */\n      add\n        /* \"#utility.yul\":11955:11977   */\n      swap1\n      pop\n        /* \"#utility.yul\":11852:11984   */\n      swap2\n      swap1\n      pop\n      jump\t// out\n        /* \"#utility.yul\":11990:12098   */\n    tag_199:\n        /* \"#utility.yul\":12067:12091   */\n      tag_375\n        /* \"#utility.yul\":12085:12090   */\n      dup2\n        /* \"#utility.yul\":12067:12091   */\n      tag_185\n      jump\t// in\n    tag_375:\n        /* \"#utility.yul\":12062:12065   */\n      dup3\n        /* \"#utility.yul\":12055:12092   */\n      mstore\n        /* \"#utility.yul\":11990:12098   */\n      pop\n      pop\n      jump\t// out\n        /* \"#utility.yul\":12104:12283   */\n    tag_200:\n        /* \"#utility.yul\":12173:12183   */\n      0x00\n        /* \"#utility.yul\":12194:12240   */\n      tag_377\n        /* \"#utility.yul\":12236:12239   */\n      dup4\n        /* \"#utility.yul\":12228:12234   */\n      dup4\n        /* \"#utility.yul\":12194:12240   */\n      tag_199\n      jump\t// in\n    tag_377:\n        /* \"#utility.yul\":12272:12276   */\n      0x20\n        /* \"#utility.yul\":12267:12270   */\n      dup4\n        /* \"#utility.yul\":12263:12277   */\n      add\n        /* \"#utility.yul\":12249:12277   */\n      swap1\n      pop\n        /* \"#utility.yul\":12104:12283   */\n      swap3\n      swap2\n      pop\n      pop\n      jump\t// out\n        /* \"#utility.yul\":12289:12402   */\n    tag_201:\n        /* \"#utility.yul\":12359:12363   */\n      0x00\n        /* \"#utility.yul\":12391:12395   */\n      0x20\n        /* \"#utility.yul\":12386:12389   */\n      dup3\n        /* \"#utility.yul\":12382:12396   */\n      add\n        /* \"#utility.yul\":12374:12396   */\n      swap1\n      pop\n        /* \"#utility.yul\":12289:12402   */\n      swap2\n      swap1\n      pop\n      jump\t// out\n        /* \"#utility.yul\":12438:13170   */\n    tag_202:\n        /* \"#utility.yul\":12557:12560   */\n      0x00\n        /* \"#utility.yul\":12586:12640   */\n      tag_380\n        /* \"#utility.yul\":12634:12639   */\n      dup3\n        /* \"#utility.yul\":12586:12640   */\n      tag_196\n      jump\t// in\n    tag_380:\n        /* \"#utility.yul\":12656:12742   */\n      tag_381\n        /* \"#utility.yul\":12735:12741   */\n      dup2\n        /* \"#utility.yul\":12730:12733   */\n      dup6\n        /* \"#utility.yul\":12656:12742   */\n      tag_197\n      jump\t// in\n    tag_381:\n        /* \"#utility.yul\":12649:12742   */\n      swap4\n      pop\n        /* \"#utility.yul\":12766:12822   */\n      tag_382\n        /* \"#utility.yul\":12816:12821   */\n      dup4\n        /* \"#utility.yul\":12766:12822   */\n      tag_198\n      jump\t// in\n    tag_382:\n        /* \"#utility.yul\":12845:12852   */\n      dup1\n        /* \"#utility.yul\":12876:12877   */\n      0x00\n        /* \"#utility.yul\":12861:13145   */\n    tag_383:\n        /* \"#utility.yul\":12886:12892   */\n      dup4\n        /* \"#utility.yul\":12883:12884   */\n      dup2\n        /* \"#utility.yul\":12880:12893   */\n      lt\n        /* \"#utility.yul\":12861:13145   */\n      iszero\n      tag_385\n      jumpi\n        /* \"#utility.yul\":12962:12968   */\n      dup2\n        /* \"#utility.yul\":12956:12969   */\n      mload\n        /* \"#utility.yul\":12989:13052   */\n      tag_386\n        /* \"#utility.yul\":13048:13051   */\n      dup9\n        /* \"#utility.yul\":13033:13046   */\n      dup3\n        /* \"#utility.yul\":12989:13052   */\n      tag_200\n      jump\t// in\n    tag_386:\n        /* \"#utility.yul\":12982:13052   */\n      swap8\n      pop\n        /* \"#utility.yul\":13075:13135   */\n      tag_387\n        /* \"#utility.yul\":13128:13134   */\n      dup4\n        /* \"#utility.yul\":13075:13135   */\n      tag_201\n      jump\t// in\n    tag_387:\n        /* \"#utility.yul\":13065:13135   */\n      swap3\n      pop\n        /* \"#utility.yul\":12921:13145   */\n      pop\n        /* \"#utility.yul\":12908:12909   */\n      0x01\n        /* \"#utility.yul\":12905:12906   */\n      dup2\n        /* \"#utility.yul\":12901:12910   */\n      add\n        /* \"#utility.yul\":12896:12910   */\n      swap1\n      pop\n        /* \"#utility.yul\":12861:13145   */\n      jump(tag_383)\n    tag_385:\n        /* \"#utility.yul\":12865:12879   */\n      pop\n        /* \"#utility.yul\":13161:13164   */\n      dup6\n        /* \"#utility.yul\":13154:13164   */\n      swap4\n      pop\n        /* \"#utility.yul\":12562:13170   */\n      pop\n      pop\n      pop\n        /* \"#utility.yul\":12438:13170   */\n      swap3\n      swap2\n      pop\n      pop\n      jump\t// out\n        /* \"#utility.yul\":13176:13318   */\n    tag_203:\n        /* \"#utility.yul\":13271:13277   */\n      0x00\n        /* \"#utility.yul\":13305:13310   */\n      dup2\n        /* \"#utility.yul\":13299:13311   */\n      mload\n        /* \"#utility.yul\":13289:13311   */\n      swap1\n      pop\n        /* \"#utility.yul\":13176:13318   */\n      swap2\n      swap1\n      pop\n      jump\t// out\n        /* \"#utility.yul\":13324:13536   */\n    tag_204:\n        /* \"#utility.yul\":13451:13462   */\n      0x00\n        /* \"#utility.yul\":13485:13491   */\n      dup3\n        /* \"#utility.yul\":13480:13483   */\n      dup3\n        /* \"#utility.yul\":13473:13492   */\n      mstore\n        /* \"#utility.yul\":13525:13529   */\n      0x20\n        /* \"#utility.yul\":13520:13523   */\n      dup3\n        /* \"#utility.yul\":13516:13530   */\n      add\n        /* \"#utility.yul\":13501:13530   */\n      swap1\n      pop\n        /* \"#utility.yul\":13324:13536   */\n      swap3\n      swap2\n      pop\n      pop\n      jump\t// out\n        /* \"#utility.yul\":13542:13702   */\n    tag_205:\n        /* \"#utility.yul\":13637:13641   */\n      0x00\n        /* \"#utility.yul\":13660:13663   */\n      dup2\n        /* \"#utility.yul\":13652:13663   */\n      swap1\n      pop\n        /* \"#utility.yul\":13690:13694   */\n      0x20\n        /* \"#utility.yul\":13685:13688   */\n      dup3\n        /* \"#utility.yul\":13681:13695   */\n      add\n        /* \"#utility.yul\":13673:13695   */\n      swap1\n      pop\n        /* \"#utility.yul\":13542:13702   */\n      swap2\n      swap1\n      pop\n      jump\t// out\n        /* \"#utility.yul\":13708:13867   */\n    tag_206:\n        /* \"#utility.yul\":13782:13793   */\n      0x00\n        /* \"#utility.yul\":13816:13822   */\n      dup3\n        /* \"#utility.yul\":13811:13814   */\n      dup3\n        /* \"#utility.yul\":13804:13823   */\n      mstore\n        /* \"#utility.yul\":13856:13860   */\n      0x20\n        /* \"#utility.yul\":13851:13854   */\n      dup3\n        /* \"#utility.yul\":13847:13861   */\n      add\n        /* \"#utility.yul\":13832:13861   */\n      swap1\n      pop\n        /* \"#utility.yul\":13708:13867   */\n      swap3\n      swap2\n      pop\n      pop\n      jump\t// out\n        /* \"#utility.yul\":13873:14230   */\n    tag_207:\n        /* \"#utility.yul\":13951:13954   */\n      0x00\n        /* \"#utility.yul\":13979:14018   */\n      tag_393\n        /* \"#utility.yul\":14012:14017   */\n      dup3\n        /* \"#utility.yul\":13979:14018   */\n      tag_191\n      jump\t// in\n    tag_393:\n        /* \"#utility.yul\":14034:14095   */\n      tag_394\n        /* \"#utility.yul\":14088:14094   */\n      dup2\n        /* \"#utility.yul\":14083:14086   */\n      dup6\n        /* \"#utility.yul\":14034:14095   */\n      tag_206\n      jump\t// in\n    tag_394:\n        /* \"#utility.yul\":14027:14095   */\n      swap4\n      pop\n        /* \"#utility.yul\":14104:14169   */\n      tag_395\n        /* \"#utility.yul\":14162:14168   */\n      dup2\n        /* \"#utility.yul\":14157:14160   */\n      dup6\n        /* \"#utility.yul\":14150:14154   */\n      0x20\n        /* \"#utility.yul\":14143:14148   */\n      dup7\n        /* \"#utility.yul\":14139:14155   */\n      add\n        /* \"#utility.yul\":14104:14169   */\n      tag_193\n      jump\t// in\n    tag_395:\n        /* \"#utility.yul\":14194:14223   */\n      tag_396\n        /* \"#utility.yul\":14216:14222   */\n      dup2\n        /* \"#utility.yul\":14194:14223   */\n      tag_177\n      jump\t// in\n    tag_396:\n        /* \"#utility.yul\":14189:14192   */\n      dup5\n        /* \"#utility.yul\":14185:14224   */\n      add\n        /* \"#utility.yul\":14178:14224   */\n      swap2\n      pop\n        /* \"#utility.yul\":13955:14230   */\n      pop\n        /* \"#utility.yul\":13873:14230   */\n      swap3\n      swap2\n      pop\n      pop\n      jump\t// out\n        /* \"#utility.yul\":14236:14335   */\n    tag_208:\n        /* \"#utility.yul\":14307:14328   */\n      tag_398\n        /* \"#utility.yul\":14322:14327   */\n      dup2\n        /* \"#utility.yul\":14307:14328   */\n      tag_188\n      jump\t// in\n    tag_398:\n        /* \"#utility.yul\":14302:14305   */\n      dup3\n        /* \"#utility.yul\":14295:14329   */\n      mstore\n        /* \"#utility.yul\":14236:14335   */\n      pop\n      pop\n      jump\t// out\n        /* \"#utility.yul\":14421:15948   */\n    tag_209:\n        /* \"#utility.yul\":14536:14539   */\n      0x00\n        /* \"#utility.yul\":14572:14576   */\n      0xc0\n        /* \"#utility.yul\":14567:14570   */\n      dup4\n        /* \"#utility.yul\":14563:14577   */\n      add\n        /* \"#utility.yul\":14659:14663   */\n      0x00\n        /* \"#utility.yul\":14652:14657   */\n      dup4\n        /* \"#utility.yul\":14648:14664   */\n      add\n        /* \"#utility.yul\":14642:14665   */\n      mload\n        /* \"#utility.yul\":14712:14715   */\n      dup5\n        /* \"#utility.yul\":14706:14710   */\n      dup3\n        /* \"#utility.yul\":14702:14716   */\n      sub\n        /* \"#utility.yul\":14695:14699   */\n      0x00\n        /* \"#utility.yul\":14690:14693   */\n      dup7\n        /* \"#utility.yul\":14686:14700   */\n      add\n        /* \"#utility.yul\":14679:14717   */\n      mstore\n        /* \"#utility.yul\":14738:14811   */\n      tag_400\n        /* \"#utility.yul\":14806:14810   */\n      dup3\n        /* \"#utility.yul\":14792:14804   */\n      dup3\n        /* \"#utility.yul\":14738:14811   */\n      tag_207\n      jump\t// in\n    tag_400:\n        /* \"#utility.yul\":14730:14811   */\n      swap2\n      pop\n        /* \"#utility.yul\":14587:14822   */\n      pop\n        /* \"#utility.yul\":14910:14914   */\n      0x20\n        /* \"#utility.yul\":14903:14908   */\n      dup4\n        /* \"#utility.yul\":14899:14915   */\n      add\n        /* \"#utility.yul\":14893:14916   */\n      mload\n        /* \"#utility.yul\":14963:14966   */\n      dup5\n        /* \"#utility.yul\":14957:14961   */\n      dup3\n        /* \"#utility.yul\":14953:14967   */\n      sub\n        /* \"#utility.yul\":14946:14950   */\n      0x20\n        /* \"#utility.yul\":14941:14944   */\n      dup7\n        /* \"#utility.yul\":14937:14951   */\n      add\n        /* \"#utility.yul\":14930:14968   */\n      mstore\n        /* \"#utility.yul\":14989:15062   */\n      tag_401\n        /* \"#utility.yul\":15057:15061   */\n      dup3\n        /* \"#utility.yul\":15043:15055   */\n      dup3\n        /* \"#utility.yul\":14989:15062   */\n      tag_207\n      jump\t// in\n    tag_401:\n        /* \"#utility.yul\":14981:15062   */\n      swap2\n      pop\n        /* \"#utility.yul\":14832:15073   */\n      pop\n        /* \"#utility.yul\":15159:15163   */\n      0x40\n        /* \"#utility.yul\":15152:15157   */\n      dup4\n        /* \"#utility.yul\":15148:15164   */\n      add\n        /* \"#utility.yul\":15142:15165   */\n      mload\n        /* \"#utility.yul\":15178:15241   */\n      tag_402\n        /* \"#utility.yul\":15235:15239   */\n      0x40\n        /* \"#utility.yul\":15230:15233   */\n      dup7\n        /* \"#utility.yul\":15226:15240   */\n      add\n        /* \"#utility.yul\":15212:15224   */\n      dup3\n        /* \"#utility.yul\":15178:15241   */\n      tag_199\n      jump\t// in\n    tag_402:\n        /* \"#utility.yul\":15083:15251   */\n      pop\n        /* \"#utility.yul\":15333:15337   */\n      0x60\n        /* \"#utility.yul\":15326:15331   */\n      dup4\n        /* \"#utility.yul\":15322:15338   */\n      add\n        /* \"#utility.yul\":15316:15339   */\n      mload\n        /* \"#utility.yul\":15386:15389   */\n      dup5\n        /* \"#utility.yul\":15380:15384   */\n      dup3\n        /* \"#utility.yul\":15376:15390   */\n      sub\n        /* \"#utility.yul\":15369:15373   */\n      0x60\n        /* \"#utility.yul\":15364:15367   */\n      dup7\n        /* \"#utility.yul\":15360:15374   */\n      add\n        /* \"#utility.yul\":15353:15391   */\n      mstore\n        /* \"#utility.yul\":15412:15485   */\n      tag_403\n        /* \"#utility.yul\":15480:15484   */\n      dup3\n        /* \"#utility.yul\":15466:15478   */\n      dup3\n        /* \"#utility.yul\":15412:15485   */\n      tag_207\n      jump\t// in\n    tag_403:\n        /* \"#utility.yul\":15404:15485   */\n      swap2\n      pop\n        /* \"#utility.yul\":15261:15496   */\n      pop\n        /* \"#utility.yul\":15585:15589   */\n      0x80\n        /* \"#utility.yul\":15578:15583   */\n      dup4\n        /* \"#utility.yul\":15574:15590   */\n      add\n        /* \"#utility.yul\":15568:15591   */\n      mload\n        /* \"#utility.yul\":15638:15641   */\n      dup5\n        /* \"#utility.yul\":15632:15636   */\n      dup3\n        /* \"#utility.yul\":15628:15642   */\n      sub\n        /* \"#utility.yul\":15621:15625   */\n      0x80\n        /* \"#utility.yul\":15616:15619   */\n      dup7\n        /* \"#utility.yul\":15612:15626   */\n      add\n        /* \"#utility.yul\":15605:15643   */\n      mstore\n        /* \"#utility.yul\":15664:15737   */\n      tag_404\n        /* \"#utility.yul\":15732:15736   */\n      dup3\n        /* \"#utility.yul\":15718:15730   */\n      dup3\n        /* \"#utility.yul\":15664:15737   */\n      tag_207\n      jump\t// in\n    tag_404:\n        /* \"#utility.yul\":15656:15737   */\n      swap2\n      pop\n        /* \"#utility.yul\":15506:15748   */\n      pop\n        /* \"#utility.yul\":15835:15839   */\n      0xa0\n        /* \"#utility.yul\":15828:15833   */\n      dup4\n        /* \"#utility.yul\":15824:15840   */\n      add\n        /* \"#utility.yul\":15818:15841   */\n      mload\n        /* \"#utility.yul\":15854:15911   */\n      tag_405\n        /* \"#utility.yul\":15905:15909   */\n      0xa0\n        /* \"#utility.yul\":15900:15903   */\n      dup7\n        /* \"#utility.yul\":15896:15910   */\n      add\n        /* \"#utility.yul\":15882:15894   */\n      dup3\n        /* \"#utility.yul\":15854:15911   */\n      tag_208\n      jump\t// in\n    tag_405:\n        /* \"#utility.yul\":15758:15921   */\n      pop\n        /* \"#utility.yul\":15938:15942   */\n      dup1\n        /* \"#utility.yul\":15931:15942   */\n      swap2\n      pop\n        /* \"#utility.yul\":14541:15948   */\n      pop\n        /* \"#utility.yul\":14421:15948   */\n      swap3\n      swap2\n      pop\n      pop\n      jump\t// out\n        /* \"#utility.yul\":15954:16222   */\n    tag_210:\n        /* \"#utility.yul\":16079:16089   */\n      0x00\n        /* \"#utility.yul\":16114:16216   */\n      tag_407\n        /* \"#utility.yul\":16212:16215   */\n      dup4\n        /* \"#utility.yul\":16204:16210   */\n      dup4\n        /* \"#utility.yul\":16114:16216   */\n      tag_209\n      jump\t// in\n    tag_407:\n        /* \"#utility.yul\":16100:16216   */\n      swap1\n      pop\n        /* \"#utility.yul\":15954:16222   */\n      swap3\n      swap2\n      pop\n      pop\n      jump\t// out\n        /* \"#utility.yul\":16228:16369   */\n    tag_211:\n        /* \"#utility.yul\":16326:16330   */\n      0x00\n        /* \"#utility.yul\":16358:16362   */\n      0x20\n        /* \"#utility.yul\":16353:16356   */\n      dup3\n        /* \"#utility.yul\":16349:16363   */\n      add\n        /* \"#utility.yul\":16341:16363   */\n      swap1\n      pop\n        /* \"#utility.yul\":16228:16369   */\n      swap2\n      swap1\n      pop\n      jump\t// out\n        /* \"#utility.yul\":16459:17594   */\n    tag_212:\n        /* \"#utility.yul\":16634:16637   */\n      0x00\n        /* \"#utility.yul\":16663:16745   */\n      tag_410\n        /* \"#utility.yul\":16739:16744   */\n      dup3\n        /* \"#utility.yul\":16663:16745   */\n      tag_203\n      jump\t// in\n    tag_410:\n        /* \"#utility.yul\":16761:16875   */\n      tag_411\n        /* \"#utility.yul\":16868:16874   */\n      dup2\n        /* \"#utility.yul\":16863:16866   */\n      dup6\n        /* \"#utility.yul\":16761:16875   */\n      tag_204\n      jump\t// in\n    tag_411:\n        /* \"#utility.yul\":16754:16875   */\n      swap4\n      pop\n        /* \"#utility.yul\":16901:16904   */\n      dup4\n        /* \"#utility.yul\":16946:16950   */\n      0x20\n        /* \"#utility.yul\":16938:16944   */\n      dup3\n        /* \"#utility.yul\":16934:16951   */\n      mul\n        /* \"#utility.yul\":16929:16932   */\n      dup6\n        /* \"#utility.yul\":16925:16952   */\n      add\n        /* \"#utility.yul\":16976:17060   */\n      tag_412\n        /* \"#utility.yul\":17054:17059   */\n      dup6\n        /* \"#utility.yul\":16976:17060   */\n      tag_205\n      jump\t// in\n    tag_412:\n        /* \"#utility.yul\":17083:17090   */\n      dup1\n        /* \"#utility.yul\":17114:17115   */\n      0x00\n        /* \"#utility.yul\":17099:17549   */\n    tag_413:\n        /* \"#utility.yul\":17124:17130   */\n      dup6\n        /* \"#utility.yul\":17121:17122   */\n      dup2\n        /* \"#utility.yul\":17118:17131   */\n      lt\n        /* \"#utility.yul\":17099:17549   */\n      iszero\n      tag_415\n      jumpi\n        /* \"#utility.yul\":17195:17204   */\n      dup5\n        /* \"#utility.yul\":17189:17193   */\n      dup5\n        /* \"#utility.yul\":17185:17205   */\n      sub\n        /* \"#utility.yul\":17180:17183   */\n      dup10\n        /* \"#utility.yul\":17173:17206   */\n      mstore\n        /* \"#utility.yul\":17246:17252   */\n      dup2\n        /* \"#utility.yul\":17240:17253   */\n      mload\n        /* \"#utility.yul\":17274:17394   */\n      tag_416\n        /* \"#utility.yul\":17389:17393   */\n      dup6\n        /* \"#utility.yul\":17374:17387   */\n      dup3\n        /* \"#utility.yul\":17274:17394   */\n      tag_210\n      jump\t// in\n    tag_416:\n        /* \"#utility.yul\":17266:17394   */\n      swap5\n      pop\n        /* \"#utility.yul\":17417:17505   */\n      tag_417\n        /* \"#utility.yul\":17498:17504   */\n      dup4\n        /* \"#utility.yul\":17417:17505   */\n      tag_211\n      jump\t// in\n    tag_417:\n        /* \"#utility.yul\":17407:17505   */\n      swap3\n      pop\n        /* \"#utility.yul\":17534:17538   */\n      0x20\n        /* \"#utility.yul\":17529:17532   */\n      dup11\n        /* \"#utility.yul\":17525:17539   */\n      add\n        /* \"#utility.yul\":17518:17539   */\n      swap10\n      pop\n        /* \"#utility.yul\":17159:17549   */\n      pop\n        /* \"#utility.yul\":17146:17147   */\n      0x01\n        /* \"#utility.yul\":17143:17144   */\n      dup2\n        /* \"#utility.yul\":17139:17148   */\n      add\n        /* \"#utility.yul\":17134:17148   */\n      swap1\n      pop\n        /* \"#utility.yul\":17099:17549   */\n      jump(tag_413)\n    tag_415:\n        /* \"#utility.yul\":17103:17117   */\n      pop\n        /* \"#utility.yul\":17565:17569   */\n      dup3\n        /* \"#utility.yul\":17558:17569   */\n      swap8\n      pop\n        /* \"#utility.yul\":17585:17588   */\n      dup8\n        /* \"#utility.yul\":17578:17588   */\n      swap6\n      pop\n        /* \"#utility.yul\":16639:17594   */\n      pop\n      pop\n      pop\n      pop\n      pop\n        /* \"#utility.yul\":16459:17594   */\n      swap3\n      swap2\n      pop\n      pop\n      jump\t// out\n        /* \"#utility.yul\":17600:19526   */\n    tag_32:\n        /* \"#utility.yul\":18175:18179   */\n      0x00\n        /* \"#utility.yul\":18213:18216   */\n      0x0100\n        /* \"#utility.yul\":18202:18211   */\n      dup3\n        /* \"#utility.yul\":18198:18217   */\n      add\n        /* \"#utility.yul\":18190:18217   */\n      swap1\n      pop\n        /* \"#utility.yul\":18263:18272   */\n      dup2\n        /* \"#utility.yul\":18257:18261   */\n      dup2\n        /* \"#utility.yul\":18253:18273   */\n      sub\n        /* \"#utility.yul\":18249:18250   */\n      0x00\n        /* \"#utility.yul\":18238:18247   */\n      dup4\n        /* \"#utility.yul\":18234:18251   */\n      add\n        /* \"#utility.yul\":18227:18274   */\n      mstore\n        /* \"#utility.yul\":18291:18369   */\n      tag_419\n        /* \"#utility.yul\":18364:18368   */\n      dup2\n        /* \"#utility.yul\":18355:18361   */\n      dup12\n        /* \"#utility.yul\":18291:18369   */\n      tag_194\n      jump\t// in\n    tag_419:\n        /* \"#utility.yul\":18283:18369   */\n      swap1\n      pop\n        /* \"#utility.yul\":18416:18425   */\n      dup2\n        /* \"#utility.yul\":18410:18414   */\n      dup2\n        /* \"#utility.yul\":18406:18426   */\n      sub\n        /* \"#utility.yul\":18401:18403   */\n      0x20\n        /* \"#utility.yul\":18390:18399   */\n      dup4\n        /* \"#utility.yul\":18386:18404   */\n      add\n        /* \"#utility.yul\":18379:18427   */\n      mstore\n        /* \"#utility.yul\":18444:18522   */\n      tag_420\n        /* \"#utility.yul\":18517:18521   */\n      dup2\n        /* \"#utility.yul\":18508:18514   */\n      dup11\n        /* \"#utility.yul\":18444:18522   */\n      tag_194\n      jump\t// in\n    tag_420:\n        /* \"#utility.yul\":18436:18522   */\n      swap1\n      pop\n        /* \"#utility.yul\":18532:18604   */\n      tag_421\n        /* \"#utility.yul\":18600:18602   */\n      0x40\n        /* \"#utility.yul\":18589:18598   */\n      dup4\n        /* \"#utility.yul\":18585:18603   */\n      add\n        /* \"#utility.yul\":18576:18582   */\n      dup10\n        /* \"#utility.yul\":18532:18604   */\n      tag_195\n      jump\t// in\n    tag_421:\n        /* \"#utility.yul\":18651:18660   */\n      dup2\n        /* \"#utility.yul\":18645:18649   */\n      dup2\n        /* \"#utility.yul\":18641:18661   */\n      sub\n        /* \"#utility.yul\":18636:18638   */\n      0x60\n        /* \"#utility.yul\":18625:18634   */\n      dup4\n        /* \"#utility.yul\":18621:18639   */\n      add\n        /* \"#utility.yul\":18614:18662   */\n      mstore\n        /* \"#utility.yul\":18679:18787   */\n      tag_422\n        /* \"#utility.yul\":18782:18786   */\n      dup2\n        /* \"#utility.yul\":18773:18779   */\n      dup9\n        /* \"#utility.yul\":18679:18787   */\n      tag_202\n      jump\t// in\n    tag_422:\n        /* \"#utility.yul\":18671:18787   */\n      swap1\n      pop\n        /* \"#utility.yul\":18835:18844   */\n      dup2\n        /* \"#utility.yul\":18829:18833   */\n      dup2\n        /* \"#utility.yul\":18825:18845   */\n      sub\n        /* \"#utility.yul\":18819:18822   */\n      0x80\n        /* \"#utility.yul\":18808:18817   */\n      dup4\n        /* \"#utility.yul\":18804:18823   */\n      add\n        /* \"#utility.yul\":18797:18846   */\n      mstore\n        /* \"#utility.yul\":18863:18971   */\n      tag_423\n        /* \"#utility.yul\":18966:18970   */\n      dup2\n        /* \"#utility.yul\":18957:18963   */\n      dup8\n        /* \"#utility.yul\":18863:18971   */\n      tag_202\n      jump\t// in\n    tag_423:\n        /* \"#utility.yul\":18855:18971   */\n      swap1\n      pop\n        /* \"#utility.yul\":19019:19028   */\n      dup2\n        /* \"#utility.yul\":19013:19017   */\n      dup2\n        /* \"#utility.yul\":19009:19029   */\n      sub\n        /* \"#utility.yul\":19003:19006   */\n      0xa0\n        /* \"#utility.yul\":18992:19001   */\n      dup4\n        /* \"#utility.yul\":18988:19007   */\n      add\n        /* \"#utility.yul\":18981:19030   */\n      mstore\n        /* \"#utility.yul\":19047:19125   */\n      tag_424\n        /* \"#utility.yul\":19120:19124   */\n      dup2\n        /* \"#utility.yul\":19111:19117   */\n      dup7\n        /* \"#utility.yul\":19047:19125   */\n      tag_194\n      jump\t// in\n    tag_424:\n        /* \"#utility.yul\":19039:19125   */\n      swap1\n      pop\n        /* \"#utility.yul\":19173:19182   */\n      dup2\n        /* \"#utility.yul\":19167:19171   */\n      dup2\n        /* \"#utility.yul\":19163:19183   */\n      sub\n        /* \"#utility.yul\":19157:19160   */\n      0xc0\n        /* \"#utility.yul\":19146:19155   */\n      dup4\n        /* \"#utility.yul\":19142:19161   */\n      add\n        /* \"#utility.yul\":19135:19184   */\n      mstore\n        /* \"#utility.yul\":19201:19279   */\n      tag_425\n        /* \"#utility.yul\":19274:19278   */\n      dup2\n        /* \"#utility.yul\":19265:19271   */\n      dup6\n        /* \"#utility.yul\":19201:19279   */\n      tag_194\n      jump\t// in\n    tag_425:\n        /* \"#utility.yul\":19193:19279   */\n      swap1\n      pop\n        /* \"#utility.yul\":19327:19336   */\n      dup2\n        /* \"#utility.yul\":19321:19325   */\n      dup2\n        /* \"#utility.yul\":19317:19337   */\n      sub\n        /* \"#utility.yul\":19311:19314   */\n      0xe0\n        /* \"#utility.yul\":19300:19309   */\n      dup4\n        /* \"#utility.yul\":19296:19315   */\n      add\n        /* \"#utility.yul\":19289:19338   */\n      mstore\n        /* \"#utility.yul\":19355:19519   */\n      tag_426\n        /* \"#utility.yul\":19514:19518   */\n      dup2\n        /* \"#utility.yul\":19505:19511   */\n      dup5\n        /* \"#utility.yul\":19355:19519   */\n      tag_212\n      jump\t// in\n    tag_426:\n        /* \"#utility.yul\":19347:19519   */\n      swap1\n      pop\n        /* \"#utility.yul\":17600:19526   */\n      swap10\n      swap9\n      pop\n      pop\n      pop\n      pop\n      pop\n      pop\n      pop\n      pop\n      pop\n      jump\t// out\n        /* \"#utility.yul\":19532:19656   */\n    tag_213:\n        /* \"#utility.yul\":19609:19615   */\n      0x00\n        /* \"#utility.yul\":19643:19648   */\n      dup2\n        /* \"#utility.yul\":19637:19649   */\n      mload\n        /* \"#utility.yul\":19627:19649   */\n      swap1\n      pop\n        /* \"#utility.yul\":19532:19656   */\n      swap2\n      swap1\n      pop\n      jump\t// out\n        /* \"#utility.yul\":19662:19856   */\n    tag_214:\n        /* \"#utility.yul\":19771:19782   */\n      0x00\n        /* \"#utility.yul\":19805:19811   */\n      dup3\n        /* \"#utility.yul\":19800:19803   */\n      dup3\n        /* \"#utility.yul\":19793:19812   */\n      mstore\n        /* \"#utility.yul\":19845:19849   */\n      0x20\n        /* \"#utility.yul\":19840:19843   */\n      dup3\n        /* \"#utility.yul\":19836:19850   */\n      add\n        /* \"#utility.yul\":19821:19850   */\n      swap1\n      pop\n        /* \"#utility.yul\":19662:19856   */\n      swap3\n      swap2\n      pop\n      pop\n      jump\t// out\n        /* \"#utility.yul\":19862:20004   */\n    tag_215:\n        /* \"#utility.yul\":19939:19943   */\n      0x00\n        /* \"#utility.yul\":19962:19965   */\n      dup2\n        /* \"#utility.yul\":19954:19965   */\n      swap1\n      pop\n        /* \"#utility.yul\":19992:19996   */\n      0x20\n        /* \"#utility.yul\":19987:19990   */\n      dup3\n        /* \"#utility.yul\":19983:19997   */\n      add\n        /* \"#utility.yul\":19975:19997   */\n      swap1\n      pop\n        /* \"#utility.yul\":19862:20004   */\n      swap2\n      swap1\n      pop\n      jump\t// out\n        /* \"#utility.yul\":20010:20206   */\n    tag_216:\n        /* \"#utility.yul\":20099:20109   */\n      0x00\n        /* \"#utility.yul\":20134:20200   */\n      tag_431\n        /* \"#utility.yul\":20196:20199   */\n      dup4\n        /* \"#utility.yul\":20188:20194   */\n      dup4\n        /* \"#utility.yul\":20134:20200   */\n      tag_207\n      jump\t// in\n    tag_431:\n        /* \"#utility.yul\":20120:20200   */\n      swap1\n      pop\n        /* \"#utility.yul\":20010:20206   */\n      swap3\n      swap2\n      pop\n      pop\n      jump\t// out\n        /* \"#utility.yul\":20212:20335   */\n    tag_217:\n        /* \"#utility.yul\":20292:20296   */\n      0x00\n        /* \"#utility.yul\":20324:20328   */\n      0x20\n        /* \"#utility.yul\":20319:20322   */\n      dup3\n        /* \"#utility.yul\":20315:20329   */\n      add\n        /* \"#utility.yul\":20307:20329   */\n      swap1\n      pop\n        /* \"#utility.yul\":20212:20335   */\n      swap2\n      swap1\n      pop\n      jump\t// out\n        /* \"#utility.yul\":20369:21360   */\n    tag_218:\n        /* \"#utility.yul\":20508:20511   */\n      0x00\n        /* \"#utility.yul\":20537:20601   */\n      tag_434\n        /* \"#utility.yul\":20595:20600   */\n      dup3\n        /* \"#utility.yul\":20537:20601   */\n      tag_213\n      jump\t// in\n    tag_434:\n        /* \"#utility.yul\":20617:20713   */\n      tag_435\n        /* \"#utility.yul\":20706:20712   */\n      dup2\n        /* \"#utility.yul\":20701:20704   */\n      dup6\n        /* \"#utility.yul\":20617:20713   */\n      tag_214\n      jump\t// in\n    tag_435:\n        /* \"#utility.yul\":20610:20713   */\n      swap4\n      pop\n        /* \"#utility.yul\":20739:20742   */\n      dup4\n        /* \"#utility.yul\":20784:20788   */\n      0x20\n        /* \"#utility.yul\":20776:20782   */\n      dup3\n        /* \"#utility.yul\":20772:20789   */\n      mul\n        /* \"#utility.yul\":20767:20770   */\n      dup6\n        /* \"#utility.yul\":20763:20790   */\n      add\n        /* \"#utility.yul\":20814:20880   */\n      tag_436\n        /* \"#utility.yul\":20874:20879   */\n      dup6\n        /* \"#utility.yul\":20814:20880   */\n      tag_215\n      jump\t// in\n    tag_436:\n        /* \"#utility.yul\":20903:20910   */\n      dup1\n        /* \"#utility.yul\":20934:20935   */\n      0x00\n        /* \"#utility.yul\":20919:21315   */\n    tag_437:\n        /* \"#utility.yul\":20944:20950   */\n      dup6\n        /* \"#utility.yul\":20941:20942   */\n      dup2\n        /* \"#utility.yul\":20938:20951   */\n      lt\n        /* \"#utility.yul\":20919:21315   */\n      iszero\n      tag_439\n      jumpi\n        /* \"#utility.yul\":21015:21024   */\n      dup5\n        /* \"#utility.yul\":21009:21013   */\n      dup5\n        /* \"#utility.yul\":21005:21025   */\n      sub\n        /* \"#utility.yul\":21000:21003   */\n      dup10\n        /* \"#utility.yul\":20993:21026   */\n      mstore\n        /* \"#utility.yul\":21066:21072   */\n      dup2\n        /* \"#utility.yul\":21060:21073   */\n      mload\n        /* \"#utility.yul\":21094:21178   */\n      tag_440\n        /* \"#utility.yul\":21173:21177   */\n      dup6\n        /* \"#utility.yul\":21158:21171   */\n      dup3\n        /* \"#utility.yul\":21094:21178   */\n      tag_216\n      jump\t// in\n    tag_440:\n        /* \"#utility.yul\":21086:21178   */\n      swap5\n      pop\n        /* \"#utility.yul\":21201:21271   */\n      tag_441\n        /* \"#utility.yul\":21264:21270   */\n      dup4\n        /* \"#utility.yul\":21201:21271   */\n      tag_217\n      jump\t// in\n    tag_441:\n        /* \"#utility.yul\":21191:21271   */\n      swap3\n      pop\n        /* \"#utility.yul\":21300:21304   */\n      0x20\n        /* \"#utility.yul\":21295:21298   */\n      dup11\n        /* \"#utility.yul\":21291:21305   */\n      add\n        /* \"#utility.yul\":21284:21305   */\n      swap10\n      pop\n        /* \"#utility.yul\":20979:21315   */\n      pop\n        /* \"#utility.yul\":20966:20967   */\n      0x01\n        /* \"#utility.yul\":20963:20964   */\n      dup2\n        /* \"#utility.yul\":20959:20968   */\n      add\n        /* \"#utility.yul\":20954:20968   */\n      swap1\n      pop\n        /* \"#utility.yul\":20919:21315   */\n      jump(tag_437)\n    tag_439:\n        /* \"#utility.yul\":20923:20937   */\n      pop\n        /* \"#utility.yul\":21331:21335   */\n      dup3\n        /* \"#utility.yul\":21324:21335   */\n      swap8\n      pop\n        /* \"#utility.yul\":21351:21354   */\n      dup8\n        /* \"#utility.yul\":21344:21354   */\n      swap6\n      pop\n        /* \"#utility.yul\":20513:21360   */\n      pop\n      pop\n      pop\n      pop\n      pop\n        /* \"#utility.yul\":20369:21360   */\n      swap3\n      swap2\n      pop\n      pop\n      jump\t// out\n        /* \"#utility.yul\":21366:22381   */\n    tag_37:\n        /* \"#utility.yul\":21725:21729   */\n      0x00\n        /* \"#utility.yul\":21763:21765   */\n      0x60\n        /* \"#utility.yul\":21752:21761   */\n      dup3\n        /* \"#utility.yul\":21748:21766   */\n      add\n        /* \"#utility.yul\":21740:21766   */\n      swap1\n      pop\n        /* \"#utility.yul\":21812:21821   */\n      dup2\n        /* \"#utility.yul\":21806:21810   */\n      dup2\n        /* \"#utility.yul\":21802:21822   */\n      sub\n        /* \"#utility.yul\":21798:21799   */\n      0x00\n        /* \"#utility.yul\":21787:21796   */\n      dup4\n        /* \"#utility.yul\":21783:21800   */\n      add\n        /* \"#utility.yul\":21776:21823   */\n      mstore\n        /* \"#utility.yul\":21840:21968   */\n      tag_443\n        /* \"#utility.yul\":21963:21967   */\n      dup2\n        /* \"#utility.yul\":21954:21960   */\n      dup7\n        /* \"#utility.yul\":21840:21968   */\n      tag_218\n      jump\t// in\n    tag_443:\n        /* \"#utility.yul\":21832:21968   */\n      swap1\n      pop\n        /* \"#utility.yul\":22015:22024   */\n      dup2\n        /* \"#utility.yul\":22009:22013   */\n      dup2\n        /* \"#utility.yul\":22005:22025   */\n      sub\n        /* \"#utility.yul\":22000:22002   */\n      0x20\n        /* \"#utility.yul\":21989:21998   */\n      dup4\n        /* \"#utility.yul\":21985:22003   */\n      add\n        /* \"#utility.yul\":21978:22026   */\n      mstore\n        /* \"#utility.yul\":22043:22171   */\n      tag_444\n        /* \"#utility.yul\":22166:22170   */\n      dup2\n        /* \"#utility.yul\":22157:22163   */\n      dup6\n        /* \"#utility.yul\":22043:22171   */\n      tag_218\n      jump\t// in\n    tag_444:\n        /* \"#utility.yul\":22035:22171   */\n      swap1\n      pop\n        /* \"#utility.yul\":22218:22227   */\n      dup2\n        /* \"#utility.yul\":22212:22216   */\n      dup2\n        /* \"#utility.yul\":22208:22228   */\n      sub\n        /* \"#utility.yul\":22203:22205   */\n      0x40\n        /* \"#utility.yul\":22192:22201   */\n      dup4\n        /* \"#utility.yul\":22188:22206   */\n      add\n        /* \"#utility.yul\":22181:22229   */\n      mstore\n        /* \"#utility.yul\":22246:22374   */\n      tag_445\n        /* \"#utility.yul\":22369:22373   */\n      dup2\n        /* \"#utility.yul\":22360:22366   */\n      dup5\n        /* \"#utility.yul\":22246:22374   */\n      tag_218\n      jump\t// in\n    tag_445:\n        /* \"#utility.yul\":22238:22374   */\n      swap1\n      pop\n        /* \"#utility.yul\":21366:22381   */\n      swap5\n      swap4\n      pop\n      pop\n      pop\n      pop\n      jump\t// out\n        /* \"#utility.yul\":22387:22708   */\n    tag_219:\n        /* \"#utility.yul\":22474:22478   */\n      0x00\n        /* \"#utility.yul\":22564:22582   */\n      0xffffffffffffffff\n        /* \"#utility.yul\":22556:22562   */\n      dup3\n        /* \"#utility.yul\":22553:22583   */\n      gt\n        /* \"#utility.yul\":22550:22606   */\n      iszero\n      tag_447\n      jumpi\n        /* \"#utility.yul\":22586:22604   */\n      tag_448\n      tag_178\n      jump\t// in\n    tag_448:\n        /* \"#utility.yul\":22550:22606   */\n    tag_447:\n        /* \"#utility.yul\":22636:22640   */\n      0x20\n        /* \"#utility.yul\":22628:22634   */\n      dup3\n        /* \"#utility.yul\":22624:22641   */\n      mul\n        /* \"#utility.yul\":22616:22641   */\n      swap1\n      pop\n        /* \"#utility.yul\":22696:22700   */\n      0x20\n        /* \"#utility.yul\":22690:22694   */\n      dup2\n        /* \"#utility.yul\":22686:22701   */\n      add\n        /* \"#utility.yul\":22678:22701   */\n      swap1\n      pop\n        /* \"#utility.yul\":22387:22708   */\n      swap2\n      swap1\n      pop\n      jump\t// out\n        /* \"#utility.yul\":22714:22831   */\n    tag_220:\n        /* \"#utility.yul\":22823:22824   */\n      0x00\n        /* \"#utility.yul\":22820:22821   */\n      dup1\n        /* \"#utility.yul\":22813:22825   */\n      revert\n        /* \"#utility.yul\":22853:23798   */\n    tag_221:\n        /* \"#utility.yul\":22959:22964   */\n      0x00\n        /* \"#utility.yul\":22984:23075   */\n      tag_451\n        /* \"#utility.yul\":23000:23074   */\n      tag_452\n        /* \"#utility.yul\":23067:23073   */\n      dup5\n        /* \"#utility.yul\":23000:23074   */\n      tag_219\n      jump\t// in\n    tag_452:\n        /* \"#utility.yul\":22984:23075   */\n      tag_180\n      jump\t// in\n    tag_451:\n        /* \"#utility.yul\":22975:23075   */\n      swap1\n      pop\n        /* \"#utility.yul\":23095:23100   */\n      dup1\n        /* \"#utility.yul\":23124:23130   */\n      dup4\n        /* \"#utility.yul\":23117:23122   */\n      dup3\n        /* \"#utility.yul\":23110:23131   */\n      mstore\n        /* \"#utility.yul\":23158:23162   */\n      0x20\n        /* \"#utility.yul\":23151:23156   */\n      dup3\n        /* \"#utility.yul\":23147:23163   */\n      add\n        /* \"#utility.yul\":23140:23163   */\n      swap1\n      pop\n        /* \"#utility.yul\":23211:23215   */\n      0x20\n        /* \"#utility.yul\":23203:23209   */\n      dup5\n        /* \"#utility.yul\":23199:23216   */\n      mul\n        /* \"#utility.yul\":23191:23197   */\n      dup4\n        /* \"#utility.yul\":23187:23217   */\n      add\n        /* \"#utility.yul\":23240:23243   */\n      dup6\n        /* \"#utility.yul\":23232:23238   */\n      dup2\n        /* \"#utility.yul\":23229:23244   */\n      gt\n        /* \"#utility.yul\":23226:23348   */\n      iszero\n      tag_453\n      jumpi\n        /* \"#utility.yul\":23259:23338   */\n      tag_454\n      tag_220\n      jump\t// in\n    tag_454:\n        /* \"#utility.yul\":23226:23348   */\n    tag_453:\n        /* \"#utility.yul\":23374:23380   */\n      dup4\n        /* \"#utility.yul\":23357:23792   */\n    tag_455:\n        /* \"#utility.yul\":23391:23397   */\n      dup2\n        /* \"#utility.yul\":23386:23389   */\n      dup2\n        /* \"#utility.yul\":23383:23398   */\n      lt\n        /* \"#utility.yul\":23357:23792   */\n      iszero\n      tag_457\n      jumpi\n        /* \"#utility.yul\":23480:23483   */\n      dup1\n        /* \"#utility.yul\":23467:23484   */\n      calldataload\n        /* \"#utility.yul\":23516:23534   */\n      0xffffffffffffffff\n        /* \"#utility.yul\":23503:23514   */\n      dup2\n        /* \"#utility.yul\":23500:23535   */\n      gt\n        /* \"#utility.yul\":23497:23619   */\n      iszero\n      tag_458\n      jumpi\n        /* \"#utility.yul\":23538:23617   */\n      tag_459\n      tag_175\n      jump\t// in\n    tag_459:\n        /* \"#utility.yul\":23497:23619   */\n    tag_458:\n        /* \"#utility.yul\":23662:23673   */\n      dup1\n        /* \"#utility.yul\":23654:23660   */\n      dup7\n        /* \"#utility.yul\":23650:23674   */\n      add\n        /* \"#utility.yul\":23700:23747   */\n      tag_460\n        /* \"#utility.yul\":23743:23746   */\n      dup10\n        /* \"#utility.yul\":23731:23741   */\n      dup3\n        /* \"#utility.yul\":23700:23747   */\n      tag_184\n      jump\t// in\n    tag_460:\n        /* \"#utility.yul\":23695:23698   */\n      dup6\n        /* \"#utility.yul\":23688:23748   */\n      mstore\n        /* \"#utility.yul\":23777:23781   */\n      0x20\n        /* \"#utility.yul\":23772:23775   */\n      dup6\n        /* \"#utility.yul\":23768:23782   */\n      add\n        /* \"#utility.yul\":23761:23782   */\n      swap5\n      pop\n        /* \"#utility.yul\":23433:23792   */\n      pop\n      pop\n        /* \"#utility.yul\":23417:23421   */\n      0x20\n        /* \"#utility.yul\":23412:23415   */\n      dup2\n        /* \"#utility.yul\":23408:23422   */\n      add\n        /* \"#utility.yul\":23401:23422   */\n      swap1\n      pop\n        /* \"#utility.yul\":23357:23792   */\n      jump(tag_455)\n    tag_457:\n        /* \"#utility.yul\":23361:23382   */\n      pop\n        /* \"#utility.yul\":22965:23798   */\n      pop\n      pop\n        /* \"#utility.yul\":22853:23798   */\n      swap4\n      swap3\n      pop\n      pop\n      pop\n      jump\t// out\n        /* \"#utility.yul\":23820:24210   */\n    tag_222:\n        /* \"#utility.yul\":23901:23906   */\n      0x00\n        /* \"#utility.yul\":23950:23953   */\n      dup3\n        /* \"#utility.yul\":23943:23947   */\n      0x1f\n        /* \"#utility.yul\":23935:23941   */\n      dup4\n        /* \"#utility.yul\":23931:23948   */\n      add\n        /* \"#utility.yul\":23927:23954   */\n      slt\n        /* \"#utility.yul\":23917:24039   */\n      tag_462\n      jumpi\n        /* \"#utility.yul\":23958:24037   */\n      tag_463\n      tag_175\n      jump\t// in\n    tag_463:\n        /* \"#utility.yul\":23917:24039   */\n    tag_462:\n        /* \"#utility.yul\":24075:24081   */\n      dup2\n        /* \"#utility.yul\":24062:24082   */\n      calldataload\n        /* \"#utility.yul\":24100:24204   */\n      tag_464\n        /* \"#utility.yul\":24200:24203   */\n      dup5\n        /* \"#utility.yul\":24192:24198   */\n      dup3\n        /* \"#utility.yul\":24185:24189   */\n      0x20\n        /* \"#utility.yul\":24177:24183   */\n      dup7\n        /* \"#utility.yul\":24173:24190   */\n      add\n        /* \"#utility.yul\":24100:24204   */\n      tag_221\n      jump\t// in\n    tag_464:\n        /* \"#utility.yul\":24091:24204   */\n      swap2\n      pop\n        /* \"#utility.yul\":23907:24210   */\n      pop\n        /* \"#utility.yul\":23820:24210   */\n      swap3\n      swap2\n      pop\n      pop\n      jump\t// out\n        /* \"#utility.yul\":24216:25851   */\n    tag_40:\n        /* \"#utility.yul\":24417:24423   */\n      0x00\n        /* \"#utility.yul\":24425:24431   */\n      dup1\n        /* \"#utility.yul\":24433:24439   */\n      0x00\n        /* \"#utility.yul\":24441:24447   */\n      dup1\n        /* \"#utility.yul\":24490:24493   */\n      0x80\n        /* \"#utility.yul\":24478:24487   */\n      dup6\n        /* \"#utility.yul\":24469:24476   */\n      dup8\n        /* \"#utility.yul\":24465:24488   */\n      sub\n        /* \"#utility.yul\":24461:24494   */\n      slt\n        /* \"#utility.yul\":24458:24578   */\n      iszero\n      tag_466\n      jumpi\n        /* \"#utility.yul\":24497:24576   */\n      tag_467\n      tag_173\n      jump\t// in\n    tag_467:\n        /* \"#utility.yul\":24458:24578   */\n    tag_466:\n        /* \"#utility.yul\":24645:24646   */\n      0x00\n        /* \"#utility.yul\":24634:24643   */\n      dup6\n        /* \"#utility.yul\":24630:24647   */\n      add\n        /* \"#utility.yul\":24617:24648   */\n      calldataload\n        /* \"#utility.yul\":24675:24693   */\n      0xffffffffffffffff\n        /* \"#utility.yul\":24667:24673   */\n      dup2\n        /* \"#utility.yul\":24664:24694   */\n      gt\n        /* \"#utility.yul\":24661:24778   */\n      iszero\n      tag_468\n      jumpi\n        /* \"#utility.yul\":24697:24776   */\n      tag_469\n      tag_174\n      jump\t// in\n    tag_469:\n        /* \"#utility.yul\":24661:24778   */\n    tag_468:\n        /* \"#utility.yul\":24802:24865   */\n      tag_470\n        /* \"#utility.yul\":24857:24864   */\n      dup8\n        /* \"#utility.yul\":24848:24854   */\n      dup3\n        /* \"#utility.yul\":24837:24846   */\n      dup9\n        /* \"#utility.yul\":24833:24855   */\n      add\n        /* \"#utility.yul\":24802:24865   */\n      tag_184\n      jump\t// in\n    tag_470:\n        /* \"#utility.yul\":24792:24865   */\n      swap5\n      pop\n        /* \"#utility.yul\":24588:24875   */\n      pop\n        /* \"#utility.yul\":24942:24944   */\n      0x20\n        /* \"#utility.yul\":24931:24940   */\n      dup6\n        /* \"#utility.yul\":24927:24945   */\n      add\n        /* \"#utility.yul\":24914:24946   */\n      calldataload\n        /* \"#utility.yul\":24973:24991   */\n      0xffffffffffffffff\n        /* \"#utility.yul\":24965:24971   */\n      dup2\n        /* \"#utility.yul\":24962:24992   */\n      gt\n        /* \"#utility.yul\":24959:25076   */\n      iszero\n      tag_471\n      jumpi\n        /* \"#utility.yul\":24995:25074   */\n      tag_472\n      tag_174\n      jump\t// in\n    tag_472:\n        /* \"#utility.yul\":24959:25076   */\n    tag_471:\n        /* \"#utility.yul\":25100:25188   */\n      tag_473\n        /* \"#utility.yul\":25180:25187   */\n      dup8\n        /* \"#utility.yul\":25171:25177   */\n      dup3\n        /* \"#utility.yul\":25160:25169   */\n      dup9\n        /* \"#utility.yul\":25156:25178   */\n      add\n        /* \"#utility.yul\":25100:25188   */\n      tag_222\n      jump\t// in\n    tag_473:\n        /* \"#utility.yul\":25090:25188   */\n      swap4\n      pop\n        /* \"#utility.yul\":24885:25198   */\n      pop\n        /* \"#utility.yul\":25265:25267   */\n      0x40\n        /* \"#utility.yul\":25254:25263   */\n      dup6\n        /* \"#utility.yul\":25250:25268   */\n      add\n        /* \"#utility.yul\":25237:25269   */\n      calldataload\n        /* \"#utility.yul\":25296:25314   */\n      0xffffffffffffffff\n        /* \"#utility.yul\":25288:25294   */\n      dup2\n        /* \"#utility.yul\":25285:25315   */\n      gt\n        /* \"#utility.yul\":25282:25399   */\n      iszero\n      tag_474\n      jumpi\n        /* \"#utility.yul\":25318:25397   */\n      tag_475\n      tag_174\n      jump\t// in\n    tag_475:\n        /* \"#utility.yul\":25282:25399   */\n    tag_474:\n        /* \"#utility.yul\":25423:25511   */\n      tag_476\n        /* \"#utility.yul\":25503:25510   */\n      dup8\n        /* \"#utility.yul\":25494:25500   */\n      dup3\n        /* \"#utility.yul\":25483:25492   */\n      dup9\n        /* \"#utility.yul\":25479:25501   */\n      add\n        /* \"#utility.yul\":25423:25511   */\n      tag_222\n      jump\t// in\n    tag_476:\n        /* \"#utility.yul\":25413:25511   */\n      swap3\n      pop\n        /* \"#utility.yul\":25208:25521   */\n      pop\n        /* \"#utility.yul\":25588:25590   */\n      0x60\n        /* \"#utility.yul\":25577:25586   */\n      dup6\n        /* \"#utility.yul\":25573:25591   */\n      add\n        /* \"#utility.yul\":25560:25592   */\n      calldataload\n        /* \"#utility.yul\":25619:25637   */\n      0xffffffffffffffff\n        /* \"#utility.yul\":25611:25617   */\n      dup2\n        /* \"#utility.yul\":25608:25638   */\n      gt\n        /* \"#utility.yul\":25605:25722   */\n      iszero\n      tag_477\n      jumpi\n        /* \"#utility.yul\":25641:25720   */\n      tag_478\n      tag_174\n      jump\t// in\n    tag_478:\n        /* \"#utility.yul\":25605:25722   */\n    tag_477:\n        /* \"#utility.yul\":25746:25834   */\n      tag_479\n        /* \"#utility.yul\":25826:25833   */\n      dup8\n        /* \"#utility.yul\":25817:25823   */\n      dup3\n        /* \"#utility.yul\":25806:25815   */\n      dup9\n        /* \"#utility.yul\":25802:25824   */\n      add\n        /* \"#utility.yul\":25746:25834   */\n      tag_222\n      jump\t// in\n    tag_479:\n        /* \"#utility.yul\":25736:25834   */\n      swap2\n      pop\n        /* \"#utility.yul\":25531:25844   */\n      pop\n        /* \"#utility.yul\":24216:25851   */\n      swap3\n      swap6\n      swap2\n      swap5\n      pop\n      swap3\n      pop\n      jump\t// out\n        /* \"#utility.yul\":25857:26005   */\n    tag_223:\n        /* \"#utility.yul\":25959:25970   */\n      0x00\n        /* \"#utility.yul\":25996:25999   */\n      dup2\n        /* \"#utility.yul\":25981:25999   */\n      swap1\n      pop\n        /* \"#utility.yul\":25857:26005   */\n      swap3\n      swap2\n      pop\n      pop\n      jump\t// out\n        /* \"#utility.yul\":26011:26401   */\n    tag_224:\n        /* \"#utility.yul\":26117:26120   */\n      0x00\n        /* \"#utility.yul\":26145:26184   */\n      tag_482\n        /* \"#utility.yul\":26178:26183   */\n      dup3\n        /* \"#utility.yul\":26145:26184   */\n      tag_191\n      jump\t// in\n    tag_482:\n        /* \"#utility.yul\":26200:26289   */\n      tag_483\n        /* \"#utility.yul\":26282:26288   */\n      dup2\n        /* \"#utility.yul\":26277:26280   */\n      dup6\n        /* \"#utility.yul\":26200:26289   */\n      tag_223\n      jump\t// in\n    tag_483:\n        /* \"#utility.yul\":26193:26289   */\n      swap4\n      pop\n        /* \"#utility.yul\":26298:26363   */\n      tag_484\n        /* \"#utility.yul\":26356:26362   */\n      dup2\n        /* \"#utility.yul\":26351:26354   */\n      dup6\n        /* \"#utility.yul\":26344:26348   */\n      0x20\n        /* \"#utility.yul\":26337:26342   */\n      dup7\n        /* \"#utility.yul\":26333:26349   */\n      add\n        /* \"#utility.yul\":26298:26363   */\n      tag_193\n      jump\t// in\n    tag_484:\n        /* \"#utility.yul\":26388:26394   */\n      dup1\n        /* \"#utility.yul\":26383:26386   */\n      dup5\n        /* \"#utility.yul\":26379:26395   */\n      add\n        /* \"#utility.yul\":26372:26395   */\n      swap2\n      pop\n        /* \"#utility.yul\":26121:26401   */\n      pop\n        /* \"#utility.yul\":26011:26401   */\n      swap3\n      swap2\n      pop\n      pop\n      jump\t// out\n        /* \"#utility.yul\":26407:26682   */\n    tag_44:\n        /* \"#utility.yul\":26539:26542   */\n      0x00\n        /* \"#utility.yul\":26561:26656   */\n      tag_486\n        /* \"#utility.yul\":26652:26655   */\n      dup3\n        /* \"#utility.yul\":26643:26649   */\n      dup5\n        /* \"#utility.yul\":26561:26656   */\n      tag_224\n      jump\t// in\n    tag_486:\n        /* \"#utility.yul\":26554:26656   */\n      swap2\n      pop\n        /* \"#utility.yul\":26673:26676   */\n      dup2\n        /* \"#utility.yul\":26666:26676   */\n      swap1\n      pop\n        /* \"#utility.yul\":26407:26682   */\n      swap3\n      swap2\n      pop\n      pop\n      jump\t// out\n        /* \"#utility.yul\":26688:26868   */\n    tag_225:\n        /* \"#utility.yul\":26736:26813   */\n      0x4e487b7100000000000000000000000000000000000000000000000000000000\n        /* \"#utility.yul\":26733:26734   */\n      0x00\n        /* \"#utility.yul\":26726:26814   */\n      mstore\n        /* \"#utility.yul\":26833:26837   */\n      0x22\n        /* \"#utility.yul\":26830:26831   */\n      0x04\n        /* \"#utility.yul\":26823:26838   */\n      mstore\n        /* \"#utility.yul\":26857:26861   */\n      0x24\n        /* \"#utility.yul\":26854:26855   */\n      0x00\n        /* \"#utility.yul\":26847:26862   */\n      revert\n        /* \"#utility.yul\":26874:27194   */\n    tag_72:\n        /* \"#utility.yul\":26918:26924   */\n      0x00\n        /* \"#utility.yul\":26955:26956   */\n      0x02\n        /* \"#utility.yul\":26949:26953   */\n      dup3\n        /* \"#utility.yul\":26945:26957   */\n      div\n        /* \"#utility.yul\":26935:26957   */\n      swap1\n      pop\n        /* \"#utility.yul\":27002:27003   */\n      0x01\n        /* \"#utility.yul\":26996:27000   */\n      dup3\n        /* \"#utility.yul\":26992:27004   */\n      and\n        /* \"#utility.yul\":27023:27041   */\n      dup1\n        /* \"#utility.yul\":27013:27094   */\n      tag_489\n      jumpi\n        /* \"#utility.yul\":27079:27083   */\n      0x7f\n        /* \"#utility.yul\":27071:27077   */\n      dup3\n        /* \"#utility.yul\":27067:27084   */\n      and\n        /* \"#utility.yul\":27057:27084   */\n      swap2\n      pop\n        /* \"#utility.yul\":27013:27094   */\n    tag_489:\n        /* \"#utility.yul\":27141:27143   */\n      0x20\n        /* \"#utility.yul\":27133:27139   */\n      dup3\n        /* \"#utility.yul\":27130:27144   */\n      lt\n        /* \"#utility.yul\":27110:27128   */\n      dup2\n        /* \"#utility.yul\":27107:27145   */\n      sub\n        /* \"#utility.yul\":27104:27188   */\n      tag_490\n      jumpi\n        /* \"#utility.yul\":27160:27178   */\n      tag_491\n      tag_225\n      jump\t// in\n    tag_491:\n        /* \"#utility.yul\":27104:27188   */\n    tag_490:\n        /* \"#utility.yul\":26925:27194   */\n      pop\n        /* \"#utility.yul\":26874:27194   */\n      swap2\n      swap1\n      pop\n      jump\t// out\n        /* \"#utility.yul\":27200:27341   */\n    tag_226:\n        /* \"#utility.yul\":27249:27253   */\n      0x00\n        /* \"#utility.yul\":27272:27275   */\n      dup2\n        /* \"#utility.yul\":27264:27275   */\n      swap1\n      pop\n        /* \"#utility.yul\":27295:27298   */\n      dup2\n        /* \"#utility.yul\":27292:27293   */\n      0x00\n        /* \"#utility.yul\":27285:27299   */\n      mstore\n        /* \"#utility.yul\":27329:27333   */\n      0x20\n        /* \"#utility.yul\":27326:27327   */\n      0x00\n        /* \"#utility.yul\":27316:27334   */\n      keccak256\n        /* \"#utility.yul\":27308:27334   */\n      swap1\n      pop\n        /* \"#utility.yul\":27200:27341   */\n      swap2\n      swap1\n      pop\n      jump\t// out\n        /* \"#utility.yul\":27347:27440   */\n    tag_227:\n        /* \"#utility.yul\":27384:27390   */\n      0x00\n        /* \"#utility.yul\":27431:27433   */\n      0x20\n        /* \"#utility.yul\":27426:27428   */\n      0x1f\n        /* \"#utility.yul\":27419:27424   */\n      dup4\n        /* \"#utility.yul\":27415:27429   */\n      add\n        /* \"#utility.yul\":27411:27434   */\n      div\n        /* \"#utility.yul\":27401:27434   */\n      swap1\n      pop\n        /* \"#utility.yul\":27347:27440   */\n      swap2\n      swap1\n      pop\n      jump\t// out\n        /* \"#utility.yul\":27446:27553   */\n    tag_228:\n        /* \"#utility.yul\":27490:27498   */\n      0x00\n        /* \"#utility.yul\":27540:27545   */\n      dup3\n        /* \"#utility.yul\":27534:27538   */\n      dup3\n        /* \"#utility.yul\":27530:27546   */\n      shl\n        /* \"#utility.yul\":27509:27546   */\n      swap1\n      pop\n        /* \"#utility.yul\":27446:27553   */\n      swap3\n      swap2\n      pop\n      pop\n      jump\t// out\n        /* \"#utility.yul\":27559:27952   */\n    tag_229:\n        /* \"#utility.yul\":27628:27634   */\n      0x00\n        /* \"#utility.yul\":27678:27679   */\n      0x08\n        /* \"#utility.yul\":27666:27676   */\n      dup4\n        /* \"#utility.yul\":27662:27680   */\n      mul\n        /* \"#utility.yul\":27701:27798   */\n      tag_496\n        /* \"#utility.yul\":27731:27797   */\n      0xffffffffffffffffffffffffffffffffffffffffffffffffffffffffffffffff\n        /* \"#utility.yul\":27720:27729   */\n      dup3\n        /* \"#utility.yul\":27701:27798   */\n      tag_228\n      jump\t// in\n    tag_496:\n        /* \"#utility.yul\":27819:27858   */\n      tag_497\n        /* \"#utility.yul\":27849:27857   */\n      dup7\n        /* \"#utility.yul\":27838:27847   */\n      dup4\n        /* \"#utility.yul\":27819:27858   */\n      tag_228\n      jump\t// in\n    tag_497:\n        /* \"#utility.yul\":27807:27858   */\n      swap6\n      pop\n        /* \"#utility.yul\":27891:27895   */\n      dup1\n        /* \"#utility.yul\":27887:27896   */\n      not\n        /* \"#utility.yul\":27880:27885   */\n      dup5\n        /* \"#utility.yul\":27876:27897   */\n      and\n        /* \"#utility.yul\":27867:27897   */\n      swap4\n      pop\n        /* \"#utility.yul\":27940:27944   */\n      dup1\n        /* \"#utility.yul\":27930:27938   */\n      dup7\n        /* \"#utility.yul\":27926:27945   */\n      and\n        /* \"#utility.yul\":27919:27924   */\n      dup5\n        /* \"#utility.yul\":27916:27946   */\n      or\n        /* \"#utility.yul\":27906:27946   */\n      swap3\n      pop\n        /* \"#utility.yul\":27635:27952   */\n      pop\n      pop\n        /* \"#utility.yul\":27559:27952   */\n      swap4\n      swap3\n      pop\n      pop\n      pop\n      jump\t// out\n        /* \"#utility.yul\":27958:28018   */\n    tag_230:\n        /* \"#utility.yul\":27986:27989   */\n      0x00\n        /* \"#utility.yul\":28007:28012   */\n      dup2\n        /* \"#utility.yul\":28000:28012   */\n      swap1\n      pop\n        /* \"#utility.yul\":27958:28018   */\n      swap2\n      swap1\n      pop\n      jump\t// out\n        /* \"#utility.yul\":28024:28166   */\n    tag_231:\n        /* \"#utility.yul\":28074:28083   */\n      0x00\n        /* \"#utility.yul\":28107:28160   */\n      tag_500\n        /* \"#utility.yul\":28125:28159   */\n      tag_501\n        /* \"#utility.yul\":28134:28158   */\n      tag_502\n        /* \"#utility.yul\":28152:28157   */\n      dup5\n        /* \"#utility.yul\":28134:28158   */\n      tag_185\n      jump\t// in\n    tag_502:\n        /* \"#utility.yul\":28125:28159   */\n      tag_230\n      jump\t// in\n    tag_501:\n        /* \"#utility.yul\":28107:28160   */\n      tag_185\n      jump\t// in\n    tag_500:\n        /* \"#utility.yul\":28094:28160   */\n      swap1\n      pop\n        /* \"#utility.yul\":28024:28166   */\n      swap2\n      swap1\n      pop\n      jump\t// out\n        /* \"#utility.yul\":28172:28247   */\n    tag_232:\n        /* \"#utility.yul\":28215:28218   */\n      0x00\n        /* \"#utility.yul\":28236:28241   */\n      dup2\n        /* \"#utility.yul\":28229:28241   */\n      swap1\n      pop\n        /* \"#utility.yul\":28172:28247   */\n      swap2\n      swap1\n      pop\n      jump\t// out\n        /* \"#utility.yul\":28253:28522   */\n    tag_233:\n        /* \"#utility.yul\":28363:28402   */\n      tag_505\n        /* \"#utility.yul\":28394:28401   */\n      dup4\n        /* \"#utility.yul\":28363:28402   */\n      tag_231\n      jump\t// in\n    tag_505:\n        /* \"#utility.yul\":28424:28515   */\n      tag_506\n        /* \"#utility.yul\":28473:28514   */\n      tag_507\n        /* \"#utility.yul\":28497:28513   */\n      dup3\n        /* \"#utility.yul\":28473:28514   */\n      tag_232\n      jump\t// in\n    tag_507:\n        /* \"#utility.yul\":28465:28471   */\n      dup5\n        /* \"#utility.yul\":28458:28462   */\n      dup5\n        /* \"#utility.yul\":28452:28463   */\n      sload\n        /* \"#utility.yul\":28424:28515   */\n      tag_229\n      jump\t// in\n    tag_506:\n        /* \"#utility.yul\":28418:28422   */\n      dup3\n        /* \"#utility.yul\":28411:28516   */\n      sstore\n        /* \"#utility.yul\":28329:28522   */\n      pop\n        /* \"#utility.yul\":28253:28522   */\n      pop\n      pop\n      pop\n      jump\t// out\n        /* \"#utility.yul\":28528:28601   */\n    tag_234:\n        /* \"#utility.yul\":28573:28576   */\n      0x00\n        /* \"#utility.yul\":28528:28601   */\n      swap1\n      jump\t// out\n        /* \"#utility.yul\":28607:28796   */\n    tag_235:\n        /* \"#utility.yul\":28684:28716   */\n      tag_510\n      tag_234\n      jump\t// in\n    tag_510:\n        /* \"#utility.yul\":28725:28790   */\n      tag_511\n        /* \"#utility.yul\":28783:28789   */\n      dup2\n        /* \"#utility.yul\":28775:28781   */\n      dup5\n        /* \"#utility.yul\":28769:28773   */\n      dup5\n        /* \"#utility.yul\":28725:28790   */\n      tag_233\n      jump\t// in\n    tag_511:\n        /* \"#utility.yul\":28660:28796   */\n      pop\n        /* \"#utility.yul\":28607:28796   */\n      pop\n      pop\n      jump\t// out\n        /* \"#utility.yul\":28802:28988   */\n    tag_236:\n        /* \"#utility.yul\":28862:28982   */\n    tag_513:\n        /* \"#utility.yul\":28879:28882   */\n      dup2\n        /* \"#utility.yul\":28872:28877   */\n      dup2\n        /* \"#utility.yul\":28869:28883   */\n      lt\n        /* \"#utility.yul\":28862:28982   */\n      iszero\n      tag_515\n      jumpi\n        /* \"#utility.yul\":28933:28972   */\n      tag_516\n        /* \"#utility.yul\":28970:28971   */\n      0x00\n        /* \"#utility.yul\":28963:28968   */\n      dup3\n        /* \"#utility.yul\":28933:28972   */\n      tag_235\n      jump\t// in\n    tag_516:\n        /* \"#utility.yul\":28906:28907   */\n      0x01\n        /* \"#utility.yul\":28899:28904   */\n      dup2\n        /* \"#utility.yul\":28895:28908   */\n      add\n        /* \"#utility.yul\":28886:28908   */\n      swap1\n      pop\n        /* \"#utility.yul\":28862:28982   */\n      jump(tag_513)\n    tag_515:\n        /* \"#utility.yul\":28802:28988   */\n      pop\n      pop\n      jump\t// out\n        /* \"#utility.yul\":28994:29537   */\n    tag_237:\n        /* \"#utility.yul\":29095:29097   */\n      0x1f\n        /* \"#utility.yul\":29090:29093   */\n      dup3\n        /* \"#utility.yul\":29087:29098   */\n      gt\n        /* \"#utility.yul\":29084:29530   */\n      iszero\n      tag_518\n      jumpi\n        /* \"#utility.yul\":29129:29167   */\n      tag_519\n        /* \"#utility.yul\":29161:29166   */\n      dup2\n        /* \"#utility.yul\":29129:29167   */\n      tag_226\n      jump\t// in\n    tag_519:\n        /* \"#utility.yul\":29213:29242   */\n      tag_520\n        /* \"#utility.yul\":29231:29241   */\n      dup5\n        /* \"#utility.yul\":29213:29242   */\n      tag_227\n      jump\t// in\n    tag_520:\n        /* \"#utility.yul\":29203:29211   */\n      dup2\n        /* \"#utility.yul\":29199:29243   */\n      add\n        /* \"#utility.yul\":29396:29398   */\n      0x20\n        /* \"#utility.yul\":29384:29394   */\n      dup6\n        /* \"#utility.yul\":29381:29399   */\n      lt\n        /* \"#utility.yul\":29378:29427   */\n      iszero\n      tag_521\n      jumpi\n        /* \"#utility.yul\":29417:29425   */\n      dup2\n        /* \"#utility.yul\":29402:29425   */\n      swap1\n      pop\n        /* \"#utility.yul\":29378:29427   */\n    tag_521:\n        /* \"#utility.yul\":29440:29520   */\n      tag_522\n        /* \"#utility.yul\":29496:29518   */\n      tag_523\n        /* \"#utility.yul\":29514:29517   */\n      dup6\n        /* \"#utility.yul\":29496:29518   */\n      tag_227\n      jump\t// in\n    tag_523:\n        /* \"#utility.yul\":29486:29494   */\n      dup4\n        /* \"#utility.yul\":29482:29519   */\n      add\n        /* \"#utility.yul\":29469:29480   */\n      dup3\n        /* \"#utility.yul\":29440:29520   */\n      tag_236\n      jump\t// in\n    tag_522:\n        /* \"#utility.yul\":29099:29530   */\n      pop\n      pop\n        /* \"#utility.yul\":29084:29530   */\n    tag_518:\n        /* \"#utility.yul\":28994:29537   */\n      pop\n      pop\n      pop\n      jump\t// out\n        /* \"#utility.yul\":29543:29660   */\n    tag_238:\n        /* \"#utility.yul\":29597:29605   */\n      0x00\n        /* \"#utility.yul\":29647:29652   */\n      dup3\n        /* \"#utility.yul\":29641:29645   */\n      dup3\n        /* \"#utility.yul\":29637:29653   */\n      shr\n        /* \"#utility.yul\":29616:29653   */\n      swap1\n      pop\n        /* \"#utility.yul\":29543:29660   */\n      swap3\n      swap2\n      pop\n      pop\n      jump\t// out\n        /* \"#utility.yul\":29666:29835   */\n    tag_239:\n        /* \"#utility.yul\":29710:29716   */\n      0x00\n        /* \"#utility.yul\":29743:29794   */\n      tag_526\n        /* \"#utility.yul\":29791:29792   */\n      0x00\n        /* \"#utility.yul\":29787:29793   */\n      not\n        /* \"#utility.yul\":29779:29784   */\n      dup5\n        /* \"#utility.yul\":29776:29777   */\n      0x08\n        /* \"#utility.yul\":29772:29785   */\n      mul\n        /* \"#utility.yul\":29743:29794   */\n      tag_238\n      jump\t// in\n    tag_526:\n        /* \"#utility.yul\":29739:29795   */\n      not\n        /* \"#utility.yul\":29824:29828   */\n      dup1\n        /* \"#utility.yul\":29818:29822   */\n      dup4\n        /* \"#utility.yul\":29814:29829   */\n      and\n        /* \"#utility.yul\":29804:29829   */\n      swap2\n      pop\n        /* \"#utility.yul\":29717:29835   */\n      pop\n        /* \"#utility.yul\":29666:29835   */\n      swap3\n      swap2\n      pop\n      pop\n      jump\t// out\n        /* \"#utility.yul\":29840:30135   */\n    tag_240:\n        /* \"#utility.yul\":29916:29920   */\n      0x00\n        /* \"#utility.yul\":30062:30091   */\n      tag_528\n        /* \"#utility.yul\":30087:30090   */\n      dup4\n        /* \"#utility.yul\":30081:30085   */\n      dup4\n        /* \"#utility.yul\":30062:30091   */\n      tag_239\n      jump\t// in\n    tag_528:\n        /* \"#utility.yul\":30054:30091   */\n      swap2\n      pop\n        /* \"#utility.yul\":30124:30127   */\n      dup3\n        /* \"#utility.yul\":30121:30122   */\n      0x02\n        /* \"#utility.yul\":30117:30128   */\n      mul\n        /* \"#utility.yul\":30111:30115   */\n      dup3\n        /* \"#utility.yul\":30108:30129   */\n      or\n        /* \"#utility.yul\":30100:30129   */\n      swap1\n      pop\n        /* \"#utility.yul\":29840:30135   */\n      swap3\n      swap2\n      pop\n      pop\n      jump\t// out\n        /* \"#utility.yul\":30140:31535   */\n    tag_47:\n        /* \"#utility.yul\":30257:30294   */\n      tag_530\n        /* \"#utility.yul\":30290:30293   */\n      dup3\n        /* \"#utility.yul\":30257:30294   */\n      tag_191\n      jump\t// in\n    tag_530:\n        /* \"#utility.yul\":30359:30377   */\n      0xffffffffffffffff\n        /* \"#utility.yul\":30351:30357   */\n      dup2\n        /* \"#utility.yul\":30348:30378   */\n      gt\n        /* \"#utility.yul\":30345:30401   */\n      iszero\n      tag_531\n      jumpi\n        /* \"#utility.yul\":30381:30399   */\n      tag_532\n      tag_178\n      jump\t// in\n    tag_532:\n        /* \"#utility.yul\":30345:30401   */\n    tag_531:\n        /* \"#utility.yul\":30425:30463   */\n      tag_533\n        /* \"#utility.yul\":30457:30461   */\n      dup3\n        /* \"#utility.yul\":30451:30462   */\n      sload\n        /* \"#utility.yul\":30425:30463   */\n      tag_72\n      jump\t// in\n    tag_533:\n        /* \"#utility.yul\":30510:30577   */\n      tag_534\n        /* \"#utility.yul\":30570:30576   */\n      dup3\n        /* \"#utility.yul\":30562:30568   */\n      dup3\n        /* \"#utility.yul\":30556:30560   */\n      dup6\n        /* \"#utility.yul\":30510:30577   */\n      tag_237\n      jump\t// in\n    tag_534:\n        /* \"#utility.yul\":30604:30605   */\n      0x00\n        /* \"#utility.yul\":30628:30632   */\n      0x20\n        /* \"#utility.yul\":30615:30632   */\n      swap1\n      pop\n        /* \"#utility.yul\":30660:30662   */\n      0x1f\n        /* \"#utility.yul\":30652:30658   */\n      dup4\n        /* \"#utility.yul\":30649:30663   */\n      gt\n        /* \"#utility.yul\":30677:30678   */\n      0x01\n        /* \"#utility.yul\":30672:31290   */\n      dup2\n      eq\n      tag_536\n      jumpi\n        /* \"#utility.yul\":31334:31335   */\n      0x00\n        /* \"#utility.yul\":31351:31357   */\n      dup5\n        /* \"#utility.yul\":31348:31425   */\n      iszero\n      tag_537\n      jumpi\n        /* \"#utility.yul\":31400:31409   */\n      dup3\n        /* \"#utility.yul\":31395:31398   */\n      dup8\n        /* \"#utility.yul\":31391:31410   */\n      add\n        /* \"#utility.yul\":31385:31411   */\n      mload\n        /* \"#utility.yul\":31376:31411   */\n      swap1\n      pop\n        /* \"#utility.yul\":31348:31425   */\n    tag_537:\n        /* \"#utility.yul\":31451:31518   */\n      tag_538\n        /* \"#utility.yul\":31511:31517   */\n      dup6\n        /* \"#utility.yul\":31504:31509   */\n      dup3\n        /* \"#utility.yul\":31451:31518   */\n      tag_240\n      jump\t// in\n    tag_538:\n        /* \"#utility.yul\":31445:31449   */\n      dup7\n        /* \"#utility.yul\":31438:31519   */\n      sstore\n        /* \"#utility.yul\":31307:31529   */\n      pop\n        /* \"#utility.yul\":30642:31529   */\n      jump(tag_535)\n        /* \"#utility.yul\":30672:31290   */\n    tag_536:\n        /* \"#utility.yul\":30724:30728   */\n      0x1f\n        /* \"#utility.yul\":30720:30729   */\n      not\n        /* \"#utility.yul\":30712:30718   */\n      dup5\n        /* \"#utility.yul\":30708:30730   */\n      and\n        /* \"#utility.yul\":30758:30795   */\n      tag_539\n        /* \"#utility.yul\":30790:30794   */\n      dup7\n        /* \"#utility.yul\":30758:30795   */\n      tag_226\n      jump\t// in\n    tag_539:\n        /* \"#utility.yul\":30817:30818   */\n      0x00\n        /* \"#utility.yul\":30831:31039   */\n    tag_540:\n        /* \"#utility.yul\":30845:30852   */\n      dup3\n        /* \"#utility.yul\":30842:30843   */\n      dup2\n        /* \"#utility.yul\":30839:30853   */\n      lt\n        /* \"#utility.yul\":30831:31039   */\n      iszero\n      tag_542\n      jumpi\n        /* \"#utility.yul\":30924:30933   */\n      dup5\n        /* \"#utility.yul\":30919:30922   */\n      dup10\n        /* \"#utility.yul\":30915:30934   */\n      add\n        /* \"#utility.yul\":30909:30935   */\n      mload\n        /* \"#utility.yul\":30901:30907   */\n      dup3\n        /* \"#utility.yul\":30894:30936   */\n      sstore\n        /* \"#utility.yul\":30975:30976   */\n      0x01\n        /* \"#utility.yul\":30967:30973   */\n      dup3\n        /* \"#utility.yul\":30963:30977   */\n      add\n        /* \"#utility.yul\":30953:30977   */\n      swap2\n      pop\n        /* \"#utility.yul\":31022:31024   */\n      0x20\n        /* \"#utility.yul\":31011:31020   */\n      dup6\n        /* \"#utility.yul\":31007:31025   */\n      add\n        /* \"#utility.yul\":30994:31025   */\n      swap5\n      pop\n        /* \"#utility.yul\":30868:30872   */\n      0x20\n        /* \"#utility.yul\":30865:30866   */\n      dup2\n        /* \"#utility.yul\":30861:30873   */\n      add\n        /* \"#utility.yul\":30856:30873   */\n      swap1\n      pop\n        /* \"#utility.yul\":30831:31039   */\n      jump(tag_540)\n    tag_542:\n        /* \"#utility.yul\":31067:31073   */\n      dup7\n        /* \"#utility.yul\":31058:31065   */\n      dup4\n        /* \"#utility.yul\":31055:31074   */\n      lt\n        /* \"#utility.yul\":31052:31231   */\n      iszero\n      tag_543\n      jumpi\n        /* \"#utility.yul\":31125:31134   */\n      dup5\n        /* \"#utility.yul\":31120:31123   */\n      dup10\n        /* \"#utility.yul\":31116:31135   */\n      add\n        /* \"#utility.yul\":31110:31136   */\n      mload\n        /* \"#utility.yul\":31168:31216   */\n      tag_544\n        /* \"#utility.yul\":31210:31214   */\n      0x1f\n        /* \"#utility.yul\":31202:31208   */\n      dup10\n        /* \"#utility.yul\":31198:31215   */\n      and\n        /* \"#utility.yul\":31187:31196   */\n      dup3\n        /* \"#utility.yul\":31168:31216   */\n      tag_239\n      jump\t// in\n    tag_544:\n        /* \"#utility.yul\":31160:31166   */\n      dup4\n        /* \"#utility.yul\":31153:31217   */\n      sstore\n        /* \"#utility.yul\":31075:31231   */\n      pop\n        /* \"#utility.yul\":31052:31231   */\n    tag_543:\n        /* \"#utility.yul\":31277:31278   */\n      0x01\n        /* \"#utility.yul\":31273:31274   */\n      0x02\n        /* \"#utility.yul\":31265:31271   */\n      dup9\n        /* \"#utility.yul\":31261:31275   */\n      mul\n        /* \"#utility.yul\":31257:31279   */\n      add\n        /* \"#utility.yul\":31251:31255   */\n      dup9\n        /* \"#utility.yul\":31244:31280   */\n      sstore\n        /* \"#utility.yul\":30679:31290   */\n      pop\n      pop\n      pop\n        /* \"#utility.yul\":30642:31529   */\n    tag_535:\n      pop\n        /* \"#utility.yul\":30232:31535   */\n      pop\n      pop\n      pop\n        /* \"#utility.yul\":30140:31535   */\n      pop\n      pop\n      jump\t// out\n        /* \"#utility.yul\":31541:31721   */\n    tag_241:\n        /* \"#utility.yul\":31589:31666   */\n      0x4e487b7100000000000000000000000000000000000000000000000000000000\n        /* \"#utility.yul\":31586:31587   */\n      0x00\n        /* \"#utility.yul\":31579:31667   */\n      mstore\n        /* \"#utility.yul\":31686:31690   */\n      0x11\n        /* \"#utility.yul\":31683:31684   */\n      0x04\n        /* \"#utility.yul\":31676:31691   */\n      mstore\n        /* \"#utility.yul\":31710:31714   */\n      0x24\n        /* \"#utility.yul\":31707:31708   */\n      0x00\n        /* \"#utility.yul\":31700:31715   */\n      revert\n        /* \"#utility.yul\":31727:31960   */\n    tag_68:\n        /* \"#utility.yul\":31766:31769   */\n      0x00\n        /* \"#utility.yul\":31789:31813   */\n      tag_547\n        /* \"#utility.yul\":31807:31812   */\n      dup3\n        /* \"#utility.yul\":31789:31813   */\n      tag_185\n      jump\t// in\n    tag_547:\n        /* \"#utility.yul\":31780:31813   */\n      swap2\n      pop\n        /* \"#utility.yul\":31835:31901   */\n      0xffffffffffffffffffffffffffffffffffffffffffffffffffffffffffffffff\n        /* \"#utility.yul\":31828:31833   */\n      dup3\n        /* \"#utility.yul\":31825:31902   */\n      sub\n        /* \"#utility.yul\":31822:31925   */\n      tag_548\n      jumpi\n        /* \"#utility.yul\":31905:31923   */\n      tag_549\n      tag_241\n      jump\t// in\n    tag_549:\n        /* \"#utility.yul\":31822:31925   */\n    tag_548:\n        /* \"#utility.yul\":31952:31953   */\n      0x01\n        /* \"#utility.yul\":31945:31950   */\n      dup3\n        /* \"#utility.yul\":31941:31954   */\n      add\n        /* \"#utility.yul\":31934:31954   */\n      swap1\n      pop\n        /* \"#utility.yul\":31727:31960   */\n      swap2\n      swap1\n      pop\n      jump\t// out\n        /* \"#utility.yul\":31966:32201   */\n    tag_242:\n        /* \"#utility.yul\":32106:32140   */\n      0x4f6e6c7920617574686f72697a656420646f63746f72732063616e2061636365\n        /* \"#utility.yul\":32102:32103   */\n      0x00\n        /* \"#utility.yul\":32094:32100   */\n      dup3\n        /* \"#utility.yul\":32090:32104   */\n      add\n        /* \"#utility.yul\":32083:32141   */\n      mstore\n        /* \"#utility.yul\":32175:32193   */\n      0x737320746869732066756e6374696f6e00000000000000000000000000000000\n        /* \"#utility.yul\":32170:32172   */\n      0x20\n        /* \"#utility.yul\":32162:32168   */\n      dup3\n        /* \"#utility.yul\":32158:32173   */\n      add\n        /* \"#utility.yul\":32151:32194   */\n      mstore\n        /* \"#utility.yul\":31966:32201   */\n      pop\n      jump\t// out\n        /* \"#utility.yul\":32207:32573   */\n    tag_243:\n        /* \"#utility.yul\":32349:32352   */\n      0x00\n        /* \"#utility.yul\":32370:32437   */\n      tag_552\n        /* \"#utility.yul\":32434:32436   */\n      0x30\n        /* \"#utility.yul\":32429:32432   */\n      dup4\n        /* \"#utility.yul\":32370:32437   */\n      tag_192\n      jump\t// in\n    tag_552:\n        /* \"#utility.yul\":32363:32437   */\n      swap2\n      pop\n        /* \"#utility.yul\":32446:32539   */\n      tag_553\n        /* \"#utility.yul\":32535:32538   */\n      dup3\n        /* \"#utility.yul\":32446:32539   */\n      tag_242\n      jump\t// in\n    tag_553:\n        /* \"#utility.yul\":32564:32566   */\n      0x40\n        /* \"#utility.yul\":32559:32562   */\n      dup3\n        /* \"#utility.yul\":32555:32567   */\n      add\n        /* \"#utility.yul\":32548:32567   */\n      swap1\n      pop\n        /* \"#utility.yul\":32207:32573   */\n      swap2\n      swap1\n      pop\n      jump\t// out\n        /* \"#utility.yul\":32579:32998   */\n    tag_148:\n        /* \"#utility.yul\":32745:32749   */\n      0x00\n        /* \"#utility.yul\":32783:32785   */\n      0x20\n        /* \"#utility.yul\":32772:32781   */\n      dup3\n        /* \"#utility.yul\":32768:32786   */\n      add\n        /* \"#utility.yul\":32760:32786   */\n      swap1\n      pop\n        /* \"#utility.yul\":32832:32841   */\n      dup2\n        /* \"#utility.yul\":32826:32830   */\n      dup2\n        /* \"#utility.yul\":32822:32842   */\n      sub\n        /* \"#utility.yul\":32818:32819   */\n      0x00\n        /* \"#utility.yul\":32807:32816   */\n      dup4\n        /* \"#utility.yul\":32803:32820   */\n      add\n        /* \"#utility.yul\":32796:32843   */\n      mstore\n        /* \"#utility.yul\":32860:32991   */\n      tag_555\n        /* \"#utility.yul\":32986:32990   */\n      dup2\n        /* \"#utility.yul\":32860:32991   */\n      tag_243\n      jump\t// in\n    tag_555:\n        /* \"#utility.yul\":32852:32991   */\n      swap1\n      pop\n        /* \"#utility.yul\":32579:32998   */\n      swap2\n      swap1\n      pop\n      jump\t// out\n\n    auxdata: 0xa264697066735822122079051890f6b2415612223693977fd622ef2a1394e4efde949987abebc763082a64736f6c63430008120033\n}\n",
				"bytecode": {
					"linkReferences": {},
					"object": "608060405234801561001057600080fd5b506120a6806100206000396000f3fe608060405234801561001057600080fd5b506004361061007d5760003560e01c8063545060481161005b57806354506048146100d657806368cdafb3146100f25780636df36bc61461012957806375b39e2b1461015b5761007d565b806316c11d68146100825780631f56c50a1461009e5780633276a2ac146100ba575b600080fd5b61009c600480360381019061009791906111a7565b610177565b005b6100b860048036038101906100b391906112d5565b61027d565b005b6100d460048036038101906100cf91906113dc565b6103bd565b005b6100f060048036038101906100eb91906114c7565b610438565b005b61010c6004803603810190610107919061156e565b6104dd565b6040516101209897969594939291906118bc565b60405180910390f35b610143600480360381019061013e919061156e565b610ae3565b60405161015293929190611a2d565b60405180910390f35b61017560048036038101906101709190611b5f565b610d9d565b005b6001876040516101879190611c72565b90815260200160405180910390206009016040518060c00160405280888152602001878152602001868152602001858152602001848152602001831515815250908060018154018082558091505060019003906000526020600020906006020160009091909190915060008201518160000190816102059190611e95565b50602082015181600101908161021b9190611e95565b5060408201518160020155606082015181600301908161023b9190611e95565b5060808201518160040190816102519190611e95565b5060a08201518160050160006101000a81548160ff021916908315150217905550505050505050505050565b6040518060c001604052803373ffffffffffffffffffffffffffffffffffffffff168152602001868152602001858152602001848152602001838152602001828152506000803373ffffffffffffffffffffffffffffffffffffffff1673ffffffffffffffffffffffffffffffffffffffff16815260200190815260200160002060008201518160000160006101000a81548173ffffffffffffffffffffffffffffffffffffffff021916908373ffffffffffffffffffffffffffffffffffffffff160217905550602082015181600101908161035a9190611e95565b5060408201518160020190816103709190611e95565b5060608201518160030190816103869190611e95565b50608082015181600401908161039c9190611e95565b5060a08201518160050190816103b29190611e95565b509050505050505050565b60006001856040516103cf9190611c72565b90815260200160405180910390209050858160000190816103f09190611e95565b50848160010190816104029190611e95565b508381600201819055508281600701908161041d9190611e95565b508181600801908161042f9190611e95565b50505050505050565b600060018460405161044a9190611c72565b9081526020016040518091039020905060008160060154905060405180604001604052808581526020018481525082600501600083815260200190815260200160002060008201518160000190816104a29190611e95565b5060208201518160010190816104b89190611e95565b509050508160060160008154809291906104d190611f96565b91905055505050505050565b60608060006060806060806060600060018a6040516104fc9190611c72565b9081526020016040518091039020905080600001816001018260020154836003018460040185600701866008018760090187805461053990611cb8565b80601f016020809104026020016040519081016040528092919081815260200182805461056590611cb8565b80156105b25780601f10610587576101008083540402835291602001916105b2565b820191906000526020600020905b81548152906001019060200180831161059557829003601f168201915b505050505097508680546105c590611cb8565b80601f01602080910402602001604051908101604052809291908181526020018280546105f190611cb8565b801561063e5780601f106106135761010080835404028352916020019161063e565b820191906000526020600020905b81548152906001019060200180831161062157829003601f168201915b505050505096508480548060200260200160405190810160405280929190818152602001828054801561069057602002820191906000526020600020905b81548152602001906001019080831161067c575b50505050509450838054806020026020016040519081016040528092919081815260200182805480156106e257602002820191906000526020600020905b8154815260200190600101908083116106ce575b505050505093508280546106f590611cb8565b80601f016020809104026020016040519081016040528092919081815260200182805461072190611cb8565b801561076e5780601f106107435761010080835404028352916020019161076e565b820191906000526020600020905b81548152906001019060200180831161075157829003601f168201915b5050505050925081805461078190611cb8565b80601f01602080910402602001604051908101604052809291908181526020018280546107ad90611cb8565b80156107fa5780601f106107cf576101008083540402835291602001916107fa565b820191906000526020600020905b8154815290600101906020018083116107dd57829003601f168201915b5050505050915080805480602002602001604051908101604052809291908181526020016000905b82821015610ac157838290600052602060002090600602016040518060c001604052908160008201805461085590611cb8565b80601f016020809104026020016040519081016040528092919081815260200182805461088190611cb8565b80156108ce5780601f106108a3576101008083540402835291602001916108ce565b820191906000526020600020905b8154815290600101906020018083116108b157829003601f168201915b505050505081526020016001820180546108e790611cb8565b80601f016020809104026020016040519081016040528092919081815260200182805461091390611cb8565b80156109605780601f1061093557610100808354040283529160200191610960565b820191906000526020600020905b81548152906001019060200180831161094357829003601f168201915b505050505081526020016002820154815260200160038201805461098390611cb8565b80601f01602080910402602001604051908101604052809291908181526020018280546109af90611cb8565b80156109fc5780601f106109d1576101008083540402835291602001916109fc565b820191906000526020600020905b8154815290600101906020018083116109df57829003601f168201915b50505050508152602001600482018054610a1590611cb8565b80601f0160208091040260200160405190810160405280929190818152602001828054610a4190611cb8565b8015610a8e5780601f10610a6357610100808354040283529160200191610a8e565b820191906000526020600020905b815481529060010190602001808311610a7157829003601f168201915b505050505081526020016005820160009054906101000a900460ff16151515158152505081526020019060010190610822565b5050505090509850985098509850985098509850985050919395975091939597565b60608060606000600285604051610afa9190611c72565b9081526020016040518091039020905080600001816001018260020182805480602002602001604051908101604052809291908181526020016000905b82821015610be3578382906000526020600020018054610b5690611cb8565b80601f0160208091040260200160405190810160405280929190818152602001828054610b8290611cb8565b8015610bcf5780601f10610ba457610100808354040283529160200191610bcf565b820191906000526020600020905b815481529060010190602001808311610bb257829003601f168201915b505050505081526020019060010190610b37565b50505050925081805480602002602001604051908101604052809291908181526020016000905b82821015610cb6578382906000526020600020018054610c2990611cb8565b80601f0160208091040260200160405190810160405280929190818152602001828054610c5590611cb8565b8015610ca25780601f10610c7757610100808354040283529160200191610ca2565b820191906000526020600020905b815481529060010190602001808311610c8557829003601f168201915b505050505081526020019060010190610c0a565b50505050915080805480602002602001604051908101604052809291908181526020016000905b82821015610d89578382906000526020600020018054610cfc90611cb8565b80601f0160208091040260200160405190810160405280929190818152602001828054610d2890611cb8565b8015610d755780601f10610d4a57610100808354040283529160200191610d75565b820191906000526020600020905b815481529060010190602001808311610d5857829003601f168201915b505050505081526020019060010190610cdd565b505050509050935093509350509193909250565b3373ffffffffffffffffffffffffffffffffffffffff166000803373ffffffffffffffffffffffffffffffffffffffff1673ffffffffffffffffffffffffffffffffffffffff16815260200190815260200160002060000160009054906101000a900473ffffffffffffffffffffffffffffffffffffffff1673ffffffffffffffffffffffffffffffffffffffff1614610e6c576040517f08c379a0000000000000000000000000000000000000000000000000000000008152600401610e6390612050565b60405180910390fd5b604051806060016040528084815260200183815260200182815250600285604051610e979190611c72565b90815260200160405180910390206000820151816000019080519060200190610ec1929190610f05565b506020820151816001019080519060200190610ede929190610f05565b506040820151816002019080519060200190610efb929190610f05565b5090505050505050565b828054828255906000526020600020908101928215610f4d579160200282015b82811115610f4c578251829081610f3c9190611e95565b5091602001919060010190610f25565b5b509050610f5a9190610f5e565b5090565b5b80821115610f7e5760008181610f759190610f82565b50600101610f5f565b5090565b508054610f8e90611cb8565b6000825580601f10610fa05750610fbf565b601f016020900490600052602060002090810190610fbe9190610fc2565b5b50565b5b80821115610fdb576000816000905550600101610fc3565b5090565b6000604051905090565b600080fd5b600080fd5b600080fd5b600080fd5b6000601f19601f8301169050919050565b7f4e487b7100000000000000000000000000000000000000000000000000000000600052604160045260246000fd5b61104682610ffd565b810181811067ffffffffffffffff821117156110655761106461100e565b5b80604052505050565b6000611078610fdf565b9050611084828261103d565b919050565b600067ffffffffffffffff8211156110a4576110a361100e565b5b6110ad82610ffd565b9050602081019050919050565b82818337600083830152505050565b60006110dc6110d784611089565b61106e565b9050828152602081018484840111156110f8576110f7610ff8565b5b6111038482856110ba565b509392505050565b600082601f8301126111205761111f610ff3565b5b81356111308482602086016110c9565b91505092915050565b6000819050919050565b61114c81611139565b811461115757600080fd5b50565b60008135905061116981611143565b92915050565b60008115159050919050565b6111848161116f565b811461118f57600080fd5b50565b6000813590506111a18161117b565b92915050565b600080600080600080600060e0888a0312156111c6576111c5610fe9565b5b600088013567ffffffffffffffff8111156111e4576111e3610fee565b5b6111f08a828b0161110b565b975050602088013567ffffffffffffffff81111561121157611210610fee565b5b61121d8a828b0161110b565b965050604088013567ffffffffffffffff81111561123e5761123d610fee565b5b61124a8a828b0161110b565b955050606061125b8a828b0161115a565b945050608088013567ffffffffffffffff81111561127c5761127b610fee565b5b6112888a828b0161110b565b93505060a088013567ffffffffffffffff8111156112a9576112a8610fee565b5b6112b58a828b0161110b565b92505060c06112c68a828b01611192565b91505092959891949750929550565b600080600080600060a086880312156112f1576112f0610fe9565b5b600086013567ffffffffffffffff81111561130f5761130e610fee565b5b61131b8882890161110b565b955050602086013567ffffffffffffffff81111561133c5761133b610fee565b5b6113488882890161110b565b945050604086013567ffffffffffffffff81111561136957611368610fee565b5b6113758882890161110b565b935050606086013567ffffffffffffffff81111561139657611395610fee565b5b6113a28882890161110b565b925050608086013567ffffffffffffffff8111156113c3576113c2610fee565b5b6113cf8882890161110b565b9150509295509295909350565b600080600080600060a086880312156113f8576113f7610fe9565b5b600086013567ffffffffffffffff81111561141657611415610fee565b5b6114228882890161110b565b955050602086013567ffffffffffffffff81111561144357611442610fee565b5b61144f8882890161110b565b94505060406114608882890161115a565b935050606086013567ffffffffffffffff81111561148157611480610fee565b5b61148d8882890161110b565b925050608086013567ffffffffffffffff8111156114ae576114ad610fee565b5b6114ba8882890161110b565b9150509295509295909350565b6000806000606084860312156114e0576114df610fe9565b5b600084013567ffffffffffffffff8111156114fe576114fd610fee565b5b61150a8682870161110b565b935050602084013567ffffffffffffffff81111561152b5761152a610fee565b5b6115378682870161110b565b925050604084013567ffffffffffffffff81111561155857611557610fee565b5b6115648682870161110b565b9150509250925092565b60006020828403121561158457611583610fe9565b5b600082013567ffffffffffffffff8111156115a2576115a1610fee565b5b6115ae8482850161110b565b91505092915050565b600081519050919050565b600082825260208201905092915050565b60005b838110156115f15780820151818401526020810190506115d6565b60008484015250505050565b6000611608826115b7565b61161281856115c2565b93506116228185602086016115d3565b61162b81610ffd565b840191505092915050565b61163f81611139565b82525050565b600081519050919050565b600082825260208201905092915050565b6000819050602082019050919050565b61167a81611139565b82525050565b600061168c8383611671565b60208301905092915050565b6000602082019050919050565b60006116b082611645565b6116ba8185611650565b93506116c583611661565b8060005b838110156116f65781516116dd8882611680565b97506116e883611698565b9250506001810190506116c9565b5085935050505092915050565b600081519050919050565b600082825260208201905092915050565b6000819050602082019050919050565b600082825260208201905092915050565b600061174b826115b7565b611755818561172f565b93506117658185602086016115d3565b61176e81610ffd565b840191505092915050565b6117828161116f565b82525050565b600060c08301600083015184820360008601526117a58282611740565b915050602083015184820360208601526117bf8282611740565b91505060408301516117d46040860182611671565b50606083015184820360608601526117ec8282611740565b915050608083015184820360808601526118068282611740565b91505060a083015161181b60a0860182611779565b508091505092915050565b60006118328383611788565b905092915050565b6000602082019050919050565b600061185282611703565b61185c818561170e565b93508360208202850161186e8561171f565b8060005b858110156118aa578484038952815161188b8582611826565b94506118968361183a565b925060208a01995050600181019050611872565b50829750879550505050505092915050565b60006101008201905081810360008301526118d7818b6115fd565b905081810360208301526118eb818a6115fd565b90506118fa6040830189611636565b818103606083015261190c81886116a5565b9050818103608083015261192081876116a5565b905081810360a083015261193481866115fd565b905081810360c083015261194881856115fd565b905081810360e083015261195c8184611847565b90509998505050505050505050565b600081519050919050565b600082825260208201905092915050565b6000819050602082019050919050565b60006119a38383611740565b905092915050565b6000602082019050919050565b60006119c38261196b565b6119cd8185611976565b9350836020820285016119df85611987565b8060005b85811015611a1b57848403895281516119fc8582611997565b9450611a07836119ab565b925060208a019950506001810190506119e3565b50829750879550505050505092915050565b60006060820190508181036000830152611a4781866119b8565b90508181036020830152611a5b81856119b8565b90508181036040830152611a6f81846119b8565b9050949350505050565b600067ffffffffffffffff821115611a9457611a9361100e565b5b602082029050602081019050919050565b600080fd5b6000611abd611ab884611a79565b61106e565b90508083825260208201905060208402830185811115611ae057611adf611aa5565b5b835b81811015611b2757803567ffffffffffffffff811115611b0557611b04610ff3565b5b808601611b12898261110b565b85526020850194505050602081019050611ae2565b5050509392505050565b600082601f830112611b4657611b45610ff3565b5b8135611b56848260208601611aaa565b91505092915050565b60008060008060808587031215611b7957611b78610fe9565b5b600085013567ffffffffffffffff811115611b9757611b96610fee565b5b611ba38782880161110b565b945050602085013567ffffffffffffffff811115611bc457611bc3610fee565b5b611bd087828801611b31565b935050604085013567ffffffffffffffff811115611bf157611bf0610fee565b5b611bfd87828801611b31565b925050606085013567ffffffffffffffff811115611c1e57611c1d610fee565b5b611c2a87828801611b31565b91505092959194509250565b600081905092915050565b6000611c4c826115b7565b611c568185611c36565b9350611c668185602086016115d3565b80840191505092915050565b6000611c7e8284611c41565b915081905092915050565b7f4e487b7100000000000000000000000000000000000000000000000000000000600052602260045260246000fd5b60006002820490506001821680611cd057607f821691505b602082108103611ce357611ce2611c89565b5b50919050565b60008190508160005260206000209050919050565b60006020601f8301049050919050565b600082821b905092915050565b600060088302611d4b7fffffffffffffffffffffffffffffffffffffffffffffffffffffffffffffffff82611d0e565b611d558683611d0e565b95508019841693508086168417925050509392505050565b6000819050919050565b6000611d92611d8d611d8884611139565b611d6d565b611139565b9050919050565b6000819050919050565b611dac83611d77565b611dc0611db882611d99565b848454611d1b565b825550505050565b600090565b611dd5611dc8565b611de0818484611da3565b505050565b5b81811015611e0457611df9600082611dcd565b600181019050611de6565b5050565b601f821115611e4957611e1a81611ce9565b611e2384611cfe565b81016020851015611e32578190505b611e46611e3e85611cfe565b830182611de5565b50505b505050565b600082821c905092915050565b6000611e6c60001984600802611e4e565b1980831691505092915050565b6000611e858383611e5b565b9150826002028217905092915050565b611e9e826115b7565b67ffffffffffffffff811115611eb757611eb661100e565b5b611ec18254611cb8565b611ecc828285611e08565b600060209050601f831160018114611eff5760008415611eed578287015190505b611ef78582611e79565b865550611f5f565b601f198416611f0d86611ce9565b60005b82811015611f3557848901518255600182019150602085019450602081019050611f10565b86831015611f525784890151611f4e601f891682611e5b565b8355505b6001600288020188555050505b505050505050565b7f4e487b7100000000000000000000000000000000000000000000000000000000600052601160045260246000fd5b6000611fa182611139565b91507fffffffffffffffffffffffffffffffffffffffffffffffffffffffffffffffff8203611fd357611fd2611f67565b5b600182019050919050565b7f4f6e6c7920617574686f72697a656420646f63746f72732063616e206163636560008201527f737320746869732066756e6374696f6e00000000000000000000000000000000602082015250565b600061203a6030836115c2565b915061204582611fde565b604082019050919050565b600060208201905081810360008301526120698161202d565b905091905056fea264697066735822122079051890f6b2415612223693977fd622ef2a1394e4efde949987abebc763082a64736f6c63430008120033",
					"opcodes": "PUSH1 0x80 PUSH1 0x40 MSTORE CALLVALUE DUP1 ISZERO PUSH2 0x10 JUMPI PUSH1 0x0 DUP1 REVERT JUMPDEST POP PUSH2 0x20A6 DUP1 PUSH2 0x20 PUSH1 0x0 CODECOPY PUSH1 0x0 RETURN INVALID PUSH1 0x80 PUSH1 0x40 MSTORE CALLVALUE DUP1 ISZERO PUSH2 0x10 JUMPI PUSH1 0x0 DUP1 REVERT JUMPDEST POP PUSH1 0x4 CALLDATASIZE LT PUSH2 0x7D JUMPI PUSH1 0x0 CALLDATALOAD PUSH1 0xE0 SHR DUP1 PUSH4 0x54506048 GT PUSH2 0x5B JUMPI DUP1 PUSH4 0x54506048 EQ PUSH2 0xD6 JUMPI DUP1 PUSH4 0x68CDAFB3 EQ PUSH2 0xF2 JUMPI DUP1 PUSH4 0x6DF36BC6 EQ PUSH2 0x129 JUMPI DUP1 PUSH4 0x75B39E2B EQ PUSH2 0x15B JUMPI PUSH2 0x7D JUMP JUMPDEST DUP1 PUSH4 0x16C11D68 EQ PUSH2 0x82 JUMPI DUP1 PUSH4 0x1F56C50A EQ PUSH2 0x9E JUMPI DUP1 PUSH4 0x3276A2AC EQ PUSH2 0xBA JUMPI JUMPDEST PUSH1 0x0 DUP1 REVERT JUMPDEST PUSH2 0x9C PUSH1 0x4 DUP1 CALLDATASIZE SUB DUP2 ADD SWAP1 PUSH2 0x97 SWAP2 SWAP1 PUSH2 0x11A7 JUMP JUMPDEST PUSH2 0x177 JUMP JUMPDEST STOP JUMPDEST PUSH2 0xB8 PUSH1 0x4 DUP1 CALLDATASIZE SUB DUP2 ADD SWAP1 PUSH2 0xB3 SWAP2 SWAP1 PUSH2 0x12D5 JUMP JUMPDEST PUSH2 0x27D JUMP JUMPDEST STOP JUMPDEST PUSH2 0xD4 PUSH1 0x4 DUP1 CALLDATASIZE SUB DUP2 ADD SWAP1 PUSH2 0xCF SWAP2 SWAP1 PUSH2 0x13DC JUMP JUMPDEST PUSH2 0x3BD JUMP JUMPDEST STOP JUMPDEST PUSH2 0xF0 PUSH1 0x4 DUP1 CALLDATASIZE SUB DUP2 ADD SWAP1 PUSH2 0xEB SWAP2 SWAP1 PUSH2 0x14C7 JUMP JUMPDEST PUSH2 0x438 JUMP JUMPDEST STOP JUMPDEST PUSH2 0x10C PUSH1 0x4 DUP1 CALLDATASIZE SUB DUP2 ADD SWAP1 PUSH2 0x107 SWAP2 SWAP1 PUSH2 0x156E JUMP JUMPDEST PUSH2 0x4DD JUMP JUMPDEST PUSH1 0x40 MLOAD PUSH2 0x120 SWAP9 SWAP8 SWAP7 SWAP6 SWAP5 SWAP4 SWAP3 SWAP2 SWAP1 PUSH2 0x18BC JUMP JUMPDEST PUSH1 0x40 MLOAD DUP1 SWAP2 SUB SWAP1 RETURN JUMPDEST PUSH2 0x143 PUSH1 0x4 DUP1 CALLDATASIZE SUB DUP2 ADD SWAP1 PUSH2 0x13E SWAP2 SWAP1 PUSH2 0x156E JUMP JUMPDEST PUSH2 0xAE3 JUMP JUMPDEST PUSH1 0x40 MLOAD PUSH2 0x152 SWAP4 SWAP3 SWAP2 SWAP1 PUSH2 0x1A2D JUMP JUMPDEST PUSH1 0x40 MLOAD DUP1 SWAP2 SUB SWAP1 RETURN JUMPDEST PUSH2 0x175 PUSH1 0x4 DUP1 CALLDATASIZE SUB DUP2 ADD SWAP1 PUSH2 0x170 SWAP2 SWAP1 PUSH2 0x1B5F JUMP JUMPDEST PUSH2 0xD9D JUMP JUMPDEST STOP JUMPDEST PUSH1 0x1 DUP8 PUSH1 0x40 MLOAD PUSH2 0x187 SWAP2 SWAP1 PUSH2 0x1C72 JUMP JUMPDEST SWAP1 DUP2 MSTORE PUSH1 0x20 ADD PUSH1 0x40 MLOAD DUP1 SWAP2 SUB SWAP1 KECCAK256 PUSH1 0x9 ADD PUSH1 0x40 MLOAD DUP1 PUSH1 0xC0 ADD PUSH1 0x40 MSTORE DUP1 DUP9 DUP2 MSTORE PUSH1 0x20 ADD DUP8 DUP2 MSTORE PUSH1 0x20 ADD DUP7 DUP2 MSTORE PUSH1 0x20 ADD DUP6 DUP2 MSTORE PUSH1 0x20 ADD DUP5 DUP2 MSTORE PUSH1 0x20 ADD DUP4 ISZERO ISZERO DUP2 MSTORE POP SWAP1 DUP1 PUSH1 0x1 DUP2 SLOAD ADD DUP1 DUP3 SSTORE DUP1 SWAP2 POP POP PUSH1 0x1 SWAP1 SUB SWAP1 PUSH1 0x0 MSTORE PUSH1 0x20 PUSH1 0x0 KECCAK256 SWAP1 PUSH1 0x6 MUL ADD PUSH1 0x0 SWAP1 SWAP2 SWAP1 SWAP2 SWAP1 SWAP2 POP PUSH1 0x0 DUP3 ADD MLOAD DUP2 PUSH1 0x0 ADD SWAP1 DUP2 PUSH2 0x205 SWAP2 SWAP1 PUSH2 0x1E95 JUMP JUMPDEST POP PUSH1 0x20 DUP3 ADD MLOAD DUP2 PUSH1 0x1 ADD SWAP1 DUP2 PUSH2 0x21B SWAP2 SWAP1 PUSH2 0x1E95 JUMP JUMPDEST POP PUSH1 0x40 DUP3 ADD MLOAD DUP2 PUSH1 0x2 ADD SSTORE PUSH1 0x60 DUP3 ADD MLOAD DUP2 PUSH1 0x3 ADD SWAP1 DUP2 PUSH2 0x23B SWAP2 SWAP1 PUSH2 0x1E95 JUMP JUMPDEST POP PUSH1 0x80 DUP3 ADD MLOAD DUP2 PUSH1 0x4 ADD SWAP1 DUP2 PUSH2 0x251 SWAP2 SWAP1 PUSH2 0x1E95 JUMP JUMPDEST POP PUSH1 0xA0 DUP3 ADD MLOAD DUP2 PUSH1 0x5 ADD PUSH1 0x0 PUSH2 0x100 EXP DUP2 SLOAD DUP2 PUSH1 0xFF MUL NOT AND SWAP1 DUP4 ISZERO ISZERO MUL OR SWAP1 SSTORE POP POP POP POP POP POP POP POP POP POP JUMP JUMPDEST PUSH1 0x40 MLOAD DUP1 PUSH1 0xC0 ADD PUSH1 0x40 MSTORE DUP1 CALLER PUSH20 0xFFFFFFFFFFFFFFFFFFFFFFFFFFFFFFFFFFFFFFFF AND DUP2 MSTORE PUSH1 0x20 ADD DUP7 DUP2 MSTORE PUSH1 0x20 ADD DUP6 DUP2 MSTORE PUSH1 0x20 ADD DUP5 DUP2 MSTORE PUSH1 0x20 ADD DUP4 DUP2 MSTORE PUSH1 0x20 ADD DUP3 DUP2 MSTORE POP PUSH1 0x0 DUP1 CALLER PUSH20 0xFFFFFFFFFFFFFFFFFFFFFFFFFFFFFFFFFFFFFFFF AND PUSH20 0xFFFFFFFFFFFFFFFFFFFFFFFFFFFFFFFFFFFFFFFF AND DUP2 MSTORE PUSH1 0x20 ADD SWAP1 DUP2 MSTORE PUSH1 0x20 ADD PUSH1 0x0 KECCAK256 PUSH1 0x0 DUP3 ADD MLOAD DUP2 PUSH1 0x0 ADD PUSH1 0x0 PUSH2 0x100 EXP DUP2 SLOAD DUP2 PUSH20 0xFFFFFFFFFFFFFFFFFFFFFFFFFFFFFFFFFFFFFFFF MUL NOT AND SWAP1 DUP4 PUSH20 0xFFFFFFFFFFFFFFFFFFFFFFFFFFFFFFFFFFFFFFFF AND MUL OR SWAP1 SSTORE POP PUSH1 0x20 DUP3 ADD MLOAD DUP2 PUSH1 0x1 ADD SWAP1 DUP2 PUSH2 0x35A SWAP2 SWAP1 PUSH2 0x1E95 JUMP JUMPDEST POP PUSH1 0x40 DUP3 ADD MLOAD DUP2 PUSH1 0x2 ADD SWAP1 DUP2 PUSH2 0x370 SWAP2 SWAP1 PUSH2 0x1E95 JUMP JUMPDEST POP PUSH1 0x60 DUP3 ADD MLOAD DUP2 PUSH1 0x3 ADD SWAP1 DUP2 PUSH2 0x386 SWAP2 SWAP1 PUSH2 0x1E95 JUMP JUMPDEST POP PUSH1 0x80 DUP3 ADD MLOAD DUP2 PUSH1 0x4 ADD SWAP1 DUP2 PUSH2 0x39C SWAP2 SWAP1 PUSH2 0x1E95 JUMP JUMPDEST POP PUSH1 0xA0 DUP3 ADD MLOAD DUP2 PUSH1 0x5 ADD SWAP1 DUP2 PUSH2 0x3B2 SWAP2 SWAP1 PUSH2 0x1E95 JUMP JUMPDEST POP SWAP1 POP POP POP POP POP POP POP JUMP JUMPDEST PUSH1 0x0 PUSH1 0x1 DUP6 PUSH1 0x40 MLOAD PUSH2 0x3CF SWAP2 SWAP1 PUSH2 0x1C72 JUMP JUMPDEST SWAP1 DUP2 MSTORE PUSH1 0x20 ADD PUSH1 0x40 MLOAD DUP1 SWAP2 SUB SWAP1 KECCAK256 SWAP1 POP DUP6 DUP2 PUSH1 0x0 ADD SWAP1 DUP2 PUSH2 0x3F0 SWAP2 SWAP1 PUSH2 0x1E95 JUMP JUMPDEST POP DUP5 DUP2 PUSH1 0x1 ADD SWAP1 DUP2 PUSH2 0x402 SWAP2 SWAP1 PUSH2 0x1E95 JUMP JUMPDEST POP DUP4 DUP2 PUSH1 0x2 ADD DUP2 SWAP1 SSTORE POP DUP3 DUP2 PUSH1 0x7 ADD SWAP1 DUP2 PUSH2 0x41D SWAP2 SWAP1 PUSH2 0x1E95 JUMP JUMPDEST POP DUP2 DUP2 PUSH1 0x8 ADD SWAP1 DUP2 PUSH2 0x42F SWAP2 SWAP1 PUSH2 0x1E95 JUMP JUMPDEST POP POP POP POP POP POP POP JUMP JUMPDEST PUSH1 0x0 PUSH1 0x1 DUP5 PUSH1 0x40 MLOAD PUSH2 0x44A SWAP2 SWAP1 PUSH2 0x1C72 JUMP JUMPDEST SWAP1 DUP2 MSTORE PUSH1 0x20 ADD PUSH1 0x40 MLOAD DUP1 SWAP2 SUB SWAP1 KECCAK256 SWAP1 POP PUSH1 0x0 DUP2 PUSH1 0x6 ADD SLOAD SWAP1 POP PUSH1 0x40 MLOAD DUP1 PUSH1 0x40 ADD PUSH1 0x40 MSTORE DUP1 DUP6 DUP2 MSTORE PUSH1 0x20 ADD DUP5 DUP2 MSTORE POP DUP3 PUSH1 0x5 ADD PUSH1 0x0 DUP4 DUP2 MSTORE PUSH1 0x20 ADD SWAP1 DUP2 MSTORE PUSH1 0x20 ADD PUSH1 0x0 KECCAK256 PUSH1 0x0 DUP3 ADD MLOAD DUP2 PUSH1 0x0 ADD SWAP1 DUP2 PUSH2 0x4A2 SWAP2 SWAP1 PUSH2 0x1E95 JUMP JUMPDEST POP PUSH1 0x20 DUP3 ADD MLOAD DUP2 PUSH1 0x1 ADD SWAP1 DUP2 PUSH2 0x4B8 SWAP2 SWAP1 PUSH2 0x1E95 JUMP JUMPDEST POP SWAP1 POP POP DUP2 PUSH1 0x6 ADD PUSH1 0x0 DUP2 SLOAD DUP1 SWAP3 SWAP2 SWAP1 PUSH2 0x4D1 SWAP1 PUSH2 0x1F96 JUMP JUMPDEST SWAP2 SWAP1 POP SSTORE POP POP POP POP POP POP JUMP JUMPDEST PUSH1 0x60 DUP1 PUSH1 0x0 PUSH1 0x60 DUP1 PUSH1 0x60 DUP1 PUSH1 0x60 PUSH1 0x0 PUSH1 0x1 DUP11 PUSH1 0x40 MLOAD PUSH2 0x4FC SWAP2 SWAP1 PUSH2 0x1C72 JUMP JUMPDEST SWAP1 DUP2 MSTORE PUSH1 0x20 ADD PUSH1 0x40 MLOAD DUP1 SWAP2 SUB SWAP1 KECCAK256 SWAP1 POP DUP1 PUSH1 0x0 ADD DUP2 PUSH1 0x1 ADD DUP3 PUSH1 0x2 ADD SLOAD DUP4 PUSH1 0x3 ADD DUP5 PUSH1 0x4 ADD DUP6 PUSH1 0x7 ADD DUP7 PUSH1 0x8 ADD DUP8 PUSH1 0x9 ADD DUP8 DUP1 SLOAD PUSH2 0x539 SWAP1 PUSH2 0x1CB8 JUMP JUMPDEST DUP1 PUSH1 0x1F ADD PUSH1 0x20 DUP1 SWAP2 DIV MUL PUSH1 0x20 ADD PUSH1 0x40 MLOAD SWAP1 DUP2 ADD PUSH1 0x40 MSTORE DUP1 SWAP3 SWAP2 SWAP1 DUP2 DUP2 MSTORE PUSH1 0x20 ADD DUP3 DUP1 SLOAD PUSH2 0x565 SWAP1 PUSH2 0x1CB8 JUMP JUMPDEST DUP1 ISZERO PUSH2 0x5B2 JUMPI DUP1 PUSH1 0x1F LT PUSH2 0x587 JUMPI PUSH2 0x100 DUP1 DUP4 SLOAD DIV MUL DUP4 MSTORE SWAP2 PUSH1 0x20 ADD SWAP2 PUSH2 0x5B2 JUMP JUMPDEST DUP3 ADD SWAP2 SWAP1 PUSH1 0x0 MSTORE PUSH1 0x20 PUSH1 0x0 KECCAK256 SWAP1 JUMPDEST DUP2 SLOAD DUP2 MSTORE SWAP1 PUSH1 0x1 ADD SWAP1 PUSH1 0x20 ADD DUP1 DUP4 GT PUSH2 0x595 JUMPI DUP3 SWAP1 SUB PUSH1 0x1F AND DUP3 ADD SWAP2 JUMPDEST POP POP POP POP POP SWAP8 POP DUP7 DUP1 SLOAD PUSH2 0x5C5 SWAP1 PUSH2 0x1CB8 JUMP JUMPDEST DUP1 PUSH1 0x1F ADD PUSH1 0x20 DUP1 SWAP2 DIV MUL PUSH1 0x20 ADD PUSH1 0x40 MLOAD SWAP1 DUP2 ADD PUSH1 0x40 MSTORE DUP1 SWAP3 SWAP2 SWAP1 DUP2 DUP2 MSTORE PUSH1 0x20 ADD DUP3 DUP1 SLOAD PUSH2 0x5F1 SWAP1 PUSH2 0x1CB8 JUMP JUMPDEST DUP1 ISZERO PUSH2 0x63E JUMPI DUP1 PUSH1 0x1F LT PUSH2 0x613 JUMPI PUSH2 0x100 DUP1 DUP4 SLOAD DIV MUL DUP4 MSTORE SWAP2 PUSH1 0x20 ADD SWAP2 PUSH2 0x63E JUMP JUMPDEST DUP3 ADD SWAP2 SWAP1 PUSH1 0x0 MSTORE PUSH1 0x20 PUSH1 0x0 KECCAK256 SWAP1 JUMPDEST DUP2 SLOAD DUP2 MSTORE SWAP1 PUSH1 0x1 ADD SWAP1 PUSH1 0x20 ADD DUP1 DUP4 GT PUSH2 0x621 JUMPI DUP3 SWAP1 SUB PUSH1 0x1F AND DUP3 ADD SWAP2 JUMPDEST POP POP POP POP POP SWAP7 POP DUP5 DUP1 SLOAD DUP1 PUSH1 0x20 MUL PUSH1 0x20 ADD PUSH1 0x40 MLOAD SWAP1 DUP2 ADD PUSH1 0x40 MSTORE DUP1 SWAP3 SWAP2 SWAP1 DUP2 DUP2 MSTORE PUSH1 0x20 ADD DUP3 DUP1 SLOAD DUP1 ISZERO PUSH2 0x690 JUMPI PUSH1 0x20 MUL DUP3 ADD SWAP2 SWAP1 PUSH1 0x0 MSTORE PUSH1 0x20 PUSH1 0x0 KECCAK256 SWAP1 JUMPDEST DUP2 SLOAD DUP2 MSTORE PUSH1 0x20 ADD SWAP1 PUSH1 0x1 ADD SWAP1 DUP1 DUP4 GT PUSH2 0x67C JUMPI JUMPDEST POP POP POP POP POP SWAP5 POP DUP4 DUP1 SLOAD DUP1 PUSH1 0x20 MUL PUSH1 0x20 ADD PUSH1 0x40 MLOAD SWAP1 DUP2 ADD PUSH1 0x40 MSTORE DUP1 SWAP3 SWAP2 SWAP1 DUP2 DUP2 MSTORE PUSH1 0x20 ADD DUP3 DUP1 SLOAD DUP1 ISZERO PUSH2 0x6E2 JUMPI PUSH1 0x20 MUL DUP3 ADD SWAP2 SWAP1 PUSH1 0x0 MSTORE PUSH1 0x20 PUSH1 0x0 KECCAK256 SWAP1 JUMPDEST DUP2 SLOAD DUP2 MSTORE PUSH1 0x20 ADD SWAP1 PUSH1 0x1 ADD SWAP1 DUP1 DUP4 GT PUSH2 0x6CE JUMPI JUMPDEST POP POP POP POP POP SWAP4 POP DUP3 DUP1 SLOAD PUSH2 0x6F5 SWAP1 PUSH2 0x1CB8 JUMP JUMPDEST DUP1 PUSH1 0x1F ADD PUSH1 0x20 DUP1 SWAP2 DIV MUL PUSH1 0x20 ADD PUSH1 0x40 MLOAD SWAP1 DUP2 ADD PUSH1 0x40 MSTORE DUP1 SWAP3 SWAP2 SWAP1 DUP2 DUP2 MSTORE PUSH1 0x20 ADD DUP3 DUP1 SLOAD PUSH2 0x721 SWAP1 PUSH2 0x1CB8 JUMP JUMPDEST DUP1 ISZERO PUSH2 0x76E JUMPI DUP1 PUSH1 0x1F LT PUSH2 0x743 JUMPI PUSH2 0x100 DUP1 DUP4 SLOAD DIV MUL DUP4 MSTORE SWAP2 PUSH1 0x20 ADD SWAP2 PUSH2 0x76E JUMP JUMPDEST DUP3 ADD SWAP2 SWAP1 PUSH1 0x0 MSTORE PUSH1 0x20 PUSH1 0x0 KECCAK256 SWAP1 JUMPDEST DUP2 SLOAD DUP2 MSTORE SWAP1 PUSH1 0x1 ADD SWAP1 PUSH1 0x20 ADD DUP1 DUP4 GT PUSH2 0x751 JUMPI DUP3 SWAP1 SUB PUSH1 0x1F AND DUP3 ADD SWAP2 JUMPDEST POP POP POP POP POP SWAP3 POP DUP2 DUP1 SLOAD PUSH2 0x781 SWAP1 PUSH2 0x1CB8 JUMP JUMPDEST DUP1 PUSH1 0x1F ADD PUSH1 0x20 DUP1 SWAP2 DIV MUL PUSH1 0x20 ADD PUSH1 0x40 MLOAD SWAP1 DUP2 ADD PUSH1 0x40 MSTORE DUP1 SWAP3 SWAP2 SWAP1 DUP2 DUP2 MSTORE PUSH1 0x20 ADD DUP3 DUP1 SLOAD PUSH2 0x7AD SWAP1 PUSH2 0x1CB8 JUMP JUMPDEST DUP1 ISZERO PUSH2 0x7FA JUMPI DUP1 PUSH1 0x1F LT PUSH2 0x7CF JUMPI PUSH2 0x100 DUP1 DUP4 SLOAD DIV MUL DUP4 MSTORE SWAP2 PUSH1 0x20 ADD SWAP2 PUSH2 0x7FA JUMP JUMPDEST DUP3 ADD SWAP2 SWAP1 PUSH1 0x0 MSTORE PUSH1 0x20 PUSH1 0x0 KECCAK256 SWAP1 JUMPDEST DUP2 SLOAD DUP2 MSTORE SWAP1 PUSH1 0x1 ADD SWAP1 PUSH1 0x20 ADD DUP1 DUP4 GT PUSH2 0x7DD JUMPI DUP3 SWAP1 SUB PUSH1 0x1F AND DUP3 ADD SWAP2 JUMPDEST POP POP POP POP POP SWAP2 POP DUP1 DUP1 SLOAD DUP1 PUSH1 0x20 MUL PUSH1 0x20 ADD PUSH1 0x40 MLOAD SWAP1 DUP2 ADD PUSH1 0x40 MSTORE DUP1 SWAP3 SWAP2 SWAP1 DUP2 DUP2 MSTORE PUSH1 0x20 ADD PUSH1 0x0 SWAP1 JUMPDEST DUP3 DUP3 LT ISZERO PUSH2 0xAC1 JUMPI DUP4 DUP3 SWAP1 PUSH1 0x0 MSTORE PUSH1 0x20 PUSH1 0x0 KECCAK256 SWAP1 PUSH1 0x6 MUL ADD PUSH1 0x40 MLOAD DUP1 PUSH1 0xC0 ADD PUSH1 0x40 MSTORE SWAP1 DUP2 PUSH1 0x0 DUP3 ADD DUP1 SLOAD PUSH2 0x855 SWAP1 PUSH2 0x1CB8 JUMP JUMPDEST DUP1 PUSH1 0x1F ADD PUSH1 0x20 DUP1 SWAP2 DIV MUL PUSH1 0x20 ADD PUSH1 0x40 MLOAD SWAP1 DUP2 ADD PUSH1 0x40 MSTORE DUP1 SWAP3 SWAP2 SWAP1 DUP2 DUP2 MSTORE PUSH1 0x20 ADD DUP3 DUP1 SLOAD PUSH2 0x881 SWAP1 PUSH2 0x1CB8 JUMP JUMPDEST DUP1 ISZERO PUSH2 0x8CE JUMPI DUP1 PUSH1 0x1F LT PUSH2 0x8A3 JUMPI PUSH2 0x100 DUP1 DUP4 SLOAD DIV MUL DUP4 MSTORE SWAP2 PUSH1 0x20 ADD SWAP2 PUSH2 0x8CE JUMP JUMPDEST DUP3 ADD SWAP2 SWAP1 PUSH1 0x0 MSTORE PUSH1 0x20 PUSH1 0x0 KECCAK256 SWAP1 JUMPDEST DUP2 SLOAD DUP2 MSTORE SWAP1 PUSH1 0x1 ADD SWAP1 PUSH1 0x20 ADD DUP1 DUP4 GT PUSH2 0x8B1 JUMPI DUP3 SWAP1 SUB PUSH1 0x1F AND DUP3 ADD SWAP2 JUMPDEST POP POP POP POP POP DUP2 MSTORE PUSH1 0x20 ADD PUSH1 0x1 DUP3 ADD DUP1 SLOAD PUSH2 0x8E7 SWAP1 PUSH2 0x1CB8 JUMP JUMPDEST DUP1 PUSH1 0x1F ADD PUSH1 0x20 DUP1 SWAP2 DIV MUL PUSH1 0x20 ADD PUSH1 0x40 MLOAD SWAP1 DUP2 ADD PUSH1 0x40 MSTORE DUP1 SWAP3 SWAP2 SWAP1 DUP2 DUP2 MSTORE PUSH1 0x20 ADD DUP3 DUP1 SLOAD PUSH2 0x913 SWAP1 PUSH2 0x1CB8 JUMP JUMPDEST DUP1 ISZERO PUSH2 0x960 JUMPI DUP1 PUSH1 0x1F LT PUSH2 0x935 JUMPI PUSH2 0x100 DUP1 DUP4 SLOAD DIV MUL DUP4 MSTORE SWAP2 PUSH1 0x20 ADD SWAP2 PUSH2 0x960 JUMP JUMPDEST DUP3 ADD SWAP2 SWAP1 PUSH1 0x0 MSTORE PUSH1 0x20 PUSH1 0x0 KECCAK256 SWAP1 JUMPDEST DUP2 SLOAD DUP2 MSTORE SWAP1 PUSH1 0x1 ADD SWAP1 PUSH1 0x20 ADD DUP1 DUP4 GT PUSH2 0x943 JUMPI DUP3 SWAP1 SUB PUSH1 0x1F AND DUP3 ADD SWAP2 JUMPDEST POP POP POP POP POP DUP2 MSTORE PUSH1 0x20 ADD PUSH1 0x2 DUP3 ADD SLOAD DUP2 MSTORE PUSH1 0x20 ADD PUSH1 0x3 DUP3 ADD DUP1 SLOAD PUSH2 0x983 SWAP1 PUSH2 0x1CB8 JUMP JUMPDEST DUP1 PUSH1 0x1F ADD PUSH1 0x20 DUP1 SWAP2 DIV MUL PUSH1 0x20 ADD PUSH1 0x40 MLOAD SWAP1 DUP2 ADD PUSH1 0x40 MSTORE DUP1 SWAP3 SWAP2 SWAP1 DUP2 DUP2 MSTORE PUSH1 0x20 ADD DUP3 DUP1 SLOAD PUSH2 0x9AF SWAP1 PUSH2 0x1CB8 JUMP JUMPDEST DUP1 ISZERO PUSH2 0x9FC JUMPI DUP1 PUSH1 0x1F LT PUSH2 0x9D1 JUMPI PUSH2 0x100 DUP1 DUP4 SLOAD DIV MUL DUP4 MSTORE SWAP2 PUSH1 0x20 ADD SWAP2 PUSH2 0x9FC JUMP JUMPDEST DUP3 ADD SWAP2 SWAP1 PUSH1 0x0 MSTORE PUSH1 0x20 PUSH1 0x0 KECCAK256 SWAP1 JUMPDEST DUP2 SLOAD DUP2 MSTORE SWAP1 PUSH1 0x1 ADD SWAP1 PUSH1 0x20 ADD DUP1 DUP4 GT PUSH2 0x9DF JUMPI DUP3 SWAP1 SUB PUSH1 0x1F AND DUP3 ADD SWAP2 JUMPDEST POP POP POP POP POP DUP2 MSTORE PUSH1 0x20 ADD PUSH1 0x4 DUP3 ADD DUP1 SLOAD PUSH2 0xA15 SWAP1 PUSH2 0x1CB8 JUMP JUMPDEST DUP1 PUSH1 0x1F ADD PUSH1 0x20 DUP1 SWAP2 DIV MUL PUSH1 0x20 ADD PUSH1 0x40 MLOAD SWAP1 DUP2 ADD PUSH1 0x40 MSTORE DUP1 SWAP3 SWAP2 SWAP1 DUP2 DUP2 MSTORE PUSH1 0x20 ADD DUP3 DUP1 SLOAD PUSH2 0xA41 SWAP1 PUSH2 0x1CB8 JUMP JUMPDEST DUP1 ISZERO PUSH2 0xA8E JUMPI DUP1 PUSH1 0x1F LT PUSH2 0xA63 JUMPI PUSH2 0x100 DUP1 DUP4 SLOAD DIV MUL DUP4 MSTORE SWAP2 PUSH1 0x20 ADD SWAP2 PUSH2 0xA8E JUMP JUMPDEST DUP3 ADD SWAP2 SWAP1 PUSH1 0x0 MSTORE PUSH1 0x20 PUSH1 0x0 KECCAK256 SWAP1 JUMPDEST DUP2 SLOAD DUP2 MSTORE SWAP1 PUSH1 0x1 ADD SWAP1 PUSH1 0x20 ADD DUP1 DUP4 GT PUSH2 0xA71 JUMPI DUP3 SWAP1 SUB PUSH1 0x1F AND DUP3 ADD SWAP2 JUMPDEST POP POP POP POP POP DUP2 MSTORE PUSH1 0x20 ADD PUSH1 0x5 DUP3 ADD PUSH1 0x0 SWAP1 SLOAD SWAP1 PUSH2 0x100 EXP SWAP1 DIV PUSH1 0xFF AND ISZERO ISZERO ISZERO ISZERO DUP2 MSTORE POP POP DUP2 MSTORE PUSH1 0x20 ADD SWAP1 PUSH1 0x1 ADD SWAP1 PUSH2 0x822 JUMP JUMPDEST POP POP POP POP SWAP1 POP SWAP9 POP SWAP9 POP SWAP9 POP SWAP9 POP SWAP9 POP SWAP9 POP SWAP9 POP SWAP9 POP POP SWAP2 SWAP4 SWAP6 SWAP8 POP SWAP2 SWAP4 SWAP6 SWAP8 JUMP JUMPDEST PUSH1 0x60 DUP1 PUSH1 0x60 PUSH1 0x0 PUSH1 0x2 DUP6 PUSH1 0x40 MLOAD PUSH2 0xAFA SWAP2 SWAP1 PUSH2 0x1C72 JUMP JUMPDEST SWAP1 DUP2 MSTORE PUSH1 0x20 ADD PUSH1 0x40 MLOAD DUP1 SWAP2 SUB SWAP1 KECCAK256 SWAP1 POP DUP1 PUSH1 0x0 ADD DUP2 PUSH1 0x1 ADD DUP3 PUSH1 0x2 ADD DUP3 DUP1 SLOAD DUP1 PUSH1 0x20 MUL PUSH1 0x20 ADD PUSH1 0x40 MLOAD SWAP1 DUP2 ADD PUSH1 0x40 MSTORE DUP1 SWAP3 SWAP2 SWAP1 DUP2 DUP2 MSTORE PUSH1 0x20 ADD PUSH1 0x0 SWAP1 JUMPDEST DUP3 DUP3 LT ISZERO PUSH2 0xBE3 JUMPI DUP4 DUP3 SWAP1 PUSH1 0x0 MSTORE PUSH1 0x20 PUSH1 0x0 KECCAK256 ADD DUP1 SLOAD PUSH2 0xB56 SWAP1 PUSH2 0x1CB8 JUMP JUMPDEST DUP1 PUSH1 0x1F ADD PUSH1 0x20 DUP1 SWAP2 DIV MUL PUSH1 0x20 ADD PUSH1 0x40 MLOAD SWAP1 DUP2 ADD PUSH1 0x40 MSTORE DUP1 SWAP3 SWAP2 SWAP1 DUP2 DUP2 MSTORE PUSH1 0x20 ADD DUP3 DUP1 SLOAD PUSH2 0xB82 SWAP1 PUSH2 0x1CB8 JUMP JUMPDEST DUP1 ISZERO PUSH2 0xBCF JUMPI DUP1 PUSH1 0x1F LT PUSH2 0xBA4 JUMPI PUSH2 0x100 DUP1 DUP4 SLOAD DIV MUL DUP4 MSTORE SWAP2 PUSH1 0x20 ADD SWAP2 PUSH2 0xBCF JUMP JUMPDEST DUP3 ADD SWAP2 SWAP1 PUSH1 0x0 MSTORE PUSH1 0x20 PUSH1 0x0 KECCAK256 SWAP1 JUMPDEST DUP2 SLOAD DUP2 MSTORE SWAP1 PUSH1 0x1 ADD SWAP1 PUSH1 0x20 ADD DUP1 DUP4 GT PUSH2 0xBB2 JUMPI DUP3 SWAP1 SUB PUSH1 0x1F AND DUP3 ADD SWAP2 JUMPDEST POP POP POP POP POP DUP2 MSTORE PUSH1 0x20 ADD SWAP1 PUSH1 0x1 ADD SWAP1 PUSH2 0xB37 JUMP JUMPDEST POP POP POP POP SWAP3 POP DUP2 DUP1 SLOAD DUP1 PUSH1 0x20 MUL PUSH1 0x20 ADD PUSH1 0x40 MLOAD SWAP1 DUP2 ADD PUSH1 0x40 MSTORE DUP1 SWAP3 SWAP2 SWAP1 DUP2 DUP2 MSTORE PUSH1 0x20 ADD PUSH1 0x0 SWAP1 JUMPDEST DUP3 DUP3 LT ISZERO PUSH2 0xCB6 JUMPI DUP4 DUP3 SWAP1 PUSH1 0x0 MSTORE PUSH1 0x20 PUSH1 0x0 KECCAK256 ADD DUP1 SLOAD PUSH2 0xC29 SWAP1 PUSH2 0x1CB8 JUMP JUMPDEST DUP1 PUSH1 0x1F ADD PUSH1 0x20 DUP1 SWAP2 DIV MUL PUSH1 0x20 ADD PUSH1 0x40 MLOAD SWAP1 DUP2 ADD PUSH1 0x40 MSTORE DUP1 SWAP3 SWAP2 SWAP1 DUP2 DUP2 MSTORE PUSH1 0x20 ADD DUP3 DUP1 SLOAD PUSH2 0xC55 SWAP1 PUSH2 0x1CB8 JUMP JUMPDEST DUP1 ISZERO PUSH2 0xCA2 JUMPI DUP1 PUSH1 0x1F LT PUSH2 0xC77 JUMPI PUSH2 0x100 DUP1 DUP4 SLOAD DIV MUL DUP4 MSTORE SWAP2 PUSH1 0x20 ADD SWAP2 PUSH2 0xCA2 JUMP JUMPDEST DUP3 ADD SWAP2 SWAP1 PUSH1 0x0 MSTORE PUSH1 0x20 PUSH1 0x0 KECCAK256 SWAP1 JUMPDEST DUP2 SLOAD DUP2 MSTORE SWAP1 PUSH1 0x1 ADD SWAP1 PUSH1 0x20 ADD DUP1 DUP4 GT PUSH2 0xC85 JUMPI DUP3 SWAP1 SUB PUSH1 0x1F AND DUP3 ADD SWAP2 JUMPDEST POP POP POP POP POP DUP2 MSTORE PUSH1 0x20 ADD SWAP1 PUSH1 0x1 ADD SWAP1 PUSH2 0xC0A JUMP JUMPDEST POP POP POP POP SWAP2 POP DUP1 DUP1 SLOAD DUP1 PUSH1 0x20 MUL PUSH1 0x20 ADD PUSH1 0x40 MLOAD SWAP1 DUP2 ADD PUSH1 0x40 MSTORE DUP1 SWAP3 SWAP2 SWAP1 DUP2 DUP2 MSTORE PUSH1 0x20 ADD PUSH1 0x0 SWAP1 JUMPDEST DUP3 DUP3 LT ISZERO PUSH2 0xD89 JUMPI DUP4 DUP3 SWAP1 PUSH1 0x0 MSTORE PUSH1 0x20 PUSH1 0x0 KECCAK256 ADD DUP1 SLOAD PUSH2 0xCFC SWAP1 PUSH2 0x1CB8 JUMP JUMPDEST DUP1 PUSH1 0x1F ADD PUSH1 0x20 DUP1 SWAP2 DIV MUL PUSH1 0x20 ADD PUSH1 0x40 MLOAD SWAP1 DUP2 ADD PUSH1 0x40 MSTORE DUP1 SWAP3 SWAP2 SWAP1 DUP2 DUP2 MSTORE PUSH1 0x20 ADD DUP3 DUP1 SLOAD PUSH2 0xD28 SWAP1 PUSH2 0x1CB8 JUMP JUMPDEST DUP1 ISZERO PUSH2 0xD75 JUMPI DUP1 PUSH1 0x1F LT PUSH2 0xD4A JUMPI PUSH2 0x100 DUP1 DUP4 SLOAD DIV MUL DUP4 MSTORE SWAP2 PUSH1 0x20 ADD SWAP2 PUSH2 0xD75 JUMP JUMPDEST DUP3 ADD SWAP2 SWAP1 PUSH1 0x0 MSTORE PUSH1 0x20 PUSH1 0x0 KECCAK256 SWAP1 JUMPDEST DUP2 SLOAD DUP2 MSTORE SWAP1 PUSH1 0x1 ADD SWAP1 PUSH1 0x20 ADD DUP1 DUP4 GT PUSH2 0xD58 JUMPI DUP3 SWAP1 SUB PUSH1 0x1F AND DUP3 ADD SWAP2 JUMPDEST POP POP POP POP POP DUP2 MSTORE PUSH1 0x20 ADD SWAP1 PUSH1 0x1 ADD SWAP1 PUSH2 0xCDD JUMP JUMPDEST POP POP POP POP SWAP1 POP SWAP4 POP SWAP4 POP SWAP4 POP POP SWAP2 SWAP4 SWAP1 SWAP3 POP JUMP JUMPDEST CALLER PUSH20 0xFFFFFFFFFFFFFFFFFFFFFFFFFFFFFFFFFFFFFFFF AND PUSH1 0x0 DUP1 CALLER PUSH20 0xFFFFFFFFFFFFFFFFFFFFFFFFFFFFFFFFFFFFFFFF AND PUSH20 0xFFFFFFFFFFFFFFFFFFFFFFFFFFFFFFFFFFFFFFFF AND DUP2 MSTORE PUSH1 0x20 ADD SWAP1 DUP2 MSTORE PUSH1 0x20 ADD PUSH1 0x0 KECCAK256 PUSH1 0x0 ADD PUSH1 0x0 SWAP1 SLOAD SWAP1 PUSH2 0x100 EXP SWAP1 DIV PUSH20 0xFFFFFFFFFFFFFFFFFFFFFFFFFFFFFFFFFFFFFFFF AND PUSH20 0xFFFFFFFFFFFFFFFFFFFFFFFFFFFFFFFFFFFFFFFF AND EQ PUSH2 0xE6C JUMPI PUSH1 0x40 MLOAD PUSH32 0x8C379A000000000000000000000000000000000000000000000000000000000 DUP2 MSTORE PUSH1 0x4 ADD PUSH2 0xE63 SWAP1 PUSH2 0x2050 JUMP JUMPDEST PUSH1 0x40 MLOAD DUP1 SWAP2 SUB SWAP1 REVERT JUMPDEST PUSH1 0x40 MLOAD DUP1 PUSH1 0x60 ADD PUSH1 0x40 MSTORE DUP1 DUP5 DUP2 MSTORE PUSH1 0x20 ADD DUP4 DUP2 MSTORE PUSH1 0x20 ADD DUP3 DUP2 MSTORE POP PUSH1 0x2 DUP6 PUSH1 0x40 MLOAD PUSH2 0xE97 SWAP2 SWAP1 PUSH2 0x1C72 JUMP JUMPDEST SWAP1 DUP2 MSTORE PUSH1 0x20 ADD PUSH1 0x40 MLOAD DUP1 SWAP2 SUB SWAP1 KECCAK256 PUSH1 0x0 DUP3 ADD MLOAD DUP2 PUSH1 0x0 ADD SWAP1 DUP1 MLOAD SWAP1 PUSH1 0x20 ADD SWAP1 PUSH2 0xEC1 SWAP3 SWAP2 SWAP1 PUSH2 0xF05 JUMP JUMPDEST POP PUSH1 0x20 DUP3 ADD MLOAD DUP2 PUSH1 0x1 ADD SWAP1 DUP1 MLOAD SWAP1 PUSH1 0x20 ADD SWAP1 PUSH2 0xEDE SWAP3 SWAP2 SWAP1 PUSH2 0xF05 JUMP JUMPDEST POP PUSH1 0x40 DUP3 ADD MLOAD DUP2 PUSH1 0x2 ADD SWAP1 DUP1 MLOAD SWAP1 PUSH1 0x20 ADD SWAP1 PUSH2 0xEFB SWAP3 SWAP2 SWAP1 PUSH2 0xF05 JUMP JUMPDEST POP SWAP1 POP POP POP POP POP POP JUMP JUMPDEST DUP3 DUP1 SLOAD DUP3 DUP3 SSTORE SWAP1 PUSH1 0x0 MSTORE PUSH1 0x20 PUSH1 0x0 KECCAK256 SWAP1 DUP2 ADD SWAP3 DUP3 ISZERO PUSH2 0xF4D JUMPI SWAP2 PUSH1 0x20 MUL DUP3 ADD JUMPDEST DUP3 DUP2 GT ISZERO PUSH2 0xF4C JUMPI DUP3 MLOAD DUP3 SWAP1 DUP2 PUSH2 0xF3C SWAP2 SWAP1 PUSH2 0x1E95 JUMP JUMPDEST POP SWAP2 PUSH1 0x20 ADD SWAP2 SWAP1 PUSH1 0x1 ADD SWAP1 PUSH2 0xF25 JUMP JUMPDEST JUMPDEST POP SWAP1 POP PUSH2 0xF5A SWAP2 SWAP1 PUSH2 0xF5E JUMP JUMPDEST POP SWAP1 JUMP JUMPDEST JUMPDEST DUP1 DUP3 GT ISZERO PUSH2 0xF7E JUMPI PUSH1 0x0 DUP2 DUP2 PUSH2 0xF75 SWAP2 SWAP1 PUSH2 0xF82 JUMP JUMPDEST POP PUSH1 0x1 ADD PUSH2 0xF5F JUMP JUMPDEST POP SWAP1 JUMP JUMPDEST POP DUP1 SLOAD PUSH2 0xF8E SWAP1 PUSH2 0x1CB8 JUMP JUMPDEST PUSH1 0x0 DUP3 SSTORE DUP1 PUSH1 0x1F LT PUSH2 0xFA0 JUMPI POP PUSH2 0xFBF JUMP JUMPDEST PUSH1 0x1F ADD PUSH1 0x20 SWAP1 DIV SWAP1 PUSH1 0x0 MSTORE PUSH1 0x20 PUSH1 0x0 KECCAK256 SWAP1 DUP2 ADD SWAP1 PUSH2 0xFBE SWAP2 SWAP1 PUSH2 0xFC2 JUMP JUMPDEST JUMPDEST POP JUMP JUMPDEST JUMPDEST DUP1 DUP3 GT ISZERO PUSH2 0xFDB JUMPI PUSH1 0x0 DUP2 PUSH1 0x0 SWAP1 SSTORE POP PUSH1 0x1 ADD PUSH2 0xFC3 JUMP JUMPDEST POP SWAP1 JUMP JUMPDEST PUSH1 0x0 PUSH1 0x40 MLOAD SWAP1 POP SWAP1 JUMP JUMPDEST PUSH1 0x0 DUP1 REVERT JUMPDEST PUSH1 0x0 DUP1 REVERT JUMPDEST PUSH1 0x0 DUP1 REVERT JUMPDEST PUSH1 0x0 DUP1 REVERT JUMPDEST PUSH1 0x0 PUSH1 0x1F NOT PUSH1 0x1F DUP4 ADD AND SWAP1 POP SWAP2 SWAP1 POP JUMP JUMPDEST PUSH32 0x4E487B7100000000000000000000000000000000000000000000000000000000 PUSH1 0x0 MSTORE PUSH1 0x41 PUSH1 0x4 MSTORE PUSH1 0x24 PUSH1 0x0 REVERT JUMPDEST PUSH2 0x1046 DUP3 PUSH2 0xFFD JUMP JUMPDEST DUP2 ADD DUP2 DUP2 LT PUSH8 0xFFFFFFFFFFFFFFFF DUP3 GT OR ISZERO PUSH2 0x1065 JUMPI PUSH2 0x1064 PUSH2 0x100E JUMP JUMPDEST JUMPDEST DUP1 PUSH1 0x40 MSTORE POP POP POP JUMP JUMPDEST PUSH1 0x0 PUSH2 0x1078 PUSH2 0xFDF JUMP JUMPDEST SWAP1 POP PUSH2 0x1084 DUP3 DUP3 PUSH2 0x103D JUMP JUMPDEST SWAP2 SWAP1 POP JUMP JUMPDEST PUSH1 0x0 PUSH8 0xFFFFFFFFFFFFFFFF DUP3 GT ISZERO PUSH2 0x10A4 JUMPI PUSH2 0x10A3 PUSH2 0x100E JUMP JUMPDEST JUMPDEST PUSH2 0x10AD DUP3 PUSH2 0xFFD JUMP JUMPDEST SWAP1 POP PUSH1 0x20 DUP2 ADD SWAP1 POP SWAP2 SWAP1 POP JUMP JUMPDEST DUP3 DUP2 DUP4 CALLDATACOPY PUSH1 0x0 DUP4 DUP4 ADD MSTORE POP POP POP JUMP JUMPDEST PUSH1 0x0 PUSH2 0x10DC PUSH2 0x10D7 DUP5 PUSH2 0x1089 JUMP JUMPDEST PUSH2 0x106E JUMP JUMPDEST SWAP1 POP DUP3 DUP2 MSTORE PUSH1 0x20 DUP2 ADD DUP5 DUP5 DUP5 ADD GT ISZERO PUSH2 0x10F8 JUMPI PUSH2 0x10F7 PUSH2 0xFF8 JUMP JUMPDEST JUMPDEST PUSH2 0x1103 DUP5 DUP3 DUP6 PUSH2 0x10BA JUMP JUMPDEST POP SWAP4 SWAP3 POP POP POP JUMP JUMPDEST PUSH1 0x0 DUP3 PUSH1 0x1F DUP4 ADD SLT PUSH2 0x1120 JUMPI PUSH2 0x111F PUSH2 0xFF3 JUMP JUMPDEST JUMPDEST DUP2 CALLDATALOAD PUSH2 0x1130 DUP5 DUP3 PUSH1 0x20 DUP7 ADD PUSH2 0x10C9 JUMP JUMPDEST SWAP2 POP POP SWAP3 SWAP2 POP POP JUMP JUMPDEST PUSH1 0x0 DUP2 SWAP1 POP SWAP2 SWAP1 POP JUMP JUMPDEST PUSH2 0x114C DUP2 PUSH2 0x1139 JUMP JUMPDEST DUP2 EQ PUSH2 0x1157 JUMPI PUSH1 0x0 DUP1 REVERT JUMPDEST POP JUMP JUMPDEST PUSH1 0x0 DUP2 CALLDATALOAD SWAP1 POP PUSH2 0x1169 DUP2 PUSH2 0x1143 JUMP JUMPDEST SWAP3 SWAP2 POP POP JUMP JUMPDEST PUSH1 0x0 DUP2 ISZERO ISZERO SWAP1 POP SWAP2 SWAP1 POP JUMP JUMPDEST PUSH2 0x1184 DUP2 PUSH2 0x116F JUMP JUMPDEST DUP2 EQ PUSH2 0x118F JUMPI PUSH1 0x0 DUP1 REVERT JUMPDEST POP JUMP JUMPDEST PUSH1 0x0 DUP2 CALLDATALOAD SWAP1 POP PUSH2 0x11A1 DUP2 PUSH2 0x117B JUMP JUMPDEST SWAP3 SWAP2 POP POP JUMP JUMPDEST PUSH1 0x0 DUP1 PUSH1 0x0 DUP1 PUSH1 0x0 DUP1 PUSH1 0x0 PUSH1 0xE0 DUP9 DUP11 SUB SLT ISZERO PUSH2 0x11C6 JUMPI PUSH2 0x11C5 PUSH2 0xFE9 JUMP JUMPDEST JUMPDEST PUSH1 0x0 DUP9 ADD CALLDATALOAD PUSH8 0xFFFFFFFFFFFFFFFF DUP2 GT ISZERO PUSH2 0x11E4 JUMPI PUSH2 0x11E3 PUSH2 0xFEE JUMP JUMPDEST JUMPDEST PUSH2 0x11F0 DUP11 DUP3 DUP12 ADD PUSH2 0x110B JUMP JUMPDEST SWAP8 POP POP PUSH1 0x20 DUP9 ADD CALLDATALOAD PUSH8 0xFFFFFFFFFFFFFFFF DUP2 GT ISZERO PUSH2 0x1211 JUMPI PUSH2 0x1210 PUSH2 0xFEE JUMP JUMPDEST JUMPDEST PUSH2 0x121D DUP11 DUP3 DUP12 ADD PUSH2 0x110B JUMP JUMPDEST SWAP7 POP POP PUSH1 0x40 DUP9 ADD CALLDATALOAD PUSH8 0xFFFFFFFFFFFFFFFF DUP2 GT ISZERO PUSH2 0x123E JUMPI PUSH2 0x123D PUSH2 0xFEE JUMP JUMPDEST JUMPDEST PUSH2 0x124A DUP11 DUP3 DUP12 ADD PUSH2 0x110B JUMP JUMPDEST SWAP6 POP POP PUSH1 0x60 PUSH2 0x125B DUP11 DUP3 DUP12 ADD PUSH2 0x115A JUMP JUMPDEST SWAP5 POP POP PUSH1 0x80 DUP9 ADD CALLDATALOAD PUSH8 0xFFFFFFFFFFFFFFFF DUP2 GT ISZERO PUSH2 0x127C JUMPI PUSH2 0x127B PUSH2 0xFEE JUMP JUMPDEST JUMPDEST PUSH2 0x1288 DUP11 DUP3 DUP12 ADD PUSH2 0x110B JUMP JUMPDEST SWAP4 POP POP PUSH1 0xA0 DUP9 ADD CALLDATALOAD PUSH8 0xFFFFFFFFFFFFFFFF DUP2 GT ISZERO PUSH2 0x12A9 JUMPI PUSH2 0x12A8 PUSH2 0xFEE JUMP JUMPDEST JUMPDEST PUSH2 0x12B5 DUP11 DUP3 DUP12 ADD PUSH2 0x110B JUMP JUMPDEST SWAP3 POP POP PUSH1 0xC0 PUSH2 0x12C6 DUP11 DUP3 DUP12 ADD PUSH2 0x1192 JUMP JUMPDEST SWAP2 POP POP SWAP3 SWAP6 SWAP9 SWAP2 SWAP5 SWAP8 POP SWAP3 SWAP6 POP JUMP JUMPDEST PUSH1 0x0 DUP1 PUSH1 0x0 DUP1 PUSH1 0x0 PUSH1 0xA0 DUP7 DUP9 SUB SLT ISZERO PUSH2 0x12F1 JUMPI PUSH2 0x12F0 PUSH2 0xFE9 JUMP JUMPDEST JUMPDEST PUSH1 0x0 DUP7 ADD CALLDATALOAD PUSH8 0xFFFFFFFFFFFFFFFF DUP2 GT ISZERO PUSH2 0x130F JUMPI PUSH2 0x130E PUSH2 0xFEE JUMP JUMPDEST JUMPDEST PUSH2 0x131B DUP9 DUP3 DUP10 ADD PUSH2 0x110B JUMP JUMPDEST SWAP6 POP POP PUSH1 0x20 DUP7 ADD CALLDATALOAD PUSH8 0xFFFFFFFFFFFFFFFF DUP2 GT ISZERO PUSH2 0x133C JUMPI PUSH2 0x133B PUSH2 0xFEE JUMP JUMPDEST JUMPDEST PUSH2 0x1348 DUP9 DUP3 DUP10 ADD PUSH2 0x110B JUMP JUMPDEST SWAP5 POP POP PUSH1 0x40 DUP7 ADD CALLDATALOAD PUSH8 0xFFFFFFFFFFFFFFFF DUP2 GT ISZERO PUSH2 0x1369 JUMPI PUSH2 0x1368 PUSH2 0xFEE JUMP JUMPDEST JUMPDEST PUSH2 0x1375 DUP9 DUP3 DUP10 ADD PUSH2 0x110B JUMP JUMPDEST SWAP4 POP POP PUSH1 0x60 DUP7 ADD CALLDATALOAD PUSH8 0xFFFFFFFFFFFFFFFF DUP2 GT ISZERO PUSH2 0x1396 JUMPI PUSH2 0x1395 PUSH2 0xFEE JUMP JUMPDEST JUMPDEST PUSH2 0x13A2 DUP9 DUP3 DUP10 ADD PUSH2 0x110B JUMP JUMPDEST SWAP3 POP POP PUSH1 0x80 DUP7 ADD CALLDATALOAD PUSH8 0xFFFFFFFFFFFFFFFF DUP2 GT ISZERO PUSH2 0x13C3 JUMPI PUSH2 0x13C2 PUSH2 0xFEE JUMP JUMPDEST JUMPDEST PUSH2 0x13CF DUP9 DUP3 DUP10 ADD PUSH2 0x110B JUMP JUMPDEST SWAP2 POP POP SWAP3 SWAP6 POP SWAP3 SWAP6 SWAP1 SWAP4 POP JUMP JUMPDEST PUSH1 0x0 DUP1 PUSH1 0x0 DUP1 PUSH1 0x0 PUSH1 0xA0 DUP7 DUP9 SUB SLT ISZERO PUSH2 0x13F8 JUMPI PUSH2 0x13F7 PUSH2 0xFE9 JUMP JUMPDEST JUMPDEST PUSH1 0x0 DUP7 ADD CALLDATALOAD PUSH8 0xFFFFFFFFFFFFFFFF DUP2 GT ISZERO PUSH2 0x1416 JUMPI PUSH2 0x1415 PUSH2 0xFEE JUMP JUMPDEST JUMPDEST PUSH2 0x1422 DUP9 DUP3 DUP10 ADD PUSH2 0x110B JUMP JUMPDEST SWAP6 POP POP PUSH1 0x20 DUP7 ADD CALLDATALOAD PUSH8 0xFFFFFFFFFFFFFFFF DUP2 GT ISZERO PUSH2 0x1443 JUMPI PUSH2 0x1442 PUSH2 0xFEE JUMP JUMPDEST JUMPDEST PUSH2 0x144F DUP9 DUP3 DUP10 ADD PUSH2 0x110B JUMP JUMPDEST SWAP5 POP POP PUSH1 0x40 PUSH2 0x1460 DUP9 DUP3 DUP10 ADD PUSH2 0x115A JUMP JUMPDEST SWAP4 POP POP PUSH1 0x60 DUP7 ADD CALLDATALOAD PUSH8 0xFFFFFFFFFFFFFFFF DUP2 GT ISZERO PUSH2 0x1481 JUMPI PUSH2 0x1480 PUSH2 0xFEE JUMP JUMPDEST JUMPDEST PUSH2 0x148D DUP9 DUP3 DUP10 ADD PUSH2 0x110B JUMP JUMPDEST SWAP3 POP POP PUSH1 0x80 DUP7 ADD CALLDATALOAD PUSH8 0xFFFFFFFFFFFFFFFF DUP2 GT ISZERO PUSH2 0x14AE JUMPI PUSH2 0x14AD PUSH2 0xFEE JUMP JUMPDEST JUMPDEST PUSH2 0x14BA DUP9 DUP3 DUP10 ADD PUSH2 0x110B JUMP JUMPDEST SWAP2 POP POP SWAP3 SWAP6 POP SWAP3 SWAP6 SWAP1 SWAP4 POP JUMP JUMPDEST PUSH1 0x0 DUP1 PUSH1 0x0 PUSH1 0x60 DUP5 DUP7 SUB SLT ISZERO PUSH2 0x14E0 JUMPI PUSH2 0x14DF PUSH2 0xFE9 JUMP JUMPDEST JUMPDEST PUSH1 0x0 DUP5 ADD CALLDATALOAD PUSH8 0xFFFFFFFFFFFFFFFF DUP2 GT ISZERO PUSH2 0x14FE JUMPI PUSH2 0x14FD PUSH2 0xFEE JUMP JUMPDEST JUMPDEST PUSH2 0x150A DUP7 DUP3 DUP8 ADD PUSH2 0x110B JUMP JUMPDEST SWAP4 POP POP PUSH1 0x20 DUP5 ADD CALLDATALOAD PUSH8 0xFFFFFFFFFFFFFFFF DUP2 GT ISZERO PUSH2 0x152B JUMPI PUSH2 0x152A PUSH2 0xFEE JUMP JUMPDEST JUMPDEST PUSH2 0x1537 DUP7 DUP3 DUP8 ADD PUSH2 0x110B JUMP JUMPDEST SWAP3 POP POP PUSH1 0x40 DUP5 ADD CALLDATALOAD PUSH8 0xFFFFFFFFFFFFFFFF DUP2 GT ISZERO PUSH2 0x1558 JUMPI PUSH2 0x1557 PUSH2 0xFEE JUMP JUMPDEST JUMPDEST PUSH2 0x1564 DUP7 DUP3 DUP8 ADD PUSH2 0x110B JUMP JUMPDEST SWAP2 POP POP SWAP3 POP SWAP3 POP SWAP3 JUMP JUMPDEST PUSH1 0x0 PUSH1 0x20 DUP3 DUP5 SUB SLT ISZERO PUSH2 0x1584 JUMPI PUSH2 0x1583 PUSH2 0xFE9 JUMP JUMPDEST JUMPDEST PUSH1 0x0 DUP3 ADD CALLDATALOAD PUSH8 0xFFFFFFFFFFFFFFFF DUP2 GT ISZERO PUSH2 0x15A2 JUMPI PUSH2 0x15A1 PUSH2 0xFEE JUMP JUMPDEST JUMPDEST PUSH2 0x15AE DUP5 DUP3 DUP6 ADD PUSH2 0x110B JUMP JUMPDEST SWAP2 POP POP SWAP3 SWAP2 POP POP JUMP JUMPDEST PUSH1 0x0 DUP2 MLOAD SWAP1 POP SWAP2 SWAP1 POP JUMP JUMPDEST PUSH1 0x0 DUP3 DUP3 MSTORE PUSH1 0x20 DUP3 ADD SWAP1 POP SWAP3 SWAP2 POP POP JUMP JUMPDEST PUSH1 0x0 JUMPDEST DUP4 DUP2 LT ISZERO PUSH2 0x15F1 JUMPI DUP1 DUP3 ADD MLOAD DUP2 DUP5 ADD MSTORE PUSH1 0x20 DUP2 ADD SWAP1 POP PUSH2 0x15D6 JUMP JUMPDEST PUSH1 0x0 DUP5 DUP5 ADD MSTORE POP POP POP POP JUMP JUMPDEST PUSH1 0x0 PUSH2 0x1608 DUP3 PUSH2 0x15B7 JUMP JUMPDEST PUSH2 0x1612 DUP2 DUP6 PUSH2 0x15C2 JUMP JUMPDEST SWAP4 POP PUSH2 0x1622 DUP2 DUP6 PUSH1 0x20 DUP7 ADD PUSH2 0x15D3 JUMP JUMPDEST PUSH2 0x162B DUP2 PUSH2 0xFFD JUMP JUMPDEST DUP5 ADD SWAP2 POP POP SWAP3 SWAP2 POP POP JUMP JUMPDEST PUSH2 0x163F DUP2 PUSH2 0x1139 JUMP JUMPDEST DUP3 MSTORE POP POP JUMP JUMPDEST PUSH1 0x0 DUP2 MLOAD SWAP1 POP SWAP2 SWAP1 POP JUMP JUMPDEST PUSH1 0x0 DUP3 DUP3 MSTORE PUSH1 0x20 DUP3 ADD SWAP1 POP SWAP3 SWAP2 POP POP JUMP JUMPDEST PUSH1 0x0 DUP2 SWAP1 POP PUSH1 0x20 DUP3 ADD SWAP1 POP SWAP2 SWAP1 POP JUMP JUMPDEST PUSH2 0x167A DUP2 PUSH2 0x1139 JUMP JUMPDEST DUP3 MSTORE POP POP JUMP JUMPDEST PUSH1 0x0 PUSH2 0x168C DUP4 DUP4 PUSH2 0x1671 JUMP JUMPDEST PUSH1 0x20 DUP4 ADD SWAP1 POP SWAP3 SWAP2 POP POP JUMP JUMPDEST PUSH1 0x0 PUSH1 0x20 DUP3 ADD SWAP1 POP SWAP2 SWAP1 POP JUMP JUMPDEST PUSH1 0x0 PUSH2 0x16B0 DUP3 PUSH2 0x1645 JUMP JUMPDEST PUSH2 0x16BA DUP2 DUP6 PUSH2 0x1650 JUMP JUMPDEST SWAP4 POP PUSH2 0x16C5 DUP4 PUSH2 0x1661 JUMP JUMPDEST DUP1 PUSH1 0x0 JUMPDEST DUP4 DUP2 LT ISZERO PUSH2 0x16F6 JUMPI DUP2 MLOAD PUSH2 0x16DD DUP9 DUP3 PUSH2 0x1680 JUMP JUMPDEST SWAP8 POP PUSH2 0x16E8 DUP4 PUSH2 0x1698 JUMP JUMPDEST SWAP3 POP POP PUSH1 0x1 DUP2 ADD SWAP1 POP PUSH2 0x16C9 JUMP JUMPDEST POP DUP6 SWAP4 POP POP POP POP SWAP3 SWAP2 POP POP JUMP JUMPDEST PUSH1 0x0 DUP2 MLOAD SWAP1 POP SWAP2 SWAP1 POP JUMP JUMPDEST PUSH1 0x0 DUP3 DUP3 MSTORE PUSH1 0x20 DUP3 ADD SWAP1 POP SWAP3 SWAP2 POP POP JUMP JUMPDEST PUSH1 0x0 DUP2 SWAP1 POP PUSH1 0x20 DUP3 ADD SWAP1 POP SWAP2 SWAP1 POP JUMP JUMPDEST PUSH1 0x0 DUP3 DUP3 MSTORE PUSH1 0x20 DUP3 ADD SWAP1 POP SWAP3 SWAP2 POP POP JUMP JUMPDEST PUSH1 0x0 PUSH2 0x174B DUP3 PUSH2 0x15B7 JUMP JUMPDEST PUSH2 0x1755 DUP2 DUP6 PUSH2 0x172F JUMP JUMPDEST SWAP4 POP PUSH2 0x1765 DUP2 DUP6 PUSH1 0x20 DUP7 ADD PUSH2 0x15D3 JUMP JUMPDEST PUSH2 0x176E DUP2 PUSH2 0xFFD JUMP JUMPDEST DUP5 ADD SWAP2 POP POP SWAP3 SWAP2 POP POP JUMP JUMPDEST PUSH2 0x1782 DUP2 PUSH2 0x116F JUMP JUMPDEST DUP3 MSTORE POP POP JUMP JUMPDEST PUSH1 0x0 PUSH1 0xC0 DUP4 ADD PUSH1 0x0 DUP4 ADD MLOAD DUP5 DUP3 SUB PUSH1 0x0 DUP7 ADD MSTORE PUSH2 0x17A5 DUP3 DUP3 PUSH2 0x1740 JUMP JUMPDEST SWAP2 POP POP PUSH1 0x20 DUP4 ADD MLOAD DUP5 DUP3 SUB PUSH1 0x20 DUP7 ADD MSTORE PUSH2 0x17BF DUP3 DUP3 PUSH2 0x1740 JUMP JUMPDEST SWAP2 POP POP PUSH1 0x40 DUP4 ADD MLOAD PUSH2 0x17D4 PUSH1 0x40 DUP7 ADD DUP3 PUSH2 0x1671 JUMP JUMPDEST POP PUSH1 0x60 DUP4 ADD MLOAD DUP5 DUP3 SUB PUSH1 0x60 DUP7 ADD MSTORE PUSH2 0x17EC DUP3 DUP3 PUSH2 0x1740 JUMP JUMPDEST SWAP2 POP POP PUSH1 0x80 DUP4 ADD MLOAD DUP5 DUP3 SUB PUSH1 0x80 DUP7 ADD MSTORE PUSH2 0x1806 DUP3 DUP3 PUSH2 0x1740 JUMP JUMPDEST SWAP2 POP POP PUSH1 0xA0 DUP4 ADD MLOAD PUSH2 0x181B PUSH1 0xA0 DUP7 ADD DUP3 PUSH2 0x1779 JUMP JUMPDEST POP DUP1 SWAP2 POP POP SWAP3 SWAP2 POP POP JUMP JUMPDEST PUSH1 0x0 PUSH2 0x1832 DUP4 DUP4 PUSH2 0x1788 JUMP JUMPDEST SWAP1 POP SWAP3 SWAP2 POP POP JUMP JUMPDEST PUSH1 0x0 PUSH1 0x20 DUP3 ADD SWAP1 POP SWAP2 SWAP1 POP JUMP JUMPDEST PUSH1 0x0 PUSH2 0x1852 DUP3 PUSH2 0x1703 JUMP JUMPDEST PUSH2 0x185C DUP2 DUP6 PUSH2 0x170E JUMP JUMPDEST SWAP4 POP DUP4 PUSH1 0x20 DUP3 MUL DUP6 ADD PUSH2 0x186E DUP6 PUSH2 0x171F JUMP JUMPDEST DUP1 PUSH1 0x0 JUMPDEST DUP6 DUP2 LT ISZERO PUSH2 0x18AA JUMPI DUP5 DUP5 SUB DUP10 MSTORE DUP2 MLOAD PUSH2 0x188B DUP6 DUP3 PUSH2 0x1826 JUMP JUMPDEST SWAP5 POP PUSH2 0x1896 DUP4 PUSH2 0x183A JUMP JUMPDEST SWAP3 POP PUSH1 0x20 DUP11 ADD SWAP10 POP POP PUSH1 0x1 DUP2 ADD SWAP1 POP PUSH2 0x1872 JUMP JUMPDEST POP DUP3 SWAP8 POP DUP8 SWAP6 POP POP POP POP POP POP SWAP3 SWAP2 POP POP JUMP JUMPDEST PUSH1 0x0 PUSH2 0x100 DUP3 ADD SWAP1 POP DUP2 DUP2 SUB PUSH1 0x0 DUP4 ADD MSTORE PUSH2 0x18D7 DUP2 DUP12 PUSH2 0x15FD JUMP JUMPDEST SWAP1 POP DUP2 DUP2 SUB PUSH1 0x20 DUP4 ADD MSTORE PUSH2 0x18EB DUP2 DUP11 PUSH2 0x15FD JUMP JUMPDEST SWAP1 POP PUSH2 0x18FA PUSH1 0x40 DUP4 ADD DUP10 PUSH2 0x1636 JUMP JUMPDEST DUP2 DUP2 SUB PUSH1 0x60 DUP4 ADD MSTORE PUSH2 0x190C DUP2 DUP9 PUSH2 0x16A5 JUMP JUMPDEST SWAP1 POP DUP2 DUP2 SUB PUSH1 0x80 DUP4 ADD MSTORE PUSH2 0x1920 DUP2 DUP8 PUSH2 0x16A5 JUMP JUMPDEST SWAP1 POP DUP2 DUP2 SUB PUSH1 0xA0 DUP4 ADD MSTORE PUSH2 0x1934 DUP2 DUP7 PUSH2 0x15FD JUMP JUMPDEST SWAP1 POP DUP2 DUP2 SUB PUSH1 0xC0 DUP4 ADD MSTORE PUSH2 0x1948 DUP2 DUP6 PUSH2 0x15FD JUMP JUMPDEST SWAP1 POP DUP2 DUP2 SUB PUSH1 0xE0 DUP4 ADD MSTORE PUSH2 0x195C DUP2 DUP5 PUSH2 0x1847 JUMP JUMPDEST SWAP1 POP SWAP10 SWAP9 POP POP POP POP POP POP POP POP POP JUMP JUMPDEST PUSH1 0x0 DUP2 MLOAD SWAP1 POP SWAP2 SWAP1 POP JUMP JUMPDEST PUSH1 0x0 DUP3 DUP3 MSTORE PUSH1 0x20 DUP3 ADD SWAP1 POP SWAP3 SWAP2 POP POP JUMP JUMPDEST PUSH1 0x0 DUP2 SWAP1 POP PUSH1 0x20 DUP3 ADD SWAP1 POP SWAP2 SWAP1 POP JUMP JUMPDEST PUSH1 0x0 PUSH2 0x19A3 DUP4 DUP4 PUSH2 0x1740 JUMP JUMPDEST SWAP1 POP SWAP3 SWAP2 POP POP JUMP JUMPDEST PUSH1 0x0 PUSH1 0x20 DUP3 ADD SWAP1 POP SWAP2 SWAP1 POP JUMP JUMPDEST PUSH1 0x0 PUSH2 0x19C3 DUP3 PUSH2 0x196B JUMP JUMPDEST PUSH2 0x19CD DUP2 DUP6 PUSH2 0x1976 JUMP JUMPDEST SWAP4 POP DUP4 PUSH1 0x20 DUP3 MUL DUP6 ADD PUSH2 0x19DF DUP6 PUSH2 0x1987 JUMP JUMPDEST DUP1 PUSH1 0x0 JUMPDEST DUP6 DUP2 LT ISZERO PUSH2 0x1A1B JUMPI DUP5 DUP5 SUB DUP10 MSTORE DUP2 MLOAD PUSH2 0x19FC DUP6 DUP3 PUSH2 0x1997 JUMP JUMPDEST SWAP5 POP PUSH2 0x1A07 DUP4 PUSH2 0x19AB JUMP JUMPDEST SWAP3 POP PUSH1 0x20 DUP11 ADD SWAP10 POP POP PUSH1 0x1 DUP2 ADD SWAP1 POP PUSH2 0x19E3 JUMP JUMPDEST POP DUP3 SWAP8 POP DUP8 SWAP6 POP POP POP POP POP POP SWAP3 SWAP2 POP POP JUMP JUMPDEST PUSH1 0x0 PUSH1 0x60 DUP3 ADD SWAP1 POP DUP2 DUP2 SUB PUSH1 0x0 DUP4 ADD MSTORE PUSH2 0x1A47 DUP2 DUP7 PUSH2 0x19B8 JUMP JUMPDEST SWAP1 POP DUP2 DUP2 SUB PUSH1 0x20 DUP4 ADD MSTORE PUSH2 0x1A5B DUP2 DUP6 PUSH2 0x19B8 JUMP JUMPDEST SWAP1 POP DUP2 DUP2 SUB PUSH1 0x40 DUP4 ADD MSTORE PUSH2 0x1A6F DUP2 DUP5 PUSH2 0x19B8 JUMP JUMPDEST SWAP1 POP SWAP5 SWAP4 POP POP POP POP JUMP JUMPDEST PUSH1 0x0 PUSH8 0xFFFFFFFFFFFFFFFF DUP3 GT ISZERO PUSH2 0x1A94 JUMPI PUSH2 0x1A93 PUSH2 0x100E JUMP JUMPDEST JUMPDEST PUSH1 0x20 DUP3 MUL SWAP1 POP PUSH1 0x20 DUP2 ADD SWAP1 POP SWAP2 SWAP1 POP JUMP JUMPDEST PUSH1 0x0 DUP1 REVERT JUMPDEST PUSH1 0x0 PUSH2 0x1ABD PUSH2 0x1AB8 DUP5 PUSH2 0x1A79 JUMP JUMPDEST PUSH2 0x106E JUMP JUMPDEST SWAP1 POP DUP1 DUP4 DUP3 MSTORE PUSH1 0x20 DUP3 ADD SWAP1 POP PUSH1 0x20 DUP5 MUL DUP4 ADD DUP6 DUP2 GT ISZERO PUSH2 0x1AE0 JUMPI PUSH2 0x1ADF PUSH2 0x1AA5 JUMP JUMPDEST JUMPDEST DUP4 JUMPDEST DUP2 DUP2 LT ISZERO PUSH2 0x1B27 JUMPI DUP1 CALLDATALOAD PUSH8 0xFFFFFFFFFFFFFFFF DUP2 GT ISZERO PUSH2 0x1B05 JUMPI PUSH2 0x1B04 PUSH2 0xFF3 JUMP JUMPDEST JUMPDEST DUP1 DUP7 ADD PUSH2 0x1B12 DUP10 DUP3 PUSH2 0x110B JUMP JUMPDEST DUP6 MSTORE PUSH1 0x20 DUP6 ADD SWAP5 POP POP POP PUSH1 0x20 DUP2 ADD SWAP1 POP PUSH2 0x1AE2 JUMP JUMPDEST POP POP POP SWAP4 SWAP3 POP POP POP JUMP JUMPDEST PUSH1 0x0 DUP3 PUSH1 0x1F DUP4 ADD SLT PUSH2 0x1B46 JUMPI PUSH2 0x1B45 PUSH2 0xFF3 JUMP JUMPDEST JUMPDEST DUP2 CALLDATALOAD PUSH2 0x1B56 DUP5 DUP3 PUSH1 0x20 DUP7 ADD PUSH2 0x1AAA JUMP JUMPDEST SWAP2 POP POP SWAP3 SWAP2 POP POP JUMP JUMPDEST PUSH1 0x0 DUP1 PUSH1 0x0 DUP1 PUSH1 0x80 DUP6 DUP8 SUB SLT ISZERO PUSH2 0x1B79 JUMPI PUSH2 0x1B78 PUSH2 0xFE9 JUMP JUMPDEST JUMPDEST PUSH1 0x0 DUP6 ADD CALLDATALOAD PUSH8 0xFFFFFFFFFFFFFFFF DUP2 GT ISZERO PUSH2 0x1B97 JUMPI PUSH2 0x1B96 PUSH2 0xFEE JUMP JUMPDEST JUMPDEST PUSH2 0x1BA3 DUP8 DUP3 DUP9 ADD PUSH2 0x110B JUMP JUMPDEST SWAP5 POP POP PUSH1 0x20 DUP6 ADD CALLDATALOAD PUSH8 0xFFFFFFFFFFFFFFFF DUP2 GT ISZERO PUSH2 0x1BC4 JUMPI PUSH2 0x1BC3 PUSH2 0xFEE JUMP JUMPDEST JUMPDEST PUSH2 0x1BD0 DUP8 DUP3 DUP9 ADD PUSH2 0x1B31 JUMP JUMPDEST SWAP4 POP POP PUSH1 0x40 DUP6 ADD CALLDATALOAD PUSH8 0xFFFFFFFFFFFFFFFF DUP2 GT ISZERO PUSH2 0x1BF1 JUMPI PUSH2 0x1BF0 PUSH2 0xFEE JUMP JUMPDEST JUMPDEST PUSH2 0x1BFD DUP8 DUP3 DUP9 ADD PUSH2 0x1B31 JUMP JUMPDEST SWAP3 POP POP PUSH1 0x60 DUP6 ADD CALLDATALOAD PUSH8 0xFFFFFFFFFFFFFFFF DUP2 GT ISZERO PUSH2 0x1C1E JUMPI PUSH2 0x1C1D PUSH2 0xFEE JUMP JUMPDEST JUMPDEST PUSH2 0x1C2A DUP8 DUP3 DUP9 ADD PUSH2 0x1B31 JUMP JUMPDEST SWAP2 POP POP SWAP3 SWAP6 SWAP2 SWAP5 POP SWAP3 POP JUMP JUMPDEST PUSH1 0x0 DUP2 SWAP1 POP SWAP3 SWAP2 POP POP JUMP JUMPDEST PUSH1 0x0 PUSH2 0x1C4C DUP3 PUSH2 0x15B7 JUMP JUMPDEST PUSH2 0x1C56 DUP2 DUP6 PUSH2 0x1C36 JUMP JUMPDEST SWAP4 POP PUSH2 0x1C66 DUP2 DUP6 PUSH1 0x20 DUP7 ADD PUSH2 0x15D3 JUMP JUMPDEST DUP1 DUP5 ADD SWAP2 POP POP SWAP3 SWAP2 POP POP JUMP JUMPDEST PUSH1 0x0 PUSH2 0x1C7E DUP3 DUP5 PUSH2 0x1C41 JUMP JUMPDEST SWAP2 POP DUP2 SWAP1 POP SWAP3 SWAP2 POP POP JUMP JUMPDEST PUSH32 0x4E487B7100000000000000000000000000000000000000000000000000000000 PUSH1 0x0 MSTORE PUSH1 0x22 PUSH1 0x4 MSTORE PUSH1 0x24 PUSH1 0x0 REVERT JUMPDEST PUSH1 0x0 PUSH1 0x2 DUP3 DIV SWAP1 POP PUSH1 0x1 DUP3 AND DUP1 PUSH2 0x1CD0 JUMPI PUSH1 0x7F DUP3 AND SWAP2 POP JUMPDEST PUSH1 0x20 DUP3 LT DUP2 SUB PUSH2 0x1CE3 JUMPI PUSH2 0x1CE2 PUSH2 0x1C89 JUMP JUMPDEST JUMPDEST POP SWAP2 SWAP1 POP JUMP JUMPDEST PUSH1 0x0 DUP2 SWAP1 POP DUP2 PUSH1 0x0 MSTORE PUSH1 0x20 PUSH1 0x0 KECCAK256 SWAP1 POP SWAP2 SWAP1 POP JUMP JUMPDEST PUSH1 0x0 PUSH1 0x20 PUSH1 0x1F DUP4 ADD DIV SWAP1 POP SWAP2 SWAP1 POP JUMP JUMPDEST PUSH1 0x0 DUP3 DUP3 SHL SWAP1 POP SWAP3 SWAP2 POP POP JUMP JUMPDEST PUSH1 0x0 PUSH1 0x8 DUP4 MUL PUSH2 0x1D4B PUSH32 0xFFFFFFFFFFFFFFFFFFFFFFFFFFFFFFFFFFFFFFFFFFFFFFFFFFFFFFFFFFFFFFFF DUP3 PUSH2 0x1D0E JUMP JUMPDEST PUSH2 0x1D55 DUP7 DUP4 PUSH2 0x1D0E JUMP JUMPDEST SWAP6 POP DUP1 NOT DUP5 AND SWAP4 POP DUP1 DUP7 AND DUP5 OR SWAP3 POP POP POP SWAP4 SWAP3 POP POP POP JUMP JUMPDEST PUSH1 0x0 DUP2 SWAP1 POP SWAP2 SWAP1 POP JUMP JUMPDEST PUSH1 0x0 PUSH2 0x1D92 PUSH2 0x1D8D PUSH2 0x1D88 DUP5 PUSH2 0x1139 JUMP JUMPDEST PUSH2 0x1D6D JUMP JUMPDEST PUSH2 0x1139 JUMP JUMPDEST SWAP1 POP SWAP2 SWAP1 POP JUMP JUMPDEST PUSH1 0x0 DUP2 SWAP1 POP SWAP2 SWAP1 POP JUMP JUMPDEST PUSH2 0x1DAC DUP4 PUSH2 0x1D77 JUMP JUMPDEST PUSH2 0x1DC0 PUSH2 0x1DB8 DUP3 PUSH2 0x1D99 JUMP JUMPDEST DUP5 DUP5 SLOAD PUSH2 0x1D1B JUMP JUMPDEST DUP3 SSTORE POP POP POP POP JUMP JUMPDEST PUSH1 0x0 SWAP1 JUMP JUMPDEST PUSH2 0x1DD5 PUSH2 0x1DC8 JUMP JUMPDEST PUSH2 0x1DE0 DUP2 DUP5 DUP5 PUSH2 0x1DA3 JUMP JUMPDEST POP POP POP JUMP JUMPDEST JUMPDEST DUP2 DUP2 LT ISZERO PUSH2 0x1E04 JUMPI PUSH2 0x1DF9 PUSH1 0x0 DUP3 PUSH2 0x1DCD JUMP JUMPDEST PUSH1 0x1 DUP2 ADD SWAP1 POP PUSH2 0x1DE6 JUMP JUMPDEST POP POP JUMP JUMPDEST PUSH1 0x1F DUP3 GT ISZERO PUSH2 0x1E49 JUMPI PUSH2 0x1E1A DUP2 PUSH2 0x1CE9 JUMP JUMPDEST PUSH2 0x1E23 DUP5 PUSH2 0x1CFE JUMP JUMPDEST DUP2 ADD PUSH1 0x20 DUP6 LT ISZERO PUSH2 0x1E32 JUMPI DUP2 SWAP1 POP JUMPDEST PUSH2 0x1E46 PUSH2 0x1E3E DUP6 PUSH2 0x1CFE JUMP JUMPDEST DUP4 ADD DUP3 PUSH2 0x1DE5 JUMP JUMPDEST POP POP JUMPDEST POP POP POP JUMP JUMPDEST PUSH1 0x0 DUP3 DUP3 SHR SWAP1 POP SWAP3 SWAP2 POP POP JUMP JUMPDEST PUSH1 0x0 PUSH2 0x1E6C PUSH1 0x0 NOT DUP5 PUSH1 0x8 MUL PUSH2 0x1E4E JUMP JUMPDEST NOT DUP1 DUP4 AND SWAP2 POP POP SWAP3 SWAP2 POP POP JUMP JUMPDEST PUSH1 0x0 PUSH2 0x1E85 DUP4 DUP4 PUSH2 0x1E5B JUMP JUMPDEST SWAP2 POP DUP3 PUSH1 0x2 MUL DUP3 OR SWAP1 POP SWAP3 SWAP2 POP POP JUMP JUMPDEST PUSH2 0x1E9E DUP3 PUSH2 0x15B7 JUMP JUMPDEST PUSH8 0xFFFFFFFFFFFFFFFF DUP2 GT ISZERO PUSH2 0x1EB7 JUMPI PUSH2 0x1EB6 PUSH2 0x100E JUMP JUMPDEST JUMPDEST PUSH2 0x1EC1 DUP3 SLOAD PUSH2 0x1CB8 JUMP JUMPDEST PUSH2 0x1ECC DUP3 DUP3 DUP6 PUSH2 0x1E08 JUMP JUMPDEST PUSH1 0x0 PUSH1 0x20 SWAP1 POP PUSH1 0x1F DUP4 GT PUSH1 0x1 DUP2 EQ PUSH2 0x1EFF JUMPI PUSH1 0x0 DUP5 ISZERO PUSH2 0x1EED JUMPI DUP3 DUP8 ADD MLOAD SWAP1 POP JUMPDEST PUSH2 0x1EF7 DUP6 DUP3 PUSH2 0x1E79 JUMP JUMPDEST DUP7 SSTORE POP PUSH2 0x1F5F JUMP JUMPDEST PUSH1 0x1F NOT DUP5 AND PUSH2 0x1F0D DUP7 PUSH2 0x1CE9 JUMP JUMPDEST PUSH1 0x0 JUMPDEST DUP3 DUP2 LT ISZERO PUSH2 0x1F35 JUMPI DUP5 DUP10 ADD MLOAD DUP3 SSTORE PUSH1 0x1 DUP3 ADD SWAP2 POP PUSH1 0x20 DUP6 ADD SWAP5 POP PUSH1 0x20 DUP2 ADD SWAP1 POP PUSH2 0x1F10 JUMP JUMPDEST DUP7 DUP4 LT ISZERO PUSH2 0x1F52 JUMPI DUP5 DUP10 ADD MLOAD PUSH2 0x1F4E PUSH1 0x1F DUP10 AND DUP3 PUSH2 0x1E5B JUMP JUMPDEST DUP4 SSTORE POP JUMPDEST PUSH1 0x1 PUSH1 0x2 DUP9 MUL ADD DUP9 SSTORE POP POP POP JUMPDEST POP POP POP POP POP POP JUMP JUMPDEST PUSH32 0x4E487B7100000000000000000000000000000000000000000000000000000000 PUSH1 0x0 MSTORE PUSH1 0x11 PUSH1 0x4 MSTORE PUSH1 0x24 PUSH1 0x0 REVERT JUMPDEST PUSH1 0x0 PUSH2 0x1FA1 DUP3 PUSH2 0x1139 JUMP JUMPDEST SWAP2 POP PUSH32 0xFFFFFFFFFFFFFFFFFFFFFFFFFFFFFFFFFFFFFFFFFFFFFFFFFFFFFFFFFFFFFFFF DUP3 SUB PUSH2 0x1FD3 JUMPI PUSH2 0x1FD2 PUSH2 0x1F67 JUMP JUMPDEST JUMPDEST PUSH1 0x1 DUP3 ADD SWAP1 POP SWAP2 SWAP1 POP JUMP JUMPDEST PUSH32 0x4F6E6C7920617574686F72697A656420646F63746F72732063616E2061636365 PUSH1 0x0 DUP3 ADD MSTORE PUSH32 0x737320746869732066756E6374696F6E00000000000000000000000000000000 PUSH1 0x20 DUP3 ADD MSTORE POP JUMP JUMPDEST PUSH1 0x0 PUSH2 0x203A PUSH1 0x30 DUP4 PUSH2 0x15C2 JUMP JUMPDEST SWAP2 POP PUSH2 0x2045 DUP3 PUSH2 0x1FDE JUMP JUMPDEST PUSH1 0x40 DUP3 ADD SWAP1 POP SWAP2 SWAP1 POP JUMP JUMPDEST PUSH1 0x0 PUSH1 0x20 DUP3 ADD SWAP1 POP DUP2 DUP2 SUB PUSH1 0x0 DUP4 ADD MSTORE PUSH2 0x2069 DUP2 PUSH2 0x202D JUMP JUMPDEST SWAP1 POP SWAP2 SWAP1 POP JUMP INVALID LOG2 PUSH5 0x6970667358 0x22 SLT KECCAK256 PUSH26 0x51890F6B2415612223693977FD622EF2A1394E4EFDE949987AB 0xEB 0xC7 PUSH4 0x82A6473 PUSH16 0x6C634300081200330000000000000000 "
				},
				"gasEstimates": {
					"creation": {
						"codeDepositCost": "1671600",
						"executionCost": "1757",
						"totalCost": "1673357"
					},
					"external": {
						"addDoctor(string,string,string,string,string)": "infinite",
						"addPatient(string,string,uint256,string,string)": "infinite",
						"getPatientAllergies(string)": "infinite",
						"getPatientInfo(string)": "infinite",
						"updateAllergy(string,string[],string[],string[])": "infinite",
						"updatePrescription(string,string,string,uint256,string,string,bool)": "infinite",
						"updateVaccine(string,string,string)": "infinite"
					}
				},
				"methodIdentifiers": {
					"addDoctor(string,string,string,string,string)": "1f56c50a",
					"addPatient(string,string,uint256,string,string)": "3276a2ac",
					"getPatientAllergies(string)": "6df36bc6",
					"getPatientInfo(string)": "68cdafb3",
					"updateAllergy(string,string[],string[],string[])": "75b39e2b",
					"updatePrescription(string,string,string,uint256,string,string,bool)": "16c11d68",
					"updateVaccine(string,string,string)": "54506048"
				}
			},
			"storageLayout": {
				"storage": [
					{
						"astId": 93,
						"contract": "contracts/_Database.sol:MedicalRecords",
						"label": "doctors",
						"offset": 0,
						"slot": "0",
						"type": "t_mapping(t_address,t_struct(Doctor)88_storage)"
					},
					{
						"astId": 98,
						"contract": "contracts/_Database.sol:MedicalRecords",
						"label": "patients",
						"offset": 0,
						"slot": "1",
						"type": "t_mapping(t_string_memory_ptr,t_struct(Patient)57_storage)"
					},
					{
						"astId": 103,
						"contract": "contracts/_Database.sol:MedicalRecords",
						"label": "patientAllergies",
						"offset": 0,
						"slot": "2",
						"type": "t_mapping(t_string_memory_ptr,t_struct(Allergies)11_storage)"
					}
				],
				"types": {
					"t_address": {
						"encoding": "inplace",
						"label": "address",
						"numberOfBytes": "20"
					},
					"t_array(t_string_storage)dyn_storage": {
						"base": "t_string_storage",
						"encoding": "dynamic_array",
						"label": "string[]",
						"numberOfBytes": "32"
					},
					"t_array(t_struct(Prescription)29_storage)dyn_storage": {
						"base": "t_struct(Prescription)29_storage",
						"encoding": "dynamic_array",
						"label": "struct MedicalRecords.Prescription[]",
						"numberOfBytes": "32"
					},
					"t_array(t_uint256)dyn_storage": {
						"base": "t_uint256",
						"encoding": "dynamic_array",
						"label": "uint256[]",
						"numberOfBytes": "32"
					},
					"t_bool": {
						"encoding": "inplace",
						"label": "bool",
						"numberOfBytes": "1"
					},
					"t_mapping(t_address,t_struct(Doctor)88_storage)": {
						"encoding": "mapping",
						"key": "t_address",
						"label": "mapping(address => struct MedicalRecords.Doctor)",
						"numberOfBytes": "32",
						"value": "t_struct(Doctor)88_storage"
					},
					"t_mapping(t_string_memory_ptr,t_struct(Allergies)11_storage)": {
						"encoding": "mapping",
						"key": "t_string_memory_ptr",
						"label": "mapping(string => struct MedicalRecords.Allergies)",
						"numberOfBytes": "32",
						"value": "t_struct(Allergies)11_storage"
					},
					"t_mapping(t_string_memory_ptr,t_struct(Patient)57_storage)": {
						"encoding": "mapping",
						"key": "t_string_memory_ptr",
						"label": "mapping(string => struct MedicalRecords.Patient)",
						"numberOfBytes": "32",
						"value": "t_struct(Patient)57_storage"
					},
					"t_mapping(t_uint256,t_struct(Vaccine)16_storage)": {
						"encoding": "mapping",
						"key": "t_uint256",
						"label": "mapping(uint256 => struct MedicalRecords.Vaccine)",
						"numberOfBytes": "32",
						"value": "t_struct(Vaccine)16_storage"
					},
					"t_string_memory_ptr": {
						"encoding": "bytes",
						"label": "string",
						"numberOfBytes": "32"
					},
					"t_string_storage": {
						"encoding": "bytes",
						"label": "string",
						"numberOfBytes": "32"
					},
					"t_struct(Allergies)11_storage": {
						"encoding": "inplace",
						"label": "struct MedicalRecords.Allergies",
						"members": [
							{
								"astId": 4,
								"contract": "contracts/_Database.sol:MedicalRecords",
								"label": "food",
								"offset": 0,
								"slot": "0",
								"type": "t_array(t_string_storage)dyn_storage"
							},
							{
								"astId": 7,
								"contract": "contracts/_Database.sol:MedicalRecords",
								"label": "medicines",
								"offset": 0,
								"slot": "1",
								"type": "t_array(t_string_storage)dyn_storage"
							},
							{
								"astId": 10,
								"contract": "contracts/_Database.sol:MedicalRecords",
								"label": "others",
								"offset": 0,
								"slot": "2",
								"type": "t_array(t_string_storage)dyn_storage"
							}
						],
						"numberOfBytes": "96"
					},
					"t_struct(Doctor)88_storage": {
						"encoding": "inplace",
						"label": "struct MedicalRecords.Doctor",
						"members": [
							{
								"astId": 77,
								"contract": "contracts/_Database.sol:MedicalRecords",
								"label": "doctorAddress",
								"offset": 0,
								"slot": "0",
								"type": "t_address"
							},
							{
								"astId": 79,
								"contract": "contracts/_Database.sol:MedicalRecords",
								"label": "name",
								"offset": 0,
								"slot": "1",
								"type": "t_string_storage"
							},
							{
								"astId": 81,
								"contract": "contracts/_Database.sol:MedicalRecords",
								"label": "d_id",
								"offset": 0,
								"slot": "2",
								"type": "t_string_storage"
							},
							{
								"astId": 83,
								"contract": "contracts/_Database.sol:MedicalRecords",
								"label": "hospital",
								"offset": 0,
								"slot": "3",
								"type": "t_string_storage"
							},
							{
								"astId": 85,
								"contract": "contracts/_Database.sol:MedicalRecords",
								"label": "license",
								"offset": 0,
								"slot": "4",
								"type": "t_string_storage"
							},
							{
								"astId": 87,
								"contract": "contracts/_Database.sol:MedicalRecords",
								"label": "description",
								"offset": 0,
								"slot": "5",
								"type": "t_string_storage"
							}
						],
						"numberOfBytes": "192"
					},
					"t_struct(Patient)57_storage": {
						"encoding": "inplace",
						"label": "struct MedicalRecords.Patient",
						"members": [
							{
								"astId": 31,
								"contract": "contracts/_Database.sol:MedicalRecords",
								"label": "name",
								"offset": 0,
								"slot": "0",
								"type": "t_string_storage"
							},
							{
								"astId": 33,
								"contract": "contracts/_Database.sol:MedicalRecords",
								"label": "p_id",
								"offset": 0,
								"slot": "1",
								"type": "t_string_storage"
							},
							{
								"astId": 35,
								"contract": "contracts/_Database.sol:MedicalRecords",
								"label": "age",
								"offset": 0,
								"slot": "2",
								"type": "t_uint256"
							},
							{
								"astId": 38,
								"contract": "contracts/_Database.sol:MedicalRecords",
								"label": "BP",
								"offset": 0,
								"slot": "3",
								"type": "t_array(t_uint256)dyn_storage"
							},
							{
								"astId": 41,
								"contract": "contracts/_Database.sol:MedicalRecords",
								"label": "sugar",
								"offset": 0,
								"slot": "4",
								"type": "t_array(t_uint256)dyn_storage"
							},
							{
								"astId": 46,
								"contract": "contracts/_Database.sol:MedicalRecords",
								"label": "vaccines",
								"offset": 0,
								"slot": "5",
								"type": "t_mapping(t_uint256,t_struct(Vaccine)16_storage)"
							},
							{
								"astId": 48,
								"contract": "contracts/_Database.sol:MedicalRecords",
								"label": "vaccineCount",
								"offset": 0,
								"slot": "6",
								"type": "t_uint256"
							},
							{
								"astId": 50,
								"contract": "contracts/_Database.sol:MedicalRecords",
								"label": "specialConditions",
								"offset": 0,
								"slot": "7",
								"type": "t_string_storage"
							},
							{
								"astId": 52,
								"contract": "contracts/_Database.sol:MedicalRecords",
								"label": "bloodGroup",
								"offset": 0,
								"slot": "8",
								"type": "t_string_storage"
							},
							{
								"astId": 56,
								"contract": "contracts/_Database.sol:MedicalRecords",
								"label": "prescriptions",
								"offset": 0,
								"slot": "9",
								"type": "t_array(t_struct(Prescription)29_storage)dyn_storage"
							}
						],
						"numberOfBytes": "320"
					},
					"t_struct(Prescription)29_storage": {
						"encoding": "inplace",
						"label": "struct MedicalRecords.Prescription",
						"members": [
							{
								"astId": 18,
								"contract": "contracts/_Database.sol:MedicalRecords",
								"label": "date",
								"offset": 0,
								"slot": "0",
								"type": "t_string_storage"
							},
							{
								"astId": 20,
								"contract": "contracts/_Database.sol:MedicalRecords",
								"label": "doctorName",
								"offset": 0,
								"slot": "1",
								"type": "t_string_storage"
							},
							{
								"astId": 22,
								"contract": "contracts/_Database.sol:MedicalRecords",
								"label": "interval",
								"offset": 0,
								"slot": "2",
								"type": "t_uint256"
							},
							{
								"astId": 24,
								"contract": "contracts/_Database.sol:MedicalRecords",
								"label": "name",
								"offset": 0,
								"slot": "3",
								"type": "t_string_storage"
							},
							{
								"astId": 26,
								"contract": "contracts/_Database.sol:MedicalRecords",
								"label": "description",
								"offset": 0,
								"slot": "4",
								"type": "t_string_storage"
							},
							{
								"astId": 28,
								"contract": "contracts/_Database.sol:MedicalRecords",
								"label": "isVisible",
								"offset": 0,
								"slot": "5",
								"type": "t_bool"
							}
						],
						"numberOfBytes": "192"
					},
					"t_struct(Vaccine)16_storage": {
						"encoding": "inplace",
						"label": "struct MedicalRecords.Vaccine",
						"members": [
							{
								"astId": 13,
								"contract": "contracts/_Database.sol:MedicalRecords",
								"label": "name",
								"offset": 0,
								"slot": "0",
								"type": "t_string_storage"
							},
							{
								"astId": 15,
								"contract": "contracts/_Database.sol:MedicalRecords",
								"label": "date",
								"offset": 0,
								"slot": "1",
								"type": "t_string_storage"
							}
						],
						"numberOfBytes": "64"
					},
					"t_uint256": {
						"encoding": "inplace",
						"label": "uint256",
						"numberOfBytes": "32"
					}
				}
			},
			"userdoc": {
				"kind": "user",
				"methods": {},
				"version": 1
			}
		}
	}
}