{
	"contracts/_Database2.sol": {
		"MedicalRecords": {
			"abi": [
				{
					"inputs": [
						{
							"internalType": "string",
							"name": "_name",
							"type": "string"
						},
						{
							"internalType": "string",
							"name": "_d_id",
							"type": "string"
						},
						{
							"internalType": "string",
							"name": "_hospital",
							"type": "string"
						},
						{
							"internalType": "string",
							"name": "_license",
							"type": "string"
						},
						{
							"internalType": "string",
							"name": "_description",
							"type": "string"
						}
					],
					"name": "addDoctor",
					"outputs": [],
					"stateMutability": "nonpayable",
					"type": "function"
				},
				{
					"inputs": [
						{
							"internalType": "string",
							"name": "_name",
							"type": "string"
						},
						{
							"internalType": "string",
							"name": "_p_id",
							"type": "string"
						},
						{
							"internalType": "uint256",
							"name": "_age",
							"type": "uint256"
						},
						{
							"internalType": "string",
							"name": "_specialConditions",
							"type": "string"
						},
						{
							"internalType": "string",
							"name": "_bloodGroup",
							"type": "string"
						}
					],
					"name": "addPatient",
					"outputs": [],
					"stateMutability": "nonpayable",
					"type": "function"
				},
				{
					"inputs": [
						{
							"internalType": "string",
							"name": "_p_id",
							"type": "string"
						}
					],
					"name": "getPatientAllergies",
					"outputs": [
						{
							"internalType": "string[]",
							"name": "",
							"type": "string[]"
						},
						{
							"internalType": "string[]",
							"name": "",
							"type": "string[]"
						},
						{
							"internalType": "string[]",
							"name": "",
							"type": "string[]"
						}
					],
					"stateMutability": "view",
					"type": "function"
				},
				{
					"inputs": [
						{
							"internalType": "string",
							"name": "_p_id",
							"type": "string"
						},
						{
							"internalType": "uint256",
							"name": "_index",
							"type": "uint256"
						}
					],
					"name": "getPatientBloodPressure",
					"outputs": [
						{
							"internalType": "string",
							"name": "",
							"type": "string"
						},
						{
							"internalType": "uint256",
							"name": "",
							"type": "uint256"
						},
						{
							"internalType": "uint256",
							"name": "",
							"type": "uint256"
						},
						{
							"internalType": "uint256",
							"name": "",
							"type": "uint256"
						}
					],
					"stateMutability": "view",
					"type": "function"
				},
				{
					"inputs": [
						{
							"internalType": "string",
							"name": "_p_id",
							"type": "string"
						}
					],
					"name": "getPatientInfo",
					"outputs": [
						{
							"internalType": "string",
							"name": "",
							"type": "string"
						},
						{
							"internalType": "string",
							"name": "",
							"type": "string"
						},
						{
							"internalType": "uint256",
							"name": "",
							"type": "uint256"
						},
						{
							"internalType": "string",
							"name": "",
							"type": "string"
						},
						{
							"internalType": "string",
							"name": "",
							"type": "string"
						}
					],
					"stateMutability": "view",
					"type": "function"
				},
				{
					"inputs": [
						{
							"internalType": "string",
							"name": "_p_id",
							"type": "string"
						}
					],
					"name": "getPatientPrescriptions",
					"outputs": [
						{
							"components": [
								{
									"internalType": "string",
									"name": "date",
									"type": "string"
								},
								{
									"internalType": "string",
									"name": "doctorName",
									"type": "string"
								},
								{
									"internalType": "uint256",
									"name": "interval",
									"type": "uint256"
								},
								{
									"internalType": "string",
									"name": "name",
									"type": "string"
								},
								{
									"internalType": "string",
									"name": "description",
									"type": "string"
								},
								{
									"internalType": "bool",
									"name": "isVisible",
									"type": "bool"
								}
							],
							"internalType": "struct MedicalRecords.Prescription[]",
							"name": "",
							"type": "tuple[]"
						}
					],
					"stateMutability": "view",
					"type": "function"
				},
				{
					"inputs": [
						{
							"internalType": "string",
							"name": "_p_id",
							"type": "string"
						},
						{
							"internalType": "uint256",
							"name": "_index",
							"type": "uint256"
						}
					],
					"name": "getPatientSugar",
					"outputs": [
						{
							"internalType": "string",
							"name": "",
							"type": "string"
						},
						{
							"internalType": "bool",
							"name": "",
							"type": "bool"
						},
						{
							"internalType": "bool",
							"name": "",
							"type": "bool"
						},
						{
							"internalType": "uint256",
							"name": "",
							"type": "uint256"
						}
					],
					"stateMutability": "view",
					"type": "function"
				},
				{
					"inputs": [
						{
							"internalType": "string",
							"name": "_p_id",
							"type": "string"
						}
					],
					"name": "getPatientVaccines",
					"outputs": [
						{
							"internalType": "string[]",
							"name": "",
							"type": "string[]"
						},
						{
							"internalType": "string[]",
							"name": "",
							"type": "string[]"
						}
					],
					"stateMutability": "view",
					"type": "function"
				},
				{
					"inputs": [
						{
							"internalType": "string",
							"name": "_p_id",
							"type": "string"
						},
						{
							"internalType": "string[]",
							"name": "_food",
							"type": "string[]"
						},
						{
							"internalType": "string[]",
							"name": "_medicines",
							"type": "string[]"
						},
						{
							"internalType": "string[]",
							"name": "_others",
							"type": "string[]"
						}
					],
					"name": "updateAllergy",
					"outputs": [],
					"stateMutability": "nonpayable",
					"type": "function"
				},
				{
					"inputs": [
						{
							"internalType": "string",
							"name": "_p_id",
							"type": "string"
						},
						{
							"internalType": "string",
							"name": "_date",
							"type": "string"
						},
						{
							"internalType": "string",
							"name": "_doctorName",
							"type": "string"
						},
						{
							"internalType": "uint256",
							"name": "_interval",
							"type": "uint256"
						},
						{
							"internalType": "string",
							"name": "_name",
							"type": "string"
						},
						{
							"internalType": "string",
							"name": "_description",
							"type": "string"
						},
						{
							"internalType": "bool",
							"name": "_isVisible",
							"type": "bool"
						}
					],
					"name": "updatePrescription",
					"outputs": [],
					"stateMutability": "nonpayable",
					"type": "function"
				},
				{
					"inputs": [
						{
							"internalType": "string",
							"name": "_p_id",
							"type": "string"
						},
						{
							"internalType": "string",
							"name": "_name",
							"type": "string"
						},
						{
							"internalType": "string",
							"name": "_date",
							"type": "string"
						}
					],
					"name": "updateVaccine",
					"outputs": [],
					"stateMutability": "nonpayable",
					"type": "function"
				}
			],
			"devdoc": {
				"kind": "dev",
				"methods": {},
				"version": 1
			},
			"evm": {
				"assembly": "    /* \"contracts/_Database2.sol\":60:5743  contract MedicalRecords {... */\n  mstore(0x40, 0x80)\n  callvalue\n  dup1\n  iszero\n  tag_1\n  jumpi\n  0x00\n  dup1\n  revert\ntag_1:\n  pop\n  dataSize(sub_0)\n  dup1\n  dataOffset(sub_0)\n  0x00\n  codecopy\n  0x00\n  return\nstop\n\nsub_0: assembly {\n        /* \"contracts/_Database2.sol\":60:5743  contract MedicalRecords {... */\n      mstore(0x40, 0x80)\n      callvalue\n      dup1\n      iszero\n      tag_1\n      jumpi\n      0x00\n      dup1\n      revert\n    tag_1:\n      pop\n      jumpi(tag_2, lt(calldatasize, 0x04))\n      shr(0xe0, calldataload(0x00))\n      dup1\n      0x54506048\n      gt\n      tag_14\n      jumpi\n      dup1\n      0x54506048\n      eq\n      tag_8\n      jumpi\n      dup1\n      0x68cdafb3\n      eq\n      tag_9\n      jumpi\n      dup1\n      0x6df36bc6\n      eq\n      tag_10\n      jumpi\n      dup1\n      0x75b39e2b\n      eq\n      tag_11\n      jumpi\n      dup1\n      0xa39a7f20\n      eq\n      tag_12\n      jumpi\n      dup1\n      0xe72dc0c1\n      eq\n      tag_13\n      jumpi\n      jump(tag_2)\n    tag_14:\n      dup1\n      0x16c11d68\n      eq\n      tag_3\n      jumpi\n      dup1\n      0x1f56c50a\n      eq\n      tag_4\n      jumpi\n      dup1\n      0x29601ed8\n      eq\n      tag_5\n      jumpi\n      dup1\n      0x2e338def\n      eq\n      tag_6\n      jumpi\n      dup1\n      0x3276a2ac\n      eq\n      tag_7\n      jumpi\n    tag_2:\n      0x00\n      dup1\n      revert\n        /* \"contracts/_Database2.sol\":3003:3417  function updatePrescription(... */\n    tag_3:\n      tag_15\n      0x04\n      dup1\n      calldatasize\n      sub\n      dup2\n      add\n      swap1\n      tag_16\n      swap2\n      swap1\n      tag_17\n      jump\t// in\n    tag_16:\n      tag_18\n      jump\t// in\n    tag_15:\n      stop\n        /* \"contracts/_Database2.sol\":1596:1901  function addDoctor(... */\n    tag_4:\n      tag_19\n      0x04\n      dup1\n      calldatasize\n      sub\n      dup2\n      add\n      swap1\n      tag_20\n      swap2\n      swap1\n      tag_21\n      jump\t// in\n    tag_20:\n      tag_22\n      jump\t// in\n    tag_19:\n      stop\n        /* \"contracts/_Database2.sol\":3734:4317  function getPatientVaccines(string memory _p_id)... */\n    tag_5:\n      tag_23\n      0x04\n      dup1\n      calldatasize\n      sub\n      dup2\n      add\n      swap1\n      tag_24\n      swap2\n      swap1\n      tag_25\n      jump\t// in\n    tag_24:\n      tag_26\n      jump\t// in\n    tag_23:\n      mload(0x40)\n      tag_27\n      swap3\n      swap2\n      swap1\n      tag_28\n      jump\t// in\n    tag_27:\n      mload(0x40)\n      dup1\n      swap2\n      sub\n      swap1\n      return\n        /* \"contracts/_Database2.sol\":4325:4556  function getPatientPrescriptions(string memory _p_id)... */\n    tag_6:\n      tag_29\n      0x04\n      dup1\n      calldatasize\n      sub\n      dup2\n      add\n      swap1\n      tag_30\n      swap2\n      swap1\n      tag_25\n      jump\t// in\n    tag_30:\n      tag_31\n      jump\t// in\n    tag_29:\n      mload(0x40)\n      tag_32\n      swap2\n      swap1\n      tag_33\n      jump\t// in\n    tag_32:\n      mload(0x40)\n      dup1\n      swap2\n      sub\n      swap1\n      return\n        /* \"contracts/_Database2.sol\":1909:2375  function addPatient (... */\n    tag_7:\n      tag_34\n      0x04\n      dup1\n      calldatasize\n      sub\n      dup2\n      add\n      swap1\n      tag_35\n      swap2\n      swap1\n      tag_36\n      jump\t// in\n    tag_35:\n      tag_37\n      jump\t// in\n    tag_34:\n      stop\n        /* \"contracts/_Database2.sol\":2656:2995  function updateVaccine(... */\n    tag_8:\n      tag_38\n      0x04\n      dup1\n      calldatasize\n      sub\n      dup2\n      add\n      swap1\n      tag_39\n      swap2\n      swap1\n      tag_40\n      jump\t// in\n    tag_39:\n      tag_41\n      jump\t// in\n    tag_38:\n      stop\n        /* \"contracts/_Database2.sol\":5253:5740  function getPatientInfo(string memory _p_id)... */\n    tag_9:\n      tag_42\n      0x04\n      dup1\n      calldatasize\n      sub\n      dup2\n      add\n      swap1\n      tag_43\n      swap2\n      swap1\n      tag_25\n      jump\t// in\n    tag_43:\n      tag_44\n      jump\t// in\n    tag_42:\n      mload(0x40)\n      tag_45\n      swap6\n      swap5\n      swap4\n      swap3\n      swap2\n      swap1\n      tag_46\n      jump\t// in\n    tag_45:\n      mload(0x40)\n      dup1\n      swap2\n      sub\n      swap1\n      return\n        /* \"contracts/_Database2.sol\":3425:3726  function getPatientAllergies(string memory _p_id)... */\n    tag_10:\n      tag_47\n      0x04\n      dup1\n      calldatasize\n      sub\n      dup2\n      add\n      swap1\n      tag_48\n      swap2\n      swap1\n      tag_25\n      jump\t// in\n    tag_48:\n      tag_49\n      jump\t// in\n    tag_47:\n      mload(0x40)\n      tag_50\n      swap4\n      swap3\n      swap2\n      swap1\n      tag_51\n      jump\t// in\n    tag_50:\n      mload(0x40)\n      dup1\n      swap2\n      sub\n      swap1\n      return\n        /* \"contracts/_Database2.sol\":2383:2648  function updateAllergy(... */\n    tag_11:\n      tag_52\n      0x04\n      dup1\n      calldatasize\n      sub\n      dup2\n      add\n      swap1\n      tag_53\n      swap2\n      swap1\n      tag_54\n      jump\t// in\n    tag_53:\n      tag_55\n      jump\t// in\n    tag_52:\n      stop\n        /* \"contracts/_Database2.sol\":4564:4895  function getPatientBloodPressure(string memory _p_id, uint256 _index)... */\n    tag_12:\n      tag_56\n      0x04\n      dup1\n      calldatasize\n      sub\n      dup2\n      add\n      swap1\n      tag_57\n      swap2\n      swap1\n      tag_58\n      jump\t// in\n    tag_57:\n      tag_59\n      jump\t// in\n    tag_56:\n      mload(0x40)\n      tag_60\n      swap5\n      swap4\n      swap3\n      swap2\n      swap1\n      tag_61\n      jump\t// in\n    tag_60:\n      mload(0x40)\n      dup1\n      swap2\n      sub\n      swap1\n      return\n        /* \"contracts/_Database2.sol\":4903:5245  function getPatientSugar(string memory _p_id, uint256 _index)... */\n    tag_13:\n      tag_62\n      0x04\n      dup1\n      calldatasize\n      sub\n      dup2\n      add\n      swap1\n      tag_63\n      swap2\n      swap1\n      tag_58\n      jump\t// in\n    tag_63:\n      tag_64\n      jump\t// in\n    tag_62:\n      mload(0x40)\n      tag_65\n      swap5\n      swap4\n      swap3\n      swap2\n      swap1\n      tag_66\n      jump\t// in\n    tag_65:\n      mload(0x40)\n      dup1\n      swap2\n      sub\n      swap1\n      return\n        /* \"contracts/_Database2.sol\":3003:3417  function updatePrescription(... */\n    tag_18:\n        /* \"contracts/_Database2.sol\":3273:3281  patients */\n      0x01\n        /* \"contracts/_Database2.sol\":3282:3287  _p_id */\n      dup8\n        /* \"contracts/_Database2.sol\":3273:3288  patients[_p_id] */\n      mload(0x40)\n      tag_68\n      swap2\n      swap1\n      tag_69\n      jump\t// in\n    tag_68:\n      swap1\n      dup2\n      mstore\n      0x20\n      add\n      mload(0x40)\n      dup1\n      swap2\n      sub\n      swap1\n      keccak256\n        /* \"contracts/_Database2.sol\":3273:3302  patients[_p_id].prescriptions */\n      0x09\n      add\n        /* \"contracts/_Database2.sol\":3322:3398  Prescription(_date, _doctorName, _interval, _name, _description, _isVisible) */\n      mload(0x40)\n      dup1\n      0xc0\n      add\n      0x40\n      mstore\n      dup1\n        /* \"contracts/_Database2.sol\":3335:3340  _date */\n      dup9\n        /* \"contracts/_Database2.sol\":3322:3398  Prescription(_date, _doctorName, _interval, _name, _description, _isVisible) */\n      dup2\n      mstore\n      0x20\n      add\n        /* \"contracts/_Database2.sol\":3342:3353  _doctorName */\n      dup8\n        /* \"contracts/_Database2.sol\":3322:3398  Prescription(_date, _doctorName, _interval, _name, _description, _isVisible) */\n      dup2\n      mstore\n      0x20\n      add\n        /* \"contracts/_Database2.sol\":3355:3364  _interval */\n      dup7\n        /* \"contracts/_Database2.sol\":3322:3398  Prescription(_date, _doctorName, _interval, _name, _description, _isVisible) */\n      dup2\n      mstore\n      0x20\n      add\n        /* \"contracts/_Database2.sol\":3366:3371  _name */\n      dup6\n        /* \"contracts/_Database2.sol\":3322:3398  Prescription(_date, _doctorName, _interval, _name, _description, _isVisible) */\n      dup2\n      mstore\n      0x20\n      add\n        /* \"contracts/_Database2.sol\":3373:3385  _description */\n      dup5\n        /* \"contracts/_Database2.sol\":3322:3398  Prescription(_date, _doctorName, _interval, _name, _description, _isVisible) */\n      dup2\n      mstore\n      0x20\n      add\n        /* \"contracts/_Database2.sol\":3387:3397  _isVisible */\n      dup4\n        /* \"contracts/_Database2.sol\":3322:3398  Prescription(_date, _doctorName, _interval, _name, _description, _isVisible) */\n      iszero\n      iszero\n      dup2\n      mstore\n      pop\n        /* \"contracts/_Database2.sol\":3273:3409  patients[_p_id].prescriptions.push(... */\n      swap1\n      dup1\n      0x01\n      dup2\n      sload\n      add\n      dup1\n      dup3\n      sstore\n      dup1\n      swap2\n      pop\n      pop\n      0x01\n      swap1\n      sub\n      swap1\n      0x00\n      mstore\n      keccak256(0x00, 0x20)\n      swap1\n      0x06\n      mul\n      add\n      0x00\n      swap1\n      swap2\n      swap1\n      swap2\n      swap1\n      swap2\n      pop\n      0x00\n      dup3\n      add\n      mload\n      dup2\n      0x00\n      add\n      swap1\n      dup2\n      tag_71\n      swap2\n      swap1\n      tag_72\n      jump\t// in\n    tag_71:\n      pop\n      0x20\n      dup3\n      add\n      mload\n      dup2\n      0x01\n      add\n      swap1\n      dup2\n      tag_73\n      swap2\n      swap1\n      tag_72\n      jump\t// in\n    tag_73:\n      pop\n      0x40\n      dup3\n      add\n      mload\n      dup2\n      0x02\n      add\n      sstore\n      0x60\n      dup3\n      add\n      mload\n      dup2\n      0x03\n      add\n      swap1\n      dup2\n      tag_74\n      swap2\n      swap1\n      tag_72\n      jump\t// in\n    tag_74:\n      pop\n      0x80\n      dup3\n      add\n      mload\n      dup2\n      0x04\n      add\n      swap1\n      dup2\n      tag_75\n      swap2\n      swap1\n      tag_72\n      jump\t// in\n    tag_75:\n      pop\n      0xa0\n      dup3\n      add\n      mload\n      dup2\n      0x05\n      add\n      exp(0x0100, 0x00)\n      dup2\n      sload\n      dup2\n      0xff\n      mul\n      not\n      and\n      swap1\n      dup4\n      iszero\n      iszero\n      mul\n      or\n      swap1\n      sstore\n      pop\n      pop\n      pop\n        /* \"contracts/_Database2.sol\":3003:3417  function updatePrescription(... */\n      pop\n      pop\n      pop\n      pop\n      pop\n      pop\n      pop\n      jump\t// out\n        /* \"contracts/_Database2.sol\":1596:1901  function addDoctor(... */\n    tag_22:\n        /* \"contracts/_Database2.sol\":1826:1893  Doctor(msg.sender, _name, _d_id, _hospital, _license, _description) */\n      mload(0x40)\n      dup1\n      0xc0\n      add\n      0x40\n      mstore\n      dup1\n        /* \"contracts/_Database2.sol\":1833:1843  msg.sender */\n      caller\n        /* \"contracts/_Database2.sol\":1826:1893  Doctor(msg.sender, _name, _d_id, _hospital, _license, _description) */\n      0xffffffffffffffffffffffffffffffffffffffff\n      and\n      dup2\n      mstore\n      0x20\n      add\n        /* \"contracts/_Database2.sol\":1845:1850  _name */\n      dup7\n        /* \"contracts/_Database2.sol\":1826:1893  Doctor(msg.sender, _name, _d_id, _hospital, _license, _description) */\n      dup2\n      mstore\n      0x20\n      add\n        /* \"contracts/_Database2.sol\":1852:1857  _d_id */\n      dup6\n        /* \"contracts/_Database2.sol\":1826:1893  Doctor(msg.sender, _name, _d_id, _hospital, _license, _description) */\n      dup2\n      mstore\n      0x20\n      add\n        /* \"contracts/_Database2.sol\":1859:1868  _hospital */\n      dup5\n        /* \"contracts/_Database2.sol\":1826:1893  Doctor(msg.sender, _name, _d_id, _hospital, _license, _description) */\n      dup2\n      mstore\n      0x20\n      add\n        /* \"contracts/_Database2.sol\":1870:1878  _license */\n      dup4\n        /* \"contracts/_Database2.sol\":1826:1893  Doctor(msg.sender, _name, _d_id, _hospital, _license, _description) */\n      dup2\n      mstore\n      0x20\n      add\n        /* \"contracts/_Database2.sol\":1880:1892  _description */\n      dup3\n        /* \"contracts/_Database2.sol\":1826:1893  Doctor(msg.sender, _name, _d_id, _hospital, _license, _description) */\n      dup2\n      mstore\n      pop\n        /* \"contracts/_Database2.sol\":1804:1811  doctors */\n      0x00\n        /* \"contracts/_Database2.sol\":1804:1823  doctors[msg.sender] */\n      dup1\n        /* \"contracts/_Database2.sol\":1812:1822  msg.sender */\n      caller\n        /* \"contracts/_Database2.sol\":1804:1823  doctors[msg.sender] */\n      0xffffffffffffffffffffffffffffffffffffffff\n      and\n      0xffffffffffffffffffffffffffffffffffffffff\n      and\n      dup2\n      mstore\n      0x20\n      add\n      swap1\n      dup2\n      mstore\n      0x20\n      add\n      0x00\n      keccak256\n        /* \"contracts/_Database2.sol\":1804:1893  doctors[msg.sender] = Doctor(msg.sender, _name, _d_id, _hospital, _license, _description) */\n      0x00\n      dup3\n      add\n      mload\n      dup2\n      0x00\n      add\n      exp(0x0100, 0x00)\n      dup2\n      sload\n      dup2\n      0xffffffffffffffffffffffffffffffffffffffff\n      mul\n      not\n      and\n      swap1\n      dup4\n      0xffffffffffffffffffffffffffffffffffffffff\n      and\n      mul\n      or\n      swap1\n      sstore\n      pop\n      0x20\n      dup3\n      add\n      mload\n      dup2\n      0x01\n      add\n      swap1\n      dup2\n      tag_77\n      swap2\n      swap1\n      tag_72\n      jump\t// in\n    tag_77:\n      pop\n      0x40\n      dup3\n      add\n      mload\n      dup2\n      0x02\n      add\n      swap1\n      dup2\n      tag_78\n      swap2\n      swap1\n      tag_72\n      jump\t// in\n    tag_78:\n      pop\n      0x60\n      dup3\n      add\n      mload\n      dup2\n      0x03\n      add\n      swap1\n      dup2\n      tag_79\n      swap2\n      swap1\n      tag_72\n      jump\t// in\n    tag_79:\n      pop\n      0x80\n      dup3\n      add\n      mload\n      dup2\n      0x04\n      add\n      swap1\n      dup2\n      tag_80\n      swap2\n      swap1\n      tag_72\n      jump\t// in\n    tag_80:\n      pop\n      0xa0\n      dup3\n      add\n      mload\n      dup2\n      0x05\n      add\n      swap1\n      dup2\n      tag_81\n      swap2\n      swap1\n      tag_72\n      jump\t// in\n    tag_81:\n      pop\n      swap1\n      pop\n      pop\n        /* \"contracts/_Database2.sol\":1596:1901  function addDoctor(... */\n      pop\n      pop\n      pop\n      pop\n      pop\n      jump\t// out\n        /* \"contracts/_Database2.sol\":3734:4317  function getPatientVaccines(string memory _p_id)... */\n    tag_26:\n        /* \"contracts/_Database2.sol\":3833:3848  string[] memory */\n      0x60\n        /* \"contracts/_Database2.sol\":3850:3865  string[] memory */\n      dup1\n        /* \"contracts/_Database2.sol\":3883:3906  Patient storage patient */\n      0x00\n        /* \"contracts/_Database2.sol\":3909:3917  patients */\n      0x01\n        /* \"contracts/_Database2.sol\":3918:3923  _p_id */\n      dup5\n        /* \"contracts/_Database2.sol\":3909:3924  patients[_p_id] */\n      mload(0x40)\n      tag_83\n      swap2\n      swap1\n      tag_69\n      jump\t// in\n    tag_83:\n      swap1\n      dup2\n      mstore\n      0x20\n      add\n      mload(0x40)\n      dup1\n      swap2\n      sub\n      swap1\n      keccak256\n        /* \"contracts/_Database2.sol\":3883:3924  Patient storage patient = patients[_p_id] */\n      swap1\n      pop\n        /* \"contracts/_Database2.sol\":3935:3948  uint256 count */\n      0x00\n        /* \"contracts/_Database2.sol\":3951:3958  patient */\n      dup2\n        /* \"contracts/_Database2.sol\":3951:3971  patient.vaccineCount */\n      0x06\n      add\n      sload\n        /* \"contracts/_Database2.sol\":3935:3971  uint256 count = patient.vaccineCount */\n      swap1\n      pop\n        /* \"contracts/_Database2.sol\":3982:4003  string[] memory names */\n      0x00\n        /* \"contracts/_Database2.sol\":4019:4024  count */\n      dup2\n        /* \"contracts/_Database2.sol\":4006:4025  new string[](count) */\n      0xffffffffffffffff\n      dup2\n      gt\n      iszero\n      tag_84\n      jumpi\n      tag_85\n      tag_86\n      jump\t// in\n    tag_85:\n    tag_84:\n      mload(0x40)\n      swap1\n      dup1\n      dup3\n      mstore\n      dup1\n      0x20\n      mul\n      0x20\n      add\n      dup3\n      add\n      0x40\n      mstore\n      dup1\n      iszero\n      tag_87\n      jumpi\n      dup2\n      0x20\n      add\n    tag_88:\n      0x60\n      dup2\n      mstore\n      0x20\n      add\n      swap1\n      0x01\n      swap1\n      sub\n      swap1\n      dup2\n      tag_88\n      jumpi\n      swap1\n      pop\n    tag_87:\n      pop\n        /* \"contracts/_Database2.sol\":3982:4025  string[] memory names = new string[](count) */\n      swap1\n      pop\n        /* \"contracts/_Database2.sol\":4036:4057  string[] memory dates */\n      0x00\n        /* \"contracts/_Database2.sol\":4073:4078  count */\n      dup3\n        /* \"contracts/_Database2.sol\":4060:4079  new string[](count) */\n      0xffffffffffffffff\n      dup2\n      gt\n      iszero\n      tag_89\n      jumpi\n      tag_90\n      tag_86\n      jump\t// in\n    tag_90:\n    tag_89:\n      mload(0x40)\n      swap1\n      dup1\n      dup3\n      mstore\n      dup1\n      0x20\n      mul\n      0x20\n      add\n      dup3\n      add\n      0x40\n      mstore\n      dup1\n      iszero\n      tag_91\n      jumpi\n      dup2\n      0x20\n      add\n    tag_92:\n      0x60\n      dup2\n      mstore\n      0x20\n      add\n      swap1\n      0x01\n      swap1\n      sub\n      swap1\n      dup2\n      tag_92\n      jumpi\n      swap1\n      pop\n    tag_91:\n      pop\n        /* \"contracts/_Database2.sol\":4036:4079  string[] memory dates = new string[](count) */\n      swap1\n      pop\n        /* \"contracts/_Database2.sol\":4097:4106  uint256 i */\n      0x00\n        /* \"contracts/_Database2.sol\":4092:4276  for (uint256 i = 0; i < count; i++) {... */\n    tag_93:\n        /* \"contracts/_Database2.sol\":4116:4121  count */\n      dup4\n        /* \"contracts/_Database2.sol\":4112:4113  i */\n      dup2\n        /* \"contracts/_Database2.sol\":4112:4121  i < count */\n      lt\n        /* \"contracts/_Database2.sol\":4092:4276  for (uint256 i = 0; i < count; i++) {... */\n      iszero\n      tag_94\n      jumpi\n        /* \"contracts/_Database2.sol\":4143:4166  Vaccine storage vaccine */\n      0x00\n        /* \"contracts/_Database2.sol\":4169:4176  patient */\n      dup6\n        /* \"contracts/_Database2.sol\":4169:4185  patient.vaccines */\n      0x05\n      add\n        /* \"contracts/_Database2.sol\":4169:4188  patient.vaccines[i] */\n      0x00\n        /* \"contracts/_Database2.sol\":4186:4187  i */\n      dup4\n        /* \"contracts/_Database2.sol\":4169:4188  patient.vaccines[i] */\n      dup2\n      mstore\n      0x20\n      add\n      swap1\n      dup2\n      mstore\n      0x20\n      add\n      0x00\n      keccak256\n        /* \"contracts/_Database2.sol\":4143:4188  Vaccine storage vaccine = patient.vaccines[i] */\n      swap1\n      pop\n        /* \"contracts/_Database2.sol\":4214:4221  vaccine */\n      dup1\n        /* \"contracts/_Database2.sol\":4214:4226  vaccine.name */\n      0x00\n      add\n        /* \"contracts/_Database2.sol\":4203:4226  names[i] = vaccine.name */\n      dup1\n      sload\n      tag_96\n      swap1\n      tag_97\n      jump\t// in\n    tag_96:\n      dup1\n      0x1f\n      add\n      0x20\n      dup1\n      swap2\n      div\n      mul\n      0x20\n      add\n      mload(0x40)\n      swap1\n      dup2\n      add\n      0x40\n      mstore\n      dup1\n      swap3\n      swap2\n      swap1\n      dup2\n      dup2\n      mstore\n      0x20\n      add\n      dup3\n      dup1\n      sload\n      tag_98\n      swap1\n      tag_97\n      jump\t// in\n    tag_98:\n      dup1\n      iszero\n      tag_99\n      jumpi\n      dup1\n      0x1f\n      lt\n      tag_100\n      jumpi\n      0x0100\n      dup1\n      dup4\n      sload\n      div\n      mul\n      dup4\n      mstore\n      swap2\n      0x20\n      add\n      swap2\n      jump(tag_99)\n    tag_100:\n      dup3\n      add\n      swap2\n      swap1\n      0x00\n      mstore\n      keccak256(0x00, 0x20)\n      swap1\n    tag_101:\n      dup2\n      sload\n      dup2\n      mstore\n      swap1\n      0x01\n      add\n      swap1\n      0x20\n      add\n      dup1\n      dup4\n      gt\n      tag_101\n      jumpi\n      dup3\n      swap1\n      sub\n      0x1f\n      and\n      dup3\n      add\n      swap2\n    tag_99:\n      pop\n      pop\n      pop\n      pop\n      pop\n        /* \"contracts/_Database2.sol\":4203:4208  names */\n      dup5\n        /* \"contracts/_Database2.sol\":4209:4210  i */\n      dup4\n        /* \"contracts/_Database2.sol\":4203:4211  names[i] */\n      dup2\n      mload\n      dup2\n      lt\n      tag_102\n      jumpi\n      tag_103\n      tag_104\n      jump\t// in\n    tag_103:\n    tag_102:\n      0x20\n      mul\n      0x20\n      add\n      add\n        /* \"contracts/_Database2.sol\":4203:4226  names[i] = vaccine.name */\n      dup2\n      swap1\n      mstore\n      pop\n        /* \"contracts/_Database2.sol\":4252:4259  vaccine */\n      dup1\n        /* \"contracts/_Database2.sol\":4252:4264  vaccine.date */\n      0x01\n      add\n        /* \"contracts/_Database2.sol\":4241:4264  dates[i] = vaccine.date */\n      dup1\n      sload\n      tag_105\n      swap1\n      tag_97\n      jump\t// in\n    tag_105:\n      dup1\n      0x1f\n      add\n      0x20\n      dup1\n      swap2\n      div\n      mul\n      0x20\n      add\n      mload(0x40)\n      swap1\n      dup2\n      add\n      0x40\n      mstore\n      dup1\n      swap3\n      swap2\n      swap1\n      dup2\n      dup2\n      mstore\n      0x20\n      add\n      dup3\n      dup1\n      sload\n      tag_106\n      swap1\n      tag_97\n      jump\t// in\n    tag_106:\n      dup1\n      iszero\n      tag_107\n      jumpi\n      dup1\n      0x1f\n      lt\n      tag_108\n      jumpi\n      0x0100\n      dup1\n      dup4\n      sload\n      div\n      mul\n      dup4\n      mstore\n      swap2\n      0x20\n      add\n      swap2\n      jump(tag_107)\n    tag_108:\n      dup3\n      add\n      swap2\n      swap1\n      0x00\n      mstore\n      keccak256(0x00, 0x20)\n      swap1\n    tag_109:\n      dup2\n      sload\n      dup2\n      mstore\n      swap1\n      0x01\n      add\n      swap1\n      0x20\n      add\n      dup1\n      dup4\n      gt\n      tag_109\n      jumpi\n      dup3\n      swap1\n      sub\n      0x1f\n      and\n      dup3\n      add\n      swap2\n    tag_107:\n      pop\n      pop\n      pop\n      pop\n      pop\n        /* \"contracts/_Database2.sol\":4241:4246  dates */\n      dup4\n        /* \"contracts/_Database2.sol\":4247:4248  i */\n      dup4\n        /* \"contracts/_Database2.sol\":4241:4249  dates[i] */\n      dup2\n      mload\n      dup2\n      lt\n      tag_110\n      jumpi\n      tag_111\n      tag_104\n      jump\t// in\n    tag_111:\n    tag_110:\n      0x20\n      mul\n      0x20\n      add\n      add\n        /* \"contracts/_Database2.sol\":4241:4264  dates[i] = vaccine.date */\n      dup2\n      swap1\n      mstore\n      pop\n        /* \"contracts/_Database2.sol\":4128:4276  {... */\n      pop\n        /* \"contracts/_Database2.sol\":4123:4126  i++ */\n      dup1\n      dup1\n      tag_112\n      swap1\n      tag_113\n      jump\t// in\n    tag_112:\n      swap2\n      pop\n      pop\n        /* \"contracts/_Database2.sol\":4092:4276  for (uint256 i = 0; i < count; i++) {... */\n      jump(tag_93)\n    tag_94:\n      pop\n        /* \"contracts/_Database2.sol\":4296:4301  names */\n      dup2\n        /* \"contracts/_Database2.sol\":4303:4308  dates */\n      dup2\n        /* \"contracts/_Database2.sol\":4288:4309  return (names, dates) */\n      swap6\n      pop\n      swap6\n      pop\n      pop\n      pop\n      pop\n      pop\n        /* \"contracts/_Database2.sol\":3734:4317  function getPatientVaccines(string memory _p_id)... */\n      swap2\n      pop\n      swap2\n      jump\t// out\n        /* \"contracts/_Database2.sol\":4325:4556  function getPatientPrescriptions(string memory _p_id)... */\n    tag_31:\n        /* \"contracts/_Database2.sol\":4429:4450  Prescription[] memory */\n      0x60\n        /* \"contracts/_Database2.sol\":4468:4491  Patient storage patient */\n      0x00\n        /* \"contracts/_Database2.sol\":4494:4502  patients */\n      0x01\n        /* \"contracts/_Database2.sol\":4503:4508  _p_id */\n      dup4\n        /* \"contracts/_Database2.sol\":4494:4509  patients[_p_id] */\n      mload(0x40)\n      tag_115\n      swap2\n      swap1\n      tag_69\n      jump\t// in\n    tag_115:\n      swap1\n      dup2\n      mstore\n      0x20\n      add\n      mload(0x40)\n      dup1\n      swap2\n      sub\n      swap1\n      keccak256\n        /* \"contracts/_Database2.sol\":4468:4509  Patient storage patient = patients[_p_id] */\n      swap1\n      pop\n        /* \"contracts/_Database2.sol\":4527:4534  patient */\n      dup1\n        /* \"contracts/_Database2.sol\":4527:4548  patient.prescriptions */\n      0x09\n      add\n        /* \"contracts/_Database2.sol\":4520:4548  return patient.prescriptions */\n      dup1\n      sload\n      dup1\n      0x20\n      mul\n      0x20\n      add\n      mload(0x40)\n      swap1\n      dup2\n      add\n      0x40\n      mstore\n      dup1\n      swap3\n      swap2\n      swap1\n      dup2\n      dup2\n      mstore\n      0x20\n      add\n      0x00\n      swap1\n    tag_116:\n      dup3\n      dup3\n      lt\n      iszero\n      tag_117\n      jumpi\n      dup4\n      dup3\n      swap1\n      0x00\n      mstore\n      keccak256(0x00, 0x20)\n      swap1\n      0x06\n      mul\n      add\n      mload(0x40)\n      dup1\n      0xc0\n      add\n      0x40\n      mstore\n      swap1\n      dup2\n      0x00\n      dup3\n      add\n      dup1\n      sload\n      tag_119\n      swap1\n      tag_97\n      jump\t// in\n    tag_119:\n      dup1\n      0x1f\n      add\n      0x20\n      dup1\n      swap2\n      div\n      mul\n      0x20\n      add\n      mload(0x40)\n      swap1\n      dup2\n      add\n      0x40\n      mstore\n      dup1\n      swap3\n      swap2\n      swap1\n      dup2\n      dup2\n      mstore\n      0x20\n      add\n      dup3\n      dup1\n      sload\n      tag_120\n      swap1\n      tag_97\n      jump\t// in\n    tag_120:\n      dup1\n      iszero\n      tag_121\n      jumpi\n      dup1\n      0x1f\n      lt\n      tag_122\n      jumpi\n      0x0100\n      dup1\n      dup4\n      sload\n      div\n      mul\n      dup4\n      mstore\n      swap2\n      0x20\n      add\n      swap2\n      jump(tag_121)\n    tag_122:\n      dup3\n      add\n      swap2\n      swap1\n      0x00\n      mstore\n      keccak256(0x00, 0x20)\n      swap1\n    tag_123:\n      dup2\n      sload\n      dup2\n      mstore\n      swap1\n      0x01\n      add\n      swap1\n      0x20\n      add\n      dup1\n      dup4\n      gt\n      tag_123\n      jumpi\n      dup3\n      swap1\n      sub\n      0x1f\n      and\n      dup3\n      add\n      swap2\n    tag_121:\n      pop\n      pop\n      pop\n      pop\n      pop\n      dup2\n      mstore\n      0x20\n      add\n      0x01\n      dup3\n      add\n      dup1\n      sload\n      tag_124\n      swap1\n      tag_97\n      jump\t// in\n    tag_124:\n      dup1\n      0x1f\n      add\n      0x20\n      dup1\n      swap2\n      div\n      mul\n      0x20\n      add\n      mload(0x40)\n      swap1\n      dup2\n      add\n      0x40\n      mstore\n      dup1\n      swap3\n      swap2\n      swap1\n      dup2\n      dup2\n      mstore\n      0x20\n      add\n      dup3\n      dup1\n      sload\n      tag_125\n      swap1\n      tag_97\n      jump\t// in\n    tag_125:\n      dup1\n      iszero\n      tag_126\n      jumpi\n      dup1\n      0x1f\n      lt\n      tag_127\n      jumpi\n      0x0100\n      dup1\n      dup4\n      sload\n      div\n      mul\n      dup4\n      mstore\n      swap2\n      0x20\n      add\n      swap2\n      jump(tag_126)\n    tag_127:\n      dup3\n      add\n      swap2\n      swap1\n      0x00\n      mstore\n      keccak256(0x00, 0x20)\n      swap1\n    tag_128:\n      dup2\n      sload\n      dup2\n      mstore\n      swap1\n      0x01\n      add\n      swap1\n      0x20\n      add\n      dup1\n      dup4\n      gt\n      tag_128\n      jumpi\n      dup3\n      swap1\n      sub\n      0x1f\n      and\n      dup3\n      add\n      swap2\n    tag_126:\n      pop\n      pop\n      pop\n      pop\n      pop\n      dup2\n      mstore\n      0x20\n      add\n      0x02\n      dup3\n      add\n      sload\n      dup2\n      mstore\n      0x20\n      add\n      0x03\n      dup3\n      add\n      dup1\n      sload\n      tag_129\n      swap1\n      tag_97\n      jump\t// in\n    tag_129:\n      dup1\n      0x1f\n      add\n      0x20\n      dup1\n      swap2\n      div\n      mul\n      0x20\n      add\n      mload(0x40)\n      swap1\n      dup2\n      add\n      0x40\n      mstore\n      dup1\n      swap3\n      swap2\n      swap1\n      dup2\n      dup2\n      mstore\n      0x20\n      add\n      dup3\n      dup1\n      sload\n      tag_130\n      swap1\n      tag_97\n      jump\t// in\n    tag_130:\n      dup1\n      iszero\n      tag_131\n      jumpi\n      dup1\n      0x1f\n      lt\n      tag_132\n      jumpi\n      0x0100\n      dup1\n      dup4\n      sload\n      div\n      mul\n      dup4\n      mstore\n      swap2\n      0x20\n      add\n      swap2\n      jump(tag_131)\n    tag_132:\n      dup3\n      add\n      swap2\n      swap1\n      0x00\n      mstore\n      keccak256(0x00, 0x20)\n      swap1\n    tag_133:\n      dup2\n      sload\n      dup2\n      mstore\n      swap1\n      0x01\n      add\n      swap1\n      0x20\n      add\n      dup1\n      dup4\n      gt\n      tag_133\n      jumpi\n      dup3\n      swap1\n      sub\n      0x1f\n      and\n      dup3\n      add\n      swap2\n    tag_131:\n      pop\n      pop\n      pop\n      pop\n      pop\n      dup2\n      mstore\n      0x20\n      add\n      0x04\n      dup3\n      add\n      dup1\n      sload\n      tag_134\n      swap1\n      tag_97\n      jump\t// in\n    tag_134:\n      dup1\n      0x1f\n      add\n      0x20\n      dup1\n      swap2\n      div\n      mul\n      0x20\n      add\n      mload(0x40)\n      swap1\n      dup2\n      add\n      0x40\n      mstore\n      dup1\n      swap3\n      swap2\n      swap1\n      dup2\n      dup2\n      mstore\n      0x20\n      add\n      dup3\n      dup1\n      sload\n      tag_135\n      swap1\n      tag_97\n      jump\t// in\n    tag_135:\n      dup1\n      iszero\n      tag_136\n      jumpi\n      dup1\n      0x1f\n      lt\n      tag_137\n      jumpi\n      0x0100\n      dup1\n      dup4\n      sload\n      div\n      mul\n      dup4\n      mstore\n      swap2\n      0x20\n      add\n      swap2\n      jump(tag_136)\n    tag_137:\n      dup3\n      add\n      swap2\n      swap1\n      0x00\n      mstore\n      keccak256(0x00, 0x20)\n      swap1\n    tag_138:\n      dup2\n      sload\n      dup2\n      mstore\n      swap1\n      0x01\n      add\n      swap1\n      0x20\n      add\n      dup1\n      dup4\n      gt\n      tag_138\n      jumpi\n      dup3\n      swap1\n      sub\n      0x1f\n      and\n      dup3\n      add\n      swap2\n    tag_136:\n      pop\n      pop\n      pop\n      pop\n      pop\n      dup2\n      mstore\n      0x20\n      add\n      0x05\n      dup3\n      add\n      0x00\n      swap1\n      sload\n      swap1\n      0x0100\n      exp\n      swap1\n      div\n      0xff\n      and\n      iszero\n      iszero\n      iszero\n      iszero\n      dup2\n      mstore\n      pop\n      pop\n      dup2\n      mstore\n      0x20\n      add\n      swap1\n      0x01\n      add\n      swap1\n      jump(tag_116)\n    tag_117:\n      pop\n      pop\n      pop\n      pop\n      swap2\n      pop\n      pop\n        /* \"contracts/_Database2.sol\":4325:4556  function getPatientPrescriptions(string memory _p_id)... */\n      swap2\n      swap1\n      pop\n      jump\t// out\n        /* \"contracts/_Database2.sol\":1909:2375  function addPatient (... */\n    tag_37:\n        /* \"contracts/_Database2.sol\":2117:2143  Patient storage newPatient */\n      0x00\n        /* \"contracts/_Database2.sol\":2146:2154  patients */\n      0x01\n        /* \"contracts/_Database2.sol\":2155:2160  _p_id */\n      dup6\n        /* \"contracts/_Database2.sol\":2146:2161  patients[_p_id] */\n      mload(0x40)\n      tag_140\n      swap2\n      swap1\n      tag_69\n      jump\t// in\n    tag_140:\n      swap1\n      dup2\n      mstore\n      0x20\n      add\n      mload(0x40)\n      dup1\n      swap2\n      sub\n      swap1\n      keccak256\n        /* \"contracts/_Database2.sol\":2117:2161  Patient storage newPatient = patients[_p_id] */\n      swap1\n      pop\n        /* \"contracts/_Database2.sol\":2190:2195  _name */\n      dup6\n        /* \"contracts/_Database2.sol\":2172:2182  newPatient */\n      dup2\n        /* \"contracts/_Database2.sol\":2172:2187  newPatient.name */\n      0x00\n      add\n        /* \"contracts/_Database2.sol\":2172:2195  newPatient.name = _name */\n      swap1\n      dup2\n      tag_141\n      swap2\n      swap1\n      tag_72\n      jump\t// in\n    tag_141:\n      pop\n        /* \"contracts/_Database2.sol\":2224:2229  _p_id */\n      dup5\n        /* \"contracts/_Database2.sol\":2206:2216  newPatient */\n      dup2\n        /* \"contracts/_Database2.sol\":2206:2221  newPatient.p_id */\n      0x01\n      add\n        /* \"contracts/_Database2.sol\":2206:2229  newPatient.p_id = _p_id */\n      swap1\n      dup2\n      tag_142\n      swap2\n      swap1\n      tag_72\n      jump\t// in\n    tag_142:\n      pop\n        /* \"contracts/_Database2.sol\":2257:2261  _age */\n      dup4\n        /* \"contracts/_Database2.sol\":2240:2250  newPatient */\n      dup2\n        /* \"contracts/_Database2.sol\":2240:2254  newPatient.age */\n      0x02\n      add\n        /* \"contracts/_Database2.sol\":2240:2261  newPatient.age = _age */\n      dup2\n      swap1\n      sstore\n      pop\n        /* \"contracts/_Database2.sol\":2303:2321  _specialConditions */\n      dup3\n        /* \"contracts/_Database2.sol\":2272:2282  newPatient */\n      dup2\n        /* \"contracts/_Database2.sol\":2272:2300  newPatient.specialConditions */\n      0x07\n      add\n        /* \"contracts/_Database2.sol\":2272:2321  newPatient.specialConditions = _specialConditions */\n      swap1\n      dup2\n      tag_143\n      swap2\n      swap1\n      tag_72\n      jump\t// in\n    tag_143:\n      pop\n        /* \"contracts/_Database2.sol\":2356:2367  _bloodGroup */\n      dup2\n        /* \"contracts/_Database2.sol\":2332:2342  newPatient */\n      dup2\n        /* \"contracts/_Database2.sol\":2332:2353  newPatient.bloodGroup */\n      0x08\n      add\n        /* \"contracts/_Database2.sol\":2332:2367  newPatient.bloodGroup = _bloodGroup */\n      swap1\n      dup2\n      tag_144\n      swap2\n      swap1\n      tag_72\n      jump\t// in\n    tag_144:\n      pop\n        /* \"contracts/_Database2.sol\":2106:2375  {... */\n      pop\n        /* \"contracts/_Database2.sol\":1909:2375  function addPatient (... */\n      pop\n      pop\n      pop\n      pop\n      pop\n      jump\t// out\n        /* \"contracts/_Database2.sol\":2656:2995  function updateVaccine(... */\n    tag_41:\n        /* \"contracts/_Database2.sol\":2794:2817  Patient storage patient */\n      0x00\n        /* \"contracts/_Database2.sol\":2820:2828  patients */\n      0x01\n        /* \"contracts/_Database2.sol\":2829:2834  _p_id */\n      dup5\n        /* \"contracts/_Database2.sol\":2820:2835  patients[_p_id] */\n      mload(0x40)\n      tag_146\n      swap2\n      swap1\n      tag_69\n      jump\t// in\n    tag_146:\n      swap1\n      dup2\n      mstore\n      0x20\n      add\n      mload(0x40)\n      dup1\n      swap2\n      sub\n      swap1\n      keccak256\n        /* \"contracts/_Database2.sol\":2794:2835  Patient storage patient = patients[_p_id] */\n      swap1\n      pop\n        /* \"contracts/_Database2.sol\":2846:2866  uint256 vaccineIndex */\n      0x00\n        /* \"contracts/_Database2.sol\":2869:2876  patient */\n      dup2\n        /* \"contracts/_Database2.sol\":2869:2889  patient.vaccineCount */\n      0x06\n      add\n      sload\n        /* \"contracts/_Database2.sol\":2846:2889  uint256 vaccineIndex = patient.vaccineCount */\n      swap1\n      pop\n        /* \"contracts/_Database2.sol\":2933:2954  Vaccine(_name, _date) */\n      mload(0x40)\n      dup1\n      0x40\n      add\n      0x40\n      mstore\n      dup1\n        /* \"contracts/_Database2.sol\":2941:2946  _name */\n      dup6\n        /* \"contracts/_Database2.sol\":2933:2954  Vaccine(_name, _date) */\n      dup2\n      mstore\n      0x20\n      add\n        /* \"contracts/_Database2.sol\":2948:2953  _date */\n      dup5\n        /* \"contracts/_Database2.sol\":2933:2954  Vaccine(_name, _date) */\n      dup2\n      mstore\n      pop\n        /* \"contracts/_Database2.sol\":2900:2907  patient */\n      dup3\n        /* \"contracts/_Database2.sol\":2900:2916  patient.vaccines */\n      0x05\n      add\n        /* \"contracts/_Database2.sol\":2900:2930  patient.vaccines[vaccineIndex] */\n      0x00\n        /* \"contracts/_Database2.sol\":2917:2929  vaccineIndex */\n      dup4\n        /* \"contracts/_Database2.sol\":2900:2930  patient.vaccines[vaccineIndex] */\n      dup2\n      mstore\n      0x20\n      add\n      swap1\n      dup2\n      mstore\n      0x20\n      add\n      0x00\n      keccak256\n        /* \"contracts/_Database2.sol\":2900:2954  patient.vaccines[vaccineIndex] = Vaccine(_name, _date) */\n      0x00\n      dup3\n      add\n      mload\n      dup2\n      0x00\n      add\n      swap1\n      dup2\n      tag_147\n      swap2\n      swap1\n      tag_72\n      jump\t// in\n    tag_147:\n      pop\n      0x20\n      dup3\n      add\n      mload\n      dup2\n      0x01\n      add\n      swap1\n      dup2\n      tag_148\n      swap2\n      swap1\n      tag_72\n      jump\t// in\n    tag_148:\n      pop\n      swap1\n      pop\n      pop\n        /* \"contracts/_Database2.sol\":2965:2972  patient */\n      dup2\n        /* \"contracts/_Database2.sol\":2965:2985  patient.vaccineCount */\n      0x06\n      add\n      0x00\n        /* \"contracts/_Database2.sol\":2965:2987  patient.vaccineCount++ */\n      dup2\n      sload\n      dup1\n      swap3\n      swap2\n      swap1\n      tag_149\n      swap1\n      tag_113\n      jump\t// in\n    tag_149:\n      swap2\n      swap1\n      pop\n      sstore\n      pop\n        /* \"contracts/_Database2.sol\":2783:2995  {... */\n      pop\n      pop\n        /* \"contracts/_Database2.sol\":2656:2995  function updateVaccine(... */\n      pop\n      pop\n      pop\n      jump\t// out\n        /* \"contracts/_Database2.sol\":5253:5740  function getPatientInfo(string memory _p_id)... */\n    tag_44:\n        /* \"contracts/_Database2.sol\":5362:5375  string memory */\n      0x60\n        /* \"contracts/_Database2.sol\":5390:5403  string memory */\n      dup1\n        /* \"contracts/_Database2.sol\":5418:5425  uint256 */\n      0x00\n        /* \"contracts/_Database2.sol\":5440:5453  string memory */\n      0x60\n        /* \"contracts/_Database2.sol\":5468:5481  string memory */\n      dup1\n        /* \"contracts/_Database2.sol\":5509:5532  Patient storage patient */\n      0x00\n        /* \"contracts/_Database2.sol\":5535:5543  patients */\n      0x01\n        /* \"contracts/_Database2.sol\":5544:5549  _p_id */\n      dup8\n        /* \"contracts/_Database2.sol\":5535:5550  patients[_p_id] */\n      mload(0x40)\n      tag_151\n      swap2\n      swap1\n      tag_69\n      jump\t// in\n    tag_151:\n      swap1\n      dup2\n      mstore\n      0x20\n      add\n      mload(0x40)\n      dup1\n      swap2\n      sub\n      swap1\n      keccak256\n        /* \"contracts/_Database2.sol\":5509:5550  Patient storage patient = patients[_p_id] */\n      swap1\n      pop\n        /* \"contracts/_Database2.sol\":5583:5590  patient */\n      dup1\n        /* \"contracts/_Database2.sol\":5583:5595  patient.name */\n      0x00\n      add\n        /* \"contracts/_Database2.sol\":5610:5617  patient */\n      dup2\n        /* \"contracts/_Database2.sol\":5610:5622  patient.p_id */\n      0x01\n      add\n        /* \"contracts/_Database2.sol\":5637:5644  patient */\n      dup3\n        /* \"contracts/_Database2.sol\":5637:5648  patient.age */\n      0x02\n      add\n      sload\n        /* \"contracts/_Database2.sol\":5663:5670  patient */\n      dup4\n        /* \"contracts/_Database2.sol\":5663:5688  patient.specialConditions */\n      0x07\n      add\n        /* \"contracts/_Database2.sol\":5703:5710  patient */\n      dup5\n        /* \"contracts/_Database2.sol\":5703:5721  patient.bloodGroup */\n      0x08\n      add\n        /* \"contracts/_Database2.sol\":5561:5732  return (... */\n      dup5\n      dup1\n      sload\n      tag_152\n      swap1\n      tag_97\n      jump\t// in\n    tag_152:\n      dup1\n      0x1f\n      add\n      0x20\n      dup1\n      swap2\n      div\n      mul\n      0x20\n      add\n      mload(0x40)\n      swap1\n      dup2\n      add\n      0x40\n      mstore\n      dup1\n      swap3\n      swap2\n      swap1\n      dup2\n      dup2\n      mstore\n      0x20\n      add\n      dup3\n      dup1\n      sload\n      tag_153\n      swap1\n      tag_97\n      jump\t// in\n    tag_153:\n      dup1\n      iszero\n      tag_154\n      jumpi\n      dup1\n      0x1f\n      lt\n      tag_155\n      jumpi\n      0x0100\n      dup1\n      dup4\n      sload\n      div\n      mul\n      dup4\n      mstore\n      swap2\n      0x20\n      add\n      swap2\n      jump(tag_154)\n    tag_155:\n      dup3\n      add\n      swap2\n      swap1\n      0x00\n      mstore\n      keccak256(0x00, 0x20)\n      swap1\n    tag_156:\n      dup2\n      sload\n      dup2\n      mstore\n      swap1\n      0x01\n      add\n      swap1\n      0x20\n      add\n      dup1\n      dup4\n      gt\n      tag_156\n      jumpi\n      dup3\n      swap1\n      sub\n      0x1f\n      and\n      dup3\n      add\n      swap2\n    tag_154:\n      pop\n      pop\n      pop\n      pop\n      pop\n      swap5\n      pop\n      dup4\n      dup1\n      sload\n      tag_157\n      swap1\n      tag_97\n      jump\t// in\n    tag_157:\n      dup1\n      0x1f\n      add\n      0x20\n      dup1\n      swap2\n      div\n      mul\n      0x20\n      add\n      mload(0x40)\n      swap1\n      dup2\n      add\n      0x40\n      mstore\n      dup1\n      swap3\n      swap2\n      swap1\n      dup2\n      dup2\n      mstore\n      0x20\n      add\n      dup3\n      dup1\n      sload\n      tag_158\n      swap1\n      tag_97\n      jump\t// in\n    tag_158:\n      dup1\n      iszero\n      tag_159\n      jumpi\n      dup1\n      0x1f\n      lt\n      tag_160\n      jumpi\n      0x0100\n      dup1\n      dup4\n      sload\n      div\n      mul\n      dup4\n      mstore\n      swap2\n      0x20\n      add\n      swap2\n      jump(tag_159)\n    tag_160:\n      dup3\n      add\n      swap2\n      swap1\n      0x00\n      mstore\n      keccak256(0x00, 0x20)\n      swap1\n    tag_161:\n      dup2\n      sload\n      dup2\n      mstore\n      swap1\n      0x01\n      add\n      swap1\n      0x20\n      add\n      dup1\n      dup4\n      gt\n      tag_161\n      jumpi\n      dup3\n      swap1\n      sub\n      0x1f\n      and\n      dup3\n      add\n      swap2\n    tag_159:\n      pop\n      pop\n      pop\n      pop\n      pop\n      swap4\n      pop\n      dup2\n      dup1\n      sload\n      tag_162\n      swap1\n      tag_97\n      jump\t// in\n    tag_162:\n      dup1\n      0x1f\n      add\n      0x20\n      dup1\n      swap2\n      div\n      mul\n      0x20\n      add\n      mload(0x40)\n      swap1\n      dup2\n      add\n      0x40\n      mstore\n      dup1\n      swap3\n      swap2\n      swap1\n      dup2\n      dup2\n      mstore\n      0x20\n      add\n      dup3\n      dup1\n      sload\n      tag_163\n      swap1\n      tag_97\n      jump\t// in\n    tag_163:\n      dup1\n      iszero\n      tag_164\n      jumpi\n      dup1\n      0x1f\n      lt\n      tag_165\n      jumpi\n      0x0100\n      dup1\n      dup4\n      sload\n      div\n      mul\n      dup4\n      mstore\n      swap2\n      0x20\n      add\n      swap2\n      jump(tag_164)\n    tag_165:\n      dup3\n      add\n      swap2\n      swap1\n      0x00\n      mstore\n      keccak256(0x00, 0x20)\n      swap1\n    tag_166:\n      dup2\n      sload\n      dup2\n      mstore\n      swap1\n      0x01\n      add\n      swap1\n      0x20\n      add\n      dup1\n      dup4\n      gt\n      tag_166\n      jumpi\n      dup3\n      swap1\n      sub\n      0x1f\n      and\n      dup3\n      add\n      swap2\n    tag_164:\n      pop\n      pop\n      pop\n      pop\n      pop\n      swap2\n      pop\n      dup1\n      dup1\n      sload\n      tag_167\n      swap1\n      tag_97\n      jump\t// in\n    tag_167:\n      dup1\n      0x1f\n      add\n      0x20\n      dup1\n      swap2\n      div\n      mul\n      0x20\n      add\n      mload(0x40)\n      swap1\n      dup2\n      add\n      0x40\n      mstore\n      dup1\n      swap3\n      swap2\n      swap1\n      dup2\n      dup2\n      mstore\n      0x20\n      add\n      dup3\n      dup1\n      sload\n      tag_168\n      swap1\n      tag_97\n      jump\t// in\n    tag_168:\n      dup1\n      iszero\n      tag_169\n      jumpi\n      dup1\n      0x1f\n      lt\n      tag_170\n      jumpi\n      0x0100\n      dup1\n      dup4\n      sload\n      div\n      mul\n      dup4\n      mstore\n      swap2\n      0x20\n      add\n      swap2\n      jump(tag_169)\n    tag_170:\n      dup3\n      add\n      swap2\n      swap1\n      0x00\n      mstore\n      keccak256(0x00, 0x20)\n      swap1\n    tag_171:\n      dup2\n      sload\n      dup2\n      mstore\n      swap1\n      0x01\n      add\n      swap1\n      0x20\n      add\n      dup1\n      dup4\n      gt\n      tag_171\n      jumpi\n      dup3\n      swap1\n      sub\n      0x1f\n      and\n      dup3\n      add\n      swap2\n    tag_169:\n      pop\n      pop\n      pop\n      pop\n      pop\n      swap1\n      pop\n      swap6\n      pop\n      swap6\n      pop\n      swap6\n      pop\n      swap6\n      pop\n      swap6\n      pop\n      pop\n        /* \"contracts/_Database2.sol\":5253:5740  function getPatientInfo(string memory _p_id)... */\n      swap2\n      swap4\n      swap6\n      swap1\n      swap3\n      swap5\n      pop\n      jump\t// out\n        /* \"contracts/_Database2.sol\":3425:3726  function getPatientAllergies(string memory _p_id)... */\n    tag_49:\n        /* \"contracts/_Database2.sol\":3525:3540  string[] memory */\n      0x60\n        /* \"contracts/_Database2.sol\":3542:3557  string[] memory */\n      dup1\n        /* \"contracts/_Database2.sol\":3559:3574  string[] memory */\n      0x60\n        /* \"contracts/_Database2.sol\":3592:3619  Allergies storage allergies */\n      0x00\n        /* \"contracts/_Database2.sol\":3622:3638  patientAllergies */\n      0x02\n        /* \"contracts/_Database2.sol\":3639:3644  _p_id */\n      dup6\n        /* \"contracts/_Database2.sol\":3622:3645  patientAllergies[_p_id] */\n      mload(0x40)\n      tag_173\n      swap2\n      swap1\n      tag_69\n      jump\t// in\n    tag_173:\n      swap1\n      dup2\n      mstore\n      0x20\n      add\n      mload(0x40)\n      dup1\n      swap2\n      sub\n      swap1\n      keccak256\n        /* \"contracts/_Database2.sol\":3592:3645  Allergies storage allergies = patientAllergies[_p_id] */\n      swap1\n      pop\n        /* \"contracts/_Database2.sol\":3664:3673  allergies */\n      dup1\n        /* \"contracts/_Database2.sol\":3664:3678  allergies.food */\n      0x00\n      add\n        /* \"contracts/_Database2.sol\":3680:3689  allergies */\n      dup2\n        /* \"contracts/_Database2.sol\":3680:3699  allergies.medicines */\n      0x01\n      add\n        /* \"contracts/_Database2.sol\":3701:3710  allergies */\n      dup3\n        /* \"contracts/_Database2.sol\":3701:3717  allergies.others */\n      0x02\n      add\n        /* \"contracts/_Database2.sol\":3656:3718  return (allergies.food, allergies.medicines, allergies.others) */\n      dup3\n      dup1\n      sload\n      dup1\n      0x20\n      mul\n      0x20\n      add\n      mload(0x40)\n      swap1\n      dup2\n      add\n      0x40\n      mstore\n      dup1\n      swap3\n      swap2\n      swap1\n      dup2\n      dup2\n      mstore\n      0x20\n      add\n      0x00\n      swap1\n    tag_174:\n      dup3\n      dup3\n      lt\n      iszero\n      tag_175\n      jumpi\n      dup4\n      dup3\n      swap1\n      0x00\n      mstore\n      keccak256(0x00, 0x20)\n      add\n      dup1\n      sload\n      tag_177\n      swap1\n      tag_97\n      jump\t// in\n    tag_177:\n      dup1\n      0x1f\n      add\n      0x20\n      dup1\n      swap2\n      div\n      mul\n      0x20\n      add\n      mload(0x40)\n      swap1\n      dup2\n      add\n      0x40\n      mstore\n      dup1\n      swap3\n      swap2\n      swap1\n      dup2\n      dup2\n      mstore\n      0x20\n      add\n      dup3\n      dup1\n      sload\n      tag_178\n      swap1\n      tag_97\n      jump\t// in\n    tag_178:\n      dup1\n      iszero\n      tag_179\n      jumpi\n      dup1\n      0x1f\n      lt\n      tag_180\n      jumpi\n      0x0100\n      dup1\n      dup4\n      sload\n      div\n      mul\n      dup4\n      mstore\n      swap2\n      0x20\n      add\n      swap2\n      jump(tag_179)\n    tag_180:\n      dup3\n      add\n      swap2\n      swap1\n      0x00\n      mstore\n      keccak256(0x00, 0x20)\n      swap1\n    tag_181:\n      dup2\n      sload\n      dup2\n      mstore\n      swap1\n      0x01\n      add\n      swap1\n      0x20\n      add\n      dup1\n      dup4\n      gt\n      tag_181\n      jumpi\n      dup3\n      swap1\n      sub\n      0x1f\n      and\n      dup3\n      add\n      swap2\n    tag_179:\n      pop\n      pop\n      pop\n      pop\n      pop\n      dup2\n      mstore\n      0x20\n      add\n      swap1\n      0x01\n      add\n      swap1\n      jump(tag_174)\n    tag_175:\n      pop\n      pop\n      pop\n      pop\n      swap3\n      pop\n      dup2\n      dup1\n      sload\n      dup1\n      0x20\n      mul\n      0x20\n      add\n      mload(0x40)\n      swap1\n      dup2\n      add\n      0x40\n      mstore\n      dup1\n      swap3\n      swap2\n      swap1\n      dup2\n      dup2\n      mstore\n      0x20\n      add\n      0x00\n      swap1\n    tag_182:\n      dup3\n      dup3\n      lt\n      iszero\n      tag_183\n      jumpi\n      dup4\n      dup3\n      swap1\n      0x00\n      mstore\n      keccak256(0x00, 0x20)\n      add\n      dup1\n      sload\n      tag_185\n      swap1\n      tag_97\n      jump\t// in\n    tag_185:\n      dup1\n      0x1f\n      add\n      0x20\n      dup1\n      swap2\n      div\n      mul\n      0x20\n      add\n      mload(0x40)\n      swap1\n      dup2\n      add\n      0x40\n      mstore\n      dup1\n      swap3\n      swap2\n      swap1\n      dup2\n      dup2\n      mstore\n      0x20\n      add\n      dup3\n      dup1\n      sload\n      tag_186\n      swap1\n      tag_97\n      jump\t// in\n    tag_186:\n      dup1\n      iszero\n      tag_187\n      jumpi\n      dup1\n      0x1f\n      lt\n      tag_188\n      jumpi\n      0x0100\n      dup1\n      dup4\n      sload\n      div\n      mul\n      dup4\n      mstore\n      swap2\n      0x20\n      add\n      swap2\n      jump(tag_187)\n    tag_188:\n      dup3\n      add\n      swap2\n      swap1\n      0x00\n      mstore\n      keccak256(0x00, 0x20)\n      swap1\n    tag_189:\n      dup2\n      sload\n      dup2\n      mstore\n      swap1\n      0x01\n      add\n      swap1\n      0x20\n      add\n      dup1\n      dup4\n      gt\n      tag_189\n      jumpi\n      dup3\n      swap1\n      sub\n      0x1f\n      and\n      dup3\n      add\n      swap2\n    tag_187:\n      pop\n      pop\n      pop\n      pop\n      pop\n      dup2\n      mstore\n      0x20\n      add\n      swap1\n      0x01\n      add\n      swap1\n      jump(tag_182)\n    tag_183:\n      pop\n      pop\n      pop\n      pop\n      swap2\n      pop\n      dup1\n      dup1\n      sload\n      dup1\n      0x20\n      mul\n      0x20\n      add\n      mload(0x40)\n      swap1\n      dup2\n      add\n      0x40\n      mstore\n      dup1\n      swap3\n      swap2\n      swap1\n      dup2\n      dup2\n      mstore\n      0x20\n      add\n      0x00\n      swap1\n    tag_190:\n      dup3\n      dup3\n      lt\n      iszero\n      tag_191\n      jumpi\n      dup4\n      dup3\n      swap1\n      0x00\n      mstore\n      keccak256(0x00, 0x20)\n      add\n      dup1\n      sload\n      tag_193\n      swap1\n      tag_97\n      jump\t// in\n    tag_193:\n      dup1\n      0x1f\n      add\n      0x20\n      dup1\n      swap2\n      div\n      mul\n      0x20\n      add\n      mload(0x40)\n      swap1\n      dup2\n      add\n      0x40\n      mstore\n      dup1\n      swap3\n      swap2\n      swap1\n      dup2\n      dup2\n      mstore\n      0x20\n      add\n      dup3\n      dup1\n      sload\n      tag_194\n      swap1\n      tag_97\n      jump\t// in\n    tag_194:\n      dup1\n      iszero\n      tag_195\n      jumpi\n      dup1\n      0x1f\n      lt\n      tag_196\n      jumpi\n      0x0100\n      dup1\n      dup4\n      sload\n      div\n      mul\n      dup4\n      mstore\n      swap2\n      0x20\n      add\n      swap2\n      jump(tag_195)\n    tag_196:\n      dup3\n      add\n      swap2\n      swap1\n      0x00\n      mstore\n      keccak256(0x00, 0x20)\n      swap1\n    tag_197:\n      dup2\n      sload\n      dup2\n      mstore\n      swap1\n      0x01\n      add\n      swap1\n      0x20\n      add\n      dup1\n      dup4\n      gt\n      tag_197\n      jumpi\n      dup3\n      swap1\n      sub\n      0x1f\n      and\n      dup3\n      add\n      swap2\n    tag_195:\n      pop\n      pop\n      pop\n      pop\n      pop\n      dup2\n      mstore\n      0x20\n      add\n      swap1\n      0x01\n      add\n      swap1\n      jump(tag_190)\n    tag_191:\n      pop\n      pop\n      pop\n      pop\n      swap1\n      pop\n      swap4\n      pop\n      swap4\n      pop\n      swap4\n      pop\n      pop\n        /* \"contracts/_Database2.sol\":3425:3726  function getPatientAllergies(string memory _p_id)... */\n      swap2\n      swap4\n      swap1\n      swap3\n      pop\n      jump\t// out\n        /* \"contracts/_Database2.sol\":2383:2648  function updateAllergy(... */\n    tag_55:\n        /* \"contracts/_Database2.sol\":1505:1515  msg.sender */\n      caller\n        /* \"contracts/_Database2.sol\":1468:1515  doctors[msg.sender].doctorAddress == msg.sender */\n      0xffffffffffffffffffffffffffffffffffffffff\n      and\n        /* \"contracts/_Database2.sol\":1468:1475  doctors */\n      0x00\n        /* \"contracts/_Database2.sol\":1468:1487  doctors[msg.sender] */\n      dup1\n        /* \"contracts/_Database2.sol\":1476:1486  msg.sender */\n      caller\n        /* \"contracts/_Database2.sol\":1468:1487  doctors[msg.sender] */\n      0xffffffffffffffffffffffffffffffffffffffff\n      and\n      0xffffffffffffffffffffffffffffffffffffffff\n      and\n      dup2\n      mstore\n      0x20\n      add\n      swap1\n      dup2\n      mstore\n      0x20\n      add\n      0x00\n      keccak256\n        /* \"contracts/_Database2.sol\":1468:1501  doctors[msg.sender].doctorAddress */\n      0x00\n      add\n      0x00\n      swap1\n      sload\n      swap1\n      0x0100\n      exp\n      swap1\n      div\n      0xffffffffffffffffffffffffffffffffffffffff\n      and\n        /* \"contracts/_Database2.sol\":1468:1515  doctors[msg.sender].doctorAddress == msg.sender */\n      0xffffffffffffffffffffffffffffffffffffffff\n      and\n      eq\n        /* \"contracts/_Database2.sol\":1460:1568  require(doctors[msg.sender].doctorAddress == msg.sender, \"Only authorized doctors can access this function\") */\n      tag_199\n      jumpi\n      mload(0x40)\n      0x08c379a000000000000000000000000000000000000000000000000000000000\n      dup2\n      mstore\n      0x04\n      add\n      tag_200\n      swap1\n      tag_201\n      jump\t// in\n    tag_200:\n      mload(0x40)\n      dup1\n      swap2\n      sub\n      swap1\n      revert\n    tag_199:\n        /* \"contracts/_Database2.sol\":2603:2640  Allergies(_food, _medicines, _others) */\n      mload(0x40)\n      dup1\n      0x60\n      add\n      0x40\n      mstore\n      dup1\n        /* \"contracts/_Database2.sol\":2613:2618  _food */\n      dup5\n        /* \"contracts/_Database2.sol\":2603:2640  Allergies(_food, _medicines, _others) */\n      dup2\n      mstore\n      0x20\n      add\n        /* \"contracts/_Database2.sol\":2620:2630  _medicines */\n      dup4\n        /* \"contracts/_Database2.sol\":2603:2640  Allergies(_food, _medicines, _others) */\n      dup2\n      mstore\n      0x20\n      add\n        /* \"contracts/_Database2.sol\":2632:2639  _others */\n      dup3\n        /* \"contracts/_Database2.sol\":2603:2640  Allergies(_food, _medicines, _others) */\n      dup2\n      mstore\n      pop\n        /* \"contracts/_Database2.sol\":2577:2593  patientAllergies */\n      0x02\n        /* \"contracts/_Database2.sol\":2594:2599  _p_id */\n      dup6\n        /* \"contracts/_Database2.sol\":2577:2600  patientAllergies[_p_id] */\n      mload(0x40)\n      tag_203\n      swap2\n      swap1\n      tag_69\n      jump\t// in\n    tag_203:\n      swap1\n      dup2\n      mstore\n      0x20\n      add\n      mload(0x40)\n      dup1\n      swap2\n      sub\n      swap1\n      keccak256\n        /* \"contracts/_Database2.sol\":2577:2640  patientAllergies[_p_id] = Allergies(_food, _medicines, _others) */\n      0x00\n      dup3\n      add\n      mload\n      dup2\n      0x00\n      add\n      swap1\n      dup1\n      mload\n      swap1\n      0x20\n      add\n      swap1\n      tag_204\n      swap3\n      swap2\n      swap1\n      tag_205\n      jump\t// in\n    tag_204:\n      pop\n      0x20\n      dup3\n      add\n      mload\n      dup2\n      0x01\n      add\n      swap1\n      dup1\n      mload\n      swap1\n      0x20\n      add\n      swap1\n      tag_206\n      swap3\n      swap2\n      swap1\n      tag_205\n      jump\t// in\n    tag_206:\n      pop\n      0x40\n      dup3\n      add\n      mload\n      dup2\n      0x02\n      add\n      swap1\n      dup1\n      mload\n      swap1\n      0x20\n      add\n      swap1\n      tag_207\n      swap3\n      swap2\n      swap1\n      tag_205\n      jump\t// in\n    tag_207:\n      pop\n      swap1\n      pop\n      pop\n        /* \"contracts/_Database2.sol\":2383:2648  function updateAllergy(... */\n      pop\n      pop\n      pop\n      pop\n      jump\t// out\n        /* \"contracts/_Database2.sol\":4564:4895  function getPatientBloodPressure(string memory _p_id, uint256 _index)... */\n    tag_59:\n        /* \"contracts/_Database2.sol\":4684:4697  string memory */\n      0x60\n        /* \"contracts/_Database2.sol\":4699:4706  uint256 */\n      0x00\n        /* \"contracts/_Database2.sol\":4708:4715  uint256 */\n      dup1\n        /* \"contracts/_Database2.sol\":4717:4724  uint256 */\n      0x00\n        /* \"contracts/_Database2.sol\":4742:4765  Patient storage patient */\n      dup1\n        /* \"contracts/_Database2.sol\":4768:4776  patients */\n      0x01\n        /* \"contracts/_Database2.sol\":4777:4782  _p_id */\n      dup8\n        /* \"contracts/_Database2.sol\":4768:4783  patients[_p_id] */\n      mload(0x40)\n      tag_209\n      swap2\n      swap1\n      tag_69\n      jump\t// in\n    tag_209:\n      swap1\n      dup2\n      mstore\n      0x20\n      add\n      mload(0x40)\n      dup1\n      swap2\n      sub\n      swap1\n      keccak256\n        /* \"contracts/_Database2.sol\":4742:4783  Patient storage patient = patients[_p_id] */\n      swap1\n      pop\n        /* \"contracts/_Database2.sol\":4794:4818  BloodPressure storage bp */\n      0x00\n        /* \"contracts/_Database2.sol\":4821:4828  patient */\n      dup2\n        /* \"contracts/_Database2.sol\":4821:4831  patient.BP */\n      0x03\n      add\n        /* \"contracts/_Database2.sol\":4821:4839  patient.BP[_index] */\n      0x00\n        /* \"contracts/_Database2.sol\":4832:4838  _index */\n      dup9\n        /* \"contracts/_Database2.sol\":4821:4839  patient.BP[_index] */\n      dup2\n      mstore\n      0x20\n      add\n      swap1\n      dup2\n      mstore\n      0x20\n      add\n      0x00\n      keccak256\n        /* \"contracts/_Database2.sol\":4794:4839  BloodPressure storage bp = patient.BP[_index] */\n      swap1\n      pop\n        /* \"contracts/_Database2.sol\":4858:4860  bp */\n      dup1\n        /* \"contracts/_Database2.sol\":4858:4865  bp.Date */\n      0x00\n      add\n        /* \"contracts/_Database2.sol\":4867:4869  bp */\n      dup2\n        /* \"contracts/_Database2.sol\":4867:4872  bp.SP */\n      0x01\n      add\n      sload\n        /* \"contracts/_Database2.sol\":4874:4876  bp */\n      dup3\n        /* \"contracts/_Database2.sol\":4874:4879  bp.DP */\n      0x02\n      add\n      sload\n        /* \"contracts/_Database2.sol\":4881:4883  bp */\n      dup4\n        /* \"contracts/_Database2.sol\":4881:4886  bp.HB */\n      0x03\n      add\n      sload\n        /* \"contracts/_Database2.sol\":4850:4887  return (bp.Date, bp.SP, bp.DP, bp.HB) */\n      dup4\n      dup1\n      sload\n      tag_210\n      swap1\n      tag_97\n      jump\t// in\n    tag_210:\n      dup1\n      0x1f\n      add\n      0x20\n      dup1\n      swap2\n      div\n      mul\n      0x20\n      add\n      mload(0x40)\n      swap1\n      dup2\n      add\n      0x40\n      mstore\n      dup1\n      swap3\n      swap2\n      swap1\n      dup2\n      dup2\n      mstore\n      0x20\n      add\n      dup3\n      dup1\n      sload\n      tag_211\n      swap1\n      tag_97\n      jump\t// in\n    tag_211:\n      dup1\n      iszero\n      tag_212\n      jumpi\n      dup1\n      0x1f\n      lt\n      tag_213\n      jumpi\n      0x0100\n      dup1\n      dup4\n      sload\n      div\n      mul\n      dup4\n      mstore\n      swap2\n      0x20\n      add\n      swap2\n      jump(tag_212)\n    tag_213:\n      dup3\n      add\n      swap2\n      swap1\n      0x00\n      mstore\n      keccak256(0x00, 0x20)\n      swap1\n    tag_214:\n      dup2\n      sload\n      dup2\n      mstore\n      swap1\n      0x01\n      add\n      swap1\n      0x20\n      add\n      dup1\n      dup4\n      gt\n      tag_214\n      jumpi\n      dup3\n      swap1\n      sub\n      0x1f\n      and\n      dup3\n      add\n      swap2\n    tag_212:\n      pop\n      pop\n      pop\n      pop\n      pop\n      swap4\n      pop\n      swap6\n      pop\n      swap6\n      pop\n      swap6\n      pop\n      swap6\n      pop\n      pop\n      pop\n        /* \"contracts/_Database2.sol\":4564:4895  function getPatientBloodPressure(string memory _p_id, uint256 _index)... */\n      swap3\n      swap6\n      swap2\n      swap5\n      pop\n      swap3\n      pop\n      jump\t// out\n        /* \"contracts/_Database2.sol\":4903:5245  function getPatientSugar(string memory _p_id, uint256 _index)... */\n    tag_64:\n        /* \"contracts/_Database2.sol\":5015:5028  string memory */\n      0x60\n        /* \"contracts/_Database2.sol\":5030:5034  bool */\n      0x00\n        /* \"contracts/_Database2.sol\":5036:5040  bool */\n      dup1\n        /* \"contracts/_Database2.sol\":5042:5049  uint256 */\n      0x00\n        /* \"contracts/_Database2.sol\":5067:5090  Patient storage patient */\n      dup1\n        /* \"contracts/_Database2.sol\":5093:5101  patients */\n      0x01\n        /* \"contracts/_Database2.sol\":5102:5107  _p_id */\n      dup8\n        /* \"contracts/_Database2.sol\":5093:5108  patients[_p_id] */\n      mload(0x40)\n      tag_216\n      swap2\n      swap1\n      tag_69\n      jump\t// in\n    tag_216:\n      swap1\n      dup2\n      mstore\n      0x20\n      add\n      mload(0x40)\n      dup1\n      swap2\n      sub\n      swap1\n      keccak256\n        /* \"contracts/_Database2.sol\":5067:5108  Patient storage patient = patients[_p_id] */\n      swap1\n      pop\n        /* \"contracts/_Database2.sol\":5119:5138  Sugar storage sugar */\n      0x00\n        /* \"contracts/_Database2.sol\":5141:5148  patient */\n      dup2\n        /* \"contracts/_Database2.sol\":5141:5154  patient.sugar */\n      0x04\n      add\n        /* \"contracts/_Database2.sol\":5141:5162  patient.sugar[_index] */\n      0x00\n        /* \"contracts/_Database2.sol\":5155:5161  _index */\n      dup9\n        /* \"contracts/_Database2.sol\":5141:5162  patient.sugar[_index] */\n      dup2\n      mstore\n      0x20\n      add\n      swap1\n      dup2\n      mstore\n      0x20\n      add\n      0x00\n      keccak256\n        /* \"contracts/_Database2.sol\":5119:5162  Sugar storage sugar = patient.sugar[_index] */\n      swap1\n      pop\n        /* \"contracts/_Database2.sol\":5181:5186  sugar */\n      dup1\n        /* \"contracts/_Database2.sol\":5181:5191  sugar.Date */\n      0x00\n      add\n        /* \"contracts/_Database2.sol\":5193:5198  sugar */\n      dup2\n        /* \"contracts/_Database2.sol\":5193:5206  sugar.Fasting */\n      0x01\n      add\n      0x00\n      swap1\n      sload\n      swap1\n      0x0100\n      exp\n      swap1\n      div\n      0xff\n      and\n        /* \"contracts/_Database2.sol\":5208:5213  sugar */\n      dup3\n        /* \"contracts/_Database2.sol\":5208:5223  sugar.afterMeal */\n      0x01\n      add\n      0x01\n      swap1\n      sload\n      swap1\n      0x0100\n      exp\n      swap1\n      div\n      0xff\n      and\n        /* \"contracts/_Database2.sol\":5225:5230  sugar */\n      dup4\n        /* \"contracts/_Database2.sol\":5225:5236  sugar.level */\n      0x02\n      add\n      sload\n        /* \"contracts/_Database2.sol\":5173:5237  return (sugar.Date, sugar.Fasting, sugar.afterMeal, sugar.level) */\n      dup4\n      dup1\n      sload\n      tag_217\n      swap1\n      tag_97\n      jump\t// in\n    tag_217:\n      dup1\n      0x1f\n      add\n      0x20\n      dup1\n      swap2\n      div\n      mul\n      0x20\n      add\n      mload(0x40)\n      swap1\n      dup2\n      add\n      0x40\n      mstore\n      dup1\n      swap3\n      swap2\n      swap1\n      dup2\n      dup2\n      mstore\n      0x20\n      add\n      dup3\n      dup1\n      sload\n      tag_218\n      swap1\n      tag_97\n      jump\t// in\n    tag_218:\n      dup1\n      iszero\n      tag_219\n      jumpi\n      dup1\n      0x1f\n      lt\n      tag_220\n      jumpi\n      0x0100\n      dup1\n      dup4\n      sload\n      div\n      mul\n      dup4\n      mstore\n      swap2\n      0x20\n      add\n      swap2\n      jump(tag_219)\n    tag_220:\n      dup3\n      add\n      swap2\n      swap1\n      0x00\n      mstore\n      keccak256(0x00, 0x20)\n      swap1\n    tag_221:\n      dup2\n      sload\n      dup2\n      mstore\n      swap1\n      0x01\n      add\n      swap1\n      0x20\n      add\n      dup1\n      dup4\n      gt\n      tag_221\n      jumpi\n      dup3\n      swap1\n      sub\n      0x1f\n      and\n      dup3\n      add\n      swap2\n    tag_219:\n      pop\n      pop\n      pop\n      pop\n      pop\n      swap4\n      pop\n      swap6\n      pop\n      swap6\n      pop\n      swap6\n      pop\n      swap6\n      pop\n      pop\n      pop\n        /* \"contracts/_Database2.sol\":4903:5245  function getPatientSugar(string memory _p_id, uint256 _index)... */\n      swap3\n      swap6\n      swap2\n      swap5\n      pop\n      swap3\n      pop\n      jump\t// out\n    tag_205:\n      dup3\n      dup1\n      sload\n      dup3\n      dup3\n      sstore\n      swap1\n      0x00\n      mstore\n      keccak256(0x00, 0x20)\n      swap1\n      dup2\n      add\n      swap3\n      dup3\n      iszero\n      tag_222\n      jumpi\n      swap2\n      0x20\n      mul\n      dup3\n      add\n    tag_223:\n      dup3\n      dup2\n      gt\n      iszero\n      tag_224\n      jumpi\n      dup3\n      mload\n      dup3\n      swap1\n      dup2\n      tag_225\n      swap2\n      swap1\n      tag_72\n      jump\t// in\n    tag_225:\n      pop\n      swap2\n      0x20\n      add\n      swap2\n      swap1\n      0x01\n      add\n      swap1\n      jump(tag_223)\n    tag_224:\n    tag_222:\n      pop\n      swap1\n      pop\n      tag_226\n      swap2\n      swap1\n      tag_227\n      jump\t// in\n    tag_226:\n      pop\n      swap1\n      jump\t// out\n    tag_227:\n    tag_228:\n      dup1\n      dup3\n      gt\n      iszero\n      tag_229\n      jumpi\n      0x00\n      dup2\n      dup2\n      tag_230\n      swap2\n      swap1\n      tag_231\n      jump\t// in\n    tag_230:\n      pop\n      0x01\n      add\n      jump(tag_228)\n    tag_229:\n      pop\n      swap1\n      jump\t// out\n    tag_231:\n      pop\n      dup1\n      sload\n      tag_232\n      swap1\n      tag_97\n      jump\t// in\n    tag_232:\n      0x00\n      dup3\n      sstore\n      dup1\n      0x1f\n      lt\n      tag_234\n      jumpi\n      pop\n      jump(tag_233)\n    tag_234:\n      0x1f\n      add\n      0x20\n      swap1\n      div\n      swap1\n      0x00\n      mstore\n      keccak256(0x00, 0x20)\n      swap1\n      dup2\n      add\n      swap1\n      tag_235\n      swap2\n      swap1\n      tag_236\n      jump\t// in\n    tag_235:\n    tag_233:\n      pop\n      jump\t// out\n    tag_236:\n    tag_237:\n      dup1\n      dup3\n      gt\n      iszero\n      tag_238\n      jumpi\n      0x00\n      dup2\n      0x00\n      swap1\n      sstore\n      pop\n      0x01\n      add\n      jump(tag_237)\n    tag_238:\n      pop\n      swap1\n      jump\t// out\n        /* \"#utility.yul\":7:82   */\n    tag_239:\n        /* \"#utility.yul\":40:46   */\n      0x00\n        /* \"#utility.yul\":73:75   */\n      0x40\n        /* \"#utility.yul\":67:76   */\n      mload\n        /* \"#utility.yul\":57:76   */\n      swap1\n      pop\n        /* \"#utility.yul\":7:82   */\n      swap1\n      jump\t// out\n        /* \"#utility.yul\":88:205   */\n    tag_240:\n        /* \"#utility.yul\":197:198   */\n      0x00\n        /* \"#utility.yul\":194:195   */\n      dup1\n        /* \"#utility.yul\":187:199   */\n      revert\n        /* \"#utility.yul\":211:328   */\n    tag_241:\n        /* \"#utility.yul\":320:321   */\n      0x00\n        /* \"#utility.yul\":317:318   */\n      dup1\n        /* \"#utility.yul\":310:322   */\n      revert\n        /* \"#utility.yul\":334:451   */\n    tag_242:\n        /* \"#utility.yul\":443:444   */\n      0x00\n        /* \"#utility.yul\":440:441   */\n      dup1\n        /* \"#utility.yul\":433:445   */\n      revert\n        /* \"#utility.yul\":457:574   */\n    tag_243:\n        /* \"#utility.yul\":566:567   */\n      0x00\n        /* \"#utility.yul\":563:564   */\n      dup1\n        /* \"#utility.yul\":556:568   */\n      revert\n        /* \"#utility.yul\":580:682   */\n    tag_244:\n        /* \"#utility.yul\":621:627   */\n      0x00\n        /* \"#utility.yul\":672:674   */\n      0x1f\n        /* \"#utility.yul\":668:675   */\n      not\n        /* \"#utility.yul\":663:665   */\n      0x1f\n        /* \"#utility.yul\":656:661   */\n      dup4\n        /* \"#utility.yul\":652:666   */\n      add\n        /* \"#utility.yul\":648:676   */\n      and\n        /* \"#utility.yul\":638:676   */\n      swap1\n      pop\n        /* \"#utility.yul\":580:682   */\n      swap2\n      swap1\n      pop\n      jump\t// out\n        /* \"#utility.yul\":688:868   */\n    tag_86:\n        /* \"#utility.yul\":736:813   */\n      0x4e487b7100000000000000000000000000000000000000000000000000000000\n        /* \"#utility.yul\":733:734   */\n      0x00\n        /* \"#utility.yul\":726:814   */\n      mstore\n        /* \"#utility.yul\":833:837   */\n      0x41\n        /* \"#utility.yul\":830:831   */\n      0x04\n        /* \"#utility.yul\":823:838   */\n      mstore\n        /* \"#utility.yul\":857:861   */\n      0x24\n        /* \"#utility.yul\":854:855   */\n      0x00\n        /* \"#utility.yul\":847:862   */\n      revert\n        /* \"#utility.yul\":874:1155   */\n    tag_245:\n        /* \"#utility.yul\":957:984   */\n      tag_314\n        /* \"#utility.yul\":979:983   */\n      dup3\n        /* \"#utility.yul\":957:984   */\n      tag_244\n      jump\t// in\n    tag_314:\n        /* \"#utility.yul\":949:955   */\n      dup2\n        /* \"#utility.yul\":945:985   */\n      add\n        /* \"#utility.yul\":1087:1093   */\n      dup2\n        /* \"#utility.yul\":1075:1085   */\n      dup2\n        /* \"#utility.yul\":1072:1094   */\n      lt\n        /* \"#utility.yul\":1051:1069   */\n      0xffffffffffffffff\n        /* \"#utility.yul\":1039:1049   */\n      dup3\n        /* \"#utility.yul\":1036:1070   */\n      gt\n        /* \"#utility.yul\":1033:1095   */\n      or\n        /* \"#utility.yul\":1030:1118   */\n      iszero\n      tag_315\n      jumpi\n        /* \"#utility.yul\":1098:1116   */\n      tag_316\n      tag_86\n      jump\t// in\n    tag_316:\n        /* \"#utility.yul\":1030:1118   */\n    tag_315:\n        /* \"#utility.yul\":1138:1148   */\n      dup1\n        /* \"#utility.yul\":1134:1136   */\n      0x40\n        /* \"#utility.yul\":1127:1149   */\n      mstore\n        /* \"#utility.yul\":917:1155   */\n      pop\n        /* \"#utility.yul\":874:1155   */\n      pop\n      pop\n      jump\t// out\n        /* \"#utility.yul\":1161:1290   */\n    tag_246:\n        /* \"#utility.yul\":1195:1201   */\n      0x00\n        /* \"#utility.yul\":1222:1242   */\n      tag_318\n      tag_239\n      jump\t// in\n    tag_318:\n        /* \"#utility.yul\":1212:1242   */\n      swap1\n      pop\n        /* \"#utility.yul\":1251:1284   */\n      tag_319\n        /* \"#utility.yul\":1279:1283   */\n      dup3\n        /* \"#utility.yul\":1271:1277   */\n      dup3\n        /* \"#utility.yul\":1251:1284   */\n      tag_245\n      jump\t// in\n    tag_319:\n        /* \"#utility.yul\":1161:1290   */\n      swap2\n      swap1\n      pop\n      jump\t// out\n        /* \"#utility.yul\":1296:1604   */\n    tag_247:\n        /* \"#utility.yul\":1358:1362   */\n      0x00\n        /* \"#utility.yul\":1448:1466   */\n      0xffffffffffffffff\n        /* \"#utility.yul\":1440:1446   */\n      dup3\n        /* \"#utility.yul\":1437:1467   */\n      gt\n        /* \"#utility.yul\":1434:1490   */\n      iszero\n      tag_321\n      jumpi\n        /* \"#utility.yul\":1470:1488   */\n      tag_322\n      tag_86\n      jump\t// in\n    tag_322:\n        /* \"#utility.yul\":1434:1490   */\n    tag_321:\n        /* \"#utility.yul\":1508:1537   */\n      tag_323\n        /* \"#utility.yul\":1530:1536   */\n      dup3\n        /* \"#utility.yul\":1508:1537   */\n      tag_244\n      jump\t// in\n    tag_323:\n        /* \"#utility.yul\":1500:1537   */\n      swap1\n      pop\n        /* \"#utility.yul\":1592:1596   */\n      0x20\n        /* \"#utility.yul\":1586:1590   */\n      dup2\n        /* \"#utility.yul\":1582:1597   */\n      add\n        /* \"#utility.yul\":1574:1597   */\n      swap1\n      pop\n        /* \"#utility.yul\":1296:1604   */\n      swap2\n      swap1\n      pop\n      jump\t// out\n        /* \"#utility.yul\":1610:1756   */\n    tag_248:\n        /* \"#utility.yul\":1707:1713   */\n      dup3\n        /* \"#utility.yul\":1702:1705   */\n      dup2\n        /* \"#utility.yul\":1697:1700   */\n      dup4\n        /* \"#utility.yul\":1684:1714   */\n      calldatacopy\n        /* \"#utility.yul\":1748:1749   */\n      0x00\n        /* \"#utility.yul\":1739:1745   */\n      dup4\n        /* \"#utility.yul\":1734:1737   */\n      dup4\n        /* \"#utility.yul\":1730:1746   */\n      add\n        /* \"#utility.yul\":1723:1750   */\n      mstore\n        /* \"#utility.yul\":1610:1756   */\n      pop\n      pop\n      pop\n      jump\t// out\n        /* \"#utility.yul\":1762:2187   */\n    tag_249:\n        /* \"#utility.yul\":1840:1845   */\n      0x00\n        /* \"#utility.yul\":1865:1931   */\n      tag_326\n        /* \"#utility.yul\":1881:1930   */\n      tag_327\n        /* \"#utility.yul\":1923:1929   */\n      dup5\n        /* \"#utility.yul\":1881:1930   */\n      tag_247\n      jump\t// in\n    tag_327:\n        /* \"#utility.yul\":1865:1931   */\n      tag_246\n      jump\t// in\n    tag_326:\n        /* \"#utility.yul\":1856:1931   */\n      swap1\n      pop\n        /* \"#utility.yul\":1954:1960   */\n      dup3\n        /* \"#utility.yul\":1947:1952   */\n      dup2\n        /* \"#utility.yul\":1940:1961   */\n      mstore\n        /* \"#utility.yul\":1992:1996   */\n      0x20\n        /* \"#utility.yul\":1985:1990   */\n      dup2\n        /* \"#utility.yul\":1981:1997   */\n      add\n        /* \"#utility.yul\":2030:2033   */\n      dup5\n        /* \"#utility.yul\":2021:2027   */\n      dup5\n        /* \"#utility.yul\":2016:2019   */\n      dup5\n        /* \"#utility.yul\":2012:2028   */\n      add\n        /* \"#utility.yul\":2009:2034   */\n      gt\n        /* \"#utility.yul\":2006:2118   */\n      iszero\n      tag_328\n      jumpi\n        /* \"#utility.yul\":2037:2116   */\n      tag_329\n      tag_243\n      jump\t// in\n    tag_329:\n        /* \"#utility.yul\":2006:2118   */\n    tag_328:\n        /* \"#utility.yul\":2127:2181   */\n      tag_330\n        /* \"#utility.yul\":2174:2180   */\n      dup5\n        /* \"#utility.yul\":2169:2172   */\n      dup3\n        /* \"#utility.yul\":2164:2167   */\n      dup6\n        /* \"#utility.yul\":2127:2181   */\n      tag_248\n      jump\t// in\n    tag_330:\n        /* \"#utility.yul\":1846:2187   */\n      pop\n        /* \"#utility.yul\":1762:2187   */\n      swap4\n      swap3\n      pop\n      pop\n      pop\n      jump\t// out\n        /* \"#utility.yul\":2207:2547   */\n    tag_250:\n        /* \"#utility.yul\":2263:2268   */\n      0x00\n        /* \"#utility.yul\":2312:2315   */\n      dup3\n        /* \"#utility.yul\":2305:2309   */\n      0x1f\n        /* \"#utility.yul\":2297:2303   */\n      dup4\n        /* \"#utility.yul\":2293:2310   */\n      add\n        /* \"#utility.yul\":2289:2316   */\n      slt\n        /* \"#utility.yul\":2279:2401   */\n      tag_332\n      jumpi\n        /* \"#utility.yul\":2320:2399   */\n      tag_333\n      tag_242\n      jump\t// in\n    tag_333:\n        /* \"#utility.yul\":2279:2401   */\n    tag_332:\n        /* \"#utility.yul\":2437:2443   */\n      dup2\n        /* \"#utility.yul\":2424:2444   */\n      calldataload\n        /* \"#utility.yul\":2462:2541   */\n      tag_334\n        /* \"#utility.yul\":2537:2540   */\n      dup5\n        /* \"#utility.yul\":2529:2535   */\n      dup3\n        /* \"#utility.yul\":2522:2526   */\n      0x20\n        /* \"#utility.yul\":2514:2520   */\n      dup7\n        /* \"#utility.yul\":2510:2527   */\n      add\n        /* \"#utility.yul\":2462:2541   */\n      tag_249\n      jump\t// in\n    tag_334:\n        /* \"#utility.yul\":2453:2541   */\n      swap2\n      pop\n        /* \"#utility.yul\":2269:2547   */\n      pop\n        /* \"#utility.yul\":2207:2547   */\n      swap3\n      swap2\n      pop\n      pop\n      jump\t// out\n        /* \"#utility.yul\":2553:2630   */\n    tag_251:\n        /* \"#utility.yul\":2590:2597   */\n      0x00\n        /* \"#utility.yul\":2619:2624   */\n      dup2\n        /* \"#utility.yul\":2608:2624   */\n      swap1\n      pop\n        /* \"#utility.yul\":2553:2630   */\n      swap2\n      swap1\n      pop\n      jump\t// out\n        /* \"#utility.yul\":2636:2758   */\n    tag_252:\n        /* \"#utility.yul\":2709:2733   */\n      tag_337\n        /* \"#utility.yul\":2727:2732   */\n      dup2\n        /* \"#utility.yul\":2709:2733   */\n      tag_251\n      jump\t// in\n    tag_337:\n        /* \"#utility.yul\":2702:2707   */\n      dup2\n        /* \"#utility.yul\":2699:2734   */\n      eq\n        /* \"#utility.yul\":2689:2752   */\n      tag_338\n      jumpi\n        /* \"#utility.yul\":2748:2749   */\n      0x00\n        /* \"#utility.yul\":2745:2746   */\n      dup1\n        /* \"#utility.yul\":2738:2750   */\n      revert\n        /* \"#utility.yul\":2689:2752   */\n    tag_338:\n        /* \"#utility.yul\":2636:2758   */\n      pop\n      jump\t// out\n        /* \"#utility.yul\":2764:2903   */\n    tag_253:\n        /* \"#utility.yul\":2810:2815   */\n      0x00\n        /* \"#utility.yul\":2848:2854   */\n      dup2\n        /* \"#utility.yul\":2835:2855   */\n      calldataload\n        /* \"#utility.yul\":2826:2855   */\n      swap1\n      pop\n        /* \"#utility.yul\":2864:2897   */\n      tag_340\n        /* \"#utility.yul\":2891:2896   */\n      dup2\n        /* \"#utility.yul\":2864:2897   */\n      tag_252\n      jump\t// in\n    tag_340:\n        /* \"#utility.yul\":2764:2903   */\n      swap3\n      swap2\n      pop\n      pop\n      jump\t// out\n        /* \"#utility.yul\":2909:2999   */\n    tag_254:\n        /* \"#utility.yul\":2943:2950   */\n      0x00\n        /* \"#utility.yul\":2986:2991   */\n      dup2\n        /* \"#utility.yul\":2979:2992   */\n      iszero\n        /* \"#utility.yul\":2972:2993   */\n      iszero\n        /* \"#utility.yul\":2961:2993   */\n      swap1\n      pop\n        /* \"#utility.yul\":2909:2999   */\n      swap2\n      swap1\n      pop\n      jump\t// out\n        /* \"#utility.yul\":3005:3121   */\n    tag_255:\n        /* \"#utility.yul\":3075:3096   */\n      tag_343\n        /* \"#utility.yul\":3090:3095   */\n      dup2\n        /* \"#utility.yul\":3075:3096   */\n      tag_254\n      jump\t// in\n    tag_343:\n        /* \"#utility.yul\":3068:3073   */\n      dup2\n        /* \"#utility.yul\":3065:3097   */\n      eq\n        /* \"#utility.yul\":3055:3115   */\n      tag_344\n      jumpi\n        /* \"#utility.yul\":3111:3112   */\n      0x00\n        /* \"#utility.yul\":3108:3109   */\n      dup1\n        /* \"#utility.yul\":3101:3113   */\n      revert\n        /* \"#utility.yul\":3055:3115   */\n    tag_344:\n        /* \"#utility.yul\":3005:3121   */\n      pop\n      jump\t// out\n        /* \"#utility.yul\":3127:3260   */\n    tag_256:\n        /* \"#utility.yul\":3170:3175   */\n      0x00\n        /* \"#utility.yul\":3208:3214   */\n      dup2\n        /* \"#utility.yul\":3195:3215   */\n      calldataload\n        /* \"#utility.yul\":3186:3215   */\n      swap1\n      pop\n        /* \"#utility.yul\":3224:3254   */\n      tag_346\n        /* \"#utility.yul\":3248:3253   */\n      dup2\n        /* \"#utility.yul\":3224:3254   */\n      tag_255\n      jump\t// in\n    tag_346:\n        /* \"#utility.yul\":3127:3260   */\n      swap3\n      swap2\n      pop\n      pop\n      jump\t// out\n        /* \"#utility.yul\":3266:5363   */\n    tag_17:\n        /* \"#utility.yul\":3426:3432   */\n      0x00\n        /* \"#utility.yul\":3434:3440   */\n      dup1\n        /* \"#utility.yul\":3442:3448   */\n      0x00\n        /* \"#utility.yul\":3450:3456   */\n      dup1\n        /* \"#utility.yul\":3458:3464   */\n      0x00\n        /* \"#utility.yul\":3466:3472   */\n      dup1\n        /* \"#utility.yul\":3474:3480   */\n      0x00\n        /* \"#utility.yul\":3523:3526   */\n      0xe0\n        /* \"#utility.yul\":3511:3520   */\n      dup9\n        /* \"#utility.yul\":3502:3509   */\n      dup11\n        /* \"#utility.yul\":3498:3521   */\n      sub\n        /* \"#utility.yul\":3494:3527   */\n      slt\n        /* \"#utility.yul\":3491:3611   */\n      iszero\n      tag_348\n      jumpi\n        /* \"#utility.yul\":3530:3609   */\n      tag_349\n      tag_240\n      jump\t// in\n    tag_349:\n        /* \"#utility.yul\":3491:3611   */\n    tag_348:\n        /* \"#utility.yul\":3678:3679   */\n      0x00\n        /* \"#utility.yul\":3667:3676   */\n      dup9\n        /* \"#utility.yul\":3663:3680   */\n      add\n        /* \"#utility.yul\":3650:3681   */\n      calldataload\n        /* \"#utility.yul\":3708:3726   */\n      0xffffffffffffffff\n        /* \"#utility.yul\":3700:3706   */\n      dup2\n        /* \"#utility.yul\":3697:3727   */\n      gt\n        /* \"#utility.yul\":3694:3811   */\n      iszero\n      tag_350\n      jumpi\n        /* \"#utility.yul\":3730:3809   */\n      tag_351\n      tag_241\n      jump\t// in\n    tag_351:\n        /* \"#utility.yul\":3694:3811   */\n    tag_350:\n        /* \"#utility.yul\":3835:3898   */\n      tag_352\n        /* \"#utility.yul\":3890:3897   */\n      dup11\n        /* \"#utility.yul\":3881:3887   */\n      dup3\n        /* \"#utility.yul\":3870:3879   */\n      dup12\n        /* \"#utility.yul\":3866:3888   */\n      add\n        /* \"#utility.yul\":3835:3898   */\n      tag_250\n      jump\t// in\n    tag_352:\n        /* \"#utility.yul\":3825:3898   */\n      swap8\n      pop\n        /* \"#utility.yul\":3621:3908   */\n      pop\n        /* \"#utility.yul\":3975:3977   */\n      0x20\n        /* \"#utility.yul\":3964:3973   */\n      dup9\n        /* \"#utility.yul\":3960:3978   */\n      add\n        /* \"#utility.yul\":3947:3979   */\n      calldataload\n        /* \"#utility.yul\":4006:4024   */\n      0xffffffffffffffff\n        /* \"#utility.yul\":3998:4004   */\n      dup2\n        /* \"#utility.yul\":3995:4025   */\n      gt\n        /* \"#utility.yul\":3992:4109   */\n      iszero\n      tag_353\n      jumpi\n        /* \"#utility.yul\":4028:4107   */\n      tag_354\n      tag_241\n      jump\t// in\n    tag_354:\n        /* \"#utility.yul\":3992:4109   */\n    tag_353:\n        /* \"#utility.yul\":4133:4196   */\n      tag_355\n        /* \"#utility.yul\":4188:4195   */\n      dup11\n        /* \"#utility.yul\":4179:4185   */\n      dup3\n        /* \"#utility.yul\":4168:4177   */\n      dup12\n        /* \"#utility.yul\":4164:4186   */\n      add\n        /* \"#utility.yul\":4133:4196   */\n      tag_250\n      jump\t// in\n    tag_355:\n        /* \"#utility.yul\":4123:4196   */\n      swap7\n      pop\n        /* \"#utility.yul\":3918:4206   */\n      pop\n        /* \"#utility.yul\":4273:4275   */\n      0x40\n        /* \"#utility.yul\":4262:4271   */\n      dup9\n        /* \"#utility.yul\":4258:4276   */\n      add\n        /* \"#utility.yul\":4245:4277   */\n      calldataload\n        /* \"#utility.yul\":4304:4322   */\n      0xffffffffffffffff\n        /* \"#utility.yul\":4296:4302   */\n      dup2\n        /* \"#utility.yul\":4293:4323   */\n      gt\n        /* \"#utility.yul\":4290:4407   */\n      iszero\n      tag_356\n      jumpi\n        /* \"#utility.yul\":4326:4405   */\n      tag_357\n      tag_241\n      jump\t// in\n    tag_357:\n        /* \"#utility.yul\":4290:4407   */\n    tag_356:\n        /* \"#utility.yul\":4431:4494   */\n      tag_358\n        /* \"#utility.yul\":4486:4493   */\n      dup11\n        /* \"#utility.yul\":4477:4483   */\n      dup3\n        /* \"#utility.yul\":4466:4475   */\n      dup12\n        /* \"#utility.yul\":4462:4484   */\n      add\n        /* \"#utility.yul\":4431:4494   */\n      tag_250\n      jump\t// in\n    tag_358:\n        /* \"#utility.yul\":4421:4494   */\n      swap6\n      pop\n        /* \"#utility.yul\":4216:4504   */\n      pop\n        /* \"#utility.yul\":4543:4545   */\n      0x60\n        /* \"#utility.yul\":4569:4622   */\n      tag_359\n        /* \"#utility.yul\":4614:4621   */\n      dup11\n        /* \"#utility.yul\":4605:4611   */\n      dup3\n        /* \"#utility.yul\":4594:4603   */\n      dup12\n        /* \"#utility.yul\":4590:4612   */\n      add\n        /* \"#utility.yul\":4569:4622   */\n      tag_253\n      jump\t// in\n    tag_359:\n        /* \"#utility.yul\":4559:4622   */\n      swap5\n      pop\n        /* \"#utility.yul\":4514:4632   */\n      pop\n        /* \"#utility.yul\":4699:4702   */\n      0x80\n        /* \"#utility.yul\":4688:4697   */\n      dup9\n        /* \"#utility.yul\":4684:4703   */\n      add\n        /* \"#utility.yul\":4671:4704   */\n      calldataload\n        /* \"#utility.yul\":4731:4749   */\n      0xffffffffffffffff\n        /* \"#utility.yul\":4723:4729   */\n      dup2\n        /* \"#utility.yul\":4720:4750   */\n      gt\n        /* \"#utility.yul\":4717:4834   */\n      iszero\n      tag_360\n      jumpi\n        /* \"#utility.yul\":4753:4832   */\n      tag_361\n      tag_241\n      jump\t// in\n    tag_361:\n        /* \"#utility.yul\":4717:4834   */\n    tag_360:\n        /* \"#utility.yul\":4858:4921   */\n      tag_362\n        /* \"#utility.yul\":4913:4920   */\n      dup11\n        /* \"#utility.yul\":4904:4910   */\n      dup3\n        /* \"#utility.yul\":4893:4902   */\n      dup12\n        /* \"#utility.yul\":4889:4911   */\n      add\n        /* \"#utility.yul\":4858:4921   */\n      tag_250\n      jump\t// in\n    tag_362:\n        /* \"#utility.yul\":4848:4921   */\n      swap4\n      pop\n        /* \"#utility.yul\":4642:4931   */\n      pop\n        /* \"#utility.yul\":4998:5001   */\n      0xa0\n        /* \"#utility.yul\":4987:4996   */\n      dup9\n        /* \"#utility.yul\":4983:5002   */\n      add\n        /* \"#utility.yul\":4970:5003   */\n      calldataload\n        /* \"#utility.yul\":5030:5048   */\n      0xffffffffffffffff\n        /* \"#utility.yul\":5022:5028   */\n      dup2\n        /* \"#utility.yul\":5019:5049   */\n      gt\n        /* \"#utility.yul\":5016:5133   */\n      iszero\n      tag_363\n      jumpi\n        /* \"#utility.yul\":5052:5131   */\n      tag_364\n      tag_241\n      jump\t// in\n    tag_364:\n        /* \"#utility.yul\":5016:5133   */\n    tag_363:\n        /* \"#utility.yul\":5157:5220   */\n      tag_365\n        /* \"#utility.yul\":5212:5219   */\n      dup11\n        /* \"#utility.yul\":5203:5209   */\n      dup3\n        /* \"#utility.yul\":5192:5201   */\n      dup12\n        /* \"#utility.yul\":5188:5210   */\n      add\n        /* \"#utility.yul\":5157:5220   */\n      tag_250\n      jump\t// in\n    tag_365:\n        /* \"#utility.yul\":5147:5220   */\n      swap3\n      pop\n        /* \"#utility.yul\":4941:5230   */\n      pop\n        /* \"#utility.yul\":5269:5272   */\n      0xc0\n        /* \"#utility.yul\":5296:5346   */\n      tag_366\n        /* \"#utility.yul\":5338:5345   */\n      dup11\n        /* \"#utility.yul\":5329:5335   */\n      dup3\n        /* \"#utility.yul\":5318:5327   */\n      dup12\n        /* \"#utility.yul\":5314:5336   */\n      add\n        /* \"#utility.yul\":5296:5346   */\n      tag_256\n      jump\t// in\n    tag_366:\n        /* \"#utility.yul\":5286:5346   */\n      swap2\n      pop\n        /* \"#utility.yul\":5240:5356   */\n      pop\n        /* \"#utility.yul\":3266:5363   */\n      swap3\n      swap6\n      swap9\n      swap2\n      swap5\n      swap8\n      pop\n      swap3\n      swap6\n      pop\n      jump\t// out\n        /* \"#utility.yul\":5369:7180   */\n    tag_21:\n        /* \"#utility.yul\":5514:5520   */\n      0x00\n        /* \"#utility.yul\":5522:5528   */\n      dup1\n        /* \"#utility.yul\":5530:5536   */\n      0x00\n        /* \"#utility.yul\":5538:5544   */\n      dup1\n        /* \"#utility.yul\":5546:5552   */\n      0x00\n        /* \"#utility.yul\":5595:5598   */\n      0xa0\n        /* \"#utility.yul\":5583:5592   */\n      dup7\n        /* \"#utility.yul\":5574:5581   */\n      dup9\n        /* \"#utility.yul\":5570:5593   */\n      sub\n        /* \"#utility.yul\":5566:5599   */\n      slt\n        /* \"#utility.yul\":5563:5683   */\n      iszero\n      tag_368\n      jumpi\n        /* \"#utility.yul\":5602:5681   */\n      tag_369\n      tag_240\n      jump\t// in\n    tag_369:\n        /* \"#utility.yul\":5563:5683   */\n    tag_368:\n        /* \"#utility.yul\":5750:5751   */\n      0x00\n        /* \"#utility.yul\":5739:5748   */\n      dup7\n        /* \"#utility.yul\":5735:5752   */\n      add\n        /* \"#utility.yul\":5722:5753   */\n      calldataload\n        /* \"#utility.yul\":5780:5798   */\n      0xffffffffffffffff\n        /* \"#utility.yul\":5772:5778   */\n      dup2\n        /* \"#utility.yul\":5769:5799   */\n      gt\n        /* \"#utility.yul\":5766:5883   */\n      iszero\n      tag_370\n      jumpi\n        /* \"#utility.yul\":5802:5881   */\n      tag_371\n      tag_241\n      jump\t// in\n    tag_371:\n        /* \"#utility.yul\":5766:5883   */\n    tag_370:\n        /* \"#utility.yul\":5907:5970   */\n      tag_372\n        /* \"#utility.yul\":5962:5969   */\n      dup9\n        /* \"#utility.yul\":5953:5959   */\n      dup3\n        /* \"#utility.yul\":5942:5951   */\n      dup10\n        /* \"#utility.yul\":5938:5960   */\n      add\n        /* \"#utility.yul\":5907:5970   */\n      tag_250\n      jump\t// in\n    tag_372:\n        /* \"#utility.yul\":5897:5970   */\n      swap6\n      pop\n        /* \"#utility.yul\":5693:5980   */\n      pop\n        /* \"#utility.yul\":6047:6049   */\n      0x20\n        /* \"#utility.yul\":6036:6045   */\n      dup7\n        /* \"#utility.yul\":6032:6050   */\n      add\n        /* \"#utility.yul\":6019:6051   */\n      calldataload\n        /* \"#utility.yul\":6078:6096   */\n      0xffffffffffffffff\n        /* \"#utility.yul\":6070:6076   */\n      dup2\n        /* \"#utility.yul\":6067:6097   */\n      gt\n        /* \"#utility.yul\":6064:6181   */\n      iszero\n      tag_373\n      jumpi\n        /* \"#utility.yul\":6100:6179   */\n      tag_374\n      tag_241\n      jump\t// in\n    tag_374:\n        /* \"#utility.yul\":6064:6181   */\n    tag_373:\n        /* \"#utility.yul\":6205:6268   */\n      tag_375\n        /* \"#utility.yul\":6260:6267   */\n      dup9\n        /* \"#utility.yul\":6251:6257   */\n      dup3\n        /* \"#utility.yul\":6240:6249   */\n      dup10\n        /* \"#utility.yul\":6236:6258   */\n      add\n        /* \"#utility.yul\":6205:6268   */\n      tag_250\n      jump\t// in\n    tag_375:\n        /* \"#utility.yul\":6195:6268   */\n      swap5\n      pop\n        /* \"#utility.yul\":5990:6278   */\n      pop\n        /* \"#utility.yul\":6345:6347   */\n      0x40\n        /* \"#utility.yul\":6334:6343   */\n      dup7\n        /* \"#utility.yul\":6330:6348   */\n      add\n        /* \"#utility.yul\":6317:6349   */\n      calldataload\n        /* \"#utility.yul\":6376:6394   */\n      0xffffffffffffffff\n        /* \"#utility.yul\":6368:6374   */\n      dup2\n        /* \"#utility.yul\":6365:6395   */\n      gt\n        /* \"#utility.yul\":6362:6479   */\n      iszero\n      tag_376\n      jumpi\n        /* \"#utility.yul\":6398:6477   */\n      tag_377\n      tag_241\n      jump\t// in\n    tag_377:\n        /* \"#utility.yul\":6362:6479   */\n    tag_376:\n        /* \"#utility.yul\":6503:6566   */\n      tag_378\n        /* \"#utility.yul\":6558:6565   */\n      dup9\n        /* \"#utility.yul\":6549:6555   */\n      dup3\n        /* \"#utility.yul\":6538:6547   */\n      dup10\n        /* \"#utility.yul\":6534:6556   */\n      add\n        /* \"#utility.yul\":6503:6566   */\n      tag_250\n      jump\t// in\n    tag_378:\n        /* \"#utility.yul\":6493:6566   */\n      swap4\n      pop\n        /* \"#utility.yul\":6288:6576   */\n      pop\n        /* \"#utility.yul\":6643:6645   */\n      0x60\n        /* \"#utility.yul\":6632:6641   */\n      dup7\n        /* \"#utility.yul\":6628:6646   */\n      add\n        /* \"#utility.yul\":6615:6647   */\n      calldataload\n        /* \"#utility.yul\":6674:6692   */\n      0xffffffffffffffff\n        /* \"#utility.yul\":6666:6672   */\n      dup2\n        /* \"#utility.yul\":6663:6693   */\n      gt\n        /* \"#utility.yul\":6660:6777   */\n      iszero\n      tag_379\n      jumpi\n        /* \"#utility.yul\":6696:6775   */\n      tag_380\n      tag_241\n      jump\t// in\n    tag_380:\n        /* \"#utility.yul\":6660:6777   */\n    tag_379:\n        /* \"#utility.yul\":6801:6864   */\n      tag_381\n        /* \"#utility.yul\":6856:6863   */\n      dup9\n        /* \"#utility.yul\":6847:6853   */\n      dup3\n        /* \"#utility.yul\":6836:6845   */\n      dup10\n        /* \"#utility.yul\":6832:6854   */\n      add\n        /* \"#utility.yul\":6801:6864   */\n      tag_250\n      jump\t// in\n    tag_381:\n        /* \"#utility.yul\":6791:6864   */\n      swap3\n      pop\n        /* \"#utility.yul\":6586:6874   */\n      pop\n        /* \"#utility.yul\":6941:6944   */\n      0x80\n        /* \"#utility.yul\":6930:6939   */\n      dup7\n        /* \"#utility.yul\":6926:6945   */\n      add\n        /* \"#utility.yul\":6913:6946   */\n      calldataload\n        /* \"#utility.yul\":6973:6991   */\n      0xffffffffffffffff\n        /* \"#utility.yul\":6965:6971   */\n      dup2\n        /* \"#utility.yul\":6962:6992   */\n      gt\n        /* \"#utility.yul\":6959:7076   */\n      iszero\n      tag_382\n      jumpi\n        /* \"#utility.yul\":6995:7074   */\n      tag_383\n      tag_241\n      jump\t// in\n    tag_383:\n        /* \"#utility.yul\":6959:7076   */\n    tag_382:\n        /* \"#utility.yul\":7100:7163   */\n      tag_384\n        /* \"#utility.yul\":7155:7162   */\n      dup9\n        /* \"#utility.yul\":7146:7152   */\n      dup3\n        /* \"#utility.yul\":7135:7144   */\n      dup10\n        /* \"#utility.yul\":7131:7153   */\n      add\n        /* \"#utility.yul\":7100:7163   */\n      tag_250\n      jump\t// in\n    tag_384:\n        /* \"#utility.yul\":7090:7163   */\n      swap2\n      pop\n        /* \"#utility.yul\":6884:7173   */\n      pop\n        /* \"#utility.yul\":5369:7180   */\n      swap3\n      swap6\n      pop\n      swap3\n      swap6\n      swap1\n      swap4\n      pop\n      jump\t// out\n        /* \"#utility.yul\":7186:7695   */\n    tag_25:\n        /* \"#utility.yul\":7255:7261   */\n      0x00\n        /* \"#utility.yul\":7304:7306   */\n      0x20\n        /* \"#utility.yul\":7292:7301   */\n      dup3\n        /* \"#utility.yul\":7283:7290   */\n      dup5\n        /* \"#utility.yul\":7279:7302   */\n      sub\n        /* \"#utility.yul\":7275:7307   */\n      slt\n        /* \"#utility.yul\":7272:7391   */\n      iszero\n      tag_386\n      jumpi\n        /* \"#utility.yul\":7310:7389   */\n      tag_387\n      tag_240\n      jump\t// in\n    tag_387:\n        /* \"#utility.yul\":7272:7391   */\n    tag_386:\n        /* \"#utility.yul\":7458:7459   */\n      0x00\n        /* \"#utility.yul\":7447:7456   */\n      dup3\n        /* \"#utility.yul\":7443:7460   */\n      add\n        /* \"#utility.yul\":7430:7461   */\n      calldataload\n        /* \"#utility.yul\":7488:7506   */\n      0xffffffffffffffff\n        /* \"#utility.yul\":7480:7486   */\n      dup2\n        /* \"#utility.yul\":7477:7507   */\n      gt\n        /* \"#utility.yul\":7474:7591   */\n      iszero\n      tag_388\n      jumpi\n        /* \"#utility.yul\":7510:7589   */\n      tag_389\n      tag_241\n      jump\t// in\n    tag_389:\n        /* \"#utility.yul\":7474:7591   */\n    tag_388:\n        /* \"#utility.yul\":7615:7678   */\n      tag_390\n        /* \"#utility.yul\":7670:7677   */\n      dup5\n        /* \"#utility.yul\":7661:7667   */\n      dup3\n        /* \"#utility.yul\":7650:7659   */\n      dup6\n        /* \"#utility.yul\":7646:7668   */\n      add\n        /* \"#utility.yul\":7615:7678   */\n      tag_250\n      jump\t// in\n    tag_390:\n        /* \"#utility.yul\":7605:7678   */\n      swap2\n      pop\n        /* \"#utility.yul\":7401:7688   */\n      pop\n        /* \"#utility.yul\":7186:7695   */\n      swap3\n      swap2\n      pop\n      pop\n      jump\t// out\n        /* \"#utility.yul\":7701:7825   */\n    tag_257:\n        /* \"#utility.yul\":7778:7784   */\n      0x00\n        /* \"#utility.yul\":7812:7817   */\n      dup2\n        /* \"#utility.yul\":7806:7818   */\n      mload\n        /* \"#utility.yul\":7796:7818   */\n      swap1\n      pop\n        /* \"#utility.yul\":7701:7825   */\n      swap2\n      swap1\n      pop\n      jump\t// out\n        /* \"#utility.yul\":7831:8025   */\n    tag_258:\n        /* \"#utility.yul\":7940:7951   */\n      0x00\n        /* \"#utility.yul\":7974:7980   */\n      dup3\n        /* \"#utility.yul\":7969:7972   */\n      dup3\n        /* \"#utility.yul\":7962:7981   */\n      mstore\n        /* \"#utility.yul\":8014:8018   */\n      0x20\n        /* \"#utility.yul\":8009:8012   */\n      dup3\n        /* \"#utility.yul\":8005:8019   */\n      add\n        /* \"#utility.yul\":7990:8019   */\n      swap1\n      pop\n        /* \"#utility.yul\":7831:8025   */\n      swap3\n      swap2\n      pop\n      pop\n      jump\t// out\n        /* \"#utility.yul\":8031:8173   */\n    tag_259:\n        /* \"#utility.yul\":8108:8112   */\n      0x00\n        /* \"#utility.yul\":8131:8134   */\n      dup2\n        /* \"#utility.yul\":8123:8134   */\n      swap1\n      pop\n        /* \"#utility.yul\":8161:8165   */\n      0x20\n        /* \"#utility.yul\":8156:8159   */\n      dup3\n        /* \"#utility.yul\":8152:8166   */\n      add\n        /* \"#utility.yul\":8144:8166   */\n      swap1\n      pop\n        /* \"#utility.yul\":8031:8173   */\n      swap2\n      swap1\n      pop\n      jump\t// out\n        /* \"#utility.yul\":8179:8278   */\n    tag_260:\n        /* \"#utility.yul\":8231:8237   */\n      0x00\n        /* \"#utility.yul\":8265:8270   */\n      dup2\n        /* \"#utility.yul\":8259:8271   */\n      mload\n        /* \"#utility.yul\":8249:8271   */\n      swap1\n      pop\n        /* \"#utility.yul\":8179:8278   */\n      swap2\n      swap1\n      pop\n      jump\t// out\n        /* \"#utility.yul\":8284:8443   */\n    tag_261:\n        /* \"#utility.yul\":8358:8369   */\n      0x00\n        /* \"#utility.yul\":8392:8398   */\n      dup3\n        /* \"#utility.yul\":8387:8390   */\n      dup3\n        /* \"#utility.yul\":8380:8399   */\n      mstore\n        /* \"#utility.yul\":8432:8436   */\n      0x20\n        /* \"#utility.yul\":8427:8430   */\n      dup3\n        /* \"#utility.yul\":8423:8437   */\n      add\n        /* \"#utility.yul\":8408:8437   */\n      swap1\n      pop\n        /* \"#utility.yul\":8284:8443   */\n      swap3\n      swap2\n      pop\n      pop\n      jump\t// out\n        /* \"#utility.yul\":8449:8695   */\n    tag_262:\n        /* \"#utility.yul\":8530:8531   */\n      0x00\n        /* \"#utility.yul\":8540:8653   */\n    tag_397:\n        /* \"#utility.yul\":8554:8560   */\n      dup4\n        /* \"#utility.yul\":8551:8552   */\n      dup2\n        /* \"#utility.yul\":8548:8561   */\n      lt\n        /* \"#utility.yul\":8540:8653   */\n      iszero\n      tag_399\n      jumpi\n        /* \"#utility.yul\":8639:8640   */\n      dup1\n        /* \"#utility.yul\":8634:8637   */\n      dup3\n        /* \"#utility.yul\":8630:8641   */\n      add\n        /* \"#utility.yul\":8624:8642   */\n      mload\n        /* \"#utility.yul\":8620:8621   */\n      dup2\n        /* \"#utility.yul\":8615:8618   */\n      dup5\n        /* \"#utility.yul\":8611:8622   */\n      add\n        /* \"#utility.yul\":8604:8643   */\n      mstore\n        /* \"#utility.yul\":8576:8578   */\n      0x20\n        /* \"#utility.yul\":8573:8574   */\n      dup2\n        /* \"#utility.yul\":8569:8579   */\n      add\n        /* \"#utility.yul\":8564:8579   */\n      swap1\n      pop\n        /* \"#utility.yul\":8540:8653   */\n      jump(tag_397)\n    tag_399:\n        /* \"#utility.yul\":8687:8688   */\n      0x00\n        /* \"#utility.yul\":8678:8684   */\n      dup5\n        /* \"#utility.yul\":8673:8676   */\n      dup5\n        /* \"#utility.yul\":8669:8685   */\n      add\n        /* \"#utility.yul\":8662:8689   */\n      mstore\n        /* \"#utility.yul\":8511:8695   */\n      pop\n        /* \"#utility.yul\":8449:8695   */\n      pop\n      pop\n      pop\n      jump\t// out\n        /* \"#utility.yul\":8701:9058   */\n    tag_263:\n        /* \"#utility.yul\":8779:8782   */\n      0x00\n        /* \"#utility.yul\":8807:8846   */\n      tag_401\n        /* \"#utility.yul\":8840:8845   */\n      dup3\n        /* \"#utility.yul\":8807:8846   */\n      tag_260\n      jump\t// in\n    tag_401:\n        /* \"#utility.yul\":8862:8923   */\n      tag_402\n        /* \"#utility.yul\":8916:8922   */\n      dup2\n        /* \"#utility.yul\":8911:8914   */\n      dup6\n        /* \"#utility.yul\":8862:8923   */\n      tag_261\n      jump\t// in\n    tag_402:\n        /* \"#utility.yul\":8855:8923   */\n      swap4\n      pop\n        /* \"#utility.yul\":8932:8997   */\n      tag_403\n        /* \"#utility.yul\":8990:8996   */\n      dup2\n        /* \"#utility.yul\":8985:8988   */\n      dup6\n        /* \"#utility.yul\":8978:8982   */\n      0x20\n        /* \"#utility.yul\":8971:8976   */\n      dup7\n        /* \"#utility.yul\":8967:8983   */\n      add\n        /* \"#utility.yul\":8932:8997   */\n      tag_262\n      jump\t// in\n    tag_403:\n        /* \"#utility.yul\":9022:9051   */\n      tag_404\n        /* \"#utility.yul\":9044:9050   */\n      dup2\n        /* \"#utility.yul\":9022:9051   */\n      tag_244\n      jump\t// in\n    tag_404:\n        /* \"#utility.yul\":9017:9020   */\n      dup5\n        /* \"#utility.yul\":9013:9052   */\n      add\n        /* \"#utility.yul\":9006:9052   */\n      swap2\n      pop\n        /* \"#utility.yul\":8783:9058   */\n      pop\n        /* \"#utility.yul\":8701:9058   */\n      swap3\n      swap2\n      pop\n      pop\n      jump\t// out\n        /* \"#utility.yul\":9064:9260   */\n    tag_264:\n        /* \"#utility.yul\":9153:9163   */\n      0x00\n        /* \"#utility.yul\":9188:9254   */\n      tag_406\n        /* \"#utility.yul\":9250:9253   */\n      dup4\n        /* \"#utility.yul\":9242:9248   */\n      dup4\n        /* \"#utility.yul\":9188:9254   */\n      tag_263\n      jump\t// in\n    tag_406:\n        /* \"#utility.yul\":9174:9254   */\n      swap1\n      pop\n        /* \"#utility.yul\":9064:9260   */\n      swap3\n      swap2\n      pop\n      pop\n      jump\t// out\n        /* \"#utility.yul\":9266:9389   */\n    tag_265:\n        /* \"#utility.yul\":9346:9350   */\n      0x00\n        /* \"#utility.yul\":9378:9382   */\n      0x20\n        /* \"#utility.yul\":9373:9376   */\n      dup3\n        /* \"#utility.yul\":9369:9383   */\n      add\n        /* \"#utility.yul\":9361:9383   */\n      swap1\n      pop\n        /* \"#utility.yul\":9266:9389   */\n      swap2\n      swap1\n      pop\n      jump\t// out\n        /* \"#utility.yul\":9423:10414   */\n    tag_266:\n        /* \"#utility.yul\":9562:9565   */\n      0x00\n        /* \"#utility.yul\":9591:9655   */\n      tag_409\n        /* \"#utility.yul\":9649:9654   */\n      dup3\n        /* \"#utility.yul\":9591:9655   */\n      tag_257\n      jump\t// in\n    tag_409:\n        /* \"#utility.yul\":9671:9767   */\n      tag_410\n        /* \"#utility.yul\":9760:9766   */\n      dup2\n        /* \"#utility.yul\":9755:9758   */\n      dup6\n        /* \"#utility.yul\":9671:9767   */\n      tag_258\n      jump\t// in\n    tag_410:\n        /* \"#utility.yul\":9664:9767   */\n      swap4\n      pop\n        /* \"#utility.yul\":9793:9796   */\n      dup4\n        /* \"#utility.yul\":9838:9842   */\n      0x20\n        /* \"#utility.yul\":9830:9836   */\n      dup3\n        /* \"#utility.yul\":9826:9843   */\n      mul\n        /* \"#utility.yul\":9821:9824   */\n      dup6\n        /* \"#utility.yul\":9817:9844   */\n      add\n        /* \"#utility.yul\":9868:9934   */\n      tag_411\n        /* \"#utility.yul\":9928:9933   */\n      dup6\n        /* \"#utility.yul\":9868:9934   */\n      tag_259\n      jump\t// in\n    tag_411:\n        /* \"#utility.yul\":9957:9964   */\n      dup1\n        /* \"#utility.yul\":9988:9989   */\n      0x00\n        /* \"#utility.yul\":9973:10369   */\n    tag_412:\n        /* \"#utility.yul\":9998:10004   */\n      dup6\n        /* \"#utility.yul\":9995:9996   */\n      dup2\n        /* \"#utility.yul\":9992:10005   */\n      lt\n        /* \"#utility.yul\":9973:10369   */\n      iszero\n      tag_414\n      jumpi\n        /* \"#utility.yul\":10069:10078   */\n      dup5\n        /* \"#utility.yul\":10063:10067   */\n      dup5\n        /* \"#utility.yul\":10059:10079   */\n      sub\n        /* \"#utility.yul\":10054:10057   */\n      dup10\n        /* \"#utility.yul\":10047:10080   */\n      mstore\n        /* \"#utility.yul\":10120:10126   */\n      dup2\n        /* \"#utility.yul\":10114:10127   */\n      mload\n        /* \"#utility.yul\":10148:10232   */\n      tag_415\n        /* \"#utility.yul\":10227:10231   */\n      dup6\n        /* \"#utility.yul\":10212:10225   */\n      dup3\n        /* \"#utility.yul\":10148:10232   */\n      tag_264\n      jump\t// in\n    tag_415:\n        /* \"#utility.yul\":10140:10232   */\n      swap5\n      pop\n        /* \"#utility.yul\":10255:10325   */\n      tag_416\n        /* \"#utility.yul\":10318:10324   */\n      dup4\n        /* \"#utility.yul\":10255:10325   */\n      tag_265\n      jump\t// in\n    tag_416:\n        /* \"#utility.yul\":10245:10325   */\n      swap3\n      pop\n        /* \"#utility.yul\":10354:10358   */\n      0x20\n        /* \"#utility.yul\":10349:10352   */\n      dup11\n        /* \"#utility.yul\":10345:10359   */\n      add\n        /* \"#utility.yul\":10338:10359   */\n      swap10\n      pop\n        /* \"#utility.yul\":10033:10369   */\n      pop\n        /* \"#utility.yul\":10020:10021   */\n      0x01\n        /* \"#utility.yul\":10017:10018   */\n      dup2\n        /* \"#utility.yul\":10013:10022   */\n      add\n        /* \"#utility.yul\":10008:10022   */\n      swap1\n      pop\n        /* \"#utility.yul\":9973:10369   */\n      jump(tag_412)\n    tag_414:\n        /* \"#utility.yul\":9977:9991   */\n      pop\n        /* \"#utility.yul\":10385:10389   */\n      dup3\n        /* \"#utility.yul\":10378:10389   */\n      swap8\n      pop\n        /* \"#utility.yul\":10405:10408   */\n      dup8\n        /* \"#utility.yul\":10398:10408   */\n      swap6\n      pop\n        /* \"#utility.yul\":9567:10414   */\n      pop\n      pop\n      pop\n      pop\n      pop\n        /* \"#utility.yul\":9423:10414   */\n      swap3\n      swap2\n      pop\n      pop\n      jump\t// out\n        /* \"#utility.yul\":10420:11134   */\n    tag_28:\n        /* \"#utility.yul\":10681:10685   */\n      0x00\n        /* \"#utility.yul\":10719:10721   */\n      0x40\n        /* \"#utility.yul\":10708:10717   */\n      dup3\n        /* \"#utility.yul\":10704:10722   */\n      add\n        /* \"#utility.yul\":10696:10722   */\n      swap1\n      pop\n        /* \"#utility.yul\":10768:10777   */\n      dup2\n        /* \"#utility.yul\":10762:10766   */\n      dup2\n        /* \"#utility.yul\":10758:10778   */\n      sub\n        /* \"#utility.yul\":10754:10755   */\n      0x00\n        /* \"#utility.yul\":10743:10752   */\n      dup4\n        /* \"#utility.yul\":10739:10756   */\n      add\n        /* \"#utility.yul\":10732:10779   */\n      mstore\n        /* \"#utility.yul\":10796:10924   */\n      tag_418\n        /* \"#utility.yul\":10919:10923   */\n      dup2\n        /* \"#utility.yul\":10910:10916   */\n      dup6\n        /* \"#utility.yul\":10796:10924   */\n      tag_266\n      jump\t// in\n    tag_418:\n        /* \"#utility.yul\":10788:10924   */\n      swap1\n      pop\n        /* \"#utility.yul\":10971:10980   */\n      dup2\n        /* \"#utility.yul\":10965:10969   */\n      dup2\n        /* \"#utility.yul\":10961:10981   */\n      sub\n        /* \"#utility.yul\":10956:10958   */\n      0x20\n        /* \"#utility.yul\":10945:10954   */\n      dup4\n        /* \"#utility.yul\":10941:10959   */\n      add\n        /* \"#utility.yul\":10934:10982   */\n      mstore\n        /* \"#utility.yul\":10999:11127   */\n      tag_419\n        /* \"#utility.yul\":11122:11126   */\n      dup2\n        /* \"#utility.yul\":11113:11119   */\n      dup5\n        /* \"#utility.yul\":10999:11127   */\n      tag_266\n      jump\t// in\n    tag_419:\n        /* \"#utility.yul\":10991:11127   */\n      swap1\n      pop\n        /* \"#utility.yul\":10420:11134   */\n      swap4\n      swap3\n      pop\n      pop\n      pop\n      jump\t// out\n        /* \"#utility.yul\":11140:11282   */\n    tag_267:\n        /* \"#utility.yul\":11235:11241   */\n      0x00\n        /* \"#utility.yul\":11269:11274   */\n      dup2\n        /* \"#utility.yul\":11263:11275   */\n      mload\n        /* \"#utility.yul\":11253:11275   */\n      swap1\n      pop\n        /* \"#utility.yul\":11140:11282   */\n      swap2\n      swap1\n      pop\n      jump\t// out\n        /* \"#utility.yul\":11288:11500   */\n    tag_268:\n        /* \"#utility.yul\":11415:11426   */\n      0x00\n        /* \"#utility.yul\":11449:11455   */\n      dup3\n        /* \"#utility.yul\":11444:11447   */\n      dup3\n        /* \"#utility.yul\":11437:11456   */\n      mstore\n        /* \"#utility.yul\":11489:11493   */\n      0x20\n        /* \"#utility.yul\":11484:11487   */\n      dup3\n        /* \"#utility.yul\":11480:11494   */\n      add\n        /* \"#utility.yul\":11465:11494   */\n      swap1\n      pop\n        /* \"#utility.yul\":11288:11500   */\n      swap3\n      swap2\n      pop\n      pop\n      jump\t// out\n        /* \"#utility.yul\":11506:11666   */\n    tag_269:\n        /* \"#utility.yul\":11601:11605   */\n      0x00\n        /* \"#utility.yul\":11624:11627   */\n      dup2\n        /* \"#utility.yul\":11616:11627   */\n      swap1\n      pop\n        /* \"#utility.yul\":11654:11658   */\n      0x20\n        /* \"#utility.yul\":11649:11652   */\n      dup3\n        /* \"#utility.yul\":11645:11659   */\n      add\n        /* \"#utility.yul\":11637:11659   */\n      swap1\n      pop\n        /* \"#utility.yul\":11506:11666   */\n      swap2\n      swap1\n      pop\n      jump\t// out\n        /* \"#utility.yul\":11672:11780   */\n    tag_270:\n        /* \"#utility.yul\":11749:11773   */\n      tag_424\n        /* \"#utility.yul\":11767:11772   */\n      dup2\n        /* \"#utility.yul\":11749:11773   */\n      tag_251\n      jump\t// in\n    tag_424:\n        /* \"#utility.yul\":11744:11747   */\n      dup3\n        /* \"#utility.yul\":11737:11774   */\n      mstore\n        /* \"#utility.yul\":11672:11780   */\n      pop\n      pop\n      jump\t// out\n        /* \"#utility.yul\":11786:11885   */\n    tag_271:\n        /* \"#utility.yul\":11857:11878   */\n      tag_426\n        /* \"#utility.yul\":11872:11877   */\n      dup2\n        /* \"#utility.yul\":11857:11878   */\n      tag_254\n      jump\t// in\n    tag_426:\n        /* \"#utility.yul\":11852:11855   */\n      dup3\n        /* \"#utility.yul\":11845:11879   */\n      mstore\n        /* \"#utility.yul\":11786:11885   */\n      pop\n      pop\n      jump\t// out\n        /* \"#utility.yul\":11971:13498   */\n    tag_272:\n        /* \"#utility.yul\":12086:12089   */\n      0x00\n        /* \"#utility.yul\":12122:12126   */\n      0xc0\n        /* \"#utility.yul\":12117:12120   */\n      dup4\n        /* \"#utility.yul\":12113:12127   */\n      add\n        /* \"#utility.yul\":12209:12213   */\n      0x00\n        /* \"#utility.yul\":12202:12207   */\n      dup4\n        /* \"#utility.yul\":12198:12214   */\n      add\n        /* \"#utility.yul\":12192:12215   */\n      mload\n        /* \"#utility.yul\":12262:12265   */\n      dup5\n        /* \"#utility.yul\":12256:12260   */\n      dup3\n        /* \"#utility.yul\":12252:12266   */\n      sub\n        /* \"#utility.yul\":12245:12249   */\n      0x00\n        /* \"#utility.yul\":12240:12243   */\n      dup7\n        /* \"#utility.yul\":12236:12250   */\n      add\n        /* \"#utility.yul\":12229:12267   */\n      mstore\n        /* \"#utility.yul\":12288:12361   */\n      tag_428\n        /* \"#utility.yul\":12356:12360   */\n      dup3\n        /* \"#utility.yul\":12342:12354   */\n      dup3\n        /* \"#utility.yul\":12288:12361   */\n      tag_263\n      jump\t// in\n    tag_428:\n        /* \"#utility.yul\":12280:12361   */\n      swap2\n      pop\n        /* \"#utility.yul\":12137:12372   */\n      pop\n        /* \"#utility.yul\":12460:12464   */\n      0x20\n        /* \"#utility.yul\":12453:12458   */\n      dup4\n        /* \"#utility.yul\":12449:12465   */\n      add\n        /* \"#utility.yul\":12443:12466   */\n      mload\n        /* \"#utility.yul\":12513:12516   */\n      dup5\n        /* \"#utility.yul\":12507:12511   */\n      dup3\n        /* \"#utility.yul\":12503:12517   */\n      sub\n        /* \"#utility.yul\":12496:12500   */\n      0x20\n        /* \"#utility.yul\":12491:12494   */\n      dup7\n        /* \"#utility.yul\":12487:12501   */\n      add\n        /* \"#utility.yul\":12480:12518   */\n      mstore\n        /* \"#utility.yul\":12539:12612   */\n      tag_429\n        /* \"#utility.yul\":12607:12611   */\n      dup3\n        /* \"#utility.yul\":12593:12605   */\n      dup3\n        /* \"#utility.yul\":12539:12612   */\n      tag_263\n      jump\t// in\n    tag_429:\n        /* \"#utility.yul\":12531:12612   */\n      swap2\n      pop\n        /* \"#utility.yul\":12382:12623   */\n      pop\n        /* \"#utility.yul\":12709:12713   */\n      0x40\n        /* \"#utility.yul\":12702:12707   */\n      dup4\n        /* \"#utility.yul\":12698:12714   */\n      add\n        /* \"#utility.yul\":12692:12715   */\n      mload\n        /* \"#utility.yul\":12728:12791   */\n      tag_430\n        /* \"#utility.yul\":12785:12789   */\n      0x40\n        /* \"#utility.yul\":12780:12783   */\n      dup7\n        /* \"#utility.yul\":12776:12790   */\n      add\n        /* \"#utility.yul\":12762:12774   */\n      dup3\n        /* \"#utility.yul\":12728:12791   */\n      tag_270\n      jump\t// in\n    tag_430:\n        /* \"#utility.yul\":12633:12801   */\n      pop\n        /* \"#utility.yul\":12883:12887   */\n      0x60\n        /* \"#utility.yul\":12876:12881   */\n      dup4\n        /* \"#utility.yul\":12872:12888   */\n      add\n        /* \"#utility.yul\":12866:12889   */\n      mload\n        /* \"#utility.yul\":12936:12939   */\n      dup5\n        /* \"#utility.yul\":12930:12934   */\n      dup3\n        /* \"#utility.yul\":12926:12940   */\n      sub\n        /* \"#utility.yul\":12919:12923   */\n      0x60\n        /* \"#utility.yul\":12914:12917   */\n      dup7\n        /* \"#utility.yul\":12910:12924   */\n      add\n        /* \"#utility.yul\":12903:12941   */\n      mstore\n        /* \"#utility.yul\":12962:13035   */\n      tag_431\n        /* \"#utility.yul\":13030:13034   */\n      dup3\n        /* \"#utility.yul\":13016:13028   */\n      dup3\n        /* \"#utility.yul\":12962:13035   */\n      tag_263\n      jump\t// in\n    tag_431:\n        /* \"#utility.yul\":12954:13035   */\n      swap2\n      pop\n        /* \"#utility.yul\":12811:13046   */\n      pop\n        /* \"#utility.yul\":13135:13139   */\n      0x80\n        /* \"#utility.yul\":13128:13133   */\n      dup4\n        /* \"#utility.yul\":13124:13140   */\n      add\n        /* \"#utility.yul\":13118:13141   */\n      mload\n        /* \"#utility.yul\":13188:13191   */\n      dup5\n        /* \"#utility.yul\":13182:13186   */\n      dup3\n        /* \"#utility.yul\":13178:13192   */\n      sub\n        /* \"#utility.yul\":13171:13175   */\n      0x80\n        /* \"#utility.yul\":13166:13169   */\n      dup7\n        /* \"#utility.yul\":13162:13176   */\n      add\n        /* \"#utility.yul\":13155:13193   */\n      mstore\n        /* \"#utility.yul\":13214:13287   */\n      tag_432\n        /* \"#utility.yul\":13282:13286   */\n      dup3\n        /* \"#utility.yul\":13268:13280   */\n      dup3\n        /* \"#utility.yul\":13214:13287   */\n      tag_263\n      jump\t// in\n    tag_432:\n        /* \"#utility.yul\":13206:13287   */\n      swap2\n      pop\n        /* \"#utility.yul\":13056:13298   */\n      pop\n        /* \"#utility.yul\":13385:13389   */\n      0xa0\n        /* \"#utility.yul\":13378:13383   */\n      dup4\n        /* \"#utility.yul\":13374:13390   */\n      add\n        /* \"#utility.yul\":13368:13391   */\n      mload\n        /* \"#utility.yul\":13404:13461   */\n      tag_433\n        /* \"#utility.yul\":13455:13459   */\n      0xa0\n        /* \"#utility.yul\":13450:13453   */\n      dup7\n        /* \"#utility.yul\":13446:13460   */\n      add\n        /* \"#utility.yul\":13432:13444   */\n      dup3\n        /* \"#utility.yul\":13404:13461   */\n      tag_271\n      jump\t// in\n    tag_433:\n        /* \"#utility.yul\":13308:13471   */\n      pop\n        /* \"#utility.yul\":13488:13492   */\n      dup1\n        /* \"#utility.yul\":13481:13492   */\n      swap2\n      pop\n        /* \"#utility.yul\":12091:13498   */\n      pop\n        /* \"#utility.yul\":11971:13498   */\n      swap3\n      swap2\n      pop\n      pop\n      jump\t// out\n        /* \"#utility.yul\":13504:13772   */\n    tag_273:\n        /* \"#utility.yul\":13629:13639   */\n      0x00\n        /* \"#utility.yul\":13664:13766   */\n      tag_435\n        /* \"#utility.yul\":13762:13765   */\n      dup4\n        /* \"#utility.yul\":13754:13760   */\n      dup4\n        /* \"#utility.yul\":13664:13766   */\n      tag_272\n      jump\t// in\n    tag_435:\n        /* \"#utility.yul\":13650:13766   */\n      swap1\n      pop\n        /* \"#utility.yul\":13504:13772   */\n      swap3\n      swap2\n      pop\n      pop\n      jump\t// out\n        /* \"#utility.yul\":13778:13919   */\n    tag_274:\n        /* \"#utility.yul\":13876:13880   */\n      0x00\n        /* \"#utility.yul\":13908:13912   */\n      0x20\n        /* \"#utility.yul\":13903:13906   */\n      dup3\n        /* \"#utility.yul\":13899:13913   */\n      add\n        /* \"#utility.yul\":13891:13913   */\n      swap1\n      pop\n        /* \"#utility.yul\":13778:13919   */\n      swap2\n      swap1\n      pop\n      jump\t// out\n        /* \"#utility.yul\":14009:15144   */\n    tag_275:\n        /* \"#utility.yul\":14184:14187   */\n      0x00\n        /* \"#utility.yul\":14213:14295   */\n      tag_438\n        /* \"#utility.yul\":14289:14294   */\n      dup3\n        /* \"#utility.yul\":14213:14295   */\n      tag_267\n      jump\t// in\n    tag_438:\n        /* \"#utility.yul\":14311:14425   */\n      tag_439\n        /* \"#utility.yul\":14418:14424   */\n      dup2\n        /* \"#utility.yul\":14413:14416   */\n      dup6\n        /* \"#utility.yul\":14311:14425   */\n      tag_268\n      jump\t// in\n    tag_439:\n        /* \"#utility.yul\":14304:14425   */\n      swap4\n      pop\n        /* \"#utility.yul\":14451:14454   */\n      dup4\n        /* \"#utility.yul\":14496:14500   */\n      0x20\n        /* \"#utility.yul\":14488:14494   */\n      dup3\n        /* \"#utility.yul\":14484:14501   */\n      mul\n        /* \"#utility.yul\":14479:14482   */\n      dup6\n        /* \"#utility.yul\":14475:14502   */\n      add\n        /* \"#utility.yul\":14526:14610   */\n      tag_440\n        /* \"#utility.yul\":14604:14609   */\n      dup6\n        /* \"#utility.yul\":14526:14610   */\n      tag_269\n      jump\t// in\n    tag_440:\n        /* \"#utility.yul\":14633:14640   */\n      dup1\n        /* \"#utility.yul\":14664:14665   */\n      0x00\n        /* \"#utility.yul\":14649:15099   */\n    tag_441:\n        /* \"#utility.yul\":14674:14680   */\n      dup6\n        /* \"#utility.yul\":14671:14672   */\n      dup2\n        /* \"#utility.yul\":14668:14681   */\n      lt\n        /* \"#utility.yul\":14649:15099   */\n      iszero\n      tag_443\n      jumpi\n        /* \"#utility.yul\":14745:14754   */\n      dup5\n        /* \"#utility.yul\":14739:14743   */\n      dup5\n        /* \"#utility.yul\":14735:14755   */\n      sub\n        /* \"#utility.yul\":14730:14733   */\n      dup10\n        /* \"#utility.yul\":14723:14756   */\n      mstore\n        /* \"#utility.yul\":14796:14802   */\n      dup2\n        /* \"#utility.yul\":14790:14803   */\n      mload\n        /* \"#utility.yul\":14824:14944   */\n      tag_444\n        /* \"#utility.yul\":14939:14943   */\n      dup6\n        /* \"#utility.yul\":14924:14937   */\n      dup3\n        /* \"#utility.yul\":14824:14944   */\n      tag_273\n      jump\t// in\n    tag_444:\n        /* \"#utility.yul\":14816:14944   */\n      swap5\n      pop\n        /* \"#utility.yul\":14967:15055   */\n      tag_445\n        /* \"#utility.yul\":15048:15054   */\n      dup4\n        /* \"#utility.yul\":14967:15055   */\n      tag_274\n      jump\t// in\n    tag_445:\n        /* \"#utility.yul\":14957:15055   */\n      swap3\n      pop\n        /* \"#utility.yul\":15084:15088   */\n      0x20\n        /* \"#utility.yul\":15079:15082   */\n      dup11\n        /* \"#utility.yul\":15075:15089   */\n      add\n        /* \"#utility.yul\":15068:15089   */\n      swap10\n      pop\n        /* \"#utility.yul\":14709:15099   */\n      pop\n        /* \"#utility.yul\":14696:14697   */\n      0x01\n        /* \"#utility.yul\":14693:14694   */\n      dup2\n        /* \"#utility.yul\":14689:14698   */\n      add\n        /* \"#utility.yul\":14684:14698   */\n      swap1\n      pop\n        /* \"#utility.yul\":14649:15099   */\n      jump(tag_441)\n    tag_443:\n        /* \"#utility.yul\":14653:14667   */\n      pop\n        /* \"#utility.yul\":15115:15119   */\n      dup3\n        /* \"#utility.yul\":15108:15119   */\n      swap8\n      pop\n        /* \"#utility.yul\":15135:15138   */\n      dup8\n        /* \"#utility.yul\":15128:15138   */\n      swap6\n      pop\n        /* \"#utility.yul\":14189:15144   */\n      pop\n      pop\n      pop\n      pop\n      pop\n        /* \"#utility.yul\":14009:15144   */\n      swap3\n      swap2\n      pop\n      pop\n      jump\t// out\n        /* \"#utility.yul\":15150:15635   */\n    tag_33:\n        /* \"#utility.yul\":15349:15353   */\n      0x00\n        /* \"#utility.yul\":15387:15389   */\n      0x20\n        /* \"#utility.yul\":15376:15385   */\n      dup3\n        /* \"#utility.yul\":15372:15390   */\n      add\n        /* \"#utility.yul\":15364:15390   */\n      swap1\n      pop\n        /* \"#utility.yul\":15436:15445   */\n      dup2\n        /* \"#utility.yul\":15430:15434   */\n      dup2\n        /* \"#utility.yul\":15426:15446   */\n      sub\n        /* \"#utility.yul\":15422:15423   */\n      0x00\n        /* \"#utility.yul\":15411:15420   */\n      dup4\n        /* \"#utility.yul\":15407:15424   */\n      add\n        /* \"#utility.yul\":15400:15447   */\n      mstore\n        /* \"#utility.yul\":15464:15628   */\n      tag_447\n        /* \"#utility.yul\":15623:15627   */\n      dup2\n        /* \"#utility.yul\":15614:15620   */\n      dup5\n        /* \"#utility.yul\":15464:15628   */\n      tag_275\n      jump\t// in\n    tag_447:\n        /* \"#utility.yul\":15456:15628   */\n      swap1\n      pop\n        /* \"#utility.yul\":15150:15635   */\n      swap3\n      swap2\n      pop\n      pop\n      jump\t// out\n        /* \"#utility.yul\":15641:17272   */\n    tag_36:\n        /* \"#utility.yul\":15776:15782   */\n      0x00\n        /* \"#utility.yul\":15784:15790   */\n      dup1\n        /* \"#utility.yul\":15792:15798   */\n      0x00\n        /* \"#utility.yul\":15800:15806   */\n      dup1\n        /* \"#utility.yul\":15808:15814   */\n      0x00\n        /* \"#utility.yul\":15857:15860   */\n      0xa0\n        /* \"#utility.yul\":15845:15854   */\n      dup7\n        /* \"#utility.yul\":15836:15843   */\n      dup9\n        /* \"#utility.yul\":15832:15855   */\n      sub\n        /* \"#utility.yul\":15828:15861   */\n      slt\n        /* \"#utility.yul\":15825:15945   */\n      iszero\n      tag_449\n      jumpi\n        /* \"#utility.yul\":15864:15943   */\n      tag_450\n      tag_240\n      jump\t// in\n    tag_450:\n        /* \"#utility.yul\":15825:15945   */\n    tag_449:\n        /* \"#utility.yul\":16012:16013   */\n      0x00\n        /* \"#utility.yul\":16001:16010   */\n      dup7\n        /* \"#utility.yul\":15997:16014   */\n      add\n        /* \"#utility.yul\":15984:16015   */\n      calldataload\n        /* \"#utility.yul\":16042:16060   */\n      0xffffffffffffffff\n        /* \"#utility.yul\":16034:16040   */\n      dup2\n        /* \"#utility.yul\":16031:16061   */\n      gt\n        /* \"#utility.yul\":16028:16145   */\n      iszero\n      tag_451\n      jumpi\n        /* \"#utility.yul\":16064:16143   */\n      tag_452\n      tag_241\n      jump\t// in\n    tag_452:\n        /* \"#utility.yul\":16028:16145   */\n    tag_451:\n        /* \"#utility.yul\":16169:16232   */\n      tag_453\n        /* \"#utility.yul\":16224:16231   */\n      dup9\n        /* \"#utility.yul\":16215:16221   */\n      dup3\n        /* \"#utility.yul\":16204:16213   */\n      dup10\n        /* \"#utility.yul\":16200:16222   */\n      add\n        /* \"#utility.yul\":16169:16232   */\n      tag_250\n      jump\t// in\n    tag_453:\n        /* \"#utility.yul\":16159:16232   */\n      swap6\n      pop\n        /* \"#utility.yul\":15955:16242   */\n      pop\n        /* \"#utility.yul\":16309:16311   */\n      0x20\n        /* \"#utility.yul\":16298:16307   */\n      dup7\n        /* \"#utility.yul\":16294:16312   */\n      add\n        /* \"#utility.yul\":16281:16313   */\n      calldataload\n        /* \"#utility.yul\":16340:16358   */\n      0xffffffffffffffff\n        /* \"#utility.yul\":16332:16338   */\n      dup2\n        /* \"#utility.yul\":16329:16359   */\n      gt\n        /* \"#utility.yul\":16326:16443   */\n      iszero\n      tag_454\n      jumpi\n        /* \"#utility.yul\":16362:16441   */\n      tag_455\n      tag_241\n      jump\t// in\n    tag_455:\n        /* \"#utility.yul\":16326:16443   */\n    tag_454:\n        /* \"#utility.yul\":16467:16530   */\n      tag_456\n        /* \"#utility.yul\":16522:16529   */\n      dup9\n        /* \"#utility.yul\":16513:16519   */\n      dup3\n        /* \"#utility.yul\":16502:16511   */\n      dup10\n        /* \"#utility.yul\":16498:16520   */\n      add\n        /* \"#utility.yul\":16467:16530   */\n      tag_250\n      jump\t// in\n    tag_456:\n        /* \"#utility.yul\":16457:16530   */\n      swap5\n      pop\n        /* \"#utility.yul\":16252:16540   */\n      pop\n        /* \"#utility.yul\":16579:16581   */\n      0x40\n        /* \"#utility.yul\":16605:16658   */\n      tag_457\n        /* \"#utility.yul\":16650:16657   */\n      dup9\n        /* \"#utility.yul\":16641:16647   */\n      dup3\n        /* \"#utility.yul\":16630:16639   */\n      dup10\n        /* \"#utility.yul\":16626:16648   */\n      add\n        /* \"#utility.yul\":16605:16658   */\n      tag_253\n      jump\t// in\n    tag_457:\n        /* \"#utility.yul\":16595:16658   */\n      swap4\n      pop\n        /* \"#utility.yul\":16550:16668   */\n      pop\n        /* \"#utility.yul\":16735:16737   */\n      0x60\n        /* \"#utility.yul\":16724:16733   */\n      dup7\n        /* \"#utility.yul\":16720:16738   */\n      add\n        /* \"#utility.yul\":16707:16739   */\n      calldataload\n        /* \"#utility.yul\":16766:16784   */\n      0xffffffffffffffff\n        /* \"#utility.yul\":16758:16764   */\n      dup2\n        /* \"#utility.yul\":16755:16785   */\n      gt\n        /* \"#utility.yul\":16752:16869   */\n      iszero\n      tag_458\n      jumpi\n        /* \"#utility.yul\":16788:16867   */\n      tag_459\n      tag_241\n      jump\t// in\n    tag_459:\n        /* \"#utility.yul\":16752:16869   */\n    tag_458:\n        /* \"#utility.yul\":16893:16956   */\n      tag_460\n        /* \"#utility.yul\":16948:16955   */\n      dup9\n        /* \"#utility.yul\":16939:16945   */\n      dup3\n        /* \"#utility.yul\":16928:16937   */\n      dup10\n        /* \"#utility.yul\":16924:16946   */\n      add\n        /* \"#utility.yul\":16893:16956   */\n      tag_250\n      jump\t// in\n    tag_460:\n        /* \"#utility.yul\":16883:16956   */\n      swap3\n      pop\n        /* \"#utility.yul\":16678:16966   */\n      pop\n        /* \"#utility.yul\":17033:17036   */\n      0x80\n        /* \"#utility.yul\":17022:17031   */\n      dup7\n        /* \"#utility.yul\":17018:17037   */\n      add\n        /* \"#utility.yul\":17005:17038   */\n      calldataload\n        /* \"#utility.yul\":17065:17083   */\n      0xffffffffffffffff\n        /* \"#utility.yul\":17057:17063   */\n      dup2\n        /* \"#utility.yul\":17054:17084   */\n      gt\n        /* \"#utility.yul\":17051:17168   */\n      iszero\n      tag_461\n      jumpi\n        /* \"#utility.yul\":17087:17166   */\n      tag_462\n      tag_241\n      jump\t// in\n    tag_462:\n        /* \"#utility.yul\":17051:17168   */\n    tag_461:\n        /* \"#utility.yul\":17192:17255   */\n      tag_463\n        /* \"#utility.yul\":17247:17254   */\n      dup9\n        /* \"#utility.yul\":17238:17244   */\n      dup3\n        /* \"#utility.yul\":17227:17236   */\n      dup10\n        /* \"#utility.yul\":17223:17245   */\n      add\n        /* \"#utility.yul\":17192:17255   */\n      tag_250\n      jump\t// in\n    tag_463:\n        /* \"#utility.yul\":17182:17255   */\n      swap2\n      pop\n        /* \"#utility.yul\":16976:17265   */\n      pop\n        /* \"#utility.yul\":15641:17272   */\n      swap3\n      swap6\n      pop\n      swap3\n      swap6\n      swap1\n      swap4\n      pop\n      jump\t// out\n        /* \"#utility.yul\":17278:18437   */\n    tag_40:\n        /* \"#utility.yul\":17385:17391   */\n      0x00\n        /* \"#utility.yul\":17393:17399   */\n      dup1\n        /* \"#utility.yul\":17401:17407   */\n      0x00\n        /* \"#utility.yul\":17450:17452   */\n      0x60\n        /* \"#utility.yul\":17438:17447   */\n      dup5\n        /* \"#utility.yul\":17429:17436   */\n      dup7\n        /* \"#utility.yul\":17425:17448   */\n      sub\n        /* \"#utility.yul\":17421:17453   */\n      slt\n        /* \"#utility.yul\":17418:17537   */\n      iszero\n      tag_465\n      jumpi\n        /* \"#utility.yul\":17456:17535   */\n      tag_466\n      tag_240\n      jump\t// in\n    tag_466:\n        /* \"#utility.yul\":17418:17537   */\n    tag_465:\n        /* \"#utility.yul\":17604:17605   */\n      0x00\n        /* \"#utility.yul\":17593:17602   */\n      dup5\n        /* \"#utility.yul\":17589:17606   */\n      add\n        /* \"#utility.yul\":17576:17607   */\n      calldataload\n        /* \"#utility.yul\":17634:17652   */\n      0xffffffffffffffff\n        /* \"#utility.yul\":17626:17632   */\n      dup2\n        /* \"#utility.yul\":17623:17653   */\n      gt\n        /* \"#utility.yul\":17620:17737   */\n      iszero\n      tag_467\n      jumpi\n        /* \"#utility.yul\":17656:17735   */\n      tag_468\n      tag_241\n      jump\t// in\n    tag_468:\n        /* \"#utility.yul\":17620:17737   */\n    tag_467:\n        /* \"#utility.yul\":17761:17824   */\n      tag_469\n        /* \"#utility.yul\":17816:17823   */\n      dup7\n        /* \"#utility.yul\":17807:17813   */\n      dup3\n        /* \"#utility.yul\":17796:17805   */\n      dup8\n        /* \"#utility.yul\":17792:17814   */\n      add\n        /* \"#utility.yul\":17761:17824   */\n      tag_250\n      jump\t// in\n    tag_469:\n        /* \"#utility.yul\":17751:17824   */\n      swap4\n      pop\n        /* \"#utility.yul\":17547:17834   */\n      pop\n        /* \"#utility.yul\":17901:17903   */\n      0x20\n        /* \"#utility.yul\":17890:17899   */\n      dup5\n        /* \"#utility.yul\":17886:17904   */\n      add\n        /* \"#utility.yul\":17873:17905   */\n      calldataload\n        /* \"#utility.yul\":17932:17950   */\n      0xffffffffffffffff\n        /* \"#utility.yul\":17924:17930   */\n      dup2\n        /* \"#utility.yul\":17921:17951   */\n      gt\n        /* \"#utility.yul\":17918:18035   */\n      iszero\n      tag_470\n      jumpi\n        /* \"#utility.yul\":17954:18033   */\n      tag_471\n      tag_241\n      jump\t// in\n    tag_471:\n        /* \"#utility.yul\":17918:18035   */\n    tag_470:\n        /* \"#utility.yul\":18059:18122   */\n      tag_472\n        /* \"#utility.yul\":18114:18121   */\n      dup7\n        /* \"#utility.yul\":18105:18111   */\n      dup3\n        /* \"#utility.yul\":18094:18103   */\n      dup8\n        /* \"#utility.yul\":18090:18112   */\n      add\n        /* \"#utility.yul\":18059:18122   */\n      tag_250\n      jump\t// in\n    tag_472:\n        /* \"#utility.yul\":18049:18122   */\n      swap3\n      pop\n        /* \"#utility.yul\":17844:18132   */\n      pop\n        /* \"#utility.yul\":18199:18201   */\n      0x40\n        /* \"#utility.yul\":18188:18197   */\n      dup5\n        /* \"#utility.yul\":18184:18202   */\n      add\n        /* \"#utility.yul\":18171:18203   */\n      calldataload\n        /* \"#utility.yul\":18230:18248   */\n      0xffffffffffffffff\n        /* \"#utility.yul\":18222:18228   */\n      dup2\n        /* \"#utility.yul\":18219:18249   */\n      gt\n        /* \"#utility.yul\":18216:18333   */\n      iszero\n      tag_473\n      jumpi\n        /* \"#utility.yul\":18252:18331   */\n      tag_474\n      tag_241\n      jump\t// in\n    tag_474:\n        /* \"#utility.yul\":18216:18333   */\n    tag_473:\n        /* \"#utility.yul\":18357:18420   */\n      tag_475\n        /* \"#utility.yul\":18412:18419   */\n      dup7\n        /* \"#utility.yul\":18403:18409   */\n      dup3\n        /* \"#utility.yul\":18392:18401   */\n      dup8\n        /* \"#utility.yul\":18388:18410   */\n      add\n        /* \"#utility.yul\":18357:18420   */\n      tag_250\n      jump\t// in\n    tag_475:\n        /* \"#utility.yul\":18347:18420   */\n      swap2\n      pop\n        /* \"#utility.yul\":18142:18430   */\n      pop\n        /* \"#utility.yul\":17278:18437   */\n      swap3\n      pop\n      swap3\n      pop\n      swap3\n      jump\t// out\n        /* \"#utility.yul\":18443:18612   */\n    tag_276:\n        /* \"#utility.yul\":18527:18538   */\n      0x00\n        /* \"#utility.yul\":18561:18567   */\n      dup3\n        /* \"#utility.yul\":18556:18559   */\n      dup3\n        /* \"#utility.yul\":18549:18568   */\n      mstore\n        /* \"#utility.yul\":18601:18605   */\n      0x20\n        /* \"#utility.yul\":18596:18599   */\n      dup3\n        /* \"#utility.yul\":18592:18606   */\n      add\n        /* \"#utility.yul\":18577:18606   */\n      swap1\n      pop\n        /* \"#utility.yul\":18443:18612   */\n      swap3\n      swap2\n      pop\n      pop\n      jump\t// out\n        /* \"#utility.yul\":18618:18995   */\n    tag_277:\n        /* \"#utility.yul\":18706:18709   */\n      0x00\n        /* \"#utility.yul\":18734:18773   */\n      tag_478\n        /* \"#utility.yul\":18767:18772   */\n      dup3\n        /* \"#utility.yul\":18734:18773   */\n      tag_260\n      jump\t// in\n    tag_478:\n        /* \"#utility.yul\":18789:18860   */\n      tag_479\n        /* \"#utility.yul\":18853:18859   */\n      dup2\n        /* \"#utility.yul\":18848:18851   */\n      dup6\n        /* \"#utility.yul\":18789:18860   */\n      tag_276\n      jump\t// in\n    tag_479:\n        /* \"#utility.yul\":18782:18860   */\n      swap4\n      pop\n        /* \"#utility.yul\":18869:18934   */\n      tag_480\n        /* \"#utility.yul\":18927:18933   */\n      dup2\n        /* \"#utility.yul\":18922:18925   */\n      dup6\n        /* \"#utility.yul\":18915:18919   */\n      0x20\n        /* \"#utility.yul\":18908:18913   */\n      dup7\n        /* \"#utility.yul\":18904:18920   */\n      add\n        /* \"#utility.yul\":18869:18934   */\n      tag_262\n      jump\t// in\n    tag_480:\n        /* \"#utility.yul\":18959:18988   */\n      tag_481\n        /* \"#utility.yul\":18981:18987   */\n      dup2\n        /* \"#utility.yul\":18959:18988   */\n      tag_244\n      jump\t// in\n    tag_481:\n        /* \"#utility.yul\":18954:18957   */\n      dup5\n        /* \"#utility.yul\":18950:18989   */\n      add\n        /* \"#utility.yul\":18943:18989   */\n      swap2\n      pop\n        /* \"#utility.yul\":18710:18995   */\n      pop\n        /* \"#utility.yul\":18618:18995   */\n      swap3\n      swap2\n      pop\n      pop\n      jump\t// out\n        /* \"#utility.yul\":19001:19119   */\n    tag_278:\n        /* \"#utility.yul\":19088:19112   */\n      tag_483\n        /* \"#utility.yul\":19106:19111   */\n      dup2\n        /* \"#utility.yul\":19088:19112   */\n      tag_251\n      jump\t// in\n    tag_483:\n        /* \"#utility.yul\":19083:19086   */\n      dup3\n        /* \"#utility.yul\":19076:19113   */\n      mstore\n        /* \"#utility.yul\":19001:19119   */\n      pop\n      pop\n      jump\t// out\n        /* \"#utility.yul\":19125:20153   */\n    tag_46:\n        /* \"#utility.yul\":19410:19414   */\n      0x00\n        /* \"#utility.yul\":19448:19451   */\n      0xa0\n        /* \"#utility.yul\":19437:19446   */\n      dup3\n        /* \"#utility.yul\":19433:19452   */\n      add\n        /* \"#utility.yul\":19425:19452   */\n      swap1\n      pop\n        /* \"#utility.yul\":19498:19507   */\n      dup2\n        /* \"#utility.yul\":19492:19496   */\n      dup2\n        /* \"#utility.yul\":19488:19508   */\n      sub\n        /* \"#utility.yul\":19484:19485   */\n      0x00\n        /* \"#utility.yul\":19473:19482   */\n      dup4\n        /* \"#utility.yul\":19469:19486   */\n      add\n        /* \"#utility.yul\":19462:19509   */\n      mstore\n        /* \"#utility.yul\":19526:19604   */\n      tag_485\n        /* \"#utility.yul\":19599:19603   */\n      dup2\n        /* \"#utility.yul\":19590:19596   */\n      dup9\n        /* \"#utility.yul\":19526:19604   */\n      tag_277\n      jump\t// in\n    tag_485:\n        /* \"#utility.yul\":19518:19604   */\n      swap1\n      pop\n        /* \"#utility.yul\":19651:19660   */\n      dup2\n        /* \"#utility.yul\":19645:19649   */\n      dup2\n        /* \"#utility.yul\":19641:19661   */\n      sub\n        /* \"#utility.yul\":19636:19638   */\n      0x20\n        /* \"#utility.yul\":19625:19634   */\n      dup4\n        /* \"#utility.yul\":19621:19639   */\n      add\n        /* \"#utility.yul\":19614:19662   */\n      mstore\n        /* \"#utility.yul\":19679:19757   */\n      tag_486\n        /* \"#utility.yul\":19752:19756   */\n      dup2\n        /* \"#utility.yul\":19743:19749   */\n      dup8\n        /* \"#utility.yul\":19679:19757   */\n      tag_277\n      jump\t// in\n    tag_486:\n        /* \"#utility.yul\":19671:19757   */\n      swap1\n      pop\n        /* \"#utility.yul\":19767:19839   */\n      tag_487\n        /* \"#utility.yul\":19835:19837   */\n      0x40\n        /* \"#utility.yul\":19824:19833   */\n      dup4\n        /* \"#utility.yul\":19820:19838   */\n      add\n        /* \"#utility.yul\":19811:19817   */\n      dup7\n        /* \"#utility.yul\":19767:19839   */\n      tag_278\n      jump\t// in\n    tag_487:\n        /* \"#utility.yul\":19886:19895   */\n      dup2\n        /* \"#utility.yul\":19880:19884   */\n      dup2\n        /* \"#utility.yul\":19876:19896   */\n      sub\n        /* \"#utility.yul\":19871:19873   */\n      0x60\n        /* \"#utility.yul\":19860:19869   */\n      dup4\n        /* \"#utility.yul\":19856:19874   */\n      add\n        /* \"#utility.yul\":19849:19897   */\n      mstore\n        /* \"#utility.yul\":19914:19992   */\n      tag_488\n        /* \"#utility.yul\":19987:19991   */\n      dup2\n        /* \"#utility.yul\":19978:19984   */\n      dup6\n        /* \"#utility.yul\":19914:19992   */\n      tag_277\n      jump\t// in\n    tag_488:\n        /* \"#utility.yul\":19906:19992   */\n      swap1\n      pop\n        /* \"#utility.yul\":20040:20049   */\n      dup2\n        /* \"#utility.yul\":20034:20038   */\n      dup2\n        /* \"#utility.yul\":20030:20050   */\n      sub\n        /* \"#utility.yul\":20024:20027   */\n      0x80\n        /* \"#utility.yul\":20013:20022   */\n      dup4\n        /* \"#utility.yul\":20009:20028   */\n      add\n        /* \"#utility.yul\":20002:20051   */\n      mstore\n        /* \"#utility.yul\":20068:20146   */\n      tag_489\n        /* \"#utility.yul\":20141:20145   */\n      dup2\n        /* \"#utility.yul\":20132:20138   */\n      dup5\n        /* \"#utility.yul\":20068:20146   */\n      tag_277\n      jump\t// in\n    tag_489:\n        /* \"#utility.yul\":20060:20146   */\n      swap1\n      pop\n        /* \"#utility.yul\":19125:20153   */\n      swap7\n      swap6\n      pop\n      pop\n      pop\n      pop\n      pop\n      pop\n      jump\t// out\n        /* \"#utility.yul\":20159:21174   */\n    tag_51:\n        /* \"#utility.yul\":20518:20522   */\n      0x00\n        /* \"#utility.yul\":20556:20558   */\n      0x60\n        /* \"#utility.yul\":20545:20554   */\n      dup3\n        /* \"#utility.yul\":20541:20559   */\n      add\n        /* \"#utility.yul\":20533:20559   */\n      swap1\n      pop\n        /* \"#utility.yul\":20605:20614   */\n      dup2\n        /* \"#utility.yul\":20599:20603   */\n      dup2\n        /* \"#utility.yul\":20595:20615   */\n      sub\n        /* \"#utility.yul\":20591:20592   */\n      0x00\n        /* \"#utility.yul\":20580:20589   */\n      dup4\n        /* \"#utility.yul\":20576:20593   */\n      add\n        /* \"#utility.yul\":20569:20616   */\n      mstore\n        /* \"#utility.yul\":20633:20761   */\n      tag_491\n        /* \"#utility.yul\":20756:20760   */\n      dup2\n        /* \"#utility.yul\":20747:20753   */\n      dup7\n        /* \"#utility.yul\":20633:20761   */\n      tag_266\n      jump\t// in\n    tag_491:\n        /* \"#utility.yul\":20625:20761   */\n      swap1\n      pop\n        /* \"#utility.yul\":20808:20817   */\n      dup2\n        /* \"#utility.yul\":20802:20806   */\n      dup2\n        /* \"#utility.yul\":20798:20818   */\n      sub\n        /* \"#utility.yul\":20793:20795   */\n      0x20\n        /* \"#utility.yul\":20782:20791   */\n      dup4\n        /* \"#utility.yul\":20778:20796   */\n      add\n        /* \"#utility.yul\":20771:20819   */\n      mstore\n        /* \"#utility.yul\":20836:20964   */\n      tag_492\n        /* \"#utility.yul\":20959:20963   */\n      dup2\n        /* \"#utility.yul\":20950:20956   */\n      dup6\n        /* \"#utility.yul\":20836:20964   */\n      tag_266\n      jump\t// in\n    tag_492:\n        /* \"#utility.yul\":20828:20964   */\n      swap1\n      pop\n        /* \"#utility.yul\":21011:21020   */\n      dup2\n        /* \"#utility.yul\":21005:21009   */\n      dup2\n        /* \"#utility.yul\":21001:21021   */\n      sub\n        /* \"#utility.yul\":20996:20998   */\n      0x40\n        /* \"#utility.yul\":20985:20994   */\n      dup4\n        /* \"#utility.yul\":20981:20999   */\n      add\n        /* \"#utility.yul\":20974:21022   */\n      mstore\n        /* \"#utility.yul\":21039:21167   */\n      tag_493\n        /* \"#utility.yul\":21162:21166   */\n      dup2\n        /* \"#utility.yul\":21153:21159   */\n      dup5\n        /* \"#utility.yul\":21039:21167   */\n      tag_266\n      jump\t// in\n    tag_493:\n        /* \"#utility.yul\":21031:21167   */\n      swap1\n      pop\n        /* \"#utility.yul\":20159:21174   */\n      swap5\n      swap4\n      pop\n      pop\n      pop\n      pop\n      jump\t// out\n        /* \"#utility.yul\":21180:21501   */\n    tag_279:\n        /* \"#utility.yul\":21267:21271   */\n      0x00\n        /* \"#utility.yul\":21357:21375   */\n      0xffffffffffffffff\n        /* \"#utility.yul\":21349:21355   */\n      dup3\n        /* \"#utility.yul\":21346:21376   */\n      gt\n        /* \"#utility.yul\":21343:21399   */\n      iszero\n      tag_495\n      jumpi\n        /* \"#utility.yul\":21379:21397   */\n      tag_496\n      tag_86\n      jump\t// in\n    tag_496:\n        /* \"#utility.yul\":21343:21399   */\n    tag_495:\n        /* \"#utility.yul\":21429:21433   */\n      0x20\n        /* \"#utility.yul\":21421:21427   */\n      dup3\n        /* \"#utility.yul\":21417:21434   */\n      mul\n        /* \"#utility.yul\":21409:21434   */\n      swap1\n      pop\n        /* \"#utility.yul\":21489:21493   */\n      0x20\n        /* \"#utility.yul\":21483:21487   */\n      dup2\n        /* \"#utility.yul\":21479:21494   */\n      add\n        /* \"#utility.yul\":21471:21494   */\n      swap1\n      pop\n        /* \"#utility.yul\":21180:21501   */\n      swap2\n      swap1\n      pop\n      jump\t// out\n        /* \"#utility.yul\":21507:21624   */\n    tag_280:\n        /* \"#utility.yul\":21616:21617   */\n      0x00\n        /* \"#utility.yul\":21613:21614   */\n      dup1\n        /* \"#utility.yul\":21606:21618   */\n      revert\n        /* \"#utility.yul\":21646:22591   */\n    tag_281:\n        /* \"#utility.yul\":21752:21757   */\n      0x00\n        /* \"#utility.yul\":21777:21868   */\n      tag_499\n        /* \"#utility.yul\":21793:21867   */\n      tag_500\n        /* \"#utility.yul\":21860:21866   */\n      dup5\n        /* \"#utility.yul\":21793:21867   */\n      tag_279\n      jump\t// in\n    tag_500:\n        /* \"#utility.yul\":21777:21868   */\n      tag_246\n      jump\t// in\n    tag_499:\n        /* \"#utility.yul\":21768:21868   */\n      swap1\n      pop\n        /* \"#utility.yul\":21888:21893   */\n      dup1\n        /* \"#utility.yul\":21917:21923   */\n      dup4\n        /* \"#utility.yul\":21910:21915   */\n      dup3\n        /* \"#utility.yul\":21903:21924   */\n      mstore\n        /* \"#utility.yul\":21951:21955   */\n      0x20\n        /* \"#utility.yul\":21944:21949   */\n      dup3\n        /* \"#utility.yul\":21940:21956   */\n      add\n        /* \"#utility.yul\":21933:21956   */\n      swap1\n      pop\n        /* \"#utility.yul\":22004:22008   */\n      0x20\n        /* \"#utility.yul\":21996:22002   */\n      dup5\n        /* \"#utility.yul\":21992:22009   */\n      mul\n        /* \"#utility.yul\":21984:21990   */\n      dup4\n        /* \"#utility.yul\":21980:22010   */\n      add\n        /* \"#utility.yul\":22033:22036   */\n      dup6\n        /* \"#utility.yul\":22025:22031   */\n      dup2\n        /* \"#utility.yul\":22022:22037   */\n      gt\n        /* \"#utility.yul\":22019:22141   */\n      iszero\n      tag_501\n      jumpi\n        /* \"#utility.yul\":22052:22131   */\n      tag_502\n      tag_280\n      jump\t// in\n    tag_502:\n        /* \"#utility.yul\":22019:22141   */\n    tag_501:\n        /* \"#utility.yul\":22167:22173   */\n      dup4\n        /* \"#utility.yul\":22150:22585   */\n    tag_503:\n        /* \"#utility.yul\":22184:22190   */\n      dup2\n        /* \"#utility.yul\":22179:22182   */\n      dup2\n        /* \"#utility.yul\":22176:22191   */\n      lt\n        /* \"#utility.yul\":22150:22585   */\n      iszero\n      tag_505\n      jumpi\n        /* \"#utility.yul\":22273:22276   */\n      dup1\n        /* \"#utility.yul\":22260:22277   */\n      calldataload\n        /* \"#utility.yul\":22309:22327   */\n      0xffffffffffffffff\n        /* \"#utility.yul\":22296:22307   */\n      dup2\n        /* \"#utility.yul\":22293:22328   */\n      gt\n        /* \"#utility.yul\":22290:22412   */\n      iszero\n      tag_506\n      jumpi\n        /* \"#utility.yul\":22331:22410   */\n      tag_507\n      tag_242\n      jump\t// in\n    tag_507:\n        /* \"#utility.yul\":22290:22412   */\n    tag_506:\n        /* \"#utility.yul\":22455:22466   */\n      dup1\n        /* \"#utility.yul\":22447:22453   */\n      dup7\n        /* \"#utility.yul\":22443:22467   */\n      add\n        /* \"#utility.yul\":22493:22540   */\n      tag_508\n        /* \"#utility.yul\":22536:22539   */\n      dup10\n        /* \"#utility.yul\":22524:22534   */\n      dup3\n        /* \"#utility.yul\":22493:22540   */\n      tag_250\n      jump\t// in\n    tag_508:\n        /* \"#utility.yul\":22488:22491   */\n      dup6\n        /* \"#utility.yul\":22481:22541   */\n      mstore\n        /* \"#utility.yul\":22570:22574   */\n      0x20\n        /* \"#utility.yul\":22565:22568   */\n      dup6\n        /* \"#utility.yul\":22561:22575   */\n      add\n        /* \"#utility.yul\":22554:22575   */\n      swap5\n      pop\n        /* \"#utility.yul\":22226:22585   */\n      pop\n      pop\n        /* \"#utility.yul\":22210:22214   */\n      0x20\n        /* \"#utility.yul\":22205:22208   */\n      dup2\n        /* \"#utility.yul\":22201:22215   */\n      add\n        /* \"#utility.yul\":22194:22215   */\n      swap1\n      pop\n        /* \"#utility.yul\":22150:22585   */\n      jump(tag_503)\n    tag_505:\n        /* \"#utility.yul\":22154:22175   */\n      pop\n        /* \"#utility.yul\":21758:22591   */\n      pop\n      pop\n        /* \"#utility.yul\":21646:22591   */\n      swap4\n      swap3\n      pop\n      pop\n      pop\n      jump\t// out\n        /* \"#utility.yul\":22613:23003   */\n    tag_282:\n        /* \"#utility.yul\":22694:22699   */\n      0x00\n        /* \"#utility.yul\":22743:22746   */\n      dup3\n        /* \"#utility.yul\":22736:22740   */\n      0x1f\n        /* \"#utility.yul\":22728:22734   */\n      dup4\n        /* \"#utility.yul\":22724:22741   */\n      add\n        /* \"#utility.yul\":22720:22747   */\n      slt\n        /* \"#utility.yul\":22710:22832   */\n      tag_510\n      jumpi\n        /* \"#utility.yul\":22751:22830   */\n      tag_511\n      tag_242\n      jump\t// in\n    tag_511:\n        /* \"#utility.yul\":22710:22832   */\n    tag_510:\n        /* \"#utility.yul\":22868:22874   */\n      dup2\n        /* \"#utility.yul\":22855:22875   */\n      calldataload\n        /* \"#utility.yul\":22893:22997   */\n      tag_512\n        /* \"#utility.yul\":22993:22996   */\n      dup5\n        /* \"#utility.yul\":22985:22991   */\n      dup3\n        /* \"#utility.yul\":22978:22982   */\n      0x20\n        /* \"#utility.yul\":22970:22976   */\n      dup7\n        /* \"#utility.yul\":22966:22983   */\n      add\n        /* \"#utility.yul\":22893:22997   */\n      tag_281\n      jump\t// in\n    tag_512:\n        /* \"#utility.yul\":22884:22997   */\n      swap2\n      pop\n        /* \"#utility.yul\":22700:23003   */\n      pop\n        /* \"#utility.yul\":22613:23003   */\n      swap3\n      swap2\n      pop\n      pop\n      jump\t// out\n        /* \"#utility.yul\":23009:24644   */\n    tag_54:\n        /* \"#utility.yul\":23210:23216   */\n      0x00\n        /* \"#utility.yul\":23218:23224   */\n      dup1\n        /* \"#utility.yul\":23226:23232   */\n      0x00\n        /* \"#utility.yul\":23234:23240   */\n      dup1\n        /* \"#utility.yul\":23283:23286   */\n      0x80\n        /* \"#utility.yul\":23271:23280   */\n      dup6\n        /* \"#utility.yul\":23262:23269   */\n      dup8\n        /* \"#utility.yul\":23258:23281   */\n      sub\n        /* \"#utility.yul\":23254:23287   */\n      slt\n        /* \"#utility.yul\":23251:23371   */\n      iszero\n      tag_514\n      jumpi\n        /* \"#utility.yul\":23290:23369   */\n      tag_515\n      tag_240\n      jump\t// in\n    tag_515:\n        /* \"#utility.yul\":23251:23371   */\n    tag_514:\n        /* \"#utility.yul\":23438:23439   */\n      0x00\n        /* \"#utility.yul\":23427:23436   */\n      dup6\n        /* \"#utility.yul\":23423:23440   */\n      add\n        /* \"#utility.yul\":23410:23441   */\n      calldataload\n        /* \"#utility.yul\":23468:23486   */\n      0xffffffffffffffff\n        /* \"#utility.yul\":23460:23466   */\n      dup2\n        /* \"#utility.yul\":23457:23487   */\n      gt\n        /* \"#utility.yul\":23454:23571   */\n      iszero\n      tag_516\n      jumpi\n        /* \"#utility.yul\":23490:23569   */\n      tag_517\n      tag_241\n      jump\t// in\n    tag_517:\n        /* \"#utility.yul\":23454:23571   */\n    tag_516:\n        /* \"#utility.yul\":23595:23658   */\n      tag_518\n        /* \"#utility.yul\":23650:23657   */\n      dup8\n        /* \"#utility.yul\":23641:23647   */\n      dup3\n        /* \"#utility.yul\":23630:23639   */\n      dup9\n        /* \"#utility.yul\":23626:23648   */\n      add\n        /* \"#utility.yul\":23595:23658   */\n      tag_250\n      jump\t// in\n    tag_518:\n        /* \"#utility.yul\":23585:23658   */\n      swap5\n      pop\n        /* \"#utility.yul\":23381:23668   */\n      pop\n        /* \"#utility.yul\":23735:23737   */\n      0x20\n        /* \"#utility.yul\":23724:23733   */\n      dup6\n        /* \"#utility.yul\":23720:23738   */\n      add\n        /* \"#utility.yul\":23707:23739   */\n      calldataload\n        /* \"#utility.yul\":23766:23784   */\n      0xffffffffffffffff\n        /* \"#utility.yul\":23758:23764   */\n      dup2\n        /* \"#utility.yul\":23755:23785   */\n      gt\n        /* \"#utility.yul\":23752:23869   */\n      iszero\n      tag_519\n      jumpi\n        /* \"#utility.yul\":23788:23867   */\n      tag_520\n      tag_241\n      jump\t// in\n    tag_520:\n        /* \"#utility.yul\":23752:23869   */\n    tag_519:\n        /* \"#utility.yul\":23893:23981   */\n      tag_521\n        /* \"#utility.yul\":23973:23980   */\n      dup8\n        /* \"#utility.yul\":23964:23970   */\n      dup3\n        /* \"#utility.yul\":23953:23962   */\n      dup9\n        /* \"#utility.yul\":23949:23971   */\n      add\n        /* \"#utility.yul\":23893:23981   */\n      tag_282\n      jump\t// in\n    tag_521:\n        /* \"#utility.yul\":23883:23981   */\n      swap4\n      pop\n        /* \"#utility.yul\":23678:23991   */\n      pop\n        /* \"#utility.yul\":24058:24060   */\n      0x40\n        /* \"#utility.yul\":24047:24056   */\n      dup6\n        /* \"#utility.yul\":24043:24061   */\n      add\n        /* \"#utility.yul\":24030:24062   */\n      calldataload\n        /* \"#utility.yul\":24089:24107   */\n      0xffffffffffffffff\n        /* \"#utility.yul\":24081:24087   */\n      dup2\n        /* \"#utility.yul\":24078:24108   */\n      gt\n        /* \"#utility.yul\":24075:24192   */\n      iszero\n      tag_522\n      jumpi\n        /* \"#utility.yul\":24111:24190   */\n      tag_523\n      tag_241\n      jump\t// in\n    tag_523:\n        /* \"#utility.yul\":24075:24192   */\n    tag_522:\n        /* \"#utility.yul\":24216:24304   */\n      tag_524\n        /* \"#utility.yul\":24296:24303   */\n      dup8\n        /* \"#utility.yul\":24287:24293   */\n      dup3\n        /* \"#utility.yul\":24276:24285   */\n      dup9\n        /* \"#utility.yul\":24272:24294   */\n      add\n        /* \"#utility.yul\":24216:24304   */\n      tag_282\n      jump\t// in\n    tag_524:\n        /* \"#utility.yul\":24206:24304   */\n      swap3\n      pop\n        /* \"#utility.yul\":24001:24314   */\n      pop\n        /* \"#utility.yul\":24381:24383   */\n      0x60\n        /* \"#utility.yul\":24370:24379   */\n      dup6\n        /* \"#utility.yul\":24366:24384   */\n      add\n        /* \"#utility.yul\":24353:24385   */\n      calldataload\n        /* \"#utility.yul\":24412:24430   */\n      0xffffffffffffffff\n        /* \"#utility.yul\":24404:24410   */\n      dup2\n        /* \"#utility.yul\":24401:24431   */\n      gt\n        /* \"#utility.yul\":24398:24515   */\n      iszero\n      tag_525\n      jumpi\n        /* \"#utility.yul\":24434:24513   */\n      tag_526\n      tag_241\n      jump\t// in\n    tag_526:\n        /* \"#utility.yul\":24398:24515   */\n    tag_525:\n        /* \"#utility.yul\":24539:24627   */\n      tag_527\n        /* \"#utility.yul\":24619:24626   */\n      dup8\n        /* \"#utility.yul\":24610:24616   */\n      dup3\n        /* \"#utility.yul\":24599:24608   */\n      dup9\n        /* \"#utility.yul\":24595:24617   */\n      add\n        /* \"#utility.yul\":24539:24627   */\n      tag_282\n      jump\t// in\n    tag_527:\n        /* \"#utility.yul\":24529:24627   */\n      swap2\n      pop\n        /* \"#utility.yul\":24324:24637   */\n      pop\n        /* \"#utility.yul\":23009:24644   */\n      swap3\n      swap6\n      swap2\n      swap5\n      pop\n      swap3\n      pop\n      jump\t// out\n        /* \"#utility.yul\":24650:25304   */\n    tag_58:\n        /* \"#utility.yul\":24728:24734   */\n      0x00\n        /* \"#utility.yul\":24736:24742   */\n      dup1\n        /* \"#utility.yul\":24785:24787   */\n      0x40\n        /* \"#utility.yul\":24773:24782   */\n      dup4\n        /* \"#utility.yul\":24764:24771   */\n      dup6\n        /* \"#utility.yul\":24760:24783   */\n      sub\n        /* \"#utility.yul\":24756:24788   */\n      slt\n        /* \"#utility.yul\":24753:24872   */\n      iszero\n      tag_529\n      jumpi\n        /* \"#utility.yul\":24791:24870   */\n      tag_530\n      tag_240\n      jump\t// in\n    tag_530:\n        /* \"#utility.yul\":24753:24872   */\n    tag_529:\n        /* \"#utility.yul\":24939:24940   */\n      0x00\n        /* \"#utility.yul\":24928:24937   */\n      dup4\n        /* \"#utility.yul\":24924:24941   */\n      add\n        /* \"#utility.yul\":24911:24942   */\n      calldataload\n        /* \"#utility.yul\":24969:24987   */\n      0xffffffffffffffff\n        /* \"#utility.yul\":24961:24967   */\n      dup2\n        /* \"#utility.yul\":24958:24988   */\n      gt\n        /* \"#utility.yul\":24955:25072   */\n      iszero\n      tag_531\n      jumpi\n        /* \"#utility.yul\":24991:25070   */\n      tag_532\n      tag_241\n      jump\t// in\n    tag_532:\n        /* \"#utility.yul\":24955:25072   */\n    tag_531:\n        /* \"#utility.yul\":25096:25159   */\n      tag_533\n        /* \"#utility.yul\":25151:25158   */\n      dup6\n        /* \"#utility.yul\":25142:25148   */\n      dup3\n        /* \"#utility.yul\":25131:25140   */\n      dup7\n        /* \"#utility.yul\":25127:25149   */\n      add\n        /* \"#utility.yul\":25096:25159   */\n      tag_250\n      jump\t// in\n    tag_533:\n        /* \"#utility.yul\":25086:25159   */\n      swap3\n      pop\n        /* \"#utility.yul\":24882:25169   */\n      pop\n        /* \"#utility.yul\":25208:25210   */\n      0x20\n        /* \"#utility.yul\":25234:25287   */\n      tag_534\n        /* \"#utility.yul\":25279:25286   */\n      dup6\n        /* \"#utility.yul\":25270:25276   */\n      dup3\n        /* \"#utility.yul\":25259:25268   */\n      dup7\n        /* \"#utility.yul\":25255:25277   */\n      add\n        /* \"#utility.yul\":25234:25287   */\n      tag_253\n      jump\t// in\n    tag_534:\n        /* \"#utility.yul\":25224:25287   */\n      swap2\n      pop\n        /* \"#utility.yul\":25179:25297   */\n      pop\n        /* \"#utility.yul\":24650:25304   */\n      swap3\n      pop\n      swap3\n      swap1\n      pop\n      jump\t// out\n        /* \"#utility.yul\":25310:25954   */\n    tag_61:\n        /* \"#utility.yul\":25507:25511   */\n      0x00\n        /* \"#utility.yul\":25545:25548   */\n      0x80\n        /* \"#utility.yul\":25534:25543   */\n      dup3\n        /* \"#utility.yul\":25530:25549   */\n      add\n        /* \"#utility.yul\":25522:25549   */\n      swap1\n      pop\n        /* \"#utility.yul\":25595:25604   */\n      dup2\n        /* \"#utility.yul\":25589:25593   */\n      dup2\n        /* \"#utility.yul\":25585:25605   */\n      sub\n        /* \"#utility.yul\":25581:25582   */\n      0x00\n        /* \"#utility.yul\":25570:25579   */\n      dup4\n        /* \"#utility.yul\":25566:25583   */\n      add\n        /* \"#utility.yul\":25559:25606   */\n      mstore\n        /* \"#utility.yul\":25623:25701   */\n      tag_536\n        /* \"#utility.yul\":25696:25700   */\n      dup2\n        /* \"#utility.yul\":25687:25693   */\n      dup8\n        /* \"#utility.yul\":25623:25701   */\n      tag_277\n      jump\t// in\n    tag_536:\n        /* \"#utility.yul\":25615:25701   */\n      swap1\n      pop\n        /* \"#utility.yul\":25711:25783   */\n      tag_537\n        /* \"#utility.yul\":25779:25781   */\n      0x20\n        /* \"#utility.yul\":25768:25777   */\n      dup4\n        /* \"#utility.yul\":25764:25782   */\n      add\n        /* \"#utility.yul\":25755:25761   */\n      dup7\n        /* \"#utility.yul\":25711:25783   */\n      tag_278\n      jump\t// in\n    tag_537:\n        /* \"#utility.yul\":25793:25865   */\n      tag_538\n        /* \"#utility.yul\":25861:25863   */\n      0x40\n        /* \"#utility.yul\":25850:25859   */\n      dup4\n        /* \"#utility.yul\":25846:25864   */\n      add\n        /* \"#utility.yul\":25837:25843   */\n      dup6\n        /* \"#utility.yul\":25793:25865   */\n      tag_278\n      jump\t// in\n    tag_538:\n        /* \"#utility.yul\":25875:25947   */\n      tag_539\n        /* \"#utility.yul\":25943:25945   */\n      0x60\n        /* \"#utility.yul\":25932:25941   */\n      dup4\n        /* \"#utility.yul\":25928:25946   */\n      add\n        /* \"#utility.yul\":25919:25925   */\n      dup5\n        /* \"#utility.yul\":25875:25947   */\n      tag_278\n      jump\t// in\n    tag_539:\n        /* \"#utility.yul\":25310:25954   */\n      swap6\n      swap5\n      pop\n      pop\n      pop\n      pop\n      pop\n      jump\t// out\n        /* \"#utility.yul\":25960:26069   */\n    tag_283:\n        /* \"#utility.yul\":26041:26062   */\n      tag_541\n        /* \"#utility.yul\":26056:26061   */\n      dup2\n        /* \"#utility.yul\":26041:26062   */\n      tag_254\n      jump\t// in\n    tag_541:\n        /* \"#utility.yul\":26036:26039   */\n      dup3\n        /* \"#utility.yul\":26029:26063   */\n      mstore\n        /* \"#utility.yul\":25960:26069   */\n      pop\n      pop\n      jump\t// out\n        /* \"#utility.yul\":26075:26695   */\n    tag_66:\n        /* \"#utility.yul\":26260:26264   */\n      0x00\n        /* \"#utility.yul\":26298:26301   */\n      0x80\n        /* \"#utility.yul\":26287:26296   */\n      dup3\n        /* \"#utility.yul\":26283:26302   */\n      add\n        /* \"#utility.yul\":26275:26302   */\n      swap1\n      pop\n        /* \"#utility.yul\":26348:26357   */\n      dup2\n        /* \"#utility.yul\":26342:26346   */\n      dup2\n        /* \"#utility.yul\":26338:26358   */\n      sub\n        /* \"#utility.yul\":26334:26335   */\n      0x00\n        /* \"#utility.yul\":26323:26332   */\n      dup4\n        /* \"#utility.yul\":26319:26336   */\n      add\n        /* \"#utility.yul\":26312:26359   */\n      mstore\n        /* \"#utility.yul\":26376:26454   */\n      tag_543\n        /* \"#utility.yul\":26449:26453   */\n      dup2\n        /* \"#utility.yul\":26440:26446   */\n      dup8\n        /* \"#utility.yul\":26376:26454   */\n      tag_277\n      jump\t// in\n    tag_543:\n        /* \"#utility.yul\":26368:26454   */\n      swap1\n      pop\n        /* \"#utility.yul\":26464:26530   */\n      tag_544\n        /* \"#utility.yul\":26526:26528   */\n      0x20\n        /* \"#utility.yul\":26515:26524   */\n      dup4\n        /* \"#utility.yul\":26511:26529   */\n      add\n        /* \"#utility.yul\":26502:26508   */\n      dup7\n        /* \"#utility.yul\":26464:26530   */\n      tag_283\n      jump\t// in\n    tag_544:\n        /* \"#utility.yul\":26540:26606   */\n      tag_545\n        /* \"#utility.yul\":26602:26604   */\n      0x40\n        /* \"#utility.yul\":26591:26600   */\n      dup4\n        /* \"#utility.yul\":26587:26605   */\n      add\n        /* \"#utility.yul\":26578:26584   */\n      dup6\n        /* \"#utility.yul\":26540:26606   */\n      tag_283\n      jump\t// in\n    tag_545:\n        /* \"#utility.yul\":26616:26688   */\n      tag_546\n        /* \"#utility.yul\":26684:26686   */\n      0x60\n        /* \"#utility.yul\":26673:26682   */\n      dup4\n        /* \"#utility.yul\":26669:26687   */\n      add\n        /* \"#utility.yul\":26660:26666   */\n      dup5\n        /* \"#utility.yul\":26616:26688   */\n      tag_278\n      jump\t// in\n    tag_546:\n        /* \"#utility.yul\":26075:26695   */\n      swap6\n      swap5\n      pop\n      pop\n      pop\n      pop\n      pop\n      jump\t// out\n        /* \"#utility.yul\":26701:26849   */\n    tag_284:\n        /* \"#utility.yul\":26803:26814   */\n      0x00\n        /* \"#utility.yul\":26840:26843   */\n      dup2\n        /* \"#utility.yul\":26825:26843   */\n      swap1\n      pop\n        /* \"#utility.yul\":26701:26849   */\n      swap3\n      swap2\n      pop\n      pop\n      jump\t// out\n        /* \"#utility.yul\":26855:27245   */\n    tag_285:\n        /* \"#utility.yul\":26961:26964   */\n      0x00\n        /* \"#utility.yul\":26989:27028   */\n      tag_549\n        /* \"#utility.yul\":27022:27027   */\n      dup3\n        /* \"#utility.yul\":26989:27028   */\n      tag_260\n      jump\t// in\n    tag_549:\n        /* \"#utility.yul\":27044:27133   */\n      tag_550\n        /* \"#utility.yul\":27126:27132   */\n      dup2\n        /* \"#utility.yul\":27121:27124   */\n      dup6\n        /* \"#utility.yul\":27044:27133   */\n      tag_284\n      jump\t// in\n    tag_550:\n        /* \"#utility.yul\":27037:27133   */\n      swap4\n      pop\n        /* \"#utility.yul\":27142:27207   */\n      tag_551\n        /* \"#utility.yul\":27200:27206   */\n      dup2\n        /* \"#utility.yul\":27195:27198   */\n      dup6\n        /* \"#utility.yul\":27188:27192   */\n      0x20\n        /* \"#utility.yul\":27181:27186   */\n      dup7\n        /* \"#utility.yul\":27177:27193   */\n      add\n        /* \"#utility.yul\":27142:27207   */\n      tag_262\n      jump\t// in\n    tag_551:\n        /* \"#utility.yul\":27232:27238   */\n      dup1\n        /* \"#utility.yul\":27227:27230   */\n      dup5\n        /* \"#utility.yul\":27223:27239   */\n      add\n        /* \"#utility.yul\":27216:27239   */\n      swap2\n      pop\n        /* \"#utility.yul\":26965:27245   */\n      pop\n        /* \"#utility.yul\":26855:27245   */\n      swap3\n      swap2\n      pop\n      pop\n      jump\t// out\n        /* \"#utility.yul\":27251:27526   */\n    tag_69:\n        /* \"#utility.yul\":27383:27386   */\n      0x00\n        /* \"#utility.yul\":27405:27500   */\n      tag_553\n        /* \"#utility.yul\":27496:27499   */\n      dup3\n        /* \"#utility.yul\":27487:27493   */\n      dup5\n        /* \"#utility.yul\":27405:27500   */\n      tag_285\n      jump\t// in\n    tag_553:\n        /* \"#utility.yul\":27398:27500   */\n      swap2\n      pop\n        /* \"#utility.yul\":27517:27520   */\n      dup2\n        /* \"#utility.yul\":27510:27520   */\n      swap1\n      pop\n        /* \"#utility.yul\":27251:27526   */\n      swap3\n      swap2\n      pop\n      pop\n      jump\t// out\n        /* \"#utility.yul\":27532:27712   */\n    tag_286:\n        /* \"#utility.yul\":27580:27657   */\n      0x4e487b7100000000000000000000000000000000000000000000000000000000\n        /* \"#utility.yul\":27577:27578   */\n      0x00\n        /* \"#utility.yul\":27570:27658   */\n      mstore\n        /* \"#utility.yul\":27677:27681   */\n      0x22\n        /* \"#utility.yul\":27674:27675   */\n      0x04\n        /* \"#utility.yul\":27667:27682   */\n      mstore\n        /* \"#utility.yul\":27701:27705   */\n      0x24\n        /* \"#utility.yul\":27698:27699   */\n      0x00\n        /* \"#utility.yul\":27691:27706   */\n      revert\n        /* \"#utility.yul\":27718:28038   */\n    tag_97:\n        /* \"#utility.yul\":27762:27768   */\n      0x00\n        /* \"#utility.yul\":27799:27800   */\n      0x02\n        /* \"#utility.yul\":27793:27797   */\n      dup3\n        /* \"#utility.yul\":27789:27801   */\n      div\n        /* \"#utility.yul\":27779:27801   */\n      swap1\n      pop\n        /* \"#utility.yul\":27846:27847   */\n      0x01\n        /* \"#utility.yul\":27840:27844   */\n      dup3\n        /* \"#utility.yul\":27836:27848   */\n      and\n        /* \"#utility.yul\":27867:27885   */\n      dup1\n        /* \"#utility.yul\":27857:27938   */\n      tag_556\n      jumpi\n        /* \"#utility.yul\":27923:27927   */\n      0x7f\n        /* \"#utility.yul\":27915:27921   */\n      dup3\n        /* \"#utility.yul\":27911:27928   */\n      and\n        /* \"#utility.yul\":27901:27928   */\n      swap2\n      pop\n        /* \"#utility.yul\":27857:27938   */\n    tag_556:\n        /* \"#utility.yul\":27985:27987   */\n      0x20\n        /* \"#utility.yul\":27977:27983   */\n      dup3\n        /* \"#utility.yul\":27974:27988   */\n      lt\n        /* \"#utility.yul\":27954:27972   */\n      dup2\n        /* \"#utility.yul\":27951:27989   */\n      sub\n        /* \"#utility.yul\":27948:28032   */\n      tag_557\n      jumpi\n        /* \"#utility.yul\":28004:28022   */\n      tag_558\n      tag_286\n      jump\t// in\n    tag_558:\n        /* \"#utility.yul\":27948:28032   */\n    tag_557:\n        /* \"#utility.yul\":27769:28038   */\n      pop\n        /* \"#utility.yul\":27718:28038   */\n      swap2\n      swap1\n      pop\n      jump\t// out\n        /* \"#utility.yul\":28044:28185   */\n    tag_287:\n        /* \"#utility.yul\":28093:28097   */\n      0x00\n        /* \"#utility.yul\":28116:28119   */\n      dup2\n        /* \"#utility.yul\":28108:28119   */\n      swap1\n      pop\n        /* \"#utility.yul\":28139:28142   */\n      dup2\n        /* \"#utility.yul\":28136:28137   */\n      0x00\n        /* \"#utility.yul\":28129:28143   */\n      mstore\n        /* \"#utility.yul\":28173:28177   */\n      0x20\n        /* \"#utility.yul\":28170:28171   */\n      0x00\n        /* \"#utility.yul\":28160:28178   */\n      keccak256\n        /* \"#utility.yul\":28152:28178   */\n      swap1\n      pop\n        /* \"#utility.yul\":28044:28185   */\n      swap2\n      swap1\n      pop\n      jump\t// out\n        /* \"#utility.yul\":28191:28284   */\n    tag_288:\n        /* \"#utility.yul\":28228:28234   */\n      0x00\n        /* \"#utility.yul\":28275:28277   */\n      0x20\n        /* \"#utility.yul\":28270:28272   */\n      0x1f\n        /* \"#utility.yul\":28263:28268   */\n      dup4\n        /* \"#utility.yul\":28259:28273   */\n      add\n        /* \"#utility.yul\":28255:28278   */\n      div\n        /* \"#utility.yul\":28245:28278   */\n      swap1\n      pop\n        /* \"#utility.yul\":28191:28284   */\n      swap2\n      swap1\n      pop\n      jump\t// out\n        /* \"#utility.yul\":28290:28397   */\n    tag_289:\n        /* \"#utility.yul\":28334:28342   */\n      0x00\n        /* \"#utility.yul\":28384:28389   */\n      dup3\n        /* \"#utility.yul\":28378:28382   */\n      dup3\n        /* \"#utility.yul\":28374:28390   */\n      shl\n        /* \"#utility.yul\":28353:28390   */\n      swap1\n      pop\n        /* \"#utility.yul\":28290:28397   */\n      swap3\n      swap2\n      pop\n      pop\n      jump\t// out\n        /* \"#utility.yul\":28403:28796   */\n    tag_290:\n        /* \"#utility.yul\":28472:28478   */\n      0x00\n        /* \"#utility.yul\":28522:28523   */\n      0x08\n        /* \"#utility.yul\":28510:28520   */\n      dup4\n        /* \"#utility.yul\":28506:28524   */\n      mul\n        /* \"#utility.yul\":28545:28642   */\n      tag_563\n        /* \"#utility.yul\":28575:28641   */\n      0xffffffffffffffffffffffffffffffffffffffffffffffffffffffffffffffff\n        /* \"#utility.yul\":28564:28573   */\n      dup3\n        /* \"#utility.yul\":28545:28642   */\n      tag_289\n      jump\t// in\n    tag_563:\n        /* \"#utility.yul\":28663:28702   */\n      tag_564\n        /* \"#utility.yul\":28693:28701   */\n      dup7\n        /* \"#utility.yul\":28682:28691   */\n      dup4\n        /* \"#utility.yul\":28663:28702   */\n      tag_289\n      jump\t// in\n    tag_564:\n        /* \"#utility.yul\":28651:28702   */\n      swap6\n      pop\n        /* \"#utility.yul\":28735:28739   */\n      dup1\n        /* \"#utility.yul\":28731:28740   */\n      not\n        /* \"#utility.yul\":28724:28729   */\n      dup5\n        /* \"#utility.yul\":28720:28741   */\n      and\n        /* \"#utility.yul\":28711:28741   */\n      swap4\n      pop\n        /* \"#utility.yul\":28784:28788   */\n      dup1\n        /* \"#utility.yul\":28774:28782   */\n      dup7\n        /* \"#utility.yul\":28770:28789   */\n      and\n        /* \"#utility.yul\":28763:28768   */\n      dup5\n        /* \"#utility.yul\":28760:28790   */\n      or\n        /* \"#utility.yul\":28750:28790   */\n      swap3\n      pop\n        /* \"#utility.yul\":28479:28796   */\n      pop\n      pop\n        /* \"#utility.yul\":28403:28796   */\n      swap4\n      swap3\n      pop\n      pop\n      pop\n      jump\t// out\n        /* \"#utility.yul\":28802:28862   */\n    tag_291:\n        /* \"#utility.yul\":28830:28833   */\n      0x00\n        /* \"#utility.yul\":28851:28856   */\n      dup2\n        /* \"#utility.yul\":28844:28856   */\n      swap1\n      pop\n        /* \"#utility.yul\":28802:28862   */\n      swap2\n      swap1\n      pop\n      jump\t// out\n        /* \"#utility.yul\":28868:29010   */\n    tag_292:\n        /* \"#utility.yul\":28918:28927   */\n      0x00\n        /* \"#utility.yul\":28951:29004   */\n      tag_567\n        /* \"#utility.yul\":28969:29003   */\n      tag_568\n        /* \"#utility.yul\":28978:29002   */\n      tag_569\n        /* \"#utility.yul\":28996:29001   */\n      dup5\n        /* \"#utility.yul\":28978:29002   */\n      tag_251\n      jump\t// in\n    tag_569:\n        /* \"#utility.yul\":28969:29003   */\n      tag_291\n      jump\t// in\n    tag_568:\n        /* \"#utility.yul\":28951:29004   */\n      tag_251\n      jump\t// in\n    tag_567:\n        /* \"#utility.yul\":28938:29004   */\n      swap1\n      pop\n        /* \"#utility.yul\":28868:29010   */\n      swap2\n      swap1\n      pop\n      jump\t// out\n        /* \"#utility.yul\":29016:29091   */\n    tag_293:\n        /* \"#utility.yul\":29059:29062   */\n      0x00\n        /* \"#utility.yul\":29080:29085   */\n      dup2\n        /* \"#utility.yul\":29073:29085   */\n      swap1\n      pop\n        /* \"#utility.yul\":29016:29091   */\n      swap2\n      swap1\n      pop\n      jump\t// out\n        /* \"#utility.yul\":29097:29366   */\n    tag_294:\n        /* \"#utility.yul\":29207:29246   */\n      tag_572\n        /* \"#utility.yul\":29238:29245   */\n      dup4\n        /* \"#utility.yul\":29207:29246   */\n      tag_292\n      jump\t// in\n    tag_572:\n        /* \"#utility.yul\":29268:29359   */\n      tag_573\n        /* \"#utility.yul\":29317:29358   */\n      tag_574\n        /* \"#utility.yul\":29341:29357   */\n      dup3\n        /* \"#utility.yul\":29317:29358   */\n      tag_293\n      jump\t// in\n    tag_574:\n        /* \"#utility.yul\":29309:29315   */\n      dup5\n        /* \"#utility.yul\":29302:29306   */\n      dup5\n        /* \"#utility.yul\":29296:29307   */\n      sload\n        /* \"#utility.yul\":29268:29359   */\n      tag_290\n      jump\t// in\n    tag_573:\n        /* \"#utility.yul\":29262:29266   */\n      dup3\n        /* \"#utility.yul\":29255:29360   */\n      sstore\n        /* \"#utility.yul\":29173:29366   */\n      pop\n        /* \"#utility.yul\":29097:29366   */\n      pop\n      pop\n      pop\n      jump\t// out\n        /* \"#utility.yul\":29372:29445   */\n    tag_295:\n        /* \"#utility.yul\":29417:29420   */\n      0x00\n        /* \"#utility.yul\":29372:29445   */\n      swap1\n      jump\t// out\n        /* \"#utility.yul\":29451:29640   */\n    tag_296:\n        /* \"#utility.yul\":29528:29560   */\n      tag_577\n      tag_295\n      jump\t// in\n    tag_577:\n        /* \"#utility.yul\":29569:29634   */\n      tag_578\n        /* \"#utility.yul\":29627:29633   */\n      dup2\n        /* \"#utility.yul\":29619:29625   */\n      dup5\n        /* \"#utility.yul\":29613:29617   */\n      dup5\n        /* \"#utility.yul\":29569:29634   */\n      tag_294\n      jump\t// in\n    tag_578:\n        /* \"#utility.yul\":29504:29640   */\n      pop\n        /* \"#utility.yul\":29451:29640   */\n      pop\n      pop\n      jump\t// out\n        /* \"#utility.yul\":29646:29832   */\n    tag_297:\n        /* \"#utility.yul\":29706:29826   */\n    tag_580:\n        /* \"#utility.yul\":29723:29726   */\n      dup2\n        /* \"#utility.yul\":29716:29721   */\n      dup2\n        /* \"#utility.yul\":29713:29727   */\n      lt\n        /* \"#utility.yul\":29706:29826   */\n      iszero\n      tag_582\n      jumpi\n        /* \"#utility.yul\":29777:29816   */\n      tag_583\n        /* \"#utility.yul\":29814:29815   */\n      0x00\n        /* \"#utility.yul\":29807:29812   */\n      dup3\n        /* \"#utility.yul\":29777:29816   */\n      tag_296\n      jump\t// in\n    tag_583:\n        /* \"#utility.yul\":29750:29751   */\n      0x01\n        /* \"#utility.yul\":29743:29748   */\n      dup2\n        /* \"#utility.yul\":29739:29752   */\n      add\n        /* \"#utility.yul\":29730:29752   */\n      swap1\n      pop\n        /* \"#utility.yul\":29706:29826   */\n      jump(tag_580)\n    tag_582:\n        /* \"#utility.yul\":29646:29832   */\n      pop\n      pop\n      jump\t// out\n        /* \"#utility.yul\":29838:30381   */\n    tag_298:\n        /* \"#utility.yul\":29939:29941   */\n      0x1f\n        /* \"#utility.yul\":29934:29937   */\n      dup3\n        /* \"#utility.yul\":29931:29942   */\n      gt\n        /* \"#utility.yul\":29928:30374   */\n      iszero\n      tag_585\n      jumpi\n        /* \"#utility.yul\":29973:30011   */\n      tag_586\n        /* \"#utility.yul\":30005:30010   */\n      dup2\n        /* \"#utility.yul\":29973:30011   */\n      tag_287\n      jump\t// in\n    tag_586:\n        /* \"#utility.yul\":30057:30086   */\n      tag_587\n        /* \"#utility.yul\":30075:30085   */\n      dup5\n        /* \"#utility.yul\":30057:30086   */\n      tag_288\n      jump\t// in\n    tag_587:\n        /* \"#utility.yul\":30047:30055   */\n      dup2\n        /* \"#utility.yul\":30043:30087   */\n      add\n        /* \"#utility.yul\":30240:30242   */\n      0x20\n        /* \"#utility.yul\":30228:30238   */\n      dup6\n        /* \"#utility.yul\":30225:30243   */\n      lt\n        /* \"#utility.yul\":30222:30271   */\n      iszero\n      tag_588\n      jumpi\n        /* \"#utility.yul\":30261:30269   */\n      dup2\n        /* \"#utility.yul\":30246:30269   */\n      swap1\n      pop\n        /* \"#utility.yul\":30222:30271   */\n    tag_588:\n        /* \"#utility.yul\":30284:30364   */\n      tag_589\n        /* \"#utility.yul\":30340:30362   */\n      tag_590\n        /* \"#utility.yul\":30358:30361   */\n      dup6\n        /* \"#utility.yul\":30340:30362   */\n      tag_288\n      jump\t// in\n    tag_590:\n        /* \"#utility.yul\":30330:30338   */\n      dup4\n        /* \"#utility.yul\":30326:30363   */\n      add\n        /* \"#utility.yul\":30313:30324   */\n      dup3\n        /* \"#utility.yul\":30284:30364   */\n      tag_297\n      jump\t// in\n    tag_589:\n        /* \"#utility.yul\":29943:30374   */\n      pop\n      pop\n        /* \"#utility.yul\":29928:30374   */\n    tag_585:\n        /* \"#utility.yul\":29838:30381   */\n      pop\n      pop\n      pop\n      jump\t// out\n        /* \"#utility.yul\":30387:30504   */\n    tag_299:\n        /* \"#utility.yul\":30441:30449   */\n      0x00\n        /* \"#utility.yul\":30491:30496   */\n      dup3\n        /* \"#utility.yul\":30485:30489   */\n      dup3\n        /* \"#utility.yul\":30481:30497   */\n      shr\n        /* \"#utility.yul\":30460:30497   */\n      swap1\n      pop\n        /* \"#utility.yul\":30387:30504   */\n      swap3\n      swap2\n      pop\n      pop\n      jump\t// out\n        /* \"#utility.yul\":30510:30679   */\n    tag_300:\n        /* \"#utility.yul\":30554:30560   */\n      0x00\n        /* \"#utility.yul\":30587:30638   */\n      tag_593\n        /* \"#utility.yul\":30635:30636   */\n      0x00\n        /* \"#utility.yul\":30631:30637   */\n      not\n        /* \"#utility.yul\":30623:30628   */\n      dup5\n        /* \"#utility.yul\":30620:30621   */\n      0x08\n        /* \"#utility.yul\":30616:30629   */\n      mul\n        /* \"#utility.yul\":30587:30638   */\n      tag_299\n      jump\t// in\n    tag_593:\n        /* \"#utility.yul\":30583:30639   */\n      not\n        /* \"#utility.yul\":30668:30672   */\n      dup1\n        /* \"#utility.yul\":30662:30666   */\n      dup4\n        /* \"#utility.yul\":30658:30673   */\n      and\n        /* \"#utility.yul\":30648:30673   */\n      swap2\n      pop\n        /* \"#utility.yul\":30561:30679   */\n      pop\n        /* \"#utility.yul\":30510:30679   */\n      swap3\n      swap2\n      pop\n      pop\n      jump\t// out\n        /* \"#utility.yul\":30684:30979   */\n    tag_301:\n        /* \"#utility.yul\":30760:30764   */\n      0x00\n        /* \"#utility.yul\":30906:30935   */\n      tag_595\n        /* \"#utility.yul\":30931:30934   */\n      dup4\n        /* \"#utility.yul\":30925:30929   */\n      dup4\n        /* \"#utility.yul\":30906:30935   */\n      tag_300\n      jump\t// in\n    tag_595:\n        /* \"#utility.yul\":30898:30935   */\n      swap2\n      pop\n        /* \"#utility.yul\":30968:30971   */\n      dup3\n        /* \"#utility.yul\":30965:30966   */\n      0x02\n        /* \"#utility.yul\":30961:30972   */\n      mul\n        /* \"#utility.yul\":30955:30959   */\n      dup3\n        /* \"#utility.yul\":30952:30973   */\n      or\n        /* \"#utility.yul\":30944:30973   */\n      swap1\n      pop\n        /* \"#utility.yul\":30684:30979   */\n      swap3\n      swap2\n      pop\n      pop\n      jump\t// out\n        /* \"#utility.yul\":30984:32379   */\n    tag_72:\n        /* \"#utility.yul\":31101:31138   */\n      tag_597\n        /* \"#utility.yul\":31134:31137   */\n      dup3\n        /* \"#utility.yul\":31101:31138   */\n      tag_260\n      jump\t// in\n    tag_597:\n        /* \"#utility.yul\":31203:31221   */\n      0xffffffffffffffff\n        /* \"#utility.yul\":31195:31201   */\n      dup2\n        /* \"#utility.yul\":31192:31222   */\n      gt\n        /* \"#utility.yul\":31189:31245   */\n      iszero\n      tag_598\n      jumpi\n        /* \"#utility.yul\":31225:31243   */\n      tag_599\n      tag_86\n      jump\t// in\n    tag_599:\n        /* \"#utility.yul\":31189:31245   */\n    tag_598:\n        /* \"#utility.yul\":31269:31307   */\n      tag_600\n        /* \"#utility.yul\":31301:31305   */\n      dup3\n        /* \"#utility.yul\":31295:31306   */\n      sload\n        /* \"#utility.yul\":31269:31307   */\n      tag_97\n      jump\t// in\n    tag_600:\n        /* \"#utility.yul\":31354:31421   */\n      tag_601\n        /* \"#utility.yul\":31414:31420   */\n      dup3\n        /* \"#utility.yul\":31406:31412   */\n      dup3\n        /* \"#utility.yul\":31400:31404   */\n      dup6\n        /* \"#utility.yul\":31354:31421   */\n      tag_298\n      jump\t// in\n    tag_601:\n        /* \"#utility.yul\":31448:31449   */\n      0x00\n        /* \"#utility.yul\":31472:31476   */\n      0x20\n        /* \"#utility.yul\":31459:31476   */\n      swap1\n      pop\n        /* \"#utility.yul\":31504:31506   */\n      0x1f\n        /* \"#utility.yul\":31496:31502   */\n      dup4\n        /* \"#utility.yul\":31493:31507   */\n      gt\n        /* \"#utility.yul\":31521:31522   */\n      0x01\n        /* \"#utility.yul\":31516:32134   */\n      dup2\n      eq\n      tag_603\n      jumpi\n        /* \"#utility.yul\":32178:32179   */\n      0x00\n        /* \"#utility.yul\":32195:32201   */\n      dup5\n        /* \"#utility.yul\":32192:32269   */\n      iszero\n      tag_604\n      jumpi\n        /* \"#utility.yul\":32244:32253   */\n      dup3\n        /* \"#utility.yul\":32239:32242   */\n      dup8\n        /* \"#utility.yul\":32235:32254   */\n      add\n        /* \"#utility.yul\":32229:32255   */\n      mload\n        /* \"#utility.yul\":32220:32255   */\n      swap1\n      pop\n        /* \"#utility.yul\":32192:32269   */\n    tag_604:\n        /* \"#utility.yul\":32295:32362   */\n      tag_605\n        /* \"#utility.yul\":32355:32361   */\n      dup6\n        /* \"#utility.yul\":32348:32353   */\n      dup3\n        /* \"#utility.yul\":32295:32362   */\n      tag_301\n      jump\t// in\n    tag_605:\n        /* \"#utility.yul\":32289:32293   */\n      dup7\n        /* \"#utility.yul\":32282:32363   */\n      sstore\n        /* \"#utility.yul\":32151:32373   */\n      pop\n        /* \"#utility.yul\":31486:32373   */\n      jump(tag_602)\n        /* \"#utility.yul\":31516:32134   */\n    tag_603:\n        /* \"#utility.yul\":31568:31572   */\n      0x1f\n        /* \"#utility.yul\":31564:31573   */\n      not\n        /* \"#utility.yul\":31556:31562   */\n      dup5\n        /* \"#utility.yul\":31552:31574   */\n      and\n        /* \"#utility.yul\":31602:31639   */\n      tag_606\n        /* \"#utility.yul\":31634:31638   */\n      dup7\n        /* \"#utility.yul\":31602:31639   */\n      tag_287\n      jump\t// in\n    tag_606:\n        /* \"#utility.yul\":31661:31662   */\n      0x00\n        /* \"#utility.yul\":31675:31883   */\n    tag_607:\n        /* \"#utility.yul\":31689:31696   */\n      dup3\n        /* \"#utility.yul\":31686:31687   */\n      dup2\n        /* \"#utility.yul\":31683:31697   */\n      lt\n        /* \"#utility.yul\":31675:31883   */\n      iszero\n      tag_609\n      jumpi\n        /* \"#utility.yul\":31768:31777   */\n      dup5\n        /* \"#utility.yul\":31763:31766   */\n      dup10\n        /* \"#utility.yul\":31759:31778   */\n      add\n        /* \"#utility.yul\":31753:31779   */\n      mload\n        /* \"#utility.yul\":31745:31751   */\n      dup3\n        /* \"#utility.yul\":31738:31780   */\n      sstore\n        /* \"#utility.yul\":31819:31820   */\n      0x01\n        /* \"#utility.yul\":31811:31817   */\n      dup3\n        /* \"#utility.yul\":31807:31821   */\n      add\n        /* \"#utility.yul\":31797:31821   */\n      swap2\n      pop\n        /* \"#utility.yul\":31866:31868   */\n      0x20\n        /* \"#utility.yul\":31855:31864   */\n      dup6\n        /* \"#utility.yul\":31851:31869   */\n      add\n        /* \"#utility.yul\":31838:31869   */\n      swap5\n      pop\n        /* \"#utility.yul\":31712:31716   */\n      0x20\n        /* \"#utility.yul\":31709:31710   */\n      dup2\n        /* \"#utility.yul\":31705:31717   */\n      add\n        /* \"#utility.yul\":31700:31717   */\n      swap1\n      pop\n        /* \"#utility.yul\":31675:31883   */\n      jump(tag_607)\n    tag_609:\n        /* \"#utility.yul\":31911:31917   */\n      dup7\n        /* \"#utility.yul\":31902:31909   */\n      dup4\n        /* \"#utility.yul\":31899:31918   */\n      lt\n        /* \"#utility.yul\":31896:32075   */\n      iszero\n      tag_610\n      jumpi\n        /* \"#utility.yul\":31969:31978   */\n      dup5\n        /* \"#utility.yul\":31964:31967   */\n      dup10\n        /* \"#utility.yul\":31960:31979   */\n      add\n        /* \"#utility.yul\":31954:31980   */\n      mload\n        /* \"#utility.yul\":32012:32060   */\n      tag_611\n        /* \"#utility.yul\":32054:32058   */\n      0x1f\n        /* \"#utility.yul\":32046:32052   */\n      dup10\n        /* \"#utility.yul\":32042:32059   */\n      and\n        /* \"#utility.yul\":32031:32040   */\n      dup3\n        /* \"#utility.yul\":32012:32060   */\n      tag_300\n      jump\t// in\n    tag_611:\n        /* \"#utility.yul\":32004:32010   */\n      dup4\n        /* \"#utility.yul\":31997:32061   */\n      sstore\n        /* \"#utility.yul\":31919:32075   */\n      pop\n        /* \"#utility.yul\":31896:32075   */\n    tag_610:\n        /* \"#utility.yul\":32121:32122   */\n      0x01\n        /* \"#utility.yul\":32117:32118   */\n      0x02\n        /* \"#utility.yul\":32109:32115   */\n      dup9\n        /* \"#utility.yul\":32105:32119   */\n      mul\n        /* \"#utility.yul\":32101:32123   */\n      add\n        /* \"#utility.yul\":32095:32099   */\n      dup9\n        /* \"#utility.yul\":32088:32124   */\n      sstore\n        /* \"#utility.yul\":31523:32134   */\n      pop\n      pop\n      pop\n        /* \"#utility.yul\":31486:32373   */\n    tag_602:\n      pop\n        /* \"#utility.yul\":31076:32379   */\n      pop\n      pop\n      pop\n        /* \"#utility.yul\":30984:32379   */\n      pop\n      pop\n      jump\t// out\n        /* \"#utility.yul\":32385:32565   */\n    tag_104:\n        /* \"#utility.yul\":32433:32510   */\n      0x4e487b7100000000000000000000000000000000000000000000000000000000\n        /* \"#utility.yul\":32430:32431   */\n      0x00\n        /* \"#utility.yul\":32423:32511   */\n      mstore\n        /* \"#utility.yul\":32530:32534   */\n      0x32\n        /* \"#utility.yul\":32527:32528   */\n      0x04\n        /* \"#utility.yul\":32520:32535   */\n      mstore\n        /* \"#utility.yul\":32554:32558   */\n      0x24\n        /* \"#utility.yul\":32551:32552   */\n      0x00\n        /* \"#utility.yul\":32544:32559   */\n      revert\n        /* \"#utility.yul\":32571:32751   */\n    tag_302:\n        /* \"#utility.yul\":32619:32696   */\n      0x4e487b7100000000000000000000000000000000000000000000000000000000\n        /* \"#utility.yul\":32616:32617   */\n      0x00\n        /* \"#utility.yul\":32609:32697   */\n      mstore\n        /* \"#utility.yul\":32716:32720   */\n      0x11\n        /* \"#utility.yul\":32713:32714   */\n      0x04\n        /* \"#utility.yul\":32706:32721   */\n      mstore\n        /* \"#utility.yul\":32740:32744   */\n      0x24\n        /* \"#utility.yul\":32737:32738   */\n      0x00\n        /* \"#utility.yul\":32730:32745   */\n      revert\n        /* \"#utility.yul\":32757:32990   */\n    tag_113:\n        /* \"#utility.yul\":32796:32799   */\n      0x00\n        /* \"#utility.yul\":32819:32843   */\n      tag_615\n        /* \"#utility.yul\":32837:32842   */\n      dup3\n        /* \"#utility.yul\":32819:32843   */\n      tag_251\n      jump\t// in\n    tag_615:\n        /* \"#utility.yul\":32810:32843   */\n      swap2\n      pop\n        /* \"#utility.yul\":32865:32931   */\n      0xffffffffffffffffffffffffffffffffffffffffffffffffffffffffffffffff\n        /* \"#utility.yul\":32858:32863   */\n      dup3\n        /* \"#utility.yul\":32855:32932   */\n      sub\n        /* \"#utility.yul\":32852:32955   */\n      tag_616\n      jumpi\n        /* \"#utility.yul\":32935:32953   */\n      tag_617\n      tag_302\n      jump\t// in\n    tag_617:\n        /* \"#utility.yul\":32852:32955   */\n    tag_616:\n        /* \"#utility.yul\":32982:32983   */\n      0x01\n        /* \"#utility.yul\":32975:32980   */\n      dup3\n        /* \"#utility.yul\":32971:32984   */\n      add\n        /* \"#utility.yul\":32964:32984   */\n      swap1\n      pop\n        /* \"#utility.yul\":32757:32990   */\n      swap2\n      swap1\n      pop\n      jump\t// out\n        /* \"#utility.yul\":32996:33231   */\n    tag_303:\n        /* \"#utility.yul\":33136:33170   */\n      0x4f6e6c7920617574686f72697a656420646f63746f72732063616e2061636365\n        /* \"#utility.yul\":33132:33133   */\n      0x00\n        /* \"#utility.yul\":33124:33130   */\n      dup3\n        /* \"#utility.yul\":33120:33134   */\n      add\n        /* \"#utility.yul\":33113:33171   */\n      mstore\n        /* \"#utility.yul\":33205:33223   */\n      0x737320746869732066756e6374696f6e00000000000000000000000000000000\n        /* \"#utility.yul\":33200:33202   */\n      0x20\n        /* \"#utility.yul\":33192:33198   */\n      dup3\n        /* \"#utility.yul\":33188:33203   */\n      add\n        /* \"#utility.yul\":33181:33224   */\n      mstore\n        /* \"#utility.yul\":32996:33231   */\n      pop\n      jump\t// out\n        /* \"#utility.yul\":33237:33603   */\n    tag_304:\n        /* \"#utility.yul\":33379:33382   */\n      0x00\n        /* \"#utility.yul\":33400:33467   */\n      tag_620\n        /* \"#utility.yul\":33464:33466   */\n      0x30\n        /* \"#utility.yul\":33459:33462   */\n      dup4\n        /* \"#utility.yul\":33400:33467   */\n      tag_276\n      jump\t// in\n    tag_620:\n        /* \"#utility.yul\":33393:33467   */\n      swap2\n      pop\n        /* \"#utility.yul\":33476:33569   */\n      tag_621\n        /* \"#utility.yul\":33565:33568   */\n      dup3\n        /* \"#utility.yul\":33476:33569   */\n      tag_303\n      jump\t// in\n    tag_621:\n        /* \"#utility.yul\":33594:33596   */\n      0x40\n        /* \"#utility.yul\":33589:33592   */\n      dup3\n        /* \"#utility.yul\":33585:33597   */\n      add\n        /* \"#utility.yul\":33578:33597   */\n      swap1\n      pop\n        /* \"#utility.yul\":33237:33603   */\n      swap2\n      swap1\n      pop\n      jump\t// out\n        /* \"#utility.yul\":33609:34028   */\n    tag_201:\n        /* \"#utility.yul\":33775:33779   */\n      0x00\n        /* \"#utility.yul\":33813:33815   */\n      0x20\n        /* \"#utility.yul\":33802:33811   */\n      dup3\n        /* \"#utility.yul\":33798:33816   */\n      add\n        /* \"#utility.yul\":33790:33816   */\n      swap1\n      pop\n        /* \"#utility.yul\":33862:33871   */\n      dup2\n        /* \"#utility.yul\":33856:33860   */\n      dup2\n        /* \"#utility.yul\":33852:33872   */\n      sub\n        /* \"#utility.yul\":33848:33849   */\n      0x00\n        /* \"#utility.yul\":33837:33846   */\n      dup4\n        /* \"#utility.yul\":33833:33850   */\n      add\n        /* \"#utility.yul\":33826:33873   */\n      mstore\n        /* \"#utility.yul\":33890:34021   */\n      tag_623\n        /* \"#utility.yul\":34016:34020   */\n      dup2\n        /* \"#utility.yul\":33890:34021   */\n      tag_304\n      jump\t// in\n    tag_623:\n        /* \"#utility.yul\":33882:34021   */\n      swap1\n      pop\n        /* \"#utility.yul\":33609:34028   */\n      swap2\n      swap1\n      pop\n      jump\t// out\n\n    auxdata: 0xa26469706673582212205b28a530cb14e0d5ac5a991a8a61f4d7255af4aec43a352c4ba99df74cf84b9d64736f6c63430008120033\n}\n",
				"bytecode": {
					"linkReferences": {},
					"object": "608060405234801561001057600080fd5b50612612806100206000396000f3fe608060405234801561001057600080fd5b50600436106100a95760003560e01c80635450604811610071578063545060481461016357806368cdafb31461017f5780636df36bc6146101b357806375b39e2b146101e5578063a39a7f2014610201578063e72dc0c114610234576100a9565b806316c11d68146100ae5780631f56c50a146100ca57806329601ed8146100e65780632e338def146101175780633276a2ac14610147575b600080fd5b6100c860048036038101906100c39190611677565b610267565b005b6100e460048036038101906100df91906117a5565b61036d565b005b61010060048036038101906100fb91906118ac565b6104ad565b60405161010e929190611a36565b60405180910390f35b610131600480360381019061012c91906118ac565b61071d565b60405161013e9190611beb565b60405180910390f35b610161600480360381019061015c9190611c0d565b610a10565b005b61017d60048036038101906101789190611cf8565b610a8b565b005b610199600480360381019061019491906118ac565b610b30565b6040516101aa959493929190611df8565b60405180910390f35b6101cd60048036038101906101c891906118ac565b610db3565b6040516101dc93929190611e67565b60405180910390f35b6101ff60048036038101906101fa9190611f99565b61106d565b005b61021b60048036038101906102169190612070565b6111d5565b60405161022b94939291906120cc565b60405180910390f35b61024e60048036038101906102499190612070565b6112c8565b60405161025e9493929190612127565b60405180910390f35b60018760405161027791906121af565b90815260200160405180910390206009016040518060c00160405280888152602001878152602001868152602001858152602001848152602001831515815250908060018154018082558091505060019003906000526020600020906006020160009091909190915060008201518160000190816102f591906123d2565b50602082015181600101908161030b91906123d2565b5060408201518160020155606082015181600301908161032b91906123d2565b50608082015181600401908161034191906123d2565b5060a08201518160050160006101000a81548160ff021916908315150217905550505050505050505050565b6040518060c001604052803373ffffffffffffffffffffffffffffffffffffffff168152602001868152602001858152602001848152602001838152602001828152506000803373ffffffffffffffffffffffffffffffffffffffff1673ffffffffffffffffffffffffffffffffffffffff16815260200190815260200160002060008201518160000160006101000a81548173ffffffffffffffffffffffffffffffffffffffff021916908373ffffffffffffffffffffffffffffffffffffffff160217905550602082015181600101908161044a91906123d2565b50604082015181600201908161046091906123d2565b50606082015181600301908161047691906123d2565b50608082015181600401908161048c91906123d2565b5060a08201518160050190816104a291906123d2565b509050505050505050565b60608060006001846040516104c291906121af565b9081526020016040518091039020905060008160060154905060008167ffffffffffffffff8111156104f7576104f66114de565b5b60405190808252806020026020018201604052801561052a57816020015b60608152602001906001900390816105155790505b50905060008267ffffffffffffffff811115610549576105486114de565b5b60405190808252806020026020018201604052801561057c57816020015b60608152602001906001900390816105675790505b50905060005b8381101561070d57600085600501600083815260200190815260200160002090508060000180546105b2906121f5565b80601f01602080910402602001604051908101604052809291908181526020018280546105de906121f5565b801561062b5780601f106106005761010080835404028352916020019161062b565b820191906000526020600020905b81548152906001019060200180831161060e57829003601f168201915b5050505050848381518110610643576106426124a4565b5b602002602001018190525080600101805461065d906121f5565b80601f0160208091040260200160405190810160405280929190818152602001828054610689906121f5565b80156106d65780601f106106ab576101008083540402835291602001916106d6565b820191906000526020600020905b8154815290600101906020018083116106b957829003601f168201915b50505050508383815181106106ee576106ed6124a4565b5b602002602001018190525050808061070590612502565b915050610582565b5081819550955050505050915091565b6060600060018360405161073191906121af565b9081526020016040518091039020905080600901805480602002602001604051908101604052809291908181526020016000905b82821015610a0457838290600052602060002090600602016040518060c0016040529081600082018054610798906121f5565b80601f01602080910402602001604051908101604052809291908181526020018280546107c4906121f5565b80156108115780601f106107e657610100808354040283529160200191610811565b820191906000526020600020905b8154815290600101906020018083116107f457829003601f168201915b5050505050815260200160018201805461082a906121f5565b80601f0160208091040260200160405190810160405280929190818152602001828054610856906121f5565b80156108a35780601f10610878576101008083540402835291602001916108a3565b820191906000526020600020905b81548152906001019060200180831161088657829003601f168201915b50505050508152602001600282015481526020016003820180546108c6906121f5565b80601f01602080910402602001604051908101604052809291908181526020018280546108f2906121f5565b801561093f5780601f106109145761010080835404028352916020019161093f565b820191906000526020600020905b81548152906001019060200180831161092257829003601f168201915b50505050508152602001600482018054610958906121f5565b80601f0160208091040260200160405190810160405280929190818152602001828054610984906121f5565b80156109d15780601f106109a6576101008083540402835291602001916109d1565b820191906000526020600020905b8154815290600101906020018083116109b457829003601f168201915b505050505081526020016005820160009054906101000a900460ff16151515158152505081526020019060010190610765565b50505050915050919050565b6000600185604051610a2291906121af565b9081526020016040518091039020905085816000019081610a4391906123d2565b5084816001019081610a5591906123d2565b5083816002018190555082816007019081610a7091906123d2565b5081816008019081610a8291906123d2565b50505050505050565b6000600184604051610a9d91906121af565b908152602001604051809103902090506000816006015490506040518060400160405280858152602001848152508260050160008381526020019081526020016000206000820151816000019081610af591906123d2565b506020820151816001019081610b0b91906123d2565b50905050816006016000815480929190610b2490612502565b91905055505050505050565b60608060006060806000600187604051610b4a91906121af565b90815260200160405180910390209050806000018160010182600201548360070184600801848054610b7b906121f5565b80601f0160208091040260200160405190810160405280929190818152602001828054610ba7906121f5565b8015610bf45780601f10610bc957610100808354040283529160200191610bf4565b820191906000526020600020905b815481529060010190602001808311610bd757829003601f168201915b50505050509450838054610c07906121f5565b80601f0160208091040260200160405190810160405280929190818152602001828054610c33906121f5565b8015610c805780601f10610c5557610100808354040283529160200191610c80565b820191906000526020600020905b815481529060010190602001808311610c6357829003601f168201915b50505050509350818054610c93906121f5565b80601f0160208091040260200160405190810160405280929190818152602001828054610cbf906121f5565b8015610d0c5780601f10610ce157610100808354040283529160200191610d0c565b820191906000526020600020905b815481529060010190602001808311610cef57829003601f168201915b50505050509150808054610d1f906121f5565b80601f0160208091040260200160405190810160405280929190818152602001828054610d4b906121f5565b8015610d985780601f10610d6d57610100808354040283529160200191610d98565b820191906000526020600020905b815481529060010190602001808311610d7b57829003601f168201915b50505050509050955095509550955095505091939590929450565b60608060606000600285604051610dca91906121af565b9081526020016040518091039020905080600001816001018260020182805480602002602001604051908101604052809291908181526020016000905b82821015610eb3578382906000526020600020018054610e26906121f5565b80601f0160208091040260200160405190810160405280929190818152602001828054610e52906121f5565b8015610e9f5780601f10610e7457610100808354040283529160200191610e9f565b820191906000526020600020905b815481529060010190602001808311610e8257829003601f168201915b505050505081526020019060010190610e07565b50505050925081805480602002602001604051908101604052809291908181526020016000905b82821015610f86578382906000526020600020018054610ef9906121f5565b80601f0160208091040260200160405190810160405280929190818152602001828054610f25906121f5565b8015610f725780601f10610f4757610100808354040283529160200191610f72565b820191906000526020600020905b815481529060010190602001808311610f5557829003601f168201915b505050505081526020019060010190610eda565b50505050915080805480602002602001604051908101604052809291908181526020016000905b82821015611059578382906000526020600020018054610fcc906121f5565b80601f0160208091040260200160405190810160405280929190818152602001828054610ff8906121f5565b80156110455780601f1061101a57610100808354040283529160200191611045565b820191906000526020600020905b81548152906001019060200180831161102857829003601f168201915b505050505081526020019060010190610fad565b505050509050935093509350509193909250565b3373ffffffffffffffffffffffffffffffffffffffff166000803373ffffffffffffffffffffffffffffffffffffffff1673ffffffffffffffffffffffffffffffffffffffff16815260200190815260200160002060000160009054906101000a900473ffffffffffffffffffffffffffffffffffffffff1673ffffffffffffffffffffffffffffffffffffffff161461113c576040517f08c379a0000000000000000000000000000000000000000000000000000000008152600401611133906125bc565b60405180910390fd5b60405180606001604052808481526020018381526020018281525060028560405161116791906121af565b908152602001604051809103902060008201518160000190805190602001906111919291906113d5565b5060208201518160010190805190602001906111ae9291906113d5565b5060408201518160020190805190602001906111cb9291906113d5565b5090505050505050565b60606000806000806001876040516111ed91906121af565b908152602001604051809103902090506000816003016000888152602001908152602001600020905080600001816001015482600201548360030154838054611235906121f5565b80601f0160208091040260200160405190810160405280929190818152602001828054611261906121f5565b80156112ae5780601f10611283576101008083540402835291602001916112ae565b820191906000526020600020905b81548152906001019060200180831161129157829003601f168201915b505050505093509550955095509550505092959194509250565b60606000806000806001876040516112e091906121af565b9081526020016040518091039020905060008160040160008881526020019081526020016000209050806000018160010160009054906101000a900460ff168260010160019054906101000a900460ff168360020154838054611342906121f5565b80601f016020809104026020016040519081016040528092919081815260200182805461136e906121f5565b80156113bb5780601f10611390576101008083540402835291602001916113bb565b820191906000526020600020905b81548152906001019060200180831161139e57829003601f168201915b505050505093509550955095509550505092959194509250565b82805482825590600052602060002090810192821561141d579160200282015b8281111561141c57825182908161140c91906123d2565b50916020019190600101906113f5565b5b50905061142a919061142e565b5090565b5b8082111561144e57600081816114459190611452565b5060010161142f565b5090565b50805461145e906121f5565b6000825580601f10611470575061148f565b601f01602090049060005260206000209081019061148e9190611492565b5b50565b5b808211156114ab576000816000905550600101611493565b5090565b6000604051905090565b600080fd5b600080fd5b600080fd5b600080fd5b6000601f19601f8301169050919050565b7f4e487b7100000000000000000000000000000000000000000000000000000000600052604160045260246000fd5b611516826114cd565b810181811067ffffffffffffffff82111715611535576115346114de565b5b80604052505050565b60006115486114af565b9050611554828261150d565b919050565b600067ffffffffffffffff821115611574576115736114de565b5b61157d826114cd565b9050602081019050919050565b82818337600083830152505050565b60006115ac6115a784611559565b61153e565b9050828152602081018484840111156115c8576115c76114c8565b5b6115d384828561158a565b509392505050565b600082601f8301126115f0576115ef6114c3565b5b8135611600848260208601611599565b91505092915050565b6000819050919050565b61161c81611609565b811461162757600080fd5b50565b60008135905061163981611613565b92915050565b60008115159050919050565b6116548161163f565b811461165f57600080fd5b50565b6000813590506116718161164b565b92915050565b600080600080600080600060e0888a031215611696576116956114b9565b5b600088013567ffffffffffffffff8111156116b4576116b36114be565b5b6116c08a828b016115db565b975050602088013567ffffffffffffffff8111156116e1576116e06114be565b5b6116ed8a828b016115db565b965050604088013567ffffffffffffffff81111561170e5761170d6114be565b5b61171a8a828b016115db565b955050606061172b8a828b0161162a565b945050608088013567ffffffffffffffff81111561174c5761174b6114be565b5b6117588a828b016115db565b93505060a088013567ffffffffffffffff811115611779576117786114be565b5b6117858a828b016115db565b92505060c06117968a828b01611662565b91505092959891949750929550565b600080600080600060a086880312156117c1576117c06114b9565b5b600086013567ffffffffffffffff8111156117df576117de6114be565b5b6117eb888289016115db565b955050602086013567ffffffffffffffff81111561180c5761180b6114be565b5b611818888289016115db565b945050604086013567ffffffffffffffff811115611839576118386114be565b5b611845888289016115db565b935050606086013567ffffffffffffffff811115611866576118656114be565b5b611872888289016115db565b925050608086013567ffffffffffffffff811115611893576118926114be565b5b61189f888289016115db565b9150509295509295909350565b6000602082840312156118c2576118c16114b9565b5b600082013567ffffffffffffffff8111156118e0576118df6114be565b5b6118ec848285016115db565b91505092915050565b600081519050919050565b600082825260208201905092915050565b6000819050602082019050919050565b600081519050919050565b600082825260208201905092915050565b60005b8381101561195b578082015181840152602081019050611940565b60008484015250505050565b600061197282611921565b61197c818561192c565b935061198c81856020860161193d565b611995816114cd565b840191505092915050565b60006119ac8383611967565b905092915050565b6000602082019050919050565b60006119cc826118f5565b6119d68185611900565b9350836020820285016119e885611911565b8060005b85811015611a245784840389528151611a0585826119a0565b9450611a10836119b4565b925060208a019950506001810190506119ec565b50829750879550505050505092915050565b60006040820190508181036000830152611a5081856119c1565b90508181036020830152611a6481846119c1565b90509392505050565b600081519050919050565b600082825260208201905092915050565b6000819050602082019050919050565b611aa281611609565b82525050565b611ab18161163f565b82525050565b600060c0830160008301518482036000860152611ad48282611967565b91505060208301518482036020860152611aee8282611967565b9150506040830151611b036040860182611a99565b5060608301518482036060860152611b1b8282611967565b91505060808301518482036080860152611b358282611967565b91505060a0830151611b4a60a0860182611aa8565b508091505092915050565b6000611b618383611ab7565b905092915050565b6000602082019050919050565b6000611b8182611a6d565b611b8b8185611a78565b935083602082028501611b9d85611a89565b8060005b85811015611bd95784840389528151611bba8582611b55565b9450611bc583611b69565b925060208a01995050600181019050611ba1565b50829750879550505050505092915050565b60006020820190508181036000830152611c058184611b76565b905092915050565b600080600080600060a08688031215611c2957611c286114b9565b5b600086013567ffffffffffffffff811115611c4757611c466114be565b5b611c53888289016115db565b955050602086013567ffffffffffffffff811115611c7457611c736114be565b5b611c80888289016115db565b9450506040611c918882890161162a565b935050606086013567ffffffffffffffff811115611cb257611cb16114be565b5b611cbe888289016115db565b925050608086013567ffffffffffffffff811115611cdf57611cde6114be565b5b611ceb888289016115db565b9150509295509295909350565b600080600060608486031215611d1157611d106114b9565b5b600084013567ffffffffffffffff811115611d2f57611d2e6114be565b5b611d3b868287016115db565b935050602084013567ffffffffffffffff811115611d5c57611d5b6114be565b5b611d68868287016115db565b925050604084013567ffffffffffffffff811115611d8957611d886114be565b5b611d95868287016115db565b9150509250925092565b600082825260208201905092915050565b6000611dbb82611921565b611dc58185611d9f565b9350611dd581856020860161193d565b611dde816114cd565b840191505092915050565b611df281611609565b82525050565b600060a0820190508181036000830152611e128188611db0565b90508181036020830152611e268187611db0565b9050611e356040830186611de9565b8181036060830152611e478185611db0565b90508181036080830152611e5b8184611db0565b90509695505050505050565b60006060820190508181036000830152611e8181866119c1565b90508181036020830152611e9581856119c1565b90508181036040830152611ea981846119c1565b9050949350505050565b600067ffffffffffffffff821115611ece57611ecd6114de565b5b602082029050602081019050919050565b600080fd5b6000611ef7611ef284611eb3565b61153e565b90508083825260208201905060208402830185811115611f1a57611f19611edf565b5b835b81811015611f6157803567ffffffffffffffff811115611f3f57611f3e6114c3565b5b808601611f4c89826115db565b85526020850194505050602081019050611f1c565b5050509392505050565b600082601f830112611f8057611f7f6114c3565b5b8135611f90848260208601611ee4565b91505092915050565b60008060008060808587031215611fb357611fb26114b9565b5b600085013567ffffffffffffffff811115611fd157611fd06114be565b5b611fdd878288016115db565b945050602085013567ffffffffffffffff811115611ffe57611ffd6114be565b5b61200a87828801611f6b565b935050604085013567ffffffffffffffff81111561202b5761202a6114be565b5b61203787828801611f6b565b925050606085013567ffffffffffffffff811115612058576120576114be565b5b61206487828801611f6b565b91505092959194509250565b60008060408385031215612087576120866114b9565b5b600083013567ffffffffffffffff8111156120a5576120a46114be565b5b6120b1858286016115db565b92505060206120c28582860161162a565b9150509250929050565b600060808201905081810360008301526120e68187611db0565b90506120f56020830186611de9565b6121026040830185611de9565b61210f6060830184611de9565b95945050505050565b6121218161163f565b82525050565b600060808201905081810360008301526121418187611db0565b90506121506020830186612118565b61215d6040830185612118565b61216a6060830184611de9565b95945050505050565b600081905092915050565b600061218982611921565b6121938185612173565b93506121a381856020860161193d565b80840191505092915050565b60006121bb828461217e565b915081905092915050565b7f4e487b7100000000000000000000000000000000000000000000000000000000600052602260045260246000fd5b6000600282049050600182168061220d57607f821691505b6020821081036122205761221f6121c6565b5b50919050565b60008190508160005260206000209050919050565b60006020601f8301049050919050565b600082821b905092915050565b6000600883026122887fffffffffffffffffffffffffffffffffffffffffffffffffffffffffffffffff8261224b565b612292868361224b565b95508019841693508086168417925050509392505050565b6000819050919050565b60006122cf6122ca6122c584611609565b6122aa565b611609565b9050919050565b6000819050919050565b6122e9836122b4565b6122fd6122f5826122d6565b848454612258565b825550505050565b600090565b612312612305565b61231d8184846122e0565b505050565b5b818110156123415761233660008261230a565b600181019050612323565b5050565b601f8211156123865761235781612226565b6123608461223b565b8101602085101561236f578190505b61238361237b8561223b565b830182612322565b50505b505050565b600082821c905092915050565b60006123a96000198460080261238b565b1980831691505092915050565b60006123c28383612398565b9150826002028217905092915050565b6123db82611921565b67ffffffffffffffff8111156123f4576123f36114de565b5b6123fe82546121f5565b612409828285612345565b600060209050601f83116001811461243c576000841561242a578287015190505b61243485826123b6565b86555061249c565b601f19841661244a86612226565b60005b828110156124725784890151825560018201915060208501945060208101905061244d565b8683101561248f578489015161248b601f891682612398565b8355505b6001600288020188555050505b505050505050565b7f4e487b7100000000000000000000000000000000000000000000000000000000600052603260045260246000fd5b7f4e487b7100000000000000000000000000000000000000000000000000000000600052601160045260246000fd5b600061250d82611609565b91507fffffffffffffffffffffffffffffffffffffffffffffffffffffffffffffffff820361253f5761253e6124d3565b5b600182019050919050565b7f4f6e6c7920617574686f72697a656420646f63746f72732063616e206163636560008201527f737320746869732066756e6374696f6e00000000000000000000000000000000602082015250565b60006125a6603083611d9f565b91506125b18261254a565b604082019050919050565b600060208201905081810360008301526125d581612599565b905091905056fea26469706673582212205b28a530cb14e0d5ac5a991a8a61f4d7255af4aec43a352c4ba99df74cf84b9d64736f6c63430008120033",
					"opcodes": "PUSH1 0x80 PUSH1 0x40 MSTORE CALLVALUE DUP1 ISZERO PUSH2 0x10 JUMPI PUSH1 0x0 DUP1 REVERT JUMPDEST POP PUSH2 0x2612 DUP1 PUSH2 0x20 PUSH1 0x0 CODECOPY PUSH1 0x0 RETURN INVALID PUSH1 0x80 PUSH1 0x40 MSTORE CALLVALUE DUP1 ISZERO PUSH2 0x10 JUMPI PUSH1 0x0 DUP1 REVERT JUMPDEST POP PUSH1 0x4 CALLDATASIZE LT PUSH2 0xA9 JUMPI PUSH1 0x0 CALLDATALOAD PUSH1 0xE0 SHR DUP1 PUSH4 0x54506048 GT PUSH2 0x71 JUMPI DUP1 PUSH4 0x54506048 EQ PUSH2 0x163 JUMPI DUP1 PUSH4 0x68CDAFB3 EQ PUSH2 0x17F JUMPI DUP1 PUSH4 0x6DF36BC6 EQ PUSH2 0x1B3 JUMPI DUP1 PUSH4 0x75B39E2B EQ PUSH2 0x1E5 JUMPI DUP1 PUSH4 0xA39A7F20 EQ PUSH2 0x201 JUMPI DUP1 PUSH4 0xE72DC0C1 EQ PUSH2 0x234 JUMPI PUSH2 0xA9 JUMP JUMPDEST DUP1 PUSH4 0x16C11D68 EQ PUSH2 0xAE JUMPI DUP1 PUSH4 0x1F56C50A EQ PUSH2 0xCA JUMPI DUP1 PUSH4 0x29601ED8 EQ PUSH2 0xE6 JUMPI DUP1 PUSH4 0x2E338DEF EQ PUSH2 0x117 JUMPI DUP1 PUSH4 0x3276A2AC EQ PUSH2 0x147 JUMPI JUMPDEST PUSH1 0x0 DUP1 REVERT JUMPDEST PUSH2 0xC8 PUSH1 0x4 DUP1 CALLDATASIZE SUB DUP2 ADD SWAP1 PUSH2 0xC3 SWAP2 SWAP1 PUSH2 0x1677 JUMP JUMPDEST PUSH2 0x267 JUMP JUMPDEST STOP JUMPDEST PUSH2 0xE4 PUSH1 0x4 DUP1 CALLDATASIZE SUB DUP2 ADD SWAP1 PUSH2 0xDF SWAP2 SWAP1 PUSH2 0x17A5 JUMP JUMPDEST PUSH2 0x36D JUMP JUMPDEST STOP JUMPDEST PUSH2 0x100 PUSH1 0x4 DUP1 CALLDATASIZE SUB DUP2 ADD SWAP1 PUSH2 0xFB SWAP2 SWAP1 PUSH2 0x18AC JUMP JUMPDEST PUSH2 0x4AD JUMP JUMPDEST PUSH1 0x40 MLOAD PUSH2 0x10E SWAP3 SWAP2 SWAP1 PUSH2 0x1A36 JUMP JUMPDEST PUSH1 0x40 MLOAD DUP1 SWAP2 SUB SWAP1 RETURN JUMPDEST PUSH2 0x131 PUSH1 0x4 DUP1 CALLDATASIZE SUB DUP2 ADD SWAP1 PUSH2 0x12C SWAP2 SWAP1 PUSH2 0x18AC JUMP JUMPDEST PUSH2 0x71D JUMP JUMPDEST PUSH1 0x40 MLOAD PUSH2 0x13E SWAP2 SWAP1 PUSH2 0x1BEB JUMP JUMPDEST PUSH1 0x40 MLOAD DUP1 SWAP2 SUB SWAP1 RETURN JUMPDEST PUSH2 0x161 PUSH1 0x4 DUP1 CALLDATASIZE SUB DUP2 ADD SWAP1 PUSH2 0x15C SWAP2 SWAP1 PUSH2 0x1C0D JUMP JUMPDEST PUSH2 0xA10 JUMP JUMPDEST STOP JUMPDEST PUSH2 0x17D PUSH1 0x4 DUP1 CALLDATASIZE SUB DUP2 ADD SWAP1 PUSH2 0x178 SWAP2 SWAP1 PUSH2 0x1CF8 JUMP JUMPDEST PUSH2 0xA8B JUMP JUMPDEST STOP JUMPDEST PUSH2 0x199 PUSH1 0x4 DUP1 CALLDATASIZE SUB DUP2 ADD SWAP1 PUSH2 0x194 SWAP2 SWAP1 PUSH2 0x18AC JUMP JUMPDEST PUSH2 0xB30 JUMP JUMPDEST PUSH1 0x40 MLOAD PUSH2 0x1AA SWAP6 SWAP5 SWAP4 SWAP3 SWAP2 SWAP1 PUSH2 0x1DF8 JUMP JUMPDEST PUSH1 0x40 MLOAD DUP1 SWAP2 SUB SWAP1 RETURN JUMPDEST PUSH2 0x1CD PUSH1 0x4 DUP1 CALLDATASIZE SUB DUP2 ADD SWAP1 PUSH2 0x1C8 SWAP2 SWAP1 PUSH2 0x18AC JUMP JUMPDEST PUSH2 0xDB3 JUMP JUMPDEST PUSH1 0x40 MLOAD PUSH2 0x1DC SWAP4 SWAP3 SWAP2 SWAP1 PUSH2 0x1E67 JUMP JUMPDEST PUSH1 0x40 MLOAD DUP1 SWAP2 SUB SWAP1 RETURN JUMPDEST PUSH2 0x1FF PUSH1 0x4 DUP1 CALLDATASIZE SUB DUP2 ADD SWAP1 PUSH2 0x1FA SWAP2 SWAP1 PUSH2 0x1F99 JUMP JUMPDEST PUSH2 0x106D JUMP JUMPDEST STOP JUMPDEST PUSH2 0x21B PUSH1 0x4 DUP1 CALLDATASIZE SUB DUP2 ADD SWAP1 PUSH2 0x216 SWAP2 SWAP1 PUSH2 0x2070 JUMP JUMPDEST PUSH2 0x11D5 JUMP JUMPDEST PUSH1 0x40 MLOAD PUSH2 0x22B SWAP5 SWAP4 SWAP3 SWAP2 SWAP1 PUSH2 0x20CC JUMP JUMPDEST PUSH1 0x40 MLOAD DUP1 SWAP2 SUB SWAP1 RETURN JUMPDEST PUSH2 0x24E PUSH1 0x4 DUP1 CALLDATASIZE SUB DUP2 ADD SWAP1 PUSH2 0x249 SWAP2 SWAP1 PUSH2 0x2070 JUMP JUMPDEST PUSH2 0x12C8 JUMP JUMPDEST PUSH1 0x40 MLOAD PUSH2 0x25E SWAP5 SWAP4 SWAP3 SWAP2 SWAP1 PUSH2 0x2127 JUMP JUMPDEST PUSH1 0x40 MLOAD DUP1 SWAP2 SUB SWAP1 RETURN JUMPDEST PUSH1 0x1 DUP8 PUSH1 0x40 MLOAD PUSH2 0x277 SWAP2 SWAP1 PUSH2 0x21AF JUMP JUMPDEST SWAP1 DUP2 MSTORE PUSH1 0x20 ADD PUSH1 0x40 MLOAD DUP1 SWAP2 SUB SWAP1 KECCAK256 PUSH1 0x9 ADD PUSH1 0x40 MLOAD DUP1 PUSH1 0xC0 ADD PUSH1 0x40 MSTORE DUP1 DUP9 DUP2 MSTORE PUSH1 0x20 ADD DUP8 DUP2 MSTORE PUSH1 0x20 ADD DUP7 DUP2 MSTORE PUSH1 0x20 ADD DUP6 DUP2 MSTORE PUSH1 0x20 ADD DUP5 DUP2 MSTORE PUSH1 0x20 ADD DUP4 ISZERO ISZERO DUP2 MSTORE POP SWAP1 DUP1 PUSH1 0x1 DUP2 SLOAD ADD DUP1 DUP3 SSTORE DUP1 SWAP2 POP POP PUSH1 0x1 SWAP1 SUB SWAP1 PUSH1 0x0 MSTORE PUSH1 0x20 PUSH1 0x0 KECCAK256 SWAP1 PUSH1 0x6 MUL ADD PUSH1 0x0 SWAP1 SWAP2 SWAP1 SWAP2 SWAP1 SWAP2 POP PUSH1 0x0 DUP3 ADD MLOAD DUP2 PUSH1 0x0 ADD SWAP1 DUP2 PUSH2 0x2F5 SWAP2 SWAP1 PUSH2 0x23D2 JUMP JUMPDEST POP PUSH1 0x20 DUP3 ADD MLOAD DUP2 PUSH1 0x1 ADD SWAP1 DUP2 PUSH2 0x30B SWAP2 SWAP1 PUSH2 0x23D2 JUMP JUMPDEST POP PUSH1 0x40 DUP3 ADD MLOAD DUP2 PUSH1 0x2 ADD SSTORE PUSH1 0x60 DUP3 ADD MLOAD DUP2 PUSH1 0x3 ADD SWAP1 DUP2 PUSH2 0x32B SWAP2 SWAP1 PUSH2 0x23D2 JUMP JUMPDEST POP PUSH1 0x80 DUP3 ADD MLOAD DUP2 PUSH1 0x4 ADD SWAP1 DUP2 PUSH2 0x341 SWAP2 SWAP1 PUSH2 0x23D2 JUMP JUMPDEST POP PUSH1 0xA0 DUP3 ADD MLOAD DUP2 PUSH1 0x5 ADD PUSH1 0x0 PUSH2 0x100 EXP DUP2 SLOAD DUP2 PUSH1 0xFF MUL NOT AND SWAP1 DUP4 ISZERO ISZERO MUL OR SWAP1 SSTORE POP POP POP POP POP POP POP POP POP POP JUMP JUMPDEST PUSH1 0x40 MLOAD DUP1 PUSH1 0xC0 ADD PUSH1 0x40 MSTORE DUP1 CALLER PUSH20 0xFFFFFFFFFFFFFFFFFFFFFFFFFFFFFFFFFFFFFFFF AND DUP2 MSTORE PUSH1 0x20 ADD DUP7 DUP2 MSTORE PUSH1 0x20 ADD DUP6 DUP2 MSTORE PUSH1 0x20 ADD DUP5 DUP2 MSTORE PUSH1 0x20 ADD DUP4 DUP2 MSTORE PUSH1 0x20 ADD DUP3 DUP2 MSTORE POP PUSH1 0x0 DUP1 CALLER PUSH20 0xFFFFFFFFFFFFFFFFFFFFFFFFFFFFFFFFFFFFFFFF AND PUSH20 0xFFFFFFFFFFFFFFFFFFFFFFFFFFFFFFFFFFFFFFFF AND DUP2 MSTORE PUSH1 0x20 ADD SWAP1 DUP2 MSTORE PUSH1 0x20 ADD PUSH1 0x0 KECCAK256 PUSH1 0x0 DUP3 ADD MLOAD DUP2 PUSH1 0x0 ADD PUSH1 0x0 PUSH2 0x100 EXP DUP2 SLOAD DUP2 PUSH20 0xFFFFFFFFFFFFFFFFFFFFFFFFFFFFFFFFFFFFFFFF MUL NOT AND SWAP1 DUP4 PUSH20 0xFFFFFFFFFFFFFFFFFFFFFFFFFFFFFFFFFFFFFFFF AND MUL OR SWAP1 SSTORE POP PUSH1 0x20 DUP3 ADD MLOAD DUP2 PUSH1 0x1 ADD SWAP1 DUP2 PUSH2 0x44A SWAP2 SWAP1 PUSH2 0x23D2 JUMP JUMPDEST POP PUSH1 0x40 DUP3 ADD MLOAD DUP2 PUSH1 0x2 ADD SWAP1 DUP2 PUSH2 0x460 SWAP2 SWAP1 PUSH2 0x23D2 JUMP JUMPDEST POP PUSH1 0x60 DUP3 ADD MLOAD DUP2 PUSH1 0x3 ADD SWAP1 DUP2 PUSH2 0x476 SWAP2 SWAP1 PUSH2 0x23D2 JUMP JUMPDEST POP PUSH1 0x80 DUP3 ADD MLOAD DUP2 PUSH1 0x4 ADD SWAP1 DUP2 PUSH2 0x48C SWAP2 SWAP1 PUSH2 0x23D2 JUMP JUMPDEST POP PUSH1 0xA0 DUP3 ADD MLOAD DUP2 PUSH1 0x5 ADD SWAP1 DUP2 PUSH2 0x4A2 SWAP2 SWAP1 PUSH2 0x23D2 JUMP JUMPDEST POP SWAP1 POP POP POP POP POP POP POP JUMP JUMPDEST PUSH1 0x60 DUP1 PUSH1 0x0 PUSH1 0x1 DUP5 PUSH1 0x40 MLOAD PUSH2 0x4C2 SWAP2 SWAP1 PUSH2 0x21AF JUMP JUMPDEST SWAP1 DUP2 MSTORE PUSH1 0x20 ADD PUSH1 0x40 MLOAD DUP1 SWAP2 SUB SWAP1 KECCAK256 SWAP1 POP PUSH1 0x0 DUP2 PUSH1 0x6 ADD SLOAD SWAP1 POP PUSH1 0x0 DUP2 PUSH8 0xFFFFFFFFFFFFFFFF DUP2 GT ISZERO PUSH2 0x4F7 JUMPI PUSH2 0x4F6 PUSH2 0x14DE JUMP JUMPDEST JUMPDEST PUSH1 0x40 MLOAD SWAP1 DUP1 DUP3 MSTORE DUP1 PUSH1 0x20 MUL PUSH1 0x20 ADD DUP3 ADD PUSH1 0x40 MSTORE DUP1 ISZERO PUSH2 0x52A JUMPI DUP2 PUSH1 0x20 ADD JUMPDEST PUSH1 0x60 DUP2 MSTORE PUSH1 0x20 ADD SWAP1 PUSH1 0x1 SWAP1 SUB SWAP1 DUP2 PUSH2 0x515 JUMPI SWAP1 POP JUMPDEST POP SWAP1 POP PUSH1 0x0 DUP3 PUSH8 0xFFFFFFFFFFFFFFFF DUP2 GT ISZERO PUSH2 0x549 JUMPI PUSH2 0x548 PUSH2 0x14DE JUMP JUMPDEST JUMPDEST PUSH1 0x40 MLOAD SWAP1 DUP1 DUP3 MSTORE DUP1 PUSH1 0x20 MUL PUSH1 0x20 ADD DUP3 ADD PUSH1 0x40 MSTORE DUP1 ISZERO PUSH2 0x57C JUMPI DUP2 PUSH1 0x20 ADD JUMPDEST PUSH1 0x60 DUP2 MSTORE PUSH1 0x20 ADD SWAP1 PUSH1 0x1 SWAP1 SUB SWAP1 DUP2 PUSH2 0x567 JUMPI SWAP1 POP JUMPDEST POP SWAP1 POP PUSH1 0x0 JUMPDEST DUP4 DUP2 LT ISZERO PUSH2 0x70D JUMPI PUSH1 0x0 DUP6 PUSH1 0x5 ADD PUSH1 0x0 DUP4 DUP2 MSTORE PUSH1 0x20 ADD SWAP1 DUP2 MSTORE PUSH1 0x20 ADD PUSH1 0x0 KECCAK256 SWAP1 POP DUP1 PUSH1 0x0 ADD DUP1 SLOAD PUSH2 0x5B2 SWAP1 PUSH2 0x21F5 JUMP JUMPDEST DUP1 PUSH1 0x1F ADD PUSH1 0x20 DUP1 SWAP2 DIV MUL PUSH1 0x20 ADD PUSH1 0x40 MLOAD SWAP1 DUP2 ADD PUSH1 0x40 MSTORE DUP1 SWAP3 SWAP2 SWAP1 DUP2 DUP2 MSTORE PUSH1 0x20 ADD DUP3 DUP1 SLOAD PUSH2 0x5DE SWAP1 PUSH2 0x21F5 JUMP JUMPDEST DUP1 ISZERO PUSH2 0x62B JUMPI DUP1 PUSH1 0x1F LT PUSH2 0x600 JUMPI PUSH2 0x100 DUP1 DUP4 SLOAD DIV MUL DUP4 MSTORE SWAP2 PUSH1 0x20 ADD SWAP2 PUSH2 0x62B JUMP JUMPDEST DUP3 ADD SWAP2 SWAP1 PUSH1 0x0 MSTORE PUSH1 0x20 PUSH1 0x0 KECCAK256 SWAP1 JUMPDEST DUP2 SLOAD DUP2 MSTORE SWAP1 PUSH1 0x1 ADD SWAP1 PUSH1 0x20 ADD DUP1 DUP4 GT PUSH2 0x60E JUMPI DUP3 SWAP1 SUB PUSH1 0x1F AND DUP3 ADD SWAP2 JUMPDEST POP POP POP POP POP DUP5 DUP4 DUP2 MLOAD DUP2 LT PUSH2 0x643 JUMPI PUSH2 0x642 PUSH2 0x24A4 JUMP JUMPDEST JUMPDEST PUSH1 0x20 MUL PUSH1 0x20 ADD ADD DUP2 SWAP1 MSTORE POP DUP1 PUSH1 0x1 ADD DUP1 SLOAD PUSH2 0x65D SWAP1 PUSH2 0x21F5 JUMP JUMPDEST DUP1 PUSH1 0x1F ADD PUSH1 0x20 DUP1 SWAP2 DIV MUL PUSH1 0x20 ADD PUSH1 0x40 MLOAD SWAP1 DUP2 ADD PUSH1 0x40 MSTORE DUP1 SWAP3 SWAP2 SWAP1 DUP2 DUP2 MSTORE PUSH1 0x20 ADD DUP3 DUP1 SLOAD PUSH2 0x689 SWAP1 PUSH2 0x21F5 JUMP JUMPDEST DUP1 ISZERO PUSH2 0x6D6 JUMPI DUP1 PUSH1 0x1F LT PUSH2 0x6AB JUMPI PUSH2 0x100 DUP1 DUP4 SLOAD DIV MUL DUP4 MSTORE SWAP2 PUSH1 0x20 ADD SWAP2 PUSH2 0x6D6 JUMP JUMPDEST DUP3 ADD SWAP2 SWAP1 PUSH1 0x0 MSTORE PUSH1 0x20 PUSH1 0x0 KECCAK256 SWAP1 JUMPDEST DUP2 SLOAD DUP2 MSTORE SWAP1 PUSH1 0x1 ADD SWAP1 PUSH1 0x20 ADD DUP1 DUP4 GT PUSH2 0x6B9 JUMPI DUP3 SWAP1 SUB PUSH1 0x1F AND DUP3 ADD SWAP2 JUMPDEST POP POP POP POP POP DUP4 DUP4 DUP2 MLOAD DUP2 LT PUSH2 0x6EE JUMPI PUSH2 0x6ED PUSH2 0x24A4 JUMP JUMPDEST JUMPDEST PUSH1 0x20 MUL PUSH1 0x20 ADD ADD DUP2 SWAP1 MSTORE POP POP DUP1 DUP1 PUSH2 0x705 SWAP1 PUSH2 0x2502 JUMP JUMPDEST SWAP2 POP POP PUSH2 0x582 JUMP JUMPDEST POP DUP2 DUP2 SWAP6 POP SWAP6 POP POP POP POP POP SWAP2 POP SWAP2 JUMP JUMPDEST PUSH1 0x60 PUSH1 0x0 PUSH1 0x1 DUP4 PUSH1 0x40 MLOAD PUSH2 0x731 SWAP2 SWAP1 PUSH2 0x21AF JUMP JUMPDEST SWAP1 DUP2 MSTORE PUSH1 0x20 ADD PUSH1 0x40 MLOAD DUP1 SWAP2 SUB SWAP1 KECCAK256 SWAP1 POP DUP1 PUSH1 0x9 ADD DUP1 SLOAD DUP1 PUSH1 0x20 MUL PUSH1 0x20 ADD PUSH1 0x40 MLOAD SWAP1 DUP2 ADD PUSH1 0x40 MSTORE DUP1 SWAP3 SWAP2 SWAP1 DUP2 DUP2 MSTORE PUSH1 0x20 ADD PUSH1 0x0 SWAP1 JUMPDEST DUP3 DUP3 LT ISZERO PUSH2 0xA04 JUMPI DUP4 DUP3 SWAP1 PUSH1 0x0 MSTORE PUSH1 0x20 PUSH1 0x0 KECCAK256 SWAP1 PUSH1 0x6 MUL ADD PUSH1 0x40 MLOAD DUP1 PUSH1 0xC0 ADD PUSH1 0x40 MSTORE SWAP1 DUP2 PUSH1 0x0 DUP3 ADD DUP1 SLOAD PUSH2 0x798 SWAP1 PUSH2 0x21F5 JUMP JUMPDEST DUP1 PUSH1 0x1F ADD PUSH1 0x20 DUP1 SWAP2 DIV MUL PUSH1 0x20 ADD PUSH1 0x40 MLOAD SWAP1 DUP2 ADD PUSH1 0x40 MSTORE DUP1 SWAP3 SWAP2 SWAP1 DUP2 DUP2 MSTORE PUSH1 0x20 ADD DUP3 DUP1 SLOAD PUSH2 0x7C4 SWAP1 PUSH2 0x21F5 JUMP JUMPDEST DUP1 ISZERO PUSH2 0x811 JUMPI DUP1 PUSH1 0x1F LT PUSH2 0x7E6 JUMPI PUSH2 0x100 DUP1 DUP4 SLOAD DIV MUL DUP4 MSTORE SWAP2 PUSH1 0x20 ADD SWAP2 PUSH2 0x811 JUMP JUMPDEST DUP3 ADD SWAP2 SWAP1 PUSH1 0x0 MSTORE PUSH1 0x20 PUSH1 0x0 KECCAK256 SWAP1 JUMPDEST DUP2 SLOAD DUP2 MSTORE SWAP1 PUSH1 0x1 ADD SWAP1 PUSH1 0x20 ADD DUP1 DUP4 GT PUSH2 0x7F4 JUMPI DUP3 SWAP1 SUB PUSH1 0x1F AND DUP3 ADD SWAP2 JUMPDEST POP POP POP POP POP DUP2 MSTORE PUSH1 0x20 ADD PUSH1 0x1 DUP3 ADD DUP1 SLOAD PUSH2 0x82A SWAP1 PUSH2 0x21F5 JUMP JUMPDEST DUP1 PUSH1 0x1F ADD PUSH1 0x20 DUP1 SWAP2 DIV MUL PUSH1 0x20 ADD PUSH1 0x40 MLOAD SWAP1 DUP2 ADD PUSH1 0x40 MSTORE DUP1 SWAP3 SWAP2 SWAP1 DUP2 DUP2 MSTORE PUSH1 0x20 ADD DUP3 DUP1 SLOAD PUSH2 0x856 SWAP1 PUSH2 0x21F5 JUMP JUMPDEST DUP1 ISZERO PUSH2 0x8A3 JUMPI DUP1 PUSH1 0x1F LT PUSH2 0x878 JUMPI PUSH2 0x100 DUP1 DUP4 SLOAD DIV MUL DUP4 MSTORE SWAP2 PUSH1 0x20 ADD SWAP2 PUSH2 0x8A3 JUMP JUMPDEST DUP3 ADD SWAP2 SWAP1 PUSH1 0x0 MSTORE PUSH1 0x20 PUSH1 0x0 KECCAK256 SWAP1 JUMPDEST DUP2 SLOAD DUP2 MSTORE SWAP1 PUSH1 0x1 ADD SWAP1 PUSH1 0x20 ADD DUP1 DUP4 GT PUSH2 0x886 JUMPI DUP3 SWAP1 SUB PUSH1 0x1F AND DUP3 ADD SWAP2 JUMPDEST POP POP POP POP POP DUP2 MSTORE PUSH1 0x20 ADD PUSH1 0x2 DUP3 ADD SLOAD DUP2 MSTORE PUSH1 0x20 ADD PUSH1 0x3 DUP3 ADD DUP1 SLOAD PUSH2 0x8C6 SWAP1 PUSH2 0x21F5 JUMP JUMPDEST DUP1 PUSH1 0x1F ADD PUSH1 0x20 DUP1 SWAP2 DIV MUL PUSH1 0x20 ADD PUSH1 0x40 MLOAD SWAP1 DUP2 ADD PUSH1 0x40 MSTORE DUP1 SWAP3 SWAP2 SWAP1 DUP2 DUP2 MSTORE PUSH1 0x20 ADD DUP3 DUP1 SLOAD PUSH2 0x8F2 SWAP1 PUSH2 0x21F5 JUMP JUMPDEST DUP1 ISZERO PUSH2 0x93F JUMPI DUP1 PUSH1 0x1F LT PUSH2 0x914 JUMPI PUSH2 0x100 DUP1 DUP4 SLOAD DIV MUL DUP4 MSTORE SWAP2 PUSH1 0x20 ADD SWAP2 PUSH2 0x93F JUMP JUMPDEST DUP3 ADD SWAP2 SWAP1 PUSH1 0x0 MSTORE PUSH1 0x20 PUSH1 0x0 KECCAK256 SWAP1 JUMPDEST DUP2 SLOAD DUP2 MSTORE SWAP1 PUSH1 0x1 ADD SWAP1 PUSH1 0x20 ADD DUP1 DUP4 GT PUSH2 0x922 JUMPI DUP3 SWAP1 SUB PUSH1 0x1F AND DUP3 ADD SWAP2 JUMPDEST POP POP POP POP POP DUP2 MSTORE PUSH1 0x20 ADD PUSH1 0x4 DUP3 ADD DUP1 SLOAD PUSH2 0x958 SWAP1 PUSH2 0x21F5 JUMP JUMPDEST DUP1 PUSH1 0x1F ADD PUSH1 0x20 DUP1 SWAP2 DIV MUL PUSH1 0x20 ADD PUSH1 0x40 MLOAD SWAP1 DUP2 ADD PUSH1 0x40 MSTORE DUP1 SWAP3 SWAP2 SWAP1 DUP2 DUP2 MSTORE PUSH1 0x20 ADD DUP3 DUP1 SLOAD PUSH2 0x984 SWAP1 PUSH2 0x21F5 JUMP JUMPDEST DUP1 ISZERO PUSH2 0x9D1 JUMPI DUP1 PUSH1 0x1F LT PUSH2 0x9A6 JUMPI PUSH2 0x100 DUP1 DUP4 SLOAD DIV MUL DUP4 MSTORE SWAP2 PUSH1 0x20 ADD SWAP2 PUSH2 0x9D1 JUMP JUMPDEST DUP3 ADD SWAP2 SWAP1 PUSH1 0x0 MSTORE PUSH1 0x20 PUSH1 0x0 KECCAK256 SWAP1 JUMPDEST DUP2 SLOAD DUP2 MSTORE SWAP1 PUSH1 0x1 ADD SWAP1 PUSH1 0x20 ADD DUP1 DUP4 GT PUSH2 0x9B4 JUMPI DUP3 SWAP1 SUB PUSH1 0x1F AND DUP3 ADD SWAP2 JUMPDEST POP POP POP POP POP DUP2 MSTORE PUSH1 0x20 ADD PUSH1 0x5 DUP3 ADD PUSH1 0x0 SWAP1 SLOAD SWAP1 PUSH2 0x100 EXP SWAP1 DIV PUSH1 0xFF AND ISZERO ISZERO ISZERO ISZERO DUP2 MSTORE POP POP DUP2 MSTORE PUSH1 0x20 ADD SWAP1 PUSH1 0x1 ADD SWAP1 PUSH2 0x765 JUMP JUMPDEST POP POP POP POP SWAP2 POP POP SWAP2 SWAP1 POP JUMP JUMPDEST PUSH1 0x0 PUSH1 0x1 DUP6 PUSH1 0x40 MLOAD PUSH2 0xA22 SWAP2 SWAP1 PUSH2 0x21AF JUMP JUMPDEST SWAP1 DUP2 MSTORE PUSH1 0x20 ADD PUSH1 0x40 MLOAD DUP1 SWAP2 SUB SWAP1 KECCAK256 SWAP1 POP DUP6 DUP2 PUSH1 0x0 ADD SWAP1 DUP2 PUSH2 0xA43 SWAP2 SWAP1 PUSH2 0x23D2 JUMP JUMPDEST POP DUP5 DUP2 PUSH1 0x1 ADD SWAP1 DUP2 PUSH2 0xA55 SWAP2 SWAP1 PUSH2 0x23D2 JUMP JUMPDEST POP DUP4 DUP2 PUSH1 0x2 ADD DUP2 SWAP1 SSTORE POP DUP3 DUP2 PUSH1 0x7 ADD SWAP1 DUP2 PUSH2 0xA70 SWAP2 SWAP1 PUSH2 0x23D2 JUMP JUMPDEST POP DUP2 DUP2 PUSH1 0x8 ADD SWAP1 DUP2 PUSH2 0xA82 SWAP2 SWAP1 PUSH2 0x23D2 JUMP JUMPDEST POP POP POP POP POP POP POP JUMP JUMPDEST PUSH1 0x0 PUSH1 0x1 DUP5 PUSH1 0x40 MLOAD PUSH2 0xA9D SWAP2 SWAP1 PUSH2 0x21AF JUMP JUMPDEST SWAP1 DUP2 MSTORE PUSH1 0x20 ADD PUSH1 0x40 MLOAD DUP1 SWAP2 SUB SWAP1 KECCAK256 SWAP1 POP PUSH1 0x0 DUP2 PUSH1 0x6 ADD SLOAD SWAP1 POP PUSH1 0x40 MLOAD DUP1 PUSH1 0x40 ADD PUSH1 0x40 MSTORE DUP1 DUP6 DUP2 MSTORE PUSH1 0x20 ADD DUP5 DUP2 MSTORE POP DUP3 PUSH1 0x5 ADD PUSH1 0x0 DUP4 DUP2 MSTORE PUSH1 0x20 ADD SWAP1 DUP2 MSTORE PUSH1 0x20 ADD PUSH1 0x0 KECCAK256 PUSH1 0x0 DUP3 ADD MLOAD DUP2 PUSH1 0x0 ADD SWAP1 DUP2 PUSH2 0xAF5 SWAP2 SWAP1 PUSH2 0x23D2 JUMP JUMPDEST POP PUSH1 0x20 DUP3 ADD MLOAD DUP2 PUSH1 0x1 ADD SWAP1 DUP2 PUSH2 0xB0B SWAP2 SWAP1 PUSH2 0x23D2 JUMP JUMPDEST POP SWAP1 POP POP DUP2 PUSH1 0x6 ADD PUSH1 0x0 DUP2 SLOAD DUP1 SWAP3 SWAP2 SWAP1 PUSH2 0xB24 SWAP1 PUSH2 0x2502 JUMP JUMPDEST SWAP2 SWAP1 POP SSTORE POP POP POP POP POP POP JUMP JUMPDEST PUSH1 0x60 DUP1 PUSH1 0x0 PUSH1 0x60 DUP1 PUSH1 0x0 PUSH1 0x1 DUP8 PUSH1 0x40 MLOAD PUSH2 0xB4A SWAP2 SWAP1 PUSH2 0x21AF JUMP JUMPDEST SWAP1 DUP2 MSTORE PUSH1 0x20 ADD PUSH1 0x40 MLOAD DUP1 SWAP2 SUB SWAP1 KECCAK256 SWAP1 POP DUP1 PUSH1 0x0 ADD DUP2 PUSH1 0x1 ADD DUP3 PUSH1 0x2 ADD SLOAD DUP4 PUSH1 0x7 ADD DUP5 PUSH1 0x8 ADD DUP5 DUP1 SLOAD PUSH2 0xB7B SWAP1 PUSH2 0x21F5 JUMP JUMPDEST DUP1 PUSH1 0x1F ADD PUSH1 0x20 DUP1 SWAP2 DIV MUL PUSH1 0x20 ADD PUSH1 0x40 MLOAD SWAP1 DUP2 ADD PUSH1 0x40 MSTORE DUP1 SWAP3 SWAP2 SWAP1 DUP2 DUP2 MSTORE PUSH1 0x20 ADD DUP3 DUP1 SLOAD PUSH2 0xBA7 SWAP1 PUSH2 0x21F5 JUMP JUMPDEST DUP1 ISZERO PUSH2 0xBF4 JUMPI DUP1 PUSH1 0x1F LT PUSH2 0xBC9 JUMPI PUSH2 0x100 DUP1 DUP4 SLOAD DIV MUL DUP4 MSTORE SWAP2 PUSH1 0x20 ADD SWAP2 PUSH2 0xBF4 JUMP JUMPDEST DUP3 ADD SWAP2 SWAP1 PUSH1 0x0 MSTORE PUSH1 0x20 PUSH1 0x0 KECCAK256 SWAP1 JUMPDEST DUP2 SLOAD DUP2 MSTORE SWAP1 PUSH1 0x1 ADD SWAP1 PUSH1 0x20 ADD DUP1 DUP4 GT PUSH2 0xBD7 JUMPI DUP3 SWAP1 SUB PUSH1 0x1F AND DUP3 ADD SWAP2 JUMPDEST POP POP POP POP POP SWAP5 POP DUP4 DUP1 SLOAD PUSH2 0xC07 SWAP1 PUSH2 0x21F5 JUMP JUMPDEST DUP1 PUSH1 0x1F ADD PUSH1 0x20 DUP1 SWAP2 DIV MUL PUSH1 0x20 ADD PUSH1 0x40 MLOAD SWAP1 DUP2 ADD PUSH1 0x40 MSTORE DUP1 SWAP3 SWAP2 SWAP1 DUP2 DUP2 MSTORE PUSH1 0x20 ADD DUP3 DUP1 SLOAD PUSH2 0xC33 SWAP1 PUSH2 0x21F5 JUMP JUMPDEST DUP1 ISZERO PUSH2 0xC80 JUMPI DUP1 PUSH1 0x1F LT PUSH2 0xC55 JUMPI PUSH2 0x100 DUP1 DUP4 SLOAD DIV MUL DUP4 MSTORE SWAP2 PUSH1 0x20 ADD SWAP2 PUSH2 0xC80 JUMP JUMPDEST DUP3 ADD SWAP2 SWAP1 PUSH1 0x0 MSTORE PUSH1 0x20 PUSH1 0x0 KECCAK256 SWAP1 JUMPDEST DUP2 SLOAD DUP2 MSTORE SWAP1 PUSH1 0x1 ADD SWAP1 PUSH1 0x20 ADD DUP1 DUP4 GT PUSH2 0xC63 JUMPI DUP3 SWAP1 SUB PUSH1 0x1F AND DUP3 ADD SWAP2 JUMPDEST POP POP POP POP POP SWAP4 POP DUP2 DUP1 SLOAD PUSH2 0xC93 SWAP1 PUSH2 0x21F5 JUMP JUMPDEST DUP1 PUSH1 0x1F ADD PUSH1 0x20 DUP1 SWAP2 DIV MUL PUSH1 0x20 ADD PUSH1 0x40 MLOAD SWAP1 DUP2 ADD PUSH1 0x40 MSTORE DUP1 SWAP3 SWAP2 SWAP1 DUP2 DUP2 MSTORE PUSH1 0x20 ADD DUP3 DUP1 SLOAD PUSH2 0xCBF SWAP1 PUSH2 0x21F5 JUMP JUMPDEST DUP1 ISZERO PUSH2 0xD0C JUMPI DUP1 PUSH1 0x1F LT PUSH2 0xCE1 JUMPI PUSH2 0x100 DUP1 DUP4 SLOAD DIV MUL DUP4 MSTORE SWAP2 PUSH1 0x20 ADD SWAP2 PUSH2 0xD0C JUMP JUMPDEST DUP3 ADD SWAP2 SWAP1 PUSH1 0x0 MSTORE PUSH1 0x20 PUSH1 0x0 KECCAK256 SWAP1 JUMPDEST DUP2 SLOAD DUP2 MSTORE SWAP1 PUSH1 0x1 ADD SWAP1 PUSH1 0x20 ADD DUP1 DUP4 GT PUSH2 0xCEF JUMPI DUP3 SWAP1 SUB PUSH1 0x1F AND DUP3 ADD SWAP2 JUMPDEST POP POP POP POP POP SWAP2 POP DUP1 DUP1 SLOAD PUSH2 0xD1F SWAP1 PUSH2 0x21F5 JUMP JUMPDEST DUP1 PUSH1 0x1F ADD PUSH1 0x20 DUP1 SWAP2 DIV MUL PUSH1 0x20 ADD PUSH1 0x40 MLOAD SWAP1 DUP2 ADD PUSH1 0x40 MSTORE DUP1 SWAP3 SWAP2 SWAP1 DUP2 DUP2 MSTORE PUSH1 0x20 ADD DUP3 DUP1 SLOAD PUSH2 0xD4B SWAP1 PUSH2 0x21F5 JUMP JUMPDEST DUP1 ISZERO PUSH2 0xD98 JUMPI DUP1 PUSH1 0x1F LT PUSH2 0xD6D JUMPI PUSH2 0x100 DUP1 DUP4 SLOAD DIV MUL DUP4 MSTORE SWAP2 PUSH1 0x20 ADD SWAP2 PUSH2 0xD98 JUMP JUMPDEST DUP3 ADD SWAP2 SWAP1 PUSH1 0x0 MSTORE PUSH1 0x20 PUSH1 0x0 KECCAK256 SWAP1 JUMPDEST DUP2 SLOAD DUP2 MSTORE SWAP1 PUSH1 0x1 ADD SWAP1 PUSH1 0x20 ADD DUP1 DUP4 GT PUSH2 0xD7B JUMPI DUP3 SWAP1 SUB PUSH1 0x1F AND DUP3 ADD SWAP2 JUMPDEST POP POP POP POP POP SWAP1 POP SWAP6 POP SWAP6 POP SWAP6 POP SWAP6 POP SWAP6 POP POP SWAP2 SWAP4 SWAP6 SWAP1 SWAP3 SWAP5 POP JUMP JUMPDEST PUSH1 0x60 DUP1 PUSH1 0x60 PUSH1 0x0 PUSH1 0x2 DUP6 PUSH1 0x40 MLOAD PUSH2 0xDCA SWAP2 SWAP1 PUSH2 0x21AF JUMP JUMPDEST SWAP1 DUP2 MSTORE PUSH1 0x20 ADD PUSH1 0x40 MLOAD DUP1 SWAP2 SUB SWAP1 KECCAK256 SWAP1 POP DUP1 PUSH1 0x0 ADD DUP2 PUSH1 0x1 ADD DUP3 PUSH1 0x2 ADD DUP3 DUP1 SLOAD DUP1 PUSH1 0x20 MUL PUSH1 0x20 ADD PUSH1 0x40 MLOAD SWAP1 DUP2 ADD PUSH1 0x40 MSTORE DUP1 SWAP3 SWAP2 SWAP1 DUP2 DUP2 MSTORE PUSH1 0x20 ADD PUSH1 0x0 SWAP1 JUMPDEST DUP3 DUP3 LT ISZERO PUSH2 0xEB3 JUMPI DUP4 DUP3 SWAP1 PUSH1 0x0 MSTORE PUSH1 0x20 PUSH1 0x0 KECCAK256 ADD DUP1 SLOAD PUSH2 0xE26 SWAP1 PUSH2 0x21F5 JUMP JUMPDEST DUP1 PUSH1 0x1F ADD PUSH1 0x20 DUP1 SWAP2 DIV MUL PUSH1 0x20 ADD PUSH1 0x40 MLOAD SWAP1 DUP2 ADD PUSH1 0x40 MSTORE DUP1 SWAP3 SWAP2 SWAP1 DUP2 DUP2 MSTORE PUSH1 0x20 ADD DUP3 DUP1 SLOAD PUSH2 0xE52 SWAP1 PUSH2 0x21F5 JUMP JUMPDEST DUP1 ISZERO PUSH2 0xE9F JUMPI DUP1 PUSH1 0x1F LT PUSH2 0xE74 JUMPI PUSH2 0x100 DUP1 DUP4 SLOAD DIV MUL DUP4 MSTORE SWAP2 PUSH1 0x20 ADD SWAP2 PUSH2 0xE9F JUMP JUMPDEST DUP3 ADD SWAP2 SWAP1 PUSH1 0x0 MSTORE PUSH1 0x20 PUSH1 0x0 KECCAK256 SWAP1 JUMPDEST DUP2 SLOAD DUP2 MSTORE SWAP1 PUSH1 0x1 ADD SWAP1 PUSH1 0x20 ADD DUP1 DUP4 GT PUSH2 0xE82 JUMPI DUP3 SWAP1 SUB PUSH1 0x1F AND DUP3 ADD SWAP2 JUMPDEST POP POP POP POP POP DUP2 MSTORE PUSH1 0x20 ADD SWAP1 PUSH1 0x1 ADD SWAP1 PUSH2 0xE07 JUMP JUMPDEST POP POP POP POP SWAP3 POP DUP2 DUP1 SLOAD DUP1 PUSH1 0x20 MUL PUSH1 0x20 ADD PUSH1 0x40 MLOAD SWAP1 DUP2 ADD PUSH1 0x40 MSTORE DUP1 SWAP3 SWAP2 SWAP1 DUP2 DUP2 MSTORE PUSH1 0x20 ADD PUSH1 0x0 SWAP1 JUMPDEST DUP3 DUP3 LT ISZERO PUSH2 0xF86 JUMPI DUP4 DUP3 SWAP1 PUSH1 0x0 MSTORE PUSH1 0x20 PUSH1 0x0 KECCAK256 ADD DUP1 SLOAD PUSH2 0xEF9 SWAP1 PUSH2 0x21F5 JUMP JUMPDEST DUP1 PUSH1 0x1F ADD PUSH1 0x20 DUP1 SWAP2 DIV MUL PUSH1 0x20 ADD PUSH1 0x40 MLOAD SWAP1 DUP2 ADD PUSH1 0x40 MSTORE DUP1 SWAP3 SWAP2 SWAP1 DUP2 DUP2 MSTORE PUSH1 0x20 ADD DUP3 DUP1 SLOAD PUSH2 0xF25 SWAP1 PUSH2 0x21F5 JUMP JUMPDEST DUP1 ISZERO PUSH2 0xF72 JUMPI DUP1 PUSH1 0x1F LT PUSH2 0xF47 JUMPI PUSH2 0x100 DUP1 DUP4 SLOAD DIV MUL DUP4 MSTORE SWAP2 PUSH1 0x20 ADD SWAP2 PUSH2 0xF72 JUMP JUMPDEST DUP3 ADD SWAP2 SWAP1 PUSH1 0x0 MSTORE PUSH1 0x20 PUSH1 0x0 KECCAK256 SWAP1 JUMPDEST DUP2 SLOAD DUP2 MSTORE SWAP1 PUSH1 0x1 ADD SWAP1 PUSH1 0x20 ADD DUP1 DUP4 GT PUSH2 0xF55 JUMPI DUP3 SWAP1 SUB PUSH1 0x1F AND DUP3 ADD SWAP2 JUMPDEST POP POP POP POP POP DUP2 MSTORE PUSH1 0x20 ADD SWAP1 PUSH1 0x1 ADD SWAP1 PUSH2 0xEDA JUMP JUMPDEST POP POP POP POP SWAP2 POP DUP1 DUP1 SLOAD DUP1 PUSH1 0x20 MUL PUSH1 0x20 ADD PUSH1 0x40 MLOAD SWAP1 DUP2 ADD PUSH1 0x40 MSTORE DUP1 SWAP3 SWAP2 SWAP1 DUP2 DUP2 MSTORE PUSH1 0x20 ADD PUSH1 0x0 SWAP1 JUMPDEST DUP3 DUP3 LT ISZERO PUSH2 0x1059 JUMPI DUP4 DUP3 SWAP1 PUSH1 0x0 MSTORE PUSH1 0x20 PUSH1 0x0 KECCAK256 ADD DUP1 SLOAD PUSH2 0xFCC SWAP1 PUSH2 0x21F5 JUMP JUMPDEST DUP1 PUSH1 0x1F ADD PUSH1 0x20 DUP1 SWAP2 DIV MUL PUSH1 0x20 ADD PUSH1 0x40 MLOAD SWAP1 DUP2 ADD PUSH1 0x40 MSTORE DUP1 SWAP3 SWAP2 SWAP1 DUP2 DUP2 MSTORE PUSH1 0x20 ADD DUP3 DUP1 SLOAD PUSH2 0xFF8 SWAP1 PUSH2 0x21F5 JUMP JUMPDEST DUP1 ISZERO PUSH2 0x1045 JUMPI DUP1 PUSH1 0x1F LT PUSH2 0x101A JUMPI PUSH2 0x100 DUP1 DUP4 SLOAD DIV MUL DUP4 MSTORE SWAP2 PUSH1 0x20 ADD SWAP2 PUSH2 0x1045 JUMP JUMPDEST DUP3 ADD SWAP2 SWAP1 PUSH1 0x0 MSTORE PUSH1 0x20 PUSH1 0x0 KECCAK256 SWAP1 JUMPDEST DUP2 SLOAD DUP2 MSTORE SWAP1 PUSH1 0x1 ADD SWAP1 PUSH1 0x20 ADD DUP1 DUP4 GT PUSH2 0x1028 JUMPI DUP3 SWAP1 SUB PUSH1 0x1F AND DUP3 ADD SWAP2 JUMPDEST POP POP POP POP POP DUP2 MSTORE PUSH1 0x20 ADD SWAP1 PUSH1 0x1 ADD SWAP1 PUSH2 0xFAD JUMP JUMPDEST POP POP POP POP SWAP1 POP SWAP4 POP SWAP4 POP SWAP4 POP POP SWAP2 SWAP4 SWAP1 SWAP3 POP JUMP JUMPDEST CALLER PUSH20 0xFFFFFFFFFFFFFFFFFFFFFFFFFFFFFFFFFFFFFFFF AND PUSH1 0x0 DUP1 CALLER PUSH20 0xFFFFFFFFFFFFFFFFFFFFFFFFFFFFFFFFFFFFFFFF AND PUSH20 0xFFFFFFFFFFFFFFFFFFFFFFFFFFFFFFFFFFFFFFFF AND DUP2 MSTORE PUSH1 0x20 ADD SWAP1 DUP2 MSTORE PUSH1 0x20 ADD PUSH1 0x0 KECCAK256 PUSH1 0x0 ADD PUSH1 0x0 SWAP1 SLOAD SWAP1 PUSH2 0x100 EXP SWAP1 DIV PUSH20 0xFFFFFFFFFFFFFFFFFFFFFFFFFFFFFFFFFFFFFFFF AND PUSH20 0xFFFFFFFFFFFFFFFFFFFFFFFFFFFFFFFFFFFFFFFF AND EQ PUSH2 0x113C JUMPI PUSH1 0x40 MLOAD PUSH32 0x8C379A000000000000000000000000000000000000000000000000000000000 DUP2 MSTORE PUSH1 0x4 ADD PUSH2 0x1133 SWAP1 PUSH2 0x25BC JUMP JUMPDEST PUSH1 0x40 MLOAD DUP1 SWAP2 SUB SWAP1 REVERT JUMPDEST PUSH1 0x40 MLOAD DUP1 PUSH1 0x60 ADD PUSH1 0x40 MSTORE DUP1 DUP5 DUP2 MSTORE PUSH1 0x20 ADD DUP4 DUP2 MSTORE PUSH1 0x20 ADD DUP3 DUP2 MSTORE POP PUSH1 0x2 DUP6 PUSH1 0x40 MLOAD PUSH2 0x1167 SWAP2 SWAP1 PUSH2 0x21AF JUMP JUMPDEST SWAP1 DUP2 MSTORE PUSH1 0x20 ADD PUSH1 0x40 MLOAD DUP1 SWAP2 SUB SWAP1 KECCAK256 PUSH1 0x0 DUP3 ADD MLOAD DUP2 PUSH1 0x0 ADD SWAP1 DUP1 MLOAD SWAP1 PUSH1 0x20 ADD SWAP1 PUSH2 0x1191 SWAP3 SWAP2 SWAP1 PUSH2 0x13D5 JUMP JUMPDEST POP PUSH1 0x20 DUP3 ADD MLOAD DUP2 PUSH1 0x1 ADD SWAP1 DUP1 MLOAD SWAP1 PUSH1 0x20 ADD SWAP1 PUSH2 0x11AE SWAP3 SWAP2 SWAP1 PUSH2 0x13D5 JUMP JUMPDEST POP PUSH1 0x40 DUP3 ADD MLOAD DUP2 PUSH1 0x2 ADD SWAP1 DUP1 MLOAD SWAP1 PUSH1 0x20 ADD SWAP1 PUSH2 0x11CB SWAP3 SWAP2 SWAP1 PUSH2 0x13D5 JUMP JUMPDEST POP SWAP1 POP POP POP POP POP POP JUMP JUMPDEST PUSH1 0x60 PUSH1 0x0 DUP1 PUSH1 0x0 DUP1 PUSH1 0x1 DUP8 PUSH1 0x40 MLOAD PUSH2 0x11ED SWAP2 SWAP1 PUSH2 0x21AF JUMP JUMPDEST SWAP1 DUP2 MSTORE PUSH1 0x20 ADD PUSH1 0x40 MLOAD DUP1 SWAP2 SUB SWAP1 KECCAK256 SWAP1 POP PUSH1 0x0 DUP2 PUSH1 0x3 ADD PUSH1 0x0 DUP9 DUP2 MSTORE PUSH1 0x20 ADD SWAP1 DUP2 MSTORE PUSH1 0x20 ADD PUSH1 0x0 KECCAK256 SWAP1 POP DUP1 PUSH1 0x0 ADD DUP2 PUSH1 0x1 ADD SLOAD DUP3 PUSH1 0x2 ADD SLOAD DUP4 PUSH1 0x3 ADD SLOAD DUP4 DUP1 SLOAD PUSH2 0x1235 SWAP1 PUSH2 0x21F5 JUMP JUMPDEST DUP1 PUSH1 0x1F ADD PUSH1 0x20 DUP1 SWAP2 DIV MUL PUSH1 0x20 ADD PUSH1 0x40 MLOAD SWAP1 DUP2 ADD PUSH1 0x40 MSTORE DUP1 SWAP3 SWAP2 SWAP1 DUP2 DUP2 MSTORE PUSH1 0x20 ADD DUP3 DUP1 SLOAD PUSH2 0x1261 SWAP1 PUSH2 0x21F5 JUMP JUMPDEST DUP1 ISZERO PUSH2 0x12AE JUMPI DUP1 PUSH1 0x1F LT PUSH2 0x1283 JUMPI PUSH2 0x100 DUP1 DUP4 SLOAD DIV MUL DUP4 MSTORE SWAP2 PUSH1 0x20 ADD SWAP2 PUSH2 0x12AE JUMP JUMPDEST DUP3 ADD SWAP2 SWAP1 PUSH1 0x0 MSTORE PUSH1 0x20 PUSH1 0x0 KECCAK256 SWAP1 JUMPDEST DUP2 SLOAD DUP2 MSTORE SWAP1 PUSH1 0x1 ADD SWAP1 PUSH1 0x20 ADD DUP1 DUP4 GT PUSH2 0x1291 JUMPI DUP3 SWAP1 SUB PUSH1 0x1F AND DUP3 ADD SWAP2 JUMPDEST POP POP POP POP POP SWAP4 POP SWAP6 POP SWAP6 POP SWAP6 POP SWAP6 POP POP POP SWAP3 SWAP6 SWAP2 SWAP5 POP SWAP3 POP JUMP JUMPDEST PUSH1 0x60 PUSH1 0x0 DUP1 PUSH1 0x0 DUP1 PUSH1 0x1 DUP8 PUSH1 0x40 MLOAD PUSH2 0x12E0 SWAP2 SWAP1 PUSH2 0x21AF JUMP JUMPDEST SWAP1 DUP2 MSTORE PUSH1 0x20 ADD PUSH1 0x40 MLOAD DUP1 SWAP2 SUB SWAP1 KECCAK256 SWAP1 POP PUSH1 0x0 DUP2 PUSH1 0x4 ADD PUSH1 0x0 DUP9 DUP2 MSTORE PUSH1 0x20 ADD SWAP1 DUP2 MSTORE PUSH1 0x20 ADD PUSH1 0x0 KECCAK256 SWAP1 POP DUP1 PUSH1 0x0 ADD DUP2 PUSH1 0x1 ADD PUSH1 0x0 SWAP1 SLOAD SWAP1 PUSH2 0x100 EXP SWAP1 DIV PUSH1 0xFF AND DUP3 PUSH1 0x1 ADD PUSH1 0x1 SWAP1 SLOAD SWAP1 PUSH2 0x100 EXP SWAP1 DIV PUSH1 0xFF AND DUP4 PUSH1 0x2 ADD SLOAD DUP4 DUP1 SLOAD PUSH2 0x1342 SWAP1 PUSH2 0x21F5 JUMP JUMPDEST DUP1 PUSH1 0x1F ADD PUSH1 0x20 DUP1 SWAP2 DIV MUL PUSH1 0x20 ADD PUSH1 0x40 MLOAD SWAP1 DUP2 ADD PUSH1 0x40 MSTORE DUP1 SWAP3 SWAP2 SWAP1 DUP2 DUP2 MSTORE PUSH1 0x20 ADD DUP3 DUP1 SLOAD PUSH2 0x136E SWAP1 PUSH2 0x21F5 JUMP JUMPDEST DUP1 ISZERO PUSH2 0x13BB JUMPI DUP1 PUSH1 0x1F LT PUSH2 0x1390 JUMPI PUSH2 0x100 DUP1 DUP4 SLOAD DIV MUL DUP4 MSTORE SWAP2 PUSH1 0x20 ADD SWAP2 PUSH2 0x13BB JUMP JUMPDEST DUP3 ADD SWAP2 SWAP1 PUSH1 0x0 MSTORE PUSH1 0x20 PUSH1 0x0 KECCAK256 SWAP1 JUMPDEST DUP2 SLOAD DUP2 MSTORE SWAP1 PUSH1 0x1 ADD SWAP1 PUSH1 0x20 ADD DUP1 DUP4 GT PUSH2 0x139E JUMPI DUP3 SWAP1 SUB PUSH1 0x1F AND DUP3 ADD SWAP2 JUMPDEST POP POP POP POP POP SWAP4 POP SWAP6 POP SWAP6 POP SWAP6 POP SWAP6 POP POP POP SWAP3 SWAP6 SWAP2 SWAP5 POP SWAP3 POP JUMP JUMPDEST DUP3 DUP1 SLOAD DUP3 DUP3 SSTORE SWAP1 PUSH1 0x0 MSTORE PUSH1 0x20 PUSH1 0x0 KECCAK256 SWAP1 DUP2 ADD SWAP3 DUP3 ISZERO PUSH2 0x141D JUMPI SWAP2 PUSH1 0x20 MUL DUP3 ADD JUMPDEST DUP3 DUP2 GT ISZERO PUSH2 0x141C JUMPI DUP3 MLOAD DUP3 SWAP1 DUP2 PUSH2 0x140C SWAP2 SWAP1 PUSH2 0x23D2 JUMP JUMPDEST POP SWAP2 PUSH1 0x20 ADD SWAP2 SWAP1 PUSH1 0x1 ADD SWAP1 PUSH2 0x13F5 JUMP JUMPDEST JUMPDEST POP SWAP1 POP PUSH2 0x142A SWAP2 SWAP1 PUSH2 0x142E JUMP JUMPDEST POP SWAP1 JUMP JUMPDEST JUMPDEST DUP1 DUP3 GT ISZERO PUSH2 0x144E JUMPI PUSH1 0x0 DUP2 DUP2 PUSH2 0x1445 SWAP2 SWAP1 PUSH2 0x1452 JUMP JUMPDEST POP PUSH1 0x1 ADD PUSH2 0x142F JUMP JUMPDEST POP SWAP1 JUMP JUMPDEST POP DUP1 SLOAD PUSH2 0x145E SWAP1 PUSH2 0x21F5 JUMP JUMPDEST PUSH1 0x0 DUP3 SSTORE DUP1 PUSH1 0x1F LT PUSH2 0x1470 JUMPI POP PUSH2 0x148F JUMP JUMPDEST PUSH1 0x1F ADD PUSH1 0x20 SWAP1 DIV SWAP1 PUSH1 0x0 MSTORE PUSH1 0x20 PUSH1 0x0 KECCAK256 SWAP1 DUP2 ADD SWAP1 PUSH2 0x148E SWAP2 SWAP1 PUSH2 0x1492 JUMP JUMPDEST JUMPDEST POP JUMP JUMPDEST JUMPDEST DUP1 DUP3 GT ISZERO PUSH2 0x14AB JUMPI PUSH1 0x0 DUP2 PUSH1 0x0 SWAP1 SSTORE POP PUSH1 0x1 ADD PUSH2 0x1493 JUMP JUMPDEST POP SWAP1 JUMP JUMPDEST PUSH1 0x0 PUSH1 0x40 MLOAD SWAP1 POP SWAP1 JUMP JUMPDEST PUSH1 0x0 DUP1 REVERT JUMPDEST PUSH1 0x0 DUP1 REVERT JUMPDEST PUSH1 0x0 DUP1 REVERT JUMPDEST PUSH1 0x0 DUP1 REVERT JUMPDEST PUSH1 0x0 PUSH1 0x1F NOT PUSH1 0x1F DUP4 ADD AND SWAP1 POP SWAP2 SWAP1 POP JUMP JUMPDEST PUSH32 0x4E487B7100000000000000000000000000000000000000000000000000000000 PUSH1 0x0 MSTORE PUSH1 0x41 PUSH1 0x4 MSTORE PUSH1 0x24 PUSH1 0x0 REVERT JUMPDEST PUSH2 0x1516 DUP3 PUSH2 0x14CD JUMP JUMPDEST DUP2 ADD DUP2 DUP2 LT PUSH8 0xFFFFFFFFFFFFFFFF DUP3 GT OR ISZERO PUSH2 0x1535 JUMPI PUSH2 0x1534 PUSH2 0x14DE JUMP JUMPDEST JUMPDEST DUP1 PUSH1 0x40 MSTORE POP POP POP JUMP JUMPDEST PUSH1 0x0 PUSH2 0x1548 PUSH2 0x14AF JUMP JUMPDEST SWAP1 POP PUSH2 0x1554 DUP3 DUP3 PUSH2 0x150D JUMP JUMPDEST SWAP2 SWAP1 POP JUMP JUMPDEST PUSH1 0x0 PUSH8 0xFFFFFFFFFFFFFFFF DUP3 GT ISZERO PUSH2 0x1574 JUMPI PUSH2 0x1573 PUSH2 0x14DE JUMP JUMPDEST JUMPDEST PUSH2 0x157D DUP3 PUSH2 0x14CD JUMP JUMPDEST SWAP1 POP PUSH1 0x20 DUP2 ADD SWAP1 POP SWAP2 SWAP1 POP JUMP JUMPDEST DUP3 DUP2 DUP4 CALLDATACOPY PUSH1 0x0 DUP4 DUP4 ADD MSTORE POP POP POP JUMP JUMPDEST PUSH1 0x0 PUSH2 0x15AC PUSH2 0x15A7 DUP5 PUSH2 0x1559 JUMP JUMPDEST PUSH2 0x153E JUMP JUMPDEST SWAP1 POP DUP3 DUP2 MSTORE PUSH1 0x20 DUP2 ADD DUP5 DUP5 DUP5 ADD GT ISZERO PUSH2 0x15C8 JUMPI PUSH2 0x15C7 PUSH2 0x14C8 JUMP JUMPDEST JUMPDEST PUSH2 0x15D3 DUP5 DUP3 DUP6 PUSH2 0x158A JUMP JUMPDEST POP SWAP4 SWAP3 POP POP POP JUMP JUMPDEST PUSH1 0x0 DUP3 PUSH1 0x1F DUP4 ADD SLT PUSH2 0x15F0 JUMPI PUSH2 0x15EF PUSH2 0x14C3 JUMP JUMPDEST JUMPDEST DUP2 CALLDATALOAD PUSH2 0x1600 DUP5 DUP3 PUSH1 0x20 DUP7 ADD PUSH2 0x1599 JUMP JUMPDEST SWAP2 POP POP SWAP3 SWAP2 POP POP JUMP JUMPDEST PUSH1 0x0 DUP2 SWAP1 POP SWAP2 SWAP1 POP JUMP JUMPDEST PUSH2 0x161C DUP2 PUSH2 0x1609 JUMP JUMPDEST DUP2 EQ PUSH2 0x1627 JUMPI PUSH1 0x0 DUP1 REVERT JUMPDEST POP JUMP JUMPDEST PUSH1 0x0 DUP2 CALLDATALOAD SWAP1 POP PUSH2 0x1639 DUP2 PUSH2 0x1613 JUMP JUMPDEST SWAP3 SWAP2 POP POP JUMP JUMPDEST PUSH1 0x0 DUP2 ISZERO ISZERO SWAP1 POP SWAP2 SWAP1 POP JUMP JUMPDEST PUSH2 0x1654 DUP2 PUSH2 0x163F JUMP JUMPDEST DUP2 EQ PUSH2 0x165F JUMPI PUSH1 0x0 DUP1 REVERT JUMPDEST POP JUMP JUMPDEST PUSH1 0x0 DUP2 CALLDATALOAD SWAP1 POP PUSH2 0x1671 DUP2 PUSH2 0x164B JUMP JUMPDEST SWAP3 SWAP2 POP POP JUMP JUMPDEST PUSH1 0x0 DUP1 PUSH1 0x0 DUP1 PUSH1 0x0 DUP1 PUSH1 0x0 PUSH1 0xE0 DUP9 DUP11 SUB SLT ISZERO PUSH2 0x1696 JUMPI PUSH2 0x1695 PUSH2 0x14B9 JUMP JUMPDEST JUMPDEST PUSH1 0x0 DUP9 ADD CALLDATALOAD PUSH8 0xFFFFFFFFFFFFFFFF DUP2 GT ISZERO PUSH2 0x16B4 JUMPI PUSH2 0x16B3 PUSH2 0x14BE JUMP JUMPDEST JUMPDEST PUSH2 0x16C0 DUP11 DUP3 DUP12 ADD PUSH2 0x15DB JUMP JUMPDEST SWAP8 POP POP PUSH1 0x20 DUP9 ADD CALLDATALOAD PUSH8 0xFFFFFFFFFFFFFFFF DUP2 GT ISZERO PUSH2 0x16E1 JUMPI PUSH2 0x16E0 PUSH2 0x14BE JUMP JUMPDEST JUMPDEST PUSH2 0x16ED DUP11 DUP3 DUP12 ADD PUSH2 0x15DB JUMP JUMPDEST SWAP7 POP POP PUSH1 0x40 DUP9 ADD CALLDATALOAD PUSH8 0xFFFFFFFFFFFFFFFF DUP2 GT ISZERO PUSH2 0x170E JUMPI PUSH2 0x170D PUSH2 0x14BE JUMP JUMPDEST JUMPDEST PUSH2 0x171A DUP11 DUP3 DUP12 ADD PUSH2 0x15DB JUMP JUMPDEST SWAP6 POP POP PUSH1 0x60 PUSH2 0x172B DUP11 DUP3 DUP12 ADD PUSH2 0x162A JUMP JUMPDEST SWAP5 POP POP PUSH1 0x80 DUP9 ADD CALLDATALOAD PUSH8 0xFFFFFFFFFFFFFFFF DUP2 GT ISZERO PUSH2 0x174C JUMPI PUSH2 0x174B PUSH2 0x14BE JUMP JUMPDEST JUMPDEST PUSH2 0x1758 DUP11 DUP3 DUP12 ADD PUSH2 0x15DB JUMP JUMPDEST SWAP4 POP POP PUSH1 0xA0 DUP9 ADD CALLDATALOAD PUSH8 0xFFFFFFFFFFFFFFFF DUP2 GT ISZERO PUSH2 0x1779 JUMPI PUSH2 0x1778 PUSH2 0x14BE JUMP JUMPDEST JUMPDEST PUSH2 0x1785 DUP11 DUP3 DUP12 ADD PUSH2 0x15DB JUMP JUMPDEST SWAP3 POP POP PUSH1 0xC0 PUSH2 0x1796 DUP11 DUP3 DUP12 ADD PUSH2 0x1662 JUMP JUMPDEST SWAP2 POP POP SWAP3 SWAP6 SWAP9 SWAP2 SWAP5 SWAP8 POP SWAP3 SWAP6 POP JUMP JUMPDEST PUSH1 0x0 DUP1 PUSH1 0x0 DUP1 PUSH1 0x0 PUSH1 0xA0 DUP7 DUP9 SUB SLT ISZERO PUSH2 0x17C1 JUMPI PUSH2 0x17C0 PUSH2 0x14B9 JUMP JUMPDEST JUMPDEST PUSH1 0x0 DUP7 ADD CALLDATALOAD PUSH8 0xFFFFFFFFFFFFFFFF DUP2 GT ISZERO PUSH2 0x17DF JUMPI PUSH2 0x17DE PUSH2 0x14BE JUMP JUMPDEST JUMPDEST PUSH2 0x17EB DUP9 DUP3 DUP10 ADD PUSH2 0x15DB JUMP JUMPDEST SWAP6 POP POP PUSH1 0x20 DUP7 ADD CALLDATALOAD PUSH8 0xFFFFFFFFFFFFFFFF DUP2 GT ISZERO PUSH2 0x180C JUMPI PUSH2 0x180B PUSH2 0x14BE JUMP JUMPDEST JUMPDEST PUSH2 0x1818 DUP9 DUP3 DUP10 ADD PUSH2 0x15DB JUMP JUMPDEST SWAP5 POP POP PUSH1 0x40 DUP7 ADD CALLDATALOAD PUSH8 0xFFFFFFFFFFFFFFFF DUP2 GT ISZERO PUSH2 0x1839 JUMPI PUSH2 0x1838 PUSH2 0x14BE JUMP JUMPDEST JUMPDEST PUSH2 0x1845 DUP9 DUP3 DUP10 ADD PUSH2 0x15DB JUMP JUMPDEST SWAP4 POP POP PUSH1 0x60 DUP7 ADD CALLDATALOAD PUSH8 0xFFFFFFFFFFFFFFFF DUP2 GT ISZERO PUSH2 0x1866 JUMPI PUSH2 0x1865 PUSH2 0x14BE JUMP JUMPDEST JUMPDEST PUSH2 0x1872 DUP9 DUP3 DUP10 ADD PUSH2 0x15DB JUMP JUMPDEST SWAP3 POP POP PUSH1 0x80 DUP7 ADD CALLDATALOAD PUSH8 0xFFFFFFFFFFFFFFFF DUP2 GT ISZERO PUSH2 0x1893 JUMPI PUSH2 0x1892 PUSH2 0x14BE JUMP JUMPDEST JUMPDEST PUSH2 0x189F DUP9 DUP3 DUP10 ADD PUSH2 0x15DB JUMP JUMPDEST SWAP2 POP POP SWAP3 SWAP6 POP SWAP3 SWAP6 SWAP1 SWAP4 POP JUMP JUMPDEST PUSH1 0x0 PUSH1 0x20 DUP3 DUP5 SUB SLT ISZERO PUSH2 0x18C2 JUMPI PUSH2 0x18C1 PUSH2 0x14B9 JUMP JUMPDEST JUMPDEST PUSH1 0x0 DUP3 ADD CALLDATALOAD PUSH8 0xFFFFFFFFFFFFFFFF DUP2 GT ISZERO PUSH2 0x18E0 JUMPI PUSH2 0x18DF PUSH2 0x14BE JUMP JUMPDEST JUMPDEST PUSH2 0x18EC DUP5 DUP3 DUP6 ADD PUSH2 0x15DB JUMP JUMPDEST SWAP2 POP POP SWAP3 SWAP2 POP POP JUMP JUMPDEST PUSH1 0x0 DUP2 MLOAD SWAP1 POP SWAP2 SWAP1 POP JUMP JUMPDEST PUSH1 0x0 DUP3 DUP3 MSTORE PUSH1 0x20 DUP3 ADD SWAP1 POP SWAP3 SWAP2 POP POP JUMP JUMPDEST PUSH1 0x0 DUP2 SWAP1 POP PUSH1 0x20 DUP3 ADD SWAP1 POP SWAP2 SWAP1 POP JUMP JUMPDEST PUSH1 0x0 DUP2 MLOAD SWAP1 POP SWAP2 SWAP1 POP JUMP JUMPDEST PUSH1 0x0 DUP3 DUP3 MSTORE PUSH1 0x20 DUP3 ADD SWAP1 POP SWAP3 SWAP2 POP POP JUMP JUMPDEST PUSH1 0x0 JUMPDEST DUP4 DUP2 LT ISZERO PUSH2 0x195B JUMPI DUP1 DUP3 ADD MLOAD DUP2 DUP5 ADD MSTORE PUSH1 0x20 DUP2 ADD SWAP1 POP PUSH2 0x1940 JUMP JUMPDEST PUSH1 0x0 DUP5 DUP5 ADD MSTORE POP POP POP POP JUMP JUMPDEST PUSH1 0x0 PUSH2 0x1972 DUP3 PUSH2 0x1921 JUMP JUMPDEST PUSH2 0x197C DUP2 DUP6 PUSH2 0x192C JUMP JUMPDEST SWAP4 POP PUSH2 0x198C DUP2 DUP6 PUSH1 0x20 DUP7 ADD PUSH2 0x193D JUMP JUMPDEST PUSH2 0x1995 DUP2 PUSH2 0x14CD JUMP JUMPDEST DUP5 ADD SWAP2 POP POP SWAP3 SWAP2 POP POP JUMP JUMPDEST PUSH1 0x0 PUSH2 0x19AC DUP4 DUP4 PUSH2 0x1967 JUMP JUMPDEST SWAP1 POP SWAP3 SWAP2 POP POP JUMP JUMPDEST PUSH1 0x0 PUSH1 0x20 DUP3 ADD SWAP1 POP SWAP2 SWAP1 POP JUMP JUMPDEST PUSH1 0x0 PUSH2 0x19CC DUP3 PUSH2 0x18F5 JUMP JUMPDEST PUSH2 0x19D6 DUP2 DUP6 PUSH2 0x1900 JUMP JUMPDEST SWAP4 POP DUP4 PUSH1 0x20 DUP3 MUL DUP6 ADD PUSH2 0x19E8 DUP6 PUSH2 0x1911 JUMP JUMPDEST DUP1 PUSH1 0x0 JUMPDEST DUP6 DUP2 LT ISZERO PUSH2 0x1A24 JUMPI DUP5 DUP5 SUB DUP10 MSTORE DUP2 MLOAD PUSH2 0x1A05 DUP6 DUP3 PUSH2 0x19A0 JUMP JUMPDEST SWAP5 POP PUSH2 0x1A10 DUP4 PUSH2 0x19B4 JUMP JUMPDEST SWAP3 POP PUSH1 0x20 DUP11 ADD SWAP10 POP POP PUSH1 0x1 DUP2 ADD SWAP1 POP PUSH2 0x19EC JUMP JUMPDEST POP DUP3 SWAP8 POP DUP8 SWAP6 POP POP POP POP POP POP SWAP3 SWAP2 POP POP JUMP JUMPDEST PUSH1 0x0 PUSH1 0x40 DUP3 ADD SWAP1 POP DUP2 DUP2 SUB PUSH1 0x0 DUP4 ADD MSTORE PUSH2 0x1A50 DUP2 DUP6 PUSH2 0x19C1 JUMP JUMPDEST SWAP1 POP DUP2 DUP2 SUB PUSH1 0x20 DUP4 ADD MSTORE PUSH2 0x1A64 DUP2 DUP5 PUSH2 0x19C1 JUMP JUMPDEST SWAP1 POP SWAP4 SWAP3 POP POP POP JUMP JUMPDEST PUSH1 0x0 DUP2 MLOAD SWAP1 POP SWAP2 SWAP1 POP JUMP JUMPDEST PUSH1 0x0 DUP3 DUP3 MSTORE PUSH1 0x20 DUP3 ADD SWAP1 POP SWAP3 SWAP2 POP POP JUMP JUMPDEST PUSH1 0x0 DUP2 SWAP1 POP PUSH1 0x20 DUP3 ADD SWAP1 POP SWAP2 SWAP1 POP JUMP JUMPDEST PUSH2 0x1AA2 DUP2 PUSH2 0x1609 JUMP JUMPDEST DUP3 MSTORE POP POP JUMP JUMPDEST PUSH2 0x1AB1 DUP2 PUSH2 0x163F JUMP JUMPDEST DUP3 MSTORE POP POP JUMP JUMPDEST PUSH1 0x0 PUSH1 0xC0 DUP4 ADD PUSH1 0x0 DUP4 ADD MLOAD DUP5 DUP3 SUB PUSH1 0x0 DUP7 ADD MSTORE PUSH2 0x1AD4 DUP3 DUP3 PUSH2 0x1967 JUMP JUMPDEST SWAP2 POP POP PUSH1 0x20 DUP4 ADD MLOAD DUP5 DUP3 SUB PUSH1 0x20 DUP7 ADD MSTORE PUSH2 0x1AEE DUP3 DUP3 PUSH2 0x1967 JUMP JUMPDEST SWAP2 POP POP PUSH1 0x40 DUP4 ADD MLOAD PUSH2 0x1B03 PUSH1 0x40 DUP7 ADD DUP3 PUSH2 0x1A99 JUMP JUMPDEST POP PUSH1 0x60 DUP4 ADD MLOAD DUP5 DUP3 SUB PUSH1 0x60 DUP7 ADD MSTORE PUSH2 0x1B1B DUP3 DUP3 PUSH2 0x1967 JUMP JUMPDEST SWAP2 POP POP PUSH1 0x80 DUP4 ADD MLOAD DUP5 DUP3 SUB PUSH1 0x80 DUP7 ADD MSTORE PUSH2 0x1B35 DUP3 DUP3 PUSH2 0x1967 JUMP JUMPDEST SWAP2 POP POP PUSH1 0xA0 DUP4 ADD MLOAD PUSH2 0x1B4A PUSH1 0xA0 DUP7 ADD DUP3 PUSH2 0x1AA8 JUMP JUMPDEST POP DUP1 SWAP2 POP POP SWAP3 SWAP2 POP POP JUMP JUMPDEST PUSH1 0x0 PUSH2 0x1B61 DUP4 DUP4 PUSH2 0x1AB7 JUMP JUMPDEST SWAP1 POP SWAP3 SWAP2 POP POP JUMP JUMPDEST PUSH1 0x0 PUSH1 0x20 DUP3 ADD SWAP1 POP SWAP2 SWAP1 POP JUMP JUMPDEST PUSH1 0x0 PUSH2 0x1B81 DUP3 PUSH2 0x1A6D JUMP JUMPDEST PUSH2 0x1B8B DUP2 DUP6 PUSH2 0x1A78 JUMP JUMPDEST SWAP4 POP DUP4 PUSH1 0x20 DUP3 MUL DUP6 ADD PUSH2 0x1B9D DUP6 PUSH2 0x1A89 JUMP JUMPDEST DUP1 PUSH1 0x0 JUMPDEST DUP6 DUP2 LT ISZERO PUSH2 0x1BD9 JUMPI DUP5 DUP5 SUB DUP10 MSTORE DUP2 MLOAD PUSH2 0x1BBA DUP6 DUP3 PUSH2 0x1B55 JUMP JUMPDEST SWAP5 POP PUSH2 0x1BC5 DUP4 PUSH2 0x1B69 JUMP JUMPDEST SWAP3 POP PUSH1 0x20 DUP11 ADD SWAP10 POP POP PUSH1 0x1 DUP2 ADD SWAP1 POP PUSH2 0x1BA1 JUMP JUMPDEST POP DUP3 SWAP8 POP DUP8 SWAP6 POP POP POP POP POP POP SWAP3 SWAP2 POP POP JUMP JUMPDEST PUSH1 0x0 PUSH1 0x20 DUP3 ADD SWAP1 POP DUP2 DUP2 SUB PUSH1 0x0 DUP4 ADD MSTORE PUSH2 0x1C05 DUP2 DUP5 PUSH2 0x1B76 JUMP JUMPDEST SWAP1 POP SWAP3 SWAP2 POP POP JUMP JUMPDEST PUSH1 0x0 DUP1 PUSH1 0x0 DUP1 PUSH1 0x0 PUSH1 0xA0 DUP7 DUP9 SUB SLT ISZERO PUSH2 0x1C29 JUMPI PUSH2 0x1C28 PUSH2 0x14B9 JUMP JUMPDEST JUMPDEST PUSH1 0x0 DUP7 ADD CALLDATALOAD PUSH8 0xFFFFFFFFFFFFFFFF DUP2 GT ISZERO PUSH2 0x1C47 JUMPI PUSH2 0x1C46 PUSH2 0x14BE JUMP JUMPDEST JUMPDEST PUSH2 0x1C53 DUP9 DUP3 DUP10 ADD PUSH2 0x15DB JUMP JUMPDEST SWAP6 POP POP PUSH1 0x20 DUP7 ADD CALLDATALOAD PUSH8 0xFFFFFFFFFFFFFFFF DUP2 GT ISZERO PUSH2 0x1C74 JUMPI PUSH2 0x1C73 PUSH2 0x14BE JUMP JUMPDEST JUMPDEST PUSH2 0x1C80 DUP9 DUP3 DUP10 ADD PUSH2 0x15DB JUMP JUMPDEST SWAP5 POP POP PUSH1 0x40 PUSH2 0x1C91 DUP9 DUP3 DUP10 ADD PUSH2 0x162A JUMP JUMPDEST SWAP4 POP POP PUSH1 0x60 DUP7 ADD CALLDATALOAD PUSH8 0xFFFFFFFFFFFFFFFF DUP2 GT ISZERO PUSH2 0x1CB2 JUMPI PUSH2 0x1CB1 PUSH2 0x14BE JUMP JUMPDEST JUMPDEST PUSH2 0x1CBE DUP9 DUP3 DUP10 ADD PUSH2 0x15DB JUMP JUMPDEST SWAP3 POP POP PUSH1 0x80 DUP7 ADD CALLDATALOAD PUSH8 0xFFFFFFFFFFFFFFFF DUP2 GT ISZERO PUSH2 0x1CDF JUMPI PUSH2 0x1CDE PUSH2 0x14BE JUMP JUMPDEST JUMPDEST PUSH2 0x1CEB DUP9 DUP3 DUP10 ADD PUSH2 0x15DB JUMP JUMPDEST SWAP2 POP POP SWAP3 SWAP6 POP SWAP3 SWAP6 SWAP1 SWAP4 POP JUMP JUMPDEST PUSH1 0x0 DUP1 PUSH1 0x0 PUSH1 0x60 DUP5 DUP7 SUB SLT ISZERO PUSH2 0x1D11 JUMPI PUSH2 0x1D10 PUSH2 0x14B9 JUMP JUMPDEST JUMPDEST PUSH1 0x0 DUP5 ADD CALLDATALOAD PUSH8 0xFFFFFFFFFFFFFFFF DUP2 GT ISZERO PUSH2 0x1D2F JUMPI PUSH2 0x1D2E PUSH2 0x14BE JUMP JUMPDEST JUMPDEST PUSH2 0x1D3B DUP7 DUP3 DUP8 ADD PUSH2 0x15DB JUMP JUMPDEST SWAP4 POP POP PUSH1 0x20 DUP5 ADD CALLDATALOAD PUSH8 0xFFFFFFFFFFFFFFFF DUP2 GT ISZERO PUSH2 0x1D5C JUMPI PUSH2 0x1D5B PUSH2 0x14BE JUMP JUMPDEST JUMPDEST PUSH2 0x1D68 DUP7 DUP3 DUP8 ADD PUSH2 0x15DB JUMP JUMPDEST SWAP3 POP POP PUSH1 0x40 DUP5 ADD CALLDATALOAD PUSH8 0xFFFFFFFFFFFFFFFF DUP2 GT ISZERO PUSH2 0x1D89 JUMPI PUSH2 0x1D88 PUSH2 0x14BE JUMP JUMPDEST JUMPDEST PUSH2 0x1D95 DUP7 DUP3 DUP8 ADD PUSH2 0x15DB JUMP JUMPDEST SWAP2 POP POP SWAP3 POP SWAP3 POP SWAP3 JUMP JUMPDEST PUSH1 0x0 DUP3 DUP3 MSTORE PUSH1 0x20 DUP3 ADD SWAP1 POP SWAP3 SWAP2 POP POP JUMP JUMPDEST PUSH1 0x0 PUSH2 0x1DBB DUP3 PUSH2 0x1921 JUMP JUMPDEST PUSH2 0x1DC5 DUP2 DUP6 PUSH2 0x1D9F JUMP JUMPDEST SWAP4 POP PUSH2 0x1DD5 DUP2 DUP6 PUSH1 0x20 DUP7 ADD PUSH2 0x193D JUMP JUMPDEST PUSH2 0x1DDE DUP2 PUSH2 0x14CD JUMP JUMPDEST DUP5 ADD SWAP2 POP POP SWAP3 SWAP2 POP POP JUMP JUMPDEST PUSH2 0x1DF2 DUP2 PUSH2 0x1609 JUMP JUMPDEST DUP3 MSTORE POP POP JUMP JUMPDEST PUSH1 0x0 PUSH1 0xA0 DUP3 ADD SWAP1 POP DUP2 DUP2 SUB PUSH1 0x0 DUP4 ADD MSTORE PUSH2 0x1E12 DUP2 DUP9 PUSH2 0x1DB0 JUMP JUMPDEST SWAP1 POP DUP2 DUP2 SUB PUSH1 0x20 DUP4 ADD MSTORE PUSH2 0x1E26 DUP2 DUP8 PUSH2 0x1DB0 JUMP JUMPDEST SWAP1 POP PUSH2 0x1E35 PUSH1 0x40 DUP4 ADD DUP7 PUSH2 0x1DE9 JUMP JUMPDEST DUP2 DUP2 SUB PUSH1 0x60 DUP4 ADD MSTORE PUSH2 0x1E47 DUP2 DUP6 PUSH2 0x1DB0 JUMP JUMPDEST SWAP1 POP DUP2 DUP2 SUB PUSH1 0x80 DUP4 ADD MSTORE PUSH2 0x1E5B DUP2 DUP5 PUSH2 0x1DB0 JUMP JUMPDEST SWAP1 POP SWAP7 SWAP6 POP POP POP POP POP POP JUMP JUMPDEST PUSH1 0x0 PUSH1 0x60 DUP3 ADD SWAP1 POP DUP2 DUP2 SUB PUSH1 0x0 DUP4 ADD MSTORE PUSH2 0x1E81 DUP2 DUP7 PUSH2 0x19C1 JUMP JUMPDEST SWAP1 POP DUP2 DUP2 SUB PUSH1 0x20 DUP4 ADD MSTORE PUSH2 0x1E95 DUP2 DUP6 PUSH2 0x19C1 JUMP JUMPDEST SWAP1 POP DUP2 DUP2 SUB PUSH1 0x40 DUP4 ADD MSTORE PUSH2 0x1EA9 DUP2 DUP5 PUSH2 0x19C1 JUMP JUMPDEST SWAP1 POP SWAP5 SWAP4 POP POP POP POP JUMP JUMPDEST PUSH1 0x0 PUSH8 0xFFFFFFFFFFFFFFFF DUP3 GT ISZERO PUSH2 0x1ECE JUMPI PUSH2 0x1ECD PUSH2 0x14DE JUMP JUMPDEST JUMPDEST PUSH1 0x20 DUP3 MUL SWAP1 POP PUSH1 0x20 DUP2 ADD SWAP1 POP SWAP2 SWAP1 POP JUMP JUMPDEST PUSH1 0x0 DUP1 REVERT JUMPDEST PUSH1 0x0 PUSH2 0x1EF7 PUSH2 0x1EF2 DUP5 PUSH2 0x1EB3 JUMP JUMPDEST PUSH2 0x153E JUMP JUMPDEST SWAP1 POP DUP1 DUP4 DUP3 MSTORE PUSH1 0x20 DUP3 ADD SWAP1 POP PUSH1 0x20 DUP5 MUL DUP4 ADD DUP6 DUP2 GT ISZERO PUSH2 0x1F1A JUMPI PUSH2 0x1F19 PUSH2 0x1EDF JUMP JUMPDEST JUMPDEST DUP4 JUMPDEST DUP2 DUP2 LT ISZERO PUSH2 0x1F61 JUMPI DUP1 CALLDATALOAD PUSH8 0xFFFFFFFFFFFFFFFF DUP2 GT ISZERO PUSH2 0x1F3F JUMPI PUSH2 0x1F3E PUSH2 0x14C3 JUMP JUMPDEST JUMPDEST DUP1 DUP7 ADD PUSH2 0x1F4C DUP10 DUP3 PUSH2 0x15DB JUMP JUMPDEST DUP6 MSTORE PUSH1 0x20 DUP6 ADD SWAP5 POP POP POP PUSH1 0x20 DUP2 ADD SWAP1 POP PUSH2 0x1F1C JUMP JUMPDEST POP POP POP SWAP4 SWAP3 POP POP POP JUMP JUMPDEST PUSH1 0x0 DUP3 PUSH1 0x1F DUP4 ADD SLT PUSH2 0x1F80 JUMPI PUSH2 0x1F7F PUSH2 0x14C3 JUMP JUMPDEST JUMPDEST DUP2 CALLDATALOAD PUSH2 0x1F90 DUP5 DUP3 PUSH1 0x20 DUP7 ADD PUSH2 0x1EE4 JUMP JUMPDEST SWAP2 POP POP SWAP3 SWAP2 POP POP JUMP JUMPDEST PUSH1 0x0 DUP1 PUSH1 0x0 DUP1 PUSH1 0x80 DUP6 DUP8 SUB SLT ISZERO PUSH2 0x1FB3 JUMPI PUSH2 0x1FB2 PUSH2 0x14B9 JUMP JUMPDEST JUMPDEST PUSH1 0x0 DUP6 ADD CALLDATALOAD PUSH8 0xFFFFFFFFFFFFFFFF DUP2 GT ISZERO PUSH2 0x1FD1 JUMPI PUSH2 0x1FD0 PUSH2 0x14BE JUMP JUMPDEST JUMPDEST PUSH2 0x1FDD DUP8 DUP3 DUP9 ADD PUSH2 0x15DB JUMP JUMPDEST SWAP5 POP POP PUSH1 0x20 DUP6 ADD CALLDATALOAD PUSH8 0xFFFFFFFFFFFFFFFF DUP2 GT ISZERO PUSH2 0x1FFE JUMPI PUSH2 0x1FFD PUSH2 0x14BE JUMP JUMPDEST JUMPDEST PUSH2 0x200A DUP8 DUP3 DUP9 ADD PUSH2 0x1F6B JUMP JUMPDEST SWAP4 POP POP PUSH1 0x40 DUP6 ADD CALLDATALOAD PUSH8 0xFFFFFFFFFFFFFFFF DUP2 GT ISZERO PUSH2 0x202B JUMPI PUSH2 0x202A PUSH2 0x14BE JUMP JUMPDEST JUMPDEST PUSH2 0x2037 DUP8 DUP3 DUP9 ADD PUSH2 0x1F6B JUMP JUMPDEST SWAP3 POP POP PUSH1 0x60 DUP6 ADD CALLDATALOAD PUSH8 0xFFFFFFFFFFFFFFFF DUP2 GT ISZERO PUSH2 0x2058 JUMPI PUSH2 0x2057 PUSH2 0x14BE JUMP JUMPDEST JUMPDEST PUSH2 0x2064 DUP8 DUP3 DUP9 ADD PUSH2 0x1F6B JUMP JUMPDEST SWAP2 POP POP SWAP3 SWAP6 SWAP2 SWAP5 POP SWAP3 POP JUMP JUMPDEST PUSH1 0x0 DUP1 PUSH1 0x40 DUP4 DUP6 SUB SLT ISZERO PUSH2 0x2087 JUMPI PUSH2 0x2086 PUSH2 0x14B9 JUMP JUMPDEST JUMPDEST PUSH1 0x0 DUP4 ADD CALLDATALOAD PUSH8 0xFFFFFFFFFFFFFFFF DUP2 GT ISZERO PUSH2 0x20A5 JUMPI PUSH2 0x20A4 PUSH2 0x14BE JUMP JUMPDEST JUMPDEST PUSH2 0x20B1 DUP6 DUP3 DUP7 ADD PUSH2 0x15DB JUMP JUMPDEST SWAP3 POP POP PUSH1 0x20 PUSH2 0x20C2 DUP6 DUP3 DUP7 ADD PUSH2 0x162A JUMP JUMPDEST SWAP2 POP POP SWAP3 POP SWAP3 SWAP1 POP JUMP JUMPDEST PUSH1 0x0 PUSH1 0x80 DUP3 ADD SWAP1 POP DUP2 DUP2 SUB PUSH1 0x0 DUP4 ADD MSTORE PUSH2 0x20E6 DUP2 DUP8 PUSH2 0x1DB0 JUMP JUMPDEST SWAP1 POP PUSH2 0x20F5 PUSH1 0x20 DUP4 ADD DUP7 PUSH2 0x1DE9 JUMP JUMPDEST PUSH2 0x2102 PUSH1 0x40 DUP4 ADD DUP6 PUSH2 0x1DE9 JUMP JUMPDEST PUSH2 0x210F PUSH1 0x60 DUP4 ADD DUP5 PUSH2 0x1DE9 JUMP JUMPDEST SWAP6 SWAP5 POP POP POP POP POP JUMP JUMPDEST PUSH2 0x2121 DUP2 PUSH2 0x163F JUMP JUMPDEST DUP3 MSTORE POP POP JUMP JUMPDEST PUSH1 0x0 PUSH1 0x80 DUP3 ADD SWAP1 POP DUP2 DUP2 SUB PUSH1 0x0 DUP4 ADD MSTORE PUSH2 0x2141 DUP2 DUP8 PUSH2 0x1DB0 JUMP JUMPDEST SWAP1 POP PUSH2 0x2150 PUSH1 0x20 DUP4 ADD DUP7 PUSH2 0x2118 JUMP JUMPDEST PUSH2 0x215D PUSH1 0x40 DUP4 ADD DUP6 PUSH2 0x2118 JUMP JUMPDEST PUSH2 0x216A PUSH1 0x60 DUP4 ADD DUP5 PUSH2 0x1DE9 JUMP JUMPDEST SWAP6 SWAP5 POP POP POP POP POP JUMP JUMPDEST PUSH1 0x0 DUP2 SWAP1 POP SWAP3 SWAP2 POP POP JUMP JUMPDEST PUSH1 0x0 PUSH2 0x2189 DUP3 PUSH2 0x1921 JUMP JUMPDEST PUSH2 0x2193 DUP2 DUP6 PUSH2 0x2173 JUMP JUMPDEST SWAP4 POP PUSH2 0x21A3 DUP2 DUP6 PUSH1 0x20 DUP7 ADD PUSH2 0x193D JUMP JUMPDEST DUP1 DUP5 ADD SWAP2 POP POP SWAP3 SWAP2 POP POP JUMP JUMPDEST PUSH1 0x0 PUSH2 0x21BB DUP3 DUP5 PUSH2 0x217E JUMP JUMPDEST SWAP2 POP DUP2 SWAP1 POP SWAP3 SWAP2 POP POP JUMP JUMPDEST PUSH32 0x4E487B7100000000000000000000000000000000000000000000000000000000 PUSH1 0x0 MSTORE PUSH1 0x22 PUSH1 0x4 MSTORE PUSH1 0x24 PUSH1 0x0 REVERT JUMPDEST PUSH1 0x0 PUSH1 0x2 DUP3 DIV SWAP1 POP PUSH1 0x1 DUP3 AND DUP1 PUSH2 0x220D JUMPI PUSH1 0x7F DUP3 AND SWAP2 POP JUMPDEST PUSH1 0x20 DUP3 LT DUP2 SUB PUSH2 0x2220 JUMPI PUSH2 0x221F PUSH2 0x21C6 JUMP JUMPDEST JUMPDEST POP SWAP2 SWAP1 POP JUMP JUMPDEST PUSH1 0x0 DUP2 SWAP1 POP DUP2 PUSH1 0x0 MSTORE PUSH1 0x20 PUSH1 0x0 KECCAK256 SWAP1 POP SWAP2 SWAP1 POP JUMP JUMPDEST PUSH1 0x0 PUSH1 0x20 PUSH1 0x1F DUP4 ADD DIV SWAP1 POP SWAP2 SWAP1 POP JUMP JUMPDEST PUSH1 0x0 DUP3 DUP3 SHL SWAP1 POP SWAP3 SWAP2 POP POP JUMP JUMPDEST PUSH1 0x0 PUSH1 0x8 DUP4 MUL PUSH2 0x2288 PUSH32 0xFFFFFFFFFFFFFFFFFFFFFFFFFFFFFFFFFFFFFFFFFFFFFFFFFFFFFFFFFFFFFFFF DUP3 PUSH2 0x224B JUMP JUMPDEST PUSH2 0x2292 DUP7 DUP4 PUSH2 0x224B JUMP JUMPDEST SWAP6 POP DUP1 NOT DUP5 AND SWAP4 POP DUP1 DUP7 AND DUP5 OR SWAP3 POP POP POP SWAP4 SWAP3 POP POP POP JUMP JUMPDEST PUSH1 0x0 DUP2 SWAP1 POP SWAP2 SWAP1 POP JUMP JUMPDEST PUSH1 0x0 PUSH2 0x22CF PUSH2 0x22CA PUSH2 0x22C5 DUP5 PUSH2 0x1609 JUMP JUMPDEST PUSH2 0x22AA JUMP JUMPDEST PUSH2 0x1609 JUMP JUMPDEST SWAP1 POP SWAP2 SWAP1 POP JUMP JUMPDEST PUSH1 0x0 DUP2 SWAP1 POP SWAP2 SWAP1 POP JUMP JUMPDEST PUSH2 0x22E9 DUP4 PUSH2 0x22B4 JUMP JUMPDEST PUSH2 0x22FD PUSH2 0x22F5 DUP3 PUSH2 0x22D6 JUMP JUMPDEST DUP5 DUP5 SLOAD PUSH2 0x2258 JUMP JUMPDEST DUP3 SSTORE POP POP POP POP JUMP JUMPDEST PUSH1 0x0 SWAP1 JUMP JUMPDEST PUSH2 0x2312 PUSH2 0x2305 JUMP JUMPDEST PUSH2 0x231D DUP2 DUP5 DUP5 PUSH2 0x22E0 JUMP JUMPDEST POP POP POP JUMP JUMPDEST JUMPDEST DUP2 DUP2 LT ISZERO PUSH2 0x2341 JUMPI PUSH2 0x2336 PUSH1 0x0 DUP3 PUSH2 0x230A JUMP JUMPDEST PUSH1 0x1 DUP2 ADD SWAP1 POP PUSH2 0x2323 JUMP JUMPDEST POP POP JUMP JUMPDEST PUSH1 0x1F DUP3 GT ISZERO PUSH2 0x2386 JUMPI PUSH2 0x2357 DUP2 PUSH2 0x2226 JUMP JUMPDEST PUSH2 0x2360 DUP5 PUSH2 0x223B JUMP JUMPDEST DUP2 ADD PUSH1 0x20 DUP6 LT ISZERO PUSH2 0x236F JUMPI DUP2 SWAP1 POP JUMPDEST PUSH2 0x2383 PUSH2 0x237B DUP6 PUSH2 0x223B JUMP JUMPDEST DUP4 ADD DUP3 PUSH2 0x2322 JUMP JUMPDEST POP POP JUMPDEST POP POP POP JUMP JUMPDEST PUSH1 0x0 DUP3 DUP3 SHR SWAP1 POP SWAP3 SWAP2 POP POP JUMP JUMPDEST PUSH1 0x0 PUSH2 0x23A9 PUSH1 0x0 NOT DUP5 PUSH1 0x8 MUL PUSH2 0x238B JUMP JUMPDEST NOT DUP1 DUP4 AND SWAP2 POP POP SWAP3 SWAP2 POP POP JUMP JUMPDEST PUSH1 0x0 PUSH2 0x23C2 DUP4 DUP4 PUSH2 0x2398 JUMP JUMPDEST SWAP2 POP DUP3 PUSH1 0x2 MUL DUP3 OR SWAP1 POP SWAP3 SWAP2 POP POP JUMP JUMPDEST PUSH2 0x23DB DUP3 PUSH2 0x1921 JUMP JUMPDEST PUSH8 0xFFFFFFFFFFFFFFFF DUP2 GT ISZERO PUSH2 0x23F4 JUMPI PUSH2 0x23F3 PUSH2 0x14DE JUMP JUMPDEST JUMPDEST PUSH2 0x23FE DUP3 SLOAD PUSH2 0x21F5 JUMP JUMPDEST PUSH2 0x2409 DUP3 DUP3 DUP6 PUSH2 0x2345 JUMP JUMPDEST PUSH1 0x0 PUSH1 0x20 SWAP1 POP PUSH1 0x1F DUP4 GT PUSH1 0x1 DUP2 EQ PUSH2 0x243C JUMPI PUSH1 0x0 DUP5 ISZERO PUSH2 0x242A JUMPI DUP3 DUP8 ADD MLOAD SWAP1 POP JUMPDEST PUSH2 0x2434 DUP6 DUP3 PUSH2 0x23B6 JUMP JUMPDEST DUP7 SSTORE POP PUSH2 0x249C JUMP JUMPDEST PUSH1 0x1F NOT DUP5 AND PUSH2 0x244A DUP7 PUSH2 0x2226 JUMP JUMPDEST PUSH1 0x0 JUMPDEST DUP3 DUP2 LT ISZERO PUSH2 0x2472 JUMPI DUP5 DUP10 ADD MLOAD DUP3 SSTORE PUSH1 0x1 DUP3 ADD SWAP2 POP PUSH1 0x20 DUP6 ADD SWAP5 POP PUSH1 0x20 DUP2 ADD SWAP1 POP PUSH2 0x244D JUMP JUMPDEST DUP7 DUP4 LT ISZERO PUSH2 0x248F JUMPI DUP5 DUP10 ADD MLOAD PUSH2 0x248B PUSH1 0x1F DUP10 AND DUP3 PUSH2 0x2398 JUMP JUMPDEST DUP4 SSTORE POP JUMPDEST PUSH1 0x1 PUSH1 0x2 DUP9 MUL ADD DUP9 SSTORE POP POP POP JUMPDEST POP POP POP POP POP POP JUMP JUMPDEST PUSH32 0x4E487B7100000000000000000000000000000000000000000000000000000000 PUSH1 0x0 MSTORE PUSH1 0x32 PUSH1 0x4 MSTORE PUSH1 0x24 PUSH1 0x0 REVERT JUMPDEST PUSH32 0x4E487B7100000000000000000000000000000000000000000000000000000000 PUSH1 0x0 MSTORE PUSH1 0x11 PUSH1 0x4 MSTORE PUSH1 0x24 PUSH1 0x0 REVERT JUMPDEST PUSH1 0x0 PUSH2 0x250D DUP3 PUSH2 0x1609 JUMP JUMPDEST SWAP2 POP PUSH32 0xFFFFFFFFFFFFFFFFFFFFFFFFFFFFFFFFFFFFFFFFFFFFFFFFFFFFFFFFFFFFFFFF DUP3 SUB PUSH2 0x253F JUMPI PUSH2 0x253E PUSH2 0x24D3 JUMP JUMPDEST JUMPDEST PUSH1 0x1 DUP3 ADD SWAP1 POP SWAP2 SWAP1 POP JUMP JUMPDEST PUSH32 0x4F6E6C7920617574686F72697A656420646F63746F72732063616E2061636365 PUSH1 0x0 DUP3 ADD MSTORE PUSH32 0x737320746869732066756E6374696F6E00000000000000000000000000000000 PUSH1 0x20 DUP3 ADD MSTORE POP JUMP JUMPDEST PUSH1 0x0 PUSH2 0x25A6 PUSH1 0x30 DUP4 PUSH2 0x1D9F JUMP JUMPDEST SWAP2 POP PUSH2 0x25B1 DUP3 PUSH2 0x254A JUMP JUMPDEST PUSH1 0x40 DUP3 ADD SWAP1 POP SWAP2 SWAP1 POP JUMP JUMPDEST PUSH1 0x0 PUSH1 0x20 DUP3 ADD SWAP1 POP DUP2 DUP2 SUB PUSH1 0x0 DUP4 ADD MSTORE PUSH2 0x25D5 DUP2 PUSH2 0x2599 JUMP JUMPDEST SWAP1 POP SWAP2 SWAP1 POP JUMP INVALID LOG2 PUSH5 0x6970667358 0x22 SLT KECCAK256 JUMPDEST 0x28 0xA5 ADDRESS 0xCB EQ 0xE0 0xD5 0xAC GAS SWAP10 BYTE DUP11 PUSH2 0xF4D7 0x25 GAS DELEGATECALL 0xAE 0xC4 GASPRICE CALLDATALOAD 0x2C 0x4B 0xA9 SWAP14 0xF7 0x4C 0xF8 0x4B SWAP14 PUSH5 0x736F6C6343 STOP ADDMOD SLT STOP CALLER "
				},
				"gasEstimates": {
					"creation": {
						"codeDepositCost": "1949200",
						"executionCost": "2062",
						"totalCost": "1951262"
					},
					"external": {
						"addDoctor(string,string,string,string,string)": "infinite",
						"addPatient(string,string,uint256,string,string)": "infinite",
						"getPatientAllergies(string)": "infinite",
						"getPatientBloodPressure(string,uint256)": "infinite",
						"getPatientInfo(string)": "infinite",
						"getPatientPrescriptions(string)": "infinite",
						"getPatientSugar(string,uint256)": "infinite",
						"getPatientVaccines(string)": "infinite",
						"updateAllergy(string,string[],string[],string[])": "infinite",
						"updatePrescription(string,string,string,uint256,string,string,bool)": "infinite",
						"updateVaccine(string,string,string)": "infinite"
					}
				},
				"methodIdentifiers": {
					"addDoctor(string,string,string,string,string)": "1f56c50a",
					"addPatient(string,string,uint256,string,string)": "3276a2ac",
					"getPatientAllergies(string)": "6df36bc6",
					"getPatientBloodPressure(string,uint256)": "a39a7f20",
					"getPatientInfo(string)": "68cdafb3",
					"getPatientPrescriptions(string)": "2e338def",
					"getPatientSugar(string,uint256)": "e72dc0c1",
					"getPatientVaccines(string)": "29601ed8",
					"updateAllergy(string,string[],string[],string[])": "75b39e2b",
					"updatePrescription(string,string,string,uint256,string,string,bool)": "16c11d68",
					"updateVaccine(string,string,string)": "54506048"
				}
			},
			"storageLayout": {
				"storage": [
					{
						"astId": 97,
						"contract": "contracts/_Database2.sol:MedicalRecords",
						"label": "doctors",
						"offset": 0,
						"slot": "0",
						"type": "t_mapping(t_address,t_struct(Doctor)92_storage)"
					},
					{
						"astId": 102,
						"contract": "contracts/_Database2.sol:MedicalRecords",
						"label": "patients",
						"offset": 0,
						"slot": "1",
						"type": "t_mapping(t_string_memory_ptr,t_struct(Patient)61_storage)"
					},
					{
						"astId": 107,
						"contract": "contracts/_Database2.sol:MedicalRecords",
						"label": "patientAllergies",
						"offset": 0,
						"slot": "2",
						"type": "t_mapping(t_string_memory_ptr,t_struct(Allergies)11_storage)"
					}
				],
				"types": {
					"t_address": {
						"encoding": "inplace",
						"label": "address",
						"numberOfBytes": "20"
					},
					"t_array(t_string_storage)dyn_storage": {
						"base": "t_string_storage",
						"encoding": "dynamic_array",
						"label": "string[]",
						"numberOfBytes": "32"
					},
					"t_array(t_struct(Prescription)29_storage)dyn_storage": {
						"base": "t_struct(Prescription)29_storage",
						"encoding": "dynamic_array",
						"label": "struct MedicalRecords.Prescription[]",
						"numberOfBytes": "32"
					},
					"t_bool": {
						"encoding": "inplace",
						"label": "bool",
						"numberOfBytes": "1"
					},
					"t_mapping(t_address,t_struct(Doctor)92_storage)": {
						"encoding": "mapping",
						"key": "t_address",
						"label": "mapping(address => struct MedicalRecords.Doctor)",
						"numberOfBytes": "32",
						"value": "t_struct(Doctor)92_storage"
					},
					"t_mapping(t_string_memory_ptr,t_struct(Allergies)11_storage)": {
						"encoding": "mapping",
						"key": "t_string_memory_ptr",
						"label": "mapping(string => struct MedicalRecords.Allergies)",
						"numberOfBytes": "32",
						"value": "t_struct(Allergies)11_storage"
					},
					"t_mapping(t_string_memory_ptr,t_struct(Patient)61_storage)": {
						"encoding": "mapping",
						"key": "t_string_memory_ptr",
						"label": "mapping(string => struct MedicalRecords.Patient)",
						"numberOfBytes": "32",
						"value": "t_struct(Patient)61_storage"
					},
					"t_mapping(t_uint256,t_struct(BloodPressure)70_storage)": {
						"encoding": "mapping",
						"key": "t_uint256",
						"label": "mapping(uint256 => struct MedicalRecords.BloodPressure)",
						"numberOfBytes": "32",
						"value": "t_struct(BloodPressure)70_storage"
					},
					"t_mapping(t_uint256,t_struct(Sugar)79_storage)": {
						"encoding": "mapping",
						"key": "t_uint256",
						"label": "mapping(uint256 => struct MedicalRecords.Sugar)",
						"numberOfBytes": "32",
						"value": "t_struct(Sugar)79_storage"
					},
					"t_mapping(t_uint256,t_struct(Vaccine)16_storage)": {
						"encoding": "mapping",
						"key": "t_uint256",
						"label": "mapping(uint256 => struct MedicalRecords.Vaccine)",
						"numberOfBytes": "32",
						"value": "t_struct(Vaccine)16_storage"
					},
					"t_string_memory_ptr": {
						"encoding": "bytes",
						"label": "string",
						"numberOfBytes": "32"
					},
					"t_string_storage": {
						"encoding": "bytes",
						"label": "string",
						"numberOfBytes": "32"
					},
					"t_struct(Allergies)11_storage": {
						"encoding": "inplace",
						"label": "struct MedicalRecords.Allergies",
						"members": [
							{
								"astId": 4,
								"contract": "contracts/_Database2.sol:MedicalRecords",
								"label": "food",
								"offset": 0,
								"slot": "0",
								"type": "t_array(t_string_storage)dyn_storage"
							},
							{
								"astId": 7,
								"contract": "contracts/_Database2.sol:MedicalRecords",
								"label": "medicines",
								"offset": 0,
								"slot": "1",
								"type": "t_array(t_string_storage)dyn_storage"
							},
							{
								"astId": 10,
								"contract": "contracts/_Database2.sol:MedicalRecords",
								"label": "others",
								"offset": 0,
								"slot": "2",
								"type": "t_array(t_string_storage)dyn_storage"
							}
						],
						"numberOfBytes": "96"
					},
					"t_struct(BloodPressure)70_storage": {
						"encoding": "inplace",
						"label": "struct MedicalRecords.BloodPressure",
						"members": [
							{
								"astId": 63,
								"contract": "contracts/_Database2.sol:MedicalRecords",
								"label": "Date",
								"offset": 0,
								"slot": "0",
								"type": "t_string_storage"
							},
							{
								"astId": 65,
								"contract": "contracts/_Database2.sol:MedicalRecords",
								"label": "SP",
								"offset": 0,
								"slot": "1",
								"type": "t_uint256"
							},
							{
								"astId": 67,
								"contract": "contracts/_Database2.sol:MedicalRecords",
								"label": "DP",
								"offset": 0,
								"slot": "2",
								"type": "t_uint256"
							},
							{
								"astId": 69,
								"contract": "contracts/_Database2.sol:MedicalRecords",
								"label": "HB",
								"offset": 0,
								"slot": "3",
								"type": "t_uint256"
							}
						],
						"numberOfBytes": "128"
					},
					"t_struct(Doctor)92_storage": {
						"encoding": "inplace",
						"label": "struct MedicalRecords.Doctor",
						"members": [
							{
								"astId": 81,
								"contract": "contracts/_Database2.sol:MedicalRecords",
								"label": "doctorAddress",
								"offset": 0,
								"slot": "0",
								"type": "t_address"
							},
							{
								"astId": 83,
								"contract": "contracts/_Database2.sol:MedicalRecords",
								"label": "name",
								"offset": 0,
								"slot": "1",
								"type": "t_string_storage"
							},
							{
								"astId": 85,
								"contract": "contracts/_Database2.sol:MedicalRecords",
								"label": "d_id",
								"offset": 0,
								"slot": "2",
								"type": "t_string_storage"
							},
							{
								"astId": 87,
								"contract": "contracts/_Database2.sol:MedicalRecords",
								"label": "hospital",
								"offset": 0,
								"slot": "3",
								"type": "t_string_storage"
							},
							{
								"astId": 89,
								"contract": "contracts/_Database2.sol:MedicalRecords",
								"label": "license",
								"offset": 0,
								"slot": "4",
								"type": "t_string_storage"
							},
							{
								"astId": 91,
								"contract": "contracts/_Database2.sol:MedicalRecords",
								"label": "description",
								"offset": 0,
								"slot": "5",
								"type": "t_string_storage"
							}
						],
						"numberOfBytes": "192"
					},
					"t_struct(Patient)61_storage": {
						"encoding": "inplace",
						"label": "struct MedicalRecords.Patient",
						"members": [
							{
								"astId": 31,
								"contract": "contracts/_Database2.sol:MedicalRecords",
								"label": "name",
								"offset": 0,
								"slot": "0",
								"type": "t_string_storage"
							},
							{
								"astId": 33,
								"contract": "contracts/_Database2.sol:MedicalRecords",
								"label": "p_id",
								"offset": 0,
								"slot": "1",
								"type": "t_string_storage"
							},
							{
								"astId": 35,
								"contract": "contracts/_Database2.sol:MedicalRecords",
								"label": "age",
								"offset": 0,
								"slot": "2",
								"type": "t_uint256"
							},
							{
								"astId": 40,
								"contract": "contracts/_Database2.sol:MedicalRecords",
								"label": "BP",
								"offset": 0,
								"slot": "3",
								"type": "t_mapping(t_uint256,t_struct(BloodPressure)70_storage)"
							},
							{
								"astId": 45,
								"contract": "contracts/_Database2.sol:MedicalRecords",
								"label": "sugar",
								"offset": 0,
								"slot": "4",
								"type": "t_mapping(t_uint256,t_struct(Sugar)79_storage)"
							},
							{
								"astId": 50,
								"contract": "contracts/_Database2.sol:MedicalRecords",
								"label": "vaccines",
								"offset": 0,
								"slot": "5",
								"type": "t_mapping(t_uint256,t_struct(Vaccine)16_storage)"
							},
							{
								"astId": 52,
								"contract": "contracts/_Database2.sol:MedicalRecords",
								"label": "vaccineCount",
								"offset": 0,
								"slot": "6",
								"type": "t_uint256"
							},
							{
								"astId": 54,
								"contract": "contracts/_Database2.sol:MedicalRecords",
								"label": "specialConditions",
								"offset": 0,
								"slot": "7",
								"type": "t_string_storage"
							},
							{
								"astId": 56,
								"contract": "contracts/_Database2.sol:MedicalRecords",
								"label": "bloodGroup",
								"offset": 0,
								"slot": "8",
								"type": "t_string_storage"
							},
							{
								"astId": 60,
								"contract": "contracts/_Database2.sol:MedicalRecords",
								"label": "prescriptions",
								"offset": 0,
								"slot": "9",
								"type": "t_array(t_struct(Prescription)29_storage)dyn_storage"
							}
						],
						"numberOfBytes": "320"
					},
					"t_struct(Prescription)29_storage": {
						"encoding": "inplace",
						"label": "struct MedicalRecords.Prescription",
						"members": [
							{
								"astId": 18,
								"contract": "contracts/_Database2.sol:MedicalRecords",
								"label": "date",
								"offset": 0,
								"slot": "0",
								"type": "t_string_storage"
							},
							{
								"astId": 20,
								"contract": "contracts/_Database2.sol:MedicalRecords",
								"label": "doctorName",
								"offset": 0,
								"slot": "1",
								"type": "t_string_storage"
							},
							{
								"astId": 22,
								"contract": "contracts/_Database2.sol:MedicalRecords",
								"label": "interval",
								"offset": 0,
								"slot": "2",
								"type": "t_uint256"
							},
							{
								"astId": 24,
								"contract": "contracts/_Database2.sol:MedicalRecords",
								"label": "name",
								"offset": 0,
								"slot": "3",
								"type": "t_string_storage"
							},
							{
								"astId": 26,
								"contract": "contracts/_Database2.sol:MedicalRecords",
								"label": "description",
								"offset": 0,
								"slot": "4",
								"type": "t_string_storage"
							},
							{
								"astId": 28,
								"contract": "contracts/_Database2.sol:MedicalRecords",
								"label": "isVisible",
								"offset": 0,
								"slot": "5",
								"type": "t_bool"
							}
						],
						"numberOfBytes": "192"
					},
					"t_struct(Sugar)79_storage": {
						"encoding": "inplace",
						"label": "struct MedicalRecords.Sugar",
						"members": [
							{
								"astId": 72,
								"contract": "contracts/_Database2.sol:MedicalRecords",
								"label": "Date",
								"offset": 0,
								"slot": "0",
								"type": "t_string_storage"
							},
							{
								"astId": 74,
								"contract": "contracts/_Database2.sol:MedicalRecords",
								"label": "Fasting",
								"offset": 0,
								"slot": "1",
								"type": "t_bool"
							},
							{
								"astId": 76,
								"contract": "contracts/_Database2.sol:MedicalRecords",
								"label": "afterMeal",
								"offset": 1,
								"slot": "1",
								"type": "t_bool"
							},
							{
								"astId": 78,
								"contract": "contracts/_Database2.sol:MedicalRecords",
								"label": "level",
								"offset": 0,
								"slot": "2",
								"type": "t_uint256"
							}
						],
						"numberOfBytes": "96"
					},
					"t_struct(Vaccine)16_storage": {
						"encoding": "inplace",
						"label": "struct MedicalRecords.Vaccine",
						"members": [
							{
								"astId": 13,
								"contract": "contracts/_Database2.sol:MedicalRecords",
								"label": "name",
								"offset": 0,
								"slot": "0",
								"type": "t_string_storage"
							},
							{
								"astId": 15,
								"contract": "contracts/_Database2.sol:MedicalRecords",
								"label": "date",
								"offset": 0,
								"slot": "1",
								"type": "t_string_storage"
							}
						],
						"numberOfBytes": "64"
					},
					"t_uint256": {
						"encoding": "inplace",
						"label": "uint256",
						"numberOfBytes": "32"
					}
				}
			},
			"userdoc": {
				"kind": "user",
				"methods": {},
				"version": 1
			}
		}
	}
}