{
	"contracts/_Database6.sol": {
		"MedicalRecords": {
			"abi": [
				{
					"inputs": [],
					"stateMutability": "nonpayable",
					"type": "constructor"
				},
				{
					"inputs": [
						{
							"internalType": "string",
							"name": "_id",
							"type": "string"
						},
						{
							"internalType": "string",
							"name": "_name",
							"type": "string"
						},
						{
							"internalType": "string",
							"name": "_DOB",
							"type": "string"
						},
						{
							"internalType": "string",
							"name": "_phoneNo",
							"type": "string"
						},
						{
							"internalType": "string",
							"name": "_specialConditions",
							"type": "string"
						},
						{
							"internalType": "string",
							"name": "_allergies",
							"type": "string"
						},
						{
							"internalType": "string",
							"name": "_bloodGroup",
							"type": "string"
						}
					],
					"name": "addPatient",
					"outputs": [],
					"stateMutability": "nonpayable",
					"type": "function"
				},
				{
					"inputs": [
						{
							"internalType": "string",
							"name": "_doctorId",
							"type": "string"
						},
						{
							"internalType": "string",
							"name": "_p_id",
							"type": "string"
						}
					],
					"name": "authorizeDoctor",
					"outputs": [],
					"stateMutability": "nonpayable",
					"type": "function"
				},
				{
					"inputs": [
						{
							"internalType": "string",
							"name": "_p_id",
							"type": "string"
						},
						{
							"internalType": "bool",
							"name": "_bloodPressure",
							"type": "bool"
						}
					],
					"name": "getPatientBloodPressure",
					"outputs": [
						{
							"components": [
								{
									"internalType": "string",
									"name": "date",
									"type": "string"
								},
								{
									"internalType": "uint256",
									"name": "SP",
									"type": "uint256"
								},
								{
									"internalType": "uint256",
									"name": "DP",
									"type": "uint256"
								},
								{
									"internalType": "uint256",
									"name": "HB",
									"type": "uint256"
								}
							],
							"internalType": "struct MedicalRecords.BloodPressure[]",
							"name": "",
							"type": "tuple[]"
						}
					],
					"stateMutability": "view",
					"type": "function"
				},
				{
					"inputs": [
						{
							"internalType": "string",
							"name": "_p_id",
							"type": "string"
						},
						{
							"internalType": "bool",
							"name": "_bloodGroup",
							"type": "bool"
						},
						{
							"internalType": "bool",
							"name": "_allergies",
							"type": "bool"
						},
						{
							"internalType": "bool",
							"name": "_specialConditions",
							"type": "bool"
						}
					],
					"name": "getPatientInfo",
					"outputs": [
						{
							"internalType": "string",
							"name": "",
							"type": "string"
						},
						{
							"internalType": "string",
							"name": "",
							"type": "string"
						},
						{
							"internalType": "string",
							"name": "",
							"type": "string"
						},
						{
							"internalType": "string",
							"name": "",
							"type": "string"
						}
					],
					"stateMutability": "view",
					"type": "function"
				},
				{
					"inputs": [
						{
							"internalType": "string",
							"name": "_p_id",
							"type": "string"
						},
						{
							"internalType": "bool",
							"name": "_sugar",
							"type": "bool"
						}
					],
					"name": "getPatientSugar",
					"outputs": [
						{
							"components": [
								{
									"internalType": "string",
									"name": "date",
									"type": "string"
								},
								{
									"internalType": "bool",
									"name": "fasting",
									"type": "bool"
								},
								{
									"internalType": "bool",
									"name": "afterMeal",
									"type": "bool"
								},
								{
									"internalType": "uint256",
									"name": "level",
									"type": "uint256"
								}
							],
							"internalType": "struct MedicalRecords.Sugar[]",
							"name": "",
							"type": "tuple[]"
						}
					],
					"stateMutability": "view",
					"type": "function"
				},
				{
					"inputs": [
						{
							"internalType": "string",
							"name": "_p_id",
							"type": "string"
						},
						{
							"internalType": "bool",
							"name": "_vaccine",
							"type": "bool"
						}
					],
					"name": "getPatientVaccines",
					"outputs": [
						{
							"components": [
								{
									"internalType": "string",
									"name": "name",
									"type": "string"
								},
								{
									"internalType": "string",
									"name": "date",
									"type": "string"
								}
							],
							"internalType": "struct MedicalRecords.Vaccine[]",
							"name": "",
							"type": "tuple[]"
						}
					],
					"stateMutability": "view",
					"type": "function"
				},
				{
					"inputs": [
						{
							"internalType": "string",
							"name": "_p_id",
							"type": "string"
						},
						{
							"internalType": "bool",
							"name": "_prescriptions",
							"type": "bool"
						}
					],
					"name": "getPrescriptions",
					"outputs": [
						{
							"components": [
								{
									"internalType": "string",
									"name": "date",
									"type": "string"
								},
								{
									"internalType": "string",
									"name": "doctorName",
									"type": "string"
								},
								{
									"internalType": "bool",
									"name": "morning",
									"type": "bool"
								},
								{
									"internalType": "bool",
									"name": "afternoon",
									"type": "bool"
								},
								{
									"internalType": "bool",
									"name": "evening",
									"type": "bool"
								},
								{
									"internalType": "string",
									"name": "name",
									"type": "string"
								},
								{
									"internalType": "string",
									"name": "description",
									"type": "string"
								}
							],
							"internalType": "struct MedicalRecords.Prescription[]",
							"name": "",
							"type": "tuple[]"
						}
					],
					"stateMutability": "view",
					"type": "function"
				},
				{
					"inputs": [
						{
							"internalType": "string",
							"name": "_doctorId",
							"type": "string"
						},
						{
							"internalType": "string",
							"name": "_p_id",
							"type": "string"
						}
					],
					"name": "revokeDoctor",
					"outputs": [],
					"stateMutability": "nonpayable",
					"type": "function"
				},
				{
					"inputs": [
						{
							"internalType": "string",
							"name": "_p_id",
							"type": "string"
						},
						{
							"internalType": "string",
							"name": "_date",
							"type": "string"
						},
						{
							"internalType": "uint256",
							"name": "_SP",
							"type": "uint256"
						},
						{
							"internalType": "uint256",
							"name": "_DP",
							"type": "uint256"
						},
						{
							"internalType": "uint256",
							"name": "_HB",
							"type": "uint256"
						}
					],
					"name": "updateBloodPressure",
					"outputs": [],
					"stateMutability": "nonpayable",
					"type": "function"
				},
				{
					"inputs": [
						{
							"internalType": "string",
							"name": "_p_id",
							"type": "string"
						},
						{
							"internalType": "string",
							"name": "_date",
							"type": "string"
						},
						{
							"internalType": "string",
							"name": "_doctorName",
							"type": "string"
						},
						{
							"internalType": "bool",
							"name": "_morning",
							"type": "bool"
						},
						{
							"internalType": "bool",
							"name": "_afternoon",
							"type": "bool"
						},
						{
							"internalType": "bool",
							"name": "_evening",
							"type": "bool"
						},
						{
							"internalType": "string",
							"name": "_name",
							"type": "string"
						},
						{
							"internalType": "string",
							"name": "_description",
							"type": "string"
						}
					],
					"name": "updatePrescription",
					"outputs": [],
					"stateMutability": "nonpayable",
					"type": "function"
				},
				{
					"inputs": [
						{
							"internalType": "string",
							"name": "_p_id",
							"type": "string"
						},
						{
							"internalType": "string",
							"name": "_date",
							"type": "string"
						},
						{
							"internalType": "bool",
							"name": "_fasting",
							"type": "bool"
						},
						{
							"internalType": "bool",
							"name": "_afterMeal",
							"type": "bool"
						},
						{
							"internalType": "uint256",
							"name": "_level",
							"type": "uint256"
						}
					],
					"name": "updateSugar",
					"outputs": [],
					"stateMutability": "nonpayable",
					"type": "function"
				},
				{
					"inputs": [
						{
							"internalType": "string",
							"name": "_p_id",
							"type": "string"
						},
						{
							"internalType": "string",
							"name": "_name",
							"type": "string"
						},
						{
							"internalType": "string",
							"name": "_date",
							"type": "string"
						}
					],
					"name": "updateVaccine",
					"outputs": [],
					"stateMutability": "nonpayable",
					"type": "function"
				}
			],
			"devdoc": {
				"kind": "dev",
				"methods": {},
				"version": 1
			},
			"evm": {
				"assembly": "    /* \"contracts/_Database6.sol\":60:8708  contract MedicalRecords {... */\n  mstore(0x40, 0x80)\n    /* \"contracts/_Database6.sol\":1371:1393  constructor() {... */\n  callvalue\n  dup1\n  iszero\n  tag_1\n  jumpi\n  0x00\n  dup1\n  revert\ntag_1:\n  pop\n    /* \"contracts/_Database6.sol\":60:8708  contract MedicalRecords {... */\n  dataSize(sub_0)\n  dup1\n  dataOffset(sub_0)\n  0x00\n  codecopy\n  0x00\n  return\nstop\n\nsub_0: assembly {\n        /* \"contracts/_Database6.sol\":60:8708  contract MedicalRecords {... */\n      mstore(0x40, 0x80)\n      callvalue\n      dup1\n      iszero\n      tag_1\n      jumpi\n      0x00\n      dup1\n      revert\n    tag_1:\n      pop\n      jumpi(tag_2, lt(calldatasize, 0x04))\n      shr(0xe0, calldataload(0x00))\n      dup1\n      0x54506048\n      gt\n      tag_15\n      jumpi\n      dup1\n      0x54506048\n      eq\n      tag_9\n      jumpi\n      dup1\n      0x6ebfa7d4\n      eq\n      tag_10\n      jumpi\n      dup1\n      0x83162c7a\n      eq\n      tag_11\n      jumpi\n      dup1\n      0x8a11aba4\n      eq\n      tag_12\n      jumpi\n      dup1\n      0xd4638181\n      eq\n      tag_13\n      jumpi\n      dup1\n      0xe8ffd737\n      eq\n      tag_14\n      jumpi\n      jump(tag_2)\n    tag_15:\n      dup1\n      0x1d76d896\n      eq\n      tag_3\n      jumpi\n      dup1\n      0x26c652d0\n      eq\n      tag_4\n      jumpi\n      dup1\n      0x2d8b006b\n      eq\n      tag_5\n      jumpi\n      dup1\n      0x33d9e60c\n      eq\n      tag_6\n      jumpi\n      dup1\n      0x3f71e30b\n      eq\n      tag_7\n      jumpi\n      dup1\n      0x515707c8\n      eq\n      tag_8\n      jumpi\n    tag_2:\n      0x00\n      dup1\n      revert\n        /* \"contracts/_Database6.sol\":2655:3235  function updatePrescription(... */\n    tag_3:\n      tag_16\n      0x04\n      dup1\n      calldatasize\n      sub\n      dup2\n      add\n      swap1\n      tag_17\n      swap2\n      swap1\n      tag_18\n      jump\t// in\n    tag_17:\n      tag_19\n      jump\t// in\n    tag_16:\n      stop\n        /* \"contracts/_Database6.sol\":4079:4271  function authorizeDoctor(string memory _doctorId, string memory _p_id) public {... */\n    tag_4:\n      tag_20\n      0x04\n      dup1\n      calldatasize\n      sub\n      dup2\n      add\n      swap1\n      tag_21\n      swap2\n      swap1\n      tag_22\n      jump\t// in\n    tag_21:\n      tag_23\n      jump\t// in\n    tag_20:\n      stop\n        /* \"contracts/_Database6.sol\":6062:6681  function getPatientBloodPressure(string memory _p_id,bool _bloodPressure) public view returns (BloodPressure[] memory) {... */\n    tag_5:\n      tag_24\n      0x04\n      dup1\n      calldatasize\n      sub\n      dup2\n      add\n      swap1\n      tag_25\n      swap2\n      swap1\n      tag_26\n      jump\t// in\n    tag_25:\n      tag_27\n      jump\t// in\n    tag_24:\n      mload(0x40)\n      tag_28\n      swap2\n      swap1\n      tag_29\n      jump\t// in\n    tag_28:\n      mload(0x40)\n      dup1\n      swap2\n      sub\n      swap1\n      return\n        /* \"contracts/_Database6.sol\":7209:7746  function getPatientVaccines(string memory _p_id,bool _vaccine) public view returns (Vaccine[] memory) {... */\n    tag_6:\n      tag_30\n      0x04\n      dup1\n      calldatasize\n      sub\n      dup2\n      add\n      swap1\n      tag_31\n      swap2\n      swap1\n      tag_26\n      jump\t// in\n    tag_31:\n      tag_32\n      jump\t// in\n    tag_30:\n      mload(0x40)\n      tag_33\n      swap2\n      swap1\n      tag_34\n      jump\t// in\n    tag_33:\n      mload(0x40)\n      dup1\n      swap2\n      sub\n      swap1\n      return\n        /* \"contracts/_Database6.sol\":4478:5033  function getPatientInfo(... */\n    tag_7:\n      tag_35\n      0x04\n      dup1\n      calldatasize\n      sub\n      dup2\n      add\n      swap1\n      tag_36\n      swap2\n      swap1\n      tag_37\n      jump\t// in\n    tag_36:\n      tag_38\n      jump\t// in\n    tag_35:\n      mload(0x40)\n      tag_39\n      swap5\n      swap4\n      swap3\n      swap2\n      swap1\n      tag_40\n      jump\t// in\n    tag_39:\n      mload(0x40)\n      dup1\n      swap2\n      sub\n      swap1\n      return\n        /* \"contracts/_Database6.sol\":4279:4469  function revokeDoctor(string memory _doctorId, string memory _p_id) public {... */\n    tag_8:\n      tag_41\n      0x04\n      dup1\n      calldatasize\n      sub\n      dup2\n      add\n      swap1\n      tag_42\n      swap2\n      swap1\n      tag_22\n      jump\t// in\n    tag_42:\n      tag_43\n      jump\t// in\n    tag_41:\n      stop\n        /* \"contracts/_Database6.sol\":2308:2647  function updateVaccine(... */\n    tag_9:\n      tag_44\n      0x04\n      dup1\n      calldatasize\n      sub\n      dup2\n      add\n      swap1\n      tag_45\n      swap2\n      swap1\n      tag_46\n      jump\t// in\n    tag_45:\n      tag_47\n      jump\t// in\n    tag_44:\n      stop\n        /* \"contracts/_Database6.sol\":3676:4069  function updateSugar(... */\n    tag_10:\n      tag_48\n      0x04\n      dup1\n      calldatasize\n      sub\n      dup2\n      add\n      swap1\n      tag_49\n      swap2\n      swap1\n      tag_50\n      jump\t// in\n    tag_49:\n      tag_51\n      jump\t// in\n    tag_48:\n      stop\n        /* \"contracts/_Database6.sol\":5041:5631  function getPrescriptions(string memory _p_id,bool _prescriptions) public view returns (Prescription[] memory) {... */\n    tag_11:\n      tag_52\n      0x04\n      dup1\n      calldatasize\n      sub\n      dup2\n      add\n      swap1\n      tag_53\n      swap2\n      swap1\n      tag_26\n      jump\t// in\n    tag_53:\n      tag_54\n      jump\t// in\n    tag_52:\n      mload(0x40)\n      tag_55\n      swap2\n      swap1\n      tag_56\n      jump\t// in\n    tag_55:\n      mload(0x40)\n      dup1\n      swap2\n      sub\n      swap1\n      return\n        /* \"contracts/_Database6.sol\":1401:1965  function addPatient(... */\n    tag_12:\n      tag_57\n      0x04\n      dup1\n      calldatasize\n      sub\n      dup2\n      add\n      swap1\n      tag_58\n      swap2\n      swap1\n      tag_59\n      jump\t// in\n    tag_58:\n      tag_60\n      jump\t// in\n    tag_57:\n      stop\n        /* \"contracts/_Database6.sol\":3243:3668  function updateBloodPressure(... */\n    tag_13:\n      tag_61\n      0x04\n      dup1\n      calldatasize\n      sub\n      dup2\n      add\n      swap1\n      tag_62\n      swap2\n      swap1\n      tag_63\n      jump\t// in\n    tag_62:\n      tag_64\n      jump\t// in\n    tag_61:\n      stop\n        /* \"contracts/_Database6.sol\":6689:7201  function getPatientSugar(string memory _p_id,bool _sugar) public view returns (Sugar[] memory) {... */\n    tag_14:\n      tag_65\n      0x04\n      dup1\n      calldatasize\n      sub\n      dup2\n      add\n      swap1\n      tag_66\n      swap2\n      swap1\n      tag_26\n      jump\t// in\n    tag_66:\n      tag_67\n      jump\t// in\n    tag_65:\n      mload(0x40)\n      tag_68\n      swap2\n      swap1\n      tag_69\n      jump\t// in\n    tag_68:\n      mload(0x40)\n      dup1\n      swap2\n      sub\n      swap1\n      return\n        /* \"contracts/_Database6.sol\":2655:3235  function updatePrescription(... */\n    tag_19:\n        /* \"contracts/_Database6.sol\":2945:2968  Patient storage patient */\n      0x00\n        /* \"contracts/_Database6.sol\":2971:2979  patients */\n      dup1\n        /* \"contracts/_Database6.sol\":2980:2985  _p_id */\n      dup10\n        /* \"contracts/_Database6.sol\":2971:2986  patients[_p_id] */\n      mload(0x40)\n      tag_71\n      swap2\n      swap1\n      tag_72\n      jump\t// in\n    tag_71:\n      swap1\n      dup2\n      mstore\n      0x20\n      add\n      mload(0x40)\n      dup1\n      swap2\n      sub\n      swap1\n      keccak256\n        /* \"contracts/_Database6.sol\":2945:2986  Patient storage patient = patients[_p_id] */\n      swap1\n      pop\n        /* \"contracts/_Database6.sol\":2997:3022  uint256 prescriptionIndex */\n      0x00\n        /* \"contracts/_Database6.sol\":3025:3032  patient */\n      dup2\n        /* \"contracts/_Database6.sol\":3025:3050  patient.prescriptionCount */\n      0x07\n      add\n      sload\n        /* \"contracts/_Database6.sol\":2997:3050  uint256 prescriptionIndex = patient.prescriptionCount */\n      swap1\n      pop\n        /* \"contracts/_Database6.sol\":3104:3189  Prescription(_date, _doctorName, _morning, _afternoon, _evening, _name, _description) */\n      mload(0x40)\n      dup1\n      0xe0\n      add\n      0x40\n      mstore\n      dup1\n        /* \"contracts/_Database6.sol\":3117:3122  _date */\n      dup11\n        /* \"contracts/_Database6.sol\":3104:3189  Prescription(_date, _doctorName, _morning, _afternoon, _evening, _name, _description) */\n      dup2\n      mstore\n      0x20\n      add\n        /* \"contracts/_Database6.sol\":3124:3135  _doctorName */\n      dup10\n        /* \"contracts/_Database6.sol\":3104:3189  Prescription(_date, _doctorName, _morning, _afternoon, _evening, _name, _description) */\n      dup2\n      mstore\n      0x20\n      add\n        /* \"contracts/_Database6.sol\":3137:3145  _morning */\n      dup9\n        /* \"contracts/_Database6.sol\":3104:3189  Prescription(_date, _doctorName, _morning, _afternoon, _evening, _name, _description) */\n      iszero\n      iszero\n      dup2\n      mstore\n      0x20\n      add\n        /* \"contracts/_Database6.sol\":3147:3157  _afternoon */\n      dup8\n        /* \"contracts/_Database6.sol\":3104:3189  Prescription(_date, _doctorName, _morning, _afternoon, _evening, _name, _description) */\n      iszero\n      iszero\n      dup2\n      mstore\n      0x20\n      add\n        /* \"contracts/_Database6.sol\":3159:3167  _evening */\n      dup7\n        /* \"contracts/_Database6.sol\":3104:3189  Prescription(_date, _doctorName, _morning, _afternoon, _evening, _name, _description) */\n      iszero\n      iszero\n      dup2\n      mstore\n      0x20\n      add\n        /* \"contracts/_Database6.sol\":3169:3174  _name */\n      dup6\n        /* \"contracts/_Database6.sol\":3104:3189  Prescription(_date, _doctorName, _morning, _afternoon, _evening, _name, _description) */\n      dup2\n      mstore\n      0x20\n      add\n        /* \"contracts/_Database6.sol\":3176:3188  _description */\n      dup5\n        /* \"contracts/_Database6.sol\":3104:3189  Prescription(_date, _doctorName, _morning, _afternoon, _evening, _name, _description) */\n      dup2\n      mstore\n      pop\n        /* \"contracts/_Database6.sol\":3061:3068  patient */\n      dup3\n        /* \"contracts/_Database6.sol\":3061:3082  patient.prescriptions */\n      0x06\n      add\n        /* \"contracts/_Database6.sol\":3061:3101  patient.prescriptions[prescriptionIndex] */\n      0x00\n        /* \"contracts/_Database6.sol\":3083:3100  prescriptionIndex */\n      dup4\n        /* \"contracts/_Database6.sol\":3061:3101  patient.prescriptions[prescriptionIndex] */\n      dup2\n      mstore\n      0x20\n      add\n      swap1\n      dup2\n      mstore\n      0x20\n      add\n      0x00\n      keccak256\n        /* \"contracts/_Database6.sol\":3061:3189  patient.prescriptions[prescriptionIndex] = Prescription(_date, _doctorName, _morning, _afternoon, _evening, _name, _description) */\n      0x00\n      dup3\n      add\n      mload\n      dup2\n      0x00\n      add\n      swap1\n      dup2\n      tag_73\n      swap2\n      swap1\n      tag_74\n      jump\t// in\n    tag_73:\n      pop\n      0x20\n      dup3\n      add\n      mload\n      dup2\n      0x01\n      add\n      swap1\n      dup2\n      tag_75\n      swap2\n      swap1\n      tag_74\n      jump\t// in\n    tag_75:\n      pop\n      0x40\n      dup3\n      add\n      mload\n      dup2\n      0x02\n      add\n      exp(0x0100, 0x00)\n      dup2\n      sload\n      dup2\n      0xff\n      mul\n      not\n      and\n      swap1\n      dup4\n      iszero\n      iszero\n      mul\n      or\n      swap1\n      sstore\n      pop\n      0x60\n      dup3\n      add\n      mload\n      dup2\n      0x02\n      add\n      exp(0x0100, 0x01)\n      dup2\n      sload\n      dup2\n      0xff\n      mul\n      not\n      and\n      swap1\n      dup4\n      iszero\n      iszero\n      mul\n      or\n      swap1\n      sstore\n      pop\n      0x80\n      dup3\n      add\n      mload\n      dup2\n      0x02\n      add\n      exp(0x0100, 0x02)\n      dup2\n      sload\n      dup2\n      0xff\n      mul\n      not\n      and\n      swap1\n      dup4\n      iszero\n      iszero\n      mul\n      or\n      swap1\n      sstore\n      pop\n      0xa0\n      dup3\n      add\n      mload\n      dup2\n      0x03\n      add\n      swap1\n      dup2\n      tag_76\n      swap2\n      swap1\n      tag_74\n      jump\t// in\n    tag_76:\n      pop\n      0xc0\n      dup3\n      add\n      mload\n      dup2\n      0x04\n      add\n      swap1\n      dup2\n      tag_77\n      swap2\n      swap1\n      tag_74\n      jump\t// in\n    tag_77:\n      pop\n      swap1\n      pop\n      pop\n        /* \"contracts/_Database6.sol\":3200:3207  patient */\n      dup2\n        /* \"contracts/_Database6.sol\":3200:3225  patient.prescriptionCount */\n      0x07\n      add\n      0x00\n        /* \"contracts/_Database6.sol\":3200:3227  patient.prescriptionCount++ */\n      dup2\n      sload\n      dup1\n      swap3\n      swap2\n      swap1\n      tag_78\n      swap1\n      tag_79\n      jump\t// in\n    tag_78:\n      swap2\n      swap1\n      pop\n      sstore\n      pop\n        /* \"contracts/_Database6.sol\":2934:3235  {... */\n      pop\n      pop\n        /* \"contracts/_Database6.sol\":2655:3235  function updatePrescription(... */\n      pop\n      pop\n      pop\n      pop\n      pop\n      pop\n      pop\n      pop\n      jump\t// out\n        /* \"contracts/_Database6.sol\":4079:4271  function authorizeDoctor(string memory _doctorId, string memory _p_id) public {... */\n    tag_23:\n        /* \"contracts/_Database6.sol\":4168:4191  Patient storage patient */\n      0x00\n        /* \"contracts/_Database6.sol\":4194:4202  patients */\n      dup1\n        /* \"contracts/_Database6.sol\":4203:4208  _p_id */\n      dup3\n        /* \"contracts/_Database6.sol\":4194:4209  patients[_p_id] */\n      mload(0x40)\n      tag_81\n      swap2\n      swap1\n      tag_72\n      jump\t// in\n    tag_81:\n      swap1\n      dup2\n      mstore\n      0x20\n      add\n      mload(0x40)\n      dup1\n      swap2\n      sub\n      swap1\n      keccak256\n        /* \"contracts/_Database6.sol\":4168:4209  Patient storage patient = patients[_p_id] */\n      swap1\n      pop\n        /* \"contracts/_Database6.sol\":4259:4263  true */\n      0x01\n        /* \"contracts/_Database6.sol\":4220:4227  patient */\n      dup2\n        /* \"contracts/_Database6.sol\":4220:4245  patient.authorizedDoctors */\n      0x0e\n      add\n        /* \"contracts/_Database6.sol\":4246:4255  _doctorId */\n      dup5\n        /* \"contracts/_Database6.sol\":4220:4256  patient.authorizedDoctors[_doctorId] */\n      mload(0x40)\n      tag_82\n      swap2\n      swap1\n      tag_72\n      jump\t// in\n    tag_82:\n      swap1\n      dup2\n      mstore\n      0x20\n      add\n      mload(0x40)\n      dup1\n      swap2\n      sub\n      swap1\n      keccak256\n      0x00\n        /* \"contracts/_Database6.sol\":4220:4263  patient.authorizedDoctors[_doctorId] = true */\n      0x0100\n      exp\n      dup2\n      sload\n      dup2\n      0xff\n      mul\n      not\n      and\n      swap1\n      dup4\n      iszero\n      iszero\n      mul\n      or\n      swap1\n      sstore\n      pop\n        /* \"contracts/_Database6.sol\":4157:4271  {... */\n      pop\n        /* \"contracts/_Database6.sol\":4079:4271  function authorizeDoctor(string memory _doctorId, string memory _p_id) public {... */\n      pop\n      pop\n      jump\t// out\n        /* \"contracts/_Database6.sol\":6062:6681  function getPatientBloodPressure(string memory _p_id,bool _bloodPressure) public view returns (BloodPressure[] memory) {... */\n    tag_27:\n        /* \"contracts/_Database6.sol\":6157:6179  BloodPressure[] memory */\n      0x60\n        /* \"contracts/_Database6.sol\":6196:6210  _bloodPressure */\n      dup2\n        /* \"contracts/_Database6.sol\":6192:6674  if( _bloodPressure)... */\n      iszero\n      tag_84\n      jumpi\n        /* \"contracts/_Database6.sol\":6232:6255  Patient storage patient */\n      0x00\n        /* \"contracts/_Database6.sol\":6258:6266  patients */\n      dup1\n        /* \"contracts/_Database6.sol\":6267:6272  _p_id */\n      dup5\n        /* \"contracts/_Database6.sol\":6258:6273  patients[_p_id] */\n      mload(0x40)\n      tag_85\n      swap2\n      swap1\n      tag_72\n      jump\t// in\n    tag_85:\n      swap1\n      dup2\n      mstore\n      0x20\n      add\n      mload(0x40)\n      dup1\n      swap2\n      sub\n      swap1\n      keccak256\n        /* \"contracts/_Database6.sol\":6232:6273  Patient storage patient = patients[_p_id] */\n      swap1\n      pop\n        /* \"contracts/_Database6.sol\":6284:6297  uint256 count */\n      0x00\n        /* \"contracts/_Database6.sol\":6300:6307  patient */\n      dup2\n        /* \"contracts/_Database6.sol\":6300:6326  patient.bloodPressureCount */\n      0x09\n      add\n      sload\n        /* \"contracts/_Database6.sol\":6284:6326  uint256 count = patient.bloodPressureCount */\n      swap1\n      pop\n        /* \"contracts/_Database6.sol\":6337:6374  BloodPressure[] memory bloodPressures */\n      0x00\n        /* \"contracts/_Database6.sol\":6397:6402  count */\n      dup2\n        /* \"contracts/_Database6.sol\":6377:6403  new BloodPressure[](count) */\n      0xffffffffffffffff\n      dup2\n      gt\n      iszero\n      tag_86\n      jumpi\n      tag_87\n      tag_88\n      jump\t// in\n    tag_87:\n    tag_86:\n      mload(0x40)\n      swap1\n      dup1\n      dup3\n      mstore\n      dup1\n      0x20\n      mul\n      0x20\n      add\n      dup3\n      add\n      0x40\n      mstore\n      dup1\n      iszero\n      tag_89\n      jumpi\n      dup2\n      0x20\n      add\n    tag_90:\n      tag_91\n      tag_92\n      jump\t// in\n    tag_91:\n      dup2\n      mstore\n      0x20\n      add\n      swap1\n      0x01\n      swap1\n      sub\n      swap1\n      dup2\n      tag_90\n      jumpi\n      swap1\n      pop\n    tag_89:\n      pop\n        /* \"contracts/_Database6.sol\":6337:6403  BloodPressure[] memory bloodPressures = new BloodPressure[](count) */\n      swap1\n      pop\n        /* \"contracts/_Database6.sol\":6421:6430  uint256 i */\n      0x00\n        /* \"contracts/_Database6.sol\":6416:6524  for (uint256 i = 0; i < count; i++) {... */\n    tag_93:\n        /* \"contracts/_Database6.sol\":6440:6445  count */\n      dup3\n        /* \"contracts/_Database6.sol\":6436:6437  i */\n      dup2\n        /* \"contracts/_Database6.sol\":6436:6445  i < count */\n      lt\n        /* \"contracts/_Database6.sol\":6416:6524  for (uint256 i = 0; i < count; i++) {... */\n      iszero\n      tag_94\n      jumpi\n        /* \"contracts/_Database6.sol\":6487:6494  patient */\n      dup4\n        /* \"contracts/_Database6.sol\":6487:6509  patient.bloodPressures */\n      0x08\n      add\n        /* \"contracts/_Database6.sol\":6487:6512  patient.bloodPressures[i] */\n      0x00\n        /* \"contracts/_Database6.sol\":6510:6511  i */\n      dup3\n        /* \"contracts/_Database6.sol\":6487:6512  patient.bloodPressures[i] */\n      dup2\n      mstore\n      0x20\n      add\n      swap1\n      dup2\n      mstore\n      0x20\n      add\n      0x00\n      keccak256\n        /* \"contracts/_Database6.sol\":6467:6512  bloodPressures[i] = patient.bloodPressures[i] */\n      mload(0x40)\n      dup1\n      0x80\n      add\n      0x40\n      mstore\n      swap1\n      dup2\n      0x00\n      dup3\n      add\n      dup1\n      sload\n      tag_96\n      swap1\n      tag_97\n      jump\t// in\n    tag_96:\n      dup1\n      0x1f\n      add\n      0x20\n      dup1\n      swap2\n      div\n      mul\n      0x20\n      add\n      mload(0x40)\n      swap1\n      dup2\n      add\n      0x40\n      mstore\n      dup1\n      swap3\n      swap2\n      swap1\n      dup2\n      dup2\n      mstore\n      0x20\n      add\n      dup3\n      dup1\n      sload\n      tag_98\n      swap1\n      tag_97\n      jump\t// in\n    tag_98:\n      dup1\n      iszero\n      tag_99\n      jumpi\n      dup1\n      0x1f\n      lt\n      tag_100\n      jumpi\n      0x0100\n      dup1\n      dup4\n      sload\n      div\n      mul\n      dup4\n      mstore\n      swap2\n      0x20\n      add\n      swap2\n      jump(tag_99)\n    tag_100:\n      dup3\n      add\n      swap2\n      swap1\n      0x00\n      mstore\n      keccak256(0x00, 0x20)\n      swap1\n    tag_101:\n      dup2\n      sload\n      dup2\n      mstore\n      swap1\n      0x01\n      add\n      swap1\n      0x20\n      add\n      dup1\n      dup4\n      gt\n      tag_101\n      jumpi\n      dup3\n      swap1\n      sub\n      0x1f\n      and\n      dup3\n      add\n      swap2\n    tag_99:\n      pop\n      pop\n      pop\n      pop\n      pop\n      dup2\n      mstore\n      0x20\n      add\n      0x01\n      dup3\n      add\n      sload\n      dup2\n      mstore\n      0x20\n      add\n      0x02\n      dup3\n      add\n      sload\n      dup2\n      mstore\n      0x20\n      add\n      0x03\n      dup3\n      add\n      sload\n      dup2\n      mstore\n      pop\n      pop\n        /* \"contracts/_Database6.sol\":6467:6481  bloodPressures */\n      dup3\n        /* \"contracts/_Database6.sol\":6482:6483  i */\n      dup3\n        /* \"contracts/_Database6.sol\":6467:6484  bloodPressures[i] */\n      dup2\n      mload\n      dup2\n      lt\n      tag_102\n      jumpi\n      tag_103\n      tag_104\n      jump\t// in\n    tag_103:\n    tag_102:\n      0x20\n      mul\n      0x20\n      add\n      add\n        /* \"contracts/_Database6.sol\":6467:6512  bloodPressures[i] = patient.bloodPressures[i] */\n      dup2\n      swap1\n      mstore\n      pop\n        /* \"contracts/_Database6.sol\":6447:6450  i++ */\n      dup1\n      dup1\n      tag_105\n      swap1\n      tag_79\n      jump\t// in\n    tag_105:\n      swap2\n      pop\n      pop\n        /* \"contracts/_Database6.sol\":6416:6524  for (uint256 i = 0; i < count; i++) {... */\n      jump(tag_93)\n    tag_94:\n      pop\n        /* \"contracts/_Database6.sol\":6543:6557  bloodPressures */\n      dup1\n        /* \"contracts/_Database6.sol\":6536:6557  return bloodPressures */\n      swap4\n      pop\n      pop\n      pop\n      pop\n      jump(tag_83)\n        /* \"contracts/_Database6.sol\":6192:6674  if( _bloodPressure)... */\n    tag_84:\n        /* \"contracts/_Database6.sol\":6612:6613  0 */\n      0x00\n        /* \"contracts/_Database6.sol\":6592:6614  new BloodPressure[](0) */\n      0xffffffffffffffff\n      dup2\n      gt\n      iszero\n      tag_107\n      jumpi\n      tag_108\n      tag_88\n      jump\t// in\n    tag_108:\n    tag_107:\n      mload(0x40)\n      swap1\n      dup1\n      dup3\n      mstore\n      dup1\n      0x20\n      mul\n      0x20\n      add\n      dup3\n      add\n      0x40\n      mstore\n      dup1\n      iszero\n      tag_109\n      jumpi\n      dup2\n      0x20\n      add\n    tag_110:\n      tag_111\n      tag_92\n      jump\t// in\n    tag_111:\n      dup2\n      mstore\n      0x20\n      add\n      swap1\n      0x01\n      swap1\n      sub\n      swap1\n      dup2\n      tag_110\n      jumpi\n      swap1\n      pop\n    tag_109:\n      pop\n        /* \"contracts/_Database6.sol\":6585:6614  return new BloodPressure[](0) */\n      swap1\n      pop\n        /* \"contracts/_Database6.sol\":6062:6681  function getPatientBloodPressure(string memory _p_id,bool _bloodPressure) public view returns (BloodPressure[] memory) {... */\n    tag_83:\n      swap3\n      swap2\n      pop\n      pop\n      jump\t// out\n        /* \"contracts/_Database6.sol\":7209:7746  function getPatientVaccines(string memory _p_id,bool _vaccine) public view returns (Vaccine[] memory) {... */\n    tag_32:\n        /* \"contracts/_Database6.sol\":7293:7309  Vaccine[] memory */\n      0x60\n        /* \"contracts/_Database6.sol\":7323:7331  _vaccine */\n      dup2\n        /* \"contracts/_Database6.sol\":7320:7739  if(_vaccine)... */\n      iszero\n      tag_113\n      jumpi\n        /* \"contracts/_Database6.sol\":7353:7376  Patient storage patient */\n      0x00\n        /* \"contracts/_Database6.sol\":7379:7387  patients */\n      dup1\n        /* \"contracts/_Database6.sol\":7388:7393  _p_id */\n      dup5\n        /* \"contracts/_Database6.sol\":7379:7394  patients[_p_id] */\n      mload(0x40)\n      tag_114\n      swap2\n      swap1\n      tag_72\n      jump\t// in\n    tag_114:\n      swap1\n      dup2\n      mstore\n      0x20\n      add\n      mload(0x40)\n      dup1\n      swap2\n      sub\n      swap1\n      keccak256\n        /* \"contracts/_Database6.sol\":7353:7394  Patient storage patient = patients[_p_id] */\n      swap1\n      pop\n        /* \"contracts/_Database6.sol\":7405:7418  uint256 count */\n      0x00\n        /* \"contracts/_Database6.sol\":7421:7428  patient */\n      dup2\n        /* \"contracts/_Database6.sol\":7421:7441  patient.vaccineCount */\n      0x0d\n      add\n      sload\n        /* \"contracts/_Database6.sol\":7405:7441  uint256 count = patient.vaccineCount */\n      swap1\n      pop\n        /* \"contracts/_Database6.sol\":7452:7477  Vaccine[] memory vaccines */\n      0x00\n        /* \"contracts/_Database6.sol\":7494:7499  count */\n      dup2\n        /* \"contracts/_Database6.sol\":7480:7500  new Vaccine[](count) */\n      0xffffffffffffffff\n      dup2\n      gt\n      iszero\n      tag_115\n      jumpi\n      tag_116\n      tag_88\n      jump\t// in\n    tag_116:\n    tag_115:\n      mload(0x40)\n      swap1\n      dup1\n      dup3\n      mstore\n      dup1\n      0x20\n      mul\n      0x20\n      add\n      dup3\n      add\n      0x40\n      mstore\n      dup1\n      iszero\n      tag_117\n      jumpi\n      dup2\n      0x20\n      add\n    tag_118:\n      tag_119\n      tag_120\n      jump\t// in\n    tag_119:\n      dup2\n      mstore\n      0x20\n      add\n      swap1\n      0x01\n      swap1\n      sub\n      swap1\n      dup2\n      tag_118\n      jumpi\n      swap1\n      pop\n    tag_117:\n      pop\n        /* \"contracts/_Database6.sol\":7452:7500  Vaccine[] memory vaccines = new Vaccine[](count) */\n      swap1\n      pop\n        /* \"contracts/_Database6.sol\":7518:7527  uint256 i */\n      0x00\n        /* \"contracts/_Database6.sol\":7513:7609  for (uint256 i = 0; i < count; i++) {... */\n    tag_121:\n        /* \"contracts/_Database6.sol\":7537:7542  count */\n      dup3\n        /* \"contracts/_Database6.sol\":7533:7534  i */\n      dup2\n        /* \"contracts/_Database6.sol\":7533:7542  i < count */\n      lt\n        /* \"contracts/_Database6.sol\":7513:7609  for (uint256 i = 0; i < count; i++) {... */\n      iszero\n      tag_122\n      jumpi\n        /* \"contracts/_Database6.sol\":7578:7585  patient */\n      dup4\n        /* \"contracts/_Database6.sol\":7578:7594  patient.vaccines */\n      0x0c\n      add\n        /* \"contracts/_Database6.sol\":7578:7597  patient.vaccines[i] */\n      0x00\n        /* \"contracts/_Database6.sol\":7595:7596  i */\n      dup3\n        /* \"contracts/_Database6.sol\":7578:7597  patient.vaccines[i] */\n      dup2\n      mstore\n      0x20\n      add\n      swap1\n      dup2\n      mstore\n      0x20\n      add\n      0x00\n      keccak256\n        /* \"contracts/_Database6.sol\":7564:7597  vaccines[i] = patient.vaccines[i] */\n      mload(0x40)\n      dup1\n      0x40\n      add\n      0x40\n      mstore\n      swap1\n      dup2\n      0x00\n      dup3\n      add\n      dup1\n      sload\n      tag_124\n      swap1\n      tag_97\n      jump\t// in\n    tag_124:\n      dup1\n      0x1f\n      add\n      0x20\n      dup1\n      swap2\n      div\n      mul\n      0x20\n      add\n      mload(0x40)\n      swap1\n      dup2\n      add\n      0x40\n      mstore\n      dup1\n      swap3\n      swap2\n      swap1\n      dup2\n      dup2\n      mstore\n      0x20\n      add\n      dup3\n      dup1\n      sload\n      tag_125\n      swap1\n      tag_97\n      jump\t// in\n    tag_125:\n      dup1\n      iszero\n      tag_126\n      jumpi\n      dup1\n      0x1f\n      lt\n      tag_127\n      jumpi\n      0x0100\n      dup1\n      dup4\n      sload\n      div\n      mul\n      dup4\n      mstore\n      swap2\n      0x20\n      add\n      swap2\n      jump(tag_126)\n    tag_127:\n      dup3\n      add\n      swap2\n      swap1\n      0x00\n      mstore\n      keccak256(0x00, 0x20)\n      swap1\n    tag_128:\n      dup2\n      sload\n      dup2\n      mstore\n      swap1\n      0x01\n      add\n      swap1\n      0x20\n      add\n      dup1\n      dup4\n      gt\n      tag_128\n      jumpi\n      dup3\n      swap1\n      sub\n      0x1f\n      and\n      dup3\n      add\n      swap2\n    tag_126:\n      pop\n      pop\n      pop\n      pop\n      pop\n      dup2\n      mstore\n      0x20\n      add\n      0x01\n      dup3\n      add\n      dup1\n      sload\n      tag_129\n      swap1\n      tag_97\n      jump\t// in\n    tag_129:\n      dup1\n      0x1f\n      add\n      0x20\n      dup1\n      swap2\n      div\n      mul\n      0x20\n      add\n      mload(0x40)\n      swap1\n      dup2\n      add\n      0x40\n      mstore\n      dup1\n      swap3\n      swap2\n      swap1\n      dup2\n      dup2\n      mstore\n      0x20\n      add\n      dup3\n      dup1\n      sload\n      tag_130\n      swap1\n      tag_97\n      jump\t// in\n    tag_130:\n      dup1\n      iszero\n      tag_131\n      jumpi\n      dup1\n      0x1f\n      lt\n      tag_132\n      jumpi\n      0x0100\n      dup1\n      dup4\n      sload\n      div\n      mul\n      dup4\n      mstore\n      swap2\n      0x20\n      add\n      swap2\n      jump(tag_131)\n    tag_132:\n      dup3\n      add\n      swap2\n      swap1\n      0x00\n      mstore\n      keccak256(0x00, 0x20)\n      swap1\n    tag_133:\n      dup2\n      sload\n      dup2\n      mstore\n      swap1\n      0x01\n      add\n      swap1\n      0x20\n      add\n      dup1\n      dup4\n      gt\n      tag_133\n      jumpi\n      dup3\n      swap1\n      sub\n      0x1f\n      and\n      dup3\n      add\n      swap2\n    tag_131:\n      pop\n      pop\n      pop\n      pop\n      pop\n      dup2\n      mstore\n      pop\n      pop\n        /* \"contracts/_Database6.sol\":7564:7572  vaccines */\n      dup3\n        /* \"contracts/_Database6.sol\":7573:7574  i */\n      dup3\n        /* \"contracts/_Database6.sol\":7564:7575  vaccines[i] */\n      dup2\n      mload\n      dup2\n      lt\n      tag_134\n      jumpi\n      tag_135\n      tag_104\n      jump\t// in\n    tag_135:\n    tag_134:\n      0x20\n      mul\n      0x20\n      add\n      add\n        /* \"contracts/_Database6.sol\":7564:7597  vaccines[i] = patient.vaccines[i] */\n      dup2\n      swap1\n      mstore\n      pop\n        /* \"contracts/_Database6.sol\":7544:7547  i++ */\n      dup1\n      dup1\n      tag_136\n      swap1\n      tag_79\n      jump\t// in\n    tag_136:\n      swap2\n      pop\n      pop\n        /* \"contracts/_Database6.sol\":7513:7609  for (uint256 i = 0; i < count; i++) {... */\n      jump(tag_121)\n    tag_122:\n      pop\n        /* \"contracts/_Database6.sol\":7626:7634  vaccines */\n      dup1\n        /* \"contracts/_Database6.sol\":7619:7634  return vaccines */\n      swap4\n      pop\n      pop\n      pop\n      pop\n      jump(tag_112)\n        /* \"contracts/_Database6.sol\":7320:7739  if(_vaccine)... */\n    tag_113:\n        /* \"contracts/_Database6.sol\":7683:7684  0 */\n      0x00\n        /* \"contracts/_Database6.sol\":7669:7685  new Vaccine[](0) */\n      0xffffffffffffffff\n      dup2\n      gt\n      iszero\n      tag_138\n      jumpi\n      tag_139\n      tag_88\n      jump\t// in\n    tag_139:\n    tag_138:\n      mload(0x40)\n      swap1\n      dup1\n      dup3\n      mstore\n      dup1\n      0x20\n      mul\n      0x20\n      add\n      dup3\n      add\n      0x40\n      mstore\n      dup1\n      iszero\n      tag_140\n      jumpi\n      dup2\n      0x20\n      add\n    tag_141:\n      tag_142\n      tag_120\n      jump\t// in\n    tag_142:\n      dup2\n      mstore\n      0x20\n      add\n      swap1\n      0x01\n      swap1\n      sub\n      swap1\n      dup2\n      tag_141\n      jumpi\n      swap1\n      pop\n    tag_140:\n      pop\n        /* \"contracts/_Database6.sol\":7662:7685  return new Vaccine[](0) */\n      swap1\n      pop\n        /* \"contracts/_Database6.sol\":7209:7746  function getPatientVaccines(string memory _p_id,bool _vaccine) public view returns (Vaccine[] memory) {... */\n    tag_112:\n      swap3\n      swap2\n      pop\n      pop\n      jump\t// out\n        /* \"contracts/_Database6.sol\":4478:5033  function getPatientInfo(... */\n    tag_38:\n        /* \"contracts/_Database6.sol\":4698:4711  string memory */\n      0x60\n        /* \"contracts/_Database6.sol\":4726:4739  string memory */\n      dup1\n        /* \"contracts/_Database6.sol\":4754:4767  string memory */\n      0x60\n        /* \"contracts/_Database6.sol\":4782:4795  string memory */\n      dup1\n        /* \"contracts/_Database6.sol\":4823:4846  Patient storage patient */\n      0x00\n        /* \"contracts/_Database6.sol\":4849:4857  patients */\n      dup1\n        /* \"contracts/_Database6.sol\":4858:4863  _p_id */\n      dup10\n        /* \"contracts/_Database6.sol\":4849:4864  patients[_p_id] */\n      mload(0x40)\n      tag_144\n      swap2\n      swap1\n      tag_72\n      jump\t// in\n    tag_144:\n      swap1\n      dup2\n      mstore\n      0x20\n      add\n      mload(0x40)\n      dup1\n      swap2\n      sub\n      swap1\n      keccak256\n        /* \"contracts/_Database6.sol\":4823:4864  Patient storage patient = patients[_p_id] */\n      swap1\n      pop\n        /* \"contracts/_Database6.sol\":4885:4892  patient */\n      dup1\n        /* \"contracts/_Database6.sol\":4885:4897  patient.name */\n      0x00\n      add\n        /* \"contracts/_Database6.sol\":4899:4910  _bloodGroup */\n      dup9\n        /* \"contracts/_Database6.sol\":4899:4936  _bloodGroup ? patient.bloodGroup : \"\" */\n      tag_145\n      jumpi\n      mload(0x40)\n      dup1\n      0x20\n      add\n      0x40\n      mstore\n      dup1\n      0x00\n      dup2\n      mstore\n      pop\n      jump(tag_146)\n    tag_145:\n        /* \"contracts/_Database6.sol\":4913:4920  patient */\n      dup2\n        /* \"contracts/_Database6.sol\":4913:4931  patient.bloodGroup */\n      0x04\n      add\n        /* \"contracts/_Database6.sol\":4899:4936  _bloodGroup ? patient.bloodGroup : \"\" */\n      dup1\n      sload\n      tag_147\n      swap1\n      tag_97\n      jump\t// in\n    tag_147:\n      dup1\n      0x1f\n      add\n      0x20\n      dup1\n      swap2\n      div\n      mul\n      0x20\n      add\n      mload(0x40)\n      swap1\n      dup2\n      add\n      0x40\n      mstore\n      dup1\n      swap3\n      swap2\n      swap1\n      dup2\n      dup2\n      mstore\n      0x20\n      add\n      dup3\n      dup1\n      sload\n      tag_148\n      swap1\n      tag_97\n      jump\t// in\n    tag_148:\n      dup1\n      iszero\n      tag_149\n      jumpi\n      dup1\n      0x1f\n      lt\n      tag_150\n      jumpi\n      0x0100\n      dup1\n      dup4\n      sload\n      div\n      mul\n      dup4\n      mstore\n      swap2\n      0x20\n      add\n      swap2\n      jump(tag_149)\n    tag_150:\n      dup3\n      add\n      swap2\n      swap1\n      0x00\n      mstore\n      keccak256(0x00, 0x20)\n      swap1\n    tag_151:\n      dup2\n      sload\n      dup2\n      mstore\n      swap1\n      0x01\n      add\n      swap1\n      0x20\n      add\n      dup1\n      dup4\n      gt\n      tag_151\n      jumpi\n      dup3\n      swap1\n      sub\n      0x1f\n      and\n      dup3\n      add\n      swap2\n    tag_149:\n      pop\n      pop\n      pop\n      pop\n      pop\n    tag_146:\n        /* \"contracts/_Database6.sol\":4937:4947  _allergies */\n      dup9\n        /* \"contracts/_Database6.sol\":4937:4972  _allergies ? patient.allergies : \"\" */\n      tag_152\n      jumpi\n      mload(0x40)\n      dup1\n      0x20\n      add\n      0x40\n      mstore\n      dup1\n      0x00\n      dup2\n      mstore\n      pop\n      jump(tag_153)\n    tag_152:\n        /* \"contracts/_Database6.sol\":4950:4957  patient */\n      dup3\n        /* \"contracts/_Database6.sol\":4950:4967  patient.allergies */\n      0x05\n      add\n        /* \"contracts/_Database6.sol\":4937:4972  _allergies ? patient.allergies : \"\" */\n      dup1\n      sload\n      tag_154\n      swap1\n      tag_97\n      jump\t// in\n    tag_154:\n      dup1\n      0x1f\n      add\n      0x20\n      dup1\n      swap2\n      div\n      mul\n      0x20\n      add\n      mload(0x40)\n      swap1\n      dup2\n      add\n      0x40\n      mstore\n      dup1\n      swap3\n      swap2\n      swap1\n      dup2\n      dup2\n      mstore\n      0x20\n      add\n      dup3\n      dup1\n      sload\n      tag_155\n      swap1\n      tag_97\n      jump\t// in\n    tag_155:\n      dup1\n      iszero\n      tag_156\n      jumpi\n      dup1\n      0x1f\n      lt\n      tag_157\n      jumpi\n      0x0100\n      dup1\n      dup4\n      sload\n      div\n      mul\n      dup4\n      mstore\n      swap2\n      0x20\n      add\n      swap2\n      jump(tag_156)\n    tag_157:\n      dup3\n      add\n      swap2\n      swap1\n      0x00\n      mstore\n      keccak256(0x00, 0x20)\n      swap1\n    tag_158:\n      dup2\n      sload\n      dup2\n      mstore\n      swap1\n      0x01\n      add\n      swap1\n      0x20\n      add\n      dup1\n      dup4\n      gt\n      tag_158\n      jumpi\n      dup3\n      swap1\n      sub\n      0x1f\n      and\n      dup3\n      add\n      swap2\n    tag_156:\n      pop\n      pop\n      pop\n      pop\n      pop\n    tag_153:\n        /* \"contracts/_Database6.sol\":4973:4991  _specialConditions */\n      dup9\n        /* \"contracts/_Database6.sol\":4973:5024  _specialConditions ? patient.specialConditions : \"\" */\n      tag_159\n      jumpi\n      mload(0x40)\n      dup1\n      0x20\n      add\n      0x40\n      mstore\n      dup1\n      0x00\n      dup2\n      mstore\n      pop\n      jump(tag_160)\n    tag_159:\n        /* \"contracts/_Database6.sol\":4994:5001  patient */\n      dup4\n        /* \"contracts/_Database6.sol\":4994:5019  patient.specialConditions */\n      0x03\n      add\n        /* \"contracts/_Database6.sol\":4973:5024  _specialConditions ? patient.specialConditions : \"\" */\n      dup1\n      sload\n      tag_161\n      swap1\n      tag_97\n      jump\t// in\n    tag_161:\n      dup1\n      0x1f\n      add\n      0x20\n      dup1\n      swap2\n      div\n      mul\n      0x20\n      add\n      mload(0x40)\n      swap1\n      dup2\n      add\n      0x40\n      mstore\n      dup1\n      swap3\n      swap2\n      swap1\n      dup2\n      dup2\n      mstore\n      0x20\n      add\n      dup3\n      dup1\n      sload\n      tag_162\n      swap1\n      tag_97\n      jump\t// in\n    tag_162:\n      dup1\n      iszero\n      tag_163\n      jumpi\n      dup1\n      0x1f\n      lt\n      tag_164\n      jumpi\n      0x0100\n      dup1\n      dup4\n      sload\n      div\n      mul\n      dup4\n      mstore\n      swap2\n      0x20\n      add\n      swap2\n      jump(tag_163)\n    tag_164:\n      dup3\n      add\n      swap2\n      swap1\n      0x00\n      mstore\n      keccak256(0x00, 0x20)\n      swap1\n    tag_165:\n      dup2\n      sload\n      dup2\n      mstore\n      swap1\n      0x01\n      add\n      swap1\n      0x20\n      add\n      dup1\n      dup4\n      gt\n      tag_165\n      jumpi\n      dup3\n      swap1\n      sub\n      0x1f\n      and\n      dup3\n      add\n      swap2\n    tag_163:\n      pop\n      pop\n      pop\n      pop\n      pop\n    tag_160:\n        /* \"contracts/_Database6.sol\":4877:5025  return (patient.name, _bloodGroup ? patient.bloodGroup : \"\",_allergies ? patient.allergies : \"\",_specialConditions ? patient.specialConditions : \"\") */\n      dup4\n      dup1\n      sload\n      tag_166\n      swap1\n      tag_97\n      jump\t// in\n    tag_166:\n      dup1\n      0x1f\n      add\n      0x20\n      dup1\n      swap2\n      div\n      mul\n      0x20\n      add\n      mload(0x40)\n      swap1\n      dup2\n      add\n      0x40\n      mstore\n      dup1\n      swap3\n      swap2\n      swap1\n      dup2\n      dup2\n      mstore\n      0x20\n      add\n      dup3\n      dup1\n      sload\n      tag_167\n      swap1\n      tag_97\n      jump\t// in\n    tag_167:\n      dup1\n      iszero\n      tag_168\n      jumpi\n      dup1\n      0x1f\n      lt\n      tag_169\n      jumpi\n      0x0100\n      dup1\n      dup4\n      sload\n      div\n      mul\n      dup4\n      mstore\n      swap2\n      0x20\n      add\n      swap2\n      jump(tag_168)\n    tag_169:\n      dup3\n      add\n      swap2\n      swap1\n      0x00\n      mstore\n      keccak256(0x00, 0x20)\n      swap1\n    tag_170:\n      dup2\n      sload\n      dup2\n      mstore\n      swap1\n      0x01\n      add\n      swap1\n      0x20\n      add\n      dup1\n      dup4\n      gt\n      tag_170\n      jumpi\n      dup3\n      swap1\n      sub\n      0x1f\n      and\n      dup3\n      add\n      swap2\n    tag_168:\n      pop\n      pop\n      pop\n      pop\n      pop\n      swap4\n      pop\n      swap5\n      pop\n      swap5\n      pop\n      swap5\n      pop\n      swap5\n      pop\n      pop\n        /* \"contracts/_Database6.sol\":4478:5033  function getPatientInfo(... */\n      swap5\n      pop\n      swap5\n      pop\n      swap5\n      pop\n      swap5\n      swap1\n      pop\n      jump\t// out\n        /* \"contracts/_Database6.sol\":4279:4469  function revokeDoctor(string memory _doctorId, string memory _p_id) public {... */\n    tag_43:\n        /* \"contracts/_Database6.sol\":4365:4388  Patient storage patient */\n      0x00\n        /* \"contracts/_Database6.sol\":4391:4399  patients */\n      dup1\n        /* \"contracts/_Database6.sol\":4400:4405  _p_id */\n      dup3\n        /* \"contracts/_Database6.sol\":4391:4406  patients[_p_id] */\n      mload(0x40)\n      tag_172\n      swap2\n      swap1\n      tag_72\n      jump\t// in\n    tag_172:\n      swap1\n      dup2\n      mstore\n      0x20\n      add\n      mload(0x40)\n      dup1\n      swap2\n      sub\n      swap1\n      keccak256\n        /* \"contracts/_Database6.sol\":4365:4406  Patient storage patient = patients[_p_id] */\n      swap1\n      pop\n        /* \"contracts/_Database6.sol\":4456:4461  false */\n      0x00\n        /* \"contracts/_Database6.sol\":4417:4424  patient */\n      dup2\n        /* \"contracts/_Database6.sol\":4417:4442  patient.authorizedDoctors */\n      0x0e\n      add\n        /* \"contracts/_Database6.sol\":4443:4452  _doctorId */\n      dup5\n        /* \"contracts/_Database6.sol\":4417:4453  patient.authorizedDoctors[_doctorId] */\n      mload(0x40)\n      tag_173\n      swap2\n      swap1\n      tag_72\n      jump\t// in\n    tag_173:\n      swap1\n      dup2\n      mstore\n      0x20\n      add\n      mload(0x40)\n      dup1\n      swap2\n      sub\n      swap1\n      keccak256\n      0x00\n        /* \"contracts/_Database6.sol\":4417:4461  patient.authorizedDoctors[_doctorId] = false */\n      0x0100\n      exp\n      dup2\n      sload\n      dup2\n      0xff\n      mul\n      not\n      and\n      swap1\n      dup4\n      iszero\n      iszero\n      mul\n      or\n      swap1\n      sstore\n      pop\n        /* \"contracts/_Database6.sol\":4354:4469  {... */\n      pop\n        /* \"contracts/_Database6.sol\":4279:4469  function revokeDoctor(string memory _doctorId, string memory _p_id) public {... */\n      pop\n      pop\n      jump\t// out\n        /* \"contracts/_Database6.sol\":2308:2647  function updateVaccine(... */\n    tag_47:\n        /* \"contracts/_Database6.sol\":2446:2469  Patient storage patient */\n      0x00\n        /* \"contracts/_Database6.sol\":2472:2480  patients */\n      dup1\n        /* \"contracts/_Database6.sol\":2481:2486  _p_id */\n      dup5\n        /* \"contracts/_Database6.sol\":2472:2487  patients[_p_id] */\n      mload(0x40)\n      tag_175\n      swap2\n      swap1\n      tag_72\n      jump\t// in\n    tag_175:\n      swap1\n      dup2\n      mstore\n      0x20\n      add\n      mload(0x40)\n      dup1\n      swap2\n      sub\n      swap1\n      keccak256\n        /* \"contracts/_Database6.sol\":2446:2487  Patient storage patient = patients[_p_id] */\n      swap1\n      pop\n        /* \"contracts/_Database6.sol\":2498:2518  uint256 vaccineIndex */\n      0x00\n        /* \"contracts/_Database6.sol\":2521:2528  patient */\n      dup2\n        /* \"contracts/_Database6.sol\":2521:2541  patient.vaccineCount */\n      0x0d\n      add\n      sload\n        /* \"contracts/_Database6.sol\":2498:2541  uint256 vaccineIndex = patient.vaccineCount */\n      swap1\n      pop\n        /* \"contracts/_Database6.sol\":2585:2606  Vaccine(_name, _date) */\n      mload(0x40)\n      dup1\n      0x40\n      add\n      0x40\n      mstore\n      dup1\n        /* \"contracts/_Database6.sol\":2593:2598  _name */\n      dup6\n        /* \"contracts/_Database6.sol\":2585:2606  Vaccine(_name, _date) */\n      dup2\n      mstore\n      0x20\n      add\n        /* \"contracts/_Database6.sol\":2600:2605  _date */\n      dup5\n        /* \"contracts/_Database6.sol\":2585:2606  Vaccine(_name, _date) */\n      dup2\n      mstore\n      pop\n        /* \"contracts/_Database6.sol\":2552:2559  patient */\n      dup3\n        /* \"contracts/_Database6.sol\":2552:2568  patient.vaccines */\n      0x0c\n      add\n        /* \"contracts/_Database6.sol\":2552:2582  patient.vaccines[vaccineIndex] */\n      0x00\n        /* \"contracts/_Database6.sol\":2569:2581  vaccineIndex */\n      dup4\n        /* \"contracts/_Database6.sol\":2552:2582  patient.vaccines[vaccineIndex] */\n      dup2\n      mstore\n      0x20\n      add\n      swap1\n      dup2\n      mstore\n      0x20\n      add\n      0x00\n      keccak256\n        /* \"contracts/_Database6.sol\":2552:2606  patient.vaccines[vaccineIndex] = Vaccine(_name, _date) */\n      0x00\n      dup3\n      add\n      mload\n      dup2\n      0x00\n      add\n      swap1\n      dup2\n      tag_176\n      swap2\n      swap1\n      tag_74\n      jump\t// in\n    tag_176:\n      pop\n      0x20\n      dup3\n      add\n      mload\n      dup2\n      0x01\n      add\n      swap1\n      dup2\n      tag_177\n      swap2\n      swap1\n      tag_74\n      jump\t// in\n    tag_177:\n      pop\n      swap1\n      pop\n      pop\n        /* \"contracts/_Database6.sol\":2617:2624  patient */\n      dup2\n        /* \"contracts/_Database6.sol\":2617:2637  patient.vaccineCount */\n      0x0d\n      add\n      0x00\n        /* \"contracts/_Database6.sol\":2617:2639  patient.vaccineCount++ */\n      dup2\n      sload\n      dup1\n      swap3\n      swap2\n      swap1\n      tag_178\n      swap1\n      tag_79\n      jump\t// in\n    tag_178:\n      swap2\n      swap1\n      pop\n      sstore\n      pop\n        /* \"contracts/_Database6.sol\":2435:2647  {... */\n      pop\n      pop\n        /* \"contracts/_Database6.sol\":2308:2647  function updateVaccine(... */\n      pop\n      pop\n      pop\n      jump\t// out\n        /* \"contracts/_Database6.sol\":3676:4069  function updateSugar(... */\n    tag_51:\n        /* \"contracts/_Database6.sol\":3857:3880  Patient storage patient */\n      0x00\n        /* \"contracts/_Database6.sol\":3883:3891  patients */\n      dup1\n        /* \"contracts/_Database6.sol\":3892:3897  _p_id */\n      dup7\n        /* \"contracts/_Database6.sol\":3883:3898  patients[_p_id] */\n      mload(0x40)\n      tag_180\n      swap2\n      swap1\n      tag_72\n      jump\t// in\n    tag_180:\n      swap1\n      dup2\n      mstore\n      0x20\n      add\n      mload(0x40)\n      dup1\n      swap2\n      sub\n      swap1\n      keccak256\n        /* \"contracts/_Database6.sol\":3857:3898  Patient storage patient = patients[_p_id] */\n      swap1\n      pop\n        /* \"contracts/_Database6.sol\":3909:3927  uint256 sugarIndex */\n      0x00\n        /* \"contracts/_Database6.sol\":3930:3937  patient */\n      dup2\n        /* \"contracts/_Database6.sol\":3930:3948  patient.sugarCount */\n      0x0b\n      add\n      sload\n        /* \"contracts/_Database6.sol\":3909:3948  uint256 sugarIndex = patient.sugarCount */\n      swap1\n      pop\n        /* \"contracts/_Database6.sol\":3988:4030  Sugar(_date, _fasting, _afterMeal, _level) */\n      mload(0x40)\n      dup1\n      0x80\n      add\n      0x40\n      mstore\n      dup1\n        /* \"contracts/_Database6.sol\":3994:3999  _date */\n      dup8\n        /* \"contracts/_Database6.sol\":3988:4030  Sugar(_date, _fasting, _afterMeal, _level) */\n      dup2\n      mstore\n      0x20\n      add\n        /* \"contracts/_Database6.sol\":4001:4009  _fasting */\n      dup7\n        /* \"contracts/_Database6.sol\":3988:4030  Sugar(_date, _fasting, _afterMeal, _level) */\n      iszero\n      iszero\n      dup2\n      mstore\n      0x20\n      add\n        /* \"contracts/_Database6.sol\":4011:4021  _afterMeal */\n      dup6\n        /* \"contracts/_Database6.sol\":3988:4030  Sugar(_date, _fasting, _afterMeal, _level) */\n      iszero\n      iszero\n      dup2\n      mstore\n      0x20\n      add\n        /* \"contracts/_Database6.sol\":4023:4029  _level */\n      dup5\n        /* \"contracts/_Database6.sol\":3988:4030  Sugar(_date, _fasting, _afterMeal, _level) */\n      dup2\n      mstore\n      pop\n        /* \"contracts/_Database6.sol\":3959:3966  patient */\n      dup3\n        /* \"contracts/_Database6.sol\":3959:3973  patient.sugars */\n      0x0a\n      add\n        /* \"contracts/_Database6.sol\":3959:3985  patient.sugars[sugarIndex] */\n      0x00\n        /* \"contracts/_Database6.sol\":3974:3984  sugarIndex */\n      dup4\n        /* \"contracts/_Database6.sol\":3959:3985  patient.sugars[sugarIndex] */\n      dup2\n      mstore\n      0x20\n      add\n      swap1\n      dup2\n      mstore\n      0x20\n      add\n      0x00\n      keccak256\n        /* \"contracts/_Database6.sol\":3959:4030  patient.sugars[sugarIndex] = Sugar(_date, _fasting, _afterMeal, _level) */\n      0x00\n      dup3\n      add\n      mload\n      dup2\n      0x00\n      add\n      swap1\n      dup2\n      tag_181\n      swap2\n      swap1\n      tag_74\n      jump\t// in\n    tag_181:\n      pop\n      0x20\n      dup3\n      add\n      mload\n      dup2\n      0x01\n      add\n      exp(0x0100, 0x00)\n      dup2\n      sload\n      dup2\n      0xff\n      mul\n      not\n      and\n      swap1\n      dup4\n      iszero\n      iszero\n      mul\n      or\n      swap1\n      sstore\n      pop\n      0x40\n      dup3\n      add\n      mload\n      dup2\n      0x01\n      add\n      exp(0x0100, 0x01)\n      dup2\n      sload\n      dup2\n      0xff\n      mul\n      not\n      and\n      swap1\n      dup4\n      iszero\n      iszero\n      mul\n      or\n      swap1\n      sstore\n      pop\n      0x60\n      dup3\n      add\n      mload\n      dup2\n      0x02\n      add\n      sstore\n      swap1\n      pop\n      pop\n        /* \"contracts/_Database6.sol\":4041:4048  patient */\n      dup2\n        /* \"contracts/_Database6.sol\":4041:4059  patient.sugarCount */\n      0x0b\n      add\n      0x00\n        /* \"contracts/_Database6.sol\":4041:4061  patient.sugarCount++ */\n      dup2\n      sload\n      dup1\n      swap3\n      swap2\n      swap1\n      tag_182\n      swap1\n      tag_79\n      jump\t// in\n    tag_182:\n      swap2\n      swap1\n      pop\n      sstore\n      pop\n        /* \"contracts/_Database6.sol\":3846:4069  {... */\n      pop\n      pop\n        /* \"contracts/_Database6.sol\":3676:4069  function updateSugar(... */\n      pop\n      pop\n      pop\n      pop\n      pop\n      jump\t// out\n        /* \"contracts/_Database6.sol\":5041:5631  function getPrescriptions(string memory _p_id,bool _prescriptions) public view returns (Prescription[] memory) {... */\n    tag_54:\n        /* \"contracts/_Database6.sol\":5129:5150  Prescription[] memory */\n      0x60\n        /* \"contracts/_Database6.sol\":5166:5180  _prescriptions */\n      dup2\n        /* \"contracts/_Database6.sol\":5162:5624  if( _prescriptions)... */\n      iszero\n      tag_184\n      jumpi\n        /* \"contracts/_Database6.sol\":5192:5215  Patient storage patient */\n      0x00\n        /* \"contracts/_Database6.sol\":5218:5226  patients */\n      dup1\n        /* \"contracts/_Database6.sol\":5227:5232  _p_id */\n      dup5\n        /* \"contracts/_Database6.sol\":5218:5233  patients[_p_id] */\n      mload(0x40)\n      tag_185\n      swap2\n      swap1\n      tag_72\n      jump\t// in\n    tag_185:\n      swap1\n      dup2\n      mstore\n      0x20\n      add\n      mload(0x40)\n      dup1\n      swap2\n      sub\n      swap1\n      keccak256\n        /* \"contracts/_Database6.sol\":5192:5233  Patient storage patient = patients[_p_id] */\n      swap1\n      pop\n        /* \"contracts/_Database6.sol\":5244:5257  uint256 count */\n      0x00\n        /* \"contracts/_Database6.sol\":5260:5267  patient */\n      dup2\n        /* \"contracts/_Database6.sol\":5260:5285  patient.prescriptionCount */\n      0x07\n      add\n      sload\n        /* \"contracts/_Database6.sol\":5244:5285  uint256 count = patient.prescriptionCount */\n      swap1\n      pop\n        /* \"contracts/_Database6.sol\":5296:5331  Prescription[] memory prescriptions */\n      0x00\n        /* \"contracts/_Database6.sol\":5353:5358  count */\n      dup2\n        /* \"contracts/_Database6.sol\":5334:5359  new Prescription[](count) */\n      0xffffffffffffffff\n      dup2\n      gt\n      iszero\n      tag_186\n      jumpi\n      tag_187\n      tag_88\n      jump\t// in\n    tag_187:\n    tag_186:\n      mload(0x40)\n      swap1\n      dup1\n      dup3\n      mstore\n      dup1\n      0x20\n      mul\n      0x20\n      add\n      dup3\n      add\n      0x40\n      mstore\n      dup1\n      iszero\n      tag_188\n      jumpi\n      dup2\n      0x20\n      add\n    tag_189:\n      tag_190\n      tag_191\n      jump\t// in\n    tag_190:\n      dup2\n      mstore\n      0x20\n      add\n      swap1\n      0x01\n      swap1\n      sub\n      swap1\n      dup2\n      tag_189\n      jumpi\n      swap1\n      pop\n    tag_188:\n      pop\n        /* \"contracts/_Database6.sol\":5296:5359  Prescription[] memory prescriptions = new Prescription[](count) */\n      swap1\n      pop\n        /* \"contracts/_Database6.sol\":5377:5386  uint256 i */\n      0x00\n        /* \"contracts/_Database6.sol\":5372:5478  for (uint256 i = 0; i < count; i++) {... */\n    tag_192:\n        /* \"contracts/_Database6.sol\":5396:5401  count */\n      dup3\n        /* \"contracts/_Database6.sol\":5392:5393  i */\n      dup2\n        /* \"contracts/_Database6.sol\":5392:5401  i < count */\n      lt\n        /* \"contracts/_Database6.sol\":5372:5478  for (uint256 i = 0; i < count; i++) {... */\n      iszero\n      tag_193\n      jumpi\n        /* \"contracts/_Database6.sol\":5442:5449  patient */\n      dup4\n        /* \"contracts/_Database6.sol\":5442:5463  patient.prescriptions */\n      0x06\n      add\n        /* \"contracts/_Database6.sol\":5442:5466  patient.prescriptions[i] */\n      0x00\n        /* \"contracts/_Database6.sol\":5464:5465  i */\n      dup3\n        /* \"contracts/_Database6.sol\":5442:5466  patient.prescriptions[i] */\n      dup2\n      mstore\n      0x20\n      add\n      swap1\n      dup2\n      mstore\n      0x20\n      add\n      0x00\n      keccak256\n        /* \"contracts/_Database6.sol\":5423:5466  prescriptions[i] = patient.prescriptions[i] */\n      mload(0x40)\n      dup1\n      0xe0\n      add\n      0x40\n      mstore\n      swap1\n      dup2\n      0x00\n      dup3\n      add\n      dup1\n      sload\n      tag_195\n      swap1\n      tag_97\n      jump\t// in\n    tag_195:\n      dup1\n      0x1f\n      add\n      0x20\n      dup1\n      swap2\n      div\n      mul\n      0x20\n      add\n      mload(0x40)\n      swap1\n      dup2\n      add\n      0x40\n      mstore\n      dup1\n      swap3\n      swap2\n      swap1\n      dup2\n      dup2\n      mstore\n      0x20\n      add\n      dup3\n      dup1\n      sload\n      tag_196\n      swap1\n      tag_97\n      jump\t// in\n    tag_196:\n      dup1\n      iszero\n      tag_197\n      jumpi\n      dup1\n      0x1f\n      lt\n      tag_198\n      jumpi\n      0x0100\n      dup1\n      dup4\n      sload\n      div\n      mul\n      dup4\n      mstore\n      swap2\n      0x20\n      add\n      swap2\n      jump(tag_197)\n    tag_198:\n      dup3\n      add\n      swap2\n      swap1\n      0x00\n      mstore\n      keccak256(0x00, 0x20)\n      swap1\n    tag_199:\n      dup2\n      sload\n      dup2\n      mstore\n      swap1\n      0x01\n      add\n      swap1\n      0x20\n      add\n      dup1\n      dup4\n      gt\n      tag_199\n      jumpi\n      dup3\n      swap1\n      sub\n      0x1f\n      and\n      dup3\n      add\n      swap2\n    tag_197:\n      pop\n      pop\n      pop\n      pop\n      pop\n      dup2\n      mstore\n      0x20\n      add\n      0x01\n      dup3\n      add\n      dup1\n      sload\n      tag_200\n      swap1\n      tag_97\n      jump\t// in\n    tag_200:\n      dup1\n      0x1f\n      add\n      0x20\n      dup1\n      swap2\n      div\n      mul\n      0x20\n      add\n      mload(0x40)\n      swap1\n      dup2\n      add\n      0x40\n      mstore\n      dup1\n      swap3\n      swap2\n      swap1\n      dup2\n      dup2\n      mstore\n      0x20\n      add\n      dup3\n      dup1\n      sload\n      tag_201\n      swap1\n      tag_97\n      jump\t// in\n    tag_201:\n      dup1\n      iszero\n      tag_202\n      jumpi\n      dup1\n      0x1f\n      lt\n      tag_203\n      jumpi\n      0x0100\n      dup1\n      dup4\n      sload\n      div\n      mul\n      dup4\n      mstore\n      swap2\n      0x20\n      add\n      swap2\n      jump(tag_202)\n    tag_203:\n      dup3\n      add\n      swap2\n      swap1\n      0x00\n      mstore\n      keccak256(0x00, 0x20)\n      swap1\n    tag_204:\n      dup2\n      sload\n      dup2\n      mstore\n      swap1\n      0x01\n      add\n      swap1\n      0x20\n      add\n      dup1\n      dup4\n      gt\n      tag_204\n      jumpi\n      dup3\n      swap1\n      sub\n      0x1f\n      and\n      dup3\n      add\n      swap2\n    tag_202:\n      pop\n      pop\n      pop\n      pop\n      pop\n      dup2\n      mstore\n      0x20\n      add\n      0x02\n      dup3\n      add\n      0x00\n      swap1\n      sload\n      swap1\n      0x0100\n      exp\n      swap1\n      div\n      0xff\n      and\n      iszero\n      iszero\n      iszero\n      iszero\n      dup2\n      mstore\n      0x20\n      add\n      0x02\n      dup3\n      add\n      0x01\n      swap1\n      sload\n      swap1\n      0x0100\n      exp\n      swap1\n      div\n      0xff\n      and\n      iszero\n      iszero\n      iszero\n      iszero\n      dup2\n      mstore\n      0x20\n      add\n      0x02\n      dup3\n      add\n      0x02\n      swap1\n      sload\n      swap1\n      0x0100\n      exp\n      swap1\n      div\n      0xff\n      and\n      iszero\n      iszero\n      iszero\n      iszero\n      dup2\n      mstore\n      0x20\n      add\n      0x03\n      dup3\n      add\n      dup1\n      sload\n      tag_205\n      swap1\n      tag_97\n      jump\t// in\n    tag_205:\n      dup1\n      0x1f\n      add\n      0x20\n      dup1\n      swap2\n      div\n      mul\n      0x20\n      add\n      mload(0x40)\n      swap1\n      dup2\n      add\n      0x40\n      mstore\n      dup1\n      swap3\n      swap2\n      swap1\n      dup2\n      dup2\n      mstore\n      0x20\n      add\n      dup3\n      dup1\n      sload\n      tag_206\n      swap1\n      tag_97\n      jump\t// in\n    tag_206:\n      dup1\n      iszero\n      tag_207\n      jumpi\n      dup1\n      0x1f\n      lt\n      tag_208\n      jumpi\n      0x0100\n      dup1\n      dup4\n      sload\n      div\n      mul\n      dup4\n      mstore\n      swap2\n      0x20\n      add\n      swap2\n      jump(tag_207)\n    tag_208:\n      dup3\n      add\n      swap2\n      swap1\n      0x00\n      mstore\n      keccak256(0x00, 0x20)\n      swap1\n    tag_209:\n      dup2\n      sload\n      dup2\n      mstore\n      swap1\n      0x01\n      add\n      swap1\n      0x20\n      add\n      dup1\n      dup4\n      gt\n      tag_209\n      jumpi\n      dup3\n      swap1\n      sub\n      0x1f\n      and\n      dup3\n      add\n      swap2\n    tag_207:\n      pop\n      pop\n      pop\n      pop\n      pop\n      dup2\n      mstore\n      0x20\n      add\n      0x04\n      dup3\n      add\n      dup1\n      sload\n      tag_210\n      swap1\n      tag_97\n      jump\t// in\n    tag_210:\n      dup1\n      0x1f\n      add\n      0x20\n      dup1\n      swap2\n      div\n      mul\n      0x20\n      add\n      mload(0x40)\n      swap1\n      dup2\n      add\n      0x40\n      mstore\n      dup1\n      swap3\n      swap2\n      swap1\n      dup2\n      dup2\n      mstore\n      0x20\n      add\n      dup3\n      dup1\n      sload\n      tag_211\n      swap1\n      tag_97\n      jump\t// in\n    tag_211:\n      dup1\n      iszero\n      tag_212\n      jumpi\n      dup1\n      0x1f\n      lt\n      tag_213\n      jumpi\n      0x0100\n      dup1\n      dup4\n      sload\n      div\n      mul\n      dup4\n      mstore\n      swap2\n      0x20\n      add\n      swap2\n      jump(tag_212)\n    tag_213:\n      dup3\n      add\n      swap2\n      swap1\n      0x00\n      mstore\n      keccak256(0x00, 0x20)\n      swap1\n    tag_214:\n      dup2\n      sload\n      dup2\n      mstore\n      swap1\n      0x01\n      add\n      swap1\n      0x20\n      add\n      dup1\n      dup4\n      gt\n      tag_214\n      jumpi\n      dup3\n      swap1\n      sub\n      0x1f\n      and\n      dup3\n      add\n      swap2\n    tag_212:\n      pop\n      pop\n      pop\n      pop\n      pop\n      dup2\n      mstore\n      pop\n      pop\n        /* \"contracts/_Database6.sol\":5423:5436  prescriptions */\n      dup3\n        /* \"contracts/_Database6.sol\":5437:5438  i */\n      dup3\n        /* \"contracts/_Database6.sol\":5423:5439  prescriptions[i] */\n      dup2\n      mload\n      dup2\n      lt\n      tag_215\n      jumpi\n      tag_216\n      tag_104\n      jump\t// in\n    tag_216:\n    tag_215:\n      0x20\n      mul\n      0x20\n      add\n      add\n        /* \"contracts/_Database6.sol\":5423:5466  prescriptions[i] = patient.prescriptions[i] */\n      dup2\n      swap1\n      mstore\n      pop\n        /* \"contracts/_Database6.sol\":5403:5406  i++ */\n      dup1\n      dup1\n      tag_217\n      swap1\n      tag_79\n      jump\t// in\n    tag_217:\n      swap2\n      pop\n      pop\n        /* \"contracts/_Database6.sol\":5372:5478  for (uint256 i = 0; i < count; i++) {... */\n      jump(tag_192)\n    tag_193:\n      pop\n        /* \"contracts/_Database6.sol\":5495:5508  prescriptions */\n      dup1\n        /* \"contracts/_Database6.sol\":5488:5508  return prescriptions */\n      swap4\n      pop\n      pop\n      pop\n      pop\n      jump(tag_183)\n        /* \"contracts/_Database6.sol\":5162:5624  if( _prescriptions)... */\n    tag_184:\n        /* \"contracts/_Database6.sol\":5562:5563  0 */\n      0x00\n        /* \"contracts/_Database6.sol\":5543:5564  new Prescription[](0) */\n      0xffffffffffffffff\n      dup2\n      gt\n      iszero\n      tag_219\n      jumpi\n      tag_220\n      tag_88\n      jump\t// in\n    tag_220:\n    tag_219:\n      mload(0x40)\n      swap1\n      dup1\n      dup3\n      mstore\n      dup1\n      0x20\n      mul\n      0x20\n      add\n      dup3\n      add\n      0x40\n      mstore\n      dup1\n      iszero\n      tag_221\n      jumpi\n      dup2\n      0x20\n      add\n    tag_222:\n      tag_223\n      tag_191\n      jump\t// in\n    tag_223:\n      dup2\n      mstore\n      0x20\n      add\n      swap1\n      0x01\n      swap1\n      sub\n      swap1\n      dup2\n      tag_222\n      jumpi\n      swap1\n      pop\n    tag_221:\n      pop\n        /* \"contracts/_Database6.sol\":5536:5564  return new Prescription[](0) */\n      swap1\n      pop\n        /* \"contracts/_Database6.sol\":5041:5631  function getPrescriptions(string memory _p_id,bool _prescriptions) public view returns (Prescription[] memory) {... */\n    tag_183:\n      swap3\n      swap2\n      pop\n      pop\n      jump\t// out\n        /* \"contracts/_Database6.sol\":1401:1965  function addPatient(... */\n    tag_60:\n        /* \"contracts/_Database6.sol\":1680:1703  Patient storage patient */\n      0x00\n        /* \"contracts/_Database6.sol\":1706:1714  patients */\n      dup1\n        /* \"contracts/_Database6.sol\":1715:1718  _id */\n      dup9\n        /* \"contracts/_Database6.sol\":1706:1719  patients[_id] */\n      mload(0x40)\n      tag_225\n      swap2\n      swap1\n      tag_72\n      jump\t// in\n    tag_225:\n      swap1\n      dup2\n      mstore\n      0x20\n      add\n      mload(0x40)\n      dup1\n      swap2\n      sub\n      swap1\n      keccak256\n        /* \"contracts/_Database6.sol\":1680:1719  Patient storage patient = patients[_id] */\n      swap1\n      pop\n        /* \"contracts/_Database6.sol\":1745:1750  _name */\n      dup7\n        /* \"contracts/_Database6.sol\":1730:1737  patient */\n      dup2\n        /* \"contracts/_Database6.sol\":1730:1742  patient.name */\n      0x00\n      add\n        /* \"contracts/_Database6.sol\":1730:1750  patient.name = _name */\n      swap1\n      dup2\n      tag_226\n      swap2\n      swap1\n      tag_74\n      jump\t// in\n    tag_226:\n      pop\n        /* \"contracts/_Database6.sol\":1775:1779  _DOB */\n      dup6\n        /* \"contracts/_Database6.sol\":1761:1768  patient */\n      dup2\n        /* \"contracts/_Database6.sol\":1761:1772  patient.DOB */\n      0x01\n      add\n        /* \"contracts/_Database6.sol\":1761:1779  patient.DOB = _DOB */\n      swap1\n      dup2\n      tag_227\n      swap2\n      swap1\n      tag_74\n      jump\t// in\n    tag_227:\n      pop\n        /* \"contracts/_Database6.sol\":1808:1816  _phoneNo */\n      dup5\n        /* \"contracts/_Database6.sol\":1790:1797  patient */\n      dup2\n        /* \"contracts/_Database6.sol\":1790:1805  patient.phoneNo */\n      0x02\n      add\n        /* \"contracts/_Database6.sol\":1790:1816  patient.phoneNo = _phoneNo */\n      swap1\n      dup2\n      tag_228\n      swap2\n      swap1\n      tag_74\n      jump\t// in\n    tag_228:\n      pop\n        /* \"contracts/_Database6.sol\":1847:1857  _allergies */\n      dup3\n        /* \"contracts/_Database6.sol\":1827:1834  patient */\n      dup2\n        /* \"contracts/_Database6.sol\":1827:1844  patient.allergies */\n      0x05\n      add\n        /* \"contracts/_Database6.sol\":1827:1857  patient.allergies = _allergies */\n      swap1\n      dup2\n      tag_229\n      swap2\n      swap1\n      tag_74\n      jump\t// in\n    tag_229:\n      pop\n        /* \"contracts/_Database6.sol\":1896:1914  _specialConditions */\n      dup4\n        /* \"contracts/_Database6.sol\":1868:1875  patient */\n      dup2\n        /* \"contracts/_Database6.sol\":1868:1893  patient.specialConditions */\n      0x03\n      add\n        /* \"contracts/_Database6.sol\":1868:1914  patient.specialConditions = _specialConditions */\n      swap1\n      dup2\n      tag_230\n      swap2\n      swap1\n      tag_74\n      jump\t// in\n    tag_230:\n      pop\n        /* \"contracts/_Database6.sol\":1946:1957  _bloodGroup */\n      dup2\n        /* \"contracts/_Database6.sol\":1925:1932  patient */\n      dup2\n        /* \"contracts/_Database6.sol\":1925:1943  patient.bloodGroup */\n      0x04\n      add\n        /* \"contracts/_Database6.sol\":1925:1957  patient.bloodGroup = _bloodGroup */\n      swap1\n      dup2\n      tag_231\n      swap2\n      swap1\n      tag_74\n      jump\t// in\n    tag_231:\n      pop\n        /* \"contracts/_Database6.sol\":1669:1965  {... */\n      pop\n        /* \"contracts/_Database6.sol\":1401:1965  function addPatient(... */\n      pop\n      pop\n      pop\n      pop\n      pop\n      pop\n      pop\n      jump\t// out\n        /* \"contracts/_Database6.sol\":3243:3668  function updateBloodPressure(... */\n    tag_64:\n        /* \"contracts/_Database6.sol\":3423:3446  Patient storage patient */\n      0x00\n        /* \"contracts/_Database6.sol\":3449:3457  patients */\n      dup1\n        /* \"contracts/_Database6.sol\":3458:3463  _p_id */\n      dup7\n        /* \"contracts/_Database6.sol\":3449:3464  patients[_p_id] */\n      mload(0x40)\n      tag_233\n      swap2\n      swap1\n      tag_72\n      jump\t// in\n    tag_233:\n      swap1\n      dup2\n      mstore\n      0x20\n      add\n      mload(0x40)\n      dup1\n      swap2\n      sub\n      swap1\n      keccak256\n        /* \"contracts/_Database6.sol\":3423:3464  Patient storage patient = patients[_p_id] */\n      swap1\n      pop\n        /* \"contracts/_Database6.sol\":3475:3501  uint256 bloodPressureIndex */\n      0x00\n        /* \"contracts/_Database6.sol\":3504:3511  patient */\n      dup2\n        /* \"contracts/_Database6.sol\":3504:3530  patient.bloodPressureCount */\n      0x09\n      add\n      sload\n        /* \"contracts/_Database6.sol\":3475:3530  uint256 bloodPressureIndex = patient.bloodPressureCount */\n      swap1\n      pop\n        /* \"contracts/_Database6.sol\":3586:3621  BloodPressure(_date, _SP, _DP, _HB) */\n      mload(0x40)\n      dup1\n      0x80\n      add\n      0x40\n      mstore\n      dup1\n        /* \"contracts/_Database6.sol\":3600:3605  _date */\n      dup8\n        /* \"contracts/_Database6.sol\":3586:3621  BloodPressure(_date, _SP, _DP, _HB) */\n      dup2\n      mstore\n      0x20\n      add\n        /* \"contracts/_Database6.sol\":3607:3610  _SP */\n      dup7\n        /* \"contracts/_Database6.sol\":3586:3621  BloodPressure(_date, _SP, _DP, _HB) */\n      dup2\n      mstore\n      0x20\n      add\n        /* \"contracts/_Database6.sol\":3612:3615  _DP */\n      dup6\n        /* \"contracts/_Database6.sol\":3586:3621  BloodPressure(_date, _SP, _DP, _HB) */\n      dup2\n      mstore\n      0x20\n      add\n        /* \"contracts/_Database6.sol\":3617:3620  _HB */\n      dup5\n        /* \"contracts/_Database6.sol\":3586:3621  BloodPressure(_date, _SP, _DP, _HB) */\n      dup2\n      mstore\n      pop\n        /* \"contracts/_Database6.sol\":3541:3548  patient */\n      dup3\n        /* \"contracts/_Database6.sol\":3541:3563  patient.bloodPressures */\n      0x08\n      add\n        /* \"contracts/_Database6.sol\":3541:3583  patient.bloodPressures[bloodPressureIndex] */\n      0x00\n        /* \"contracts/_Database6.sol\":3564:3582  bloodPressureIndex */\n      dup4\n        /* \"contracts/_Database6.sol\":3541:3583  patient.bloodPressures[bloodPressureIndex] */\n      dup2\n      mstore\n      0x20\n      add\n      swap1\n      dup2\n      mstore\n      0x20\n      add\n      0x00\n      keccak256\n        /* \"contracts/_Database6.sol\":3541:3621  patient.bloodPressures[bloodPressureIndex] = BloodPressure(_date, _SP, _DP, _HB) */\n      0x00\n      dup3\n      add\n      mload\n      dup2\n      0x00\n      add\n      swap1\n      dup2\n      tag_234\n      swap2\n      swap1\n      tag_74\n      jump\t// in\n    tag_234:\n      pop\n      0x20\n      dup3\n      add\n      mload\n      dup2\n      0x01\n      add\n      sstore\n      0x40\n      dup3\n      add\n      mload\n      dup2\n      0x02\n      add\n      sstore\n      0x60\n      dup3\n      add\n      mload\n      dup2\n      0x03\n      add\n      sstore\n      swap1\n      pop\n      pop\n        /* \"contracts/_Database6.sol\":3632:3639  patient */\n      dup2\n        /* \"contracts/_Database6.sol\":3632:3658  patient.bloodPressureCount */\n      0x09\n      add\n      0x00\n        /* \"contracts/_Database6.sol\":3632:3660  patient.bloodPressureCount++ */\n      dup2\n      sload\n      dup1\n      swap3\n      swap2\n      swap1\n      tag_235\n      swap1\n      tag_79\n      jump\t// in\n    tag_235:\n      swap2\n      swap1\n      pop\n      sstore\n      pop\n        /* \"contracts/_Database6.sol\":3412:3668  {... */\n      pop\n      pop\n        /* \"contracts/_Database6.sol\":3243:3668  function updateBloodPressure(... */\n      pop\n      pop\n      pop\n      pop\n      pop\n      jump\t// out\n        /* \"contracts/_Database6.sol\":6689:7201  function getPatientSugar(string memory _p_id,bool _sugar) public view returns (Sugar[] memory) {... */\n    tag_67:\n        /* \"contracts/_Database6.sol\":6768:6782  Sugar[] memory */\n      0x60\n        /* \"contracts/_Database6.sol\":6798:6804  _sugar */\n      dup2\n        /* \"contracts/_Database6.sol\":6795:7194  if(_sugar)... */\n      iszero\n      tag_237\n      jumpi\n        /* \"contracts/_Database6.sol\":6826:6849  Patient storage patient */\n      0x00\n        /* \"contracts/_Database6.sol\":6852:6860  patients */\n      dup1\n        /* \"contracts/_Database6.sol\":6861:6866  _p_id */\n      dup5\n        /* \"contracts/_Database6.sol\":6852:6867  patients[_p_id] */\n      mload(0x40)\n      tag_238\n      swap2\n      swap1\n      tag_72\n      jump\t// in\n    tag_238:\n      swap1\n      dup2\n      mstore\n      0x20\n      add\n      mload(0x40)\n      dup1\n      swap2\n      sub\n      swap1\n      keccak256\n        /* \"contracts/_Database6.sol\":6826:6867  Patient storage patient = patients[_p_id] */\n      swap1\n      pop\n        /* \"contracts/_Database6.sol\":6878:6891  uint256 count */\n      0x00\n        /* \"contracts/_Database6.sol\":6894:6901  patient */\n      dup2\n        /* \"contracts/_Database6.sol\":6894:6912  patient.sugarCount */\n      0x0b\n      add\n      sload\n        /* \"contracts/_Database6.sol\":6878:6912  uint256 count = patient.sugarCount */\n      swap1\n      pop\n        /* \"contracts/_Database6.sol\":6923:6944  Sugar[] memory sugars */\n      0x00\n        /* \"contracts/_Database6.sol\":6959:6964  count */\n      dup2\n        /* \"contracts/_Database6.sol\":6947:6965  new Sugar[](count) */\n      0xffffffffffffffff\n      dup2\n      gt\n      iszero\n      tag_239\n      jumpi\n      tag_240\n      tag_88\n      jump\t// in\n    tag_240:\n    tag_239:\n      mload(0x40)\n      swap1\n      dup1\n      dup3\n      mstore\n      dup1\n      0x20\n      mul\n      0x20\n      add\n      dup3\n      add\n      0x40\n      mstore\n      dup1\n      iszero\n      tag_241\n      jumpi\n      dup2\n      0x20\n      add\n    tag_242:\n      tag_243\n      tag_244\n      jump\t// in\n    tag_243:\n      dup2\n      mstore\n      0x20\n      add\n      swap1\n      0x01\n      swap1\n      sub\n      swap1\n      dup2\n      tag_242\n      jumpi\n      swap1\n      pop\n    tag_241:\n      pop\n        /* \"contracts/_Database6.sol\":6923:6965  Sugar[] memory sugars = new Sugar[](count) */\n      swap1\n      pop\n        /* \"contracts/_Database6.sol\":6981:6990  uint256 i */\n      0x00\n        /* \"contracts/_Database6.sol\":6976:7068  for (uint256 i = 0; i < count; i++) {... */\n    tag_245:\n        /* \"contracts/_Database6.sol\":7000:7005  count */\n      dup3\n        /* \"contracts/_Database6.sol\":6996:6997  i */\n      dup2\n        /* \"contracts/_Database6.sol\":6996:7005  i < count */\n      lt\n        /* \"contracts/_Database6.sol\":6976:7068  for (uint256 i = 0; i < count; i++) {... */\n      iszero\n      tag_246\n      jumpi\n        /* \"contracts/_Database6.sol\":7039:7046  patient */\n      dup4\n        /* \"contracts/_Database6.sol\":7039:7053  patient.sugars */\n      0x0a\n      add\n        /* \"contracts/_Database6.sol\":7039:7056  patient.sugars[i] */\n      0x00\n        /* \"contracts/_Database6.sol\":7054:7055  i */\n      dup3\n        /* \"contracts/_Database6.sol\":7039:7056  patient.sugars[i] */\n      dup2\n      mstore\n      0x20\n      add\n      swap1\n      dup2\n      mstore\n      0x20\n      add\n      0x00\n      keccak256\n        /* \"contracts/_Database6.sol\":7027:7056  sugars[i] = patient.sugars[i] */\n      mload(0x40)\n      dup1\n      0x80\n      add\n      0x40\n      mstore\n      swap1\n      dup2\n      0x00\n      dup3\n      add\n      dup1\n      sload\n      tag_248\n      swap1\n      tag_97\n      jump\t// in\n    tag_248:\n      dup1\n      0x1f\n      add\n      0x20\n      dup1\n      swap2\n      div\n      mul\n      0x20\n      add\n      mload(0x40)\n      swap1\n      dup2\n      add\n      0x40\n      mstore\n      dup1\n      swap3\n      swap2\n      swap1\n      dup2\n      dup2\n      mstore\n      0x20\n      add\n      dup3\n      dup1\n      sload\n      tag_249\n      swap1\n      tag_97\n      jump\t// in\n    tag_249:\n      dup1\n      iszero\n      tag_250\n      jumpi\n      dup1\n      0x1f\n      lt\n      tag_251\n      jumpi\n      0x0100\n      dup1\n      dup4\n      sload\n      div\n      mul\n      dup4\n      mstore\n      swap2\n      0x20\n      add\n      swap2\n      jump(tag_250)\n    tag_251:\n      dup3\n      add\n      swap2\n      swap1\n      0x00\n      mstore\n      keccak256(0x00, 0x20)\n      swap1\n    tag_252:\n      dup2\n      sload\n      dup2\n      mstore\n      swap1\n      0x01\n      add\n      swap1\n      0x20\n      add\n      dup1\n      dup4\n      gt\n      tag_252\n      jumpi\n      dup3\n      swap1\n      sub\n      0x1f\n      and\n      dup3\n      add\n      swap2\n    tag_250:\n      pop\n      pop\n      pop\n      pop\n      pop\n      dup2\n      mstore\n      0x20\n      add\n      0x01\n      dup3\n      add\n      0x00\n      swap1\n      sload\n      swap1\n      0x0100\n      exp\n      swap1\n      div\n      0xff\n      and\n      iszero\n      iszero\n      iszero\n      iszero\n      dup2\n      mstore\n      0x20\n      add\n      0x01\n      dup3\n      add\n      0x01\n      swap1\n      sload\n      swap1\n      0x0100\n      exp\n      swap1\n      div\n      0xff\n      and\n      iszero\n      iszero\n      iszero\n      iszero\n      dup2\n      mstore\n      0x20\n      add\n      0x02\n      dup3\n      add\n      sload\n      dup2\n      mstore\n      pop\n      pop\n        /* \"contracts/_Database6.sol\":7027:7033  sugars */\n      dup3\n        /* \"contracts/_Database6.sol\":7034:7035  i */\n      dup3\n        /* \"contracts/_Database6.sol\":7027:7036  sugars[i] */\n      dup2\n      mload\n      dup2\n      lt\n      tag_253\n      jumpi\n      tag_254\n      tag_104\n      jump\t// in\n    tag_254:\n    tag_253:\n      0x20\n      mul\n      0x20\n      add\n      add\n        /* \"contracts/_Database6.sol\":7027:7056  sugars[i] = patient.sugars[i] */\n      dup2\n      swap1\n      mstore\n      pop\n        /* \"contracts/_Database6.sol\":7007:7010  i++ */\n      dup1\n      dup1\n      tag_255\n      swap1\n      tag_79\n      jump\t// in\n    tag_255:\n      swap2\n      pop\n      pop\n        /* \"contracts/_Database6.sol\":6976:7068  for (uint256 i = 0; i < count; i++) {... */\n      jump(tag_245)\n    tag_246:\n      pop\n        /* \"contracts/_Database6.sol\":7087:7093  sugars */\n      dup1\n        /* \"contracts/_Database6.sol\":7080:7093  return sugars */\n      swap4\n      pop\n      pop\n      pop\n      pop\n      jump(tag_236)\n        /* \"contracts/_Database6.sol\":6795:7194  if(_sugar)... */\n    tag_237:\n        /* \"contracts/_Database6.sol\":7140:7141  0 */\n      0x00\n        /* \"contracts/_Database6.sol\":7128:7142  new Sugar[](0) */\n      0xffffffffffffffff\n      dup2\n      gt\n      iszero\n      tag_257\n      jumpi\n      tag_258\n      tag_88\n      jump\t// in\n    tag_258:\n    tag_257:\n      mload(0x40)\n      swap1\n      dup1\n      dup3\n      mstore\n      dup1\n      0x20\n      mul\n      0x20\n      add\n      dup3\n      add\n      0x40\n      mstore\n      dup1\n      iszero\n      tag_259\n      jumpi\n      dup2\n      0x20\n      add\n    tag_260:\n      tag_261\n      tag_244\n      jump\t// in\n    tag_261:\n      dup2\n      mstore\n      0x20\n      add\n      swap1\n      0x01\n      swap1\n      sub\n      swap1\n      dup2\n      tag_260\n      jumpi\n      swap1\n      pop\n    tag_259:\n      pop\n        /* \"contracts/_Database6.sol\":7121:7142  return new Sugar[](0) */\n      swap1\n      pop\n        /* \"contracts/_Database6.sol\":6689:7201  function getPatientSugar(string memory _p_id,bool _sugar) public view returns (Sugar[] memory) {... */\n    tag_236:\n      swap3\n      swap2\n      pop\n      pop\n      jump\t// out\n    tag_92:\n      mload(0x40)\n      dup1\n      0x80\n      add\n      0x40\n      mstore\n      dup1\n      0x60\n      dup2\n      mstore\n      0x20\n      add\n      0x00\n      dup2\n      mstore\n      0x20\n      add\n      0x00\n      dup2\n      mstore\n      0x20\n      add\n      0x00\n      dup2\n      mstore\n      pop\n      swap1\n      jump\t// out\n    tag_120:\n      mload(0x40)\n      dup1\n      0x40\n      add\n      0x40\n      mstore\n      dup1\n      0x60\n      dup2\n      mstore\n      0x20\n      add\n      0x60\n      dup2\n      mstore\n      pop\n      swap1\n      jump\t// out\n    tag_191:\n      mload(0x40)\n      dup1\n      0xe0\n      add\n      0x40\n      mstore\n      dup1\n      0x60\n      dup2\n      mstore\n      0x20\n      add\n      0x60\n      dup2\n      mstore\n      0x20\n      add\n      iszero(iszero(0x00))\n      dup2\n      mstore\n      0x20\n      add\n      iszero(iszero(0x00))\n      dup2\n      mstore\n      0x20\n      add\n      iszero(iszero(0x00))\n      dup2\n      mstore\n      0x20\n      add\n      0x60\n      dup2\n      mstore\n      0x20\n      add\n      0x60\n      dup2\n      mstore\n      pop\n      swap1\n      jump\t// out\n    tag_244:\n      mload(0x40)\n      dup1\n      0x80\n      add\n      0x40\n      mstore\n      dup1\n      0x60\n      dup2\n      mstore\n      0x20\n      add\n      iszero(iszero(0x00))\n      dup2\n      mstore\n      0x20\n      add\n      iszero(iszero(0x00))\n      dup2\n      mstore\n      0x20\n      add\n      0x00\n      dup2\n      mstore\n      pop\n      swap1\n      jump\t// out\n        /* \"#utility.yul\":7:82   */\n    tag_262:\n        /* \"#utility.yul\":40:46   */\n      0x00\n        /* \"#utility.yul\":73:75   */\n      0x40\n        /* \"#utility.yul\":67:76   */\n      mload\n        /* \"#utility.yul\":57:76   */\n      swap1\n      pop\n        /* \"#utility.yul\":7:82   */\n      swap1\n      jump\t// out\n        /* \"#utility.yul\":88:205   */\n    tag_263:\n        /* \"#utility.yul\":197:198   */\n      0x00\n        /* \"#utility.yul\":194:195   */\n      dup1\n        /* \"#utility.yul\":187:199   */\n      revert\n        /* \"#utility.yul\":211:328   */\n    tag_264:\n        /* \"#utility.yul\":320:321   */\n      0x00\n        /* \"#utility.yul\":317:318   */\n      dup1\n        /* \"#utility.yul\":310:322   */\n      revert\n        /* \"#utility.yul\":334:451   */\n    tag_265:\n        /* \"#utility.yul\":443:444   */\n      0x00\n        /* \"#utility.yul\":440:441   */\n      dup1\n        /* \"#utility.yul\":433:445   */\n      revert\n        /* \"#utility.yul\":457:574   */\n    tag_266:\n        /* \"#utility.yul\":566:567   */\n      0x00\n        /* \"#utility.yul\":563:564   */\n      dup1\n        /* \"#utility.yul\":556:568   */\n      revert\n        /* \"#utility.yul\":580:682   */\n    tag_267:\n        /* \"#utility.yul\":621:627   */\n      0x00\n        /* \"#utility.yul\":672:674   */\n      0x1f\n        /* \"#utility.yul\":668:675   */\n      not\n        /* \"#utility.yul\":663:665   */\n      0x1f\n        /* \"#utility.yul\":656:661   */\n      dup4\n        /* \"#utility.yul\":652:666   */\n      add\n        /* \"#utility.yul\":648:676   */\n      and\n        /* \"#utility.yul\":638:676   */\n      swap1\n      pop\n        /* \"#utility.yul\":580:682   */\n      swap2\n      swap1\n      pop\n      jump\t// out\n        /* \"#utility.yul\":688:868   */\n    tag_88:\n        /* \"#utility.yul\":736:813   */\n      0x4e487b7100000000000000000000000000000000000000000000000000000000\n        /* \"#utility.yul\":733:734   */\n      0x00\n        /* \"#utility.yul\":726:814   */\n      mstore\n        /* \"#utility.yul\":833:837   */\n      0x41\n        /* \"#utility.yul\":830:831   */\n      0x04\n        /* \"#utility.yul\":823:838   */\n      mstore\n        /* \"#utility.yul\":857:861   */\n      0x24\n        /* \"#utility.yul\":854:855   */\n      0x00\n        /* \"#utility.yul\":847:862   */\n      revert\n        /* \"#utility.yul\":874:1155   */\n    tag_268:\n        /* \"#utility.yul\":957:984   */\n      tag_344\n        /* \"#utility.yul\":979:983   */\n      dup3\n        /* \"#utility.yul\":957:984   */\n      tag_267\n      jump\t// in\n    tag_344:\n        /* \"#utility.yul\":949:955   */\n      dup2\n        /* \"#utility.yul\":945:985   */\n      add\n        /* \"#utility.yul\":1087:1093   */\n      dup2\n        /* \"#utility.yul\":1075:1085   */\n      dup2\n        /* \"#utility.yul\":1072:1094   */\n      lt\n        /* \"#utility.yul\":1051:1069   */\n      0xffffffffffffffff\n        /* \"#utility.yul\":1039:1049   */\n      dup3\n        /* \"#utility.yul\":1036:1070   */\n      gt\n        /* \"#utility.yul\":1033:1095   */\n      or\n        /* \"#utility.yul\":1030:1118   */\n      iszero\n      tag_345\n      jumpi\n        /* \"#utility.yul\":1098:1116   */\n      tag_346\n      tag_88\n      jump\t// in\n    tag_346:\n        /* \"#utility.yul\":1030:1118   */\n    tag_345:\n        /* \"#utility.yul\":1138:1148   */\n      dup1\n        /* \"#utility.yul\":1134:1136   */\n      0x40\n        /* \"#utility.yul\":1127:1149   */\n      mstore\n        /* \"#utility.yul\":917:1155   */\n      pop\n        /* \"#utility.yul\":874:1155   */\n      pop\n      pop\n      jump\t// out\n        /* \"#utility.yul\":1161:1290   */\n    tag_269:\n        /* \"#utility.yul\":1195:1201   */\n      0x00\n        /* \"#utility.yul\":1222:1242   */\n      tag_348\n      tag_262\n      jump\t// in\n    tag_348:\n        /* \"#utility.yul\":1212:1242   */\n      swap1\n      pop\n        /* \"#utility.yul\":1251:1284   */\n      tag_349\n        /* \"#utility.yul\":1279:1283   */\n      dup3\n        /* \"#utility.yul\":1271:1277   */\n      dup3\n        /* \"#utility.yul\":1251:1284   */\n      tag_268\n      jump\t// in\n    tag_349:\n        /* \"#utility.yul\":1161:1290   */\n      swap2\n      swap1\n      pop\n      jump\t// out\n        /* \"#utility.yul\":1296:1604   */\n    tag_270:\n        /* \"#utility.yul\":1358:1362   */\n      0x00\n        /* \"#utility.yul\":1448:1466   */\n      0xffffffffffffffff\n        /* \"#utility.yul\":1440:1446   */\n      dup3\n        /* \"#utility.yul\":1437:1467   */\n      gt\n        /* \"#utility.yul\":1434:1490   */\n      iszero\n      tag_351\n      jumpi\n        /* \"#utility.yul\":1470:1488   */\n      tag_352\n      tag_88\n      jump\t// in\n    tag_352:\n        /* \"#utility.yul\":1434:1490   */\n    tag_351:\n        /* \"#utility.yul\":1508:1537   */\n      tag_353\n        /* \"#utility.yul\":1530:1536   */\n      dup3\n        /* \"#utility.yul\":1508:1537   */\n      tag_267\n      jump\t// in\n    tag_353:\n        /* \"#utility.yul\":1500:1537   */\n      swap1\n      pop\n        /* \"#utility.yul\":1592:1596   */\n      0x20\n        /* \"#utility.yul\":1586:1590   */\n      dup2\n        /* \"#utility.yul\":1582:1597   */\n      add\n        /* \"#utility.yul\":1574:1597   */\n      swap1\n      pop\n        /* \"#utility.yul\":1296:1604   */\n      swap2\n      swap1\n      pop\n      jump\t// out\n        /* \"#utility.yul\":1610:1756   */\n    tag_271:\n        /* \"#utility.yul\":1707:1713   */\n      dup3\n        /* \"#utility.yul\":1702:1705   */\n      dup2\n        /* \"#utility.yul\":1697:1700   */\n      dup4\n        /* \"#utility.yul\":1684:1714   */\n      calldatacopy\n        /* \"#utility.yul\":1748:1749   */\n      0x00\n        /* \"#utility.yul\":1739:1745   */\n      dup4\n        /* \"#utility.yul\":1734:1737   */\n      dup4\n        /* \"#utility.yul\":1730:1746   */\n      add\n        /* \"#utility.yul\":1723:1750   */\n      mstore\n        /* \"#utility.yul\":1610:1756   */\n      pop\n      pop\n      pop\n      jump\t// out\n        /* \"#utility.yul\":1762:2187   */\n    tag_272:\n        /* \"#utility.yul\":1840:1845   */\n      0x00\n        /* \"#utility.yul\":1865:1931   */\n      tag_356\n        /* \"#utility.yul\":1881:1930   */\n      tag_357\n        /* \"#utility.yul\":1923:1929   */\n      dup5\n        /* \"#utility.yul\":1881:1930   */\n      tag_270\n      jump\t// in\n    tag_357:\n        /* \"#utility.yul\":1865:1931   */\n      tag_269\n      jump\t// in\n    tag_356:\n        /* \"#utility.yul\":1856:1931   */\n      swap1\n      pop\n        /* \"#utility.yul\":1954:1960   */\n      dup3\n        /* \"#utility.yul\":1947:1952   */\n      dup2\n        /* \"#utility.yul\":1940:1961   */\n      mstore\n        /* \"#utility.yul\":1992:1996   */\n      0x20\n        /* \"#utility.yul\":1985:1990   */\n      dup2\n        /* \"#utility.yul\":1981:1997   */\n      add\n        /* \"#utility.yul\":2030:2033   */\n      dup5\n        /* \"#utility.yul\":2021:2027   */\n      dup5\n        /* \"#utility.yul\":2016:2019   */\n      dup5\n        /* \"#utility.yul\":2012:2028   */\n      add\n        /* \"#utility.yul\":2009:2034   */\n      gt\n        /* \"#utility.yul\":2006:2118   */\n      iszero\n      tag_358\n      jumpi\n        /* \"#utility.yul\":2037:2116   */\n      tag_359\n      tag_266\n      jump\t// in\n    tag_359:\n        /* \"#utility.yul\":2006:2118   */\n    tag_358:\n        /* \"#utility.yul\":2127:2181   */\n      tag_360\n        /* \"#utility.yul\":2174:2180   */\n      dup5\n        /* \"#utility.yul\":2169:2172   */\n      dup3\n        /* \"#utility.yul\":2164:2167   */\n      dup6\n        /* \"#utility.yul\":2127:2181   */\n      tag_271\n      jump\t// in\n    tag_360:\n        /* \"#utility.yul\":1846:2187   */\n      pop\n        /* \"#utility.yul\":1762:2187   */\n      swap4\n      swap3\n      pop\n      pop\n      pop\n      jump\t// out\n        /* \"#utility.yul\":2207:2547   */\n    tag_273:\n        /* \"#utility.yul\":2263:2268   */\n      0x00\n        /* \"#utility.yul\":2312:2315   */\n      dup3\n        /* \"#utility.yul\":2305:2309   */\n      0x1f\n        /* \"#utility.yul\":2297:2303   */\n      dup4\n        /* \"#utility.yul\":2293:2310   */\n      add\n        /* \"#utility.yul\":2289:2316   */\n      slt\n        /* \"#utility.yul\":2279:2401   */\n      tag_362\n      jumpi\n        /* \"#utility.yul\":2320:2399   */\n      tag_363\n      tag_265\n      jump\t// in\n    tag_363:\n        /* \"#utility.yul\":2279:2401   */\n    tag_362:\n        /* \"#utility.yul\":2437:2443   */\n      dup2\n        /* \"#utility.yul\":2424:2444   */\n      calldataload\n        /* \"#utility.yul\":2462:2541   */\n      tag_364\n        /* \"#utility.yul\":2537:2540   */\n      dup5\n        /* \"#utility.yul\":2529:2535   */\n      dup3\n        /* \"#utility.yul\":2522:2526   */\n      0x20\n        /* \"#utility.yul\":2514:2520   */\n      dup7\n        /* \"#utility.yul\":2510:2527   */\n      add\n        /* \"#utility.yul\":2462:2541   */\n      tag_272\n      jump\t// in\n    tag_364:\n        /* \"#utility.yul\":2453:2541   */\n      swap2\n      pop\n        /* \"#utility.yul\":2269:2547   */\n      pop\n        /* \"#utility.yul\":2207:2547   */\n      swap3\n      swap2\n      pop\n      pop\n      jump\t// out\n        /* \"#utility.yul\":2553:2643   */\n    tag_274:\n        /* \"#utility.yul\":2587:2594   */\n      0x00\n        /* \"#utility.yul\":2630:2635   */\n      dup2\n        /* \"#utility.yul\":2623:2636   */\n      iszero\n        /* \"#utility.yul\":2616:2637   */\n      iszero\n        /* \"#utility.yul\":2605:2637   */\n      swap1\n      pop\n        /* \"#utility.yul\":2553:2643   */\n      swap2\n      swap1\n      pop\n      jump\t// out\n        /* \"#utility.yul\":2649:2765   */\n    tag_275:\n        /* \"#utility.yul\":2719:2740   */\n      tag_367\n        /* \"#utility.yul\":2734:2739   */\n      dup2\n        /* \"#utility.yul\":2719:2740   */\n      tag_274\n      jump\t// in\n    tag_367:\n        /* \"#utility.yul\":2712:2717   */\n      dup2\n        /* \"#utility.yul\":2709:2741   */\n      eq\n        /* \"#utility.yul\":2699:2759   */\n      tag_368\n      jumpi\n        /* \"#utility.yul\":2755:2756   */\n      0x00\n        /* \"#utility.yul\":2752:2753   */\n      dup1\n        /* \"#utility.yul\":2745:2757   */\n      revert\n        /* \"#utility.yul\":2699:2759   */\n    tag_368:\n        /* \"#utility.yul\":2649:2765   */\n      pop\n      jump\t// out\n        /* \"#utility.yul\":2771:2904   */\n    tag_276:\n        /* \"#utility.yul\":2814:2819   */\n      0x00\n        /* \"#utility.yul\":2852:2858   */\n      dup2\n        /* \"#utility.yul\":2839:2859   */\n      calldataload\n        /* \"#utility.yul\":2830:2859   */\n      swap1\n      pop\n        /* \"#utility.yul\":2868:2898   */\n      tag_370\n        /* \"#utility.yul\":2892:2897   */\n      dup2\n        /* \"#utility.yul\":2868:2898   */\n      tag_275\n      jump\t// in\n    tag_370:\n        /* \"#utility.yul\":2771:2904   */\n      swap3\n      swap2\n      pop\n      pop\n      jump\t// out\n        /* \"#utility.yul\":2910:5141   */\n    tag_18:\n        /* \"#utility.yul\":3073:3079   */\n      0x00\n        /* \"#utility.yul\":3081:3087   */\n      dup1\n        /* \"#utility.yul\":3089:3095   */\n      0x00\n        /* \"#utility.yul\":3097:3103   */\n      dup1\n        /* \"#utility.yul\":3105:3111   */\n      0x00\n        /* \"#utility.yul\":3113:3119   */\n      dup1\n        /* \"#utility.yul\":3121:3127   */\n      0x00\n        /* \"#utility.yul\":3129:3135   */\n      dup1\n        /* \"#utility.yul\":3178:3181   */\n      0x0100\n        /* \"#utility.yul\":3166:3175   */\n      dup10\n        /* \"#utility.yul\":3157:3164   */\n      dup12\n        /* \"#utility.yul\":3153:3176   */\n      sub\n        /* \"#utility.yul\":3149:3182   */\n      slt\n        /* \"#utility.yul\":3146:3266   */\n      iszero\n      tag_372\n      jumpi\n        /* \"#utility.yul\":3185:3264   */\n      tag_373\n      tag_263\n      jump\t// in\n    tag_373:\n        /* \"#utility.yul\":3146:3266   */\n    tag_372:\n        /* \"#utility.yul\":3333:3334   */\n      0x00\n        /* \"#utility.yul\":3322:3331   */\n      dup10\n        /* \"#utility.yul\":3318:3335   */\n      add\n        /* \"#utility.yul\":3305:3336   */\n      calldataload\n        /* \"#utility.yul\":3363:3381   */\n      0xffffffffffffffff\n        /* \"#utility.yul\":3355:3361   */\n      dup2\n        /* \"#utility.yul\":3352:3382   */\n      gt\n        /* \"#utility.yul\":3349:3466   */\n      iszero\n      tag_374\n      jumpi\n        /* \"#utility.yul\":3385:3464   */\n      tag_375\n      tag_264\n      jump\t// in\n    tag_375:\n        /* \"#utility.yul\":3349:3466   */\n    tag_374:\n        /* \"#utility.yul\":3490:3553   */\n      tag_376\n        /* \"#utility.yul\":3545:3552   */\n      dup12\n        /* \"#utility.yul\":3536:3542   */\n      dup3\n        /* \"#utility.yul\":3525:3534   */\n      dup13\n        /* \"#utility.yul\":3521:3543   */\n      add\n        /* \"#utility.yul\":3490:3553   */\n      tag_273\n      jump\t// in\n    tag_376:\n        /* \"#utility.yul\":3480:3553   */\n      swap9\n      pop\n        /* \"#utility.yul\":3276:3563   */\n      pop\n        /* \"#utility.yul\":3630:3632   */\n      0x20\n        /* \"#utility.yul\":3619:3628   */\n      dup10\n        /* \"#utility.yul\":3615:3633   */\n      add\n        /* \"#utility.yul\":3602:3634   */\n      calldataload\n        /* \"#utility.yul\":3661:3679   */\n      0xffffffffffffffff\n        /* \"#utility.yul\":3653:3659   */\n      dup2\n        /* \"#utility.yul\":3650:3680   */\n      gt\n        /* \"#utility.yul\":3647:3764   */\n      iszero\n      tag_377\n      jumpi\n        /* \"#utility.yul\":3683:3762   */\n      tag_378\n      tag_264\n      jump\t// in\n    tag_378:\n        /* \"#utility.yul\":3647:3764   */\n    tag_377:\n        /* \"#utility.yul\":3788:3851   */\n      tag_379\n        /* \"#utility.yul\":3843:3850   */\n      dup12\n        /* \"#utility.yul\":3834:3840   */\n      dup3\n        /* \"#utility.yul\":3823:3832   */\n      dup13\n        /* \"#utility.yul\":3819:3841   */\n      add\n        /* \"#utility.yul\":3788:3851   */\n      tag_273\n      jump\t// in\n    tag_379:\n        /* \"#utility.yul\":3778:3851   */\n      swap8\n      pop\n        /* \"#utility.yul\":3573:3861   */\n      pop\n        /* \"#utility.yul\":3928:3930   */\n      0x40\n        /* \"#utility.yul\":3917:3926   */\n      dup10\n        /* \"#utility.yul\":3913:3931   */\n      add\n        /* \"#utility.yul\":3900:3932   */\n      calldataload\n        /* \"#utility.yul\":3959:3977   */\n      0xffffffffffffffff\n        /* \"#utility.yul\":3951:3957   */\n      dup2\n        /* \"#utility.yul\":3948:3978   */\n      gt\n        /* \"#utility.yul\":3945:4062   */\n      iszero\n      tag_380\n      jumpi\n        /* \"#utility.yul\":3981:4060   */\n      tag_381\n      tag_264\n      jump\t// in\n    tag_381:\n        /* \"#utility.yul\":3945:4062   */\n    tag_380:\n        /* \"#utility.yul\":4086:4149   */\n      tag_382\n        /* \"#utility.yul\":4141:4148   */\n      dup12\n        /* \"#utility.yul\":4132:4138   */\n      dup3\n        /* \"#utility.yul\":4121:4130   */\n      dup13\n        /* \"#utility.yul\":4117:4139   */\n      add\n        /* \"#utility.yul\":4086:4149   */\n      tag_273\n      jump\t// in\n    tag_382:\n        /* \"#utility.yul\":4076:4149   */\n      swap7\n      pop\n        /* \"#utility.yul\":3871:4159   */\n      pop\n        /* \"#utility.yul\":4198:4200   */\n      0x60\n        /* \"#utility.yul\":4224:4274   */\n      tag_383\n        /* \"#utility.yul\":4266:4273   */\n      dup12\n        /* \"#utility.yul\":4257:4263   */\n      dup3\n        /* \"#utility.yul\":4246:4255   */\n      dup13\n        /* \"#utility.yul\":4242:4264   */\n      add\n        /* \"#utility.yul\":4224:4274   */\n      tag_276\n      jump\t// in\n    tag_383:\n        /* \"#utility.yul\":4214:4274   */\n      swap6\n      pop\n        /* \"#utility.yul\":4169:4284   */\n      pop\n        /* \"#utility.yul\":4323:4326   */\n      0x80\n        /* \"#utility.yul\":4350:4400   */\n      tag_384\n        /* \"#utility.yul\":4392:4399   */\n      dup12\n        /* \"#utility.yul\":4383:4389   */\n      dup3\n        /* \"#utility.yul\":4372:4381   */\n      dup13\n        /* \"#utility.yul\":4368:4390   */\n      add\n        /* \"#utility.yul\":4350:4400   */\n      tag_276\n      jump\t// in\n    tag_384:\n        /* \"#utility.yul\":4340:4400   */\n      swap5\n      pop\n        /* \"#utility.yul\":4294:4410   */\n      pop\n        /* \"#utility.yul\":4449:4452   */\n      0xa0\n        /* \"#utility.yul\":4476:4526   */\n      tag_385\n        /* \"#utility.yul\":4518:4525   */\n      dup12\n        /* \"#utility.yul\":4509:4515   */\n      dup3\n        /* \"#utility.yul\":4498:4507   */\n      dup13\n        /* \"#utility.yul\":4494:4516   */\n      add\n        /* \"#utility.yul\":4476:4526   */\n      tag_276\n      jump\t// in\n    tag_385:\n        /* \"#utility.yul\":4466:4526   */\n      swap4\n      pop\n        /* \"#utility.yul\":4420:4536   */\n      pop\n        /* \"#utility.yul\":4603:4606   */\n      0xc0\n        /* \"#utility.yul\":4592:4601   */\n      dup10\n        /* \"#utility.yul\":4588:4607   */\n      add\n        /* \"#utility.yul\":4575:4608   */\n      calldataload\n        /* \"#utility.yul\":4635:4653   */\n      0xffffffffffffffff\n        /* \"#utility.yul\":4627:4633   */\n      dup2\n        /* \"#utility.yul\":4624:4654   */\n      gt\n        /* \"#utility.yul\":4621:4738   */\n      iszero\n      tag_386\n      jumpi\n        /* \"#utility.yul\":4657:4736   */\n      tag_387\n      tag_264\n      jump\t// in\n    tag_387:\n        /* \"#utility.yul\":4621:4738   */\n    tag_386:\n        /* \"#utility.yul\":4762:4825   */\n      tag_388\n        /* \"#utility.yul\":4817:4824   */\n      dup12\n        /* \"#utility.yul\":4808:4814   */\n      dup3\n        /* \"#utility.yul\":4797:4806   */\n      dup13\n        /* \"#utility.yul\":4793:4815   */\n      add\n        /* \"#utility.yul\":4762:4825   */\n      tag_273\n      jump\t// in\n    tag_388:\n        /* \"#utility.yul\":4752:4825   */\n      swap3\n      pop\n        /* \"#utility.yul\":4546:4835   */\n      pop\n        /* \"#utility.yul\":4902:4905   */\n      0xe0\n        /* \"#utility.yul\":4891:4900   */\n      dup10\n        /* \"#utility.yul\":4887:4906   */\n      add\n        /* \"#utility.yul\":4874:4907   */\n      calldataload\n        /* \"#utility.yul\":4934:4952   */\n      0xffffffffffffffff\n        /* \"#utility.yul\":4926:4932   */\n      dup2\n        /* \"#utility.yul\":4923:4953   */\n      gt\n        /* \"#utility.yul\":4920:5037   */\n      iszero\n      tag_389\n      jumpi\n        /* \"#utility.yul\":4956:5035   */\n      tag_390\n      tag_264\n      jump\t// in\n    tag_390:\n        /* \"#utility.yul\":4920:5037   */\n    tag_389:\n        /* \"#utility.yul\":5061:5124   */\n      tag_391\n        /* \"#utility.yul\":5116:5123   */\n      dup12\n        /* \"#utility.yul\":5107:5113   */\n      dup3\n        /* \"#utility.yul\":5096:5105   */\n      dup13\n        /* \"#utility.yul\":5092:5114   */\n      add\n        /* \"#utility.yul\":5061:5124   */\n      tag_273\n      jump\t// in\n    tag_391:\n        /* \"#utility.yul\":5051:5124   */\n      swap2\n      pop\n        /* \"#utility.yul\":4845:5134   */\n      pop\n        /* \"#utility.yul\":2910:5141   */\n      swap3\n      swap6\n      swap9\n      pop\n      swap3\n      swap6\n      swap9\n      swap1\n      swap4\n      swap7\n      pop\n      jump\t// out\n        /* \"#utility.yul\":5147:5981   */\n    tag_22:\n        /* \"#utility.yul\":5235:5241   */\n      0x00\n        /* \"#utility.yul\":5243:5249   */\n      dup1\n        /* \"#utility.yul\":5292:5294   */\n      0x40\n        /* \"#utility.yul\":5280:5289   */\n      dup4\n        /* \"#utility.yul\":5271:5278   */\n      dup6\n        /* \"#utility.yul\":5267:5290   */\n      sub\n        /* \"#utility.yul\":5263:5295   */\n      slt\n        /* \"#utility.yul\":5260:5379   */\n      iszero\n      tag_393\n      jumpi\n        /* \"#utility.yul\":5298:5377   */\n      tag_394\n      tag_263\n      jump\t// in\n    tag_394:\n        /* \"#utility.yul\":5260:5379   */\n    tag_393:\n        /* \"#utility.yul\":5446:5447   */\n      0x00\n        /* \"#utility.yul\":5435:5444   */\n      dup4\n        /* \"#utility.yul\":5431:5448   */\n      add\n        /* \"#utility.yul\":5418:5449   */\n      calldataload\n        /* \"#utility.yul\":5476:5494   */\n      0xffffffffffffffff\n        /* \"#utility.yul\":5468:5474   */\n      dup2\n        /* \"#utility.yul\":5465:5495   */\n      gt\n        /* \"#utility.yul\":5462:5579   */\n      iszero\n      tag_395\n      jumpi\n        /* \"#utility.yul\":5498:5577   */\n      tag_396\n      tag_264\n      jump\t// in\n    tag_396:\n        /* \"#utility.yul\":5462:5579   */\n    tag_395:\n        /* \"#utility.yul\":5603:5666   */\n      tag_397\n        /* \"#utility.yul\":5658:5665   */\n      dup6\n        /* \"#utility.yul\":5649:5655   */\n      dup3\n        /* \"#utility.yul\":5638:5647   */\n      dup7\n        /* \"#utility.yul\":5634:5656   */\n      add\n        /* \"#utility.yul\":5603:5666   */\n      tag_273\n      jump\t// in\n    tag_397:\n        /* \"#utility.yul\":5593:5666   */\n      swap3\n      pop\n        /* \"#utility.yul\":5389:5676   */\n      pop\n        /* \"#utility.yul\":5743:5745   */\n      0x20\n        /* \"#utility.yul\":5732:5741   */\n      dup4\n        /* \"#utility.yul\":5728:5746   */\n      add\n        /* \"#utility.yul\":5715:5747   */\n      calldataload\n        /* \"#utility.yul\":5774:5792   */\n      0xffffffffffffffff\n        /* \"#utility.yul\":5766:5772   */\n      dup2\n        /* \"#utility.yul\":5763:5793   */\n      gt\n        /* \"#utility.yul\":5760:5877   */\n      iszero\n      tag_398\n      jumpi\n        /* \"#utility.yul\":5796:5875   */\n      tag_399\n      tag_264\n      jump\t// in\n    tag_399:\n        /* \"#utility.yul\":5760:5877   */\n    tag_398:\n        /* \"#utility.yul\":5901:5964   */\n      tag_400\n        /* \"#utility.yul\":5956:5963   */\n      dup6\n        /* \"#utility.yul\":5947:5953   */\n      dup3\n        /* \"#utility.yul\":5936:5945   */\n      dup7\n        /* \"#utility.yul\":5932:5954   */\n      add\n        /* \"#utility.yul\":5901:5964   */\n      tag_273\n      jump\t// in\n    tag_400:\n        /* \"#utility.yul\":5891:5964   */\n      swap2\n      pop\n        /* \"#utility.yul\":5686:5974   */\n      pop\n        /* \"#utility.yul\":5147:5981   */\n      swap3\n      pop\n      swap3\n      swap1\n      pop\n      jump\t// out\n        /* \"#utility.yul\":5987:6635   */\n    tag_26:\n        /* \"#utility.yul\":6062:6068   */\n      0x00\n        /* \"#utility.yul\":6070:6076   */\n      dup1\n        /* \"#utility.yul\":6119:6121   */\n      0x40\n        /* \"#utility.yul\":6107:6116   */\n      dup4\n        /* \"#utility.yul\":6098:6105   */\n      dup6\n        /* \"#utility.yul\":6094:6117   */\n      sub\n        /* \"#utility.yul\":6090:6122   */\n      slt\n        /* \"#utility.yul\":6087:6206   */\n      iszero\n      tag_402\n      jumpi\n        /* \"#utility.yul\":6125:6204   */\n      tag_403\n      tag_263\n      jump\t// in\n    tag_403:\n        /* \"#utility.yul\":6087:6206   */\n    tag_402:\n        /* \"#utility.yul\":6273:6274   */\n      0x00\n        /* \"#utility.yul\":6262:6271   */\n      dup4\n        /* \"#utility.yul\":6258:6275   */\n      add\n        /* \"#utility.yul\":6245:6276   */\n      calldataload\n        /* \"#utility.yul\":6303:6321   */\n      0xffffffffffffffff\n        /* \"#utility.yul\":6295:6301   */\n      dup2\n        /* \"#utility.yul\":6292:6322   */\n      gt\n        /* \"#utility.yul\":6289:6406   */\n      iszero\n      tag_404\n      jumpi\n        /* \"#utility.yul\":6325:6404   */\n      tag_405\n      tag_264\n      jump\t// in\n    tag_405:\n        /* \"#utility.yul\":6289:6406   */\n    tag_404:\n        /* \"#utility.yul\":6430:6493   */\n      tag_406\n        /* \"#utility.yul\":6485:6492   */\n      dup6\n        /* \"#utility.yul\":6476:6482   */\n      dup3\n        /* \"#utility.yul\":6465:6474   */\n      dup7\n        /* \"#utility.yul\":6461:6483   */\n      add\n        /* \"#utility.yul\":6430:6493   */\n      tag_273\n      jump\t// in\n    tag_406:\n        /* \"#utility.yul\":6420:6493   */\n      swap3\n      pop\n        /* \"#utility.yul\":6216:6503   */\n      pop\n        /* \"#utility.yul\":6542:6544   */\n      0x20\n        /* \"#utility.yul\":6568:6618   */\n      tag_407\n        /* \"#utility.yul\":6610:6617   */\n      dup6\n        /* \"#utility.yul\":6601:6607   */\n      dup3\n        /* \"#utility.yul\":6590:6599   */\n      dup7\n        /* \"#utility.yul\":6586:6608   */\n      add\n        /* \"#utility.yul\":6568:6618   */\n      tag_276\n      jump\t// in\n    tag_407:\n        /* \"#utility.yul\":6558:6618   */\n      swap2\n      pop\n        /* \"#utility.yul\":6513:6628   */\n      pop\n        /* \"#utility.yul\":5987:6635   */\n      swap3\n      pop\n      swap3\n      swap1\n      pop\n      jump\t// out\n        /* \"#utility.yul\":6641:6784   */\n    tag_277:\n        /* \"#utility.yul\":6737:6743   */\n      0x00\n        /* \"#utility.yul\":6771:6776   */\n      dup2\n        /* \"#utility.yul\":6765:6777   */\n      mload\n        /* \"#utility.yul\":6755:6777   */\n      swap1\n      pop\n        /* \"#utility.yul\":6641:6784   */\n      swap2\n      swap1\n      pop\n      jump\t// out\n        /* \"#utility.yul\":6790:7003   */\n    tag_278:\n        /* \"#utility.yul\":6918:6929   */\n      0x00\n        /* \"#utility.yul\":6952:6958   */\n      dup3\n        /* \"#utility.yul\":6947:6950   */\n      dup3\n        /* \"#utility.yul\":6940:6959   */\n      mstore\n        /* \"#utility.yul\":6992:6996   */\n      0x20\n        /* \"#utility.yul\":6987:6990   */\n      dup3\n        /* \"#utility.yul\":6983:6997   */\n      add\n        /* \"#utility.yul\":6968:6997   */\n      swap1\n      pop\n        /* \"#utility.yul\":6790:7003   */\n      swap3\n      swap2\n      pop\n      pop\n      jump\t// out\n        /* \"#utility.yul\":7009:7170   */\n    tag_279:\n        /* \"#utility.yul\":7105:7109   */\n      0x00\n        /* \"#utility.yul\":7128:7131   */\n      dup2\n        /* \"#utility.yul\":7120:7131   */\n      swap1\n      pop\n        /* \"#utility.yul\":7158:7162   */\n      0x20\n        /* \"#utility.yul\":7153:7156   */\n      dup3\n        /* \"#utility.yul\":7149:7163   */\n      add\n        /* \"#utility.yul\":7141:7163   */\n      swap1\n      pop\n        /* \"#utility.yul\":7009:7170   */\n      swap2\n      swap1\n      pop\n      jump\t// out\n        /* \"#utility.yul\":7176:7275   */\n    tag_280:\n        /* \"#utility.yul\":7228:7234   */\n      0x00\n        /* \"#utility.yul\":7262:7267   */\n      dup2\n        /* \"#utility.yul\":7256:7268   */\n      mload\n        /* \"#utility.yul\":7246:7268   */\n      swap1\n      pop\n        /* \"#utility.yul\":7176:7275   */\n      swap2\n      swap1\n      pop\n      jump\t// out\n        /* \"#utility.yul\":7281:7440   */\n    tag_281:\n        /* \"#utility.yul\":7355:7366   */\n      0x00\n        /* \"#utility.yul\":7389:7395   */\n      dup3\n        /* \"#utility.yul\":7384:7387   */\n      dup3\n        /* \"#utility.yul\":7377:7396   */\n      mstore\n        /* \"#utility.yul\":7429:7433   */\n      0x20\n        /* \"#utility.yul\":7424:7427   */\n      dup3\n        /* \"#utility.yul\":7420:7434   */\n      add\n        /* \"#utility.yul\":7405:7434   */\n      swap1\n      pop\n        /* \"#utility.yul\":7281:7440   */\n      swap3\n      swap2\n      pop\n      pop\n      jump\t// out\n        /* \"#utility.yul\":7446:7692   */\n    tag_282:\n        /* \"#utility.yul\":7527:7528   */\n      0x00\n        /* \"#utility.yul\":7537:7650   */\n    tag_414:\n        /* \"#utility.yul\":7551:7557   */\n      dup4\n        /* \"#utility.yul\":7548:7549   */\n      dup2\n        /* \"#utility.yul\":7545:7558   */\n      lt\n        /* \"#utility.yul\":7537:7650   */\n      iszero\n      tag_416\n      jumpi\n        /* \"#utility.yul\":7636:7637   */\n      dup1\n        /* \"#utility.yul\":7631:7634   */\n      dup3\n        /* \"#utility.yul\":7627:7638   */\n      add\n        /* \"#utility.yul\":7621:7639   */\n      mload\n        /* \"#utility.yul\":7617:7618   */\n      dup2\n        /* \"#utility.yul\":7612:7615   */\n      dup5\n        /* \"#utility.yul\":7608:7619   */\n      add\n        /* \"#utility.yul\":7601:7640   */\n      mstore\n        /* \"#utility.yul\":7573:7575   */\n      0x20\n        /* \"#utility.yul\":7570:7571   */\n      dup2\n        /* \"#utility.yul\":7566:7576   */\n      add\n        /* \"#utility.yul\":7561:7576   */\n      swap1\n      pop\n        /* \"#utility.yul\":7537:7650   */\n      jump(tag_414)\n    tag_416:\n        /* \"#utility.yul\":7684:7685   */\n      0x00\n        /* \"#utility.yul\":7675:7681   */\n      dup5\n        /* \"#utility.yul\":7670:7673   */\n      dup5\n        /* \"#utility.yul\":7666:7682   */\n      add\n        /* \"#utility.yul\":7659:7686   */\n      mstore\n        /* \"#utility.yul\":7508:7692   */\n      pop\n        /* \"#utility.yul\":7446:7692   */\n      pop\n      pop\n      pop\n      jump\t// out\n        /* \"#utility.yul\":7698:8055   */\n    tag_283:\n        /* \"#utility.yul\":7776:7779   */\n      0x00\n        /* \"#utility.yul\":7804:7843   */\n      tag_418\n        /* \"#utility.yul\":7837:7842   */\n      dup3\n        /* \"#utility.yul\":7804:7843   */\n      tag_280\n      jump\t// in\n    tag_418:\n        /* \"#utility.yul\":7859:7920   */\n      tag_419\n        /* \"#utility.yul\":7913:7919   */\n      dup2\n        /* \"#utility.yul\":7908:7911   */\n      dup6\n        /* \"#utility.yul\":7859:7920   */\n      tag_281\n      jump\t// in\n    tag_419:\n        /* \"#utility.yul\":7852:7920   */\n      swap4\n      pop\n        /* \"#utility.yul\":7929:7994   */\n      tag_420\n        /* \"#utility.yul\":7987:7993   */\n      dup2\n        /* \"#utility.yul\":7982:7985   */\n      dup6\n        /* \"#utility.yul\":7975:7979   */\n      0x20\n        /* \"#utility.yul\":7968:7973   */\n      dup7\n        /* \"#utility.yul\":7964:7980   */\n      add\n        /* \"#utility.yul\":7929:7994   */\n      tag_282\n      jump\t// in\n    tag_420:\n        /* \"#utility.yul\":8019:8048   */\n      tag_421\n        /* \"#utility.yul\":8041:8047   */\n      dup2\n        /* \"#utility.yul\":8019:8048   */\n      tag_267\n      jump\t// in\n    tag_421:\n        /* \"#utility.yul\":8014:8017   */\n      dup5\n        /* \"#utility.yul\":8010:8049   */\n      add\n        /* \"#utility.yul\":8003:8049   */\n      swap2\n      pop\n        /* \"#utility.yul\":7780:8055   */\n      pop\n        /* \"#utility.yul\":7698:8055   */\n      swap3\n      swap2\n      pop\n      pop\n      jump\t// out\n        /* \"#utility.yul\":8061:8138   */\n    tag_284:\n        /* \"#utility.yul\":8098:8105   */\n      0x00\n        /* \"#utility.yul\":8127:8132   */\n      dup2\n        /* \"#utility.yul\":8116:8132   */\n      swap1\n      pop\n        /* \"#utility.yul\":8061:8138   */\n      swap2\n      swap1\n      pop\n      jump\t// out\n        /* \"#utility.yul\":8144:8252   */\n    tag_285:\n        /* \"#utility.yul\":8221:8245   */\n      tag_424\n        /* \"#utility.yul\":8239:8244   */\n      dup2\n        /* \"#utility.yul\":8221:8245   */\n      tag_284\n      jump\t// in\n    tag_424:\n        /* \"#utility.yul\":8216:8219   */\n      dup3\n        /* \"#utility.yul\":8209:8246   */\n      mstore\n        /* \"#utility.yul\":8144:8252   */\n      pop\n      pop\n      jump\t// out\n        /* \"#utility.yul\":8340:9286   */\n    tag_286:\n        /* \"#utility.yul\":8457:8460   */\n      0x00\n        /* \"#utility.yul\":8493:8497   */\n      0x80\n        /* \"#utility.yul\":8488:8491   */\n      dup4\n        /* \"#utility.yul\":8484:8498   */\n      add\n        /* \"#utility.yul\":8580:8584   */\n      0x00\n        /* \"#utility.yul\":8573:8578   */\n      dup4\n        /* \"#utility.yul\":8569:8585   */\n      add\n        /* \"#utility.yul\":8563:8586   */\n      mload\n        /* \"#utility.yul\":8633:8636   */\n      dup5\n        /* \"#utility.yul\":8627:8631   */\n      dup3\n        /* \"#utility.yul\":8623:8637   */\n      sub\n        /* \"#utility.yul\":8616:8620   */\n      0x00\n        /* \"#utility.yul\":8611:8614   */\n      dup7\n        /* \"#utility.yul\":8607:8621   */\n      add\n        /* \"#utility.yul\":8600:8638   */\n      mstore\n        /* \"#utility.yul\":8659:8732   */\n      tag_426\n        /* \"#utility.yul\":8727:8731   */\n      dup3\n        /* \"#utility.yul\":8713:8725   */\n      dup3\n        /* \"#utility.yul\":8659:8732   */\n      tag_283\n      jump\t// in\n    tag_426:\n        /* \"#utility.yul\":8651:8732   */\n      swap2\n      pop\n        /* \"#utility.yul\":8508:8743   */\n      pop\n        /* \"#utility.yul\":8823:8827   */\n      0x20\n        /* \"#utility.yul\":8816:8821   */\n      dup4\n        /* \"#utility.yul\":8812:8828   */\n      add\n        /* \"#utility.yul\":8806:8829   */\n      mload\n        /* \"#utility.yul\":8842:8905   */\n      tag_427\n        /* \"#utility.yul\":8899:8903   */\n      0x20\n        /* \"#utility.yul\":8894:8897   */\n      dup7\n        /* \"#utility.yul\":8890:8904   */\n      add\n        /* \"#utility.yul\":8876:8888   */\n      dup3\n        /* \"#utility.yul\":8842:8905   */\n      tag_285\n      jump\t// in\n    tag_427:\n        /* \"#utility.yul\":8753:8915   */\n      pop\n        /* \"#utility.yul\":8995:8999   */\n      0x40\n        /* \"#utility.yul\":8988:8993   */\n      dup4\n        /* \"#utility.yul\":8984:9000   */\n      add\n        /* \"#utility.yul\":8978:9001   */\n      mload\n        /* \"#utility.yul\":9014:9077   */\n      tag_428\n        /* \"#utility.yul\":9071:9075   */\n      0x40\n        /* \"#utility.yul\":9066:9069   */\n      dup7\n        /* \"#utility.yul\":9062:9076   */\n      add\n        /* \"#utility.yul\":9048:9060   */\n      dup3\n        /* \"#utility.yul\":9014:9077   */\n      tag_285\n      jump\t// in\n    tag_428:\n        /* \"#utility.yul\":8925:9087   */\n      pop\n        /* \"#utility.yul\":9167:9171   */\n      0x60\n        /* \"#utility.yul\":9160:9165   */\n      dup4\n        /* \"#utility.yul\":9156:9172   */\n      add\n        /* \"#utility.yul\":9150:9173   */\n      mload\n        /* \"#utility.yul\":9186:9249   */\n      tag_429\n        /* \"#utility.yul\":9243:9247   */\n      0x60\n        /* \"#utility.yul\":9238:9241   */\n      dup7\n        /* \"#utility.yul\":9234:9248   */\n      add\n        /* \"#utility.yul\":9220:9232   */\n      dup3\n        /* \"#utility.yul\":9186:9249   */\n      tag_285\n      jump\t// in\n    tag_429:\n        /* \"#utility.yul\":9097:9259   */\n      pop\n        /* \"#utility.yul\":9276:9280   */\n      dup1\n        /* \"#utility.yul\":9269:9280   */\n      swap2\n      pop\n        /* \"#utility.yul\":8462:9286   */\n      pop\n        /* \"#utility.yul\":8340:9286   */\n      swap3\n      swap2\n      pop\n      pop\n      jump\t// out\n        /* \"#utility.yul\":9292:9564   */\n    tag_287:\n        /* \"#utility.yul\":9419:9429   */\n      0x00\n        /* \"#utility.yul\":9454:9558   */\n      tag_431\n        /* \"#utility.yul\":9554:9557   */\n      dup4\n        /* \"#utility.yul\":9546:9552   */\n      dup4\n        /* \"#utility.yul\":9454:9558   */\n      tag_286\n      jump\t// in\n    tag_431:\n        /* \"#utility.yul\":9440:9558   */\n      swap1\n      pop\n        /* \"#utility.yul\":9292:9564   */\n      swap3\n      swap2\n      pop\n      pop\n      jump\t// out\n        /* \"#utility.yul\":9570:9712   */\n    tag_288:\n        /* \"#utility.yul\":9669:9673   */\n      0x00\n        /* \"#utility.yul\":9701:9705   */\n      0x20\n        /* \"#utility.yul\":9696:9699   */\n      dup3\n        /* \"#utility.yul\":9692:9706   */\n      add\n        /* \"#utility.yul\":9684:9706   */\n      swap1\n      pop\n        /* \"#utility.yul\":9570:9712   */\n      swap2\n      swap1\n      pop\n      jump\t// out\n        /* \"#utility.yul\":9804:10947   */\n    tag_289:\n        /* \"#utility.yul\":9981:9984   */\n      0x00\n        /* \"#utility.yul\":10010:10093   */\n      tag_434\n        /* \"#utility.yul\":10087:10092   */\n      dup3\n        /* \"#utility.yul\":10010:10093   */\n      tag_277\n      jump\t// in\n    tag_434:\n        /* \"#utility.yul\":10109:10224   */\n      tag_435\n        /* \"#utility.yul\":10217:10223   */\n      dup2\n        /* \"#utility.yul\":10212:10215   */\n      dup6\n        /* \"#utility.yul\":10109:10224   */\n      tag_278\n      jump\t// in\n    tag_435:\n        /* \"#utility.yul\":10102:10224   */\n      swap4\n      pop\n        /* \"#utility.yul\":10250:10253   */\n      dup4\n        /* \"#utility.yul\":10295:10299   */\n      0x20\n        /* \"#utility.yul\":10287:10293   */\n      dup3\n        /* \"#utility.yul\":10283:10300   */\n      mul\n        /* \"#utility.yul\":10278:10281   */\n      dup6\n        /* \"#utility.yul\":10274:10301   */\n      add\n        /* \"#utility.yul\":10325:10410   */\n      tag_436\n        /* \"#utility.yul\":10404:10409   */\n      dup6\n        /* \"#utility.yul\":10325:10410   */\n      tag_279\n      jump\t// in\n    tag_436:\n        /* \"#utility.yul\":10433:10440   */\n      dup1\n        /* \"#utility.yul\":10464:10465   */\n      0x00\n        /* \"#utility.yul\":10449:10902   */\n    tag_437:\n        /* \"#utility.yul\":10474:10480   */\n      dup6\n        /* \"#utility.yul\":10471:10472   */\n      dup2\n        /* \"#utility.yul\":10468:10481   */\n      lt\n        /* \"#utility.yul\":10449:10902   */\n      iszero\n      tag_439\n      jumpi\n        /* \"#utility.yul\":10545:10554   */\n      dup5\n        /* \"#utility.yul\":10539:10543   */\n      dup5\n        /* \"#utility.yul\":10535:10555   */\n      sub\n        /* \"#utility.yul\":10530:10533   */\n      dup10\n        /* \"#utility.yul\":10523:10556   */\n      mstore\n        /* \"#utility.yul\":10596:10602   */\n      dup2\n        /* \"#utility.yul\":10590:10603   */\n      mload\n        /* \"#utility.yul\":10624:10746   */\n      tag_440\n        /* \"#utility.yul\":10741:10745   */\n      dup6\n        /* \"#utility.yul\":10726:10739   */\n      dup3\n        /* \"#utility.yul\":10624:10746   */\n      tag_287\n      jump\t// in\n    tag_440:\n        /* \"#utility.yul\":10616:10746   */\n      swap5\n      pop\n        /* \"#utility.yul\":10769:10858   */\n      tag_441\n        /* \"#utility.yul\":10851:10857   */\n      dup4\n        /* \"#utility.yul\":10769:10858   */\n      tag_288\n      jump\t// in\n    tag_441:\n        /* \"#utility.yul\":10759:10858   */\n      swap3\n      pop\n        /* \"#utility.yul\":10887:10891   */\n      0x20\n        /* \"#utility.yul\":10882:10885   */\n      dup11\n        /* \"#utility.yul\":10878:10892   */\n      add\n        /* \"#utility.yul\":10871:10892   */\n      swap10\n      pop\n        /* \"#utility.yul\":10509:10902   */\n      pop\n        /* \"#utility.yul\":10496:10497   */\n      0x01\n        /* \"#utility.yul\":10493:10494   */\n      dup2\n        /* \"#utility.yul\":10489:10498   */\n      add\n        /* \"#utility.yul\":10484:10498   */\n      swap1\n      pop\n        /* \"#utility.yul\":10449:10902   */\n      jump(tag_437)\n    tag_439:\n        /* \"#utility.yul\":10453:10467   */\n      pop\n        /* \"#utility.yul\":10918:10922   */\n      dup3\n        /* \"#utility.yul\":10911:10922   */\n      swap8\n      pop\n        /* \"#utility.yul\":10938:10941   */\n      dup8\n        /* \"#utility.yul\":10931:10941   */\n      swap6\n      pop\n        /* \"#utility.yul\":9986:10947   */\n      pop\n      pop\n      pop\n      pop\n      pop\n        /* \"#utility.yul\":9804:10947   */\n      swap3\n      swap2\n      pop\n      pop\n      jump\t// out\n        /* \"#utility.yul\":10953:11442   */\n    tag_29:\n        /* \"#utility.yul\":11154:11158   */\n      0x00\n        /* \"#utility.yul\":11192:11194   */\n      0x20\n        /* \"#utility.yul\":11181:11190   */\n      dup3\n        /* \"#utility.yul\":11177:11195   */\n      add\n        /* \"#utility.yul\":11169:11195   */\n      swap1\n      pop\n        /* \"#utility.yul\":11241:11250   */\n      dup2\n        /* \"#utility.yul\":11235:11239   */\n      dup2\n        /* \"#utility.yul\":11231:11251   */\n      sub\n        /* \"#utility.yul\":11227:11228   */\n      0x00\n        /* \"#utility.yul\":11216:11225   */\n      dup4\n        /* \"#utility.yul\":11212:11229   */\n      add\n        /* \"#utility.yul\":11205:11252   */\n      mstore\n        /* \"#utility.yul\":11269:11435   */\n      tag_443\n        /* \"#utility.yul\":11430:11434   */\n      dup2\n        /* \"#utility.yul\":11421:11427   */\n      dup5\n        /* \"#utility.yul\":11269:11435   */\n      tag_289\n      jump\t// in\n    tag_443:\n        /* \"#utility.yul\":11261:11435   */\n      swap1\n      pop\n        /* \"#utility.yul\":10953:11442   */\n      swap3\n      swap2\n      pop\n      pop\n      jump\t// out\n        /* \"#utility.yul\":11448:11584   */\n    tag_290:\n        /* \"#utility.yul\":11537:11543   */\n      0x00\n        /* \"#utility.yul\":11571:11576   */\n      dup2\n        /* \"#utility.yul\":11565:11577   */\n      mload\n        /* \"#utility.yul\":11555:11577   */\n      swap1\n      pop\n        /* \"#utility.yul\":11448:11584   */\n      swap2\n      swap1\n      pop\n      jump\t// out\n        /* \"#utility.yul\":11590:11796   */\n    tag_291:\n        /* \"#utility.yul\":11711:11722   */\n      0x00\n        /* \"#utility.yul\":11745:11751   */\n      dup3\n        /* \"#utility.yul\":11740:11743   */\n      dup3\n        /* \"#utility.yul\":11733:11752   */\n      mstore\n        /* \"#utility.yul\":11785:11789   */\n      0x20\n        /* \"#utility.yul\":11780:11783   */\n      dup3\n        /* \"#utility.yul\":11776:11790   */\n      add\n        /* \"#utility.yul\":11761:11790   */\n      swap1\n      pop\n        /* \"#utility.yul\":11590:11796   */\n      swap3\n      swap2\n      pop\n      pop\n      jump\t// out\n        /* \"#utility.yul\":11802:11956   */\n    tag_292:\n        /* \"#utility.yul\":11891:11895   */\n      0x00\n        /* \"#utility.yul\":11914:11917   */\n      dup2\n        /* \"#utility.yul\":11906:11917   */\n      swap1\n      pop\n        /* \"#utility.yul\":11944:11948   */\n      0x20\n        /* \"#utility.yul\":11939:11942   */\n      dup3\n        /* \"#utility.yul\":11935:11949   */\n      add\n        /* \"#utility.yul\":11927:11949   */\n      swap1\n      pop\n        /* \"#utility.yul\":11802:11956   */\n      swap2\n      swap1\n      pop\n      jump\t// out\n        /* \"#utility.yul\":12032:12693   */\n    tag_293:\n        /* \"#utility.yul\":12135:12138   */\n      0x00\n        /* \"#utility.yul\":12171:12175   */\n      0x40\n        /* \"#utility.yul\":12166:12169   */\n      dup4\n        /* \"#utility.yul\":12162:12176   */\n      add\n        /* \"#utility.yul\":12258:12262   */\n      0x00\n        /* \"#utility.yul\":12251:12256   */\n      dup4\n        /* \"#utility.yul\":12247:12263   */\n      add\n        /* \"#utility.yul\":12241:12264   */\n      mload\n        /* \"#utility.yul\":12311:12314   */\n      dup5\n        /* \"#utility.yul\":12305:12309   */\n      dup3\n        /* \"#utility.yul\":12301:12315   */\n      sub\n        /* \"#utility.yul\":12294:12298   */\n      0x00\n        /* \"#utility.yul\":12289:12292   */\n      dup7\n        /* \"#utility.yul\":12285:12299   */\n      add\n        /* \"#utility.yul\":12278:12316   */\n      mstore\n        /* \"#utility.yul\":12337:12410   */\n      tag_448\n        /* \"#utility.yul\":12405:12409   */\n      dup3\n        /* \"#utility.yul\":12391:12403   */\n      dup3\n        /* \"#utility.yul\":12337:12410   */\n      tag_283\n      jump\t// in\n    tag_448:\n        /* \"#utility.yul\":12329:12410   */\n      swap2\n      pop\n        /* \"#utility.yul\":12186:12421   */\n      pop\n        /* \"#utility.yul\":12503:12507   */\n      0x20\n        /* \"#utility.yul\":12496:12501   */\n      dup4\n        /* \"#utility.yul\":12492:12508   */\n      add\n        /* \"#utility.yul\":12486:12509   */\n      mload\n        /* \"#utility.yul\":12556:12559   */\n      dup5\n        /* \"#utility.yul\":12550:12554   */\n      dup3\n        /* \"#utility.yul\":12546:12560   */\n      sub\n        /* \"#utility.yul\":12539:12543   */\n      0x20\n        /* \"#utility.yul\":12534:12537   */\n      dup7\n        /* \"#utility.yul\":12530:12544   */\n      add\n        /* \"#utility.yul\":12523:12561   */\n      mstore\n        /* \"#utility.yul\":12582:12655   */\n      tag_449\n        /* \"#utility.yul\":12650:12654   */\n      dup3\n        /* \"#utility.yul\":12636:12648   */\n      dup3\n        /* \"#utility.yul\":12582:12655   */\n      tag_283\n      jump\t// in\n    tag_449:\n        /* \"#utility.yul\":12574:12655   */\n      swap2\n      pop\n        /* \"#utility.yul\":12431:12666   */\n      pop\n        /* \"#utility.yul\":12683:12687   */\n      dup1\n        /* \"#utility.yul\":12676:12687   */\n      swap2\n      pop\n        /* \"#utility.yul\":12140:12693   */\n      pop\n        /* \"#utility.yul\":12032:12693   */\n      swap3\n      swap2\n      pop\n      pop\n      jump\t// out\n        /* \"#utility.yul\":12699:12943   */\n    tag_294:\n        /* \"#utility.yul\":12812:12822   */\n      0x00\n        /* \"#utility.yul\":12847:12937   */\n      tag_451\n        /* \"#utility.yul\":12933:12936   */\n      dup4\n        /* \"#utility.yul\":12925:12931   */\n      dup4\n        /* \"#utility.yul\":12847:12937   */\n      tag_293\n      jump\t// in\n    tag_451:\n        /* \"#utility.yul\":12833:12937   */\n      swap1\n      pop\n        /* \"#utility.yul\":12699:12943   */\n      swap3\n      swap2\n      pop\n      pop\n      jump\t// out\n        /* \"#utility.yul\":12949:13084   */\n    tag_295:\n        /* \"#utility.yul\":13041:13045   */\n      0x00\n        /* \"#utility.yul\":13073:13077   */\n      0x20\n        /* \"#utility.yul\":13068:13071   */\n      dup3\n        /* \"#utility.yul\":13064:13078   */\n      add\n        /* \"#utility.yul\":13056:13078   */\n      swap1\n      pop\n        /* \"#utility.yul\":12949:13084   */\n      swap2\n      swap1\n      pop\n      jump\t// out\n        /* \"#utility.yul\":13164:14251   */\n    tag_296:\n        /* \"#utility.yul\":13327:13330   */\n      0x00\n        /* \"#utility.yul\":13356:13432   */\n      tag_454\n        /* \"#utility.yul\":13426:13431   */\n      dup3\n        /* \"#utility.yul\":13356:13432   */\n      tag_290\n      jump\t// in\n    tag_454:\n        /* \"#utility.yul\":13448:13556   */\n      tag_455\n        /* \"#utility.yul\":13549:13555   */\n      dup2\n        /* \"#utility.yul\":13544:13547   */\n      dup6\n        /* \"#utility.yul\":13448:13556   */\n      tag_291\n      jump\t// in\n    tag_455:\n        /* \"#utility.yul\":13441:13556   */\n      swap4\n      pop\n        /* \"#utility.yul\":13582:13585   */\n      dup4\n        /* \"#utility.yul\":13627:13631   */\n      0x20\n        /* \"#utility.yul\":13619:13625   */\n      dup3\n        /* \"#utility.yul\":13615:13632   */\n      mul\n        /* \"#utility.yul\":13610:13613   */\n      dup6\n        /* \"#utility.yul\":13606:13633   */\n      add\n        /* \"#utility.yul\":13657:13735   */\n      tag_456\n        /* \"#utility.yul\":13729:13734   */\n      dup6\n        /* \"#utility.yul\":13657:13735   */\n      tag_292\n      jump\t// in\n    tag_456:\n        /* \"#utility.yul\":13758:13765   */\n      dup1\n        /* \"#utility.yul\":13789:13790   */\n      0x00\n        /* \"#utility.yul\":13774:14206   */\n    tag_457:\n        /* \"#utility.yul\":13799:13805   */\n      dup6\n        /* \"#utility.yul\":13796:13797   */\n      dup2\n        /* \"#utility.yul\":13793:13806   */\n      lt\n        /* \"#utility.yul\":13774:14206   */\n      iszero\n      tag_459\n      jumpi\n        /* \"#utility.yul\":13870:13879   */\n      dup5\n        /* \"#utility.yul\":13864:13868   */\n      dup5\n        /* \"#utility.yul\":13860:13880   */\n      sub\n        /* \"#utility.yul\":13855:13858   */\n      dup10\n        /* \"#utility.yul\":13848:13881   */\n      mstore\n        /* \"#utility.yul\":13921:13927   */\n      dup2\n        /* \"#utility.yul\":13915:13928   */\n      mload\n        /* \"#utility.yul\":13949:14057   */\n      tag_460\n        /* \"#utility.yul\":14052:14056   */\n      dup6\n        /* \"#utility.yul\":14037:14050   */\n      dup3\n        /* \"#utility.yul\":13949:14057   */\n      tag_294\n      jump\t// in\n    tag_460:\n        /* \"#utility.yul\":13941:14057   */\n      swap5\n      pop\n        /* \"#utility.yul\":14080:14162   */\n      tag_461\n        /* \"#utility.yul\":14155:14161   */\n      dup4\n        /* \"#utility.yul\":14080:14162   */\n      tag_295\n      jump\t// in\n    tag_461:\n        /* \"#utility.yul\":14070:14162   */\n      swap3\n      pop\n        /* \"#utility.yul\":14191:14195   */\n      0x20\n        /* \"#utility.yul\":14186:14189   */\n      dup11\n        /* \"#utility.yul\":14182:14196   */\n      add\n        /* \"#utility.yul\":14175:14196   */\n      swap10\n      pop\n        /* \"#utility.yul\":13834:14206   */\n      pop\n        /* \"#utility.yul\":13821:13822   */\n      0x01\n        /* \"#utility.yul\":13818:13819   */\n      dup2\n        /* \"#utility.yul\":13814:13823   */\n      add\n        /* \"#utility.yul\":13809:13823   */\n      swap1\n      pop\n        /* \"#utility.yul\":13774:14206   */\n      jump(tag_457)\n    tag_459:\n        /* \"#utility.yul\":13778:13792   */\n      pop\n        /* \"#utility.yul\":14222:14226   */\n      dup3\n        /* \"#utility.yul\":14215:14226   */\n      swap8\n      pop\n        /* \"#utility.yul\":14242:14245   */\n      dup8\n        /* \"#utility.yul\":14235:14245   */\n      swap6\n      pop\n        /* \"#utility.yul\":13332:14251   */\n      pop\n      pop\n      pop\n      pop\n      pop\n        /* \"#utility.yul\":13164:14251   */\n      swap3\n      swap2\n      pop\n      pop\n      jump\t// out\n        /* \"#utility.yul\":14257:14718   */\n    tag_34:\n        /* \"#utility.yul\":14444:14448   */\n      0x00\n        /* \"#utility.yul\":14482:14484   */\n      0x20\n        /* \"#utility.yul\":14471:14480   */\n      dup3\n        /* \"#utility.yul\":14467:14485   */\n      add\n        /* \"#utility.yul\":14459:14485   */\n      swap1\n      pop\n        /* \"#utility.yul\":14531:14540   */\n      dup2\n        /* \"#utility.yul\":14525:14529   */\n      dup2\n        /* \"#utility.yul\":14521:14541   */\n      sub\n        /* \"#utility.yul\":14517:14518   */\n      0x00\n        /* \"#utility.yul\":14506:14515   */\n      dup4\n        /* \"#utility.yul\":14502:14519   */\n      add\n        /* \"#utility.yul\":14495:14542   */\n      mstore\n        /* \"#utility.yul\":14559:14711   */\n      tag_463\n        /* \"#utility.yul\":14706:14710   */\n      dup2\n        /* \"#utility.yul\":14697:14703   */\n      dup5\n        /* \"#utility.yul\":14559:14711   */\n      tag_296\n      jump\t// in\n    tag_463:\n        /* \"#utility.yul\":14551:14711   */\n      swap1\n      pop\n        /* \"#utility.yul\":14257:14718   */\n      swap3\n      swap2\n      pop\n      pop\n      jump\t// out\n        /* \"#utility.yul\":14724:15651   */\n    tag_37:\n        /* \"#utility.yul\":14811:14817   */\n      0x00\n        /* \"#utility.yul\":14819:14825   */\n      dup1\n        /* \"#utility.yul\":14827:14833   */\n      0x00\n        /* \"#utility.yul\":14835:14841   */\n      dup1\n        /* \"#utility.yul\":14884:14887   */\n      0x80\n        /* \"#utility.yul\":14872:14881   */\n      dup6\n        /* \"#utility.yul\":14863:14870   */\n      dup8\n        /* \"#utility.yul\":14859:14882   */\n      sub\n        /* \"#utility.yul\":14855:14888   */\n      slt\n        /* \"#utility.yul\":14852:14972   */\n      iszero\n      tag_465\n      jumpi\n        /* \"#utility.yul\":14891:14970   */\n      tag_466\n      tag_263\n      jump\t// in\n    tag_466:\n        /* \"#utility.yul\":14852:14972   */\n    tag_465:\n        /* \"#utility.yul\":15039:15040   */\n      0x00\n        /* \"#utility.yul\":15028:15037   */\n      dup6\n        /* \"#utility.yul\":15024:15041   */\n      add\n        /* \"#utility.yul\":15011:15042   */\n      calldataload\n        /* \"#utility.yul\":15069:15087   */\n      0xffffffffffffffff\n        /* \"#utility.yul\":15061:15067   */\n      dup2\n        /* \"#utility.yul\":15058:15088   */\n      gt\n        /* \"#utility.yul\":15055:15172   */\n      iszero\n      tag_467\n      jumpi\n        /* \"#utility.yul\":15091:15170   */\n      tag_468\n      tag_264\n      jump\t// in\n    tag_468:\n        /* \"#utility.yul\":15055:15172   */\n    tag_467:\n        /* \"#utility.yul\":15196:15259   */\n      tag_469\n        /* \"#utility.yul\":15251:15258   */\n      dup8\n        /* \"#utility.yul\":15242:15248   */\n      dup3\n        /* \"#utility.yul\":15231:15240   */\n      dup9\n        /* \"#utility.yul\":15227:15249   */\n      add\n        /* \"#utility.yul\":15196:15259   */\n      tag_273\n      jump\t// in\n    tag_469:\n        /* \"#utility.yul\":15186:15259   */\n      swap5\n      pop\n        /* \"#utility.yul\":14982:15269   */\n      pop\n        /* \"#utility.yul\":15308:15310   */\n      0x20\n        /* \"#utility.yul\":15334:15384   */\n      tag_470\n        /* \"#utility.yul\":15376:15383   */\n      dup8\n        /* \"#utility.yul\":15367:15373   */\n      dup3\n        /* \"#utility.yul\":15356:15365   */\n      dup9\n        /* \"#utility.yul\":15352:15374   */\n      add\n        /* \"#utility.yul\":15334:15384   */\n      tag_276\n      jump\t// in\n    tag_470:\n        /* \"#utility.yul\":15324:15384   */\n      swap4\n      pop\n        /* \"#utility.yul\":15279:15394   */\n      pop\n        /* \"#utility.yul\":15433:15435   */\n      0x40\n        /* \"#utility.yul\":15459:15509   */\n      tag_471\n        /* \"#utility.yul\":15501:15508   */\n      dup8\n        /* \"#utility.yul\":15492:15498   */\n      dup3\n        /* \"#utility.yul\":15481:15490   */\n      dup9\n        /* \"#utility.yul\":15477:15499   */\n      add\n        /* \"#utility.yul\":15459:15509   */\n      tag_276\n      jump\t// in\n    tag_471:\n        /* \"#utility.yul\":15449:15509   */\n      swap3\n      pop\n        /* \"#utility.yul\":15404:15519   */\n      pop\n        /* \"#utility.yul\":15558:15560   */\n      0x60\n        /* \"#utility.yul\":15584:15634   */\n      tag_472\n        /* \"#utility.yul\":15626:15633   */\n      dup8\n        /* \"#utility.yul\":15617:15623   */\n      dup3\n        /* \"#utility.yul\":15606:15615   */\n      dup9\n        /* \"#utility.yul\":15602:15624   */\n      add\n        /* \"#utility.yul\":15584:15634   */\n      tag_276\n      jump\t// in\n    tag_472:\n        /* \"#utility.yul\":15574:15634   */\n      swap2\n      pop\n        /* \"#utility.yul\":15529:15644   */\n      pop\n        /* \"#utility.yul\":14724:15651   */\n      swap3\n      swap6\n      swap2\n      swap5\n      pop\n      swap3\n      pop\n      jump\t// out\n        /* \"#utility.yul\":15657:15826   */\n    tag_297:\n        /* \"#utility.yul\":15741:15752   */\n      0x00\n        /* \"#utility.yul\":15775:15781   */\n      dup3\n        /* \"#utility.yul\":15770:15773   */\n      dup3\n        /* \"#utility.yul\":15763:15782   */\n      mstore\n        /* \"#utility.yul\":15815:15819   */\n      0x20\n        /* \"#utility.yul\":15810:15813   */\n      dup3\n        /* \"#utility.yul\":15806:15820   */\n      add\n        /* \"#utility.yul\":15791:15820   */\n      swap1\n      pop\n        /* \"#utility.yul\":15657:15826   */\n      swap3\n      swap2\n      pop\n      pop\n      jump\t// out\n        /* \"#utility.yul\":15832:16209   */\n    tag_298:\n        /* \"#utility.yul\":15920:15923   */\n      0x00\n        /* \"#utility.yul\":15948:15987   */\n      tag_475\n        /* \"#utility.yul\":15981:15986   */\n      dup3\n        /* \"#utility.yul\":15948:15987   */\n      tag_280\n      jump\t// in\n    tag_475:\n        /* \"#utility.yul\":16003:16074   */\n      tag_476\n        /* \"#utility.yul\":16067:16073   */\n      dup2\n        /* \"#utility.yul\":16062:16065   */\n      dup6\n        /* \"#utility.yul\":16003:16074   */\n      tag_297\n      jump\t// in\n    tag_476:\n        /* \"#utility.yul\":15996:16074   */\n      swap4\n      pop\n        /* \"#utility.yul\":16083:16148   */\n      tag_477\n        /* \"#utility.yul\":16141:16147   */\n      dup2\n        /* \"#utility.yul\":16136:16139   */\n      dup6\n        /* \"#utility.yul\":16129:16133   */\n      0x20\n        /* \"#utility.yul\":16122:16127   */\n      dup7\n        /* \"#utility.yul\":16118:16134   */\n      add\n        /* \"#utility.yul\":16083:16148   */\n      tag_282\n      jump\t// in\n    tag_477:\n        /* \"#utility.yul\":16173:16202   */\n      tag_478\n        /* \"#utility.yul\":16195:16201   */\n      dup2\n        /* \"#utility.yul\":16173:16202   */\n      tag_267\n      jump\t// in\n    tag_478:\n        /* \"#utility.yul\":16168:16171   */\n      dup5\n        /* \"#utility.yul\":16164:16203   */\n      add\n        /* \"#utility.yul\":16157:16203   */\n      swap2\n      pop\n        /* \"#utility.yul\":15924:16209   */\n      pop\n        /* \"#utility.yul\":15832:16209   */\n      swap3\n      swap2\n      pop\n      pop\n      jump\t// out\n        /* \"#utility.yul\":16215:17132   */\n    tag_40:\n        /* \"#utility.yul\":16472:16476   */\n      0x00\n        /* \"#utility.yul\":16510:16513   */\n      0x80\n        /* \"#utility.yul\":16499:16508   */\n      dup3\n        /* \"#utility.yul\":16495:16514   */\n      add\n        /* \"#utility.yul\":16487:16514   */\n      swap1\n      pop\n        /* \"#utility.yul\":16560:16569   */\n      dup2\n        /* \"#utility.yul\":16554:16558   */\n      dup2\n        /* \"#utility.yul\":16550:16570   */\n      sub\n        /* \"#utility.yul\":16546:16547   */\n      0x00\n        /* \"#utility.yul\":16535:16544   */\n      dup4\n        /* \"#utility.yul\":16531:16548   */\n      add\n        /* \"#utility.yul\":16524:16571   */\n      mstore\n        /* \"#utility.yul\":16588:16666   */\n      tag_480\n        /* \"#utility.yul\":16661:16665   */\n      dup2\n        /* \"#utility.yul\":16652:16658   */\n      dup8\n        /* \"#utility.yul\":16588:16666   */\n      tag_298\n      jump\t// in\n    tag_480:\n        /* \"#utility.yul\":16580:16666   */\n      swap1\n      pop\n        /* \"#utility.yul\":16713:16722   */\n      dup2\n        /* \"#utility.yul\":16707:16711   */\n      dup2\n        /* \"#utility.yul\":16703:16723   */\n      sub\n        /* \"#utility.yul\":16698:16700   */\n      0x20\n        /* \"#utility.yul\":16687:16696   */\n      dup4\n        /* \"#utility.yul\":16683:16701   */\n      add\n        /* \"#utility.yul\":16676:16724   */\n      mstore\n        /* \"#utility.yul\":16741:16819   */\n      tag_481\n        /* \"#utility.yul\":16814:16818   */\n      dup2\n        /* \"#utility.yul\":16805:16811   */\n      dup7\n        /* \"#utility.yul\":16741:16819   */\n      tag_298\n      jump\t// in\n    tag_481:\n        /* \"#utility.yul\":16733:16819   */\n      swap1\n      pop\n        /* \"#utility.yul\":16866:16875   */\n      dup2\n        /* \"#utility.yul\":16860:16864   */\n      dup2\n        /* \"#utility.yul\":16856:16876   */\n      sub\n        /* \"#utility.yul\":16851:16853   */\n      0x40\n        /* \"#utility.yul\":16840:16849   */\n      dup4\n        /* \"#utility.yul\":16836:16854   */\n      add\n        /* \"#utility.yul\":16829:16877   */\n      mstore\n        /* \"#utility.yul\":16894:16972   */\n      tag_482\n        /* \"#utility.yul\":16967:16971   */\n      dup2\n        /* \"#utility.yul\":16958:16964   */\n      dup6\n        /* \"#utility.yul\":16894:16972   */\n      tag_298\n      jump\t// in\n    tag_482:\n        /* \"#utility.yul\":16886:16972   */\n      swap1\n      pop\n        /* \"#utility.yul\":17019:17028   */\n      dup2\n        /* \"#utility.yul\":17013:17017   */\n      dup2\n        /* \"#utility.yul\":17009:17029   */\n      sub\n        /* \"#utility.yul\":17004:17006   */\n      0x60\n        /* \"#utility.yul\":16993:17002   */\n      dup4\n        /* \"#utility.yul\":16989:17007   */\n      add\n        /* \"#utility.yul\":16982:17030   */\n      mstore\n        /* \"#utility.yul\":17047:17125   */\n      tag_483\n        /* \"#utility.yul\":17120:17124   */\n      dup2\n        /* \"#utility.yul\":17111:17117   */\n      dup5\n        /* \"#utility.yul\":17047:17125   */\n      tag_298\n      jump\t// in\n    tag_483:\n        /* \"#utility.yul\":17039:17125   */\n      swap1\n      pop\n        /* \"#utility.yul\":16215:17132   */\n      swap6\n      swap5\n      pop\n      pop\n      pop\n      pop\n      pop\n      jump\t// out\n        /* \"#utility.yul\":17138:18297   */\n    tag_46:\n        /* \"#utility.yul\":17245:17251   */\n      0x00\n        /* \"#utility.yul\":17253:17259   */\n      dup1\n        /* \"#utility.yul\":17261:17267   */\n      0x00\n        /* \"#utility.yul\":17310:17312   */\n      0x60\n        /* \"#utility.yul\":17298:17307   */\n      dup5\n        /* \"#utility.yul\":17289:17296   */\n      dup7\n        /* \"#utility.yul\":17285:17308   */\n      sub\n        /* \"#utility.yul\":17281:17313   */\n      slt\n        /* \"#utility.yul\":17278:17397   */\n      iszero\n      tag_485\n      jumpi\n        /* \"#utility.yul\":17316:17395   */\n      tag_486\n      tag_263\n      jump\t// in\n    tag_486:\n        /* \"#utility.yul\":17278:17397   */\n    tag_485:\n        /* \"#utility.yul\":17464:17465   */\n      0x00\n        /* \"#utility.yul\":17453:17462   */\n      dup5\n        /* \"#utility.yul\":17449:17466   */\n      add\n        /* \"#utility.yul\":17436:17467   */\n      calldataload\n        /* \"#utility.yul\":17494:17512   */\n      0xffffffffffffffff\n        /* \"#utility.yul\":17486:17492   */\n      dup2\n        /* \"#utility.yul\":17483:17513   */\n      gt\n        /* \"#utility.yul\":17480:17597   */\n      iszero\n      tag_487\n      jumpi\n        /* \"#utility.yul\":17516:17595   */\n      tag_488\n      tag_264\n      jump\t// in\n    tag_488:\n        /* \"#utility.yul\":17480:17597   */\n    tag_487:\n        /* \"#utility.yul\":17621:17684   */\n      tag_489\n        /* \"#utility.yul\":17676:17683   */\n      dup7\n        /* \"#utility.yul\":17667:17673   */\n      dup3\n        /* \"#utility.yul\":17656:17665   */\n      dup8\n        /* \"#utility.yul\":17652:17674   */\n      add\n        /* \"#utility.yul\":17621:17684   */\n      tag_273\n      jump\t// in\n    tag_489:\n        /* \"#utility.yul\":17611:17684   */\n      swap4\n      pop\n        /* \"#utility.yul\":17407:17694   */\n      pop\n        /* \"#utility.yul\":17761:17763   */\n      0x20\n        /* \"#utility.yul\":17750:17759   */\n      dup5\n        /* \"#utility.yul\":17746:17764   */\n      add\n        /* \"#utility.yul\":17733:17765   */\n      calldataload\n        /* \"#utility.yul\":17792:17810   */\n      0xffffffffffffffff\n        /* \"#utility.yul\":17784:17790   */\n      dup2\n        /* \"#utility.yul\":17781:17811   */\n      gt\n        /* \"#utility.yul\":17778:17895   */\n      iszero\n      tag_490\n      jumpi\n        /* \"#utility.yul\":17814:17893   */\n      tag_491\n      tag_264\n      jump\t// in\n    tag_491:\n        /* \"#utility.yul\":17778:17895   */\n    tag_490:\n        /* \"#utility.yul\":17919:17982   */\n      tag_492\n        /* \"#utility.yul\":17974:17981   */\n      dup7\n        /* \"#utility.yul\":17965:17971   */\n      dup3\n        /* \"#utility.yul\":17954:17963   */\n      dup8\n        /* \"#utility.yul\":17950:17972   */\n      add\n        /* \"#utility.yul\":17919:17982   */\n      tag_273\n      jump\t// in\n    tag_492:\n        /* \"#utility.yul\":17909:17982   */\n      swap3\n      pop\n        /* \"#utility.yul\":17704:17992   */\n      pop\n        /* \"#utility.yul\":18059:18061   */\n      0x40\n        /* \"#utility.yul\":18048:18057   */\n      dup5\n        /* \"#utility.yul\":18044:18062   */\n      add\n        /* \"#utility.yul\":18031:18063   */\n      calldataload\n        /* \"#utility.yul\":18090:18108   */\n      0xffffffffffffffff\n        /* \"#utility.yul\":18082:18088   */\n      dup2\n        /* \"#utility.yul\":18079:18109   */\n      gt\n        /* \"#utility.yul\":18076:18193   */\n      iszero\n      tag_493\n      jumpi\n        /* \"#utility.yul\":18112:18191   */\n      tag_494\n      tag_264\n      jump\t// in\n    tag_494:\n        /* \"#utility.yul\":18076:18193   */\n    tag_493:\n        /* \"#utility.yul\":18217:18280   */\n      tag_495\n        /* \"#utility.yul\":18272:18279   */\n      dup7\n        /* \"#utility.yul\":18263:18269   */\n      dup3\n        /* \"#utility.yul\":18252:18261   */\n      dup8\n        /* \"#utility.yul\":18248:18270   */\n      add\n        /* \"#utility.yul\":18217:18280   */\n      tag_273\n      jump\t// in\n    tag_495:\n        /* \"#utility.yul\":18207:18280   */\n      swap2\n      pop\n        /* \"#utility.yul\":18002:18290   */\n      pop\n        /* \"#utility.yul\":17138:18297   */\n      swap3\n      pop\n      swap3\n      pop\n      swap3\n      jump\t// out\n        /* \"#utility.yul\":18303:18425   */\n    tag_299:\n        /* \"#utility.yul\":18376:18400   */\n      tag_497\n        /* \"#utility.yul\":18394:18399   */\n      dup2\n        /* \"#utility.yul\":18376:18400   */\n      tag_284\n      jump\t// in\n    tag_497:\n        /* \"#utility.yul\":18369:18374   */\n      dup2\n        /* \"#utility.yul\":18366:18401   */\n      eq\n        /* \"#utility.yul\":18356:18419   */\n      tag_498\n      jumpi\n        /* \"#utility.yul\":18415:18416   */\n      0x00\n        /* \"#utility.yul\":18412:18413   */\n      dup1\n        /* \"#utility.yul\":18405:18417   */\n      revert\n        /* \"#utility.yul\":18356:18419   */\n    tag_498:\n        /* \"#utility.yul\":18303:18425   */\n      pop\n      jump\t// out\n        /* \"#utility.yul\":18431:18570   */\n    tag_300:\n        /* \"#utility.yul\":18477:18482   */\n      0x00\n        /* \"#utility.yul\":18515:18521   */\n      dup2\n        /* \"#utility.yul\":18502:18522   */\n      calldataload\n        /* \"#utility.yul\":18493:18522   */\n      swap1\n      pop\n        /* \"#utility.yul\":18531:18564   */\n      tag_500\n        /* \"#utility.yul\":18558:18563   */\n      dup2\n        /* \"#utility.yul\":18531:18564   */\n      tag_299\n      jump\t// in\n    tag_500:\n        /* \"#utility.yul\":18431:18570   */\n      swap3\n      swap2\n      pop\n      pop\n      jump\t// out\n        /* \"#utility.yul\":18576:19835   */\n    tag_50:\n        /* \"#utility.yul\":18685:18691   */\n      0x00\n        /* \"#utility.yul\":18693:18699   */\n      dup1\n        /* \"#utility.yul\":18701:18707   */\n      0x00\n        /* \"#utility.yul\":18709:18715   */\n      dup1\n        /* \"#utility.yul\":18717:18723   */\n      0x00\n        /* \"#utility.yul\":18766:18769   */\n      0xa0\n        /* \"#utility.yul\":18754:18763   */\n      dup7\n        /* \"#utility.yul\":18745:18752   */\n      dup9\n        /* \"#utility.yul\":18741:18764   */\n      sub\n        /* \"#utility.yul\":18737:18770   */\n      slt\n        /* \"#utility.yul\":18734:18854   */\n      iszero\n      tag_502\n      jumpi\n        /* \"#utility.yul\":18773:18852   */\n      tag_503\n      tag_263\n      jump\t// in\n    tag_503:\n        /* \"#utility.yul\":18734:18854   */\n    tag_502:\n        /* \"#utility.yul\":18921:18922   */\n      0x00\n        /* \"#utility.yul\":18910:18919   */\n      dup7\n        /* \"#utility.yul\":18906:18923   */\n      add\n        /* \"#utility.yul\":18893:18924   */\n      calldataload\n        /* \"#utility.yul\":18951:18969   */\n      0xffffffffffffffff\n        /* \"#utility.yul\":18943:18949   */\n      dup2\n        /* \"#utility.yul\":18940:18970   */\n      gt\n        /* \"#utility.yul\":18937:19054   */\n      iszero\n      tag_504\n      jumpi\n        /* \"#utility.yul\":18973:19052   */\n      tag_505\n      tag_264\n      jump\t// in\n    tag_505:\n        /* \"#utility.yul\":18937:19054   */\n    tag_504:\n        /* \"#utility.yul\":19078:19141   */\n      tag_506\n        /* \"#utility.yul\":19133:19140   */\n      dup9\n        /* \"#utility.yul\":19124:19130   */\n      dup3\n        /* \"#utility.yul\":19113:19122   */\n      dup10\n        /* \"#utility.yul\":19109:19131   */\n      add\n        /* \"#utility.yul\":19078:19141   */\n      tag_273\n      jump\t// in\n    tag_506:\n        /* \"#utility.yul\":19068:19141   */\n      swap6\n      pop\n        /* \"#utility.yul\":18864:19151   */\n      pop\n        /* \"#utility.yul\":19218:19220   */\n      0x20\n        /* \"#utility.yul\":19207:19216   */\n      dup7\n        /* \"#utility.yul\":19203:19221   */\n      add\n        /* \"#utility.yul\":19190:19222   */\n      calldataload\n        /* \"#utility.yul\":19249:19267   */\n      0xffffffffffffffff\n        /* \"#utility.yul\":19241:19247   */\n      dup2\n        /* \"#utility.yul\":19238:19268   */\n      gt\n        /* \"#utility.yul\":19235:19352   */\n      iszero\n      tag_507\n      jumpi\n        /* \"#utility.yul\":19271:19350   */\n      tag_508\n      tag_264\n      jump\t// in\n    tag_508:\n        /* \"#utility.yul\":19235:19352   */\n    tag_507:\n        /* \"#utility.yul\":19376:19439   */\n      tag_509\n        /* \"#utility.yul\":19431:19438   */\n      dup9\n        /* \"#utility.yul\":19422:19428   */\n      dup3\n        /* \"#utility.yul\":19411:19420   */\n      dup10\n        /* \"#utility.yul\":19407:19429   */\n      add\n        /* \"#utility.yul\":19376:19439   */\n      tag_273\n      jump\t// in\n    tag_509:\n        /* \"#utility.yul\":19366:19439   */\n      swap5\n      pop\n        /* \"#utility.yul\":19161:19449   */\n      pop\n        /* \"#utility.yul\":19488:19490   */\n      0x40\n        /* \"#utility.yul\":19514:19564   */\n      tag_510\n        /* \"#utility.yul\":19556:19563   */\n      dup9\n        /* \"#utility.yul\":19547:19553   */\n      dup3\n        /* \"#utility.yul\":19536:19545   */\n      dup10\n        /* \"#utility.yul\":19532:19554   */\n      add\n        /* \"#utility.yul\":19514:19564   */\n      tag_276\n      jump\t// in\n    tag_510:\n        /* \"#utility.yul\":19504:19564   */\n      swap4\n      pop\n        /* \"#utility.yul\":19459:19574   */\n      pop\n        /* \"#utility.yul\":19613:19615   */\n      0x60\n        /* \"#utility.yul\":19639:19689   */\n      tag_511\n        /* \"#utility.yul\":19681:19688   */\n      dup9\n        /* \"#utility.yul\":19672:19678   */\n      dup3\n        /* \"#utility.yul\":19661:19670   */\n      dup10\n        /* \"#utility.yul\":19657:19679   */\n      add\n        /* \"#utility.yul\":19639:19689   */\n      tag_276\n      jump\t// in\n    tag_511:\n        /* \"#utility.yul\":19629:19689   */\n      swap3\n      pop\n        /* \"#utility.yul\":19584:19699   */\n      pop\n        /* \"#utility.yul\":19738:19741   */\n      0x80\n        /* \"#utility.yul\":19765:19818   */\n      tag_512\n        /* \"#utility.yul\":19810:19817   */\n      dup9\n        /* \"#utility.yul\":19801:19807   */\n      dup3\n        /* \"#utility.yul\":19790:19799   */\n      dup10\n        /* \"#utility.yul\":19786:19808   */\n      add\n        /* \"#utility.yul\":19765:19818   */\n      tag_300\n      jump\t// in\n    tag_512:\n        /* \"#utility.yul\":19755:19818   */\n      swap2\n      pop\n        /* \"#utility.yul\":19709:19828   */\n      pop\n        /* \"#utility.yul\":18576:19835   */\n      swap3\n      swap6\n      pop\n      swap3\n      swap6\n      swap1\n      swap4\n      pop\n      jump\t// out\n        /* \"#utility.yul\":19841:19983   */\n    tag_301:\n        /* \"#utility.yul\":19936:19942   */\n      0x00\n        /* \"#utility.yul\":19970:19975   */\n      dup2\n        /* \"#utility.yul\":19964:19976   */\n      mload\n        /* \"#utility.yul\":19954:19976   */\n      swap1\n      pop\n        /* \"#utility.yul\":19841:19983   */\n      swap2\n      swap1\n      pop\n      jump\t// out\n        /* \"#utility.yul\":19989:20201   */\n    tag_302:\n        /* \"#utility.yul\":20116:20127   */\n      0x00\n        /* \"#utility.yul\":20150:20156   */\n      dup3\n        /* \"#utility.yul\":20145:20148   */\n      dup3\n        /* \"#utility.yul\":20138:20157   */\n      mstore\n        /* \"#utility.yul\":20190:20194   */\n      0x20\n        /* \"#utility.yul\":20185:20188   */\n      dup3\n        /* \"#utility.yul\":20181:20195   */\n      add\n        /* \"#utility.yul\":20166:20195   */\n      swap1\n      pop\n        /* \"#utility.yul\":19989:20201   */\n      swap3\n      swap2\n      pop\n      pop\n      jump\t// out\n        /* \"#utility.yul\":20207:20367   */\n    tag_303:\n        /* \"#utility.yul\":20302:20306   */\n      0x00\n        /* \"#utility.yul\":20325:20328   */\n      dup2\n        /* \"#utility.yul\":20317:20328   */\n      swap1\n      pop\n        /* \"#utility.yul\":20355:20359   */\n      0x20\n        /* \"#utility.yul\":20350:20353   */\n      dup3\n        /* \"#utility.yul\":20346:20360   */\n      add\n        /* \"#utility.yul\":20338:20360   */\n      swap1\n      pop\n        /* \"#utility.yul\":20207:20367   */\n      swap2\n      swap1\n      pop\n      jump\t// out\n        /* \"#utility.yul\":20373:20472   */\n    tag_304:\n        /* \"#utility.yul\":20444:20465   */\n      tag_517\n        /* \"#utility.yul\":20459:20464   */\n      dup2\n        /* \"#utility.yul\":20444:20465   */\n      tag_274\n      jump\t// in\n    tag_517:\n        /* \"#utility.yul\":20439:20442   */\n      dup3\n        /* \"#utility.yul\":20432:20466   */\n      mstore\n        /* \"#utility.yul\":20373:20472   */\n      pop\n      pop\n      jump\t// out\n        /* \"#utility.yul\":20558:22249   */\n    tag_305:\n        /* \"#utility.yul\":20673:20676   */\n      0x00\n        /* \"#utility.yul\":20709:20713   */\n      0xe0\n        /* \"#utility.yul\":20704:20707   */\n      dup4\n        /* \"#utility.yul\":20700:20714   */\n      add\n        /* \"#utility.yul\":20796:20800   */\n      0x00\n        /* \"#utility.yul\":20789:20794   */\n      dup4\n        /* \"#utility.yul\":20785:20801   */\n      add\n        /* \"#utility.yul\":20779:20802   */\n      mload\n        /* \"#utility.yul\":20849:20852   */\n      dup5\n        /* \"#utility.yul\":20843:20847   */\n      dup3\n        /* \"#utility.yul\":20839:20853   */\n      sub\n        /* \"#utility.yul\":20832:20836   */\n      0x00\n        /* \"#utility.yul\":20827:20830   */\n      dup7\n        /* \"#utility.yul\":20823:20837   */\n      add\n        /* \"#utility.yul\":20816:20854   */\n      mstore\n        /* \"#utility.yul\":20875:20948   */\n      tag_519\n        /* \"#utility.yul\":20943:20947   */\n      dup3\n        /* \"#utility.yul\":20929:20941   */\n      dup3\n        /* \"#utility.yul\":20875:20948   */\n      tag_283\n      jump\t// in\n    tag_519:\n        /* \"#utility.yul\":20867:20948   */\n      swap2\n      pop\n        /* \"#utility.yul\":20724:20959   */\n      pop\n        /* \"#utility.yul\":21047:21051   */\n      0x20\n        /* \"#utility.yul\":21040:21045   */\n      dup4\n        /* \"#utility.yul\":21036:21052   */\n      add\n        /* \"#utility.yul\":21030:21053   */\n      mload\n        /* \"#utility.yul\":21100:21103   */\n      dup5\n        /* \"#utility.yul\":21094:21098   */\n      dup3\n        /* \"#utility.yul\":21090:21104   */\n      sub\n        /* \"#utility.yul\":21083:21087   */\n      0x20\n        /* \"#utility.yul\":21078:21081   */\n      dup7\n        /* \"#utility.yul\":21074:21088   */\n      add\n        /* \"#utility.yul\":21067:21105   */\n      mstore\n        /* \"#utility.yul\":21126:21199   */\n      tag_520\n        /* \"#utility.yul\":21194:21198   */\n      dup3\n        /* \"#utility.yul\":21180:21192   */\n      dup3\n        /* \"#utility.yul\":21126:21199   */\n      tag_283\n      jump\t// in\n    tag_520:\n        /* \"#utility.yul\":21118:21199   */\n      swap2\n      pop\n        /* \"#utility.yul\":20969:21210   */\n      pop\n        /* \"#utility.yul\":21295:21299   */\n      0x40\n        /* \"#utility.yul\":21288:21293   */\n      dup4\n        /* \"#utility.yul\":21284:21300   */\n      add\n        /* \"#utility.yul\":21278:21301   */\n      mload\n        /* \"#utility.yul\":21314:21371   */\n      tag_521\n        /* \"#utility.yul\":21365:21369   */\n      0x40\n        /* \"#utility.yul\":21360:21363   */\n      dup7\n        /* \"#utility.yul\":21356:21370   */\n      add\n        /* \"#utility.yul\":21342:21354   */\n      dup3\n        /* \"#utility.yul\":21314:21371   */\n      tag_304\n      jump\t// in\n    tag_521:\n        /* \"#utility.yul\":21220:21381   */\n      pop\n        /* \"#utility.yul\":21468:21472   */\n      0x60\n        /* \"#utility.yul\":21461:21466   */\n      dup4\n        /* \"#utility.yul\":21457:21473   */\n      add\n        /* \"#utility.yul\":21451:21474   */\n      mload\n        /* \"#utility.yul\":21487:21544   */\n      tag_522\n        /* \"#utility.yul\":21538:21542   */\n      0x60\n        /* \"#utility.yul\":21533:21536   */\n      dup7\n        /* \"#utility.yul\":21529:21543   */\n      add\n        /* \"#utility.yul\":21515:21527   */\n      dup3\n        /* \"#utility.yul\":21487:21544   */\n      tag_304\n      jump\t// in\n    tag_522:\n        /* \"#utility.yul\":21391:21554   */\n      pop\n        /* \"#utility.yul\":21639:21643   */\n      0x80\n        /* \"#utility.yul\":21632:21637   */\n      dup4\n        /* \"#utility.yul\":21628:21644   */\n      add\n        /* \"#utility.yul\":21622:21645   */\n      mload\n        /* \"#utility.yul\":21658:21715   */\n      tag_523\n        /* \"#utility.yul\":21709:21713   */\n      0x80\n        /* \"#utility.yul\":21704:21707   */\n      dup7\n        /* \"#utility.yul\":21700:21714   */\n      add\n        /* \"#utility.yul\":21686:21698   */\n      dup3\n        /* \"#utility.yul\":21658:21715   */\n      tag_304\n      jump\t// in\n    tag_523:\n        /* \"#utility.yul\":21564:21725   */\n      pop\n        /* \"#utility.yul\":21807:21811   */\n      0xa0\n        /* \"#utility.yul\":21800:21805   */\n      dup4\n        /* \"#utility.yul\":21796:21812   */\n      add\n        /* \"#utility.yul\":21790:21813   */\n      mload\n        /* \"#utility.yul\":21860:21863   */\n      dup5\n        /* \"#utility.yul\":21854:21858   */\n      dup3\n        /* \"#utility.yul\":21850:21864   */\n      sub\n        /* \"#utility.yul\":21843:21847   */\n      0xa0\n        /* \"#utility.yul\":21838:21841   */\n      dup7\n        /* \"#utility.yul\":21834:21848   */\n      add\n        /* \"#utility.yul\":21827:21865   */\n      mstore\n        /* \"#utility.yul\":21886:21959   */\n      tag_524\n        /* \"#utility.yul\":21954:21958   */\n      dup3\n        /* \"#utility.yul\":21940:21952   */\n      dup3\n        /* \"#utility.yul\":21886:21959   */\n      tag_283\n      jump\t// in\n    tag_524:\n        /* \"#utility.yul\":21878:21959   */\n      swap2\n      pop\n        /* \"#utility.yul\":21735:21970   */\n      pop\n        /* \"#utility.yul\":22059:22063   */\n      0xc0\n        /* \"#utility.yul\":22052:22057   */\n      dup4\n        /* \"#utility.yul\":22048:22064   */\n      add\n        /* \"#utility.yul\":22042:22065   */\n      mload\n        /* \"#utility.yul\":22112:22115   */\n      dup5\n        /* \"#utility.yul\":22106:22110   */\n      dup3\n        /* \"#utility.yul\":22102:22116   */\n      sub\n        /* \"#utility.yul\":22095:22099   */\n      0xc0\n        /* \"#utility.yul\":22090:22093   */\n      dup7\n        /* \"#utility.yul\":22086:22100   */\n      add\n        /* \"#utility.yul\":22079:22117   */\n      mstore\n        /* \"#utility.yul\":22138:22211   */\n      tag_525\n        /* \"#utility.yul\":22206:22210   */\n      dup3\n        /* \"#utility.yul\":22192:22204   */\n      dup3\n        /* \"#utility.yul\":22138:22211   */\n      tag_283\n      jump\t// in\n    tag_525:\n        /* \"#utility.yul\":22130:22211   */\n      swap2\n      pop\n        /* \"#utility.yul\":21980:22222   */\n      pop\n        /* \"#utility.yul\":22239:22243   */\n      dup1\n        /* \"#utility.yul\":22232:22243   */\n      swap2\n      pop\n        /* \"#utility.yul\":20678:22249   */\n      pop\n        /* \"#utility.yul\":20558:22249   */\n      swap3\n      swap2\n      pop\n      pop\n      jump\t// out\n        /* \"#utility.yul\":22255:22523   */\n    tag_306:\n        /* \"#utility.yul\":22380:22390   */\n      0x00\n        /* \"#utility.yul\":22415:22517   */\n      tag_527\n        /* \"#utility.yul\":22513:22516   */\n      dup4\n        /* \"#utility.yul\":22505:22511   */\n      dup4\n        /* \"#utility.yul\":22415:22517   */\n      tag_305\n      jump\t// in\n    tag_527:\n        /* \"#utility.yul\":22401:22517   */\n      swap1\n      pop\n        /* \"#utility.yul\":22255:22523   */\n      swap3\n      swap2\n      pop\n      pop\n      jump\t// out\n        /* \"#utility.yul\":22529:22670   */\n    tag_307:\n        /* \"#utility.yul\":22627:22631   */\n      0x00\n        /* \"#utility.yul\":22659:22663   */\n      0x20\n        /* \"#utility.yul\":22654:22657   */\n      dup3\n        /* \"#utility.yul\":22650:22664   */\n      add\n        /* \"#utility.yul\":22642:22664   */\n      swap1\n      pop\n        /* \"#utility.yul\":22529:22670   */\n      swap2\n      swap1\n      pop\n      jump\t// out\n        /* \"#utility.yul\":22760:23895   */\n    tag_308:\n        /* \"#utility.yul\":22935:22938   */\n      0x00\n        /* \"#utility.yul\":22964:23046   */\n      tag_530\n        /* \"#utility.yul\":23040:23045   */\n      dup3\n        /* \"#utility.yul\":22964:23046   */\n      tag_301\n      jump\t// in\n    tag_530:\n        /* \"#utility.yul\":23062:23176   */\n      tag_531\n        /* \"#utility.yul\":23169:23175   */\n      dup2\n        /* \"#utility.yul\":23164:23167   */\n      dup6\n        /* \"#utility.yul\":23062:23176   */\n      tag_302\n      jump\t// in\n    tag_531:\n        /* \"#utility.yul\":23055:23176   */\n      swap4\n      pop\n        /* \"#utility.yul\":23202:23205   */\n      dup4\n        /* \"#utility.yul\":23247:23251   */\n      0x20\n        /* \"#utility.yul\":23239:23245   */\n      dup3\n        /* \"#utility.yul\":23235:23252   */\n      mul\n        /* \"#utility.yul\":23230:23233   */\n      dup6\n        /* \"#utility.yul\":23226:23253   */\n      add\n        /* \"#utility.yul\":23277:23361   */\n      tag_532\n        /* \"#utility.yul\":23355:23360   */\n      dup6\n        /* \"#utility.yul\":23277:23361   */\n      tag_303\n      jump\t// in\n    tag_532:\n        /* \"#utility.yul\":23384:23391   */\n      dup1\n        /* \"#utility.yul\":23415:23416   */\n      0x00\n        /* \"#utility.yul\":23400:23850   */\n    tag_533:\n        /* \"#utility.yul\":23425:23431   */\n      dup6\n        /* \"#utility.yul\":23422:23423   */\n      dup2\n        /* \"#utility.yul\":23419:23432   */\n      lt\n        /* \"#utility.yul\":23400:23850   */\n      iszero\n      tag_535\n      jumpi\n        /* \"#utility.yul\":23496:23505   */\n      dup5\n        /* \"#utility.yul\":23490:23494   */\n      dup5\n        /* \"#utility.yul\":23486:23506   */\n      sub\n        /* \"#utility.yul\":23481:23484   */\n      dup10\n        /* \"#utility.yul\":23474:23507   */\n      mstore\n        /* \"#utility.yul\":23547:23553   */\n      dup2\n        /* \"#utility.yul\":23541:23554   */\n      mload\n        /* \"#utility.yul\":23575:23695   */\n      tag_536\n        /* \"#utility.yul\":23690:23694   */\n      dup6\n        /* \"#utility.yul\":23675:23688   */\n      dup3\n        /* \"#utility.yul\":23575:23695   */\n      tag_306\n      jump\t// in\n    tag_536:\n        /* \"#utility.yul\":23567:23695   */\n      swap5\n      pop\n        /* \"#utility.yul\":23718:23806   */\n      tag_537\n        /* \"#utility.yul\":23799:23805   */\n      dup4\n        /* \"#utility.yul\":23718:23806   */\n      tag_307\n      jump\t// in\n    tag_537:\n        /* \"#utility.yul\":23708:23806   */\n      swap3\n      pop\n        /* \"#utility.yul\":23835:23839   */\n      0x20\n        /* \"#utility.yul\":23830:23833   */\n      dup11\n        /* \"#utility.yul\":23826:23840   */\n      add\n        /* \"#utility.yul\":23819:23840   */\n      swap10\n      pop\n        /* \"#utility.yul\":23460:23850   */\n      pop\n        /* \"#utility.yul\":23447:23448   */\n      0x01\n        /* \"#utility.yul\":23444:23445   */\n      dup2\n        /* \"#utility.yul\":23440:23449   */\n      add\n        /* \"#utility.yul\":23435:23449   */\n      swap1\n      pop\n        /* \"#utility.yul\":23400:23850   */\n      jump(tag_533)\n    tag_535:\n        /* \"#utility.yul\":23404:23418   */\n      pop\n        /* \"#utility.yul\":23866:23870   */\n      dup3\n        /* \"#utility.yul\":23859:23870   */\n      swap8\n      pop\n        /* \"#utility.yul\":23886:23889   */\n      dup8\n        /* \"#utility.yul\":23879:23889   */\n      swap6\n      pop\n        /* \"#utility.yul\":22940:23895   */\n      pop\n      pop\n      pop\n      pop\n      pop\n        /* \"#utility.yul\":22760:23895   */\n      swap3\n      swap2\n      pop\n      pop\n      jump\t// out\n        /* \"#utility.yul\":23901:24386   */\n    tag_56:\n        /* \"#utility.yul\":24100:24104   */\n      0x00\n        /* \"#utility.yul\":24138:24140   */\n      0x20\n        /* \"#utility.yul\":24127:24136   */\n      dup3\n        /* \"#utility.yul\":24123:24141   */\n      add\n        /* \"#utility.yul\":24115:24141   */\n      swap1\n      pop\n        /* \"#utility.yul\":24187:24196   */\n      dup2\n        /* \"#utility.yul\":24181:24185   */\n      dup2\n        /* \"#utility.yul\":24177:24197   */\n      sub\n        /* \"#utility.yul\":24173:24174   */\n      0x00\n        /* \"#utility.yul\":24162:24171   */\n      dup4\n        /* \"#utility.yul\":24158:24175   */\n      add\n        /* \"#utility.yul\":24151:24198   */\n      mstore\n        /* \"#utility.yul\":24215:24379   */\n      tag_539\n        /* \"#utility.yul\":24374:24378   */\n      dup2\n        /* \"#utility.yul\":24365:24371   */\n      dup5\n        /* \"#utility.yul\":24215:24379   */\n      tag_308\n      jump\t// in\n    tag_539:\n        /* \"#utility.yul\":24207:24379   */\n      swap1\n      pop\n        /* \"#utility.yul\":23901:24386   */\n      swap3\n      swap2\n      pop\n      pop\n      jump\t// out\n        /* \"#utility.yul\":24392:26855   */\n    tag_59:\n        /* \"#utility.yul\":24575:24581   */\n      0x00\n        /* \"#utility.yul\":24583:24589   */\n      dup1\n        /* \"#utility.yul\":24591:24597   */\n      0x00\n        /* \"#utility.yul\":24599:24605   */\n      dup1\n        /* \"#utility.yul\":24607:24613   */\n      0x00\n        /* \"#utility.yul\":24615:24621   */\n      dup1\n        /* \"#utility.yul\":24623:24629   */\n      0x00\n        /* \"#utility.yul\":24672:24675   */\n      0xe0\n        /* \"#utility.yul\":24660:24669   */\n      dup9\n        /* \"#utility.yul\":24651:24658   */\n      dup11\n        /* \"#utility.yul\":24647:24670   */\n      sub\n        /* \"#utility.yul\":24643:24676   */\n      slt\n        /* \"#utility.yul\":24640:24760   */\n      iszero\n      tag_541\n      jumpi\n        /* \"#utility.yul\":24679:24758   */\n      tag_542\n      tag_263\n      jump\t// in\n    tag_542:\n        /* \"#utility.yul\":24640:24760   */\n    tag_541:\n        /* \"#utility.yul\":24827:24828   */\n      0x00\n        /* \"#utility.yul\":24816:24825   */\n      dup9\n        /* \"#utility.yul\":24812:24829   */\n      add\n        /* \"#utility.yul\":24799:24830   */\n      calldataload\n        /* \"#utility.yul\":24857:24875   */\n      0xffffffffffffffff\n        /* \"#utility.yul\":24849:24855   */\n      dup2\n        /* \"#utility.yul\":24846:24876   */\n      gt\n        /* \"#utility.yul\":24843:24960   */\n      iszero\n      tag_543\n      jumpi\n        /* \"#utility.yul\":24879:24958   */\n      tag_544\n      tag_264\n      jump\t// in\n    tag_544:\n        /* \"#utility.yul\":24843:24960   */\n    tag_543:\n        /* \"#utility.yul\":24984:25047   */\n      tag_545\n        /* \"#utility.yul\":25039:25046   */\n      dup11\n        /* \"#utility.yul\":25030:25036   */\n      dup3\n        /* \"#utility.yul\":25019:25028   */\n      dup12\n        /* \"#utility.yul\":25015:25037   */\n      add\n        /* \"#utility.yul\":24984:25047   */\n      tag_273\n      jump\t// in\n    tag_545:\n        /* \"#utility.yul\":24974:25047   */\n      swap8\n      pop\n        /* \"#utility.yul\":24770:25057   */\n      pop\n        /* \"#utility.yul\":25124:25126   */\n      0x20\n        /* \"#utility.yul\":25113:25122   */\n      dup9\n        /* \"#utility.yul\":25109:25127   */\n      add\n        /* \"#utility.yul\":25096:25128   */\n      calldataload\n        /* \"#utility.yul\":25155:25173   */\n      0xffffffffffffffff\n        /* \"#utility.yul\":25147:25153   */\n      dup2\n        /* \"#utility.yul\":25144:25174   */\n      gt\n        /* \"#utility.yul\":25141:25258   */\n      iszero\n      tag_546\n      jumpi\n        /* \"#utility.yul\":25177:25256   */\n      tag_547\n      tag_264\n      jump\t// in\n    tag_547:\n        /* \"#utility.yul\":25141:25258   */\n    tag_546:\n        /* \"#utility.yul\":25282:25345   */\n      tag_548\n        /* \"#utility.yul\":25337:25344   */\n      dup11\n        /* \"#utility.yul\":25328:25334   */\n      dup3\n        /* \"#utility.yul\":25317:25326   */\n      dup12\n        /* \"#utility.yul\":25313:25335   */\n      add\n        /* \"#utility.yul\":25282:25345   */\n      tag_273\n      jump\t// in\n    tag_548:\n        /* \"#utility.yul\":25272:25345   */\n      swap7\n      pop\n        /* \"#utility.yul\":25067:25355   */\n      pop\n        /* \"#utility.yul\":25422:25424   */\n      0x40\n        /* \"#utility.yul\":25411:25420   */\n      dup9\n        /* \"#utility.yul\":25407:25425   */\n      add\n        /* \"#utility.yul\":25394:25426   */\n      calldataload\n        /* \"#utility.yul\":25453:25471   */\n      0xffffffffffffffff\n        /* \"#utility.yul\":25445:25451   */\n      dup2\n        /* \"#utility.yul\":25442:25472   */\n      gt\n        /* \"#utility.yul\":25439:25556   */\n      iszero\n      tag_549\n      jumpi\n        /* \"#utility.yul\":25475:25554   */\n      tag_550\n      tag_264\n      jump\t// in\n    tag_550:\n        /* \"#utility.yul\":25439:25556   */\n    tag_549:\n        /* \"#utility.yul\":25580:25643   */\n      tag_551\n        /* \"#utility.yul\":25635:25642   */\n      dup11\n        /* \"#utility.yul\":25626:25632   */\n      dup3\n        /* \"#utility.yul\":25615:25624   */\n      dup12\n        /* \"#utility.yul\":25611:25633   */\n      add\n        /* \"#utility.yul\":25580:25643   */\n      tag_273\n      jump\t// in\n    tag_551:\n        /* \"#utility.yul\":25570:25643   */\n      swap6\n      pop\n        /* \"#utility.yul\":25365:25653   */\n      pop\n        /* \"#utility.yul\":25720:25722   */\n      0x60\n        /* \"#utility.yul\":25709:25718   */\n      dup9\n        /* \"#utility.yul\":25705:25723   */\n      add\n        /* \"#utility.yul\":25692:25724   */\n      calldataload\n        /* \"#utility.yul\":25751:25769   */\n      0xffffffffffffffff\n        /* \"#utility.yul\":25743:25749   */\n      dup2\n        /* \"#utility.yul\":25740:25770   */\n      gt\n        /* \"#utility.yul\":25737:25854   */\n      iszero\n      tag_552\n      jumpi\n        /* \"#utility.yul\":25773:25852   */\n      tag_553\n      tag_264\n      jump\t// in\n    tag_553:\n        /* \"#utility.yul\":25737:25854   */\n    tag_552:\n        /* \"#utility.yul\":25878:25941   */\n      tag_554\n        /* \"#utility.yul\":25933:25940   */\n      dup11\n        /* \"#utility.yul\":25924:25930   */\n      dup3\n        /* \"#utility.yul\":25913:25922   */\n      dup12\n        /* \"#utility.yul\":25909:25931   */\n      add\n        /* \"#utility.yul\":25878:25941   */\n      tag_273\n      jump\t// in\n    tag_554:\n        /* \"#utility.yul\":25868:25941   */\n      swap5\n      pop\n        /* \"#utility.yul\":25663:25951   */\n      pop\n        /* \"#utility.yul\":26018:26021   */\n      0x80\n        /* \"#utility.yul\":26007:26016   */\n      dup9\n        /* \"#utility.yul\":26003:26022   */\n      add\n        /* \"#utility.yul\":25990:26023   */\n      calldataload\n        /* \"#utility.yul\":26050:26068   */\n      0xffffffffffffffff\n        /* \"#utility.yul\":26042:26048   */\n      dup2\n        /* \"#utility.yul\":26039:26069   */\n      gt\n        /* \"#utility.yul\":26036:26153   */\n      iszero\n      tag_555\n      jumpi\n        /* \"#utility.yul\":26072:26151   */\n      tag_556\n      tag_264\n      jump\t// in\n    tag_556:\n        /* \"#utility.yul\":26036:26153   */\n    tag_555:\n        /* \"#utility.yul\":26177:26240   */\n      tag_557\n        /* \"#utility.yul\":26232:26239   */\n      dup11\n        /* \"#utility.yul\":26223:26229   */\n      dup3\n        /* \"#utility.yul\":26212:26221   */\n      dup12\n        /* \"#utility.yul\":26208:26230   */\n      add\n        /* \"#utility.yul\":26177:26240   */\n      tag_273\n      jump\t// in\n    tag_557:\n        /* \"#utility.yul\":26167:26240   */\n      swap4\n      pop\n        /* \"#utility.yul\":25961:26250   */\n      pop\n        /* \"#utility.yul\":26317:26320   */\n      0xa0\n        /* \"#utility.yul\":26306:26315   */\n      dup9\n        /* \"#utility.yul\":26302:26321   */\n      add\n        /* \"#utility.yul\":26289:26322   */\n      calldataload\n        /* \"#utility.yul\":26349:26367   */\n      0xffffffffffffffff\n        /* \"#utility.yul\":26341:26347   */\n      dup2\n        /* \"#utility.yul\":26338:26368   */\n      gt\n        /* \"#utility.yul\":26335:26452   */\n      iszero\n      tag_558\n      jumpi\n        /* \"#utility.yul\":26371:26450   */\n      tag_559\n      tag_264\n      jump\t// in\n    tag_559:\n        /* \"#utility.yul\":26335:26452   */\n    tag_558:\n        /* \"#utility.yul\":26476:26539   */\n      tag_560\n        /* \"#utility.yul\":26531:26538   */\n      dup11\n        /* \"#utility.yul\":26522:26528   */\n      dup3\n        /* \"#utility.yul\":26511:26520   */\n      dup12\n        /* \"#utility.yul\":26507:26529   */\n      add\n        /* \"#utility.yul\":26476:26539   */\n      tag_273\n      jump\t// in\n    tag_560:\n        /* \"#utility.yul\":26466:26539   */\n      swap3\n      pop\n        /* \"#utility.yul\":26260:26549   */\n      pop\n        /* \"#utility.yul\":26616:26619   */\n      0xc0\n        /* \"#utility.yul\":26605:26614   */\n      dup9\n        /* \"#utility.yul\":26601:26620   */\n      add\n        /* \"#utility.yul\":26588:26621   */\n      calldataload\n        /* \"#utility.yul\":26648:26666   */\n      0xffffffffffffffff\n        /* \"#utility.yul\":26640:26646   */\n      dup2\n        /* \"#utility.yul\":26637:26667   */\n      gt\n        /* \"#utility.yul\":26634:26751   */\n      iszero\n      tag_561\n      jumpi\n        /* \"#utility.yul\":26670:26749   */\n      tag_562\n      tag_264\n      jump\t// in\n    tag_562:\n        /* \"#utility.yul\":26634:26751   */\n    tag_561:\n        /* \"#utility.yul\":26775:26838   */\n      tag_563\n        /* \"#utility.yul\":26830:26837   */\n      dup11\n        /* \"#utility.yul\":26821:26827   */\n      dup3\n        /* \"#utility.yul\":26810:26819   */\n      dup12\n        /* \"#utility.yul\":26806:26828   */\n      add\n        /* \"#utility.yul\":26775:26838   */\n      tag_273\n      jump\t// in\n    tag_563:\n        /* \"#utility.yul\":26765:26838   */\n      swap2\n      pop\n        /* \"#utility.yul\":26559:26848   */\n      pop\n        /* \"#utility.yul\":24392:26855   */\n      swap3\n      swap6\n      swap9\n      swap2\n      swap5\n      swap8\n      pop\n      swap3\n      swap6\n      pop\n      jump\t// out\n        /* \"#utility.yul\":26861:28132   */\n    tag_63:\n        /* \"#utility.yul\":26976:26982   */\n      0x00\n        /* \"#utility.yul\":26984:26990   */\n      dup1\n        /* \"#utility.yul\":26992:26998   */\n      0x00\n        /* \"#utility.yul\":27000:27006   */\n      dup1\n        /* \"#utility.yul\":27008:27014   */\n      0x00\n        /* \"#utility.yul\":27057:27060   */\n      0xa0\n        /* \"#utility.yul\":27045:27054   */\n      dup7\n        /* \"#utility.yul\":27036:27043   */\n      dup9\n        /* \"#utility.yul\":27032:27055   */\n      sub\n        /* \"#utility.yul\":27028:27061   */\n      slt\n        /* \"#utility.yul\":27025:27145   */\n      iszero\n      tag_565\n      jumpi\n        /* \"#utility.yul\":27064:27143   */\n      tag_566\n      tag_263\n      jump\t// in\n    tag_566:\n        /* \"#utility.yul\":27025:27145   */\n    tag_565:\n        /* \"#utility.yul\":27212:27213   */\n      0x00\n        /* \"#utility.yul\":27201:27210   */\n      dup7\n        /* \"#utility.yul\":27197:27214   */\n      add\n        /* \"#utility.yul\":27184:27215   */\n      calldataload\n        /* \"#utility.yul\":27242:27260   */\n      0xffffffffffffffff\n        /* \"#utility.yul\":27234:27240   */\n      dup2\n        /* \"#utility.yul\":27231:27261   */\n      gt\n        /* \"#utility.yul\":27228:27345   */\n      iszero\n      tag_567\n      jumpi\n        /* \"#utility.yul\":27264:27343   */\n      tag_568\n      tag_264\n      jump\t// in\n    tag_568:\n        /* \"#utility.yul\":27228:27345   */\n    tag_567:\n        /* \"#utility.yul\":27369:27432   */\n      tag_569\n        /* \"#utility.yul\":27424:27431   */\n      dup9\n        /* \"#utility.yul\":27415:27421   */\n      dup3\n        /* \"#utility.yul\":27404:27413   */\n      dup10\n        /* \"#utility.yul\":27400:27422   */\n      add\n        /* \"#utility.yul\":27369:27432   */\n      tag_273\n      jump\t// in\n    tag_569:\n        /* \"#utility.yul\":27359:27432   */\n      swap6\n      pop\n        /* \"#utility.yul\":27155:27442   */\n      pop\n        /* \"#utility.yul\":27509:27511   */\n      0x20\n        /* \"#utility.yul\":27498:27507   */\n      dup7\n        /* \"#utility.yul\":27494:27512   */\n      add\n        /* \"#utility.yul\":27481:27513   */\n      calldataload\n        /* \"#utility.yul\":27540:27558   */\n      0xffffffffffffffff\n        /* \"#utility.yul\":27532:27538   */\n      dup2\n        /* \"#utility.yul\":27529:27559   */\n      gt\n        /* \"#utility.yul\":27526:27643   */\n      iszero\n      tag_570\n      jumpi\n        /* \"#utility.yul\":27562:27641   */\n      tag_571\n      tag_264\n      jump\t// in\n    tag_571:\n        /* \"#utility.yul\":27526:27643   */\n    tag_570:\n        /* \"#utility.yul\":27667:27730   */\n      tag_572\n        /* \"#utility.yul\":27722:27729   */\n      dup9\n        /* \"#utility.yul\":27713:27719   */\n      dup3\n        /* \"#utility.yul\":27702:27711   */\n      dup10\n        /* \"#utility.yul\":27698:27720   */\n      add\n        /* \"#utility.yul\":27667:27730   */\n      tag_273\n      jump\t// in\n    tag_572:\n        /* \"#utility.yul\":27657:27730   */\n      swap5\n      pop\n        /* \"#utility.yul\":27452:27740   */\n      pop\n        /* \"#utility.yul\":27779:27781   */\n      0x40\n        /* \"#utility.yul\":27805:27858   */\n      tag_573\n        /* \"#utility.yul\":27850:27857   */\n      dup9\n        /* \"#utility.yul\":27841:27847   */\n      dup3\n        /* \"#utility.yul\":27830:27839   */\n      dup10\n        /* \"#utility.yul\":27826:27848   */\n      add\n        /* \"#utility.yul\":27805:27858   */\n      tag_300\n      jump\t// in\n    tag_573:\n        /* \"#utility.yul\":27795:27858   */\n      swap4\n      pop\n        /* \"#utility.yul\":27750:27868   */\n      pop\n        /* \"#utility.yul\":27907:27909   */\n      0x60\n        /* \"#utility.yul\":27933:27986   */\n      tag_574\n        /* \"#utility.yul\":27978:27985   */\n      dup9\n        /* \"#utility.yul\":27969:27975   */\n      dup3\n        /* \"#utility.yul\":27958:27967   */\n      dup10\n        /* \"#utility.yul\":27954:27976   */\n      add\n        /* \"#utility.yul\":27933:27986   */\n      tag_300\n      jump\t// in\n    tag_574:\n        /* \"#utility.yul\":27923:27986   */\n      swap3\n      pop\n        /* \"#utility.yul\":27878:27996   */\n      pop\n        /* \"#utility.yul\":28035:28038   */\n      0x80\n        /* \"#utility.yul\":28062:28115   */\n      tag_575\n        /* \"#utility.yul\":28107:28114   */\n      dup9\n        /* \"#utility.yul\":28098:28104   */\n      dup3\n        /* \"#utility.yul\":28087:28096   */\n      dup10\n        /* \"#utility.yul\":28083:28105   */\n      add\n        /* \"#utility.yul\":28062:28115   */\n      tag_300\n      jump\t// in\n    tag_575:\n        /* \"#utility.yul\":28052:28115   */\n      swap2\n      pop\n        /* \"#utility.yul\":28006:28125   */\n      pop\n        /* \"#utility.yul\":26861:28132   */\n      swap3\n      swap6\n      pop\n      swap3\n      swap6\n      swap1\n      swap4\n      pop\n      jump\t// out\n        /* \"#utility.yul\":28138:28273   */\n    tag_309:\n        /* \"#utility.yul\":28226:28232   */\n      0x00\n        /* \"#utility.yul\":28260:28265   */\n      dup2\n        /* \"#utility.yul\":28254:28266   */\n      mload\n        /* \"#utility.yul\":28244:28266   */\n      swap1\n      pop\n        /* \"#utility.yul\":28138:28273   */\n      swap2\n      swap1\n      pop\n      jump\t// out\n        /* \"#utility.yul\":28279:28484   */\n    tag_310:\n        /* \"#utility.yul\":28399:28410   */\n      0x00\n        /* \"#utility.yul\":28433:28439   */\n      dup3\n        /* \"#utility.yul\":28428:28431   */\n      dup3\n        /* \"#utility.yul\":28421:28440   */\n      mstore\n        /* \"#utility.yul\":28473:28477   */\n      0x20\n        /* \"#utility.yul\":28468:28471   */\n      dup3\n        /* \"#utility.yul\":28464:28478   */\n      add\n        /* \"#utility.yul\":28449:28478   */\n      swap1\n      pop\n        /* \"#utility.yul\":28279:28484   */\n      swap3\n      swap2\n      pop\n      pop\n      jump\t// out\n        /* \"#utility.yul\":28490:28643   */\n    tag_311:\n        /* \"#utility.yul\":28578:28582   */\n      0x00\n        /* \"#utility.yul\":28601:28604   */\n      dup2\n        /* \"#utility.yul\":28593:28604   */\n      swap1\n      pop\n        /* \"#utility.yul\":28631:28635   */\n      0x20\n        /* \"#utility.yul\":28626:28629   */\n      dup3\n        /* \"#utility.yul\":28622:28636   */\n      add\n        /* \"#utility.yul\":28614:28636   */\n      swap1\n      pop\n        /* \"#utility.yul\":28490:28643   */\n      swap2\n      swap1\n      pop\n      jump\t// out\n        /* \"#utility.yul\":28715:29648   */\n    tag_312:\n        /* \"#utility.yul\":28816:28819   */\n      0x00\n        /* \"#utility.yul\":28852:28856   */\n      0x80\n        /* \"#utility.yul\":28847:28850   */\n      dup4\n        /* \"#utility.yul\":28843:28857   */\n      add\n        /* \"#utility.yul\":28939:28943   */\n      0x00\n        /* \"#utility.yul\":28932:28937   */\n      dup4\n        /* \"#utility.yul\":28928:28944   */\n      add\n        /* \"#utility.yul\":28922:28945   */\n      mload\n        /* \"#utility.yul\":28992:28995   */\n      dup5\n        /* \"#utility.yul\":28986:28990   */\n      dup3\n        /* \"#utility.yul\":28982:28996   */\n      sub\n        /* \"#utility.yul\":28975:28979   */\n      0x00\n        /* \"#utility.yul\":28970:28973   */\n      dup7\n        /* \"#utility.yul\":28966:28980   */\n      add\n        /* \"#utility.yul\":28959:28997   */\n      mstore\n        /* \"#utility.yul\":29018:29091   */\n      tag_580\n        /* \"#utility.yul\":29086:29090   */\n      dup3\n        /* \"#utility.yul\":29072:29084   */\n      dup3\n        /* \"#utility.yul\":29018:29091   */\n      tag_283\n      jump\t// in\n    tag_580:\n        /* \"#utility.yul\":29010:29091   */\n      swap2\n      pop\n        /* \"#utility.yul\":28867:29102   */\n      pop\n        /* \"#utility.yul\":29187:29191   */\n      0x20\n        /* \"#utility.yul\":29180:29185   */\n      dup4\n        /* \"#utility.yul\":29176:29192   */\n      add\n        /* \"#utility.yul\":29170:29193   */\n      mload\n        /* \"#utility.yul\":29206:29263   */\n      tag_581\n        /* \"#utility.yul\":29257:29261   */\n      0x20\n        /* \"#utility.yul\":29252:29255   */\n      dup7\n        /* \"#utility.yul\":29248:29262   */\n      add\n        /* \"#utility.yul\":29234:29246   */\n      dup3\n        /* \"#utility.yul\":29206:29263   */\n      tag_304\n      jump\t// in\n    tag_581:\n        /* \"#utility.yul\":29112:29273   */\n      pop\n        /* \"#utility.yul\":29360:29364   */\n      0x40\n        /* \"#utility.yul\":29353:29358   */\n      dup4\n        /* \"#utility.yul\":29349:29365   */\n      add\n        /* \"#utility.yul\":29343:29366   */\n      mload\n        /* \"#utility.yul\":29379:29436   */\n      tag_582\n        /* \"#utility.yul\":29430:29434   */\n      0x40\n        /* \"#utility.yul\":29425:29428   */\n      dup7\n        /* \"#utility.yul\":29421:29435   */\n      add\n        /* \"#utility.yul\":29407:29419   */\n      dup3\n        /* \"#utility.yul\":29379:29436   */\n      tag_304\n      jump\t// in\n    tag_582:\n        /* \"#utility.yul\":29283:29446   */\n      pop\n        /* \"#utility.yul\":29529:29533   */\n      0x60\n        /* \"#utility.yul\":29522:29527   */\n      dup4\n        /* \"#utility.yul\":29518:29534   */\n      add\n        /* \"#utility.yul\":29512:29535   */\n      mload\n        /* \"#utility.yul\":29548:29611   */\n      tag_583\n        /* \"#utility.yul\":29605:29609   */\n      0x60\n        /* \"#utility.yul\":29600:29603   */\n      dup7\n        /* \"#utility.yul\":29596:29610   */\n      add\n        /* \"#utility.yul\":29582:29594   */\n      dup3\n        /* \"#utility.yul\":29548:29611   */\n      tag_285\n      jump\t// in\n    tag_583:\n        /* \"#utility.yul\":29456:29621   */\n      pop\n        /* \"#utility.yul\":29638:29642   */\n      dup1\n        /* \"#utility.yul\":29631:29642   */\n      swap2\n      pop\n        /* \"#utility.yul\":28821:29648   */\n      pop\n        /* \"#utility.yul\":28715:29648   */\n      swap3\n      swap2\n      pop\n      pop\n      jump\t// out\n        /* \"#utility.yul\":29654:29894   */\n    tag_313:\n        /* \"#utility.yul\":29765:29775   */\n      0x00\n        /* \"#utility.yul\":29800:29888   */\n      tag_585\n        /* \"#utility.yul\":29884:29887   */\n      dup4\n        /* \"#utility.yul\":29876:29882   */\n      dup4\n        /* \"#utility.yul\":29800:29888   */\n      tag_312\n      jump\t// in\n    tag_585:\n        /* \"#utility.yul\":29786:29888   */\n      swap1\n      pop\n        /* \"#utility.yul\":29654:29894   */\n      swap3\n      swap2\n      pop\n      pop\n      jump\t// out\n        /* \"#utility.yul\":29900:30034   */\n    tag_314:\n        /* \"#utility.yul\":29991:29995   */\n      0x00\n        /* \"#utility.yul\":30023:30027   */\n      0x20\n        /* \"#utility.yul\":30018:30021   */\n      dup3\n        /* \"#utility.yul\":30014:30028   */\n      add\n        /* \"#utility.yul\":30006:30028   */\n      swap1\n      pop\n        /* \"#utility.yul\":29900:30034   */\n      swap2\n      swap1\n      pop\n      jump\t// out\n        /* \"#utility.yul\":30110:31189   */\n    tag_315:\n        /* \"#utility.yul\":30271:30274   */\n      0x00\n        /* \"#utility.yul\":30300:30375   */\n      tag_588\n        /* \"#utility.yul\":30369:30374   */\n      dup3\n        /* \"#utility.yul\":30300:30375   */\n      tag_309\n      jump\t// in\n    tag_588:\n        /* \"#utility.yul\":30391:30498   */\n      tag_589\n        /* \"#utility.yul\":30491:30497   */\n      dup2\n        /* \"#utility.yul\":30486:30489   */\n      dup6\n        /* \"#utility.yul\":30391:30498   */\n      tag_310\n      jump\t// in\n    tag_589:\n        /* \"#utility.yul\":30384:30498   */\n      swap4\n      pop\n        /* \"#utility.yul\":30524:30527   */\n      dup4\n        /* \"#utility.yul\":30569:30573   */\n      0x20\n        /* \"#utility.yul\":30561:30567   */\n      dup3\n        /* \"#utility.yul\":30557:30574   */\n      mul\n        /* \"#utility.yul\":30552:30555   */\n      dup6\n        /* \"#utility.yul\":30548:30575   */\n      add\n        /* \"#utility.yul\":30599:30676   */\n      tag_590\n        /* \"#utility.yul\":30670:30675   */\n      dup6\n        /* \"#utility.yul\":30599:30676   */\n      tag_311\n      jump\t// in\n    tag_590:\n        /* \"#utility.yul\":30699:30706   */\n      dup1\n        /* \"#utility.yul\":30730:30731   */\n      0x00\n        /* \"#utility.yul\":30715:31144   */\n    tag_591:\n        /* \"#utility.yul\":30740:30746   */\n      dup6\n        /* \"#utility.yul\":30737:30738   */\n      dup2\n        /* \"#utility.yul\":30734:30747   */\n      lt\n        /* \"#utility.yul\":30715:31144   */\n      iszero\n      tag_593\n      jumpi\n        /* \"#utility.yul\":30811:30820   */\n      dup5\n        /* \"#utility.yul\":30805:30809   */\n      dup5\n        /* \"#utility.yul\":30801:30821   */\n      sub\n        /* \"#utility.yul\":30796:30799   */\n      dup10\n        /* \"#utility.yul\":30789:30822   */\n      mstore\n        /* \"#utility.yul\":30862:30868   */\n      dup2\n        /* \"#utility.yul\":30856:30869   */\n      mload\n        /* \"#utility.yul\":30890:30996   */\n      tag_594\n        /* \"#utility.yul\":30991:30995   */\n      dup6\n        /* \"#utility.yul\":30976:30989   */\n      dup3\n        /* \"#utility.yul\":30890:30996   */\n      tag_313\n      jump\t// in\n    tag_594:\n        /* \"#utility.yul\":30882:30996   */\n      swap5\n      pop\n        /* \"#utility.yul\":31019:31100   */\n      tag_595\n        /* \"#utility.yul\":31093:31099   */\n      dup4\n        /* \"#utility.yul\":31019:31100   */\n      tag_314\n      jump\t// in\n    tag_595:\n        /* \"#utility.yul\":31009:31100   */\n      swap3\n      pop\n        /* \"#utility.yul\":31129:31133   */\n      0x20\n        /* \"#utility.yul\":31124:31127   */\n      dup11\n        /* \"#utility.yul\":31120:31134   */\n      add\n        /* \"#utility.yul\":31113:31134   */\n      swap10\n      pop\n        /* \"#utility.yul\":30775:31144   */\n      pop\n        /* \"#utility.yul\":30762:30763   */\n      0x01\n        /* \"#utility.yul\":30759:30760   */\n      dup2\n        /* \"#utility.yul\":30755:30764   */\n      add\n        /* \"#utility.yul\":30750:30764   */\n      swap1\n      pop\n        /* \"#utility.yul\":30715:31144   */\n      jump(tag_591)\n    tag_593:\n        /* \"#utility.yul\":30719:30733   */\n      pop\n        /* \"#utility.yul\":31160:31164   */\n      dup3\n        /* \"#utility.yul\":31153:31164   */\n      swap8\n      pop\n        /* \"#utility.yul\":31180:31183   */\n      dup8\n        /* \"#utility.yul\":31173:31183   */\n      swap6\n      pop\n        /* \"#utility.yul\":30276:31189   */\n      pop\n      pop\n      pop\n      pop\n      pop\n        /* \"#utility.yul\":30110:31189   */\n      swap3\n      swap2\n      pop\n      pop\n      jump\t// out\n        /* \"#utility.yul\":31195:31652   */\n    tag_69:\n        /* \"#utility.yul\":31380:31384   */\n      0x00\n        /* \"#utility.yul\":31418:31420   */\n      0x20\n        /* \"#utility.yul\":31407:31416   */\n      dup3\n        /* \"#utility.yul\":31403:31421   */\n      add\n        /* \"#utility.yul\":31395:31421   */\n      swap1\n      pop\n        /* \"#utility.yul\":31467:31476   */\n      dup2\n        /* \"#utility.yul\":31461:31465   */\n      dup2\n        /* \"#utility.yul\":31457:31477   */\n      sub\n        /* \"#utility.yul\":31453:31454   */\n      0x00\n        /* \"#utility.yul\":31442:31451   */\n      dup4\n        /* \"#utility.yul\":31438:31455   */\n      add\n        /* \"#utility.yul\":31431:31478   */\n      mstore\n        /* \"#utility.yul\":31495:31645   */\n      tag_597\n        /* \"#utility.yul\":31640:31644   */\n      dup2\n        /* \"#utility.yul\":31631:31637   */\n      dup5\n        /* \"#utility.yul\":31495:31645   */\n      tag_315\n      jump\t// in\n    tag_597:\n        /* \"#utility.yul\":31487:31645   */\n      swap1\n      pop\n        /* \"#utility.yul\":31195:31652   */\n      swap3\n      swap2\n      pop\n      pop\n      jump\t// out\n        /* \"#utility.yul\":31658:31806   */\n    tag_316:\n        /* \"#utility.yul\":31760:31771   */\n      0x00\n        /* \"#utility.yul\":31797:31800   */\n      dup2\n        /* \"#utility.yul\":31782:31800   */\n      swap1\n      pop\n        /* \"#utility.yul\":31658:31806   */\n      swap3\n      swap2\n      pop\n      pop\n      jump\t// out\n        /* \"#utility.yul\":31812:32202   */\n    tag_317:\n        /* \"#utility.yul\":31918:31921   */\n      0x00\n        /* \"#utility.yul\":31946:31985   */\n      tag_600\n        /* \"#utility.yul\":31979:31984   */\n      dup3\n        /* \"#utility.yul\":31946:31985   */\n      tag_280\n      jump\t// in\n    tag_600:\n        /* \"#utility.yul\":32001:32090   */\n      tag_601\n        /* \"#utility.yul\":32083:32089   */\n      dup2\n        /* \"#utility.yul\":32078:32081   */\n      dup6\n        /* \"#utility.yul\":32001:32090   */\n      tag_316\n      jump\t// in\n    tag_601:\n        /* \"#utility.yul\":31994:32090   */\n      swap4\n      pop\n        /* \"#utility.yul\":32099:32164   */\n      tag_602\n        /* \"#utility.yul\":32157:32163   */\n      dup2\n        /* \"#utility.yul\":32152:32155   */\n      dup6\n        /* \"#utility.yul\":32145:32149   */\n      0x20\n        /* \"#utility.yul\":32138:32143   */\n      dup7\n        /* \"#utility.yul\":32134:32150   */\n      add\n        /* \"#utility.yul\":32099:32164   */\n      tag_282\n      jump\t// in\n    tag_602:\n        /* \"#utility.yul\":32189:32195   */\n      dup1\n        /* \"#utility.yul\":32184:32187   */\n      dup5\n        /* \"#utility.yul\":32180:32196   */\n      add\n        /* \"#utility.yul\":32173:32196   */\n      swap2\n      pop\n        /* \"#utility.yul\":31922:32202   */\n      pop\n        /* \"#utility.yul\":31812:32202   */\n      swap3\n      swap2\n      pop\n      pop\n      jump\t// out\n        /* \"#utility.yul\":32208:32483   */\n    tag_72:\n        /* \"#utility.yul\":32340:32343   */\n      0x00\n        /* \"#utility.yul\":32362:32457   */\n      tag_604\n        /* \"#utility.yul\":32453:32456   */\n      dup3\n        /* \"#utility.yul\":32444:32450   */\n      dup5\n        /* \"#utility.yul\":32362:32457   */\n      tag_317\n      jump\t// in\n    tag_604:\n        /* \"#utility.yul\":32355:32457   */\n      swap2\n      pop\n        /* \"#utility.yul\":32474:32477   */\n      dup2\n        /* \"#utility.yul\":32467:32477   */\n      swap1\n      pop\n        /* \"#utility.yul\":32208:32483   */\n      swap3\n      swap2\n      pop\n      pop\n      jump\t// out\n        /* \"#utility.yul\":32489:32669   */\n    tag_318:\n        /* \"#utility.yul\":32537:32614   */\n      0x4e487b7100000000000000000000000000000000000000000000000000000000\n        /* \"#utility.yul\":32534:32535   */\n      0x00\n        /* \"#utility.yul\":32527:32615   */\n      mstore\n        /* \"#utility.yul\":32634:32638   */\n      0x22\n        /* \"#utility.yul\":32631:32632   */\n      0x04\n        /* \"#utility.yul\":32624:32639   */\n      mstore\n        /* \"#utility.yul\":32658:32662   */\n      0x24\n        /* \"#utility.yul\":32655:32656   */\n      0x00\n        /* \"#utility.yul\":32648:32663   */\n      revert\n        /* \"#utility.yul\":32675:32995   */\n    tag_97:\n        /* \"#utility.yul\":32719:32725   */\n      0x00\n        /* \"#utility.yul\":32756:32757   */\n      0x02\n        /* \"#utility.yul\":32750:32754   */\n      dup3\n        /* \"#utility.yul\":32746:32758   */\n      div\n        /* \"#utility.yul\":32736:32758   */\n      swap1\n      pop\n        /* \"#utility.yul\":32803:32804   */\n      0x01\n        /* \"#utility.yul\":32797:32801   */\n      dup3\n        /* \"#utility.yul\":32793:32805   */\n      and\n        /* \"#utility.yul\":32824:32842   */\n      dup1\n        /* \"#utility.yul\":32814:32895   */\n      tag_607\n      jumpi\n        /* \"#utility.yul\":32880:32884   */\n      0x7f\n        /* \"#utility.yul\":32872:32878   */\n      dup3\n        /* \"#utility.yul\":32868:32885   */\n      and\n        /* \"#utility.yul\":32858:32885   */\n      swap2\n      pop\n        /* \"#utility.yul\":32814:32895   */\n    tag_607:\n        /* \"#utility.yul\":32942:32944   */\n      0x20\n        /* \"#utility.yul\":32934:32940   */\n      dup3\n        /* \"#utility.yul\":32931:32945   */\n      lt\n        /* \"#utility.yul\":32911:32929   */\n      dup2\n        /* \"#utility.yul\":32908:32946   */\n      sub\n        /* \"#utility.yul\":32905:32989   */\n      tag_608\n      jumpi\n        /* \"#utility.yul\":32961:32979   */\n      tag_609\n      tag_318\n      jump\t// in\n    tag_609:\n        /* \"#utility.yul\":32905:32989   */\n    tag_608:\n        /* \"#utility.yul\":32726:32995   */\n      pop\n        /* \"#utility.yul\":32675:32995   */\n      swap2\n      swap1\n      pop\n      jump\t// out\n        /* \"#utility.yul\":33001:33142   */\n    tag_319:\n        /* \"#utility.yul\":33050:33054   */\n      0x00\n        /* \"#utility.yul\":33073:33076   */\n      dup2\n        /* \"#utility.yul\":33065:33076   */\n      swap1\n      pop\n        /* \"#utility.yul\":33096:33099   */\n      dup2\n        /* \"#utility.yul\":33093:33094   */\n      0x00\n        /* \"#utility.yul\":33086:33100   */\n      mstore\n        /* \"#utility.yul\":33130:33134   */\n      0x20\n        /* \"#utility.yul\":33127:33128   */\n      0x00\n        /* \"#utility.yul\":33117:33135   */\n      keccak256\n        /* \"#utility.yul\":33109:33135   */\n      swap1\n      pop\n        /* \"#utility.yul\":33001:33142   */\n      swap2\n      swap1\n      pop\n      jump\t// out\n        /* \"#utility.yul\":33148:33241   */\n    tag_320:\n        /* \"#utility.yul\":33185:33191   */\n      0x00\n        /* \"#utility.yul\":33232:33234   */\n      0x20\n        /* \"#utility.yul\":33227:33229   */\n      0x1f\n        /* \"#utility.yul\":33220:33225   */\n      dup4\n        /* \"#utility.yul\":33216:33230   */\n      add\n        /* \"#utility.yul\":33212:33235   */\n      div\n        /* \"#utility.yul\":33202:33235   */\n      swap1\n      pop\n        /* \"#utility.yul\":33148:33241   */\n      swap2\n      swap1\n      pop\n      jump\t// out\n        /* \"#utility.yul\":33247:33354   */\n    tag_321:\n        /* \"#utility.yul\":33291:33299   */\n      0x00\n        /* \"#utility.yul\":33341:33346   */\n      dup3\n        /* \"#utility.yul\":33335:33339   */\n      dup3\n        /* \"#utility.yul\":33331:33347   */\n      shl\n        /* \"#utility.yul\":33310:33347   */\n      swap1\n      pop\n        /* \"#utility.yul\":33247:33354   */\n      swap3\n      swap2\n      pop\n      pop\n      jump\t// out\n        /* \"#utility.yul\":33360:33753   */\n    tag_322:\n        /* \"#utility.yul\":33429:33435   */\n      0x00\n        /* \"#utility.yul\":33479:33480   */\n      0x08\n        /* \"#utility.yul\":33467:33477   */\n      dup4\n        /* \"#utility.yul\":33463:33481   */\n      mul\n        /* \"#utility.yul\":33502:33599   */\n      tag_614\n        /* \"#utility.yul\":33532:33598   */\n      0xffffffffffffffffffffffffffffffffffffffffffffffffffffffffffffffff\n        /* \"#utility.yul\":33521:33530   */\n      dup3\n        /* \"#utility.yul\":33502:33599   */\n      tag_321\n      jump\t// in\n    tag_614:\n        /* \"#utility.yul\":33620:33659   */\n      tag_615\n        /* \"#utility.yul\":33650:33658   */\n      dup7\n        /* \"#utility.yul\":33639:33648   */\n      dup4\n        /* \"#utility.yul\":33620:33659   */\n      tag_321\n      jump\t// in\n    tag_615:\n        /* \"#utility.yul\":33608:33659   */\n      swap6\n      pop\n        /* \"#utility.yul\":33692:33696   */\n      dup1\n        /* \"#utility.yul\":33688:33697   */\n      not\n        /* \"#utility.yul\":33681:33686   */\n      dup5\n        /* \"#utility.yul\":33677:33698   */\n      and\n        /* \"#utility.yul\":33668:33698   */\n      swap4\n      pop\n        /* \"#utility.yul\":33741:33745   */\n      dup1\n        /* \"#utility.yul\":33731:33739   */\n      dup7\n        /* \"#utility.yul\":33727:33746   */\n      and\n        /* \"#utility.yul\":33720:33725   */\n      dup5\n        /* \"#utility.yul\":33717:33747   */\n      or\n        /* \"#utility.yul\":33707:33747   */\n      swap3\n      pop\n        /* \"#utility.yul\":33436:33753   */\n      pop\n      pop\n        /* \"#utility.yul\":33360:33753   */\n      swap4\n      swap3\n      pop\n      pop\n      pop\n      jump\t// out\n        /* \"#utility.yul\":33759:33819   */\n    tag_323:\n        /* \"#utility.yul\":33787:33790   */\n      0x00\n        /* \"#utility.yul\":33808:33813   */\n      dup2\n        /* \"#utility.yul\":33801:33813   */\n      swap1\n      pop\n        /* \"#utility.yul\":33759:33819   */\n      swap2\n      swap1\n      pop\n      jump\t// out\n        /* \"#utility.yul\":33825:33967   */\n    tag_324:\n        /* \"#utility.yul\":33875:33884   */\n      0x00\n        /* \"#utility.yul\":33908:33961   */\n      tag_618\n        /* \"#utility.yul\":33926:33960   */\n      tag_619\n        /* \"#utility.yul\":33935:33959   */\n      tag_620\n        /* \"#utility.yul\":33953:33958   */\n      dup5\n        /* \"#utility.yul\":33935:33959   */\n      tag_284\n      jump\t// in\n    tag_620:\n        /* \"#utility.yul\":33926:33960   */\n      tag_323\n      jump\t// in\n    tag_619:\n        /* \"#utility.yul\":33908:33961   */\n      tag_284\n      jump\t// in\n    tag_618:\n        /* \"#utility.yul\":33895:33961   */\n      swap1\n      pop\n        /* \"#utility.yul\":33825:33967   */\n      swap2\n      swap1\n      pop\n      jump\t// out\n        /* \"#utility.yul\":33973:34048   */\n    tag_325:\n        /* \"#utility.yul\":34016:34019   */\n      0x00\n        /* \"#utility.yul\":34037:34042   */\n      dup2\n        /* \"#utility.yul\":34030:34042   */\n      swap1\n      pop\n        /* \"#utility.yul\":33973:34048   */\n      swap2\n      swap1\n      pop\n      jump\t// out\n        /* \"#utility.yul\":34054:34323   */\n    tag_326:\n        /* \"#utility.yul\":34164:34203   */\n      tag_623\n        /* \"#utility.yul\":34195:34202   */\n      dup4\n        /* \"#utility.yul\":34164:34203   */\n      tag_324\n      jump\t// in\n    tag_623:\n        /* \"#utility.yul\":34225:34316   */\n      tag_624\n        /* \"#utility.yul\":34274:34315   */\n      tag_625\n        /* \"#utility.yul\":34298:34314   */\n      dup3\n        /* \"#utility.yul\":34274:34315   */\n      tag_325\n      jump\t// in\n    tag_625:\n        /* \"#utility.yul\":34266:34272   */\n      dup5\n        /* \"#utility.yul\":34259:34263   */\n      dup5\n        /* \"#utility.yul\":34253:34264   */\n      sload\n        /* \"#utility.yul\":34225:34316   */\n      tag_322\n      jump\t// in\n    tag_624:\n        /* \"#utility.yul\":34219:34223   */\n      dup3\n        /* \"#utility.yul\":34212:34317   */\n      sstore\n        /* \"#utility.yul\":34130:34323   */\n      pop\n        /* \"#utility.yul\":34054:34323   */\n      pop\n      pop\n      pop\n      jump\t// out\n        /* \"#utility.yul\":34329:34402   */\n    tag_327:\n        /* \"#utility.yul\":34374:34377   */\n      0x00\n        /* \"#utility.yul\":34329:34402   */\n      swap1\n      jump\t// out\n        /* \"#utility.yul\":34408:34597   */\n    tag_328:\n        /* \"#utility.yul\":34485:34517   */\n      tag_628\n      tag_327\n      jump\t// in\n    tag_628:\n        /* \"#utility.yul\":34526:34591   */\n      tag_629\n        /* \"#utility.yul\":34584:34590   */\n      dup2\n        /* \"#utility.yul\":34576:34582   */\n      dup5\n        /* \"#utility.yul\":34570:34574   */\n      dup5\n        /* \"#utility.yul\":34526:34591   */\n      tag_326\n      jump\t// in\n    tag_629:\n        /* \"#utility.yul\":34461:34597   */\n      pop\n        /* \"#utility.yul\":34408:34597   */\n      pop\n      pop\n      jump\t// out\n        /* \"#utility.yul\":34603:34789   */\n    tag_329:\n        /* \"#utility.yul\":34663:34783   */\n    tag_631:\n        /* \"#utility.yul\":34680:34683   */\n      dup2\n        /* \"#utility.yul\":34673:34678   */\n      dup2\n        /* \"#utility.yul\":34670:34684   */\n      lt\n        /* \"#utility.yul\":34663:34783   */\n      iszero\n      tag_633\n      jumpi\n        /* \"#utility.yul\":34734:34773   */\n      tag_634\n        /* \"#utility.yul\":34771:34772   */\n      0x00\n        /* \"#utility.yul\":34764:34769   */\n      dup3\n        /* \"#utility.yul\":34734:34773   */\n      tag_328\n      jump\t// in\n    tag_634:\n        /* \"#utility.yul\":34707:34708   */\n      0x01\n        /* \"#utility.yul\":34700:34705   */\n      dup2\n        /* \"#utility.yul\":34696:34709   */\n      add\n        /* \"#utility.yul\":34687:34709   */\n      swap1\n      pop\n        /* \"#utility.yul\":34663:34783   */\n      jump(tag_631)\n    tag_633:\n        /* \"#utility.yul\":34603:34789   */\n      pop\n      pop\n      jump\t// out\n        /* \"#utility.yul\":34795:35338   */\n    tag_330:\n        /* \"#utility.yul\":34896:34898   */\n      0x1f\n        /* \"#utility.yul\":34891:34894   */\n      dup3\n        /* \"#utility.yul\":34888:34899   */\n      gt\n        /* \"#utility.yul\":34885:35331   */\n      iszero\n      tag_636\n      jumpi\n        /* \"#utility.yul\":34930:34968   */\n      tag_637\n        /* \"#utility.yul\":34962:34967   */\n      dup2\n        /* \"#utility.yul\":34930:34968   */\n      tag_319\n      jump\t// in\n    tag_637:\n        /* \"#utility.yul\":35014:35043   */\n      tag_638\n        /* \"#utility.yul\":35032:35042   */\n      dup5\n        /* \"#utility.yul\":35014:35043   */\n      tag_320\n      jump\t// in\n    tag_638:\n        /* \"#utility.yul\":35004:35012   */\n      dup2\n        /* \"#utility.yul\":35000:35044   */\n      add\n        /* \"#utility.yul\":35197:35199   */\n      0x20\n        /* \"#utility.yul\":35185:35195   */\n      dup6\n        /* \"#utility.yul\":35182:35200   */\n      lt\n        /* \"#utility.yul\":35179:35228   */\n      iszero\n      tag_639\n      jumpi\n        /* \"#utility.yul\":35218:35226   */\n      dup2\n        /* \"#utility.yul\":35203:35226   */\n      swap1\n      pop\n        /* \"#utility.yul\":35179:35228   */\n    tag_639:\n        /* \"#utility.yul\":35241:35321   */\n      tag_640\n        /* \"#utility.yul\":35297:35319   */\n      tag_641\n        /* \"#utility.yul\":35315:35318   */\n      dup6\n        /* \"#utility.yul\":35297:35319   */\n      tag_320\n      jump\t// in\n    tag_641:\n        /* \"#utility.yul\":35287:35295   */\n      dup4\n        /* \"#utility.yul\":35283:35320   */\n      add\n        /* \"#utility.yul\":35270:35281   */\n      dup3\n        /* \"#utility.yul\":35241:35321   */\n      tag_329\n      jump\t// in\n    tag_640:\n        /* \"#utility.yul\":34900:35331   */\n      pop\n      pop\n        /* \"#utility.yul\":34885:35331   */\n    tag_636:\n        /* \"#utility.yul\":34795:35338   */\n      pop\n      pop\n      pop\n      jump\t// out\n        /* \"#utility.yul\":35344:35461   */\n    tag_331:\n        /* \"#utility.yul\":35398:35406   */\n      0x00\n        /* \"#utility.yul\":35448:35453   */\n      dup3\n        /* \"#utility.yul\":35442:35446   */\n      dup3\n        /* \"#utility.yul\":35438:35454   */\n      shr\n        /* \"#utility.yul\":35417:35454   */\n      swap1\n      pop\n        /* \"#utility.yul\":35344:35461   */\n      swap3\n      swap2\n      pop\n      pop\n      jump\t// out\n        /* \"#utility.yul\":35467:35636   */\n    tag_332:\n        /* \"#utility.yul\":35511:35517   */\n      0x00\n        /* \"#utility.yul\":35544:35595   */\n      tag_644\n        /* \"#utility.yul\":35592:35593   */\n      0x00\n        /* \"#utility.yul\":35588:35594   */\n      not\n        /* \"#utility.yul\":35580:35585   */\n      dup5\n        /* \"#utility.yul\":35577:35578   */\n      0x08\n        /* \"#utility.yul\":35573:35586   */\n      mul\n        /* \"#utility.yul\":35544:35595   */\n      tag_331\n      jump\t// in\n    tag_644:\n        /* \"#utility.yul\":35540:35596   */\n      not\n        /* \"#utility.yul\":35625:35629   */\n      dup1\n        /* \"#utility.yul\":35619:35623   */\n      dup4\n        /* \"#utility.yul\":35615:35630   */\n      and\n        /* \"#utility.yul\":35605:35630   */\n      swap2\n      pop\n        /* \"#utility.yul\":35518:35636   */\n      pop\n        /* \"#utility.yul\":35467:35636   */\n      swap3\n      swap2\n      pop\n      pop\n      jump\t// out\n        /* \"#utility.yul\":35641:35936   */\n    tag_333:\n        /* \"#utility.yul\":35717:35721   */\n      0x00\n        /* \"#utility.yul\":35863:35892   */\n      tag_646\n        /* \"#utility.yul\":35888:35891   */\n      dup4\n        /* \"#utility.yul\":35882:35886   */\n      dup4\n        /* \"#utility.yul\":35863:35892   */\n      tag_332\n      jump\t// in\n    tag_646:\n        /* \"#utility.yul\":35855:35892   */\n      swap2\n      pop\n        /* \"#utility.yul\":35925:35928   */\n      dup3\n        /* \"#utility.yul\":35922:35923   */\n      0x02\n        /* \"#utility.yul\":35918:35929   */\n      mul\n        /* \"#utility.yul\":35912:35916   */\n      dup3\n        /* \"#utility.yul\":35909:35930   */\n      or\n        /* \"#utility.yul\":35901:35930   */\n      swap1\n      pop\n        /* \"#utility.yul\":35641:35936   */\n      swap3\n      swap2\n      pop\n      pop\n      jump\t// out\n        /* \"#utility.yul\":35941:37336   */\n    tag_74:\n        /* \"#utility.yul\":36058:36095   */\n      tag_648\n        /* \"#utility.yul\":36091:36094   */\n      dup3\n        /* \"#utility.yul\":36058:36095   */\n      tag_280\n      jump\t// in\n    tag_648:\n        /* \"#utility.yul\":36160:36178   */\n      0xffffffffffffffff\n        /* \"#utility.yul\":36152:36158   */\n      dup2\n        /* \"#utility.yul\":36149:36179   */\n      gt\n        /* \"#utility.yul\":36146:36202   */\n      iszero\n      tag_649\n      jumpi\n        /* \"#utility.yul\":36182:36200   */\n      tag_650\n      tag_88\n      jump\t// in\n    tag_650:\n        /* \"#utility.yul\":36146:36202   */\n    tag_649:\n        /* \"#utility.yul\":36226:36264   */\n      tag_651\n        /* \"#utility.yul\":36258:36262   */\n      dup3\n        /* \"#utility.yul\":36252:36263   */\n      sload\n        /* \"#utility.yul\":36226:36264   */\n      tag_97\n      jump\t// in\n    tag_651:\n        /* \"#utility.yul\":36311:36378   */\n      tag_652\n        /* \"#utility.yul\":36371:36377   */\n      dup3\n        /* \"#utility.yul\":36363:36369   */\n      dup3\n        /* \"#utility.yul\":36357:36361   */\n      dup6\n        /* \"#utility.yul\":36311:36378   */\n      tag_330\n      jump\t// in\n    tag_652:\n        /* \"#utility.yul\":36405:36406   */\n      0x00\n        /* \"#utility.yul\":36429:36433   */\n      0x20\n        /* \"#utility.yul\":36416:36433   */\n      swap1\n      pop\n        /* \"#utility.yul\":36461:36463   */\n      0x1f\n        /* \"#utility.yul\":36453:36459   */\n      dup4\n        /* \"#utility.yul\":36450:36464   */\n      gt\n        /* \"#utility.yul\":36478:36479   */\n      0x01\n        /* \"#utility.yul\":36473:37091   */\n      dup2\n      eq\n      tag_654\n      jumpi\n        /* \"#utility.yul\":37135:37136   */\n      0x00\n        /* \"#utility.yul\":37152:37158   */\n      dup5\n        /* \"#utility.yul\":37149:37226   */\n      iszero\n      tag_655\n      jumpi\n        /* \"#utility.yul\":37201:37210   */\n      dup3\n        /* \"#utility.yul\":37196:37199   */\n      dup8\n        /* \"#utility.yul\":37192:37211   */\n      add\n        /* \"#utility.yul\":37186:37212   */\n      mload\n        /* \"#utility.yul\":37177:37212   */\n      swap1\n      pop\n        /* \"#utility.yul\":37149:37226   */\n    tag_655:\n        /* \"#utility.yul\":37252:37319   */\n      tag_656\n        /* \"#utility.yul\":37312:37318   */\n      dup6\n        /* \"#utility.yul\":37305:37310   */\n      dup3\n        /* \"#utility.yul\":37252:37319   */\n      tag_333\n      jump\t// in\n    tag_656:\n        /* \"#utility.yul\":37246:37250   */\n      dup7\n        /* \"#utility.yul\":37239:37320   */\n      sstore\n        /* \"#utility.yul\":37108:37330   */\n      pop\n        /* \"#utility.yul\":36443:37330   */\n      jump(tag_653)\n        /* \"#utility.yul\":36473:37091   */\n    tag_654:\n        /* \"#utility.yul\":36525:36529   */\n      0x1f\n        /* \"#utility.yul\":36521:36530   */\n      not\n        /* \"#utility.yul\":36513:36519   */\n      dup5\n        /* \"#utility.yul\":36509:36531   */\n      and\n        /* \"#utility.yul\":36559:36596   */\n      tag_657\n        /* \"#utility.yul\":36591:36595   */\n      dup7\n        /* \"#utility.yul\":36559:36596   */\n      tag_319\n      jump\t// in\n    tag_657:\n        /* \"#utility.yul\":36618:36619   */\n      0x00\n        /* \"#utility.yul\":36632:36840   */\n    tag_658:\n        /* \"#utility.yul\":36646:36653   */\n      dup3\n        /* \"#utility.yul\":36643:36644   */\n      dup2\n        /* \"#utility.yul\":36640:36654   */\n      lt\n        /* \"#utility.yul\":36632:36840   */\n      iszero\n      tag_660\n      jumpi\n        /* \"#utility.yul\":36725:36734   */\n      dup5\n        /* \"#utility.yul\":36720:36723   */\n      dup10\n        /* \"#utility.yul\":36716:36735   */\n      add\n        /* \"#utility.yul\":36710:36736   */\n      mload\n        /* \"#utility.yul\":36702:36708   */\n      dup3\n        /* \"#utility.yul\":36695:36737   */\n      sstore\n        /* \"#utility.yul\":36776:36777   */\n      0x01\n        /* \"#utility.yul\":36768:36774   */\n      dup3\n        /* \"#utility.yul\":36764:36778   */\n      add\n        /* \"#utility.yul\":36754:36778   */\n      swap2\n      pop\n        /* \"#utility.yul\":36823:36825   */\n      0x20\n        /* \"#utility.yul\":36812:36821   */\n      dup6\n        /* \"#utility.yul\":36808:36826   */\n      add\n        /* \"#utility.yul\":36795:36826   */\n      swap5\n      pop\n        /* \"#utility.yul\":36669:36673   */\n      0x20\n        /* \"#utility.yul\":36666:36667   */\n      dup2\n        /* \"#utility.yul\":36662:36674   */\n      add\n        /* \"#utility.yul\":36657:36674   */\n      swap1\n      pop\n        /* \"#utility.yul\":36632:36840   */\n      jump(tag_658)\n    tag_660:\n        /* \"#utility.yul\":36868:36874   */\n      dup7\n        /* \"#utility.yul\":36859:36866   */\n      dup4\n        /* \"#utility.yul\":36856:36875   */\n      lt\n        /* \"#utility.yul\":36853:37032   */\n      iszero\n      tag_661\n      jumpi\n        /* \"#utility.yul\":36926:36935   */\n      dup5\n        /* \"#utility.yul\":36921:36924   */\n      dup10\n        /* \"#utility.yul\":36917:36936   */\n      add\n        /* \"#utility.yul\":36911:36937   */\n      mload\n        /* \"#utility.yul\":36969:37017   */\n      tag_662\n        /* \"#utility.yul\":37011:37015   */\n      0x1f\n        /* \"#utility.yul\":37003:37009   */\n      dup10\n        /* \"#utility.yul\":36999:37016   */\n      and\n        /* \"#utility.yul\":36988:36997   */\n      dup3\n        /* \"#utility.yul\":36969:37017   */\n      tag_332\n      jump\t// in\n    tag_662:\n        /* \"#utility.yul\":36961:36967   */\n      dup4\n        /* \"#utility.yul\":36954:37018   */\n      sstore\n        /* \"#utility.yul\":36876:37032   */\n      pop\n        /* \"#utility.yul\":36853:37032   */\n    tag_661:\n        /* \"#utility.yul\":37078:37079   */\n      0x01\n        /* \"#utility.yul\":37074:37075   */\n      0x02\n        /* \"#utility.yul\":37066:37072   */\n      dup9\n        /* \"#utility.yul\":37062:37076   */\n      mul\n        /* \"#utility.yul\":37058:37080   */\n      add\n        /* \"#utility.yul\":37052:37056   */\n      dup9\n        /* \"#utility.yul\":37045:37081   */\n      sstore\n        /* \"#utility.yul\":36480:37091   */\n      pop\n      pop\n      pop\n        /* \"#utility.yul\":36443:37330   */\n    tag_653:\n      pop\n        /* \"#utility.yul\":36033:37336   */\n      pop\n      pop\n      pop\n        /* \"#utility.yul\":35941:37336   */\n      pop\n      pop\n      jump\t// out\n        /* \"#utility.yul\":37342:37522   */\n    tag_334:\n        /* \"#utility.yul\":37390:37467   */\n      0x4e487b7100000000000000000000000000000000000000000000000000000000\n        /* \"#utility.yul\":37387:37388   */\n      0x00\n        /* \"#utility.yul\":37380:37468   */\n      mstore\n        /* \"#utility.yul\":37487:37491   */\n      0x11\n        /* \"#utility.yul\":37484:37485   */\n      0x04\n        /* \"#utility.yul\":37477:37492   */\n      mstore\n        /* \"#utility.yul\":37511:37515   */\n      0x24\n        /* \"#utility.yul\":37508:37509   */\n      0x00\n        /* \"#utility.yul\":37501:37516   */\n      revert\n        /* \"#utility.yul\":37528:37761   */\n    tag_79:\n        /* \"#utility.yul\":37567:37570   */\n      0x00\n        /* \"#utility.yul\":37590:37614   */\n      tag_665\n        /* \"#utility.yul\":37608:37613   */\n      dup3\n        /* \"#utility.yul\":37590:37614   */\n      tag_284\n      jump\t// in\n    tag_665:\n        /* \"#utility.yul\":37581:37614   */\n      swap2\n      pop\n        /* \"#utility.yul\":37636:37702   */\n      0xffffffffffffffffffffffffffffffffffffffffffffffffffffffffffffffff\n        /* \"#utility.yul\":37629:37634   */\n      dup3\n        /* \"#utility.yul\":37626:37703   */\n      sub\n        /* \"#utility.yul\":37623:37726   */\n      tag_666\n      jumpi\n        /* \"#utility.yul\":37706:37724   */\n      tag_667\n      tag_334\n      jump\t// in\n    tag_667:\n        /* \"#utility.yul\":37623:37726   */\n    tag_666:\n        /* \"#utility.yul\":37753:37754   */\n      0x01\n        /* \"#utility.yul\":37746:37751   */\n      dup3\n        /* \"#utility.yul\":37742:37755   */\n      add\n        /* \"#utility.yul\":37735:37755   */\n      swap1\n      pop\n        /* \"#utility.yul\":37528:37761   */\n      swap2\n      swap1\n      pop\n      jump\t// out\n        /* \"#utility.yul\":37767:37947   */\n    tag_104:\n        /* \"#utility.yul\":37815:37892   */\n      0x4e487b7100000000000000000000000000000000000000000000000000000000\n        /* \"#utility.yul\":37812:37813   */\n      0x00\n        /* \"#utility.yul\":37805:37893   */\n      mstore\n        /* \"#utility.yul\":37912:37916   */\n      0x32\n        /* \"#utility.yul\":37909:37910   */\n      0x04\n        /* \"#utility.yul\":37902:37917   */\n      mstore\n        /* \"#utility.yul\":37936:37940   */\n      0x24\n        /* \"#utility.yul\":37933:37934   */\n      0x00\n        /* \"#utility.yul\":37926:37941   */\n      revert\n\n    auxdata: 0xa2646970667358221220feb5dbcf9a2310efcd818ccca81696be848009f9515ec1ec7b1d023169f234a064736f6c63430008120033\n}\n",
				"bytecode": {
					"linkReferences": {},
					"object": "608060405234801561001057600080fd5b506127cd806100206000396000f3fe608060405234801561001057600080fd5b50600436106100b45760003560e01c8063545060481161007157806354506048146101a05780636ebfa7d4146101bc57806383162c7a146101d85780638a11aba414610208578063d463818114610224578063e8ffd73714610240576100b4565b80631d76d896146100b957806326c652d0146100d55780632d8b006b146100f157806333d9e60c146101215780633f71e30b14610151578063515707c814610184575b600080fd5b6100d360048036038101906100ce91906116eb565b610270565b005b6100ef60048036038101906100ea919061182d565b6103c9565b005b61010b600480360381019061010691906118a5565b610428565b6040516101189190611abe565b60405180910390f35b61013b600480360381019061013691906118a5565b610628565b6040516101489190611be6565b60405180910390f35b61016b60048036038101906101669190611c08565b61089c565b60405161017b9493929190611cd5565b60405180910390f35b61019e6004803603810190610199919061182d565b610b5f565b005b6101ba60048036038101906101b59190611d36565b610bbe565b005b6101d660048036038101906101d19190611e09565b610c62565b005b6101f260048036038101906101ed91906118a5565b610d4c565b6040516101ff919061203e565b60405180910390f35b610222600480360381019061021d9190612060565b611135565b005b61023e600480360381019061023991906121c6565b6111cc565b005b61025a600480360381019061025591906118a5565b611286565b604051610267919061239e565b60405180910390f35b6000808960405161028191906123fc565b908152602001604051809103902090506000816007015490506040518060e001604052808a81526020018981526020018815158152602001871515815260200186151581526020018581526020018481525082600601600083815260200190815260200160002060008201518160000190816102fd919061261f565b506020820151816001019081610313919061261f565b5060408201518160020160006101000a81548160ff02191690831515021790555060608201518160020160016101000a81548160ff02191690831515021790555060808201518160020160026101000a81548160ff02191690831515021790555060a0820151816003019081610389919061261f565b5060c082015181600401908161039f919061261f565b509050508160070160008154809291906103b890612720565b919050555050505050505050505050565b600080826040516103da91906123fc565b90815260200160405180910390209050600181600e01846040516103fe91906123fc565b908152602001604051809103902060006101000a81548160ff021916908315150217905550505050565b606081156105ca576000808460405161044191906123fc565b9081526020016040518091039020905060008160090154905060008167ffffffffffffffff81111561047657610475611588565b5b6040519080825280602002602001820160405280156104af57816020015b61049c6114a8565b8152602001906001900390816104945790505b50905060005b828110156105be578360080160008281526020019081526020016000206040518060800160405290816000820180546104ed90612442565b80601f016020809104026020016040519081016040528092919081815260200182805461051990612442565b80156105665780601f1061053b57610100808354040283529160200191610566565b820191906000526020600020905b81548152906001019060200180831161054957829003601f168201915b5050505050815260200160018201548152602001600282015481526020016003820154815250508282815181106105a05761059f612768565b5b602002602001018190525080806105b690612720565b9150506104b5565b50809350505050610622565b600067ffffffffffffffff8111156105e5576105e4611588565b5b60405190808252806020026020018201604052801561061e57816020015b61060b6114a8565b8152602001906001900390816106035790505b5090505b92915050565b6060811561083e576000808460405161064191906123fc565b90815260200160405180910390209050600081600d0154905060008167ffffffffffffffff81111561067657610675611588565b5b6040519080825280602002602001820160405280156106af57816020015b61069c6114d0565b8152602001906001900390816106945790505b50905060005b828110156108325783600c0160008281526020019081526020016000206040518060400160405290816000820180546106ed90612442565b80601f016020809104026020016040519081016040528092919081815260200182805461071990612442565b80156107665780601f1061073b57610100808354040283529160200191610766565b820191906000526020600020905b81548152906001019060200180831161074957829003601f168201915b5050505050815260200160018201805461077f90612442565b80601f01602080910402602001604051908101604052809291908181526020018280546107ab90612442565b80156107f85780601f106107cd576101008083540402835291602001916107f8565b820191906000526020600020905b8154815290600101906020018083116107db57829003601f168201915b50505050508152505082828151811061081457610813612768565b5b6020026020010181905250808061082a90612720565b9150506106b5565b50809350505050610896565b600067ffffffffffffffff81111561085957610858611588565b5b60405190808252806020026020018201604052801561089257816020015b61087f6114d0565b8152602001906001900390816108775790505b5090505b92915050565b606080606080600080896040516108b391906123fc565b9081526020016040518091039020905080600001886108e1576040518060200160405280600081525061096f565b8160040180546108f090612442565b80601f016020809104026020016040519081016040528092919081815260200182805461091c90612442565b80156109695780601f1061093e57610100808354040283529160200191610969565b820191906000526020600020905b81548152906001019060200180831161094c57829003601f168201915b50505050505b886109895760405180602001604052806000815250610a17565b82600501805461099890612442565b80601f01602080910402602001604051908101604052809291908181526020018280546109c490612442565b8015610a115780601f106109e657610100808354040283529160200191610a11565b820191906000526020600020905b8154815290600101906020018083116109f457829003601f168201915b50505050505b88610a315760405180602001604052806000815250610abf565b836003018054610a4090612442565b80601f0160208091040260200160405190810160405280929190818152602001828054610a6c90612442565b8015610ab95780601f10610a8e57610100808354040283529160200191610ab9565b820191906000526020600020905b815481529060010190602001808311610a9c57829003601f168201915b50505050505b838054610acb90612442565b80601f0160208091040260200160405190810160405280929190818152602001828054610af790612442565b8015610b445780601f10610b1957610100808354040283529160200191610b44565b820191906000526020600020905b815481529060010190602001808311610b2757829003601f168201915b50505050509350945094509450945050945094509450949050565b60008082604051610b7091906123fc565b90815260200160405180910390209050600081600e0184604051610b9491906123fc565b908152602001604051809103902060006101000a81548160ff021916908315150217905550505050565b60008084604051610bcf91906123fc565b90815260200160405180910390209050600081600d0154905060405180604001604052808581526020018481525082600c0160008381526020019081526020016000206000820151816000019081610c27919061261f565b506020820151816001019081610c3d919061261f565b5090505081600d016000815480929190610c5690612720565b91905055505050505050565b60008086604051610c7391906123fc565b90815260200160405180910390209050600081600b015490506040518060800160405280878152602001861515815260200185151581526020018481525082600a0160008381526020019081526020016000206000820151816000019081610cdb919061261f565b5060208201518160010160006101000a81548160ff02191690831515021790555060408201518160010160016101000a81548160ff0219169083151502179055506060820151816002015590505081600b016000815480929190610d3e90612720565b919050555050505050505050565b606081156110d75760008084604051610d6591906123fc565b9081526020016040518091039020905060008160070154905060008167ffffffffffffffff811115610d9a57610d99611588565b5b604051908082528060200260200182016040528015610dd357816020015b610dc06114ea565b815260200190600190039081610db85790505b50905060005b828110156110cb578360060160008281526020019081526020016000206040518060e0016040529081600082018054610e1190612442565b80601f0160208091040260200160405190810160405280929190818152602001828054610e3d90612442565b8015610e8a5780601f10610e5f57610100808354040283529160200191610e8a565b820191906000526020600020905b815481529060010190602001808311610e6d57829003601f168201915b50505050508152602001600182018054610ea390612442565b80601f0160208091040260200160405190810160405280929190818152602001828054610ecf90612442565b8015610f1c5780601f10610ef157610100808354040283529160200191610f1c565b820191906000526020600020905b815481529060010190602001808311610eff57829003601f168201915b505050505081526020016002820160009054906101000a900460ff161515151581526020016002820160019054906101000a900460ff161515151581526020016002820160029054906101000a900460ff16151515158152602001600382018054610f8690612442565b80601f0160208091040260200160405190810160405280929190818152602001828054610fb290612442565b8015610fff5780601f10610fd457610100808354040283529160200191610fff565b820191906000526020600020905b815481529060010190602001808311610fe257829003601f168201915b5050505050815260200160048201805461101890612442565b80601f016020809104026020016040519081016040528092919081815260200182805461104490612442565b80156110915780601f1061106657610100808354040283529160200191611091565b820191906000526020600020905b81548152906001019060200180831161107457829003601f168201915b5050505050815250508282815181106110ad576110ac612768565b5b602002602001018190525080806110c390612720565b915050610dd9565b5080935050505061112f565b600067ffffffffffffffff8111156110f2576110f1611588565b5b60405190808252806020026020018201604052801561112b57816020015b6111186114ea565b8152602001906001900390816111105790505b5090505b92915050565b6000808860405161114691906123fc565b9081526020016040518091039020905086816000019081611167919061261f565b5085816001019081611179919061261f565b508481600201908161118b919061261f565b508281600501908161119d919061261f565b50838160030190816111af919061261f565b50818160040190816111c1919061261f565b505050505050505050565b600080866040516111dd91906123fc565b908152602001604051809103902090506000816009015490506040518060800160405280878152602001868152602001858152602001848152508260080160008381526020019081526020016000206000820151816000019081611241919061261f565b5060208201518160010155604082015181600201556060820151816003015590505081600901600081548092919061127890612720565b919050555050505050505050565b6060811561144a576000808460405161129f91906123fc565b90815260200160405180910390209050600081600b0154905060008167ffffffffffffffff8111156112d4576112d3611588565b5b60405190808252806020026020018201604052801561130d57816020015b6112fa61152d565b8152602001906001900390816112f25790505b50905060005b8281101561143e5783600a01600082815260200190815260200160002060405180608001604052908160008201805461134b90612442565b80601f016020809104026020016040519081016040528092919081815260200182805461137790612442565b80156113c45780601f10611399576101008083540402835291602001916113c4565b820191906000526020600020905b8154815290600101906020018083116113a757829003601f168201915b505050505081526020016001820160009054906101000a900460ff161515151581526020016001820160019054906101000a900460ff161515151581526020016002820154815250508282815181106114205761141f612768565b5b6020026020010181905250808061143690612720565b915050611313565b508093505050506114a2565b600067ffffffffffffffff81111561146557611464611588565b5b60405190808252806020026020018201604052801561149e57816020015b61148b61152d565b8152602001906001900390816114835790505b5090505b92915050565b6040518060800160405280606081526020016000815260200160008152602001600081525090565b604051806040016040528060608152602001606081525090565b6040518060e00160405280606081526020016060815260200160001515815260200160001515815260200160001515815260200160608152602001606081525090565b604051806080016040528060608152602001600015158152602001600015158152602001600081525090565b6000604051905090565b600080fd5b600080fd5b600080fd5b600080fd5b6000601f19601f8301169050919050565b7f4e487b7100000000000000000000000000000000000000000000000000000000600052604160045260246000fd5b6115c082611577565b810181811067ffffffffffffffff821117156115df576115de611588565b5b80604052505050565b60006115f2611559565b90506115fe82826115b7565b919050565b600067ffffffffffffffff82111561161e5761161d611588565b5b61162782611577565b9050602081019050919050565b82818337600083830152505050565b600061165661165184611603565b6115e8565b90508281526020810184848401111561167257611671611572565b5b61167d848285611634565b509392505050565b600082601f83011261169a5761169961156d565b5b81356116aa848260208601611643565b91505092915050565b60008115159050919050565b6116c8816116b3565b81146116d357600080fd5b50565b6000813590506116e5816116bf565b92915050565b600080600080600080600080610100898b03121561170c5761170b611563565b5b600089013567ffffffffffffffff81111561172a57611729611568565b5b6117368b828c01611685565b985050602089013567ffffffffffffffff81111561175757611756611568565b5b6117638b828c01611685565b975050604089013567ffffffffffffffff81111561178457611783611568565b5b6117908b828c01611685565b96505060606117a18b828c016116d6565b95505060806117b28b828c016116d6565b94505060a06117c38b828c016116d6565b93505060c089013567ffffffffffffffff8111156117e4576117e3611568565b5b6117f08b828c01611685565b92505060e089013567ffffffffffffffff81111561181157611810611568565b5b61181d8b828c01611685565b9150509295985092959890939650565b6000806040838503121561184457611843611563565b5b600083013567ffffffffffffffff81111561186257611861611568565b5b61186e85828601611685565b925050602083013567ffffffffffffffff81111561188f5761188e611568565b5b61189b85828601611685565b9150509250929050565b600080604083850312156118bc576118bb611563565b5b600083013567ffffffffffffffff8111156118da576118d9611568565b5b6118e685828601611685565b92505060206118f7858286016116d6565b9150509250929050565b600081519050919050565b600082825260208201905092915050565b6000819050602082019050919050565b600081519050919050565b600082825260208201905092915050565b60005b8381101561196757808201518184015260208101905061194c565b60008484015250505050565b600061197e8261192d565b6119888185611938565b9350611998818560208601611949565b6119a181611577565b840191505092915050565b6000819050919050565b6119bf816119ac565b82525050565b600060808301600083015184820360008601526119e28282611973565b91505060208301516119f760208601826119b6565b506040830151611a0a60408601826119b6565b506060830151611a1d60608601826119b6565b508091505092915050565b6000611a3483836119c5565b905092915050565b6000602082019050919050565b6000611a5482611901565b611a5e818561190c565b935083602082028501611a708561191d565b8060005b85811015611aac5784840389528151611a8d8582611a28565b9450611a9883611a3c565b925060208a01995050600181019050611a74565b50829750879550505050505092915050565b60006020820190508181036000830152611ad88184611a49565b905092915050565b600081519050919050565b600082825260208201905092915050565b6000819050602082019050919050565b60006040830160008301518482036000860152611b298282611973565b91505060208301518482036020860152611b438282611973565b9150508091505092915050565b6000611b5c8383611b0c565b905092915050565b6000602082019050919050565b6000611b7c82611ae0565b611b868185611aeb565b935083602082028501611b9885611afc565b8060005b85811015611bd45784840389528151611bb58582611b50565b9450611bc083611b64565b925060208a01995050600181019050611b9c565b50829750879550505050505092915050565b60006020820190508181036000830152611c008184611b71565b905092915050565b60008060008060808587031215611c2257611c21611563565b5b600085013567ffffffffffffffff811115611c4057611c3f611568565b5b611c4c87828801611685565b9450506020611c5d878288016116d6565b9350506040611c6e878288016116d6565b9250506060611c7f878288016116d6565b91505092959194509250565b600082825260208201905092915050565b6000611ca78261192d565b611cb18185611c8b565b9350611cc1818560208601611949565b611cca81611577565b840191505092915050565b60006080820190508181036000830152611cef8187611c9c565b90508181036020830152611d038186611c9c565b90508181036040830152611d178185611c9c565b90508181036060830152611d2b8184611c9c565b905095945050505050565b600080600060608486031215611d4f57611d4e611563565b5b600084013567ffffffffffffffff811115611d6d57611d6c611568565b5b611d7986828701611685565b935050602084013567ffffffffffffffff811115611d9a57611d99611568565b5b611da686828701611685565b925050604084013567ffffffffffffffff811115611dc757611dc6611568565b5b611dd386828701611685565b9150509250925092565b611de6816119ac565b8114611df157600080fd5b50565b600081359050611e0381611ddd565b92915050565b600080600080600060a08688031215611e2557611e24611563565b5b600086013567ffffffffffffffff811115611e4357611e42611568565b5b611e4f88828901611685565b955050602086013567ffffffffffffffff811115611e7057611e6f611568565b5b611e7c88828901611685565b9450506040611e8d888289016116d6565b9350506060611e9e888289016116d6565b9250506080611eaf88828901611df4565b9150509295509295909350565b600081519050919050565b600082825260208201905092915050565b6000819050602082019050919050565b611ef1816116b3565b82525050565b600060e0830160008301518482036000860152611f148282611973565b91505060208301518482036020860152611f2e8282611973565b9150506040830151611f436040860182611ee8565b506060830151611f566060860182611ee8565b506080830151611f696080860182611ee8565b5060a083015184820360a0860152611f818282611973565b91505060c083015184820360c0860152611f9b8282611973565b9150508091505092915050565b6000611fb48383611ef7565b905092915050565b6000602082019050919050565b6000611fd482611ebc565b611fde8185611ec7565b935083602082028501611ff085611ed8565b8060005b8581101561202c578484038952815161200d8582611fa8565b945061201883611fbc565b925060208a01995050600181019050611ff4565b50829750879550505050505092915050565b600060208201905081810360008301526120588184611fc9565b905092915050565b600080600080600080600060e0888a03121561207f5761207e611563565b5b600088013567ffffffffffffffff81111561209d5761209c611568565b5b6120a98a828b01611685565b975050602088013567ffffffffffffffff8111156120ca576120c9611568565b5b6120d68a828b01611685565b965050604088013567ffffffffffffffff8111156120f7576120f6611568565b5b6121038a828b01611685565b955050606088013567ffffffffffffffff81111561212457612123611568565b5b6121308a828b01611685565b945050608088013567ffffffffffffffff81111561215157612150611568565b5b61215d8a828b01611685565b93505060a088013567ffffffffffffffff81111561217e5761217d611568565b5b61218a8a828b01611685565b92505060c088013567ffffffffffffffff8111156121ab576121aa611568565b5b6121b78a828b01611685565b91505092959891949750929550565b600080600080600060a086880312156121e2576121e1611563565b5b600086013567ffffffffffffffff811115612200576121ff611568565b5b61220c88828901611685565b955050602086013567ffffffffffffffff81111561222d5761222c611568565b5b61223988828901611685565b945050604061224a88828901611df4565b935050606061225b88828901611df4565b925050608061226c88828901611df4565b9150509295509295909350565b600081519050919050565b600082825260208201905092915050565b6000819050602082019050919050565b600060808301600083015184820360008601526122c28282611973565b91505060208301516122d76020860182611ee8565b5060408301516122ea6040860182611ee8565b5060608301516122fd60608601826119b6565b508091505092915050565b600061231483836122a5565b905092915050565b6000602082019050919050565b600061233482612279565b61233e8185612284565b93508360208202850161235085612295565b8060005b8581101561238c578484038952815161236d8582612308565b94506123788361231c565b925060208a01995050600181019050612354565b50829750879550505050505092915050565b600060208201905081810360008301526123b88184612329565b905092915050565b600081905092915050565b60006123d68261192d565b6123e081856123c0565b93506123f0818560208601611949565b80840191505092915050565b600061240882846123cb565b915081905092915050565b7f4e487b7100000000000000000000000000000000000000000000000000000000600052602260045260246000fd5b6000600282049050600182168061245a57607f821691505b60208210810361246d5761246c612413565b5b50919050565b60008190508160005260206000209050919050565b60006020601f8301049050919050565b600082821b905092915050565b6000600883026124d57fffffffffffffffffffffffffffffffffffffffffffffffffffffffffffffffff82612498565b6124df8683612498565b95508019841693508086168417925050509392505050565b6000819050919050565b600061251c612517612512846119ac565b6124f7565b6119ac565b9050919050565b6000819050919050565b61253683612501565b61254a61254282612523565b8484546124a5565b825550505050565b600090565b61255f612552565b61256a81848461252d565b505050565b5b8181101561258e57612583600082612557565b600181019050612570565b5050565b601f8211156125d3576125a481612473565b6125ad84612488565b810160208510156125bc578190505b6125d06125c885612488565b83018261256f565b50505b505050565b600082821c905092915050565b60006125f6600019846008026125d8565b1980831691505092915050565b600061260f83836125e5565b9150826002028217905092915050565b6126288261192d565b67ffffffffffffffff81111561264157612640611588565b5b61264b8254612442565b612656828285612592565b600060209050601f8311600181146126895760008415612677578287015190505b6126818582612603565b8655506126e9565b601f19841661269786612473565b60005b828110156126bf5784890151825560018201915060208501945060208101905061269a565b868310156126dc57848901516126d8601f8916826125e5565b8355505b6001600288020188555050505b505050505050565b7f4e487b7100000000000000000000000000000000000000000000000000000000600052601160045260246000fd5b600061272b826119ac565b91507fffffffffffffffffffffffffffffffffffffffffffffffffffffffffffffffff820361275d5761275c6126f1565b5b600182019050919050565b7f4e487b7100000000000000000000000000000000000000000000000000000000600052603260045260246000fdfea2646970667358221220feb5dbcf9a2310efcd818ccca81696be848009f9515ec1ec7b1d023169f234a064736f6c63430008120033",
					"opcodes": "PUSH1 0x80 PUSH1 0x40 MSTORE CALLVALUE DUP1 ISZERO PUSH2 0x10 JUMPI PUSH1 0x0 DUP1 REVERT JUMPDEST POP PUSH2 0x27CD DUP1 PUSH2 0x20 PUSH1 0x0 CODECOPY PUSH1 0x0 RETURN INVALID PUSH1 0x80 PUSH1 0x40 MSTORE CALLVALUE DUP1 ISZERO PUSH2 0x10 JUMPI PUSH1 0x0 DUP1 REVERT JUMPDEST POP PUSH1 0x4 CALLDATASIZE LT PUSH2 0xB4 JUMPI PUSH1 0x0 CALLDATALOAD PUSH1 0xE0 SHR DUP1 PUSH4 0x54506048 GT PUSH2 0x71 JUMPI DUP1 PUSH4 0x54506048 EQ PUSH2 0x1A0 JUMPI DUP1 PUSH4 0x6EBFA7D4 EQ PUSH2 0x1BC JUMPI DUP1 PUSH4 0x83162C7A EQ PUSH2 0x1D8 JUMPI DUP1 PUSH4 0x8A11ABA4 EQ PUSH2 0x208 JUMPI DUP1 PUSH4 0xD4638181 EQ PUSH2 0x224 JUMPI DUP1 PUSH4 0xE8FFD737 EQ PUSH2 0x240 JUMPI PUSH2 0xB4 JUMP JUMPDEST DUP1 PUSH4 0x1D76D896 EQ PUSH2 0xB9 JUMPI DUP1 PUSH4 0x26C652D0 EQ PUSH2 0xD5 JUMPI DUP1 PUSH4 0x2D8B006B EQ PUSH2 0xF1 JUMPI DUP1 PUSH4 0x33D9E60C EQ PUSH2 0x121 JUMPI DUP1 PUSH4 0x3F71E30B EQ PUSH2 0x151 JUMPI DUP1 PUSH4 0x515707C8 EQ PUSH2 0x184 JUMPI JUMPDEST PUSH1 0x0 DUP1 REVERT JUMPDEST PUSH2 0xD3 PUSH1 0x4 DUP1 CALLDATASIZE SUB DUP2 ADD SWAP1 PUSH2 0xCE SWAP2 SWAP1 PUSH2 0x16EB JUMP JUMPDEST PUSH2 0x270 JUMP JUMPDEST STOP JUMPDEST PUSH2 0xEF PUSH1 0x4 DUP1 CALLDATASIZE SUB DUP2 ADD SWAP1 PUSH2 0xEA SWAP2 SWAP1 PUSH2 0x182D JUMP JUMPDEST PUSH2 0x3C9 JUMP JUMPDEST STOP JUMPDEST PUSH2 0x10B PUSH1 0x4 DUP1 CALLDATASIZE SUB DUP2 ADD SWAP1 PUSH2 0x106 SWAP2 SWAP1 PUSH2 0x18A5 JUMP JUMPDEST PUSH2 0x428 JUMP JUMPDEST PUSH1 0x40 MLOAD PUSH2 0x118 SWAP2 SWAP1 PUSH2 0x1ABE JUMP JUMPDEST PUSH1 0x40 MLOAD DUP1 SWAP2 SUB SWAP1 RETURN JUMPDEST PUSH2 0x13B PUSH1 0x4 DUP1 CALLDATASIZE SUB DUP2 ADD SWAP1 PUSH2 0x136 SWAP2 SWAP1 PUSH2 0x18A5 JUMP JUMPDEST PUSH2 0x628 JUMP JUMPDEST PUSH1 0x40 MLOAD PUSH2 0x148 SWAP2 SWAP1 PUSH2 0x1BE6 JUMP JUMPDEST PUSH1 0x40 MLOAD DUP1 SWAP2 SUB SWAP1 RETURN JUMPDEST PUSH2 0x16B PUSH1 0x4 DUP1 CALLDATASIZE SUB DUP2 ADD SWAP1 PUSH2 0x166 SWAP2 SWAP1 PUSH2 0x1C08 JUMP JUMPDEST PUSH2 0x89C JUMP JUMPDEST PUSH1 0x40 MLOAD PUSH2 0x17B SWAP5 SWAP4 SWAP3 SWAP2 SWAP1 PUSH2 0x1CD5 JUMP JUMPDEST PUSH1 0x40 MLOAD DUP1 SWAP2 SUB SWAP1 RETURN JUMPDEST PUSH2 0x19E PUSH1 0x4 DUP1 CALLDATASIZE SUB DUP2 ADD SWAP1 PUSH2 0x199 SWAP2 SWAP1 PUSH2 0x182D JUMP JUMPDEST PUSH2 0xB5F JUMP JUMPDEST STOP JUMPDEST PUSH2 0x1BA PUSH1 0x4 DUP1 CALLDATASIZE SUB DUP2 ADD SWAP1 PUSH2 0x1B5 SWAP2 SWAP1 PUSH2 0x1D36 JUMP JUMPDEST PUSH2 0xBBE JUMP JUMPDEST STOP JUMPDEST PUSH2 0x1D6 PUSH1 0x4 DUP1 CALLDATASIZE SUB DUP2 ADD SWAP1 PUSH2 0x1D1 SWAP2 SWAP1 PUSH2 0x1E09 JUMP JUMPDEST PUSH2 0xC62 JUMP JUMPDEST STOP JUMPDEST PUSH2 0x1F2 PUSH1 0x4 DUP1 CALLDATASIZE SUB DUP2 ADD SWAP1 PUSH2 0x1ED SWAP2 SWAP1 PUSH2 0x18A5 JUMP JUMPDEST PUSH2 0xD4C JUMP JUMPDEST PUSH1 0x40 MLOAD PUSH2 0x1FF SWAP2 SWAP1 PUSH2 0x203E JUMP JUMPDEST PUSH1 0x40 MLOAD DUP1 SWAP2 SUB SWAP1 RETURN JUMPDEST PUSH2 0x222 PUSH1 0x4 DUP1 CALLDATASIZE SUB DUP2 ADD SWAP1 PUSH2 0x21D SWAP2 SWAP1 PUSH2 0x2060 JUMP JUMPDEST PUSH2 0x1135 JUMP JUMPDEST STOP JUMPDEST PUSH2 0x23E PUSH1 0x4 DUP1 CALLDATASIZE SUB DUP2 ADD SWAP1 PUSH2 0x239 SWAP2 SWAP1 PUSH2 0x21C6 JUMP JUMPDEST PUSH2 0x11CC JUMP JUMPDEST STOP JUMPDEST PUSH2 0x25A PUSH1 0x4 DUP1 CALLDATASIZE SUB DUP2 ADD SWAP1 PUSH2 0x255 SWAP2 SWAP1 PUSH2 0x18A5 JUMP JUMPDEST PUSH2 0x1286 JUMP JUMPDEST PUSH1 0x40 MLOAD PUSH2 0x267 SWAP2 SWAP1 PUSH2 0x239E JUMP JUMPDEST PUSH1 0x40 MLOAD DUP1 SWAP2 SUB SWAP1 RETURN JUMPDEST PUSH1 0x0 DUP1 DUP10 PUSH1 0x40 MLOAD PUSH2 0x281 SWAP2 SWAP1 PUSH2 0x23FC JUMP JUMPDEST SWAP1 DUP2 MSTORE PUSH1 0x20 ADD PUSH1 0x40 MLOAD DUP1 SWAP2 SUB SWAP1 KECCAK256 SWAP1 POP PUSH1 0x0 DUP2 PUSH1 0x7 ADD SLOAD SWAP1 POP PUSH1 0x40 MLOAD DUP1 PUSH1 0xE0 ADD PUSH1 0x40 MSTORE DUP1 DUP11 DUP2 MSTORE PUSH1 0x20 ADD DUP10 DUP2 MSTORE PUSH1 0x20 ADD DUP9 ISZERO ISZERO DUP2 MSTORE PUSH1 0x20 ADD DUP8 ISZERO ISZERO DUP2 MSTORE PUSH1 0x20 ADD DUP7 ISZERO ISZERO DUP2 MSTORE PUSH1 0x20 ADD DUP6 DUP2 MSTORE PUSH1 0x20 ADD DUP5 DUP2 MSTORE POP DUP3 PUSH1 0x6 ADD PUSH1 0x0 DUP4 DUP2 MSTORE PUSH1 0x20 ADD SWAP1 DUP2 MSTORE PUSH1 0x20 ADD PUSH1 0x0 KECCAK256 PUSH1 0x0 DUP3 ADD MLOAD DUP2 PUSH1 0x0 ADD SWAP1 DUP2 PUSH2 0x2FD SWAP2 SWAP1 PUSH2 0x261F JUMP JUMPDEST POP PUSH1 0x20 DUP3 ADD MLOAD DUP2 PUSH1 0x1 ADD SWAP1 DUP2 PUSH2 0x313 SWAP2 SWAP1 PUSH2 0x261F JUMP JUMPDEST POP PUSH1 0x40 DUP3 ADD MLOAD DUP2 PUSH1 0x2 ADD PUSH1 0x0 PUSH2 0x100 EXP DUP2 SLOAD DUP2 PUSH1 0xFF MUL NOT AND SWAP1 DUP4 ISZERO ISZERO MUL OR SWAP1 SSTORE POP PUSH1 0x60 DUP3 ADD MLOAD DUP2 PUSH1 0x2 ADD PUSH1 0x1 PUSH2 0x100 EXP DUP2 SLOAD DUP2 PUSH1 0xFF MUL NOT AND SWAP1 DUP4 ISZERO ISZERO MUL OR SWAP1 SSTORE POP PUSH1 0x80 DUP3 ADD MLOAD DUP2 PUSH1 0x2 ADD PUSH1 0x2 PUSH2 0x100 EXP DUP2 SLOAD DUP2 PUSH1 0xFF MUL NOT AND SWAP1 DUP4 ISZERO ISZERO MUL OR SWAP1 SSTORE POP PUSH1 0xA0 DUP3 ADD MLOAD DUP2 PUSH1 0x3 ADD SWAP1 DUP2 PUSH2 0x389 SWAP2 SWAP1 PUSH2 0x261F JUMP JUMPDEST POP PUSH1 0xC0 DUP3 ADD MLOAD DUP2 PUSH1 0x4 ADD SWAP1 DUP2 PUSH2 0x39F SWAP2 SWAP1 PUSH2 0x261F JUMP JUMPDEST POP SWAP1 POP POP DUP2 PUSH1 0x7 ADD PUSH1 0x0 DUP2 SLOAD DUP1 SWAP3 SWAP2 SWAP1 PUSH2 0x3B8 SWAP1 PUSH2 0x2720 JUMP JUMPDEST SWAP2 SWAP1 POP SSTORE POP POP POP POP POP POP POP POP POP POP POP JUMP JUMPDEST PUSH1 0x0 DUP1 DUP3 PUSH1 0x40 MLOAD PUSH2 0x3DA SWAP2 SWAP1 PUSH2 0x23FC JUMP JUMPDEST SWAP1 DUP2 MSTORE PUSH1 0x20 ADD PUSH1 0x40 MLOAD DUP1 SWAP2 SUB SWAP1 KECCAK256 SWAP1 POP PUSH1 0x1 DUP2 PUSH1 0xE ADD DUP5 PUSH1 0x40 MLOAD PUSH2 0x3FE SWAP2 SWAP1 PUSH2 0x23FC JUMP JUMPDEST SWAP1 DUP2 MSTORE PUSH1 0x20 ADD PUSH1 0x40 MLOAD DUP1 SWAP2 SUB SWAP1 KECCAK256 PUSH1 0x0 PUSH2 0x100 EXP DUP2 SLOAD DUP2 PUSH1 0xFF MUL NOT AND SWAP1 DUP4 ISZERO ISZERO MUL OR SWAP1 SSTORE POP POP POP POP JUMP JUMPDEST PUSH1 0x60 DUP2 ISZERO PUSH2 0x5CA JUMPI PUSH1 0x0 DUP1 DUP5 PUSH1 0x40 MLOAD PUSH2 0x441 SWAP2 SWAP1 PUSH2 0x23FC JUMP JUMPDEST SWAP1 DUP2 MSTORE PUSH1 0x20 ADD PUSH1 0x40 MLOAD DUP1 SWAP2 SUB SWAP1 KECCAK256 SWAP1 POP PUSH1 0x0 DUP2 PUSH1 0x9 ADD SLOAD SWAP1 POP PUSH1 0x0 DUP2 PUSH8 0xFFFFFFFFFFFFFFFF DUP2 GT ISZERO PUSH2 0x476 JUMPI PUSH2 0x475 PUSH2 0x1588 JUMP JUMPDEST JUMPDEST PUSH1 0x40 MLOAD SWAP1 DUP1 DUP3 MSTORE DUP1 PUSH1 0x20 MUL PUSH1 0x20 ADD DUP3 ADD PUSH1 0x40 MSTORE DUP1 ISZERO PUSH2 0x4AF JUMPI DUP2 PUSH1 0x20 ADD JUMPDEST PUSH2 0x49C PUSH2 0x14A8 JUMP JUMPDEST DUP2 MSTORE PUSH1 0x20 ADD SWAP1 PUSH1 0x1 SWAP1 SUB SWAP1 DUP2 PUSH2 0x494 JUMPI SWAP1 POP JUMPDEST POP SWAP1 POP PUSH1 0x0 JUMPDEST DUP3 DUP2 LT ISZERO PUSH2 0x5BE JUMPI DUP4 PUSH1 0x8 ADD PUSH1 0x0 DUP3 DUP2 MSTORE PUSH1 0x20 ADD SWAP1 DUP2 MSTORE PUSH1 0x20 ADD PUSH1 0x0 KECCAK256 PUSH1 0x40 MLOAD DUP1 PUSH1 0x80 ADD PUSH1 0x40 MSTORE SWAP1 DUP2 PUSH1 0x0 DUP3 ADD DUP1 SLOAD PUSH2 0x4ED SWAP1 PUSH2 0x2442 JUMP JUMPDEST DUP1 PUSH1 0x1F ADD PUSH1 0x20 DUP1 SWAP2 DIV MUL PUSH1 0x20 ADD PUSH1 0x40 MLOAD SWAP1 DUP2 ADD PUSH1 0x40 MSTORE DUP1 SWAP3 SWAP2 SWAP1 DUP2 DUP2 MSTORE PUSH1 0x20 ADD DUP3 DUP1 SLOAD PUSH2 0x519 SWAP1 PUSH2 0x2442 JUMP JUMPDEST DUP1 ISZERO PUSH2 0x566 JUMPI DUP1 PUSH1 0x1F LT PUSH2 0x53B JUMPI PUSH2 0x100 DUP1 DUP4 SLOAD DIV MUL DUP4 MSTORE SWAP2 PUSH1 0x20 ADD SWAP2 PUSH2 0x566 JUMP JUMPDEST DUP3 ADD SWAP2 SWAP1 PUSH1 0x0 MSTORE PUSH1 0x20 PUSH1 0x0 KECCAK256 SWAP1 JUMPDEST DUP2 SLOAD DUP2 MSTORE SWAP1 PUSH1 0x1 ADD SWAP1 PUSH1 0x20 ADD DUP1 DUP4 GT PUSH2 0x549 JUMPI DUP3 SWAP1 SUB PUSH1 0x1F AND DUP3 ADD SWAP2 JUMPDEST POP POP POP POP POP DUP2 MSTORE PUSH1 0x20 ADD PUSH1 0x1 DUP3 ADD SLOAD DUP2 MSTORE PUSH1 0x20 ADD PUSH1 0x2 DUP3 ADD SLOAD DUP2 MSTORE PUSH1 0x20 ADD PUSH1 0x3 DUP3 ADD SLOAD DUP2 MSTORE POP POP DUP3 DUP3 DUP2 MLOAD DUP2 LT PUSH2 0x5A0 JUMPI PUSH2 0x59F PUSH2 0x2768 JUMP JUMPDEST JUMPDEST PUSH1 0x20 MUL PUSH1 0x20 ADD ADD DUP2 SWAP1 MSTORE POP DUP1 DUP1 PUSH2 0x5B6 SWAP1 PUSH2 0x2720 JUMP JUMPDEST SWAP2 POP POP PUSH2 0x4B5 JUMP JUMPDEST POP DUP1 SWAP4 POP POP POP POP PUSH2 0x622 JUMP JUMPDEST PUSH1 0x0 PUSH8 0xFFFFFFFFFFFFFFFF DUP2 GT ISZERO PUSH2 0x5E5 JUMPI PUSH2 0x5E4 PUSH2 0x1588 JUMP JUMPDEST JUMPDEST PUSH1 0x40 MLOAD SWAP1 DUP1 DUP3 MSTORE DUP1 PUSH1 0x20 MUL PUSH1 0x20 ADD DUP3 ADD PUSH1 0x40 MSTORE DUP1 ISZERO PUSH2 0x61E JUMPI DUP2 PUSH1 0x20 ADD JUMPDEST PUSH2 0x60B PUSH2 0x14A8 JUMP JUMPDEST DUP2 MSTORE PUSH1 0x20 ADD SWAP1 PUSH1 0x1 SWAP1 SUB SWAP1 DUP2 PUSH2 0x603 JUMPI SWAP1 POP JUMPDEST POP SWAP1 POP JUMPDEST SWAP3 SWAP2 POP POP JUMP JUMPDEST PUSH1 0x60 DUP2 ISZERO PUSH2 0x83E JUMPI PUSH1 0x0 DUP1 DUP5 PUSH1 0x40 MLOAD PUSH2 0x641 SWAP2 SWAP1 PUSH2 0x23FC JUMP JUMPDEST SWAP1 DUP2 MSTORE PUSH1 0x20 ADD PUSH1 0x40 MLOAD DUP1 SWAP2 SUB SWAP1 KECCAK256 SWAP1 POP PUSH1 0x0 DUP2 PUSH1 0xD ADD SLOAD SWAP1 POP PUSH1 0x0 DUP2 PUSH8 0xFFFFFFFFFFFFFFFF DUP2 GT ISZERO PUSH2 0x676 JUMPI PUSH2 0x675 PUSH2 0x1588 JUMP JUMPDEST JUMPDEST PUSH1 0x40 MLOAD SWAP1 DUP1 DUP3 MSTORE DUP1 PUSH1 0x20 MUL PUSH1 0x20 ADD DUP3 ADD PUSH1 0x40 MSTORE DUP1 ISZERO PUSH2 0x6AF JUMPI DUP2 PUSH1 0x20 ADD JUMPDEST PUSH2 0x69C PUSH2 0x14D0 JUMP JUMPDEST DUP2 MSTORE PUSH1 0x20 ADD SWAP1 PUSH1 0x1 SWAP1 SUB SWAP1 DUP2 PUSH2 0x694 JUMPI SWAP1 POP JUMPDEST POP SWAP1 POP PUSH1 0x0 JUMPDEST DUP3 DUP2 LT ISZERO PUSH2 0x832 JUMPI DUP4 PUSH1 0xC ADD PUSH1 0x0 DUP3 DUP2 MSTORE PUSH1 0x20 ADD SWAP1 DUP2 MSTORE PUSH1 0x20 ADD PUSH1 0x0 KECCAK256 PUSH1 0x40 MLOAD DUP1 PUSH1 0x40 ADD PUSH1 0x40 MSTORE SWAP1 DUP2 PUSH1 0x0 DUP3 ADD DUP1 SLOAD PUSH2 0x6ED SWAP1 PUSH2 0x2442 JUMP JUMPDEST DUP1 PUSH1 0x1F ADD PUSH1 0x20 DUP1 SWAP2 DIV MUL PUSH1 0x20 ADD PUSH1 0x40 MLOAD SWAP1 DUP2 ADD PUSH1 0x40 MSTORE DUP1 SWAP3 SWAP2 SWAP1 DUP2 DUP2 MSTORE PUSH1 0x20 ADD DUP3 DUP1 SLOAD PUSH2 0x719 SWAP1 PUSH2 0x2442 JUMP JUMPDEST DUP1 ISZERO PUSH2 0x766 JUMPI DUP1 PUSH1 0x1F LT PUSH2 0x73B JUMPI PUSH2 0x100 DUP1 DUP4 SLOAD DIV MUL DUP4 MSTORE SWAP2 PUSH1 0x20 ADD SWAP2 PUSH2 0x766 JUMP JUMPDEST DUP3 ADD SWAP2 SWAP1 PUSH1 0x0 MSTORE PUSH1 0x20 PUSH1 0x0 KECCAK256 SWAP1 JUMPDEST DUP2 SLOAD DUP2 MSTORE SWAP1 PUSH1 0x1 ADD SWAP1 PUSH1 0x20 ADD DUP1 DUP4 GT PUSH2 0x749 JUMPI DUP3 SWAP1 SUB PUSH1 0x1F AND DUP3 ADD SWAP2 JUMPDEST POP POP POP POP POP DUP2 MSTORE PUSH1 0x20 ADD PUSH1 0x1 DUP3 ADD DUP1 SLOAD PUSH2 0x77F SWAP1 PUSH2 0x2442 JUMP JUMPDEST DUP1 PUSH1 0x1F ADD PUSH1 0x20 DUP1 SWAP2 DIV MUL PUSH1 0x20 ADD PUSH1 0x40 MLOAD SWAP1 DUP2 ADD PUSH1 0x40 MSTORE DUP1 SWAP3 SWAP2 SWAP1 DUP2 DUP2 MSTORE PUSH1 0x20 ADD DUP3 DUP1 SLOAD PUSH2 0x7AB SWAP1 PUSH2 0x2442 JUMP JUMPDEST DUP1 ISZERO PUSH2 0x7F8 JUMPI DUP1 PUSH1 0x1F LT PUSH2 0x7CD JUMPI PUSH2 0x100 DUP1 DUP4 SLOAD DIV MUL DUP4 MSTORE SWAP2 PUSH1 0x20 ADD SWAP2 PUSH2 0x7F8 JUMP JUMPDEST DUP3 ADD SWAP2 SWAP1 PUSH1 0x0 MSTORE PUSH1 0x20 PUSH1 0x0 KECCAK256 SWAP1 JUMPDEST DUP2 SLOAD DUP2 MSTORE SWAP1 PUSH1 0x1 ADD SWAP1 PUSH1 0x20 ADD DUP1 DUP4 GT PUSH2 0x7DB JUMPI DUP3 SWAP1 SUB PUSH1 0x1F AND DUP3 ADD SWAP2 JUMPDEST POP POP POP POP POP DUP2 MSTORE POP POP DUP3 DUP3 DUP2 MLOAD DUP2 LT PUSH2 0x814 JUMPI PUSH2 0x813 PUSH2 0x2768 JUMP JUMPDEST JUMPDEST PUSH1 0x20 MUL PUSH1 0x20 ADD ADD DUP2 SWAP1 MSTORE POP DUP1 DUP1 PUSH2 0x82A SWAP1 PUSH2 0x2720 JUMP JUMPDEST SWAP2 POP POP PUSH2 0x6B5 JUMP JUMPDEST POP DUP1 SWAP4 POP POP POP POP PUSH2 0x896 JUMP JUMPDEST PUSH1 0x0 PUSH8 0xFFFFFFFFFFFFFFFF DUP2 GT ISZERO PUSH2 0x859 JUMPI PUSH2 0x858 PUSH2 0x1588 JUMP JUMPDEST JUMPDEST PUSH1 0x40 MLOAD SWAP1 DUP1 DUP3 MSTORE DUP1 PUSH1 0x20 MUL PUSH1 0x20 ADD DUP3 ADD PUSH1 0x40 MSTORE DUP1 ISZERO PUSH2 0x892 JUMPI DUP2 PUSH1 0x20 ADD JUMPDEST PUSH2 0x87F PUSH2 0x14D0 JUMP JUMPDEST DUP2 MSTORE PUSH1 0x20 ADD SWAP1 PUSH1 0x1 SWAP1 SUB SWAP1 DUP2 PUSH2 0x877 JUMPI SWAP1 POP JUMPDEST POP SWAP1 POP JUMPDEST SWAP3 SWAP2 POP POP JUMP JUMPDEST PUSH1 0x60 DUP1 PUSH1 0x60 DUP1 PUSH1 0x0 DUP1 DUP10 PUSH1 0x40 MLOAD PUSH2 0x8B3 SWAP2 SWAP1 PUSH2 0x23FC JUMP JUMPDEST SWAP1 DUP2 MSTORE PUSH1 0x20 ADD PUSH1 0x40 MLOAD DUP1 SWAP2 SUB SWAP1 KECCAK256 SWAP1 POP DUP1 PUSH1 0x0 ADD DUP9 PUSH2 0x8E1 JUMPI PUSH1 0x40 MLOAD DUP1 PUSH1 0x20 ADD PUSH1 0x40 MSTORE DUP1 PUSH1 0x0 DUP2 MSTORE POP PUSH2 0x96F JUMP JUMPDEST DUP2 PUSH1 0x4 ADD DUP1 SLOAD PUSH2 0x8F0 SWAP1 PUSH2 0x2442 JUMP JUMPDEST DUP1 PUSH1 0x1F ADD PUSH1 0x20 DUP1 SWAP2 DIV MUL PUSH1 0x20 ADD PUSH1 0x40 MLOAD SWAP1 DUP2 ADD PUSH1 0x40 MSTORE DUP1 SWAP3 SWAP2 SWAP1 DUP2 DUP2 MSTORE PUSH1 0x20 ADD DUP3 DUP1 SLOAD PUSH2 0x91C SWAP1 PUSH2 0x2442 JUMP JUMPDEST DUP1 ISZERO PUSH2 0x969 JUMPI DUP1 PUSH1 0x1F LT PUSH2 0x93E JUMPI PUSH2 0x100 DUP1 DUP4 SLOAD DIV MUL DUP4 MSTORE SWAP2 PUSH1 0x20 ADD SWAP2 PUSH2 0x969 JUMP JUMPDEST DUP3 ADD SWAP2 SWAP1 PUSH1 0x0 MSTORE PUSH1 0x20 PUSH1 0x0 KECCAK256 SWAP1 JUMPDEST DUP2 SLOAD DUP2 MSTORE SWAP1 PUSH1 0x1 ADD SWAP1 PUSH1 0x20 ADD DUP1 DUP4 GT PUSH2 0x94C JUMPI DUP3 SWAP1 SUB PUSH1 0x1F AND DUP3 ADD SWAP2 JUMPDEST POP POP POP POP POP JUMPDEST DUP9 PUSH2 0x989 JUMPI PUSH1 0x40 MLOAD DUP1 PUSH1 0x20 ADD PUSH1 0x40 MSTORE DUP1 PUSH1 0x0 DUP2 MSTORE POP PUSH2 0xA17 JUMP JUMPDEST DUP3 PUSH1 0x5 ADD DUP1 SLOAD PUSH2 0x998 SWAP1 PUSH2 0x2442 JUMP JUMPDEST DUP1 PUSH1 0x1F ADD PUSH1 0x20 DUP1 SWAP2 DIV MUL PUSH1 0x20 ADD PUSH1 0x40 MLOAD SWAP1 DUP2 ADD PUSH1 0x40 MSTORE DUP1 SWAP3 SWAP2 SWAP1 DUP2 DUP2 MSTORE PUSH1 0x20 ADD DUP3 DUP1 SLOAD PUSH2 0x9C4 SWAP1 PUSH2 0x2442 JUMP JUMPDEST DUP1 ISZERO PUSH2 0xA11 JUMPI DUP1 PUSH1 0x1F LT PUSH2 0x9E6 JUMPI PUSH2 0x100 DUP1 DUP4 SLOAD DIV MUL DUP4 MSTORE SWAP2 PUSH1 0x20 ADD SWAP2 PUSH2 0xA11 JUMP JUMPDEST DUP3 ADD SWAP2 SWAP1 PUSH1 0x0 MSTORE PUSH1 0x20 PUSH1 0x0 KECCAK256 SWAP1 JUMPDEST DUP2 SLOAD DUP2 MSTORE SWAP1 PUSH1 0x1 ADD SWAP1 PUSH1 0x20 ADD DUP1 DUP4 GT PUSH2 0x9F4 JUMPI DUP3 SWAP1 SUB PUSH1 0x1F AND DUP3 ADD SWAP2 JUMPDEST POP POP POP POP POP JUMPDEST DUP9 PUSH2 0xA31 JUMPI PUSH1 0x40 MLOAD DUP1 PUSH1 0x20 ADD PUSH1 0x40 MSTORE DUP1 PUSH1 0x0 DUP2 MSTORE POP PUSH2 0xABF JUMP JUMPDEST DUP4 PUSH1 0x3 ADD DUP1 SLOAD PUSH2 0xA40 SWAP1 PUSH2 0x2442 JUMP JUMPDEST DUP1 PUSH1 0x1F ADD PUSH1 0x20 DUP1 SWAP2 DIV MUL PUSH1 0x20 ADD PUSH1 0x40 MLOAD SWAP1 DUP2 ADD PUSH1 0x40 MSTORE DUP1 SWAP3 SWAP2 SWAP1 DUP2 DUP2 MSTORE PUSH1 0x20 ADD DUP3 DUP1 SLOAD PUSH2 0xA6C SWAP1 PUSH2 0x2442 JUMP JUMPDEST DUP1 ISZERO PUSH2 0xAB9 JUMPI DUP1 PUSH1 0x1F LT PUSH2 0xA8E JUMPI PUSH2 0x100 DUP1 DUP4 SLOAD DIV MUL DUP4 MSTORE SWAP2 PUSH1 0x20 ADD SWAP2 PUSH2 0xAB9 JUMP JUMPDEST DUP3 ADD SWAP2 SWAP1 PUSH1 0x0 MSTORE PUSH1 0x20 PUSH1 0x0 KECCAK256 SWAP1 JUMPDEST DUP2 SLOAD DUP2 MSTORE SWAP1 PUSH1 0x1 ADD SWAP1 PUSH1 0x20 ADD DUP1 DUP4 GT PUSH2 0xA9C JUMPI DUP3 SWAP1 SUB PUSH1 0x1F AND DUP3 ADD SWAP2 JUMPDEST POP POP POP POP POP JUMPDEST DUP4 DUP1 SLOAD PUSH2 0xACB SWAP1 PUSH2 0x2442 JUMP JUMPDEST DUP1 PUSH1 0x1F ADD PUSH1 0x20 DUP1 SWAP2 DIV MUL PUSH1 0x20 ADD PUSH1 0x40 MLOAD SWAP1 DUP2 ADD PUSH1 0x40 MSTORE DUP1 SWAP3 SWAP2 SWAP1 DUP2 DUP2 MSTORE PUSH1 0x20 ADD DUP3 DUP1 SLOAD PUSH2 0xAF7 SWAP1 PUSH2 0x2442 JUMP JUMPDEST DUP1 ISZERO PUSH2 0xB44 JUMPI DUP1 PUSH1 0x1F LT PUSH2 0xB19 JUMPI PUSH2 0x100 DUP1 DUP4 SLOAD DIV MUL DUP4 MSTORE SWAP2 PUSH1 0x20 ADD SWAP2 PUSH2 0xB44 JUMP JUMPDEST DUP3 ADD SWAP2 SWAP1 PUSH1 0x0 MSTORE PUSH1 0x20 PUSH1 0x0 KECCAK256 SWAP1 JUMPDEST DUP2 SLOAD DUP2 MSTORE SWAP1 PUSH1 0x1 ADD SWAP1 PUSH1 0x20 ADD DUP1 DUP4 GT PUSH2 0xB27 JUMPI DUP3 SWAP1 SUB PUSH1 0x1F AND DUP3 ADD SWAP2 JUMPDEST POP POP POP POP POP SWAP4 POP SWAP5 POP SWAP5 POP SWAP5 POP SWAP5 POP POP SWAP5 POP SWAP5 POP SWAP5 POP SWAP5 SWAP1 POP JUMP JUMPDEST PUSH1 0x0 DUP1 DUP3 PUSH1 0x40 MLOAD PUSH2 0xB70 SWAP2 SWAP1 PUSH2 0x23FC JUMP JUMPDEST SWAP1 DUP2 MSTORE PUSH1 0x20 ADD PUSH1 0x40 MLOAD DUP1 SWAP2 SUB SWAP1 KECCAK256 SWAP1 POP PUSH1 0x0 DUP2 PUSH1 0xE ADD DUP5 PUSH1 0x40 MLOAD PUSH2 0xB94 SWAP2 SWAP1 PUSH2 0x23FC JUMP JUMPDEST SWAP1 DUP2 MSTORE PUSH1 0x20 ADD PUSH1 0x40 MLOAD DUP1 SWAP2 SUB SWAP1 KECCAK256 PUSH1 0x0 PUSH2 0x100 EXP DUP2 SLOAD DUP2 PUSH1 0xFF MUL NOT AND SWAP1 DUP4 ISZERO ISZERO MUL OR SWAP1 SSTORE POP POP POP POP JUMP JUMPDEST PUSH1 0x0 DUP1 DUP5 PUSH1 0x40 MLOAD PUSH2 0xBCF SWAP2 SWAP1 PUSH2 0x23FC JUMP JUMPDEST SWAP1 DUP2 MSTORE PUSH1 0x20 ADD PUSH1 0x40 MLOAD DUP1 SWAP2 SUB SWAP1 KECCAK256 SWAP1 POP PUSH1 0x0 DUP2 PUSH1 0xD ADD SLOAD SWAP1 POP PUSH1 0x40 MLOAD DUP1 PUSH1 0x40 ADD PUSH1 0x40 MSTORE DUP1 DUP6 DUP2 MSTORE PUSH1 0x20 ADD DUP5 DUP2 MSTORE POP DUP3 PUSH1 0xC ADD PUSH1 0x0 DUP4 DUP2 MSTORE PUSH1 0x20 ADD SWAP1 DUP2 MSTORE PUSH1 0x20 ADD PUSH1 0x0 KECCAK256 PUSH1 0x0 DUP3 ADD MLOAD DUP2 PUSH1 0x0 ADD SWAP1 DUP2 PUSH2 0xC27 SWAP2 SWAP1 PUSH2 0x261F JUMP JUMPDEST POP PUSH1 0x20 DUP3 ADD MLOAD DUP2 PUSH1 0x1 ADD SWAP1 DUP2 PUSH2 0xC3D SWAP2 SWAP1 PUSH2 0x261F JUMP JUMPDEST POP SWAP1 POP POP DUP2 PUSH1 0xD ADD PUSH1 0x0 DUP2 SLOAD DUP1 SWAP3 SWAP2 SWAP1 PUSH2 0xC56 SWAP1 PUSH2 0x2720 JUMP JUMPDEST SWAP2 SWAP1 POP SSTORE POP POP POP POP POP POP JUMP JUMPDEST PUSH1 0x0 DUP1 DUP7 PUSH1 0x40 MLOAD PUSH2 0xC73 SWAP2 SWAP1 PUSH2 0x23FC JUMP JUMPDEST SWAP1 DUP2 MSTORE PUSH1 0x20 ADD PUSH1 0x40 MLOAD DUP1 SWAP2 SUB SWAP1 KECCAK256 SWAP1 POP PUSH1 0x0 DUP2 PUSH1 0xB ADD SLOAD SWAP1 POP PUSH1 0x40 MLOAD DUP1 PUSH1 0x80 ADD PUSH1 0x40 MSTORE DUP1 DUP8 DUP2 MSTORE PUSH1 0x20 ADD DUP7 ISZERO ISZERO DUP2 MSTORE PUSH1 0x20 ADD DUP6 ISZERO ISZERO DUP2 MSTORE PUSH1 0x20 ADD DUP5 DUP2 MSTORE POP DUP3 PUSH1 0xA ADD PUSH1 0x0 DUP4 DUP2 MSTORE PUSH1 0x20 ADD SWAP1 DUP2 MSTORE PUSH1 0x20 ADD PUSH1 0x0 KECCAK256 PUSH1 0x0 DUP3 ADD MLOAD DUP2 PUSH1 0x0 ADD SWAP1 DUP2 PUSH2 0xCDB SWAP2 SWAP1 PUSH2 0x261F JUMP JUMPDEST POP PUSH1 0x20 DUP3 ADD MLOAD DUP2 PUSH1 0x1 ADD PUSH1 0x0 PUSH2 0x100 EXP DUP2 SLOAD DUP2 PUSH1 0xFF MUL NOT AND SWAP1 DUP4 ISZERO ISZERO MUL OR SWAP1 SSTORE POP PUSH1 0x40 DUP3 ADD MLOAD DUP2 PUSH1 0x1 ADD PUSH1 0x1 PUSH2 0x100 EXP DUP2 SLOAD DUP2 PUSH1 0xFF MUL NOT AND SWAP1 DUP4 ISZERO ISZERO MUL OR SWAP1 SSTORE POP PUSH1 0x60 DUP3 ADD MLOAD DUP2 PUSH1 0x2 ADD SSTORE SWAP1 POP POP DUP2 PUSH1 0xB ADD PUSH1 0x0 DUP2 SLOAD DUP1 SWAP3 SWAP2 SWAP1 PUSH2 0xD3E SWAP1 PUSH2 0x2720 JUMP JUMPDEST SWAP2 SWAP1 POP SSTORE POP POP POP POP POP POP POP POP JUMP JUMPDEST PUSH1 0x60 DUP2 ISZERO PUSH2 0x10D7 JUMPI PUSH1 0x0 DUP1 DUP5 PUSH1 0x40 MLOAD PUSH2 0xD65 SWAP2 SWAP1 PUSH2 0x23FC JUMP JUMPDEST SWAP1 DUP2 MSTORE PUSH1 0x20 ADD PUSH1 0x40 MLOAD DUP1 SWAP2 SUB SWAP1 KECCAK256 SWAP1 POP PUSH1 0x0 DUP2 PUSH1 0x7 ADD SLOAD SWAP1 POP PUSH1 0x0 DUP2 PUSH8 0xFFFFFFFFFFFFFFFF DUP2 GT ISZERO PUSH2 0xD9A JUMPI PUSH2 0xD99 PUSH2 0x1588 JUMP JUMPDEST JUMPDEST PUSH1 0x40 MLOAD SWAP1 DUP1 DUP3 MSTORE DUP1 PUSH1 0x20 MUL PUSH1 0x20 ADD DUP3 ADD PUSH1 0x40 MSTORE DUP1 ISZERO PUSH2 0xDD3 JUMPI DUP2 PUSH1 0x20 ADD JUMPDEST PUSH2 0xDC0 PUSH2 0x14EA JUMP JUMPDEST DUP2 MSTORE PUSH1 0x20 ADD SWAP1 PUSH1 0x1 SWAP1 SUB SWAP1 DUP2 PUSH2 0xDB8 JUMPI SWAP1 POP JUMPDEST POP SWAP1 POP PUSH1 0x0 JUMPDEST DUP3 DUP2 LT ISZERO PUSH2 0x10CB JUMPI DUP4 PUSH1 0x6 ADD PUSH1 0x0 DUP3 DUP2 MSTORE PUSH1 0x20 ADD SWAP1 DUP2 MSTORE PUSH1 0x20 ADD PUSH1 0x0 KECCAK256 PUSH1 0x40 MLOAD DUP1 PUSH1 0xE0 ADD PUSH1 0x40 MSTORE SWAP1 DUP2 PUSH1 0x0 DUP3 ADD DUP1 SLOAD PUSH2 0xE11 SWAP1 PUSH2 0x2442 JUMP JUMPDEST DUP1 PUSH1 0x1F ADD PUSH1 0x20 DUP1 SWAP2 DIV MUL PUSH1 0x20 ADD PUSH1 0x40 MLOAD SWAP1 DUP2 ADD PUSH1 0x40 MSTORE DUP1 SWAP3 SWAP2 SWAP1 DUP2 DUP2 MSTORE PUSH1 0x20 ADD DUP3 DUP1 SLOAD PUSH2 0xE3D SWAP1 PUSH2 0x2442 JUMP JUMPDEST DUP1 ISZERO PUSH2 0xE8A JUMPI DUP1 PUSH1 0x1F LT PUSH2 0xE5F JUMPI PUSH2 0x100 DUP1 DUP4 SLOAD DIV MUL DUP4 MSTORE SWAP2 PUSH1 0x20 ADD SWAP2 PUSH2 0xE8A JUMP JUMPDEST DUP3 ADD SWAP2 SWAP1 PUSH1 0x0 MSTORE PUSH1 0x20 PUSH1 0x0 KECCAK256 SWAP1 JUMPDEST DUP2 SLOAD DUP2 MSTORE SWAP1 PUSH1 0x1 ADD SWAP1 PUSH1 0x20 ADD DUP1 DUP4 GT PUSH2 0xE6D JUMPI DUP3 SWAP1 SUB PUSH1 0x1F AND DUP3 ADD SWAP2 JUMPDEST POP POP POP POP POP DUP2 MSTORE PUSH1 0x20 ADD PUSH1 0x1 DUP3 ADD DUP1 SLOAD PUSH2 0xEA3 SWAP1 PUSH2 0x2442 JUMP JUMPDEST DUP1 PUSH1 0x1F ADD PUSH1 0x20 DUP1 SWAP2 DIV MUL PUSH1 0x20 ADD PUSH1 0x40 MLOAD SWAP1 DUP2 ADD PUSH1 0x40 MSTORE DUP1 SWAP3 SWAP2 SWAP1 DUP2 DUP2 MSTORE PUSH1 0x20 ADD DUP3 DUP1 SLOAD PUSH2 0xECF SWAP1 PUSH2 0x2442 JUMP JUMPDEST DUP1 ISZERO PUSH2 0xF1C JUMPI DUP1 PUSH1 0x1F LT PUSH2 0xEF1 JUMPI PUSH2 0x100 DUP1 DUP4 SLOAD DIV MUL DUP4 MSTORE SWAP2 PUSH1 0x20 ADD SWAP2 PUSH2 0xF1C JUMP JUMPDEST DUP3 ADD SWAP2 SWAP1 PUSH1 0x0 MSTORE PUSH1 0x20 PUSH1 0x0 KECCAK256 SWAP1 JUMPDEST DUP2 SLOAD DUP2 MSTORE SWAP1 PUSH1 0x1 ADD SWAP1 PUSH1 0x20 ADD DUP1 DUP4 GT PUSH2 0xEFF JUMPI DUP3 SWAP1 SUB PUSH1 0x1F AND DUP3 ADD SWAP2 JUMPDEST POP POP POP POP POP DUP2 MSTORE PUSH1 0x20 ADD PUSH1 0x2 DUP3 ADD PUSH1 0x0 SWAP1 SLOAD SWAP1 PUSH2 0x100 EXP SWAP1 DIV PUSH1 0xFF AND ISZERO ISZERO ISZERO ISZERO DUP2 MSTORE PUSH1 0x20 ADD PUSH1 0x2 DUP3 ADD PUSH1 0x1 SWAP1 SLOAD SWAP1 PUSH2 0x100 EXP SWAP1 DIV PUSH1 0xFF AND ISZERO ISZERO ISZERO ISZERO DUP2 MSTORE PUSH1 0x20 ADD PUSH1 0x2 DUP3 ADD PUSH1 0x2 SWAP1 SLOAD SWAP1 PUSH2 0x100 EXP SWAP1 DIV PUSH1 0xFF AND ISZERO ISZERO ISZERO ISZERO DUP2 MSTORE PUSH1 0x20 ADD PUSH1 0x3 DUP3 ADD DUP1 SLOAD PUSH2 0xF86 SWAP1 PUSH2 0x2442 JUMP JUMPDEST DUP1 PUSH1 0x1F ADD PUSH1 0x20 DUP1 SWAP2 DIV MUL PUSH1 0x20 ADD PUSH1 0x40 MLOAD SWAP1 DUP2 ADD PUSH1 0x40 MSTORE DUP1 SWAP3 SWAP2 SWAP1 DUP2 DUP2 MSTORE PUSH1 0x20 ADD DUP3 DUP1 SLOAD PUSH2 0xFB2 SWAP1 PUSH2 0x2442 JUMP JUMPDEST DUP1 ISZERO PUSH2 0xFFF JUMPI DUP1 PUSH1 0x1F LT PUSH2 0xFD4 JUMPI PUSH2 0x100 DUP1 DUP4 SLOAD DIV MUL DUP4 MSTORE SWAP2 PUSH1 0x20 ADD SWAP2 PUSH2 0xFFF JUMP JUMPDEST DUP3 ADD SWAP2 SWAP1 PUSH1 0x0 MSTORE PUSH1 0x20 PUSH1 0x0 KECCAK256 SWAP1 JUMPDEST DUP2 SLOAD DUP2 MSTORE SWAP1 PUSH1 0x1 ADD SWAP1 PUSH1 0x20 ADD DUP1 DUP4 GT PUSH2 0xFE2 JUMPI DUP3 SWAP1 SUB PUSH1 0x1F AND DUP3 ADD SWAP2 JUMPDEST POP POP POP POP POP DUP2 MSTORE PUSH1 0x20 ADD PUSH1 0x4 DUP3 ADD DUP1 SLOAD PUSH2 0x1018 SWAP1 PUSH2 0x2442 JUMP JUMPDEST DUP1 PUSH1 0x1F ADD PUSH1 0x20 DUP1 SWAP2 DIV MUL PUSH1 0x20 ADD PUSH1 0x40 MLOAD SWAP1 DUP2 ADD PUSH1 0x40 MSTORE DUP1 SWAP3 SWAP2 SWAP1 DUP2 DUP2 MSTORE PUSH1 0x20 ADD DUP3 DUP1 SLOAD PUSH2 0x1044 SWAP1 PUSH2 0x2442 JUMP JUMPDEST DUP1 ISZERO PUSH2 0x1091 JUMPI DUP1 PUSH1 0x1F LT PUSH2 0x1066 JUMPI PUSH2 0x100 DUP1 DUP4 SLOAD DIV MUL DUP4 MSTORE SWAP2 PUSH1 0x20 ADD SWAP2 PUSH2 0x1091 JUMP JUMPDEST DUP3 ADD SWAP2 SWAP1 PUSH1 0x0 MSTORE PUSH1 0x20 PUSH1 0x0 KECCAK256 SWAP1 JUMPDEST DUP2 SLOAD DUP2 MSTORE SWAP1 PUSH1 0x1 ADD SWAP1 PUSH1 0x20 ADD DUP1 DUP4 GT PUSH2 0x1074 JUMPI DUP3 SWAP1 SUB PUSH1 0x1F AND DUP3 ADD SWAP2 JUMPDEST POP POP POP POP POP DUP2 MSTORE POP POP DUP3 DUP3 DUP2 MLOAD DUP2 LT PUSH2 0x10AD JUMPI PUSH2 0x10AC PUSH2 0x2768 JUMP JUMPDEST JUMPDEST PUSH1 0x20 MUL PUSH1 0x20 ADD ADD DUP2 SWAP1 MSTORE POP DUP1 DUP1 PUSH2 0x10C3 SWAP1 PUSH2 0x2720 JUMP JUMPDEST SWAP2 POP POP PUSH2 0xDD9 JUMP JUMPDEST POP DUP1 SWAP4 POP POP POP POP PUSH2 0x112F JUMP JUMPDEST PUSH1 0x0 PUSH8 0xFFFFFFFFFFFFFFFF DUP2 GT ISZERO PUSH2 0x10F2 JUMPI PUSH2 0x10F1 PUSH2 0x1588 JUMP JUMPDEST JUMPDEST PUSH1 0x40 MLOAD SWAP1 DUP1 DUP3 MSTORE DUP1 PUSH1 0x20 MUL PUSH1 0x20 ADD DUP3 ADD PUSH1 0x40 MSTORE DUP1 ISZERO PUSH2 0x112B JUMPI DUP2 PUSH1 0x20 ADD JUMPDEST PUSH2 0x1118 PUSH2 0x14EA JUMP JUMPDEST DUP2 MSTORE PUSH1 0x20 ADD SWAP1 PUSH1 0x1 SWAP1 SUB SWAP1 DUP2 PUSH2 0x1110 JUMPI SWAP1 POP JUMPDEST POP SWAP1 POP JUMPDEST SWAP3 SWAP2 POP POP JUMP JUMPDEST PUSH1 0x0 DUP1 DUP9 PUSH1 0x40 MLOAD PUSH2 0x1146 SWAP2 SWAP1 PUSH2 0x23FC JUMP JUMPDEST SWAP1 DUP2 MSTORE PUSH1 0x20 ADD PUSH1 0x40 MLOAD DUP1 SWAP2 SUB SWAP1 KECCAK256 SWAP1 POP DUP7 DUP2 PUSH1 0x0 ADD SWAP1 DUP2 PUSH2 0x1167 SWAP2 SWAP1 PUSH2 0x261F JUMP JUMPDEST POP DUP6 DUP2 PUSH1 0x1 ADD SWAP1 DUP2 PUSH2 0x1179 SWAP2 SWAP1 PUSH2 0x261F JUMP JUMPDEST POP DUP5 DUP2 PUSH1 0x2 ADD SWAP1 DUP2 PUSH2 0x118B SWAP2 SWAP1 PUSH2 0x261F JUMP JUMPDEST POP DUP3 DUP2 PUSH1 0x5 ADD SWAP1 DUP2 PUSH2 0x119D SWAP2 SWAP1 PUSH2 0x261F JUMP JUMPDEST POP DUP4 DUP2 PUSH1 0x3 ADD SWAP1 DUP2 PUSH2 0x11AF SWAP2 SWAP1 PUSH2 0x261F JUMP JUMPDEST POP DUP2 DUP2 PUSH1 0x4 ADD SWAP1 DUP2 PUSH2 0x11C1 SWAP2 SWAP1 PUSH2 0x261F JUMP JUMPDEST POP POP POP POP POP POP POP POP POP JUMP JUMPDEST PUSH1 0x0 DUP1 DUP7 PUSH1 0x40 MLOAD PUSH2 0x11DD SWAP2 SWAP1 PUSH2 0x23FC JUMP JUMPDEST SWAP1 DUP2 MSTORE PUSH1 0x20 ADD PUSH1 0x40 MLOAD DUP1 SWAP2 SUB SWAP1 KECCAK256 SWAP1 POP PUSH1 0x0 DUP2 PUSH1 0x9 ADD SLOAD SWAP1 POP PUSH1 0x40 MLOAD DUP1 PUSH1 0x80 ADD PUSH1 0x40 MSTORE DUP1 DUP8 DUP2 MSTORE PUSH1 0x20 ADD DUP7 DUP2 MSTORE PUSH1 0x20 ADD DUP6 DUP2 MSTORE PUSH1 0x20 ADD DUP5 DUP2 MSTORE POP DUP3 PUSH1 0x8 ADD PUSH1 0x0 DUP4 DUP2 MSTORE PUSH1 0x20 ADD SWAP1 DUP2 MSTORE PUSH1 0x20 ADD PUSH1 0x0 KECCAK256 PUSH1 0x0 DUP3 ADD MLOAD DUP2 PUSH1 0x0 ADD SWAP1 DUP2 PUSH2 0x1241 SWAP2 SWAP1 PUSH2 0x261F JUMP JUMPDEST POP PUSH1 0x20 DUP3 ADD MLOAD DUP2 PUSH1 0x1 ADD SSTORE PUSH1 0x40 DUP3 ADD MLOAD DUP2 PUSH1 0x2 ADD SSTORE PUSH1 0x60 DUP3 ADD MLOAD DUP2 PUSH1 0x3 ADD SSTORE SWAP1 POP POP DUP2 PUSH1 0x9 ADD PUSH1 0x0 DUP2 SLOAD DUP1 SWAP3 SWAP2 SWAP1 PUSH2 0x1278 SWAP1 PUSH2 0x2720 JUMP JUMPDEST SWAP2 SWAP1 POP SSTORE POP POP POP POP POP POP POP POP JUMP JUMPDEST PUSH1 0x60 DUP2 ISZERO PUSH2 0x144A JUMPI PUSH1 0x0 DUP1 DUP5 PUSH1 0x40 MLOAD PUSH2 0x129F SWAP2 SWAP1 PUSH2 0x23FC JUMP JUMPDEST SWAP1 DUP2 MSTORE PUSH1 0x20 ADD PUSH1 0x40 MLOAD DUP1 SWAP2 SUB SWAP1 KECCAK256 SWAP1 POP PUSH1 0x0 DUP2 PUSH1 0xB ADD SLOAD SWAP1 POP PUSH1 0x0 DUP2 PUSH8 0xFFFFFFFFFFFFFFFF DUP2 GT ISZERO PUSH2 0x12D4 JUMPI PUSH2 0x12D3 PUSH2 0x1588 JUMP JUMPDEST JUMPDEST PUSH1 0x40 MLOAD SWAP1 DUP1 DUP3 MSTORE DUP1 PUSH1 0x20 MUL PUSH1 0x20 ADD DUP3 ADD PUSH1 0x40 MSTORE DUP1 ISZERO PUSH2 0x130D JUMPI DUP2 PUSH1 0x20 ADD JUMPDEST PUSH2 0x12FA PUSH2 0x152D JUMP JUMPDEST DUP2 MSTORE PUSH1 0x20 ADD SWAP1 PUSH1 0x1 SWAP1 SUB SWAP1 DUP2 PUSH2 0x12F2 JUMPI SWAP1 POP JUMPDEST POP SWAP1 POP PUSH1 0x0 JUMPDEST DUP3 DUP2 LT ISZERO PUSH2 0x143E JUMPI DUP4 PUSH1 0xA ADD PUSH1 0x0 DUP3 DUP2 MSTORE PUSH1 0x20 ADD SWAP1 DUP2 MSTORE PUSH1 0x20 ADD PUSH1 0x0 KECCAK256 PUSH1 0x40 MLOAD DUP1 PUSH1 0x80 ADD PUSH1 0x40 MSTORE SWAP1 DUP2 PUSH1 0x0 DUP3 ADD DUP1 SLOAD PUSH2 0x134B SWAP1 PUSH2 0x2442 JUMP JUMPDEST DUP1 PUSH1 0x1F ADD PUSH1 0x20 DUP1 SWAP2 DIV MUL PUSH1 0x20 ADD PUSH1 0x40 MLOAD SWAP1 DUP2 ADD PUSH1 0x40 MSTORE DUP1 SWAP3 SWAP2 SWAP1 DUP2 DUP2 MSTORE PUSH1 0x20 ADD DUP3 DUP1 SLOAD PUSH2 0x1377 SWAP1 PUSH2 0x2442 JUMP JUMPDEST DUP1 ISZERO PUSH2 0x13C4 JUMPI DUP1 PUSH1 0x1F LT PUSH2 0x1399 JUMPI PUSH2 0x100 DUP1 DUP4 SLOAD DIV MUL DUP4 MSTORE SWAP2 PUSH1 0x20 ADD SWAP2 PUSH2 0x13C4 JUMP JUMPDEST DUP3 ADD SWAP2 SWAP1 PUSH1 0x0 MSTORE PUSH1 0x20 PUSH1 0x0 KECCAK256 SWAP1 JUMPDEST DUP2 SLOAD DUP2 MSTORE SWAP1 PUSH1 0x1 ADD SWAP1 PUSH1 0x20 ADD DUP1 DUP4 GT PUSH2 0x13A7 JUMPI DUP3 SWAP1 SUB PUSH1 0x1F AND DUP3 ADD SWAP2 JUMPDEST POP POP POP POP POP DUP2 MSTORE PUSH1 0x20 ADD PUSH1 0x1 DUP3 ADD PUSH1 0x0 SWAP1 SLOAD SWAP1 PUSH2 0x100 EXP SWAP1 DIV PUSH1 0xFF AND ISZERO ISZERO ISZERO ISZERO DUP2 MSTORE PUSH1 0x20 ADD PUSH1 0x1 DUP3 ADD PUSH1 0x1 SWAP1 SLOAD SWAP1 PUSH2 0x100 EXP SWAP1 DIV PUSH1 0xFF AND ISZERO ISZERO ISZERO ISZERO DUP2 MSTORE PUSH1 0x20 ADD PUSH1 0x2 DUP3 ADD SLOAD DUP2 MSTORE POP POP DUP3 DUP3 DUP2 MLOAD DUP2 LT PUSH2 0x1420 JUMPI PUSH2 0x141F PUSH2 0x2768 JUMP JUMPDEST JUMPDEST PUSH1 0x20 MUL PUSH1 0x20 ADD ADD DUP2 SWAP1 MSTORE POP DUP1 DUP1 PUSH2 0x1436 SWAP1 PUSH2 0x2720 JUMP JUMPDEST SWAP2 POP POP PUSH2 0x1313 JUMP JUMPDEST POP DUP1 SWAP4 POP POP POP POP PUSH2 0x14A2 JUMP JUMPDEST PUSH1 0x0 PUSH8 0xFFFFFFFFFFFFFFFF DUP2 GT ISZERO PUSH2 0x1465 JUMPI PUSH2 0x1464 PUSH2 0x1588 JUMP JUMPDEST JUMPDEST PUSH1 0x40 MLOAD SWAP1 DUP1 DUP3 MSTORE DUP1 PUSH1 0x20 MUL PUSH1 0x20 ADD DUP3 ADD PUSH1 0x40 MSTORE DUP1 ISZERO PUSH2 0x149E JUMPI DUP2 PUSH1 0x20 ADD JUMPDEST PUSH2 0x148B PUSH2 0x152D JUMP JUMPDEST DUP2 MSTORE PUSH1 0x20 ADD SWAP1 PUSH1 0x1 SWAP1 SUB SWAP1 DUP2 PUSH2 0x1483 JUMPI SWAP1 POP JUMPDEST POP SWAP1 POP JUMPDEST SWAP3 SWAP2 POP POP JUMP JUMPDEST PUSH1 0x40 MLOAD DUP1 PUSH1 0x80 ADD PUSH1 0x40 MSTORE DUP1 PUSH1 0x60 DUP2 MSTORE PUSH1 0x20 ADD PUSH1 0x0 DUP2 MSTORE PUSH1 0x20 ADD PUSH1 0x0 DUP2 MSTORE PUSH1 0x20 ADD PUSH1 0x0 DUP2 MSTORE POP SWAP1 JUMP JUMPDEST PUSH1 0x40 MLOAD DUP1 PUSH1 0x40 ADD PUSH1 0x40 MSTORE DUP1 PUSH1 0x60 DUP2 MSTORE PUSH1 0x20 ADD PUSH1 0x60 DUP2 MSTORE POP SWAP1 JUMP JUMPDEST PUSH1 0x40 MLOAD DUP1 PUSH1 0xE0 ADD PUSH1 0x40 MSTORE DUP1 PUSH1 0x60 DUP2 MSTORE PUSH1 0x20 ADD PUSH1 0x60 DUP2 MSTORE PUSH1 0x20 ADD PUSH1 0x0 ISZERO ISZERO DUP2 MSTORE PUSH1 0x20 ADD PUSH1 0x0 ISZERO ISZERO DUP2 MSTORE PUSH1 0x20 ADD PUSH1 0x0 ISZERO ISZERO DUP2 MSTORE PUSH1 0x20 ADD PUSH1 0x60 DUP2 MSTORE PUSH1 0x20 ADD PUSH1 0x60 DUP2 MSTORE POP SWAP1 JUMP JUMPDEST PUSH1 0x40 MLOAD DUP1 PUSH1 0x80 ADD PUSH1 0x40 MSTORE DUP1 PUSH1 0x60 DUP2 MSTORE PUSH1 0x20 ADD PUSH1 0x0 ISZERO ISZERO DUP2 MSTORE PUSH1 0x20 ADD PUSH1 0x0 ISZERO ISZERO DUP2 MSTORE PUSH1 0x20 ADD PUSH1 0x0 DUP2 MSTORE POP SWAP1 JUMP JUMPDEST PUSH1 0x0 PUSH1 0x40 MLOAD SWAP1 POP SWAP1 JUMP JUMPDEST PUSH1 0x0 DUP1 REVERT JUMPDEST PUSH1 0x0 DUP1 REVERT JUMPDEST PUSH1 0x0 DUP1 REVERT JUMPDEST PUSH1 0x0 DUP1 REVERT JUMPDEST PUSH1 0x0 PUSH1 0x1F NOT PUSH1 0x1F DUP4 ADD AND SWAP1 POP SWAP2 SWAP1 POP JUMP JUMPDEST PUSH32 0x4E487B7100000000000000000000000000000000000000000000000000000000 PUSH1 0x0 MSTORE PUSH1 0x41 PUSH1 0x4 MSTORE PUSH1 0x24 PUSH1 0x0 REVERT JUMPDEST PUSH2 0x15C0 DUP3 PUSH2 0x1577 JUMP JUMPDEST DUP2 ADD DUP2 DUP2 LT PUSH8 0xFFFFFFFFFFFFFFFF DUP3 GT OR ISZERO PUSH2 0x15DF JUMPI PUSH2 0x15DE PUSH2 0x1588 JUMP JUMPDEST JUMPDEST DUP1 PUSH1 0x40 MSTORE POP POP POP JUMP JUMPDEST PUSH1 0x0 PUSH2 0x15F2 PUSH2 0x1559 JUMP JUMPDEST SWAP1 POP PUSH2 0x15FE DUP3 DUP3 PUSH2 0x15B7 JUMP JUMPDEST SWAP2 SWAP1 POP JUMP JUMPDEST PUSH1 0x0 PUSH8 0xFFFFFFFFFFFFFFFF DUP3 GT ISZERO PUSH2 0x161E JUMPI PUSH2 0x161D PUSH2 0x1588 JUMP JUMPDEST JUMPDEST PUSH2 0x1627 DUP3 PUSH2 0x1577 JUMP JUMPDEST SWAP1 POP PUSH1 0x20 DUP2 ADD SWAP1 POP SWAP2 SWAP1 POP JUMP JUMPDEST DUP3 DUP2 DUP4 CALLDATACOPY PUSH1 0x0 DUP4 DUP4 ADD MSTORE POP POP POP JUMP JUMPDEST PUSH1 0x0 PUSH2 0x1656 PUSH2 0x1651 DUP5 PUSH2 0x1603 JUMP JUMPDEST PUSH2 0x15E8 JUMP JUMPDEST SWAP1 POP DUP3 DUP2 MSTORE PUSH1 0x20 DUP2 ADD DUP5 DUP5 DUP5 ADD GT ISZERO PUSH2 0x1672 JUMPI PUSH2 0x1671 PUSH2 0x1572 JUMP JUMPDEST JUMPDEST PUSH2 0x167D DUP5 DUP3 DUP6 PUSH2 0x1634 JUMP JUMPDEST POP SWAP4 SWAP3 POP POP POP JUMP JUMPDEST PUSH1 0x0 DUP3 PUSH1 0x1F DUP4 ADD SLT PUSH2 0x169A JUMPI PUSH2 0x1699 PUSH2 0x156D JUMP JUMPDEST JUMPDEST DUP2 CALLDATALOAD PUSH2 0x16AA DUP5 DUP3 PUSH1 0x20 DUP7 ADD PUSH2 0x1643 JUMP JUMPDEST SWAP2 POP POP SWAP3 SWAP2 POP POP JUMP JUMPDEST PUSH1 0x0 DUP2 ISZERO ISZERO SWAP1 POP SWAP2 SWAP1 POP JUMP JUMPDEST PUSH2 0x16C8 DUP2 PUSH2 0x16B3 JUMP JUMPDEST DUP2 EQ PUSH2 0x16D3 JUMPI PUSH1 0x0 DUP1 REVERT JUMPDEST POP JUMP JUMPDEST PUSH1 0x0 DUP2 CALLDATALOAD SWAP1 POP PUSH2 0x16E5 DUP2 PUSH2 0x16BF JUMP JUMPDEST SWAP3 SWAP2 POP POP JUMP JUMPDEST PUSH1 0x0 DUP1 PUSH1 0x0 DUP1 PUSH1 0x0 DUP1 PUSH1 0x0 DUP1 PUSH2 0x100 DUP10 DUP12 SUB SLT ISZERO PUSH2 0x170C JUMPI PUSH2 0x170B PUSH2 0x1563 JUMP JUMPDEST JUMPDEST PUSH1 0x0 DUP10 ADD CALLDATALOAD PUSH8 0xFFFFFFFFFFFFFFFF DUP2 GT ISZERO PUSH2 0x172A JUMPI PUSH2 0x1729 PUSH2 0x1568 JUMP JUMPDEST JUMPDEST PUSH2 0x1736 DUP12 DUP3 DUP13 ADD PUSH2 0x1685 JUMP JUMPDEST SWAP9 POP POP PUSH1 0x20 DUP10 ADD CALLDATALOAD PUSH8 0xFFFFFFFFFFFFFFFF DUP2 GT ISZERO PUSH2 0x1757 JUMPI PUSH2 0x1756 PUSH2 0x1568 JUMP JUMPDEST JUMPDEST PUSH2 0x1763 DUP12 DUP3 DUP13 ADD PUSH2 0x1685 JUMP JUMPDEST SWAP8 POP POP PUSH1 0x40 DUP10 ADD CALLDATALOAD PUSH8 0xFFFFFFFFFFFFFFFF DUP2 GT ISZERO PUSH2 0x1784 JUMPI PUSH2 0x1783 PUSH2 0x1568 JUMP JUMPDEST JUMPDEST PUSH2 0x1790 DUP12 DUP3 DUP13 ADD PUSH2 0x1685 JUMP JUMPDEST SWAP7 POP POP PUSH1 0x60 PUSH2 0x17A1 DUP12 DUP3 DUP13 ADD PUSH2 0x16D6 JUMP JUMPDEST SWAP6 POP POP PUSH1 0x80 PUSH2 0x17B2 DUP12 DUP3 DUP13 ADD PUSH2 0x16D6 JUMP JUMPDEST SWAP5 POP POP PUSH1 0xA0 PUSH2 0x17C3 DUP12 DUP3 DUP13 ADD PUSH2 0x16D6 JUMP JUMPDEST SWAP4 POP POP PUSH1 0xC0 DUP10 ADD CALLDATALOAD PUSH8 0xFFFFFFFFFFFFFFFF DUP2 GT ISZERO PUSH2 0x17E4 JUMPI PUSH2 0x17E3 PUSH2 0x1568 JUMP JUMPDEST JUMPDEST PUSH2 0x17F0 DUP12 DUP3 DUP13 ADD PUSH2 0x1685 JUMP JUMPDEST SWAP3 POP POP PUSH1 0xE0 DUP10 ADD CALLDATALOAD PUSH8 0xFFFFFFFFFFFFFFFF DUP2 GT ISZERO PUSH2 0x1811 JUMPI PUSH2 0x1810 PUSH2 0x1568 JUMP JUMPDEST JUMPDEST PUSH2 0x181D DUP12 DUP3 DUP13 ADD PUSH2 0x1685 JUMP JUMPDEST SWAP2 POP POP SWAP3 SWAP6 SWAP9 POP SWAP3 SWAP6 SWAP9 SWAP1 SWAP4 SWAP7 POP JUMP JUMPDEST PUSH1 0x0 DUP1 PUSH1 0x40 DUP4 DUP6 SUB SLT ISZERO PUSH2 0x1844 JUMPI PUSH2 0x1843 PUSH2 0x1563 JUMP JUMPDEST JUMPDEST PUSH1 0x0 DUP4 ADD CALLDATALOAD PUSH8 0xFFFFFFFFFFFFFFFF DUP2 GT ISZERO PUSH2 0x1862 JUMPI PUSH2 0x1861 PUSH2 0x1568 JUMP JUMPDEST JUMPDEST PUSH2 0x186E DUP6 DUP3 DUP7 ADD PUSH2 0x1685 JUMP JUMPDEST SWAP3 POP POP PUSH1 0x20 DUP4 ADD CALLDATALOAD PUSH8 0xFFFFFFFFFFFFFFFF DUP2 GT ISZERO PUSH2 0x188F JUMPI PUSH2 0x188E PUSH2 0x1568 JUMP JUMPDEST JUMPDEST PUSH2 0x189B DUP6 DUP3 DUP7 ADD PUSH2 0x1685 JUMP JUMPDEST SWAP2 POP POP SWAP3 POP SWAP3 SWAP1 POP JUMP JUMPDEST PUSH1 0x0 DUP1 PUSH1 0x40 DUP4 DUP6 SUB SLT ISZERO PUSH2 0x18BC JUMPI PUSH2 0x18BB PUSH2 0x1563 JUMP JUMPDEST JUMPDEST PUSH1 0x0 DUP4 ADD CALLDATALOAD PUSH8 0xFFFFFFFFFFFFFFFF DUP2 GT ISZERO PUSH2 0x18DA JUMPI PUSH2 0x18D9 PUSH2 0x1568 JUMP JUMPDEST JUMPDEST PUSH2 0x18E6 DUP6 DUP3 DUP7 ADD PUSH2 0x1685 JUMP JUMPDEST SWAP3 POP POP PUSH1 0x20 PUSH2 0x18F7 DUP6 DUP3 DUP7 ADD PUSH2 0x16D6 JUMP JUMPDEST SWAP2 POP POP SWAP3 POP SWAP3 SWAP1 POP JUMP JUMPDEST PUSH1 0x0 DUP2 MLOAD SWAP1 POP SWAP2 SWAP1 POP JUMP JUMPDEST PUSH1 0x0 DUP3 DUP3 MSTORE PUSH1 0x20 DUP3 ADD SWAP1 POP SWAP3 SWAP2 POP POP JUMP JUMPDEST PUSH1 0x0 DUP2 SWAP1 POP PUSH1 0x20 DUP3 ADD SWAP1 POP SWAP2 SWAP1 POP JUMP JUMPDEST PUSH1 0x0 DUP2 MLOAD SWAP1 POP SWAP2 SWAP1 POP JUMP JUMPDEST PUSH1 0x0 DUP3 DUP3 MSTORE PUSH1 0x20 DUP3 ADD SWAP1 POP SWAP3 SWAP2 POP POP JUMP JUMPDEST PUSH1 0x0 JUMPDEST DUP4 DUP2 LT ISZERO PUSH2 0x1967 JUMPI DUP1 DUP3 ADD MLOAD DUP2 DUP5 ADD MSTORE PUSH1 0x20 DUP2 ADD SWAP1 POP PUSH2 0x194C JUMP JUMPDEST PUSH1 0x0 DUP5 DUP5 ADD MSTORE POP POP POP POP JUMP JUMPDEST PUSH1 0x0 PUSH2 0x197E DUP3 PUSH2 0x192D JUMP JUMPDEST PUSH2 0x1988 DUP2 DUP6 PUSH2 0x1938 JUMP JUMPDEST SWAP4 POP PUSH2 0x1998 DUP2 DUP6 PUSH1 0x20 DUP7 ADD PUSH2 0x1949 JUMP JUMPDEST PUSH2 0x19A1 DUP2 PUSH2 0x1577 JUMP JUMPDEST DUP5 ADD SWAP2 POP POP SWAP3 SWAP2 POP POP JUMP JUMPDEST PUSH1 0x0 DUP2 SWAP1 POP SWAP2 SWAP1 POP JUMP JUMPDEST PUSH2 0x19BF DUP2 PUSH2 0x19AC JUMP JUMPDEST DUP3 MSTORE POP POP JUMP JUMPDEST PUSH1 0x0 PUSH1 0x80 DUP4 ADD PUSH1 0x0 DUP4 ADD MLOAD DUP5 DUP3 SUB PUSH1 0x0 DUP7 ADD MSTORE PUSH2 0x19E2 DUP3 DUP3 PUSH2 0x1973 JUMP JUMPDEST SWAP2 POP POP PUSH1 0x20 DUP4 ADD MLOAD PUSH2 0x19F7 PUSH1 0x20 DUP7 ADD DUP3 PUSH2 0x19B6 JUMP JUMPDEST POP PUSH1 0x40 DUP4 ADD MLOAD PUSH2 0x1A0A PUSH1 0x40 DUP7 ADD DUP3 PUSH2 0x19B6 JUMP JUMPDEST POP PUSH1 0x60 DUP4 ADD MLOAD PUSH2 0x1A1D PUSH1 0x60 DUP7 ADD DUP3 PUSH2 0x19B6 JUMP JUMPDEST POP DUP1 SWAP2 POP POP SWAP3 SWAP2 POP POP JUMP JUMPDEST PUSH1 0x0 PUSH2 0x1A34 DUP4 DUP4 PUSH2 0x19C5 JUMP JUMPDEST SWAP1 POP SWAP3 SWAP2 POP POP JUMP JUMPDEST PUSH1 0x0 PUSH1 0x20 DUP3 ADD SWAP1 POP SWAP2 SWAP1 POP JUMP JUMPDEST PUSH1 0x0 PUSH2 0x1A54 DUP3 PUSH2 0x1901 JUMP JUMPDEST PUSH2 0x1A5E DUP2 DUP6 PUSH2 0x190C JUMP JUMPDEST SWAP4 POP DUP4 PUSH1 0x20 DUP3 MUL DUP6 ADD PUSH2 0x1A70 DUP6 PUSH2 0x191D JUMP JUMPDEST DUP1 PUSH1 0x0 JUMPDEST DUP6 DUP2 LT ISZERO PUSH2 0x1AAC JUMPI DUP5 DUP5 SUB DUP10 MSTORE DUP2 MLOAD PUSH2 0x1A8D DUP6 DUP3 PUSH2 0x1A28 JUMP JUMPDEST SWAP5 POP PUSH2 0x1A98 DUP4 PUSH2 0x1A3C JUMP JUMPDEST SWAP3 POP PUSH1 0x20 DUP11 ADD SWAP10 POP POP PUSH1 0x1 DUP2 ADD SWAP1 POP PUSH2 0x1A74 JUMP JUMPDEST POP DUP3 SWAP8 POP DUP8 SWAP6 POP POP POP POP POP POP SWAP3 SWAP2 POP POP JUMP JUMPDEST PUSH1 0x0 PUSH1 0x20 DUP3 ADD SWAP1 POP DUP2 DUP2 SUB PUSH1 0x0 DUP4 ADD MSTORE PUSH2 0x1AD8 DUP2 DUP5 PUSH2 0x1A49 JUMP JUMPDEST SWAP1 POP SWAP3 SWAP2 POP POP JUMP JUMPDEST PUSH1 0x0 DUP2 MLOAD SWAP1 POP SWAP2 SWAP1 POP JUMP JUMPDEST PUSH1 0x0 DUP3 DUP3 MSTORE PUSH1 0x20 DUP3 ADD SWAP1 POP SWAP3 SWAP2 POP POP JUMP JUMPDEST PUSH1 0x0 DUP2 SWAP1 POP PUSH1 0x20 DUP3 ADD SWAP1 POP SWAP2 SWAP1 POP JUMP JUMPDEST PUSH1 0x0 PUSH1 0x40 DUP4 ADD PUSH1 0x0 DUP4 ADD MLOAD DUP5 DUP3 SUB PUSH1 0x0 DUP7 ADD MSTORE PUSH2 0x1B29 DUP3 DUP3 PUSH2 0x1973 JUMP JUMPDEST SWAP2 POP POP PUSH1 0x20 DUP4 ADD MLOAD DUP5 DUP3 SUB PUSH1 0x20 DUP7 ADD MSTORE PUSH2 0x1B43 DUP3 DUP3 PUSH2 0x1973 JUMP JUMPDEST SWAP2 POP POP DUP1 SWAP2 POP POP SWAP3 SWAP2 POP POP JUMP JUMPDEST PUSH1 0x0 PUSH2 0x1B5C DUP4 DUP4 PUSH2 0x1B0C JUMP JUMPDEST SWAP1 POP SWAP3 SWAP2 POP POP JUMP JUMPDEST PUSH1 0x0 PUSH1 0x20 DUP3 ADD SWAP1 POP SWAP2 SWAP1 POP JUMP JUMPDEST PUSH1 0x0 PUSH2 0x1B7C DUP3 PUSH2 0x1AE0 JUMP JUMPDEST PUSH2 0x1B86 DUP2 DUP6 PUSH2 0x1AEB JUMP JUMPDEST SWAP4 POP DUP4 PUSH1 0x20 DUP3 MUL DUP6 ADD PUSH2 0x1B98 DUP6 PUSH2 0x1AFC JUMP JUMPDEST DUP1 PUSH1 0x0 JUMPDEST DUP6 DUP2 LT ISZERO PUSH2 0x1BD4 JUMPI DUP5 DUP5 SUB DUP10 MSTORE DUP2 MLOAD PUSH2 0x1BB5 DUP6 DUP3 PUSH2 0x1B50 JUMP JUMPDEST SWAP5 POP PUSH2 0x1BC0 DUP4 PUSH2 0x1B64 JUMP JUMPDEST SWAP3 POP PUSH1 0x20 DUP11 ADD SWAP10 POP POP PUSH1 0x1 DUP2 ADD SWAP1 POP PUSH2 0x1B9C JUMP JUMPDEST POP DUP3 SWAP8 POP DUP8 SWAP6 POP POP POP POP POP POP SWAP3 SWAP2 POP POP JUMP JUMPDEST PUSH1 0x0 PUSH1 0x20 DUP3 ADD SWAP1 POP DUP2 DUP2 SUB PUSH1 0x0 DUP4 ADD MSTORE PUSH2 0x1C00 DUP2 DUP5 PUSH2 0x1B71 JUMP JUMPDEST SWAP1 POP SWAP3 SWAP2 POP POP JUMP JUMPDEST PUSH1 0x0 DUP1 PUSH1 0x0 DUP1 PUSH1 0x80 DUP6 DUP8 SUB SLT ISZERO PUSH2 0x1C22 JUMPI PUSH2 0x1C21 PUSH2 0x1563 JUMP JUMPDEST JUMPDEST PUSH1 0x0 DUP6 ADD CALLDATALOAD PUSH8 0xFFFFFFFFFFFFFFFF DUP2 GT ISZERO PUSH2 0x1C40 JUMPI PUSH2 0x1C3F PUSH2 0x1568 JUMP JUMPDEST JUMPDEST PUSH2 0x1C4C DUP8 DUP3 DUP9 ADD PUSH2 0x1685 JUMP JUMPDEST SWAP5 POP POP PUSH1 0x20 PUSH2 0x1C5D DUP8 DUP3 DUP9 ADD PUSH2 0x16D6 JUMP JUMPDEST SWAP4 POP POP PUSH1 0x40 PUSH2 0x1C6E DUP8 DUP3 DUP9 ADD PUSH2 0x16D6 JUMP JUMPDEST SWAP3 POP POP PUSH1 0x60 PUSH2 0x1C7F DUP8 DUP3 DUP9 ADD PUSH2 0x16D6 JUMP JUMPDEST SWAP2 POP POP SWAP3 SWAP6 SWAP2 SWAP5 POP SWAP3 POP JUMP JUMPDEST PUSH1 0x0 DUP3 DUP3 MSTORE PUSH1 0x20 DUP3 ADD SWAP1 POP SWAP3 SWAP2 POP POP JUMP JUMPDEST PUSH1 0x0 PUSH2 0x1CA7 DUP3 PUSH2 0x192D JUMP JUMPDEST PUSH2 0x1CB1 DUP2 DUP6 PUSH2 0x1C8B JUMP JUMPDEST SWAP4 POP PUSH2 0x1CC1 DUP2 DUP6 PUSH1 0x20 DUP7 ADD PUSH2 0x1949 JUMP JUMPDEST PUSH2 0x1CCA DUP2 PUSH2 0x1577 JUMP JUMPDEST DUP5 ADD SWAP2 POP POP SWAP3 SWAP2 POP POP JUMP JUMPDEST PUSH1 0x0 PUSH1 0x80 DUP3 ADD SWAP1 POP DUP2 DUP2 SUB PUSH1 0x0 DUP4 ADD MSTORE PUSH2 0x1CEF DUP2 DUP8 PUSH2 0x1C9C JUMP JUMPDEST SWAP1 POP DUP2 DUP2 SUB PUSH1 0x20 DUP4 ADD MSTORE PUSH2 0x1D03 DUP2 DUP7 PUSH2 0x1C9C JUMP JUMPDEST SWAP1 POP DUP2 DUP2 SUB PUSH1 0x40 DUP4 ADD MSTORE PUSH2 0x1D17 DUP2 DUP6 PUSH2 0x1C9C JUMP JUMPDEST SWAP1 POP DUP2 DUP2 SUB PUSH1 0x60 DUP4 ADD MSTORE PUSH2 0x1D2B DUP2 DUP5 PUSH2 0x1C9C JUMP JUMPDEST SWAP1 POP SWAP6 SWAP5 POP POP POP POP POP JUMP JUMPDEST PUSH1 0x0 DUP1 PUSH1 0x0 PUSH1 0x60 DUP5 DUP7 SUB SLT ISZERO PUSH2 0x1D4F JUMPI PUSH2 0x1D4E PUSH2 0x1563 JUMP JUMPDEST JUMPDEST PUSH1 0x0 DUP5 ADD CALLDATALOAD PUSH8 0xFFFFFFFFFFFFFFFF DUP2 GT ISZERO PUSH2 0x1D6D JUMPI PUSH2 0x1D6C PUSH2 0x1568 JUMP JUMPDEST JUMPDEST PUSH2 0x1D79 DUP7 DUP3 DUP8 ADD PUSH2 0x1685 JUMP JUMPDEST SWAP4 POP POP PUSH1 0x20 DUP5 ADD CALLDATALOAD PUSH8 0xFFFFFFFFFFFFFFFF DUP2 GT ISZERO PUSH2 0x1D9A JUMPI PUSH2 0x1D99 PUSH2 0x1568 JUMP JUMPDEST JUMPDEST PUSH2 0x1DA6 DUP7 DUP3 DUP8 ADD PUSH2 0x1685 JUMP JUMPDEST SWAP3 POP POP PUSH1 0x40 DUP5 ADD CALLDATALOAD PUSH8 0xFFFFFFFFFFFFFFFF DUP2 GT ISZERO PUSH2 0x1DC7 JUMPI PUSH2 0x1DC6 PUSH2 0x1568 JUMP JUMPDEST JUMPDEST PUSH2 0x1DD3 DUP7 DUP3 DUP8 ADD PUSH2 0x1685 JUMP JUMPDEST SWAP2 POP POP SWAP3 POP SWAP3 POP SWAP3 JUMP JUMPDEST PUSH2 0x1DE6 DUP2 PUSH2 0x19AC JUMP JUMPDEST DUP2 EQ PUSH2 0x1DF1 JUMPI PUSH1 0x0 DUP1 REVERT JUMPDEST POP JUMP JUMPDEST PUSH1 0x0 DUP2 CALLDATALOAD SWAP1 POP PUSH2 0x1E03 DUP2 PUSH2 0x1DDD JUMP JUMPDEST SWAP3 SWAP2 POP POP JUMP JUMPDEST PUSH1 0x0 DUP1 PUSH1 0x0 DUP1 PUSH1 0x0 PUSH1 0xA0 DUP7 DUP9 SUB SLT ISZERO PUSH2 0x1E25 JUMPI PUSH2 0x1E24 PUSH2 0x1563 JUMP JUMPDEST JUMPDEST PUSH1 0x0 DUP7 ADD CALLDATALOAD PUSH8 0xFFFFFFFFFFFFFFFF DUP2 GT ISZERO PUSH2 0x1E43 JUMPI PUSH2 0x1E42 PUSH2 0x1568 JUMP JUMPDEST JUMPDEST PUSH2 0x1E4F DUP9 DUP3 DUP10 ADD PUSH2 0x1685 JUMP JUMPDEST SWAP6 POP POP PUSH1 0x20 DUP7 ADD CALLDATALOAD PUSH8 0xFFFFFFFFFFFFFFFF DUP2 GT ISZERO PUSH2 0x1E70 JUMPI PUSH2 0x1E6F PUSH2 0x1568 JUMP JUMPDEST JUMPDEST PUSH2 0x1E7C DUP9 DUP3 DUP10 ADD PUSH2 0x1685 JUMP JUMPDEST SWAP5 POP POP PUSH1 0x40 PUSH2 0x1E8D DUP9 DUP3 DUP10 ADD PUSH2 0x16D6 JUMP JUMPDEST SWAP4 POP POP PUSH1 0x60 PUSH2 0x1E9E DUP9 DUP3 DUP10 ADD PUSH2 0x16D6 JUMP JUMPDEST SWAP3 POP POP PUSH1 0x80 PUSH2 0x1EAF DUP9 DUP3 DUP10 ADD PUSH2 0x1DF4 JUMP JUMPDEST SWAP2 POP POP SWAP3 SWAP6 POP SWAP3 SWAP6 SWAP1 SWAP4 POP JUMP JUMPDEST PUSH1 0x0 DUP2 MLOAD SWAP1 POP SWAP2 SWAP1 POP JUMP JUMPDEST PUSH1 0x0 DUP3 DUP3 MSTORE PUSH1 0x20 DUP3 ADD SWAP1 POP SWAP3 SWAP2 POP POP JUMP JUMPDEST PUSH1 0x0 DUP2 SWAP1 POP PUSH1 0x20 DUP3 ADD SWAP1 POP SWAP2 SWAP1 POP JUMP JUMPDEST PUSH2 0x1EF1 DUP2 PUSH2 0x16B3 JUMP JUMPDEST DUP3 MSTORE POP POP JUMP JUMPDEST PUSH1 0x0 PUSH1 0xE0 DUP4 ADD PUSH1 0x0 DUP4 ADD MLOAD DUP5 DUP3 SUB PUSH1 0x0 DUP7 ADD MSTORE PUSH2 0x1F14 DUP3 DUP3 PUSH2 0x1973 JUMP JUMPDEST SWAP2 POP POP PUSH1 0x20 DUP4 ADD MLOAD DUP5 DUP3 SUB PUSH1 0x20 DUP7 ADD MSTORE PUSH2 0x1F2E DUP3 DUP3 PUSH2 0x1973 JUMP JUMPDEST SWAP2 POP POP PUSH1 0x40 DUP4 ADD MLOAD PUSH2 0x1F43 PUSH1 0x40 DUP7 ADD DUP3 PUSH2 0x1EE8 JUMP JUMPDEST POP PUSH1 0x60 DUP4 ADD MLOAD PUSH2 0x1F56 PUSH1 0x60 DUP7 ADD DUP3 PUSH2 0x1EE8 JUMP JUMPDEST POP PUSH1 0x80 DUP4 ADD MLOAD PUSH2 0x1F69 PUSH1 0x80 DUP7 ADD DUP3 PUSH2 0x1EE8 JUMP JUMPDEST POP PUSH1 0xA0 DUP4 ADD MLOAD DUP5 DUP3 SUB PUSH1 0xA0 DUP7 ADD MSTORE PUSH2 0x1F81 DUP3 DUP3 PUSH2 0x1973 JUMP JUMPDEST SWAP2 POP POP PUSH1 0xC0 DUP4 ADD MLOAD DUP5 DUP3 SUB PUSH1 0xC0 DUP7 ADD MSTORE PUSH2 0x1F9B DUP3 DUP3 PUSH2 0x1973 JUMP JUMPDEST SWAP2 POP POP DUP1 SWAP2 POP POP SWAP3 SWAP2 POP POP JUMP JUMPDEST PUSH1 0x0 PUSH2 0x1FB4 DUP4 DUP4 PUSH2 0x1EF7 JUMP JUMPDEST SWAP1 POP SWAP3 SWAP2 POP POP JUMP JUMPDEST PUSH1 0x0 PUSH1 0x20 DUP3 ADD SWAP1 POP SWAP2 SWAP1 POP JUMP JUMPDEST PUSH1 0x0 PUSH2 0x1FD4 DUP3 PUSH2 0x1EBC JUMP JUMPDEST PUSH2 0x1FDE DUP2 DUP6 PUSH2 0x1EC7 JUMP JUMPDEST SWAP4 POP DUP4 PUSH1 0x20 DUP3 MUL DUP6 ADD PUSH2 0x1FF0 DUP6 PUSH2 0x1ED8 JUMP JUMPDEST DUP1 PUSH1 0x0 JUMPDEST DUP6 DUP2 LT ISZERO PUSH2 0x202C JUMPI DUP5 DUP5 SUB DUP10 MSTORE DUP2 MLOAD PUSH2 0x200D DUP6 DUP3 PUSH2 0x1FA8 JUMP JUMPDEST SWAP5 POP PUSH2 0x2018 DUP4 PUSH2 0x1FBC JUMP JUMPDEST SWAP3 POP PUSH1 0x20 DUP11 ADD SWAP10 POP POP PUSH1 0x1 DUP2 ADD SWAP1 POP PUSH2 0x1FF4 JUMP JUMPDEST POP DUP3 SWAP8 POP DUP8 SWAP6 POP POP POP POP POP POP SWAP3 SWAP2 POP POP JUMP JUMPDEST PUSH1 0x0 PUSH1 0x20 DUP3 ADD SWAP1 POP DUP2 DUP2 SUB PUSH1 0x0 DUP4 ADD MSTORE PUSH2 0x2058 DUP2 DUP5 PUSH2 0x1FC9 JUMP JUMPDEST SWAP1 POP SWAP3 SWAP2 POP POP JUMP JUMPDEST PUSH1 0x0 DUP1 PUSH1 0x0 DUP1 PUSH1 0x0 DUP1 PUSH1 0x0 PUSH1 0xE0 DUP9 DUP11 SUB SLT ISZERO PUSH2 0x207F JUMPI PUSH2 0x207E PUSH2 0x1563 JUMP JUMPDEST JUMPDEST PUSH1 0x0 DUP9 ADD CALLDATALOAD PUSH8 0xFFFFFFFFFFFFFFFF DUP2 GT ISZERO PUSH2 0x209D JUMPI PUSH2 0x209C PUSH2 0x1568 JUMP JUMPDEST JUMPDEST PUSH2 0x20A9 DUP11 DUP3 DUP12 ADD PUSH2 0x1685 JUMP JUMPDEST SWAP8 POP POP PUSH1 0x20 DUP9 ADD CALLDATALOAD PUSH8 0xFFFFFFFFFFFFFFFF DUP2 GT ISZERO PUSH2 0x20CA JUMPI PUSH2 0x20C9 PUSH2 0x1568 JUMP JUMPDEST JUMPDEST PUSH2 0x20D6 DUP11 DUP3 DUP12 ADD PUSH2 0x1685 JUMP JUMPDEST SWAP7 POP POP PUSH1 0x40 DUP9 ADD CALLDATALOAD PUSH8 0xFFFFFFFFFFFFFFFF DUP2 GT ISZERO PUSH2 0x20F7 JUMPI PUSH2 0x20F6 PUSH2 0x1568 JUMP JUMPDEST JUMPDEST PUSH2 0x2103 DUP11 DUP3 DUP12 ADD PUSH2 0x1685 JUMP JUMPDEST SWAP6 POP POP PUSH1 0x60 DUP9 ADD CALLDATALOAD PUSH8 0xFFFFFFFFFFFFFFFF DUP2 GT ISZERO PUSH2 0x2124 JUMPI PUSH2 0x2123 PUSH2 0x1568 JUMP JUMPDEST JUMPDEST PUSH2 0x2130 DUP11 DUP3 DUP12 ADD PUSH2 0x1685 JUMP JUMPDEST SWAP5 POP POP PUSH1 0x80 DUP9 ADD CALLDATALOAD PUSH8 0xFFFFFFFFFFFFFFFF DUP2 GT ISZERO PUSH2 0x2151 JUMPI PUSH2 0x2150 PUSH2 0x1568 JUMP JUMPDEST JUMPDEST PUSH2 0x215D DUP11 DUP3 DUP12 ADD PUSH2 0x1685 JUMP JUMPDEST SWAP4 POP POP PUSH1 0xA0 DUP9 ADD CALLDATALOAD PUSH8 0xFFFFFFFFFFFFFFFF DUP2 GT ISZERO PUSH2 0x217E JUMPI PUSH2 0x217D PUSH2 0x1568 JUMP JUMPDEST JUMPDEST PUSH2 0x218A DUP11 DUP3 DUP12 ADD PUSH2 0x1685 JUMP JUMPDEST SWAP3 POP POP PUSH1 0xC0 DUP9 ADD CALLDATALOAD PUSH8 0xFFFFFFFFFFFFFFFF DUP2 GT ISZERO PUSH2 0x21AB JUMPI PUSH2 0x21AA PUSH2 0x1568 JUMP JUMPDEST JUMPDEST PUSH2 0x21B7 DUP11 DUP3 DUP12 ADD PUSH2 0x1685 JUMP JUMPDEST SWAP2 POP POP SWAP3 SWAP6 SWAP9 SWAP2 SWAP5 SWAP8 POP SWAP3 SWAP6 POP JUMP JUMPDEST PUSH1 0x0 DUP1 PUSH1 0x0 DUP1 PUSH1 0x0 PUSH1 0xA0 DUP7 DUP9 SUB SLT ISZERO PUSH2 0x21E2 JUMPI PUSH2 0x21E1 PUSH2 0x1563 JUMP JUMPDEST JUMPDEST PUSH1 0x0 DUP7 ADD CALLDATALOAD PUSH8 0xFFFFFFFFFFFFFFFF DUP2 GT ISZERO PUSH2 0x2200 JUMPI PUSH2 0x21FF PUSH2 0x1568 JUMP JUMPDEST JUMPDEST PUSH2 0x220C DUP9 DUP3 DUP10 ADD PUSH2 0x1685 JUMP JUMPDEST SWAP6 POP POP PUSH1 0x20 DUP7 ADD CALLDATALOAD PUSH8 0xFFFFFFFFFFFFFFFF DUP2 GT ISZERO PUSH2 0x222D JUMPI PUSH2 0x222C PUSH2 0x1568 JUMP JUMPDEST JUMPDEST PUSH2 0x2239 DUP9 DUP3 DUP10 ADD PUSH2 0x1685 JUMP JUMPDEST SWAP5 POP POP PUSH1 0x40 PUSH2 0x224A DUP9 DUP3 DUP10 ADD PUSH2 0x1DF4 JUMP JUMPDEST SWAP4 POP POP PUSH1 0x60 PUSH2 0x225B DUP9 DUP3 DUP10 ADD PUSH2 0x1DF4 JUMP JUMPDEST SWAP3 POP POP PUSH1 0x80 PUSH2 0x226C DUP9 DUP3 DUP10 ADD PUSH2 0x1DF4 JUMP JUMPDEST SWAP2 POP POP SWAP3 SWAP6 POP SWAP3 SWAP6 SWAP1 SWAP4 POP JUMP JUMPDEST PUSH1 0x0 DUP2 MLOAD SWAP1 POP SWAP2 SWAP1 POP JUMP JUMPDEST PUSH1 0x0 DUP3 DUP3 MSTORE PUSH1 0x20 DUP3 ADD SWAP1 POP SWAP3 SWAP2 POP POP JUMP JUMPDEST PUSH1 0x0 DUP2 SWAP1 POP PUSH1 0x20 DUP3 ADD SWAP1 POP SWAP2 SWAP1 POP JUMP JUMPDEST PUSH1 0x0 PUSH1 0x80 DUP4 ADD PUSH1 0x0 DUP4 ADD MLOAD DUP5 DUP3 SUB PUSH1 0x0 DUP7 ADD MSTORE PUSH2 0x22C2 DUP3 DUP3 PUSH2 0x1973 JUMP JUMPDEST SWAP2 POP POP PUSH1 0x20 DUP4 ADD MLOAD PUSH2 0x22D7 PUSH1 0x20 DUP7 ADD DUP3 PUSH2 0x1EE8 JUMP JUMPDEST POP PUSH1 0x40 DUP4 ADD MLOAD PUSH2 0x22EA PUSH1 0x40 DUP7 ADD DUP3 PUSH2 0x1EE8 JUMP JUMPDEST POP PUSH1 0x60 DUP4 ADD MLOAD PUSH2 0x22FD PUSH1 0x60 DUP7 ADD DUP3 PUSH2 0x19B6 JUMP JUMPDEST POP DUP1 SWAP2 POP POP SWAP3 SWAP2 POP POP JUMP JUMPDEST PUSH1 0x0 PUSH2 0x2314 DUP4 DUP4 PUSH2 0x22A5 JUMP JUMPDEST SWAP1 POP SWAP3 SWAP2 POP POP JUMP JUMPDEST PUSH1 0x0 PUSH1 0x20 DUP3 ADD SWAP1 POP SWAP2 SWAP1 POP JUMP JUMPDEST PUSH1 0x0 PUSH2 0x2334 DUP3 PUSH2 0x2279 JUMP JUMPDEST PUSH2 0x233E DUP2 DUP6 PUSH2 0x2284 JUMP JUMPDEST SWAP4 POP DUP4 PUSH1 0x20 DUP3 MUL DUP6 ADD PUSH2 0x2350 DUP6 PUSH2 0x2295 JUMP JUMPDEST DUP1 PUSH1 0x0 JUMPDEST DUP6 DUP2 LT ISZERO PUSH2 0x238C JUMPI DUP5 DUP5 SUB DUP10 MSTORE DUP2 MLOAD PUSH2 0x236D DUP6 DUP3 PUSH2 0x2308 JUMP JUMPDEST SWAP5 POP PUSH2 0x2378 DUP4 PUSH2 0x231C JUMP JUMPDEST SWAP3 POP PUSH1 0x20 DUP11 ADD SWAP10 POP POP PUSH1 0x1 DUP2 ADD SWAP1 POP PUSH2 0x2354 JUMP JUMPDEST POP DUP3 SWAP8 POP DUP8 SWAP6 POP POP POP POP POP POP SWAP3 SWAP2 POP POP JUMP JUMPDEST PUSH1 0x0 PUSH1 0x20 DUP3 ADD SWAP1 POP DUP2 DUP2 SUB PUSH1 0x0 DUP4 ADD MSTORE PUSH2 0x23B8 DUP2 DUP5 PUSH2 0x2329 JUMP JUMPDEST SWAP1 POP SWAP3 SWAP2 POP POP JUMP JUMPDEST PUSH1 0x0 DUP2 SWAP1 POP SWAP3 SWAP2 POP POP JUMP JUMPDEST PUSH1 0x0 PUSH2 0x23D6 DUP3 PUSH2 0x192D JUMP JUMPDEST PUSH2 0x23E0 DUP2 DUP6 PUSH2 0x23C0 JUMP JUMPDEST SWAP4 POP PUSH2 0x23F0 DUP2 DUP6 PUSH1 0x20 DUP7 ADD PUSH2 0x1949 JUMP JUMPDEST DUP1 DUP5 ADD SWAP2 POP POP SWAP3 SWAP2 POP POP JUMP JUMPDEST PUSH1 0x0 PUSH2 0x2408 DUP3 DUP5 PUSH2 0x23CB JUMP JUMPDEST SWAP2 POP DUP2 SWAP1 POP SWAP3 SWAP2 POP POP JUMP JUMPDEST PUSH32 0x4E487B7100000000000000000000000000000000000000000000000000000000 PUSH1 0x0 MSTORE PUSH1 0x22 PUSH1 0x4 MSTORE PUSH1 0x24 PUSH1 0x0 REVERT JUMPDEST PUSH1 0x0 PUSH1 0x2 DUP3 DIV SWAP1 POP PUSH1 0x1 DUP3 AND DUP1 PUSH2 0x245A JUMPI PUSH1 0x7F DUP3 AND SWAP2 POP JUMPDEST PUSH1 0x20 DUP3 LT DUP2 SUB PUSH2 0x246D JUMPI PUSH2 0x246C PUSH2 0x2413 JUMP JUMPDEST JUMPDEST POP SWAP2 SWAP1 POP JUMP JUMPDEST PUSH1 0x0 DUP2 SWAP1 POP DUP2 PUSH1 0x0 MSTORE PUSH1 0x20 PUSH1 0x0 KECCAK256 SWAP1 POP SWAP2 SWAP1 POP JUMP JUMPDEST PUSH1 0x0 PUSH1 0x20 PUSH1 0x1F DUP4 ADD DIV SWAP1 POP SWAP2 SWAP1 POP JUMP JUMPDEST PUSH1 0x0 DUP3 DUP3 SHL SWAP1 POP SWAP3 SWAP2 POP POP JUMP JUMPDEST PUSH1 0x0 PUSH1 0x8 DUP4 MUL PUSH2 0x24D5 PUSH32 0xFFFFFFFFFFFFFFFFFFFFFFFFFFFFFFFFFFFFFFFFFFFFFFFFFFFFFFFFFFFFFFFF DUP3 PUSH2 0x2498 JUMP JUMPDEST PUSH2 0x24DF DUP7 DUP4 PUSH2 0x2498 JUMP JUMPDEST SWAP6 POP DUP1 NOT DUP5 AND SWAP4 POP DUP1 DUP7 AND DUP5 OR SWAP3 POP POP POP SWAP4 SWAP3 POP POP POP JUMP JUMPDEST PUSH1 0x0 DUP2 SWAP1 POP SWAP2 SWAP1 POP JUMP JUMPDEST PUSH1 0x0 PUSH2 0x251C PUSH2 0x2517 PUSH2 0x2512 DUP5 PUSH2 0x19AC JUMP JUMPDEST PUSH2 0x24F7 JUMP JUMPDEST PUSH2 0x19AC JUMP JUMPDEST SWAP1 POP SWAP2 SWAP1 POP JUMP JUMPDEST PUSH1 0x0 DUP2 SWAP1 POP SWAP2 SWAP1 POP JUMP JUMPDEST PUSH2 0x2536 DUP4 PUSH2 0x2501 JUMP JUMPDEST PUSH2 0x254A PUSH2 0x2542 DUP3 PUSH2 0x2523 JUMP JUMPDEST DUP5 DUP5 SLOAD PUSH2 0x24A5 JUMP JUMPDEST DUP3 SSTORE POP POP POP POP JUMP JUMPDEST PUSH1 0x0 SWAP1 JUMP JUMPDEST PUSH2 0x255F PUSH2 0x2552 JUMP JUMPDEST PUSH2 0x256A DUP2 DUP5 DUP5 PUSH2 0x252D JUMP JUMPDEST POP POP POP JUMP JUMPDEST JUMPDEST DUP2 DUP2 LT ISZERO PUSH2 0x258E JUMPI PUSH2 0x2583 PUSH1 0x0 DUP3 PUSH2 0x2557 JUMP JUMPDEST PUSH1 0x1 DUP2 ADD SWAP1 POP PUSH2 0x2570 JUMP JUMPDEST POP POP JUMP JUMPDEST PUSH1 0x1F DUP3 GT ISZERO PUSH2 0x25D3 JUMPI PUSH2 0x25A4 DUP2 PUSH2 0x2473 JUMP JUMPDEST PUSH2 0x25AD DUP5 PUSH2 0x2488 JUMP JUMPDEST DUP2 ADD PUSH1 0x20 DUP6 LT ISZERO PUSH2 0x25BC JUMPI DUP2 SWAP1 POP JUMPDEST PUSH2 0x25D0 PUSH2 0x25C8 DUP6 PUSH2 0x2488 JUMP JUMPDEST DUP4 ADD DUP3 PUSH2 0x256F JUMP JUMPDEST POP POP JUMPDEST POP POP POP JUMP JUMPDEST PUSH1 0x0 DUP3 DUP3 SHR SWAP1 POP SWAP3 SWAP2 POP POP JUMP JUMPDEST PUSH1 0x0 PUSH2 0x25F6 PUSH1 0x0 NOT DUP5 PUSH1 0x8 MUL PUSH2 0x25D8 JUMP JUMPDEST NOT DUP1 DUP4 AND SWAP2 POP POP SWAP3 SWAP2 POP POP JUMP JUMPDEST PUSH1 0x0 PUSH2 0x260F DUP4 DUP4 PUSH2 0x25E5 JUMP JUMPDEST SWAP2 POP DUP3 PUSH1 0x2 MUL DUP3 OR SWAP1 POP SWAP3 SWAP2 POP POP JUMP JUMPDEST PUSH2 0x2628 DUP3 PUSH2 0x192D JUMP JUMPDEST PUSH8 0xFFFFFFFFFFFFFFFF DUP2 GT ISZERO PUSH2 0x2641 JUMPI PUSH2 0x2640 PUSH2 0x1588 JUMP JUMPDEST JUMPDEST PUSH2 0x264B DUP3 SLOAD PUSH2 0x2442 JUMP JUMPDEST PUSH2 0x2656 DUP3 DUP3 DUP6 PUSH2 0x2592 JUMP JUMPDEST PUSH1 0x0 PUSH1 0x20 SWAP1 POP PUSH1 0x1F DUP4 GT PUSH1 0x1 DUP2 EQ PUSH2 0x2689 JUMPI PUSH1 0x0 DUP5 ISZERO PUSH2 0x2677 JUMPI DUP3 DUP8 ADD MLOAD SWAP1 POP JUMPDEST PUSH2 0x2681 DUP6 DUP3 PUSH2 0x2603 JUMP JUMPDEST DUP7 SSTORE POP PUSH2 0x26E9 JUMP JUMPDEST PUSH1 0x1F NOT DUP5 AND PUSH2 0x2697 DUP7 PUSH2 0x2473 JUMP JUMPDEST PUSH1 0x0 JUMPDEST DUP3 DUP2 LT ISZERO PUSH2 0x26BF JUMPI DUP5 DUP10 ADD MLOAD DUP3 SSTORE PUSH1 0x1 DUP3 ADD SWAP2 POP PUSH1 0x20 DUP6 ADD SWAP5 POP PUSH1 0x20 DUP2 ADD SWAP1 POP PUSH2 0x269A JUMP JUMPDEST DUP7 DUP4 LT ISZERO PUSH2 0x26DC JUMPI DUP5 DUP10 ADD MLOAD PUSH2 0x26D8 PUSH1 0x1F DUP10 AND DUP3 PUSH2 0x25E5 JUMP JUMPDEST DUP4 SSTORE POP JUMPDEST PUSH1 0x1 PUSH1 0x2 DUP9 MUL ADD DUP9 SSTORE POP POP POP JUMPDEST POP POP POP POP POP POP JUMP JUMPDEST PUSH32 0x4E487B7100000000000000000000000000000000000000000000000000000000 PUSH1 0x0 MSTORE PUSH1 0x11 PUSH1 0x4 MSTORE PUSH1 0x24 PUSH1 0x0 REVERT JUMPDEST PUSH1 0x0 PUSH2 0x272B DUP3 PUSH2 0x19AC JUMP JUMPDEST SWAP2 POP PUSH32 0xFFFFFFFFFFFFFFFFFFFFFFFFFFFFFFFFFFFFFFFFFFFFFFFFFFFFFFFFFFFFFFFF DUP3 SUB PUSH2 0x275D JUMPI PUSH2 0x275C PUSH2 0x26F1 JUMP JUMPDEST JUMPDEST PUSH1 0x1 DUP3 ADD SWAP1 POP SWAP2 SWAP1 POP JUMP JUMPDEST PUSH32 0x4E487B7100000000000000000000000000000000000000000000000000000000 PUSH1 0x0 MSTORE PUSH1 0x32 PUSH1 0x4 MSTORE PUSH1 0x24 PUSH1 0x0 REVERT INVALID LOG2 PUSH5 0x6970667358 0x22 SLT KECCAK256 INVALID 0xB5 0xDB 0xCF SWAP11 0x23 LT 0xEF 0xCD DUP2 DUP13 0xCC 0xA8 AND SWAP7 0xBE DUP5 DUP1 MULMOD 0xF9 MLOAD 0x5E 0xC1 0xEC PUSH28 0x1D023169F234A064736F6C6343000812003300000000000000000000 "
				},
				"gasEstimates": {
					"creation": {
						"codeDepositCost": "2037800",
						"executionCost": "2163",
						"totalCost": "2039963"
					},
					"external": {
						"addPatient(string,string,string,string,string,string,string)": "infinite",
						"authorizeDoctor(string,string)": "infinite",
						"getPatientBloodPressure(string,bool)": "infinite",
						"getPatientInfo(string,bool,bool,bool)": "infinite",
						"getPatientSugar(string,bool)": "infinite",
						"getPatientVaccines(string,bool)": "infinite",
						"getPrescriptions(string,bool)": "infinite",
						"revokeDoctor(string,string)": "infinite",
						"updateBloodPressure(string,string,uint256,uint256,uint256)": "infinite",
						"updatePrescription(string,string,string,bool,bool,bool,string,string)": "infinite",
						"updateSugar(string,string,bool,bool,uint256)": "infinite",
						"updateVaccine(string,string,string)": "infinite"
					}
				},
				"methodIdentifiers": {
					"addPatient(string,string,string,string,string,string,string)": "8a11aba4",
					"authorizeDoctor(string,string)": "26c652d0",
					"getPatientBloodPressure(string,bool)": "2d8b006b",
					"getPatientInfo(string,bool,bool,bool)": "3f71e30b",
					"getPatientSugar(string,bool)": "e8ffd737",
					"getPatientVaccines(string,bool)": "33d9e60c",
					"getPrescriptions(string,bool)": "83162c7a",
					"revokeDoctor(string,string)": "515707c8",
					"updateBloodPressure(string,string,uint256,uint256,uint256)": "d4638181",
					"updatePrescription(string,string,string,bool,bool,bool,string,string)": "1d76d896",
					"updateSugar(string,string,bool,bool,uint256)": "6ebfa7d4",
					"updateVaccine(string,string,string)": "54506048"
				}
			},
			"storageLayout": {
				"storage": [
					{
						"astId": 89,
						"contract": "contracts/_Database6.sol:MedicalRecords",
						"label": "patients",
						"offset": 0,
						"slot": "0",
						"type": "t_mapping(t_string_memory_ptr,t_struct(Patient)66_storage)"
					}
				],
				"types": {
					"t_bool": {
						"encoding": "inplace",
						"label": "bool",
						"numberOfBytes": "1"
					},
					"t_mapping(t_string_memory_ptr,t_bool)": {
						"encoding": "mapping",
						"key": "t_string_memory_ptr",
						"label": "mapping(string => bool)",
						"numberOfBytes": "32",
						"value": "t_bool"
					},
					"t_mapping(t_string_memory_ptr,t_struct(Patient)66_storage)": {
						"encoding": "mapping",
						"key": "t_string_memory_ptr",
						"label": "mapping(string => struct MedicalRecords.Patient)",
						"numberOfBytes": "32",
						"value": "t_struct(Patient)66_storage"
					},
					"t_mapping(t_uint256,t_struct(BloodPressure)75_storage)": {
						"encoding": "mapping",
						"key": "t_uint256",
						"label": "mapping(uint256 => struct MedicalRecords.BloodPressure)",
						"numberOfBytes": "32",
						"value": "t_struct(BloodPressure)75_storage"
					},
					"t_mapping(t_uint256,t_struct(Prescription)21_storage)": {
						"encoding": "mapping",
						"key": "t_uint256",
						"label": "mapping(uint256 => struct MedicalRecords.Prescription)",
						"numberOfBytes": "32",
						"value": "t_struct(Prescription)21_storage"
					},
					"t_mapping(t_uint256,t_struct(Sugar)84_storage)": {
						"encoding": "mapping",
						"key": "t_uint256",
						"label": "mapping(uint256 => struct MedicalRecords.Sugar)",
						"numberOfBytes": "32",
						"value": "t_struct(Sugar)84_storage"
					},
					"t_mapping(t_uint256,t_struct(Vaccine)6_storage)": {
						"encoding": "mapping",
						"key": "t_uint256",
						"label": "mapping(uint256 => struct MedicalRecords.Vaccine)",
						"numberOfBytes": "32",
						"value": "t_struct(Vaccine)6_storage"
					},
					"t_string_memory_ptr": {
						"encoding": "bytes",
						"label": "string",
						"numberOfBytes": "32"
					},
					"t_string_storage": {
						"encoding": "bytes",
						"label": "string",
						"numberOfBytes": "32"
					},
					"t_struct(BloodPressure)75_storage": {
						"encoding": "inplace",
						"label": "struct MedicalRecords.BloodPressure",
						"members": [
							{
								"astId": 68,
								"contract": "contracts/_Database6.sol:MedicalRecords",
								"label": "date",
								"offset": 0,
								"slot": "0",
								"type": "t_string_storage"
							},
							{
								"astId": 70,
								"contract": "contracts/_Database6.sol:MedicalRecords",
								"label": "SP",
								"offset": 0,
								"slot": "1",
								"type": "t_uint256"
							},
							{
								"astId": 72,
								"contract": "contracts/_Database6.sol:MedicalRecords",
								"label": "DP",
								"offset": 0,
								"slot": "2",
								"type": "t_uint256"
							},
							{
								"astId": 74,
								"contract": "contracts/_Database6.sol:MedicalRecords",
								"label": "HB",
								"offset": 0,
								"slot": "3",
								"type": "t_uint256"
							}
						],
						"numberOfBytes": "128"
					},
					"t_struct(Patient)66_storage": {
						"encoding": "inplace",
						"label": "struct MedicalRecords.Patient",
						"members": [
							{
								"astId": 23,
								"contract": "contracts/_Database6.sol:MedicalRecords",
								"label": "name",
								"offset": 0,
								"slot": "0",
								"type": "t_string_storage"
							},
							{
								"astId": 25,
								"contract": "contracts/_Database6.sol:MedicalRecords",
								"label": "DOB",
								"offset": 0,
								"slot": "1",
								"type": "t_string_storage"
							},
							{
								"astId": 27,
								"contract": "contracts/_Database6.sol:MedicalRecords",
								"label": "phoneNo",
								"offset": 0,
								"slot": "2",
								"type": "t_string_storage"
							},
							{
								"astId": 29,
								"contract": "contracts/_Database6.sol:MedicalRecords",
								"label": "specialConditions",
								"offset": 0,
								"slot": "3",
								"type": "t_string_storage"
							},
							{
								"astId": 31,
								"contract": "contracts/_Database6.sol:MedicalRecords",
								"label": "bloodGroup",
								"offset": 0,
								"slot": "4",
								"type": "t_string_storage"
							},
							{
								"astId": 33,
								"contract": "contracts/_Database6.sol:MedicalRecords",
								"label": "allergies",
								"offset": 0,
								"slot": "5",
								"type": "t_string_storage"
							},
							{
								"astId": 38,
								"contract": "contracts/_Database6.sol:MedicalRecords",
								"label": "prescriptions",
								"offset": 0,
								"slot": "6",
								"type": "t_mapping(t_uint256,t_struct(Prescription)21_storage)"
							},
							{
								"astId": 40,
								"contract": "contracts/_Database6.sol:MedicalRecords",
								"label": "prescriptionCount",
								"offset": 0,
								"slot": "7",
								"type": "t_uint256"
							},
							{
								"astId": 45,
								"contract": "contracts/_Database6.sol:MedicalRecords",
								"label": "bloodPressures",
								"offset": 0,
								"slot": "8",
								"type": "t_mapping(t_uint256,t_struct(BloodPressure)75_storage)"
							},
							{
								"astId": 47,
								"contract": "contracts/_Database6.sol:MedicalRecords",
								"label": "bloodPressureCount",
								"offset": 0,
								"slot": "9",
								"type": "t_uint256"
							},
							{
								"astId": 52,
								"contract": "contracts/_Database6.sol:MedicalRecords",
								"label": "sugars",
								"offset": 0,
								"slot": "10",
								"type": "t_mapping(t_uint256,t_struct(Sugar)84_storage)"
							},
							{
								"astId": 54,
								"contract": "contracts/_Database6.sol:MedicalRecords",
								"label": "sugarCount",
								"offset": 0,
								"slot": "11",
								"type": "t_uint256"
							},
							{
								"astId": 59,
								"contract": "contracts/_Database6.sol:MedicalRecords",
								"label": "vaccines",
								"offset": 0,
								"slot": "12",
								"type": "t_mapping(t_uint256,t_struct(Vaccine)6_storage)"
							},
							{
								"astId": 61,
								"contract": "contracts/_Database6.sol:MedicalRecords",
								"label": "vaccineCount",
								"offset": 0,
								"slot": "13",
								"type": "t_uint256"
							},
							{
								"astId": 65,
								"contract": "contracts/_Database6.sol:MedicalRecords",
								"label": "authorizedDoctors",
								"offset": 0,
								"slot": "14",
								"type": "t_mapping(t_string_memory_ptr,t_bool)"
							}
						],
						"numberOfBytes": "480"
					},
					"t_struct(Prescription)21_storage": {
						"encoding": "inplace",
						"label": "struct MedicalRecords.Prescription",
						"members": [
							{
								"astId": 8,
								"contract": "contracts/_Database6.sol:MedicalRecords",
								"label": "date",
								"offset": 0,
								"slot": "0",
								"type": "t_string_storage"
							},
							{
								"astId": 10,
								"contract": "contracts/_Database6.sol:MedicalRecords",
								"label": "doctorName",
								"offset": 0,
								"slot": "1",
								"type": "t_string_storage"
							},
							{
								"astId": 12,
								"contract": "contracts/_Database6.sol:MedicalRecords",
								"label": "morning",
								"offset": 0,
								"slot": "2",
								"type": "t_bool"
							},
							{
								"astId": 14,
								"contract": "contracts/_Database6.sol:MedicalRecords",
								"label": "afternoon",
								"offset": 1,
								"slot": "2",
								"type": "t_bool"
							},
							{
								"astId": 16,
								"contract": "contracts/_Database6.sol:MedicalRecords",
								"label": "evening",
								"offset": 2,
								"slot": "2",
								"type": "t_bool"
							},
							{
								"astId": 18,
								"contract": "contracts/_Database6.sol:MedicalRecords",
								"label": "name",
								"offset": 0,
								"slot": "3",
								"type": "t_string_storage"
							},
							{
								"astId": 20,
								"contract": "contracts/_Database6.sol:MedicalRecords",
								"label": "description",
								"offset": 0,
								"slot": "4",
								"type": "t_string_storage"
							}
						],
						"numberOfBytes": "160"
					},
					"t_struct(Sugar)84_storage": {
						"encoding": "inplace",
						"label": "struct MedicalRecords.Sugar",
						"members": [
							{
								"astId": 77,
								"contract": "contracts/_Database6.sol:MedicalRecords",
								"label": "date",
								"offset": 0,
								"slot": "0",
								"type": "t_string_storage"
							},
							{
								"astId": 79,
								"contract": "contracts/_Database6.sol:MedicalRecords",
								"label": "fasting",
								"offset": 0,
								"slot": "1",
								"type": "t_bool"
							},
							{
								"astId": 81,
								"contract": "contracts/_Database6.sol:MedicalRecords",
								"label": "afterMeal",
								"offset": 1,
								"slot": "1",
								"type": "t_bool"
							},
							{
								"astId": 83,
								"contract": "contracts/_Database6.sol:MedicalRecords",
								"label": "level",
								"offset": 0,
								"slot": "2",
								"type": "t_uint256"
							}
						],
						"numberOfBytes": "96"
					},
					"t_struct(Vaccine)6_storage": {
						"encoding": "inplace",
						"label": "struct MedicalRecords.Vaccine",
						"members": [
							{
								"astId": 3,
								"contract": "contracts/_Database6.sol:MedicalRecords",
								"label": "name",
								"offset": 0,
								"slot": "0",
								"type": "t_string_storage"
							},
							{
								"astId": 5,
								"contract": "contracts/_Database6.sol:MedicalRecords",
								"label": "date",
								"offset": 0,
								"slot": "1",
								"type": "t_string_storage"
							}
						],
						"numberOfBytes": "64"
					},
					"t_uint256": {
						"encoding": "inplace",
						"label": "uint256",
						"numberOfBytes": "32"
					}
				}
			},
			"userdoc": {
				"kind": "user",
				"methods": {},
				"version": 1
			}
		}
	}
}