{
	"contracts/_Database5.sol": {
		"MedicalRecords": {
			"abi": [
				{
					"inputs": [],
					"stateMutability": "nonpayable",
					"type": "constructor"
				},
				{
					"inputs": [
						{
							"internalType": "string",
							"name": "_id",
							"type": "string"
						},
						{
							"internalType": "string",
							"name": "_name",
							"type": "string"
						},
						{
							"internalType": "string",
							"name": "_DOB",
							"type": "string"
						},
						{
							"internalType": "string",
							"name": "_phoneNo",
							"type": "string"
						},
						{
							"internalType": "string",
							"name": "_specialConditions",
							"type": "string"
						},
						{
							"internalType": "string",
							"name": "_bloodGroup",
							"type": "string"
						}
					],
					"name": "addPatient",
					"outputs": [],
					"stateMutability": "nonpayable",
					"type": "function"
				},
				{
					"inputs": [
						{
							"internalType": "address",
							"name": "_doctor",
							"type": "address"
						}
					],
					"name": "authorizeDoctor",
					"outputs": [],
					"stateMutability": "nonpayable",
					"type": "function"
				},
				{
					"inputs": [
						{
							"internalType": "string",
							"name": "_p_id",
							"type": "string"
						}
					],
					"name": "getAllergies",
					"outputs": [
						{
							"components": [
								{
									"internalType": "string[]",
									"name": "food",
									"type": "string[]"
								},
								{
									"internalType": "string[]",
									"name": "medicines",
									"type": "string[]"
								},
								{
									"internalType": "string[]",
									"name": "others",
									"type": "string[]"
								}
							],
							"internalType": "struct MedicalRecords.Allergies",
							"name": "",
							"type": "tuple"
						}
					],
					"stateMutability": "view",
					"type": "function"
				},
				{
					"inputs": [
						{
							"internalType": "string",
							"name": "_p_id",
							"type": "string"
						}
					],
					"name": "getPatientBloodPressure",
					"outputs": [
						{
							"components": [
								{
									"internalType": "string",
									"name": "date",
									"type": "string"
								},
								{
									"internalType": "uint256",
									"name": "SP",
									"type": "uint256"
								},
								{
									"internalType": "uint256",
									"name": "DP",
									"type": "uint256"
								},
								{
									"internalType": "uint256",
									"name": "HB",
									"type": "uint256"
								}
							],
							"internalType": "struct MedicalRecords.BloodPressure[]",
							"name": "",
							"type": "tuple[]"
						}
					],
					"stateMutability": "view",
					"type": "function"
				},
				{
					"inputs": [
						{
							"internalType": "string",
							"name": "_p_id",
							"type": "string"
						},
						{
							"internalType": "bool",
							"name": "_bloodGroup",
							"type": "bool"
						},
						{
							"internalType": "bool",
							"name": "_specialConditions",
							"type": "bool"
						}
					],
					"name": "getPatientInfo",
					"outputs": [
						{
							"internalType": "string",
							"name": "",
							"type": "string"
						},
						{
							"internalType": "string",
							"name": "",
							"type": "string"
						},
						{
							"internalType": "string",
							"name": "",
							"type": "string"
						}
					],
					"stateMutability": "view",
					"type": "function"
				},
				{
					"inputs": [
						{
							"internalType": "string",
							"name": "_p_id",
							"type": "string"
						}
					],
					"name": "getPatientSugar",
					"outputs": [
						{
							"components": [
								{
									"internalType": "string",
									"name": "date",
									"type": "string"
								},
								{
									"internalType": "bool",
									"name": "fasting",
									"type": "bool"
								},
								{
									"internalType": "bool",
									"name": "afterMeal",
									"type": "bool"
								},
								{
									"internalType": "uint256",
									"name": "level",
									"type": "uint256"
								}
							],
							"internalType": "struct MedicalRecords.Sugar[]",
							"name": "",
							"type": "tuple[]"
						}
					],
					"stateMutability": "view",
					"type": "function"
				},
				{
					"inputs": [
						{
							"internalType": "string",
							"name": "_p_id",
							"type": "string"
						}
					],
					"name": "getPatientVaccines",
					"outputs": [
						{
							"components": [
								{
									"internalType": "string",
									"name": "name",
									"type": "string"
								},
								{
									"internalType": "string",
									"name": "date",
									"type": "string"
								}
							],
							"internalType": "struct MedicalRecords.Vaccine[]",
							"name": "",
							"type": "tuple[]"
						}
					],
					"stateMutability": "view",
					"type": "function"
				},
				{
					"inputs": [
						{
							"internalType": "string",
							"name": "_p_id",
							"type": "string"
						}
					],
					"name": "getPrescriptions",
					"outputs": [
						{
							"components": [
								{
									"internalType": "string",
									"name": "date",
									"type": "string"
								},
								{
									"internalType": "string",
									"name": "doctorName",
									"type": "string"
								},
								{
									"internalType": "bool",
									"name": "morning",
									"type": "bool"
								},
								{
									"internalType": "bool",
									"name": "afternoon",
									"type": "bool"
								},
								{
									"internalType": "bool",
									"name": "evening",
									"type": "bool"
								},
								{
									"internalType": "string",
									"name": "name",
									"type": "string"
								},
								{
									"internalType": "string",
									"name": "description",
									"type": "string"
								}
							],
							"internalType": "struct MedicalRecords.Prescription[]",
							"name": "",
							"type": "tuple[]"
						}
					],
					"stateMutability": "view",
					"type": "function"
				},
				{
					"inputs": [
						{
							"internalType": "address",
							"name": "_doctor",
							"type": "address"
						}
					],
					"name": "revokeDoctor",
					"outputs": [],
					"stateMutability": "nonpayable",
					"type": "function"
				},
				{
					"inputs": [
						{
							"internalType": "string",
							"name": "_p_id",
							"type": "string"
						},
						{
							"internalType": "string[]",
							"name": "_food",
							"type": "string[]"
						},
						{
							"internalType": "string[]",
							"name": "_medicines",
							"type": "string[]"
						},
						{
							"internalType": "string[]",
							"name": "_others",
							"type": "string[]"
						}
					],
					"name": "updateAllergies",
					"outputs": [],
					"stateMutability": "nonpayable",
					"type": "function"
				},
				{
					"inputs": [
						{
							"internalType": "string",
							"name": "_p_id",
							"type": "string"
						},
						{
							"internalType": "string",
							"name": "_date",
							"type": "string"
						},
						{
							"internalType": "uint256",
							"name": "_SP",
							"type": "uint256"
						},
						{
							"internalType": "uint256",
							"name": "_DP",
							"type": "uint256"
						},
						{
							"internalType": "uint256",
							"name": "_HB",
							"type": "uint256"
						}
					],
					"name": "updateBloodPressure",
					"outputs": [],
					"stateMutability": "nonpayable",
					"type": "function"
				},
				{
					"inputs": [
						{
							"internalType": "string",
							"name": "_p_id",
							"type": "string"
						},
						{
							"internalType": "string",
							"name": "_date",
							"type": "string"
						},
						{
							"internalType": "string",
							"name": "_doctorName",
							"type": "string"
						},
						{
							"internalType": "bool",
							"name": "_morning",
							"type": "bool"
						},
						{
							"internalType": "bool",
							"name": "_afternoon",
							"type": "bool"
						},
						{
							"internalType": "bool",
							"name": "_evening",
							"type": "bool"
						},
						{
							"internalType": "string",
							"name": "_name",
							"type": "string"
						},
						{
							"internalType": "string",
							"name": "_description",
							"type": "string"
						}
					],
					"name": "updatePrescription",
					"outputs": [],
					"stateMutability": "nonpayable",
					"type": "function"
				},
				{
					"inputs": [
						{
							"internalType": "string",
							"name": "_p_id",
							"type": "string"
						},
						{
							"internalType": "string",
							"name": "_date",
							"type": "string"
						},
						{
							"internalType": "bool",
							"name": "_fasting",
							"type": "bool"
						},
						{
							"internalType": "bool",
							"name": "_afterMeal",
							"type": "bool"
						},
						{
							"internalType": "uint256",
							"name": "_level",
							"type": "uint256"
						}
					],
					"name": "updateSugar",
					"outputs": [],
					"stateMutability": "nonpayable",
					"type": "function"
				},
				{
					"inputs": [
						{
							"internalType": "string",
							"name": "_p_id",
							"type": "string"
						},
						{
							"internalType": "string",
							"name": "_name",
							"type": "string"
						},
						{
							"internalType": "string",
							"name": "_date",
							"type": "string"
						}
					],
					"name": "updateVaccine",
					"outputs": [],
					"stateMutability": "nonpayable",
					"type": "function"
				}
			],
			"devdoc": {
				"kind": "dev",
				"methods": {},
				"version": 1
			},
			"evm": {
				"assembly": "    /* \"contracts/_Database5.sol\":60:6899  contract MedicalRecords {... */\n  mstore(0x40, 0x80)\n    /* \"contracts/_Database5.sol\":1390:1512  constructor() {... */\n  callvalue\n  dup1\n  iszero\n  tag_1\n  jumpi\n  0x00\n  dup1\n  revert\ntag_1:\n  pop\n    /* \"contracts/_Database5.sol\":1447:1451  true */\n  0x01\n    /* \"contracts/_Database5.sol\":1415:1432  authorizedDoctors */\n  dup1\n    /* \"contracts/_Database5.sol\":1415:1444  authorizedDoctors[msg.sender] */\n  0x00\n    /* \"contracts/_Database5.sol\":1433:1443  msg.sender */\n  caller\n    /* \"contracts/_Database5.sol\":1415:1444  authorizedDoctors[msg.sender] */\n  0xffffffffffffffffffffffffffffffffffffffff\n  and\n  0xffffffffffffffffffffffffffffffffffffffff\n  and\n  dup2\n  mstore\n  0x20\n  add\n  swap1\n  dup2\n  mstore\n  0x20\n  add\n  0x00\n  keccak256\n  0x00\n    /* \"contracts/_Database5.sol\":1415:1451  authorizedDoctors[msg.sender] = true */\n  0x0100\n  exp\n  dup2\n  sload\n  dup2\n  0xff\n  mul\n  not\n  and\n  swap1\n  dup4\n  iszero\n  iszero\n  mul\n  or\n  swap1\n  sstore\n  pop\n    /* \"contracts/_Database5.sol\":60:6899  contract MedicalRecords {... */\n  dataSize(sub_0)\n  dup1\n  dataOffset(sub_0)\n  0x00\n  codecopy\n  0x00\n  return\nstop\n\nsub_0: assembly {\n        /* \"contracts/_Database5.sol\":60:6899  contract MedicalRecords {... */\n      mstore(0x40, 0x80)\n      callvalue\n      dup1\n      iszero\n      tag_1\n      jumpi\n      0x00\n      dup1\n      revert\n    tag_1:\n      pop\n      jumpi(tag_2, lt(calldatasize, 0x04))\n      shr(0xe0, calldataload(0x00))\n      dup1\n      0x71c017f5\n      gt\n      tag_17\n      jumpi\n      dup1\n      0xa4f3cc23\n      gt\n      tag_18\n      jumpi\n      dup1\n      0xa4f3cc23\n      eq\n      tag_13\n      jumpi\n      dup1\n      0xa63bd798\n      eq\n      tag_14\n      jumpi\n      dup1\n      0xd2ea8594\n      eq\n      tag_15\n      jumpi\n      dup1\n      0xd4638181\n      eq\n      tag_16\n      jumpi\n      jump(tag_2)\n    tag_18:\n      dup1\n      0x71c017f5\n      eq\n      tag_10\n      jumpi\n      dup1\n      0x7a01dbf5\n      eq\n      tag_11\n      jumpi\n      dup1\n      0x931126e9\n      eq\n      tag_12\n      jumpi\n      jump(tag_2)\n    tag_17:\n      dup1\n      0x54506048\n      gt\n      tag_19\n      jumpi\n      dup1\n      0x54506048\n      eq\n      tag_6\n      jumpi\n      dup1\n      0x58c9202c\n      eq\n      tag_7\n      jumpi\n      dup1\n      0x669aaafb\n      eq\n      tag_8\n      jumpi\n      dup1\n      0x6ebfa7d4\n      eq\n      tag_9\n      jumpi\n      jump(tag_2)\n    tag_19:\n      dup1\n      0x0416af27\n      eq\n      tag_3\n      jumpi\n      dup1\n      0x1d76d896\n      eq\n      tag_4\n      jumpi\n      dup1\n      0x29601ed8\n      eq\n      tag_5\n      jumpi\n    tag_2:\n      0x00\n      dup1\n      revert\n        /* \"contracts/_Database5.sol\":1793:1996  function revokeDoctor(address _doctor) external onlyDoctor {... */\n    tag_3:\n      tag_20\n      0x04\n      dup1\n      calldatasize\n      sub\n      dup2\n      add\n      swap1\n      tag_21\n      swap2\n      swap1\n      tag_22\n      jump\t// in\n    tag_21:\n      tag_23\n      jump\t// in\n    tag_20:\n      stop\n        /* \"contracts/_Database5.sol\":3162:3742  function updatePrescription(... */\n    tag_4:\n      tag_24\n      0x04\n      dup1\n      calldatasize\n      sub\n      dup2\n      add\n      swap1\n      tag_25\n      swap2\n      swap1\n      tag_26\n      jump\t// in\n    tag_25:\n      tag_27\n      jump\t// in\n    tag_24:\n      stop\n        /* \"contracts/_Database5.sol\":6506:6896  function getPatientVaccines(string memory _p_id) public view returns (Vaccine[] memory) {... */\n    tag_5:\n      tag_28\n      0x04\n      dup1\n      calldatasize\n      sub\n      dup2\n      add\n      swap1\n      tag_29\n      swap2\n      swap1\n      tag_30\n      jump\t// in\n    tag_29:\n      tag_31\n      jump\t// in\n    tag_28:\n      mload(0x40)\n      tag_32\n      swap2\n      swap1\n      tag_33\n      jump\t// in\n    tag_32:\n      mload(0x40)\n      dup1\n      swap2\n      sub\n      swap1\n      return\n        /* \"contracts/_Database5.sol\":2815:3154  function updateVaccine(... */\n    tag_6:\n      tag_34\n      0x04\n      dup1\n      calldatasize\n      sub\n      dup2\n      add\n      swap1\n      tag_35\n      swap2\n      swap1\n      tag_36\n      jump\t// in\n    tag_35:\n      tag_37\n      jump\t// in\n    tag_34:\n      stop\n        /* \"contracts/_Database5.sol\":1671:1785  function authorizeDoctor(address _doctor) external onlyDoctor {... */\n    tag_7:\n      tag_38\n      0x04\n      dup1\n      calldatasize\n      sub\n      dup2\n      add\n      swap1\n      tag_39\n      swap2\n      swap1\n      tag_22\n      jump\t// in\n    tag_39:\n      tag_40\n      jump\t// in\n    tag_38:\n      stop\n        /* \"contracts/_Database5.sol\":2500:2807  function updateAllergies(... */\n    tag_8:\n      tag_41\n      0x04\n      dup1\n      calldatasize\n      sub\n      dup2\n      add\n      swap1\n      tag_42\n      swap2\n      swap1\n      tag_43\n      jump\t// in\n    tag_42:\n      tag_44\n      jump\t// in\n    tag_41:\n      stop\n        /* \"contracts/_Database5.sol\":4183:4576  function updateSugar(... */\n    tag_9:\n      tag_45\n      0x04\n      dup1\n      calldatasize\n      sub\n      dup2\n      add\n      swap1\n      tag_46\n      swap2\n      swap1\n      tag_47\n      jump\t// in\n    tag_46:\n      tag_48\n      jump\t// in\n    tag_45:\n      stop\n        /* \"contracts/_Database5.sol\":5676:6119  function getPatientBloodPressure(string memory _p_id) public view returns (BloodPressure[] memory) {... */\n    tag_10:\n      tag_49\n      0x04\n      dup1\n      calldatasize\n      sub\n      dup2\n      add\n      swap1\n      tag_50\n      swap2\n      swap1\n      tag_30\n      jump\t// in\n    tag_50:\n      tag_51\n      jump\t// in\n    tag_49:\n      mload(0x40)\n      tag_52\n      swap2\n      swap1\n      tag_53\n      jump\t// in\n    tag_52:\n      mload(0x40)\n      dup1\n      swap2\n      sub\n      swap1\n      return\n        /* \"contracts/_Database5.sol\":6127:6498  function getPatientSugar(string memory _p_id) public view returns (Sugar[] memory) {... */\n    tag_11:\n      tag_54\n      0x04\n      dup1\n      calldatasize\n      sub\n      dup2\n      add\n      swap1\n      tag_55\n      swap2\n      swap1\n      tag_30\n      jump\t// in\n    tag_55:\n      tag_56\n      jump\t// in\n    tag_54:\n      mload(0x40)\n      tag_57\n      swap2\n      swap1\n      tag_58\n      jump\t// in\n    tag_57:\n      mload(0x40)\n      dup1\n      swap2\n      sub\n      swap1\n      return\n        /* \"contracts/_Database5.sol\":5048:5476  function getPrescriptions(string memory _p_id) public view returns (Prescription[] memory) {... */\n    tag_12:\n      tag_59\n      0x04\n      dup1\n      calldatasize\n      sub\n      dup2\n      add\n      swap1\n      tag_60\n      swap2\n      swap1\n      tag_30\n      jump\t// in\n    tag_60:\n      tag_61\n      jump\t// in\n    tag_59:\n      mload(0x40)\n      tag_62\n      swap2\n      swap1\n      tag_63\n      jump\t// in\n    tag_62:\n      mload(0x40)\n      dup1\n      swap2\n      sub\n      swap1\n      return\n        /* \"contracts/_Database5.sol\":2004:2492  function addPatient(... */\n    tag_13:\n      tag_64\n      0x04\n      dup1\n      calldatasize\n      sub\n      dup2\n      add\n      swap1\n      tag_65\n      swap2\n      swap1\n      tag_66\n      jump\t// in\n    tag_65:\n      tag_67\n      jump\t// in\n    tag_64:\n      stop\n        /* \"contracts/_Database5.sol\":4584:5040  function getPatientInfo(... */\n    tag_14:\n      tag_68\n      0x04\n      dup1\n      calldatasize\n      sub\n      dup2\n      add\n      swap1\n      tag_69\n      swap2\n      swap1\n      tag_70\n      jump\t// in\n    tag_69:\n      tag_71\n      jump\t// in\n    tag_68:\n      mload(0x40)\n      tag_72\n      swap4\n      swap3\n      swap2\n      swap1\n      tag_73\n      jump\t// in\n    tag_72:\n      mload(0x40)\n      dup1\n      swap2\n      sub\n      swap1\n      return\n        /* \"contracts/_Database5.sol\":5484:5668  function getAllergies(string memory _p_id) public view returns (Allergies memory) {... */\n    tag_15:\n      tag_74\n      0x04\n      dup1\n      calldatasize\n      sub\n      dup2\n      add\n      swap1\n      tag_75\n      swap2\n      swap1\n      tag_30\n      jump\t// in\n    tag_75:\n      tag_76\n      jump\t// in\n    tag_74:\n      mload(0x40)\n      tag_77\n      swap2\n      swap1\n      tag_78\n      jump\t// in\n    tag_77:\n      mload(0x40)\n      dup1\n      swap2\n      sub\n      swap1\n      return\n        /* \"contracts/_Database5.sol\":3750:4175  function updateBloodPressure(... */\n    tag_16:\n      tag_79\n      0x04\n      dup1\n      calldatasize\n      sub\n      dup2\n      add\n      swap1\n      tag_80\n      swap2\n      swap1\n      tag_81\n      jump\t// in\n    tag_80:\n      tag_82\n      jump\t// in\n    tag_79:\n      stop\n        /* \"contracts/_Database5.sol\":1793:1996  function revokeDoctor(address _doctor) external onlyDoctor {... */\n    tag_23:\n        /* \"contracts/_Database5.sol\":1561:1578  authorizedDoctors */\n      0x01\n        /* \"contracts/_Database5.sol\":1561:1590  authorizedDoctors[msg.sender] */\n      0x00\n        /* \"contracts/_Database5.sol\":1579:1589  msg.sender */\n      caller\n        /* \"contracts/_Database5.sol\":1561:1590  authorizedDoctors[msg.sender] */\n      0xffffffffffffffffffffffffffffffffffffffff\n      and\n      0xffffffffffffffffffffffffffffffffffffffff\n      and\n      dup2\n      mstore\n      0x20\n      add\n      swap1\n      dup2\n      mstore\n      0x20\n      add\n      0x00\n      keccak256\n      0x00\n      swap1\n      sload\n      swap1\n      0x0100\n      exp\n      swap1\n      div\n      0xff\n      and\n        /* \"contracts/_Database5.sol\":1553:1643  require(authorizedDoctors[msg.sender], \"Only authorized doctors can access this function\") */\n      tag_84\n      jumpi\n      mload(0x40)\n      0x08c379a000000000000000000000000000000000000000000000000000000000\n      dup2\n      mstore\n      0x04\n      add\n      tag_85\n      swap1\n      tag_86\n      jump\t// in\n    tag_85:\n      mload(0x40)\n      dup1\n      swap2\n      sub\n      swap1\n      revert\n    tag_84:\n        /* \"contracts/_Database5.sol\":1885:1892  _doctor */\n      dup1\n        /* \"contracts/_Database5.sol\":1871:1892  msg.sender != _doctor */\n      0xffffffffffffffffffffffffffffffffffffffff\n      and\n        /* \"contracts/_Database5.sol\":1871:1881  msg.sender */\n      caller\n        /* \"contracts/_Database5.sol\":1871:1892  msg.sender != _doctor */\n      0xffffffffffffffffffffffffffffffffffffffff\n      and\n      sub\n        /* \"contracts/_Database5.sol\":1863:1943  require(msg.sender != _doctor, \"The contract deployer cannot revoke themselves\") */\n      tag_88\n      jumpi\n      mload(0x40)\n      0x08c379a000000000000000000000000000000000000000000000000000000000\n      dup2\n      mstore\n      0x04\n      add\n      tag_89\n      swap1\n      tag_90\n      jump\t// in\n    tag_89:\n      mload(0x40)\n      dup1\n      swap2\n      sub\n      swap1\n      revert\n    tag_88:\n        /* \"contracts/_Database5.sol\":1983:1988  false */\n      0x00\n        /* \"contracts/_Database5.sol\":1954:1971  authorizedDoctors */\n      0x01\n        /* \"contracts/_Database5.sol\":1954:1980  authorizedDoctors[_doctor] */\n      0x00\n        /* \"contracts/_Database5.sol\":1972:1979  _doctor */\n      dup4\n        /* \"contracts/_Database5.sol\":1954:1980  authorizedDoctors[_doctor] */\n      0xffffffffffffffffffffffffffffffffffffffff\n      and\n      0xffffffffffffffffffffffffffffffffffffffff\n      and\n      dup2\n      mstore\n      0x20\n      add\n      swap1\n      dup2\n      mstore\n      0x20\n      add\n      0x00\n      keccak256\n      0x00\n        /* \"contracts/_Database5.sol\":1954:1988  authorizedDoctors[_doctor] = false */\n      0x0100\n      exp\n      dup2\n      sload\n      dup2\n      0xff\n      mul\n      not\n      and\n      swap1\n      dup4\n      iszero\n      iszero\n      mul\n      or\n      swap1\n      sstore\n      pop\n        /* \"contracts/_Database5.sol\":1793:1996  function revokeDoctor(address _doctor) external onlyDoctor {... */\n      pop\n      jump\t// out\n        /* \"contracts/_Database5.sol\":3162:3742  function updatePrescription(... */\n    tag_27:\n        /* \"contracts/_Database5.sol\":3452:3475  Patient storage patient */\n      0x00\n        /* \"contracts/_Database5.sol\":3478:3486  patients */\n      dup1\n        /* \"contracts/_Database5.sol\":3487:3492  _p_id */\n      dup10\n        /* \"contracts/_Database5.sol\":3478:3493  patients[_p_id] */\n      mload(0x40)\n      tag_92\n      swap2\n      swap1\n      tag_93\n      jump\t// in\n    tag_92:\n      swap1\n      dup2\n      mstore\n      0x20\n      add\n      mload(0x40)\n      dup1\n      swap2\n      sub\n      swap1\n      keccak256\n        /* \"contracts/_Database5.sol\":3452:3493  Patient storage patient = patients[_p_id] */\n      swap1\n      pop\n        /* \"contracts/_Database5.sol\":3504:3529  uint256 prescriptionIndex */\n      0x00\n        /* \"contracts/_Database5.sol\":3532:3539  patient */\n      dup2\n        /* \"contracts/_Database5.sol\":3532:3557  patient.prescriptionCount */\n      0x07\n      add\n      sload\n        /* \"contracts/_Database5.sol\":3504:3557  uint256 prescriptionIndex = patient.prescriptionCount */\n      swap1\n      pop\n        /* \"contracts/_Database5.sol\":3611:3696  Prescription(_date, _doctorName, _morning, _afternoon, _evening, _name, _description) */\n      mload(0x40)\n      dup1\n      0xe0\n      add\n      0x40\n      mstore\n      dup1\n        /* \"contracts/_Database5.sol\":3624:3629  _date */\n      dup11\n        /* \"contracts/_Database5.sol\":3611:3696  Prescription(_date, _doctorName, _morning, _afternoon, _evening, _name, _description) */\n      dup2\n      mstore\n      0x20\n      add\n        /* \"contracts/_Database5.sol\":3631:3642  _doctorName */\n      dup10\n        /* \"contracts/_Database5.sol\":3611:3696  Prescription(_date, _doctorName, _morning, _afternoon, _evening, _name, _description) */\n      dup2\n      mstore\n      0x20\n      add\n        /* \"contracts/_Database5.sol\":3644:3652  _morning */\n      dup9\n        /* \"contracts/_Database5.sol\":3611:3696  Prescription(_date, _doctorName, _morning, _afternoon, _evening, _name, _description) */\n      iszero\n      iszero\n      dup2\n      mstore\n      0x20\n      add\n        /* \"contracts/_Database5.sol\":3654:3664  _afternoon */\n      dup8\n        /* \"contracts/_Database5.sol\":3611:3696  Prescription(_date, _doctorName, _morning, _afternoon, _evening, _name, _description) */\n      iszero\n      iszero\n      dup2\n      mstore\n      0x20\n      add\n        /* \"contracts/_Database5.sol\":3666:3674  _evening */\n      dup7\n        /* \"contracts/_Database5.sol\":3611:3696  Prescription(_date, _doctorName, _morning, _afternoon, _evening, _name, _description) */\n      iszero\n      iszero\n      dup2\n      mstore\n      0x20\n      add\n        /* \"contracts/_Database5.sol\":3676:3681  _name */\n      dup6\n        /* \"contracts/_Database5.sol\":3611:3696  Prescription(_date, _doctorName, _morning, _afternoon, _evening, _name, _description) */\n      dup2\n      mstore\n      0x20\n      add\n        /* \"contracts/_Database5.sol\":3683:3695  _description */\n      dup5\n        /* \"contracts/_Database5.sol\":3611:3696  Prescription(_date, _doctorName, _morning, _afternoon, _evening, _name, _description) */\n      dup2\n      mstore\n      pop\n        /* \"contracts/_Database5.sol\":3568:3575  patient */\n      dup3\n        /* \"contracts/_Database5.sol\":3568:3589  patient.prescriptions */\n      0x06\n      add\n        /* \"contracts/_Database5.sol\":3568:3608  patient.prescriptions[prescriptionIndex] */\n      0x00\n        /* \"contracts/_Database5.sol\":3590:3607  prescriptionIndex */\n      dup4\n        /* \"contracts/_Database5.sol\":3568:3608  patient.prescriptions[prescriptionIndex] */\n      dup2\n      mstore\n      0x20\n      add\n      swap1\n      dup2\n      mstore\n      0x20\n      add\n      0x00\n      keccak256\n        /* \"contracts/_Database5.sol\":3568:3696  patient.prescriptions[prescriptionIndex] = Prescription(_date, _doctorName, _morning, _afternoon, _evening, _name, _description) */\n      0x00\n      dup3\n      add\n      mload\n      dup2\n      0x00\n      add\n      swap1\n      dup2\n      tag_94\n      swap2\n      swap1\n      tag_95\n      jump\t// in\n    tag_94:\n      pop\n      0x20\n      dup3\n      add\n      mload\n      dup2\n      0x01\n      add\n      swap1\n      dup2\n      tag_96\n      swap2\n      swap1\n      tag_95\n      jump\t// in\n    tag_96:\n      pop\n      0x40\n      dup3\n      add\n      mload\n      dup2\n      0x02\n      add\n      exp(0x0100, 0x00)\n      dup2\n      sload\n      dup2\n      0xff\n      mul\n      not\n      and\n      swap1\n      dup4\n      iszero\n      iszero\n      mul\n      or\n      swap1\n      sstore\n      pop\n      0x60\n      dup3\n      add\n      mload\n      dup2\n      0x02\n      add\n      exp(0x0100, 0x01)\n      dup2\n      sload\n      dup2\n      0xff\n      mul\n      not\n      and\n      swap1\n      dup4\n      iszero\n      iszero\n      mul\n      or\n      swap1\n      sstore\n      pop\n      0x80\n      dup3\n      add\n      mload\n      dup2\n      0x02\n      add\n      exp(0x0100, 0x02)\n      dup2\n      sload\n      dup2\n      0xff\n      mul\n      not\n      and\n      swap1\n      dup4\n      iszero\n      iszero\n      mul\n      or\n      swap1\n      sstore\n      pop\n      0xa0\n      dup3\n      add\n      mload\n      dup2\n      0x03\n      add\n      swap1\n      dup2\n      tag_97\n      swap2\n      swap1\n      tag_95\n      jump\t// in\n    tag_97:\n      pop\n      0xc0\n      dup3\n      add\n      mload\n      dup2\n      0x04\n      add\n      swap1\n      dup2\n      tag_98\n      swap2\n      swap1\n      tag_95\n      jump\t// in\n    tag_98:\n      pop\n      swap1\n      pop\n      pop\n        /* \"contracts/_Database5.sol\":3707:3714  patient */\n      dup2\n        /* \"contracts/_Database5.sol\":3707:3732  patient.prescriptionCount */\n      0x07\n      add\n      0x00\n        /* \"contracts/_Database5.sol\":3707:3734  patient.prescriptionCount++ */\n      dup2\n      sload\n      dup1\n      swap3\n      swap2\n      swap1\n      tag_99\n      swap1\n      tag_100\n      jump\t// in\n    tag_99:\n      swap2\n      swap1\n      pop\n      sstore\n      pop\n        /* \"contracts/_Database5.sol\":3441:3742  {... */\n      pop\n      pop\n        /* \"contracts/_Database5.sol\":3162:3742  function updatePrescription(... */\n      pop\n      pop\n      pop\n      pop\n      pop\n      pop\n      pop\n      pop\n      jump\t// out\n        /* \"contracts/_Database5.sol\":6506:6896  function getPatientVaccines(string memory _p_id) public view returns (Vaccine[] memory) {... */\n    tag_31:\n        /* \"contracts/_Database5.sol\":6576:6592  Vaccine[] memory */\n      0x60\n        /* \"contracts/_Database5.sol\":6605:6628  Patient storage patient */\n      0x00\n        /* \"contracts/_Database5.sol\":6631:6639  patients */\n      dup1\n        /* \"contracts/_Database5.sol\":6640:6645  _p_id */\n      dup4\n        /* \"contracts/_Database5.sol\":6631:6646  patients[_p_id] */\n      mload(0x40)\n      tag_102\n      swap2\n      swap1\n      tag_93\n      jump\t// in\n    tag_102:\n      swap1\n      dup2\n      mstore\n      0x20\n      add\n      mload(0x40)\n      dup1\n      swap2\n      sub\n      swap1\n      keccak256\n        /* \"contracts/_Database5.sol\":6605:6646  Patient storage patient = patients[_p_id] */\n      swap1\n      pop\n        /* \"contracts/_Database5.sol\":6657:6670  uint256 count */\n      0x00\n        /* \"contracts/_Database5.sol\":6673:6680  patient */\n      dup2\n        /* \"contracts/_Database5.sol\":6673:6693  patient.vaccineCount */\n      0x0d\n      add\n      sload\n        /* \"contracts/_Database5.sol\":6657:6693  uint256 count = patient.vaccineCount */\n      swap1\n      pop\n        /* \"contracts/_Database5.sol\":6704:6729  Vaccine[] memory vaccines */\n      0x00\n        /* \"contracts/_Database5.sol\":6746:6751  count */\n      dup2\n        /* \"contracts/_Database5.sol\":6732:6752  new Vaccine[](count) */\n      0xffffffffffffffff\n      dup2\n      gt\n      iszero\n      tag_103\n      jumpi\n      tag_104\n      tag_105\n      jump\t// in\n    tag_104:\n    tag_103:\n      mload(0x40)\n      swap1\n      dup1\n      dup3\n      mstore\n      dup1\n      0x20\n      mul\n      0x20\n      add\n      dup3\n      add\n      0x40\n      mstore\n      dup1\n      iszero\n      tag_106\n      jumpi\n      dup2\n      0x20\n      add\n    tag_107:\n      tag_108\n      tag_109\n      jump\t// in\n    tag_108:\n      dup2\n      mstore\n      0x20\n      add\n      swap1\n      0x01\n      swap1\n      sub\n      swap1\n      dup2\n      tag_107\n      jumpi\n      swap1\n      pop\n    tag_106:\n      pop\n        /* \"contracts/_Database5.sol\":6704:6752  Vaccine[] memory vaccines = new Vaccine[](count) */\n      swap1\n      pop\n        /* \"contracts/_Database5.sol\":6770:6779  uint256 i */\n      0x00\n        /* \"contracts/_Database5.sol\":6765:6861  for (uint256 i = 0; i < count; i++) {... */\n    tag_110:\n        /* \"contracts/_Database5.sol\":6789:6794  count */\n      dup3\n        /* \"contracts/_Database5.sol\":6785:6786  i */\n      dup2\n        /* \"contracts/_Database5.sol\":6785:6794  i < count */\n      lt\n        /* \"contracts/_Database5.sol\":6765:6861  for (uint256 i = 0; i < count; i++) {... */\n      iszero\n      tag_111\n      jumpi\n        /* \"contracts/_Database5.sol\":6830:6837  patient */\n      dup4\n        /* \"contracts/_Database5.sol\":6830:6846  patient.vaccines */\n      0x0c\n      add\n        /* \"contracts/_Database5.sol\":6830:6849  patient.vaccines[i] */\n      0x00\n        /* \"contracts/_Database5.sol\":6847:6848  i */\n      dup3\n        /* \"contracts/_Database5.sol\":6830:6849  patient.vaccines[i] */\n      dup2\n      mstore\n      0x20\n      add\n      swap1\n      dup2\n      mstore\n      0x20\n      add\n      0x00\n      keccak256\n        /* \"contracts/_Database5.sol\":6816:6849  vaccines[i] = patient.vaccines[i] */\n      mload(0x40)\n      dup1\n      0x40\n      add\n      0x40\n      mstore\n      swap1\n      dup2\n      0x00\n      dup3\n      add\n      dup1\n      sload\n      tag_113\n      swap1\n      tag_114\n      jump\t// in\n    tag_113:\n      dup1\n      0x1f\n      add\n      0x20\n      dup1\n      swap2\n      div\n      mul\n      0x20\n      add\n      mload(0x40)\n      swap1\n      dup2\n      add\n      0x40\n      mstore\n      dup1\n      swap3\n      swap2\n      swap1\n      dup2\n      dup2\n      mstore\n      0x20\n      add\n      dup3\n      dup1\n      sload\n      tag_115\n      swap1\n      tag_114\n      jump\t// in\n    tag_115:\n      dup1\n      iszero\n      tag_116\n      jumpi\n      dup1\n      0x1f\n      lt\n      tag_117\n      jumpi\n      0x0100\n      dup1\n      dup4\n      sload\n      div\n      mul\n      dup4\n      mstore\n      swap2\n      0x20\n      add\n      swap2\n      jump(tag_116)\n    tag_117:\n      dup3\n      add\n      swap2\n      swap1\n      0x00\n      mstore\n      keccak256(0x00, 0x20)\n      swap1\n    tag_118:\n      dup2\n      sload\n      dup2\n      mstore\n      swap1\n      0x01\n      add\n      swap1\n      0x20\n      add\n      dup1\n      dup4\n      gt\n      tag_118\n      jumpi\n      dup3\n      swap1\n      sub\n      0x1f\n      and\n      dup3\n      add\n      swap2\n    tag_116:\n      pop\n      pop\n      pop\n      pop\n      pop\n      dup2\n      mstore\n      0x20\n      add\n      0x01\n      dup3\n      add\n      dup1\n      sload\n      tag_119\n      swap1\n      tag_114\n      jump\t// in\n    tag_119:\n      dup1\n      0x1f\n      add\n      0x20\n      dup1\n      swap2\n      div\n      mul\n      0x20\n      add\n      mload(0x40)\n      swap1\n      dup2\n      add\n      0x40\n      mstore\n      dup1\n      swap3\n      swap2\n      swap1\n      dup2\n      dup2\n      mstore\n      0x20\n      add\n      dup3\n      dup1\n      sload\n      tag_120\n      swap1\n      tag_114\n      jump\t// in\n    tag_120:\n      dup1\n      iszero\n      tag_121\n      jumpi\n      dup1\n      0x1f\n      lt\n      tag_122\n      jumpi\n      0x0100\n      dup1\n      dup4\n      sload\n      div\n      mul\n      dup4\n      mstore\n      swap2\n      0x20\n      add\n      swap2\n      jump(tag_121)\n    tag_122:\n      dup3\n      add\n      swap2\n      swap1\n      0x00\n      mstore\n      keccak256(0x00, 0x20)\n      swap1\n    tag_123:\n      dup2\n      sload\n      dup2\n      mstore\n      swap1\n      0x01\n      add\n      swap1\n      0x20\n      add\n      dup1\n      dup4\n      gt\n      tag_123\n      jumpi\n      dup3\n      swap1\n      sub\n      0x1f\n      and\n      dup3\n      add\n      swap2\n    tag_121:\n      pop\n      pop\n      pop\n      pop\n      pop\n      dup2\n      mstore\n      pop\n      pop\n        /* \"contracts/_Database5.sol\":6816:6824  vaccines */\n      dup3\n        /* \"contracts/_Database5.sol\":6825:6826  i */\n      dup3\n        /* \"contracts/_Database5.sol\":6816:6827  vaccines[i] */\n      dup2\n      mload\n      dup2\n      lt\n      tag_124\n      jumpi\n      tag_125\n      tag_126\n      jump\t// in\n    tag_125:\n    tag_124:\n      0x20\n      mul\n      0x20\n      add\n      add\n        /* \"contracts/_Database5.sol\":6816:6849  vaccines[i] = patient.vaccines[i] */\n      dup2\n      swap1\n      mstore\n      pop\n        /* \"contracts/_Database5.sol\":6796:6799  i++ */\n      dup1\n      dup1\n      tag_127\n      swap1\n      tag_100\n      jump\t// in\n    tag_127:\n      swap2\n      pop\n      pop\n        /* \"contracts/_Database5.sol\":6765:6861  for (uint256 i = 0; i < count; i++) {... */\n      jump(tag_110)\n    tag_111:\n      pop\n        /* \"contracts/_Database5.sol\":6880:6888  vaccines */\n      dup1\n        /* \"contracts/_Database5.sol\":6873:6888  return vaccines */\n      swap4\n      pop\n      pop\n      pop\n      pop\n        /* \"contracts/_Database5.sol\":6506:6896  function getPatientVaccines(string memory _p_id) public view returns (Vaccine[] memory) {... */\n      swap2\n      swap1\n      pop\n      jump\t// out\n        /* \"contracts/_Database5.sol\":2815:3154  function updateVaccine(... */\n    tag_37:\n        /* \"contracts/_Database5.sol\":2953:2976  Patient storage patient */\n      0x00\n        /* \"contracts/_Database5.sol\":2979:2987  patients */\n      dup1\n        /* \"contracts/_Database5.sol\":2988:2993  _p_id */\n      dup5\n        /* \"contracts/_Database5.sol\":2979:2994  patients[_p_id] */\n      mload(0x40)\n      tag_129\n      swap2\n      swap1\n      tag_93\n      jump\t// in\n    tag_129:\n      swap1\n      dup2\n      mstore\n      0x20\n      add\n      mload(0x40)\n      dup1\n      swap2\n      sub\n      swap1\n      keccak256\n        /* \"contracts/_Database5.sol\":2953:2994  Patient storage patient = patients[_p_id] */\n      swap1\n      pop\n        /* \"contracts/_Database5.sol\":3005:3025  uint256 vaccineIndex */\n      0x00\n        /* \"contracts/_Database5.sol\":3028:3035  patient */\n      dup2\n        /* \"contracts/_Database5.sol\":3028:3048  patient.vaccineCount */\n      0x0d\n      add\n      sload\n        /* \"contracts/_Database5.sol\":3005:3048  uint256 vaccineIndex = patient.vaccineCount */\n      swap1\n      pop\n        /* \"contracts/_Database5.sol\":3092:3113  Vaccine(_name, _date) */\n      mload(0x40)\n      dup1\n      0x40\n      add\n      0x40\n      mstore\n      dup1\n        /* \"contracts/_Database5.sol\":3100:3105  _name */\n      dup6\n        /* \"contracts/_Database5.sol\":3092:3113  Vaccine(_name, _date) */\n      dup2\n      mstore\n      0x20\n      add\n        /* \"contracts/_Database5.sol\":3107:3112  _date */\n      dup5\n        /* \"contracts/_Database5.sol\":3092:3113  Vaccine(_name, _date) */\n      dup2\n      mstore\n      pop\n        /* \"contracts/_Database5.sol\":3059:3066  patient */\n      dup3\n        /* \"contracts/_Database5.sol\":3059:3075  patient.vaccines */\n      0x0c\n      add\n        /* \"contracts/_Database5.sol\":3059:3089  patient.vaccines[vaccineIndex] */\n      0x00\n        /* \"contracts/_Database5.sol\":3076:3088  vaccineIndex */\n      dup4\n        /* \"contracts/_Database5.sol\":3059:3089  patient.vaccines[vaccineIndex] */\n      dup2\n      mstore\n      0x20\n      add\n      swap1\n      dup2\n      mstore\n      0x20\n      add\n      0x00\n      keccak256\n        /* \"contracts/_Database5.sol\":3059:3113  patient.vaccines[vaccineIndex] = Vaccine(_name, _date) */\n      0x00\n      dup3\n      add\n      mload\n      dup2\n      0x00\n      add\n      swap1\n      dup2\n      tag_130\n      swap2\n      swap1\n      tag_95\n      jump\t// in\n    tag_130:\n      pop\n      0x20\n      dup3\n      add\n      mload\n      dup2\n      0x01\n      add\n      swap1\n      dup2\n      tag_131\n      swap2\n      swap1\n      tag_95\n      jump\t// in\n    tag_131:\n      pop\n      swap1\n      pop\n      pop\n        /* \"contracts/_Database5.sol\":3124:3131  patient */\n      dup2\n        /* \"contracts/_Database5.sol\":3124:3144  patient.vaccineCount */\n      0x0d\n      add\n      0x00\n        /* \"contracts/_Database5.sol\":3124:3146  patient.vaccineCount++ */\n      dup2\n      sload\n      dup1\n      swap3\n      swap2\n      swap1\n      tag_132\n      swap1\n      tag_100\n      jump\t// in\n    tag_132:\n      swap2\n      swap1\n      pop\n      sstore\n      pop\n        /* \"contracts/_Database5.sol\":2942:3154  {... */\n      pop\n      pop\n        /* \"contracts/_Database5.sol\":2815:3154  function updateVaccine(... */\n      pop\n      pop\n      pop\n      jump\t// out\n        /* \"contracts/_Database5.sol\":1671:1785  function authorizeDoctor(address _doctor) external onlyDoctor {... */\n    tag_40:\n        /* \"contracts/_Database5.sol\":1561:1578  authorizedDoctors */\n      0x01\n        /* \"contracts/_Database5.sol\":1561:1590  authorizedDoctors[msg.sender] */\n      0x00\n        /* \"contracts/_Database5.sol\":1579:1589  msg.sender */\n      caller\n        /* \"contracts/_Database5.sol\":1561:1590  authorizedDoctors[msg.sender] */\n      0xffffffffffffffffffffffffffffffffffffffff\n      and\n      0xffffffffffffffffffffffffffffffffffffffff\n      and\n      dup2\n      mstore\n      0x20\n      add\n      swap1\n      dup2\n      mstore\n      0x20\n      add\n      0x00\n      keccak256\n      0x00\n      swap1\n      sload\n      swap1\n      0x0100\n      exp\n      swap1\n      div\n      0xff\n      and\n        /* \"contracts/_Database5.sol\":1553:1643  require(authorizedDoctors[msg.sender], \"Only authorized doctors can access this function\") */\n      tag_134\n      jumpi\n      mload(0x40)\n      0x08c379a000000000000000000000000000000000000000000000000000000000\n      dup2\n      mstore\n      0x04\n      add\n      tag_135\n      swap1\n      tag_86\n      jump\t// in\n    tag_135:\n      mload(0x40)\n      dup1\n      swap2\n      sub\n      swap1\n      revert\n    tag_134:\n        /* \"contracts/_Database5.sol\":1773:1777  true */\n      0x01\n        /* \"contracts/_Database5.sol\":1744:1761  authorizedDoctors */\n      dup1\n        /* \"contracts/_Database5.sol\":1744:1770  authorizedDoctors[_doctor] */\n      0x00\n        /* \"contracts/_Database5.sol\":1762:1769  _doctor */\n      dup4\n        /* \"contracts/_Database5.sol\":1744:1770  authorizedDoctors[_doctor] */\n      0xffffffffffffffffffffffffffffffffffffffff\n      and\n      0xffffffffffffffffffffffffffffffffffffffff\n      and\n      dup2\n      mstore\n      0x20\n      add\n      swap1\n      dup2\n      mstore\n      0x20\n      add\n      0x00\n      keccak256\n      0x00\n        /* \"contracts/_Database5.sol\":1744:1777  authorizedDoctors[_doctor] = true */\n      0x0100\n      exp\n      dup2\n      sload\n      dup2\n      0xff\n      mul\n      not\n      and\n      swap1\n      dup4\n      iszero\n      iszero\n      mul\n      or\n      swap1\n      sstore\n      pop\n        /* \"contracts/_Database5.sol\":1671:1785  function authorizeDoctor(address _doctor) external onlyDoctor {... */\n      pop\n      jump\t// out\n        /* \"contracts/_Database5.sol\":2500:2807  function updateAllergies(... */\n    tag_44:\n        /* \"contracts/_Database5.sol\":2683:2706  Patient storage patient */\n      0x00\n        /* \"contracts/_Database5.sol\":2709:2717  patients */\n      dup1\n        /* \"contracts/_Database5.sol\":2718:2723  _p_id */\n      dup6\n        /* \"contracts/_Database5.sol\":2709:2724  patients[_p_id] */\n      mload(0x40)\n      tag_138\n      swap2\n      swap1\n      tag_93\n      jump\t// in\n    tag_138:\n      swap1\n      dup2\n      mstore\n      0x20\n      add\n      mload(0x40)\n      dup1\n      swap2\n      sub\n      swap1\n      keccak256\n        /* \"contracts/_Database5.sol\":2683:2724  Patient storage patient = patients[_p_id] */\n      swap1\n      pop\n        /* \"contracts/_Database5.sol\":2762:2799  Allergies(_food, _medicines, _others) */\n      mload(0x40)\n      dup1\n      0x60\n      add\n      0x40\n      mstore\n      dup1\n        /* \"contracts/_Database5.sol\":2772:2777  _food */\n      dup6\n        /* \"contracts/_Database5.sol\":2762:2799  Allergies(_food, _medicines, _others) */\n      dup2\n      mstore\n      0x20\n      add\n        /* \"contracts/_Database5.sol\":2779:2789  _medicines */\n      dup5\n        /* \"contracts/_Database5.sol\":2762:2799  Allergies(_food, _medicines, _others) */\n      dup2\n      mstore\n      0x20\n      add\n        /* \"contracts/_Database5.sol\":2791:2798  _others */\n      dup4\n        /* \"contracts/_Database5.sol\":2762:2799  Allergies(_food, _medicines, _others) */\n      dup2\n      mstore\n      pop\n        /* \"contracts/_Database5.sol\":2735:2742  patient */\n      dup2\n        /* \"contracts/_Database5.sol\":2735:2752  patient.allergies */\n      0x05\n      add\n        /* \"contracts/_Database5.sol\":2753:2758  _p_id */\n      dup7\n        /* \"contracts/_Database5.sol\":2735:2759  patient.allergies[_p_id] */\n      mload(0x40)\n      tag_139\n      swap2\n      swap1\n      tag_93\n      jump\t// in\n    tag_139:\n      swap1\n      dup2\n      mstore\n      0x20\n      add\n      mload(0x40)\n      dup1\n      swap2\n      sub\n      swap1\n      keccak256\n        /* \"contracts/_Database5.sol\":2735:2799  patient.allergies[_p_id] = Allergies(_food, _medicines, _others) */\n      0x00\n      dup3\n      add\n      mload\n      dup2\n      0x00\n      add\n      swap1\n      dup1\n      mload\n      swap1\n      0x20\n      add\n      swap1\n      tag_140\n      swap3\n      swap2\n      swap1\n      tag_141\n      jump\t// in\n    tag_140:\n      pop\n      0x20\n      dup3\n      add\n      mload\n      dup2\n      0x01\n      add\n      swap1\n      dup1\n      mload\n      swap1\n      0x20\n      add\n      swap1\n      tag_142\n      swap3\n      swap2\n      swap1\n      tag_141\n      jump\t// in\n    tag_142:\n      pop\n      0x40\n      dup3\n      add\n      mload\n      dup2\n      0x02\n      add\n      swap1\n      dup1\n      mload\n      swap1\n      0x20\n      add\n      swap1\n      tag_143\n      swap3\n      swap2\n      swap1\n      tag_141\n      jump\t// in\n    tag_143:\n      pop\n      swap1\n      pop\n      pop\n        /* \"contracts/_Database5.sol\":2672:2807  {... */\n      pop\n        /* \"contracts/_Database5.sol\":2500:2807  function updateAllergies(... */\n      pop\n      pop\n      pop\n      pop\n      jump\t// out\n        /* \"contracts/_Database5.sol\":4183:4576  function updateSugar(... */\n    tag_48:\n        /* \"contracts/_Database5.sol\":4364:4387  Patient storage patient */\n      0x00\n        /* \"contracts/_Database5.sol\":4390:4398  patients */\n      dup1\n        /* \"contracts/_Database5.sol\":4399:4404  _p_id */\n      dup7\n        /* \"contracts/_Database5.sol\":4390:4405  patients[_p_id] */\n      mload(0x40)\n      tag_145\n      swap2\n      swap1\n      tag_93\n      jump\t// in\n    tag_145:\n      swap1\n      dup2\n      mstore\n      0x20\n      add\n      mload(0x40)\n      dup1\n      swap2\n      sub\n      swap1\n      keccak256\n        /* \"contracts/_Database5.sol\":4364:4405  Patient storage patient = patients[_p_id] */\n      swap1\n      pop\n        /* \"contracts/_Database5.sol\":4416:4434  uint256 sugarIndex */\n      0x00\n        /* \"contracts/_Database5.sol\":4437:4444  patient */\n      dup2\n        /* \"contracts/_Database5.sol\":4437:4455  patient.sugarCount */\n      0x0b\n      add\n      sload\n        /* \"contracts/_Database5.sol\":4416:4455  uint256 sugarIndex = patient.sugarCount */\n      swap1\n      pop\n        /* \"contracts/_Database5.sol\":4495:4537  Sugar(_date, _fasting, _afterMeal, _level) */\n      mload(0x40)\n      dup1\n      0x80\n      add\n      0x40\n      mstore\n      dup1\n        /* \"contracts/_Database5.sol\":4501:4506  _date */\n      dup8\n        /* \"contracts/_Database5.sol\":4495:4537  Sugar(_date, _fasting, _afterMeal, _level) */\n      dup2\n      mstore\n      0x20\n      add\n        /* \"contracts/_Database5.sol\":4508:4516  _fasting */\n      dup7\n        /* \"contracts/_Database5.sol\":4495:4537  Sugar(_date, _fasting, _afterMeal, _level) */\n      iszero\n      iszero\n      dup2\n      mstore\n      0x20\n      add\n        /* \"contracts/_Database5.sol\":4518:4528  _afterMeal */\n      dup6\n        /* \"contracts/_Database5.sol\":4495:4537  Sugar(_date, _fasting, _afterMeal, _level) */\n      iszero\n      iszero\n      dup2\n      mstore\n      0x20\n      add\n        /* \"contracts/_Database5.sol\":4530:4536  _level */\n      dup5\n        /* \"contracts/_Database5.sol\":4495:4537  Sugar(_date, _fasting, _afterMeal, _level) */\n      dup2\n      mstore\n      pop\n        /* \"contracts/_Database5.sol\":4466:4473  patient */\n      dup3\n        /* \"contracts/_Database5.sol\":4466:4480  patient.sugars */\n      0x0a\n      add\n        /* \"contracts/_Database5.sol\":4466:4492  patient.sugars[sugarIndex] */\n      0x00\n        /* \"contracts/_Database5.sol\":4481:4491  sugarIndex */\n      dup4\n        /* \"contracts/_Database5.sol\":4466:4492  patient.sugars[sugarIndex] */\n      dup2\n      mstore\n      0x20\n      add\n      swap1\n      dup2\n      mstore\n      0x20\n      add\n      0x00\n      keccak256\n        /* \"contracts/_Database5.sol\":4466:4537  patient.sugars[sugarIndex] = Sugar(_date, _fasting, _afterMeal, _level) */\n      0x00\n      dup3\n      add\n      mload\n      dup2\n      0x00\n      add\n      swap1\n      dup2\n      tag_146\n      swap2\n      swap1\n      tag_95\n      jump\t// in\n    tag_146:\n      pop\n      0x20\n      dup3\n      add\n      mload\n      dup2\n      0x01\n      add\n      exp(0x0100, 0x00)\n      dup2\n      sload\n      dup2\n      0xff\n      mul\n      not\n      and\n      swap1\n      dup4\n      iszero\n      iszero\n      mul\n      or\n      swap1\n      sstore\n      pop\n      0x40\n      dup3\n      add\n      mload\n      dup2\n      0x01\n      add\n      exp(0x0100, 0x01)\n      dup2\n      sload\n      dup2\n      0xff\n      mul\n      not\n      and\n      swap1\n      dup4\n      iszero\n      iszero\n      mul\n      or\n      swap1\n      sstore\n      pop\n      0x60\n      dup3\n      add\n      mload\n      dup2\n      0x02\n      add\n      sstore\n      swap1\n      pop\n      pop\n        /* \"contracts/_Database5.sol\":4548:4555  patient */\n      dup2\n        /* \"contracts/_Database5.sol\":4548:4566  patient.sugarCount */\n      0x0b\n      add\n      0x00\n        /* \"contracts/_Database5.sol\":4548:4568  patient.sugarCount++ */\n      dup2\n      sload\n      dup1\n      swap3\n      swap2\n      swap1\n      tag_147\n      swap1\n      tag_100\n      jump\t// in\n    tag_147:\n      swap2\n      swap1\n      pop\n      sstore\n      pop\n        /* \"contracts/_Database5.sol\":4353:4576  {... */\n      pop\n      pop\n        /* \"contracts/_Database5.sol\":4183:4576  function updateSugar(... */\n      pop\n      pop\n      pop\n      pop\n      pop\n      jump\t// out\n        /* \"contracts/_Database5.sol\":5676:6119  function getPatientBloodPressure(string memory _p_id) public view returns (BloodPressure[] memory) {... */\n    tag_51:\n        /* \"contracts/_Database5.sol\":5751:5773  BloodPressure[] memory */\n      0x60\n        /* \"contracts/_Database5.sol\":5786:5809  Patient storage patient */\n      0x00\n        /* \"contracts/_Database5.sol\":5812:5820  patients */\n      dup1\n        /* \"contracts/_Database5.sol\":5821:5826  _p_id */\n      dup4\n        /* \"contracts/_Database5.sol\":5812:5827  patients[_p_id] */\n      mload(0x40)\n      tag_149\n      swap2\n      swap1\n      tag_93\n      jump\t// in\n    tag_149:\n      swap1\n      dup2\n      mstore\n      0x20\n      add\n      mload(0x40)\n      dup1\n      swap2\n      sub\n      swap1\n      keccak256\n        /* \"contracts/_Database5.sol\":5786:5827  Patient storage patient = patients[_p_id] */\n      swap1\n      pop\n        /* \"contracts/_Database5.sol\":5838:5851  uint256 count */\n      0x00\n        /* \"contracts/_Database5.sol\":5854:5861  patient */\n      dup2\n        /* \"contracts/_Database5.sol\":5854:5880  patient.bloodPressureCount */\n      0x09\n      add\n      sload\n        /* \"contracts/_Database5.sol\":5838:5880  uint256 count = patient.bloodPressureCount */\n      swap1\n      pop\n        /* \"contracts/_Database5.sol\":5891:5928  BloodPressure[] memory bloodPressures */\n      0x00\n        /* \"contracts/_Database5.sol\":5951:5956  count */\n      dup2\n        /* \"contracts/_Database5.sol\":5931:5957  new BloodPressure[](count) */\n      0xffffffffffffffff\n      dup2\n      gt\n      iszero\n      tag_150\n      jumpi\n      tag_151\n      tag_105\n      jump\t// in\n    tag_151:\n    tag_150:\n      mload(0x40)\n      swap1\n      dup1\n      dup3\n      mstore\n      dup1\n      0x20\n      mul\n      0x20\n      add\n      dup3\n      add\n      0x40\n      mstore\n      dup1\n      iszero\n      tag_152\n      jumpi\n      dup2\n      0x20\n      add\n    tag_153:\n      tag_154\n      tag_155\n      jump\t// in\n    tag_154:\n      dup2\n      mstore\n      0x20\n      add\n      swap1\n      0x01\n      swap1\n      sub\n      swap1\n      dup2\n      tag_153\n      jumpi\n      swap1\n      pop\n    tag_152:\n      pop\n        /* \"contracts/_Database5.sol\":5891:5957  BloodPressure[] memory bloodPressures = new BloodPressure[](count) */\n      swap1\n      pop\n        /* \"contracts/_Database5.sol\":5975:5984  uint256 i */\n      0x00\n        /* \"contracts/_Database5.sol\":5970:6078  for (uint256 i = 0; i < count; i++) {... */\n    tag_156:\n        /* \"contracts/_Database5.sol\":5994:5999  count */\n      dup3\n        /* \"contracts/_Database5.sol\":5990:5991  i */\n      dup2\n        /* \"contracts/_Database5.sol\":5990:5999  i < count */\n      lt\n        /* \"contracts/_Database5.sol\":5970:6078  for (uint256 i = 0; i < count; i++) {... */\n      iszero\n      tag_157\n      jumpi\n        /* \"contracts/_Database5.sol\":6041:6048  patient */\n      dup4\n        /* \"contracts/_Database5.sol\":6041:6063  patient.bloodPressures */\n      0x08\n      add\n        /* \"contracts/_Database5.sol\":6041:6066  patient.bloodPressures[i] */\n      0x00\n        /* \"contracts/_Database5.sol\":6064:6065  i */\n      dup3\n        /* \"contracts/_Database5.sol\":6041:6066  patient.bloodPressures[i] */\n      dup2\n      mstore\n      0x20\n      add\n      swap1\n      dup2\n      mstore\n      0x20\n      add\n      0x00\n      keccak256\n        /* \"contracts/_Database5.sol\":6021:6066  bloodPressures[i] = patient.bloodPressures[i] */\n      mload(0x40)\n      dup1\n      0x80\n      add\n      0x40\n      mstore\n      swap1\n      dup2\n      0x00\n      dup3\n      add\n      dup1\n      sload\n      tag_159\n      swap1\n      tag_114\n      jump\t// in\n    tag_159:\n      dup1\n      0x1f\n      add\n      0x20\n      dup1\n      swap2\n      div\n      mul\n      0x20\n      add\n      mload(0x40)\n      swap1\n      dup2\n      add\n      0x40\n      mstore\n      dup1\n      swap3\n      swap2\n      swap1\n      dup2\n      dup2\n      mstore\n      0x20\n      add\n      dup3\n      dup1\n      sload\n      tag_160\n      swap1\n      tag_114\n      jump\t// in\n    tag_160:\n      dup1\n      iszero\n      tag_161\n      jumpi\n      dup1\n      0x1f\n      lt\n      tag_162\n      jumpi\n      0x0100\n      dup1\n      dup4\n      sload\n      div\n      mul\n      dup4\n      mstore\n      swap2\n      0x20\n      add\n      swap2\n      jump(tag_161)\n    tag_162:\n      dup3\n      add\n      swap2\n      swap1\n      0x00\n      mstore\n      keccak256(0x00, 0x20)\n      swap1\n    tag_163:\n      dup2\n      sload\n      dup2\n      mstore\n      swap1\n      0x01\n      add\n      swap1\n      0x20\n      add\n      dup1\n      dup4\n      gt\n      tag_163\n      jumpi\n      dup3\n      swap1\n      sub\n      0x1f\n      and\n      dup3\n      add\n      swap2\n    tag_161:\n      pop\n      pop\n      pop\n      pop\n      pop\n      dup2\n      mstore\n      0x20\n      add\n      0x01\n      dup3\n      add\n      sload\n      dup2\n      mstore\n      0x20\n      add\n      0x02\n      dup3\n      add\n      sload\n      dup2\n      mstore\n      0x20\n      add\n      0x03\n      dup3\n      add\n      sload\n      dup2\n      mstore\n      pop\n      pop\n        /* \"contracts/_Database5.sol\":6021:6035  bloodPressures */\n      dup3\n        /* \"contracts/_Database5.sol\":6036:6037  i */\n      dup3\n        /* \"contracts/_Database5.sol\":6021:6038  bloodPressures[i] */\n      dup2\n      mload\n      dup2\n      lt\n      tag_164\n      jumpi\n      tag_165\n      tag_126\n      jump\t// in\n    tag_165:\n    tag_164:\n      0x20\n      mul\n      0x20\n      add\n      add\n        /* \"contracts/_Database5.sol\":6021:6066  bloodPressures[i] = patient.bloodPressures[i] */\n      dup2\n      swap1\n      mstore\n      pop\n        /* \"contracts/_Database5.sol\":6001:6004  i++ */\n      dup1\n      dup1\n      tag_166\n      swap1\n      tag_100\n      jump\t// in\n    tag_166:\n      swap2\n      pop\n      pop\n        /* \"contracts/_Database5.sol\":5970:6078  for (uint256 i = 0; i < count; i++) {... */\n      jump(tag_156)\n    tag_157:\n      pop\n        /* \"contracts/_Database5.sol\":6097:6111  bloodPressures */\n      dup1\n        /* \"contracts/_Database5.sol\":6090:6111  return bloodPressures */\n      swap4\n      pop\n      pop\n      pop\n      pop\n        /* \"contracts/_Database5.sol\":5676:6119  function getPatientBloodPressure(string memory _p_id) public view returns (BloodPressure[] memory) {... */\n      swap2\n      swap1\n      pop\n      jump\t// out\n        /* \"contracts/_Database5.sol\":6127:6498  function getPatientSugar(string memory _p_id) public view returns (Sugar[] memory) {... */\n    tag_56:\n        /* \"contracts/_Database5.sol\":6194:6208  Sugar[] memory */\n      0x60\n        /* \"contracts/_Database5.sol\":6221:6244  Patient storage patient */\n      0x00\n        /* \"contracts/_Database5.sol\":6247:6255  patients */\n      dup1\n        /* \"contracts/_Database5.sol\":6256:6261  _p_id */\n      dup4\n        /* \"contracts/_Database5.sol\":6247:6262  patients[_p_id] */\n      mload(0x40)\n      tag_168\n      swap2\n      swap1\n      tag_93\n      jump\t// in\n    tag_168:\n      swap1\n      dup2\n      mstore\n      0x20\n      add\n      mload(0x40)\n      dup1\n      swap2\n      sub\n      swap1\n      keccak256\n        /* \"contracts/_Database5.sol\":6221:6262  Patient storage patient = patients[_p_id] */\n      swap1\n      pop\n        /* \"contracts/_Database5.sol\":6273:6286  uint256 count */\n      0x00\n        /* \"contracts/_Database5.sol\":6289:6296  patient */\n      dup2\n        /* \"contracts/_Database5.sol\":6289:6307  patient.sugarCount */\n      0x0b\n      add\n      sload\n        /* \"contracts/_Database5.sol\":6273:6307  uint256 count = patient.sugarCount */\n      swap1\n      pop\n        /* \"contracts/_Database5.sol\":6318:6339  Sugar[] memory sugars */\n      0x00\n        /* \"contracts/_Database5.sol\":6354:6359  count */\n      dup2\n        /* \"contracts/_Database5.sol\":6342:6360  new Sugar[](count) */\n      0xffffffffffffffff\n      dup2\n      gt\n      iszero\n      tag_169\n      jumpi\n      tag_170\n      tag_105\n      jump\t// in\n    tag_170:\n    tag_169:\n      mload(0x40)\n      swap1\n      dup1\n      dup3\n      mstore\n      dup1\n      0x20\n      mul\n      0x20\n      add\n      dup3\n      add\n      0x40\n      mstore\n      dup1\n      iszero\n      tag_171\n      jumpi\n      dup2\n      0x20\n      add\n    tag_172:\n      tag_173\n      tag_174\n      jump\t// in\n    tag_173:\n      dup2\n      mstore\n      0x20\n      add\n      swap1\n      0x01\n      swap1\n      sub\n      swap1\n      dup2\n      tag_172\n      jumpi\n      swap1\n      pop\n    tag_171:\n      pop\n        /* \"contracts/_Database5.sol\":6318:6360  Sugar[] memory sugars = new Sugar[](count) */\n      swap1\n      pop\n        /* \"contracts/_Database5.sol\":6378:6387  uint256 i */\n      0x00\n        /* \"contracts/_Database5.sol\":6373:6465  for (uint256 i = 0; i < count; i++) {... */\n    tag_175:\n        /* \"contracts/_Database5.sol\":6397:6402  count */\n      dup3\n        /* \"contracts/_Database5.sol\":6393:6394  i */\n      dup2\n        /* \"contracts/_Database5.sol\":6393:6402  i < count */\n      lt\n        /* \"contracts/_Database5.sol\":6373:6465  for (uint256 i = 0; i < count; i++) {... */\n      iszero\n      tag_176\n      jumpi\n        /* \"contracts/_Database5.sol\":6436:6443  patient */\n      dup4\n        /* \"contracts/_Database5.sol\":6436:6450  patient.sugars */\n      0x0a\n      add\n        /* \"contracts/_Database5.sol\":6436:6453  patient.sugars[i] */\n      0x00\n        /* \"contracts/_Database5.sol\":6451:6452  i */\n      dup3\n        /* \"contracts/_Database5.sol\":6436:6453  patient.sugars[i] */\n      dup2\n      mstore\n      0x20\n      add\n      swap1\n      dup2\n      mstore\n      0x20\n      add\n      0x00\n      keccak256\n        /* \"contracts/_Database5.sol\":6424:6453  sugars[i] = patient.sugars[i] */\n      mload(0x40)\n      dup1\n      0x80\n      add\n      0x40\n      mstore\n      swap1\n      dup2\n      0x00\n      dup3\n      add\n      dup1\n      sload\n      tag_178\n      swap1\n      tag_114\n      jump\t// in\n    tag_178:\n      dup1\n      0x1f\n      add\n      0x20\n      dup1\n      swap2\n      div\n      mul\n      0x20\n      add\n      mload(0x40)\n      swap1\n      dup2\n      add\n      0x40\n      mstore\n      dup1\n      swap3\n      swap2\n      swap1\n      dup2\n      dup2\n      mstore\n      0x20\n      add\n      dup3\n      dup1\n      sload\n      tag_179\n      swap1\n      tag_114\n      jump\t// in\n    tag_179:\n      dup1\n      iszero\n      tag_180\n      jumpi\n      dup1\n      0x1f\n      lt\n      tag_181\n      jumpi\n      0x0100\n      dup1\n      dup4\n      sload\n      div\n      mul\n      dup4\n      mstore\n      swap2\n      0x20\n      add\n      swap2\n      jump(tag_180)\n    tag_181:\n      dup3\n      add\n      swap2\n      swap1\n      0x00\n      mstore\n      keccak256(0x00, 0x20)\n      swap1\n    tag_182:\n      dup2\n      sload\n      dup2\n      mstore\n      swap1\n      0x01\n      add\n      swap1\n      0x20\n      add\n      dup1\n      dup4\n      gt\n      tag_182\n      jumpi\n      dup3\n      swap1\n      sub\n      0x1f\n      and\n      dup3\n      add\n      swap2\n    tag_180:\n      pop\n      pop\n      pop\n      pop\n      pop\n      dup2\n      mstore\n      0x20\n      add\n      0x01\n      dup3\n      add\n      0x00\n      swap1\n      sload\n      swap1\n      0x0100\n      exp\n      swap1\n      div\n      0xff\n      and\n      iszero\n      iszero\n      iszero\n      iszero\n      dup2\n      mstore\n      0x20\n      add\n      0x01\n      dup3\n      add\n      0x01\n      swap1\n      sload\n      swap1\n      0x0100\n      exp\n      swap1\n      div\n      0xff\n      and\n      iszero\n      iszero\n      iszero\n      iszero\n      dup2\n      mstore\n      0x20\n      add\n      0x02\n      dup3\n      add\n      sload\n      dup2\n      mstore\n      pop\n      pop\n        /* \"contracts/_Database5.sol\":6424:6430  sugars */\n      dup3\n        /* \"contracts/_Database5.sol\":6431:6432  i */\n      dup3\n        /* \"contracts/_Database5.sol\":6424:6433  sugars[i] */\n      dup2\n      mload\n      dup2\n      lt\n      tag_183\n      jumpi\n      tag_184\n      tag_126\n      jump\t// in\n    tag_184:\n    tag_183:\n      0x20\n      mul\n      0x20\n      add\n      add\n        /* \"contracts/_Database5.sol\":6424:6453  sugars[i] = patient.sugars[i] */\n      dup2\n      swap1\n      mstore\n      pop\n        /* \"contracts/_Database5.sol\":6404:6407  i++ */\n      dup1\n      dup1\n      tag_185\n      swap1\n      tag_100\n      jump\t// in\n    tag_185:\n      swap2\n      pop\n      pop\n        /* \"contracts/_Database5.sol\":6373:6465  for (uint256 i = 0; i < count; i++) {... */\n      jump(tag_175)\n    tag_176:\n      pop\n        /* \"contracts/_Database5.sol\":6484:6490  sugars */\n      dup1\n        /* \"contracts/_Database5.sol\":6477:6490  return sugars */\n      swap4\n      pop\n      pop\n      pop\n      pop\n        /* \"contracts/_Database5.sol\":6127:6498  function getPatientSugar(string memory _p_id) public view returns (Sugar[] memory) {... */\n      swap2\n      swap1\n      pop\n      jump\t// out\n        /* \"contracts/_Database5.sol\":5048:5476  function getPrescriptions(string memory _p_id) public view returns (Prescription[] memory) {... */\n    tag_61:\n        /* \"contracts/_Database5.sol\":5116:5137  Prescription[] memory */\n      0x60\n        /* \"contracts/_Database5.sol\":5150:5173  Patient storage patient */\n      0x00\n        /* \"contracts/_Database5.sol\":5176:5184  patients */\n      dup1\n        /* \"contracts/_Database5.sol\":5185:5190  _p_id */\n      dup4\n        /* \"contracts/_Database5.sol\":5176:5191  patients[_p_id] */\n      mload(0x40)\n      tag_187\n      swap2\n      swap1\n      tag_93\n      jump\t// in\n    tag_187:\n      swap1\n      dup2\n      mstore\n      0x20\n      add\n      mload(0x40)\n      dup1\n      swap2\n      sub\n      swap1\n      keccak256\n        /* \"contracts/_Database5.sol\":5150:5191  Patient storage patient = patients[_p_id] */\n      swap1\n      pop\n        /* \"contracts/_Database5.sol\":5202:5215  uint256 count */\n      0x00\n        /* \"contracts/_Database5.sol\":5218:5225  patient */\n      dup2\n        /* \"contracts/_Database5.sol\":5218:5243  patient.prescriptionCount */\n      0x07\n      add\n      sload\n        /* \"contracts/_Database5.sol\":5202:5243  uint256 count = patient.prescriptionCount */\n      swap1\n      pop\n        /* \"contracts/_Database5.sol\":5254:5289  Prescription[] memory prescriptions */\n      0x00\n        /* \"contracts/_Database5.sol\":5311:5316  count */\n      dup2\n        /* \"contracts/_Database5.sol\":5292:5317  new Prescription[](count) */\n      0xffffffffffffffff\n      dup2\n      gt\n      iszero\n      tag_188\n      jumpi\n      tag_189\n      tag_105\n      jump\t// in\n    tag_189:\n    tag_188:\n      mload(0x40)\n      swap1\n      dup1\n      dup3\n      mstore\n      dup1\n      0x20\n      mul\n      0x20\n      add\n      dup3\n      add\n      0x40\n      mstore\n      dup1\n      iszero\n      tag_190\n      jumpi\n      dup2\n      0x20\n      add\n    tag_191:\n      tag_192\n      tag_193\n      jump\t// in\n    tag_192:\n      dup2\n      mstore\n      0x20\n      add\n      swap1\n      0x01\n      swap1\n      sub\n      swap1\n      dup2\n      tag_191\n      jumpi\n      swap1\n      pop\n    tag_190:\n      pop\n        /* \"contracts/_Database5.sol\":5254:5317  Prescription[] memory prescriptions = new Prescription[](count) */\n      swap1\n      pop\n        /* \"contracts/_Database5.sol\":5335:5344  uint256 i */\n      0x00\n        /* \"contracts/_Database5.sol\":5330:5436  for (uint256 i = 0; i < count; i++) {... */\n    tag_194:\n        /* \"contracts/_Database5.sol\":5354:5359  count */\n      dup3\n        /* \"contracts/_Database5.sol\":5350:5351  i */\n      dup2\n        /* \"contracts/_Database5.sol\":5350:5359  i < count */\n      lt\n        /* \"contracts/_Database5.sol\":5330:5436  for (uint256 i = 0; i < count; i++) {... */\n      iszero\n      tag_195\n      jumpi\n        /* \"contracts/_Database5.sol\":5400:5407  patient */\n      dup4\n        /* \"contracts/_Database5.sol\":5400:5421  patient.prescriptions */\n      0x06\n      add\n        /* \"contracts/_Database5.sol\":5400:5424  patient.prescriptions[i] */\n      0x00\n        /* \"contracts/_Database5.sol\":5422:5423  i */\n      dup3\n        /* \"contracts/_Database5.sol\":5400:5424  patient.prescriptions[i] */\n      dup2\n      mstore\n      0x20\n      add\n      swap1\n      dup2\n      mstore\n      0x20\n      add\n      0x00\n      keccak256\n        /* \"contracts/_Database5.sol\":5381:5424  prescriptions[i] = patient.prescriptions[i] */\n      mload(0x40)\n      dup1\n      0xe0\n      add\n      0x40\n      mstore\n      swap1\n      dup2\n      0x00\n      dup3\n      add\n      dup1\n      sload\n      tag_197\n      swap1\n      tag_114\n      jump\t// in\n    tag_197:\n      dup1\n      0x1f\n      add\n      0x20\n      dup1\n      swap2\n      div\n      mul\n      0x20\n      add\n      mload(0x40)\n      swap1\n      dup2\n      add\n      0x40\n      mstore\n      dup1\n      swap3\n      swap2\n      swap1\n      dup2\n      dup2\n      mstore\n      0x20\n      add\n      dup3\n      dup1\n      sload\n      tag_198\n      swap1\n      tag_114\n      jump\t// in\n    tag_198:\n      dup1\n      iszero\n      tag_199\n      jumpi\n      dup1\n      0x1f\n      lt\n      tag_200\n      jumpi\n      0x0100\n      dup1\n      dup4\n      sload\n      div\n      mul\n      dup4\n      mstore\n      swap2\n      0x20\n      add\n      swap2\n      jump(tag_199)\n    tag_200:\n      dup3\n      add\n      swap2\n      swap1\n      0x00\n      mstore\n      keccak256(0x00, 0x20)\n      swap1\n    tag_201:\n      dup2\n      sload\n      dup2\n      mstore\n      swap1\n      0x01\n      add\n      swap1\n      0x20\n      add\n      dup1\n      dup4\n      gt\n      tag_201\n      jumpi\n      dup3\n      swap1\n      sub\n      0x1f\n      and\n      dup3\n      add\n      swap2\n    tag_199:\n      pop\n      pop\n      pop\n      pop\n      pop\n      dup2\n      mstore\n      0x20\n      add\n      0x01\n      dup3\n      add\n      dup1\n      sload\n      tag_202\n      swap1\n      tag_114\n      jump\t// in\n    tag_202:\n      dup1\n      0x1f\n      add\n      0x20\n      dup1\n      swap2\n      div\n      mul\n      0x20\n      add\n      mload(0x40)\n      swap1\n      dup2\n      add\n      0x40\n      mstore\n      dup1\n      swap3\n      swap2\n      swap1\n      dup2\n      dup2\n      mstore\n      0x20\n      add\n      dup3\n      dup1\n      sload\n      tag_203\n      swap1\n      tag_114\n      jump\t// in\n    tag_203:\n      dup1\n      iszero\n      tag_204\n      jumpi\n      dup1\n      0x1f\n      lt\n      tag_205\n      jumpi\n      0x0100\n      dup1\n      dup4\n      sload\n      div\n      mul\n      dup4\n      mstore\n      swap2\n      0x20\n      add\n      swap2\n      jump(tag_204)\n    tag_205:\n      dup3\n      add\n      swap2\n      swap1\n      0x00\n      mstore\n      keccak256(0x00, 0x20)\n      swap1\n    tag_206:\n      dup2\n      sload\n      dup2\n      mstore\n      swap1\n      0x01\n      add\n      swap1\n      0x20\n      add\n      dup1\n      dup4\n      gt\n      tag_206\n      jumpi\n      dup3\n      swap1\n      sub\n      0x1f\n      and\n      dup3\n      add\n      swap2\n    tag_204:\n      pop\n      pop\n      pop\n      pop\n      pop\n      dup2\n      mstore\n      0x20\n      add\n      0x02\n      dup3\n      add\n      0x00\n      swap1\n      sload\n      swap1\n      0x0100\n      exp\n      swap1\n      div\n      0xff\n      and\n      iszero\n      iszero\n      iszero\n      iszero\n      dup2\n      mstore\n      0x20\n      add\n      0x02\n      dup3\n      add\n      0x01\n      swap1\n      sload\n      swap1\n      0x0100\n      exp\n      swap1\n      div\n      0xff\n      and\n      iszero\n      iszero\n      iszero\n      iszero\n      dup2\n      mstore\n      0x20\n      add\n      0x02\n      dup3\n      add\n      0x02\n      swap1\n      sload\n      swap1\n      0x0100\n      exp\n      swap1\n      div\n      0xff\n      and\n      iszero\n      iszero\n      iszero\n      iszero\n      dup2\n      mstore\n      0x20\n      add\n      0x03\n      dup3\n      add\n      dup1\n      sload\n      tag_207\n      swap1\n      tag_114\n      jump\t// in\n    tag_207:\n      dup1\n      0x1f\n      add\n      0x20\n      dup1\n      swap2\n      div\n      mul\n      0x20\n      add\n      mload(0x40)\n      swap1\n      dup2\n      add\n      0x40\n      mstore\n      dup1\n      swap3\n      swap2\n      swap1\n      dup2\n      dup2\n      mstore\n      0x20\n      add\n      dup3\n      dup1\n      sload\n      tag_208\n      swap1\n      tag_114\n      jump\t// in\n    tag_208:\n      dup1\n      iszero\n      tag_209\n      jumpi\n      dup1\n      0x1f\n      lt\n      tag_210\n      jumpi\n      0x0100\n      dup1\n      dup4\n      sload\n      div\n      mul\n      dup4\n      mstore\n      swap2\n      0x20\n      add\n      swap2\n      jump(tag_209)\n    tag_210:\n      dup3\n      add\n      swap2\n      swap1\n      0x00\n      mstore\n      keccak256(0x00, 0x20)\n      swap1\n    tag_211:\n      dup2\n      sload\n      dup2\n      mstore\n      swap1\n      0x01\n      add\n      swap1\n      0x20\n      add\n      dup1\n      dup4\n      gt\n      tag_211\n      jumpi\n      dup3\n      swap1\n      sub\n      0x1f\n      and\n      dup3\n      add\n      swap2\n    tag_209:\n      pop\n      pop\n      pop\n      pop\n      pop\n      dup2\n      mstore\n      0x20\n      add\n      0x04\n      dup3\n      add\n      dup1\n      sload\n      tag_212\n      swap1\n      tag_114\n      jump\t// in\n    tag_212:\n      dup1\n      0x1f\n      add\n      0x20\n      dup1\n      swap2\n      div\n      mul\n      0x20\n      add\n      mload(0x40)\n      swap1\n      dup2\n      add\n      0x40\n      mstore\n      dup1\n      swap3\n      swap2\n      swap1\n      dup2\n      dup2\n      mstore\n      0x20\n      add\n      dup3\n      dup1\n      sload\n      tag_213\n      swap1\n      tag_114\n      jump\t// in\n    tag_213:\n      dup1\n      iszero\n      tag_214\n      jumpi\n      dup1\n      0x1f\n      lt\n      tag_215\n      jumpi\n      0x0100\n      dup1\n      dup4\n      sload\n      div\n      mul\n      dup4\n      mstore\n      swap2\n      0x20\n      add\n      swap2\n      jump(tag_214)\n    tag_215:\n      dup3\n      add\n      swap2\n      swap1\n      0x00\n      mstore\n      keccak256(0x00, 0x20)\n      swap1\n    tag_216:\n      dup2\n      sload\n      dup2\n      mstore\n      swap1\n      0x01\n      add\n      swap1\n      0x20\n      add\n      dup1\n      dup4\n      gt\n      tag_216\n      jumpi\n      dup3\n      swap1\n      sub\n      0x1f\n      and\n      dup3\n      add\n      swap2\n    tag_214:\n      pop\n      pop\n      pop\n      pop\n      pop\n      dup2\n      mstore\n      pop\n      pop\n        /* \"contracts/_Database5.sol\":5381:5394  prescriptions */\n      dup3\n        /* \"contracts/_Database5.sol\":5395:5396  i */\n      dup3\n        /* \"contracts/_Database5.sol\":5381:5397  prescriptions[i] */\n      dup2\n      mload\n      dup2\n      lt\n      tag_217\n      jumpi\n      tag_218\n      tag_126\n      jump\t// in\n    tag_218:\n    tag_217:\n      0x20\n      mul\n      0x20\n      add\n      add\n        /* \"contracts/_Database5.sol\":5381:5424  prescriptions[i] = patient.prescriptions[i] */\n      dup2\n      swap1\n      mstore\n      pop\n        /* \"contracts/_Database5.sol\":5361:5364  i++ */\n      dup1\n      dup1\n      tag_219\n      swap1\n      tag_100\n      jump\t// in\n    tag_219:\n      swap2\n      pop\n      pop\n        /* \"contracts/_Database5.sol\":5330:5436  for (uint256 i = 0; i < count; i++) {... */\n      jump(tag_194)\n    tag_195:\n      pop\n        /* \"contracts/_Database5.sol\":5455:5468  prescriptions */\n      dup1\n        /* \"contracts/_Database5.sol\":5448:5468  return prescriptions */\n      swap4\n      pop\n      pop\n      pop\n      pop\n        /* \"contracts/_Database5.sol\":5048:5476  function getPrescriptions(string memory _p_id) public view returns (Prescription[] memory) {... */\n      swap2\n      swap1\n      pop\n      jump\t// out\n        /* \"contracts/_Database5.sol\":2004:2492  function addPatient(... */\n    tag_67:\n        /* \"contracts/_Database5.sol\":2248:2271  Patient storage patient */\n      0x00\n        /* \"contracts/_Database5.sol\":2274:2282  patients */\n      dup1\n        /* \"contracts/_Database5.sol\":2283:2286  _id */\n      dup8\n        /* \"contracts/_Database5.sol\":2274:2287  patients[_id] */\n      mload(0x40)\n      tag_221\n      swap2\n      swap1\n      tag_93\n      jump\t// in\n    tag_221:\n      swap1\n      dup2\n      mstore\n      0x20\n      add\n      mload(0x40)\n      dup1\n      swap2\n      sub\n      swap1\n      keccak256\n        /* \"contracts/_Database5.sol\":2248:2287  Patient storage patient = patients[_id] */\n      swap1\n      pop\n        /* \"contracts/_Database5.sol\":2313:2318  _name */\n      dup6\n        /* \"contracts/_Database5.sol\":2298:2305  patient */\n      dup2\n        /* \"contracts/_Database5.sol\":2298:2310  patient.name */\n      0x00\n      add\n        /* \"contracts/_Database5.sol\":2298:2318  patient.name = _name */\n      swap1\n      dup2\n      tag_222\n      swap2\n      swap1\n      tag_95\n      jump\t// in\n    tag_222:\n      pop\n        /* \"contracts/_Database5.sol\":2343:2347  _DOB */\n      dup5\n        /* \"contracts/_Database5.sol\":2329:2336  patient */\n      dup2\n        /* \"contracts/_Database5.sol\":2329:2340  patient.DOB */\n      0x01\n      add\n        /* \"contracts/_Database5.sol\":2329:2347  patient.DOB = _DOB */\n      swap1\n      dup2\n      tag_223\n      swap2\n      swap1\n      tag_95\n      jump\t// in\n    tag_223:\n      pop\n        /* \"contracts/_Database5.sol\":2376:2384  _phoneNo */\n      dup4\n        /* \"contracts/_Database5.sol\":2358:2365  patient */\n      dup2\n        /* \"contracts/_Database5.sol\":2358:2373  patient.phoneNo */\n      0x02\n      add\n        /* \"contracts/_Database5.sol\":2358:2384  patient.phoneNo = _phoneNo */\n      swap1\n      dup2\n      tag_224\n      swap2\n      swap1\n      tag_95\n      jump\t// in\n    tag_224:\n      pop\n        /* \"contracts/_Database5.sol\":2423:2441  _specialConditions */\n      dup3\n        /* \"contracts/_Database5.sol\":2395:2402  patient */\n      dup2\n        /* \"contracts/_Database5.sol\":2395:2420  patient.specialConditions */\n      0x03\n      add\n        /* \"contracts/_Database5.sol\":2395:2441  patient.specialConditions = _specialConditions */\n      swap1\n      dup2\n      tag_225\n      swap2\n      swap1\n      tag_95\n      jump\t// in\n    tag_225:\n      pop\n        /* \"contracts/_Database5.sol\":2473:2484  _bloodGroup */\n      dup2\n        /* \"contracts/_Database5.sol\":2452:2459  patient */\n      dup2\n        /* \"contracts/_Database5.sol\":2452:2470  patient.bloodGroup */\n      0x04\n      add\n        /* \"contracts/_Database5.sol\":2452:2484  patient.bloodGroup = _bloodGroup */\n      swap1\n      dup2\n      tag_226\n      swap2\n      swap1\n      tag_95\n      jump\t// in\n    tag_226:\n      pop\n        /* \"contracts/_Database5.sol\":2237:2492  {... */\n      pop\n        /* \"contracts/_Database5.sol\":2004:2492  function addPatient(... */\n      pop\n      pop\n      pop\n      pop\n      pop\n      pop\n      jump\t// out\n        /* \"contracts/_Database5.sol\":4584:5040  function getPatientInfo(... */\n    tag_71:\n        /* \"contracts/_Database5.sol\":4768:4781  string memory */\n      0x60\n        /* \"contracts/_Database5.sol\":4796:4809  string memory */\n      dup1\n        /* \"contracts/_Database5.sol\":4824:4837  string memory */\n      0x60\n        /* \"contracts/_Database5.sol\":4865:4888  Patient storage patient */\n      0x00\n        /* \"contracts/_Database5.sol\":4891:4899  patients */\n      dup1\n        /* \"contracts/_Database5.sol\":4900:4905  _p_id */\n      dup8\n        /* \"contracts/_Database5.sol\":4891:4906  patients[_p_id] */\n      mload(0x40)\n      tag_228\n      swap2\n      swap1\n      tag_93\n      jump\t// in\n    tag_228:\n      swap1\n      dup2\n      mstore\n      0x20\n      add\n      mload(0x40)\n      dup1\n      swap2\n      sub\n      swap1\n      keccak256\n        /* \"contracts/_Database5.sol\":4865:4906  Patient storage patient = patients[_p_id] */\n      swap1\n      pop\n        /* \"contracts/_Database5.sol\":4927:4934  patient */\n      dup1\n        /* \"contracts/_Database5.sol\":4927:4939  patient.name */\n      0x00\n      add\n        /* \"contracts/_Database5.sol\":4941:4959  _specialConditions */\n      dup6\n        /* \"contracts/_Database5.sol\":4941:4992  _specialConditions ? patient.specialConditions : \"\" */\n      tag_229\n      jumpi\n      mload(0x40)\n      dup1\n      0x20\n      add\n      0x40\n      mstore\n      dup1\n      0x00\n      dup2\n      mstore\n      pop\n      jump(tag_230)\n    tag_229:\n        /* \"contracts/_Database5.sol\":4962:4969  patient */\n      dup2\n        /* \"contracts/_Database5.sol\":4962:4987  patient.specialConditions */\n      0x03\n      add\n        /* \"contracts/_Database5.sol\":4941:4992  _specialConditions ? patient.specialConditions : \"\" */\n      dup1\n      sload\n      tag_231\n      swap1\n      tag_114\n      jump\t// in\n    tag_231:\n      dup1\n      0x1f\n      add\n      0x20\n      dup1\n      swap2\n      div\n      mul\n      0x20\n      add\n      mload(0x40)\n      swap1\n      dup2\n      add\n      0x40\n      mstore\n      dup1\n      swap3\n      swap2\n      swap1\n      dup2\n      dup2\n      mstore\n      0x20\n      add\n      dup3\n      dup1\n      sload\n      tag_232\n      swap1\n      tag_114\n      jump\t// in\n    tag_232:\n      dup1\n      iszero\n      tag_233\n      jumpi\n      dup1\n      0x1f\n      lt\n      tag_234\n      jumpi\n      0x0100\n      dup1\n      dup4\n      sload\n      div\n      mul\n      dup4\n      mstore\n      swap2\n      0x20\n      add\n      swap2\n      jump(tag_233)\n    tag_234:\n      dup3\n      add\n      swap2\n      swap1\n      0x00\n      mstore\n      keccak256(0x00, 0x20)\n      swap1\n    tag_235:\n      dup2\n      sload\n      dup2\n      mstore\n      swap1\n      0x01\n      add\n      swap1\n      0x20\n      add\n      dup1\n      dup4\n      gt\n      tag_235\n      jumpi\n      dup3\n      swap1\n      sub\n      0x1f\n      and\n      dup3\n      add\n      swap2\n    tag_233:\n      pop\n      pop\n      pop\n      pop\n      pop\n    tag_230:\n        /* \"contracts/_Database5.sol\":4994:5005  _bloodGroup */\n      dup8\n        /* \"contracts/_Database5.sol\":4994:5031  _bloodGroup ? patient.bloodGroup : \"\" */\n      tag_236\n      jumpi\n      mload(0x40)\n      dup1\n      0x20\n      add\n      0x40\n      mstore\n      dup1\n      0x00\n      dup2\n      mstore\n      pop\n      jump(tag_237)\n    tag_236:\n        /* \"contracts/_Database5.sol\":5008:5015  patient */\n      dup3\n        /* \"contracts/_Database5.sol\":5008:5026  patient.bloodGroup */\n      0x04\n      add\n        /* \"contracts/_Database5.sol\":4994:5031  _bloodGroup ? patient.bloodGroup : \"\" */\n      dup1\n      sload\n      tag_238\n      swap1\n      tag_114\n      jump\t// in\n    tag_238:\n      dup1\n      0x1f\n      add\n      0x20\n      dup1\n      swap2\n      div\n      mul\n      0x20\n      add\n      mload(0x40)\n      swap1\n      dup2\n      add\n      0x40\n      mstore\n      dup1\n      swap3\n      swap2\n      swap1\n      dup2\n      dup2\n      mstore\n      0x20\n      add\n      dup3\n      dup1\n      sload\n      tag_239\n      swap1\n      tag_114\n      jump\t// in\n    tag_239:\n      dup1\n      iszero\n      tag_240\n      jumpi\n      dup1\n      0x1f\n      lt\n      tag_241\n      jumpi\n      0x0100\n      dup1\n      dup4\n      sload\n      div\n      mul\n      dup4\n      mstore\n      swap2\n      0x20\n      add\n      swap2\n      jump(tag_240)\n    tag_241:\n      dup3\n      add\n      swap2\n      swap1\n      0x00\n      mstore\n      keccak256(0x00, 0x20)\n      swap1\n    tag_242:\n      dup2\n      sload\n      dup2\n      mstore\n      swap1\n      0x01\n      add\n      swap1\n      0x20\n      add\n      dup1\n      dup4\n      gt\n      tag_242\n      jumpi\n      dup3\n      swap1\n      sub\n      0x1f\n      and\n      dup3\n      add\n      swap2\n    tag_240:\n      pop\n      pop\n      pop\n      pop\n      pop\n    tag_237:\n        /* \"contracts/_Database5.sol\":4919:5032  return (patient.name, _specialConditions ? patient.specialConditions : \"\", _bloodGroup ? patient.bloodGroup : \"\") */\n      dup3\n      dup1\n      sload\n      tag_243\n      swap1\n      tag_114\n      jump\t// in\n    tag_243:\n      dup1\n      0x1f\n      add\n      0x20\n      dup1\n      swap2\n      div\n      mul\n      0x20\n      add\n      mload(0x40)\n      swap1\n      dup2\n      add\n      0x40\n      mstore\n      dup1\n      swap3\n      swap2\n      swap1\n      dup2\n      dup2\n      mstore\n      0x20\n      add\n      dup3\n      dup1\n      sload\n      tag_244\n      swap1\n      tag_114\n      jump\t// in\n    tag_244:\n      dup1\n      iszero\n      tag_245\n      jumpi\n      dup1\n      0x1f\n      lt\n      tag_246\n      jumpi\n      0x0100\n      dup1\n      dup4\n      sload\n      div\n      mul\n      dup4\n      mstore\n      swap2\n      0x20\n      add\n      swap2\n      jump(tag_245)\n    tag_246:\n      dup3\n      add\n      swap2\n      swap1\n      0x00\n      mstore\n      keccak256(0x00, 0x20)\n      swap1\n    tag_247:\n      dup2\n      sload\n      dup2\n      mstore\n      swap1\n      0x01\n      add\n      swap1\n      0x20\n      add\n      dup1\n      dup4\n      gt\n      tag_247\n      jumpi\n      dup3\n      swap1\n      sub\n      0x1f\n      and\n      dup3\n      add\n      swap2\n    tag_245:\n      pop\n      pop\n      pop\n      pop\n      pop\n      swap3\n      pop\n      swap4\n      pop\n      swap4\n      pop\n      swap4\n      pop\n      pop\n        /* \"contracts/_Database5.sol\":4584:5040  function getPatientInfo(... */\n      swap4\n      pop\n      swap4\n      pop\n      swap4\n      swap1\n      pop\n      jump\t// out\n        /* \"contracts/_Database5.sol\":5484:5668  function getAllergies(string memory _p_id) public view returns (Allergies memory) {... */\n    tag_76:\n        /* \"contracts/_Database5.sol\":5548:5564  Allergies memory */\n      tag_248\n      tag_249\n      jump\t// in\n    tag_248:\n        /* \"contracts/_Database5.sol\":5577:5600  Patient storage patient */\n      0x00\n        /* \"contracts/_Database5.sol\":5603:5611  patients */\n      dup1\n        /* \"contracts/_Database5.sol\":5612:5617  _p_id */\n      dup4\n        /* \"contracts/_Database5.sol\":5603:5618  patients[_p_id] */\n      mload(0x40)\n      tag_251\n      swap2\n      swap1\n      tag_93\n      jump\t// in\n    tag_251:\n      swap1\n      dup2\n      mstore\n      0x20\n      add\n      mload(0x40)\n      dup1\n      swap2\n      sub\n      swap1\n      keccak256\n        /* \"contracts/_Database5.sol\":5577:5618  Patient storage patient = patients[_p_id] */\n      swap1\n      pop\n        /* \"contracts/_Database5.sol\":5636:5643  patient */\n      dup1\n        /* \"contracts/_Database5.sol\":5636:5653  patient.allergies */\n      0x05\n      add\n        /* \"contracts/_Database5.sol\":5654:5659  _p_id */\n      dup4\n        /* \"contracts/_Database5.sol\":5636:5660  patient.allergies[_p_id] */\n      mload(0x40)\n      tag_252\n      swap2\n      swap1\n      tag_93\n      jump\t// in\n    tag_252:\n      swap1\n      dup2\n      mstore\n      0x20\n      add\n      mload(0x40)\n      dup1\n      swap2\n      sub\n      swap1\n      keccak256\n        /* \"contracts/_Database5.sol\":5629:5660  return patient.allergies[_p_id] */\n      mload(0x40)\n      dup1\n      0x60\n      add\n      0x40\n      mstore\n      swap1\n      dup2\n      0x00\n      dup3\n      add\n      dup1\n      sload\n      dup1\n      0x20\n      mul\n      0x20\n      add\n      mload(0x40)\n      swap1\n      dup2\n      add\n      0x40\n      mstore\n      dup1\n      swap3\n      swap2\n      swap1\n      dup2\n      dup2\n      mstore\n      0x20\n      add\n      0x00\n      swap1\n    tag_253:\n      dup3\n      dup3\n      lt\n      iszero\n      tag_254\n      jumpi\n      dup4\n      dup3\n      swap1\n      0x00\n      mstore\n      keccak256(0x00, 0x20)\n      add\n      dup1\n      sload\n      tag_256\n      swap1\n      tag_114\n      jump\t// in\n    tag_256:\n      dup1\n      0x1f\n      add\n      0x20\n      dup1\n      swap2\n      div\n      mul\n      0x20\n      add\n      mload(0x40)\n      swap1\n      dup2\n      add\n      0x40\n      mstore\n      dup1\n      swap3\n      swap2\n      swap1\n      dup2\n      dup2\n      mstore\n      0x20\n      add\n      dup3\n      dup1\n      sload\n      tag_257\n      swap1\n      tag_114\n      jump\t// in\n    tag_257:\n      dup1\n      iszero\n      tag_258\n      jumpi\n      dup1\n      0x1f\n      lt\n      tag_259\n      jumpi\n      0x0100\n      dup1\n      dup4\n      sload\n      div\n      mul\n      dup4\n      mstore\n      swap2\n      0x20\n      add\n      swap2\n      jump(tag_258)\n    tag_259:\n      dup3\n      add\n      swap2\n      swap1\n      0x00\n      mstore\n      keccak256(0x00, 0x20)\n      swap1\n    tag_260:\n      dup2\n      sload\n      dup2\n      mstore\n      swap1\n      0x01\n      add\n      swap1\n      0x20\n      add\n      dup1\n      dup4\n      gt\n      tag_260\n      jumpi\n      dup3\n      swap1\n      sub\n      0x1f\n      and\n      dup3\n      add\n      swap2\n    tag_258:\n      pop\n      pop\n      pop\n      pop\n      pop\n      dup2\n      mstore\n      0x20\n      add\n      swap1\n      0x01\n      add\n      swap1\n      jump(tag_253)\n    tag_254:\n      pop\n      pop\n      pop\n      pop\n      dup2\n      mstore\n      0x20\n      add\n      0x01\n      dup3\n      add\n      dup1\n      sload\n      dup1\n      0x20\n      mul\n      0x20\n      add\n      mload(0x40)\n      swap1\n      dup2\n      add\n      0x40\n      mstore\n      dup1\n      swap3\n      swap2\n      swap1\n      dup2\n      dup2\n      mstore\n      0x20\n      add\n      0x00\n      swap1\n    tag_261:\n      dup3\n      dup3\n      lt\n      iszero\n      tag_262\n      jumpi\n      dup4\n      dup3\n      swap1\n      0x00\n      mstore\n      keccak256(0x00, 0x20)\n      add\n      dup1\n      sload\n      tag_264\n      swap1\n      tag_114\n      jump\t// in\n    tag_264:\n      dup1\n      0x1f\n      add\n      0x20\n      dup1\n      swap2\n      div\n      mul\n      0x20\n      add\n      mload(0x40)\n      swap1\n      dup2\n      add\n      0x40\n      mstore\n      dup1\n      swap3\n      swap2\n      swap1\n      dup2\n      dup2\n      mstore\n      0x20\n      add\n      dup3\n      dup1\n      sload\n      tag_265\n      swap1\n      tag_114\n      jump\t// in\n    tag_265:\n      dup1\n      iszero\n      tag_266\n      jumpi\n      dup1\n      0x1f\n      lt\n      tag_267\n      jumpi\n      0x0100\n      dup1\n      dup4\n      sload\n      div\n      mul\n      dup4\n      mstore\n      swap2\n      0x20\n      add\n      swap2\n      jump(tag_266)\n    tag_267:\n      dup3\n      add\n      swap2\n      swap1\n      0x00\n      mstore\n      keccak256(0x00, 0x20)\n      swap1\n    tag_268:\n      dup2\n      sload\n      dup2\n      mstore\n      swap1\n      0x01\n      add\n      swap1\n      0x20\n      add\n      dup1\n      dup4\n      gt\n      tag_268\n      jumpi\n      dup3\n      swap1\n      sub\n      0x1f\n      and\n      dup3\n      add\n      swap2\n    tag_266:\n      pop\n      pop\n      pop\n      pop\n      pop\n      dup2\n      mstore\n      0x20\n      add\n      swap1\n      0x01\n      add\n      swap1\n      jump(tag_261)\n    tag_262:\n      pop\n      pop\n      pop\n      pop\n      dup2\n      mstore\n      0x20\n      add\n      0x02\n      dup3\n      add\n      dup1\n      sload\n      dup1\n      0x20\n      mul\n      0x20\n      add\n      mload(0x40)\n      swap1\n      dup2\n      add\n      0x40\n      mstore\n      dup1\n      swap3\n      swap2\n      swap1\n      dup2\n      dup2\n      mstore\n      0x20\n      add\n      0x00\n      swap1\n    tag_269:\n      dup3\n      dup3\n      lt\n      iszero\n      tag_270\n      jumpi\n      dup4\n      dup3\n      swap1\n      0x00\n      mstore\n      keccak256(0x00, 0x20)\n      add\n      dup1\n      sload\n      tag_272\n      swap1\n      tag_114\n      jump\t// in\n    tag_272:\n      dup1\n      0x1f\n      add\n      0x20\n      dup1\n      swap2\n      div\n      mul\n      0x20\n      add\n      mload(0x40)\n      swap1\n      dup2\n      add\n      0x40\n      mstore\n      dup1\n      swap3\n      swap2\n      swap1\n      dup2\n      dup2\n      mstore\n      0x20\n      add\n      dup3\n      dup1\n      sload\n      tag_273\n      swap1\n      tag_114\n      jump\t// in\n    tag_273:\n      dup1\n      iszero\n      tag_274\n      jumpi\n      dup1\n      0x1f\n      lt\n      tag_275\n      jumpi\n      0x0100\n      dup1\n      dup4\n      sload\n      div\n      mul\n      dup4\n      mstore\n      swap2\n      0x20\n      add\n      swap2\n      jump(tag_274)\n    tag_275:\n      dup3\n      add\n      swap2\n      swap1\n      0x00\n      mstore\n      keccak256(0x00, 0x20)\n      swap1\n    tag_276:\n      dup2\n      sload\n      dup2\n      mstore\n      swap1\n      0x01\n      add\n      swap1\n      0x20\n      add\n      dup1\n      dup4\n      gt\n      tag_276\n      jumpi\n      dup3\n      swap1\n      sub\n      0x1f\n      and\n      dup3\n      add\n      swap2\n    tag_274:\n      pop\n      pop\n      pop\n      pop\n      pop\n      dup2\n      mstore\n      0x20\n      add\n      swap1\n      0x01\n      add\n      swap1\n      jump(tag_269)\n    tag_270:\n      pop\n      pop\n      pop\n      pop\n      dup2\n      mstore\n      pop\n      pop\n      swap2\n      pop\n      pop\n        /* \"contracts/_Database5.sol\":5484:5668  function getAllergies(string memory _p_id) public view returns (Allergies memory) {... */\n      swap2\n      swap1\n      pop\n      jump\t// out\n        /* \"contracts/_Database5.sol\":3750:4175  function updateBloodPressure(... */\n    tag_82:\n        /* \"contracts/_Database5.sol\":3930:3953  Patient storage patient */\n      0x00\n        /* \"contracts/_Database5.sol\":3956:3964  patients */\n      dup1\n        /* \"contracts/_Database5.sol\":3965:3970  _p_id */\n      dup7\n        /* \"contracts/_Database5.sol\":3956:3971  patients[_p_id] */\n      mload(0x40)\n      tag_278\n      swap2\n      swap1\n      tag_93\n      jump\t// in\n    tag_278:\n      swap1\n      dup2\n      mstore\n      0x20\n      add\n      mload(0x40)\n      dup1\n      swap2\n      sub\n      swap1\n      keccak256\n        /* \"contracts/_Database5.sol\":3930:3971  Patient storage patient = patients[_p_id] */\n      swap1\n      pop\n        /* \"contracts/_Database5.sol\":3982:4008  uint256 bloodPressureIndex */\n      0x00\n        /* \"contracts/_Database5.sol\":4011:4018  patient */\n      dup2\n        /* \"contracts/_Database5.sol\":4011:4037  patient.bloodPressureCount */\n      0x09\n      add\n      sload\n        /* \"contracts/_Database5.sol\":3982:4037  uint256 bloodPressureIndex = patient.bloodPressureCount */\n      swap1\n      pop\n        /* \"contracts/_Database5.sol\":4093:4128  BloodPressure(_date, _SP, _DP, _HB) */\n      mload(0x40)\n      dup1\n      0x80\n      add\n      0x40\n      mstore\n      dup1\n        /* \"contracts/_Database5.sol\":4107:4112  _date */\n      dup8\n        /* \"contracts/_Database5.sol\":4093:4128  BloodPressure(_date, _SP, _DP, _HB) */\n      dup2\n      mstore\n      0x20\n      add\n        /* \"contracts/_Database5.sol\":4114:4117  _SP */\n      dup7\n        /* \"contracts/_Database5.sol\":4093:4128  BloodPressure(_date, _SP, _DP, _HB) */\n      dup2\n      mstore\n      0x20\n      add\n        /* \"contracts/_Database5.sol\":4119:4122  _DP */\n      dup6\n        /* \"contracts/_Database5.sol\":4093:4128  BloodPressure(_date, _SP, _DP, _HB) */\n      dup2\n      mstore\n      0x20\n      add\n        /* \"contracts/_Database5.sol\":4124:4127  _HB */\n      dup5\n        /* \"contracts/_Database5.sol\":4093:4128  BloodPressure(_date, _SP, _DP, _HB) */\n      dup2\n      mstore\n      pop\n        /* \"contracts/_Database5.sol\":4048:4055  patient */\n      dup3\n        /* \"contracts/_Database5.sol\":4048:4070  patient.bloodPressures */\n      0x08\n      add\n        /* \"contracts/_Database5.sol\":4048:4090  patient.bloodPressures[bloodPressureIndex] */\n      0x00\n        /* \"contracts/_Database5.sol\":4071:4089  bloodPressureIndex */\n      dup4\n        /* \"contracts/_Database5.sol\":4048:4090  patient.bloodPressures[bloodPressureIndex] */\n      dup2\n      mstore\n      0x20\n      add\n      swap1\n      dup2\n      mstore\n      0x20\n      add\n      0x00\n      keccak256\n        /* \"contracts/_Database5.sol\":4048:4128  patient.bloodPressures[bloodPressureIndex] = BloodPressure(_date, _SP, _DP, _HB) */\n      0x00\n      dup3\n      add\n      mload\n      dup2\n      0x00\n      add\n      swap1\n      dup2\n      tag_279\n      swap2\n      swap1\n      tag_95\n      jump\t// in\n    tag_279:\n      pop\n      0x20\n      dup3\n      add\n      mload\n      dup2\n      0x01\n      add\n      sstore\n      0x40\n      dup3\n      add\n      mload\n      dup2\n      0x02\n      add\n      sstore\n      0x60\n      dup3\n      add\n      mload\n      dup2\n      0x03\n      add\n      sstore\n      swap1\n      pop\n      pop\n        /* \"contracts/_Database5.sol\":4139:4146  patient */\n      dup2\n        /* \"contracts/_Database5.sol\":4139:4165  patient.bloodPressureCount */\n      0x09\n      add\n      0x00\n        /* \"contracts/_Database5.sol\":4139:4167  patient.bloodPressureCount++ */\n      dup2\n      sload\n      dup1\n      swap3\n      swap2\n      swap1\n      tag_280\n      swap1\n      tag_100\n      jump\t// in\n    tag_280:\n      swap2\n      swap1\n      pop\n      sstore\n      pop\n        /* \"contracts/_Database5.sol\":3919:4175  {... */\n      pop\n      pop\n        /* \"contracts/_Database5.sol\":3750:4175  function updateBloodPressure(... */\n      pop\n      pop\n      pop\n      pop\n      pop\n      jump\t// out\n    tag_109:\n      mload(0x40)\n      dup1\n      0x40\n      add\n      0x40\n      mstore\n      dup1\n      0x60\n      dup2\n      mstore\n      0x20\n      add\n      0x60\n      dup2\n      mstore\n      pop\n      swap1\n      jump\t// out\n    tag_141:\n      dup3\n      dup1\n      sload\n      dup3\n      dup3\n      sstore\n      swap1\n      0x00\n      mstore\n      keccak256(0x00, 0x20)\n      swap1\n      dup2\n      add\n      swap3\n      dup3\n      iszero\n      tag_281\n      jumpi\n      swap2\n      0x20\n      mul\n      dup3\n      add\n    tag_282:\n      dup3\n      dup2\n      gt\n      iszero\n      tag_283\n      jumpi\n      dup3\n      mload\n      dup3\n      swap1\n      dup2\n      tag_284\n      swap2\n      swap1\n      tag_95\n      jump\t// in\n    tag_284:\n      pop\n      swap2\n      0x20\n      add\n      swap2\n      swap1\n      0x01\n      add\n      swap1\n      jump(tag_282)\n    tag_283:\n    tag_281:\n      pop\n      swap1\n      pop\n      tag_285\n      swap2\n      swap1\n      tag_286\n      jump\t// in\n    tag_285:\n      pop\n      swap1\n      jump\t// out\n    tag_155:\n      mload(0x40)\n      dup1\n      0x80\n      add\n      0x40\n      mstore\n      dup1\n      0x60\n      dup2\n      mstore\n      0x20\n      add\n      0x00\n      dup2\n      mstore\n      0x20\n      add\n      0x00\n      dup2\n      mstore\n      0x20\n      add\n      0x00\n      dup2\n      mstore\n      pop\n      swap1\n      jump\t// out\n    tag_174:\n      mload(0x40)\n      dup1\n      0x80\n      add\n      0x40\n      mstore\n      dup1\n      0x60\n      dup2\n      mstore\n      0x20\n      add\n      iszero(iszero(0x00))\n      dup2\n      mstore\n      0x20\n      add\n      iszero(iszero(0x00))\n      dup2\n      mstore\n      0x20\n      add\n      0x00\n      dup2\n      mstore\n      pop\n      swap1\n      jump\t// out\n    tag_193:\n      mload(0x40)\n      dup1\n      0xe0\n      add\n      0x40\n      mstore\n      dup1\n      0x60\n      dup2\n      mstore\n      0x20\n      add\n      0x60\n      dup2\n      mstore\n      0x20\n      add\n      iszero(iszero(0x00))\n      dup2\n      mstore\n      0x20\n      add\n      iszero(iszero(0x00))\n      dup2\n      mstore\n      0x20\n      add\n      iszero(iszero(0x00))\n      dup2\n      mstore\n      0x20\n      add\n      0x60\n      dup2\n      mstore\n      0x20\n      add\n      0x60\n      dup2\n      mstore\n      pop\n      swap1\n      jump\t// out\n    tag_249:\n      mload(0x40)\n      dup1\n      0x60\n      add\n      0x40\n      mstore\n      dup1\n      0x60\n      dup2\n      mstore\n      0x20\n      add\n      0x60\n      dup2\n      mstore\n      0x20\n      add\n      0x60\n      dup2\n      mstore\n      pop\n      swap1\n      jump\t// out\n    tag_286:\n    tag_287:\n      dup1\n      dup3\n      gt\n      iszero\n      tag_288\n      jumpi\n      0x00\n      dup2\n      dup2\n      tag_289\n      swap2\n      swap1\n      tag_290\n      jump\t// in\n    tag_289:\n      pop\n      0x01\n      add\n      jump(tag_287)\n    tag_288:\n      pop\n      swap1\n      jump\t// out\n    tag_290:\n      pop\n      dup1\n      sload\n      tag_291\n      swap1\n      tag_114\n      jump\t// in\n    tag_291:\n      0x00\n      dup3\n      sstore\n      dup1\n      0x1f\n      lt\n      tag_293\n      jumpi\n      pop\n      jump(tag_292)\n    tag_293:\n      0x1f\n      add\n      0x20\n      swap1\n      div\n      swap1\n      0x00\n      mstore\n      keccak256(0x00, 0x20)\n      swap1\n      dup2\n      add\n      swap1\n      tag_294\n      swap2\n      swap1\n      tag_295\n      jump\t// in\n    tag_294:\n    tag_292:\n      pop\n      jump\t// out\n    tag_295:\n    tag_296:\n      dup1\n      dup3\n      gt\n      iszero\n      tag_297\n      jumpi\n      0x00\n      dup2\n      0x00\n      swap1\n      sstore\n      pop\n      0x01\n      add\n      jump(tag_296)\n    tag_297:\n      pop\n      swap1\n      jump\t// out\n        /* \"#utility.yul\":7:82   */\n    tag_298:\n        /* \"#utility.yul\":40:46   */\n      0x00\n        /* \"#utility.yul\":73:75   */\n      0x40\n        /* \"#utility.yul\":67:76   */\n      mload\n        /* \"#utility.yul\":57:76   */\n      swap1\n      pop\n        /* \"#utility.yul\":7:82   */\n      swap1\n      jump\t// out\n        /* \"#utility.yul\":88:205   */\n    tag_299:\n        /* \"#utility.yul\":197:198   */\n      0x00\n        /* \"#utility.yul\":194:195   */\n      dup1\n        /* \"#utility.yul\":187:199   */\n      revert\n        /* \"#utility.yul\":211:328   */\n    tag_300:\n        /* \"#utility.yul\":320:321   */\n      0x00\n        /* \"#utility.yul\":317:318   */\n      dup1\n        /* \"#utility.yul\":310:322   */\n      revert\n        /* \"#utility.yul\":334:460   */\n    tag_301:\n        /* \"#utility.yul\":371:378   */\n      0x00\n        /* \"#utility.yul\":411:453   */\n      0xffffffffffffffffffffffffffffffffffffffff\n        /* \"#utility.yul\":404:409   */\n      dup3\n        /* \"#utility.yul\":400:454   */\n      and\n        /* \"#utility.yul\":389:454   */\n      swap1\n      pop\n        /* \"#utility.yul\":334:460   */\n      swap2\n      swap1\n      pop\n      jump\t// out\n        /* \"#utility.yul\":466:562   */\n    tag_302:\n        /* \"#utility.yul\":503:510   */\n      0x00\n        /* \"#utility.yul\":532:556   */\n      tag_396\n        /* \"#utility.yul\":550:555   */\n      dup3\n        /* \"#utility.yul\":532:556   */\n      tag_301\n      jump\t// in\n    tag_396:\n        /* \"#utility.yul\":521:556   */\n      swap1\n      pop\n        /* \"#utility.yul\":466:562   */\n      swap2\n      swap1\n      pop\n      jump\t// out\n        /* \"#utility.yul\":568:690   */\n    tag_303:\n        /* \"#utility.yul\":641:665   */\n      tag_398\n        /* \"#utility.yul\":659:664   */\n      dup2\n        /* \"#utility.yul\":641:665   */\n      tag_302\n      jump\t// in\n    tag_398:\n        /* \"#utility.yul\":634:639   */\n      dup2\n        /* \"#utility.yul\":631:666   */\n      eq\n        /* \"#utility.yul\":621:684   */\n      tag_399\n      jumpi\n        /* \"#utility.yul\":680:681   */\n      0x00\n        /* \"#utility.yul\":677:678   */\n      dup1\n        /* \"#utility.yul\":670:682   */\n      revert\n        /* \"#utility.yul\":621:684   */\n    tag_399:\n        /* \"#utility.yul\":568:690   */\n      pop\n      jump\t// out\n        /* \"#utility.yul\":696:835   */\n    tag_304:\n        /* \"#utility.yul\":742:747   */\n      0x00\n        /* \"#utility.yul\":780:786   */\n      dup2\n        /* \"#utility.yul\":767:787   */\n      calldataload\n        /* \"#utility.yul\":758:787   */\n      swap1\n      pop\n        /* \"#utility.yul\":796:829   */\n      tag_401\n        /* \"#utility.yul\":823:828   */\n      dup2\n        /* \"#utility.yul\":796:829   */\n      tag_303\n      jump\t// in\n    tag_401:\n        /* \"#utility.yul\":696:835   */\n      swap3\n      swap2\n      pop\n      pop\n      jump\t// out\n        /* \"#utility.yul\":841:1170   */\n    tag_22:\n        /* \"#utility.yul\":900:906   */\n      0x00\n        /* \"#utility.yul\":949:951   */\n      0x20\n        /* \"#utility.yul\":937:946   */\n      dup3\n        /* \"#utility.yul\":928:935   */\n      dup5\n        /* \"#utility.yul\":924:947   */\n      sub\n        /* \"#utility.yul\":920:952   */\n      slt\n        /* \"#utility.yul\":917:1036   */\n      iszero\n      tag_403\n      jumpi\n        /* \"#utility.yul\":955:1034   */\n      tag_404\n      tag_299\n      jump\t// in\n    tag_404:\n        /* \"#utility.yul\":917:1036   */\n    tag_403:\n        /* \"#utility.yul\":1075:1076   */\n      0x00\n        /* \"#utility.yul\":1100:1153   */\n      tag_405\n        /* \"#utility.yul\":1145:1152   */\n      dup5\n        /* \"#utility.yul\":1136:1142   */\n      dup3\n        /* \"#utility.yul\":1125:1134   */\n      dup6\n        /* \"#utility.yul\":1121:1143   */\n      add\n        /* \"#utility.yul\":1100:1153   */\n      tag_304\n      jump\t// in\n    tag_405:\n        /* \"#utility.yul\":1090:1153   */\n      swap2\n      pop\n        /* \"#utility.yul\":1046:1163   */\n      pop\n        /* \"#utility.yul\":841:1170   */\n      swap3\n      swap2\n      pop\n      pop\n      jump\t// out\n        /* \"#utility.yul\":1176:1293   */\n    tag_305:\n        /* \"#utility.yul\":1285:1286   */\n      0x00\n        /* \"#utility.yul\":1282:1283   */\n      dup1\n        /* \"#utility.yul\":1275:1287   */\n      revert\n        /* \"#utility.yul\":1299:1416   */\n    tag_306:\n        /* \"#utility.yul\":1408:1409   */\n      0x00\n        /* \"#utility.yul\":1405:1406   */\n      dup1\n        /* \"#utility.yul\":1398:1410   */\n      revert\n        /* \"#utility.yul\":1422:1524   */\n    tag_307:\n        /* \"#utility.yul\":1463:1469   */\n      0x00\n        /* \"#utility.yul\":1514:1516   */\n      0x1f\n        /* \"#utility.yul\":1510:1517   */\n      not\n        /* \"#utility.yul\":1505:1507   */\n      0x1f\n        /* \"#utility.yul\":1498:1503   */\n      dup4\n        /* \"#utility.yul\":1494:1508   */\n      add\n        /* \"#utility.yul\":1490:1518   */\n      and\n        /* \"#utility.yul\":1480:1518   */\n      swap1\n      pop\n        /* \"#utility.yul\":1422:1524   */\n      swap2\n      swap1\n      pop\n      jump\t// out\n        /* \"#utility.yul\":1530:1710   */\n    tag_105:\n        /* \"#utility.yul\":1578:1655   */\n      0x4e487b7100000000000000000000000000000000000000000000000000000000\n        /* \"#utility.yul\":1575:1576   */\n      0x00\n        /* \"#utility.yul\":1568:1656   */\n      mstore\n        /* \"#utility.yul\":1675:1679   */\n      0x41\n        /* \"#utility.yul\":1672:1673   */\n      0x04\n        /* \"#utility.yul\":1665:1680   */\n      mstore\n        /* \"#utility.yul\":1699:1703   */\n      0x24\n        /* \"#utility.yul\":1696:1697   */\n      0x00\n        /* \"#utility.yul\":1689:1704   */\n      revert\n        /* \"#utility.yul\":1716:1997   */\n    tag_308:\n        /* \"#utility.yul\":1799:1826   */\n      tag_411\n        /* \"#utility.yul\":1821:1825   */\n      dup3\n        /* \"#utility.yul\":1799:1826   */\n      tag_307\n      jump\t// in\n    tag_411:\n        /* \"#utility.yul\":1791:1797   */\n      dup2\n        /* \"#utility.yul\":1787:1827   */\n      add\n        /* \"#utility.yul\":1929:1935   */\n      dup2\n        /* \"#utility.yul\":1917:1927   */\n      dup2\n        /* \"#utility.yul\":1914:1936   */\n      lt\n        /* \"#utility.yul\":1893:1911   */\n      0xffffffffffffffff\n        /* \"#utility.yul\":1881:1891   */\n      dup3\n        /* \"#utility.yul\":1878:1912   */\n      gt\n        /* \"#utility.yul\":1875:1937   */\n      or\n        /* \"#utility.yul\":1872:1960   */\n      iszero\n      tag_412\n      jumpi\n        /* \"#utility.yul\":1940:1958   */\n      tag_413\n      tag_105\n      jump\t// in\n    tag_413:\n        /* \"#utility.yul\":1872:1960   */\n    tag_412:\n        /* \"#utility.yul\":1980:1990   */\n      dup1\n        /* \"#utility.yul\":1976:1978   */\n      0x40\n        /* \"#utility.yul\":1969:1991   */\n      mstore\n        /* \"#utility.yul\":1759:1997   */\n      pop\n        /* \"#utility.yul\":1716:1997   */\n      pop\n      pop\n      jump\t// out\n        /* \"#utility.yul\":2003:2132   */\n    tag_309:\n        /* \"#utility.yul\":2037:2043   */\n      0x00\n        /* \"#utility.yul\":2064:2084   */\n      tag_415\n      tag_298\n      jump\t// in\n    tag_415:\n        /* \"#utility.yul\":2054:2084   */\n      swap1\n      pop\n        /* \"#utility.yul\":2093:2126   */\n      tag_416\n        /* \"#utility.yul\":2121:2125   */\n      dup3\n        /* \"#utility.yul\":2113:2119   */\n      dup3\n        /* \"#utility.yul\":2093:2126   */\n      tag_308\n      jump\t// in\n    tag_416:\n        /* \"#utility.yul\":2003:2132   */\n      swap2\n      swap1\n      pop\n      jump\t// out\n        /* \"#utility.yul\":2138:2446   */\n    tag_310:\n        /* \"#utility.yul\":2200:2204   */\n      0x00\n        /* \"#utility.yul\":2290:2308   */\n      0xffffffffffffffff\n        /* \"#utility.yul\":2282:2288   */\n      dup3\n        /* \"#utility.yul\":2279:2309   */\n      gt\n        /* \"#utility.yul\":2276:2332   */\n      iszero\n      tag_418\n      jumpi\n        /* \"#utility.yul\":2312:2330   */\n      tag_419\n      tag_105\n      jump\t// in\n    tag_419:\n        /* \"#utility.yul\":2276:2332   */\n    tag_418:\n        /* \"#utility.yul\":2350:2379   */\n      tag_420\n        /* \"#utility.yul\":2372:2378   */\n      dup3\n        /* \"#utility.yul\":2350:2379   */\n      tag_307\n      jump\t// in\n    tag_420:\n        /* \"#utility.yul\":2342:2379   */\n      swap1\n      pop\n        /* \"#utility.yul\":2434:2438   */\n      0x20\n        /* \"#utility.yul\":2428:2432   */\n      dup2\n        /* \"#utility.yul\":2424:2439   */\n      add\n        /* \"#utility.yul\":2416:2439   */\n      swap1\n      pop\n        /* \"#utility.yul\":2138:2446   */\n      swap2\n      swap1\n      pop\n      jump\t// out\n        /* \"#utility.yul\":2452:2598   */\n    tag_311:\n        /* \"#utility.yul\":2549:2555   */\n      dup3\n        /* \"#utility.yul\":2544:2547   */\n      dup2\n        /* \"#utility.yul\":2539:2542   */\n      dup4\n        /* \"#utility.yul\":2526:2556   */\n      calldatacopy\n        /* \"#utility.yul\":2590:2591   */\n      0x00\n        /* \"#utility.yul\":2581:2587   */\n      dup4\n        /* \"#utility.yul\":2576:2579   */\n      dup4\n        /* \"#utility.yul\":2572:2588   */\n      add\n        /* \"#utility.yul\":2565:2592   */\n      mstore\n        /* \"#utility.yul\":2452:2598   */\n      pop\n      pop\n      pop\n      jump\t// out\n        /* \"#utility.yul\":2604:3029   */\n    tag_312:\n        /* \"#utility.yul\":2682:2687   */\n      0x00\n        /* \"#utility.yul\":2707:2773   */\n      tag_423\n        /* \"#utility.yul\":2723:2772   */\n      tag_424\n        /* \"#utility.yul\":2765:2771   */\n      dup5\n        /* \"#utility.yul\":2723:2772   */\n      tag_310\n      jump\t// in\n    tag_424:\n        /* \"#utility.yul\":2707:2773   */\n      tag_309\n      jump\t// in\n    tag_423:\n        /* \"#utility.yul\":2698:2773   */\n      swap1\n      pop\n        /* \"#utility.yul\":2796:2802   */\n      dup3\n        /* \"#utility.yul\":2789:2794   */\n      dup2\n        /* \"#utility.yul\":2782:2803   */\n      mstore\n        /* \"#utility.yul\":2834:2838   */\n      0x20\n        /* \"#utility.yul\":2827:2832   */\n      dup2\n        /* \"#utility.yul\":2823:2839   */\n      add\n        /* \"#utility.yul\":2872:2875   */\n      dup5\n        /* \"#utility.yul\":2863:2869   */\n      dup5\n        /* \"#utility.yul\":2858:2861   */\n      dup5\n        /* \"#utility.yul\":2854:2870   */\n      add\n        /* \"#utility.yul\":2851:2876   */\n      gt\n        /* \"#utility.yul\":2848:2960   */\n      iszero\n      tag_425\n      jumpi\n        /* \"#utility.yul\":2879:2958   */\n      tag_426\n      tag_306\n      jump\t// in\n    tag_426:\n        /* \"#utility.yul\":2848:2960   */\n    tag_425:\n        /* \"#utility.yul\":2969:3023   */\n      tag_427\n        /* \"#utility.yul\":3016:3022   */\n      dup5\n        /* \"#utility.yul\":3011:3014   */\n      dup3\n        /* \"#utility.yul\":3006:3009   */\n      dup6\n        /* \"#utility.yul\":2969:3023   */\n      tag_311\n      jump\t// in\n    tag_427:\n        /* \"#utility.yul\":2688:3029   */\n      pop\n        /* \"#utility.yul\":2604:3029   */\n      swap4\n      swap3\n      pop\n      pop\n      pop\n      jump\t// out\n        /* \"#utility.yul\":3049:3389   */\n    tag_313:\n        /* \"#utility.yul\":3105:3110   */\n      0x00\n        /* \"#utility.yul\":3154:3157   */\n      dup3\n        /* \"#utility.yul\":3147:3151   */\n      0x1f\n        /* \"#utility.yul\":3139:3145   */\n      dup4\n        /* \"#utility.yul\":3135:3152   */\n      add\n        /* \"#utility.yul\":3131:3158   */\n      slt\n        /* \"#utility.yul\":3121:3243   */\n      tag_429\n      jumpi\n        /* \"#utility.yul\":3162:3241   */\n      tag_430\n      tag_305\n      jump\t// in\n    tag_430:\n        /* \"#utility.yul\":3121:3243   */\n    tag_429:\n        /* \"#utility.yul\":3279:3285   */\n      dup2\n        /* \"#utility.yul\":3266:3286   */\n      calldataload\n        /* \"#utility.yul\":3304:3383   */\n      tag_431\n        /* \"#utility.yul\":3379:3382   */\n      dup5\n        /* \"#utility.yul\":3371:3377   */\n      dup3\n        /* \"#utility.yul\":3364:3368   */\n      0x20\n        /* \"#utility.yul\":3356:3362   */\n      dup7\n        /* \"#utility.yul\":3352:3369   */\n      add\n        /* \"#utility.yul\":3304:3383   */\n      tag_312\n      jump\t// in\n    tag_431:\n        /* \"#utility.yul\":3295:3383   */\n      swap2\n      pop\n        /* \"#utility.yul\":3111:3389   */\n      pop\n        /* \"#utility.yul\":3049:3389   */\n      swap3\n      swap2\n      pop\n      pop\n      jump\t// out\n        /* \"#utility.yul\":3395:3485   */\n    tag_314:\n        /* \"#utility.yul\":3429:3436   */\n      0x00\n        /* \"#utility.yul\":3472:3477   */\n      dup2\n        /* \"#utility.yul\":3465:3478   */\n      iszero\n        /* \"#utility.yul\":3458:3479   */\n      iszero\n        /* \"#utility.yul\":3447:3479   */\n      swap1\n      pop\n        /* \"#utility.yul\":3395:3485   */\n      swap2\n      swap1\n      pop\n      jump\t// out\n        /* \"#utility.yul\":3491:3607   */\n    tag_315:\n        /* \"#utility.yul\":3561:3582   */\n      tag_434\n        /* \"#utility.yul\":3576:3581   */\n      dup2\n        /* \"#utility.yul\":3561:3582   */\n      tag_314\n      jump\t// in\n    tag_434:\n        /* \"#utility.yul\":3554:3559   */\n      dup2\n        /* \"#utility.yul\":3551:3583   */\n      eq\n        /* \"#utility.yul\":3541:3601   */\n      tag_435\n      jumpi\n        /* \"#utility.yul\":3597:3598   */\n      0x00\n        /* \"#utility.yul\":3594:3595   */\n      dup1\n        /* \"#utility.yul\":3587:3599   */\n      revert\n        /* \"#utility.yul\":3541:3601   */\n    tag_435:\n        /* \"#utility.yul\":3491:3607   */\n      pop\n      jump\t// out\n        /* \"#utility.yul\":3613:3746   */\n    tag_316:\n        /* \"#utility.yul\":3656:3661   */\n      0x00\n        /* \"#utility.yul\":3694:3700   */\n      dup2\n        /* \"#utility.yul\":3681:3701   */\n      calldataload\n        /* \"#utility.yul\":3672:3701   */\n      swap1\n      pop\n        /* \"#utility.yul\":3710:3740   */\n      tag_437\n        /* \"#utility.yul\":3734:3739   */\n      dup2\n        /* \"#utility.yul\":3710:3740   */\n      tag_315\n      jump\t// in\n    tag_437:\n        /* \"#utility.yul\":3613:3746   */\n      swap3\n      swap2\n      pop\n      pop\n      jump\t// out\n        /* \"#utility.yul\":3752:5983   */\n    tag_26:\n        /* \"#utility.yul\":3915:3921   */\n      0x00\n        /* \"#utility.yul\":3923:3929   */\n      dup1\n        /* \"#utility.yul\":3931:3937   */\n      0x00\n        /* \"#utility.yul\":3939:3945   */\n      dup1\n        /* \"#utility.yul\":3947:3953   */\n      0x00\n        /* \"#utility.yul\":3955:3961   */\n      dup1\n        /* \"#utility.yul\":3963:3969   */\n      0x00\n        /* \"#utility.yul\":3971:3977   */\n      dup1\n        /* \"#utility.yul\":4020:4023   */\n      0x0100\n        /* \"#utility.yul\":4008:4017   */\n      dup10\n        /* \"#utility.yul\":3999:4006   */\n      dup12\n        /* \"#utility.yul\":3995:4018   */\n      sub\n        /* \"#utility.yul\":3991:4024   */\n      slt\n        /* \"#utility.yul\":3988:4108   */\n      iszero\n      tag_439\n      jumpi\n        /* \"#utility.yul\":4027:4106   */\n      tag_440\n      tag_299\n      jump\t// in\n    tag_440:\n        /* \"#utility.yul\":3988:4108   */\n    tag_439:\n        /* \"#utility.yul\":4175:4176   */\n      0x00\n        /* \"#utility.yul\":4164:4173   */\n      dup10\n        /* \"#utility.yul\":4160:4177   */\n      add\n        /* \"#utility.yul\":4147:4178   */\n      calldataload\n        /* \"#utility.yul\":4205:4223   */\n      0xffffffffffffffff\n        /* \"#utility.yul\":4197:4203   */\n      dup2\n        /* \"#utility.yul\":4194:4224   */\n      gt\n        /* \"#utility.yul\":4191:4308   */\n      iszero\n      tag_441\n      jumpi\n        /* \"#utility.yul\":4227:4306   */\n      tag_442\n      tag_300\n      jump\t// in\n    tag_442:\n        /* \"#utility.yul\":4191:4308   */\n    tag_441:\n        /* \"#utility.yul\":4332:4395   */\n      tag_443\n        /* \"#utility.yul\":4387:4394   */\n      dup12\n        /* \"#utility.yul\":4378:4384   */\n      dup3\n        /* \"#utility.yul\":4367:4376   */\n      dup13\n        /* \"#utility.yul\":4363:4385   */\n      add\n        /* \"#utility.yul\":4332:4395   */\n      tag_313\n      jump\t// in\n    tag_443:\n        /* \"#utility.yul\":4322:4395   */\n      swap9\n      pop\n        /* \"#utility.yul\":4118:4405   */\n      pop\n        /* \"#utility.yul\":4472:4474   */\n      0x20\n        /* \"#utility.yul\":4461:4470   */\n      dup10\n        /* \"#utility.yul\":4457:4475   */\n      add\n        /* \"#utility.yul\":4444:4476   */\n      calldataload\n        /* \"#utility.yul\":4503:4521   */\n      0xffffffffffffffff\n        /* \"#utility.yul\":4495:4501   */\n      dup2\n        /* \"#utility.yul\":4492:4522   */\n      gt\n        /* \"#utility.yul\":4489:4606   */\n      iszero\n      tag_444\n      jumpi\n        /* \"#utility.yul\":4525:4604   */\n      tag_445\n      tag_300\n      jump\t// in\n    tag_445:\n        /* \"#utility.yul\":4489:4606   */\n    tag_444:\n        /* \"#utility.yul\":4630:4693   */\n      tag_446\n        /* \"#utility.yul\":4685:4692   */\n      dup12\n        /* \"#utility.yul\":4676:4682   */\n      dup3\n        /* \"#utility.yul\":4665:4674   */\n      dup13\n        /* \"#utility.yul\":4661:4683   */\n      add\n        /* \"#utility.yul\":4630:4693   */\n      tag_313\n      jump\t// in\n    tag_446:\n        /* \"#utility.yul\":4620:4693   */\n      swap8\n      pop\n        /* \"#utility.yul\":4415:4703   */\n      pop\n        /* \"#utility.yul\":4770:4772   */\n      0x40\n        /* \"#utility.yul\":4759:4768   */\n      dup10\n        /* \"#utility.yul\":4755:4773   */\n      add\n        /* \"#utility.yul\":4742:4774   */\n      calldataload\n        /* \"#utility.yul\":4801:4819   */\n      0xffffffffffffffff\n        /* \"#utility.yul\":4793:4799   */\n      dup2\n        /* \"#utility.yul\":4790:4820   */\n      gt\n        /* \"#utility.yul\":4787:4904   */\n      iszero\n      tag_447\n      jumpi\n        /* \"#utility.yul\":4823:4902   */\n      tag_448\n      tag_300\n      jump\t// in\n    tag_448:\n        /* \"#utility.yul\":4787:4904   */\n    tag_447:\n        /* \"#utility.yul\":4928:4991   */\n      tag_449\n        /* \"#utility.yul\":4983:4990   */\n      dup12\n        /* \"#utility.yul\":4974:4980   */\n      dup3\n        /* \"#utility.yul\":4963:4972   */\n      dup13\n        /* \"#utility.yul\":4959:4981   */\n      add\n        /* \"#utility.yul\":4928:4991   */\n      tag_313\n      jump\t// in\n    tag_449:\n        /* \"#utility.yul\":4918:4991   */\n      swap7\n      pop\n        /* \"#utility.yul\":4713:5001   */\n      pop\n        /* \"#utility.yul\":5040:5042   */\n      0x60\n        /* \"#utility.yul\":5066:5116   */\n      tag_450\n        /* \"#utility.yul\":5108:5115   */\n      dup12\n        /* \"#utility.yul\":5099:5105   */\n      dup3\n        /* \"#utility.yul\":5088:5097   */\n      dup13\n        /* \"#utility.yul\":5084:5106   */\n      add\n        /* \"#utility.yul\":5066:5116   */\n      tag_316\n      jump\t// in\n    tag_450:\n        /* \"#utility.yul\":5056:5116   */\n      swap6\n      pop\n        /* \"#utility.yul\":5011:5126   */\n      pop\n        /* \"#utility.yul\":5165:5168   */\n      0x80\n        /* \"#utility.yul\":5192:5242   */\n      tag_451\n        /* \"#utility.yul\":5234:5241   */\n      dup12\n        /* \"#utility.yul\":5225:5231   */\n      dup3\n        /* \"#utility.yul\":5214:5223   */\n      dup13\n        /* \"#utility.yul\":5210:5232   */\n      add\n        /* \"#utility.yul\":5192:5242   */\n      tag_316\n      jump\t// in\n    tag_451:\n        /* \"#utility.yul\":5182:5242   */\n      swap5\n      pop\n        /* \"#utility.yul\":5136:5252   */\n      pop\n        /* \"#utility.yul\":5291:5294   */\n      0xa0\n        /* \"#utility.yul\":5318:5368   */\n      tag_452\n        /* \"#utility.yul\":5360:5367   */\n      dup12\n        /* \"#utility.yul\":5351:5357   */\n      dup3\n        /* \"#utility.yul\":5340:5349   */\n      dup13\n        /* \"#utility.yul\":5336:5358   */\n      add\n        /* \"#utility.yul\":5318:5368   */\n      tag_316\n      jump\t// in\n    tag_452:\n        /* \"#utility.yul\":5308:5368   */\n      swap4\n      pop\n        /* \"#utility.yul\":5262:5378   */\n      pop\n        /* \"#utility.yul\":5445:5448   */\n      0xc0\n        /* \"#utility.yul\":5434:5443   */\n      dup10\n        /* \"#utility.yul\":5430:5449   */\n      add\n        /* \"#utility.yul\":5417:5450   */\n      calldataload\n        /* \"#utility.yul\":5477:5495   */\n      0xffffffffffffffff\n        /* \"#utility.yul\":5469:5475   */\n      dup2\n        /* \"#utility.yul\":5466:5496   */\n      gt\n        /* \"#utility.yul\":5463:5580   */\n      iszero\n      tag_453\n      jumpi\n        /* \"#utility.yul\":5499:5578   */\n      tag_454\n      tag_300\n      jump\t// in\n    tag_454:\n        /* \"#utility.yul\":5463:5580   */\n    tag_453:\n        /* \"#utility.yul\":5604:5667   */\n      tag_455\n        /* \"#utility.yul\":5659:5666   */\n      dup12\n        /* \"#utility.yul\":5650:5656   */\n      dup3\n        /* \"#utility.yul\":5639:5648   */\n      dup13\n        /* \"#utility.yul\":5635:5657   */\n      add\n        /* \"#utility.yul\":5604:5667   */\n      tag_313\n      jump\t// in\n    tag_455:\n        /* \"#utility.yul\":5594:5667   */\n      swap3\n      pop\n        /* \"#utility.yul\":5388:5677   */\n      pop\n        /* \"#utility.yul\":5744:5747   */\n      0xe0\n        /* \"#utility.yul\":5733:5742   */\n      dup10\n        /* \"#utility.yul\":5729:5748   */\n      add\n        /* \"#utility.yul\":5716:5749   */\n      calldataload\n        /* \"#utility.yul\":5776:5794   */\n      0xffffffffffffffff\n        /* \"#utility.yul\":5768:5774   */\n      dup2\n        /* \"#utility.yul\":5765:5795   */\n      gt\n        /* \"#utility.yul\":5762:5879   */\n      iszero\n      tag_456\n      jumpi\n        /* \"#utility.yul\":5798:5877   */\n      tag_457\n      tag_300\n      jump\t// in\n    tag_457:\n        /* \"#utility.yul\":5762:5879   */\n    tag_456:\n        /* \"#utility.yul\":5903:5966   */\n      tag_458\n        /* \"#utility.yul\":5958:5965   */\n      dup12\n        /* \"#utility.yul\":5949:5955   */\n      dup3\n        /* \"#utility.yul\":5938:5947   */\n      dup13\n        /* \"#utility.yul\":5934:5956   */\n      add\n        /* \"#utility.yul\":5903:5966   */\n      tag_313\n      jump\t// in\n    tag_458:\n        /* \"#utility.yul\":5893:5966   */\n      swap2\n      pop\n        /* \"#utility.yul\":5687:5976   */\n      pop\n        /* \"#utility.yul\":3752:5983   */\n      swap3\n      swap6\n      swap9\n      pop\n      swap3\n      swap6\n      swap9\n      swap1\n      swap4\n      swap7\n      pop\n      jump\t// out\n        /* \"#utility.yul\":5989:6498   */\n    tag_30:\n        /* \"#utility.yul\":6058:6064   */\n      0x00\n        /* \"#utility.yul\":6107:6109   */\n      0x20\n        /* \"#utility.yul\":6095:6104   */\n      dup3\n        /* \"#utility.yul\":6086:6093   */\n      dup5\n        /* \"#utility.yul\":6082:6105   */\n      sub\n        /* \"#utility.yul\":6078:6110   */\n      slt\n        /* \"#utility.yul\":6075:6194   */\n      iszero\n      tag_460\n      jumpi\n        /* \"#utility.yul\":6113:6192   */\n      tag_461\n      tag_299\n      jump\t// in\n    tag_461:\n        /* \"#utility.yul\":6075:6194   */\n    tag_460:\n        /* \"#utility.yul\":6261:6262   */\n      0x00\n        /* \"#utility.yul\":6250:6259   */\n      dup3\n        /* \"#utility.yul\":6246:6263   */\n      add\n        /* \"#utility.yul\":6233:6264   */\n      calldataload\n        /* \"#utility.yul\":6291:6309   */\n      0xffffffffffffffff\n        /* \"#utility.yul\":6283:6289   */\n      dup2\n        /* \"#utility.yul\":6280:6310   */\n      gt\n        /* \"#utility.yul\":6277:6394   */\n      iszero\n      tag_462\n      jumpi\n        /* \"#utility.yul\":6313:6392   */\n      tag_463\n      tag_300\n      jump\t// in\n    tag_463:\n        /* \"#utility.yul\":6277:6394   */\n    tag_462:\n        /* \"#utility.yul\":6418:6481   */\n      tag_464\n        /* \"#utility.yul\":6473:6480   */\n      dup5\n        /* \"#utility.yul\":6464:6470   */\n      dup3\n        /* \"#utility.yul\":6453:6462   */\n      dup6\n        /* \"#utility.yul\":6449:6471   */\n      add\n        /* \"#utility.yul\":6418:6481   */\n      tag_313\n      jump\t// in\n    tag_464:\n        /* \"#utility.yul\":6408:6481   */\n      swap2\n      pop\n        /* \"#utility.yul\":6204:6491   */\n      pop\n        /* \"#utility.yul\":5989:6498   */\n      swap3\n      swap2\n      pop\n      pop\n      jump\t// out\n        /* \"#utility.yul\":6504:6641   */\n    tag_317:\n        /* \"#utility.yul\":6594:6600   */\n      0x00\n        /* \"#utility.yul\":6628:6633   */\n      dup2\n        /* \"#utility.yul\":6622:6634   */\n      mload\n        /* \"#utility.yul\":6612:6634   */\n      swap1\n      pop\n        /* \"#utility.yul\":6504:6641   */\n      swap2\n      swap1\n      pop\n      jump\t// out\n        /* \"#utility.yul\":6647:6854   */\n    tag_318:\n        /* \"#utility.yul\":6769:6780   */\n      0x00\n        /* \"#utility.yul\":6803:6809   */\n      dup3\n        /* \"#utility.yul\":6798:6801   */\n      dup3\n        /* \"#utility.yul\":6791:6810   */\n      mstore\n        /* \"#utility.yul\":6843:6847   */\n      0x20\n        /* \"#utility.yul\":6838:6841   */\n      dup3\n        /* \"#utility.yul\":6834:6848   */\n      add\n        /* \"#utility.yul\":6819:6848   */\n      swap1\n      pop\n        /* \"#utility.yul\":6647:6854   */\n      swap3\n      swap2\n      pop\n      pop\n      jump\t// out\n        /* \"#utility.yul\":6860:7015   */\n    tag_319:\n        /* \"#utility.yul\":6950:6954   */\n      0x00\n        /* \"#utility.yul\":6973:6976   */\n      dup2\n        /* \"#utility.yul\":6965:6976   */\n      swap1\n      pop\n        /* \"#utility.yul\":7003:7007   */\n      0x20\n        /* \"#utility.yul\":6998:7001   */\n      dup3\n        /* \"#utility.yul\":6994:7008   */\n      add\n        /* \"#utility.yul\":6986:7008   */\n      swap1\n      pop\n        /* \"#utility.yul\":6860:7015   */\n      swap2\n      swap1\n      pop\n      jump\t// out\n        /* \"#utility.yul\":7021:7120   */\n    tag_320:\n        /* \"#utility.yul\":7073:7079   */\n      0x00\n        /* \"#utility.yul\":7107:7112   */\n      dup2\n        /* \"#utility.yul\":7101:7113   */\n      mload\n        /* \"#utility.yul\":7091:7113   */\n      swap1\n      pop\n        /* \"#utility.yul\":7021:7120   */\n      swap2\n      swap1\n      pop\n      jump\t// out\n        /* \"#utility.yul\":7126:7285   */\n    tag_321:\n        /* \"#utility.yul\":7200:7211   */\n      0x00\n        /* \"#utility.yul\":7234:7240   */\n      dup3\n        /* \"#utility.yul\":7229:7232   */\n      dup3\n        /* \"#utility.yul\":7222:7241   */\n      mstore\n        /* \"#utility.yul\":7274:7278   */\n      0x20\n        /* \"#utility.yul\":7269:7272   */\n      dup3\n        /* \"#utility.yul\":7265:7279   */\n      add\n        /* \"#utility.yul\":7250:7279   */\n      swap1\n      pop\n        /* \"#utility.yul\":7126:7285   */\n      swap3\n      swap2\n      pop\n      pop\n      jump\t// out\n        /* \"#utility.yul\":7291:7537   */\n    tag_322:\n        /* \"#utility.yul\":7372:7373   */\n      0x00\n        /* \"#utility.yul\":7382:7495   */\n    tag_471:\n        /* \"#utility.yul\":7396:7402   */\n      dup4\n        /* \"#utility.yul\":7393:7394   */\n      dup2\n        /* \"#utility.yul\":7390:7403   */\n      lt\n        /* \"#utility.yul\":7382:7495   */\n      iszero\n      tag_473\n      jumpi\n        /* \"#utility.yul\":7481:7482   */\n      dup1\n        /* \"#utility.yul\":7476:7479   */\n      dup3\n        /* \"#utility.yul\":7472:7483   */\n      add\n        /* \"#utility.yul\":7466:7484   */\n      mload\n        /* \"#utility.yul\":7462:7463   */\n      dup2\n        /* \"#utility.yul\":7457:7460   */\n      dup5\n        /* \"#utility.yul\":7453:7464   */\n      add\n        /* \"#utility.yul\":7446:7485   */\n      mstore\n        /* \"#utility.yul\":7418:7420   */\n      0x20\n        /* \"#utility.yul\":7415:7416   */\n      dup2\n        /* \"#utility.yul\":7411:7421   */\n      add\n        /* \"#utility.yul\":7406:7421   */\n      swap1\n      pop\n        /* \"#utility.yul\":7382:7495   */\n      jump(tag_471)\n    tag_473:\n        /* \"#utility.yul\":7529:7530   */\n      0x00\n        /* \"#utility.yul\":7520:7526   */\n      dup5\n        /* \"#utility.yul\":7515:7518   */\n      dup5\n        /* \"#utility.yul\":7511:7527   */\n      add\n        /* \"#utility.yul\":7504:7531   */\n      mstore\n        /* \"#utility.yul\":7353:7537   */\n      pop\n        /* \"#utility.yul\":7291:7537   */\n      pop\n      pop\n      pop\n      jump\t// out\n        /* \"#utility.yul\":7543:7900   */\n    tag_323:\n        /* \"#utility.yul\":7621:7624   */\n      0x00\n        /* \"#utility.yul\":7649:7688   */\n      tag_475\n        /* \"#utility.yul\":7682:7687   */\n      dup3\n        /* \"#utility.yul\":7649:7688   */\n      tag_320\n      jump\t// in\n    tag_475:\n        /* \"#utility.yul\":7704:7765   */\n      tag_476\n        /* \"#utility.yul\":7758:7764   */\n      dup2\n        /* \"#utility.yul\":7753:7756   */\n      dup6\n        /* \"#utility.yul\":7704:7765   */\n      tag_321\n      jump\t// in\n    tag_476:\n        /* \"#utility.yul\":7697:7765   */\n      swap4\n      pop\n        /* \"#utility.yul\":7774:7839   */\n      tag_477\n        /* \"#utility.yul\":7832:7838   */\n      dup2\n        /* \"#utility.yul\":7827:7830   */\n      dup6\n        /* \"#utility.yul\":7820:7824   */\n      0x20\n        /* \"#utility.yul\":7813:7818   */\n      dup7\n        /* \"#utility.yul\":7809:7825   */\n      add\n        /* \"#utility.yul\":7774:7839   */\n      tag_322\n      jump\t// in\n    tag_477:\n        /* \"#utility.yul\":7864:7893   */\n      tag_478\n        /* \"#utility.yul\":7886:7892   */\n      dup2\n        /* \"#utility.yul\":7864:7893   */\n      tag_307\n      jump\t// in\n    tag_478:\n        /* \"#utility.yul\":7859:7862   */\n      dup5\n        /* \"#utility.yul\":7855:7894   */\n      add\n        /* \"#utility.yul\":7848:7894   */\n      swap2\n      pop\n        /* \"#utility.yul\":7625:7900   */\n      pop\n        /* \"#utility.yul\":7543:7900   */\n      swap3\n      swap2\n      pop\n      pop\n      jump\t// out\n        /* \"#utility.yul\":7976:8639   */\n    tag_324:\n        /* \"#utility.yul\":8081:8084   */\n      0x00\n        /* \"#utility.yul\":8117:8121   */\n      0x40\n        /* \"#utility.yul\":8112:8115   */\n      dup4\n        /* \"#utility.yul\":8108:8122   */\n      add\n        /* \"#utility.yul\":8204:8208   */\n      0x00\n        /* \"#utility.yul\":8197:8202   */\n      dup4\n        /* \"#utility.yul\":8193:8209   */\n      add\n        /* \"#utility.yul\":8187:8210   */\n      mload\n        /* \"#utility.yul\":8257:8260   */\n      dup5\n        /* \"#utility.yul\":8251:8255   */\n      dup3\n        /* \"#utility.yul\":8247:8261   */\n      sub\n        /* \"#utility.yul\":8240:8244   */\n      0x00\n        /* \"#utility.yul\":8235:8238   */\n      dup7\n        /* \"#utility.yul\":8231:8245   */\n      add\n        /* \"#utility.yul\":8224:8262   */\n      mstore\n        /* \"#utility.yul\":8283:8356   */\n      tag_480\n        /* \"#utility.yul\":8351:8355   */\n      dup3\n        /* \"#utility.yul\":8337:8349   */\n      dup3\n        /* \"#utility.yul\":8283:8356   */\n      tag_323\n      jump\t// in\n    tag_480:\n        /* \"#utility.yul\":8275:8356   */\n      swap2\n      pop\n        /* \"#utility.yul\":8132:8367   */\n      pop\n        /* \"#utility.yul\":8449:8453   */\n      0x20\n        /* \"#utility.yul\":8442:8447   */\n      dup4\n        /* \"#utility.yul\":8438:8454   */\n      add\n        /* \"#utility.yul\":8432:8455   */\n      mload\n        /* \"#utility.yul\":8502:8505   */\n      dup5\n        /* \"#utility.yul\":8496:8500   */\n      dup3\n        /* \"#utility.yul\":8492:8506   */\n      sub\n        /* \"#utility.yul\":8485:8489   */\n      0x20\n        /* \"#utility.yul\":8480:8483   */\n      dup7\n        /* \"#utility.yul\":8476:8490   */\n      add\n        /* \"#utility.yul\":8469:8507   */\n      mstore\n        /* \"#utility.yul\":8528:8601   */\n      tag_481\n        /* \"#utility.yul\":8596:8600   */\n      dup3\n        /* \"#utility.yul\":8582:8594   */\n      dup3\n        /* \"#utility.yul\":8528:8601   */\n      tag_323\n      jump\t// in\n    tag_481:\n        /* \"#utility.yul\":8520:8601   */\n      swap2\n      pop\n        /* \"#utility.yul\":8377:8612   */\n      pop\n        /* \"#utility.yul\":8629:8633   */\n      dup1\n        /* \"#utility.yul\":8622:8633   */\n      swap2\n      pop\n        /* \"#utility.yul\":8086:8639   */\n      pop\n        /* \"#utility.yul\":7976:8639   */\n      swap3\n      swap2\n      pop\n      pop\n      jump\t// out\n        /* \"#utility.yul\":8645:8893   */\n    tag_325:\n        /* \"#utility.yul\":8760:8770   */\n      0x00\n        /* \"#utility.yul\":8795:8887   */\n      tag_483\n        /* \"#utility.yul\":8883:8886   */\n      dup4\n        /* \"#utility.yul\":8875:8881   */\n      dup4\n        /* \"#utility.yul\":8795:8887   */\n      tag_324\n      jump\t// in\n    tag_483:\n        /* \"#utility.yul\":8781:8887   */\n      swap1\n      pop\n        /* \"#utility.yul\":8645:8893   */\n      swap3\n      swap2\n      pop\n      pop\n      jump\t// out\n        /* \"#utility.yul\":8899:9035   */\n    tag_326:\n        /* \"#utility.yul\":8992:8996   */\n      0x00\n        /* \"#utility.yul\":9024:9028   */\n      0x20\n        /* \"#utility.yul\":9019:9022   */\n      dup3\n        /* \"#utility.yul\":9015:9029   */\n      add\n        /* \"#utility.yul\":9007:9029   */\n      swap1\n      pop\n        /* \"#utility.yul\":8899:9035   */\n      swap2\n      swap1\n      pop\n      jump\t// out\n        /* \"#utility.yul\":9115:10210   */\n    tag_327:\n        /* \"#utility.yul\":9280:9283   */\n      0x00\n        /* \"#utility.yul\":9309:9386   */\n      tag_486\n        /* \"#utility.yul\":9380:9385   */\n      dup3\n        /* \"#utility.yul\":9309:9386   */\n      tag_317\n      jump\t// in\n    tag_486:\n        /* \"#utility.yul\":9402:9511   */\n      tag_487\n        /* \"#utility.yul\":9504:9510   */\n      dup2\n        /* \"#utility.yul\":9499:9502   */\n      dup6\n        /* \"#utility.yul\":9402:9511   */\n      tag_318\n      jump\t// in\n    tag_487:\n        /* \"#utility.yul\":9395:9511   */\n      swap4\n      pop\n        /* \"#utility.yul\":9537:9540   */\n      dup4\n        /* \"#utility.yul\":9582:9586   */\n      0x20\n        /* \"#utility.yul\":9574:9580   */\n      dup3\n        /* \"#utility.yul\":9570:9587   */\n      mul\n        /* \"#utility.yul\":9565:9568   */\n      dup6\n        /* \"#utility.yul\":9561:9588   */\n      add\n        /* \"#utility.yul\":9612:9691   */\n      tag_488\n        /* \"#utility.yul\":9685:9690   */\n      dup6\n        /* \"#utility.yul\":9612:9691   */\n      tag_319\n      jump\t// in\n    tag_488:\n        /* \"#utility.yul\":9714:9721   */\n      dup1\n        /* \"#utility.yul\":9745:9746   */\n      0x00\n        /* \"#utility.yul\":9730:10165   */\n    tag_489:\n        /* \"#utility.yul\":9755:9761   */\n      dup6\n        /* \"#utility.yul\":9752:9753   */\n      dup2\n        /* \"#utility.yul\":9749:9762   */\n      lt\n        /* \"#utility.yul\":9730:10165   */\n      iszero\n      tag_491\n      jumpi\n        /* \"#utility.yul\":9826:9835   */\n      dup5\n        /* \"#utility.yul\":9820:9824   */\n      dup5\n        /* \"#utility.yul\":9816:9836   */\n      sub\n        /* \"#utility.yul\":9811:9814   */\n      dup10\n        /* \"#utility.yul\":9804:9837   */\n      mstore\n        /* \"#utility.yul\":9877:9883   */\n      dup2\n        /* \"#utility.yul\":9871:9884   */\n      mload\n        /* \"#utility.yul\":9905:10015   */\n      tag_492\n        /* \"#utility.yul\":10010:10014   */\n      dup6\n        /* \"#utility.yul\":9995:10008   */\n      dup3\n        /* \"#utility.yul\":9905:10015   */\n      tag_325\n      jump\t// in\n    tag_492:\n        /* \"#utility.yul\":9897:10015   */\n      swap5\n      pop\n        /* \"#utility.yul\":10038:10121   */\n      tag_493\n        /* \"#utility.yul\":10114:10120   */\n      dup4\n        /* \"#utility.yul\":10038:10121   */\n      tag_326\n      jump\t// in\n    tag_493:\n        /* \"#utility.yul\":10028:10121   */\n      swap3\n      pop\n        /* \"#utility.yul\":10150:10154   */\n      0x20\n        /* \"#utility.yul\":10145:10148   */\n      dup11\n        /* \"#utility.yul\":10141:10155   */\n      add\n        /* \"#utility.yul\":10134:10155   */\n      swap10\n      pop\n        /* \"#utility.yul\":9790:10165   */\n      pop\n        /* \"#utility.yul\":9777:9778   */\n      0x01\n        /* \"#utility.yul\":9774:9775   */\n      dup2\n        /* \"#utility.yul\":9770:9779   */\n      add\n        /* \"#utility.yul\":9765:9779   */\n      swap1\n      pop\n        /* \"#utility.yul\":9730:10165   */\n      jump(tag_489)\n    tag_491:\n        /* \"#utility.yul\":9734:9748   */\n      pop\n        /* \"#utility.yul\":10181:10185   */\n      dup3\n        /* \"#utility.yul\":10174:10185   */\n      swap8\n      pop\n        /* \"#utility.yul\":10201:10204   */\n      dup8\n        /* \"#utility.yul\":10194:10204   */\n      swap6\n      pop\n        /* \"#utility.yul\":9285:10210   */\n      pop\n      pop\n      pop\n      pop\n      pop\n        /* \"#utility.yul\":9115:10210   */\n      swap3\n      swap2\n      pop\n      pop\n      jump\t// out\n        /* \"#utility.yul\":10216:10681   */\n    tag_33:\n        /* \"#utility.yul\":10405:10409   */\n      0x00\n        /* \"#utility.yul\":10443:10445   */\n      0x20\n        /* \"#utility.yul\":10432:10441   */\n      dup3\n        /* \"#utility.yul\":10428:10446   */\n      add\n        /* \"#utility.yul\":10420:10446   */\n      swap1\n      pop\n        /* \"#utility.yul\":10492:10501   */\n      dup2\n        /* \"#utility.yul\":10486:10490   */\n      dup2\n        /* \"#utility.yul\":10482:10502   */\n      sub\n        /* \"#utility.yul\":10478:10479   */\n      0x00\n        /* \"#utility.yul\":10467:10476   */\n      dup4\n        /* \"#utility.yul\":10463:10480   */\n      add\n        /* \"#utility.yul\":10456:10503   */\n      mstore\n        /* \"#utility.yul\":10520:10674   */\n      tag_495\n        /* \"#utility.yul\":10669:10673   */\n      dup2\n        /* \"#utility.yul\":10660:10666   */\n      dup5\n        /* \"#utility.yul\":10520:10674   */\n      tag_327\n      jump\t// in\n    tag_495:\n        /* \"#utility.yul\":10512:10674   */\n      swap1\n      pop\n        /* \"#utility.yul\":10216:10681   */\n      swap3\n      swap2\n      pop\n      pop\n      jump\t// out\n        /* \"#utility.yul\":10687:11846   */\n    tag_36:\n        /* \"#utility.yul\":10794:10800   */\n      0x00\n        /* \"#utility.yul\":10802:10808   */\n      dup1\n        /* \"#utility.yul\":10810:10816   */\n      0x00\n        /* \"#utility.yul\":10859:10861   */\n      0x60\n        /* \"#utility.yul\":10847:10856   */\n      dup5\n        /* \"#utility.yul\":10838:10845   */\n      dup7\n        /* \"#utility.yul\":10834:10857   */\n      sub\n        /* \"#utility.yul\":10830:10862   */\n      slt\n        /* \"#utility.yul\":10827:10946   */\n      iszero\n      tag_497\n      jumpi\n        /* \"#utility.yul\":10865:10944   */\n      tag_498\n      tag_299\n      jump\t// in\n    tag_498:\n        /* \"#utility.yul\":10827:10946   */\n    tag_497:\n        /* \"#utility.yul\":11013:11014   */\n      0x00\n        /* \"#utility.yul\":11002:11011   */\n      dup5\n        /* \"#utility.yul\":10998:11015   */\n      add\n        /* \"#utility.yul\":10985:11016   */\n      calldataload\n        /* \"#utility.yul\":11043:11061   */\n      0xffffffffffffffff\n        /* \"#utility.yul\":11035:11041   */\n      dup2\n        /* \"#utility.yul\":11032:11062   */\n      gt\n        /* \"#utility.yul\":11029:11146   */\n      iszero\n      tag_499\n      jumpi\n        /* \"#utility.yul\":11065:11144   */\n      tag_500\n      tag_300\n      jump\t// in\n    tag_500:\n        /* \"#utility.yul\":11029:11146   */\n    tag_499:\n        /* \"#utility.yul\":11170:11233   */\n      tag_501\n        /* \"#utility.yul\":11225:11232   */\n      dup7\n        /* \"#utility.yul\":11216:11222   */\n      dup3\n        /* \"#utility.yul\":11205:11214   */\n      dup8\n        /* \"#utility.yul\":11201:11223   */\n      add\n        /* \"#utility.yul\":11170:11233   */\n      tag_313\n      jump\t// in\n    tag_501:\n        /* \"#utility.yul\":11160:11233   */\n      swap4\n      pop\n        /* \"#utility.yul\":10956:11243   */\n      pop\n        /* \"#utility.yul\":11310:11312   */\n      0x20\n        /* \"#utility.yul\":11299:11308   */\n      dup5\n        /* \"#utility.yul\":11295:11313   */\n      add\n        /* \"#utility.yul\":11282:11314   */\n      calldataload\n        /* \"#utility.yul\":11341:11359   */\n      0xffffffffffffffff\n        /* \"#utility.yul\":11333:11339   */\n      dup2\n        /* \"#utility.yul\":11330:11360   */\n      gt\n        /* \"#utility.yul\":11327:11444   */\n      iszero\n      tag_502\n      jumpi\n        /* \"#utility.yul\":11363:11442   */\n      tag_503\n      tag_300\n      jump\t// in\n    tag_503:\n        /* \"#utility.yul\":11327:11444   */\n    tag_502:\n        /* \"#utility.yul\":11468:11531   */\n      tag_504\n        /* \"#utility.yul\":11523:11530   */\n      dup7\n        /* \"#utility.yul\":11514:11520   */\n      dup3\n        /* \"#utility.yul\":11503:11512   */\n      dup8\n        /* \"#utility.yul\":11499:11521   */\n      add\n        /* \"#utility.yul\":11468:11531   */\n      tag_313\n      jump\t// in\n    tag_504:\n        /* \"#utility.yul\":11458:11531   */\n      swap3\n      pop\n        /* \"#utility.yul\":11253:11541   */\n      pop\n        /* \"#utility.yul\":11608:11610   */\n      0x40\n        /* \"#utility.yul\":11597:11606   */\n      dup5\n        /* \"#utility.yul\":11593:11611   */\n      add\n        /* \"#utility.yul\":11580:11612   */\n      calldataload\n        /* \"#utility.yul\":11639:11657   */\n      0xffffffffffffffff\n        /* \"#utility.yul\":11631:11637   */\n      dup2\n        /* \"#utility.yul\":11628:11658   */\n      gt\n        /* \"#utility.yul\":11625:11742   */\n      iszero\n      tag_505\n      jumpi\n        /* \"#utility.yul\":11661:11740   */\n      tag_506\n      tag_300\n      jump\t// in\n    tag_506:\n        /* \"#utility.yul\":11625:11742   */\n    tag_505:\n        /* \"#utility.yul\":11766:11829   */\n      tag_507\n        /* \"#utility.yul\":11821:11828   */\n      dup7\n        /* \"#utility.yul\":11812:11818   */\n      dup3\n        /* \"#utility.yul\":11801:11810   */\n      dup8\n        /* \"#utility.yul\":11797:11819   */\n      add\n        /* \"#utility.yul\":11766:11829   */\n      tag_313\n      jump\t// in\n    tag_507:\n        /* \"#utility.yul\":11756:11829   */\n      swap2\n      pop\n        /* \"#utility.yul\":11551:11839   */\n      pop\n        /* \"#utility.yul\":10687:11846   */\n      swap3\n      pop\n      swap3\n      pop\n      swap3\n      jump\t// out\n        /* \"#utility.yul\":11852:12173   */\n    tag_328:\n        /* \"#utility.yul\":11939:11943   */\n      0x00\n        /* \"#utility.yul\":12029:12047   */\n      0xffffffffffffffff\n        /* \"#utility.yul\":12021:12027   */\n      dup3\n        /* \"#utility.yul\":12018:12048   */\n      gt\n        /* \"#utility.yul\":12015:12071   */\n      iszero\n      tag_509\n      jumpi\n        /* \"#utility.yul\":12051:12069   */\n      tag_510\n      tag_105\n      jump\t// in\n    tag_510:\n        /* \"#utility.yul\":12015:12071   */\n    tag_509:\n        /* \"#utility.yul\":12101:12105   */\n      0x20\n        /* \"#utility.yul\":12093:12099   */\n      dup3\n        /* \"#utility.yul\":12089:12106   */\n      mul\n        /* \"#utility.yul\":12081:12106   */\n      swap1\n      pop\n        /* \"#utility.yul\":12161:12165   */\n      0x20\n        /* \"#utility.yul\":12155:12159   */\n      dup2\n        /* \"#utility.yul\":12151:12166   */\n      add\n        /* \"#utility.yul\":12143:12166   */\n      swap1\n      pop\n        /* \"#utility.yul\":11852:12173   */\n      swap2\n      swap1\n      pop\n      jump\t// out\n        /* \"#utility.yul\":12179:12296   */\n    tag_329:\n        /* \"#utility.yul\":12288:12289   */\n      0x00\n        /* \"#utility.yul\":12285:12286   */\n      dup1\n        /* \"#utility.yul\":12278:12290   */\n      revert\n        /* \"#utility.yul\":12318:13263   */\n    tag_330:\n        /* \"#utility.yul\":12424:12429   */\n      0x00\n        /* \"#utility.yul\":12449:12540   */\n      tag_513\n        /* \"#utility.yul\":12465:12539   */\n      tag_514\n        /* \"#utility.yul\":12532:12538   */\n      dup5\n        /* \"#utility.yul\":12465:12539   */\n      tag_328\n      jump\t// in\n    tag_514:\n        /* \"#utility.yul\":12449:12540   */\n      tag_309\n      jump\t// in\n    tag_513:\n        /* \"#utility.yul\":12440:12540   */\n      swap1\n      pop\n        /* \"#utility.yul\":12560:12565   */\n      dup1\n        /* \"#utility.yul\":12589:12595   */\n      dup4\n        /* \"#utility.yul\":12582:12587   */\n      dup3\n        /* \"#utility.yul\":12575:12596   */\n      mstore\n        /* \"#utility.yul\":12623:12627   */\n      0x20\n        /* \"#utility.yul\":12616:12621   */\n      dup3\n        /* \"#utility.yul\":12612:12628   */\n      add\n        /* \"#utility.yul\":12605:12628   */\n      swap1\n      pop\n        /* \"#utility.yul\":12676:12680   */\n      0x20\n        /* \"#utility.yul\":12668:12674   */\n      dup5\n        /* \"#utility.yul\":12664:12681   */\n      mul\n        /* \"#utility.yul\":12656:12662   */\n      dup4\n        /* \"#utility.yul\":12652:12682   */\n      add\n        /* \"#utility.yul\":12705:12708   */\n      dup6\n        /* \"#utility.yul\":12697:12703   */\n      dup2\n        /* \"#utility.yul\":12694:12709   */\n      gt\n        /* \"#utility.yul\":12691:12813   */\n      iszero\n      tag_515\n      jumpi\n        /* \"#utility.yul\":12724:12803   */\n      tag_516\n      tag_329\n      jump\t// in\n    tag_516:\n        /* \"#utility.yul\":12691:12813   */\n    tag_515:\n        /* \"#utility.yul\":12839:12845   */\n      dup4\n        /* \"#utility.yul\":12822:13257   */\n    tag_517:\n        /* \"#utility.yul\":12856:12862   */\n      dup2\n        /* \"#utility.yul\":12851:12854   */\n      dup2\n        /* \"#utility.yul\":12848:12863   */\n      lt\n        /* \"#utility.yul\":12822:13257   */\n      iszero\n      tag_519\n      jumpi\n        /* \"#utility.yul\":12945:12948   */\n      dup1\n        /* \"#utility.yul\":12932:12949   */\n      calldataload\n        /* \"#utility.yul\":12981:12999   */\n      0xffffffffffffffff\n        /* \"#utility.yul\":12968:12979   */\n      dup2\n        /* \"#utility.yul\":12965:13000   */\n      gt\n        /* \"#utility.yul\":12962:13084   */\n      iszero\n      tag_520\n      jumpi\n        /* \"#utility.yul\":13003:13082   */\n      tag_521\n      tag_305\n      jump\t// in\n    tag_521:\n        /* \"#utility.yul\":12962:13084   */\n    tag_520:\n        /* \"#utility.yul\":13127:13138   */\n      dup1\n        /* \"#utility.yul\":13119:13125   */\n      dup7\n        /* \"#utility.yul\":13115:13139   */\n      add\n        /* \"#utility.yul\":13165:13212   */\n      tag_522\n        /* \"#utility.yul\":13208:13211   */\n      dup10\n        /* \"#utility.yul\":13196:13206   */\n      dup3\n        /* \"#utility.yul\":13165:13212   */\n      tag_313\n      jump\t// in\n    tag_522:\n        /* \"#utility.yul\":13160:13163   */\n      dup6\n        /* \"#utility.yul\":13153:13213   */\n      mstore\n        /* \"#utility.yul\":13242:13246   */\n      0x20\n        /* \"#utility.yul\":13237:13240   */\n      dup6\n        /* \"#utility.yul\":13233:13247   */\n      add\n        /* \"#utility.yul\":13226:13247   */\n      swap5\n      pop\n        /* \"#utility.yul\":12898:13257   */\n      pop\n      pop\n        /* \"#utility.yul\":12882:12886   */\n      0x20\n        /* \"#utility.yul\":12877:12880   */\n      dup2\n        /* \"#utility.yul\":12873:12887   */\n      add\n        /* \"#utility.yul\":12866:12887   */\n      swap1\n      pop\n        /* \"#utility.yul\":12822:13257   */\n      jump(tag_517)\n    tag_519:\n        /* \"#utility.yul\":12826:12847   */\n      pop\n        /* \"#utility.yul\":12430:13263   */\n      pop\n      pop\n        /* \"#utility.yul\":12318:13263   */\n      swap4\n      swap3\n      pop\n      pop\n      pop\n      jump\t// out\n        /* \"#utility.yul\":13285:13675   */\n    tag_331:\n        /* \"#utility.yul\":13366:13371   */\n      0x00\n        /* \"#utility.yul\":13415:13418   */\n      dup3\n        /* \"#utility.yul\":13408:13412   */\n      0x1f\n        /* \"#utility.yul\":13400:13406   */\n      dup4\n        /* \"#utility.yul\":13396:13413   */\n      add\n        /* \"#utility.yul\":13392:13419   */\n      slt\n        /* \"#utility.yul\":13382:13504   */\n      tag_524\n      jumpi\n        /* \"#utility.yul\":13423:13502   */\n      tag_525\n      tag_305\n      jump\t// in\n    tag_525:\n        /* \"#utility.yul\":13382:13504   */\n    tag_524:\n        /* \"#utility.yul\":13540:13546   */\n      dup2\n        /* \"#utility.yul\":13527:13547   */\n      calldataload\n        /* \"#utility.yul\":13565:13669   */\n      tag_526\n        /* \"#utility.yul\":13665:13668   */\n      dup5\n        /* \"#utility.yul\":13657:13663   */\n      dup3\n        /* \"#utility.yul\":13650:13654   */\n      0x20\n        /* \"#utility.yul\":13642:13648   */\n      dup7\n        /* \"#utility.yul\":13638:13655   */\n      add\n        /* \"#utility.yul\":13565:13669   */\n      tag_330\n      jump\t// in\n    tag_526:\n        /* \"#utility.yul\":13556:13669   */\n      swap2\n      pop\n        /* \"#utility.yul\":13372:13675   */\n      pop\n        /* \"#utility.yul\":13285:13675   */\n      swap3\n      swap2\n      pop\n      pop\n      jump\t// out\n        /* \"#utility.yul\":13681:15316   */\n    tag_43:\n        /* \"#utility.yul\":13882:13888   */\n      0x00\n        /* \"#utility.yul\":13890:13896   */\n      dup1\n        /* \"#utility.yul\":13898:13904   */\n      0x00\n        /* \"#utility.yul\":13906:13912   */\n      dup1\n        /* \"#utility.yul\":13955:13958   */\n      0x80\n        /* \"#utility.yul\":13943:13952   */\n      dup6\n        /* \"#utility.yul\":13934:13941   */\n      dup8\n        /* \"#utility.yul\":13930:13953   */\n      sub\n        /* \"#utility.yul\":13926:13959   */\n      slt\n        /* \"#utility.yul\":13923:14043   */\n      iszero\n      tag_528\n      jumpi\n        /* \"#utility.yul\":13962:14041   */\n      tag_529\n      tag_299\n      jump\t// in\n    tag_529:\n        /* \"#utility.yul\":13923:14043   */\n    tag_528:\n        /* \"#utility.yul\":14110:14111   */\n      0x00\n        /* \"#utility.yul\":14099:14108   */\n      dup6\n        /* \"#utility.yul\":14095:14112   */\n      add\n        /* \"#utility.yul\":14082:14113   */\n      calldataload\n        /* \"#utility.yul\":14140:14158   */\n      0xffffffffffffffff\n        /* \"#utility.yul\":14132:14138   */\n      dup2\n        /* \"#utility.yul\":14129:14159   */\n      gt\n        /* \"#utility.yul\":14126:14243   */\n      iszero\n      tag_530\n      jumpi\n        /* \"#utility.yul\":14162:14241   */\n      tag_531\n      tag_300\n      jump\t// in\n    tag_531:\n        /* \"#utility.yul\":14126:14243   */\n    tag_530:\n        /* \"#utility.yul\":14267:14330   */\n      tag_532\n        /* \"#utility.yul\":14322:14329   */\n      dup8\n        /* \"#utility.yul\":14313:14319   */\n      dup3\n        /* \"#utility.yul\":14302:14311   */\n      dup9\n        /* \"#utility.yul\":14298:14320   */\n      add\n        /* \"#utility.yul\":14267:14330   */\n      tag_313\n      jump\t// in\n    tag_532:\n        /* \"#utility.yul\":14257:14330   */\n      swap5\n      pop\n        /* \"#utility.yul\":14053:14340   */\n      pop\n        /* \"#utility.yul\":14407:14409   */\n      0x20\n        /* \"#utility.yul\":14396:14405   */\n      dup6\n        /* \"#utility.yul\":14392:14410   */\n      add\n        /* \"#utility.yul\":14379:14411   */\n      calldataload\n        /* \"#utility.yul\":14438:14456   */\n      0xffffffffffffffff\n        /* \"#utility.yul\":14430:14436   */\n      dup2\n        /* \"#utility.yul\":14427:14457   */\n      gt\n        /* \"#utility.yul\":14424:14541   */\n      iszero\n      tag_533\n      jumpi\n        /* \"#utility.yul\":14460:14539   */\n      tag_534\n      tag_300\n      jump\t// in\n    tag_534:\n        /* \"#utility.yul\":14424:14541   */\n    tag_533:\n        /* \"#utility.yul\":14565:14653   */\n      tag_535\n        /* \"#utility.yul\":14645:14652   */\n      dup8\n        /* \"#utility.yul\":14636:14642   */\n      dup3\n        /* \"#utility.yul\":14625:14634   */\n      dup9\n        /* \"#utility.yul\":14621:14643   */\n      add\n        /* \"#utility.yul\":14565:14653   */\n      tag_331\n      jump\t// in\n    tag_535:\n        /* \"#utility.yul\":14555:14653   */\n      swap4\n      pop\n        /* \"#utility.yul\":14350:14663   */\n      pop\n        /* \"#utility.yul\":14730:14732   */\n      0x40\n        /* \"#utility.yul\":14719:14728   */\n      dup6\n        /* \"#utility.yul\":14715:14733   */\n      add\n        /* \"#utility.yul\":14702:14734   */\n      calldataload\n        /* \"#utility.yul\":14761:14779   */\n      0xffffffffffffffff\n        /* \"#utility.yul\":14753:14759   */\n      dup2\n        /* \"#utility.yul\":14750:14780   */\n      gt\n        /* \"#utility.yul\":14747:14864   */\n      iszero\n      tag_536\n      jumpi\n        /* \"#utility.yul\":14783:14862   */\n      tag_537\n      tag_300\n      jump\t// in\n    tag_537:\n        /* \"#utility.yul\":14747:14864   */\n    tag_536:\n        /* \"#utility.yul\":14888:14976   */\n      tag_538\n        /* \"#utility.yul\":14968:14975   */\n      dup8\n        /* \"#utility.yul\":14959:14965   */\n      dup3\n        /* \"#utility.yul\":14948:14957   */\n      dup9\n        /* \"#utility.yul\":14944:14966   */\n      add\n        /* \"#utility.yul\":14888:14976   */\n      tag_331\n      jump\t// in\n    tag_538:\n        /* \"#utility.yul\":14878:14976   */\n      swap3\n      pop\n        /* \"#utility.yul\":14673:14986   */\n      pop\n        /* \"#utility.yul\":15053:15055   */\n      0x60\n        /* \"#utility.yul\":15042:15051   */\n      dup6\n        /* \"#utility.yul\":15038:15056   */\n      add\n        /* \"#utility.yul\":15025:15057   */\n      calldataload\n        /* \"#utility.yul\":15084:15102   */\n      0xffffffffffffffff\n        /* \"#utility.yul\":15076:15082   */\n      dup2\n        /* \"#utility.yul\":15073:15103   */\n      gt\n        /* \"#utility.yul\":15070:15187   */\n      iszero\n      tag_539\n      jumpi\n        /* \"#utility.yul\":15106:15185   */\n      tag_540\n      tag_300\n      jump\t// in\n    tag_540:\n        /* \"#utility.yul\":15070:15187   */\n    tag_539:\n        /* \"#utility.yul\":15211:15299   */\n      tag_541\n        /* \"#utility.yul\":15291:15298   */\n      dup8\n        /* \"#utility.yul\":15282:15288   */\n      dup3\n        /* \"#utility.yul\":15271:15280   */\n      dup9\n        /* \"#utility.yul\":15267:15289   */\n      add\n        /* \"#utility.yul\":15211:15299   */\n      tag_331\n      jump\t// in\n    tag_541:\n        /* \"#utility.yul\":15201:15299   */\n      swap2\n      pop\n        /* \"#utility.yul\":14996:15309   */\n      pop\n        /* \"#utility.yul\":13681:15316   */\n      swap3\n      swap6\n      swap2\n      swap5\n      pop\n      swap3\n      pop\n      jump\t// out\n        /* \"#utility.yul\":15322:15399   */\n    tag_332:\n        /* \"#utility.yul\":15359:15366   */\n      0x00\n        /* \"#utility.yul\":15388:15393   */\n      dup2\n        /* \"#utility.yul\":15377:15393   */\n      swap1\n      pop\n        /* \"#utility.yul\":15322:15399   */\n      swap2\n      swap1\n      pop\n      jump\t// out\n        /* \"#utility.yul\":15405:15527   */\n    tag_333:\n        /* \"#utility.yul\":15478:15502   */\n      tag_544\n        /* \"#utility.yul\":15496:15501   */\n      dup2\n        /* \"#utility.yul\":15478:15502   */\n      tag_332\n      jump\t// in\n    tag_544:\n        /* \"#utility.yul\":15471:15476   */\n      dup2\n        /* \"#utility.yul\":15468:15503   */\n      eq\n        /* \"#utility.yul\":15458:15521   */\n      tag_545\n      jumpi\n        /* \"#utility.yul\":15517:15518   */\n      0x00\n        /* \"#utility.yul\":15514:15515   */\n      dup1\n        /* \"#utility.yul\":15507:15519   */\n      revert\n        /* \"#utility.yul\":15458:15521   */\n    tag_545:\n        /* \"#utility.yul\":15405:15527   */\n      pop\n      jump\t// out\n        /* \"#utility.yul\":15533:15672   */\n    tag_334:\n        /* \"#utility.yul\":15579:15584   */\n      0x00\n        /* \"#utility.yul\":15617:15623   */\n      dup2\n        /* \"#utility.yul\":15604:15624   */\n      calldataload\n        /* \"#utility.yul\":15595:15624   */\n      swap1\n      pop\n        /* \"#utility.yul\":15633:15666   */\n      tag_547\n        /* \"#utility.yul\":15660:15665   */\n      dup2\n        /* \"#utility.yul\":15633:15666   */\n      tag_333\n      jump\t// in\n    tag_547:\n        /* \"#utility.yul\":15533:15672   */\n      swap3\n      swap2\n      pop\n      pop\n      jump\t// out\n        /* \"#utility.yul\":15678:16937   */\n    tag_47:\n        /* \"#utility.yul\":15787:15793   */\n      0x00\n        /* \"#utility.yul\":15795:15801   */\n      dup1\n        /* \"#utility.yul\":15803:15809   */\n      0x00\n        /* \"#utility.yul\":15811:15817   */\n      dup1\n        /* \"#utility.yul\":15819:15825   */\n      0x00\n        /* \"#utility.yul\":15868:15871   */\n      0xa0\n        /* \"#utility.yul\":15856:15865   */\n      dup7\n        /* \"#utility.yul\":15847:15854   */\n      dup9\n        /* \"#utility.yul\":15843:15866   */\n      sub\n        /* \"#utility.yul\":15839:15872   */\n      slt\n        /* \"#utility.yul\":15836:15956   */\n      iszero\n      tag_549\n      jumpi\n        /* \"#utility.yul\":15875:15954   */\n      tag_550\n      tag_299\n      jump\t// in\n    tag_550:\n        /* \"#utility.yul\":15836:15956   */\n    tag_549:\n        /* \"#utility.yul\":16023:16024   */\n      0x00\n        /* \"#utility.yul\":16012:16021   */\n      dup7\n        /* \"#utility.yul\":16008:16025   */\n      add\n        /* \"#utility.yul\":15995:16026   */\n      calldataload\n        /* \"#utility.yul\":16053:16071   */\n      0xffffffffffffffff\n        /* \"#utility.yul\":16045:16051   */\n      dup2\n        /* \"#utility.yul\":16042:16072   */\n      gt\n        /* \"#utility.yul\":16039:16156   */\n      iszero\n      tag_551\n      jumpi\n        /* \"#utility.yul\":16075:16154   */\n      tag_552\n      tag_300\n      jump\t// in\n    tag_552:\n        /* \"#utility.yul\":16039:16156   */\n    tag_551:\n        /* \"#utility.yul\":16180:16243   */\n      tag_553\n        /* \"#utility.yul\":16235:16242   */\n      dup9\n        /* \"#utility.yul\":16226:16232   */\n      dup3\n        /* \"#utility.yul\":16215:16224   */\n      dup10\n        /* \"#utility.yul\":16211:16233   */\n      add\n        /* \"#utility.yul\":16180:16243   */\n      tag_313\n      jump\t// in\n    tag_553:\n        /* \"#utility.yul\":16170:16243   */\n      swap6\n      pop\n        /* \"#utility.yul\":15966:16253   */\n      pop\n        /* \"#utility.yul\":16320:16322   */\n      0x20\n        /* \"#utility.yul\":16309:16318   */\n      dup7\n        /* \"#utility.yul\":16305:16323   */\n      add\n        /* \"#utility.yul\":16292:16324   */\n      calldataload\n        /* \"#utility.yul\":16351:16369   */\n      0xffffffffffffffff\n        /* \"#utility.yul\":16343:16349   */\n      dup2\n        /* \"#utility.yul\":16340:16370   */\n      gt\n        /* \"#utility.yul\":16337:16454   */\n      iszero\n      tag_554\n      jumpi\n        /* \"#utility.yul\":16373:16452   */\n      tag_555\n      tag_300\n      jump\t// in\n    tag_555:\n        /* \"#utility.yul\":16337:16454   */\n    tag_554:\n        /* \"#utility.yul\":16478:16541   */\n      tag_556\n        /* \"#utility.yul\":16533:16540   */\n      dup9\n        /* \"#utility.yul\":16524:16530   */\n      dup3\n        /* \"#utility.yul\":16513:16522   */\n      dup10\n        /* \"#utility.yul\":16509:16531   */\n      add\n        /* \"#utility.yul\":16478:16541   */\n      tag_313\n      jump\t// in\n    tag_556:\n        /* \"#utility.yul\":16468:16541   */\n      swap5\n      pop\n        /* \"#utility.yul\":16263:16551   */\n      pop\n        /* \"#utility.yul\":16590:16592   */\n      0x40\n        /* \"#utility.yul\":16616:16666   */\n      tag_557\n        /* \"#utility.yul\":16658:16665   */\n      dup9\n        /* \"#utility.yul\":16649:16655   */\n      dup3\n        /* \"#utility.yul\":16638:16647   */\n      dup10\n        /* \"#utility.yul\":16634:16656   */\n      add\n        /* \"#utility.yul\":16616:16666   */\n      tag_316\n      jump\t// in\n    tag_557:\n        /* \"#utility.yul\":16606:16666   */\n      swap4\n      pop\n        /* \"#utility.yul\":16561:16676   */\n      pop\n        /* \"#utility.yul\":16715:16717   */\n      0x60\n        /* \"#utility.yul\":16741:16791   */\n      tag_558\n        /* \"#utility.yul\":16783:16790   */\n      dup9\n        /* \"#utility.yul\":16774:16780   */\n      dup3\n        /* \"#utility.yul\":16763:16772   */\n      dup10\n        /* \"#utility.yul\":16759:16781   */\n      add\n        /* \"#utility.yul\":16741:16791   */\n      tag_316\n      jump\t// in\n    tag_558:\n        /* \"#utility.yul\":16731:16791   */\n      swap3\n      pop\n        /* \"#utility.yul\":16686:16801   */\n      pop\n        /* \"#utility.yul\":16840:16843   */\n      0x80\n        /* \"#utility.yul\":16867:16920   */\n      tag_559\n        /* \"#utility.yul\":16912:16919   */\n      dup9\n        /* \"#utility.yul\":16903:16909   */\n      dup3\n        /* \"#utility.yul\":16892:16901   */\n      dup10\n        /* \"#utility.yul\":16888:16910   */\n      add\n        /* \"#utility.yul\":16867:16920   */\n      tag_334\n      jump\t// in\n    tag_559:\n        /* \"#utility.yul\":16857:16920   */\n      swap2\n      pop\n        /* \"#utility.yul\":16811:16930   */\n      pop\n        /* \"#utility.yul\":15678:16937   */\n      swap3\n      swap6\n      pop\n      swap3\n      swap6\n      swap1\n      swap4\n      pop\n      jump\t// out\n        /* \"#utility.yul\":16943:17086   */\n    tag_335:\n        /* \"#utility.yul\":17039:17045   */\n      0x00\n        /* \"#utility.yul\":17073:17078   */\n      dup2\n        /* \"#utility.yul\":17067:17079   */\n      mload\n        /* \"#utility.yul\":17057:17079   */\n      swap1\n      pop\n        /* \"#utility.yul\":16943:17086   */\n      swap2\n      swap1\n      pop\n      jump\t// out\n        /* \"#utility.yul\":17092:17305   */\n    tag_336:\n        /* \"#utility.yul\":17220:17231   */\n      0x00\n        /* \"#utility.yul\":17254:17260   */\n      dup3\n        /* \"#utility.yul\":17249:17252   */\n      dup3\n        /* \"#utility.yul\":17242:17261   */\n      mstore\n        /* \"#utility.yul\":17294:17298   */\n      0x20\n        /* \"#utility.yul\":17289:17292   */\n      dup3\n        /* \"#utility.yul\":17285:17299   */\n      add\n        /* \"#utility.yul\":17270:17299   */\n      swap1\n      pop\n        /* \"#utility.yul\":17092:17305   */\n      swap3\n      swap2\n      pop\n      pop\n      jump\t// out\n        /* \"#utility.yul\":17311:17472   */\n    tag_337:\n        /* \"#utility.yul\":17407:17411   */\n      0x00\n        /* \"#utility.yul\":17430:17433   */\n      dup2\n        /* \"#utility.yul\":17422:17433   */\n      swap1\n      pop\n        /* \"#utility.yul\":17460:17464   */\n      0x20\n        /* \"#utility.yul\":17455:17458   */\n      dup3\n        /* \"#utility.yul\":17451:17465   */\n      add\n        /* \"#utility.yul\":17443:17465   */\n      swap1\n      pop\n        /* \"#utility.yul\":17311:17472   */\n      swap2\n      swap1\n      pop\n      jump\t// out\n        /* \"#utility.yul\":17478:17586   */\n    tag_338:\n        /* \"#utility.yul\":17555:17579   */\n      tag_564\n        /* \"#utility.yul\":17573:17578   */\n      dup2\n        /* \"#utility.yul\":17555:17579   */\n      tag_332\n      jump\t// in\n    tag_564:\n        /* \"#utility.yul\":17550:17553   */\n      dup3\n        /* \"#utility.yul\":17543:17580   */\n      mstore\n        /* \"#utility.yul\":17478:17586   */\n      pop\n      pop\n      jump\t// out\n        /* \"#utility.yul\":17674:18620   */\n    tag_339:\n        /* \"#utility.yul\":17791:17794   */\n      0x00\n        /* \"#utility.yul\":17827:17831   */\n      0x80\n        /* \"#utility.yul\":17822:17825   */\n      dup4\n        /* \"#utility.yul\":17818:17832   */\n      add\n        /* \"#utility.yul\":17914:17918   */\n      0x00\n        /* \"#utility.yul\":17907:17912   */\n      dup4\n        /* \"#utility.yul\":17903:17919   */\n      add\n        /* \"#utility.yul\":17897:17920   */\n      mload\n        /* \"#utility.yul\":17967:17970   */\n      dup5\n        /* \"#utility.yul\":17961:17965   */\n      dup3\n        /* \"#utility.yul\":17957:17971   */\n      sub\n        /* \"#utility.yul\":17950:17954   */\n      0x00\n        /* \"#utility.yul\":17945:17948   */\n      dup7\n        /* \"#utility.yul\":17941:17955   */\n      add\n        /* \"#utility.yul\":17934:17972   */\n      mstore\n        /* \"#utility.yul\":17993:18066   */\n      tag_566\n        /* \"#utility.yul\":18061:18065   */\n      dup3\n        /* \"#utility.yul\":18047:18059   */\n      dup3\n        /* \"#utility.yul\":17993:18066   */\n      tag_323\n      jump\t// in\n    tag_566:\n        /* \"#utility.yul\":17985:18066   */\n      swap2\n      pop\n        /* \"#utility.yul\":17842:18077   */\n      pop\n        /* \"#utility.yul\":18157:18161   */\n      0x20\n        /* \"#utility.yul\":18150:18155   */\n      dup4\n        /* \"#utility.yul\":18146:18162   */\n      add\n        /* \"#utility.yul\":18140:18163   */\n      mload\n        /* \"#utility.yul\":18176:18239   */\n      tag_567\n        /* \"#utility.yul\":18233:18237   */\n      0x20\n        /* \"#utility.yul\":18228:18231   */\n      dup7\n        /* \"#utility.yul\":18224:18238   */\n      add\n        /* \"#utility.yul\":18210:18222   */\n      dup3\n        /* \"#utility.yul\":18176:18239   */\n      tag_338\n      jump\t// in\n    tag_567:\n        /* \"#utility.yul\":18087:18249   */\n      pop\n        /* \"#utility.yul\":18329:18333   */\n      0x40\n        /* \"#utility.yul\":18322:18327   */\n      dup4\n        /* \"#utility.yul\":18318:18334   */\n      add\n        /* \"#utility.yul\":18312:18335   */\n      mload\n        /* \"#utility.yul\":18348:18411   */\n      tag_568\n        /* \"#utility.yul\":18405:18409   */\n      0x40\n        /* \"#utility.yul\":18400:18403   */\n      dup7\n        /* \"#utility.yul\":18396:18410   */\n      add\n        /* \"#utility.yul\":18382:18394   */\n      dup3\n        /* \"#utility.yul\":18348:18411   */\n      tag_338\n      jump\t// in\n    tag_568:\n        /* \"#utility.yul\":18259:18421   */\n      pop\n        /* \"#utility.yul\":18501:18505   */\n      0x60\n        /* \"#utility.yul\":18494:18499   */\n      dup4\n        /* \"#utility.yul\":18490:18506   */\n      add\n        /* \"#utility.yul\":18484:18507   */\n      mload\n        /* \"#utility.yul\":18520:18583   */\n      tag_569\n        /* \"#utility.yul\":18577:18581   */\n      0x60\n        /* \"#utility.yul\":18572:18575   */\n      dup7\n        /* \"#utility.yul\":18568:18582   */\n      add\n        /* \"#utility.yul\":18554:18566   */\n      dup3\n        /* \"#utility.yul\":18520:18583   */\n      tag_338\n      jump\t// in\n    tag_569:\n        /* \"#utility.yul\":18431:18593   */\n      pop\n        /* \"#utility.yul\":18610:18614   */\n      dup1\n        /* \"#utility.yul\":18603:18614   */\n      swap2\n      pop\n        /* \"#utility.yul\":17796:18620   */\n      pop\n        /* \"#utility.yul\":17674:18620   */\n      swap3\n      swap2\n      pop\n      pop\n      jump\t// out\n        /* \"#utility.yul\":18626:18898   */\n    tag_340:\n        /* \"#utility.yul\":18753:18763   */\n      0x00\n        /* \"#utility.yul\":18788:18892   */\n      tag_571\n        /* \"#utility.yul\":18888:18891   */\n      dup4\n        /* \"#utility.yul\":18880:18886   */\n      dup4\n        /* \"#utility.yul\":18788:18892   */\n      tag_339\n      jump\t// in\n    tag_571:\n        /* \"#utility.yul\":18774:18892   */\n      swap1\n      pop\n        /* \"#utility.yul\":18626:18898   */\n      swap3\n      swap2\n      pop\n      pop\n      jump\t// out\n        /* \"#utility.yul\":18904:19046   */\n    tag_341:\n        /* \"#utility.yul\":19003:19007   */\n      0x00\n        /* \"#utility.yul\":19035:19039   */\n      0x20\n        /* \"#utility.yul\":19030:19033   */\n      dup3\n        /* \"#utility.yul\":19026:19040   */\n      add\n        /* \"#utility.yul\":19018:19040   */\n      swap1\n      pop\n        /* \"#utility.yul\":18904:19046   */\n      swap2\n      swap1\n      pop\n      jump\t// out\n        /* \"#utility.yul\":19138:20281   */\n    tag_342:\n        /* \"#utility.yul\":19315:19318   */\n      0x00\n        /* \"#utility.yul\":19344:19427   */\n      tag_574\n        /* \"#utility.yul\":19421:19426   */\n      dup3\n        /* \"#utility.yul\":19344:19427   */\n      tag_335\n      jump\t// in\n    tag_574:\n        /* \"#utility.yul\":19443:19558   */\n      tag_575\n        /* \"#utility.yul\":19551:19557   */\n      dup2\n        /* \"#utility.yul\":19546:19549   */\n      dup6\n        /* \"#utility.yul\":19443:19558   */\n      tag_336\n      jump\t// in\n    tag_575:\n        /* \"#utility.yul\":19436:19558   */\n      swap4\n      pop\n        /* \"#utility.yul\":19584:19587   */\n      dup4\n        /* \"#utility.yul\":19629:19633   */\n      0x20\n        /* \"#utility.yul\":19621:19627   */\n      dup3\n        /* \"#utility.yul\":19617:19634   */\n      mul\n        /* \"#utility.yul\":19612:19615   */\n      dup6\n        /* \"#utility.yul\":19608:19635   */\n      add\n        /* \"#utility.yul\":19659:19744   */\n      tag_576\n        /* \"#utility.yul\":19738:19743   */\n      dup6\n        /* \"#utility.yul\":19659:19744   */\n      tag_337\n      jump\t// in\n    tag_576:\n        /* \"#utility.yul\":19767:19774   */\n      dup1\n        /* \"#utility.yul\":19798:19799   */\n      0x00\n        /* \"#utility.yul\":19783:20236   */\n    tag_577:\n        /* \"#utility.yul\":19808:19814   */\n      dup6\n        /* \"#utility.yul\":19805:19806   */\n      dup2\n        /* \"#utility.yul\":19802:19815   */\n      lt\n        /* \"#utility.yul\":19783:20236   */\n      iszero\n      tag_579\n      jumpi\n        /* \"#utility.yul\":19879:19888   */\n      dup5\n        /* \"#utility.yul\":19873:19877   */\n      dup5\n        /* \"#utility.yul\":19869:19889   */\n      sub\n        /* \"#utility.yul\":19864:19867   */\n      dup10\n        /* \"#utility.yul\":19857:19890   */\n      mstore\n        /* \"#utility.yul\":19930:19936   */\n      dup2\n        /* \"#utility.yul\":19924:19937   */\n      mload\n        /* \"#utility.yul\":19958:20080   */\n      tag_580\n        /* \"#utility.yul\":20075:20079   */\n      dup6\n        /* \"#utility.yul\":20060:20073   */\n      dup3\n        /* \"#utility.yul\":19958:20080   */\n      tag_340\n      jump\t// in\n    tag_580:\n        /* \"#utility.yul\":19950:20080   */\n      swap5\n      pop\n        /* \"#utility.yul\":20103:20192   */\n      tag_581\n        /* \"#utility.yul\":20185:20191   */\n      dup4\n        /* \"#utility.yul\":20103:20192   */\n      tag_341\n      jump\t// in\n    tag_581:\n        /* \"#utility.yul\":20093:20192   */\n      swap3\n      pop\n        /* \"#utility.yul\":20221:20225   */\n      0x20\n        /* \"#utility.yul\":20216:20219   */\n      dup11\n        /* \"#utility.yul\":20212:20226   */\n      add\n        /* \"#utility.yul\":20205:20226   */\n      swap10\n      pop\n        /* \"#utility.yul\":19843:20236   */\n      pop\n        /* \"#utility.yul\":19830:19831   */\n      0x01\n        /* \"#utility.yul\":19827:19828   */\n      dup2\n        /* \"#utility.yul\":19823:19832   */\n      add\n        /* \"#utility.yul\":19818:19832   */\n      swap1\n      pop\n        /* \"#utility.yul\":19783:20236   */\n      jump(tag_577)\n    tag_579:\n        /* \"#utility.yul\":19787:19801   */\n      pop\n        /* \"#utility.yul\":20252:20256   */\n      dup3\n        /* \"#utility.yul\":20245:20256   */\n      swap8\n      pop\n        /* \"#utility.yul\":20272:20275   */\n      dup8\n        /* \"#utility.yul\":20265:20275   */\n      swap6\n      pop\n        /* \"#utility.yul\":19320:20281   */\n      pop\n      pop\n      pop\n      pop\n      pop\n        /* \"#utility.yul\":19138:20281   */\n      swap3\n      swap2\n      pop\n      pop\n      jump\t// out\n        /* \"#utility.yul\":20287:20776   */\n    tag_53:\n        /* \"#utility.yul\":20488:20492   */\n      0x00\n        /* \"#utility.yul\":20526:20528   */\n      0x20\n        /* \"#utility.yul\":20515:20524   */\n      dup3\n        /* \"#utility.yul\":20511:20529   */\n      add\n        /* \"#utility.yul\":20503:20529   */\n      swap1\n      pop\n        /* \"#utility.yul\":20575:20584   */\n      dup2\n        /* \"#utility.yul\":20569:20573   */\n      dup2\n        /* \"#utility.yul\":20565:20585   */\n      sub\n        /* \"#utility.yul\":20561:20562   */\n      0x00\n        /* \"#utility.yul\":20550:20559   */\n      dup4\n        /* \"#utility.yul\":20546:20563   */\n      add\n        /* \"#utility.yul\":20539:20586   */\n      mstore\n        /* \"#utility.yul\":20603:20769   */\n      tag_583\n        /* \"#utility.yul\":20764:20768   */\n      dup2\n        /* \"#utility.yul\":20755:20761   */\n      dup5\n        /* \"#utility.yul\":20603:20769   */\n      tag_342\n      jump\t// in\n    tag_583:\n        /* \"#utility.yul\":20595:20769   */\n      swap1\n      pop\n        /* \"#utility.yul\":20287:20776   */\n      swap3\n      swap2\n      pop\n      pop\n      jump\t// out\n        /* \"#utility.yul\":20782:20917   */\n    tag_343:\n        /* \"#utility.yul\":20870:20876   */\n      0x00\n        /* \"#utility.yul\":20904:20909   */\n      dup2\n        /* \"#utility.yul\":20898:20910   */\n      mload\n        /* \"#utility.yul\":20888:20910   */\n      swap1\n      pop\n        /* \"#utility.yul\":20782:20917   */\n      swap2\n      swap1\n      pop\n      jump\t// out\n        /* \"#utility.yul\":20923:21128   */\n    tag_344:\n        /* \"#utility.yul\":21043:21054   */\n      0x00\n        /* \"#utility.yul\":21077:21083   */\n      dup3\n        /* \"#utility.yul\":21072:21075   */\n      dup3\n        /* \"#utility.yul\":21065:21084   */\n      mstore\n        /* \"#utility.yul\":21117:21121   */\n      0x20\n        /* \"#utility.yul\":21112:21115   */\n      dup3\n        /* \"#utility.yul\":21108:21122   */\n      add\n        /* \"#utility.yul\":21093:21122   */\n      swap1\n      pop\n        /* \"#utility.yul\":20923:21128   */\n      swap3\n      swap2\n      pop\n      pop\n      jump\t// out\n        /* \"#utility.yul\":21134:21287   */\n    tag_345:\n        /* \"#utility.yul\":21222:21226   */\n      0x00\n        /* \"#utility.yul\":21245:21248   */\n      dup2\n        /* \"#utility.yul\":21237:21248   */\n      swap1\n      pop\n        /* \"#utility.yul\":21275:21279   */\n      0x20\n        /* \"#utility.yul\":21270:21273   */\n      dup3\n        /* \"#utility.yul\":21266:21280   */\n      add\n        /* \"#utility.yul\":21258:21280   */\n      swap1\n      pop\n        /* \"#utility.yul\":21134:21287   */\n      swap2\n      swap1\n      pop\n      jump\t// out\n        /* \"#utility.yul\":21293:21392   */\n    tag_346:\n        /* \"#utility.yul\":21364:21385   */\n      tag_588\n        /* \"#utility.yul\":21379:21384   */\n      dup2\n        /* \"#utility.yul\":21364:21385   */\n      tag_314\n      jump\t// in\n    tag_588:\n        /* \"#utility.yul\":21359:21362   */\n      dup3\n        /* \"#utility.yul\":21352:21386   */\n      mstore\n        /* \"#utility.yul\":21293:21392   */\n      pop\n      pop\n      jump\t// out\n        /* \"#utility.yul\":21464:22397   */\n    tag_347:\n        /* \"#utility.yul\":21565:21568   */\n      0x00\n        /* \"#utility.yul\":21601:21605   */\n      0x80\n        /* \"#utility.yul\":21596:21599   */\n      dup4\n        /* \"#utility.yul\":21592:21606   */\n      add\n        /* \"#utility.yul\":21688:21692   */\n      0x00\n        /* \"#utility.yul\":21681:21686   */\n      dup4\n        /* \"#utility.yul\":21677:21693   */\n      add\n        /* \"#utility.yul\":21671:21694   */\n      mload\n        /* \"#utility.yul\":21741:21744   */\n      dup5\n        /* \"#utility.yul\":21735:21739   */\n      dup3\n        /* \"#utility.yul\":21731:21745   */\n      sub\n        /* \"#utility.yul\":21724:21728   */\n      0x00\n        /* \"#utility.yul\":21719:21722   */\n      dup7\n        /* \"#utility.yul\":21715:21729   */\n      add\n        /* \"#utility.yul\":21708:21746   */\n      mstore\n        /* \"#utility.yul\":21767:21840   */\n      tag_590\n        /* \"#utility.yul\":21835:21839   */\n      dup3\n        /* \"#utility.yul\":21821:21833   */\n      dup3\n        /* \"#utility.yul\":21767:21840   */\n      tag_323\n      jump\t// in\n    tag_590:\n        /* \"#utility.yul\":21759:21840   */\n      swap2\n      pop\n        /* \"#utility.yul\":21616:21851   */\n      pop\n        /* \"#utility.yul\":21936:21940   */\n      0x20\n        /* \"#utility.yul\":21929:21934   */\n      dup4\n        /* \"#utility.yul\":21925:21941   */\n      add\n        /* \"#utility.yul\":21919:21942   */\n      mload\n        /* \"#utility.yul\":21955:22012   */\n      tag_591\n        /* \"#utility.yul\":22006:22010   */\n      0x20\n        /* \"#utility.yul\":22001:22004   */\n      dup7\n        /* \"#utility.yul\":21997:22011   */\n      add\n        /* \"#utility.yul\":21983:21995   */\n      dup3\n        /* \"#utility.yul\":21955:22012   */\n      tag_346\n      jump\t// in\n    tag_591:\n        /* \"#utility.yul\":21861:22022   */\n      pop\n        /* \"#utility.yul\":22109:22113   */\n      0x40\n        /* \"#utility.yul\":22102:22107   */\n      dup4\n        /* \"#utility.yul\":22098:22114   */\n      add\n        /* \"#utility.yul\":22092:22115   */\n      mload\n        /* \"#utility.yul\":22128:22185   */\n      tag_592\n        /* \"#utility.yul\":22179:22183   */\n      0x40\n        /* \"#utility.yul\":22174:22177   */\n      dup7\n        /* \"#utility.yul\":22170:22184   */\n      add\n        /* \"#utility.yul\":22156:22168   */\n      dup3\n        /* \"#utility.yul\":22128:22185   */\n      tag_346\n      jump\t// in\n    tag_592:\n        /* \"#utility.yul\":22032:22195   */\n      pop\n        /* \"#utility.yul\":22278:22282   */\n      0x60\n        /* \"#utility.yul\":22271:22276   */\n      dup4\n        /* \"#utility.yul\":22267:22283   */\n      add\n        /* \"#utility.yul\":22261:22284   */\n      mload\n        /* \"#utility.yul\":22297:22360   */\n      tag_593\n        /* \"#utility.yul\":22354:22358   */\n      0x60\n        /* \"#utility.yul\":22349:22352   */\n      dup7\n        /* \"#utility.yul\":22345:22359   */\n      add\n        /* \"#utility.yul\":22331:22343   */\n      dup3\n        /* \"#utility.yul\":22297:22360   */\n      tag_338\n      jump\t// in\n    tag_593:\n        /* \"#utility.yul\":22205:22370   */\n      pop\n        /* \"#utility.yul\":22387:22391   */\n      dup1\n        /* \"#utility.yul\":22380:22391   */\n      swap2\n      pop\n        /* \"#utility.yul\":21570:22397   */\n      pop\n        /* \"#utility.yul\":21464:22397   */\n      swap3\n      swap2\n      pop\n      pop\n      jump\t// out\n        /* \"#utility.yul\":22403:22643   */\n    tag_348:\n        /* \"#utility.yul\":22514:22524   */\n      0x00\n        /* \"#utility.yul\":22549:22637   */\n      tag_595\n        /* \"#utility.yul\":22633:22636   */\n      dup4\n        /* \"#utility.yul\":22625:22631   */\n      dup4\n        /* \"#utility.yul\":22549:22637   */\n      tag_347\n      jump\t// in\n    tag_595:\n        /* \"#utility.yul\":22535:22637   */\n      swap1\n      pop\n        /* \"#utility.yul\":22403:22643   */\n      swap3\n      swap2\n      pop\n      pop\n      jump\t// out\n        /* \"#utility.yul\":22649:22783   */\n    tag_349:\n        /* \"#utility.yul\":22740:22744   */\n      0x00\n        /* \"#utility.yul\":22772:22776   */\n      0x20\n        /* \"#utility.yul\":22767:22770   */\n      dup3\n        /* \"#utility.yul\":22763:22777   */\n      add\n        /* \"#utility.yul\":22755:22777   */\n      swap1\n      pop\n        /* \"#utility.yul\":22649:22783   */\n      swap2\n      swap1\n      pop\n      jump\t// out\n        /* \"#utility.yul\":22859:23938   */\n    tag_350:\n        /* \"#utility.yul\":23020:23023   */\n      0x00\n        /* \"#utility.yul\":23049:23124   */\n      tag_598\n        /* \"#utility.yul\":23118:23123   */\n      dup3\n        /* \"#utility.yul\":23049:23124   */\n      tag_343\n      jump\t// in\n    tag_598:\n        /* \"#utility.yul\":23140:23247   */\n      tag_599\n        /* \"#utility.yul\":23240:23246   */\n      dup2\n        /* \"#utility.yul\":23235:23238   */\n      dup6\n        /* \"#utility.yul\":23140:23247   */\n      tag_344\n      jump\t// in\n    tag_599:\n        /* \"#utility.yul\":23133:23247   */\n      swap4\n      pop\n        /* \"#utility.yul\":23273:23276   */\n      dup4\n        /* \"#utility.yul\":23318:23322   */\n      0x20\n        /* \"#utility.yul\":23310:23316   */\n      dup3\n        /* \"#utility.yul\":23306:23323   */\n      mul\n        /* \"#utility.yul\":23301:23304   */\n      dup6\n        /* \"#utility.yul\":23297:23324   */\n      add\n        /* \"#utility.yul\":23348:23425   */\n      tag_600\n        /* \"#utility.yul\":23419:23424   */\n      dup6\n        /* \"#utility.yul\":23348:23425   */\n      tag_345\n      jump\t// in\n    tag_600:\n        /* \"#utility.yul\":23448:23455   */\n      dup1\n        /* \"#utility.yul\":23479:23480   */\n      0x00\n        /* \"#utility.yul\":23464:23893   */\n    tag_601:\n        /* \"#utility.yul\":23489:23495   */\n      dup6\n        /* \"#utility.yul\":23486:23487   */\n      dup2\n        /* \"#utility.yul\":23483:23496   */\n      lt\n        /* \"#utility.yul\":23464:23893   */\n      iszero\n      tag_603\n      jumpi\n        /* \"#utility.yul\":23560:23569   */\n      dup5\n        /* \"#utility.yul\":23554:23558   */\n      dup5\n        /* \"#utility.yul\":23550:23570   */\n      sub\n        /* \"#utility.yul\":23545:23548   */\n      dup10\n        /* \"#utility.yul\":23538:23571   */\n      mstore\n        /* \"#utility.yul\":23611:23617   */\n      dup2\n        /* \"#utility.yul\":23605:23618   */\n      mload\n        /* \"#utility.yul\":23639:23745   */\n      tag_604\n        /* \"#utility.yul\":23740:23744   */\n      dup6\n        /* \"#utility.yul\":23725:23738   */\n      dup3\n        /* \"#utility.yul\":23639:23745   */\n      tag_348\n      jump\t// in\n    tag_604:\n        /* \"#utility.yul\":23631:23745   */\n      swap5\n      pop\n        /* \"#utility.yul\":23768:23849   */\n      tag_605\n        /* \"#utility.yul\":23842:23848   */\n      dup4\n        /* \"#utility.yul\":23768:23849   */\n      tag_349\n      jump\t// in\n    tag_605:\n        /* \"#utility.yul\":23758:23849   */\n      swap3\n      pop\n        /* \"#utility.yul\":23878:23882   */\n      0x20\n        /* \"#utility.yul\":23873:23876   */\n      dup11\n        /* \"#utility.yul\":23869:23883   */\n      add\n        /* \"#utility.yul\":23862:23883   */\n      swap10\n      pop\n        /* \"#utility.yul\":23524:23893   */\n      pop\n        /* \"#utility.yul\":23511:23512   */\n      0x01\n        /* \"#utility.yul\":23508:23509   */\n      dup2\n        /* \"#utility.yul\":23504:23513   */\n      add\n        /* \"#utility.yul\":23499:23513   */\n      swap1\n      pop\n        /* \"#utility.yul\":23464:23893   */\n      jump(tag_601)\n    tag_603:\n        /* \"#utility.yul\":23468:23482   */\n      pop\n        /* \"#utility.yul\":23909:23913   */\n      dup3\n        /* \"#utility.yul\":23902:23913   */\n      swap8\n      pop\n        /* \"#utility.yul\":23929:23932   */\n      dup8\n        /* \"#utility.yul\":23922:23932   */\n      swap6\n      pop\n        /* \"#utility.yul\":23025:23938   */\n      pop\n      pop\n      pop\n      pop\n      pop\n        /* \"#utility.yul\":22859:23938   */\n      swap3\n      swap2\n      pop\n      pop\n      jump\t// out\n        /* \"#utility.yul\":23944:24401   */\n    tag_58:\n        /* \"#utility.yul\":24129:24133   */\n      0x00\n        /* \"#utility.yul\":24167:24169   */\n      0x20\n        /* \"#utility.yul\":24156:24165   */\n      dup3\n        /* \"#utility.yul\":24152:24170   */\n      add\n        /* \"#utility.yul\":24144:24170   */\n      swap1\n      pop\n        /* \"#utility.yul\":24216:24225   */\n      dup2\n        /* \"#utility.yul\":24210:24214   */\n      dup2\n        /* \"#utility.yul\":24206:24226   */\n      sub\n        /* \"#utility.yul\":24202:24203   */\n      0x00\n        /* \"#utility.yul\":24191:24200   */\n      dup4\n        /* \"#utility.yul\":24187:24204   */\n      add\n        /* \"#utility.yul\":24180:24227   */\n      mstore\n        /* \"#utility.yul\":24244:24394   */\n      tag_607\n        /* \"#utility.yul\":24389:24393   */\n      dup2\n        /* \"#utility.yul\":24380:24386   */\n      dup5\n        /* \"#utility.yul\":24244:24394   */\n      tag_350\n      jump\t// in\n    tag_607:\n        /* \"#utility.yul\":24236:24394   */\n      swap1\n      pop\n        /* \"#utility.yul\":23944:24401   */\n      swap3\n      swap2\n      pop\n      pop\n      jump\t// out\n        /* \"#utility.yul\":24407:24549   */\n    tag_351:\n        /* \"#utility.yul\":24502:24508   */\n      0x00\n        /* \"#utility.yul\":24536:24541   */\n      dup2\n        /* \"#utility.yul\":24530:24542   */\n      mload\n        /* \"#utility.yul\":24520:24542   */\n      swap1\n      pop\n        /* \"#utility.yul\":24407:24549   */\n      swap2\n      swap1\n      pop\n      jump\t// out\n        /* \"#utility.yul\":24555:24767   */\n    tag_352:\n        /* \"#utility.yul\":24682:24693   */\n      0x00\n        /* \"#utility.yul\":24716:24722   */\n      dup3\n        /* \"#utility.yul\":24711:24714   */\n      dup3\n        /* \"#utility.yul\":24704:24723   */\n      mstore\n        /* \"#utility.yul\":24756:24760   */\n      0x20\n        /* \"#utility.yul\":24751:24754   */\n      dup3\n        /* \"#utility.yul\":24747:24761   */\n      add\n        /* \"#utility.yul\":24732:24761   */\n      swap1\n      pop\n        /* \"#utility.yul\":24555:24767   */\n      swap3\n      swap2\n      pop\n      pop\n      jump\t// out\n        /* \"#utility.yul\":24773:24933   */\n    tag_353:\n        /* \"#utility.yul\":24868:24872   */\n      0x00\n        /* \"#utility.yul\":24891:24894   */\n      dup2\n        /* \"#utility.yul\":24883:24894   */\n      swap1\n      pop\n        /* \"#utility.yul\":24921:24925   */\n      0x20\n        /* \"#utility.yul\":24916:24919   */\n      dup3\n        /* \"#utility.yul\":24912:24926   */\n      add\n        /* \"#utility.yul\":24904:24926   */\n      swap1\n      pop\n        /* \"#utility.yul\":24773:24933   */\n      swap2\n      swap1\n      pop\n      jump\t// out\n        /* \"#utility.yul\":25019:26710   */\n    tag_354:\n        /* \"#utility.yul\":25134:25137   */\n      0x00\n        /* \"#utility.yul\":25170:25174   */\n      0xe0\n        /* \"#utility.yul\":25165:25168   */\n      dup4\n        /* \"#utility.yul\":25161:25175   */\n      add\n        /* \"#utility.yul\":25257:25261   */\n      0x00\n        /* \"#utility.yul\":25250:25255   */\n      dup4\n        /* \"#utility.yul\":25246:25262   */\n      add\n        /* \"#utility.yul\":25240:25263   */\n      mload\n        /* \"#utility.yul\":25310:25313   */\n      dup5\n        /* \"#utility.yul\":25304:25308   */\n      dup3\n        /* \"#utility.yul\":25300:25314   */\n      sub\n        /* \"#utility.yul\":25293:25297   */\n      0x00\n        /* \"#utility.yul\":25288:25291   */\n      dup7\n        /* \"#utility.yul\":25284:25298   */\n      add\n        /* \"#utility.yul\":25277:25315   */\n      mstore\n        /* \"#utility.yul\":25336:25409   */\n      tag_612\n        /* \"#utility.yul\":25404:25408   */\n      dup3\n        /* \"#utility.yul\":25390:25402   */\n      dup3\n        /* \"#utility.yul\":25336:25409   */\n      tag_323\n      jump\t// in\n    tag_612:\n        /* \"#utility.yul\":25328:25409   */\n      swap2\n      pop\n        /* \"#utility.yul\":25185:25420   */\n      pop\n        /* \"#utility.yul\":25508:25512   */\n      0x20\n        /* \"#utility.yul\":25501:25506   */\n      dup4\n        /* \"#utility.yul\":25497:25513   */\n      add\n        /* \"#utility.yul\":25491:25514   */\n      mload\n        /* \"#utility.yul\":25561:25564   */\n      dup5\n        /* \"#utility.yul\":25555:25559   */\n      dup3\n        /* \"#utility.yul\":25551:25565   */\n      sub\n        /* \"#utility.yul\":25544:25548   */\n      0x20\n        /* \"#utility.yul\":25539:25542   */\n      dup7\n        /* \"#utility.yul\":25535:25549   */\n      add\n        /* \"#utility.yul\":25528:25566   */\n      mstore\n        /* \"#utility.yul\":25587:25660   */\n      tag_613\n        /* \"#utility.yul\":25655:25659   */\n      dup3\n        /* \"#utility.yul\":25641:25653   */\n      dup3\n        /* \"#utility.yul\":25587:25660   */\n      tag_323\n      jump\t// in\n    tag_613:\n        /* \"#utility.yul\":25579:25660   */\n      swap2\n      pop\n        /* \"#utility.yul\":25430:25671   */\n      pop\n        /* \"#utility.yul\":25756:25760   */\n      0x40\n        /* \"#utility.yul\":25749:25754   */\n      dup4\n        /* \"#utility.yul\":25745:25761   */\n      add\n        /* \"#utility.yul\":25739:25762   */\n      mload\n        /* \"#utility.yul\":25775:25832   */\n      tag_614\n        /* \"#utility.yul\":25826:25830   */\n      0x40\n        /* \"#utility.yul\":25821:25824   */\n      dup7\n        /* \"#utility.yul\":25817:25831   */\n      add\n        /* \"#utility.yul\":25803:25815   */\n      dup3\n        /* \"#utility.yul\":25775:25832   */\n      tag_346\n      jump\t// in\n    tag_614:\n        /* \"#utility.yul\":25681:25842   */\n      pop\n        /* \"#utility.yul\":25929:25933   */\n      0x60\n        /* \"#utility.yul\":25922:25927   */\n      dup4\n        /* \"#utility.yul\":25918:25934   */\n      add\n        /* \"#utility.yul\":25912:25935   */\n      mload\n        /* \"#utility.yul\":25948:26005   */\n      tag_615\n        /* \"#utility.yul\":25999:26003   */\n      0x60\n        /* \"#utility.yul\":25994:25997   */\n      dup7\n        /* \"#utility.yul\":25990:26004   */\n      add\n        /* \"#utility.yul\":25976:25988   */\n      dup3\n        /* \"#utility.yul\":25948:26005   */\n      tag_346\n      jump\t// in\n    tag_615:\n        /* \"#utility.yul\":25852:26015   */\n      pop\n        /* \"#utility.yul\":26100:26104   */\n      0x80\n        /* \"#utility.yul\":26093:26098   */\n      dup4\n        /* \"#utility.yul\":26089:26105   */\n      add\n        /* \"#utility.yul\":26083:26106   */\n      mload\n        /* \"#utility.yul\":26119:26176   */\n      tag_616\n        /* \"#utility.yul\":26170:26174   */\n      0x80\n        /* \"#utility.yul\":26165:26168   */\n      dup7\n        /* \"#utility.yul\":26161:26175   */\n      add\n        /* \"#utility.yul\":26147:26159   */\n      dup3\n        /* \"#utility.yul\":26119:26176   */\n      tag_346\n      jump\t// in\n    tag_616:\n        /* \"#utility.yul\":26025:26186   */\n      pop\n        /* \"#utility.yul\":26268:26272   */\n      0xa0\n        /* \"#utility.yul\":26261:26266   */\n      dup4\n        /* \"#utility.yul\":26257:26273   */\n      add\n        /* \"#utility.yul\":26251:26274   */\n      mload\n        /* \"#utility.yul\":26321:26324   */\n      dup5\n        /* \"#utility.yul\":26315:26319   */\n      dup3\n        /* \"#utility.yul\":26311:26325   */\n      sub\n        /* \"#utility.yul\":26304:26308   */\n      0xa0\n        /* \"#utility.yul\":26299:26302   */\n      dup7\n        /* \"#utility.yul\":26295:26309   */\n      add\n        /* \"#utility.yul\":26288:26326   */\n      mstore\n        /* \"#utility.yul\":26347:26420   */\n      tag_617\n        /* \"#utility.yul\":26415:26419   */\n      dup3\n        /* \"#utility.yul\":26401:26413   */\n      dup3\n        /* \"#utility.yul\":26347:26420   */\n      tag_323\n      jump\t// in\n    tag_617:\n        /* \"#utility.yul\":26339:26420   */\n      swap2\n      pop\n        /* \"#utility.yul\":26196:26431   */\n      pop\n        /* \"#utility.yul\":26520:26524   */\n      0xc0\n        /* \"#utility.yul\":26513:26518   */\n      dup4\n        /* \"#utility.yul\":26509:26525   */\n      add\n        /* \"#utility.yul\":26503:26526   */\n      mload\n        /* \"#utility.yul\":26573:26576   */\n      dup5\n        /* \"#utility.yul\":26567:26571   */\n      dup3\n        /* \"#utility.yul\":26563:26577   */\n      sub\n        /* \"#utility.yul\":26556:26560   */\n      0xc0\n        /* \"#utility.yul\":26551:26554   */\n      dup7\n        /* \"#utility.yul\":26547:26561   */\n      add\n        /* \"#utility.yul\":26540:26578   */\n      mstore\n        /* \"#utility.yul\":26599:26672   */\n      tag_618\n        /* \"#utility.yul\":26667:26671   */\n      dup3\n        /* \"#utility.yul\":26653:26665   */\n      dup3\n        /* \"#utility.yul\":26599:26672   */\n      tag_323\n      jump\t// in\n    tag_618:\n        /* \"#utility.yul\":26591:26672   */\n      swap2\n      pop\n        /* \"#utility.yul\":26441:26683   */\n      pop\n        /* \"#utility.yul\":26700:26704   */\n      dup1\n        /* \"#utility.yul\":26693:26704   */\n      swap2\n      pop\n        /* \"#utility.yul\":25139:26710   */\n      pop\n        /* \"#utility.yul\":25019:26710   */\n      swap3\n      swap2\n      pop\n      pop\n      jump\t// out\n        /* \"#utility.yul\":26716:26984   */\n    tag_355:\n        /* \"#utility.yul\":26841:26851   */\n      0x00\n        /* \"#utility.yul\":26876:26978   */\n      tag_620\n        /* \"#utility.yul\":26974:26977   */\n      dup4\n        /* \"#utility.yul\":26966:26972   */\n      dup4\n        /* \"#utility.yul\":26876:26978   */\n      tag_354\n      jump\t// in\n    tag_620:\n        /* \"#utility.yul\":26862:26978   */\n      swap1\n      pop\n        /* \"#utility.yul\":26716:26984   */\n      swap3\n      swap2\n      pop\n      pop\n      jump\t// out\n        /* \"#utility.yul\":26990:27131   */\n    tag_356:\n        /* \"#utility.yul\":27088:27092   */\n      0x00\n        /* \"#utility.yul\":27120:27124   */\n      0x20\n        /* \"#utility.yul\":27115:27118   */\n      dup3\n        /* \"#utility.yul\":27111:27125   */\n      add\n        /* \"#utility.yul\":27103:27125   */\n      swap1\n      pop\n        /* \"#utility.yul\":26990:27131   */\n      swap2\n      swap1\n      pop\n      jump\t// out\n        /* \"#utility.yul\":27221:28356   */\n    tag_357:\n        /* \"#utility.yul\":27396:27399   */\n      0x00\n        /* \"#utility.yul\":27425:27507   */\n      tag_623\n        /* \"#utility.yul\":27501:27506   */\n      dup3\n        /* \"#utility.yul\":27425:27507   */\n      tag_351\n      jump\t// in\n    tag_623:\n        /* \"#utility.yul\":27523:27637   */\n      tag_624\n        /* \"#utility.yul\":27630:27636   */\n      dup2\n        /* \"#utility.yul\":27625:27628   */\n      dup6\n        /* \"#utility.yul\":27523:27637   */\n      tag_352\n      jump\t// in\n    tag_624:\n        /* \"#utility.yul\":27516:27637   */\n      swap4\n      pop\n        /* \"#utility.yul\":27663:27666   */\n      dup4\n        /* \"#utility.yul\":27708:27712   */\n      0x20\n        /* \"#utility.yul\":27700:27706   */\n      dup3\n        /* \"#utility.yul\":27696:27713   */\n      mul\n        /* \"#utility.yul\":27691:27694   */\n      dup6\n        /* \"#utility.yul\":27687:27714   */\n      add\n        /* \"#utility.yul\":27738:27822   */\n      tag_625\n        /* \"#utility.yul\":27816:27821   */\n      dup6\n        /* \"#utility.yul\":27738:27822   */\n      tag_353\n      jump\t// in\n    tag_625:\n        /* \"#utility.yul\":27845:27852   */\n      dup1\n        /* \"#utility.yul\":27876:27877   */\n      0x00\n        /* \"#utility.yul\":27861:28311   */\n    tag_626:\n        /* \"#utility.yul\":27886:27892   */\n      dup6\n        /* \"#utility.yul\":27883:27884   */\n      dup2\n        /* \"#utility.yul\":27880:27893   */\n      lt\n        /* \"#utility.yul\":27861:28311   */\n      iszero\n      tag_628\n      jumpi\n        /* \"#utility.yul\":27957:27966   */\n      dup5\n        /* \"#utility.yul\":27951:27955   */\n      dup5\n        /* \"#utility.yul\":27947:27967   */\n      sub\n        /* \"#utility.yul\":27942:27945   */\n      dup10\n        /* \"#utility.yul\":27935:27968   */\n      mstore\n        /* \"#utility.yul\":28008:28014   */\n      dup2\n        /* \"#utility.yul\":28002:28015   */\n      mload\n        /* \"#utility.yul\":28036:28156   */\n      tag_629\n        /* \"#utility.yul\":28151:28155   */\n      dup6\n        /* \"#utility.yul\":28136:28149   */\n      dup3\n        /* \"#utility.yul\":28036:28156   */\n      tag_355\n      jump\t// in\n    tag_629:\n        /* \"#utility.yul\":28028:28156   */\n      swap5\n      pop\n        /* \"#utility.yul\":28179:28267   */\n      tag_630\n        /* \"#utility.yul\":28260:28266   */\n      dup4\n        /* \"#utility.yul\":28179:28267   */\n      tag_356\n      jump\t// in\n    tag_630:\n        /* \"#utility.yul\":28169:28267   */\n      swap3\n      pop\n        /* \"#utility.yul\":28296:28300   */\n      0x20\n        /* \"#utility.yul\":28291:28294   */\n      dup11\n        /* \"#utility.yul\":28287:28301   */\n      add\n        /* \"#utility.yul\":28280:28301   */\n      swap10\n      pop\n        /* \"#utility.yul\":27921:28311   */\n      pop\n        /* \"#utility.yul\":27908:27909   */\n      0x01\n        /* \"#utility.yul\":27905:27906   */\n      dup2\n        /* \"#utility.yul\":27901:27910   */\n      add\n        /* \"#utility.yul\":27896:27910   */\n      swap1\n      pop\n        /* \"#utility.yul\":27861:28311   */\n      jump(tag_626)\n    tag_628:\n        /* \"#utility.yul\":27865:27879   */\n      pop\n        /* \"#utility.yul\":28327:28331   */\n      dup3\n        /* \"#utility.yul\":28320:28331   */\n      swap8\n      pop\n        /* \"#utility.yul\":28347:28350   */\n      dup8\n        /* \"#utility.yul\":28340:28350   */\n      swap6\n      pop\n        /* \"#utility.yul\":27401:28356   */\n      pop\n      pop\n      pop\n      pop\n      pop\n        /* \"#utility.yul\":27221:28356   */\n      swap3\n      swap2\n      pop\n      pop\n      jump\t// out\n        /* \"#utility.yul\":28362:28847   */\n    tag_63:\n        /* \"#utility.yul\":28561:28565   */\n      0x00\n        /* \"#utility.yul\":28599:28601   */\n      0x20\n        /* \"#utility.yul\":28588:28597   */\n      dup3\n        /* \"#utility.yul\":28584:28602   */\n      add\n        /* \"#utility.yul\":28576:28602   */\n      swap1\n      pop\n        /* \"#utility.yul\":28648:28657   */\n      dup2\n        /* \"#utility.yul\":28642:28646   */\n      dup2\n        /* \"#utility.yul\":28638:28658   */\n      sub\n        /* \"#utility.yul\":28634:28635   */\n      0x00\n        /* \"#utility.yul\":28623:28632   */\n      dup4\n        /* \"#utility.yul\":28619:28636   */\n      add\n        /* \"#utility.yul\":28612:28659   */\n      mstore\n        /* \"#utility.yul\":28676:28840   */\n      tag_632\n        /* \"#utility.yul\":28835:28839   */\n      dup2\n        /* \"#utility.yul\":28826:28832   */\n      dup5\n        /* \"#utility.yul\":28676:28840   */\n      tag_357\n      jump\t// in\n    tag_632:\n        /* \"#utility.yul\":28668:28840   */\n      swap1\n      pop\n        /* \"#utility.yul\":28362:28847   */\n      swap3\n      swap2\n      pop\n      pop\n      jump\t// out\n        /* \"#utility.yul\":28853:30990   */\n    tag_66:\n        /* \"#utility.yul\":29017:29023   */\n      0x00\n        /* \"#utility.yul\":29025:29031   */\n      dup1\n        /* \"#utility.yul\":29033:29039   */\n      0x00\n        /* \"#utility.yul\":29041:29047   */\n      dup1\n        /* \"#utility.yul\":29049:29055   */\n      0x00\n        /* \"#utility.yul\":29057:29063   */\n      dup1\n        /* \"#utility.yul\":29106:29109   */\n      0xc0\n        /* \"#utility.yul\":29094:29103   */\n      dup8\n        /* \"#utility.yul\":29085:29092   */\n      dup10\n        /* \"#utility.yul\":29081:29104   */\n      sub\n        /* \"#utility.yul\":29077:29110   */\n      slt\n        /* \"#utility.yul\":29074:29194   */\n      iszero\n      tag_634\n      jumpi\n        /* \"#utility.yul\":29113:29192   */\n      tag_635\n      tag_299\n      jump\t// in\n    tag_635:\n        /* \"#utility.yul\":29074:29194   */\n    tag_634:\n        /* \"#utility.yul\":29261:29262   */\n      0x00\n        /* \"#utility.yul\":29250:29259   */\n      dup8\n        /* \"#utility.yul\":29246:29263   */\n      add\n        /* \"#utility.yul\":29233:29264   */\n      calldataload\n        /* \"#utility.yul\":29291:29309   */\n      0xffffffffffffffff\n        /* \"#utility.yul\":29283:29289   */\n      dup2\n        /* \"#utility.yul\":29280:29310   */\n      gt\n        /* \"#utility.yul\":29277:29394   */\n      iszero\n      tag_636\n      jumpi\n        /* \"#utility.yul\":29313:29392   */\n      tag_637\n      tag_300\n      jump\t// in\n    tag_637:\n        /* \"#utility.yul\":29277:29394   */\n    tag_636:\n        /* \"#utility.yul\":29418:29481   */\n      tag_638\n        /* \"#utility.yul\":29473:29480   */\n      dup10\n        /* \"#utility.yul\":29464:29470   */\n      dup3\n        /* \"#utility.yul\":29453:29462   */\n      dup11\n        /* \"#utility.yul\":29449:29471   */\n      add\n        /* \"#utility.yul\":29418:29481   */\n      tag_313\n      jump\t// in\n    tag_638:\n        /* \"#utility.yul\":29408:29481   */\n      swap7\n      pop\n        /* \"#utility.yul\":29204:29491   */\n      pop\n        /* \"#utility.yul\":29558:29560   */\n      0x20\n        /* \"#utility.yul\":29547:29556   */\n      dup8\n        /* \"#utility.yul\":29543:29561   */\n      add\n        /* \"#utility.yul\":29530:29562   */\n      calldataload\n        /* \"#utility.yul\":29589:29607   */\n      0xffffffffffffffff\n        /* \"#utility.yul\":29581:29587   */\n      dup2\n        /* \"#utility.yul\":29578:29608   */\n      gt\n        /* \"#utility.yul\":29575:29692   */\n      iszero\n      tag_639\n      jumpi\n        /* \"#utility.yul\":29611:29690   */\n      tag_640\n      tag_300\n      jump\t// in\n    tag_640:\n        /* \"#utility.yul\":29575:29692   */\n    tag_639:\n        /* \"#utility.yul\":29716:29779   */\n      tag_641\n        /* \"#utility.yul\":29771:29778   */\n      dup10\n        /* \"#utility.yul\":29762:29768   */\n      dup3\n        /* \"#utility.yul\":29751:29760   */\n      dup11\n        /* \"#utility.yul\":29747:29769   */\n      add\n        /* \"#utility.yul\":29716:29779   */\n      tag_313\n      jump\t// in\n    tag_641:\n        /* \"#utility.yul\":29706:29779   */\n      swap6\n      pop\n        /* \"#utility.yul\":29501:29789   */\n      pop\n        /* \"#utility.yul\":29856:29858   */\n      0x40\n        /* \"#utility.yul\":29845:29854   */\n      dup8\n        /* \"#utility.yul\":29841:29859   */\n      add\n        /* \"#utility.yul\":29828:29860   */\n      calldataload\n        /* \"#utility.yul\":29887:29905   */\n      0xffffffffffffffff\n        /* \"#utility.yul\":29879:29885   */\n      dup2\n        /* \"#utility.yul\":29876:29906   */\n      gt\n        /* \"#utility.yul\":29873:29990   */\n      iszero\n      tag_642\n      jumpi\n        /* \"#utility.yul\":29909:29988   */\n      tag_643\n      tag_300\n      jump\t// in\n    tag_643:\n        /* \"#utility.yul\":29873:29990   */\n    tag_642:\n        /* \"#utility.yul\":30014:30077   */\n      tag_644\n        /* \"#utility.yul\":30069:30076   */\n      dup10\n        /* \"#utility.yul\":30060:30066   */\n      dup3\n        /* \"#utility.yul\":30049:30058   */\n      dup11\n        /* \"#utility.yul\":30045:30067   */\n      add\n        /* \"#utility.yul\":30014:30077   */\n      tag_313\n      jump\t// in\n    tag_644:\n        /* \"#utility.yul\":30004:30077   */\n      swap5\n      pop\n        /* \"#utility.yul\":29799:30087   */\n      pop\n        /* \"#utility.yul\":30154:30156   */\n      0x60\n        /* \"#utility.yul\":30143:30152   */\n      dup8\n        /* \"#utility.yul\":30139:30157   */\n      add\n        /* \"#utility.yul\":30126:30158   */\n      calldataload\n        /* \"#utility.yul\":30185:30203   */\n      0xffffffffffffffff\n        /* \"#utility.yul\":30177:30183   */\n      dup2\n        /* \"#utility.yul\":30174:30204   */\n      gt\n        /* \"#utility.yul\":30171:30288   */\n      iszero\n      tag_645\n      jumpi\n        /* \"#utility.yul\":30207:30286   */\n      tag_646\n      tag_300\n      jump\t// in\n    tag_646:\n        /* \"#utility.yul\":30171:30288   */\n    tag_645:\n        /* \"#utility.yul\":30312:30375   */\n      tag_647\n        /* \"#utility.yul\":30367:30374   */\n      dup10\n        /* \"#utility.yul\":30358:30364   */\n      dup3\n        /* \"#utility.yul\":30347:30356   */\n      dup11\n        /* \"#utility.yul\":30343:30365   */\n      add\n        /* \"#utility.yul\":30312:30375   */\n      tag_313\n      jump\t// in\n    tag_647:\n        /* \"#utility.yul\":30302:30375   */\n      swap4\n      pop\n        /* \"#utility.yul\":30097:30385   */\n      pop\n        /* \"#utility.yul\":30452:30455   */\n      0x80\n        /* \"#utility.yul\":30441:30450   */\n      dup8\n        /* \"#utility.yul\":30437:30456   */\n      add\n        /* \"#utility.yul\":30424:30457   */\n      calldataload\n        /* \"#utility.yul\":30484:30502   */\n      0xffffffffffffffff\n        /* \"#utility.yul\":30476:30482   */\n      dup2\n        /* \"#utility.yul\":30473:30503   */\n      gt\n        /* \"#utility.yul\":30470:30587   */\n      iszero\n      tag_648\n      jumpi\n        /* \"#utility.yul\":30506:30585   */\n      tag_649\n      tag_300\n      jump\t// in\n    tag_649:\n        /* \"#utility.yul\":30470:30587   */\n    tag_648:\n        /* \"#utility.yul\":30611:30674   */\n      tag_650\n        /* \"#utility.yul\":30666:30673   */\n      dup10\n        /* \"#utility.yul\":30657:30663   */\n      dup3\n        /* \"#utility.yul\":30646:30655   */\n      dup11\n        /* \"#utility.yul\":30642:30664   */\n      add\n        /* \"#utility.yul\":30611:30674   */\n      tag_313\n      jump\t// in\n    tag_650:\n        /* \"#utility.yul\":30601:30674   */\n      swap3\n      pop\n        /* \"#utility.yul\":30395:30684   */\n      pop\n        /* \"#utility.yul\":30751:30754   */\n      0xa0\n        /* \"#utility.yul\":30740:30749   */\n      dup8\n        /* \"#utility.yul\":30736:30755   */\n      add\n        /* \"#utility.yul\":30723:30756   */\n      calldataload\n        /* \"#utility.yul\":30783:30801   */\n      0xffffffffffffffff\n        /* \"#utility.yul\":30775:30781   */\n      dup2\n        /* \"#utility.yul\":30772:30802   */\n      gt\n        /* \"#utility.yul\":30769:30886   */\n      iszero\n      tag_651\n      jumpi\n        /* \"#utility.yul\":30805:30884   */\n      tag_652\n      tag_300\n      jump\t// in\n    tag_652:\n        /* \"#utility.yul\":30769:30886   */\n    tag_651:\n        /* \"#utility.yul\":30910:30973   */\n      tag_653\n        /* \"#utility.yul\":30965:30972   */\n      dup10\n        /* \"#utility.yul\":30956:30962   */\n      dup3\n        /* \"#utility.yul\":30945:30954   */\n      dup11\n        /* \"#utility.yul\":30941:30963   */\n      add\n        /* \"#utility.yul\":30910:30973   */\n      tag_313\n      jump\t// in\n    tag_653:\n        /* \"#utility.yul\":30900:30973   */\n      swap2\n      pop\n        /* \"#utility.yul\":30694:30983   */\n      pop\n        /* \"#utility.yul\":28853:30990   */\n      swap3\n      swap6\n      pop\n      swap3\n      swap6\n      pop\n      swap3\n      swap6\n      jump\t// out\n        /* \"#utility.yul\":30996:31783   */\n    tag_70:\n        /* \"#utility.yul\":31077:31083   */\n      0x00\n        /* \"#utility.yul\":31085:31091   */\n      dup1\n        /* \"#utility.yul\":31093:31099   */\n      0x00\n        /* \"#utility.yul\":31142:31144   */\n      0x60\n        /* \"#utility.yul\":31130:31139   */\n      dup5\n        /* \"#utility.yul\":31121:31128   */\n      dup7\n        /* \"#utility.yul\":31117:31140   */\n      sub\n        /* \"#utility.yul\":31113:31145   */\n      slt\n        /* \"#utility.yul\":31110:31229   */\n      iszero\n      tag_655\n      jumpi\n        /* \"#utility.yul\":31148:31227   */\n      tag_656\n      tag_299\n      jump\t// in\n    tag_656:\n        /* \"#utility.yul\":31110:31229   */\n    tag_655:\n        /* \"#utility.yul\":31296:31297   */\n      0x00\n        /* \"#utility.yul\":31285:31294   */\n      dup5\n        /* \"#utility.yul\":31281:31298   */\n      add\n        /* \"#utility.yul\":31268:31299   */\n      calldataload\n        /* \"#utility.yul\":31326:31344   */\n      0xffffffffffffffff\n        /* \"#utility.yul\":31318:31324   */\n      dup2\n        /* \"#utility.yul\":31315:31345   */\n      gt\n        /* \"#utility.yul\":31312:31429   */\n      iszero\n      tag_657\n      jumpi\n        /* \"#utility.yul\":31348:31427   */\n      tag_658\n      tag_300\n      jump\t// in\n    tag_658:\n        /* \"#utility.yul\":31312:31429   */\n    tag_657:\n        /* \"#utility.yul\":31453:31516   */\n      tag_659\n        /* \"#utility.yul\":31508:31515   */\n      dup7\n        /* \"#utility.yul\":31499:31505   */\n      dup3\n        /* \"#utility.yul\":31488:31497   */\n      dup8\n        /* \"#utility.yul\":31484:31506   */\n      add\n        /* \"#utility.yul\":31453:31516   */\n      tag_313\n      jump\t// in\n    tag_659:\n        /* \"#utility.yul\":31443:31516   */\n      swap4\n      pop\n        /* \"#utility.yul\":31239:31526   */\n      pop\n        /* \"#utility.yul\":31565:31567   */\n      0x20\n        /* \"#utility.yul\":31591:31641   */\n      tag_660\n        /* \"#utility.yul\":31633:31640   */\n      dup7\n        /* \"#utility.yul\":31624:31630   */\n      dup3\n        /* \"#utility.yul\":31613:31622   */\n      dup8\n        /* \"#utility.yul\":31609:31631   */\n      add\n        /* \"#utility.yul\":31591:31641   */\n      tag_316\n      jump\t// in\n    tag_660:\n        /* \"#utility.yul\":31581:31641   */\n      swap3\n      pop\n        /* \"#utility.yul\":31536:31651   */\n      pop\n        /* \"#utility.yul\":31690:31692   */\n      0x40\n        /* \"#utility.yul\":31716:31766   */\n      tag_661\n        /* \"#utility.yul\":31758:31765   */\n      dup7\n        /* \"#utility.yul\":31749:31755   */\n      dup3\n        /* \"#utility.yul\":31738:31747   */\n      dup8\n        /* \"#utility.yul\":31734:31756   */\n      add\n        /* \"#utility.yul\":31716:31766   */\n      tag_316\n      jump\t// in\n    tag_661:\n        /* \"#utility.yul\":31706:31766   */\n      swap2\n      pop\n        /* \"#utility.yul\":31661:31776   */\n      pop\n        /* \"#utility.yul\":30996:31783   */\n      swap3\n      pop\n      swap3\n      pop\n      swap3\n      jump\t// out\n        /* \"#utility.yul\":31789:31958   */\n    tag_358:\n        /* \"#utility.yul\":31873:31884   */\n      0x00\n        /* \"#utility.yul\":31907:31913   */\n      dup3\n        /* \"#utility.yul\":31902:31905   */\n      dup3\n        /* \"#utility.yul\":31895:31914   */\n      mstore\n        /* \"#utility.yul\":31947:31951   */\n      0x20\n        /* \"#utility.yul\":31942:31945   */\n      dup3\n        /* \"#utility.yul\":31938:31952   */\n      add\n        /* \"#utility.yul\":31923:31952   */\n      swap1\n      pop\n        /* \"#utility.yul\":31789:31958   */\n      swap3\n      swap2\n      pop\n      pop\n      jump\t// out\n        /* \"#utility.yul\":31964:32341   */\n    tag_359:\n        /* \"#utility.yul\":32052:32055   */\n      0x00\n        /* \"#utility.yul\":32080:32119   */\n      tag_664\n        /* \"#utility.yul\":32113:32118   */\n      dup3\n        /* \"#utility.yul\":32080:32119   */\n      tag_320\n      jump\t// in\n    tag_664:\n        /* \"#utility.yul\":32135:32206   */\n      tag_665\n        /* \"#utility.yul\":32199:32205   */\n      dup2\n        /* \"#utility.yul\":32194:32197   */\n      dup6\n        /* \"#utility.yul\":32135:32206   */\n      tag_358\n      jump\t// in\n    tag_665:\n        /* \"#utility.yul\":32128:32206   */\n      swap4\n      pop\n        /* \"#utility.yul\":32215:32280   */\n      tag_666\n        /* \"#utility.yul\":32273:32279   */\n      dup2\n        /* \"#utility.yul\":32268:32271   */\n      dup6\n        /* \"#utility.yul\":32261:32265   */\n      0x20\n        /* \"#utility.yul\":32254:32259   */\n      dup7\n        /* \"#utility.yul\":32250:32266   */\n      add\n        /* \"#utility.yul\":32215:32280   */\n      tag_322\n      jump\t// in\n    tag_666:\n        /* \"#utility.yul\":32305:32334   */\n      tag_667\n        /* \"#utility.yul\":32327:32333   */\n      dup2\n        /* \"#utility.yul\":32305:32334   */\n      tag_307\n      jump\t// in\n    tag_667:\n        /* \"#utility.yul\":32300:32303   */\n      dup5\n        /* \"#utility.yul\":32296:32335   */\n      add\n        /* \"#utility.yul\":32289:32335   */\n      swap2\n      pop\n        /* \"#utility.yul\":32056:32341   */\n      pop\n        /* \"#utility.yul\":31964:32341   */\n      swap3\n      swap2\n      pop\n      pop\n      jump\t// out\n        /* \"#utility.yul\":32347:33062   */\n    tag_73:\n        /* \"#utility.yul\":32556:32560   */\n      0x00\n        /* \"#utility.yul\":32594:32596   */\n      0x60\n        /* \"#utility.yul\":32583:32592   */\n      dup3\n        /* \"#utility.yul\":32579:32597   */\n      add\n        /* \"#utility.yul\":32571:32597   */\n      swap1\n      pop\n        /* \"#utility.yul\":32643:32652   */\n      dup2\n        /* \"#utility.yul\":32637:32641   */\n      dup2\n        /* \"#utility.yul\":32633:32653   */\n      sub\n        /* \"#utility.yul\":32629:32630   */\n      0x00\n        /* \"#utility.yul\":32618:32627   */\n      dup4\n        /* \"#utility.yul\":32614:32631   */\n      add\n        /* \"#utility.yul\":32607:32654   */\n      mstore\n        /* \"#utility.yul\":32671:32749   */\n      tag_669\n        /* \"#utility.yul\":32744:32748   */\n      dup2\n        /* \"#utility.yul\":32735:32741   */\n      dup7\n        /* \"#utility.yul\":32671:32749   */\n      tag_359\n      jump\t// in\n    tag_669:\n        /* \"#utility.yul\":32663:32749   */\n      swap1\n      pop\n        /* \"#utility.yul\":32796:32805   */\n      dup2\n        /* \"#utility.yul\":32790:32794   */\n      dup2\n        /* \"#utility.yul\":32786:32806   */\n      sub\n        /* \"#utility.yul\":32781:32783   */\n      0x20\n        /* \"#utility.yul\":32770:32779   */\n      dup4\n        /* \"#utility.yul\":32766:32784   */\n      add\n        /* \"#utility.yul\":32759:32807   */\n      mstore\n        /* \"#utility.yul\":32824:32902   */\n      tag_670\n        /* \"#utility.yul\":32897:32901   */\n      dup2\n        /* \"#utility.yul\":32888:32894   */\n      dup6\n        /* \"#utility.yul\":32824:32902   */\n      tag_359\n      jump\t// in\n    tag_670:\n        /* \"#utility.yul\":32816:32902   */\n      swap1\n      pop\n        /* \"#utility.yul\":32949:32958   */\n      dup2\n        /* \"#utility.yul\":32943:32947   */\n      dup2\n        /* \"#utility.yul\":32939:32959   */\n      sub\n        /* \"#utility.yul\":32934:32936   */\n      0x40\n        /* \"#utility.yul\":32923:32932   */\n      dup4\n        /* \"#utility.yul\":32919:32937   */\n      add\n        /* \"#utility.yul\":32912:32960   */\n      mstore\n        /* \"#utility.yul\":32977:33055   */\n      tag_671\n        /* \"#utility.yul\":33050:33054   */\n      dup2\n        /* \"#utility.yul\":33041:33047   */\n      dup5\n        /* \"#utility.yul\":32977:33055   */\n      tag_359\n      jump\t// in\n    tag_671:\n        /* \"#utility.yul\":32969:33055   */\n      swap1\n      pop\n        /* \"#utility.yul\":32347:33062   */\n      swap5\n      swap4\n      pop\n      pop\n      pop\n      pop\n      jump\t// out\n        /* \"#utility.yul\":33068:33192   */\n    tag_360:\n        /* \"#utility.yul\":33145:33151   */\n      0x00\n        /* \"#utility.yul\":33179:33184   */\n      dup2\n        /* \"#utility.yul\":33173:33185   */\n      mload\n        /* \"#utility.yul\":33163:33185   */\n      swap1\n      pop\n        /* \"#utility.yul\":33068:33192   */\n      swap2\n      swap1\n      pop\n      jump\t// out\n        /* \"#utility.yul\":33198:33382   */\n    tag_361:\n        /* \"#utility.yul\":33297:33308   */\n      0x00\n        /* \"#utility.yul\":33331:33337   */\n      dup3\n        /* \"#utility.yul\":33326:33329   */\n      dup3\n        /* \"#utility.yul\":33319:33338   */\n      mstore\n        /* \"#utility.yul\":33371:33375   */\n      0x20\n        /* \"#utility.yul\":33366:33369   */\n      dup3\n        /* \"#utility.yul\":33362:33376   */\n      add\n        /* \"#utility.yul\":33347:33376   */\n      swap1\n      pop\n        /* \"#utility.yul\":33198:33382   */\n      swap3\n      swap2\n      pop\n      pop\n      jump\t// out\n        /* \"#utility.yul\":33388:33530   */\n    tag_362:\n        /* \"#utility.yul\":33465:33469   */\n      0x00\n        /* \"#utility.yul\":33488:33491   */\n      dup2\n        /* \"#utility.yul\":33480:33491   */\n      swap1\n      pop\n        /* \"#utility.yul\":33518:33522   */\n      0x20\n        /* \"#utility.yul\":33513:33516   */\n      dup3\n        /* \"#utility.yul\":33509:33523   */\n      add\n        /* \"#utility.yul\":33501:33523   */\n      swap1\n      pop\n        /* \"#utility.yul\":33388:33530   */\n      swap2\n      swap1\n      pop\n      jump\t// out\n        /* \"#utility.yul\":33536:33732   */\n    tag_363:\n        /* \"#utility.yul\":33625:33635   */\n      0x00\n        /* \"#utility.yul\":33660:33726   */\n      tag_676\n        /* \"#utility.yul\":33722:33725   */\n      dup4\n        /* \"#utility.yul\":33714:33720   */\n      dup4\n        /* \"#utility.yul\":33660:33726   */\n      tag_323\n      jump\t// in\n    tag_676:\n        /* \"#utility.yul\":33646:33726   */\n      swap1\n      pop\n        /* \"#utility.yul\":33536:33732   */\n      swap3\n      swap2\n      pop\n      pop\n      jump\t// out\n        /* \"#utility.yul\":33738:33861   */\n    tag_364:\n        /* \"#utility.yul\":33818:33822   */\n      0x00\n        /* \"#utility.yul\":33850:33854   */\n      0x20\n        /* \"#utility.yul\":33845:33848   */\n      dup3\n        /* \"#utility.yul\":33841:33855   */\n      add\n        /* \"#utility.yul\":33833:33855   */\n      swap1\n      pop\n        /* \"#utility.yul\":33738:33861   */\n      swap2\n      swap1\n      pop\n      jump\t// out\n        /* \"#utility.yul\":33895:34866   */\n    tag_365:\n        /* \"#utility.yul\":34024:34027   */\n      0x00\n        /* \"#utility.yul\":34053:34117   */\n      tag_679\n        /* \"#utility.yul\":34111:34116   */\n      dup3\n        /* \"#utility.yul\":34053:34117   */\n      tag_360\n      jump\t// in\n    tag_679:\n        /* \"#utility.yul\":34133:34219   */\n      tag_680\n        /* \"#utility.yul\":34212:34218   */\n      dup2\n        /* \"#utility.yul\":34207:34210   */\n      dup6\n        /* \"#utility.yul\":34133:34219   */\n      tag_361\n      jump\t// in\n    tag_680:\n        /* \"#utility.yul\":34126:34219   */\n      swap4\n      pop\n        /* \"#utility.yul\":34245:34248   */\n      dup4\n        /* \"#utility.yul\":34290:34294   */\n      0x20\n        /* \"#utility.yul\":34282:34288   */\n      dup3\n        /* \"#utility.yul\":34278:34295   */\n      mul\n        /* \"#utility.yul\":34273:34276   */\n      dup6\n        /* \"#utility.yul\":34269:34296   */\n      add\n        /* \"#utility.yul\":34320:34386   */\n      tag_681\n        /* \"#utility.yul\":34380:34385   */\n      dup6\n        /* \"#utility.yul\":34320:34386   */\n      tag_362\n      jump\t// in\n    tag_681:\n        /* \"#utility.yul\":34409:34416   */\n      dup1\n        /* \"#utility.yul\":34440:34441   */\n      0x00\n        /* \"#utility.yul\":34425:34821   */\n    tag_682:\n        /* \"#utility.yul\":34450:34456   */\n      dup6\n        /* \"#utility.yul\":34447:34448   */\n      dup2\n        /* \"#utility.yul\":34444:34457   */\n      lt\n        /* \"#utility.yul\":34425:34821   */\n      iszero\n      tag_684\n      jumpi\n        /* \"#utility.yul\":34521:34530   */\n      dup5\n        /* \"#utility.yul\":34515:34519   */\n      dup5\n        /* \"#utility.yul\":34511:34531   */\n      sub\n        /* \"#utility.yul\":34506:34509   */\n      dup10\n        /* \"#utility.yul\":34499:34532   */\n      mstore\n        /* \"#utility.yul\":34572:34578   */\n      dup2\n        /* \"#utility.yul\":34566:34579   */\n      mload\n        /* \"#utility.yul\":34600:34684   */\n      tag_685\n        /* \"#utility.yul\":34679:34683   */\n      dup6\n        /* \"#utility.yul\":34664:34677   */\n      dup3\n        /* \"#utility.yul\":34600:34684   */\n      tag_363\n      jump\t// in\n    tag_685:\n        /* \"#utility.yul\":34592:34684   */\n      swap5\n      pop\n        /* \"#utility.yul\":34707:34777   */\n      tag_686\n        /* \"#utility.yul\":34770:34776   */\n      dup4\n        /* \"#utility.yul\":34707:34777   */\n      tag_364\n      jump\t// in\n    tag_686:\n        /* \"#utility.yul\":34697:34777   */\n      swap3\n      pop\n        /* \"#utility.yul\":34806:34810   */\n      0x20\n        /* \"#utility.yul\":34801:34804   */\n      dup11\n        /* \"#utility.yul\":34797:34811   */\n      add\n        /* \"#utility.yul\":34790:34811   */\n      swap10\n      pop\n        /* \"#utility.yul\":34485:34821   */\n      pop\n        /* \"#utility.yul\":34472:34473   */\n      0x01\n        /* \"#utility.yul\":34469:34470   */\n      dup2\n        /* \"#utility.yul\":34465:34474   */\n      add\n        /* \"#utility.yul\":34460:34474   */\n      swap1\n      pop\n        /* \"#utility.yul\":34425:34821   */\n      jump(tag_682)\n    tag_684:\n        /* \"#utility.yul\":34429:34443   */\n      pop\n        /* \"#utility.yul\":34837:34841   */\n      dup3\n        /* \"#utility.yul\":34830:34841   */\n      swap8\n      pop\n        /* \"#utility.yul\":34857:34860   */\n      dup8\n        /* \"#utility.yul\":34850:34860   */\n      swap6\n      pop\n        /* \"#utility.yul\":34029:34866   */\n      pop\n      pop\n      pop\n      pop\n      pop\n        /* \"#utility.yul\":33895:34866   */\n      swap3\n      swap2\n      pop\n      pop\n      jump\t// out\n        /* \"#utility.yul\":34946:36025   */\n    tag_366:\n        /* \"#utility.yul\":35065:35068   */\n      0x00\n        /* \"#utility.yul\":35101:35105   */\n      0x60\n        /* \"#utility.yul\":35096:35099   */\n      dup4\n        /* \"#utility.yul\":35092:35106   */\n      add\n        /* \"#utility.yul\":35188:35192   */\n      0x00\n        /* \"#utility.yul\":35181:35186   */\n      dup4\n        /* \"#utility.yul\":35177:35193   */\n      add\n        /* \"#utility.yul\":35171:35194   */\n      mload\n        /* \"#utility.yul\":35241:35244   */\n      dup5\n        /* \"#utility.yul\":35235:35239   */\n      dup3\n        /* \"#utility.yul\":35231:35245   */\n      sub\n        /* \"#utility.yul\":35224:35228   */\n      0x00\n        /* \"#utility.yul\":35219:35222   */\n      dup7\n        /* \"#utility.yul\":35215:35229   */\n      add\n        /* \"#utility.yul\":35208:35246   */\n      mstore\n        /* \"#utility.yul\":35267:35390   */\n      tag_688\n        /* \"#utility.yul\":35385:35389   */\n      dup3\n        /* \"#utility.yul\":35371:35383   */\n      dup3\n        /* \"#utility.yul\":35267:35390   */\n      tag_365\n      jump\t// in\n    tag_688:\n        /* \"#utility.yul\":35259:35390   */\n      swap2\n      pop\n        /* \"#utility.yul\":35116:35401   */\n      pop\n        /* \"#utility.yul\":35488:35492   */\n      0x20\n        /* \"#utility.yul\":35481:35486   */\n      dup4\n        /* \"#utility.yul\":35477:35493   */\n      add\n        /* \"#utility.yul\":35471:35494   */\n      mload\n        /* \"#utility.yul\":35541:35544   */\n      dup5\n        /* \"#utility.yul\":35535:35539   */\n      dup3\n        /* \"#utility.yul\":35531:35545   */\n      sub\n        /* \"#utility.yul\":35524:35528   */\n      0x20\n        /* \"#utility.yul\":35519:35522   */\n      dup7\n        /* \"#utility.yul\":35515:35529   */\n      add\n        /* \"#utility.yul\":35508:35546   */\n      mstore\n        /* \"#utility.yul\":35567:35690   */\n      tag_689\n        /* \"#utility.yul\":35685:35689   */\n      dup3\n        /* \"#utility.yul\":35671:35683   */\n      dup3\n        /* \"#utility.yul\":35567:35690   */\n      tag_365\n      jump\t// in\n    tag_689:\n        /* \"#utility.yul\":35559:35690   */\n      swap2\n      pop\n        /* \"#utility.yul\":35411:35701   */\n      pop\n        /* \"#utility.yul\":35785:35789   */\n      0x40\n        /* \"#utility.yul\":35778:35783   */\n      dup4\n        /* \"#utility.yul\":35774:35790   */\n      add\n        /* \"#utility.yul\":35768:35791   */\n      mload\n        /* \"#utility.yul\":35838:35841   */\n      dup5\n        /* \"#utility.yul\":35832:35836   */\n      dup3\n        /* \"#utility.yul\":35828:35842   */\n      sub\n        /* \"#utility.yul\":35821:35825   */\n      0x40\n        /* \"#utility.yul\":35816:35819   */\n      dup7\n        /* \"#utility.yul\":35812:35826   */\n      add\n        /* \"#utility.yul\":35805:35843   */\n      mstore\n        /* \"#utility.yul\":35864:35987   */\n      tag_690\n        /* \"#utility.yul\":35982:35986   */\n      dup3\n        /* \"#utility.yul\":35968:35980   */\n      dup3\n        /* \"#utility.yul\":35864:35987   */\n      tag_365\n      jump\t// in\n    tag_690:\n        /* \"#utility.yul\":35856:35987   */\n      swap2\n      pop\n        /* \"#utility.yul\":35711:35998   */\n      pop\n        /* \"#utility.yul\":36015:36019   */\n      dup1\n        /* \"#utility.yul\":36008:36019   */\n      swap2\n      pop\n        /* \"#utility.yul\":35070:36025   */\n      pop\n        /* \"#utility.yul\":34946:36025   */\n      swap3\n      swap2\n      pop\n      pop\n      jump\t// out\n        /* \"#utility.yul\":36031:36404   */\n    tag_78:\n        /* \"#utility.yul\":36174:36178   */\n      0x00\n        /* \"#utility.yul\":36212:36214   */\n      0x20\n        /* \"#utility.yul\":36201:36210   */\n      dup3\n        /* \"#utility.yul\":36197:36215   */\n      add\n        /* \"#utility.yul\":36189:36215   */\n      swap1\n      pop\n        /* \"#utility.yul\":36261:36270   */\n      dup2\n        /* \"#utility.yul\":36255:36259   */\n      dup2\n        /* \"#utility.yul\":36251:36271   */\n      sub\n        /* \"#utility.yul\":36247:36248   */\n      0x00\n        /* \"#utility.yul\":36236:36245   */\n      dup4\n        /* \"#utility.yul\":36232:36249   */\n      add\n        /* \"#utility.yul\":36225:36272   */\n      mstore\n        /* \"#utility.yul\":36289:36397   */\n      tag_692\n        /* \"#utility.yul\":36392:36396   */\n      dup2\n        /* \"#utility.yul\":36383:36389   */\n      dup5\n        /* \"#utility.yul\":36289:36397   */\n      tag_366\n      jump\t// in\n    tag_692:\n        /* \"#utility.yul\":36281:36397   */\n      swap1\n      pop\n        /* \"#utility.yul\":36031:36404   */\n      swap3\n      swap2\n      pop\n      pop\n      jump\t// out\n        /* \"#utility.yul\":36410:37681   */\n    tag_81:\n        /* \"#utility.yul\":36525:36531   */\n      0x00\n        /* \"#utility.yul\":36533:36539   */\n      dup1\n        /* \"#utility.yul\":36541:36547   */\n      0x00\n        /* \"#utility.yul\":36549:36555   */\n      dup1\n        /* \"#utility.yul\":36557:36563   */\n      0x00\n        /* \"#utility.yul\":36606:36609   */\n      0xa0\n        /* \"#utility.yul\":36594:36603   */\n      dup7\n        /* \"#utility.yul\":36585:36592   */\n      dup9\n        /* \"#utility.yul\":36581:36604   */\n      sub\n        /* \"#utility.yul\":36577:36610   */\n      slt\n        /* \"#utility.yul\":36574:36694   */\n      iszero\n      tag_694\n      jumpi\n        /* \"#utility.yul\":36613:36692   */\n      tag_695\n      tag_299\n      jump\t// in\n    tag_695:\n        /* \"#utility.yul\":36574:36694   */\n    tag_694:\n        /* \"#utility.yul\":36761:36762   */\n      0x00\n        /* \"#utility.yul\":36750:36759   */\n      dup7\n        /* \"#utility.yul\":36746:36763   */\n      add\n        /* \"#utility.yul\":36733:36764   */\n      calldataload\n        /* \"#utility.yul\":36791:36809   */\n      0xffffffffffffffff\n        /* \"#utility.yul\":36783:36789   */\n      dup2\n        /* \"#utility.yul\":36780:36810   */\n      gt\n        /* \"#utility.yul\":36777:36894   */\n      iszero\n      tag_696\n      jumpi\n        /* \"#utility.yul\":36813:36892   */\n      tag_697\n      tag_300\n      jump\t// in\n    tag_697:\n        /* \"#utility.yul\":36777:36894   */\n    tag_696:\n        /* \"#utility.yul\":36918:36981   */\n      tag_698\n        /* \"#utility.yul\":36973:36980   */\n      dup9\n        /* \"#utility.yul\":36964:36970   */\n      dup3\n        /* \"#utility.yul\":36953:36962   */\n      dup10\n        /* \"#utility.yul\":36949:36971   */\n      add\n        /* \"#utility.yul\":36918:36981   */\n      tag_313\n      jump\t// in\n    tag_698:\n        /* \"#utility.yul\":36908:36981   */\n      swap6\n      pop\n        /* \"#utility.yul\":36704:36991   */\n      pop\n        /* \"#utility.yul\":37058:37060   */\n      0x20\n        /* \"#utility.yul\":37047:37056   */\n      dup7\n        /* \"#utility.yul\":37043:37061   */\n      add\n        /* \"#utility.yul\":37030:37062   */\n      calldataload\n        /* \"#utility.yul\":37089:37107   */\n      0xffffffffffffffff\n        /* \"#utility.yul\":37081:37087   */\n      dup2\n        /* \"#utility.yul\":37078:37108   */\n      gt\n        /* \"#utility.yul\":37075:37192   */\n      iszero\n      tag_699\n      jumpi\n        /* \"#utility.yul\":37111:37190   */\n      tag_700\n      tag_300\n      jump\t// in\n    tag_700:\n        /* \"#utility.yul\":37075:37192   */\n    tag_699:\n        /* \"#utility.yul\":37216:37279   */\n      tag_701\n        /* \"#utility.yul\":37271:37278   */\n      dup9\n        /* \"#utility.yul\":37262:37268   */\n      dup3\n        /* \"#utility.yul\":37251:37260   */\n      dup10\n        /* \"#utility.yul\":37247:37269   */\n      add\n        /* \"#utility.yul\":37216:37279   */\n      tag_313\n      jump\t// in\n    tag_701:\n        /* \"#utility.yul\":37206:37279   */\n      swap5\n      pop\n        /* \"#utility.yul\":37001:37289   */\n      pop\n        /* \"#utility.yul\":37328:37330   */\n      0x40\n        /* \"#utility.yul\":37354:37407   */\n      tag_702\n        /* \"#utility.yul\":37399:37406   */\n      dup9\n        /* \"#utility.yul\":37390:37396   */\n      dup3\n        /* \"#utility.yul\":37379:37388   */\n      dup10\n        /* \"#utility.yul\":37375:37397   */\n      add\n        /* \"#utility.yul\":37354:37407   */\n      tag_334\n      jump\t// in\n    tag_702:\n        /* \"#utility.yul\":37344:37407   */\n      swap4\n      pop\n        /* \"#utility.yul\":37299:37417   */\n      pop\n        /* \"#utility.yul\":37456:37458   */\n      0x60\n        /* \"#utility.yul\":37482:37535   */\n      tag_703\n        /* \"#utility.yul\":37527:37534   */\n      dup9\n        /* \"#utility.yul\":37518:37524   */\n      dup3\n        /* \"#utility.yul\":37507:37516   */\n      dup10\n        /* \"#utility.yul\":37503:37525   */\n      add\n        /* \"#utility.yul\":37482:37535   */\n      tag_334\n      jump\t// in\n    tag_703:\n        /* \"#utility.yul\":37472:37535   */\n      swap3\n      pop\n        /* \"#utility.yul\":37427:37545   */\n      pop\n        /* \"#utility.yul\":37584:37587   */\n      0x80\n        /* \"#utility.yul\":37611:37664   */\n      tag_704\n        /* \"#utility.yul\":37656:37663   */\n      dup9\n        /* \"#utility.yul\":37647:37653   */\n      dup3\n        /* \"#utility.yul\":37636:37645   */\n      dup10\n        /* \"#utility.yul\":37632:37654   */\n      add\n        /* \"#utility.yul\":37611:37664   */\n      tag_334\n      jump\t// in\n    tag_704:\n        /* \"#utility.yul\":37601:37664   */\n      swap2\n      pop\n        /* \"#utility.yul\":37555:37674   */\n      pop\n        /* \"#utility.yul\":36410:37681   */\n      swap3\n      swap6\n      pop\n      swap3\n      swap6\n      swap1\n      swap4\n      pop\n      jump\t// out\n        /* \"#utility.yul\":37687:37922   */\n    tag_367:\n        /* \"#utility.yul\":37827:37861   */\n      0x4f6e6c7920617574686f72697a656420646f63746f72732063616e2061636365\n        /* \"#utility.yul\":37823:37824   */\n      0x00\n        /* \"#utility.yul\":37815:37821   */\n      dup3\n        /* \"#utility.yul\":37811:37825   */\n      add\n        /* \"#utility.yul\":37804:37862   */\n      mstore\n        /* \"#utility.yul\":37896:37914   */\n      0x737320746869732066756e6374696f6e00000000000000000000000000000000\n        /* \"#utility.yul\":37891:37893   */\n      0x20\n        /* \"#utility.yul\":37883:37889   */\n      dup3\n        /* \"#utility.yul\":37879:37894   */\n      add\n        /* \"#utility.yul\":37872:37915   */\n      mstore\n        /* \"#utility.yul\":37687:37922   */\n      pop\n      jump\t// out\n        /* \"#utility.yul\":37928:38294   */\n    tag_368:\n        /* \"#utility.yul\":38070:38073   */\n      0x00\n        /* \"#utility.yul\":38091:38158   */\n      tag_707\n        /* \"#utility.yul\":38155:38157   */\n      0x30\n        /* \"#utility.yul\":38150:38153   */\n      dup4\n        /* \"#utility.yul\":38091:38158   */\n      tag_358\n      jump\t// in\n    tag_707:\n        /* \"#utility.yul\":38084:38158   */\n      swap2\n      pop\n        /* \"#utility.yul\":38167:38260   */\n      tag_708\n        /* \"#utility.yul\":38256:38259   */\n      dup3\n        /* \"#utility.yul\":38167:38260   */\n      tag_367\n      jump\t// in\n    tag_708:\n        /* \"#utility.yul\":38285:38287   */\n      0x40\n        /* \"#utility.yul\":38280:38283   */\n      dup3\n        /* \"#utility.yul\":38276:38288   */\n      add\n        /* \"#utility.yul\":38269:38288   */\n      swap1\n      pop\n        /* \"#utility.yul\":37928:38294   */\n      swap2\n      swap1\n      pop\n      jump\t// out\n        /* \"#utility.yul\":38300:38719   */\n    tag_86:\n        /* \"#utility.yul\":38466:38470   */\n      0x00\n        /* \"#utility.yul\":38504:38506   */\n      0x20\n        /* \"#utility.yul\":38493:38502   */\n      dup3\n        /* \"#utility.yul\":38489:38507   */\n      add\n        /* \"#utility.yul\":38481:38507   */\n      swap1\n      pop\n        /* \"#utility.yul\":38553:38562   */\n      dup2\n        /* \"#utility.yul\":38547:38551   */\n      dup2\n        /* \"#utility.yul\":38543:38563   */\n      sub\n        /* \"#utility.yul\":38539:38540   */\n      0x00\n        /* \"#utility.yul\":38528:38537   */\n      dup4\n        /* \"#utility.yul\":38524:38541   */\n      add\n        /* \"#utility.yul\":38517:38564   */\n      mstore\n        /* \"#utility.yul\":38581:38712   */\n      tag_710\n        /* \"#utility.yul\":38707:38711   */\n      dup2\n        /* \"#utility.yul\":38581:38712   */\n      tag_368\n      jump\t// in\n    tag_710:\n        /* \"#utility.yul\":38573:38712   */\n      swap1\n      pop\n        /* \"#utility.yul\":38300:38719   */\n      swap2\n      swap1\n      pop\n      jump\t// out\n        /* \"#utility.yul\":38725:38958   */\n    tag_369:\n        /* \"#utility.yul\":38865:38899   */\n      0x54686520636f6e7472616374206465706c6f7965722063616e6e6f7420726576\n        /* \"#utility.yul\":38861:38862   */\n      0x00\n        /* \"#utility.yul\":38853:38859   */\n      dup3\n        /* \"#utility.yul\":38849:38863   */\n      add\n        /* \"#utility.yul\":38842:38900   */\n      mstore\n        /* \"#utility.yul\":38934:38950   */\n      0x6f6b65207468656d73656c766573000000000000000000000000000000000000\n        /* \"#utility.yul\":38929:38931   */\n      0x20\n        /* \"#utility.yul\":38921:38927   */\n      dup3\n        /* \"#utility.yul\":38917:38932   */\n      add\n        /* \"#utility.yul\":38910:38951   */\n      mstore\n        /* \"#utility.yul\":38725:38958   */\n      pop\n      jump\t// out\n        /* \"#utility.yul\":38964:39330   */\n    tag_370:\n        /* \"#utility.yul\":39106:39109   */\n      0x00\n        /* \"#utility.yul\":39127:39194   */\n      tag_713\n        /* \"#utility.yul\":39191:39193   */\n      0x2e\n        /* \"#utility.yul\":39186:39189   */\n      dup4\n        /* \"#utility.yul\":39127:39194   */\n      tag_358\n      jump\t// in\n    tag_713:\n        /* \"#utility.yul\":39120:39194   */\n      swap2\n      pop\n        /* \"#utility.yul\":39203:39296   */\n      tag_714\n        /* \"#utility.yul\":39292:39295   */\n      dup3\n        /* \"#utility.yul\":39203:39296   */\n      tag_369\n      jump\t// in\n    tag_714:\n        /* \"#utility.yul\":39321:39323   */\n      0x40\n        /* \"#utility.yul\":39316:39319   */\n      dup3\n        /* \"#utility.yul\":39312:39324   */\n      add\n        /* \"#utility.yul\":39305:39324   */\n      swap1\n      pop\n        /* \"#utility.yul\":38964:39330   */\n      swap2\n      swap1\n      pop\n      jump\t// out\n        /* \"#utility.yul\":39336:39755   */\n    tag_90:\n        /* \"#utility.yul\":39502:39506   */\n      0x00\n        /* \"#utility.yul\":39540:39542   */\n      0x20\n        /* \"#utility.yul\":39529:39538   */\n      dup3\n        /* \"#utility.yul\":39525:39543   */\n      add\n        /* \"#utility.yul\":39517:39543   */\n      swap1\n      pop\n        /* \"#utility.yul\":39589:39598   */\n      dup2\n        /* \"#utility.yul\":39583:39587   */\n      dup2\n        /* \"#utility.yul\":39579:39599   */\n      sub\n        /* \"#utility.yul\":39575:39576   */\n      0x00\n        /* \"#utility.yul\":39564:39573   */\n      dup4\n        /* \"#utility.yul\":39560:39577   */\n      add\n        /* \"#utility.yul\":39553:39600   */\n      mstore\n        /* \"#utility.yul\":39617:39748   */\n      tag_716\n        /* \"#utility.yul\":39743:39747   */\n      dup2\n        /* \"#utility.yul\":39617:39748   */\n      tag_370\n      jump\t// in\n    tag_716:\n        /* \"#utility.yul\":39609:39748   */\n      swap1\n      pop\n        /* \"#utility.yul\":39336:39755   */\n      swap2\n      swap1\n      pop\n      jump\t// out\n        /* \"#utility.yul\":39761:39909   */\n    tag_371:\n        /* \"#utility.yul\":39863:39874   */\n      0x00\n        /* \"#utility.yul\":39900:39903   */\n      dup2\n        /* \"#utility.yul\":39885:39903   */\n      swap1\n      pop\n        /* \"#utility.yul\":39761:39909   */\n      swap3\n      swap2\n      pop\n      pop\n      jump\t// out\n        /* \"#utility.yul\":39915:40305   */\n    tag_372:\n        /* \"#utility.yul\":40021:40024   */\n      0x00\n        /* \"#utility.yul\":40049:40088   */\n      tag_719\n        /* \"#utility.yul\":40082:40087   */\n      dup3\n        /* \"#utility.yul\":40049:40088   */\n      tag_320\n      jump\t// in\n    tag_719:\n        /* \"#utility.yul\":40104:40193   */\n      tag_720\n        /* \"#utility.yul\":40186:40192   */\n      dup2\n        /* \"#utility.yul\":40181:40184   */\n      dup6\n        /* \"#utility.yul\":40104:40193   */\n      tag_371\n      jump\t// in\n    tag_720:\n        /* \"#utility.yul\":40097:40193   */\n      swap4\n      pop\n        /* \"#utility.yul\":40202:40267   */\n      tag_721\n        /* \"#utility.yul\":40260:40266   */\n      dup2\n        /* \"#utility.yul\":40255:40258   */\n      dup6\n        /* \"#utility.yul\":40248:40252   */\n      0x20\n        /* \"#utility.yul\":40241:40246   */\n      dup7\n        /* \"#utility.yul\":40237:40253   */\n      add\n        /* \"#utility.yul\":40202:40267   */\n      tag_322\n      jump\t// in\n    tag_721:\n        /* \"#utility.yul\":40292:40298   */\n      dup1\n        /* \"#utility.yul\":40287:40290   */\n      dup5\n        /* \"#utility.yul\":40283:40299   */\n      add\n        /* \"#utility.yul\":40276:40299   */\n      swap2\n      pop\n        /* \"#utility.yul\":40025:40305   */\n      pop\n        /* \"#utility.yul\":39915:40305   */\n      swap3\n      swap2\n      pop\n      pop\n      jump\t// out\n        /* \"#utility.yul\":40311:40586   */\n    tag_93:\n        /* \"#utility.yul\":40443:40446   */\n      0x00\n        /* \"#utility.yul\":40465:40560   */\n      tag_723\n        /* \"#utility.yul\":40556:40559   */\n      dup3\n        /* \"#utility.yul\":40547:40553   */\n      dup5\n        /* \"#utility.yul\":40465:40560   */\n      tag_372\n      jump\t// in\n    tag_723:\n        /* \"#utility.yul\":40458:40560   */\n      swap2\n      pop\n        /* \"#utility.yul\":40577:40580   */\n      dup2\n        /* \"#utility.yul\":40570:40580   */\n      swap1\n      pop\n        /* \"#utility.yul\":40311:40586   */\n      swap3\n      swap2\n      pop\n      pop\n      jump\t// out\n        /* \"#utility.yul\":40592:40772   */\n    tag_373:\n        /* \"#utility.yul\":40640:40717   */\n      0x4e487b7100000000000000000000000000000000000000000000000000000000\n        /* \"#utility.yul\":40637:40638   */\n      0x00\n        /* \"#utility.yul\":40630:40718   */\n      mstore\n        /* \"#utility.yul\":40737:40741   */\n      0x22\n        /* \"#utility.yul\":40734:40735   */\n      0x04\n        /* \"#utility.yul\":40727:40742   */\n      mstore\n        /* \"#utility.yul\":40761:40765   */\n      0x24\n        /* \"#utility.yul\":40758:40759   */\n      0x00\n        /* \"#utility.yul\":40751:40766   */\n      revert\n        /* \"#utility.yul\":40778:41098   */\n    tag_114:\n        /* \"#utility.yul\":40822:40828   */\n      0x00\n        /* \"#utility.yul\":40859:40860   */\n      0x02\n        /* \"#utility.yul\":40853:40857   */\n      dup3\n        /* \"#utility.yul\":40849:40861   */\n      div\n        /* \"#utility.yul\":40839:40861   */\n      swap1\n      pop\n        /* \"#utility.yul\":40906:40907   */\n      0x01\n        /* \"#utility.yul\":40900:40904   */\n      dup3\n        /* \"#utility.yul\":40896:40908   */\n      and\n        /* \"#utility.yul\":40927:40945   */\n      dup1\n        /* \"#utility.yul\":40917:40998   */\n      tag_726\n      jumpi\n        /* \"#utility.yul\":40983:40987   */\n      0x7f\n        /* \"#utility.yul\":40975:40981   */\n      dup3\n        /* \"#utility.yul\":40971:40988   */\n      and\n        /* \"#utility.yul\":40961:40988   */\n      swap2\n      pop\n        /* \"#utility.yul\":40917:40998   */\n    tag_726:\n        /* \"#utility.yul\":41045:41047   */\n      0x20\n        /* \"#utility.yul\":41037:41043   */\n      dup3\n        /* \"#utility.yul\":41034:41048   */\n      lt\n        /* \"#utility.yul\":41014:41032   */\n      dup2\n        /* \"#utility.yul\":41011:41049   */\n      sub\n        /* \"#utility.yul\":41008:41092   */\n      tag_727\n      jumpi\n        /* \"#utility.yul\":41064:41082   */\n      tag_728\n      tag_373\n      jump\t// in\n    tag_728:\n        /* \"#utility.yul\":41008:41092   */\n    tag_727:\n        /* \"#utility.yul\":40829:41098   */\n      pop\n        /* \"#utility.yul\":40778:41098   */\n      swap2\n      swap1\n      pop\n      jump\t// out\n        /* \"#utility.yul\":41104:41245   */\n    tag_374:\n        /* \"#utility.yul\":41153:41157   */\n      0x00\n        /* \"#utility.yul\":41176:41179   */\n      dup2\n        /* \"#utility.yul\":41168:41179   */\n      swap1\n      pop\n        /* \"#utility.yul\":41199:41202   */\n      dup2\n        /* \"#utility.yul\":41196:41197   */\n      0x00\n        /* \"#utility.yul\":41189:41203   */\n      mstore\n        /* \"#utility.yul\":41233:41237   */\n      0x20\n        /* \"#utility.yul\":41230:41231   */\n      0x00\n        /* \"#utility.yul\":41220:41238   */\n      keccak256\n        /* \"#utility.yul\":41212:41238   */\n      swap1\n      pop\n        /* \"#utility.yul\":41104:41245   */\n      swap2\n      swap1\n      pop\n      jump\t// out\n        /* \"#utility.yul\":41251:41344   */\n    tag_375:\n        /* \"#utility.yul\":41288:41294   */\n      0x00\n        /* \"#utility.yul\":41335:41337   */\n      0x20\n        /* \"#utility.yul\":41330:41332   */\n      0x1f\n        /* \"#utility.yul\":41323:41328   */\n      dup4\n        /* \"#utility.yul\":41319:41333   */\n      add\n        /* \"#utility.yul\":41315:41338   */\n      div\n        /* \"#utility.yul\":41305:41338   */\n      swap1\n      pop\n        /* \"#utility.yul\":41251:41344   */\n      swap2\n      swap1\n      pop\n      jump\t// out\n        /* \"#utility.yul\":41350:41457   */\n    tag_376:\n        /* \"#utility.yul\":41394:41402   */\n      0x00\n        /* \"#utility.yul\":41444:41449   */\n      dup3\n        /* \"#utility.yul\":41438:41442   */\n      dup3\n        /* \"#utility.yul\":41434:41450   */\n      shl\n        /* \"#utility.yul\":41413:41450   */\n      swap1\n      pop\n        /* \"#utility.yul\":41350:41457   */\n      swap3\n      swap2\n      pop\n      pop\n      jump\t// out\n        /* \"#utility.yul\":41463:41856   */\n    tag_377:\n        /* \"#utility.yul\":41532:41538   */\n      0x00\n        /* \"#utility.yul\":41582:41583   */\n      0x08\n        /* \"#utility.yul\":41570:41580   */\n      dup4\n        /* \"#utility.yul\":41566:41584   */\n      mul\n        /* \"#utility.yul\":41605:41702   */\n      tag_733\n        /* \"#utility.yul\":41635:41701   */\n      0xffffffffffffffffffffffffffffffffffffffffffffffffffffffffffffffff\n        /* \"#utility.yul\":41624:41633   */\n      dup3\n        /* \"#utility.yul\":41605:41702   */\n      tag_376\n      jump\t// in\n    tag_733:\n        /* \"#utility.yul\":41723:41762   */\n      tag_734\n        /* \"#utility.yul\":41753:41761   */\n      dup7\n        /* \"#utility.yul\":41742:41751   */\n      dup4\n        /* \"#utility.yul\":41723:41762   */\n      tag_376\n      jump\t// in\n    tag_734:\n        /* \"#utility.yul\":41711:41762   */\n      swap6\n      pop\n        /* \"#utility.yul\":41795:41799   */\n      dup1\n        /* \"#utility.yul\":41791:41800   */\n      not\n        /* \"#utility.yul\":41784:41789   */\n      dup5\n        /* \"#utility.yul\":41780:41801   */\n      and\n        /* \"#utility.yul\":41771:41801   */\n      swap4\n      pop\n        /* \"#utility.yul\":41844:41848   */\n      dup1\n        /* \"#utility.yul\":41834:41842   */\n      dup7\n        /* \"#utility.yul\":41830:41849   */\n      and\n        /* \"#utility.yul\":41823:41828   */\n      dup5\n        /* \"#utility.yul\":41820:41850   */\n      or\n        /* \"#utility.yul\":41810:41850   */\n      swap3\n      pop\n        /* \"#utility.yul\":41539:41856   */\n      pop\n      pop\n        /* \"#utility.yul\":41463:41856   */\n      swap4\n      swap3\n      pop\n      pop\n      pop\n      jump\t// out\n        /* \"#utility.yul\":41862:41922   */\n    tag_378:\n        /* \"#utility.yul\":41890:41893   */\n      0x00\n        /* \"#utility.yul\":41911:41916   */\n      dup2\n        /* \"#utility.yul\":41904:41916   */\n      swap1\n      pop\n        /* \"#utility.yul\":41862:41922   */\n      swap2\n      swap1\n      pop\n      jump\t// out\n        /* \"#utility.yul\":41928:42070   */\n    tag_379:\n        /* \"#utility.yul\":41978:41987   */\n      0x00\n        /* \"#utility.yul\":42011:42064   */\n      tag_737\n        /* \"#utility.yul\":42029:42063   */\n      tag_738\n        /* \"#utility.yul\":42038:42062   */\n      tag_739\n        /* \"#utility.yul\":42056:42061   */\n      dup5\n        /* \"#utility.yul\":42038:42062   */\n      tag_332\n      jump\t// in\n    tag_739:\n        /* \"#utility.yul\":42029:42063   */\n      tag_378\n      jump\t// in\n    tag_738:\n        /* \"#utility.yul\":42011:42064   */\n      tag_332\n      jump\t// in\n    tag_737:\n        /* \"#utility.yul\":41998:42064   */\n      swap1\n      pop\n        /* \"#utility.yul\":41928:42070   */\n      swap2\n      swap1\n      pop\n      jump\t// out\n        /* \"#utility.yul\":42076:42151   */\n    tag_380:\n        /* \"#utility.yul\":42119:42122   */\n      0x00\n        /* \"#utility.yul\":42140:42145   */\n      dup2\n        /* \"#utility.yul\":42133:42145   */\n      swap1\n      pop\n        /* \"#utility.yul\":42076:42151   */\n      swap2\n      swap1\n      pop\n      jump\t// out\n        /* \"#utility.yul\":42157:42426   */\n    tag_381:\n        /* \"#utility.yul\":42267:42306   */\n      tag_742\n        /* \"#utility.yul\":42298:42305   */\n      dup4\n        /* \"#utility.yul\":42267:42306   */\n      tag_379\n      jump\t// in\n    tag_742:\n        /* \"#utility.yul\":42328:42419   */\n      tag_743\n        /* \"#utility.yul\":42377:42418   */\n      tag_744\n        /* \"#utility.yul\":42401:42417   */\n      dup3\n        /* \"#utility.yul\":42377:42418   */\n      tag_380\n      jump\t// in\n    tag_744:\n        /* \"#utility.yul\":42369:42375   */\n      dup5\n        /* \"#utility.yul\":42362:42366   */\n      dup5\n        /* \"#utility.yul\":42356:42367   */\n      sload\n        /* \"#utility.yul\":42328:42419   */\n      tag_377\n      jump\t// in\n    tag_743:\n        /* \"#utility.yul\":42322:42326   */\n      dup3\n        /* \"#utility.yul\":42315:42420   */\n      sstore\n        /* \"#utility.yul\":42233:42426   */\n      pop\n        /* \"#utility.yul\":42157:42426   */\n      pop\n      pop\n      pop\n      jump\t// out\n        /* \"#utility.yul\":42432:42505   */\n    tag_382:\n        /* \"#utility.yul\":42477:42480   */\n      0x00\n        /* \"#utility.yul\":42432:42505   */\n      swap1\n      jump\t// out\n        /* \"#utility.yul\":42511:42700   */\n    tag_383:\n        /* \"#utility.yul\":42588:42620   */\n      tag_747\n      tag_382\n      jump\t// in\n    tag_747:\n        /* \"#utility.yul\":42629:42694   */\n      tag_748\n        /* \"#utility.yul\":42687:42693   */\n      dup2\n        /* \"#utility.yul\":42679:42685   */\n      dup5\n        /* \"#utility.yul\":42673:42677   */\n      dup5\n        /* \"#utility.yul\":42629:42694   */\n      tag_381\n      jump\t// in\n    tag_748:\n        /* \"#utility.yul\":42564:42700   */\n      pop\n        /* \"#utility.yul\":42511:42700   */\n      pop\n      pop\n      jump\t// out\n        /* \"#utility.yul\":42706:42892   */\n    tag_384:\n        /* \"#utility.yul\":42766:42886   */\n    tag_750:\n        /* \"#utility.yul\":42783:42786   */\n      dup2\n        /* \"#utility.yul\":42776:42781   */\n      dup2\n        /* \"#utility.yul\":42773:42787   */\n      lt\n        /* \"#utility.yul\":42766:42886   */\n      iszero\n      tag_752\n      jumpi\n        /* \"#utility.yul\":42837:42876   */\n      tag_753\n        /* \"#utility.yul\":42874:42875   */\n      0x00\n        /* \"#utility.yul\":42867:42872   */\n      dup3\n        /* \"#utility.yul\":42837:42876   */\n      tag_383\n      jump\t// in\n    tag_753:\n        /* \"#utility.yul\":42810:42811   */\n      0x01\n        /* \"#utility.yul\":42803:42808   */\n      dup2\n        /* \"#utility.yul\":42799:42812   */\n      add\n        /* \"#utility.yul\":42790:42812   */\n      swap1\n      pop\n        /* \"#utility.yul\":42766:42886   */\n      jump(tag_750)\n    tag_752:\n        /* \"#utility.yul\":42706:42892   */\n      pop\n      pop\n      jump\t// out\n        /* \"#utility.yul\":42898:43441   */\n    tag_385:\n        /* \"#utility.yul\":42999:43001   */\n      0x1f\n        /* \"#utility.yul\":42994:42997   */\n      dup3\n        /* \"#utility.yul\":42991:43002   */\n      gt\n        /* \"#utility.yul\":42988:43434   */\n      iszero\n      tag_755\n      jumpi\n        /* \"#utility.yul\":43033:43071   */\n      tag_756\n        /* \"#utility.yul\":43065:43070   */\n      dup2\n        /* \"#utility.yul\":43033:43071   */\n      tag_374\n      jump\t// in\n    tag_756:\n        /* \"#utility.yul\":43117:43146   */\n      tag_757\n        /* \"#utility.yul\":43135:43145   */\n      dup5\n        /* \"#utility.yul\":43117:43146   */\n      tag_375\n      jump\t// in\n    tag_757:\n        /* \"#utility.yul\":43107:43115   */\n      dup2\n        /* \"#utility.yul\":43103:43147   */\n      add\n        /* \"#utility.yul\":43300:43302   */\n      0x20\n        /* \"#utility.yul\":43288:43298   */\n      dup6\n        /* \"#utility.yul\":43285:43303   */\n      lt\n        /* \"#utility.yul\":43282:43331   */\n      iszero\n      tag_758\n      jumpi\n        /* \"#utility.yul\":43321:43329   */\n      dup2\n        /* \"#utility.yul\":43306:43329   */\n      swap1\n      pop\n        /* \"#utility.yul\":43282:43331   */\n    tag_758:\n        /* \"#utility.yul\":43344:43424   */\n      tag_759\n        /* \"#utility.yul\":43400:43422   */\n      tag_760\n        /* \"#utility.yul\":43418:43421   */\n      dup6\n        /* \"#utility.yul\":43400:43422   */\n      tag_375\n      jump\t// in\n    tag_760:\n        /* \"#utility.yul\":43390:43398   */\n      dup4\n        /* \"#utility.yul\":43386:43423   */\n      add\n        /* \"#utility.yul\":43373:43384   */\n      dup3\n        /* \"#utility.yul\":43344:43424   */\n      tag_384\n      jump\t// in\n    tag_759:\n        /* \"#utility.yul\":43003:43434   */\n      pop\n      pop\n        /* \"#utility.yul\":42988:43434   */\n    tag_755:\n        /* \"#utility.yul\":42898:43441   */\n      pop\n      pop\n      pop\n      jump\t// out\n        /* \"#utility.yul\":43447:43564   */\n    tag_386:\n        /* \"#utility.yul\":43501:43509   */\n      0x00\n        /* \"#utility.yul\":43551:43556   */\n      dup3\n        /* \"#utility.yul\":43545:43549   */\n      dup3\n        /* \"#utility.yul\":43541:43557   */\n      shr\n        /* \"#utility.yul\":43520:43557   */\n      swap1\n      pop\n        /* \"#utility.yul\":43447:43564   */\n      swap3\n      swap2\n      pop\n      pop\n      jump\t// out\n        /* \"#utility.yul\":43570:43739   */\n    tag_387:\n        /* \"#utility.yul\":43614:43620   */\n      0x00\n        /* \"#utility.yul\":43647:43698   */\n      tag_763\n        /* \"#utility.yul\":43695:43696   */\n      0x00\n        /* \"#utility.yul\":43691:43697   */\n      not\n        /* \"#utility.yul\":43683:43688   */\n      dup5\n        /* \"#utility.yul\":43680:43681   */\n      0x08\n        /* \"#utility.yul\":43676:43689   */\n      mul\n        /* \"#utility.yul\":43647:43698   */\n      tag_386\n      jump\t// in\n    tag_763:\n        /* \"#utility.yul\":43643:43699   */\n      not\n        /* \"#utility.yul\":43728:43732   */\n      dup1\n        /* \"#utility.yul\":43722:43726   */\n      dup4\n        /* \"#utility.yul\":43718:43733   */\n      and\n        /* \"#utility.yul\":43708:43733   */\n      swap2\n      pop\n        /* \"#utility.yul\":43621:43739   */\n      pop\n        /* \"#utility.yul\":43570:43739   */\n      swap3\n      swap2\n      pop\n      pop\n      jump\t// out\n        /* \"#utility.yul\":43744:44039   */\n    tag_388:\n        /* \"#utility.yul\":43820:43824   */\n      0x00\n        /* \"#utility.yul\":43966:43995   */\n      tag_765\n        /* \"#utility.yul\":43991:43994   */\n      dup4\n        /* \"#utility.yul\":43985:43989   */\n      dup4\n        /* \"#utility.yul\":43966:43995   */\n      tag_387\n      jump\t// in\n    tag_765:\n        /* \"#utility.yul\":43958:43995   */\n      swap2\n      pop\n        /* \"#utility.yul\":44028:44031   */\n      dup3\n        /* \"#utility.yul\":44025:44026   */\n      0x02\n        /* \"#utility.yul\":44021:44032   */\n      mul\n        /* \"#utility.yul\":44015:44019   */\n      dup3\n        /* \"#utility.yul\":44012:44033   */\n      or\n        /* \"#utility.yul\":44004:44033   */\n      swap1\n      pop\n        /* \"#utility.yul\":43744:44039   */\n      swap3\n      swap2\n      pop\n      pop\n      jump\t// out\n        /* \"#utility.yul\":44044:45439   */\n    tag_95:\n        /* \"#utility.yul\":44161:44198   */\n      tag_767\n        /* \"#utility.yul\":44194:44197   */\n      dup3\n        /* \"#utility.yul\":44161:44198   */\n      tag_320\n      jump\t// in\n    tag_767:\n        /* \"#utility.yul\":44263:44281   */\n      0xffffffffffffffff\n        /* \"#utility.yul\":44255:44261   */\n      dup2\n        /* \"#utility.yul\":44252:44282   */\n      gt\n        /* \"#utility.yul\":44249:44305   */\n      iszero\n      tag_768\n      jumpi\n        /* \"#utility.yul\":44285:44303   */\n      tag_769\n      tag_105\n      jump\t// in\n    tag_769:\n        /* \"#utility.yul\":44249:44305   */\n    tag_768:\n        /* \"#utility.yul\":44329:44367   */\n      tag_770\n        /* \"#utility.yul\":44361:44365   */\n      dup3\n        /* \"#utility.yul\":44355:44366   */\n      sload\n        /* \"#utility.yul\":44329:44367   */\n      tag_114\n      jump\t// in\n    tag_770:\n        /* \"#utility.yul\":44414:44481   */\n      tag_771\n        /* \"#utility.yul\":44474:44480   */\n      dup3\n        /* \"#utility.yul\":44466:44472   */\n      dup3\n        /* \"#utility.yul\":44460:44464   */\n      dup6\n        /* \"#utility.yul\":44414:44481   */\n      tag_385\n      jump\t// in\n    tag_771:\n        /* \"#utility.yul\":44508:44509   */\n      0x00\n        /* \"#utility.yul\":44532:44536   */\n      0x20\n        /* \"#utility.yul\":44519:44536   */\n      swap1\n      pop\n        /* \"#utility.yul\":44564:44566   */\n      0x1f\n        /* \"#utility.yul\":44556:44562   */\n      dup4\n        /* \"#utility.yul\":44553:44567   */\n      gt\n        /* \"#utility.yul\":44581:44582   */\n      0x01\n        /* \"#utility.yul\":44576:45194   */\n      dup2\n      eq\n      tag_773\n      jumpi\n        /* \"#utility.yul\":45238:45239   */\n      0x00\n        /* \"#utility.yul\":45255:45261   */\n      dup5\n        /* \"#utility.yul\":45252:45329   */\n      iszero\n      tag_774\n      jumpi\n        /* \"#utility.yul\":45304:45313   */\n      dup3\n        /* \"#utility.yul\":45299:45302   */\n      dup8\n        /* \"#utility.yul\":45295:45314   */\n      add\n        /* \"#utility.yul\":45289:45315   */\n      mload\n        /* \"#utility.yul\":45280:45315   */\n      swap1\n      pop\n        /* \"#utility.yul\":45252:45329   */\n    tag_774:\n        /* \"#utility.yul\":45355:45422   */\n      tag_775\n        /* \"#utility.yul\":45415:45421   */\n      dup6\n        /* \"#utility.yul\":45408:45413   */\n      dup3\n        /* \"#utility.yul\":45355:45422   */\n      tag_388\n      jump\t// in\n    tag_775:\n        /* \"#utility.yul\":45349:45353   */\n      dup7\n        /* \"#utility.yul\":45342:45423   */\n      sstore\n        /* \"#utility.yul\":45211:45433   */\n      pop\n        /* \"#utility.yul\":44546:45433   */\n      jump(tag_772)\n        /* \"#utility.yul\":44576:45194   */\n    tag_773:\n        /* \"#utility.yul\":44628:44632   */\n      0x1f\n        /* \"#utility.yul\":44624:44633   */\n      not\n        /* \"#utility.yul\":44616:44622   */\n      dup5\n        /* \"#utility.yul\":44612:44634   */\n      and\n        /* \"#utility.yul\":44662:44699   */\n      tag_776\n        /* \"#utility.yul\":44694:44698   */\n      dup7\n        /* \"#utility.yul\":44662:44699   */\n      tag_374\n      jump\t// in\n    tag_776:\n        /* \"#utility.yul\":44721:44722   */\n      0x00\n        /* \"#utility.yul\":44735:44943   */\n    tag_777:\n        /* \"#utility.yul\":44749:44756   */\n      dup3\n        /* \"#utility.yul\":44746:44747   */\n      dup2\n        /* \"#utility.yul\":44743:44757   */\n      lt\n        /* \"#utility.yul\":44735:44943   */\n      iszero\n      tag_779\n      jumpi\n        /* \"#utility.yul\":44828:44837   */\n      dup5\n        /* \"#utility.yul\":44823:44826   */\n      dup10\n        /* \"#utility.yul\":44819:44838   */\n      add\n        /* \"#utility.yul\":44813:44839   */\n      mload\n        /* \"#utility.yul\":44805:44811   */\n      dup3\n        /* \"#utility.yul\":44798:44840   */\n      sstore\n        /* \"#utility.yul\":44879:44880   */\n      0x01\n        /* \"#utility.yul\":44871:44877   */\n      dup3\n        /* \"#utility.yul\":44867:44881   */\n      add\n        /* \"#utility.yul\":44857:44881   */\n      swap2\n      pop\n        /* \"#utility.yul\":44926:44928   */\n      0x20\n        /* \"#utility.yul\":44915:44924   */\n      dup6\n        /* \"#utility.yul\":44911:44929   */\n      add\n        /* \"#utility.yul\":44898:44929   */\n      swap5\n      pop\n        /* \"#utility.yul\":44772:44776   */\n      0x20\n        /* \"#utility.yul\":44769:44770   */\n      dup2\n        /* \"#utility.yul\":44765:44777   */\n      add\n        /* \"#utility.yul\":44760:44777   */\n      swap1\n      pop\n        /* \"#utility.yul\":44735:44943   */\n      jump(tag_777)\n    tag_779:\n        /* \"#utility.yul\":44971:44977   */\n      dup7\n        /* \"#utility.yul\":44962:44969   */\n      dup4\n        /* \"#utility.yul\":44959:44978   */\n      lt\n        /* \"#utility.yul\":44956:45135   */\n      iszero\n      tag_780\n      jumpi\n        /* \"#utility.yul\":45029:45038   */\n      dup5\n        /* \"#utility.yul\":45024:45027   */\n      dup10\n        /* \"#utility.yul\":45020:45039   */\n      add\n        /* \"#utility.yul\":45014:45040   */\n      mload\n        /* \"#utility.yul\":45072:45120   */\n      tag_781\n        /* \"#utility.yul\":45114:45118   */\n      0x1f\n        /* \"#utility.yul\":45106:45112   */\n      dup10\n        /* \"#utility.yul\":45102:45119   */\n      and\n        /* \"#utility.yul\":45091:45100   */\n      dup3\n        /* \"#utility.yul\":45072:45120   */\n      tag_387\n      jump\t// in\n    tag_781:\n        /* \"#utility.yul\":45064:45070   */\n      dup4\n        /* \"#utility.yul\":45057:45121   */\n      sstore\n        /* \"#utility.yul\":44979:45135   */\n      pop\n        /* \"#utility.yul\":44956:45135   */\n    tag_780:\n        /* \"#utility.yul\":45181:45182   */\n      0x01\n        /* \"#utility.yul\":45177:45178   */\n      0x02\n        /* \"#utility.yul\":45169:45175   */\n      dup9\n        /* \"#utility.yul\":45165:45179   */\n      mul\n        /* \"#utility.yul\":45161:45183   */\n      add\n        /* \"#utility.yul\":45155:45159   */\n      dup9\n        /* \"#utility.yul\":45148:45184   */\n      sstore\n        /* \"#utility.yul\":44583:45194   */\n      pop\n      pop\n      pop\n        /* \"#utility.yul\":44546:45433   */\n    tag_772:\n      pop\n        /* \"#utility.yul\":44136:45439   */\n      pop\n      pop\n      pop\n        /* \"#utility.yul\":44044:45439   */\n      pop\n      pop\n      jump\t// out\n        /* \"#utility.yul\":45445:45625   */\n    tag_389:\n        /* \"#utility.yul\":45493:45570   */\n      0x4e487b7100000000000000000000000000000000000000000000000000000000\n        /* \"#utility.yul\":45490:45491   */\n      0x00\n        /* \"#utility.yul\":45483:45571   */\n      mstore\n        /* \"#utility.yul\":45590:45594   */\n      0x11\n        /* \"#utility.yul\":45587:45588   */\n      0x04\n        /* \"#utility.yul\":45580:45595   */\n      mstore\n        /* \"#utility.yul\":45614:45618   */\n      0x24\n        /* \"#utility.yul\":45611:45612   */\n      0x00\n        /* \"#utility.yul\":45604:45619   */\n      revert\n        /* \"#utility.yul\":45631:45864   */\n    tag_100:\n        /* \"#utility.yul\":45670:45673   */\n      0x00\n        /* \"#utility.yul\":45693:45717   */\n      tag_784\n        /* \"#utility.yul\":45711:45716   */\n      dup3\n        /* \"#utility.yul\":45693:45717   */\n      tag_332\n      jump\t// in\n    tag_784:\n        /* \"#utility.yul\":45684:45717   */\n      swap2\n      pop\n        /* \"#utility.yul\":45739:45805   */\n      0xffffffffffffffffffffffffffffffffffffffffffffffffffffffffffffffff\n        /* \"#utility.yul\":45732:45737   */\n      dup3\n        /* \"#utility.yul\":45729:45806   */\n      sub\n        /* \"#utility.yul\":45726:45829   */\n      tag_785\n      jumpi\n        /* \"#utility.yul\":45809:45827   */\n      tag_786\n      tag_389\n      jump\t// in\n    tag_786:\n        /* \"#utility.yul\":45726:45829   */\n    tag_785:\n        /* \"#utility.yul\":45856:45857   */\n      0x01\n        /* \"#utility.yul\":45849:45854   */\n      dup3\n        /* \"#utility.yul\":45845:45858   */\n      add\n        /* \"#utility.yul\":45838:45858   */\n      swap1\n      pop\n        /* \"#utility.yul\":45631:45864   */\n      swap2\n      swap1\n      pop\n      jump\t// out\n        /* \"#utility.yul\":45870:46050   */\n    tag_126:\n        /* \"#utility.yul\":45918:45995   */\n      0x4e487b7100000000000000000000000000000000000000000000000000000000\n        /* \"#utility.yul\":45915:45916   */\n      0x00\n        /* \"#utility.yul\":45908:45996   */\n      mstore\n        /* \"#utility.yul\":46015:46019   */\n      0x32\n        /* \"#utility.yul\":46012:46013   */\n      0x04\n        /* \"#utility.yul\":46005:46020   */\n      mstore\n        /* \"#utility.yul\":46039:46043   */\n      0x24\n        /* \"#utility.yul\":46036:46037   */\n      0x00\n        /* \"#utility.yul\":46029:46044   */\n      revert\n\n    auxdata: 0xa264697066735822122057462daf832b695f5fd7f66dbaf2eb884a32e699e6916204cd12d6c1f9a81b0064736f6c63430008120033\n}\n",
				"bytecode": {
					"linkReferences": {},
					"object": "608060405234801561001057600080fd5b5060018060003373ffffffffffffffffffffffffffffffffffffffff1673ffffffffffffffffffffffffffffffffffffffff16815260200190815260200160002060006101000a81548160ff021916908315150217905550612fe3806100776000396000f3fe608060405234801561001057600080fd5b50600436106100ea5760003560e01c806371c017f51161008c578063a4f3cc2311610066578063a4f3cc2314610257578063a63bd79814610273578063d2ea8594146102a5578063d4638181146102d5576100ea565b806371c017f5146101c75780637a01dbf5146101f7578063931126e914610227576100ea565b806354506048116100c8578063545060481461015757806358c9202c14610173578063669aaafb1461018f5780636ebfa7d4146101ab576100ea565b80630416af27146100ef5780631d76d8961461010b57806329601ed814610127575b600080fd5b61010960048036038101906101049190611a18565b6102f1565b005b61012560048036038101906101209190611bc3565b610446565b005b610141600480360381019061013c9190611d05565b61059f565b60405161014e9190611ed3565b60405180910390f35b610171600480360381019061016c9190611ef5565b6107af565b005b61018d60048036038101906101889190611a18565b610853565b005b6101a960048036038101906101a49190612082565b610939565b005b6101c560048036038101906101c0919061218f565b6109f6565b005b6101e160048036038101906101dc9190611d05565b610ae0565b6040516101ee9190612376565b60405180910390f35b610211600480360381019061020c9190611d05565b610c7c565b60405161021e91906124cc565b60405180910390f35b610241600480360381019061023c9190611d05565b610e3a565b60405161024e9190612661565b60405180910390f35b610271600480360381019061026c9190612683565b6111bf565b005b61028d600480360381019061028891906127b8565b611243565b60405161029c93929190612871565b60405180910390f35b6102bf60048036038101906102ba9190611d05565b611459565b6040516102cc91906129dd565b60405180910390f35b6102ef60048036038101906102ea91906129ff565b611740565b005b600160003373ffffffffffffffffffffffffffffffffffffffff1673ffffffffffffffffffffffffffffffffffffffff16815260200190815260200160002060009054906101000a900460ff1661037d576040517f08c379a000000000000000000000000000000000000000000000000000000000815260040161037490612b24565b60405180910390fd5b8073ffffffffffffffffffffffffffffffffffffffff163373ffffffffffffffffffffffffffffffffffffffff16036103eb576040517f08c379a00000000000000000000000000000000000000000000000000000000081526004016103e290612bb6565b60405180910390fd5b6000600160008373ffffffffffffffffffffffffffffffffffffffff1673ffffffffffffffffffffffffffffffffffffffff16815260200190815260200160002060006101000a81548160ff02191690831515021790555050565b600080896040516104579190612c12565b908152602001604051809103902090506000816007015490506040518060e001604052808a81526020018981526020018815158152602001871515815260200186151581526020018581526020018481525082600601600083815260200190815260200160002060008201518160000190816104d39190612e35565b5060208201518160010190816104e99190612e35565b5060408201518160020160006101000a81548160ff02191690831515021790555060608201518160020160016101000a81548160ff02191690831515021790555060808201518160020160026101000a81548160ff02191690831515021790555060a082015181600301908161055f9190612e35565b5060c08201518160040190816105759190612e35565b5090505081600701600081548092919061058e90612f36565b919050555050505050505050505050565b6060600080836040516105b29190612c12565b90815260200160405180910390209050600081600d0154905060008167ffffffffffffffff8111156105e7576105e6611a60565b5b60405190808252806020026020018201604052801561062057816020015b61060d6117fa565b8152602001906001900390816106055790505b50905060005b828110156107a35783600c01600082815260200190815260200160002060405180604001604052908160008201805461065e90612c58565b80601f016020809104026020016040519081016040528092919081815260200182805461068a90612c58565b80156106d75780601f106106ac576101008083540402835291602001916106d7565b820191906000526020600020905b8154815290600101906020018083116106ba57829003601f168201915b505050505081526020016001820180546106f090612c58565b80601f016020809104026020016040519081016040528092919081815260200182805461071c90612c58565b80156107695780601f1061073e57610100808354040283529160200191610769565b820191906000526020600020905b81548152906001019060200180831161074c57829003601f168201915b50505050508152505082828151811061078557610784612f7e565b5b6020026020010181905250808061079b90612f36565b915050610626565b50809350505050919050565b600080846040516107c09190612c12565b90815260200160405180910390209050600081600d0154905060405180604001604052808581526020018481525082600c01600083815260200190815260200160002060008201518160000190816108189190612e35565b50602082015181600101908161082e9190612e35565b5090505081600d01600081548092919061084790612f36565b91905055505050505050565b600160003373ffffffffffffffffffffffffffffffffffffffff1673ffffffffffffffffffffffffffffffffffffffff16815260200190815260200160002060009054906101000a900460ff166108df576040517f08c379a00000000000000000000000000000000000000000000000000000000081526004016108d690612b24565b60405180910390fd5b60018060008373ffffffffffffffffffffffffffffffffffffffff1673ffffffffffffffffffffffffffffffffffffffff16815260200190815260200160002060006101000a81548160ff02191690831515021790555050565b6000808560405161094a9190612c12565b9081526020016040518091039020905060405180606001604052808581526020018481526020018381525081600501866040516109879190612c12565b908152602001604051809103902060008201518160000190805190602001906109b1929190611814565b5060208201518160010190805190602001906109ce929190611814565b5060408201518160020190805190602001906109eb929190611814565b509050505050505050565b60008086604051610a079190612c12565b90815260200160405180910390209050600081600b015490506040518060800160405280878152602001861515815260200185151581526020018481525082600a0160008381526020019081526020016000206000820151816000019081610a6f9190612e35565b5060208201518160010160006101000a81548160ff02191690831515021790555060408201518160010160016101000a81548160ff0219169083151502179055506060820151816002015590505081600b016000815480929190610ad290612f36565b919050555050505050505050565b606060008083604051610af39190612c12565b9081526020016040518091039020905060008160090154905060008167ffffffffffffffff811115610b2857610b27611a60565b5b604051908082528060200260200182016040528015610b6157816020015b610b4e61186d565b815260200190600190039081610b465790505b50905060005b82811015610c7057836008016000828152602001908152602001600020604051806080016040529081600082018054610b9f90612c58565b80601f0160208091040260200160405190810160405280929190818152602001828054610bcb90612c58565b8015610c185780601f10610bed57610100808354040283529160200191610c18565b820191906000526020600020905b815481529060010190602001808311610bfb57829003601f168201915b505050505081526020016001820154815260200160028201548152602001600382015481525050828281518110610c5257610c51612f7e565b5b60200260200101819052508080610c6890612f36565b915050610b67565b50809350505050919050565b606060008083604051610c8f9190612c12565b90815260200160405180910390209050600081600b0154905060008167ffffffffffffffff811115610cc457610cc3611a60565b5b604051908082528060200260200182016040528015610cfd57816020015b610cea611895565b815260200190600190039081610ce25790505b50905060005b82811015610e2e5783600a016000828152602001908152602001600020604051806080016040529081600082018054610d3b90612c58565b80601f0160208091040260200160405190810160405280929190818152602001828054610d6790612c58565b8015610db45780601f10610d8957610100808354040283529160200191610db4565b820191906000526020600020905b815481529060010190602001808311610d9757829003601f168201915b505050505081526020016001820160009054906101000a900460ff161515151581526020016001820160019054906101000a900460ff16151515158152602001600282015481525050828281518110610e1057610e0f612f7e565b5b60200260200101819052508080610e2690612f36565b915050610d03565b50809350505050919050565b606060008083604051610e4d9190612c12565b9081526020016040518091039020905060008160070154905060008167ffffffffffffffff811115610e8257610e81611a60565b5b604051908082528060200260200182016040528015610ebb57816020015b610ea86118c1565b815260200190600190039081610ea05790505b50905060005b828110156111b3578360060160008281526020019081526020016000206040518060e0016040529081600082018054610ef990612c58565b80601f0160208091040260200160405190810160405280929190818152602001828054610f2590612c58565b8015610f725780601f10610f4757610100808354040283529160200191610f72565b820191906000526020600020905b815481529060010190602001808311610f5557829003601f168201915b50505050508152602001600182018054610f8b90612c58565b80601f0160208091040260200160405190810160405280929190818152602001828054610fb790612c58565b80156110045780601f10610fd957610100808354040283529160200191611004565b820191906000526020600020905b815481529060010190602001808311610fe757829003601f168201915b505050505081526020016002820160009054906101000a900460ff161515151581526020016002820160019054906101000a900460ff161515151581526020016002820160029054906101000a900460ff1615151515815260200160038201805461106e90612c58565b80601f016020809104026020016040519081016040528092919081815260200182805461109a90612c58565b80156110e75780601f106110bc576101008083540402835291602001916110e7565b820191906000526020600020905b8154815290600101906020018083116110ca57829003601f168201915b5050505050815260200160048201805461110090612c58565b80601f016020809104026020016040519081016040528092919081815260200182805461112c90612c58565b80156111795780601f1061114e57610100808354040283529160200191611179565b820191906000526020600020905b81548152906001019060200180831161115c57829003601f168201915b50505050508152505082828151811061119557611194612f7e565b5b602002602001018190525080806111ab90612f36565b915050610ec1565b50809350505050919050565b600080876040516111d09190612c12565b90815260200160405180910390209050858160000190816111f19190612e35565b50848160010190816112039190612e35565b50838160020190816112159190612e35565b50828160030190816112279190612e35565b50818160040190816112399190612e35565b5050505050505050565b6060806060600080876040516112599190612c12565b9081526020016040518091039020905080600001856112875760405180602001604052806000815250611315565b81600301805461129690612c58565b80601f01602080910402602001604051908101604052809291908181526020018280546112c290612c58565b801561130f5780601f106112e45761010080835404028352916020019161130f565b820191906000526020600020905b8154815290600101906020018083116112f257829003601f168201915b50505050505b8761132f57604051806020016040528060008152506113bd565b82600401805461133e90612c58565b80601f016020809104026020016040519081016040528092919081815260200182805461136a90612c58565b80156113b75780601f1061138c576101008083540402835291602001916113b7565b820191906000526020600020905b81548152906001019060200180831161139a57829003601f168201915b50505050505b8280546113c990612c58565b80601f01602080910402602001604051908101604052809291908181526020018280546113f590612c58565b80156114425780601f1061141757610100808354040283529160200191611442565b820191906000526020600020905b81548152906001019060200180831161142557829003601f168201915b505050505092509350935093505093509350939050565b611461611904565b600080836040516114729190612c12565b9081526020016040518091039020905080600501836040516114949190612c12565b908152602001604051809103902060405180606001604052908160008201805480602002602001604051908101604052809291908181526020016000905b8282101561157e5783829060005260206000200180546114f190612c58565b80601f016020809104026020016040519081016040528092919081815260200182805461151d90612c58565b801561156a5780601f1061153f5761010080835404028352916020019161156a565b820191906000526020600020905b81548152906001019060200180831161154d57829003601f168201915b5050505050815260200190600101906114d2565b50505050815260200160018201805480602002602001604051908101604052809291908181526020016000905b828210156116575783829060005260206000200180546115ca90612c58565b80601f01602080910402602001604051908101604052809291908181526020018280546115f690612c58565b80156116435780601f1061161857610100808354040283529160200191611643565b820191906000526020600020905b81548152906001019060200180831161162657829003601f168201915b5050505050815260200190600101906115ab565b50505050815260200160028201805480602002602001604051908101604052809291908181526020016000905b828210156117305783829060005260206000200180546116a390612c58565b80601f01602080910402602001604051908101604052809291908181526020018280546116cf90612c58565b801561171c5780601f106116f15761010080835404028352916020019161171c565b820191906000526020600020905b8154815290600101906020018083116116ff57829003601f168201915b505050505081526020019060010190611684565b5050505081525050915050919050565b600080866040516117519190612c12565b9081526020016040518091039020905060008160090154905060405180608001604052808781526020018681526020018581526020018481525082600801600083815260200190815260200160002060008201518160000190816117b59190612e35565b506020820151816001015560408201518160020155606082015181600301559050508160090160008154809291906117ec90612f36565b919050555050505050505050565b604051806040016040528060608152602001606081525090565b82805482825590600052602060002090810192821561185c579160200282015b8281111561185b57825182908161184b9190612e35565b5091602001919060010190611834565b5b5090506118699190611925565b5090565b6040518060800160405280606081526020016000815260200160008152602001600081525090565b604051806080016040528060608152602001600015158152602001600015158152602001600081525090565b6040518060e00160405280606081526020016060815260200160001515815260200160001515815260200160001515815260200160608152602001606081525090565b60405180606001604052806060815260200160608152602001606081525090565b5b80821115611945576000818161193c9190611949565b50600101611926565b5090565b50805461195590612c58565b6000825580601f106119675750611986565b601f0160209004906000526020600020908101906119859190611989565b5b50565b5b808211156119a257600081600090555060010161198a565b5090565b6000604051905090565b600080fd5b600080fd5b600073ffffffffffffffffffffffffffffffffffffffff82169050919050565b60006119e5826119ba565b9050919050565b6119f5816119da565b8114611a0057600080fd5b50565b600081359050611a12816119ec565b92915050565b600060208284031215611a2e57611a2d6119b0565b5b6000611a3c84828501611a03565b91505092915050565b600080fd5b600080fd5b6000601f19601f8301169050919050565b7f4e487b7100000000000000000000000000000000000000000000000000000000600052604160045260246000fd5b611a9882611a4f565b810181811067ffffffffffffffff82111715611ab757611ab6611a60565b5b80604052505050565b6000611aca6119a6565b9050611ad68282611a8f565b919050565b600067ffffffffffffffff821115611af657611af5611a60565b5b611aff82611a4f565b9050602081019050919050565b82818337600083830152505050565b6000611b2e611b2984611adb565b611ac0565b905082815260208101848484011115611b4a57611b49611a4a565b5b611b55848285611b0c565b509392505050565b600082601f830112611b7257611b71611a45565b5b8135611b82848260208601611b1b565b91505092915050565b60008115159050919050565b611ba081611b8b565b8114611bab57600080fd5b50565b600081359050611bbd81611b97565b92915050565b600080600080600080600080610100898b031215611be457611be36119b0565b5b600089013567ffffffffffffffff811115611c0257611c016119b5565b5b611c0e8b828c01611b5d565b985050602089013567ffffffffffffffff811115611c2f57611c2e6119b5565b5b611c3b8b828c01611b5d565b975050604089013567ffffffffffffffff811115611c5c57611c5b6119b5565b5b611c688b828c01611b5d565b9650506060611c798b828c01611bae565b9550506080611c8a8b828c01611bae565b94505060a0611c9b8b828c01611bae565b93505060c089013567ffffffffffffffff811115611cbc57611cbb6119b5565b5b611cc88b828c01611b5d565b92505060e089013567ffffffffffffffff811115611ce957611ce86119b5565b5b611cf58b828c01611b5d565b9150509295985092959890939650565b600060208284031215611d1b57611d1a6119b0565b5b600082013567ffffffffffffffff811115611d3957611d386119b5565b5b611d4584828501611b5d565b91505092915050565b600081519050919050565b600082825260208201905092915050565b6000819050602082019050919050565b600081519050919050565b600082825260208201905092915050565b60005b83811015611db4578082015181840152602081019050611d99565b60008484015250505050565b6000611dcb82611d7a565b611dd58185611d85565b9350611de5818560208601611d96565b611dee81611a4f565b840191505092915050565b60006040830160008301518482036000860152611e168282611dc0565b91505060208301518482036020860152611e308282611dc0565b9150508091505092915050565b6000611e498383611df9565b905092915050565b6000602082019050919050565b6000611e6982611d4e565b611e738185611d59565b935083602082028501611e8585611d6a565b8060005b85811015611ec15784840389528151611ea28582611e3d565b9450611ead83611e51565b925060208a01995050600181019050611e89565b50829750879550505050505092915050565b60006020820190508181036000830152611eed8184611e5e565b905092915050565b600080600060608486031215611f0e57611f0d6119b0565b5b600084013567ffffffffffffffff811115611f2c57611f2b6119b5565b5b611f3886828701611b5d565b935050602084013567ffffffffffffffff811115611f5957611f586119b5565b5b611f6586828701611b5d565b925050604084013567ffffffffffffffff811115611f8657611f856119b5565b5b611f9286828701611b5d565b9150509250925092565b600067ffffffffffffffff821115611fb757611fb6611a60565b5b602082029050602081019050919050565b600080fd5b6000611fe0611fdb84611f9c565b611ac0565b9050808382526020820190506020840283018581111561200357612002611fc8565b5b835b8181101561204a57803567ffffffffffffffff81111561202857612027611a45565b5b8086016120358982611b5d565b85526020850194505050602081019050612005565b5050509392505050565b600082601f83011261206957612068611a45565b5b8135612079848260208601611fcd565b91505092915050565b6000806000806080858703121561209c5761209b6119b0565b5b600085013567ffffffffffffffff8111156120ba576120b96119b5565b5b6120c687828801611b5d565b945050602085013567ffffffffffffffff8111156120e7576120e66119b5565b5b6120f387828801612054565b935050604085013567ffffffffffffffff811115612114576121136119b5565b5b61212087828801612054565b925050606085013567ffffffffffffffff811115612141576121406119b5565b5b61214d87828801612054565b91505092959194509250565b6000819050919050565b61216c81612159565b811461217757600080fd5b50565b60008135905061218981612163565b92915050565b600080600080600060a086880312156121ab576121aa6119b0565b5b600086013567ffffffffffffffff8111156121c9576121c86119b5565b5b6121d588828901611b5d565b955050602086013567ffffffffffffffff8111156121f6576121f56119b5565b5b61220288828901611b5d565b945050604061221388828901611bae565b935050606061222488828901611bae565b92505060806122358882890161217a565b9150509295509295909350565b600081519050919050565b600082825260208201905092915050565b6000819050602082019050919050565b61227781612159565b82525050565b6000608083016000830151848203600086015261229a8282611dc0565b91505060208301516122af602086018261226e565b5060408301516122c2604086018261226e565b5060608301516122d5606086018261226e565b508091505092915050565b60006122ec838361227d565b905092915050565b6000602082019050919050565b600061230c82612242565b612316818561224d565b9350836020820285016123288561225e565b8060005b85811015612364578484038952815161234585826122e0565b9450612350836122f4565b925060208a0199505060018101905061232c565b50829750879550505050505092915050565b600060208201905081810360008301526123908184612301565b905092915050565b600081519050919050565b600082825260208201905092915050565b6000819050602082019050919050565b6123cd81611b8b565b82525050565b600060808301600083015184820360008601526123f08282611dc0565b915050602083015161240560208601826123c4565b50604083015161241860408601826123c4565b50606083015161242b606086018261226e565b508091505092915050565b600061244283836123d3565b905092915050565b6000602082019050919050565b600061246282612398565b61246c81856123a3565b93508360208202850161247e856123b4565b8060005b858110156124ba578484038952815161249b8582612436565b94506124a68361244a565b925060208a01995050600181019050612482565b50829750879550505050505092915050565b600060208201905081810360008301526124e68184612457565b905092915050565b600081519050919050565b600082825260208201905092915050565b6000819050602082019050919050565b600060e08301600083015184820360008601526125378282611dc0565b915050602083015184820360208601526125518282611dc0565b915050604083015161256660408601826123c4565b50606083015161257960608601826123c4565b50608083015161258c60808601826123c4565b5060a083015184820360a08601526125a48282611dc0565b91505060c083015184820360c08601526125be8282611dc0565b9150508091505092915050565b60006125d7838361251a565b905092915050565b6000602082019050919050565b60006125f7826124ee565b61260181856124f9565b9350836020820285016126138561250a565b8060005b8581101561264f578484038952815161263085826125cb565b945061263b836125df565b925060208a01995050600181019050612617565b50829750879550505050505092915050565b6000602082019050818103600083015261267b81846125ec565b905092915050565b60008060008060008060c087890312156126a05761269f6119b0565b5b600087013567ffffffffffffffff8111156126be576126bd6119b5565b5b6126ca89828a01611b5d565b965050602087013567ffffffffffffffff8111156126eb576126ea6119b5565b5b6126f789828a01611b5d565b955050604087013567ffffffffffffffff811115612718576127176119b5565b5b61272489828a01611b5d565b945050606087013567ffffffffffffffff811115612745576127446119b5565b5b61275189828a01611b5d565b935050608087013567ffffffffffffffff811115612772576127716119b5565b5b61277e89828a01611b5d565b92505060a087013567ffffffffffffffff81111561279f5761279e6119b5565b5b6127ab89828a01611b5d565b9150509295509295509295565b6000806000606084860312156127d1576127d06119b0565b5b600084013567ffffffffffffffff8111156127ef576127ee6119b5565b5b6127fb86828701611b5d565b935050602061280c86828701611bae565b925050604061281d86828701611bae565b9150509250925092565b600082825260208201905092915050565b600061284382611d7a565b61284d8185612827565b935061285d818560208601611d96565b61286681611a4f565b840191505092915050565b6000606082019050818103600083015261288b8186612838565b9050818103602083015261289f8185612838565b905081810360408301526128b38184612838565b9050949350505050565b600081519050919050565b600082825260208201905092915050565b6000819050602082019050919050565b60006128f58383611dc0565b905092915050565b6000602082019050919050565b6000612915826128bd565b61291f81856128c8565b935083602082028501612931856128d9565b8060005b8581101561296d578484038952815161294e85826128e9565b9450612959836128fd565b925060208a01995050600181019050612935565b50829750879550505050505092915050565b6000606083016000830151848203600086015261299c828261290a565b915050602083015184820360208601526129b6828261290a565b915050604083015184820360408601526129d0828261290a565b9150508091505092915050565b600060208201905081810360008301526129f7818461297f565b905092915050565b600080600080600060a08688031215612a1b57612a1a6119b0565b5b600086013567ffffffffffffffff811115612a3957612a386119b5565b5b612a4588828901611b5d565b955050602086013567ffffffffffffffff811115612a6657612a656119b5565b5b612a7288828901611b5d565b9450506040612a838882890161217a565b9350506060612a948882890161217a565b9250506080612aa58882890161217a565b9150509295509295909350565b7f4f6e6c7920617574686f72697a656420646f63746f72732063616e206163636560008201527f737320746869732066756e6374696f6e00000000000000000000000000000000602082015250565b6000612b0e603083612827565b9150612b1982612ab2565b604082019050919050565b60006020820190508181036000830152612b3d81612b01565b9050919050565b7f54686520636f6e7472616374206465706c6f7965722063616e6e6f742072657660008201527f6f6b65207468656d73656c766573000000000000000000000000000000000000602082015250565b6000612ba0602e83612827565b9150612bab82612b44565b604082019050919050565b60006020820190508181036000830152612bcf81612b93565b9050919050565b600081905092915050565b6000612bec82611d7a565b612bf68185612bd6565b9350612c06818560208601611d96565b80840191505092915050565b6000612c1e8284612be1565b915081905092915050565b7f4e487b7100000000000000000000000000000000000000000000000000000000600052602260045260246000fd5b60006002820490506001821680612c7057607f821691505b602082108103612c8357612c82612c29565b5b50919050565b60008190508160005260206000209050919050565b60006020601f8301049050919050565b600082821b905092915050565b600060088302612ceb7fffffffffffffffffffffffffffffffffffffffffffffffffffffffffffffffff82612cae565b612cf58683612cae565b95508019841693508086168417925050509392505050565b6000819050919050565b6000612d32612d2d612d2884612159565b612d0d565b612159565b9050919050565b6000819050919050565b612d4c83612d17565b612d60612d5882612d39565b848454612cbb565b825550505050565b600090565b612d75612d68565b612d80818484612d43565b505050565b5b81811015612da457612d99600082612d6d565b600181019050612d86565b5050565b601f821115612de957612dba81612c89565b612dc384612c9e565b81016020851015612dd2578190505b612de6612dde85612c9e565b830182612d85565b50505b505050565b600082821c905092915050565b6000612e0c60001984600802612dee565b1980831691505092915050565b6000612e258383612dfb565b9150826002028217905092915050565b612e3e82611d7a565b67ffffffffffffffff811115612e5757612e56611a60565b5b612e618254612c58565b612e6c828285612da8565b600060209050601f831160018114612e9f5760008415612e8d578287015190505b612e978582612e19565b865550612eff565b601f198416612ead86612c89565b60005b82811015612ed557848901518255600182019150602085019450602081019050612eb0565b86831015612ef25784890151612eee601f891682612dfb565b8355505b6001600288020188555050505b505050505050565b7f4e487b7100000000000000000000000000000000000000000000000000000000600052601160045260246000fd5b6000612f4182612159565b91507fffffffffffffffffffffffffffffffffffffffffffffffffffffffffffffffff8203612f7357612f72612f07565b5b600182019050919050565b7f4e487b7100000000000000000000000000000000000000000000000000000000600052603260045260246000fdfea264697066735822122057462daf832b695f5fd7f66dbaf2eb884a32e699e6916204cd12d6c1f9a81b0064736f6c63430008120033",
					"opcodes": "PUSH1 0x80 PUSH1 0x40 MSTORE CALLVALUE DUP1 ISZERO PUSH2 0x10 JUMPI PUSH1 0x0 DUP1 REVERT JUMPDEST POP PUSH1 0x1 DUP1 PUSH1 0x0 CALLER PUSH20 0xFFFFFFFFFFFFFFFFFFFFFFFFFFFFFFFFFFFFFFFF AND PUSH20 0xFFFFFFFFFFFFFFFFFFFFFFFFFFFFFFFFFFFFFFFF AND DUP2 MSTORE PUSH1 0x20 ADD SWAP1 DUP2 MSTORE PUSH1 0x20 ADD PUSH1 0x0 KECCAK256 PUSH1 0x0 PUSH2 0x100 EXP DUP2 SLOAD DUP2 PUSH1 0xFF MUL NOT AND SWAP1 DUP4 ISZERO ISZERO MUL OR SWAP1 SSTORE POP PUSH2 0x2FE3 DUP1 PUSH2 0x77 PUSH1 0x0 CODECOPY PUSH1 0x0 RETURN INVALID PUSH1 0x80 PUSH1 0x40 MSTORE CALLVALUE DUP1 ISZERO PUSH2 0x10 JUMPI PUSH1 0x0 DUP1 REVERT JUMPDEST POP PUSH1 0x4 CALLDATASIZE LT PUSH2 0xEA JUMPI PUSH1 0x0 CALLDATALOAD PUSH1 0xE0 SHR DUP1 PUSH4 0x71C017F5 GT PUSH2 0x8C JUMPI DUP1 PUSH4 0xA4F3CC23 GT PUSH2 0x66 JUMPI DUP1 PUSH4 0xA4F3CC23 EQ PUSH2 0x257 JUMPI DUP1 PUSH4 0xA63BD798 EQ PUSH2 0x273 JUMPI DUP1 PUSH4 0xD2EA8594 EQ PUSH2 0x2A5 JUMPI DUP1 PUSH4 0xD4638181 EQ PUSH2 0x2D5 JUMPI PUSH2 0xEA JUMP JUMPDEST DUP1 PUSH4 0x71C017F5 EQ PUSH2 0x1C7 JUMPI DUP1 PUSH4 0x7A01DBF5 EQ PUSH2 0x1F7 JUMPI DUP1 PUSH4 0x931126E9 EQ PUSH2 0x227 JUMPI PUSH2 0xEA JUMP JUMPDEST DUP1 PUSH4 0x54506048 GT PUSH2 0xC8 JUMPI DUP1 PUSH4 0x54506048 EQ PUSH2 0x157 JUMPI DUP1 PUSH4 0x58C9202C EQ PUSH2 0x173 JUMPI DUP1 PUSH4 0x669AAAFB EQ PUSH2 0x18F JUMPI DUP1 PUSH4 0x6EBFA7D4 EQ PUSH2 0x1AB JUMPI PUSH2 0xEA JUMP JUMPDEST DUP1 PUSH4 0x416AF27 EQ PUSH2 0xEF JUMPI DUP1 PUSH4 0x1D76D896 EQ PUSH2 0x10B JUMPI DUP1 PUSH4 0x29601ED8 EQ PUSH2 0x127 JUMPI JUMPDEST PUSH1 0x0 DUP1 REVERT JUMPDEST PUSH2 0x109 PUSH1 0x4 DUP1 CALLDATASIZE SUB DUP2 ADD SWAP1 PUSH2 0x104 SWAP2 SWAP1 PUSH2 0x1A18 JUMP JUMPDEST PUSH2 0x2F1 JUMP JUMPDEST STOP JUMPDEST PUSH2 0x125 PUSH1 0x4 DUP1 CALLDATASIZE SUB DUP2 ADD SWAP1 PUSH2 0x120 SWAP2 SWAP1 PUSH2 0x1BC3 JUMP JUMPDEST PUSH2 0x446 JUMP JUMPDEST STOP JUMPDEST PUSH2 0x141 PUSH1 0x4 DUP1 CALLDATASIZE SUB DUP2 ADD SWAP1 PUSH2 0x13C SWAP2 SWAP1 PUSH2 0x1D05 JUMP JUMPDEST PUSH2 0x59F JUMP JUMPDEST PUSH1 0x40 MLOAD PUSH2 0x14E SWAP2 SWAP1 PUSH2 0x1ED3 JUMP JUMPDEST PUSH1 0x40 MLOAD DUP1 SWAP2 SUB SWAP1 RETURN JUMPDEST PUSH2 0x171 PUSH1 0x4 DUP1 CALLDATASIZE SUB DUP2 ADD SWAP1 PUSH2 0x16C SWAP2 SWAP1 PUSH2 0x1EF5 JUMP JUMPDEST PUSH2 0x7AF JUMP JUMPDEST STOP JUMPDEST PUSH2 0x18D PUSH1 0x4 DUP1 CALLDATASIZE SUB DUP2 ADD SWAP1 PUSH2 0x188 SWAP2 SWAP1 PUSH2 0x1A18 JUMP JUMPDEST PUSH2 0x853 JUMP JUMPDEST STOP JUMPDEST PUSH2 0x1A9 PUSH1 0x4 DUP1 CALLDATASIZE SUB DUP2 ADD SWAP1 PUSH2 0x1A4 SWAP2 SWAP1 PUSH2 0x2082 JUMP JUMPDEST PUSH2 0x939 JUMP JUMPDEST STOP JUMPDEST PUSH2 0x1C5 PUSH1 0x4 DUP1 CALLDATASIZE SUB DUP2 ADD SWAP1 PUSH2 0x1C0 SWAP2 SWAP1 PUSH2 0x218F JUMP JUMPDEST PUSH2 0x9F6 JUMP JUMPDEST STOP JUMPDEST PUSH2 0x1E1 PUSH1 0x4 DUP1 CALLDATASIZE SUB DUP2 ADD SWAP1 PUSH2 0x1DC SWAP2 SWAP1 PUSH2 0x1D05 JUMP JUMPDEST PUSH2 0xAE0 JUMP JUMPDEST PUSH1 0x40 MLOAD PUSH2 0x1EE SWAP2 SWAP1 PUSH2 0x2376 JUMP JUMPDEST PUSH1 0x40 MLOAD DUP1 SWAP2 SUB SWAP1 RETURN JUMPDEST PUSH2 0x211 PUSH1 0x4 DUP1 CALLDATASIZE SUB DUP2 ADD SWAP1 PUSH2 0x20C SWAP2 SWAP1 PUSH2 0x1D05 JUMP JUMPDEST PUSH2 0xC7C JUMP JUMPDEST PUSH1 0x40 MLOAD PUSH2 0x21E SWAP2 SWAP1 PUSH2 0x24CC JUMP JUMPDEST PUSH1 0x40 MLOAD DUP1 SWAP2 SUB SWAP1 RETURN JUMPDEST PUSH2 0x241 PUSH1 0x4 DUP1 CALLDATASIZE SUB DUP2 ADD SWAP1 PUSH2 0x23C SWAP2 SWAP1 PUSH2 0x1D05 JUMP JUMPDEST PUSH2 0xE3A JUMP JUMPDEST PUSH1 0x40 MLOAD PUSH2 0x24E SWAP2 SWAP1 PUSH2 0x2661 JUMP JUMPDEST PUSH1 0x40 MLOAD DUP1 SWAP2 SUB SWAP1 RETURN JUMPDEST PUSH2 0x271 PUSH1 0x4 DUP1 CALLDATASIZE SUB DUP2 ADD SWAP1 PUSH2 0x26C SWAP2 SWAP1 PUSH2 0x2683 JUMP JUMPDEST PUSH2 0x11BF JUMP JUMPDEST STOP JUMPDEST PUSH2 0x28D PUSH1 0x4 DUP1 CALLDATASIZE SUB DUP2 ADD SWAP1 PUSH2 0x288 SWAP2 SWAP1 PUSH2 0x27B8 JUMP JUMPDEST PUSH2 0x1243 JUMP JUMPDEST PUSH1 0x40 MLOAD PUSH2 0x29C SWAP4 SWAP3 SWAP2 SWAP1 PUSH2 0x2871 JUMP JUMPDEST PUSH1 0x40 MLOAD DUP1 SWAP2 SUB SWAP1 RETURN JUMPDEST PUSH2 0x2BF PUSH1 0x4 DUP1 CALLDATASIZE SUB DUP2 ADD SWAP1 PUSH2 0x2BA SWAP2 SWAP1 PUSH2 0x1D05 JUMP JUMPDEST PUSH2 0x1459 JUMP JUMPDEST PUSH1 0x40 MLOAD PUSH2 0x2CC SWAP2 SWAP1 PUSH2 0x29DD JUMP JUMPDEST PUSH1 0x40 MLOAD DUP1 SWAP2 SUB SWAP1 RETURN JUMPDEST PUSH2 0x2EF PUSH1 0x4 DUP1 CALLDATASIZE SUB DUP2 ADD SWAP1 PUSH2 0x2EA SWAP2 SWAP1 PUSH2 0x29FF JUMP JUMPDEST PUSH2 0x1740 JUMP JUMPDEST STOP JUMPDEST PUSH1 0x1 PUSH1 0x0 CALLER PUSH20 0xFFFFFFFFFFFFFFFFFFFFFFFFFFFFFFFFFFFFFFFF AND PUSH20 0xFFFFFFFFFFFFFFFFFFFFFFFFFFFFFFFFFFFFFFFF AND DUP2 MSTORE PUSH1 0x20 ADD SWAP1 DUP2 MSTORE PUSH1 0x20 ADD PUSH1 0x0 KECCAK256 PUSH1 0x0 SWAP1 SLOAD SWAP1 PUSH2 0x100 EXP SWAP1 DIV PUSH1 0xFF AND PUSH2 0x37D JUMPI PUSH1 0x40 MLOAD PUSH32 0x8C379A000000000000000000000000000000000000000000000000000000000 DUP2 MSTORE PUSH1 0x4 ADD PUSH2 0x374 SWAP1 PUSH2 0x2B24 JUMP JUMPDEST PUSH1 0x40 MLOAD DUP1 SWAP2 SUB SWAP1 REVERT JUMPDEST DUP1 PUSH20 0xFFFFFFFFFFFFFFFFFFFFFFFFFFFFFFFFFFFFFFFF AND CALLER PUSH20 0xFFFFFFFFFFFFFFFFFFFFFFFFFFFFFFFFFFFFFFFF AND SUB PUSH2 0x3EB JUMPI PUSH1 0x40 MLOAD PUSH32 0x8C379A000000000000000000000000000000000000000000000000000000000 DUP2 MSTORE PUSH1 0x4 ADD PUSH2 0x3E2 SWAP1 PUSH2 0x2BB6 JUMP JUMPDEST PUSH1 0x40 MLOAD DUP1 SWAP2 SUB SWAP1 REVERT JUMPDEST PUSH1 0x0 PUSH1 0x1 PUSH1 0x0 DUP4 PUSH20 0xFFFFFFFFFFFFFFFFFFFFFFFFFFFFFFFFFFFFFFFF AND PUSH20 0xFFFFFFFFFFFFFFFFFFFFFFFFFFFFFFFFFFFFFFFF AND DUP2 MSTORE PUSH1 0x20 ADD SWAP1 DUP2 MSTORE PUSH1 0x20 ADD PUSH1 0x0 KECCAK256 PUSH1 0x0 PUSH2 0x100 EXP DUP2 SLOAD DUP2 PUSH1 0xFF MUL NOT AND SWAP1 DUP4 ISZERO ISZERO MUL OR SWAP1 SSTORE POP POP JUMP JUMPDEST PUSH1 0x0 DUP1 DUP10 PUSH1 0x40 MLOAD PUSH2 0x457 SWAP2 SWAP1 PUSH2 0x2C12 JUMP JUMPDEST SWAP1 DUP2 MSTORE PUSH1 0x20 ADD PUSH1 0x40 MLOAD DUP1 SWAP2 SUB SWAP1 KECCAK256 SWAP1 POP PUSH1 0x0 DUP2 PUSH1 0x7 ADD SLOAD SWAP1 POP PUSH1 0x40 MLOAD DUP1 PUSH1 0xE0 ADD PUSH1 0x40 MSTORE DUP1 DUP11 DUP2 MSTORE PUSH1 0x20 ADD DUP10 DUP2 MSTORE PUSH1 0x20 ADD DUP9 ISZERO ISZERO DUP2 MSTORE PUSH1 0x20 ADD DUP8 ISZERO ISZERO DUP2 MSTORE PUSH1 0x20 ADD DUP7 ISZERO ISZERO DUP2 MSTORE PUSH1 0x20 ADD DUP6 DUP2 MSTORE PUSH1 0x20 ADD DUP5 DUP2 MSTORE POP DUP3 PUSH1 0x6 ADD PUSH1 0x0 DUP4 DUP2 MSTORE PUSH1 0x20 ADD SWAP1 DUP2 MSTORE PUSH1 0x20 ADD PUSH1 0x0 KECCAK256 PUSH1 0x0 DUP3 ADD MLOAD DUP2 PUSH1 0x0 ADD SWAP1 DUP2 PUSH2 0x4D3 SWAP2 SWAP1 PUSH2 0x2E35 JUMP JUMPDEST POP PUSH1 0x20 DUP3 ADD MLOAD DUP2 PUSH1 0x1 ADD SWAP1 DUP2 PUSH2 0x4E9 SWAP2 SWAP1 PUSH2 0x2E35 JUMP JUMPDEST POP PUSH1 0x40 DUP3 ADD MLOAD DUP2 PUSH1 0x2 ADD PUSH1 0x0 PUSH2 0x100 EXP DUP2 SLOAD DUP2 PUSH1 0xFF MUL NOT AND SWAP1 DUP4 ISZERO ISZERO MUL OR SWAP1 SSTORE POP PUSH1 0x60 DUP3 ADD MLOAD DUP2 PUSH1 0x2 ADD PUSH1 0x1 PUSH2 0x100 EXP DUP2 SLOAD DUP2 PUSH1 0xFF MUL NOT AND SWAP1 DUP4 ISZERO ISZERO MUL OR SWAP1 SSTORE POP PUSH1 0x80 DUP3 ADD MLOAD DUP2 PUSH1 0x2 ADD PUSH1 0x2 PUSH2 0x100 EXP DUP2 SLOAD DUP2 PUSH1 0xFF MUL NOT AND SWAP1 DUP4 ISZERO ISZERO MUL OR SWAP1 SSTORE POP PUSH1 0xA0 DUP3 ADD MLOAD DUP2 PUSH1 0x3 ADD SWAP1 DUP2 PUSH2 0x55F SWAP2 SWAP1 PUSH2 0x2E35 JUMP JUMPDEST POP PUSH1 0xC0 DUP3 ADD MLOAD DUP2 PUSH1 0x4 ADD SWAP1 DUP2 PUSH2 0x575 SWAP2 SWAP1 PUSH2 0x2E35 JUMP JUMPDEST POP SWAP1 POP POP DUP2 PUSH1 0x7 ADD PUSH1 0x0 DUP2 SLOAD DUP1 SWAP3 SWAP2 SWAP1 PUSH2 0x58E SWAP1 PUSH2 0x2F36 JUMP JUMPDEST SWAP2 SWAP1 POP SSTORE POP POP POP POP POP POP POP POP POP POP POP JUMP JUMPDEST PUSH1 0x60 PUSH1 0x0 DUP1 DUP4 PUSH1 0x40 MLOAD PUSH2 0x5B2 SWAP2 SWAP1 PUSH2 0x2C12 JUMP JUMPDEST SWAP1 DUP2 MSTORE PUSH1 0x20 ADD PUSH1 0x40 MLOAD DUP1 SWAP2 SUB SWAP1 KECCAK256 SWAP1 POP PUSH1 0x0 DUP2 PUSH1 0xD ADD SLOAD SWAP1 POP PUSH1 0x0 DUP2 PUSH8 0xFFFFFFFFFFFFFFFF DUP2 GT ISZERO PUSH2 0x5E7 JUMPI PUSH2 0x5E6 PUSH2 0x1A60 JUMP JUMPDEST JUMPDEST PUSH1 0x40 MLOAD SWAP1 DUP1 DUP3 MSTORE DUP1 PUSH1 0x20 MUL PUSH1 0x20 ADD DUP3 ADD PUSH1 0x40 MSTORE DUP1 ISZERO PUSH2 0x620 JUMPI DUP2 PUSH1 0x20 ADD JUMPDEST PUSH2 0x60D PUSH2 0x17FA JUMP JUMPDEST DUP2 MSTORE PUSH1 0x20 ADD SWAP1 PUSH1 0x1 SWAP1 SUB SWAP1 DUP2 PUSH2 0x605 JUMPI SWAP1 POP JUMPDEST POP SWAP1 POP PUSH1 0x0 JUMPDEST DUP3 DUP2 LT ISZERO PUSH2 0x7A3 JUMPI DUP4 PUSH1 0xC ADD PUSH1 0x0 DUP3 DUP2 MSTORE PUSH1 0x20 ADD SWAP1 DUP2 MSTORE PUSH1 0x20 ADD PUSH1 0x0 KECCAK256 PUSH1 0x40 MLOAD DUP1 PUSH1 0x40 ADD PUSH1 0x40 MSTORE SWAP1 DUP2 PUSH1 0x0 DUP3 ADD DUP1 SLOAD PUSH2 0x65E SWAP1 PUSH2 0x2C58 JUMP JUMPDEST DUP1 PUSH1 0x1F ADD PUSH1 0x20 DUP1 SWAP2 DIV MUL PUSH1 0x20 ADD PUSH1 0x40 MLOAD SWAP1 DUP2 ADD PUSH1 0x40 MSTORE DUP1 SWAP3 SWAP2 SWAP1 DUP2 DUP2 MSTORE PUSH1 0x20 ADD DUP3 DUP1 SLOAD PUSH2 0x68A SWAP1 PUSH2 0x2C58 JUMP JUMPDEST DUP1 ISZERO PUSH2 0x6D7 JUMPI DUP1 PUSH1 0x1F LT PUSH2 0x6AC JUMPI PUSH2 0x100 DUP1 DUP4 SLOAD DIV MUL DUP4 MSTORE SWAP2 PUSH1 0x20 ADD SWAP2 PUSH2 0x6D7 JUMP JUMPDEST DUP3 ADD SWAP2 SWAP1 PUSH1 0x0 MSTORE PUSH1 0x20 PUSH1 0x0 KECCAK256 SWAP1 JUMPDEST DUP2 SLOAD DUP2 MSTORE SWAP1 PUSH1 0x1 ADD SWAP1 PUSH1 0x20 ADD DUP1 DUP4 GT PUSH2 0x6BA JUMPI DUP3 SWAP1 SUB PUSH1 0x1F AND DUP3 ADD SWAP2 JUMPDEST POP POP POP POP POP DUP2 MSTORE PUSH1 0x20 ADD PUSH1 0x1 DUP3 ADD DUP1 SLOAD PUSH2 0x6F0 SWAP1 PUSH2 0x2C58 JUMP JUMPDEST DUP1 PUSH1 0x1F ADD PUSH1 0x20 DUP1 SWAP2 DIV MUL PUSH1 0x20 ADD PUSH1 0x40 MLOAD SWAP1 DUP2 ADD PUSH1 0x40 MSTORE DUP1 SWAP3 SWAP2 SWAP1 DUP2 DUP2 MSTORE PUSH1 0x20 ADD DUP3 DUP1 SLOAD PUSH2 0x71C SWAP1 PUSH2 0x2C58 JUMP JUMPDEST DUP1 ISZERO PUSH2 0x769 JUMPI DUP1 PUSH1 0x1F LT PUSH2 0x73E JUMPI PUSH2 0x100 DUP1 DUP4 SLOAD DIV MUL DUP4 MSTORE SWAP2 PUSH1 0x20 ADD SWAP2 PUSH2 0x769 JUMP JUMPDEST DUP3 ADD SWAP2 SWAP1 PUSH1 0x0 MSTORE PUSH1 0x20 PUSH1 0x0 KECCAK256 SWAP1 JUMPDEST DUP2 SLOAD DUP2 MSTORE SWAP1 PUSH1 0x1 ADD SWAP1 PUSH1 0x20 ADD DUP1 DUP4 GT PUSH2 0x74C JUMPI DUP3 SWAP1 SUB PUSH1 0x1F AND DUP3 ADD SWAP2 JUMPDEST POP POP POP POP POP DUP2 MSTORE POP POP DUP3 DUP3 DUP2 MLOAD DUP2 LT PUSH2 0x785 JUMPI PUSH2 0x784 PUSH2 0x2F7E JUMP JUMPDEST JUMPDEST PUSH1 0x20 MUL PUSH1 0x20 ADD ADD DUP2 SWAP1 MSTORE POP DUP1 DUP1 PUSH2 0x79B SWAP1 PUSH2 0x2F36 JUMP JUMPDEST SWAP2 POP POP PUSH2 0x626 JUMP JUMPDEST POP DUP1 SWAP4 POP POP POP POP SWAP2 SWAP1 POP JUMP JUMPDEST PUSH1 0x0 DUP1 DUP5 PUSH1 0x40 MLOAD PUSH2 0x7C0 SWAP2 SWAP1 PUSH2 0x2C12 JUMP JUMPDEST SWAP1 DUP2 MSTORE PUSH1 0x20 ADD PUSH1 0x40 MLOAD DUP1 SWAP2 SUB SWAP1 KECCAK256 SWAP1 POP PUSH1 0x0 DUP2 PUSH1 0xD ADD SLOAD SWAP1 POP PUSH1 0x40 MLOAD DUP1 PUSH1 0x40 ADD PUSH1 0x40 MSTORE DUP1 DUP6 DUP2 MSTORE PUSH1 0x20 ADD DUP5 DUP2 MSTORE POP DUP3 PUSH1 0xC ADD PUSH1 0x0 DUP4 DUP2 MSTORE PUSH1 0x20 ADD SWAP1 DUP2 MSTORE PUSH1 0x20 ADD PUSH1 0x0 KECCAK256 PUSH1 0x0 DUP3 ADD MLOAD DUP2 PUSH1 0x0 ADD SWAP1 DUP2 PUSH2 0x818 SWAP2 SWAP1 PUSH2 0x2E35 JUMP JUMPDEST POP PUSH1 0x20 DUP3 ADD MLOAD DUP2 PUSH1 0x1 ADD SWAP1 DUP2 PUSH2 0x82E SWAP2 SWAP1 PUSH2 0x2E35 JUMP JUMPDEST POP SWAP1 POP POP DUP2 PUSH1 0xD ADD PUSH1 0x0 DUP2 SLOAD DUP1 SWAP3 SWAP2 SWAP1 PUSH2 0x847 SWAP1 PUSH2 0x2F36 JUMP JUMPDEST SWAP2 SWAP1 POP SSTORE POP POP POP POP POP POP JUMP JUMPDEST PUSH1 0x1 PUSH1 0x0 CALLER PUSH20 0xFFFFFFFFFFFFFFFFFFFFFFFFFFFFFFFFFFFFFFFF AND PUSH20 0xFFFFFFFFFFFFFFFFFFFFFFFFFFFFFFFFFFFFFFFF AND DUP2 MSTORE PUSH1 0x20 ADD SWAP1 DUP2 MSTORE PUSH1 0x20 ADD PUSH1 0x0 KECCAK256 PUSH1 0x0 SWAP1 SLOAD SWAP1 PUSH2 0x100 EXP SWAP1 DIV PUSH1 0xFF AND PUSH2 0x8DF JUMPI PUSH1 0x40 MLOAD PUSH32 0x8C379A000000000000000000000000000000000000000000000000000000000 DUP2 MSTORE PUSH1 0x4 ADD PUSH2 0x8D6 SWAP1 PUSH2 0x2B24 JUMP JUMPDEST PUSH1 0x40 MLOAD DUP1 SWAP2 SUB SWAP1 REVERT JUMPDEST PUSH1 0x1 DUP1 PUSH1 0x0 DUP4 PUSH20 0xFFFFFFFFFFFFFFFFFFFFFFFFFFFFFFFFFFFFFFFF AND PUSH20 0xFFFFFFFFFFFFFFFFFFFFFFFFFFFFFFFFFFFFFFFF AND DUP2 MSTORE PUSH1 0x20 ADD SWAP1 DUP2 MSTORE PUSH1 0x20 ADD PUSH1 0x0 KECCAK256 PUSH1 0x0 PUSH2 0x100 EXP DUP2 SLOAD DUP2 PUSH1 0xFF MUL NOT AND SWAP1 DUP4 ISZERO ISZERO MUL OR SWAP1 SSTORE POP POP JUMP JUMPDEST PUSH1 0x0 DUP1 DUP6 PUSH1 0x40 MLOAD PUSH2 0x94A SWAP2 SWAP1 PUSH2 0x2C12 JUMP JUMPDEST SWAP1 DUP2 MSTORE PUSH1 0x20 ADD PUSH1 0x40 MLOAD DUP1 SWAP2 SUB SWAP1 KECCAK256 SWAP1 POP PUSH1 0x40 MLOAD DUP1 PUSH1 0x60 ADD PUSH1 0x40 MSTORE DUP1 DUP6 DUP2 MSTORE PUSH1 0x20 ADD DUP5 DUP2 MSTORE PUSH1 0x20 ADD DUP4 DUP2 MSTORE POP DUP2 PUSH1 0x5 ADD DUP7 PUSH1 0x40 MLOAD PUSH2 0x987 SWAP2 SWAP1 PUSH2 0x2C12 JUMP JUMPDEST SWAP1 DUP2 MSTORE PUSH1 0x20 ADD PUSH1 0x40 MLOAD DUP1 SWAP2 SUB SWAP1 KECCAK256 PUSH1 0x0 DUP3 ADD MLOAD DUP2 PUSH1 0x0 ADD SWAP1 DUP1 MLOAD SWAP1 PUSH1 0x20 ADD SWAP1 PUSH2 0x9B1 SWAP3 SWAP2 SWAP1 PUSH2 0x1814 JUMP JUMPDEST POP PUSH1 0x20 DUP3 ADD MLOAD DUP2 PUSH1 0x1 ADD SWAP1 DUP1 MLOAD SWAP1 PUSH1 0x20 ADD SWAP1 PUSH2 0x9CE SWAP3 SWAP2 SWAP1 PUSH2 0x1814 JUMP JUMPDEST POP PUSH1 0x40 DUP3 ADD MLOAD DUP2 PUSH1 0x2 ADD SWAP1 DUP1 MLOAD SWAP1 PUSH1 0x20 ADD SWAP1 PUSH2 0x9EB SWAP3 SWAP2 SWAP1 PUSH2 0x1814 JUMP JUMPDEST POP SWAP1 POP POP POP POP POP POP POP JUMP JUMPDEST PUSH1 0x0 DUP1 DUP7 PUSH1 0x40 MLOAD PUSH2 0xA07 SWAP2 SWAP1 PUSH2 0x2C12 JUMP JUMPDEST SWAP1 DUP2 MSTORE PUSH1 0x20 ADD PUSH1 0x40 MLOAD DUP1 SWAP2 SUB SWAP1 KECCAK256 SWAP1 POP PUSH1 0x0 DUP2 PUSH1 0xB ADD SLOAD SWAP1 POP PUSH1 0x40 MLOAD DUP1 PUSH1 0x80 ADD PUSH1 0x40 MSTORE DUP1 DUP8 DUP2 MSTORE PUSH1 0x20 ADD DUP7 ISZERO ISZERO DUP2 MSTORE PUSH1 0x20 ADD DUP6 ISZERO ISZERO DUP2 MSTORE PUSH1 0x20 ADD DUP5 DUP2 MSTORE POP DUP3 PUSH1 0xA ADD PUSH1 0x0 DUP4 DUP2 MSTORE PUSH1 0x20 ADD SWAP1 DUP2 MSTORE PUSH1 0x20 ADD PUSH1 0x0 KECCAK256 PUSH1 0x0 DUP3 ADD MLOAD DUP2 PUSH1 0x0 ADD SWAP1 DUP2 PUSH2 0xA6F SWAP2 SWAP1 PUSH2 0x2E35 JUMP JUMPDEST POP PUSH1 0x20 DUP3 ADD MLOAD DUP2 PUSH1 0x1 ADD PUSH1 0x0 PUSH2 0x100 EXP DUP2 SLOAD DUP2 PUSH1 0xFF MUL NOT AND SWAP1 DUP4 ISZERO ISZERO MUL OR SWAP1 SSTORE POP PUSH1 0x40 DUP3 ADD MLOAD DUP2 PUSH1 0x1 ADD PUSH1 0x1 PUSH2 0x100 EXP DUP2 SLOAD DUP2 PUSH1 0xFF MUL NOT AND SWAP1 DUP4 ISZERO ISZERO MUL OR SWAP1 SSTORE POP PUSH1 0x60 DUP3 ADD MLOAD DUP2 PUSH1 0x2 ADD SSTORE SWAP1 POP POP DUP2 PUSH1 0xB ADD PUSH1 0x0 DUP2 SLOAD DUP1 SWAP3 SWAP2 SWAP1 PUSH2 0xAD2 SWAP1 PUSH2 0x2F36 JUMP JUMPDEST SWAP2 SWAP1 POP SSTORE POP POP POP POP POP POP POP POP JUMP JUMPDEST PUSH1 0x60 PUSH1 0x0 DUP1 DUP4 PUSH1 0x40 MLOAD PUSH2 0xAF3 SWAP2 SWAP1 PUSH2 0x2C12 JUMP JUMPDEST SWAP1 DUP2 MSTORE PUSH1 0x20 ADD PUSH1 0x40 MLOAD DUP1 SWAP2 SUB SWAP1 KECCAK256 SWAP1 POP PUSH1 0x0 DUP2 PUSH1 0x9 ADD SLOAD SWAP1 POP PUSH1 0x0 DUP2 PUSH8 0xFFFFFFFFFFFFFFFF DUP2 GT ISZERO PUSH2 0xB28 JUMPI PUSH2 0xB27 PUSH2 0x1A60 JUMP JUMPDEST JUMPDEST PUSH1 0x40 MLOAD SWAP1 DUP1 DUP3 MSTORE DUP1 PUSH1 0x20 MUL PUSH1 0x20 ADD DUP3 ADD PUSH1 0x40 MSTORE DUP1 ISZERO PUSH2 0xB61 JUMPI DUP2 PUSH1 0x20 ADD JUMPDEST PUSH2 0xB4E PUSH2 0x186D JUMP JUMPDEST DUP2 MSTORE PUSH1 0x20 ADD SWAP1 PUSH1 0x1 SWAP1 SUB SWAP1 DUP2 PUSH2 0xB46 JUMPI SWAP1 POP JUMPDEST POP SWAP1 POP PUSH1 0x0 JUMPDEST DUP3 DUP2 LT ISZERO PUSH2 0xC70 JUMPI DUP4 PUSH1 0x8 ADD PUSH1 0x0 DUP3 DUP2 MSTORE PUSH1 0x20 ADD SWAP1 DUP2 MSTORE PUSH1 0x20 ADD PUSH1 0x0 KECCAK256 PUSH1 0x40 MLOAD DUP1 PUSH1 0x80 ADD PUSH1 0x40 MSTORE SWAP1 DUP2 PUSH1 0x0 DUP3 ADD DUP1 SLOAD PUSH2 0xB9F SWAP1 PUSH2 0x2C58 JUMP JUMPDEST DUP1 PUSH1 0x1F ADD PUSH1 0x20 DUP1 SWAP2 DIV MUL PUSH1 0x20 ADD PUSH1 0x40 MLOAD SWAP1 DUP2 ADD PUSH1 0x40 MSTORE DUP1 SWAP3 SWAP2 SWAP1 DUP2 DUP2 MSTORE PUSH1 0x20 ADD DUP3 DUP1 SLOAD PUSH2 0xBCB SWAP1 PUSH2 0x2C58 JUMP JUMPDEST DUP1 ISZERO PUSH2 0xC18 JUMPI DUP1 PUSH1 0x1F LT PUSH2 0xBED JUMPI PUSH2 0x100 DUP1 DUP4 SLOAD DIV MUL DUP4 MSTORE SWAP2 PUSH1 0x20 ADD SWAP2 PUSH2 0xC18 JUMP JUMPDEST DUP3 ADD SWAP2 SWAP1 PUSH1 0x0 MSTORE PUSH1 0x20 PUSH1 0x0 KECCAK256 SWAP1 JUMPDEST DUP2 SLOAD DUP2 MSTORE SWAP1 PUSH1 0x1 ADD SWAP1 PUSH1 0x20 ADD DUP1 DUP4 GT PUSH2 0xBFB JUMPI DUP3 SWAP1 SUB PUSH1 0x1F AND DUP3 ADD SWAP2 JUMPDEST POP POP POP POP POP DUP2 MSTORE PUSH1 0x20 ADD PUSH1 0x1 DUP3 ADD SLOAD DUP2 MSTORE PUSH1 0x20 ADD PUSH1 0x2 DUP3 ADD SLOAD DUP2 MSTORE PUSH1 0x20 ADD PUSH1 0x3 DUP3 ADD SLOAD DUP2 MSTORE POP POP DUP3 DUP3 DUP2 MLOAD DUP2 LT PUSH2 0xC52 JUMPI PUSH2 0xC51 PUSH2 0x2F7E JUMP JUMPDEST JUMPDEST PUSH1 0x20 MUL PUSH1 0x20 ADD ADD DUP2 SWAP1 MSTORE POP DUP1 DUP1 PUSH2 0xC68 SWAP1 PUSH2 0x2F36 JUMP JUMPDEST SWAP2 POP POP PUSH2 0xB67 JUMP JUMPDEST POP DUP1 SWAP4 POP POP POP POP SWAP2 SWAP1 POP JUMP JUMPDEST PUSH1 0x60 PUSH1 0x0 DUP1 DUP4 PUSH1 0x40 MLOAD PUSH2 0xC8F SWAP2 SWAP1 PUSH2 0x2C12 JUMP JUMPDEST SWAP1 DUP2 MSTORE PUSH1 0x20 ADD PUSH1 0x40 MLOAD DUP1 SWAP2 SUB SWAP1 KECCAK256 SWAP1 POP PUSH1 0x0 DUP2 PUSH1 0xB ADD SLOAD SWAP1 POP PUSH1 0x0 DUP2 PUSH8 0xFFFFFFFFFFFFFFFF DUP2 GT ISZERO PUSH2 0xCC4 JUMPI PUSH2 0xCC3 PUSH2 0x1A60 JUMP JUMPDEST JUMPDEST PUSH1 0x40 MLOAD SWAP1 DUP1 DUP3 MSTORE DUP1 PUSH1 0x20 MUL PUSH1 0x20 ADD DUP3 ADD PUSH1 0x40 MSTORE DUP1 ISZERO PUSH2 0xCFD JUMPI DUP2 PUSH1 0x20 ADD JUMPDEST PUSH2 0xCEA PUSH2 0x1895 JUMP JUMPDEST DUP2 MSTORE PUSH1 0x20 ADD SWAP1 PUSH1 0x1 SWAP1 SUB SWAP1 DUP2 PUSH2 0xCE2 JUMPI SWAP1 POP JUMPDEST POP SWAP1 POP PUSH1 0x0 JUMPDEST DUP3 DUP2 LT ISZERO PUSH2 0xE2E JUMPI DUP4 PUSH1 0xA ADD PUSH1 0x0 DUP3 DUP2 MSTORE PUSH1 0x20 ADD SWAP1 DUP2 MSTORE PUSH1 0x20 ADD PUSH1 0x0 KECCAK256 PUSH1 0x40 MLOAD DUP1 PUSH1 0x80 ADD PUSH1 0x40 MSTORE SWAP1 DUP2 PUSH1 0x0 DUP3 ADD DUP1 SLOAD PUSH2 0xD3B SWAP1 PUSH2 0x2C58 JUMP JUMPDEST DUP1 PUSH1 0x1F ADD PUSH1 0x20 DUP1 SWAP2 DIV MUL PUSH1 0x20 ADD PUSH1 0x40 MLOAD SWAP1 DUP2 ADD PUSH1 0x40 MSTORE DUP1 SWAP3 SWAP2 SWAP1 DUP2 DUP2 MSTORE PUSH1 0x20 ADD DUP3 DUP1 SLOAD PUSH2 0xD67 SWAP1 PUSH2 0x2C58 JUMP JUMPDEST DUP1 ISZERO PUSH2 0xDB4 JUMPI DUP1 PUSH1 0x1F LT PUSH2 0xD89 JUMPI PUSH2 0x100 DUP1 DUP4 SLOAD DIV MUL DUP4 MSTORE SWAP2 PUSH1 0x20 ADD SWAP2 PUSH2 0xDB4 JUMP JUMPDEST DUP3 ADD SWAP2 SWAP1 PUSH1 0x0 MSTORE PUSH1 0x20 PUSH1 0x0 KECCAK256 SWAP1 JUMPDEST DUP2 SLOAD DUP2 MSTORE SWAP1 PUSH1 0x1 ADD SWAP1 PUSH1 0x20 ADD DUP1 DUP4 GT PUSH2 0xD97 JUMPI DUP3 SWAP1 SUB PUSH1 0x1F AND DUP3 ADD SWAP2 JUMPDEST POP POP POP POP POP DUP2 MSTORE PUSH1 0x20 ADD PUSH1 0x1 DUP3 ADD PUSH1 0x0 SWAP1 SLOAD SWAP1 PUSH2 0x100 EXP SWAP1 DIV PUSH1 0xFF AND ISZERO ISZERO ISZERO ISZERO DUP2 MSTORE PUSH1 0x20 ADD PUSH1 0x1 DUP3 ADD PUSH1 0x1 SWAP1 SLOAD SWAP1 PUSH2 0x100 EXP SWAP1 DIV PUSH1 0xFF AND ISZERO ISZERO ISZERO ISZERO DUP2 MSTORE PUSH1 0x20 ADD PUSH1 0x2 DUP3 ADD SLOAD DUP2 MSTORE POP POP DUP3 DUP3 DUP2 MLOAD DUP2 LT PUSH2 0xE10 JUMPI PUSH2 0xE0F PUSH2 0x2F7E JUMP JUMPDEST JUMPDEST PUSH1 0x20 MUL PUSH1 0x20 ADD ADD DUP2 SWAP1 MSTORE POP DUP1 DUP1 PUSH2 0xE26 SWAP1 PUSH2 0x2F36 JUMP JUMPDEST SWAP2 POP POP PUSH2 0xD03 JUMP JUMPDEST POP DUP1 SWAP4 POP POP POP POP SWAP2 SWAP1 POP JUMP JUMPDEST PUSH1 0x60 PUSH1 0x0 DUP1 DUP4 PUSH1 0x40 MLOAD PUSH2 0xE4D SWAP2 SWAP1 PUSH2 0x2C12 JUMP JUMPDEST SWAP1 DUP2 MSTORE PUSH1 0x20 ADD PUSH1 0x40 MLOAD DUP1 SWAP2 SUB SWAP1 KECCAK256 SWAP1 POP PUSH1 0x0 DUP2 PUSH1 0x7 ADD SLOAD SWAP1 POP PUSH1 0x0 DUP2 PUSH8 0xFFFFFFFFFFFFFFFF DUP2 GT ISZERO PUSH2 0xE82 JUMPI PUSH2 0xE81 PUSH2 0x1A60 JUMP JUMPDEST JUMPDEST PUSH1 0x40 MLOAD SWAP1 DUP1 DUP3 MSTORE DUP1 PUSH1 0x20 MUL PUSH1 0x20 ADD DUP3 ADD PUSH1 0x40 MSTORE DUP1 ISZERO PUSH2 0xEBB JUMPI DUP2 PUSH1 0x20 ADD JUMPDEST PUSH2 0xEA8 PUSH2 0x18C1 JUMP JUMPDEST DUP2 MSTORE PUSH1 0x20 ADD SWAP1 PUSH1 0x1 SWAP1 SUB SWAP1 DUP2 PUSH2 0xEA0 JUMPI SWAP1 POP JUMPDEST POP SWAP1 POP PUSH1 0x0 JUMPDEST DUP3 DUP2 LT ISZERO PUSH2 0x11B3 JUMPI DUP4 PUSH1 0x6 ADD PUSH1 0x0 DUP3 DUP2 MSTORE PUSH1 0x20 ADD SWAP1 DUP2 MSTORE PUSH1 0x20 ADD PUSH1 0x0 KECCAK256 PUSH1 0x40 MLOAD DUP1 PUSH1 0xE0 ADD PUSH1 0x40 MSTORE SWAP1 DUP2 PUSH1 0x0 DUP3 ADD DUP1 SLOAD PUSH2 0xEF9 SWAP1 PUSH2 0x2C58 JUMP JUMPDEST DUP1 PUSH1 0x1F ADD PUSH1 0x20 DUP1 SWAP2 DIV MUL PUSH1 0x20 ADD PUSH1 0x40 MLOAD SWAP1 DUP2 ADD PUSH1 0x40 MSTORE DUP1 SWAP3 SWAP2 SWAP1 DUP2 DUP2 MSTORE PUSH1 0x20 ADD DUP3 DUP1 SLOAD PUSH2 0xF25 SWAP1 PUSH2 0x2C58 JUMP JUMPDEST DUP1 ISZERO PUSH2 0xF72 JUMPI DUP1 PUSH1 0x1F LT PUSH2 0xF47 JUMPI PUSH2 0x100 DUP1 DUP4 SLOAD DIV MUL DUP4 MSTORE SWAP2 PUSH1 0x20 ADD SWAP2 PUSH2 0xF72 JUMP JUMPDEST DUP3 ADD SWAP2 SWAP1 PUSH1 0x0 MSTORE PUSH1 0x20 PUSH1 0x0 KECCAK256 SWAP1 JUMPDEST DUP2 SLOAD DUP2 MSTORE SWAP1 PUSH1 0x1 ADD SWAP1 PUSH1 0x20 ADD DUP1 DUP4 GT PUSH2 0xF55 JUMPI DUP3 SWAP1 SUB PUSH1 0x1F AND DUP3 ADD SWAP2 JUMPDEST POP POP POP POP POP DUP2 MSTORE PUSH1 0x20 ADD PUSH1 0x1 DUP3 ADD DUP1 SLOAD PUSH2 0xF8B SWAP1 PUSH2 0x2C58 JUMP JUMPDEST DUP1 PUSH1 0x1F ADD PUSH1 0x20 DUP1 SWAP2 DIV MUL PUSH1 0x20 ADD PUSH1 0x40 MLOAD SWAP1 DUP2 ADD PUSH1 0x40 MSTORE DUP1 SWAP3 SWAP2 SWAP1 DUP2 DUP2 MSTORE PUSH1 0x20 ADD DUP3 DUP1 SLOAD PUSH2 0xFB7 SWAP1 PUSH2 0x2C58 JUMP JUMPDEST DUP1 ISZERO PUSH2 0x1004 JUMPI DUP1 PUSH1 0x1F LT PUSH2 0xFD9 JUMPI PUSH2 0x100 DUP1 DUP4 SLOAD DIV MUL DUP4 MSTORE SWAP2 PUSH1 0x20 ADD SWAP2 PUSH2 0x1004 JUMP JUMPDEST DUP3 ADD SWAP2 SWAP1 PUSH1 0x0 MSTORE PUSH1 0x20 PUSH1 0x0 KECCAK256 SWAP1 JUMPDEST DUP2 SLOAD DUP2 MSTORE SWAP1 PUSH1 0x1 ADD SWAP1 PUSH1 0x20 ADD DUP1 DUP4 GT PUSH2 0xFE7 JUMPI DUP3 SWAP1 SUB PUSH1 0x1F AND DUP3 ADD SWAP2 JUMPDEST POP POP POP POP POP DUP2 MSTORE PUSH1 0x20 ADD PUSH1 0x2 DUP3 ADD PUSH1 0x0 SWAP1 SLOAD SWAP1 PUSH2 0x100 EXP SWAP1 DIV PUSH1 0xFF AND ISZERO ISZERO ISZERO ISZERO DUP2 MSTORE PUSH1 0x20 ADD PUSH1 0x2 DUP3 ADD PUSH1 0x1 SWAP1 SLOAD SWAP1 PUSH2 0x100 EXP SWAP1 DIV PUSH1 0xFF AND ISZERO ISZERO ISZERO ISZERO DUP2 MSTORE PUSH1 0x20 ADD PUSH1 0x2 DUP3 ADD PUSH1 0x2 SWAP1 SLOAD SWAP1 PUSH2 0x100 EXP SWAP1 DIV PUSH1 0xFF AND ISZERO ISZERO ISZERO ISZERO DUP2 MSTORE PUSH1 0x20 ADD PUSH1 0x3 DUP3 ADD DUP1 SLOAD PUSH2 0x106E SWAP1 PUSH2 0x2C58 JUMP JUMPDEST DUP1 PUSH1 0x1F ADD PUSH1 0x20 DUP1 SWAP2 DIV MUL PUSH1 0x20 ADD PUSH1 0x40 MLOAD SWAP1 DUP2 ADD PUSH1 0x40 MSTORE DUP1 SWAP3 SWAP2 SWAP1 DUP2 DUP2 MSTORE PUSH1 0x20 ADD DUP3 DUP1 SLOAD PUSH2 0x109A SWAP1 PUSH2 0x2C58 JUMP JUMPDEST DUP1 ISZERO PUSH2 0x10E7 JUMPI DUP1 PUSH1 0x1F LT PUSH2 0x10BC JUMPI PUSH2 0x100 DUP1 DUP4 SLOAD DIV MUL DUP4 MSTORE SWAP2 PUSH1 0x20 ADD SWAP2 PUSH2 0x10E7 JUMP JUMPDEST DUP3 ADD SWAP2 SWAP1 PUSH1 0x0 MSTORE PUSH1 0x20 PUSH1 0x0 KECCAK256 SWAP1 JUMPDEST DUP2 SLOAD DUP2 MSTORE SWAP1 PUSH1 0x1 ADD SWAP1 PUSH1 0x20 ADD DUP1 DUP4 GT PUSH2 0x10CA JUMPI DUP3 SWAP1 SUB PUSH1 0x1F AND DUP3 ADD SWAP2 JUMPDEST POP POP POP POP POP DUP2 MSTORE PUSH1 0x20 ADD PUSH1 0x4 DUP3 ADD DUP1 SLOAD PUSH2 0x1100 SWAP1 PUSH2 0x2C58 JUMP JUMPDEST DUP1 PUSH1 0x1F ADD PUSH1 0x20 DUP1 SWAP2 DIV MUL PUSH1 0x20 ADD PUSH1 0x40 MLOAD SWAP1 DUP2 ADD PUSH1 0x40 MSTORE DUP1 SWAP3 SWAP2 SWAP1 DUP2 DUP2 MSTORE PUSH1 0x20 ADD DUP3 DUP1 SLOAD PUSH2 0x112C SWAP1 PUSH2 0x2C58 JUMP JUMPDEST DUP1 ISZERO PUSH2 0x1179 JUMPI DUP1 PUSH1 0x1F LT PUSH2 0x114E JUMPI PUSH2 0x100 DUP1 DUP4 SLOAD DIV MUL DUP4 MSTORE SWAP2 PUSH1 0x20 ADD SWAP2 PUSH2 0x1179 JUMP JUMPDEST DUP3 ADD SWAP2 SWAP1 PUSH1 0x0 MSTORE PUSH1 0x20 PUSH1 0x0 KECCAK256 SWAP1 JUMPDEST DUP2 SLOAD DUP2 MSTORE SWAP1 PUSH1 0x1 ADD SWAP1 PUSH1 0x20 ADD DUP1 DUP4 GT PUSH2 0x115C JUMPI DUP3 SWAP1 SUB PUSH1 0x1F AND DUP3 ADD SWAP2 JUMPDEST POP POP POP POP POP DUP2 MSTORE POP POP DUP3 DUP3 DUP2 MLOAD DUP2 LT PUSH2 0x1195 JUMPI PUSH2 0x1194 PUSH2 0x2F7E JUMP JUMPDEST JUMPDEST PUSH1 0x20 MUL PUSH1 0x20 ADD ADD DUP2 SWAP1 MSTORE POP DUP1 DUP1 PUSH2 0x11AB SWAP1 PUSH2 0x2F36 JUMP JUMPDEST SWAP2 POP POP PUSH2 0xEC1 JUMP JUMPDEST POP DUP1 SWAP4 POP POP POP POP SWAP2 SWAP1 POP JUMP JUMPDEST PUSH1 0x0 DUP1 DUP8 PUSH1 0x40 MLOAD PUSH2 0x11D0 SWAP2 SWAP1 PUSH2 0x2C12 JUMP JUMPDEST SWAP1 DUP2 MSTORE PUSH1 0x20 ADD PUSH1 0x40 MLOAD DUP1 SWAP2 SUB SWAP1 KECCAK256 SWAP1 POP DUP6 DUP2 PUSH1 0x0 ADD SWAP1 DUP2 PUSH2 0x11F1 SWAP2 SWAP1 PUSH2 0x2E35 JUMP JUMPDEST POP DUP5 DUP2 PUSH1 0x1 ADD SWAP1 DUP2 PUSH2 0x1203 SWAP2 SWAP1 PUSH2 0x2E35 JUMP JUMPDEST POP DUP4 DUP2 PUSH1 0x2 ADD SWAP1 DUP2 PUSH2 0x1215 SWAP2 SWAP1 PUSH2 0x2E35 JUMP JUMPDEST POP DUP3 DUP2 PUSH1 0x3 ADD SWAP1 DUP2 PUSH2 0x1227 SWAP2 SWAP1 PUSH2 0x2E35 JUMP JUMPDEST POP DUP2 DUP2 PUSH1 0x4 ADD SWAP1 DUP2 PUSH2 0x1239 SWAP2 SWAP1 PUSH2 0x2E35 JUMP JUMPDEST POP POP POP POP POP POP POP POP JUMP JUMPDEST PUSH1 0x60 DUP1 PUSH1 0x60 PUSH1 0x0 DUP1 DUP8 PUSH1 0x40 MLOAD PUSH2 0x1259 SWAP2 SWAP1 PUSH2 0x2C12 JUMP JUMPDEST SWAP1 DUP2 MSTORE PUSH1 0x20 ADD PUSH1 0x40 MLOAD DUP1 SWAP2 SUB SWAP1 KECCAK256 SWAP1 POP DUP1 PUSH1 0x0 ADD DUP6 PUSH2 0x1287 JUMPI PUSH1 0x40 MLOAD DUP1 PUSH1 0x20 ADD PUSH1 0x40 MSTORE DUP1 PUSH1 0x0 DUP2 MSTORE POP PUSH2 0x1315 JUMP JUMPDEST DUP2 PUSH1 0x3 ADD DUP1 SLOAD PUSH2 0x1296 SWAP1 PUSH2 0x2C58 JUMP JUMPDEST DUP1 PUSH1 0x1F ADD PUSH1 0x20 DUP1 SWAP2 DIV MUL PUSH1 0x20 ADD PUSH1 0x40 MLOAD SWAP1 DUP2 ADD PUSH1 0x40 MSTORE DUP1 SWAP3 SWAP2 SWAP1 DUP2 DUP2 MSTORE PUSH1 0x20 ADD DUP3 DUP1 SLOAD PUSH2 0x12C2 SWAP1 PUSH2 0x2C58 JUMP JUMPDEST DUP1 ISZERO PUSH2 0x130F JUMPI DUP1 PUSH1 0x1F LT PUSH2 0x12E4 JUMPI PUSH2 0x100 DUP1 DUP4 SLOAD DIV MUL DUP4 MSTORE SWAP2 PUSH1 0x20 ADD SWAP2 PUSH2 0x130F JUMP JUMPDEST DUP3 ADD SWAP2 SWAP1 PUSH1 0x0 MSTORE PUSH1 0x20 PUSH1 0x0 KECCAK256 SWAP1 JUMPDEST DUP2 SLOAD DUP2 MSTORE SWAP1 PUSH1 0x1 ADD SWAP1 PUSH1 0x20 ADD DUP1 DUP4 GT PUSH2 0x12F2 JUMPI DUP3 SWAP1 SUB PUSH1 0x1F AND DUP3 ADD SWAP2 JUMPDEST POP POP POP POP POP JUMPDEST DUP8 PUSH2 0x132F JUMPI PUSH1 0x40 MLOAD DUP1 PUSH1 0x20 ADD PUSH1 0x40 MSTORE DUP1 PUSH1 0x0 DUP2 MSTORE POP PUSH2 0x13BD JUMP JUMPDEST DUP3 PUSH1 0x4 ADD DUP1 SLOAD PUSH2 0x133E SWAP1 PUSH2 0x2C58 JUMP JUMPDEST DUP1 PUSH1 0x1F ADD PUSH1 0x20 DUP1 SWAP2 DIV MUL PUSH1 0x20 ADD PUSH1 0x40 MLOAD SWAP1 DUP2 ADD PUSH1 0x40 MSTORE DUP1 SWAP3 SWAP2 SWAP1 DUP2 DUP2 MSTORE PUSH1 0x20 ADD DUP3 DUP1 SLOAD PUSH2 0x136A SWAP1 PUSH2 0x2C58 JUMP JUMPDEST DUP1 ISZERO PUSH2 0x13B7 JUMPI DUP1 PUSH1 0x1F LT PUSH2 0x138C JUMPI PUSH2 0x100 DUP1 DUP4 SLOAD DIV MUL DUP4 MSTORE SWAP2 PUSH1 0x20 ADD SWAP2 PUSH2 0x13B7 JUMP JUMPDEST DUP3 ADD SWAP2 SWAP1 PUSH1 0x0 MSTORE PUSH1 0x20 PUSH1 0x0 KECCAK256 SWAP1 JUMPDEST DUP2 SLOAD DUP2 MSTORE SWAP1 PUSH1 0x1 ADD SWAP1 PUSH1 0x20 ADD DUP1 DUP4 GT PUSH2 0x139A JUMPI DUP3 SWAP1 SUB PUSH1 0x1F AND DUP3 ADD SWAP2 JUMPDEST POP POP POP POP POP JUMPDEST DUP3 DUP1 SLOAD PUSH2 0x13C9 SWAP1 PUSH2 0x2C58 JUMP JUMPDEST DUP1 PUSH1 0x1F ADD PUSH1 0x20 DUP1 SWAP2 DIV MUL PUSH1 0x20 ADD PUSH1 0x40 MLOAD SWAP1 DUP2 ADD PUSH1 0x40 MSTORE DUP1 SWAP3 SWAP2 SWAP1 DUP2 DUP2 MSTORE PUSH1 0x20 ADD DUP3 DUP1 SLOAD PUSH2 0x13F5 SWAP1 PUSH2 0x2C58 JUMP JUMPDEST DUP1 ISZERO PUSH2 0x1442 JUMPI DUP1 PUSH1 0x1F LT PUSH2 0x1417 JUMPI PUSH2 0x100 DUP1 DUP4 SLOAD DIV MUL DUP4 MSTORE SWAP2 PUSH1 0x20 ADD SWAP2 PUSH2 0x1442 JUMP JUMPDEST DUP3 ADD SWAP2 SWAP1 PUSH1 0x0 MSTORE PUSH1 0x20 PUSH1 0x0 KECCAK256 SWAP1 JUMPDEST DUP2 SLOAD DUP2 MSTORE SWAP1 PUSH1 0x1 ADD SWAP1 PUSH1 0x20 ADD DUP1 DUP4 GT PUSH2 0x1425 JUMPI DUP3 SWAP1 SUB PUSH1 0x1F AND DUP3 ADD SWAP2 JUMPDEST POP POP POP POP POP SWAP3 POP SWAP4 POP SWAP4 POP SWAP4 POP POP SWAP4 POP SWAP4 POP SWAP4 SWAP1 POP JUMP JUMPDEST PUSH2 0x1461 PUSH2 0x1904 JUMP JUMPDEST PUSH1 0x0 DUP1 DUP4 PUSH1 0x40 MLOAD PUSH2 0x1472 SWAP2 SWAP1 PUSH2 0x2C12 JUMP JUMPDEST SWAP1 DUP2 MSTORE PUSH1 0x20 ADD PUSH1 0x40 MLOAD DUP1 SWAP2 SUB SWAP1 KECCAK256 SWAP1 POP DUP1 PUSH1 0x5 ADD DUP4 PUSH1 0x40 MLOAD PUSH2 0x1494 SWAP2 SWAP1 PUSH2 0x2C12 JUMP JUMPDEST SWAP1 DUP2 MSTORE PUSH1 0x20 ADD PUSH1 0x40 MLOAD DUP1 SWAP2 SUB SWAP1 KECCAK256 PUSH1 0x40 MLOAD DUP1 PUSH1 0x60 ADD PUSH1 0x40 MSTORE SWAP1 DUP2 PUSH1 0x0 DUP3 ADD DUP1 SLOAD DUP1 PUSH1 0x20 MUL PUSH1 0x20 ADD PUSH1 0x40 MLOAD SWAP1 DUP2 ADD PUSH1 0x40 MSTORE DUP1 SWAP3 SWAP2 SWAP1 DUP2 DUP2 MSTORE PUSH1 0x20 ADD PUSH1 0x0 SWAP1 JUMPDEST DUP3 DUP3 LT ISZERO PUSH2 0x157E JUMPI DUP4 DUP3 SWAP1 PUSH1 0x0 MSTORE PUSH1 0x20 PUSH1 0x0 KECCAK256 ADD DUP1 SLOAD PUSH2 0x14F1 SWAP1 PUSH2 0x2C58 JUMP JUMPDEST DUP1 PUSH1 0x1F ADD PUSH1 0x20 DUP1 SWAP2 DIV MUL PUSH1 0x20 ADD PUSH1 0x40 MLOAD SWAP1 DUP2 ADD PUSH1 0x40 MSTORE DUP1 SWAP3 SWAP2 SWAP1 DUP2 DUP2 MSTORE PUSH1 0x20 ADD DUP3 DUP1 SLOAD PUSH2 0x151D SWAP1 PUSH2 0x2C58 JUMP JUMPDEST DUP1 ISZERO PUSH2 0x156A JUMPI DUP1 PUSH1 0x1F LT PUSH2 0x153F JUMPI PUSH2 0x100 DUP1 DUP4 SLOAD DIV MUL DUP4 MSTORE SWAP2 PUSH1 0x20 ADD SWAP2 PUSH2 0x156A JUMP JUMPDEST DUP3 ADD SWAP2 SWAP1 PUSH1 0x0 MSTORE PUSH1 0x20 PUSH1 0x0 KECCAK256 SWAP1 JUMPDEST DUP2 SLOAD DUP2 MSTORE SWAP1 PUSH1 0x1 ADD SWAP1 PUSH1 0x20 ADD DUP1 DUP4 GT PUSH2 0x154D JUMPI DUP3 SWAP1 SUB PUSH1 0x1F AND DUP3 ADD SWAP2 JUMPDEST POP POP POP POP POP DUP2 MSTORE PUSH1 0x20 ADD SWAP1 PUSH1 0x1 ADD SWAP1 PUSH2 0x14D2 JUMP JUMPDEST POP POP POP POP DUP2 MSTORE PUSH1 0x20 ADD PUSH1 0x1 DUP3 ADD DUP1 SLOAD DUP1 PUSH1 0x20 MUL PUSH1 0x20 ADD PUSH1 0x40 MLOAD SWAP1 DUP2 ADD PUSH1 0x40 MSTORE DUP1 SWAP3 SWAP2 SWAP1 DUP2 DUP2 MSTORE PUSH1 0x20 ADD PUSH1 0x0 SWAP1 JUMPDEST DUP3 DUP3 LT ISZERO PUSH2 0x1657 JUMPI DUP4 DUP3 SWAP1 PUSH1 0x0 MSTORE PUSH1 0x20 PUSH1 0x0 KECCAK256 ADD DUP1 SLOAD PUSH2 0x15CA SWAP1 PUSH2 0x2C58 JUMP JUMPDEST DUP1 PUSH1 0x1F ADD PUSH1 0x20 DUP1 SWAP2 DIV MUL PUSH1 0x20 ADD PUSH1 0x40 MLOAD SWAP1 DUP2 ADD PUSH1 0x40 MSTORE DUP1 SWAP3 SWAP2 SWAP1 DUP2 DUP2 MSTORE PUSH1 0x20 ADD DUP3 DUP1 SLOAD PUSH2 0x15F6 SWAP1 PUSH2 0x2C58 JUMP JUMPDEST DUP1 ISZERO PUSH2 0x1643 JUMPI DUP1 PUSH1 0x1F LT PUSH2 0x1618 JUMPI PUSH2 0x100 DUP1 DUP4 SLOAD DIV MUL DUP4 MSTORE SWAP2 PUSH1 0x20 ADD SWAP2 PUSH2 0x1643 JUMP JUMPDEST DUP3 ADD SWAP2 SWAP1 PUSH1 0x0 MSTORE PUSH1 0x20 PUSH1 0x0 KECCAK256 SWAP1 JUMPDEST DUP2 SLOAD DUP2 MSTORE SWAP1 PUSH1 0x1 ADD SWAP1 PUSH1 0x20 ADD DUP1 DUP4 GT PUSH2 0x1626 JUMPI DUP3 SWAP1 SUB PUSH1 0x1F AND DUP3 ADD SWAP2 JUMPDEST POP POP POP POP POP DUP2 MSTORE PUSH1 0x20 ADD SWAP1 PUSH1 0x1 ADD SWAP1 PUSH2 0x15AB JUMP JUMPDEST POP POP POP POP DUP2 MSTORE PUSH1 0x20 ADD PUSH1 0x2 DUP3 ADD DUP1 SLOAD DUP1 PUSH1 0x20 MUL PUSH1 0x20 ADD PUSH1 0x40 MLOAD SWAP1 DUP2 ADD PUSH1 0x40 MSTORE DUP1 SWAP3 SWAP2 SWAP1 DUP2 DUP2 MSTORE PUSH1 0x20 ADD PUSH1 0x0 SWAP1 JUMPDEST DUP3 DUP3 LT ISZERO PUSH2 0x1730 JUMPI DUP4 DUP3 SWAP1 PUSH1 0x0 MSTORE PUSH1 0x20 PUSH1 0x0 KECCAK256 ADD DUP1 SLOAD PUSH2 0x16A3 SWAP1 PUSH2 0x2C58 JUMP JUMPDEST DUP1 PUSH1 0x1F ADD PUSH1 0x20 DUP1 SWAP2 DIV MUL PUSH1 0x20 ADD PUSH1 0x40 MLOAD SWAP1 DUP2 ADD PUSH1 0x40 MSTORE DUP1 SWAP3 SWAP2 SWAP1 DUP2 DUP2 MSTORE PUSH1 0x20 ADD DUP3 DUP1 SLOAD PUSH2 0x16CF SWAP1 PUSH2 0x2C58 JUMP JUMPDEST DUP1 ISZERO PUSH2 0x171C JUMPI DUP1 PUSH1 0x1F LT PUSH2 0x16F1 JUMPI PUSH2 0x100 DUP1 DUP4 SLOAD DIV MUL DUP4 MSTORE SWAP2 PUSH1 0x20 ADD SWAP2 PUSH2 0x171C JUMP JUMPDEST DUP3 ADD SWAP2 SWAP1 PUSH1 0x0 MSTORE PUSH1 0x20 PUSH1 0x0 KECCAK256 SWAP1 JUMPDEST DUP2 SLOAD DUP2 MSTORE SWAP1 PUSH1 0x1 ADD SWAP1 PUSH1 0x20 ADD DUP1 DUP4 GT PUSH2 0x16FF JUMPI DUP3 SWAP1 SUB PUSH1 0x1F AND DUP3 ADD SWAP2 JUMPDEST POP POP POP POP POP DUP2 MSTORE PUSH1 0x20 ADD SWAP1 PUSH1 0x1 ADD SWAP1 PUSH2 0x1684 JUMP JUMPDEST POP POP POP POP DUP2 MSTORE POP POP SWAP2 POP POP SWAP2 SWAP1 POP JUMP JUMPDEST PUSH1 0x0 DUP1 DUP7 PUSH1 0x40 MLOAD PUSH2 0x1751 SWAP2 SWAP1 PUSH2 0x2C12 JUMP JUMPDEST SWAP1 DUP2 MSTORE PUSH1 0x20 ADD PUSH1 0x40 MLOAD DUP1 SWAP2 SUB SWAP1 KECCAK256 SWAP1 POP PUSH1 0x0 DUP2 PUSH1 0x9 ADD SLOAD SWAP1 POP PUSH1 0x40 MLOAD DUP1 PUSH1 0x80 ADD PUSH1 0x40 MSTORE DUP1 DUP8 DUP2 MSTORE PUSH1 0x20 ADD DUP7 DUP2 MSTORE PUSH1 0x20 ADD DUP6 DUP2 MSTORE PUSH1 0x20 ADD DUP5 DUP2 MSTORE POP DUP3 PUSH1 0x8 ADD PUSH1 0x0 DUP4 DUP2 MSTORE PUSH1 0x20 ADD SWAP1 DUP2 MSTORE PUSH1 0x20 ADD PUSH1 0x0 KECCAK256 PUSH1 0x0 DUP3 ADD MLOAD DUP2 PUSH1 0x0 ADD SWAP1 DUP2 PUSH2 0x17B5 SWAP2 SWAP1 PUSH2 0x2E35 JUMP JUMPDEST POP PUSH1 0x20 DUP3 ADD MLOAD DUP2 PUSH1 0x1 ADD SSTORE PUSH1 0x40 DUP3 ADD MLOAD DUP2 PUSH1 0x2 ADD SSTORE PUSH1 0x60 DUP3 ADD MLOAD DUP2 PUSH1 0x3 ADD SSTORE SWAP1 POP POP DUP2 PUSH1 0x9 ADD PUSH1 0x0 DUP2 SLOAD DUP1 SWAP3 SWAP2 SWAP1 PUSH2 0x17EC SWAP1 PUSH2 0x2F36 JUMP JUMPDEST SWAP2 SWAP1 POP SSTORE POP POP POP POP POP POP POP POP JUMP JUMPDEST PUSH1 0x40 MLOAD DUP1 PUSH1 0x40 ADD PUSH1 0x40 MSTORE DUP1 PUSH1 0x60 DUP2 MSTORE PUSH1 0x20 ADD PUSH1 0x60 DUP2 MSTORE POP SWAP1 JUMP JUMPDEST DUP3 DUP1 SLOAD DUP3 DUP3 SSTORE SWAP1 PUSH1 0x0 MSTORE PUSH1 0x20 PUSH1 0x0 KECCAK256 SWAP1 DUP2 ADD SWAP3 DUP3 ISZERO PUSH2 0x185C JUMPI SWAP2 PUSH1 0x20 MUL DUP3 ADD JUMPDEST DUP3 DUP2 GT ISZERO PUSH2 0x185B JUMPI DUP3 MLOAD DUP3 SWAP1 DUP2 PUSH2 0x184B SWAP2 SWAP1 PUSH2 0x2E35 JUMP JUMPDEST POP SWAP2 PUSH1 0x20 ADD SWAP2 SWAP1 PUSH1 0x1 ADD SWAP1 PUSH2 0x1834 JUMP JUMPDEST JUMPDEST POP SWAP1 POP PUSH2 0x1869 SWAP2 SWAP1 PUSH2 0x1925 JUMP JUMPDEST POP SWAP1 JUMP JUMPDEST PUSH1 0x40 MLOAD DUP1 PUSH1 0x80 ADD PUSH1 0x40 MSTORE DUP1 PUSH1 0x60 DUP2 MSTORE PUSH1 0x20 ADD PUSH1 0x0 DUP2 MSTORE PUSH1 0x20 ADD PUSH1 0x0 DUP2 MSTORE PUSH1 0x20 ADD PUSH1 0x0 DUP2 MSTORE POP SWAP1 JUMP JUMPDEST PUSH1 0x40 MLOAD DUP1 PUSH1 0x80 ADD PUSH1 0x40 MSTORE DUP1 PUSH1 0x60 DUP2 MSTORE PUSH1 0x20 ADD PUSH1 0x0 ISZERO ISZERO DUP2 MSTORE PUSH1 0x20 ADD PUSH1 0x0 ISZERO ISZERO DUP2 MSTORE PUSH1 0x20 ADD PUSH1 0x0 DUP2 MSTORE POP SWAP1 JUMP JUMPDEST PUSH1 0x40 MLOAD DUP1 PUSH1 0xE0 ADD PUSH1 0x40 MSTORE DUP1 PUSH1 0x60 DUP2 MSTORE PUSH1 0x20 ADD PUSH1 0x60 DUP2 MSTORE PUSH1 0x20 ADD PUSH1 0x0 ISZERO ISZERO DUP2 MSTORE PUSH1 0x20 ADD PUSH1 0x0 ISZERO ISZERO DUP2 MSTORE PUSH1 0x20 ADD PUSH1 0x0 ISZERO ISZERO DUP2 MSTORE PUSH1 0x20 ADD PUSH1 0x60 DUP2 MSTORE PUSH1 0x20 ADD PUSH1 0x60 DUP2 MSTORE POP SWAP1 JUMP JUMPDEST PUSH1 0x40 MLOAD DUP1 PUSH1 0x60 ADD PUSH1 0x40 MSTORE DUP1 PUSH1 0x60 DUP2 MSTORE PUSH1 0x20 ADD PUSH1 0x60 DUP2 MSTORE PUSH1 0x20 ADD PUSH1 0x60 DUP2 MSTORE POP SWAP1 JUMP JUMPDEST JUMPDEST DUP1 DUP3 GT ISZERO PUSH2 0x1945 JUMPI PUSH1 0x0 DUP2 DUP2 PUSH2 0x193C SWAP2 SWAP1 PUSH2 0x1949 JUMP JUMPDEST POP PUSH1 0x1 ADD PUSH2 0x1926 JUMP JUMPDEST POP SWAP1 JUMP JUMPDEST POP DUP1 SLOAD PUSH2 0x1955 SWAP1 PUSH2 0x2C58 JUMP JUMPDEST PUSH1 0x0 DUP3 SSTORE DUP1 PUSH1 0x1F LT PUSH2 0x1967 JUMPI POP PUSH2 0x1986 JUMP JUMPDEST PUSH1 0x1F ADD PUSH1 0x20 SWAP1 DIV SWAP1 PUSH1 0x0 MSTORE PUSH1 0x20 PUSH1 0x0 KECCAK256 SWAP1 DUP2 ADD SWAP1 PUSH2 0x1985 SWAP2 SWAP1 PUSH2 0x1989 JUMP JUMPDEST JUMPDEST POP JUMP JUMPDEST JUMPDEST DUP1 DUP3 GT ISZERO PUSH2 0x19A2 JUMPI PUSH1 0x0 DUP2 PUSH1 0x0 SWAP1 SSTORE POP PUSH1 0x1 ADD PUSH2 0x198A JUMP JUMPDEST POP SWAP1 JUMP JUMPDEST PUSH1 0x0 PUSH1 0x40 MLOAD SWAP1 POP SWAP1 JUMP JUMPDEST PUSH1 0x0 DUP1 REVERT JUMPDEST PUSH1 0x0 DUP1 REVERT JUMPDEST PUSH1 0x0 PUSH20 0xFFFFFFFFFFFFFFFFFFFFFFFFFFFFFFFFFFFFFFFF DUP3 AND SWAP1 POP SWAP2 SWAP1 POP JUMP JUMPDEST PUSH1 0x0 PUSH2 0x19E5 DUP3 PUSH2 0x19BA JUMP JUMPDEST SWAP1 POP SWAP2 SWAP1 POP JUMP JUMPDEST PUSH2 0x19F5 DUP2 PUSH2 0x19DA JUMP JUMPDEST DUP2 EQ PUSH2 0x1A00 JUMPI PUSH1 0x0 DUP1 REVERT JUMPDEST POP JUMP JUMPDEST PUSH1 0x0 DUP2 CALLDATALOAD SWAP1 POP PUSH2 0x1A12 DUP2 PUSH2 0x19EC JUMP JUMPDEST SWAP3 SWAP2 POP POP JUMP JUMPDEST PUSH1 0x0 PUSH1 0x20 DUP3 DUP5 SUB SLT ISZERO PUSH2 0x1A2E JUMPI PUSH2 0x1A2D PUSH2 0x19B0 JUMP JUMPDEST JUMPDEST PUSH1 0x0 PUSH2 0x1A3C DUP5 DUP3 DUP6 ADD PUSH2 0x1A03 JUMP JUMPDEST SWAP2 POP POP SWAP3 SWAP2 POP POP JUMP JUMPDEST PUSH1 0x0 DUP1 REVERT JUMPDEST PUSH1 0x0 DUP1 REVERT JUMPDEST PUSH1 0x0 PUSH1 0x1F NOT PUSH1 0x1F DUP4 ADD AND SWAP1 POP SWAP2 SWAP1 POP JUMP JUMPDEST PUSH32 0x4E487B7100000000000000000000000000000000000000000000000000000000 PUSH1 0x0 MSTORE PUSH1 0x41 PUSH1 0x4 MSTORE PUSH1 0x24 PUSH1 0x0 REVERT JUMPDEST PUSH2 0x1A98 DUP3 PUSH2 0x1A4F JUMP JUMPDEST DUP2 ADD DUP2 DUP2 LT PUSH8 0xFFFFFFFFFFFFFFFF DUP3 GT OR ISZERO PUSH2 0x1AB7 JUMPI PUSH2 0x1AB6 PUSH2 0x1A60 JUMP JUMPDEST JUMPDEST DUP1 PUSH1 0x40 MSTORE POP POP POP JUMP JUMPDEST PUSH1 0x0 PUSH2 0x1ACA PUSH2 0x19A6 JUMP JUMPDEST SWAP1 POP PUSH2 0x1AD6 DUP3 DUP3 PUSH2 0x1A8F JUMP JUMPDEST SWAP2 SWAP1 POP JUMP JUMPDEST PUSH1 0x0 PUSH8 0xFFFFFFFFFFFFFFFF DUP3 GT ISZERO PUSH2 0x1AF6 JUMPI PUSH2 0x1AF5 PUSH2 0x1A60 JUMP JUMPDEST JUMPDEST PUSH2 0x1AFF DUP3 PUSH2 0x1A4F JUMP JUMPDEST SWAP1 POP PUSH1 0x20 DUP2 ADD SWAP1 POP SWAP2 SWAP1 POP JUMP JUMPDEST DUP3 DUP2 DUP4 CALLDATACOPY PUSH1 0x0 DUP4 DUP4 ADD MSTORE POP POP POP JUMP JUMPDEST PUSH1 0x0 PUSH2 0x1B2E PUSH2 0x1B29 DUP5 PUSH2 0x1ADB JUMP JUMPDEST PUSH2 0x1AC0 JUMP JUMPDEST SWAP1 POP DUP3 DUP2 MSTORE PUSH1 0x20 DUP2 ADD DUP5 DUP5 DUP5 ADD GT ISZERO PUSH2 0x1B4A JUMPI PUSH2 0x1B49 PUSH2 0x1A4A JUMP JUMPDEST JUMPDEST PUSH2 0x1B55 DUP5 DUP3 DUP6 PUSH2 0x1B0C JUMP JUMPDEST POP SWAP4 SWAP3 POP POP POP JUMP JUMPDEST PUSH1 0x0 DUP3 PUSH1 0x1F DUP4 ADD SLT PUSH2 0x1B72 JUMPI PUSH2 0x1B71 PUSH2 0x1A45 JUMP JUMPDEST JUMPDEST DUP2 CALLDATALOAD PUSH2 0x1B82 DUP5 DUP3 PUSH1 0x20 DUP7 ADD PUSH2 0x1B1B JUMP JUMPDEST SWAP2 POP POP SWAP3 SWAP2 POP POP JUMP JUMPDEST PUSH1 0x0 DUP2 ISZERO ISZERO SWAP1 POP SWAP2 SWAP1 POP JUMP JUMPDEST PUSH2 0x1BA0 DUP2 PUSH2 0x1B8B JUMP JUMPDEST DUP2 EQ PUSH2 0x1BAB JUMPI PUSH1 0x0 DUP1 REVERT JUMPDEST POP JUMP JUMPDEST PUSH1 0x0 DUP2 CALLDATALOAD SWAP1 POP PUSH2 0x1BBD DUP2 PUSH2 0x1B97 JUMP JUMPDEST SWAP3 SWAP2 POP POP JUMP JUMPDEST PUSH1 0x0 DUP1 PUSH1 0x0 DUP1 PUSH1 0x0 DUP1 PUSH1 0x0 DUP1 PUSH2 0x100 DUP10 DUP12 SUB SLT ISZERO PUSH2 0x1BE4 JUMPI PUSH2 0x1BE3 PUSH2 0x19B0 JUMP JUMPDEST JUMPDEST PUSH1 0x0 DUP10 ADD CALLDATALOAD PUSH8 0xFFFFFFFFFFFFFFFF DUP2 GT ISZERO PUSH2 0x1C02 JUMPI PUSH2 0x1C01 PUSH2 0x19B5 JUMP JUMPDEST JUMPDEST PUSH2 0x1C0E DUP12 DUP3 DUP13 ADD PUSH2 0x1B5D JUMP JUMPDEST SWAP9 POP POP PUSH1 0x20 DUP10 ADD CALLDATALOAD PUSH8 0xFFFFFFFFFFFFFFFF DUP2 GT ISZERO PUSH2 0x1C2F JUMPI PUSH2 0x1C2E PUSH2 0x19B5 JUMP JUMPDEST JUMPDEST PUSH2 0x1C3B DUP12 DUP3 DUP13 ADD PUSH2 0x1B5D JUMP JUMPDEST SWAP8 POP POP PUSH1 0x40 DUP10 ADD CALLDATALOAD PUSH8 0xFFFFFFFFFFFFFFFF DUP2 GT ISZERO PUSH2 0x1C5C JUMPI PUSH2 0x1C5B PUSH2 0x19B5 JUMP JUMPDEST JUMPDEST PUSH2 0x1C68 DUP12 DUP3 DUP13 ADD PUSH2 0x1B5D JUMP JUMPDEST SWAP7 POP POP PUSH1 0x60 PUSH2 0x1C79 DUP12 DUP3 DUP13 ADD PUSH2 0x1BAE JUMP JUMPDEST SWAP6 POP POP PUSH1 0x80 PUSH2 0x1C8A DUP12 DUP3 DUP13 ADD PUSH2 0x1BAE JUMP JUMPDEST SWAP5 POP POP PUSH1 0xA0 PUSH2 0x1C9B DUP12 DUP3 DUP13 ADD PUSH2 0x1BAE JUMP JUMPDEST SWAP4 POP POP PUSH1 0xC0 DUP10 ADD CALLDATALOAD PUSH8 0xFFFFFFFFFFFFFFFF DUP2 GT ISZERO PUSH2 0x1CBC JUMPI PUSH2 0x1CBB PUSH2 0x19B5 JUMP JUMPDEST JUMPDEST PUSH2 0x1CC8 DUP12 DUP3 DUP13 ADD PUSH2 0x1B5D JUMP JUMPDEST SWAP3 POP POP PUSH1 0xE0 DUP10 ADD CALLDATALOAD PUSH8 0xFFFFFFFFFFFFFFFF DUP2 GT ISZERO PUSH2 0x1CE9 JUMPI PUSH2 0x1CE8 PUSH2 0x19B5 JUMP JUMPDEST JUMPDEST PUSH2 0x1CF5 DUP12 DUP3 DUP13 ADD PUSH2 0x1B5D JUMP JUMPDEST SWAP2 POP POP SWAP3 SWAP6 SWAP9 POP SWAP3 SWAP6 SWAP9 SWAP1 SWAP4 SWAP7 POP JUMP JUMPDEST PUSH1 0x0 PUSH1 0x20 DUP3 DUP5 SUB SLT ISZERO PUSH2 0x1D1B JUMPI PUSH2 0x1D1A PUSH2 0x19B0 JUMP JUMPDEST JUMPDEST PUSH1 0x0 DUP3 ADD CALLDATALOAD PUSH8 0xFFFFFFFFFFFFFFFF DUP2 GT ISZERO PUSH2 0x1D39 JUMPI PUSH2 0x1D38 PUSH2 0x19B5 JUMP JUMPDEST JUMPDEST PUSH2 0x1D45 DUP5 DUP3 DUP6 ADD PUSH2 0x1B5D JUMP JUMPDEST SWAP2 POP POP SWAP3 SWAP2 POP POP JUMP JUMPDEST PUSH1 0x0 DUP2 MLOAD SWAP1 POP SWAP2 SWAP1 POP JUMP JUMPDEST PUSH1 0x0 DUP3 DUP3 MSTORE PUSH1 0x20 DUP3 ADD SWAP1 POP SWAP3 SWAP2 POP POP JUMP JUMPDEST PUSH1 0x0 DUP2 SWAP1 POP PUSH1 0x20 DUP3 ADD SWAP1 POP SWAP2 SWAP1 POP JUMP JUMPDEST PUSH1 0x0 DUP2 MLOAD SWAP1 POP SWAP2 SWAP1 POP JUMP JUMPDEST PUSH1 0x0 DUP3 DUP3 MSTORE PUSH1 0x20 DUP3 ADD SWAP1 POP SWAP3 SWAP2 POP POP JUMP JUMPDEST PUSH1 0x0 JUMPDEST DUP4 DUP2 LT ISZERO PUSH2 0x1DB4 JUMPI DUP1 DUP3 ADD MLOAD DUP2 DUP5 ADD MSTORE PUSH1 0x20 DUP2 ADD SWAP1 POP PUSH2 0x1D99 JUMP JUMPDEST PUSH1 0x0 DUP5 DUP5 ADD MSTORE POP POP POP POP JUMP JUMPDEST PUSH1 0x0 PUSH2 0x1DCB DUP3 PUSH2 0x1D7A JUMP JUMPDEST PUSH2 0x1DD5 DUP2 DUP6 PUSH2 0x1D85 JUMP JUMPDEST SWAP4 POP PUSH2 0x1DE5 DUP2 DUP6 PUSH1 0x20 DUP7 ADD PUSH2 0x1D96 JUMP JUMPDEST PUSH2 0x1DEE DUP2 PUSH2 0x1A4F JUMP JUMPDEST DUP5 ADD SWAP2 POP POP SWAP3 SWAP2 POP POP JUMP JUMPDEST PUSH1 0x0 PUSH1 0x40 DUP4 ADD PUSH1 0x0 DUP4 ADD MLOAD DUP5 DUP3 SUB PUSH1 0x0 DUP7 ADD MSTORE PUSH2 0x1E16 DUP3 DUP3 PUSH2 0x1DC0 JUMP JUMPDEST SWAP2 POP POP PUSH1 0x20 DUP4 ADD MLOAD DUP5 DUP3 SUB PUSH1 0x20 DUP7 ADD MSTORE PUSH2 0x1E30 DUP3 DUP3 PUSH2 0x1DC0 JUMP JUMPDEST SWAP2 POP POP DUP1 SWAP2 POP POP SWAP3 SWAP2 POP POP JUMP JUMPDEST PUSH1 0x0 PUSH2 0x1E49 DUP4 DUP4 PUSH2 0x1DF9 JUMP JUMPDEST SWAP1 POP SWAP3 SWAP2 POP POP JUMP JUMPDEST PUSH1 0x0 PUSH1 0x20 DUP3 ADD SWAP1 POP SWAP2 SWAP1 POP JUMP JUMPDEST PUSH1 0x0 PUSH2 0x1E69 DUP3 PUSH2 0x1D4E JUMP JUMPDEST PUSH2 0x1E73 DUP2 DUP6 PUSH2 0x1D59 JUMP JUMPDEST SWAP4 POP DUP4 PUSH1 0x20 DUP3 MUL DUP6 ADD PUSH2 0x1E85 DUP6 PUSH2 0x1D6A JUMP JUMPDEST DUP1 PUSH1 0x0 JUMPDEST DUP6 DUP2 LT ISZERO PUSH2 0x1EC1 JUMPI DUP5 DUP5 SUB DUP10 MSTORE DUP2 MLOAD PUSH2 0x1EA2 DUP6 DUP3 PUSH2 0x1E3D JUMP JUMPDEST SWAP5 POP PUSH2 0x1EAD DUP4 PUSH2 0x1E51 JUMP JUMPDEST SWAP3 POP PUSH1 0x20 DUP11 ADD SWAP10 POP POP PUSH1 0x1 DUP2 ADD SWAP1 POP PUSH2 0x1E89 JUMP JUMPDEST POP DUP3 SWAP8 POP DUP8 SWAP6 POP POP POP POP POP POP SWAP3 SWAP2 POP POP JUMP JUMPDEST PUSH1 0x0 PUSH1 0x20 DUP3 ADD SWAP1 POP DUP2 DUP2 SUB PUSH1 0x0 DUP4 ADD MSTORE PUSH2 0x1EED DUP2 DUP5 PUSH2 0x1E5E JUMP JUMPDEST SWAP1 POP SWAP3 SWAP2 POP POP JUMP JUMPDEST PUSH1 0x0 DUP1 PUSH1 0x0 PUSH1 0x60 DUP5 DUP7 SUB SLT ISZERO PUSH2 0x1F0E JUMPI PUSH2 0x1F0D PUSH2 0x19B0 JUMP JUMPDEST JUMPDEST PUSH1 0x0 DUP5 ADD CALLDATALOAD PUSH8 0xFFFFFFFFFFFFFFFF DUP2 GT ISZERO PUSH2 0x1F2C JUMPI PUSH2 0x1F2B PUSH2 0x19B5 JUMP JUMPDEST JUMPDEST PUSH2 0x1F38 DUP7 DUP3 DUP8 ADD PUSH2 0x1B5D JUMP JUMPDEST SWAP4 POP POP PUSH1 0x20 DUP5 ADD CALLDATALOAD PUSH8 0xFFFFFFFFFFFFFFFF DUP2 GT ISZERO PUSH2 0x1F59 JUMPI PUSH2 0x1F58 PUSH2 0x19B5 JUMP JUMPDEST JUMPDEST PUSH2 0x1F65 DUP7 DUP3 DUP8 ADD PUSH2 0x1B5D JUMP JUMPDEST SWAP3 POP POP PUSH1 0x40 DUP5 ADD CALLDATALOAD PUSH8 0xFFFFFFFFFFFFFFFF DUP2 GT ISZERO PUSH2 0x1F86 JUMPI PUSH2 0x1F85 PUSH2 0x19B5 JUMP JUMPDEST JUMPDEST PUSH2 0x1F92 DUP7 DUP3 DUP8 ADD PUSH2 0x1B5D JUMP JUMPDEST SWAP2 POP POP SWAP3 POP SWAP3 POP SWAP3 JUMP JUMPDEST PUSH1 0x0 PUSH8 0xFFFFFFFFFFFFFFFF DUP3 GT ISZERO PUSH2 0x1FB7 JUMPI PUSH2 0x1FB6 PUSH2 0x1A60 JUMP JUMPDEST JUMPDEST PUSH1 0x20 DUP3 MUL SWAP1 POP PUSH1 0x20 DUP2 ADD SWAP1 POP SWAP2 SWAP1 POP JUMP JUMPDEST PUSH1 0x0 DUP1 REVERT JUMPDEST PUSH1 0x0 PUSH2 0x1FE0 PUSH2 0x1FDB DUP5 PUSH2 0x1F9C JUMP JUMPDEST PUSH2 0x1AC0 JUMP JUMPDEST SWAP1 POP DUP1 DUP4 DUP3 MSTORE PUSH1 0x20 DUP3 ADD SWAP1 POP PUSH1 0x20 DUP5 MUL DUP4 ADD DUP6 DUP2 GT ISZERO PUSH2 0x2003 JUMPI PUSH2 0x2002 PUSH2 0x1FC8 JUMP JUMPDEST JUMPDEST DUP4 JUMPDEST DUP2 DUP2 LT ISZERO PUSH2 0x204A JUMPI DUP1 CALLDATALOAD PUSH8 0xFFFFFFFFFFFFFFFF DUP2 GT ISZERO PUSH2 0x2028 JUMPI PUSH2 0x2027 PUSH2 0x1A45 JUMP JUMPDEST JUMPDEST DUP1 DUP7 ADD PUSH2 0x2035 DUP10 DUP3 PUSH2 0x1B5D JUMP JUMPDEST DUP6 MSTORE PUSH1 0x20 DUP6 ADD SWAP5 POP POP POP PUSH1 0x20 DUP2 ADD SWAP1 POP PUSH2 0x2005 JUMP JUMPDEST POP POP POP SWAP4 SWAP3 POP POP POP JUMP JUMPDEST PUSH1 0x0 DUP3 PUSH1 0x1F DUP4 ADD SLT PUSH2 0x2069 JUMPI PUSH2 0x2068 PUSH2 0x1A45 JUMP JUMPDEST JUMPDEST DUP2 CALLDATALOAD PUSH2 0x2079 DUP5 DUP3 PUSH1 0x20 DUP7 ADD PUSH2 0x1FCD JUMP JUMPDEST SWAP2 POP POP SWAP3 SWAP2 POP POP JUMP JUMPDEST PUSH1 0x0 DUP1 PUSH1 0x0 DUP1 PUSH1 0x80 DUP6 DUP8 SUB SLT ISZERO PUSH2 0x209C JUMPI PUSH2 0x209B PUSH2 0x19B0 JUMP JUMPDEST JUMPDEST PUSH1 0x0 DUP6 ADD CALLDATALOAD PUSH8 0xFFFFFFFFFFFFFFFF DUP2 GT ISZERO PUSH2 0x20BA JUMPI PUSH2 0x20B9 PUSH2 0x19B5 JUMP JUMPDEST JUMPDEST PUSH2 0x20C6 DUP8 DUP3 DUP9 ADD PUSH2 0x1B5D JUMP JUMPDEST SWAP5 POP POP PUSH1 0x20 DUP6 ADD CALLDATALOAD PUSH8 0xFFFFFFFFFFFFFFFF DUP2 GT ISZERO PUSH2 0x20E7 JUMPI PUSH2 0x20E6 PUSH2 0x19B5 JUMP JUMPDEST JUMPDEST PUSH2 0x20F3 DUP8 DUP3 DUP9 ADD PUSH2 0x2054 JUMP JUMPDEST SWAP4 POP POP PUSH1 0x40 DUP6 ADD CALLDATALOAD PUSH8 0xFFFFFFFFFFFFFFFF DUP2 GT ISZERO PUSH2 0x2114 JUMPI PUSH2 0x2113 PUSH2 0x19B5 JUMP JUMPDEST JUMPDEST PUSH2 0x2120 DUP8 DUP3 DUP9 ADD PUSH2 0x2054 JUMP JUMPDEST SWAP3 POP POP PUSH1 0x60 DUP6 ADD CALLDATALOAD PUSH8 0xFFFFFFFFFFFFFFFF DUP2 GT ISZERO PUSH2 0x2141 JUMPI PUSH2 0x2140 PUSH2 0x19B5 JUMP JUMPDEST JUMPDEST PUSH2 0x214D DUP8 DUP3 DUP9 ADD PUSH2 0x2054 JUMP JUMPDEST SWAP2 POP POP SWAP3 SWAP6 SWAP2 SWAP5 POP SWAP3 POP JUMP JUMPDEST PUSH1 0x0 DUP2 SWAP1 POP SWAP2 SWAP1 POP JUMP JUMPDEST PUSH2 0x216C DUP2 PUSH2 0x2159 JUMP JUMPDEST DUP2 EQ PUSH2 0x2177 JUMPI PUSH1 0x0 DUP1 REVERT JUMPDEST POP JUMP JUMPDEST PUSH1 0x0 DUP2 CALLDATALOAD SWAP1 POP PUSH2 0x2189 DUP2 PUSH2 0x2163 JUMP JUMPDEST SWAP3 SWAP2 POP POP JUMP JUMPDEST PUSH1 0x0 DUP1 PUSH1 0x0 DUP1 PUSH1 0x0 PUSH1 0xA0 DUP7 DUP9 SUB SLT ISZERO PUSH2 0x21AB JUMPI PUSH2 0x21AA PUSH2 0x19B0 JUMP JUMPDEST JUMPDEST PUSH1 0x0 DUP7 ADD CALLDATALOAD PUSH8 0xFFFFFFFFFFFFFFFF DUP2 GT ISZERO PUSH2 0x21C9 JUMPI PUSH2 0x21C8 PUSH2 0x19B5 JUMP JUMPDEST JUMPDEST PUSH2 0x21D5 DUP9 DUP3 DUP10 ADD PUSH2 0x1B5D JUMP JUMPDEST SWAP6 POP POP PUSH1 0x20 DUP7 ADD CALLDATALOAD PUSH8 0xFFFFFFFFFFFFFFFF DUP2 GT ISZERO PUSH2 0x21F6 JUMPI PUSH2 0x21F5 PUSH2 0x19B5 JUMP JUMPDEST JUMPDEST PUSH2 0x2202 DUP9 DUP3 DUP10 ADD PUSH2 0x1B5D JUMP JUMPDEST SWAP5 POP POP PUSH1 0x40 PUSH2 0x2213 DUP9 DUP3 DUP10 ADD PUSH2 0x1BAE JUMP JUMPDEST SWAP4 POP POP PUSH1 0x60 PUSH2 0x2224 DUP9 DUP3 DUP10 ADD PUSH2 0x1BAE JUMP JUMPDEST SWAP3 POP POP PUSH1 0x80 PUSH2 0x2235 DUP9 DUP3 DUP10 ADD PUSH2 0x217A JUMP JUMPDEST SWAP2 POP POP SWAP3 SWAP6 POP SWAP3 SWAP6 SWAP1 SWAP4 POP JUMP JUMPDEST PUSH1 0x0 DUP2 MLOAD SWAP1 POP SWAP2 SWAP1 POP JUMP JUMPDEST PUSH1 0x0 DUP3 DUP3 MSTORE PUSH1 0x20 DUP3 ADD SWAP1 POP SWAP3 SWAP2 POP POP JUMP JUMPDEST PUSH1 0x0 DUP2 SWAP1 POP PUSH1 0x20 DUP3 ADD SWAP1 POP SWAP2 SWAP1 POP JUMP JUMPDEST PUSH2 0x2277 DUP2 PUSH2 0x2159 JUMP JUMPDEST DUP3 MSTORE POP POP JUMP JUMPDEST PUSH1 0x0 PUSH1 0x80 DUP4 ADD PUSH1 0x0 DUP4 ADD MLOAD DUP5 DUP3 SUB PUSH1 0x0 DUP7 ADD MSTORE PUSH2 0x229A DUP3 DUP3 PUSH2 0x1DC0 JUMP JUMPDEST SWAP2 POP POP PUSH1 0x20 DUP4 ADD MLOAD PUSH2 0x22AF PUSH1 0x20 DUP7 ADD DUP3 PUSH2 0x226E JUMP JUMPDEST POP PUSH1 0x40 DUP4 ADD MLOAD PUSH2 0x22C2 PUSH1 0x40 DUP7 ADD DUP3 PUSH2 0x226E JUMP JUMPDEST POP PUSH1 0x60 DUP4 ADD MLOAD PUSH2 0x22D5 PUSH1 0x60 DUP7 ADD DUP3 PUSH2 0x226E JUMP JUMPDEST POP DUP1 SWAP2 POP POP SWAP3 SWAP2 POP POP JUMP JUMPDEST PUSH1 0x0 PUSH2 0x22EC DUP4 DUP4 PUSH2 0x227D JUMP JUMPDEST SWAP1 POP SWAP3 SWAP2 POP POP JUMP JUMPDEST PUSH1 0x0 PUSH1 0x20 DUP3 ADD SWAP1 POP SWAP2 SWAP1 POP JUMP JUMPDEST PUSH1 0x0 PUSH2 0x230C DUP3 PUSH2 0x2242 JUMP JUMPDEST PUSH2 0x2316 DUP2 DUP6 PUSH2 0x224D JUMP JUMPDEST SWAP4 POP DUP4 PUSH1 0x20 DUP3 MUL DUP6 ADD PUSH2 0x2328 DUP6 PUSH2 0x225E JUMP JUMPDEST DUP1 PUSH1 0x0 JUMPDEST DUP6 DUP2 LT ISZERO PUSH2 0x2364 JUMPI DUP5 DUP5 SUB DUP10 MSTORE DUP2 MLOAD PUSH2 0x2345 DUP6 DUP3 PUSH2 0x22E0 JUMP JUMPDEST SWAP5 POP PUSH2 0x2350 DUP4 PUSH2 0x22F4 JUMP JUMPDEST SWAP3 POP PUSH1 0x20 DUP11 ADD SWAP10 POP POP PUSH1 0x1 DUP2 ADD SWAP1 POP PUSH2 0x232C JUMP JUMPDEST POP DUP3 SWAP8 POP DUP8 SWAP6 POP POP POP POP POP POP SWAP3 SWAP2 POP POP JUMP JUMPDEST PUSH1 0x0 PUSH1 0x20 DUP3 ADD SWAP1 POP DUP2 DUP2 SUB PUSH1 0x0 DUP4 ADD MSTORE PUSH2 0x2390 DUP2 DUP5 PUSH2 0x2301 JUMP JUMPDEST SWAP1 POP SWAP3 SWAP2 POP POP JUMP JUMPDEST PUSH1 0x0 DUP2 MLOAD SWAP1 POP SWAP2 SWAP1 POP JUMP JUMPDEST PUSH1 0x0 DUP3 DUP3 MSTORE PUSH1 0x20 DUP3 ADD SWAP1 POP SWAP3 SWAP2 POP POP JUMP JUMPDEST PUSH1 0x0 DUP2 SWAP1 POP PUSH1 0x20 DUP3 ADD SWAP1 POP SWAP2 SWAP1 POP JUMP JUMPDEST PUSH2 0x23CD DUP2 PUSH2 0x1B8B JUMP JUMPDEST DUP3 MSTORE POP POP JUMP JUMPDEST PUSH1 0x0 PUSH1 0x80 DUP4 ADD PUSH1 0x0 DUP4 ADD MLOAD DUP5 DUP3 SUB PUSH1 0x0 DUP7 ADD MSTORE PUSH2 0x23F0 DUP3 DUP3 PUSH2 0x1DC0 JUMP JUMPDEST SWAP2 POP POP PUSH1 0x20 DUP4 ADD MLOAD PUSH2 0x2405 PUSH1 0x20 DUP7 ADD DUP3 PUSH2 0x23C4 JUMP JUMPDEST POP PUSH1 0x40 DUP4 ADD MLOAD PUSH2 0x2418 PUSH1 0x40 DUP7 ADD DUP3 PUSH2 0x23C4 JUMP JUMPDEST POP PUSH1 0x60 DUP4 ADD MLOAD PUSH2 0x242B PUSH1 0x60 DUP7 ADD DUP3 PUSH2 0x226E JUMP JUMPDEST POP DUP1 SWAP2 POP POP SWAP3 SWAP2 POP POP JUMP JUMPDEST PUSH1 0x0 PUSH2 0x2442 DUP4 DUP4 PUSH2 0x23D3 JUMP JUMPDEST SWAP1 POP SWAP3 SWAP2 POP POP JUMP JUMPDEST PUSH1 0x0 PUSH1 0x20 DUP3 ADD SWAP1 POP SWAP2 SWAP1 POP JUMP JUMPDEST PUSH1 0x0 PUSH2 0x2462 DUP3 PUSH2 0x2398 JUMP JUMPDEST PUSH2 0x246C DUP2 DUP6 PUSH2 0x23A3 JUMP JUMPDEST SWAP4 POP DUP4 PUSH1 0x20 DUP3 MUL DUP6 ADD PUSH2 0x247E DUP6 PUSH2 0x23B4 JUMP JUMPDEST DUP1 PUSH1 0x0 JUMPDEST DUP6 DUP2 LT ISZERO PUSH2 0x24BA JUMPI DUP5 DUP5 SUB DUP10 MSTORE DUP2 MLOAD PUSH2 0x249B DUP6 DUP3 PUSH2 0x2436 JUMP JUMPDEST SWAP5 POP PUSH2 0x24A6 DUP4 PUSH2 0x244A JUMP JUMPDEST SWAP3 POP PUSH1 0x20 DUP11 ADD SWAP10 POP POP PUSH1 0x1 DUP2 ADD SWAP1 POP PUSH2 0x2482 JUMP JUMPDEST POP DUP3 SWAP8 POP DUP8 SWAP6 POP POP POP POP POP POP SWAP3 SWAP2 POP POP JUMP JUMPDEST PUSH1 0x0 PUSH1 0x20 DUP3 ADD SWAP1 POP DUP2 DUP2 SUB PUSH1 0x0 DUP4 ADD MSTORE PUSH2 0x24E6 DUP2 DUP5 PUSH2 0x2457 JUMP JUMPDEST SWAP1 POP SWAP3 SWAP2 POP POP JUMP JUMPDEST PUSH1 0x0 DUP2 MLOAD SWAP1 POP SWAP2 SWAP1 POP JUMP JUMPDEST PUSH1 0x0 DUP3 DUP3 MSTORE PUSH1 0x20 DUP3 ADD SWAP1 POP SWAP3 SWAP2 POP POP JUMP JUMPDEST PUSH1 0x0 DUP2 SWAP1 POP PUSH1 0x20 DUP3 ADD SWAP1 POP SWAP2 SWAP1 POP JUMP JUMPDEST PUSH1 0x0 PUSH1 0xE0 DUP4 ADD PUSH1 0x0 DUP4 ADD MLOAD DUP5 DUP3 SUB PUSH1 0x0 DUP7 ADD MSTORE PUSH2 0x2537 DUP3 DUP3 PUSH2 0x1DC0 JUMP JUMPDEST SWAP2 POP POP PUSH1 0x20 DUP4 ADD MLOAD DUP5 DUP3 SUB PUSH1 0x20 DUP7 ADD MSTORE PUSH2 0x2551 DUP3 DUP3 PUSH2 0x1DC0 JUMP JUMPDEST SWAP2 POP POP PUSH1 0x40 DUP4 ADD MLOAD PUSH2 0x2566 PUSH1 0x40 DUP7 ADD DUP3 PUSH2 0x23C4 JUMP JUMPDEST POP PUSH1 0x60 DUP4 ADD MLOAD PUSH2 0x2579 PUSH1 0x60 DUP7 ADD DUP3 PUSH2 0x23C4 JUMP JUMPDEST POP PUSH1 0x80 DUP4 ADD MLOAD PUSH2 0x258C PUSH1 0x80 DUP7 ADD DUP3 PUSH2 0x23C4 JUMP JUMPDEST POP PUSH1 0xA0 DUP4 ADD MLOAD DUP5 DUP3 SUB PUSH1 0xA0 DUP7 ADD MSTORE PUSH2 0x25A4 DUP3 DUP3 PUSH2 0x1DC0 JUMP JUMPDEST SWAP2 POP POP PUSH1 0xC0 DUP4 ADD MLOAD DUP5 DUP3 SUB PUSH1 0xC0 DUP7 ADD MSTORE PUSH2 0x25BE DUP3 DUP3 PUSH2 0x1DC0 JUMP JUMPDEST SWAP2 POP POP DUP1 SWAP2 POP POP SWAP3 SWAP2 POP POP JUMP JUMPDEST PUSH1 0x0 PUSH2 0x25D7 DUP4 DUP4 PUSH2 0x251A JUMP JUMPDEST SWAP1 POP SWAP3 SWAP2 POP POP JUMP JUMPDEST PUSH1 0x0 PUSH1 0x20 DUP3 ADD SWAP1 POP SWAP2 SWAP1 POP JUMP JUMPDEST PUSH1 0x0 PUSH2 0x25F7 DUP3 PUSH2 0x24EE JUMP JUMPDEST PUSH2 0x2601 DUP2 DUP6 PUSH2 0x24F9 JUMP JUMPDEST SWAP4 POP DUP4 PUSH1 0x20 DUP3 MUL DUP6 ADD PUSH2 0x2613 DUP6 PUSH2 0x250A JUMP JUMPDEST DUP1 PUSH1 0x0 JUMPDEST DUP6 DUP2 LT ISZERO PUSH2 0x264F JUMPI DUP5 DUP5 SUB DUP10 MSTORE DUP2 MLOAD PUSH2 0x2630 DUP6 DUP3 PUSH2 0x25CB JUMP JUMPDEST SWAP5 POP PUSH2 0x263B DUP4 PUSH2 0x25DF JUMP JUMPDEST SWAP3 POP PUSH1 0x20 DUP11 ADD SWAP10 POP POP PUSH1 0x1 DUP2 ADD SWAP1 POP PUSH2 0x2617 JUMP JUMPDEST POP DUP3 SWAP8 POP DUP8 SWAP6 POP POP POP POP POP POP SWAP3 SWAP2 POP POP JUMP JUMPDEST PUSH1 0x0 PUSH1 0x20 DUP3 ADD SWAP1 POP DUP2 DUP2 SUB PUSH1 0x0 DUP4 ADD MSTORE PUSH2 0x267B DUP2 DUP5 PUSH2 0x25EC JUMP JUMPDEST SWAP1 POP SWAP3 SWAP2 POP POP JUMP JUMPDEST PUSH1 0x0 DUP1 PUSH1 0x0 DUP1 PUSH1 0x0 DUP1 PUSH1 0xC0 DUP8 DUP10 SUB SLT ISZERO PUSH2 0x26A0 JUMPI PUSH2 0x269F PUSH2 0x19B0 JUMP JUMPDEST JUMPDEST PUSH1 0x0 DUP8 ADD CALLDATALOAD PUSH8 0xFFFFFFFFFFFFFFFF DUP2 GT ISZERO PUSH2 0x26BE JUMPI PUSH2 0x26BD PUSH2 0x19B5 JUMP JUMPDEST JUMPDEST PUSH2 0x26CA DUP10 DUP3 DUP11 ADD PUSH2 0x1B5D JUMP JUMPDEST SWAP7 POP POP PUSH1 0x20 DUP8 ADD CALLDATALOAD PUSH8 0xFFFFFFFFFFFFFFFF DUP2 GT ISZERO PUSH2 0x26EB JUMPI PUSH2 0x26EA PUSH2 0x19B5 JUMP JUMPDEST JUMPDEST PUSH2 0x26F7 DUP10 DUP3 DUP11 ADD PUSH2 0x1B5D JUMP JUMPDEST SWAP6 POP POP PUSH1 0x40 DUP8 ADD CALLDATALOAD PUSH8 0xFFFFFFFFFFFFFFFF DUP2 GT ISZERO PUSH2 0x2718 JUMPI PUSH2 0x2717 PUSH2 0x19B5 JUMP JUMPDEST JUMPDEST PUSH2 0x2724 DUP10 DUP3 DUP11 ADD PUSH2 0x1B5D JUMP JUMPDEST SWAP5 POP POP PUSH1 0x60 DUP8 ADD CALLDATALOAD PUSH8 0xFFFFFFFFFFFFFFFF DUP2 GT ISZERO PUSH2 0x2745 JUMPI PUSH2 0x2744 PUSH2 0x19B5 JUMP JUMPDEST JUMPDEST PUSH2 0x2751 DUP10 DUP3 DUP11 ADD PUSH2 0x1B5D JUMP JUMPDEST SWAP4 POP POP PUSH1 0x80 DUP8 ADD CALLDATALOAD PUSH8 0xFFFFFFFFFFFFFFFF DUP2 GT ISZERO PUSH2 0x2772 JUMPI PUSH2 0x2771 PUSH2 0x19B5 JUMP JUMPDEST JUMPDEST PUSH2 0x277E DUP10 DUP3 DUP11 ADD PUSH2 0x1B5D JUMP JUMPDEST SWAP3 POP POP PUSH1 0xA0 DUP8 ADD CALLDATALOAD PUSH8 0xFFFFFFFFFFFFFFFF DUP2 GT ISZERO PUSH2 0x279F JUMPI PUSH2 0x279E PUSH2 0x19B5 JUMP JUMPDEST JUMPDEST PUSH2 0x27AB DUP10 DUP3 DUP11 ADD PUSH2 0x1B5D JUMP JUMPDEST SWAP2 POP POP SWAP3 SWAP6 POP SWAP3 SWAP6 POP SWAP3 SWAP6 JUMP JUMPDEST PUSH1 0x0 DUP1 PUSH1 0x0 PUSH1 0x60 DUP5 DUP7 SUB SLT ISZERO PUSH2 0x27D1 JUMPI PUSH2 0x27D0 PUSH2 0x19B0 JUMP JUMPDEST JUMPDEST PUSH1 0x0 DUP5 ADD CALLDATALOAD PUSH8 0xFFFFFFFFFFFFFFFF DUP2 GT ISZERO PUSH2 0x27EF JUMPI PUSH2 0x27EE PUSH2 0x19B5 JUMP JUMPDEST JUMPDEST PUSH2 0x27FB DUP7 DUP3 DUP8 ADD PUSH2 0x1B5D JUMP JUMPDEST SWAP4 POP POP PUSH1 0x20 PUSH2 0x280C DUP7 DUP3 DUP8 ADD PUSH2 0x1BAE JUMP JUMPDEST SWAP3 POP POP PUSH1 0x40 PUSH2 0x281D DUP7 DUP3 DUP8 ADD PUSH2 0x1BAE JUMP JUMPDEST SWAP2 POP POP SWAP3 POP SWAP3 POP SWAP3 JUMP JUMPDEST PUSH1 0x0 DUP3 DUP3 MSTORE PUSH1 0x20 DUP3 ADD SWAP1 POP SWAP3 SWAP2 POP POP JUMP JUMPDEST PUSH1 0x0 PUSH2 0x2843 DUP3 PUSH2 0x1D7A JUMP JUMPDEST PUSH2 0x284D DUP2 DUP6 PUSH2 0x2827 JUMP JUMPDEST SWAP4 POP PUSH2 0x285D DUP2 DUP6 PUSH1 0x20 DUP7 ADD PUSH2 0x1D96 JUMP JUMPDEST PUSH2 0x2866 DUP2 PUSH2 0x1A4F JUMP JUMPDEST DUP5 ADD SWAP2 POP POP SWAP3 SWAP2 POP POP JUMP JUMPDEST PUSH1 0x0 PUSH1 0x60 DUP3 ADD SWAP1 POP DUP2 DUP2 SUB PUSH1 0x0 DUP4 ADD MSTORE PUSH2 0x288B DUP2 DUP7 PUSH2 0x2838 JUMP JUMPDEST SWAP1 POP DUP2 DUP2 SUB PUSH1 0x20 DUP4 ADD MSTORE PUSH2 0x289F DUP2 DUP6 PUSH2 0x2838 JUMP JUMPDEST SWAP1 POP DUP2 DUP2 SUB PUSH1 0x40 DUP4 ADD MSTORE PUSH2 0x28B3 DUP2 DUP5 PUSH2 0x2838 JUMP JUMPDEST SWAP1 POP SWAP5 SWAP4 POP POP POP POP JUMP JUMPDEST PUSH1 0x0 DUP2 MLOAD SWAP1 POP SWAP2 SWAP1 POP JUMP JUMPDEST PUSH1 0x0 DUP3 DUP3 MSTORE PUSH1 0x20 DUP3 ADD SWAP1 POP SWAP3 SWAP2 POP POP JUMP JUMPDEST PUSH1 0x0 DUP2 SWAP1 POP PUSH1 0x20 DUP3 ADD SWAP1 POP SWAP2 SWAP1 POP JUMP JUMPDEST PUSH1 0x0 PUSH2 0x28F5 DUP4 DUP4 PUSH2 0x1DC0 JUMP JUMPDEST SWAP1 POP SWAP3 SWAP2 POP POP JUMP JUMPDEST PUSH1 0x0 PUSH1 0x20 DUP3 ADD SWAP1 POP SWAP2 SWAP1 POP JUMP JUMPDEST PUSH1 0x0 PUSH2 0x2915 DUP3 PUSH2 0x28BD JUMP JUMPDEST PUSH2 0x291F DUP2 DUP6 PUSH2 0x28C8 JUMP JUMPDEST SWAP4 POP DUP4 PUSH1 0x20 DUP3 MUL DUP6 ADD PUSH2 0x2931 DUP6 PUSH2 0x28D9 JUMP JUMPDEST DUP1 PUSH1 0x0 JUMPDEST DUP6 DUP2 LT ISZERO PUSH2 0x296D JUMPI DUP5 DUP5 SUB DUP10 MSTORE DUP2 MLOAD PUSH2 0x294E DUP6 DUP3 PUSH2 0x28E9 JUMP JUMPDEST SWAP5 POP PUSH2 0x2959 DUP4 PUSH2 0x28FD JUMP JUMPDEST SWAP3 POP PUSH1 0x20 DUP11 ADD SWAP10 POP POP PUSH1 0x1 DUP2 ADD SWAP1 POP PUSH2 0x2935 JUMP JUMPDEST POP DUP3 SWAP8 POP DUP8 SWAP6 POP POP POP POP POP POP SWAP3 SWAP2 POP POP JUMP JUMPDEST PUSH1 0x0 PUSH1 0x60 DUP4 ADD PUSH1 0x0 DUP4 ADD MLOAD DUP5 DUP3 SUB PUSH1 0x0 DUP7 ADD MSTORE PUSH2 0x299C DUP3 DUP3 PUSH2 0x290A JUMP JUMPDEST SWAP2 POP POP PUSH1 0x20 DUP4 ADD MLOAD DUP5 DUP3 SUB PUSH1 0x20 DUP7 ADD MSTORE PUSH2 0x29B6 DUP3 DUP3 PUSH2 0x290A JUMP JUMPDEST SWAP2 POP POP PUSH1 0x40 DUP4 ADD MLOAD DUP5 DUP3 SUB PUSH1 0x40 DUP7 ADD MSTORE PUSH2 0x29D0 DUP3 DUP3 PUSH2 0x290A JUMP JUMPDEST SWAP2 POP POP DUP1 SWAP2 POP POP SWAP3 SWAP2 POP POP JUMP JUMPDEST PUSH1 0x0 PUSH1 0x20 DUP3 ADD SWAP1 POP DUP2 DUP2 SUB PUSH1 0x0 DUP4 ADD MSTORE PUSH2 0x29F7 DUP2 DUP5 PUSH2 0x297F JUMP JUMPDEST SWAP1 POP SWAP3 SWAP2 POP POP JUMP JUMPDEST PUSH1 0x0 DUP1 PUSH1 0x0 DUP1 PUSH1 0x0 PUSH1 0xA0 DUP7 DUP9 SUB SLT ISZERO PUSH2 0x2A1B JUMPI PUSH2 0x2A1A PUSH2 0x19B0 JUMP JUMPDEST JUMPDEST PUSH1 0x0 DUP7 ADD CALLDATALOAD PUSH8 0xFFFFFFFFFFFFFFFF DUP2 GT ISZERO PUSH2 0x2A39 JUMPI PUSH2 0x2A38 PUSH2 0x19B5 JUMP JUMPDEST JUMPDEST PUSH2 0x2A45 DUP9 DUP3 DUP10 ADD PUSH2 0x1B5D JUMP JUMPDEST SWAP6 POP POP PUSH1 0x20 DUP7 ADD CALLDATALOAD PUSH8 0xFFFFFFFFFFFFFFFF DUP2 GT ISZERO PUSH2 0x2A66 JUMPI PUSH2 0x2A65 PUSH2 0x19B5 JUMP JUMPDEST JUMPDEST PUSH2 0x2A72 DUP9 DUP3 DUP10 ADD PUSH2 0x1B5D JUMP JUMPDEST SWAP5 POP POP PUSH1 0x40 PUSH2 0x2A83 DUP9 DUP3 DUP10 ADD PUSH2 0x217A JUMP JUMPDEST SWAP4 POP POP PUSH1 0x60 PUSH2 0x2A94 DUP9 DUP3 DUP10 ADD PUSH2 0x217A JUMP JUMPDEST SWAP3 POP POP PUSH1 0x80 PUSH2 0x2AA5 DUP9 DUP3 DUP10 ADD PUSH2 0x217A JUMP JUMPDEST SWAP2 POP POP SWAP3 SWAP6 POP SWAP3 SWAP6 SWAP1 SWAP4 POP JUMP JUMPDEST PUSH32 0x4F6E6C7920617574686F72697A656420646F63746F72732063616E2061636365 PUSH1 0x0 DUP3 ADD MSTORE PUSH32 0x737320746869732066756E6374696F6E00000000000000000000000000000000 PUSH1 0x20 DUP3 ADD MSTORE POP JUMP JUMPDEST PUSH1 0x0 PUSH2 0x2B0E PUSH1 0x30 DUP4 PUSH2 0x2827 JUMP JUMPDEST SWAP2 POP PUSH2 0x2B19 DUP3 PUSH2 0x2AB2 JUMP JUMPDEST PUSH1 0x40 DUP3 ADD SWAP1 POP SWAP2 SWAP1 POP JUMP JUMPDEST PUSH1 0x0 PUSH1 0x20 DUP3 ADD SWAP1 POP DUP2 DUP2 SUB PUSH1 0x0 DUP4 ADD MSTORE PUSH2 0x2B3D DUP2 PUSH2 0x2B01 JUMP JUMPDEST SWAP1 POP SWAP2 SWAP1 POP JUMP JUMPDEST PUSH32 0x54686520636F6E7472616374206465706C6F7965722063616E6E6F7420726576 PUSH1 0x0 DUP3 ADD MSTORE PUSH32 0x6F6B65207468656D73656C766573000000000000000000000000000000000000 PUSH1 0x20 DUP3 ADD MSTORE POP JUMP JUMPDEST PUSH1 0x0 PUSH2 0x2BA0 PUSH1 0x2E DUP4 PUSH2 0x2827 JUMP JUMPDEST SWAP2 POP PUSH2 0x2BAB DUP3 PUSH2 0x2B44 JUMP JUMPDEST PUSH1 0x40 DUP3 ADD SWAP1 POP SWAP2 SWAP1 POP JUMP JUMPDEST PUSH1 0x0 PUSH1 0x20 DUP3 ADD SWAP1 POP DUP2 DUP2 SUB PUSH1 0x0 DUP4 ADD MSTORE PUSH2 0x2BCF DUP2 PUSH2 0x2B93 JUMP JUMPDEST SWAP1 POP SWAP2 SWAP1 POP JUMP JUMPDEST PUSH1 0x0 DUP2 SWAP1 POP SWAP3 SWAP2 POP POP JUMP JUMPDEST PUSH1 0x0 PUSH2 0x2BEC DUP3 PUSH2 0x1D7A JUMP JUMPDEST PUSH2 0x2BF6 DUP2 DUP6 PUSH2 0x2BD6 JUMP JUMPDEST SWAP4 POP PUSH2 0x2C06 DUP2 DUP6 PUSH1 0x20 DUP7 ADD PUSH2 0x1D96 JUMP JUMPDEST DUP1 DUP5 ADD SWAP2 POP POP SWAP3 SWAP2 POP POP JUMP JUMPDEST PUSH1 0x0 PUSH2 0x2C1E DUP3 DUP5 PUSH2 0x2BE1 JUMP JUMPDEST SWAP2 POP DUP2 SWAP1 POP SWAP3 SWAP2 POP POP JUMP JUMPDEST PUSH32 0x4E487B7100000000000000000000000000000000000000000000000000000000 PUSH1 0x0 MSTORE PUSH1 0x22 PUSH1 0x4 MSTORE PUSH1 0x24 PUSH1 0x0 REVERT JUMPDEST PUSH1 0x0 PUSH1 0x2 DUP3 DIV SWAP1 POP PUSH1 0x1 DUP3 AND DUP1 PUSH2 0x2C70 JUMPI PUSH1 0x7F DUP3 AND SWAP2 POP JUMPDEST PUSH1 0x20 DUP3 LT DUP2 SUB PUSH2 0x2C83 JUMPI PUSH2 0x2C82 PUSH2 0x2C29 JUMP JUMPDEST JUMPDEST POP SWAP2 SWAP1 POP JUMP JUMPDEST PUSH1 0x0 DUP2 SWAP1 POP DUP2 PUSH1 0x0 MSTORE PUSH1 0x20 PUSH1 0x0 KECCAK256 SWAP1 POP SWAP2 SWAP1 POP JUMP JUMPDEST PUSH1 0x0 PUSH1 0x20 PUSH1 0x1F DUP4 ADD DIV SWAP1 POP SWAP2 SWAP1 POP JUMP JUMPDEST PUSH1 0x0 DUP3 DUP3 SHL SWAP1 POP SWAP3 SWAP2 POP POP JUMP JUMPDEST PUSH1 0x0 PUSH1 0x8 DUP4 MUL PUSH2 0x2CEB PUSH32 0xFFFFFFFFFFFFFFFFFFFFFFFFFFFFFFFFFFFFFFFFFFFFFFFFFFFFFFFFFFFFFFFF DUP3 PUSH2 0x2CAE JUMP JUMPDEST PUSH2 0x2CF5 DUP7 DUP4 PUSH2 0x2CAE JUMP JUMPDEST SWAP6 POP DUP1 NOT DUP5 AND SWAP4 POP DUP1 DUP7 AND DUP5 OR SWAP3 POP POP POP SWAP4 SWAP3 POP POP POP JUMP JUMPDEST PUSH1 0x0 DUP2 SWAP1 POP SWAP2 SWAP1 POP JUMP JUMPDEST PUSH1 0x0 PUSH2 0x2D32 PUSH2 0x2D2D PUSH2 0x2D28 DUP5 PUSH2 0x2159 JUMP JUMPDEST PUSH2 0x2D0D JUMP JUMPDEST PUSH2 0x2159 JUMP JUMPDEST SWAP1 POP SWAP2 SWAP1 POP JUMP JUMPDEST PUSH1 0x0 DUP2 SWAP1 POP SWAP2 SWAP1 POP JUMP JUMPDEST PUSH2 0x2D4C DUP4 PUSH2 0x2D17 JUMP JUMPDEST PUSH2 0x2D60 PUSH2 0x2D58 DUP3 PUSH2 0x2D39 JUMP JUMPDEST DUP5 DUP5 SLOAD PUSH2 0x2CBB JUMP JUMPDEST DUP3 SSTORE POP POP POP POP JUMP JUMPDEST PUSH1 0x0 SWAP1 JUMP JUMPDEST PUSH2 0x2D75 PUSH2 0x2D68 JUMP JUMPDEST PUSH2 0x2D80 DUP2 DUP5 DUP5 PUSH2 0x2D43 JUMP JUMPDEST POP POP POP JUMP JUMPDEST JUMPDEST DUP2 DUP2 LT ISZERO PUSH2 0x2DA4 JUMPI PUSH2 0x2D99 PUSH1 0x0 DUP3 PUSH2 0x2D6D JUMP JUMPDEST PUSH1 0x1 DUP2 ADD SWAP1 POP PUSH2 0x2D86 JUMP JUMPDEST POP POP JUMP JUMPDEST PUSH1 0x1F DUP3 GT ISZERO PUSH2 0x2DE9 JUMPI PUSH2 0x2DBA DUP2 PUSH2 0x2C89 JUMP JUMPDEST PUSH2 0x2DC3 DUP5 PUSH2 0x2C9E JUMP JUMPDEST DUP2 ADD PUSH1 0x20 DUP6 LT ISZERO PUSH2 0x2DD2 JUMPI DUP2 SWAP1 POP JUMPDEST PUSH2 0x2DE6 PUSH2 0x2DDE DUP6 PUSH2 0x2C9E JUMP JUMPDEST DUP4 ADD DUP3 PUSH2 0x2D85 JUMP JUMPDEST POP POP JUMPDEST POP POP POP JUMP JUMPDEST PUSH1 0x0 DUP3 DUP3 SHR SWAP1 POP SWAP3 SWAP2 POP POP JUMP JUMPDEST PUSH1 0x0 PUSH2 0x2E0C PUSH1 0x0 NOT DUP5 PUSH1 0x8 MUL PUSH2 0x2DEE JUMP JUMPDEST NOT DUP1 DUP4 AND SWAP2 POP POP SWAP3 SWAP2 POP POP JUMP JUMPDEST PUSH1 0x0 PUSH2 0x2E25 DUP4 DUP4 PUSH2 0x2DFB JUMP JUMPDEST SWAP2 POP DUP3 PUSH1 0x2 MUL DUP3 OR SWAP1 POP SWAP3 SWAP2 POP POP JUMP JUMPDEST PUSH2 0x2E3E DUP3 PUSH2 0x1D7A JUMP JUMPDEST PUSH8 0xFFFFFFFFFFFFFFFF DUP2 GT ISZERO PUSH2 0x2E57 JUMPI PUSH2 0x2E56 PUSH2 0x1A60 JUMP JUMPDEST JUMPDEST PUSH2 0x2E61 DUP3 SLOAD PUSH2 0x2C58 JUMP JUMPDEST PUSH2 0x2E6C DUP3 DUP3 DUP6 PUSH2 0x2DA8 JUMP JUMPDEST PUSH1 0x0 PUSH1 0x20 SWAP1 POP PUSH1 0x1F DUP4 GT PUSH1 0x1 DUP2 EQ PUSH2 0x2E9F JUMPI PUSH1 0x0 DUP5 ISZERO PUSH2 0x2E8D JUMPI DUP3 DUP8 ADD MLOAD SWAP1 POP JUMPDEST PUSH2 0x2E97 DUP6 DUP3 PUSH2 0x2E19 JUMP JUMPDEST DUP7 SSTORE POP PUSH2 0x2EFF JUMP JUMPDEST PUSH1 0x1F NOT DUP5 AND PUSH2 0x2EAD DUP7 PUSH2 0x2C89 JUMP JUMPDEST PUSH1 0x0 JUMPDEST DUP3 DUP2 LT ISZERO PUSH2 0x2ED5 JUMPI DUP5 DUP10 ADD MLOAD DUP3 SSTORE PUSH1 0x1 DUP3 ADD SWAP2 POP PUSH1 0x20 DUP6 ADD SWAP5 POP PUSH1 0x20 DUP2 ADD SWAP1 POP PUSH2 0x2EB0 JUMP JUMPDEST DUP7 DUP4 LT ISZERO PUSH2 0x2EF2 JUMPI DUP5 DUP10 ADD MLOAD PUSH2 0x2EEE PUSH1 0x1F DUP10 AND DUP3 PUSH2 0x2DFB JUMP JUMPDEST DUP4 SSTORE POP JUMPDEST PUSH1 0x1 PUSH1 0x2 DUP9 MUL ADD DUP9 SSTORE POP POP POP JUMPDEST POP POP POP POP POP POP JUMP JUMPDEST PUSH32 0x4E487B7100000000000000000000000000000000000000000000000000000000 PUSH1 0x0 MSTORE PUSH1 0x11 PUSH1 0x4 MSTORE PUSH1 0x24 PUSH1 0x0 REVERT JUMPDEST PUSH1 0x0 PUSH2 0x2F41 DUP3 PUSH2 0x2159 JUMP JUMPDEST SWAP2 POP PUSH32 0xFFFFFFFFFFFFFFFFFFFFFFFFFFFFFFFFFFFFFFFFFFFFFFFFFFFFFFFFFFFFFFFF DUP3 SUB PUSH2 0x2F73 JUMPI PUSH2 0x2F72 PUSH2 0x2F07 JUMP JUMPDEST JUMPDEST PUSH1 0x1 DUP3 ADD SWAP1 POP SWAP2 SWAP1 POP JUMP JUMPDEST PUSH32 0x4E487B7100000000000000000000000000000000000000000000000000000000 PUSH1 0x0 MSTORE PUSH1 0x32 PUSH1 0x4 MSTORE PUSH1 0x24 PUSH1 0x0 REVERT INVALID LOG2 PUSH5 0x6970667358 0x22 SLT KECCAK256 JUMPI CHAINID 0x2D 0xAF DUP4 0x2B PUSH10 0x5F5FD7F66DBAF2EB884A ORIGIN 0xE6 SWAP10 0xE6 SWAP2 PUSH3 0x4CD12 0xD6 0xC1 0xF9 0xA8 SHL STOP PUSH5 0x736F6C6343 STOP ADDMOD SLT STOP CALLER "
				},
				"gasEstimates": {
					"creation": {
						"codeDepositCost": "2451800",
						"executionCost": "26999",
						"totalCost": "2478799"
					},
					"external": {
						"addPatient(string,string,string,string,string,string)": "infinite",
						"authorizeDoctor(address)": "27099",
						"getAllergies(string)": "infinite",
						"getPatientBloodPressure(string)": "infinite",
						"getPatientInfo(string,bool,bool)": "infinite",
						"getPatientSugar(string)": "infinite",
						"getPatientVaccines(string)": "infinite",
						"getPrescriptions(string)": "infinite",
						"revokeDoctor(address)": "27112",
						"updateAllergies(string,string[],string[],string[])": "infinite",
						"updateBloodPressure(string,string,uint256,uint256,uint256)": "infinite",
						"updatePrescription(string,string,string,bool,bool,bool,string,string)": "infinite",
						"updateSugar(string,string,bool,bool,uint256)": "infinite",
						"updateVaccine(string,string,string)": "infinite"
					}
				},
				"methodIdentifiers": {
					"addPatient(string,string,string,string,string,string)": "a4f3cc23",
					"authorizeDoctor(address)": "58c9202c",
					"getAllergies(string)": "d2ea8594",
					"getPatientBloodPressure(string)": "71c017f5",
					"getPatientInfo(string,bool,bool)": "a63bd798",
					"getPatientSugar(string)": "7a01dbf5",
					"getPatientVaccines(string)": "29601ed8",
					"getPrescriptions(string)": "931126e9",
					"revokeDoctor(address)": "0416af27",
					"updateAllergies(string,string[],string[],string[])": "669aaafb",
					"updateBloodPressure(string,string,uint256,uint256,uint256)": "d4638181",
					"updatePrescription(string,string,string,bool,bool,bool,string,string)": "1d76d896",
					"updateSugar(string,string,bool,bool,uint256)": "6ebfa7d4",
					"updateVaccine(string,string,string)": "54506048"
				}
			},
			"storageLayout": {
				"storage": [
					{
						"astId": 98,
						"contract": "contracts/_Database5.sol:MedicalRecords",
						"label": "patients",
						"offset": 0,
						"slot": "0",
						"type": "t_mapping(t_string_memory_ptr,t_struct(Patient)75_storage)"
					},
					{
						"astId": 102,
						"contract": "contracts/_Database5.sol:MedicalRecords",
						"label": "authorizedDoctors",
						"offset": 0,
						"slot": "1",
						"type": "t_mapping(t_address,t_bool)"
					}
				],
				"types": {
					"t_address": {
						"encoding": "inplace",
						"label": "address",
						"numberOfBytes": "20"
					},
					"t_array(t_string_storage)dyn_storage": {
						"base": "t_string_storage",
						"encoding": "dynamic_array",
						"label": "string[]",
						"numberOfBytes": "32"
					},
					"t_bool": {
						"encoding": "inplace",
						"label": "bool",
						"numberOfBytes": "1"
					},
					"t_mapping(t_address,t_bool)": {
						"encoding": "mapping",
						"key": "t_address",
						"label": "mapping(address => bool)",
						"numberOfBytes": "32",
						"value": "t_bool"
					},
					"t_mapping(t_string_memory_ptr,t_struct(Allergies)11_storage)": {
						"encoding": "mapping",
						"key": "t_string_memory_ptr",
						"label": "mapping(string => struct MedicalRecords.Allergies)",
						"numberOfBytes": "32",
						"value": "t_struct(Allergies)11_storage"
					},
					"t_mapping(t_string_memory_ptr,t_struct(Patient)75_storage)": {
						"encoding": "mapping",
						"key": "t_string_memory_ptr",
						"label": "mapping(string => struct MedicalRecords.Patient)",
						"numberOfBytes": "32",
						"value": "t_struct(Patient)75_storage"
					},
					"t_mapping(t_uint256,t_struct(BloodPressure)84_storage)": {
						"encoding": "mapping",
						"key": "t_uint256",
						"label": "mapping(uint256 => struct MedicalRecords.BloodPressure)",
						"numberOfBytes": "32",
						"value": "t_struct(BloodPressure)84_storage"
					},
					"t_mapping(t_uint256,t_struct(Prescription)31_storage)": {
						"encoding": "mapping",
						"key": "t_uint256",
						"label": "mapping(uint256 => struct MedicalRecords.Prescription)",
						"numberOfBytes": "32",
						"value": "t_struct(Prescription)31_storage"
					},
					"t_mapping(t_uint256,t_struct(Sugar)93_storage)": {
						"encoding": "mapping",
						"key": "t_uint256",
						"label": "mapping(uint256 => struct MedicalRecords.Sugar)",
						"numberOfBytes": "32",
						"value": "t_struct(Sugar)93_storage"
					},
					"t_mapping(t_uint256,t_struct(Vaccine)16_storage)": {
						"encoding": "mapping",
						"key": "t_uint256",
						"label": "mapping(uint256 => struct MedicalRecords.Vaccine)",
						"numberOfBytes": "32",
						"value": "t_struct(Vaccine)16_storage"
					},
					"t_string_memory_ptr": {
						"encoding": "bytes",
						"label": "string",
						"numberOfBytes": "32"
					},
					"t_string_storage": {
						"encoding": "bytes",
						"label": "string",
						"numberOfBytes": "32"
					},
					"t_struct(Allergies)11_storage": {
						"encoding": "inplace",
						"label": "struct MedicalRecords.Allergies",
						"members": [
							{
								"astId": 4,
								"contract": "contracts/_Database5.sol:MedicalRecords",
								"label": "food",
								"offset": 0,
								"slot": "0",
								"type": "t_array(t_string_storage)dyn_storage"
							},
							{
								"astId": 7,
								"contract": "contracts/_Database5.sol:MedicalRecords",
								"label": "medicines",
								"offset": 0,
								"slot": "1",
								"type": "t_array(t_string_storage)dyn_storage"
							},
							{
								"astId": 10,
								"contract": "contracts/_Database5.sol:MedicalRecords",
								"label": "others",
								"offset": 0,
								"slot": "2",
								"type": "t_array(t_string_storage)dyn_storage"
							}
						],
						"numberOfBytes": "96"
					},
					"t_struct(BloodPressure)84_storage": {
						"encoding": "inplace",
						"label": "struct MedicalRecords.BloodPressure",
						"members": [
							{
								"astId": 77,
								"contract": "contracts/_Database5.sol:MedicalRecords",
								"label": "date",
								"offset": 0,
								"slot": "0",
								"type": "t_string_storage"
							},
							{
								"astId": 79,
								"contract": "contracts/_Database5.sol:MedicalRecords",
								"label": "SP",
								"offset": 0,
								"slot": "1",
								"type": "t_uint256"
							},
							{
								"astId": 81,
								"contract": "contracts/_Database5.sol:MedicalRecords",
								"label": "DP",
								"offset": 0,
								"slot": "2",
								"type": "t_uint256"
							},
							{
								"astId": 83,
								"contract": "contracts/_Database5.sol:MedicalRecords",
								"label": "HB",
								"offset": 0,
								"slot": "3",
								"type": "t_uint256"
							}
						],
						"numberOfBytes": "128"
					},
					"t_struct(Patient)75_storage": {
						"encoding": "inplace",
						"label": "struct MedicalRecords.Patient",
						"members": [
							{
								"astId": 33,
								"contract": "contracts/_Database5.sol:MedicalRecords",
								"label": "name",
								"offset": 0,
								"slot": "0",
								"type": "t_string_storage"
							},
							{
								"astId": 35,
								"contract": "contracts/_Database5.sol:MedicalRecords",
								"label": "DOB",
								"offset": 0,
								"slot": "1",
								"type": "t_string_storage"
							},
							{
								"astId": 37,
								"contract": "contracts/_Database5.sol:MedicalRecords",
								"label": "phoneNo",
								"offset": 0,
								"slot": "2",
								"type": "t_string_storage"
							},
							{
								"astId": 39,
								"contract": "contracts/_Database5.sol:MedicalRecords",
								"label": "specialConditions",
								"offset": 0,
								"slot": "3",
								"type": "t_string_storage"
							},
							{
								"astId": 41,
								"contract": "contracts/_Database5.sol:MedicalRecords",
								"label": "bloodGroup",
								"offset": 0,
								"slot": "4",
								"type": "t_string_storage"
							},
							{
								"astId": 46,
								"contract": "contracts/_Database5.sol:MedicalRecords",
								"label": "allergies",
								"offset": 0,
								"slot": "5",
								"type": "t_mapping(t_string_memory_ptr,t_struct(Allergies)11_storage)"
							},
							{
								"astId": 51,
								"contract": "contracts/_Database5.sol:MedicalRecords",
								"label": "prescriptions",
								"offset": 0,
								"slot": "6",
								"type": "t_mapping(t_uint256,t_struct(Prescription)31_storage)"
							},
							{
								"astId": 53,
								"contract": "contracts/_Database5.sol:MedicalRecords",
								"label": "prescriptionCount",
								"offset": 0,
								"slot": "7",
								"type": "t_uint256"
							},
							{
								"astId": 58,
								"contract": "contracts/_Database5.sol:MedicalRecords",
								"label": "bloodPressures",
								"offset": 0,
								"slot": "8",
								"type": "t_mapping(t_uint256,t_struct(BloodPressure)84_storage)"
							},
							{
								"astId": 60,
								"contract": "contracts/_Database5.sol:MedicalRecords",
								"label": "bloodPressureCount",
								"offset": 0,
								"slot": "9",
								"type": "t_uint256"
							},
							{
								"astId": 65,
								"contract": "contracts/_Database5.sol:MedicalRecords",
								"label": "sugars",
								"offset": 0,
								"slot": "10",
								"type": "t_mapping(t_uint256,t_struct(Sugar)93_storage)"
							},
							{
								"astId": 67,
								"contract": "contracts/_Database5.sol:MedicalRecords",
								"label": "sugarCount",
								"offset": 0,
								"slot": "11",
								"type": "t_uint256"
							},
							{
								"astId": 72,
								"contract": "contracts/_Database5.sol:MedicalRecords",
								"label": "vaccines",
								"offset": 0,
								"slot": "12",
								"type": "t_mapping(t_uint256,t_struct(Vaccine)16_storage)"
							},
							{
								"astId": 74,
								"contract": "contracts/_Database5.sol:MedicalRecords",
								"label": "vaccineCount",
								"offset": 0,
								"slot": "13",
								"type": "t_uint256"
							}
						],
						"numberOfBytes": "448"
					},
					"t_struct(Prescription)31_storage": {
						"encoding": "inplace",
						"label": "struct MedicalRecords.Prescription",
						"members": [
							{
								"astId": 18,
								"contract": "contracts/_Database5.sol:MedicalRecords",
								"label": "date",
								"offset": 0,
								"slot": "0",
								"type": "t_string_storage"
							},
							{
								"astId": 20,
								"contract": "contracts/_Database5.sol:MedicalRecords",
								"label": "doctorName",
								"offset": 0,
								"slot": "1",
								"type": "t_string_storage"
							},
							{
								"astId": 22,
								"contract": "contracts/_Database5.sol:MedicalRecords",
								"label": "morning",
								"offset": 0,
								"slot": "2",
								"type": "t_bool"
							},
							{
								"astId": 24,
								"contract": "contracts/_Database5.sol:MedicalRecords",
								"label": "afternoon",
								"offset": 1,
								"slot": "2",
								"type": "t_bool"
							},
							{
								"astId": 26,
								"contract": "contracts/_Database5.sol:MedicalRecords",
								"label": "evening",
								"offset": 2,
								"slot": "2",
								"type": "t_bool"
							},
							{
								"astId": 28,
								"contract": "contracts/_Database5.sol:MedicalRecords",
								"label": "name",
								"offset": 0,
								"slot": "3",
								"type": "t_string_storage"
							},
							{
								"astId": 30,
								"contract": "contracts/_Database5.sol:MedicalRecords",
								"label": "description",
								"offset": 0,
								"slot": "4",
								"type": "t_string_storage"
							}
						],
						"numberOfBytes": "160"
					},
					"t_struct(Sugar)93_storage": {
						"encoding": "inplace",
						"label": "struct MedicalRecords.Sugar",
						"members": [
							{
								"astId": 86,
								"contract": "contracts/_Database5.sol:MedicalRecords",
								"label": "date",
								"offset": 0,
								"slot": "0",
								"type": "t_string_storage"
							},
							{
								"astId": 88,
								"contract": "contracts/_Database5.sol:MedicalRecords",
								"label": "fasting",
								"offset": 0,
								"slot": "1",
								"type": "t_bool"
							},
							{
								"astId": 90,
								"contract": "contracts/_Database5.sol:MedicalRecords",
								"label": "afterMeal",
								"offset": 1,
								"slot": "1",
								"type": "t_bool"
							},
							{
								"astId": 92,
								"contract": "contracts/_Database5.sol:MedicalRecords",
								"label": "level",
								"offset": 0,
								"slot": "2",
								"type": "t_uint256"
							}
						],
						"numberOfBytes": "96"
					},
					"t_struct(Vaccine)16_storage": {
						"encoding": "inplace",
						"label": "struct MedicalRecords.Vaccine",
						"members": [
							{
								"astId": 13,
								"contract": "contracts/_Database5.sol:MedicalRecords",
								"label": "name",
								"offset": 0,
								"slot": "0",
								"type": "t_string_storage"
							},
							{
								"astId": 15,
								"contract": "contracts/_Database5.sol:MedicalRecords",
								"label": "date",
								"offset": 0,
								"slot": "1",
								"type": "t_string_storage"
							}
						],
						"numberOfBytes": "64"
					},
					"t_uint256": {
						"encoding": "inplace",
						"label": "uint256",
						"numberOfBytes": "32"
					}
				}
			},
			"userdoc": {
				"kind": "user",
				"methods": {},
				"version": 1
			}
		}
	}
}