{
	"contracts/_Database3.sol": {
		"MedicalRecords": {
			"abi": [
				{
					"inputs": [
						{
							"internalType": "string",
							"name": "_id",
							"type": "string"
						},
						{
							"internalType": "string",
							"name": "_name",
							"type": "string"
						},
						{
							"internalType": "uint256",
							"name": "_age",
							"type": "uint256"
						},
						{
							"internalType": "string",
							"name": "_specialConditions",
							"type": "string"
						},
						{
							"internalType": "string",
							"name": "_bloodGroup",
							"type": "string"
						}
					],
					"name": "addPatient",
					"outputs": [],
					"stateMutability": "nonpayable",
					"type": "function"
				},
				{
					"inputs": [
						{
							"internalType": "string",
							"name": "_p_id",
							"type": "string"
						}
					],
					"name": "getAllergies",
					"outputs": [
						{
							"internalType": "string[]",
							"name": "",
							"type": "string[]"
						},
						{
							"internalType": "string[]",
							"name": "",
							"type": "string[]"
						},
						{
							"internalType": "string[]",
							"name": "",
							"type": "string[]"
						}
					],
					"stateMutability": "view",
					"type": "function"
				},
				{
					"inputs": [
						{
							"internalType": "string",
							"name": "_p_id",
							"type": "string"
						},
						{
							"internalType": "uint256",
							"name": "_index",
							"type": "uint256"
						}
					],
					"name": "getBloodPressure",
					"outputs": [
						{
							"internalType": "string",
							"name": "",
							"type": "string"
						},
						{
							"internalType": "uint256",
							"name": "",
							"type": "uint256"
						},
						{
							"internalType": "uint256",
							"name": "",
							"type": "uint256"
						},
						{
							"internalType": "uint256",
							"name": "",
							"type": "uint256"
						}
					],
					"stateMutability": "view",
					"type": "function"
				},
				{
					"inputs": [
						{
							"internalType": "string",
							"name": "_p_id",
							"type": "string"
						}
					],
					"name": "getPatientInfo",
					"outputs": [
						{
							"internalType": "string",
							"name": "",
							"type": "string"
						},
						{
							"internalType": "uint256",
							"name": "",
							"type": "uint256"
						},
						{
							"internalType": "string",
							"name": "",
							"type": "string"
						},
						{
							"internalType": "string",
							"name": "",
							"type": "string"
						}
					],
					"stateMutability": "view",
					"type": "function"
				},
				{
					"inputs": [
						{
							"internalType": "string",
							"name": "_p_id",
							"type": "string"
						}
					],
					"name": "getPrescriptions",
					"outputs": [
						{
							"components": [
								{
									"internalType": "string",
									"name": "date",
									"type": "string"
								},
								{
									"internalType": "string",
									"name": "doctorName",
									"type": "string"
								},
								{
									"internalType": "uint256",
									"name": "interval",
									"type": "uint256"
								},
								{
									"internalType": "string",
									"name": "name",
									"type": "string"
								},
								{
									"internalType": "string",
									"name": "description",
									"type": "string"
								},
								{
									"internalType": "bool",
									"name": "isVisible",
									"type": "bool"
								}
							],
							"internalType": "struct MedicalRecords.Prescription[]",
							"name": "",
							"type": "tuple[]"
						}
					],
					"stateMutability": "view",
					"type": "function"
				},
				{
					"inputs": [
						{
							"internalType": "string",
							"name": "_p_id",
							"type": "string"
						},
						{
							"internalType": "uint256",
							"name": "_index",
							"type": "uint256"
						}
					],
					"name": "getSugar",
					"outputs": [
						{
							"internalType": "string",
							"name": "",
							"type": "string"
						},
						{
							"internalType": "bool",
							"name": "",
							"type": "bool"
						},
						{
							"internalType": "bool",
							"name": "",
							"type": "bool"
						},
						{
							"internalType": "uint256",
							"name": "",
							"type": "uint256"
						}
					],
					"stateMutability": "view",
					"type": "function"
				},
				{
					"inputs": [
						{
							"internalType": "string",
							"name": "_p_id",
							"type": "string"
						}
					],
					"name": "getVaccines",
					"outputs": [
						{
							"internalType": "string[]",
							"name": "",
							"type": "string[]"
						},
						{
							"internalType": "string[]",
							"name": "",
							"type": "string[]"
						}
					],
					"stateMutability": "view",
					"type": "function"
				},
				{
					"inputs": [
						{
							"internalType": "string",
							"name": "_p_id",
							"type": "string"
						},
						{
							"internalType": "string[]",
							"name": "_food",
							"type": "string[]"
						},
						{
							"internalType": "string[]",
							"name": "_medicines",
							"type": "string[]"
						},
						{
							"internalType": "string[]",
							"name": "_others",
							"type": "string[]"
						}
					],
					"name": "updateAllergies",
					"outputs": [],
					"stateMutability": "nonpayable",
					"type": "function"
				},
				{
					"inputs": [
						{
							"internalType": "string",
							"name": "_p_id",
							"type": "string"
						},
						{
							"internalType": "uint256",
							"name": "_index",
							"type": "uint256"
						},
						{
							"internalType": "string",
							"name": "_date",
							"type": "string"
						},
						{
							"internalType": "uint256",
							"name": "_SP",
							"type": "uint256"
						},
						{
							"internalType": "uint256",
							"name": "_DP",
							"type": "uint256"
						},
						{
							"internalType": "uint256",
							"name": "_HB",
							"type": "uint256"
						}
					],
					"name": "updateBloodPressure",
					"outputs": [],
					"stateMutability": "nonpayable",
					"type": "function"
				},
				{
					"inputs": [
						{
							"internalType": "string",
							"name": "_p_id",
							"type": "string"
						},
						{
							"internalType": "string",
							"name": "_date",
							"type": "string"
						},
						{
							"internalType": "string",
							"name": "_doctorName",
							"type": "string"
						},
						{
							"internalType": "uint256",
							"name": "_interval",
							"type": "uint256"
						},
						{
							"internalType": "string",
							"name": "_name",
							"type": "string"
						},
						{
							"internalType": "string",
							"name": "_description",
							"type": "string"
						},
						{
							"internalType": "bool",
							"name": "_isVisible",
							"type": "bool"
						}
					],
					"name": "updatePrescription",
					"outputs": [],
					"stateMutability": "nonpayable",
					"type": "function"
				},
				{
					"inputs": [
						{
							"internalType": "string",
							"name": "_p_id",
							"type": "string"
						},
						{
							"internalType": "uint256",
							"name": "_index",
							"type": "uint256"
						},
						{
							"internalType": "string",
							"name": "_date",
							"type": "string"
						},
						{
							"internalType": "bool",
							"name": "_fasting",
							"type": "bool"
						},
						{
							"internalType": "bool",
							"name": "_afterMeal",
							"type": "bool"
						},
						{
							"internalType": "uint256",
							"name": "_level",
							"type": "uint256"
						}
					],
					"name": "updateSugar",
					"outputs": [],
					"stateMutability": "nonpayable",
					"type": "function"
				},
				{
					"inputs": [
						{
							"internalType": "string",
							"name": "_p_id",
							"type": "string"
						},
						{
							"internalType": "string",
							"name": "_name",
							"type": "string"
						},
						{
							"internalType": "string",
							"name": "_date",
							"type": "string"
						}
					],
					"name": "updateVaccine",
					"outputs": [],
					"stateMutability": "nonpayable",
					"type": "function"
				}
			],
			"devdoc": {
				"kind": "dev",
				"methods": {},
				"version": 1
			},
			"evm": {
				"assembly": "    /* \"contracts/_Database3.sol\":60:5682  contract MedicalRecords {... */\n  mstore(0x40, 0x80)\n  callvalue\n  dup1\n  iszero\n  tag_1\n  jumpi\n  0x00\n  dup1\n  revert\ntag_1:\n  pop\n  dataSize(sub_0)\n  dup1\n  dataOffset(sub_0)\n  0x00\n  codecopy\n  0x00\n  return\nstop\n\nsub_0: assembly {\n        /* \"contracts/_Database3.sol\":60:5682  contract MedicalRecords {... */\n      mstore(0x40, 0x80)\n      callvalue\n      dup1\n      iszero\n      tag_1\n      jumpi\n      0x00\n      dup1\n      revert\n    tag_1:\n      pop\n      jumpi(tag_2, lt(calldatasize, 0x04))\n      shr(0xe0, calldataload(0x00))\n      dup1\n      0x931126e9\n      gt\n      tag_15\n      jumpi\n      dup1\n      0x931126e9\n      eq\n      tag_9\n      jumpi\n      dup1\n      0xa12d9560\n      eq\n      tag_10\n      jumpi\n      dup1\n      0xc40cd876\n      eq\n      tag_11\n      jumpi\n      dup1\n      0xd2ea8594\n      eq\n      tag_12\n      jumpi\n      dup1\n      0xe1d31458\n      eq\n      tag_13\n      jumpi\n      dup1\n      0xf4ef06b4\n      eq\n      tag_14\n      jumpi\n      jump(tag_2)\n    tag_15:\n      dup1\n      0x16c11d68\n      eq\n      tag_3\n      jumpi\n      dup1\n      0x30c012f0\n      eq\n      tag_4\n      jumpi\n      dup1\n      0x3276a2ac\n      eq\n      tag_5\n      jumpi\n      dup1\n      0x54506048\n      eq\n      tag_6\n      jumpi\n      dup1\n      0x669aaafb\n      eq\n      tag_7\n      jumpi\n      dup1\n      0x68cdafb3\n      eq\n      tag_8\n      jumpi\n    tag_2:\n      0x00\n      dup1\n      revert\n        /* \"contracts/_Database3.sol\":2252:2710  function updatePrescription(... */\n    tag_3:\n      tag_16\n      0x04\n      dup1\n      calldatasize\n      sub\n      dup2\n      add\n      swap1\n      tag_17\n      swap2\n      swap1\n      tag_18\n      jump\t// in\n    tag_17:\n      tag_19\n      jump\t// in\n    tag_16:\n      stop\n        /* \"contracts/_Database3.sol\":4907:5241  function getSugar(string memory _p_id, uint256 _index)... */\n    tag_4:\n      tag_20\n      0x04\n      dup1\n      calldatasize\n      sub\n      dup2\n      add\n      swap1\n      tag_21\n      swap2\n      swap1\n      tag_22\n      jump\t// in\n    tag_21:\n      tag_23\n      jump\t// in\n    tag_20:\n      mload(0x40)\n      tag_24\n      swap5\n      swap4\n      swap3\n      swap2\n      swap1\n      tag_25\n      jump\t// in\n    tag_24:\n      mload(0x40)\n      dup1\n      swap2\n      sub\n      swap1\n      return\n        /* \"contracts/_Database3.sol\":1170:1582  function addPatient(... */\n    tag_5:\n      tag_26\n      0x04\n      dup1\n      calldatasize\n      sub\n      dup2\n      add\n      swap1\n      tag_27\n      swap2\n      swap1\n      tag_28\n      jump\t// in\n    tag_27:\n      tag_29\n      jump\t// in\n    tag_26:\n      stop\n        /* \"contracts/_Database3.sol\":1905:2244  function updateVaccine(... */\n    tag_6:\n      tag_30\n      0x04\n      dup1\n      calldatasize\n      sub\n      dup2\n      add\n      swap1\n      tag_31\n      swap2\n      swap1\n      tag_32\n      jump\t// in\n    tag_31:\n      tag_33\n      jump\t// in\n    tag_30:\n      stop\n        /* \"contracts/_Database3.sol\":1590:1897  function updateAllergies(... */\n    tag_7:\n      tag_34\n      0x04\n      dup1\n      calldatasize\n      sub\n      dup2\n      add\n      swap1\n      tag_35\n      swap2\n      swap1\n      tag_36\n      jump\t// in\n    tag_35:\n      tag_37\n      jump\t// in\n    tag_34:\n      stop\n        /* \"contracts/_Database3.sol\":5249:5679  function getPatientInfo(string memory _p_id)... */\n    tag_8:\n      tag_38\n      0x04\n      dup1\n      calldatasize\n      sub\n      dup2\n      add\n      swap1\n      tag_39\n      swap2\n      swap1\n      tag_40\n      jump\t// in\n    tag_39:\n      tag_41\n      jump\t// in\n    tag_38:\n      mload(0x40)\n      tag_42\n      swap5\n      swap4\n      swap3\n      swap2\n      swap1\n      tag_43\n      jump\t// in\n    tag_42:\n      mload(0x40)\n      dup1\n      swap2\n      sub\n      swap1\n      return\n        /* \"contracts/_Database3.sol\":4335:4557  function getPrescriptions(string memory _p_id)... */\n    tag_9:\n      tag_44\n      0x04\n      dup1\n      calldatasize\n      sub\n      dup2\n      add\n      swap1\n      tag_45\n      swap2\n      swap1\n      tag_40\n      jump\t// in\n    tag_45:\n      tag_46\n      jump\t// in\n    tag_44:\n      mload(0x40)\n      tag_47\n      swap2\n      swap1\n      tag_48\n      jump\t// in\n    tag_47:\n      mload(0x40)\n      dup1\n      swap2\n      sub\n      swap1\n      return\n        /* \"contracts/_Database3.sol\":3753:4327  function getVaccines(string memory _p_id)... */\n    tag_10:\n      tag_49\n      0x04\n      dup1\n      calldatasize\n      sub\n      dup2\n      add\n      swap1\n      tag_50\n      swap2\n      swap1\n      tag_40\n      jump\t// in\n    tag_50:\n      tag_51\n      jump\t// in\n    tag_49:\n      mload(0x40)\n      tag_52\n      swap3\n      swap2\n      swap1\n      tag_53\n      jump\t// in\n    tag_52:\n      mload(0x40)\n      dup1\n      swap2\n      sub\n      swap1\n      return\n        /* \"contracts/_Database3.sol\":4565:4899  function getBloodPressure(string memory _p_id, uint256 _index)... */\n    tag_11:\n      tag_54\n      0x04\n      dup1\n      calldatasize\n      sub\n      dup2\n      add\n      swap1\n      tag_55\n      swap2\n      swap1\n      tag_22\n      jump\t// in\n    tag_55:\n      tag_56\n      jump\t// in\n    tag_54:\n      mload(0x40)\n      tag_57\n      swap5\n      swap4\n      swap3\n      swap2\n      swap1\n      tag_58\n      jump\t// in\n    tag_57:\n      mload(0x40)\n      dup1\n      swap2\n      sub\n      swap1\n      return\n        /* \"contracts/_Database3.sol\":3400:3745  function getAllergies(string memory _p_id)... */\n    tag_12:\n      tag_59\n      0x04\n      dup1\n      calldatasize\n      sub\n      dup2\n      add\n      swap1\n      tag_60\n      swap2\n      swap1\n      tag_40\n      jump\t// in\n    tag_60:\n      tag_61\n      jump\t// in\n    tag_59:\n      mload(0x40)\n      tag_62\n      swap4\n      swap3\n      swap2\n      swap1\n      tag_63\n      jump\t// in\n    tag_62:\n      mload(0x40)\n      dup1\n      swap2\n      sub\n      swap1\n      return\n        /* \"contracts/_Database3.sol\":3059:3392  function updateSugar(... */\n    tag_13:\n      tag_64\n      0x04\n      dup1\n      calldatasize\n      sub\n      dup2\n      add\n      swap1\n      tag_65\n      swap2\n      swap1\n      tag_66\n      jump\t// in\n    tag_65:\n      tag_67\n      jump\t// in\n    tag_64:\n      stop\n        /* \"contracts/_Database3.sol\":2718:3051  function updateBloodPressure(... */\n    tag_14:\n      tag_68\n      0x04\n      dup1\n      calldatasize\n      sub\n      dup2\n      add\n      swap1\n      tag_69\n      swap2\n      swap1\n      tag_70\n      jump\t// in\n    tag_69:\n      tag_71\n      jump\t// in\n    tag_68:\n      stop\n        /* \"contracts/_Database3.sol\":2252:2710  function updatePrescription(... */\n    tag_19:\n        /* \"contracts/_Database3.sol\":2522:2545  Patient storage patient */\n      0x00\n        /* \"contracts/_Database3.sol\":2548:2556  patients */\n      dup1\n        /* \"contracts/_Database3.sol\":2557:2562  _p_id */\n      dup9\n        /* \"contracts/_Database3.sol\":2548:2563  patients[_p_id] */\n      mload(0x40)\n      tag_73\n      swap2\n      swap1\n      tag_74\n      jump\t// in\n    tag_73:\n      swap1\n      dup2\n      mstore\n      0x20\n      add\n      mload(0x40)\n      dup1\n      swap2\n      sub\n      swap1\n      keccak256\n        /* \"contracts/_Database3.sol\":2522:2563  Patient storage patient = patients[_p_id] */\n      swap1\n      pop\n        /* \"contracts/_Database3.sol\":2574:2581  patient */\n      dup1\n        /* \"contracts/_Database3.sol\":2574:2595  patient.prescriptions */\n      0x05\n      add\n        /* \"contracts/_Database3.sol\":2615:2691  Prescription(_date, _doctorName, _interval, _name, _description, _isVisible) */\n      mload(0x40)\n      dup1\n      0xc0\n      add\n      0x40\n      mstore\n      dup1\n        /* \"contracts/_Database3.sol\":2628:2633  _date */\n      dup10\n        /* \"contracts/_Database3.sol\":2615:2691  Prescription(_date, _doctorName, _interval, _name, _description, _isVisible) */\n      dup2\n      mstore\n      0x20\n      add\n        /* \"contracts/_Database3.sol\":2635:2646  _doctorName */\n      dup9\n        /* \"contracts/_Database3.sol\":2615:2691  Prescription(_date, _doctorName, _interval, _name, _description, _isVisible) */\n      dup2\n      mstore\n      0x20\n      add\n        /* \"contracts/_Database3.sol\":2648:2657  _interval */\n      dup8\n        /* \"contracts/_Database3.sol\":2615:2691  Prescription(_date, _doctorName, _interval, _name, _description, _isVisible) */\n      dup2\n      mstore\n      0x20\n      add\n        /* \"contracts/_Database3.sol\":2659:2664  _name */\n      dup7\n        /* \"contracts/_Database3.sol\":2615:2691  Prescription(_date, _doctorName, _interval, _name, _description, _isVisible) */\n      dup2\n      mstore\n      0x20\n      add\n        /* \"contracts/_Database3.sol\":2666:2678  _description */\n      dup6\n        /* \"contracts/_Database3.sol\":2615:2691  Prescription(_date, _doctorName, _interval, _name, _description, _isVisible) */\n      dup2\n      mstore\n      0x20\n      add\n        /* \"contracts/_Database3.sol\":2680:2690  _isVisible */\n      dup5\n        /* \"contracts/_Database3.sol\":2615:2691  Prescription(_date, _doctorName, _interval, _name, _description, _isVisible) */\n      iszero\n      iszero\n      dup2\n      mstore\n      pop\n        /* \"contracts/_Database3.sol\":2574:2702  patient.prescriptions.push(... */\n      swap1\n      dup1\n      0x01\n      dup2\n      sload\n      add\n      dup1\n      dup3\n      sstore\n      dup1\n      swap2\n      pop\n      pop\n      0x01\n      swap1\n      sub\n      swap1\n      0x00\n      mstore\n      keccak256(0x00, 0x20)\n      swap1\n      0x06\n      mul\n      add\n      0x00\n      swap1\n      swap2\n      swap1\n      swap2\n      swap1\n      swap2\n      pop\n      0x00\n      dup3\n      add\n      mload\n      dup2\n      0x00\n      add\n      swap1\n      dup2\n      tag_76\n      swap2\n      swap1\n      tag_77\n      jump\t// in\n    tag_76:\n      pop\n      0x20\n      dup3\n      add\n      mload\n      dup2\n      0x01\n      add\n      swap1\n      dup2\n      tag_78\n      swap2\n      swap1\n      tag_77\n      jump\t// in\n    tag_78:\n      pop\n      0x40\n      dup3\n      add\n      mload\n      dup2\n      0x02\n      add\n      sstore\n      0x60\n      dup3\n      add\n      mload\n      dup2\n      0x03\n      add\n      swap1\n      dup2\n      tag_79\n      swap2\n      swap1\n      tag_77\n      jump\t// in\n    tag_79:\n      pop\n      0x80\n      dup3\n      add\n      mload\n      dup2\n      0x04\n      add\n      swap1\n      dup2\n      tag_80\n      swap2\n      swap1\n      tag_77\n      jump\t// in\n    tag_80:\n      pop\n      0xa0\n      dup3\n      add\n      mload\n      dup2\n      0x05\n      add\n      exp(0x0100, 0x00)\n      dup2\n      sload\n      dup2\n      0xff\n      mul\n      not\n      and\n      swap1\n      dup4\n      iszero\n      iszero\n      mul\n      or\n      swap1\n      sstore\n      pop\n      pop\n      pop\n        /* \"contracts/_Database3.sol\":2511:2710  {... */\n      pop\n        /* \"contracts/_Database3.sol\":2252:2710  function updatePrescription(... */\n      pop\n      pop\n      pop\n      pop\n      pop\n      pop\n      pop\n      jump\t// out\n        /* \"contracts/_Database3.sol\":4907:5241  function getSugar(string memory _p_id, uint256 _index)... */\n    tag_23:\n        /* \"contracts/_Database3.sol\":5010:5023  string memory */\n      0x60\n        /* \"contracts/_Database3.sol\":5025:5029  bool */\n      0x00\n        /* \"contracts/_Database3.sol\":5031:5035  bool */\n      dup1\n        /* \"contracts/_Database3.sol\":5037:5044  uint256 */\n      0x00\n        /* \"contracts/_Database3.sol\":5062:5085  Patient storage patient */\n      dup1\n        /* \"contracts/_Database3.sol\":5088:5096  patients */\n      0x00\n        /* \"contracts/_Database3.sol\":5097:5102  _p_id */\n      dup8\n        /* \"contracts/_Database3.sol\":5088:5103  patients[_p_id] */\n      mload(0x40)\n      tag_82\n      swap2\n      swap1\n      tag_74\n      jump\t// in\n    tag_82:\n      swap1\n      dup2\n      mstore\n      0x20\n      add\n      mload(0x40)\n      dup1\n      swap2\n      sub\n      swap1\n      keccak256\n        /* \"contracts/_Database3.sol\":5062:5103  Patient storage patient = patients[_p_id] */\n      swap1\n      pop\n        /* \"contracts/_Database3.sol\":5114:5133  Sugar storage sugar */\n      0x00\n        /* \"contracts/_Database3.sol\":5136:5143  patient */\n      dup2\n        /* \"contracts/_Database3.sol\":5136:5150  patient.sugars */\n      0x07\n      add\n        /* \"contracts/_Database3.sol\":5136:5158  patient.sugars[_index] */\n      0x00\n        /* \"contracts/_Database3.sol\":5151:5157  _index */\n      dup9\n        /* \"contracts/_Database3.sol\":5136:5158  patient.sugars[_index] */\n      dup2\n      mstore\n      0x20\n      add\n      swap1\n      dup2\n      mstore\n      0x20\n      add\n      0x00\n      keccak256\n        /* \"contracts/_Database3.sol\":5114:5158  Sugar storage sugar = patient.sugars[_index] */\n      swap1\n      pop\n        /* \"contracts/_Database3.sol\":5177:5182  sugar */\n      dup1\n        /* \"contracts/_Database3.sol\":5177:5187  sugar.date */\n      0x00\n      add\n        /* \"contracts/_Database3.sol\":5189:5194  sugar */\n      dup2\n        /* \"contracts/_Database3.sol\":5189:5202  sugar.fasting */\n      0x01\n      add\n      0x00\n      swap1\n      sload\n      swap1\n      0x0100\n      exp\n      swap1\n      div\n      0xff\n      and\n        /* \"contracts/_Database3.sol\":5204:5209  sugar */\n      dup3\n        /* \"contracts/_Database3.sol\":5204:5219  sugar.afterMeal */\n      0x01\n      add\n      0x01\n      swap1\n      sload\n      swap1\n      0x0100\n      exp\n      swap1\n      div\n      0xff\n      and\n        /* \"contracts/_Database3.sol\":5221:5226  sugar */\n      dup4\n        /* \"contracts/_Database3.sol\":5221:5232  sugar.level */\n      0x02\n      add\n      sload\n        /* \"contracts/_Database3.sol\":5169:5233  return (sugar.date, sugar.fasting, sugar.afterMeal, sugar.level) */\n      dup4\n      dup1\n      sload\n      tag_83\n      swap1\n      tag_84\n      jump\t// in\n    tag_83:\n      dup1\n      0x1f\n      add\n      0x20\n      dup1\n      swap2\n      div\n      mul\n      0x20\n      add\n      mload(0x40)\n      swap1\n      dup2\n      add\n      0x40\n      mstore\n      dup1\n      swap3\n      swap2\n      swap1\n      dup2\n      dup2\n      mstore\n      0x20\n      add\n      dup3\n      dup1\n      sload\n      tag_85\n      swap1\n      tag_84\n      jump\t// in\n    tag_85:\n      dup1\n      iszero\n      tag_86\n      jumpi\n      dup1\n      0x1f\n      lt\n      tag_87\n      jumpi\n      0x0100\n      dup1\n      dup4\n      sload\n      div\n      mul\n      dup4\n      mstore\n      swap2\n      0x20\n      add\n      swap2\n      jump(tag_86)\n    tag_87:\n      dup3\n      add\n      swap2\n      swap1\n      0x00\n      mstore\n      keccak256(0x00, 0x20)\n      swap1\n    tag_88:\n      dup2\n      sload\n      dup2\n      mstore\n      swap1\n      0x01\n      add\n      swap1\n      0x20\n      add\n      dup1\n      dup4\n      gt\n      tag_88\n      jumpi\n      dup3\n      swap1\n      sub\n      0x1f\n      and\n      dup3\n      add\n      swap2\n    tag_86:\n      pop\n      pop\n      pop\n      pop\n      pop\n      swap4\n      pop\n      swap6\n      pop\n      swap6\n      pop\n      swap6\n      pop\n      swap6\n      pop\n      pop\n      pop\n        /* \"contracts/_Database3.sol\":4907:5241  function getSugar(string memory _p_id, uint256 _index)... */\n      swap3\n      swap6\n      swap2\n      swap5\n      pop\n      swap3\n      pop\n      jump\t// out\n        /* \"contracts/_Database3.sol\":1170:1582  function addPatient(... */\n    tag_29:\n        /* \"contracts/_Database3.sol\":1375:1398  Patient storage patient */\n      0x00\n        /* \"contracts/_Database3.sol\":1401:1409  patients */\n      dup1\n        /* \"contracts/_Database3.sol\":1410:1413  _id */\n      dup7\n        /* \"contracts/_Database3.sol\":1401:1414  patients[_id] */\n      mload(0x40)\n      tag_90\n      swap2\n      swap1\n      tag_74\n      jump\t// in\n    tag_90:\n      swap1\n      dup2\n      mstore\n      0x20\n      add\n      mload(0x40)\n      dup1\n      swap2\n      sub\n      swap1\n      keccak256\n        /* \"contracts/_Database3.sol\":1375:1414  Patient storage patient = patients[_id] */\n      swap1\n      pop\n        /* \"contracts/_Database3.sol\":1440:1445  _name */\n      dup5\n        /* \"contracts/_Database3.sol\":1425:1432  patient */\n      dup2\n        /* \"contracts/_Database3.sol\":1425:1437  patient.name */\n      0x00\n      add\n        /* \"contracts/_Database3.sol\":1425:1445  patient.name = _name */\n      swap1\n      dup2\n      tag_91\n      swap2\n      swap1\n      tag_77\n      jump\t// in\n    tag_91:\n      pop\n        /* \"contracts/_Database3.sol\":1470:1474  _age */\n      dup4\n        /* \"contracts/_Database3.sol\":1456:1463  patient */\n      dup2\n        /* \"contracts/_Database3.sol\":1456:1467  patient.age */\n      0x01\n      add\n        /* \"contracts/_Database3.sol\":1456:1474  patient.age = _age */\n      dup2\n      swap1\n      sstore\n      pop\n        /* \"contracts/_Database3.sol\":1513:1531  _specialConditions */\n      dup3\n        /* \"contracts/_Database3.sol\":1485:1492  patient */\n      dup2\n        /* \"contracts/_Database3.sol\":1485:1510  patient.specialConditions */\n      0x02\n      add\n        /* \"contracts/_Database3.sol\":1485:1531  patient.specialConditions = _specialConditions */\n      swap1\n      dup2\n      tag_92\n      swap2\n      swap1\n      tag_77\n      jump\t// in\n    tag_92:\n      pop\n        /* \"contracts/_Database3.sol\":1563:1574  _bloodGroup */\n      dup2\n        /* \"contracts/_Database3.sol\":1542:1549  patient */\n      dup2\n        /* \"contracts/_Database3.sol\":1542:1560  patient.bloodGroup */\n      0x03\n      add\n        /* \"contracts/_Database3.sol\":1542:1574  patient.bloodGroup = _bloodGroup */\n      swap1\n      dup2\n      tag_93\n      swap2\n      swap1\n      tag_77\n      jump\t// in\n    tag_93:\n      pop\n        /* \"contracts/_Database3.sol\":1364:1582  {... */\n      pop\n        /* \"contracts/_Database3.sol\":1170:1582  function addPatient(... */\n      pop\n      pop\n      pop\n      pop\n      pop\n      jump\t// out\n        /* \"contracts/_Database3.sol\":1905:2244  function updateVaccine(... */\n    tag_33:\n        /* \"contracts/_Database3.sol\":2043:2066  Patient storage patient */\n      0x00\n        /* \"contracts/_Database3.sol\":2069:2077  patients */\n      dup1\n        /* \"contracts/_Database3.sol\":2078:2083  _p_id */\n      dup5\n        /* \"contracts/_Database3.sol\":2069:2084  patients[_p_id] */\n      mload(0x40)\n      tag_95\n      swap2\n      swap1\n      tag_74\n      jump\t// in\n    tag_95:\n      swap1\n      dup2\n      mstore\n      0x20\n      add\n      mload(0x40)\n      dup1\n      swap2\n      sub\n      swap1\n      keccak256\n        /* \"contracts/_Database3.sol\":2043:2084  Patient storage patient = patients[_p_id] */\n      swap1\n      pop\n        /* \"contracts/_Database3.sol\":2095:2115  uint256 vaccineIndex */\n      0x00\n        /* \"contracts/_Database3.sol\":2118:2125  patient */\n      dup2\n        /* \"contracts/_Database3.sol\":2118:2138  patient.vaccineCount */\n      0x09\n      add\n      sload\n        /* \"contracts/_Database3.sol\":2095:2138  uint256 vaccineIndex = patient.vaccineCount */\n      swap1\n      pop\n        /* \"contracts/_Database3.sol\":2182:2203  Vaccine(_name, _date) */\n      mload(0x40)\n      dup1\n      0x40\n      add\n      0x40\n      mstore\n      dup1\n        /* \"contracts/_Database3.sol\":2190:2195  _name */\n      dup6\n        /* \"contracts/_Database3.sol\":2182:2203  Vaccine(_name, _date) */\n      dup2\n      mstore\n      0x20\n      add\n        /* \"contracts/_Database3.sol\":2197:2202  _date */\n      dup5\n        /* \"contracts/_Database3.sol\":2182:2203  Vaccine(_name, _date) */\n      dup2\n      mstore\n      pop\n        /* \"contracts/_Database3.sol\":2149:2156  patient */\n      dup3\n        /* \"contracts/_Database3.sol\":2149:2165  patient.vaccines */\n      0x08\n      add\n        /* \"contracts/_Database3.sol\":2149:2179  patient.vaccines[vaccineIndex] */\n      0x00\n        /* \"contracts/_Database3.sol\":2166:2178  vaccineIndex */\n      dup4\n        /* \"contracts/_Database3.sol\":2149:2179  patient.vaccines[vaccineIndex] */\n      dup2\n      mstore\n      0x20\n      add\n      swap1\n      dup2\n      mstore\n      0x20\n      add\n      0x00\n      keccak256\n        /* \"contracts/_Database3.sol\":2149:2203  patient.vaccines[vaccineIndex] = Vaccine(_name, _date) */\n      0x00\n      dup3\n      add\n      mload\n      dup2\n      0x00\n      add\n      swap1\n      dup2\n      tag_96\n      swap2\n      swap1\n      tag_77\n      jump\t// in\n    tag_96:\n      pop\n      0x20\n      dup3\n      add\n      mload\n      dup2\n      0x01\n      add\n      swap1\n      dup2\n      tag_97\n      swap2\n      swap1\n      tag_77\n      jump\t// in\n    tag_97:\n      pop\n      swap1\n      pop\n      pop\n        /* \"contracts/_Database3.sol\":2214:2221  patient */\n      dup2\n        /* \"contracts/_Database3.sol\":2214:2234  patient.vaccineCount */\n      0x09\n      add\n      0x00\n        /* \"contracts/_Database3.sol\":2214:2236  patient.vaccineCount++ */\n      dup2\n      sload\n      dup1\n      swap3\n      swap2\n      swap1\n      tag_98\n      swap1\n      tag_99\n      jump\t// in\n    tag_98:\n      swap2\n      swap1\n      pop\n      sstore\n      pop\n        /* \"contracts/_Database3.sol\":2032:2244  {... */\n      pop\n      pop\n        /* \"contracts/_Database3.sol\":1905:2244  function updateVaccine(... */\n      pop\n      pop\n      pop\n      jump\t// out\n        /* \"contracts/_Database3.sol\":1590:1897  function updateAllergies(... */\n    tag_37:\n        /* \"contracts/_Database3.sol\":1773:1796  Patient storage patient */\n      0x00\n        /* \"contracts/_Database3.sol\":1799:1807  patients */\n      dup1\n        /* \"contracts/_Database3.sol\":1808:1813  _p_id */\n      dup6\n        /* \"contracts/_Database3.sol\":1799:1814  patients[_p_id] */\n      mload(0x40)\n      tag_101\n      swap2\n      swap1\n      tag_74\n      jump\t// in\n    tag_101:\n      swap1\n      dup2\n      mstore\n      0x20\n      add\n      mload(0x40)\n      dup1\n      swap2\n      sub\n      swap1\n      keccak256\n        /* \"contracts/_Database3.sol\":1773:1814  Patient storage patient = patients[_p_id] */\n      swap1\n      pop\n        /* \"contracts/_Database3.sol\":1852:1889  Allergies(_food, _medicines, _others) */\n      mload(0x40)\n      dup1\n      0x60\n      add\n      0x40\n      mstore\n      dup1\n        /* \"contracts/_Database3.sol\":1862:1867  _food */\n      dup6\n        /* \"contracts/_Database3.sol\":1852:1889  Allergies(_food, _medicines, _others) */\n      dup2\n      mstore\n      0x20\n      add\n        /* \"contracts/_Database3.sol\":1869:1879  _medicines */\n      dup5\n        /* \"contracts/_Database3.sol\":1852:1889  Allergies(_food, _medicines, _others) */\n      dup2\n      mstore\n      0x20\n      add\n        /* \"contracts/_Database3.sol\":1881:1888  _others */\n      dup4\n        /* \"contracts/_Database3.sol\":1852:1889  Allergies(_food, _medicines, _others) */\n      dup2\n      mstore\n      pop\n        /* \"contracts/_Database3.sol\":1825:1832  patient */\n      dup2\n        /* \"contracts/_Database3.sol\":1825:1842  patient.allergies */\n      0x04\n      add\n        /* \"contracts/_Database3.sol\":1843:1848  _p_id */\n      dup7\n        /* \"contracts/_Database3.sol\":1825:1849  patient.allergies[_p_id] */\n      mload(0x40)\n      tag_102\n      swap2\n      swap1\n      tag_74\n      jump\t// in\n    tag_102:\n      swap1\n      dup2\n      mstore\n      0x20\n      add\n      mload(0x40)\n      dup1\n      swap2\n      sub\n      swap1\n      keccak256\n        /* \"contracts/_Database3.sol\":1825:1889  patient.allergies[_p_id] = Allergies(_food, _medicines, _others) */\n      0x00\n      dup3\n      add\n      mload\n      dup2\n      0x00\n      add\n      swap1\n      dup1\n      mload\n      swap1\n      0x20\n      add\n      swap1\n      tag_103\n      swap3\n      swap2\n      swap1\n      tag_104\n      jump\t// in\n    tag_103:\n      pop\n      0x20\n      dup3\n      add\n      mload\n      dup2\n      0x01\n      add\n      swap1\n      dup1\n      mload\n      swap1\n      0x20\n      add\n      swap1\n      tag_105\n      swap3\n      swap2\n      swap1\n      tag_104\n      jump\t// in\n    tag_105:\n      pop\n      0x40\n      dup3\n      add\n      mload\n      dup2\n      0x02\n      add\n      swap1\n      dup1\n      mload\n      swap1\n      0x20\n      add\n      swap1\n      tag_106\n      swap3\n      swap2\n      swap1\n      tag_104\n      jump\t// in\n    tag_106:\n      pop\n      swap1\n      pop\n      pop\n        /* \"contracts/_Database3.sol\":1762:1897  {... */\n      pop\n        /* \"contracts/_Database3.sol\":1590:1897  function updateAllergies(... */\n      pop\n      pop\n      pop\n      pop\n      jump\t// out\n        /* \"contracts/_Database3.sol\":5249:5679  function getPatientInfo(string memory _p_id)... */\n    tag_41:\n        /* \"contracts/_Database3.sol\":5356:5369  string memory */\n      0x60\n        /* \"contracts/_Database3.sol\":5384:5391  uint256 */\n      0x00\n        /* \"contracts/_Database3.sol\":5406:5419  string memory */\n      0x60\n        /* \"contracts/_Database3.sol\":5434:5447  string memory */\n      dup1\n        /* \"contracts/_Database3.sol\":5475:5498  Patient storage patient */\n      0x00\n        /* \"contracts/_Database3.sol\":5501:5509  patients */\n      dup1\n        /* \"contracts/_Database3.sol\":5510:5515  _p_id */\n      dup7\n        /* \"contracts/_Database3.sol\":5501:5516  patients[_p_id] */\n      mload(0x40)\n      tag_108\n      swap2\n      swap1\n      tag_74\n      jump\t// in\n    tag_108:\n      swap1\n      dup2\n      mstore\n      0x20\n      add\n      mload(0x40)\n      dup1\n      swap2\n      sub\n      swap1\n      keccak256\n        /* \"contracts/_Database3.sol\":5475:5516  Patient storage patient = patients[_p_id] */\n      swap1\n      pop\n        /* \"contracts/_Database3.sol\":5549:5556  patient */\n      dup1\n        /* \"contracts/_Database3.sol\":5549:5561  patient.name */\n      0x00\n      add\n        /* \"contracts/_Database3.sol\":5576:5583  patient */\n      dup2\n        /* \"contracts/_Database3.sol\":5576:5587  patient.age */\n      0x01\n      add\n      sload\n        /* \"contracts/_Database3.sol\":5602:5609  patient */\n      dup3\n        /* \"contracts/_Database3.sol\":5602:5627  patient.specialConditions */\n      0x02\n      add\n        /* \"contracts/_Database3.sol\":5642:5649  patient */\n      dup4\n        /* \"contracts/_Database3.sol\":5642:5660  patient.bloodGroup */\n      0x03\n      add\n        /* \"contracts/_Database3.sol\":5527:5671  return (... */\n      dup4\n      dup1\n      sload\n      tag_109\n      swap1\n      tag_84\n      jump\t// in\n    tag_109:\n      dup1\n      0x1f\n      add\n      0x20\n      dup1\n      swap2\n      div\n      mul\n      0x20\n      add\n      mload(0x40)\n      swap1\n      dup2\n      add\n      0x40\n      mstore\n      dup1\n      swap3\n      swap2\n      swap1\n      dup2\n      dup2\n      mstore\n      0x20\n      add\n      dup3\n      dup1\n      sload\n      tag_110\n      swap1\n      tag_84\n      jump\t// in\n    tag_110:\n      dup1\n      iszero\n      tag_111\n      jumpi\n      dup1\n      0x1f\n      lt\n      tag_112\n      jumpi\n      0x0100\n      dup1\n      dup4\n      sload\n      div\n      mul\n      dup4\n      mstore\n      swap2\n      0x20\n      add\n      swap2\n      jump(tag_111)\n    tag_112:\n      dup3\n      add\n      swap2\n      swap1\n      0x00\n      mstore\n      keccak256(0x00, 0x20)\n      swap1\n    tag_113:\n      dup2\n      sload\n      dup2\n      mstore\n      swap1\n      0x01\n      add\n      swap1\n      0x20\n      add\n      dup1\n      dup4\n      gt\n      tag_113\n      jumpi\n      dup3\n      swap1\n      sub\n      0x1f\n      and\n      dup3\n      add\n      swap2\n    tag_111:\n      pop\n      pop\n      pop\n      pop\n      pop\n      swap4\n      pop\n      dup2\n      dup1\n      sload\n      tag_114\n      swap1\n      tag_84\n      jump\t// in\n    tag_114:\n      dup1\n      0x1f\n      add\n      0x20\n      dup1\n      swap2\n      div\n      mul\n      0x20\n      add\n      mload(0x40)\n      swap1\n      dup2\n      add\n      0x40\n      mstore\n      dup1\n      swap3\n      swap2\n      swap1\n      dup2\n      dup2\n      mstore\n      0x20\n      add\n      dup3\n      dup1\n      sload\n      tag_115\n      swap1\n      tag_84\n      jump\t// in\n    tag_115:\n      dup1\n      iszero\n      tag_116\n      jumpi\n      dup1\n      0x1f\n      lt\n      tag_117\n      jumpi\n      0x0100\n      dup1\n      dup4\n      sload\n      div\n      mul\n      dup4\n      mstore\n      swap2\n      0x20\n      add\n      swap2\n      jump(tag_116)\n    tag_117:\n      dup3\n      add\n      swap2\n      swap1\n      0x00\n      mstore\n      keccak256(0x00, 0x20)\n      swap1\n    tag_118:\n      dup2\n      sload\n      dup2\n      mstore\n      swap1\n      0x01\n      add\n      swap1\n      0x20\n      add\n      dup1\n      dup4\n      gt\n      tag_118\n      jumpi\n      dup3\n      swap1\n      sub\n      0x1f\n      and\n      dup3\n      add\n      swap2\n    tag_116:\n      pop\n      pop\n      pop\n      pop\n      pop\n      swap2\n      pop\n      dup1\n      dup1\n      sload\n      tag_119\n      swap1\n      tag_84\n      jump\t// in\n    tag_119:\n      dup1\n      0x1f\n      add\n      0x20\n      dup1\n      swap2\n      div\n      mul\n      0x20\n      add\n      mload(0x40)\n      swap1\n      dup2\n      add\n      0x40\n      mstore\n      dup1\n      swap3\n      swap2\n      swap1\n      dup2\n      dup2\n      mstore\n      0x20\n      add\n      dup3\n      dup1\n      sload\n      tag_120\n      swap1\n      tag_84\n      jump\t// in\n    tag_120:\n      dup1\n      iszero\n      tag_121\n      jumpi\n      dup1\n      0x1f\n      lt\n      tag_122\n      jumpi\n      0x0100\n      dup1\n      dup4\n      sload\n      div\n      mul\n      dup4\n      mstore\n      swap2\n      0x20\n      add\n      swap2\n      jump(tag_121)\n    tag_122:\n      dup3\n      add\n      swap2\n      swap1\n      0x00\n      mstore\n      keccak256(0x00, 0x20)\n      swap1\n    tag_123:\n      dup2\n      sload\n      dup2\n      mstore\n      swap1\n      0x01\n      add\n      swap1\n      0x20\n      add\n      dup1\n      dup4\n      gt\n      tag_123\n      jumpi\n      dup3\n      swap1\n      sub\n      0x1f\n      and\n      dup3\n      add\n      swap2\n    tag_121:\n      pop\n      pop\n      pop\n      pop\n      pop\n      swap1\n      pop\n      swap5\n      pop\n      swap5\n      pop\n      swap5\n      pop\n      swap5\n      pop\n      pop\n        /* \"contracts/_Database3.sol\":5249:5679  function getPatientInfo(string memory _p_id)... */\n      swap2\n      swap4\n      pop\n      swap2\n      swap4\n      jump\t// out\n        /* \"contracts/_Database3.sol\":4335:4557  function getPrescriptions(string memory _p_id)... */\n    tag_46:\n        /* \"contracts/_Database3.sol\":4430:4451  Prescription[] memory */\n      0x60\n        /* \"contracts/_Database3.sol\":4469:4492  Patient storage patient */\n      0x00\n        /* \"contracts/_Database3.sol\":4495:4503  patients */\n      dup1\n        /* \"contracts/_Database3.sol\":4504:4509  _p_id */\n      dup4\n        /* \"contracts/_Database3.sol\":4495:4510  patients[_p_id] */\n      mload(0x40)\n      tag_125\n      swap2\n      swap1\n      tag_74\n      jump\t// in\n    tag_125:\n      swap1\n      dup2\n      mstore\n      0x20\n      add\n      mload(0x40)\n      dup1\n      swap2\n      sub\n      swap1\n      keccak256\n        /* \"contracts/_Database3.sol\":4469:4510  Patient storage patient = patients[_p_id] */\n      swap1\n      pop\n        /* \"contracts/_Database3.sol\":4528:4535  patient */\n      dup1\n        /* \"contracts/_Database3.sol\":4528:4549  patient.prescriptions */\n      0x05\n      add\n        /* \"contracts/_Database3.sol\":4521:4549  return patient.prescriptions */\n      dup1\n      sload\n      dup1\n      0x20\n      mul\n      0x20\n      add\n      mload(0x40)\n      swap1\n      dup2\n      add\n      0x40\n      mstore\n      dup1\n      swap3\n      swap2\n      swap1\n      dup2\n      dup2\n      mstore\n      0x20\n      add\n      0x00\n      swap1\n    tag_126:\n      dup3\n      dup3\n      lt\n      iszero\n      tag_127\n      jumpi\n      dup4\n      dup3\n      swap1\n      0x00\n      mstore\n      keccak256(0x00, 0x20)\n      swap1\n      0x06\n      mul\n      add\n      mload(0x40)\n      dup1\n      0xc0\n      add\n      0x40\n      mstore\n      swap1\n      dup2\n      0x00\n      dup3\n      add\n      dup1\n      sload\n      tag_129\n      swap1\n      tag_84\n      jump\t// in\n    tag_129:\n      dup1\n      0x1f\n      add\n      0x20\n      dup1\n      swap2\n      div\n      mul\n      0x20\n      add\n      mload(0x40)\n      swap1\n      dup2\n      add\n      0x40\n      mstore\n      dup1\n      swap3\n      swap2\n      swap1\n      dup2\n      dup2\n      mstore\n      0x20\n      add\n      dup3\n      dup1\n      sload\n      tag_130\n      swap1\n      tag_84\n      jump\t// in\n    tag_130:\n      dup1\n      iszero\n      tag_131\n      jumpi\n      dup1\n      0x1f\n      lt\n      tag_132\n      jumpi\n      0x0100\n      dup1\n      dup4\n      sload\n      div\n      mul\n      dup4\n      mstore\n      swap2\n      0x20\n      add\n      swap2\n      jump(tag_131)\n    tag_132:\n      dup3\n      add\n      swap2\n      swap1\n      0x00\n      mstore\n      keccak256(0x00, 0x20)\n      swap1\n    tag_133:\n      dup2\n      sload\n      dup2\n      mstore\n      swap1\n      0x01\n      add\n      swap1\n      0x20\n      add\n      dup1\n      dup4\n      gt\n      tag_133\n      jumpi\n      dup3\n      swap1\n      sub\n      0x1f\n      and\n      dup3\n      add\n      swap2\n    tag_131:\n      pop\n      pop\n      pop\n      pop\n      pop\n      dup2\n      mstore\n      0x20\n      add\n      0x01\n      dup3\n      add\n      dup1\n      sload\n      tag_134\n      swap1\n      tag_84\n      jump\t// in\n    tag_134:\n      dup1\n      0x1f\n      add\n      0x20\n      dup1\n      swap2\n      div\n      mul\n      0x20\n      add\n      mload(0x40)\n      swap1\n      dup2\n      add\n      0x40\n      mstore\n      dup1\n      swap3\n      swap2\n      swap1\n      dup2\n      dup2\n      mstore\n      0x20\n      add\n      dup3\n      dup1\n      sload\n      tag_135\n      swap1\n      tag_84\n      jump\t// in\n    tag_135:\n      dup1\n      iszero\n      tag_136\n      jumpi\n      dup1\n      0x1f\n      lt\n      tag_137\n      jumpi\n      0x0100\n      dup1\n      dup4\n      sload\n      div\n      mul\n      dup4\n      mstore\n      swap2\n      0x20\n      add\n      swap2\n      jump(tag_136)\n    tag_137:\n      dup3\n      add\n      swap2\n      swap1\n      0x00\n      mstore\n      keccak256(0x00, 0x20)\n      swap1\n    tag_138:\n      dup2\n      sload\n      dup2\n      mstore\n      swap1\n      0x01\n      add\n      swap1\n      0x20\n      add\n      dup1\n      dup4\n      gt\n      tag_138\n      jumpi\n      dup3\n      swap1\n      sub\n      0x1f\n      and\n      dup3\n      add\n      swap2\n    tag_136:\n      pop\n      pop\n      pop\n      pop\n      pop\n      dup2\n      mstore\n      0x20\n      add\n      0x02\n      dup3\n      add\n      sload\n      dup2\n      mstore\n      0x20\n      add\n      0x03\n      dup3\n      add\n      dup1\n      sload\n      tag_139\n      swap1\n      tag_84\n      jump\t// in\n    tag_139:\n      dup1\n      0x1f\n      add\n      0x20\n      dup1\n      swap2\n      div\n      mul\n      0x20\n      add\n      mload(0x40)\n      swap1\n      dup2\n      add\n      0x40\n      mstore\n      dup1\n      swap3\n      swap2\n      swap1\n      dup2\n      dup2\n      mstore\n      0x20\n      add\n      dup3\n      dup1\n      sload\n      tag_140\n      swap1\n      tag_84\n      jump\t// in\n    tag_140:\n      dup1\n      iszero\n      tag_141\n      jumpi\n      dup1\n      0x1f\n      lt\n      tag_142\n      jumpi\n      0x0100\n      dup1\n      dup4\n      sload\n      div\n      mul\n      dup4\n      mstore\n      swap2\n      0x20\n      add\n      swap2\n      jump(tag_141)\n    tag_142:\n      dup3\n      add\n      swap2\n      swap1\n      0x00\n      mstore\n      keccak256(0x00, 0x20)\n      swap1\n    tag_143:\n      dup2\n      sload\n      dup2\n      mstore\n      swap1\n      0x01\n      add\n      swap1\n      0x20\n      add\n      dup1\n      dup4\n      gt\n      tag_143\n      jumpi\n      dup3\n      swap1\n      sub\n      0x1f\n      and\n      dup3\n      add\n      swap2\n    tag_141:\n      pop\n      pop\n      pop\n      pop\n      pop\n      dup2\n      mstore\n      0x20\n      add\n      0x04\n      dup3\n      add\n      dup1\n      sload\n      tag_144\n      swap1\n      tag_84\n      jump\t// in\n    tag_144:\n      dup1\n      0x1f\n      add\n      0x20\n      dup1\n      swap2\n      div\n      mul\n      0x20\n      add\n      mload(0x40)\n      swap1\n      dup2\n      add\n      0x40\n      mstore\n      dup1\n      swap3\n      swap2\n      swap1\n      dup2\n      dup2\n      mstore\n      0x20\n      add\n      dup3\n      dup1\n      sload\n      tag_145\n      swap1\n      tag_84\n      jump\t// in\n    tag_145:\n      dup1\n      iszero\n      tag_146\n      jumpi\n      dup1\n      0x1f\n      lt\n      tag_147\n      jumpi\n      0x0100\n      dup1\n      dup4\n      sload\n      div\n      mul\n      dup4\n      mstore\n      swap2\n      0x20\n      add\n      swap2\n      jump(tag_146)\n    tag_147:\n      dup3\n      add\n      swap2\n      swap1\n      0x00\n      mstore\n      keccak256(0x00, 0x20)\n      swap1\n    tag_148:\n      dup2\n      sload\n      dup2\n      mstore\n      swap1\n      0x01\n      add\n      swap1\n      0x20\n      add\n      dup1\n      dup4\n      gt\n      tag_148\n      jumpi\n      dup3\n      swap1\n      sub\n      0x1f\n      and\n      dup3\n      add\n      swap2\n    tag_146:\n      pop\n      pop\n      pop\n      pop\n      pop\n      dup2\n      mstore\n      0x20\n      add\n      0x05\n      dup3\n      add\n      0x00\n      swap1\n      sload\n      swap1\n      0x0100\n      exp\n      swap1\n      div\n      0xff\n      and\n      iszero\n      iszero\n      iszero\n      iszero\n      dup2\n      mstore\n      pop\n      pop\n      dup2\n      mstore\n      0x20\n      add\n      swap1\n      0x01\n      add\n      swap1\n      jump(tag_126)\n    tag_127:\n      pop\n      pop\n      pop\n      pop\n      swap2\n      pop\n      pop\n        /* \"contracts/_Database3.sol\":4335:4557  function getPrescriptions(string memory _p_id)... */\n      swap2\n      swap1\n      pop\n      jump\t// out\n        /* \"contracts/_Database3.sol\":3753:4327  function getVaccines(string memory _p_id)... */\n    tag_51:\n        /* \"contracts/_Database3.sol\":3843:3858  string[] memory */\n      0x60\n        /* \"contracts/_Database3.sol\":3860:3875  string[] memory */\n      dup1\n        /* \"contracts/_Database3.sol\":3893:3916  Patient storage patient */\n      0x00\n        /* \"contracts/_Database3.sol\":3919:3927  patients */\n      dup1\n        /* \"contracts/_Database3.sol\":3928:3933  _p_id */\n      dup5\n        /* \"contracts/_Database3.sol\":3919:3934  patients[_p_id] */\n      mload(0x40)\n      tag_150\n      swap2\n      swap1\n      tag_74\n      jump\t// in\n    tag_150:\n      swap1\n      dup2\n      mstore\n      0x20\n      add\n      mload(0x40)\n      dup1\n      swap2\n      sub\n      swap1\n      keccak256\n        /* \"contracts/_Database3.sol\":3893:3934  Patient storage patient = patients[_p_id] */\n      swap1\n      pop\n        /* \"contracts/_Database3.sol\":3945:3958  uint256 count */\n      0x00\n        /* \"contracts/_Database3.sol\":3961:3968  patient */\n      dup2\n        /* \"contracts/_Database3.sol\":3961:3981  patient.vaccineCount */\n      0x09\n      add\n      sload\n        /* \"contracts/_Database3.sol\":3945:3981  uint256 count = patient.vaccineCount */\n      swap1\n      pop\n        /* \"contracts/_Database3.sol\":3992:4013  string[] memory names */\n      0x00\n        /* \"contracts/_Database3.sol\":4029:4034  count */\n      dup2\n        /* \"contracts/_Database3.sol\":4016:4035  new string[](count) */\n      0xffffffffffffffff\n      dup2\n      gt\n      iszero\n      tag_151\n      jumpi\n      tag_152\n      tag_153\n      jump\t// in\n    tag_152:\n    tag_151:\n      mload(0x40)\n      swap1\n      dup1\n      dup3\n      mstore\n      dup1\n      0x20\n      mul\n      0x20\n      add\n      dup3\n      add\n      0x40\n      mstore\n      dup1\n      iszero\n      tag_154\n      jumpi\n      dup2\n      0x20\n      add\n    tag_155:\n      0x60\n      dup2\n      mstore\n      0x20\n      add\n      swap1\n      0x01\n      swap1\n      sub\n      swap1\n      dup2\n      tag_155\n      jumpi\n      swap1\n      pop\n    tag_154:\n      pop\n        /* \"contracts/_Database3.sol\":3992:4035  string[] memory names = new string[](count) */\n      swap1\n      pop\n        /* \"contracts/_Database3.sol\":4046:4067  string[] memory dates */\n      0x00\n        /* \"contracts/_Database3.sol\":4083:4088  count */\n      dup3\n        /* \"contracts/_Database3.sol\":4070:4089  new string[](count) */\n      0xffffffffffffffff\n      dup2\n      gt\n      iszero\n      tag_156\n      jumpi\n      tag_157\n      tag_153\n      jump\t// in\n    tag_157:\n    tag_156:\n      mload(0x40)\n      swap1\n      dup1\n      dup3\n      mstore\n      dup1\n      0x20\n      mul\n      0x20\n      add\n      dup3\n      add\n      0x40\n      mstore\n      dup1\n      iszero\n      tag_158\n      jumpi\n      dup2\n      0x20\n      add\n    tag_159:\n      0x60\n      dup2\n      mstore\n      0x20\n      add\n      swap1\n      0x01\n      swap1\n      sub\n      swap1\n      dup2\n      tag_159\n      jumpi\n      swap1\n      pop\n    tag_158:\n      pop\n        /* \"contracts/_Database3.sol\":4046:4089  string[] memory dates = new string[](count) */\n      swap1\n      pop\n        /* \"contracts/_Database3.sol\":4107:4116  uint256 i */\n      0x00\n        /* \"contracts/_Database3.sol\":4102:4286  for (uint256 i = 0; i < count; i++) {... */\n    tag_160:\n        /* \"contracts/_Database3.sol\":4126:4131  count */\n      dup4\n        /* \"contracts/_Database3.sol\":4122:4123  i */\n      dup2\n        /* \"contracts/_Database3.sol\":4122:4131  i < count */\n      lt\n        /* \"contracts/_Database3.sol\":4102:4286  for (uint256 i = 0; i < count; i++) {... */\n      iszero\n      tag_161\n      jumpi\n        /* \"contracts/_Database3.sol\":4153:4176  Vaccine storage vaccine */\n      0x00\n        /* \"contracts/_Database3.sol\":4179:4186  patient */\n      dup6\n        /* \"contracts/_Database3.sol\":4179:4195  patient.vaccines */\n      0x08\n      add\n        /* \"contracts/_Database3.sol\":4179:4198  patient.vaccines[i] */\n      0x00\n        /* \"contracts/_Database3.sol\":4196:4197  i */\n      dup4\n        /* \"contracts/_Database3.sol\":4179:4198  patient.vaccines[i] */\n      dup2\n      mstore\n      0x20\n      add\n      swap1\n      dup2\n      mstore\n      0x20\n      add\n      0x00\n      keccak256\n        /* \"contracts/_Database3.sol\":4153:4198  Vaccine storage vaccine = patient.vaccines[i] */\n      swap1\n      pop\n        /* \"contracts/_Database3.sol\":4224:4231  vaccine */\n      dup1\n        /* \"contracts/_Database3.sol\":4224:4236  vaccine.name */\n      0x00\n      add\n        /* \"contracts/_Database3.sol\":4213:4236  names[i] = vaccine.name */\n      dup1\n      sload\n      tag_163\n      swap1\n      tag_84\n      jump\t// in\n    tag_163:\n      dup1\n      0x1f\n      add\n      0x20\n      dup1\n      swap2\n      div\n      mul\n      0x20\n      add\n      mload(0x40)\n      swap1\n      dup2\n      add\n      0x40\n      mstore\n      dup1\n      swap3\n      swap2\n      swap1\n      dup2\n      dup2\n      mstore\n      0x20\n      add\n      dup3\n      dup1\n      sload\n      tag_164\n      swap1\n      tag_84\n      jump\t// in\n    tag_164:\n      dup1\n      iszero\n      tag_165\n      jumpi\n      dup1\n      0x1f\n      lt\n      tag_166\n      jumpi\n      0x0100\n      dup1\n      dup4\n      sload\n      div\n      mul\n      dup4\n      mstore\n      swap2\n      0x20\n      add\n      swap2\n      jump(tag_165)\n    tag_166:\n      dup3\n      add\n      swap2\n      swap1\n      0x00\n      mstore\n      keccak256(0x00, 0x20)\n      swap1\n    tag_167:\n      dup2\n      sload\n      dup2\n      mstore\n      swap1\n      0x01\n      add\n      swap1\n      0x20\n      add\n      dup1\n      dup4\n      gt\n      tag_167\n      jumpi\n      dup3\n      swap1\n      sub\n      0x1f\n      and\n      dup3\n      add\n      swap2\n    tag_165:\n      pop\n      pop\n      pop\n      pop\n      pop\n        /* \"contracts/_Database3.sol\":4213:4218  names */\n      dup5\n        /* \"contracts/_Database3.sol\":4219:4220  i */\n      dup4\n        /* \"contracts/_Database3.sol\":4213:4221  names[i] */\n      dup2\n      mload\n      dup2\n      lt\n      tag_168\n      jumpi\n      tag_169\n      tag_170\n      jump\t// in\n    tag_169:\n    tag_168:\n      0x20\n      mul\n      0x20\n      add\n      add\n        /* \"contracts/_Database3.sol\":4213:4236  names[i] = vaccine.name */\n      dup2\n      swap1\n      mstore\n      pop\n        /* \"contracts/_Database3.sol\":4262:4269  vaccine */\n      dup1\n        /* \"contracts/_Database3.sol\":4262:4274  vaccine.date */\n      0x01\n      add\n        /* \"contracts/_Database3.sol\":4251:4274  dates[i] = vaccine.date */\n      dup1\n      sload\n      tag_171\n      swap1\n      tag_84\n      jump\t// in\n    tag_171:\n      dup1\n      0x1f\n      add\n      0x20\n      dup1\n      swap2\n      div\n      mul\n      0x20\n      add\n      mload(0x40)\n      swap1\n      dup2\n      add\n      0x40\n      mstore\n      dup1\n      swap3\n      swap2\n      swap1\n      dup2\n      dup2\n      mstore\n      0x20\n      add\n      dup3\n      dup1\n      sload\n      tag_172\n      swap1\n      tag_84\n      jump\t// in\n    tag_172:\n      dup1\n      iszero\n      tag_173\n      jumpi\n      dup1\n      0x1f\n      lt\n      tag_174\n      jumpi\n      0x0100\n      dup1\n      dup4\n      sload\n      div\n      mul\n      dup4\n      mstore\n      swap2\n      0x20\n      add\n      swap2\n      jump(tag_173)\n    tag_174:\n      dup3\n      add\n      swap2\n      swap1\n      0x00\n      mstore\n      keccak256(0x00, 0x20)\n      swap1\n    tag_175:\n      dup2\n      sload\n      dup2\n      mstore\n      swap1\n      0x01\n      add\n      swap1\n      0x20\n      add\n      dup1\n      dup4\n      gt\n      tag_175\n      jumpi\n      dup3\n      swap1\n      sub\n      0x1f\n      and\n      dup3\n      add\n      swap2\n    tag_173:\n      pop\n      pop\n      pop\n      pop\n      pop\n        /* \"contracts/_Database3.sol\":4251:4256  dates */\n      dup4\n        /* \"contracts/_Database3.sol\":4257:4258  i */\n      dup4\n        /* \"contracts/_Database3.sol\":4251:4259  dates[i] */\n      dup2\n      mload\n      dup2\n      lt\n      tag_176\n      jumpi\n      tag_177\n      tag_170\n      jump\t// in\n    tag_177:\n    tag_176:\n      0x20\n      mul\n      0x20\n      add\n      add\n        /* \"contracts/_Database3.sol\":4251:4274  dates[i] = vaccine.date */\n      dup2\n      swap1\n      mstore\n      pop\n        /* \"contracts/_Database3.sol\":4138:4286  {... */\n      pop\n        /* \"contracts/_Database3.sol\":4133:4136  i++ */\n      dup1\n      dup1\n      tag_178\n      swap1\n      tag_99\n      jump\t// in\n    tag_178:\n      swap2\n      pop\n      pop\n        /* \"contracts/_Database3.sol\":4102:4286  for (uint256 i = 0; i < count; i++) {... */\n      jump(tag_160)\n    tag_161:\n      pop\n        /* \"contracts/_Database3.sol\":4306:4311  names */\n      dup2\n        /* \"contracts/_Database3.sol\":4313:4318  dates */\n      dup2\n        /* \"contracts/_Database3.sol\":4298:4319  return (names, dates) */\n      swap6\n      pop\n      swap6\n      pop\n      pop\n      pop\n      pop\n      pop\n        /* \"contracts/_Database3.sol\":3753:4327  function getVaccines(string memory _p_id)... */\n      swap2\n      pop\n      swap2\n      jump\t// out\n        /* \"contracts/_Database3.sol\":4565:4899  function getBloodPressure(string memory _p_id, uint256 _index)... */\n    tag_56:\n        /* \"contracts/_Database3.sol\":4676:4689  string memory */\n      0x60\n        /* \"contracts/_Database3.sol\":4691:4698  uint256 */\n      0x00\n        /* \"contracts/_Database3.sol\":4700:4707  uint256 */\n      dup1\n        /* \"contracts/_Database3.sol\":4709:4716  uint256 */\n      0x00\n        /* \"contracts/_Database3.sol\":4734:4757  Patient storage patient */\n      dup1\n        /* \"contracts/_Database3.sol\":4760:4768  patients */\n      0x00\n        /* \"contracts/_Database3.sol\":4769:4774  _p_id */\n      dup8\n        /* \"contracts/_Database3.sol\":4760:4775  patients[_p_id] */\n      mload(0x40)\n      tag_180\n      swap2\n      swap1\n      tag_74\n      jump\t// in\n    tag_180:\n      swap1\n      dup2\n      mstore\n      0x20\n      add\n      mload(0x40)\n      dup1\n      swap2\n      sub\n      swap1\n      keccak256\n        /* \"contracts/_Database3.sol\":4734:4775  Patient storage patient = patients[_p_id] */\n      swap1\n      pop\n        /* \"contracts/_Database3.sol\":4786:4810  BloodPressure storage bp */\n      0x00\n        /* \"contracts/_Database3.sol\":4813:4820  patient */\n      dup2\n        /* \"contracts/_Database3.sol\":4813:4835  patient.bloodPressures */\n      0x06\n      add\n        /* \"contracts/_Database3.sol\":4813:4843  patient.bloodPressures[_index] */\n      0x00\n        /* \"contracts/_Database3.sol\":4836:4842  _index */\n      dup9\n        /* \"contracts/_Database3.sol\":4813:4843  patient.bloodPressures[_index] */\n      dup2\n      mstore\n      0x20\n      add\n      swap1\n      dup2\n      mstore\n      0x20\n      add\n      0x00\n      keccak256\n        /* \"contracts/_Database3.sol\":4786:4843  BloodPressure storage bp = patient.bloodPressures[_index] */\n      swap1\n      pop\n        /* \"contracts/_Database3.sol\":4862:4864  bp */\n      dup1\n        /* \"contracts/_Database3.sol\":4862:4869  bp.date */\n      0x00\n      add\n        /* \"contracts/_Database3.sol\":4871:4873  bp */\n      dup2\n        /* \"contracts/_Database3.sol\":4871:4876  bp.SP */\n      0x01\n      add\n      sload\n        /* \"contracts/_Database3.sol\":4878:4880  bp */\n      dup3\n        /* \"contracts/_Database3.sol\":4878:4883  bp.DP */\n      0x02\n      add\n      sload\n        /* \"contracts/_Database3.sol\":4885:4887  bp */\n      dup4\n        /* \"contracts/_Database3.sol\":4885:4890  bp.HB */\n      0x03\n      add\n      sload\n        /* \"contracts/_Database3.sol\":4854:4891  return (bp.date, bp.SP, bp.DP, bp.HB) */\n      dup4\n      dup1\n      sload\n      tag_181\n      swap1\n      tag_84\n      jump\t// in\n    tag_181:\n      dup1\n      0x1f\n      add\n      0x20\n      dup1\n      swap2\n      div\n      mul\n      0x20\n      add\n      mload(0x40)\n      swap1\n      dup2\n      add\n      0x40\n      mstore\n      dup1\n      swap3\n      swap2\n      swap1\n      dup2\n      dup2\n      mstore\n      0x20\n      add\n      dup3\n      dup1\n      sload\n      tag_182\n      swap1\n      tag_84\n      jump\t// in\n    tag_182:\n      dup1\n      iszero\n      tag_183\n      jumpi\n      dup1\n      0x1f\n      lt\n      tag_184\n      jumpi\n      0x0100\n      dup1\n      dup4\n      sload\n      div\n      mul\n      dup4\n      mstore\n      swap2\n      0x20\n      add\n      swap2\n      jump(tag_183)\n    tag_184:\n      dup3\n      add\n      swap2\n      swap1\n      0x00\n      mstore\n      keccak256(0x00, 0x20)\n      swap1\n    tag_185:\n      dup2\n      sload\n      dup2\n      mstore\n      swap1\n      0x01\n      add\n      swap1\n      0x20\n      add\n      dup1\n      dup4\n      gt\n      tag_185\n      jumpi\n      dup3\n      swap1\n      sub\n      0x1f\n      and\n      dup3\n      add\n      swap2\n    tag_183:\n      pop\n      pop\n      pop\n      pop\n      pop\n      swap4\n      pop\n      swap6\n      pop\n      swap6\n      pop\n      swap6\n      pop\n      swap6\n      pop\n      pop\n      pop\n        /* \"contracts/_Database3.sol\":4565:4899  function getBloodPressure(string memory _p_id, uint256 _index)... */\n      swap3\n      swap6\n      swap2\n      swap5\n      pop\n      swap3\n      pop\n      jump\t// out\n        /* \"contracts/_Database3.sol\":3400:3745  function getAllergies(string memory _p_id)... */\n    tag_61:\n        /* \"contracts/_Database3.sol\":3491:3506  string[] memory */\n      0x60\n        /* \"contracts/_Database3.sol\":3508:3523  string[] memory */\n      dup1\n        /* \"contracts/_Database3.sol\":3525:3540  string[] memory */\n      0x60\n        /* \"contracts/_Database3.sol\":3558:3581  Patient storage patient */\n      0x00\n        /* \"contracts/_Database3.sol\":3584:3592  patients */\n      dup1\n        /* \"contracts/_Database3.sol\":3593:3598  _p_id */\n      dup6\n        /* \"contracts/_Database3.sol\":3584:3599  patients[_p_id] */\n      mload(0x40)\n      tag_187\n      swap2\n      swap1\n      tag_74\n      jump\t// in\n    tag_187:\n      swap1\n      dup2\n      mstore\n      0x20\n      add\n      mload(0x40)\n      dup1\n      swap2\n      sub\n      swap1\n      keccak256\n        /* \"contracts/_Database3.sol\":3558:3599  Patient storage patient = patients[_p_id] */\n      swap1\n      pop\n        /* \"contracts/_Database3.sol\":3610:3637  Allergies storage allergies */\n      0x00\n        /* \"contracts/_Database3.sol\":3640:3647  patient */\n      dup2\n        /* \"contracts/_Database3.sol\":3640:3657  patient.allergies */\n      0x04\n      add\n        /* \"contracts/_Database3.sol\":3658:3663  _p_id */\n      dup7\n        /* \"contracts/_Database3.sol\":3640:3664  patient.allergies[_p_id] */\n      mload(0x40)\n      tag_188\n      swap2\n      swap1\n      tag_74\n      jump\t// in\n    tag_188:\n      swap1\n      dup2\n      mstore\n      0x20\n      add\n      mload(0x40)\n      dup1\n      swap2\n      sub\n      swap1\n      keccak256\n        /* \"contracts/_Database3.sol\":3610:3664  Allergies storage allergies = patient.allergies[_p_id] */\n      swap1\n      pop\n        /* \"contracts/_Database3.sol\":3683:3692  allergies */\n      dup1\n        /* \"contracts/_Database3.sol\":3683:3697  allergies.food */\n      0x00\n      add\n        /* \"contracts/_Database3.sol\":3699:3708  allergies */\n      dup2\n        /* \"contracts/_Database3.sol\":3699:3718  allergies.medicines */\n      0x01\n      add\n        /* \"contracts/_Database3.sol\":3720:3729  allergies */\n      dup3\n        /* \"contracts/_Database3.sol\":3720:3736  allergies.others */\n      0x02\n      add\n        /* \"contracts/_Database3.sol\":3675:3737  return (allergies.food, allergies.medicines, allergies.others) */\n      dup3\n      dup1\n      sload\n      dup1\n      0x20\n      mul\n      0x20\n      add\n      mload(0x40)\n      swap1\n      dup2\n      add\n      0x40\n      mstore\n      dup1\n      swap3\n      swap2\n      swap1\n      dup2\n      dup2\n      mstore\n      0x20\n      add\n      0x00\n      swap1\n    tag_189:\n      dup3\n      dup3\n      lt\n      iszero\n      tag_190\n      jumpi\n      dup4\n      dup3\n      swap1\n      0x00\n      mstore\n      keccak256(0x00, 0x20)\n      add\n      dup1\n      sload\n      tag_192\n      swap1\n      tag_84\n      jump\t// in\n    tag_192:\n      dup1\n      0x1f\n      add\n      0x20\n      dup1\n      swap2\n      div\n      mul\n      0x20\n      add\n      mload(0x40)\n      swap1\n      dup2\n      add\n      0x40\n      mstore\n      dup1\n      swap3\n      swap2\n      swap1\n      dup2\n      dup2\n      mstore\n      0x20\n      add\n      dup3\n      dup1\n      sload\n      tag_193\n      swap1\n      tag_84\n      jump\t// in\n    tag_193:\n      dup1\n      iszero\n      tag_194\n      jumpi\n      dup1\n      0x1f\n      lt\n      tag_195\n      jumpi\n      0x0100\n      dup1\n      dup4\n      sload\n      div\n      mul\n      dup4\n      mstore\n      swap2\n      0x20\n      add\n      swap2\n      jump(tag_194)\n    tag_195:\n      dup3\n      add\n      swap2\n      swap1\n      0x00\n      mstore\n      keccak256(0x00, 0x20)\n      swap1\n    tag_196:\n      dup2\n      sload\n      dup2\n      mstore\n      swap1\n      0x01\n      add\n      swap1\n      0x20\n      add\n      dup1\n      dup4\n      gt\n      tag_196\n      jumpi\n      dup3\n      swap1\n      sub\n      0x1f\n      and\n      dup3\n      add\n      swap2\n    tag_194:\n      pop\n      pop\n      pop\n      pop\n      pop\n      dup2\n      mstore\n      0x20\n      add\n      swap1\n      0x01\n      add\n      swap1\n      jump(tag_189)\n    tag_190:\n      pop\n      pop\n      pop\n      pop\n      swap3\n      pop\n      dup2\n      dup1\n      sload\n      dup1\n      0x20\n      mul\n      0x20\n      add\n      mload(0x40)\n      swap1\n      dup2\n      add\n      0x40\n      mstore\n      dup1\n      swap3\n      swap2\n      swap1\n      dup2\n      dup2\n      mstore\n      0x20\n      add\n      0x00\n      swap1\n    tag_197:\n      dup3\n      dup3\n      lt\n      iszero\n      tag_198\n      jumpi\n      dup4\n      dup3\n      swap1\n      0x00\n      mstore\n      keccak256(0x00, 0x20)\n      add\n      dup1\n      sload\n      tag_200\n      swap1\n      tag_84\n      jump\t// in\n    tag_200:\n      dup1\n      0x1f\n      add\n      0x20\n      dup1\n      swap2\n      div\n      mul\n      0x20\n      add\n      mload(0x40)\n      swap1\n      dup2\n      add\n      0x40\n      mstore\n      dup1\n      swap3\n      swap2\n      swap1\n      dup2\n      dup2\n      mstore\n      0x20\n      add\n      dup3\n      dup1\n      sload\n      tag_201\n      swap1\n      tag_84\n      jump\t// in\n    tag_201:\n      dup1\n      iszero\n      tag_202\n      jumpi\n      dup1\n      0x1f\n      lt\n      tag_203\n      jumpi\n      0x0100\n      dup1\n      dup4\n      sload\n      div\n      mul\n      dup4\n      mstore\n      swap2\n      0x20\n      add\n      swap2\n      jump(tag_202)\n    tag_203:\n      dup3\n      add\n      swap2\n      swap1\n      0x00\n      mstore\n      keccak256(0x00, 0x20)\n      swap1\n    tag_204:\n      dup2\n      sload\n      dup2\n      mstore\n      swap1\n      0x01\n      add\n      swap1\n      0x20\n      add\n      dup1\n      dup4\n      gt\n      tag_204\n      jumpi\n      dup3\n      swap1\n      sub\n      0x1f\n      and\n      dup3\n      add\n      swap2\n    tag_202:\n      pop\n      pop\n      pop\n      pop\n      pop\n      dup2\n      mstore\n      0x20\n      add\n      swap1\n      0x01\n      add\n      swap1\n      jump(tag_197)\n    tag_198:\n      pop\n      pop\n      pop\n      pop\n      swap2\n      pop\n      dup1\n      dup1\n      sload\n      dup1\n      0x20\n      mul\n      0x20\n      add\n      mload(0x40)\n      swap1\n      dup2\n      add\n      0x40\n      mstore\n      dup1\n      swap3\n      swap2\n      swap1\n      dup2\n      dup2\n      mstore\n      0x20\n      add\n      0x00\n      swap1\n    tag_205:\n      dup3\n      dup3\n      lt\n      iszero\n      tag_206\n      jumpi\n      dup4\n      dup3\n      swap1\n      0x00\n      mstore\n      keccak256(0x00, 0x20)\n      add\n      dup1\n      sload\n      tag_208\n      swap1\n      tag_84\n      jump\t// in\n    tag_208:\n      dup1\n      0x1f\n      add\n      0x20\n      dup1\n      swap2\n      div\n      mul\n      0x20\n      add\n      mload(0x40)\n      swap1\n      dup2\n      add\n      0x40\n      mstore\n      dup1\n      swap3\n      swap2\n      swap1\n      dup2\n      dup2\n      mstore\n      0x20\n      add\n      dup3\n      dup1\n      sload\n      tag_209\n      swap1\n      tag_84\n      jump\t// in\n    tag_209:\n      dup1\n      iszero\n      tag_210\n      jumpi\n      dup1\n      0x1f\n      lt\n      tag_211\n      jumpi\n      0x0100\n      dup1\n      dup4\n      sload\n      div\n      mul\n      dup4\n      mstore\n      swap2\n      0x20\n      add\n      swap2\n      jump(tag_210)\n    tag_211:\n      dup3\n      add\n      swap2\n      swap1\n      0x00\n      mstore\n      keccak256(0x00, 0x20)\n      swap1\n    tag_212:\n      dup2\n      sload\n      dup2\n      mstore\n      swap1\n      0x01\n      add\n      swap1\n      0x20\n      add\n      dup1\n      dup4\n      gt\n      tag_212\n      jumpi\n      dup3\n      swap1\n      sub\n      0x1f\n      and\n      dup3\n      add\n      swap2\n    tag_210:\n      pop\n      pop\n      pop\n      pop\n      pop\n      dup2\n      mstore\n      0x20\n      add\n      swap1\n      0x01\n      add\n      swap1\n      jump(tag_205)\n    tag_206:\n      pop\n      pop\n      pop\n      pop\n      swap1\n      pop\n      swap5\n      pop\n      swap5\n      pop\n      swap5\n      pop\n      pop\n      pop\n        /* \"contracts/_Database3.sol\":3400:3745  function getAllergies(string memory _p_id)... */\n      swap2\n      swap4\n      swap1\n      swap3\n      pop\n      jump\t// out\n        /* \"contracts/_Database3.sol\":3059:3392  function updateSugar(... */\n    tag_67:\n        /* \"contracts/_Database3.sol\":3265:3288  Patient storage patient */\n      0x00\n        /* \"contracts/_Database3.sol\":3291:3299  patients */\n      dup1\n        /* \"contracts/_Database3.sol\":3300:3305  _p_id */\n      dup8\n        /* \"contracts/_Database3.sol\":3291:3306  patients[_p_id] */\n      mload(0x40)\n      tag_214\n      swap2\n      swap1\n      tag_74\n      jump\t// in\n    tag_214:\n      swap1\n      dup2\n      mstore\n      0x20\n      add\n      mload(0x40)\n      dup1\n      swap2\n      sub\n      swap1\n      keccak256\n        /* \"contracts/_Database3.sol\":3265:3306  Patient storage patient = patients[_p_id] */\n      swap1\n      pop\n        /* \"contracts/_Database3.sol\":3342:3384  Sugar(_date, _fasting, _afterMeal, _level) */\n      mload(0x40)\n      dup1\n      0x80\n      add\n      0x40\n      mstore\n      dup1\n        /* \"contracts/_Database3.sol\":3348:3353  _date */\n      dup7\n        /* \"contracts/_Database3.sol\":3342:3384  Sugar(_date, _fasting, _afterMeal, _level) */\n      dup2\n      mstore\n      0x20\n      add\n        /* \"contracts/_Database3.sol\":3355:3363  _fasting */\n      dup6\n        /* \"contracts/_Database3.sol\":3342:3384  Sugar(_date, _fasting, _afterMeal, _level) */\n      iszero\n      iszero\n      dup2\n      mstore\n      0x20\n      add\n        /* \"contracts/_Database3.sol\":3365:3375  _afterMeal */\n      dup5\n        /* \"contracts/_Database3.sol\":3342:3384  Sugar(_date, _fasting, _afterMeal, _level) */\n      iszero\n      iszero\n      dup2\n      mstore\n      0x20\n      add\n        /* \"contracts/_Database3.sol\":3377:3383  _level */\n      dup4\n        /* \"contracts/_Database3.sol\":3342:3384  Sugar(_date, _fasting, _afterMeal, _level) */\n      dup2\n      mstore\n      pop\n        /* \"contracts/_Database3.sol\":3317:3324  patient */\n      dup2\n        /* \"contracts/_Database3.sol\":3317:3331  patient.sugars */\n      0x07\n      add\n        /* \"contracts/_Database3.sol\":3317:3339  patient.sugars[_index] */\n      0x00\n        /* \"contracts/_Database3.sol\":3332:3338  _index */\n      dup9\n        /* \"contracts/_Database3.sol\":3317:3339  patient.sugars[_index] */\n      dup2\n      mstore\n      0x20\n      add\n      swap1\n      dup2\n      mstore\n      0x20\n      add\n      0x00\n      keccak256\n        /* \"contracts/_Database3.sol\":3317:3384  patient.sugars[_index] = Sugar(_date, _fasting, _afterMeal, _level) */\n      0x00\n      dup3\n      add\n      mload\n      dup2\n      0x00\n      add\n      swap1\n      dup2\n      tag_215\n      swap2\n      swap1\n      tag_77\n      jump\t// in\n    tag_215:\n      pop\n      0x20\n      dup3\n      add\n      mload\n      dup2\n      0x01\n      add\n      exp(0x0100, 0x00)\n      dup2\n      sload\n      dup2\n      0xff\n      mul\n      not\n      and\n      swap1\n      dup4\n      iszero\n      iszero\n      mul\n      or\n      swap1\n      sstore\n      pop\n      0x40\n      dup3\n      add\n      mload\n      dup2\n      0x01\n      add\n      exp(0x0100, 0x01)\n      dup2\n      sload\n      dup2\n      0xff\n      mul\n      not\n      and\n      swap1\n      dup4\n      iszero\n      iszero\n      mul\n      or\n      swap1\n      sstore\n      pop\n      0x60\n      dup3\n      add\n      mload\n      dup2\n      0x02\n      add\n      sstore\n      swap1\n      pop\n      pop\n        /* \"contracts/_Database3.sol\":3254:3392  {... */\n      pop\n        /* \"contracts/_Database3.sol\":3059:3392  function updateSugar(... */\n      pop\n      pop\n      pop\n      pop\n      pop\n      pop\n      jump\t// out\n        /* \"contracts/_Database3.sol\":2718:3051  function updateBloodPressure(... */\n    tag_71:\n        /* \"contracts/_Database3.sol\":2923:2946  Patient storage patient */\n      0x00\n        /* \"contracts/_Database3.sol\":2949:2957  patients */\n      dup1\n        /* \"contracts/_Database3.sol\":2958:2963  _p_id */\n      dup8\n        /* \"contracts/_Database3.sol\":2949:2964  patients[_p_id] */\n      mload(0x40)\n      tag_217\n      swap2\n      swap1\n      tag_74\n      jump\t// in\n    tag_217:\n      swap1\n      dup2\n      mstore\n      0x20\n      add\n      mload(0x40)\n      dup1\n      swap2\n      sub\n      swap1\n      keccak256\n        /* \"contracts/_Database3.sol\":2923:2964  Patient storage patient = patients[_p_id] */\n      swap1\n      pop\n        /* \"contracts/_Database3.sol\":3008:3043  BloodPressure(_date, _SP, _DP, _HB) */\n      mload(0x40)\n      dup1\n      0x80\n      add\n      0x40\n      mstore\n      dup1\n        /* \"contracts/_Database3.sol\":3022:3027  _date */\n      dup7\n        /* \"contracts/_Database3.sol\":3008:3043  BloodPressure(_date, _SP, _DP, _HB) */\n      dup2\n      mstore\n      0x20\n      add\n        /* \"contracts/_Database3.sol\":3029:3032  _SP */\n      dup6\n        /* \"contracts/_Database3.sol\":3008:3043  BloodPressure(_date, _SP, _DP, _HB) */\n      dup2\n      mstore\n      0x20\n      add\n        /* \"contracts/_Database3.sol\":3034:3037  _DP */\n      dup5\n        /* \"contracts/_Database3.sol\":3008:3043  BloodPressure(_date, _SP, _DP, _HB) */\n      dup2\n      mstore\n      0x20\n      add\n        /* \"contracts/_Database3.sol\":3039:3042  _HB */\n      dup4\n        /* \"contracts/_Database3.sol\":3008:3043  BloodPressure(_date, _SP, _DP, _HB) */\n      dup2\n      mstore\n      pop\n        /* \"contracts/_Database3.sol\":2975:2982  patient */\n      dup2\n        /* \"contracts/_Database3.sol\":2975:2997  patient.bloodPressures */\n      0x06\n      add\n        /* \"contracts/_Database3.sol\":2975:3005  patient.bloodPressures[_index] */\n      0x00\n        /* \"contracts/_Database3.sol\":2998:3004  _index */\n      dup9\n        /* \"contracts/_Database3.sol\":2975:3005  patient.bloodPressures[_index] */\n      dup2\n      mstore\n      0x20\n      add\n      swap1\n      dup2\n      mstore\n      0x20\n      add\n      0x00\n      keccak256\n        /* \"contracts/_Database3.sol\":2975:3043  patient.bloodPressures[_index] = BloodPressure(_date, _SP, _DP, _HB) */\n      0x00\n      dup3\n      add\n      mload\n      dup2\n      0x00\n      add\n      swap1\n      dup2\n      tag_218\n      swap2\n      swap1\n      tag_77\n      jump\t// in\n    tag_218:\n      pop\n      0x20\n      dup3\n      add\n      mload\n      dup2\n      0x01\n      add\n      sstore\n      0x40\n      dup3\n      add\n      mload\n      dup2\n      0x02\n      add\n      sstore\n      0x60\n      dup3\n      add\n      mload\n      dup2\n      0x03\n      add\n      sstore\n      swap1\n      pop\n      pop\n        /* \"contracts/_Database3.sol\":2912:3051  {... */\n      pop\n        /* \"contracts/_Database3.sol\":2718:3051  function updateBloodPressure(... */\n      pop\n      pop\n      pop\n      pop\n      pop\n      pop\n      jump\t// out\n    tag_104:\n      dup3\n      dup1\n      sload\n      dup3\n      dup3\n      sstore\n      swap1\n      0x00\n      mstore\n      keccak256(0x00, 0x20)\n      swap1\n      dup2\n      add\n      swap3\n      dup3\n      iszero\n      tag_219\n      jumpi\n      swap2\n      0x20\n      mul\n      dup3\n      add\n    tag_220:\n      dup3\n      dup2\n      gt\n      iszero\n      tag_221\n      jumpi\n      dup3\n      mload\n      dup3\n      swap1\n      dup2\n      tag_222\n      swap2\n      swap1\n      tag_77\n      jump\t// in\n    tag_222:\n      pop\n      swap2\n      0x20\n      add\n      swap2\n      swap1\n      0x01\n      add\n      swap1\n      jump(tag_220)\n    tag_221:\n    tag_219:\n      pop\n      swap1\n      pop\n      tag_223\n      swap2\n      swap1\n      tag_224\n      jump\t// in\n    tag_223:\n      pop\n      swap1\n      jump\t// out\n    tag_224:\n    tag_225:\n      dup1\n      dup3\n      gt\n      iszero\n      tag_226\n      jumpi\n      0x00\n      dup2\n      dup2\n      tag_227\n      swap2\n      swap1\n      tag_228\n      jump\t// in\n    tag_227:\n      pop\n      0x01\n      add\n      jump(tag_225)\n    tag_226:\n      pop\n      swap1\n      jump\t// out\n    tag_228:\n      pop\n      dup1\n      sload\n      tag_229\n      swap1\n      tag_84\n      jump\t// in\n    tag_229:\n      0x00\n      dup3\n      sstore\n      dup1\n      0x1f\n      lt\n      tag_231\n      jumpi\n      pop\n      jump(tag_230)\n    tag_231:\n      0x1f\n      add\n      0x20\n      swap1\n      div\n      swap1\n      0x00\n      mstore\n      keccak256(0x00, 0x20)\n      swap1\n      dup2\n      add\n      swap1\n      tag_232\n      swap2\n      swap1\n      tag_233\n      jump\t// in\n    tag_232:\n    tag_230:\n      pop\n      jump\t// out\n    tag_233:\n    tag_234:\n      dup1\n      dup3\n      gt\n      iszero\n      tag_235\n      jumpi\n      0x00\n      dup2\n      0x00\n      swap1\n      sstore\n      pop\n      0x01\n      add\n      jump(tag_234)\n    tag_235:\n      pop\n      swap1\n      jump\t// out\n        /* \"#utility.yul\":7:82   */\n    tag_236:\n        /* \"#utility.yul\":40:46   */\n      0x00\n        /* \"#utility.yul\":73:75   */\n      0x40\n        /* \"#utility.yul\":67:76   */\n      mload\n        /* \"#utility.yul\":57:76   */\n      swap1\n      pop\n        /* \"#utility.yul\":7:82   */\n      swap1\n      jump\t// out\n        /* \"#utility.yul\":88:205   */\n    tag_237:\n        /* \"#utility.yul\":197:198   */\n      0x00\n        /* \"#utility.yul\":194:195   */\n      dup1\n        /* \"#utility.yul\":187:199   */\n      revert\n        /* \"#utility.yul\":211:328   */\n    tag_238:\n        /* \"#utility.yul\":320:321   */\n      0x00\n        /* \"#utility.yul\":317:318   */\n      dup1\n        /* \"#utility.yul\":310:322   */\n      revert\n        /* \"#utility.yul\":334:451   */\n    tag_239:\n        /* \"#utility.yul\":443:444   */\n      0x00\n        /* \"#utility.yul\":440:441   */\n      dup1\n        /* \"#utility.yul\":433:445   */\n      revert\n        /* \"#utility.yul\":457:574   */\n    tag_240:\n        /* \"#utility.yul\":566:567   */\n      0x00\n        /* \"#utility.yul\":563:564   */\n      dup1\n        /* \"#utility.yul\":556:568   */\n      revert\n        /* \"#utility.yul\":580:682   */\n    tag_241:\n        /* \"#utility.yul\":621:627   */\n      0x00\n        /* \"#utility.yul\":672:674   */\n      0x1f\n        /* \"#utility.yul\":668:675   */\n      not\n        /* \"#utility.yul\":663:665   */\n      0x1f\n        /* \"#utility.yul\":656:661   */\n      dup4\n        /* \"#utility.yul\":652:666   */\n      add\n        /* \"#utility.yul\":648:676   */\n      and\n        /* \"#utility.yul\":638:676   */\n      swap1\n      pop\n        /* \"#utility.yul\":580:682   */\n      swap2\n      swap1\n      pop\n      jump\t// out\n        /* \"#utility.yul\":688:868   */\n    tag_153:\n        /* \"#utility.yul\":736:813   */\n      0x4e487b7100000000000000000000000000000000000000000000000000000000\n        /* \"#utility.yul\":733:734   */\n      0x00\n        /* \"#utility.yul\":726:814   */\n      mstore\n        /* \"#utility.yul\":833:837   */\n      0x41\n        /* \"#utility.yul\":830:831   */\n      0x04\n        /* \"#utility.yul\":823:838   */\n      mstore\n        /* \"#utility.yul\":857:861   */\n      0x24\n        /* \"#utility.yul\":854:855   */\n      0x00\n        /* \"#utility.yul\":847:862   */\n      revert\n        /* \"#utility.yul\":874:1155   */\n    tag_242:\n        /* \"#utility.yul\":957:984   */\n      tag_309\n        /* \"#utility.yul\":979:983   */\n      dup3\n        /* \"#utility.yul\":957:984   */\n      tag_241\n      jump\t// in\n    tag_309:\n        /* \"#utility.yul\":949:955   */\n      dup2\n        /* \"#utility.yul\":945:985   */\n      add\n        /* \"#utility.yul\":1087:1093   */\n      dup2\n        /* \"#utility.yul\":1075:1085   */\n      dup2\n        /* \"#utility.yul\":1072:1094   */\n      lt\n        /* \"#utility.yul\":1051:1069   */\n      0xffffffffffffffff\n        /* \"#utility.yul\":1039:1049   */\n      dup3\n        /* \"#utility.yul\":1036:1070   */\n      gt\n        /* \"#utility.yul\":1033:1095   */\n      or\n        /* \"#utility.yul\":1030:1118   */\n      iszero\n      tag_310\n      jumpi\n        /* \"#utility.yul\":1098:1116   */\n      tag_311\n      tag_153\n      jump\t// in\n    tag_311:\n        /* \"#utility.yul\":1030:1118   */\n    tag_310:\n        /* \"#utility.yul\":1138:1148   */\n      dup1\n        /* \"#utility.yul\":1134:1136   */\n      0x40\n        /* \"#utility.yul\":1127:1149   */\n      mstore\n        /* \"#utility.yul\":917:1155   */\n      pop\n        /* \"#utility.yul\":874:1155   */\n      pop\n      pop\n      jump\t// out\n        /* \"#utility.yul\":1161:1290   */\n    tag_243:\n        /* \"#utility.yul\":1195:1201   */\n      0x00\n        /* \"#utility.yul\":1222:1242   */\n      tag_313\n      tag_236\n      jump\t// in\n    tag_313:\n        /* \"#utility.yul\":1212:1242   */\n      swap1\n      pop\n        /* \"#utility.yul\":1251:1284   */\n      tag_314\n        /* \"#utility.yul\":1279:1283   */\n      dup3\n        /* \"#utility.yul\":1271:1277   */\n      dup3\n        /* \"#utility.yul\":1251:1284   */\n      tag_242\n      jump\t// in\n    tag_314:\n        /* \"#utility.yul\":1161:1290   */\n      swap2\n      swap1\n      pop\n      jump\t// out\n        /* \"#utility.yul\":1296:1604   */\n    tag_244:\n        /* \"#utility.yul\":1358:1362   */\n      0x00\n        /* \"#utility.yul\":1448:1466   */\n      0xffffffffffffffff\n        /* \"#utility.yul\":1440:1446   */\n      dup3\n        /* \"#utility.yul\":1437:1467   */\n      gt\n        /* \"#utility.yul\":1434:1490   */\n      iszero\n      tag_316\n      jumpi\n        /* \"#utility.yul\":1470:1488   */\n      tag_317\n      tag_153\n      jump\t// in\n    tag_317:\n        /* \"#utility.yul\":1434:1490   */\n    tag_316:\n        /* \"#utility.yul\":1508:1537   */\n      tag_318\n        /* \"#utility.yul\":1530:1536   */\n      dup3\n        /* \"#utility.yul\":1508:1537   */\n      tag_241\n      jump\t// in\n    tag_318:\n        /* \"#utility.yul\":1500:1537   */\n      swap1\n      pop\n        /* \"#utility.yul\":1592:1596   */\n      0x20\n        /* \"#utility.yul\":1586:1590   */\n      dup2\n        /* \"#utility.yul\":1582:1597   */\n      add\n        /* \"#utility.yul\":1574:1597   */\n      swap1\n      pop\n        /* \"#utility.yul\":1296:1604   */\n      swap2\n      swap1\n      pop\n      jump\t// out\n        /* \"#utility.yul\":1610:1756   */\n    tag_245:\n        /* \"#utility.yul\":1707:1713   */\n      dup3\n        /* \"#utility.yul\":1702:1705   */\n      dup2\n        /* \"#utility.yul\":1697:1700   */\n      dup4\n        /* \"#utility.yul\":1684:1714   */\n      calldatacopy\n        /* \"#utility.yul\":1748:1749   */\n      0x00\n        /* \"#utility.yul\":1739:1745   */\n      dup4\n        /* \"#utility.yul\":1734:1737   */\n      dup4\n        /* \"#utility.yul\":1730:1746   */\n      add\n        /* \"#utility.yul\":1723:1750   */\n      mstore\n        /* \"#utility.yul\":1610:1756   */\n      pop\n      pop\n      pop\n      jump\t// out\n        /* \"#utility.yul\":1762:2187   */\n    tag_246:\n        /* \"#utility.yul\":1840:1845   */\n      0x00\n        /* \"#utility.yul\":1865:1931   */\n      tag_321\n        /* \"#utility.yul\":1881:1930   */\n      tag_322\n        /* \"#utility.yul\":1923:1929   */\n      dup5\n        /* \"#utility.yul\":1881:1930   */\n      tag_244\n      jump\t// in\n    tag_322:\n        /* \"#utility.yul\":1865:1931   */\n      tag_243\n      jump\t// in\n    tag_321:\n        /* \"#utility.yul\":1856:1931   */\n      swap1\n      pop\n        /* \"#utility.yul\":1954:1960   */\n      dup3\n        /* \"#utility.yul\":1947:1952   */\n      dup2\n        /* \"#utility.yul\":1940:1961   */\n      mstore\n        /* \"#utility.yul\":1992:1996   */\n      0x20\n        /* \"#utility.yul\":1985:1990   */\n      dup2\n        /* \"#utility.yul\":1981:1997   */\n      add\n        /* \"#utility.yul\":2030:2033   */\n      dup5\n        /* \"#utility.yul\":2021:2027   */\n      dup5\n        /* \"#utility.yul\":2016:2019   */\n      dup5\n        /* \"#utility.yul\":2012:2028   */\n      add\n        /* \"#utility.yul\":2009:2034   */\n      gt\n        /* \"#utility.yul\":2006:2118   */\n      iszero\n      tag_323\n      jumpi\n        /* \"#utility.yul\":2037:2116   */\n      tag_324\n      tag_240\n      jump\t// in\n    tag_324:\n        /* \"#utility.yul\":2006:2118   */\n    tag_323:\n        /* \"#utility.yul\":2127:2181   */\n      tag_325\n        /* \"#utility.yul\":2174:2180   */\n      dup5\n        /* \"#utility.yul\":2169:2172   */\n      dup3\n        /* \"#utility.yul\":2164:2167   */\n      dup6\n        /* \"#utility.yul\":2127:2181   */\n      tag_245\n      jump\t// in\n    tag_325:\n        /* \"#utility.yul\":1846:2187   */\n      pop\n        /* \"#utility.yul\":1762:2187   */\n      swap4\n      swap3\n      pop\n      pop\n      pop\n      jump\t// out\n        /* \"#utility.yul\":2207:2547   */\n    tag_247:\n        /* \"#utility.yul\":2263:2268   */\n      0x00\n        /* \"#utility.yul\":2312:2315   */\n      dup3\n        /* \"#utility.yul\":2305:2309   */\n      0x1f\n        /* \"#utility.yul\":2297:2303   */\n      dup4\n        /* \"#utility.yul\":2293:2310   */\n      add\n        /* \"#utility.yul\":2289:2316   */\n      slt\n        /* \"#utility.yul\":2279:2401   */\n      tag_327\n      jumpi\n        /* \"#utility.yul\":2320:2399   */\n      tag_328\n      tag_239\n      jump\t// in\n    tag_328:\n        /* \"#utility.yul\":2279:2401   */\n    tag_327:\n        /* \"#utility.yul\":2437:2443   */\n      dup2\n        /* \"#utility.yul\":2424:2444   */\n      calldataload\n        /* \"#utility.yul\":2462:2541   */\n      tag_329\n        /* \"#utility.yul\":2537:2540   */\n      dup5\n        /* \"#utility.yul\":2529:2535   */\n      dup3\n        /* \"#utility.yul\":2522:2526   */\n      0x20\n        /* \"#utility.yul\":2514:2520   */\n      dup7\n        /* \"#utility.yul\":2510:2527   */\n      add\n        /* \"#utility.yul\":2462:2541   */\n      tag_246\n      jump\t// in\n    tag_329:\n        /* \"#utility.yul\":2453:2541   */\n      swap2\n      pop\n        /* \"#utility.yul\":2269:2547   */\n      pop\n        /* \"#utility.yul\":2207:2547   */\n      swap3\n      swap2\n      pop\n      pop\n      jump\t// out\n        /* \"#utility.yul\":2553:2630   */\n    tag_248:\n        /* \"#utility.yul\":2590:2597   */\n      0x00\n        /* \"#utility.yul\":2619:2624   */\n      dup2\n        /* \"#utility.yul\":2608:2624   */\n      swap1\n      pop\n        /* \"#utility.yul\":2553:2630   */\n      swap2\n      swap1\n      pop\n      jump\t// out\n        /* \"#utility.yul\":2636:2758   */\n    tag_249:\n        /* \"#utility.yul\":2709:2733   */\n      tag_332\n        /* \"#utility.yul\":2727:2732   */\n      dup2\n        /* \"#utility.yul\":2709:2733   */\n      tag_248\n      jump\t// in\n    tag_332:\n        /* \"#utility.yul\":2702:2707   */\n      dup2\n        /* \"#utility.yul\":2699:2734   */\n      eq\n        /* \"#utility.yul\":2689:2752   */\n      tag_333\n      jumpi\n        /* \"#utility.yul\":2748:2749   */\n      0x00\n        /* \"#utility.yul\":2745:2746   */\n      dup1\n        /* \"#utility.yul\":2738:2750   */\n      revert\n        /* \"#utility.yul\":2689:2752   */\n    tag_333:\n        /* \"#utility.yul\":2636:2758   */\n      pop\n      jump\t// out\n        /* \"#utility.yul\":2764:2903   */\n    tag_250:\n        /* \"#utility.yul\":2810:2815   */\n      0x00\n        /* \"#utility.yul\":2848:2854   */\n      dup2\n        /* \"#utility.yul\":2835:2855   */\n      calldataload\n        /* \"#utility.yul\":2826:2855   */\n      swap1\n      pop\n        /* \"#utility.yul\":2864:2897   */\n      tag_335\n        /* \"#utility.yul\":2891:2896   */\n      dup2\n        /* \"#utility.yul\":2864:2897   */\n      tag_249\n      jump\t// in\n    tag_335:\n        /* \"#utility.yul\":2764:2903   */\n      swap3\n      swap2\n      pop\n      pop\n      jump\t// out\n        /* \"#utility.yul\":2909:2999   */\n    tag_251:\n        /* \"#utility.yul\":2943:2950   */\n      0x00\n        /* \"#utility.yul\":2986:2991   */\n      dup2\n        /* \"#utility.yul\":2979:2992   */\n      iszero\n        /* \"#utility.yul\":2972:2993   */\n      iszero\n        /* \"#utility.yul\":2961:2993   */\n      swap1\n      pop\n        /* \"#utility.yul\":2909:2999   */\n      swap2\n      swap1\n      pop\n      jump\t// out\n        /* \"#utility.yul\":3005:3121   */\n    tag_252:\n        /* \"#utility.yul\":3075:3096   */\n      tag_338\n        /* \"#utility.yul\":3090:3095   */\n      dup2\n        /* \"#utility.yul\":3075:3096   */\n      tag_251\n      jump\t// in\n    tag_338:\n        /* \"#utility.yul\":3068:3073   */\n      dup2\n        /* \"#utility.yul\":3065:3097   */\n      eq\n        /* \"#utility.yul\":3055:3115   */\n      tag_339\n      jumpi\n        /* \"#utility.yul\":3111:3112   */\n      0x00\n        /* \"#utility.yul\":3108:3109   */\n      dup1\n        /* \"#utility.yul\":3101:3113   */\n      revert\n        /* \"#utility.yul\":3055:3115   */\n    tag_339:\n        /* \"#utility.yul\":3005:3121   */\n      pop\n      jump\t// out\n        /* \"#utility.yul\":3127:3260   */\n    tag_253:\n        /* \"#utility.yul\":3170:3175   */\n      0x00\n        /* \"#utility.yul\":3208:3214   */\n      dup2\n        /* \"#utility.yul\":3195:3215   */\n      calldataload\n        /* \"#utility.yul\":3186:3215   */\n      swap1\n      pop\n        /* \"#utility.yul\":3224:3254   */\n      tag_341\n        /* \"#utility.yul\":3248:3253   */\n      dup2\n        /* \"#utility.yul\":3224:3254   */\n      tag_252\n      jump\t// in\n    tag_341:\n        /* \"#utility.yul\":3127:3260   */\n      swap3\n      swap2\n      pop\n      pop\n      jump\t// out\n        /* \"#utility.yul\":3266:5363   */\n    tag_18:\n        /* \"#utility.yul\":3426:3432   */\n      0x00\n        /* \"#utility.yul\":3434:3440   */\n      dup1\n        /* \"#utility.yul\":3442:3448   */\n      0x00\n        /* \"#utility.yul\":3450:3456   */\n      dup1\n        /* \"#utility.yul\":3458:3464   */\n      0x00\n        /* \"#utility.yul\":3466:3472   */\n      dup1\n        /* \"#utility.yul\":3474:3480   */\n      0x00\n        /* \"#utility.yul\":3523:3526   */\n      0xe0\n        /* \"#utility.yul\":3511:3520   */\n      dup9\n        /* \"#utility.yul\":3502:3509   */\n      dup11\n        /* \"#utility.yul\":3498:3521   */\n      sub\n        /* \"#utility.yul\":3494:3527   */\n      slt\n        /* \"#utility.yul\":3491:3611   */\n      iszero\n      tag_343\n      jumpi\n        /* \"#utility.yul\":3530:3609   */\n      tag_344\n      tag_237\n      jump\t// in\n    tag_344:\n        /* \"#utility.yul\":3491:3611   */\n    tag_343:\n        /* \"#utility.yul\":3678:3679   */\n      0x00\n        /* \"#utility.yul\":3667:3676   */\n      dup9\n        /* \"#utility.yul\":3663:3680   */\n      add\n        /* \"#utility.yul\":3650:3681   */\n      calldataload\n        /* \"#utility.yul\":3708:3726   */\n      0xffffffffffffffff\n        /* \"#utility.yul\":3700:3706   */\n      dup2\n        /* \"#utility.yul\":3697:3727   */\n      gt\n        /* \"#utility.yul\":3694:3811   */\n      iszero\n      tag_345\n      jumpi\n        /* \"#utility.yul\":3730:3809   */\n      tag_346\n      tag_238\n      jump\t// in\n    tag_346:\n        /* \"#utility.yul\":3694:3811   */\n    tag_345:\n        /* \"#utility.yul\":3835:3898   */\n      tag_347\n        /* \"#utility.yul\":3890:3897   */\n      dup11\n        /* \"#utility.yul\":3881:3887   */\n      dup3\n        /* \"#utility.yul\":3870:3879   */\n      dup12\n        /* \"#utility.yul\":3866:3888   */\n      add\n        /* \"#utility.yul\":3835:3898   */\n      tag_247\n      jump\t// in\n    tag_347:\n        /* \"#utility.yul\":3825:3898   */\n      swap8\n      pop\n        /* \"#utility.yul\":3621:3908   */\n      pop\n        /* \"#utility.yul\":3975:3977   */\n      0x20\n        /* \"#utility.yul\":3964:3973   */\n      dup9\n        /* \"#utility.yul\":3960:3978   */\n      add\n        /* \"#utility.yul\":3947:3979   */\n      calldataload\n        /* \"#utility.yul\":4006:4024   */\n      0xffffffffffffffff\n        /* \"#utility.yul\":3998:4004   */\n      dup2\n        /* \"#utility.yul\":3995:4025   */\n      gt\n        /* \"#utility.yul\":3992:4109   */\n      iszero\n      tag_348\n      jumpi\n        /* \"#utility.yul\":4028:4107   */\n      tag_349\n      tag_238\n      jump\t// in\n    tag_349:\n        /* \"#utility.yul\":3992:4109   */\n    tag_348:\n        /* \"#utility.yul\":4133:4196   */\n      tag_350\n        /* \"#utility.yul\":4188:4195   */\n      dup11\n        /* \"#utility.yul\":4179:4185   */\n      dup3\n        /* \"#utility.yul\":4168:4177   */\n      dup12\n        /* \"#utility.yul\":4164:4186   */\n      add\n        /* \"#utility.yul\":4133:4196   */\n      tag_247\n      jump\t// in\n    tag_350:\n        /* \"#utility.yul\":4123:4196   */\n      swap7\n      pop\n        /* \"#utility.yul\":3918:4206   */\n      pop\n        /* \"#utility.yul\":4273:4275   */\n      0x40\n        /* \"#utility.yul\":4262:4271   */\n      dup9\n        /* \"#utility.yul\":4258:4276   */\n      add\n        /* \"#utility.yul\":4245:4277   */\n      calldataload\n        /* \"#utility.yul\":4304:4322   */\n      0xffffffffffffffff\n        /* \"#utility.yul\":4296:4302   */\n      dup2\n        /* \"#utility.yul\":4293:4323   */\n      gt\n        /* \"#utility.yul\":4290:4407   */\n      iszero\n      tag_351\n      jumpi\n        /* \"#utility.yul\":4326:4405   */\n      tag_352\n      tag_238\n      jump\t// in\n    tag_352:\n        /* \"#utility.yul\":4290:4407   */\n    tag_351:\n        /* \"#utility.yul\":4431:4494   */\n      tag_353\n        /* \"#utility.yul\":4486:4493   */\n      dup11\n        /* \"#utility.yul\":4477:4483   */\n      dup3\n        /* \"#utility.yul\":4466:4475   */\n      dup12\n        /* \"#utility.yul\":4462:4484   */\n      add\n        /* \"#utility.yul\":4431:4494   */\n      tag_247\n      jump\t// in\n    tag_353:\n        /* \"#utility.yul\":4421:4494   */\n      swap6\n      pop\n        /* \"#utility.yul\":4216:4504   */\n      pop\n        /* \"#utility.yul\":4543:4545   */\n      0x60\n        /* \"#utility.yul\":4569:4622   */\n      tag_354\n        /* \"#utility.yul\":4614:4621   */\n      dup11\n        /* \"#utility.yul\":4605:4611   */\n      dup3\n        /* \"#utility.yul\":4594:4603   */\n      dup12\n        /* \"#utility.yul\":4590:4612   */\n      add\n        /* \"#utility.yul\":4569:4622   */\n      tag_250\n      jump\t// in\n    tag_354:\n        /* \"#utility.yul\":4559:4622   */\n      swap5\n      pop\n        /* \"#utility.yul\":4514:4632   */\n      pop\n        /* \"#utility.yul\":4699:4702   */\n      0x80\n        /* \"#utility.yul\":4688:4697   */\n      dup9\n        /* \"#utility.yul\":4684:4703   */\n      add\n        /* \"#utility.yul\":4671:4704   */\n      calldataload\n        /* \"#utility.yul\":4731:4749   */\n      0xffffffffffffffff\n        /* \"#utility.yul\":4723:4729   */\n      dup2\n        /* \"#utility.yul\":4720:4750   */\n      gt\n        /* \"#utility.yul\":4717:4834   */\n      iszero\n      tag_355\n      jumpi\n        /* \"#utility.yul\":4753:4832   */\n      tag_356\n      tag_238\n      jump\t// in\n    tag_356:\n        /* \"#utility.yul\":4717:4834   */\n    tag_355:\n        /* \"#utility.yul\":4858:4921   */\n      tag_357\n        /* \"#utility.yul\":4913:4920   */\n      dup11\n        /* \"#utility.yul\":4904:4910   */\n      dup3\n        /* \"#utility.yul\":4893:4902   */\n      dup12\n        /* \"#utility.yul\":4889:4911   */\n      add\n        /* \"#utility.yul\":4858:4921   */\n      tag_247\n      jump\t// in\n    tag_357:\n        /* \"#utility.yul\":4848:4921   */\n      swap4\n      pop\n        /* \"#utility.yul\":4642:4931   */\n      pop\n        /* \"#utility.yul\":4998:5001   */\n      0xa0\n        /* \"#utility.yul\":4987:4996   */\n      dup9\n        /* \"#utility.yul\":4983:5002   */\n      add\n        /* \"#utility.yul\":4970:5003   */\n      calldataload\n        /* \"#utility.yul\":5030:5048   */\n      0xffffffffffffffff\n        /* \"#utility.yul\":5022:5028   */\n      dup2\n        /* \"#utility.yul\":5019:5049   */\n      gt\n        /* \"#utility.yul\":5016:5133   */\n      iszero\n      tag_358\n      jumpi\n        /* \"#utility.yul\":5052:5131   */\n      tag_359\n      tag_238\n      jump\t// in\n    tag_359:\n        /* \"#utility.yul\":5016:5133   */\n    tag_358:\n        /* \"#utility.yul\":5157:5220   */\n      tag_360\n        /* \"#utility.yul\":5212:5219   */\n      dup11\n        /* \"#utility.yul\":5203:5209   */\n      dup3\n        /* \"#utility.yul\":5192:5201   */\n      dup12\n        /* \"#utility.yul\":5188:5210   */\n      add\n        /* \"#utility.yul\":5157:5220   */\n      tag_247\n      jump\t// in\n    tag_360:\n        /* \"#utility.yul\":5147:5220   */\n      swap3\n      pop\n        /* \"#utility.yul\":4941:5230   */\n      pop\n        /* \"#utility.yul\":5269:5272   */\n      0xc0\n        /* \"#utility.yul\":5296:5346   */\n      tag_361\n        /* \"#utility.yul\":5338:5345   */\n      dup11\n        /* \"#utility.yul\":5329:5335   */\n      dup3\n        /* \"#utility.yul\":5318:5327   */\n      dup12\n        /* \"#utility.yul\":5314:5336   */\n      add\n        /* \"#utility.yul\":5296:5346   */\n      tag_253\n      jump\t// in\n    tag_361:\n        /* \"#utility.yul\":5286:5346   */\n      swap2\n      pop\n        /* \"#utility.yul\":5240:5356   */\n      pop\n        /* \"#utility.yul\":3266:5363   */\n      swap3\n      swap6\n      swap9\n      swap2\n      swap5\n      swap8\n      pop\n      swap3\n      swap6\n      pop\n      jump\t// out\n        /* \"#utility.yul\":5369:6023   */\n    tag_22:\n        /* \"#utility.yul\":5447:5453   */\n      0x00\n        /* \"#utility.yul\":5455:5461   */\n      dup1\n        /* \"#utility.yul\":5504:5506   */\n      0x40\n        /* \"#utility.yul\":5492:5501   */\n      dup4\n        /* \"#utility.yul\":5483:5490   */\n      dup6\n        /* \"#utility.yul\":5479:5502   */\n      sub\n        /* \"#utility.yul\":5475:5507   */\n      slt\n        /* \"#utility.yul\":5472:5591   */\n      iszero\n      tag_363\n      jumpi\n        /* \"#utility.yul\":5510:5589   */\n      tag_364\n      tag_237\n      jump\t// in\n    tag_364:\n        /* \"#utility.yul\":5472:5591   */\n    tag_363:\n        /* \"#utility.yul\":5658:5659   */\n      0x00\n        /* \"#utility.yul\":5647:5656   */\n      dup4\n        /* \"#utility.yul\":5643:5660   */\n      add\n        /* \"#utility.yul\":5630:5661   */\n      calldataload\n        /* \"#utility.yul\":5688:5706   */\n      0xffffffffffffffff\n        /* \"#utility.yul\":5680:5686   */\n      dup2\n        /* \"#utility.yul\":5677:5707   */\n      gt\n        /* \"#utility.yul\":5674:5791   */\n      iszero\n      tag_365\n      jumpi\n        /* \"#utility.yul\":5710:5789   */\n      tag_366\n      tag_238\n      jump\t// in\n    tag_366:\n        /* \"#utility.yul\":5674:5791   */\n    tag_365:\n        /* \"#utility.yul\":5815:5878   */\n      tag_367\n        /* \"#utility.yul\":5870:5877   */\n      dup6\n        /* \"#utility.yul\":5861:5867   */\n      dup3\n        /* \"#utility.yul\":5850:5859   */\n      dup7\n        /* \"#utility.yul\":5846:5868   */\n      add\n        /* \"#utility.yul\":5815:5878   */\n      tag_247\n      jump\t// in\n    tag_367:\n        /* \"#utility.yul\":5805:5878   */\n      swap3\n      pop\n        /* \"#utility.yul\":5601:5888   */\n      pop\n        /* \"#utility.yul\":5927:5929   */\n      0x20\n        /* \"#utility.yul\":5953:6006   */\n      tag_368\n        /* \"#utility.yul\":5998:6005   */\n      dup6\n        /* \"#utility.yul\":5989:5995   */\n      dup3\n        /* \"#utility.yul\":5978:5987   */\n      dup7\n        /* \"#utility.yul\":5974:5996   */\n      add\n        /* \"#utility.yul\":5953:6006   */\n      tag_250\n      jump\t// in\n    tag_368:\n        /* \"#utility.yul\":5943:6006   */\n      swap2\n      pop\n        /* \"#utility.yul\":5898:6016   */\n      pop\n        /* \"#utility.yul\":5369:6023   */\n      swap3\n      pop\n      swap3\n      swap1\n      pop\n      jump\t// out\n        /* \"#utility.yul\":6029:6128   */\n    tag_254:\n        /* \"#utility.yul\":6081:6087   */\n      0x00\n        /* \"#utility.yul\":6115:6120   */\n      dup2\n        /* \"#utility.yul\":6109:6121   */\n      mload\n        /* \"#utility.yul\":6099:6121   */\n      swap1\n      pop\n        /* \"#utility.yul\":6029:6128   */\n      swap2\n      swap1\n      pop\n      jump\t// out\n        /* \"#utility.yul\":6134:6303   */\n    tag_255:\n        /* \"#utility.yul\":6218:6229   */\n      0x00\n        /* \"#utility.yul\":6252:6258   */\n      dup3\n        /* \"#utility.yul\":6247:6250   */\n      dup3\n        /* \"#utility.yul\":6240:6259   */\n      mstore\n        /* \"#utility.yul\":6292:6296   */\n      0x20\n        /* \"#utility.yul\":6287:6290   */\n      dup3\n        /* \"#utility.yul\":6283:6297   */\n      add\n        /* \"#utility.yul\":6268:6297   */\n      swap1\n      pop\n        /* \"#utility.yul\":6134:6303   */\n      swap3\n      swap2\n      pop\n      pop\n      jump\t// out\n        /* \"#utility.yul\":6309:6555   */\n    tag_256:\n        /* \"#utility.yul\":6390:6391   */\n      0x00\n        /* \"#utility.yul\":6400:6513   */\n    tag_372:\n        /* \"#utility.yul\":6414:6420   */\n      dup4\n        /* \"#utility.yul\":6411:6412   */\n      dup2\n        /* \"#utility.yul\":6408:6421   */\n      lt\n        /* \"#utility.yul\":6400:6513   */\n      iszero\n      tag_374\n      jumpi\n        /* \"#utility.yul\":6499:6500   */\n      dup1\n        /* \"#utility.yul\":6494:6497   */\n      dup3\n        /* \"#utility.yul\":6490:6501   */\n      add\n        /* \"#utility.yul\":6484:6502   */\n      mload\n        /* \"#utility.yul\":6480:6481   */\n      dup2\n        /* \"#utility.yul\":6475:6478   */\n      dup5\n        /* \"#utility.yul\":6471:6482   */\n      add\n        /* \"#utility.yul\":6464:6503   */\n      mstore\n        /* \"#utility.yul\":6436:6438   */\n      0x20\n        /* \"#utility.yul\":6433:6434   */\n      dup2\n        /* \"#utility.yul\":6429:6439   */\n      add\n        /* \"#utility.yul\":6424:6439   */\n      swap1\n      pop\n        /* \"#utility.yul\":6400:6513   */\n      jump(tag_372)\n    tag_374:\n        /* \"#utility.yul\":6547:6548   */\n      0x00\n        /* \"#utility.yul\":6538:6544   */\n      dup5\n        /* \"#utility.yul\":6533:6536   */\n      dup5\n        /* \"#utility.yul\":6529:6545   */\n      add\n        /* \"#utility.yul\":6522:6549   */\n      mstore\n        /* \"#utility.yul\":6371:6555   */\n      pop\n        /* \"#utility.yul\":6309:6555   */\n      pop\n      pop\n      pop\n      jump\t// out\n        /* \"#utility.yul\":6561:6938   */\n    tag_257:\n        /* \"#utility.yul\":6649:6652   */\n      0x00\n        /* \"#utility.yul\":6677:6716   */\n      tag_376\n        /* \"#utility.yul\":6710:6715   */\n      dup3\n        /* \"#utility.yul\":6677:6716   */\n      tag_254\n      jump\t// in\n    tag_376:\n        /* \"#utility.yul\":6732:6803   */\n      tag_377\n        /* \"#utility.yul\":6796:6802   */\n      dup2\n        /* \"#utility.yul\":6791:6794   */\n      dup6\n        /* \"#utility.yul\":6732:6803   */\n      tag_255\n      jump\t// in\n    tag_377:\n        /* \"#utility.yul\":6725:6803   */\n      swap4\n      pop\n        /* \"#utility.yul\":6812:6877   */\n      tag_378\n        /* \"#utility.yul\":6870:6876   */\n      dup2\n        /* \"#utility.yul\":6865:6868   */\n      dup6\n        /* \"#utility.yul\":6858:6862   */\n      0x20\n        /* \"#utility.yul\":6851:6856   */\n      dup7\n        /* \"#utility.yul\":6847:6863   */\n      add\n        /* \"#utility.yul\":6812:6877   */\n      tag_256\n      jump\t// in\n    tag_378:\n        /* \"#utility.yul\":6902:6931   */\n      tag_379\n        /* \"#utility.yul\":6924:6930   */\n      dup2\n        /* \"#utility.yul\":6902:6931   */\n      tag_241\n      jump\t// in\n    tag_379:\n        /* \"#utility.yul\":6897:6900   */\n      dup5\n        /* \"#utility.yul\":6893:6932   */\n      add\n        /* \"#utility.yul\":6886:6932   */\n      swap2\n      pop\n        /* \"#utility.yul\":6653:6938   */\n      pop\n        /* \"#utility.yul\":6561:6938   */\n      swap3\n      swap2\n      pop\n      pop\n      jump\t// out\n        /* \"#utility.yul\":6944:7053   */\n    tag_258:\n        /* \"#utility.yul\":7025:7046   */\n      tag_381\n        /* \"#utility.yul\":7040:7045   */\n      dup2\n        /* \"#utility.yul\":7025:7046   */\n      tag_251\n      jump\t// in\n    tag_381:\n        /* \"#utility.yul\":7020:7023   */\n      dup3\n        /* \"#utility.yul\":7013:7047   */\n      mstore\n        /* \"#utility.yul\":6944:7053   */\n      pop\n      pop\n      jump\t// out\n        /* \"#utility.yul\":7059:7177   */\n    tag_259:\n        /* \"#utility.yul\":7146:7170   */\n      tag_383\n        /* \"#utility.yul\":7164:7169   */\n      dup2\n        /* \"#utility.yul\":7146:7170   */\n      tag_248\n      jump\t// in\n    tag_383:\n        /* \"#utility.yul\":7141:7144   */\n      dup3\n        /* \"#utility.yul\":7134:7171   */\n      mstore\n        /* \"#utility.yul\":7059:7177   */\n      pop\n      pop\n      jump\t// out\n        /* \"#utility.yul\":7183:7803   */\n    tag_25:\n        /* \"#utility.yul\":7368:7372   */\n      0x00\n        /* \"#utility.yul\":7406:7409   */\n      0x80\n        /* \"#utility.yul\":7395:7404   */\n      dup3\n        /* \"#utility.yul\":7391:7410   */\n      add\n        /* \"#utility.yul\":7383:7410   */\n      swap1\n      pop\n        /* \"#utility.yul\":7456:7465   */\n      dup2\n        /* \"#utility.yul\":7450:7454   */\n      dup2\n        /* \"#utility.yul\":7446:7466   */\n      sub\n        /* \"#utility.yul\":7442:7443   */\n      0x00\n        /* \"#utility.yul\":7431:7440   */\n      dup4\n        /* \"#utility.yul\":7427:7444   */\n      add\n        /* \"#utility.yul\":7420:7467   */\n      mstore\n        /* \"#utility.yul\":7484:7562   */\n      tag_385\n        /* \"#utility.yul\":7557:7561   */\n      dup2\n        /* \"#utility.yul\":7548:7554   */\n      dup8\n        /* \"#utility.yul\":7484:7562   */\n      tag_257\n      jump\t// in\n    tag_385:\n        /* \"#utility.yul\":7476:7562   */\n      swap1\n      pop\n        /* \"#utility.yul\":7572:7638   */\n      tag_386\n        /* \"#utility.yul\":7634:7636   */\n      0x20\n        /* \"#utility.yul\":7623:7632   */\n      dup4\n        /* \"#utility.yul\":7619:7637   */\n      add\n        /* \"#utility.yul\":7610:7616   */\n      dup7\n        /* \"#utility.yul\":7572:7638   */\n      tag_258\n      jump\t// in\n    tag_386:\n        /* \"#utility.yul\":7648:7714   */\n      tag_387\n        /* \"#utility.yul\":7710:7712   */\n      0x40\n        /* \"#utility.yul\":7699:7708   */\n      dup4\n        /* \"#utility.yul\":7695:7713   */\n      add\n        /* \"#utility.yul\":7686:7692   */\n      dup6\n        /* \"#utility.yul\":7648:7714   */\n      tag_258\n      jump\t// in\n    tag_387:\n        /* \"#utility.yul\":7724:7796   */\n      tag_388\n        /* \"#utility.yul\":7792:7794   */\n      0x60\n        /* \"#utility.yul\":7781:7790   */\n      dup4\n        /* \"#utility.yul\":7777:7795   */\n      add\n        /* \"#utility.yul\":7768:7774   */\n      dup5\n        /* \"#utility.yul\":7724:7796   */\n      tag_259\n      jump\t// in\n    tag_388:\n        /* \"#utility.yul\":7183:7803   */\n      swap6\n      swap5\n      pop\n      pop\n      pop\n      pop\n      pop\n      jump\t// out\n        /* \"#utility.yul\":7809:9440   */\n    tag_28:\n        /* \"#utility.yul\":7944:7950   */\n      0x00\n        /* \"#utility.yul\":7952:7958   */\n      dup1\n        /* \"#utility.yul\":7960:7966   */\n      0x00\n        /* \"#utility.yul\":7968:7974   */\n      dup1\n        /* \"#utility.yul\":7976:7982   */\n      0x00\n        /* \"#utility.yul\":8025:8028   */\n      0xa0\n        /* \"#utility.yul\":8013:8022   */\n      dup7\n        /* \"#utility.yul\":8004:8011   */\n      dup9\n        /* \"#utility.yul\":8000:8023   */\n      sub\n        /* \"#utility.yul\":7996:8029   */\n      slt\n        /* \"#utility.yul\":7993:8113   */\n      iszero\n      tag_390\n      jumpi\n        /* \"#utility.yul\":8032:8111   */\n      tag_391\n      tag_237\n      jump\t// in\n    tag_391:\n        /* \"#utility.yul\":7993:8113   */\n    tag_390:\n        /* \"#utility.yul\":8180:8181   */\n      0x00\n        /* \"#utility.yul\":8169:8178   */\n      dup7\n        /* \"#utility.yul\":8165:8182   */\n      add\n        /* \"#utility.yul\":8152:8183   */\n      calldataload\n        /* \"#utility.yul\":8210:8228   */\n      0xffffffffffffffff\n        /* \"#utility.yul\":8202:8208   */\n      dup2\n        /* \"#utility.yul\":8199:8229   */\n      gt\n        /* \"#utility.yul\":8196:8313   */\n      iszero\n      tag_392\n      jumpi\n        /* \"#utility.yul\":8232:8311   */\n      tag_393\n      tag_238\n      jump\t// in\n    tag_393:\n        /* \"#utility.yul\":8196:8313   */\n    tag_392:\n        /* \"#utility.yul\":8337:8400   */\n      tag_394\n        /* \"#utility.yul\":8392:8399   */\n      dup9\n        /* \"#utility.yul\":8383:8389   */\n      dup3\n        /* \"#utility.yul\":8372:8381   */\n      dup10\n        /* \"#utility.yul\":8368:8390   */\n      add\n        /* \"#utility.yul\":8337:8400   */\n      tag_247\n      jump\t// in\n    tag_394:\n        /* \"#utility.yul\":8327:8400   */\n      swap6\n      pop\n        /* \"#utility.yul\":8123:8410   */\n      pop\n        /* \"#utility.yul\":8477:8479   */\n      0x20\n        /* \"#utility.yul\":8466:8475   */\n      dup7\n        /* \"#utility.yul\":8462:8480   */\n      add\n        /* \"#utility.yul\":8449:8481   */\n      calldataload\n        /* \"#utility.yul\":8508:8526   */\n      0xffffffffffffffff\n        /* \"#utility.yul\":8500:8506   */\n      dup2\n        /* \"#utility.yul\":8497:8527   */\n      gt\n        /* \"#utility.yul\":8494:8611   */\n      iszero\n      tag_395\n      jumpi\n        /* \"#utility.yul\":8530:8609   */\n      tag_396\n      tag_238\n      jump\t// in\n    tag_396:\n        /* \"#utility.yul\":8494:8611   */\n    tag_395:\n        /* \"#utility.yul\":8635:8698   */\n      tag_397\n        /* \"#utility.yul\":8690:8697   */\n      dup9\n        /* \"#utility.yul\":8681:8687   */\n      dup3\n        /* \"#utility.yul\":8670:8679   */\n      dup10\n        /* \"#utility.yul\":8666:8688   */\n      add\n        /* \"#utility.yul\":8635:8698   */\n      tag_247\n      jump\t// in\n    tag_397:\n        /* \"#utility.yul\":8625:8698   */\n      swap5\n      pop\n        /* \"#utility.yul\":8420:8708   */\n      pop\n        /* \"#utility.yul\":8747:8749   */\n      0x40\n        /* \"#utility.yul\":8773:8826   */\n      tag_398\n        /* \"#utility.yul\":8818:8825   */\n      dup9\n        /* \"#utility.yul\":8809:8815   */\n      dup3\n        /* \"#utility.yul\":8798:8807   */\n      dup10\n        /* \"#utility.yul\":8794:8816   */\n      add\n        /* \"#utility.yul\":8773:8826   */\n      tag_250\n      jump\t// in\n    tag_398:\n        /* \"#utility.yul\":8763:8826   */\n      swap4\n      pop\n        /* \"#utility.yul\":8718:8836   */\n      pop\n        /* \"#utility.yul\":8903:8905   */\n      0x60\n        /* \"#utility.yul\":8892:8901   */\n      dup7\n        /* \"#utility.yul\":8888:8906   */\n      add\n        /* \"#utility.yul\":8875:8907   */\n      calldataload\n        /* \"#utility.yul\":8934:8952   */\n      0xffffffffffffffff\n        /* \"#utility.yul\":8926:8932   */\n      dup2\n        /* \"#utility.yul\":8923:8953   */\n      gt\n        /* \"#utility.yul\":8920:9037   */\n      iszero\n      tag_399\n      jumpi\n        /* \"#utility.yul\":8956:9035   */\n      tag_400\n      tag_238\n      jump\t// in\n    tag_400:\n        /* \"#utility.yul\":8920:9037   */\n    tag_399:\n        /* \"#utility.yul\":9061:9124   */\n      tag_401\n        /* \"#utility.yul\":9116:9123   */\n      dup9\n        /* \"#utility.yul\":9107:9113   */\n      dup3\n        /* \"#utility.yul\":9096:9105   */\n      dup10\n        /* \"#utility.yul\":9092:9114   */\n      add\n        /* \"#utility.yul\":9061:9124   */\n      tag_247\n      jump\t// in\n    tag_401:\n        /* \"#utility.yul\":9051:9124   */\n      swap3\n      pop\n        /* \"#utility.yul\":8846:9134   */\n      pop\n        /* \"#utility.yul\":9201:9204   */\n      0x80\n        /* \"#utility.yul\":9190:9199   */\n      dup7\n        /* \"#utility.yul\":9186:9205   */\n      add\n        /* \"#utility.yul\":9173:9206   */\n      calldataload\n        /* \"#utility.yul\":9233:9251   */\n      0xffffffffffffffff\n        /* \"#utility.yul\":9225:9231   */\n      dup2\n        /* \"#utility.yul\":9222:9252   */\n      gt\n        /* \"#utility.yul\":9219:9336   */\n      iszero\n      tag_402\n      jumpi\n        /* \"#utility.yul\":9255:9334   */\n      tag_403\n      tag_238\n      jump\t// in\n    tag_403:\n        /* \"#utility.yul\":9219:9336   */\n    tag_402:\n        /* \"#utility.yul\":9360:9423   */\n      tag_404\n        /* \"#utility.yul\":9415:9422   */\n      dup9\n        /* \"#utility.yul\":9406:9412   */\n      dup3\n        /* \"#utility.yul\":9395:9404   */\n      dup10\n        /* \"#utility.yul\":9391:9413   */\n      add\n        /* \"#utility.yul\":9360:9423   */\n      tag_247\n      jump\t// in\n    tag_404:\n        /* \"#utility.yul\":9350:9423   */\n      swap2\n      pop\n        /* \"#utility.yul\":9144:9433   */\n      pop\n        /* \"#utility.yul\":7809:9440   */\n      swap3\n      swap6\n      pop\n      swap3\n      swap6\n      swap1\n      swap4\n      pop\n      jump\t// out\n        /* \"#utility.yul\":9446:10605   */\n    tag_32:\n        /* \"#utility.yul\":9553:9559   */\n      0x00\n        /* \"#utility.yul\":9561:9567   */\n      dup1\n        /* \"#utility.yul\":9569:9575   */\n      0x00\n        /* \"#utility.yul\":9618:9620   */\n      0x60\n        /* \"#utility.yul\":9606:9615   */\n      dup5\n        /* \"#utility.yul\":9597:9604   */\n      dup7\n        /* \"#utility.yul\":9593:9616   */\n      sub\n        /* \"#utility.yul\":9589:9621   */\n      slt\n        /* \"#utility.yul\":9586:9705   */\n      iszero\n      tag_406\n      jumpi\n        /* \"#utility.yul\":9624:9703   */\n      tag_407\n      tag_237\n      jump\t// in\n    tag_407:\n        /* \"#utility.yul\":9586:9705   */\n    tag_406:\n        /* \"#utility.yul\":9772:9773   */\n      0x00\n        /* \"#utility.yul\":9761:9770   */\n      dup5\n        /* \"#utility.yul\":9757:9774   */\n      add\n        /* \"#utility.yul\":9744:9775   */\n      calldataload\n        /* \"#utility.yul\":9802:9820   */\n      0xffffffffffffffff\n        /* \"#utility.yul\":9794:9800   */\n      dup2\n        /* \"#utility.yul\":9791:9821   */\n      gt\n        /* \"#utility.yul\":9788:9905   */\n      iszero\n      tag_408\n      jumpi\n        /* \"#utility.yul\":9824:9903   */\n      tag_409\n      tag_238\n      jump\t// in\n    tag_409:\n        /* \"#utility.yul\":9788:9905   */\n    tag_408:\n        /* \"#utility.yul\":9929:9992   */\n      tag_410\n        /* \"#utility.yul\":9984:9991   */\n      dup7\n        /* \"#utility.yul\":9975:9981   */\n      dup3\n        /* \"#utility.yul\":9964:9973   */\n      dup8\n        /* \"#utility.yul\":9960:9982   */\n      add\n        /* \"#utility.yul\":9929:9992   */\n      tag_247\n      jump\t// in\n    tag_410:\n        /* \"#utility.yul\":9919:9992   */\n      swap4\n      pop\n        /* \"#utility.yul\":9715:10002   */\n      pop\n        /* \"#utility.yul\":10069:10071   */\n      0x20\n        /* \"#utility.yul\":10058:10067   */\n      dup5\n        /* \"#utility.yul\":10054:10072   */\n      add\n        /* \"#utility.yul\":10041:10073   */\n      calldataload\n        /* \"#utility.yul\":10100:10118   */\n      0xffffffffffffffff\n        /* \"#utility.yul\":10092:10098   */\n      dup2\n        /* \"#utility.yul\":10089:10119   */\n      gt\n        /* \"#utility.yul\":10086:10203   */\n      iszero\n      tag_411\n      jumpi\n        /* \"#utility.yul\":10122:10201   */\n      tag_412\n      tag_238\n      jump\t// in\n    tag_412:\n        /* \"#utility.yul\":10086:10203   */\n    tag_411:\n        /* \"#utility.yul\":10227:10290   */\n      tag_413\n        /* \"#utility.yul\":10282:10289   */\n      dup7\n        /* \"#utility.yul\":10273:10279   */\n      dup3\n        /* \"#utility.yul\":10262:10271   */\n      dup8\n        /* \"#utility.yul\":10258:10280   */\n      add\n        /* \"#utility.yul\":10227:10290   */\n      tag_247\n      jump\t// in\n    tag_413:\n        /* \"#utility.yul\":10217:10290   */\n      swap3\n      pop\n        /* \"#utility.yul\":10012:10300   */\n      pop\n        /* \"#utility.yul\":10367:10369   */\n      0x40\n        /* \"#utility.yul\":10356:10365   */\n      dup5\n        /* \"#utility.yul\":10352:10370   */\n      add\n        /* \"#utility.yul\":10339:10371   */\n      calldataload\n        /* \"#utility.yul\":10398:10416   */\n      0xffffffffffffffff\n        /* \"#utility.yul\":10390:10396   */\n      dup2\n        /* \"#utility.yul\":10387:10417   */\n      gt\n        /* \"#utility.yul\":10384:10501   */\n      iszero\n      tag_414\n      jumpi\n        /* \"#utility.yul\":10420:10499   */\n      tag_415\n      tag_238\n      jump\t// in\n    tag_415:\n        /* \"#utility.yul\":10384:10501   */\n    tag_414:\n        /* \"#utility.yul\":10525:10588   */\n      tag_416\n        /* \"#utility.yul\":10580:10587   */\n      dup7\n        /* \"#utility.yul\":10571:10577   */\n      dup3\n        /* \"#utility.yul\":10560:10569   */\n      dup8\n        /* \"#utility.yul\":10556:10578   */\n      add\n        /* \"#utility.yul\":10525:10588   */\n      tag_247\n      jump\t// in\n    tag_416:\n        /* \"#utility.yul\":10515:10588   */\n      swap2\n      pop\n        /* \"#utility.yul\":10310:10598   */\n      pop\n        /* \"#utility.yul\":9446:10605   */\n      swap3\n      pop\n      swap3\n      pop\n      swap3\n      jump\t// out\n        /* \"#utility.yul\":10611:10932   */\n    tag_260:\n        /* \"#utility.yul\":10698:10702   */\n      0x00\n        /* \"#utility.yul\":10788:10806   */\n      0xffffffffffffffff\n        /* \"#utility.yul\":10780:10786   */\n      dup3\n        /* \"#utility.yul\":10777:10807   */\n      gt\n        /* \"#utility.yul\":10774:10830   */\n      iszero\n      tag_418\n      jumpi\n        /* \"#utility.yul\":10810:10828   */\n      tag_419\n      tag_153\n      jump\t// in\n    tag_419:\n        /* \"#utility.yul\":10774:10830   */\n    tag_418:\n        /* \"#utility.yul\":10860:10864   */\n      0x20\n        /* \"#utility.yul\":10852:10858   */\n      dup3\n        /* \"#utility.yul\":10848:10865   */\n      mul\n        /* \"#utility.yul\":10840:10865   */\n      swap1\n      pop\n        /* \"#utility.yul\":10920:10924   */\n      0x20\n        /* \"#utility.yul\":10914:10918   */\n      dup2\n        /* \"#utility.yul\":10910:10925   */\n      add\n        /* \"#utility.yul\":10902:10925   */\n      swap1\n      pop\n        /* \"#utility.yul\":10611:10932   */\n      swap2\n      swap1\n      pop\n      jump\t// out\n        /* \"#utility.yul\":10938:11055   */\n    tag_261:\n        /* \"#utility.yul\":11047:11048   */\n      0x00\n        /* \"#utility.yul\":11044:11045   */\n      dup1\n        /* \"#utility.yul\":11037:11049   */\n      revert\n        /* \"#utility.yul\":11077:12022   */\n    tag_262:\n        /* \"#utility.yul\":11183:11188   */\n      0x00\n        /* \"#utility.yul\":11208:11299   */\n      tag_422\n        /* \"#utility.yul\":11224:11298   */\n      tag_423\n        /* \"#utility.yul\":11291:11297   */\n      dup5\n        /* \"#utility.yul\":11224:11298   */\n      tag_260\n      jump\t// in\n    tag_423:\n        /* \"#utility.yul\":11208:11299   */\n      tag_243\n      jump\t// in\n    tag_422:\n        /* \"#utility.yul\":11199:11299   */\n      swap1\n      pop\n        /* \"#utility.yul\":11319:11324   */\n      dup1\n        /* \"#utility.yul\":11348:11354   */\n      dup4\n        /* \"#utility.yul\":11341:11346   */\n      dup3\n        /* \"#utility.yul\":11334:11355   */\n      mstore\n        /* \"#utility.yul\":11382:11386   */\n      0x20\n        /* \"#utility.yul\":11375:11380   */\n      dup3\n        /* \"#utility.yul\":11371:11387   */\n      add\n        /* \"#utility.yul\":11364:11387   */\n      swap1\n      pop\n        /* \"#utility.yul\":11435:11439   */\n      0x20\n        /* \"#utility.yul\":11427:11433   */\n      dup5\n        /* \"#utility.yul\":11423:11440   */\n      mul\n        /* \"#utility.yul\":11415:11421   */\n      dup4\n        /* \"#utility.yul\":11411:11441   */\n      add\n        /* \"#utility.yul\":11464:11467   */\n      dup6\n        /* \"#utility.yul\":11456:11462   */\n      dup2\n        /* \"#utility.yul\":11453:11468   */\n      gt\n        /* \"#utility.yul\":11450:11572   */\n      iszero\n      tag_424\n      jumpi\n        /* \"#utility.yul\":11483:11562   */\n      tag_425\n      tag_261\n      jump\t// in\n    tag_425:\n        /* \"#utility.yul\":11450:11572   */\n    tag_424:\n        /* \"#utility.yul\":11598:11604   */\n      dup4\n        /* \"#utility.yul\":11581:12016   */\n    tag_426:\n        /* \"#utility.yul\":11615:11621   */\n      dup2\n        /* \"#utility.yul\":11610:11613   */\n      dup2\n        /* \"#utility.yul\":11607:11622   */\n      lt\n        /* \"#utility.yul\":11581:12016   */\n      iszero\n      tag_428\n      jumpi\n        /* \"#utility.yul\":11704:11707   */\n      dup1\n        /* \"#utility.yul\":11691:11708   */\n      calldataload\n        /* \"#utility.yul\":11740:11758   */\n      0xffffffffffffffff\n        /* \"#utility.yul\":11727:11738   */\n      dup2\n        /* \"#utility.yul\":11724:11759   */\n      gt\n        /* \"#utility.yul\":11721:11843   */\n      iszero\n      tag_429\n      jumpi\n        /* \"#utility.yul\":11762:11841   */\n      tag_430\n      tag_239\n      jump\t// in\n    tag_430:\n        /* \"#utility.yul\":11721:11843   */\n    tag_429:\n        /* \"#utility.yul\":11886:11897   */\n      dup1\n        /* \"#utility.yul\":11878:11884   */\n      dup7\n        /* \"#utility.yul\":11874:11898   */\n      add\n        /* \"#utility.yul\":11924:11971   */\n      tag_431\n        /* \"#utility.yul\":11967:11970   */\n      dup10\n        /* \"#utility.yul\":11955:11965   */\n      dup3\n        /* \"#utility.yul\":11924:11971   */\n      tag_247\n      jump\t// in\n    tag_431:\n        /* \"#utility.yul\":11919:11922   */\n      dup6\n        /* \"#utility.yul\":11912:11972   */\n      mstore\n        /* \"#utility.yul\":12001:12005   */\n      0x20\n        /* \"#utility.yul\":11996:11999   */\n      dup6\n        /* \"#utility.yul\":11992:12006   */\n      add\n        /* \"#utility.yul\":11985:12006   */\n      swap5\n      pop\n        /* \"#utility.yul\":11657:12016   */\n      pop\n      pop\n        /* \"#utility.yul\":11641:11645   */\n      0x20\n        /* \"#utility.yul\":11636:11639   */\n      dup2\n        /* \"#utility.yul\":11632:11646   */\n      add\n        /* \"#utility.yul\":11625:11646   */\n      swap1\n      pop\n        /* \"#utility.yul\":11581:12016   */\n      jump(tag_426)\n    tag_428:\n        /* \"#utility.yul\":11585:11606   */\n      pop\n        /* \"#utility.yul\":11189:12022   */\n      pop\n      pop\n        /* \"#utility.yul\":11077:12022   */\n      swap4\n      swap3\n      pop\n      pop\n      pop\n      jump\t// out\n        /* \"#utility.yul\":12044:12434   */\n    tag_263:\n        /* \"#utility.yul\":12125:12130   */\n      0x00\n        /* \"#utility.yul\":12174:12177   */\n      dup3\n        /* \"#utility.yul\":12167:12171   */\n      0x1f\n        /* \"#utility.yul\":12159:12165   */\n      dup4\n        /* \"#utility.yul\":12155:12172   */\n      add\n        /* \"#utility.yul\":12151:12178   */\n      slt\n        /* \"#utility.yul\":12141:12263   */\n      tag_433\n      jumpi\n        /* \"#utility.yul\":12182:12261   */\n      tag_434\n      tag_239\n      jump\t// in\n    tag_434:\n        /* \"#utility.yul\":12141:12263   */\n    tag_433:\n        /* \"#utility.yul\":12299:12305   */\n      dup2\n        /* \"#utility.yul\":12286:12306   */\n      calldataload\n        /* \"#utility.yul\":12324:12428   */\n      tag_435\n        /* \"#utility.yul\":12424:12427   */\n      dup5\n        /* \"#utility.yul\":12416:12422   */\n      dup3\n        /* \"#utility.yul\":12409:12413   */\n      0x20\n        /* \"#utility.yul\":12401:12407   */\n      dup7\n        /* \"#utility.yul\":12397:12414   */\n      add\n        /* \"#utility.yul\":12324:12428   */\n      tag_262\n      jump\t// in\n    tag_435:\n        /* \"#utility.yul\":12315:12428   */\n      swap2\n      pop\n        /* \"#utility.yul\":12131:12434   */\n      pop\n        /* \"#utility.yul\":12044:12434   */\n      swap3\n      swap2\n      pop\n      pop\n      jump\t// out\n        /* \"#utility.yul\":12440:14075   */\n    tag_36:\n        /* \"#utility.yul\":12641:12647   */\n      0x00\n        /* \"#utility.yul\":12649:12655   */\n      dup1\n        /* \"#utility.yul\":12657:12663   */\n      0x00\n        /* \"#utility.yul\":12665:12671   */\n      dup1\n        /* \"#utility.yul\":12714:12717   */\n      0x80\n        /* \"#utility.yul\":12702:12711   */\n      dup6\n        /* \"#utility.yul\":12693:12700   */\n      dup8\n        /* \"#utility.yul\":12689:12712   */\n      sub\n        /* \"#utility.yul\":12685:12718   */\n      slt\n        /* \"#utility.yul\":12682:12802   */\n      iszero\n      tag_437\n      jumpi\n        /* \"#utility.yul\":12721:12800   */\n      tag_438\n      tag_237\n      jump\t// in\n    tag_438:\n        /* \"#utility.yul\":12682:12802   */\n    tag_437:\n        /* \"#utility.yul\":12869:12870   */\n      0x00\n        /* \"#utility.yul\":12858:12867   */\n      dup6\n        /* \"#utility.yul\":12854:12871   */\n      add\n        /* \"#utility.yul\":12841:12872   */\n      calldataload\n        /* \"#utility.yul\":12899:12917   */\n      0xffffffffffffffff\n        /* \"#utility.yul\":12891:12897   */\n      dup2\n        /* \"#utility.yul\":12888:12918   */\n      gt\n        /* \"#utility.yul\":12885:13002   */\n      iszero\n      tag_439\n      jumpi\n        /* \"#utility.yul\":12921:13000   */\n      tag_440\n      tag_238\n      jump\t// in\n    tag_440:\n        /* \"#utility.yul\":12885:13002   */\n    tag_439:\n        /* \"#utility.yul\":13026:13089   */\n      tag_441\n        /* \"#utility.yul\":13081:13088   */\n      dup8\n        /* \"#utility.yul\":13072:13078   */\n      dup3\n        /* \"#utility.yul\":13061:13070   */\n      dup9\n        /* \"#utility.yul\":13057:13079   */\n      add\n        /* \"#utility.yul\":13026:13089   */\n      tag_247\n      jump\t// in\n    tag_441:\n        /* \"#utility.yul\":13016:13089   */\n      swap5\n      pop\n        /* \"#utility.yul\":12812:13099   */\n      pop\n        /* \"#utility.yul\":13166:13168   */\n      0x20\n        /* \"#utility.yul\":13155:13164   */\n      dup6\n        /* \"#utility.yul\":13151:13169   */\n      add\n        /* \"#utility.yul\":13138:13170   */\n      calldataload\n        /* \"#utility.yul\":13197:13215   */\n      0xffffffffffffffff\n        /* \"#utility.yul\":13189:13195   */\n      dup2\n        /* \"#utility.yul\":13186:13216   */\n      gt\n        /* \"#utility.yul\":13183:13300   */\n      iszero\n      tag_442\n      jumpi\n        /* \"#utility.yul\":13219:13298   */\n      tag_443\n      tag_238\n      jump\t// in\n    tag_443:\n        /* \"#utility.yul\":13183:13300   */\n    tag_442:\n        /* \"#utility.yul\":13324:13412   */\n      tag_444\n        /* \"#utility.yul\":13404:13411   */\n      dup8\n        /* \"#utility.yul\":13395:13401   */\n      dup3\n        /* \"#utility.yul\":13384:13393   */\n      dup9\n        /* \"#utility.yul\":13380:13402   */\n      add\n        /* \"#utility.yul\":13324:13412   */\n      tag_263\n      jump\t// in\n    tag_444:\n        /* \"#utility.yul\":13314:13412   */\n      swap4\n      pop\n        /* \"#utility.yul\":13109:13422   */\n      pop\n        /* \"#utility.yul\":13489:13491   */\n      0x40\n        /* \"#utility.yul\":13478:13487   */\n      dup6\n        /* \"#utility.yul\":13474:13492   */\n      add\n        /* \"#utility.yul\":13461:13493   */\n      calldataload\n        /* \"#utility.yul\":13520:13538   */\n      0xffffffffffffffff\n        /* \"#utility.yul\":13512:13518   */\n      dup2\n        /* \"#utility.yul\":13509:13539   */\n      gt\n        /* \"#utility.yul\":13506:13623   */\n      iszero\n      tag_445\n      jumpi\n        /* \"#utility.yul\":13542:13621   */\n      tag_446\n      tag_238\n      jump\t// in\n    tag_446:\n        /* \"#utility.yul\":13506:13623   */\n    tag_445:\n        /* \"#utility.yul\":13647:13735   */\n      tag_447\n        /* \"#utility.yul\":13727:13734   */\n      dup8\n        /* \"#utility.yul\":13718:13724   */\n      dup3\n        /* \"#utility.yul\":13707:13716   */\n      dup9\n        /* \"#utility.yul\":13703:13725   */\n      add\n        /* \"#utility.yul\":13647:13735   */\n      tag_263\n      jump\t// in\n    tag_447:\n        /* \"#utility.yul\":13637:13735   */\n      swap3\n      pop\n        /* \"#utility.yul\":13432:13745   */\n      pop\n        /* \"#utility.yul\":13812:13814   */\n      0x60\n        /* \"#utility.yul\":13801:13810   */\n      dup6\n        /* \"#utility.yul\":13797:13815   */\n      add\n        /* \"#utility.yul\":13784:13816   */\n      calldataload\n        /* \"#utility.yul\":13843:13861   */\n      0xffffffffffffffff\n        /* \"#utility.yul\":13835:13841   */\n      dup2\n        /* \"#utility.yul\":13832:13862   */\n      gt\n        /* \"#utility.yul\":13829:13946   */\n      iszero\n      tag_448\n      jumpi\n        /* \"#utility.yul\":13865:13944   */\n      tag_449\n      tag_238\n      jump\t// in\n    tag_449:\n        /* \"#utility.yul\":13829:13946   */\n    tag_448:\n        /* \"#utility.yul\":13970:14058   */\n      tag_450\n        /* \"#utility.yul\":14050:14057   */\n      dup8\n        /* \"#utility.yul\":14041:14047   */\n      dup3\n        /* \"#utility.yul\":14030:14039   */\n      dup9\n        /* \"#utility.yul\":14026:14048   */\n      add\n        /* \"#utility.yul\":13970:14058   */\n      tag_263\n      jump\t// in\n    tag_450:\n        /* \"#utility.yul\":13960:14058   */\n      swap2\n      pop\n        /* \"#utility.yul\":13755:14068   */\n      pop\n        /* \"#utility.yul\":12440:14075   */\n      swap3\n      swap6\n      swap2\n      swap5\n      pop\n      swap3\n      pop\n      jump\t// out\n        /* \"#utility.yul\":14081:14590   */\n    tag_40:\n        /* \"#utility.yul\":14150:14156   */\n      0x00\n        /* \"#utility.yul\":14199:14201   */\n      0x20\n        /* \"#utility.yul\":14187:14196   */\n      dup3\n        /* \"#utility.yul\":14178:14185   */\n      dup5\n        /* \"#utility.yul\":14174:14197   */\n      sub\n        /* \"#utility.yul\":14170:14202   */\n      slt\n        /* \"#utility.yul\":14167:14286   */\n      iszero\n      tag_452\n      jumpi\n        /* \"#utility.yul\":14205:14284   */\n      tag_453\n      tag_237\n      jump\t// in\n    tag_453:\n        /* \"#utility.yul\":14167:14286   */\n    tag_452:\n        /* \"#utility.yul\":14353:14354   */\n      0x00\n        /* \"#utility.yul\":14342:14351   */\n      dup3\n        /* \"#utility.yul\":14338:14355   */\n      add\n        /* \"#utility.yul\":14325:14356   */\n      calldataload\n        /* \"#utility.yul\":14383:14401   */\n      0xffffffffffffffff\n        /* \"#utility.yul\":14375:14381   */\n      dup2\n        /* \"#utility.yul\":14372:14402   */\n      gt\n        /* \"#utility.yul\":14369:14486   */\n      iszero\n      tag_454\n      jumpi\n        /* \"#utility.yul\":14405:14484   */\n      tag_455\n      tag_238\n      jump\t// in\n    tag_455:\n        /* \"#utility.yul\":14369:14486   */\n    tag_454:\n        /* \"#utility.yul\":14510:14573   */\n      tag_456\n        /* \"#utility.yul\":14565:14572   */\n      dup5\n        /* \"#utility.yul\":14556:14562   */\n      dup3\n        /* \"#utility.yul\":14545:14554   */\n      dup6\n        /* \"#utility.yul\":14541:14563   */\n      add\n        /* \"#utility.yul\":14510:14573   */\n      tag_247\n      jump\t// in\n    tag_456:\n        /* \"#utility.yul\":14500:14573   */\n      swap2\n      pop\n        /* \"#utility.yul\":14296:14583   */\n      pop\n        /* \"#utility.yul\":14081:14590   */\n      swap3\n      swap2\n      pop\n      pop\n      jump\t// out\n        /* \"#utility.yul\":14596:15422   */\n    tag_43:\n        /* \"#utility.yul\":14833:14837   */\n      0x00\n        /* \"#utility.yul\":14871:14874   */\n      0x80\n        /* \"#utility.yul\":14860:14869   */\n      dup3\n        /* \"#utility.yul\":14856:14875   */\n      add\n        /* \"#utility.yul\":14848:14875   */\n      swap1\n      pop\n        /* \"#utility.yul\":14921:14930   */\n      dup2\n        /* \"#utility.yul\":14915:14919   */\n      dup2\n        /* \"#utility.yul\":14911:14931   */\n      sub\n        /* \"#utility.yul\":14907:14908   */\n      0x00\n        /* \"#utility.yul\":14896:14905   */\n      dup4\n        /* \"#utility.yul\":14892:14909   */\n      add\n        /* \"#utility.yul\":14885:14932   */\n      mstore\n        /* \"#utility.yul\":14949:15027   */\n      tag_458\n        /* \"#utility.yul\":15022:15026   */\n      dup2\n        /* \"#utility.yul\":15013:15019   */\n      dup8\n        /* \"#utility.yul\":14949:15027   */\n      tag_257\n      jump\t// in\n    tag_458:\n        /* \"#utility.yul\":14941:15027   */\n      swap1\n      pop\n        /* \"#utility.yul\":15037:15109   */\n      tag_459\n        /* \"#utility.yul\":15105:15107   */\n      0x20\n        /* \"#utility.yul\":15094:15103   */\n      dup4\n        /* \"#utility.yul\":15090:15108   */\n      add\n        /* \"#utility.yul\":15081:15087   */\n      dup7\n        /* \"#utility.yul\":15037:15109   */\n      tag_259\n      jump\t// in\n    tag_459:\n        /* \"#utility.yul\":15156:15165   */\n      dup2\n        /* \"#utility.yul\":15150:15154   */\n      dup2\n        /* \"#utility.yul\":15146:15166   */\n      sub\n        /* \"#utility.yul\":15141:15143   */\n      0x40\n        /* \"#utility.yul\":15130:15139   */\n      dup4\n        /* \"#utility.yul\":15126:15144   */\n      add\n        /* \"#utility.yul\":15119:15167   */\n      mstore\n        /* \"#utility.yul\":15184:15262   */\n      tag_460\n        /* \"#utility.yul\":15257:15261   */\n      dup2\n        /* \"#utility.yul\":15248:15254   */\n      dup6\n        /* \"#utility.yul\":15184:15262   */\n      tag_257\n      jump\t// in\n    tag_460:\n        /* \"#utility.yul\":15176:15262   */\n      swap1\n      pop\n        /* \"#utility.yul\":15309:15318   */\n      dup2\n        /* \"#utility.yul\":15303:15307   */\n      dup2\n        /* \"#utility.yul\":15299:15319   */\n      sub\n        /* \"#utility.yul\":15294:15296   */\n      0x60\n        /* \"#utility.yul\":15283:15292   */\n      dup4\n        /* \"#utility.yul\":15279:15297   */\n      add\n        /* \"#utility.yul\":15272:15320   */\n      mstore\n        /* \"#utility.yul\":15337:15415   */\n      tag_461\n        /* \"#utility.yul\":15410:15414   */\n      dup2\n        /* \"#utility.yul\":15401:15407   */\n      dup5\n        /* \"#utility.yul\":15337:15415   */\n      tag_257\n      jump\t// in\n    tag_461:\n        /* \"#utility.yul\":15329:15415   */\n      swap1\n      pop\n        /* \"#utility.yul\":14596:15422   */\n      swap6\n      swap5\n      pop\n      pop\n      pop\n      pop\n      pop\n      jump\t// out\n        /* \"#utility.yul\":15428:15570   */\n    tag_264:\n        /* \"#utility.yul\":15523:15529   */\n      0x00\n        /* \"#utility.yul\":15557:15562   */\n      dup2\n        /* \"#utility.yul\":15551:15563   */\n      mload\n        /* \"#utility.yul\":15541:15563   */\n      swap1\n      pop\n        /* \"#utility.yul\":15428:15570   */\n      swap2\n      swap1\n      pop\n      jump\t// out\n        /* \"#utility.yul\":15576:15788   */\n    tag_265:\n        /* \"#utility.yul\":15703:15714   */\n      0x00\n        /* \"#utility.yul\":15737:15743   */\n      dup3\n        /* \"#utility.yul\":15732:15735   */\n      dup3\n        /* \"#utility.yul\":15725:15744   */\n      mstore\n        /* \"#utility.yul\":15777:15781   */\n      0x20\n        /* \"#utility.yul\":15772:15775   */\n      dup3\n        /* \"#utility.yul\":15768:15782   */\n      add\n        /* \"#utility.yul\":15753:15782   */\n      swap1\n      pop\n        /* \"#utility.yul\":15576:15788   */\n      swap3\n      swap2\n      pop\n      pop\n      jump\t// out\n        /* \"#utility.yul\":15794:15954   */\n    tag_266:\n        /* \"#utility.yul\":15889:15893   */\n      0x00\n        /* \"#utility.yul\":15912:15915   */\n      dup2\n        /* \"#utility.yul\":15904:15915   */\n      swap1\n      pop\n        /* \"#utility.yul\":15942:15946   */\n      0x20\n        /* \"#utility.yul\":15937:15940   */\n      dup3\n        /* \"#utility.yul\":15933:15947   */\n      add\n        /* \"#utility.yul\":15925:15947   */\n      swap1\n      pop\n        /* \"#utility.yul\":15794:15954   */\n      swap2\n      swap1\n      pop\n      jump\t// out\n        /* \"#utility.yul\":15960:16119   */\n    tag_267:\n        /* \"#utility.yul\":16034:16045   */\n      0x00\n        /* \"#utility.yul\":16068:16074   */\n      dup3\n        /* \"#utility.yul\":16063:16066   */\n      dup3\n        /* \"#utility.yul\":16056:16075   */\n      mstore\n        /* \"#utility.yul\":16108:16112   */\n      0x20\n        /* \"#utility.yul\":16103:16106   */\n      dup3\n        /* \"#utility.yul\":16099:16113   */\n      add\n        /* \"#utility.yul\":16084:16113   */\n      swap1\n      pop\n        /* \"#utility.yul\":15960:16119   */\n      swap3\n      swap2\n      pop\n      pop\n      jump\t// out\n        /* \"#utility.yul\":16125:16482   */\n    tag_268:\n        /* \"#utility.yul\":16203:16206   */\n      0x00\n        /* \"#utility.yul\":16231:16270   */\n      tag_467\n        /* \"#utility.yul\":16264:16269   */\n      dup3\n        /* \"#utility.yul\":16231:16270   */\n      tag_254\n      jump\t// in\n    tag_467:\n        /* \"#utility.yul\":16286:16347   */\n      tag_468\n        /* \"#utility.yul\":16340:16346   */\n      dup2\n        /* \"#utility.yul\":16335:16338   */\n      dup6\n        /* \"#utility.yul\":16286:16347   */\n      tag_267\n      jump\t// in\n    tag_468:\n        /* \"#utility.yul\":16279:16347   */\n      swap4\n      pop\n        /* \"#utility.yul\":16356:16421   */\n      tag_469\n        /* \"#utility.yul\":16414:16420   */\n      dup2\n        /* \"#utility.yul\":16409:16412   */\n      dup6\n        /* \"#utility.yul\":16402:16406   */\n      0x20\n        /* \"#utility.yul\":16395:16400   */\n      dup7\n        /* \"#utility.yul\":16391:16407   */\n      add\n        /* \"#utility.yul\":16356:16421   */\n      tag_256\n      jump\t// in\n    tag_469:\n        /* \"#utility.yul\":16446:16475   */\n      tag_470\n        /* \"#utility.yul\":16468:16474   */\n      dup2\n        /* \"#utility.yul\":16446:16475   */\n      tag_241\n      jump\t// in\n    tag_470:\n        /* \"#utility.yul\":16441:16444   */\n      dup5\n        /* \"#utility.yul\":16437:16476   */\n      add\n        /* \"#utility.yul\":16430:16476   */\n      swap2\n      pop\n        /* \"#utility.yul\":16207:16482   */\n      pop\n        /* \"#utility.yul\":16125:16482   */\n      swap3\n      swap2\n      pop\n      pop\n      jump\t// out\n        /* \"#utility.yul\":16488:16596   */\n    tag_269:\n        /* \"#utility.yul\":16565:16589   */\n      tag_472\n        /* \"#utility.yul\":16583:16588   */\n      dup2\n        /* \"#utility.yul\":16565:16589   */\n      tag_248\n      jump\t// in\n    tag_472:\n        /* \"#utility.yul\":16560:16563   */\n      dup3\n        /* \"#utility.yul\":16553:16590   */\n      mstore\n        /* \"#utility.yul\":16488:16596   */\n      pop\n      pop\n      jump\t// out\n        /* \"#utility.yul\":16602:16701   */\n    tag_270:\n        /* \"#utility.yul\":16673:16694   */\n      tag_474\n        /* \"#utility.yul\":16688:16693   */\n      dup2\n        /* \"#utility.yul\":16673:16694   */\n      tag_251\n      jump\t// in\n    tag_474:\n        /* \"#utility.yul\":16668:16671   */\n      dup3\n        /* \"#utility.yul\":16661:16695   */\n      mstore\n        /* \"#utility.yul\":16602:16701   */\n      pop\n      pop\n      jump\t// out\n        /* \"#utility.yul\":16787:18314   */\n    tag_271:\n        /* \"#utility.yul\":16902:16905   */\n      0x00\n        /* \"#utility.yul\":16938:16942   */\n      0xc0\n        /* \"#utility.yul\":16933:16936   */\n      dup4\n        /* \"#utility.yul\":16929:16943   */\n      add\n        /* \"#utility.yul\":17025:17029   */\n      0x00\n        /* \"#utility.yul\":17018:17023   */\n      dup4\n        /* \"#utility.yul\":17014:17030   */\n      add\n        /* \"#utility.yul\":17008:17031   */\n      mload\n        /* \"#utility.yul\":17078:17081   */\n      dup5\n        /* \"#utility.yul\":17072:17076   */\n      dup3\n        /* \"#utility.yul\":17068:17082   */\n      sub\n        /* \"#utility.yul\":17061:17065   */\n      0x00\n        /* \"#utility.yul\":17056:17059   */\n      dup7\n        /* \"#utility.yul\":17052:17066   */\n      add\n        /* \"#utility.yul\":17045:17083   */\n      mstore\n        /* \"#utility.yul\":17104:17177   */\n      tag_476\n        /* \"#utility.yul\":17172:17176   */\n      dup3\n        /* \"#utility.yul\":17158:17170   */\n      dup3\n        /* \"#utility.yul\":17104:17177   */\n      tag_268\n      jump\t// in\n    tag_476:\n        /* \"#utility.yul\":17096:17177   */\n      swap2\n      pop\n        /* \"#utility.yul\":16953:17188   */\n      pop\n        /* \"#utility.yul\":17276:17280   */\n      0x20\n        /* \"#utility.yul\":17269:17274   */\n      dup4\n        /* \"#utility.yul\":17265:17281   */\n      add\n        /* \"#utility.yul\":17259:17282   */\n      mload\n        /* \"#utility.yul\":17329:17332   */\n      dup5\n        /* \"#utility.yul\":17323:17327   */\n      dup3\n        /* \"#utility.yul\":17319:17333   */\n      sub\n        /* \"#utility.yul\":17312:17316   */\n      0x20\n        /* \"#utility.yul\":17307:17310   */\n      dup7\n        /* \"#utility.yul\":17303:17317   */\n      add\n        /* \"#utility.yul\":17296:17334   */\n      mstore\n        /* \"#utility.yul\":17355:17428   */\n      tag_477\n        /* \"#utility.yul\":17423:17427   */\n      dup3\n        /* \"#utility.yul\":17409:17421   */\n      dup3\n        /* \"#utility.yul\":17355:17428   */\n      tag_268\n      jump\t// in\n    tag_477:\n        /* \"#utility.yul\":17347:17428   */\n      swap2\n      pop\n        /* \"#utility.yul\":17198:17439   */\n      pop\n        /* \"#utility.yul\":17525:17529   */\n      0x40\n        /* \"#utility.yul\":17518:17523   */\n      dup4\n        /* \"#utility.yul\":17514:17530   */\n      add\n        /* \"#utility.yul\":17508:17531   */\n      mload\n        /* \"#utility.yul\":17544:17607   */\n      tag_478\n        /* \"#utility.yul\":17601:17605   */\n      0x40\n        /* \"#utility.yul\":17596:17599   */\n      dup7\n        /* \"#utility.yul\":17592:17606   */\n      add\n        /* \"#utility.yul\":17578:17590   */\n      dup3\n        /* \"#utility.yul\":17544:17607   */\n      tag_269\n      jump\t// in\n    tag_478:\n        /* \"#utility.yul\":17449:17617   */\n      pop\n        /* \"#utility.yul\":17699:17703   */\n      0x60\n        /* \"#utility.yul\":17692:17697   */\n      dup4\n        /* \"#utility.yul\":17688:17704   */\n      add\n        /* \"#utility.yul\":17682:17705   */\n      mload\n        /* \"#utility.yul\":17752:17755   */\n      dup5\n        /* \"#utility.yul\":17746:17750   */\n      dup3\n        /* \"#utility.yul\":17742:17756   */\n      sub\n        /* \"#utility.yul\":17735:17739   */\n      0x60\n        /* \"#utility.yul\":17730:17733   */\n      dup7\n        /* \"#utility.yul\":17726:17740   */\n      add\n        /* \"#utility.yul\":17719:17757   */\n      mstore\n        /* \"#utility.yul\":17778:17851   */\n      tag_479\n        /* \"#utility.yul\":17846:17850   */\n      dup3\n        /* \"#utility.yul\":17832:17844   */\n      dup3\n        /* \"#utility.yul\":17778:17851   */\n      tag_268\n      jump\t// in\n    tag_479:\n        /* \"#utility.yul\":17770:17851   */\n      swap2\n      pop\n        /* \"#utility.yul\":17627:17862   */\n      pop\n        /* \"#utility.yul\":17951:17955   */\n      0x80\n        /* \"#utility.yul\":17944:17949   */\n      dup4\n        /* \"#utility.yul\":17940:17956   */\n      add\n        /* \"#utility.yul\":17934:17957   */\n      mload\n        /* \"#utility.yul\":18004:18007   */\n      dup5\n        /* \"#utility.yul\":17998:18002   */\n      dup3\n        /* \"#utility.yul\":17994:18008   */\n      sub\n        /* \"#utility.yul\":17987:17991   */\n      0x80\n        /* \"#utility.yul\":17982:17985   */\n      dup7\n        /* \"#utility.yul\":17978:17992   */\n      add\n        /* \"#utility.yul\":17971:18009   */\n      mstore\n        /* \"#utility.yul\":18030:18103   */\n      tag_480\n        /* \"#utility.yul\":18098:18102   */\n      dup3\n        /* \"#utility.yul\":18084:18096   */\n      dup3\n        /* \"#utility.yul\":18030:18103   */\n      tag_268\n      jump\t// in\n    tag_480:\n        /* \"#utility.yul\":18022:18103   */\n      swap2\n      pop\n        /* \"#utility.yul\":17872:18114   */\n      pop\n        /* \"#utility.yul\":18201:18205   */\n      0xa0\n        /* \"#utility.yul\":18194:18199   */\n      dup4\n        /* \"#utility.yul\":18190:18206   */\n      add\n        /* \"#utility.yul\":18184:18207   */\n      mload\n        /* \"#utility.yul\":18220:18277   */\n      tag_481\n        /* \"#utility.yul\":18271:18275   */\n      0xa0\n        /* \"#utility.yul\":18266:18269   */\n      dup7\n        /* \"#utility.yul\":18262:18276   */\n      add\n        /* \"#utility.yul\":18248:18260   */\n      dup3\n        /* \"#utility.yul\":18220:18277   */\n      tag_270\n      jump\t// in\n    tag_481:\n        /* \"#utility.yul\":18124:18287   */\n      pop\n        /* \"#utility.yul\":18304:18308   */\n      dup1\n        /* \"#utility.yul\":18297:18308   */\n      swap2\n      pop\n        /* \"#utility.yul\":16907:18314   */\n      pop\n        /* \"#utility.yul\":16787:18314   */\n      swap3\n      swap2\n      pop\n      pop\n      jump\t// out\n        /* \"#utility.yul\":18320:18588   */\n    tag_272:\n        /* \"#utility.yul\":18445:18455   */\n      0x00\n        /* \"#utility.yul\":18480:18582   */\n      tag_483\n        /* \"#utility.yul\":18578:18581   */\n      dup4\n        /* \"#utility.yul\":18570:18576   */\n      dup4\n        /* \"#utility.yul\":18480:18582   */\n      tag_271\n      jump\t// in\n    tag_483:\n        /* \"#utility.yul\":18466:18582   */\n      swap1\n      pop\n        /* \"#utility.yul\":18320:18588   */\n      swap3\n      swap2\n      pop\n      pop\n      jump\t// out\n        /* \"#utility.yul\":18594:18735   */\n    tag_273:\n        /* \"#utility.yul\":18692:18696   */\n      0x00\n        /* \"#utility.yul\":18724:18728   */\n      0x20\n        /* \"#utility.yul\":18719:18722   */\n      dup3\n        /* \"#utility.yul\":18715:18729   */\n      add\n        /* \"#utility.yul\":18707:18729   */\n      swap1\n      pop\n        /* \"#utility.yul\":18594:18735   */\n      swap2\n      swap1\n      pop\n      jump\t// out\n        /* \"#utility.yul\":18825:19960   */\n    tag_274:\n        /* \"#utility.yul\":19000:19003   */\n      0x00\n        /* \"#utility.yul\":19029:19111   */\n      tag_486\n        /* \"#utility.yul\":19105:19110   */\n      dup3\n        /* \"#utility.yul\":19029:19111   */\n      tag_264\n      jump\t// in\n    tag_486:\n        /* \"#utility.yul\":19127:19241   */\n      tag_487\n        /* \"#utility.yul\":19234:19240   */\n      dup2\n        /* \"#utility.yul\":19229:19232   */\n      dup6\n        /* \"#utility.yul\":19127:19241   */\n      tag_265\n      jump\t// in\n    tag_487:\n        /* \"#utility.yul\":19120:19241   */\n      swap4\n      pop\n        /* \"#utility.yul\":19267:19270   */\n      dup4\n        /* \"#utility.yul\":19312:19316   */\n      0x20\n        /* \"#utility.yul\":19304:19310   */\n      dup3\n        /* \"#utility.yul\":19300:19317   */\n      mul\n        /* \"#utility.yul\":19295:19298   */\n      dup6\n        /* \"#utility.yul\":19291:19318   */\n      add\n        /* \"#utility.yul\":19342:19426   */\n      tag_488\n        /* \"#utility.yul\":19420:19425   */\n      dup6\n        /* \"#utility.yul\":19342:19426   */\n      tag_266\n      jump\t// in\n    tag_488:\n        /* \"#utility.yul\":19449:19456   */\n      dup1\n        /* \"#utility.yul\":19480:19481   */\n      0x00\n        /* \"#utility.yul\":19465:19915   */\n    tag_489:\n        /* \"#utility.yul\":19490:19496   */\n      dup6\n        /* \"#utility.yul\":19487:19488   */\n      dup2\n        /* \"#utility.yul\":19484:19497   */\n      lt\n        /* \"#utility.yul\":19465:19915   */\n      iszero\n      tag_491\n      jumpi\n        /* \"#utility.yul\":19561:19570   */\n      dup5\n        /* \"#utility.yul\":19555:19559   */\n      dup5\n        /* \"#utility.yul\":19551:19571   */\n      sub\n        /* \"#utility.yul\":19546:19549   */\n      dup10\n        /* \"#utility.yul\":19539:19572   */\n      mstore\n        /* \"#utility.yul\":19612:19618   */\n      dup2\n        /* \"#utility.yul\":19606:19619   */\n      mload\n        /* \"#utility.yul\":19640:19760   */\n      tag_492\n        /* \"#utility.yul\":19755:19759   */\n      dup6\n        /* \"#utility.yul\":19740:19753   */\n      dup3\n        /* \"#utility.yul\":19640:19760   */\n      tag_272\n      jump\t// in\n    tag_492:\n        /* \"#utility.yul\":19632:19760   */\n      swap5\n      pop\n        /* \"#utility.yul\":19783:19871   */\n      tag_493\n        /* \"#utility.yul\":19864:19870   */\n      dup4\n        /* \"#utility.yul\":19783:19871   */\n      tag_273\n      jump\t// in\n    tag_493:\n        /* \"#utility.yul\":19773:19871   */\n      swap3\n      pop\n        /* \"#utility.yul\":19900:19904   */\n      0x20\n        /* \"#utility.yul\":19895:19898   */\n      dup11\n        /* \"#utility.yul\":19891:19905   */\n      add\n        /* \"#utility.yul\":19884:19905   */\n      swap10\n      pop\n        /* \"#utility.yul\":19525:19915   */\n      pop\n        /* \"#utility.yul\":19512:19513   */\n      0x01\n        /* \"#utility.yul\":19509:19510   */\n      dup2\n        /* \"#utility.yul\":19505:19514   */\n      add\n        /* \"#utility.yul\":19500:19514   */\n      swap1\n      pop\n        /* \"#utility.yul\":19465:19915   */\n      jump(tag_489)\n    tag_491:\n        /* \"#utility.yul\":19469:19483   */\n      pop\n        /* \"#utility.yul\":19931:19935   */\n      dup3\n        /* \"#utility.yul\":19924:19935   */\n      swap8\n      pop\n        /* \"#utility.yul\":19951:19954   */\n      dup8\n        /* \"#utility.yul\":19944:19954   */\n      swap6\n      pop\n        /* \"#utility.yul\":19005:19960   */\n      pop\n      pop\n      pop\n      pop\n      pop\n        /* \"#utility.yul\":18825:19960   */\n      swap3\n      swap2\n      pop\n      pop\n      jump\t// out\n        /* \"#utility.yul\":19966:20451   */\n    tag_48:\n        /* \"#utility.yul\":20165:20169   */\n      0x00\n        /* \"#utility.yul\":20203:20205   */\n      0x20\n        /* \"#utility.yul\":20192:20201   */\n      dup3\n        /* \"#utility.yul\":20188:20206   */\n      add\n        /* \"#utility.yul\":20180:20206   */\n      swap1\n      pop\n        /* \"#utility.yul\":20252:20261   */\n      dup2\n        /* \"#utility.yul\":20246:20250   */\n      dup2\n        /* \"#utility.yul\":20242:20262   */\n      sub\n        /* \"#utility.yul\":20238:20239   */\n      0x00\n        /* \"#utility.yul\":20227:20236   */\n      dup4\n        /* \"#utility.yul\":20223:20240   */\n      add\n        /* \"#utility.yul\":20216:20263   */\n      mstore\n        /* \"#utility.yul\":20280:20444   */\n      tag_495\n        /* \"#utility.yul\":20439:20443   */\n      dup2\n        /* \"#utility.yul\":20430:20436   */\n      dup5\n        /* \"#utility.yul\":20280:20444   */\n      tag_274\n      jump\t// in\n    tag_495:\n        /* \"#utility.yul\":20272:20444   */\n      swap1\n      pop\n        /* \"#utility.yul\":19966:20451   */\n      swap3\n      swap2\n      pop\n      pop\n      jump\t// out\n        /* \"#utility.yul\":20457:20581   */\n    tag_275:\n        /* \"#utility.yul\":20534:20540   */\n      0x00\n        /* \"#utility.yul\":20568:20573   */\n      dup2\n        /* \"#utility.yul\":20562:20574   */\n      mload\n        /* \"#utility.yul\":20552:20574   */\n      swap1\n      pop\n        /* \"#utility.yul\":20457:20581   */\n      swap2\n      swap1\n      pop\n      jump\t// out\n        /* \"#utility.yul\":20587:20781   */\n    tag_276:\n        /* \"#utility.yul\":20696:20707   */\n      0x00\n        /* \"#utility.yul\":20730:20736   */\n      dup3\n        /* \"#utility.yul\":20725:20728   */\n      dup3\n        /* \"#utility.yul\":20718:20737   */\n      mstore\n        /* \"#utility.yul\":20770:20774   */\n      0x20\n        /* \"#utility.yul\":20765:20768   */\n      dup3\n        /* \"#utility.yul\":20761:20775   */\n      add\n        /* \"#utility.yul\":20746:20775   */\n      swap1\n      pop\n        /* \"#utility.yul\":20587:20781   */\n      swap3\n      swap2\n      pop\n      pop\n      jump\t// out\n        /* \"#utility.yul\":20787:20929   */\n    tag_277:\n        /* \"#utility.yul\":20864:20868   */\n      0x00\n        /* \"#utility.yul\":20887:20890   */\n      dup2\n        /* \"#utility.yul\":20879:20890   */\n      swap1\n      pop\n        /* \"#utility.yul\":20917:20921   */\n      0x20\n        /* \"#utility.yul\":20912:20915   */\n      dup3\n        /* \"#utility.yul\":20908:20922   */\n      add\n        /* \"#utility.yul\":20900:20922   */\n      swap1\n      pop\n        /* \"#utility.yul\":20787:20929   */\n      swap2\n      swap1\n      pop\n      jump\t// out\n        /* \"#utility.yul\":20935:21131   */\n    tag_278:\n        /* \"#utility.yul\":21024:21034   */\n      0x00\n        /* \"#utility.yul\":21059:21125   */\n      tag_500\n        /* \"#utility.yul\":21121:21124   */\n      dup4\n        /* \"#utility.yul\":21113:21119   */\n      dup4\n        /* \"#utility.yul\":21059:21125   */\n      tag_268\n      jump\t// in\n    tag_500:\n        /* \"#utility.yul\":21045:21125   */\n      swap1\n      pop\n        /* \"#utility.yul\":20935:21131   */\n      swap3\n      swap2\n      pop\n      pop\n      jump\t// out\n        /* \"#utility.yul\":21137:21260   */\n    tag_279:\n        /* \"#utility.yul\":21217:21221   */\n      0x00\n        /* \"#utility.yul\":21249:21253   */\n      0x20\n        /* \"#utility.yul\":21244:21247   */\n      dup3\n        /* \"#utility.yul\":21240:21254   */\n      add\n        /* \"#utility.yul\":21232:21254   */\n      swap1\n      pop\n        /* \"#utility.yul\":21137:21260   */\n      swap2\n      swap1\n      pop\n      jump\t// out\n        /* \"#utility.yul\":21294:22285   */\n    tag_280:\n        /* \"#utility.yul\":21433:21436   */\n      0x00\n        /* \"#utility.yul\":21462:21526   */\n      tag_503\n        /* \"#utility.yul\":21520:21525   */\n      dup3\n        /* \"#utility.yul\":21462:21526   */\n      tag_275\n      jump\t// in\n    tag_503:\n        /* \"#utility.yul\":21542:21638   */\n      tag_504\n        /* \"#utility.yul\":21631:21637   */\n      dup2\n        /* \"#utility.yul\":21626:21629   */\n      dup6\n        /* \"#utility.yul\":21542:21638   */\n      tag_276\n      jump\t// in\n    tag_504:\n        /* \"#utility.yul\":21535:21638   */\n      swap4\n      pop\n        /* \"#utility.yul\":21664:21667   */\n      dup4\n        /* \"#utility.yul\":21709:21713   */\n      0x20\n        /* \"#utility.yul\":21701:21707   */\n      dup3\n        /* \"#utility.yul\":21697:21714   */\n      mul\n        /* \"#utility.yul\":21692:21695   */\n      dup6\n        /* \"#utility.yul\":21688:21715   */\n      add\n        /* \"#utility.yul\":21739:21805   */\n      tag_505\n        /* \"#utility.yul\":21799:21804   */\n      dup6\n        /* \"#utility.yul\":21739:21805   */\n      tag_277\n      jump\t// in\n    tag_505:\n        /* \"#utility.yul\":21828:21835   */\n      dup1\n        /* \"#utility.yul\":21859:21860   */\n      0x00\n        /* \"#utility.yul\":21844:22240   */\n    tag_506:\n        /* \"#utility.yul\":21869:21875   */\n      dup6\n        /* \"#utility.yul\":21866:21867   */\n      dup2\n        /* \"#utility.yul\":21863:21876   */\n      lt\n        /* \"#utility.yul\":21844:22240   */\n      iszero\n      tag_508\n      jumpi\n        /* \"#utility.yul\":21940:21949   */\n      dup5\n        /* \"#utility.yul\":21934:21938   */\n      dup5\n        /* \"#utility.yul\":21930:21950   */\n      sub\n        /* \"#utility.yul\":21925:21928   */\n      dup10\n        /* \"#utility.yul\":21918:21951   */\n      mstore\n        /* \"#utility.yul\":21991:21997   */\n      dup2\n        /* \"#utility.yul\":21985:21998   */\n      mload\n        /* \"#utility.yul\":22019:22103   */\n      tag_509\n        /* \"#utility.yul\":22098:22102   */\n      dup6\n        /* \"#utility.yul\":22083:22096   */\n      dup3\n        /* \"#utility.yul\":22019:22103   */\n      tag_278\n      jump\t// in\n    tag_509:\n        /* \"#utility.yul\":22011:22103   */\n      swap5\n      pop\n        /* \"#utility.yul\":22126:22196   */\n      tag_510\n        /* \"#utility.yul\":22189:22195   */\n      dup4\n        /* \"#utility.yul\":22126:22196   */\n      tag_279\n      jump\t// in\n    tag_510:\n        /* \"#utility.yul\":22116:22196   */\n      swap3\n      pop\n        /* \"#utility.yul\":22225:22229   */\n      0x20\n        /* \"#utility.yul\":22220:22223   */\n      dup11\n        /* \"#utility.yul\":22216:22230   */\n      add\n        /* \"#utility.yul\":22209:22230   */\n      swap10\n      pop\n        /* \"#utility.yul\":21904:22240   */\n      pop\n        /* \"#utility.yul\":21891:21892   */\n      0x01\n        /* \"#utility.yul\":21888:21889   */\n      dup2\n        /* \"#utility.yul\":21884:21893   */\n      add\n        /* \"#utility.yul\":21879:21893   */\n      swap1\n      pop\n        /* \"#utility.yul\":21844:22240   */\n      jump(tag_506)\n    tag_508:\n        /* \"#utility.yul\":21848:21862   */\n      pop\n        /* \"#utility.yul\":22256:22260   */\n      dup3\n        /* \"#utility.yul\":22249:22260   */\n      swap8\n      pop\n        /* \"#utility.yul\":22276:22279   */\n      dup8\n        /* \"#utility.yul\":22269:22279   */\n      swap6\n      pop\n        /* \"#utility.yul\":21438:22285   */\n      pop\n      pop\n      pop\n      pop\n      pop\n        /* \"#utility.yul\":21294:22285   */\n      swap3\n      swap2\n      pop\n      pop\n      jump\t// out\n        /* \"#utility.yul\":22291:23005   */\n    tag_53:\n        /* \"#utility.yul\":22552:22556   */\n      0x00\n        /* \"#utility.yul\":22590:22592   */\n      0x40\n        /* \"#utility.yul\":22579:22588   */\n      dup3\n        /* \"#utility.yul\":22575:22593   */\n      add\n        /* \"#utility.yul\":22567:22593   */\n      swap1\n      pop\n        /* \"#utility.yul\":22639:22648   */\n      dup2\n        /* \"#utility.yul\":22633:22637   */\n      dup2\n        /* \"#utility.yul\":22629:22649   */\n      sub\n        /* \"#utility.yul\":22625:22626   */\n      0x00\n        /* \"#utility.yul\":22614:22623   */\n      dup4\n        /* \"#utility.yul\":22610:22627   */\n      add\n        /* \"#utility.yul\":22603:22650   */\n      mstore\n        /* \"#utility.yul\":22667:22795   */\n      tag_512\n        /* \"#utility.yul\":22790:22794   */\n      dup2\n        /* \"#utility.yul\":22781:22787   */\n      dup6\n        /* \"#utility.yul\":22667:22795   */\n      tag_280\n      jump\t// in\n    tag_512:\n        /* \"#utility.yul\":22659:22795   */\n      swap1\n      pop\n        /* \"#utility.yul\":22842:22851   */\n      dup2\n        /* \"#utility.yul\":22836:22840   */\n      dup2\n        /* \"#utility.yul\":22832:22852   */\n      sub\n        /* \"#utility.yul\":22827:22829   */\n      0x20\n        /* \"#utility.yul\":22816:22825   */\n      dup4\n        /* \"#utility.yul\":22812:22830   */\n      add\n        /* \"#utility.yul\":22805:22853   */\n      mstore\n        /* \"#utility.yul\":22870:22998   */\n      tag_513\n        /* \"#utility.yul\":22993:22997   */\n      dup2\n        /* \"#utility.yul\":22984:22990   */\n      dup5\n        /* \"#utility.yul\":22870:22998   */\n      tag_280\n      jump\t// in\n    tag_513:\n        /* \"#utility.yul\":22862:22998   */\n      swap1\n      pop\n        /* \"#utility.yul\":22291:23005   */\n      swap4\n      swap3\n      pop\n      pop\n      pop\n      jump\t// out\n        /* \"#utility.yul\":23011:23655   */\n    tag_58:\n        /* \"#utility.yul\":23208:23212   */\n      0x00\n        /* \"#utility.yul\":23246:23249   */\n      0x80\n        /* \"#utility.yul\":23235:23244   */\n      dup3\n        /* \"#utility.yul\":23231:23250   */\n      add\n        /* \"#utility.yul\":23223:23250   */\n      swap1\n      pop\n        /* \"#utility.yul\":23296:23305   */\n      dup2\n        /* \"#utility.yul\":23290:23294   */\n      dup2\n        /* \"#utility.yul\":23286:23306   */\n      sub\n        /* \"#utility.yul\":23282:23283   */\n      0x00\n        /* \"#utility.yul\":23271:23280   */\n      dup4\n        /* \"#utility.yul\":23267:23284   */\n      add\n        /* \"#utility.yul\":23260:23307   */\n      mstore\n        /* \"#utility.yul\":23324:23402   */\n      tag_515\n        /* \"#utility.yul\":23397:23401   */\n      dup2\n        /* \"#utility.yul\":23388:23394   */\n      dup8\n        /* \"#utility.yul\":23324:23402   */\n      tag_257\n      jump\t// in\n    tag_515:\n        /* \"#utility.yul\":23316:23402   */\n      swap1\n      pop\n        /* \"#utility.yul\":23412:23484   */\n      tag_516\n        /* \"#utility.yul\":23480:23482   */\n      0x20\n        /* \"#utility.yul\":23469:23478   */\n      dup4\n        /* \"#utility.yul\":23465:23483   */\n      add\n        /* \"#utility.yul\":23456:23462   */\n      dup7\n        /* \"#utility.yul\":23412:23484   */\n      tag_259\n      jump\t// in\n    tag_516:\n        /* \"#utility.yul\":23494:23566   */\n      tag_517\n        /* \"#utility.yul\":23562:23564   */\n      0x40\n        /* \"#utility.yul\":23551:23560   */\n      dup4\n        /* \"#utility.yul\":23547:23565   */\n      add\n        /* \"#utility.yul\":23538:23544   */\n      dup6\n        /* \"#utility.yul\":23494:23566   */\n      tag_259\n      jump\t// in\n    tag_517:\n        /* \"#utility.yul\":23576:23648   */\n      tag_518\n        /* \"#utility.yul\":23644:23646   */\n      0x60\n        /* \"#utility.yul\":23633:23642   */\n      dup4\n        /* \"#utility.yul\":23629:23647   */\n      add\n        /* \"#utility.yul\":23620:23626   */\n      dup5\n        /* \"#utility.yul\":23576:23648   */\n      tag_259\n      jump\t// in\n    tag_518:\n        /* \"#utility.yul\":23011:23655   */\n      swap6\n      swap5\n      pop\n      pop\n      pop\n      pop\n      pop\n      jump\t// out\n        /* \"#utility.yul\":23661:24676   */\n    tag_63:\n        /* \"#utility.yul\":24020:24024   */\n      0x00\n        /* \"#utility.yul\":24058:24060   */\n      0x60\n        /* \"#utility.yul\":24047:24056   */\n      dup3\n        /* \"#utility.yul\":24043:24061   */\n      add\n        /* \"#utility.yul\":24035:24061   */\n      swap1\n      pop\n        /* \"#utility.yul\":24107:24116   */\n      dup2\n        /* \"#utility.yul\":24101:24105   */\n      dup2\n        /* \"#utility.yul\":24097:24117   */\n      sub\n        /* \"#utility.yul\":24093:24094   */\n      0x00\n        /* \"#utility.yul\":24082:24091   */\n      dup4\n        /* \"#utility.yul\":24078:24095   */\n      add\n        /* \"#utility.yul\":24071:24118   */\n      mstore\n        /* \"#utility.yul\":24135:24263   */\n      tag_520\n        /* \"#utility.yul\":24258:24262   */\n      dup2\n        /* \"#utility.yul\":24249:24255   */\n      dup7\n        /* \"#utility.yul\":24135:24263   */\n      tag_280\n      jump\t// in\n    tag_520:\n        /* \"#utility.yul\":24127:24263   */\n      swap1\n      pop\n        /* \"#utility.yul\":24310:24319   */\n      dup2\n        /* \"#utility.yul\":24304:24308   */\n      dup2\n        /* \"#utility.yul\":24300:24320   */\n      sub\n        /* \"#utility.yul\":24295:24297   */\n      0x20\n        /* \"#utility.yul\":24284:24293   */\n      dup4\n        /* \"#utility.yul\":24280:24298   */\n      add\n        /* \"#utility.yul\":24273:24321   */\n      mstore\n        /* \"#utility.yul\":24338:24466   */\n      tag_521\n        /* \"#utility.yul\":24461:24465   */\n      dup2\n        /* \"#utility.yul\":24452:24458   */\n      dup6\n        /* \"#utility.yul\":24338:24466   */\n      tag_280\n      jump\t// in\n    tag_521:\n        /* \"#utility.yul\":24330:24466   */\n      swap1\n      pop\n        /* \"#utility.yul\":24513:24522   */\n      dup2\n        /* \"#utility.yul\":24507:24511   */\n      dup2\n        /* \"#utility.yul\":24503:24523   */\n      sub\n        /* \"#utility.yul\":24498:24500   */\n      0x40\n        /* \"#utility.yul\":24487:24496   */\n      dup4\n        /* \"#utility.yul\":24483:24501   */\n      add\n        /* \"#utility.yul\":24476:24524   */\n      mstore\n        /* \"#utility.yul\":24541:24669   */\n      tag_522\n        /* \"#utility.yul\":24664:24668   */\n      dup2\n        /* \"#utility.yul\":24655:24661   */\n      dup5\n        /* \"#utility.yul\":24541:24669   */\n      tag_280\n      jump\t// in\n    tag_522:\n        /* \"#utility.yul\":24533:24669   */\n      swap1\n      pop\n        /* \"#utility.yul\":23661:24676   */\n      swap5\n      swap4\n      pop\n      pop\n      pop\n      pop\n      jump\t// out\n        /* \"#utility.yul\":24682:26087   */\n    tag_66:\n        /* \"#utility.yul\":24800:24806   */\n      0x00\n        /* \"#utility.yul\":24808:24814   */\n      dup1\n        /* \"#utility.yul\":24816:24822   */\n      0x00\n        /* \"#utility.yul\":24824:24830   */\n      dup1\n        /* \"#utility.yul\":24832:24838   */\n      0x00\n        /* \"#utility.yul\":24840:24846   */\n      dup1\n        /* \"#utility.yul\":24889:24892   */\n      0xc0\n        /* \"#utility.yul\":24877:24886   */\n      dup8\n        /* \"#utility.yul\":24868:24875   */\n      dup10\n        /* \"#utility.yul\":24864:24887   */\n      sub\n        /* \"#utility.yul\":24860:24893   */\n      slt\n        /* \"#utility.yul\":24857:24977   */\n      iszero\n      tag_524\n      jumpi\n        /* \"#utility.yul\":24896:24975   */\n      tag_525\n      tag_237\n      jump\t// in\n    tag_525:\n        /* \"#utility.yul\":24857:24977   */\n    tag_524:\n        /* \"#utility.yul\":25044:25045   */\n      0x00\n        /* \"#utility.yul\":25033:25042   */\n      dup8\n        /* \"#utility.yul\":25029:25046   */\n      add\n        /* \"#utility.yul\":25016:25047   */\n      calldataload\n        /* \"#utility.yul\":25074:25092   */\n      0xffffffffffffffff\n        /* \"#utility.yul\":25066:25072   */\n      dup2\n        /* \"#utility.yul\":25063:25093   */\n      gt\n        /* \"#utility.yul\":25060:25177   */\n      iszero\n      tag_526\n      jumpi\n        /* \"#utility.yul\":25096:25175   */\n      tag_527\n      tag_238\n      jump\t// in\n    tag_527:\n        /* \"#utility.yul\":25060:25177   */\n    tag_526:\n        /* \"#utility.yul\":25201:25264   */\n      tag_528\n        /* \"#utility.yul\":25256:25263   */\n      dup10\n        /* \"#utility.yul\":25247:25253   */\n      dup3\n        /* \"#utility.yul\":25236:25245   */\n      dup11\n        /* \"#utility.yul\":25232:25254   */\n      add\n        /* \"#utility.yul\":25201:25264   */\n      tag_247\n      jump\t// in\n    tag_528:\n        /* \"#utility.yul\":25191:25264   */\n      swap7\n      pop\n        /* \"#utility.yul\":24987:25274   */\n      pop\n        /* \"#utility.yul\":25313:25315   */\n      0x20\n        /* \"#utility.yul\":25339:25392   */\n      tag_529\n        /* \"#utility.yul\":25384:25391   */\n      dup10\n        /* \"#utility.yul\":25375:25381   */\n      dup3\n        /* \"#utility.yul\":25364:25373   */\n      dup11\n        /* \"#utility.yul\":25360:25382   */\n      add\n        /* \"#utility.yul\":25339:25392   */\n      tag_250\n      jump\t// in\n    tag_529:\n        /* \"#utility.yul\":25329:25392   */\n      swap6\n      pop\n        /* \"#utility.yul\":25284:25402   */\n      pop\n        /* \"#utility.yul\":25469:25471   */\n      0x40\n        /* \"#utility.yul\":25458:25467   */\n      dup8\n        /* \"#utility.yul\":25454:25472   */\n      add\n        /* \"#utility.yul\":25441:25473   */\n      calldataload\n        /* \"#utility.yul\":25500:25518   */\n      0xffffffffffffffff\n        /* \"#utility.yul\":25492:25498   */\n      dup2\n        /* \"#utility.yul\":25489:25519   */\n      gt\n        /* \"#utility.yul\":25486:25603   */\n      iszero\n      tag_530\n      jumpi\n        /* \"#utility.yul\":25522:25601   */\n      tag_531\n      tag_238\n      jump\t// in\n    tag_531:\n        /* \"#utility.yul\":25486:25603   */\n    tag_530:\n        /* \"#utility.yul\":25627:25690   */\n      tag_532\n        /* \"#utility.yul\":25682:25689   */\n      dup10\n        /* \"#utility.yul\":25673:25679   */\n      dup3\n        /* \"#utility.yul\":25662:25671   */\n      dup11\n        /* \"#utility.yul\":25658:25680   */\n      add\n        /* \"#utility.yul\":25627:25690   */\n      tag_247\n      jump\t// in\n    tag_532:\n        /* \"#utility.yul\":25617:25690   */\n      swap5\n      pop\n        /* \"#utility.yul\":25412:25700   */\n      pop\n        /* \"#utility.yul\":25739:25741   */\n      0x60\n        /* \"#utility.yul\":25765:25815   */\n      tag_533\n        /* \"#utility.yul\":25807:25814   */\n      dup10\n        /* \"#utility.yul\":25798:25804   */\n      dup3\n        /* \"#utility.yul\":25787:25796   */\n      dup11\n        /* \"#utility.yul\":25783:25805   */\n      add\n        /* \"#utility.yul\":25765:25815   */\n      tag_253\n      jump\t// in\n    tag_533:\n        /* \"#utility.yul\":25755:25815   */\n      swap4\n      pop\n        /* \"#utility.yul\":25710:25825   */\n      pop\n        /* \"#utility.yul\":25864:25867   */\n      0x80\n        /* \"#utility.yul\":25891:25941   */\n      tag_534\n        /* \"#utility.yul\":25933:25940   */\n      dup10\n        /* \"#utility.yul\":25924:25930   */\n      dup3\n        /* \"#utility.yul\":25913:25922   */\n      dup11\n        /* \"#utility.yul\":25909:25931   */\n      add\n        /* \"#utility.yul\":25891:25941   */\n      tag_253\n      jump\t// in\n    tag_534:\n        /* \"#utility.yul\":25881:25941   */\n      swap3\n      pop\n        /* \"#utility.yul\":25835:25951   */\n      pop\n        /* \"#utility.yul\":25990:25993   */\n      0xa0\n        /* \"#utility.yul\":26017:26070   */\n      tag_535\n        /* \"#utility.yul\":26062:26069   */\n      dup10\n        /* \"#utility.yul\":26053:26059   */\n      dup3\n        /* \"#utility.yul\":26042:26051   */\n      dup11\n        /* \"#utility.yul\":26038:26060   */\n      add\n        /* \"#utility.yul\":26017:26070   */\n      tag_250\n      jump\t// in\n    tag_535:\n        /* \"#utility.yul\":26007:26070   */\n      swap2\n      pop\n        /* \"#utility.yul\":25961:26080   */\n      pop\n        /* \"#utility.yul\":24682:26087   */\n      swap3\n      swap6\n      pop\n      swap3\n      swap6\n      pop\n      swap3\n      swap6\n      jump\t// out\n        /* \"#utility.yul\":26093:27510   */\n    tag_70:\n        /* \"#utility.yul\":26217:26223   */\n      0x00\n        /* \"#utility.yul\":26225:26231   */\n      dup1\n        /* \"#utility.yul\":26233:26239   */\n      0x00\n        /* \"#utility.yul\":26241:26247   */\n      dup1\n        /* \"#utility.yul\":26249:26255   */\n      0x00\n        /* \"#utility.yul\":26257:26263   */\n      dup1\n        /* \"#utility.yul\":26306:26309   */\n      0xc0\n        /* \"#utility.yul\":26294:26303   */\n      dup8\n        /* \"#utility.yul\":26285:26292   */\n      dup10\n        /* \"#utility.yul\":26281:26304   */\n      sub\n        /* \"#utility.yul\":26277:26310   */\n      slt\n        /* \"#utility.yul\":26274:26394   */\n      iszero\n      tag_537\n      jumpi\n        /* \"#utility.yul\":26313:26392   */\n      tag_538\n      tag_237\n      jump\t// in\n    tag_538:\n        /* \"#utility.yul\":26274:26394   */\n    tag_537:\n        /* \"#utility.yul\":26461:26462   */\n      0x00\n        /* \"#utility.yul\":26450:26459   */\n      dup8\n        /* \"#utility.yul\":26446:26463   */\n      add\n        /* \"#utility.yul\":26433:26464   */\n      calldataload\n        /* \"#utility.yul\":26491:26509   */\n      0xffffffffffffffff\n        /* \"#utility.yul\":26483:26489   */\n      dup2\n        /* \"#utility.yul\":26480:26510   */\n      gt\n        /* \"#utility.yul\":26477:26594   */\n      iszero\n      tag_539\n      jumpi\n        /* \"#utility.yul\":26513:26592   */\n      tag_540\n      tag_238\n      jump\t// in\n    tag_540:\n        /* \"#utility.yul\":26477:26594   */\n    tag_539:\n        /* \"#utility.yul\":26618:26681   */\n      tag_541\n        /* \"#utility.yul\":26673:26680   */\n      dup10\n        /* \"#utility.yul\":26664:26670   */\n      dup3\n        /* \"#utility.yul\":26653:26662   */\n      dup11\n        /* \"#utility.yul\":26649:26671   */\n      add\n        /* \"#utility.yul\":26618:26681   */\n      tag_247\n      jump\t// in\n    tag_541:\n        /* \"#utility.yul\":26608:26681   */\n      swap7\n      pop\n        /* \"#utility.yul\":26404:26691   */\n      pop\n        /* \"#utility.yul\":26730:26732   */\n      0x20\n        /* \"#utility.yul\":26756:26809   */\n      tag_542\n        /* \"#utility.yul\":26801:26808   */\n      dup10\n        /* \"#utility.yul\":26792:26798   */\n      dup3\n        /* \"#utility.yul\":26781:26790   */\n      dup11\n        /* \"#utility.yul\":26777:26799   */\n      add\n        /* \"#utility.yul\":26756:26809   */\n      tag_250\n      jump\t// in\n    tag_542:\n        /* \"#utility.yul\":26746:26809   */\n      swap6\n      pop\n        /* \"#utility.yul\":26701:26819   */\n      pop\n        /* \"#utility.yul\":26886:26888   */\n      0x40\n        /* \"#utility.yul\":26875:26884   */\n      dup8\n        /* \"#utility.yul\":26871:26889   */\n      add\n        /* \"#utility.yul\":26858:26890   */\n      calldataload\n        /* \"#utility.yul\":26917:26935   */\n      0xffffffffffffffff\n        /* \"#utility.yul\":26909:26915   */\n      dup2\n        /* \"#utility.yul\":26906:26936   */\n      gt\n        /* \"#utility.yul\":26903:27020   */\n      iszero\n      tag_543\n      jumpi\n        /* \"#utility.yul\":26939:27018   */\n      tag_544\n      tag_238\n      jump\t// in\n    tag_544:\n        /* \"#utility.yul\":26903:27020   */\n    tag_543:\n        /* \"#utility.yul\":27044:27107   */\n      tag_545\n        /* \"#utility.yul\":27099:27106   */\n      dup10\n        /* \"#utility.yul\":27090:27096   */\n      dup3\n        /* \"#utility.yul\":27079:27088   */\n      dup11\n        /* \"#utility.yul\":27075:27097   */\n      add\n        /* \"#utility.yul\":27044:27107   */\n      tag_247\n      jump\t// in\n    tag_545:\n        /* \"#utility.yul\":27034:27107   */\n      swap5\n      pop\n        /* \"#utility.yul\":26829:27117   */\n      pop\n        /* \"#utility.yul\":27156:27158   */\n      0x60\n        /* \"#utility.yul\":27182:27235   */\n      tag_546\n        /* \"#utility.yul\":27227:27234   */\n      dup10\n        /* \"#utility.yul\":27218:27224   */\n      dup3\n        /* \"#utility.yul\":27207:27216   */\n      dup11\n        /* \"#utility.yul\":27203:27225   */\n      add\n        /* \"#utility.yul\":27182:27235   */\n      tag_250\n      jump\t// in\n    tag_546:\n        /* \"#utility.yul\":27172:27235   */\n      swap4\n      pop\n        /* \"#utility.yul\":27127:27245   */\n      pop\n        /* \"#utility.yul\":27284:27287   */\n      0x80\n        /* \"#utility.yul\":27311:27364   */\n      tag_547\n        /* \"#utility.yul\":27356:27363   */\n      dup10\n        /* \"#utility.yul\":27347:27353   */\n      dup3\n        /* \"#utility.yul\":27336:27345   */\n      dup11\n        /* \"#utility.yul\":27332:27354   */\n      add\n        /* \"#utility.yul\":27311:27364   */\n      tag_250\n      jump\t// in\n    tag_547:\n        /* \"#utility.yul\":27301:27364   */\n      swap3\n      pop\n        /* \"#utility.yul\":27255:27374   */\n      pop\n        /* \"#utility.yul\":27413:27416   */\n      0xa0\n        /* \"#utility.yul\":27440:27493   */\n      tag_548\n        /* \"#utility.yul\":27485:27492   */\n      dup10\n        /* \"#utility.yul\":27476:27482   */\n      dup3\n        /* \"#utility.yul\":27465:27474   */\n      dup11\n        /* \"#utility.yul\":27461:27483   */\n      add\n        /* \"#utility.yul\":27440:27493   */\n      tag_250\n      jump\t// in\n    tag_548:\n        /* \"#utility.yul\":27430:27493   */\n      swap2\n      pop\n        /* \"#utility.yul\":27384:27503   */\n      pop\n        /* \"#utility.yul\":26093:27510   */\n      swap3\n      swap6\n      pop\n      swap3\n      swap6\n      pop\n      swap3\n      swap6\n      jump\t// out\n        /* \"#utility.yul\":27516:27664   */\n    tag_281:\n        /* \"#utility.yul\":27618:27629   */\n      0x00\n        /* \"#utility.yul\":27655:27658   */\n      dup2\n        /* \"#utility.yul\":27640:27658   */\n      swap1\n      pop\n        /* \"#utility.yul\":27516:27664   */\n      swap3\n      swap2\n      pop\n      pop\n      jump\t// out\n        /* \"#utility.yul\":27670:28060   */\n    tag_282:\n        /* \"#utility.yul\":27776:27779   */\n      0x00\n        /* \"#utility.yul\":27804:27843   */\n      tag_551\n        /* \"#utility.yul\":27837:27842   */\n      dup3\n        /* \"#utility.yul\":27804:27843   */\n      tag_254\n      jump\t// in\n    tag_551:\n        /* \"#utility.yul\":27859:27948   */\n      tag_552\n        /* \"#utility.yul\":27941:27947   */\n      dup2\n        /* \"#utility.yul\":27936:27939   */\n      dup6\n        /* \"#utility.yul\":27859:27948   */\n      tag_281\n      jump\t// in\n    tag_552:\n        /* \"#utility.yul\":27852:27948   */\n      swap4\n      pop\n        /* \"#utility.yul\":27957:28022   */\n      tag_553\n        /* \"#utility.yul\":28015:28021   */\n      dup2\n        /* \"#utility.yul\":28010:28013   */\n      dup6\n        /* \"#utility.yul\":28003:28007   */\n      0x20\n        /* \"#utility.yul\":27996:28001   */\n      dup7\n        /* \"#utility.yul\":27992:28008   */\n      add\n        /* \"#utility.yul\":27957:28022   */\n      tag_256\n      jump\t// in\n    tag_553:\n        /* \"#utility.yul\":28047:28053   */\n      dup1\n        /* \"#utility.yul\":28042:28045   */\n      dup5\n        /* \"#utility.yul\":28038:28054   */\n      add\n        /* \"#utility.yul\":28031:28054   */\n      swap2\n      pop\n        /* \"#utility.yul\":27780:28060   */\n      pop\n        /* \"#utility.yul\":27670:28060   */\n      swap3\n      swap2\n      pop\n      pop\n      jump\t// out\n        /* \"#utility.yul\":28066:28341   */\n    tag_74:\n        /* \"#utility.yul\":28198:28201   */\n      0x00\n        /* \"#utility.yul\":28220:28315   */\n      tag_555\n        /* \"#utility.yul\":28311:28314   */\n      dup3\n        /* \"#utility.yul\":28302:28308   */\n      dup5\n        /* \"#utility.yul\":28220:28315   */\n      tag_282\n      jump\t// in\n    tag_555:\n        /* \"#utility.yul\":28213:28315   */\n      swap2\n      pop\n        /* \"#utility.yul\":28332:28335   */\n      dup2\n        /* \"#utility.yul\":28325:28335   */\n      swap1\n      pop\n        /* \"#utility.yul\":28066:28341   */\n      swap3\n      swap2\n      pop\n      pop\n      jump\t// out\n        /* \"#utility.yul\":28347:28527   */\n    tag_283:\n        /* \"#utility.yul\":28395:28472   */\n      0x4e487b7100000000000000000000000000000000000000000000000000000000\n        /* \"#utility.yul\":28392:28393   */\n      0x00\n        /* \"#utility.yul\":28385:28473   */\n      mstore\n        /* \"#utility.yul\":28492:28496   */\n      0x22\n        /* \"#utility.yul\":28489:28490   */\n      0x04\n        /* \"#utility.yul\":28482:28497   */\n      mstore\n        /* \"#utility.yul\":28516:28520   */\n      0x24\n        /* \"#utility.yul\":28513:28514   */\n      0x00\n        /* \"#utility.yul\":28506:28521   */\n      revert\n        /* \"#utility.yul\":28533:28853   */\n    tag_84:\n        /* \"#utility.yul\":28577:28583   */\n      0x00\n        /* \"#utility.yul\":28614:28615   */\n      0x02\n        /* \"#utility.yul\":28608:28612   */\n      dup3\n        /* \"#utility.yul\":28604:28616   */\n      div\n        /* \"#utility.yul\":28594:28616   */\n      swap1\n      pop\n        /* \"#utility.yul\":28661:28662   */\n      0x01\n        /* \"#utility.yul\":28655:28659   */\n      dup3\n        /* \"#utility.yul\":28651:28663   */\n      and\n        /* \"#utility.yul\":28682:28700   */\n      dup1\n        /* \"#utility.yul\":28672:28753   */\n      tag_558\n      jumpi\n        /* \"#utility.yul\":28738:28742   */\n      0x7f\n        /* \"#utility.yul\":28730:28736   */\n      dup3\n        /* \"#utility.yul\":28726:28743   */\n      and\n        /* \"#utility.yul\":28716:28743   */\n      swap2\n      pop\n        /* \"#utility.yul\":28672:28753   */\n    tag_558:\n        /* \"#utility.yul\":28800:28802   */\n      0x20\n        /* \"#utility.yul\":28792:28798   */\n      dup3\n        /* \"#utility.yul\":28789:28803   */\n      lt\n        /* \"#utility.yul\":28769:28787   */\n      dup2\n        /* \"#utility.yul\":28766:28804   */\n      sub\n        /* \"#utility.yul\":28763:28847   */\n      tag_559\n      jumpi\n        /* \"#utility.yul\":28819:28837   */\n      tag_560\n      tag_283\n      jump\t// in\n    tag_560:\n        /* \"#utility.yul\":28763:28847   */\n    tag_559:\n        /* \"#utility.yul\":28584:28853   */\n      pop\n        /* \"#utility.yul\":28533:28853   */\n      swap2\n      swap1\n      pop\n      jump\t// out\n        /* \"#utility.yul\":28859:29000   */\n    tag_284:\n        /* \"#utility.yul\":28908:28912   */\n      0x00\n        /* \"#utility.yul\":28931:28934   */\n      dup2\n        /* \"#utility.yul\":28923:28934   */\n      swap1\n      pop\n        /* \"#utility.yul\":28954:28957   */\n      dup2\n        /* \"#utility.yul\":28951:28952   */\n      0x00\n        /* \"#utility.yul\":28944:28958   */\n      mstore\n        /* \"#utility.yul\":28988:28992   */\n      0x20\n        /* \"#utility.yul\":28985:28986   */\n      0x00\n        /* \"#utility.yul\":28975:28993   */\n      keccak256\n        /* \"#utility.yul\":28967:28993   */\n      swap1\n      pop\n        /* \"#utility.yul\":28859:29000   */\n      swap2\n      swap1\n      pop\n      jump\t// out\n        /* \"#utility.yul\":29006:29099   */\n    tag_285:\n        /* \"#utility.yul\":29043:29049   */\n      0x00\n        /* \"#utility.yul\":29090:29092   */\n      0x20\n        /* \"#utility.yul\":29085:29087   */\n      0x1f\n        /* \"#utility.yul\":29078:29083   */\n      dup4\n        /* \"#utility.yul\":29074:29088   */\n      add\n        /* \"#utility.yul\":29070:29093   */\n      div\n        /* \"#utility.yul\":29060:29093   */\n      swap1\n      pop\n        /* \"#utility.yul\":29006:29099   */\n      swap2\n      swap1\n      pop\n      jump\t// out\n        /* \"#utility.yul\":29105:29212   */\n    tag_286:\n        /* \"#utility.yul\":29149:29157   */\n      0x00\n        /* \"#utility.yul\":29199:29204   */\n      dup3\n        /* \"#utility.yul\":29193:29197   */\n      dup3\n        /* \"#utility.yul\":29189:29205   */\n      shl\n        /* \"#utility.yul\":29168:29205   */\n      swap1\n      pop\n        /* \"#utility.yul\":29105:29212   */\n      swap3\n      swap2\n      pop\n      pop\n      jump\t// out\n        /* \"#utility.yul\":29218:29611   */\n    tag_287:\n        /* \"#utility.yul\":29287:29293   */\n      0x00\n        /* \"#utility.yul\":29337:29338   */\n      0x08\n        /* \"#utility.yul\":29325:29335   */\n      dup4\n        /* \"#utility.yul\":29321:29339   */\n      mul\n        /* \"#utility.yul\":29360:29457   */\n      tag_565\n        /* \"#utility.yul\":29390:29456   */\n      0xffffffffffffffffffffffffffffffffffffffffffffffffffffffffffffffff\n        /* \"#utility.yul\":29379:29388   */\n      dup3\n        /* \"#utility.yul\":29360:29457   */\n      tag_286\n      jump\t// in\n    tag_565:\n        /* \"#utility.yul\":29478:29517   */\n      tag_566\n        /* \"#utility.yul\":29508:29516   */\n      dup7\n        /* \"#utility.yul\":29497:29506   */\n      dup4\n        /* \"#utility.yul\":29478:29517   */\n      tag_286\n      jump\t// in\n    tag_566:\n        /* \"#utility.yul\":29466:29517   */\n      swap6\n      pop\n        /* \"#utility.yul\":29550:29554   */\n      dup1\n        /* \"#utility.yul\":29546:29555   */\n      not\n        /* \"#utility.yul\":29539:29544   */\n      dup5\n        /* \"#utility.yul\":29535:29556   */\n      and\n        /* \"#utility.yul\":29526:29556   */\n      swap4\n      pop\n        /* \"#utility.yul\":29599:29603   */\n      dup1\n        /* \"#utility.yul\":29589:29597   */\n      dup7\n        /* \"#utility.yul\":29585:29604   */\n      and\n        /* \"#utility.yul\":29578:29583   */\n      dup5\n        /* \"#utility.yul\":29575:29605   */\n      or\n        /* \"#utility.yul\":29565:29605   */\n      swap3\n      pop\n        /* \"#utility.yul\":29294:29611   */\n      pop\n      pop\n        /* \"#utility.yul\":29218:29611   */\n      swap4\n      swap3\n      pop\n      pop\n      pop\n      jump\t// out\n        /* \"#utility.yul\":29617:29677   */\n    tag_288:\n        /* \"#utility.yul\":29645:29648   */\n      0x00\n        /* \"#utility.yul\":29666:29671   */\n      dup2\n        /* \"#utility.yul\":29659:29671   */\n      swap1\n      pop\n        /* \"#utility.yul\":29617:29677   */\n      swap2\n      swap1\n      pop\n      jump\t// out\n        /* \"#utility.yul\":29683:29825   */\n    tag_289:\n        /* \"#utility.yul\":29733:29742   */\n      0x00\n        /* \"#utility.yul\":29766:29819   */\n      tag_569\n        /* \"#utility.yul\":29784:29818   */\n      tag_570\n        /* \"#utility.yul\":29793:29817   */\n      tag_571\n        /* \"#utility.yul\":29811:29816   */\n      dup5\n        /* \"#utility.yul\":29793:29817   */\n      tag_248\n      jump\t// in\n    tag_571:\n        /* \"#utility.yul\":29784:29818   */\n      tag_288\n      jump\t// in\n    tag_570:\n        /* \"#utility.yul\":29766:29819   */\n      tag_248\n      jump\t// in\n    tag_569:\n        /* \"#utility.yul\":29753:29819   */\n      swap1\n      pop\n        /* \"#utility.yul\":29683:29825   */\n      swap2\n      swap1\n      pop\n      jump\t// out\n        /* \"#utility.yul\":29831:29906   */\n    tag_290:\n        /* \"#utility.yul\":29874:29877   */\n      0x00\n        /* \"#utility.yul\":29895:29900   */\n      dup2\n        /* \"#utility.yul\":29888:29900   */\n      swap1\n      pop\n        /* \"#utility.yul\":29831:29906   */\n      swap2\n      swap1\n      pop\n      jump\t// out\n        /* \"#utility.yul\":29912:30181   */\n    tag_291:\n        /* \"#utility.yul\":30022:30061   */\n      tag_574\n        /* \"#utility.yul\":30053:30060   */\n      dup4\n        /* \"#utility.yul\":30022:30061   */\n      tag_289\n      jump\t// in\n    tag_574:\n        /* \"#utility.yul\":30083:30174   */\n      tag_575\n        /* \"#utility.yul\":30132:30173   */\n      tag_576\n        /* \"#utility.yul\":30156:30172   */\n      dup3\n        /* \"#utility.yul\":30132:30173   */\n      tag_290\n      jump\t// in\n    tag_576:\n        /* \"#utility.yul\":30124:30130   */\n      dup5\n        /* \"#utility.yul\":30117:30121   */\n      dup5\n        /* \"#utility.yul\":30111:30122   */\n      sload\n        /* \"#utility.yul\":30083:30174   */\n      tag_287\n      jump\t// in\n    tag_575:\n        /* \"#utility.yul\":30077:30081   */\n      dup3\n        /* \"#utility.yul\":30070:30175   */\n      sstore\n        /* \"#utility.yul\":29988:30181   */\n      pop\n        /* \"#utility.yul\":29912:30181   */\n      pop\n      pop\n      pop\n      jump\t// out\n        /* \"#utility.yul\":30187:30260   */\n    tag_292:\n        /* \"#utility.yul\":30232:30235   */\n      0x00\n        /* \"#utility.yul\":30187:30260   */\n      swap1\n      jump\t// out\n        /* \"#utility.yul\":30266:30455   */\n    tag_293:\n        /* \"#utility.yul\":30343:30375   */\n      tag_579\n      tag_292\n      jump\t// in\n    tag_579:\n        /* \"#utility.yul\":30384:30449   */\n      tag_580\n        /* \"#utility.yul\":30442:30448   */\n      dup2\n        /* \"#utility.yul\":30434:30440   */\n      dup5\n        /* \"#utility.yul\":30428:30432   */\n      dup5\n        /* \"#utility.yul\":30384:30449   */\n      tag_291\n      jump\t// in\n    tag_580:\n        /* \"#utility.yul\":30319:30455   */\n      pop\n        /* \"#utility.yul\":30266:30455   */\n      pop\n      pop\n      jump\t// out\n        /* \"#utility.yul\":30461:30647   */\n    tag_294:\n        /* \"#utility.yul\":30521:30641   */\n    tag_582:\n        /* \"#utility.yul\":30538:30541   */\n      dup2\n        /* \"#utility.yul\":30531:30536   */\n      dup2\n        /* \"#utility.yul\":30528:30542   */\n      lt\n        /* \"#utility.yul\":30521:30641   */\n      iszero\n      tag_584\n      jumpi\n        /* \"#utility.yul\":30592:30631   */\n      tag_585\n        /* \"#utility.yul\":30629:30630   */\n      0x00\n        /* \"#utility.yul\":30622:30627   */\n      dup3\n        /* \"#utility.yul\":30592:30631   */\n      tag_293\n      jump\t// in\n    tag_585:\n        /* \"#utility.yul\":30565:30566   */\n      0x01\n        /* \"#utility.yul\":30558:30563   */\n      dup2\n        /* \"#utility.yul\":30554:30567   */\n      add\n        /* \"#utility.yul\":30545:30567   */\n      swap1\n      pop\n        /* \"#utility.yul\":30521:30641   */\n      jump(tag_582)\n    tag_584:\n        /* \"#utility.yul\":30461:30647   */\n      pop\n      pop\n      jump\t// out\n        /* \"#utility.yul\":30653:31196   */\n    tag_295:\n        /* \"#utility.yul\":30754:30756   */\n      0x1f\n        /* \"#utility.yul\":30749:30752   */\n      dup3\n        /* \"#utility.yul\":30746:30757   */\n      gt\n        /* \"#utility.yul\":30743:31189   */\n      iszero\n      tag_587\n      jumpi\n        /* \"#utility.yul\":30788:30826   */\n      tag_588\n        /* \"#utility.yul\":30820:30825   */\n      dup2\n        /* \"#utility.yul\":30788:30826   */\n      tag_284\n      jump\t// in\n    tag_588:\n        /* \"#utility.yul\":30872:30901   */\n      tag_589\n        /* \"#utility.yul\":30890:30900   */\n      dup5\n        /* \"#utility.yul\":30872:30901   */\n      tag_285\n      jump\t// in\n    tag_589:\n        /* \"#utility.yul\":30862:30870   */\n      dup2\n        /* \"#utility.yul\":30858:30902   */\n      add\n        /* \"#utility.yul\":31055:31057   */\n      0x20\n        /* \"#utility.yul\":31043:31053   */\n      dup6\n        /* \"#utility.yul\":31040:31058   */\n      lt\n        /* \"#utility.yul\":31037:31086   */\n      iszero\n      tag_590\n      jumpi\n        /* \"#utility.yul\":31076:31084   */\n      dup2\n        /* \"#utility.yul\":31061:31084   */\n      swap1\n      pop\n        /* \"#utility.yul\":31037:31086   */\n    tag_590:\n        /* \"#utility.yul\":31099:31179   */\n      tag_591\n        /* \"#utility.yul\":31155:31177   */\n      tag_592\n        /* \"#utility.yul\":31173:31176   */\n      dup6\n        /* \"#utility.yul\":31155:31177   */\n      tag_285\n      jump\t// in\n    tag_592:\n        /* \"#utility.yul\":31145:31153   */\n      dup4\n        /* \"#utility.yul\":31141:31178   */\n      add\n        /* \"#utility.yul\":31128:31139   */\n      dup3\n        /* \"#utility.yul\":31099:31179   */\n      tag_294\n      jump\t// in\n    tag_591:\n        /* \"#utility.yul\":30758:31189   */\n      pop\n      pop\n        /* \"#utility.yul\":30743:31189   */\n    tag_587:\n        /* \"#utility.yul\":30653:31196   */\n      pop\n      pop\n      pop\n      jump\t// out\n        /* \"#utility.yul\":31202:31319   */\n    tag_296:\n        /* \"#utility.yul\":31256:31264   */\n      0x00\n        /* \"#utility.yul\":31306:31311   */\n      dup3\n        /* \"#utility.yul\":31300:31304   */\n      dup3\n        /* \"#utility.yul\":31296:31312   */\n      shr\n        /* \"#utility.yul\":31275:31312   */\n      swap1\n      pop\n        /* \"#utility.yul\":31202:31319   */\n      swap3\n      swap2\n      pop\n      pop\n      jump\t// out\n        /* \"#utility.yul\":31325:31494   */\n    tag_297:\n        /* \"#utility.yul\":31369:31375   */\n      0x00\n        /* \"#utility.yul\":31402:31453   */\n      tag_595\n        /* \"#utility.yul\":31450:31451   */\n      0x00\n        /* \"#utility.yul\":31446:31452   */\n      not\n        /* \"#utility.yul\":31438:31443   */\n      dup5\n        /* \"#utility.yul\":31435:31436   */\n      0x08\n        /* \"#utility.yul\":31431:31444   */\n      mul\n        /* \"#utility.yul\":31402:31453   */\n      tag_296\n      jump\t// in\n    tag_595:\n        /* \"#utility.yul\":31398:31454   */\n      not\n        /* \"#utility.yul\":31483:31487   */\n      dup1\n        /* \"#utility.yul\":31477:31481   */\n      dup4\n        /* \"#utility.yul\":31473:31488   */\n      and\n        /* \"#utility.yul\":31463:31488   */\n      swap2\n      pop\n        /* \"#utility.yul\":31376:31494   */\n      pop\n        /* \"#utility.yul\":31325:31494   */\n      swap3\n      swap2\n      pop\n      pop\n      jump\t// out\n        /* \"#utility.yul\":31499:31794   */\n    tag_298:\n        /* \"#utility.yul\":31575:31579   */\n      0x00\n        /* \"#utility.yul\":31721:31750   */\n      tag_597\n        /* \"#utility.yul\":31746:31749   */\n      dup4\n        /* \"#utility.yul\":31740:31744   */\n      dup4\n        /* \"#utility.yul\":31721:31750   */\n      tag_297\n      jump\t// in\n    tag_597:\n        /* \"#utility.yul\":31713:31750   */\n      swap2\n      pop\n        /* \"#utility.yul\":31783:31786   */\n      dup3\n        /* \"#utility.yul\":31780:31781   */\n      0x02\n        /* \"#utility.yul\":31776:31787   */\n      mul\n        /* \"#utility.yul\":31770:31774   */\n      dup3\n        /* \"#utility.yul\":31767:31788   */\n      or\n        /* \"#utility.yul\":31759:31788   */\n      swap1\n      pop\n        /* \"#utility.yul\":31499:31794   */\n      swap3\n      swap2\n      pop\n      pop\n      jump\t// out\n        /* \"#utility.yul\":31799:33194   */\n    tag_77:\n        /* \"#utility.yul\":31916:31953   */\n      tag_599\n        /* \"#utility.yul\":31949:31952   */\n      dup3\n        /* \"#utility.yul\":31916:31953   */\n      tag_254\n      jump\t// in\n    tag_599:\n        /* \"#utility.yul\":32018:32036   */\n      0xffffffffffffffff\n        /* \"#utility.yul\":32010:32016   */\n      dup2\n        /* \"#utility.yul\":32007:32037   */\n      gt\n        /* \"#utility.yul\":32004:32060   */\n      iszero\n      tag_600\n      jumpi\n        /* \"#utility.yul\":32040:32058   */\n      tag_601\n      tag_153\n      jump\t// in\n    tag_601:\n        /* \"#utility.yul\":32004:32060   */\n    tag_600:\n        /* \"#utility.yul\":32084:32122   */\n      tag_602\n        /* \"#utility.yul\":32116:32120   */\n      dup3\n        /* \"#utility.yul\":32110:32121   */\n      sload\n        /* \"#utility.yul\":32084:32122   */\n      tag_84\n      jump\t// in\n    tag_602:\n        /* \"#utility.yul\":32169:32236   */\n      tag_603\n        /* \"#utility.yul\":32229:32235   */\n      dup3\n        /* \"#utility.yul\":32221:32227   */\n      dup3\n        /* \"#utility.yul\":32215:32219   */\n      dup6\n        /* \"#utility.yul\":32169:32236   */\n      tag_295\n      jump\t// in\n    tag_603:\n        /* \"#utility.yul\":32263:32264   */\n      0x00\n        /* \"#utility.yul\":32287:32291   */\n      0x20\n        /* \"#utility.yul\":32274:32291   */\n      swap1\n      pop\n        /* \"#utility.yul\":32319:32321   */\n      0x1f\n        /* \"#utility.yul\":32311:32317   */\n      dup4\n        /* \"#utility.yul\":32308:32322   */\n      gt\n        /* \"#utility.yul\":32336:32337   */\n      0x01\n        /* \"#utility.yul\":32331:32949   */\n      dup2\n      eq\n      tag_605\n      jumpi\n        /* \"#utility.yul\":32993:32994   */\n      0x00\n        /* \"#utility.yul\":33010:33016   */\n      dup5\n        /* \"#utility.yul\":33007:33084   */\n      iszero\n      tag_606\n      jumpi\n        /* \"#utility.yul\":33059:33068   */\n      dup3\n        /* \"#utility.yul\":33054:33057   */\n      dup8\n        /* \"#utility.yul\":33050:33069   */\n      add\n        /* \"#utility.yul\":33044:33070   */\n      mload\n        /* \"#utility.yul\":33035:33070   */\n      swap1\n      pop\n        /* \"#utility.yul\":33007:33084   */\n    tag_606:\n        /* \"#utility.yul\":33110:33177   */\n      tag_607\n        /* \"#utility.yul\":33170:33176   */\n      dup6\n        /* \"#utility.yul\":33163:33168   */\n      dup3\n        /* \"#utility.yul\":33110:33177   */\n      tag_298\n      jump\t// in\n    tag_607:\n        /* \"#utility.yul\":33104:33108   */\n      dup7\n        /* \"#utility.yul\":33097:33178   */\n      sstore\n        /* \"#utility.yul\":32966:33188   */\n      pop\n        /* \"#utility.yul\":32301:33188   */\n      jump(tag_604)\n        /* \"#utility.yul\":32331:32949   */\n    tag_605:\n        /* \"#utility.yul\":32383:32387   */\n      0x1f\n        /* \"#utility.yul\":32379:32388   */\n      not\n        /* \"#utility.yul\":32371:32377   */\n      dup5\n        /* \"#utility.yul\":32367:32389   */\n      and\n        /* \"#utility.yul\":32417:32454   */\n      tag_608\n        /* \"#utility.yul\":32449:32453   */\n      dup7\n        /* \"#utility.yul\":32417:32454   */\n      tag_284\n      jump\t// in\n    tag_608:\n        /* \"#utility.yul\":32476:32477   */\n      0x00\n        /* \"#utility.yul\":32490:32698   */\n    tag_609:\n        /* \"#utility.yul\":32504:32511   */\n      dup3\n        /* \"#utility.yul\":32501:32502   */\n      dup2\n        /* \"#utility.yul\":32498:32512   */\n      lt\n        /* \"#utility.yul\":32490:32698   */\n      iszero\n      tag_611\n      jumpi\n        /* \"#utility.yul\":32583:32592   */\n      dup5\n        /* \"#utility.yul\":32578:32581   */\n      dup10\n        /* \"#utility.yul\":32574:32593   */\n      add\n        /* \"#utility.yul\":32568:32594   */\n      mload\n        /* \"#utility.yul\":32560:32566   */\n      dup3\n        /* \"#utility.yul\":32553:32595   */\n      sstore\n        /* \"#utility.yul\":32634:32635   */\n      0x01\n        /* \"#utility.yul\":32626:32632   */\n      dup3\n        /* \"#utility.yul\":32622:32636   */\n      add\n        /* \"#utility.yul\":32612:32636   */\n      swap2\n      pop\n        /* \"#utility.yul\":32681:32683   */\n      0x20\n        /* \"#utility.yul\":32670:32679   */\n      dup6\n        /* \"#utility.yul\":32666:32684   */\n      add\n        /* \"#utility.yul\":32653:32684   */\n      swap5\n      pop\n        /* \"#utility.yul\":32527:32531   */\n      0x20\n        /* \"#utility.yul\":32524:32525   */\n      dup2\n        /* \"#utility.yul\":32520:32532   */\n      add\n        /* \"#utility.yul\":32515:32532   */\n      swap1\n      pop\n        /* \"#utility.yul\":32490:32698   */\n      jump(tag_609)\n    tag_611:\n        /* \"#utility.yul\":32726:32732   */\n      dup7\n        /* \"#utility.yul\":32717:32724   */\n      dup4\n        /* \"#utility.yul\":32714:32733   */\n      lt\n        /* \"#utility.yul\":32711:32890   */\n      iszero\n      tag_612\n      jumpi\n        /* \"#utility.yul\":32784:32793   */\n      dup5\n        /* \"#utility.yul\":32779:32782   */\n      dup10\n        /* \"#utility.yul\":32775:32794   */\n      add\n        /* \"#utility.yul\":32769:32795   */\n      mload\n        /* \"#utility.yul\":32827:32875   */\n      tag_613\n        /* \"#utility.yul\":32869:32873   */\n      0x1f\n        /* \"#utility.yul\":32861:32867   */\n      dup10\n        /* \"#utility.yul\":32857:32874   */\n      and\n        /* \"#utility.yul\":32846:32855   */\n      dup3\n        /* \"#utility.yul\":32827:32875   */\n      tag_297\n      jump\t// in\n    tag_613:\n        /* \"#utility.yul\":32819:32825   */\n      dup4\n        /* \"#utility.yul\":32812:32876   */\n      sstore\n        /* \"#utility.yul\":32734:32890   */\n      pop\n        /* \"#utility.yul\":32711:32890   */\n    tag_612:\n        /* \"#utility.yul\":32936:32937   */\n      0x01\n        /* \"#utility.yul\":32932:32933   */\n      0x02\n        /* \"#utility.yul\":32924:32930   */\n      dup9\n        /* \"#utility.yul\":32920:32934   */\n      mul\n        /* \"#utility.yul\":32916:32938   */\n      add\n        /* \"#utility.yul\":32910:32914   */\n      dup9\n        /* \"#utility.yul\":32903:32939   */\n      sstore\n        /* \"#utility.yul\":32338:32949   */\n      pop\n      pop\n      pop\n        /* \"#utility.yul\":32301:33188   */\n    tag_604:\n      pop\n        /* \"#utility.yul\":31891:33194   */\n      pop\n      pop\n      pop\n        /* \"#utility.yul\":31799:33194   */\n      pop\n      pop\n      jump\t// out\n        /* \"#utility.yul\":33200:33380   */\n    tag_299:\n        /* \"#utility.yul\":33248:33325   */\n      0x4e487b7100000000000000000000000000000000000000000000000000000000\n        /* \"#utility.yul\":33245:33246   */\n      0x00\n        /* \"#utility.yul\":33238:33326   */\n      mstore\n        /* \"#utility.yul\":33345:33349   */\n      0x11\n        /* \"#utility.yul\":33342:33343   */\n      0x04\n        /* \"#utility.yul\":33335:33350   */\n      mstore\n        /* \"#utility.yul\":33369:33373   */\n      0x24\n        /* \"#utility.yul\":33366:33367   */\n      0x00\n        /* \"#utility.yul\":33359:33374   */\n      revert\n        /* \"#utility.yul\":33386:33619   */\n    tag_99:\n        /* \"#utility.yul\":33425:33428   */\n      0x00\n        /* \"#utility.yul\":33448:33472   */\n      tag_616\n        /* \"#utility.yul\":33466:33471   */\n      dup3\n        /* \"#utility.yul\":33448:33472   */\n      tag_248\n      jump\t// in\n    tag_616:\n        /* \"#utility.yul\":33439:33472   */\n      swap2\n      pop\n        /* \"#utility.yul\":33494:33560   */\n      0xffffffffffffffffffffffffffffffffffffffffffffffffffffffffffffffff\n        /* \"#utility.yul\":33487:33492   */\n      dup3\n        /* \"#utility.yul\":33484:33561   */\n      sub\n        /* \"#utility.yul\":33481:33584   */\n      tag_617\n      jumpi\n        /* \"#utility.yul\":33564:33582   */\n      tag_618\n      tag_299\n      jump\t// in\n    tag_618:\n        /* \"#utility.yul\":33481:33584   */\n    tag_617:\n        /* \"#utility.yul\":33611:33612   */\n      0x01\n        /* \"#utility.yul\":33604:33609   */\n      dup3\n        /* \"#utility.yul\":33600:33613   */\n      add\n        /* \"#utility.yul\":33593:33613   */\n      swap1\n      pop\n        /* \"#utility.yul\":33386:33619   */\n      swap2\n      swap1\n      pop\n      jump\t// out\n        /* \"#utility.yul\":33625:33805   */\n    tag_170:\n        /* \"#utility.yul\":33673:33750   */\n      0x4e487b7100000000000000000000000000000000000000000000000000000000\n        /* \"#utility.yul\":33670:33671   */\n      0x00\n        /* \"#utility.yul\":33663:33751   */\n      mstore\n        /* \"#utility.yul\":33770:33774   */\n      0x32\n        /* \"#utility.yul\":33767:33768   */\n      0x04\n        /* \"#utility.yul\":33760:33775   */\n      mstore\n        /* \"#utility.yul\":33794:33798   */\n      0x24\n        /* \"#utility.yul\":33791:33792   */\n      0x00\n        /* \"#utility.yul\":33784:33799   */\n      revert\n\n    auxdata: 0xa2646970667358221220c220970915be2d440715425715beb1256db624f918e4f4a686d93509a587060f64736f6c63430008120033\n}\n",
				"bytecode": {
					"linkReferences": {},
					"object": "608060405234801561001057600080fd5b50612504806100206000396000f3fe608060405234801561001057600080fd5b50600436106100b45760003560e01c8063931126e911610071578063931126e91461018f578063a12d9560146101bf578063c40cd876146101f0578063d2ea859414610223578063e1d3145814610255578063f4ef06b414610271576100b4565b806316c11d68146100b957806330c012f0146100d55780633276a2ac146101085780635450604814610124578063669aaafb1461014057806368cdafb31461015c575b600080fd5b6100d360048036038101906100ce919061158d565b61028d565b005b6100ef60048036038101906100ea91906116bb565b610398565b6040516100ff94939291906117b4565b60405180910390f35b610122600480360381019061011d9190611800565b6104a5565b005b61013e600480360381019061013991906118eb565b61050d565b005b61015a60048036038101906101559190611a78565b6105b1565b005b61017660048036038101906101719190611b4f565b61066e565b6040516101869493929190611b98565b60405180910390f35b6101a960048036038101906101a49190611b4f565b61085b565b6040516101b69190611dba565b60405180910390f35b6101d960048036038101906101d49190611b4f565b610b4d565b6040516101e7929190611e9e565b60405180910390f35b61020a600480360381019061020591906116bb565b610dbc565b60405161021a9493929190611ed5565b60405180910390f35b61023d60048036038101906102389190611b4f565b610eaf565b60405161024c93929190611f21565b60405180910390f35b61026f600480360381019061026a9190611f6d565b61118d565b005b61028b60048036038101906102869190612032565b611254565b005b6000808860405161029e9190612133565b90815260200160405180910390209050806005016040518060c001604052808981526020018881526020018781526020018681526020018581526020018415158152509080600181540180825580915050600190039060005260206000209060060201600090919091909150600082015181600001908161031f9190612356565b5060208201518160010190816103359190612356565b506040820151816002015560608201518160030190816103559190612356565b50608082015181600401908161036b9190612356565b5060a08201518160050160006101000a81548160ff02191690831515021790555050505050505050505050565b60606000806000806000876040516103b09190612133565b9081526020016040518091039020905060008160070160008881526020019081526020016000209050806000018160010160009054906101000a900460ff168260010160019054906101000a900460ff16836002015483805461041290612179565b80601f016020809104026020016040519081016040528092919081815260200182805461043e90612179565b801561048b5780601f106104605761010080835404028352916020019161048b565b820191906000526020600020905b81548152906001019060200180831161046e57829003601f168201915b505050505093509550955095509550505092959194509250565b600080866040516104b69190612133565b90815260200160405180910390209050848160000190816104d79190612356565b50838160010181905550828160020190816104f29190612356565b50818160030190816105049190612356565b50505050505050565b6000808460405161051e9190612133565b9081526020016040518091039020905060008160090154905060405180604001604052808581526020018481525082600801600083815260200190815260200160002060008201518160000190816105769190612356565b50602082015181600101908161058c9190612356565b509050508160090160008154809291906105a590612457565b91905055505050505050565b600080856040516105c29190612133565b9081526020016040518091039020905060405180606001604052808581526020018481526020018381525081600401866040516105ff9190612133565b908152602001604051809103902060008201518160000190805190602001906106299291906112eb565b5060208201518160010190805190602001906106469291906112eb565b5060408201518160020190805190602001906106639291906112eb565b509050505050505050565b60606000606080600080866040516106869190612133565b9081526020016040518091039020905080600001816001015482600201836003018380546106b390612179565b80601f01602080910402602001604051908101604052809291908181526020018280546106df90612179565b801561072c5780601f106107015761010080835404028352916020019161072c565b820191906000526020600020905b81548152906001019060200180831161070f57829003601f168201915b5050505050935081805461073f90612179565b80601f016020809104026020016040519081016040528092919081815260200182805461076b90612179565b80156107b85780601f1061078d576101008083540402835291602001916107b8565b820191906000526020600020905b81548152906001019060200180831161079b57829003601f168201915b505050505091508080546107cb90612179565b80601f01602080910402602001604051908101604052809291908181526020018280546107f790612179565b80156108445780601f1061081957610100808354040283529160200191610844565b820191906000526020600020905b81548152906001019060200180831161082757829003601f168201915b505050505090509450945094509450509193509193565b60606000808360405161086e9190612133565b9081526020016040518091039020905080600501805480602002602001604051908101604052809291908181526020016000905b82821015610b4157838290600052602060002090600602016040518060c00160405290816000820180546108d590612179565b80601f016020809104026020016040519081016040528092919081815260200182805461090190612179565b801561094e5780601f106109235761010080835404028352916020019161094e565b820191906000526020600020905b81548152906001019060200180831161093157829003601f168201915b5050505050815260200160018201805461096790612179565b80601f016020809104026020016040519081016040528092919081815260200182805461099390612179565b80156109e05780601f106109b5576101008083540402835291602001916109e0565b820191906000526020600020905b8154815290600101906020018083116109c357829003601f168201915b5050505050815260200160028201548152602001600382018054610a0390612179565b80601f0160208091040260200160405190810160405280929190818152602001828054610a2f90612179565b8015610a7c5780601f10610a5157610100808354040283529160200191610a7c565b820191906000526020600020905b815481529060010190602001808311610a5f57829003601f168201915b50505050508152602001600482018054610a9590612179565b80601f0160208091040260200160405190810160405280929190818152602001828054610ac190612179565b8015610b0e5780601f10610ae357610100808354040283529160200191610b0e565b820191906000526020600020905b815481529060010190602001808311610af157829003601f168201915b505050505081526020016005820160009054906101000a900460ff161515151581525050815260200190600101906108a2565b50505050915050919050565b60608060008084604051610b619190612133565b9081526020016040518091039020905060008160090154905060008167ffffffffffffffff811115610b9657610b956113f4565b5b604051908082528060200260200182016040528015610bc957816020015b6060815260200190600190039081610bb45790505b50905060008267ffffffffffffffff811115610be857610be76113f4565b5b604051908082528060200260200182016040528015610c1b57816020015b6060815260200190600190039081610c065790505b50905060005b83811015610dac5760008560080160008381526020019081526020016000209050806000018054610c5190612179565b80601f0160208091040260200160405190810160405280929190818152602001828054610c7d90612179565b8015610cca5780601f10610c9f57610100808354040283529160200191610cca565b820191906000526020600020905b815481529060010190602001808311610cad57829003601f168201915b5050505050848381518110610ce257610ce161249f565b5b6020026020010181905250806001018054610cfc90612179565b80601f0160208091040260200160405190810160405280929190818152602001828054610d2890612179565b8015610d755780601f10610d4a57610100808354040283529160200191610d75565b820191906000526020600020905b815481529060010190602001808311610d5857829003601f168201915b5050505050838381518110610d8d57610d8c61249f565b5b6020026020010181905250508080610da490612457565b915050610c21565b5081819550955050505050915091565b6060600080600080600087604051610dd49190612133565b908152602001604051809103902090506000816006016000888152602001908152602001600020905080600001816001015482600201548360030154838054610e1c90612179565b80601f0160208091040260200160405190810160405280929190818152602001828054610e4890612179565b8015610e955780601f10610e6a57610100808354040283529160200191610e95565b820191906000526020600020905b815481529060010190602001808311610e7857829003601f168201915b505050505093509550955095509550505092959194509250565b606080606060008085604051610ec59190612133565b9081526020016040518091039020905060008160040186604051610ee99190612133565b9081526020016040518091039020905080600001816001018260020182805480602002602001604051908101604052809291908181526020016000905b82821015610fd2578382906000526020600020018054610f4590612179565b80601f0160208091040260200160405190810160405280929190818152602001828054610f7190612179565b8015610fbe5780601f10610f9357610100808354040283529160200191610fbe565b820191906000526020600020905b815481529060010190602001808311610fa157829003601f168201915b505050505081526020019060010190610f26565b50505050925081805480602002602001604051908101604052809291908181526020016000905b828210156110a557838290600052602060002001805461101890612179565b80601f016020809104026020016040519081016040528092919081815260200182805461104490612179565b80156110915780601f1061106657610100808354040283529160200191611091565b820191906000526020600020905b81548152906001019060200180831161107457829003601f168201915b505050505081526020019060010190610ff9565b50505050915080805480602002602001604051908101604052809291908181526020016000905b828210156111785783829060005260206000200180546110eb90612179565b80601f016020809104026020016040519081016040528092919081815260200182805461111790612179565b80156111645780601f1061113957610100808354040283529160200191611164565b820191906000526020600020905b81548152906001019060200180831161114757829003601f168201915b5050505050815260200190600101906110cc565b50505050905094509450945050509193909250565b6000808760405161119e9190612133565b908152602001604051809103902090506040518060800160405280868152602001851515815260200184151581526020018381525081600701600088815260200190815260200160002060008201518160000190816111fd9190612356565b5060208201518160010160006101000a81548160ff02191690831515021790555060408201518160010160016101000a81548160ff0219169083151502179055506060820151816002015590505050505050505050565b600080876040516112659190612133565b9081526020016040518091039020905060405180608001604052808681526020018581526020018481526020018381525081600601600088815260200190815260200160002060008201518160000190816112c09190612356565b5060208201518160010155604082015181600201556060820151816003015590505050505050505050565b828054828255906000526020600020908101928215611333579160200282015b828111156113325782518290816113229190612356565b509160200191906001019061130b565b5b5090506113409190611344565b5090565b5b80821115611364576000818161135b9190611368565b50600101611345565b5090565b50805461137490612179565b6000825580601f1061138657506113a5565b601f0160209004906000526020600020908101906113a491906113a8565b5b50565b5b808211156113c15760008160009055506001016113a9565b5090565b6000604051905090565b600080fd5b600080fd5b600080fd5b600080fd5b6000601f19601f8301169050919050565b7f4e487b7100000000000000000000000000000000000000000000000000000000600052604160045260246000fd5b61142c826113e3565b810181811067ffffffffffffffff8211171561144b5761144a6113f4565b5b80604052505050565b600061145e6113c5565b905061146a8282611423565b919050565b600067ffffffffffffffff82111561148a576114896113f4565b5b611493826113e3565b9050602081019050919050565b82818337600083830152505050565b60006114c26114bd8461146f565b611454565b9050828152602081018484840111156114de576114dd6113de565b5b6114e98482856114a0565b509392505050565b600082601f830112611506576115056113d9565b5b81356115168482602086016114af565b91505092915050565b6000819050919050565b6115328161151f565b811461153d57600080fd5b50565b60008135905061154f81611529565b92915050565b60008115159050919050565b61156a81611555565b811461157557600080fd5b50565b60008135905061158781611561565b92915050565b600080600080600080600060e0888a0312156115ac576115ab6113cf565b5b600088013567ffffffffffffffff8111156115ca576115c96113d4565b5b6115d68a828b016114f1565b975050602088013567ffffffffffffffff8111156115f7576115f66113d4565b5b6116038a828b016114f1565b965050604088013567ffffffffffffffff811115611624576116236113d4565b5b6116308a828b016114f1565b95505060606116418a828b01611540565b945050608088013567ffffffffffffffff811115611662576116616113d4565b5b61166e8a828b016114f1565b93505060a088013567ffffffffffffffff81111561168f5761168e6113d4565b5b61169b8a828b016114f1565b92505060c06116ac8a828b01611578565b91505092959891949750929550565b600080604083850312156116d2576116d16113cf565b5b600083013567ffffffffffffffff8111156116f0576116ef6113d4565b5b6116fc858286016114f1565b925050602061170d85828601611540565b9150509250929050565b600081519050919050565b600082825260208201905092915050565b60005b83811015611751578082015181840152602081019050611736565b60008484015250505050565b600061176882611717565b6117728185611722565b9350611782818560208601611733565b61178b816113e3565b840191505092915050565b61179f81611555565b82525050565b6117ae8161151f565b82525050565b600060808201905081810360008301526117ce818761175d565b90506117dd6020830186611796565b6117ea6040830185611796565b6117f760608301846117a5565b95945050505050565b600080600080600060a0868803121561181c5761181b6113cf565b5b600086013567ffffffffffffffff81111561183a576118396113d4565b5b611846888289016114f1565b955050602086013567ffffffffffffffff811115611867576118666113d4565b5b611873888289016114f1565b945050604061188488828901611540565b935050606086013567ffffffffffffffff8111156118a5576118a46113d4565b5b6118b1888289016114f1565b925050608086013567ffffffffffffffff8111156118d2576118d16113d4565b5b6118de888289016114f1565b9150509295509295909350565b600080600060608486031215611904576119036113cf565b5b600084013567ffffffffffffffff811115611922576119216113d4565b5b61192e868287016114f1565b935050602084013567ffffffffffffffff81111561194f5761194e6113d4565b5b61195b868287016114f1565b925050604084013567ffffffffffffffff81111561197c5761197b6113d4565b5b611988868287016114f1565b9150509250925092565b600067ffffffffffffffff8211156119ad576119ac6113f4565b5b602082029050602081019050919050565b600080fd5b60006119d66119d184611992565b611454565b905080838252602082019050602084028301858111156119f9576119f86119be565b5b835b81811015611a4057803567ffffffffffffffff811115611a1e57611a1d6113d9565b5b808601611a2b89826114f1565b855260208501945050506020810190506119fb565b5050509392505050565b600082601f830112611a5f57611a5e6113d9565b5b8135611a6f8482602086016119c3565b91505092915050565b60008060008060808587031215611a9257611a916113cf565b5b600085013567ffffffffffffffff811115611ab057611aaf6113d4565b5b611abc878288016114f1565b945050602085013567ffffffffffffffff811115611add57611adc6113d4565b5b611ae987828801611a4a565b935050604085013567ffffffffffffffff811115611b0a57611b096113d4565b5b611b1687828801611a4a565b925050606085013567ffffffffffffffff811115611b3757611b366113d4565b5b611b4387828801611a4a565b91505092959194509250565b600060208284031215611b6557611b646113cf565b5b600082013567ffffffffffffffff811115611b8357611b826113d4565b5b611b8f848285016114f1565b91505092915050565b60006080820190508181036000830152611bb2818761175d565b9050611bc160208301866117a5565b8181036040830152611bd3818561175d565b90508181036060830152611be7818461175d565b905095945050505050565b600081519050919050565b600082825260208201905092915050565b6000819050602082019050919050565b600082825260208201905092915050565b6000611c3a82611717565b611c448185611c1e565b9350611c54818560208601611733565b611c5d816113e3565b840191505092915050565b611c718161151f565b82525050565b611c8081611555565b82525050565b600060c0830160008301518482036000860152611ca38282611c2f565b91505060208301518482036020860152611cbd8282611c2f565b9150506040830151611cd26040860182611c68565b5060608301518482036060860152611cea8282611c2f565b91505060808301518482036080860152611d048282611c2f565b91505060a0830151611d1960a0860182611c77565b508091505092915050565b6000611d308383611c86565b905092915050565b6000602082019050919050565b6000611d5082611bf2565b611d5a8185611bfd565b935083602082028501611d6c85611c0e565b8060005b85811015611da85784840389528151611d898582611d24565b9450611d9483611d38565b925060208a01995050600181019050611d70565b50829750879550505050505092915050565b60006020820190508181036000830152611dd48184611d45565b905092915050565b600081519050919050565b600082825260208201905092915050565b6000819050602082019050919050565b6000611e148383611c2f565b905092915050565b6000602082019050919050565b6000611e3482611ddc565b611e3e8185611de7565b935083602082028501611e5085611df8565b8060005b85811015611e8c5784840389528151611e6d8582611e08565b9450611e7883611e1c565b925060208a01995050600181019050611e54565b50829750879550505050505092915050565b60006040820190508181036000830152611eb88185611e29565b90508181036020830152611ecc8184611e29565b90509392505050565b60006080820190508181036000830152611eef818761175d565b9050611efe60208301866117a5565b611f0b60408301856117a5565b611f1860608301846117a5565b95945050505050565b60006060820190508181036000830152611f3b8186611e29565b90508181036020830152611f4f8185611e29565b90508181036040830152611f638184611e29565b9050949350505050565b60008060008060008060c08789031215611f8a57611f896113cf565b5b600087013567ffffffffffffffff811115611fa857611fa76113d4565b5b611fb489828a016114f1565b9650506020611fc589828a01611540565b955050604087013567ffffffffffffffff811115611fe657611fe56113d4565b5b611ff289828a016114f1565b945050606061200389828a01611578565b935050608061201489828a01611578565b92505060a061202589828a01611540565b9150509295509295509295565b60008060008060008060c0878903121561204f5761204e6113cf565b5b600087013567ffffffffffffffff81111561206d5761206c6113d4565b5b61207989828a016114f1565b965050602061208a89828a01611540565b955050604087013567ffffffffffffffff8111156120ab576120aa6113d4565b5b6120b789828a016114f1565b94505060606120c889828a01611540565b93505060806120d989828a01611540565b92505060a06120ea89828a01611540565b9150509295509295509295565b600081905092915050565b600061210d82611717565b61211781856120f7565b9350612127818560208601611733565b80840191505092915050565b600061213f8284612102565b915081905092915050565b7f4e487b7100000000000000000000000000000000000000000000000000000000600052602260045260246000fd5b6000600282049050600182168061219157607f821691505b6020821081036121a4576121a361214a565b5b50919050565b60008190508160005260206000209050919050565b60006020601f8301049050919050565b600082821b905092915050565b60006008830261220c7fffffffffffffffffffffffffffffffffffffffffffffffffffffffffffffffff826121cf565b61221686836121cf565b95508019841693508086168417925050509392505050565b6000819050919050565b600061225361224e6122498461151f565b61222e565b61151f565b9050919050565b6000819050919050565b61226d83612238565b6122816122798261225a565b8484546121dc565b825550505050565b600090565b612296612289565b6122a1818484612264565b505050565b5b818110156122c5576122ba60008261228e565b6001810190506122a7565b5050565b601f82111561230a576122db816121aa565b6122e4846121bf565b810160208510156122f3578190505b6123076122ff856121bf565b8301826122a6565b50505b505050565b600082821c905092915050565b600061232d6000198460080261230f565b1980831691505092915050565b6000612346838361231c565b9150826002028217905092915050565b61235f82611717565b67ffffffffffffffff811115612378576123776113f4565b5b6123828254612179565b61238d8282856122c9565b600060209050601f8311600181146123c057600084156123ae578287015190505b6123b8858261233a565b865550612420565b601f1984166123ce866121aa565b60005b828110156123f6578489015182556001820191506020850194506020810190506123d1565b86831015612413578489015161240f601f89168261231c565b8355505b6001600288020188555050505b505050505050565b7f4e487b7100000000000000000000000000000000000000000000000000000000600052601160045260246000fd5b60006124628261151f565b91507fffffffffffffffffffffffffffffffffffffffffffffffffffffffffffffffff820361249457612493612428565b5b600182019050919050565b7f4e487b7100000000000000000000000000000000000000000000000000000000600052603260045260246000fdfea2646970667358221220c220970915be2d440715425715beb1256db624f918e4f4a686d93509a587060f64736f6c63430008120033",
					"opcodes": "PUSH1 0x80 PUSH1 0x40 MSTORE CALLVALUE DUP1 ISZERO PUSH2 0x10 JUMPI PUSH1 0x0 DUP1 REVERT JUMPDEST POP PUSH2 0x2504 DUP1 PUSH2 0x20 PUSH1 0x0 CODECOPY PUSH1 0x0 RETURN INVALID PUSH1 0x80 PUSH1 0x40 MSTORE CALLVALUE DUP1 ISZERO PUSH2 0x10 JUMPI PUSH1 0x0 DUP1 REVERT JUMPDEST POP PUSH1 0x4 CALLDATASIZE LT PUSH2 0xB4 JUMPI PUSH1 0x0 CALLDATALOAD PUSH1 0xE0 SHR DUP1 PUSH4 0x931126E9 GT PUSH2 0x71 JUMPI DUP1 PUSH4 0x931126E9 EQ PUSH2 0x18F JUMPI DUP1 PUSH4 0xA12D9560 EQ PUSH2 0x1BF JUMPI DUP1 PUSH4 0xC40CD876 EQ PUSH2 0x1F0 JUMPI DUP1 PUSH4 0xD2EA8594 EQ PUSH2 0x223 JUMPI DUP1 PUSH4 0xE1D31458 EQ PUSH2 0x255 JUMPI DUP1 PUSH4 0xF4EF06B4 EQ PUSH2 0x271 JUMPI PUSH2 0xB4 JUMP JUMPDEST DUP1 PUSH4 0x16C11D68 EQ PUSH2 0xB9 JUMPI DUP1 PUSH4 0x30C012F0 EQ PUSH2 0xD5 JUMPI DUP1 PUSH4 0x3276A2AC EQ PUSH2 0x108 JUMPI DUP1 PUSH4 0x54506048 EQ PUSH2 0x124 JUMPI DUP1 PUSH4 0x669AAAFB EQ PUSH2 0x140 JUMPI DUP1 PUSH4 0x68CDAFB3 EQ PUSH2 0x15C JUMPI JUMPDEST PUSH1 0x0 DUP1 REVERT JUMPDEST PUSH2 0xD3 PUSH1 0x4 DUP1 CALLDATASIZE SUB DUP2 ADD SWAP1 PUSH2 0xCE SWAP2 SWAP1 PUSH2 0x158D JUMP JUMPDEST PUSH2 0x28D JUMP JUMPDEST STOP JUMPDEST PUSH2 0xEF PUSH1 0x4 DUP1 CALLDATASIZE SUB DUP2 ADD SWAP1 PUSH2 0xEA SWAP2 SWAP1 PUSH2 0x16BB JUMP JUMPDEST PUSH2 0x398 JUMP JUMPDEST PUSH1 0x40 MLOAD PUSH2 0xFF SWAP5 SWAP4 SWAP3 SWAP2 SWAP1 PUSH2 0x17B4 JUMP JUMPDEST PUSH1 0x40 MLOAD DUP1 SWAP2 SUB SWAP1 RETURN JUMPDEST PUSH2 0x122 PUSH1 0x4 DUP1 CALLDATASIZE SUB DUP2 ADD SWAP1 PUSH2 0x11D SWAP2 SWAP1 PUSH2 0x1800 JUMP JUMPDEST PUSH2 0x4A5 JUMP JUMPDEST STOP JUMPDEST PUSH2 0x13E PUSH1 0x4 DUP1 CALLDATASIZE SUB DUP2 ADD SWAP1 PUSH2 0x139 SWAP2 SWAP1 PUSH2 0x18EB JUMP JUMPDEST PUSH2 0x50D JUMP JUMPDEST STOP JUMPDEST PUSH2 0x15A PUSH1 0x4 DUP1 CALLDATASIZE SUB DUP2 ADD SWAP1 PUSH2 0x155 SWAP2 SWAP1 PUSH2 0x1A78 JUMP JUMPDEST PUSH2 0x5B1 JUMP JUMPDEST STOP JUMPDEST PUSH2 0x176 PUSH1 0x4 DUP1 CALLDATASIZE SUB DUP2 ADD SWAP1 PUSH2 0x171 SWAP2 SWAP1 PUSH2 0x1B4F JUMP JUMPDEST PUSH2 0x66E JUMP JUMPDEST PUSH1 0x40 MLOAD PUSH2 0x186 SWAP5 SWAP4 SWAP3 SWAP2 SWAP1 PUSH2 0x1B98 JUMP JUMPDEST PUSH1 0x40 MLOAD DUP1 SWAP2 SUB SWAP1 RETURN JUMPDEST PUSH2 0x1A9 PUSH1 0x4 DUP1 CALLDATASIZE SUB DUP2 ADD SWAP1 PUSH2 0x1A4 SWAP2 SWAP1 PUSH2 0x1B4F JUMP JUMPDEST PUSH2 0x85B JUMP JUMPDEST PUSH1 0x40 MLOAD PUSH2 0x1B6 SWAP2 SWAP1 PUSH2 0x1DBA JUMP JUMPDEST PUSH1 0x40 MLOAD DUP1 SWAP2 SUB SWAP1 RETURN JUMPDEST PUSH2 0x1D9 PUSH1 0x4 DUP1 CALLDATASIZE SUB DUP2 ADD SWAP1 PUSH2 0x1D4 SWAP2 SWAP1 PUSH2 0x1B4F JUMP JUMPDEST PUSH2 0xB4D JUMP JUMPDEST PUSH1 0x40 MLOAD PUSH2 0x1E7 SWAP3 SWAP2 SWAP1 PUSH2 0x1E9E JUMP JUMPDEST PUSH1 0x40 MLOAD DUP1 SWAP2 SUB SWAP1 RETURN JUMPDEST PUSH2 0x20A PUSH1 0x4 DUP1 CALLDATASIZE SUB DUP2 ADD SWAP1 PUSH2 0x205 SWAP2 SWAP1 PUSH2 0x16BB JUMP JUMPDEST PUSH2 0xDBC JUMP JUMPDEST PUSH1 0x40 MLOAD PUSH2 0x21A SWAP5 SWAP4 SWAP3 SWAP2 SWAP1 PUSH2 0x1ED5 JUMP JUMPDEST PUSH1 0x40 MLOAD DUP1 SWAP2 SUB SWAP1 RETURN JUMPDEST PUSH2 0x23D PUSH1 0x4 DUP1 CALLDATASIZE SUB DUP2 ADD SWAP1 PUSH2 0x238 SWAP2 SWAP1 PUSH2 0x1B4F JUMP JUMPDEST PUSH2 0xEAF JUMP JUMPDEST PUSH1 0x40 MLOAD PUSH2 0x24C SWAP4 SWAP3 SWAP2 SWAP1 PUSH2 0x1F21 JUMP JUMPDEST PUSH1 0x40 MLOAD DUP1 SWAP2 SUB SWAP1 RETURN JUMPDEST PUSH2 0x26F PUSH1 0x4 DUP1 CALLDATASIZE SUB DUP2 ADD SWAP1 PUSH2 0x26A SWAP2 SWAP1 PUSH2 0x1F6D JUMP JUMPDEST PUSH2 0x118D JUMP JUMPDEST STOP JUMPDEST PUSH2 0x28B PUSH1 0x4 DUP1 CALLDATASIZE SUB DUP2 ADD SWAP1 PUSH2 0x286 SWAP2 SWAP1 PUSH2 0x2032 JUMP JUMPDEST PUSH2 0x1254 JUMP JUMPDEST STOP JUMPDEST PUSH1 0x0 DUP1 DUP9 PUSH1 0x40 MLOAD PUSH2 0x29E SWAP2 SWAP1 PUSH2 0x2133 JUMP JUMPDEST SWAP1 DUP2 MSTORE PUSH1 0x20 ADD PUSH1 0x40 MLOAD DUP1 SWAP2 SUB SWAP1 KECCAK256 SWAP1 POP DUP1 PUSH1 0x5 ADD PUSH1 0x40 MLOAD DUP1 PUSH1 0xC0 ADD PUSH1 0x40 MSTORE DUP1 DUP10 DUP2 MSTORE PUSH1 0x20 ADD DUP9 DUP2 MSTORE PUSH1 0x20 ADD DUP8 DUP2 MSTORE PUSH1 0x20 ADD DUP7 DUP2 MSTORE PUSH1 0x20 ADD DUP6 DUP2 MSTORE PUSH1 0x20 ADD DUP5 ISZERO ISZERO DUP2 MSTORE POP SWAP1 DUP1 PUSH1 0x1 DUP2 SLOAD ADD DUP1 DUP3 SSTORE DUP1 SWAP2 POP POP PUSH1 0x1 SWAP1 SUB SWAP1 PUSH1 0x0 MSTORE PUSH1 0x20 PUSH1 0x0 KECCAK256 SWAP1 PUSH1 0x6 MUL ADD PUSH1 0x0 SWAP1 SWAP2 SWAP1 SWAP2 SWAP1 SWAP2 POP PUSH1 0x0 DUP3 ADD MLOAD DUP2 PUSH1 0x0 ADD SWAP1 DUP2 PUSH2 0x31F SWAP2 SWAP1 PUSH2 0x2356 JUMP JUMPDEST POP PUSH1 0x20 DUP3 ADD MLOAD DUP2 PUSH1 0x1 ADD SWAP1 DUP2 PUSH2 0x335 SWAP2 SWAP1 PUSH2 0x2356 JUMP JUMPDEST POP PUSH1 0x40 DUP3 ADD MLOAD DUP2 PUSH1 0x2 ADD SSTORE PUSH1 0x60 DUP3 ADD MLOAD DUP2 PUSH1 0x3 ADD SWAP1 DUP2 PUSH2 0x355 SWAP2 SWAP1 PUSH2 0x2356 JUMP JUMPDEST POP PUSH1 0x80 DUP3 ADD MLOAD DUP2 PUSH1 0x4 ADD SWAP1 DUP2 PUSH2 0x36B SWAP2 SWAP1 PUSH2 0x2356 JUMP JUMPDEST POP PUSH1 0xA0 DUP3 ADD MLOAD DUP2 PUSH1 0x5 ADD PUSH1 0x0 PUSH2 0x100 EXP DUP2 SLOAD DUP2 PUSH1 0xFF MUL NOT AND SWAP1 DUP4 ISZERO ISZERO MUL OR SWAP1 SSTORE POP POP POP POP POP POP POP POP POP POP POP JUMP JUMPDEST PUSH1 0x60 PUSH1 0x0 DUP1 PUSH1 0x0 DUP1 PUSH1 0x0 DUP8 PUSH1 0x40 MLOAD PUSH2 0x3B0 SWAP2 SWAP1 PUSH2 0x2133 JUMP JUMPDEST SWAP1 DUP2 MSTORE PUSH1 0x20 ADD PUSH1 0x40 MLOAD DUP1 SWAP2 SUB SWAP1 KECCAK256 SWAP1 POP PUSH1 0x0 DUP2 PUSH1 0x7 ADD PUSH1 0x0 DUP9 DUP2 MSTORE PUSH1 0x20 ADD SWAP1 DUP2 MSTORE PUSH1 0x20 ADD PUSH1 0x0 KECCAK256 SWAP1 POP DUP1 PUSH1 0x0 ADD DUP2 PUSH1 0x1 ADD PUSH1 0x0 SWAP1 SLOAD SWAP1 PUSH2 0x100 EXP SWAP1 DIV PUSH1 0xFF AND DUP3 PUSH1 0x1 ADD PUSH1 0x1 SWAP1 SLOAD SWAP1 PUSH2 0x100 EXP SWAP1 DIV PUSH1 0xFF AND DUP4 PUSH1 0x2 ADD SLOAD DUP4 DUP1 SLOAD PUSH2 0x412 SWAP1 PUSH2 0x2179 JUMP JUMPDEST DUP1 PUSH1 0x1F ADD PUSH1 0x20 DUP1 SWAP2 DIV MUL PUSH1 0x20 ADD PUSH1 0x40 MLOAD SWAP1 DUP2 ADD PUSH1 0x40 MSTORE DUP1 SWAP3 SWAP2 SWAP1 DUP2 DUP2 MSTORE PUSH1 0x20 ADD DUP3 DUP1 SLOAD PUSH2 0x43E SWAP1 PUSH2 0x2179 JUMP JUMPDEST DUP1 ISZERO PUSH2 0x48B JUMPI DUP1 PUSH1 0x1F LT PUSH2 0x460 JUMPI PUSH2 0x100 DUP1 DUP4 SLOAD DIV MUL DUP4 MSTORE SWAP2 PUSH1 0x20 ADD SWAP2 PUSH2 0x48B JUMP JUMPDEST DUP3 ADD SWAP2 SWAP1 PUSH1 0x0 MSTORE PUSH1 0x20 PUSH1 0x0 KECCAK256 SWAP1 JUMPDEST DUP2 SLOAD DUP2 MSTORE SWAP1 PUSH1 0x1 ADD SWAP1 PUSH1 0x20 ADD DUP1 DUP4 GT PUSH2 0x46E JUMPI DUP3 SWAP1 SUB PUSH1 0x1F AND DUP3 ADD SWAP2 JUMPDEST POP POP POP POP POP SWAP4 POP SWAP6 POP SWAP6 POP SWAP6 POP SWAP6 POP POP POP SWAP3 SWAP6 SWAP2 SWAP5 POP SWAP3 POP JUMP JUMPDEST PUSH1 0x0 DUP1 DUP7 PUSH1 0x40 MLOAD PUSH2 0x4B6 SWAP2 SWAP1 PUSH2 0x2133 JUMP JUMPDEST SWAP1 DUP2 MSTORE PUSH1 0x20 ADD PUSH1 0x40 MLOAD DUP1 SWAP2 SUB SWAP1 KECCAK256 SWAP1 POP DUP5 DUP2 PUSH1 0x0 ADD SWAP1 DUP2 PUSH2 0x4D7 SWAP2 SWAP1 PUSH2 0x2356 JUMP JUMPDEST POP DUP4 DUP2 PUSH1 0x1 ADD DUP2 SWAP1 SSTORE POP DUP3 DUP2 PUSH1 0x2 ADD SWAP1 DUP2 PUSH2 0x4F2 SWAP2 SWAP1 PUSH2 0x2356 JUMP JUMPDEST POP DUP2 DUP2 PUSH1 0x3 ADD SWAP1 DUP2 PUSH2 0x504 SWAP2 SWAP1 PUSH2 0x2356 JUMP JUMPDEST POP POP POP POP POP POP POP JUMP JUMPDEST PUSH1 0x0 DUP1 DUP5 PUSH1 0x40 MLOAD PUSH2 0x51E SWAP2 SWAP1 PUSH2 0x2133 JUMP JUMPDEST SWAP1 DUP2 MSTORE PUSH1 0x20 ADD PUSH1 0x40 MLOAD DUP1 SWAP2 SUB SWAP1 KECCAK256 SWAP1 POP PUSH1 0x0 DUP2 PUSH1 0x9 ADD SLOAD SWAP1 POP PUSH1 0x40 MLOAD DUP1 PUSH1 0x40 ADD PUSH1 0x40 MSTORE DUP1 DUP6 DUP2 MSTORE PUSH1 0x20 ADD DUP5 DUP2 MSTORE POP DUP3 PUSH1 0x8 ADD PUSH1 0x0 DUP4 DUP2 MSTORE PUSH1 0x20 ADD SWAP1 DUP2 MSTORE PUSH1 0x20 ADD PUSH1 0x0 KECCAK256 PUSH1 0x0 DUP3 ADD MLOAD DUP2 PUSH1 0x0 ADD SWAP1 DUP2 PUSH2 0x576 SWAP2 SWAP1 PUSH2 0x2356 JUMP JUMPDEST POP PUSH1 0x20 DUP3 ADD MLOAD DUP2 PUSH1 0x1 ADD SWAP1 DUP2 PUSH2 0x58C SWAP2 SWAP1 PUSH2 0x2356 JUMP JUMPDEST POP SWAP1 POP POP DUP2 PUSH1 0x9 ADD PUSH1 0x0 DUP2 SLOAD DUP1 SWAP3 SWAP2 SWAP1 PUSH2 0x5A5 SWAP1 PUSH2 0x2457 JUMP JUMPDEST SWAP2 SWAP1 POP SSTORE POP POP POP POP POP POP JUMP JUMPDEST PUSH1 0x0 DUP1 DUP6 PUSH1 0x40 MLOAD PUSH2 0x5C2 SWAP2 SWAP1 PUSH2 0x2133 JUMP JUMPDEST SWAP1 DUP2 MSTORE PUSH1 0x20 ADD PUSH1 0x40 MLOAD DUP1 SWAP2 SUB SWAP1 KECCAK256 SWAP1 POP PUSH1 0x40 MLOAD DUP1 PUSH1 0x60 ADD PUSH1 0x40 MSTORE DUP1 DUP6 DUP2 MSTORE PUSH1 0x20 ADD DUP5 DUP2 MSTORE PUSH1 0x20 ADD DUP4 DUP2 MSTORE POP DUP2 PUSH1 0x4 ADD DUP7 PUSH1 0x40 MLOAD PUSH2 0x5FF SWAP2 SWAP1 PUSH2 0x2133 JUMP JUMPDEST SWAP1 DUP2 MSTORE PUSH1 0x20 ADD PUSH1 0x40 MLOAD DUP1 SWAP2 SUB SWAP1 KECCAK256 PUSH1 0x0 DUP3 ADD MLOAD DUP2 PUSH1 0x0 ADD SWAP1 DUP1 MLOAD SWAP1 PUSH1 0x20 ADD SWAP1 PUSH2 0x629 SWAP3 SWAP2 SWAP1 PUSH2 0x12EB JUMP JUMPDEST POP PUSH1 0x20 DUP3 ADD MLOAD DUP2 PUSH1 0x1 ADD SWAP1 DUP1 MLOAD SWAP1 PUSH1 0x20 ADD SWAP1 PUSH2 0x646 SWAP3 SWAP2 SWAP1 PUSH2 0x12EB JUMP JUMPDEST POP PUSH1 0x40 DUP3 ADD MLOAD DUP2 PUSH1 0x2 ADD SWAP1 DUP1 MLOAD SWAP1 PUSH1 0x20 ADD SWAP1 PUSH2 0x663 SWAP3 SWAP2 SWAP1 PUSH2 0x12EB JUMP JUMPDEST POP SWAP1 POP POP POP POP POP POP POP JUMP JUMPDEST PUSH1 0x60 PUSH1 0x0 PUSH1 0x60 DUP1 PUSH1 0x0 DUP1 DUP7 PUSH1 0x40 MLOAD PUSH2 0x686 SWAP2 SWAP1 PUSH2 0x2133 JUMP JUMPDEST SWAP1 DUP2 MSTORE PUSH1 0x20 ADD PUSH1 0x40 MLOAD DUP1 SWAP2 SUB SWAP1 KECCAK256 SWAP1 POP DUP1 PUSH1 0x0 ADD DUP2 PUSH1 0x1 ADD SLOAD DUP3 PUSH1 0x2 ADD DUP4 PUSH1 0x3 ADD DUP4 DUP1 SLOAD PUSH2 0x6B3 SWAP1 PUSH2 0x2179 JUMP JUMPDEST DUP1 PUSH1 0x1F ADD PUSH1 0x20 DUP1 SWAP2 DIV MUL PUSH1 0x20 ADD PUSH1 0x40 MLOAD SWAP1 DUP2 ADD PUSH1 0x40 MSTORE DUP1 SWAP3 SWAP2 SWAP1 DUP2 DUP2 MSTORE PUSH1 0x20 ADD DUP3 DUP1 SLOAD PUSH2 0x6DF SWAP1 PUSH2 0x2179 JUMP JUMPDEST DUP1 ISZERO PUSH2 0x72C JUMPI DUP1 PUSH1 0x1F LT PUSH2 0x701 JUMPI PUSH2 0x100 DUP1 DUP4 SLOAD DIV MUL DUP4 MSTORE SWAP2 PUSH1 0x20 ADD SWAP2 PUSH2 0x72C JUMP JUMPDEST DUP3 ADD SWAP2 SWAP1 PUSH1 0x0 MSTORE PUSH1 0x20 PUSH1 0x0 KECCAK256 SWAP1 JUMPDEST DUP2 SLOAD DUP2 MSTORE SWAP1 PUSH1 0x1 ADD SWAP1 PUSH1 0x20 ADD DUP1 DUP4 GT PUSH2 0x70F JUMPI DUP3 SWAP1 SUB PUSH1 0x1F AND DUP3 ADD SWAP2 JUMPDEST POP POP POP POP POP SWAP4 POP DUP2 DUP1 SLOAD PUSH2 0x73F SWAP1 PUSH2 0x2179 JUMP JUMPDEST DUP1 PUSH1 0x1F ADD PUSH1 0x20 DUP1 SWAP2 DIV MUL PUSH1 0x20 ADD PUSH1 0x40 MLOAD SWAP1 DUP2 ADD PUSH1 0x40 MSTORE DUP1 SWAP3 SWAP2 SWAP1 DUP2 DUP2 MSTORE PUSH1 0x20 ADD DUP3 DUP1 SLOAD PUSH2 0x76B SWAP1 PUSH2 0x2179 JUMP JUMPDEST DUP1 ISZERO PUSH2 0x7B8 JUMPI DUP1 PUSH1 0x1F LT PUSH2 0x78D JUMPI PUSH2 0x100 DUP1 DUP4 SLOAD DIV MUL DUP4 MSTORE SWAP2 PUSH1 0x20 ADD SWAP2 PUSH2 0x7B8 JUMP JUMPDEST DUP3 ADD SWAP2 SWAP1 PUSH1 0x0 MSTORE PUSH1 0x20 PUSH1 0x0 KECCAK256 SWAP1 JUMPDEST DUP2 SLOAD DUP2 MSTORE SWAP1 PUSH1 0x1 ADD SWAP1 PUSH1 0x20 ADD DUP1 DUP4 GT PUSH2 0x79B JUMPI DUP3 SWAP1 SUB PUSH1 0x1F AND DUP3 ADD SWAP2 JUMPDEST POP POP POP POP POP SWAP2 POP DUP1 DUP1 SLOAD PUSH2 0x7CB SWAP1 PUSH2 0x2179 JUMP JUMPDEST DUP1 PUSH1 0x1F ADD PUSH1 0x20 DUP1 SWAP2 DIV MUL PUSH1 0x20 ADD PUSH1 0x40 MLOAD SWAP1 DUP2 ADD PUSH1 0x40 MSTORE DUP1 SWAP3 SWAP2 SWAP1 DUP2 DUP2 MSTORE PUSH1 0x20 ADD DUP3 DUP1 SLOAD PUSH2 0x7F7 SWAP1 PUSH2 0x2179 JUMP JUMPDEST DUP1 ISZERO PUSH2 0x844 JUMPI DUP1 PUSH1 0x1F LT PUSH2 0x819 JUMPI PUSH2 0x100 DUP1 DUP4 SLOAD DIV MUL DUP4 MSTORE SWAP2 PUSH1 0x20 ADD SWAP2 PUSH2 0x844 JUMP JUMPDEST DUP3 ADD SWAP2 SWAP1 PUSH1 0x0 MSTORE PUSH1 0x20 PUSH1 0x0 KECCAK256 SWAP1 JUMPDEST DUP2 SLOAD DUP2 MSTORE SWAP1 PUSH1 0x1 ADD SWAP1 PUSH1 0x20 ADD DUP1 DUP4 GT PUSH2 0x827 JUMPI DUP3 SWAP1 SUB PUSH1 0x1F AND DUP3 ADD SWAP2 JUMPDEST POP POP POP POP POP SWAP1 POP SWAP5 POP SWAP5 POP SWAP5 POP SWAP5 POP POP SWAP2 SWAP4 POP SWAP2 SWAP4 JUMP JUMPDEST PUSH1 0x60 PUSH1 0x0 DUP1 DUP4 PUSH1 0x40 MLOAD PUSH2 0x86E SWAP2 SWAP1 PUSH2 0x2133 JUMP JUMPDEST SWAP1 DUP2 MSTORE PUSH1 0x20 ADD PUSH1 0x40 MLOAD DUP1 SWAP2 SUB SWAP1 KECCAK256 SWAP1 POP DUP1 PUSH1 0x5 ADD DUP1 SLOAD DUP1 PUSH1 0x20 MUL PUSH1 0x20 ADD PUSH1 0x40 MLOAD SWAP1 DUP2 ADD PUSH1 0x40 MSTORE DUP1 SWAP3 SWAP2 SWAP1 DUP2 DUP2 MSTORE PUSH1 0x20 ADD PUSH1 0x0 SWAP1 JUMPDEST DUP3 DUP3 LT ISZERO PUSH2 0xB41 JUMPI DUP4 DUP3 SWAP1 PUSH1 0x0 MSTORE PUSH1 0x20 PUSH1 0x0 KECCAK256 SWAP1 PUSH1 0x6 MUL ADD PUSH1 0x40 MLOAD DUP1 PUSH1 0xC0 ADD PUSH1 0x40 MSTORE SWAP1 DUP2 PUSH1 0x0 DUP3 ADD DUP1 SLOAD PUSH2 0x8D5 SWAP1 PUSH2 0x2179 JUMP JUMPDEST DUP1 PUSH1 0x1F ADD PUSH1 0x20 DUP1 SWAP2 DIV MUL PUSH1 0x20 ADD PUSH1 0x40 MLOAD SWAP1 DUP2 ADD PUSH1 0x40 MSTORE DUP1 SWAP3 SWAP2 SWAP1 DUP2 DUP2 MSTORE PUSH1 0x20 ADD DUP3 DUP1 SLOAD PUSH2 0x901 SWAP1 PUSH2 0x2179 JUMP JUMPDEST DUP1 ISZERO PUSH2 0x94E JUMPI DUP1 PUSH1 0x1F LT PUSH2 0x923 JUMPI PUSH2 0x100 DUP1 DUP4 SLOAD DIV MUL DUP4 MSTORE SWAP2 PUSH1 0x20 ADD SWAP2 PUSH2 0x94E JUMP JUMPDEST DUP3 ADD SWAP2 SWAP1 PUSH1 0x0 MSTORE PUSH1 0x20 PUSH1 0x0 KECCAK256 SWAP1 JUMPDEST DUP2 SLOAD DUP2 MSTORE SWAP1 PUSH1 0x1 ADD SWAP1 PUSH1 0x20 ADD DUP1 DUP4 GT PUSH2 0x931 JUMPI DUP3 SWAP1 SUB PUSH1 0x1F AND DUP3 ADD SWAP2 JUMPDEST POP POP POP POP POP DUP2 MSTORE PUSH1 0x20 ADD PUSH1 0x1 DUP3 ADD DUP1 SLOAD PUSH2 0x967 SWAP1 PUSH2 0x2179 JUMP JUMPDEST DUP1 PUSH1 0x1F ADD PUSH1 0x20 DUP1 SWAP2 DIV MUL PUSH1 0x20 ADD PUSH1 0x40 MLOAD SWAP1 DUP2 ADD PUSH1 0x40 MSTORE DUP1 SWAP3 SWAP2 SWAP1 DUP2 DUP2 MSTORE PUSH1 0x20 ADD DUP3 DUP1 SLOAD PUSH2 0x993 SWAP1 PUSH2 0x2179 JUMP JUMPDEST DUP1 ISZERO PUSH2 0x9E0 JUMPI DUP1 PUSH1 0x1F LT PUSH2 0x9B5 JUMPI PUSH2 0x100 DUP1 DUP4 SLOAD DIV MUL DUP4 MSTORE SWAP2 PUSH1 0x20 ADD SWAP2 PUSH2 0x9E0 JUMP JUMPDEST DUP3 ADD SWAP2 SWAP1 PUSH1 0x0 MSTORE PUSH1 0x20 PUSH1 0x0 KECCAK256 SWAP1 JUMPDEST DUP2 SLOAD DUP2 MSTORE SWAP1 PUSH1 0x1 ADD SWAP1 PUSH1 0x20 ADD DUP1 DUP4 GT PUSH2 0x9C3 JUMPI DUP3 SWAP1 SUB PUSH1 0x1F AND DUP3 ADD SWAP2 JUMPDEST POP POP POP POP POP DUP2 MSTORE PUSH1 0x20 ADD PUSH1 0x2 DUP3 ADD SLOAD DUP2 MSTORE PUSH1 0x20 ADD PUSH1 0x3 DUP3 ADD DUP1 SLOAD PUSH2 0xA03 SWAP1 PUSH2 0x2179 JUMP JUMPDEST DUP1 PUSH1 0x1F ADD PUSH1 0x20 DUP1 SWAP2 DIV MUL PUSH1 0x20 ADD PUSH1 0x40 MLOAD SWAP1 DUP2 ADD PUSH1 0x40 MSTORE DUP1 SWAP3 SWAP2 SWAP1 DUP2 DUP2 MSTORE PUSH1 0x20 ADD DUP3 DUP1 SLOAD PUSH2 0xA2F SWAP1 PUSH2 0x2179 JUMP JUMPDEST DUP1 ISZERO PUSH2 0xA7C JUMPI DUP1 PUSH1 0x1F LT PUSH2 0xA51 JUMPI PUSH2 0x100 DUP1 DUP4 SLOAD DIV MUL DUP4 MSTORE SWAP2 PUSH1 0x20 ADD SWAP2 PUSH2 0xA7C JUMP JUMPDEST DUP3 ADD SWAP2 SWAP1 PUSH1 0x0 MSTORE PUSH1 0x20 PUSH1 0x0 KECCAK256 SWAP1 JUMPDEST DUP2 SLOAD DUP2 MSTORE SWAP1 PUSH1 0x1 ADD SWAP1 PUSH1 0x20 ADD DUP1 DUP4 GT PUSH2 0xA5F JUMPI DUP3 SWAP1 SUB PUSH1 0x1F AND DUP3 ADD SWAP2 JUMPDEST POP POP POP POP POP DUP2 MSTORE PUSH1 0x20 ADD PUSH1 0x4 DUP3 ADD DUP1 SLOAD PUSH2 0xA95 SWAP1 PUSH2 0x2179 JUMP JUMPDEST DUP1 PUSH1 0x1F ADD PUSH1 0x20 DUP1 SWAP2 DIV MUL PUSH1 0x20 ADD PUSH1 0x40 MLOAD SWAP1 DUP2 ADD PUSH1 0x40 MSTORE DUP1 SWAP3 SWAP2 SWAP1 DUP2 DUP2 MSTORE PUSH1 0x20 ADD DUP3 DUP1 SLOAD PUSH2 0xAC1 SWAP1 PUSH2 0x2179 JUMP JUMPDEST DUP1 ISZERO PUSH2 0xB0E JUMPI DUP1 PUSH1 0x1F LT PUSH2 0xAE3 JUMPI PUSH2 0x100 DUP1 DUP4 SLOAD DIV MUL DUP4 MSTORE SWAP2 PUSH1 0x20 ADD SWAP2 PUSH2 0xB0E JUMP JUMPDEST DUP3 ADD SWAP2 SWAP1 PUSH1 0x0 MSTORE PUSH1 0x20 PUSH1 0x0 KECCAK256 SWAP1 JUMPDEST DUP2 SLOAD DUP2 MSTORE SWAP1 PUSH1 0x1 ADD SWAP1 PUSH1 0x20 ADD DUP1 DUP4 GT PUSH2 0xAF1 JUMPI DUP3 SWAP1 SUB PUSH1 0x1F AND DUP3 ADD SWAP2 JUMPDEST POP POP POP POP POP DUP2 MSTORE PUSH1 0x20 ADD PUSH1 0x5 DUP3 ADD PUSH1 0x0 SWAP1 SLOAD SWAP1 PUSH2 0x100 EXP SWAP1 DIV PUSH1 0xFF AND ISZERO ISZERO ISZERO ISZERO DUP2 MSTORE POP POP DUP2 MSTORE PUSH1 0x20 ADD SWAP1 PUSH1 0x1 ADD SWAP1 PUSH2 0x8A2 JUMP JUMPDEST POP POP POP POP SWAP2 POP POP SWAP2 SWAP1 POP JUMP JUMPDEST PUSH1 0x60 DUP1 PUSH1 0x0 DUP1 DUP5 PUSH1 0x40 MLOAD PUSH2 0xB61 SWAP2 SWAP1 PUSH2 0x2133 JUMP JUMPDEST SWAP1 DUP2 MSTORE PUSH1 0x20 ADD PUSH1 0x40 MLOAD DUP1 SWAP2 SUB SWAP1 KECCAK256 SWAP1 POP PUSH1 0x0 DUP2 PUSH1 0x9 ADD SLOAD SWAP1 POP PUSH1 0x0 DUP2 PUSH8 0xFFFFFFFFFFFFFFFF DUP2 GT ISZERO PUSH2 0xB96 JUMPI PUSH2 0xB95 PUSH2 0x13F4 JUMP JUMPDEST JUMPDEST PUSH1 0x40 MLOAD SWAP1 DUP1 DUP3 MSTORE DUP1 PUSH1 0x20 MUL PUSH1 0x20 ADD DUP3 ADD PUSH1 0x40 MSTORE DUP1 ISZERO PUSH2 0xBC9 JUMPI DUP2 PUSH1 0x20 ADD JUMPDEST PUSH1 0x60 DUP2 MSTORE PUSH1 0x20 ADD SWAP1 PUSH1 0x1 SWAP1 SUB SWAP1 DUP2 PUSH2 0xBB4 JUMPI SWAP1 POP JUMPDEST POP SWAP1 POP PUSH1 0x0 DUP3 PUSH8 0xFFFFFFFFFFFFFFFF DUP2 GT ISZERO PUSH2 0xBE8 JUMPI PUSH2 0xBE7 PUSH2 0x13F4 JUMP JUMPDEST JUMPDEST PUSH1 0x40 MLOAD SWAP1 DUP1 DUP3 MSTORE DUP1 PUSH1 0x20 MUL PUSH1 0x20 ADD DUP3 ADD PUSH1 0x40 MSTORE DUP1 ISZERO PUSH2 0xC1B JUMPI DUP2 PUSH1 0x20 ADD JUMPDEST PUSH1 0x60 DUP2 MSTORE PUSH1 0x20 ADD SWAP1 PUSH1 0x1 SWAP1 SUB SWAP1 DUP2 PUSH2 0xC06 JUMPI SWAP1 POP JUMPDEST POP SWAP1 POP PUSH1 0x0 JUMPDEST DUP4 DUP2 LT ISZERO PUSH2 0xDAC JUMPI PUSH1 0x0 DUP6 PUSH1 0x8 ADD PUSH1 0x0 DUP4 DUP2 MSTORE PUSH1 0x20 ADD SWAP1 DUP2 MSTORE PUSH1 0x20 ADD PUSH1 0x0 KECCAK256 SWAP1 POP DUP1 PUSH1 0x0 ADD DUP1 SLOAD PUSH2 0xC51 SWAP1 PUSH2 0x2179 JUMP JUMPDEST DUP1 PUSH1 0x1F ADD PUSH1 0x20 DUP1 SWAP2 DIV MUL PUSH1 0x20 ADD PUSH1 0x40 MLOAD SWAP1 DUP2 ADD PUSH1 0x40 MSTORE DUP1 SWAP3 SWAP2 SWAP1 DUP2 DUP2 MSTORE PUSH1 0x20 ADD DUP3 DUP1 SLOAD PUSH2 0xC7D SWAP1 PUSH2 0x2179 JUMP JUMPDEST DUP1 ISZERO PUSH2 0xCCA JUMPI DUP1 PUSH1 0x1F LT PUSH2 0xC9F JUMPI PUSH2 0x100 DUP1 DUP4 SLOAD DIV MUL DUP4 MSTORE SWAP2 PUSH1 0x20 ADD SWAP2 PUSH2 0xCCA JUMP JUMPDEST DUP3 ADD SWAP2 SWAP1 PUSH1 0x0 MSTORE PUSH1 0x20 PUSH1 0x0 KECCAK256 SWAP1 JUMPDEST DUP2 SLOAD DUP2 MSTORE SWAP1 PUSH1 0x1 ADD SWAP1 PUSH1 0x20 ADD DUP1 DUP4 GT PUSH2 0xCAD JUMPI DUP3 SWAP1 SUB PUSH1 0x1F AND DUP3 ADD SWAP2 JUMPDEST POP POP POP POP POP DUP5 DUP4 DUP2 MLOAD DUP2 LT PUSH2 0xCE2 JUMPI PUSH2 0xCE1 PUSH2 0x249F JUMP JUMPDEST JUMPDEST PUSH1 0x20 MUL PUSH1 0x20 ADD ADD DUP2 SWAP1 MSTORE POP DUP1 PUSH1 0x1 ADD DUP1 SLOAD PUSH2 0xCFC SWAP1 PUSH2 0x2179 JUMP JUMPDEST DUP1 PUSH1 0x1F ADD PUSH1 0x20 DUP1 SWAP2 DIV MUL PUSH1 0x20 ADD PUSH1 0x40 MLOAD SWAP1 DUP2 ADD PUSH1 0x40 MSTORE DUP1 SWAP3 SWAP2 SWAP1 DUP2 DUP2 MSTORE PUSH1 0x20 ADD DUP3 DUP1 SLOAD PUSH2 0xD28 SWAP1 PUSH2 0x2179 JUMP JUMPDEST DUP1 ISZERO PUSH2 0xD75 JUMPI DUP1 PUSH1 0x1F LT PUSH2 0xD4A JUMPI PUSH2 0x100 DUP1 DUP4 SLOAD DIV MUL DUP4 MSTORE SWAP2 PUSH1 0x20 ADD SWAP2 PUSH2 0xD75 JUMP JUMPDEST DUP3 ADD SWAP2 SWAP1 PUSH1 0x0 MSTORE PUSH1 0x20 PUSH1 0x0 KECCAK256 SWAP1 JUMPDEST DUP2 SLOAD DUP2 MSTORE SWAP1 PUSH1 0x1 ADD SWAP1 PUSH1 0x20 ADD DUP1 DUP4 GT PUSH2 0xD58 JUMPI DUP3 SWAP1 SUB PUSH1 0x1F AND DUP3 ADD SWAP2 JUMPDEST POP POP POP POP POP DUP4 DUP4 DUP2 MLOAD DUP2 LT PUSH2 0xD8D JUMPI PUSH2 0xD8C PUSH2 0x249F JUMP JUMPDEST JUMPDEST PUSH1 0x20 MUL PUSH1 0x20 ADD ADD DUP2 SWAP1 MSTORE POP POP DUP1 DUP1 PUSH2 0xDA4 SWAP1 PUSH2 0x2457 JUMP JUMPDEST SWAP2 POP POP PUSH2 0xC21 JUMP JUMPDEST POP DUP2 DUP2 SWAP6 POP SWAP6 POP POP POP POP POP SWAP2 POP SWAP2 JUMP JUMPDEST PUSH1 0x60 PUSH1 0x0 DUP1 PUSH1 0x0 DUP1 PUSH1 0x0 DUP8 PUSH1 0x40 MLOAD PUSH2 0xDD4 SWAP2 SWAP1 PUSH2 0x2133 JUMP JUMPDEST SWAP1 DUP2 MSTORE PUSH1 0x20 ADD PUSH1 0x40 MLOAD DUP1 SWAP2 SUB SWAP1 KECCAK256 SWAP1 POP PUSH1 0x0 DUP2 PUSH1 0x6 ADD PUSH1 0x0 DUP9 DUP2 MSTORE PUSH1 0x20 ADD SWAP1 DUP2 MSTORE PUSH1 0x20 ADD PUSH1 0x0 KECCAK256 SWAP1 POP DUP1 PUSH1 0x0 ADD DUP2 PUSH1 0x1 ADD SLOAD DUP3 PUSH1 0x2 ADD SLOAD DUP4 PUSH1 0x3 ADD SLOAD DUP4 DUP1 SLOAD PUSH2 0xE1C SWAP1 PUSH2 0x2179 JUMP JUMPDEST DUP1 PUSH1 0x1F ADD PUSH1 0x20 DUP1 SWAP2 DIV MUL PUSH1 0x20 ADD PUSH1 0x40 MLOAD SWAP1 DUP2 ADD PUSH1 0x40 MSTORE DUP1 SWAP3 SWAP2 SWAP1 DUP2 DUP2 MSTORE PUSH1 0x20 ADD DUP3 DUP1 SLOAD PUSH2 0xE48 SWAP1 PUSH2 0x2179 JUMP JUMPDEST DUP1 ISZERO PUSH2 0xE95 JUMPI DUP1 PUSH1 0x1F LT PUSH2 0xE6A JUMPI PUSH2 0x100 DUP1 DUP4 SLOAD DIV MUL DUP4 MSTORE SWAP2 PUSH1 0x20 ADD SWAP2 PUSH2 0xE95 JUMP JUMPDEST DUP3 ADD SWAP2 SWAP1 PUSH1 0x0 MSTORE PUSH1 0x20 PUSH1 0x0 KECCAK256 SWAP1 JUMPDEST DUP2 SLOAD DUP2 MSTORE SWAP1 PUSH1 0x1 ADD SWAP1 PUSH1 0x20 ADD DUP1 DUP4 GT PUSH2 0xE78 JUMPI DUP3 SWAP1 SUB PUSH1 0x1F AND DUP3 ADD SWAP2 JUMPDEST POP POP POP POP POP SWAP4 POP SWAP6 POP SWAP6 POP SWAP6 POP SWAP6 POP POP POP SWAP3 SWAP6 SWAP2 SWAP5 POP SWAP3 POP JUMP JUMPDEST PUSH1 0x60 DUP1 PUSH1 0x60 PUSH1 0x0 DUP1 DUP6 PUSH1 0x40 MLOAD PUSH2 0xEC5 SWAP2 SWAP1 PUSH2 0x2133 JUMP JUMPDEST SWAP1 DUP2 MSTORE PUSH1 0x20 ADD PUSH1 0x40 MLOAD DUP1 SWAP2 SUB SWAP1 KECCAK256 SWAP1 POP PUSH1 0x0 DUP2 PUSH1 0x4 ADD DUP7 PUSH1 0x40 MLOAD PUSH2 0xEE9 SWAP2 SWAP1 PUSH2 0x2133 JUMP JUMPDEST SWAP1 DUP2 MSTORE PUSH1 0x20 ADD PUSH1 0x40 MLOAD DUP1 SWAP2 SUB SWAP1 KECCAK256 SWAP1 POP DUP1 PUSH1 0x0 ADD DUP2 PUSH1 0x1 ADD DUP3 PUSH1 0x2 ADD DUP3 DUP1 SLOAD DUP1 PUSH1 0x20 MUL PUSH1 0x20 ADD PUSH1 0x40 MLOAD SWAP1 DUP2 ADD PUSH1 0x40 MSTORE DUP1 SWAP3 SWAP2 SWAP1 DUP2 DUP2 MSTORE PUSH1 0x20 ADD PUSH1 0x0 SWAP1 JUMPDEST DUP3 DUP3 LT ISZERO PUSH2 0xFD2 JUMPI DUP4 DUP3 SWAP1 PUSH1 0x0 MSTORE PUSH1 0x20 PUSH1 0x0 KECCAK256 ADD DUP1 SLOAD PUSH2 0xF45 SWAP1 PUSH2 0x2179 JUMP JUMPDEST DUP1 PUSH1 0x1F ADD PUSH1 0x20 DUP1 SWAP2 DIV MUL PUSH1 0x20 ADD PUSH1 0x40 MLOAD SWAP1 DUP2 ADD PUSH1 0x40 MSTORE DUP1 SWAP3 SWAP2 SWAP1 DUP2 DUP2 MSTORE PUSH1 0x20 ADD DUP3 DUP1 SLOAD PUSH2 0xF71 SWAP1 PUSH2 0x2179 JUMP JUMPDEST DUP1 ISZERO PUSH2 0xFBE JUMPI DUP1 PUSH1 0x1F LT PUSH2 0xF93 JUMPI PUSH2 0x100 DUP1 DUP4 SLOAD DIV MUL DUP4 MSTORE SWAP2 PUSH1 0x20 ADD SWAP2 PUSH2 0xFBE JUMP JUMPDEST DUP3 ADD SWAP2 SWAP1 PUSH1 0x0 MSTORE PUSH1 0x20 PUSH1 0x0 KECCAK256 SWAP1 JUMPDEST DUP2 SLOAD DUP2 MSTORE SWAP1 PUSH1 0x1 ADD SWAP1 PUSH1 0x20 ADD DUP1 DUP4 GT PUSH2 0xFA1 JUMPI DUP3 SWAP1 SUB PUSH1 0x1F AND DUP3 ADD SWAP2 JUMPDEST POP POP POP POP POP DUP2 MSTORE PUSH1 0x20 ADD SWAP1 PUSH1 0x1 ADD SWAP1 PUSH2 0xF26 JUMP JUMPDEST POP POP POP POP SWAP3 POP DUP2 DUP1 SLOAD DUP1 PUSH1 0x20 MUL PUSH1 0x20 ADD PUSH1 0x40 MLOAD SWAP1 DUP2 ADD PUSH1 0x40 MSTORE DUP1 SWAP3 SWAP2 SWAP1 DUP2 DUP2 MSTORE PUSH1 0x20 ADD PUSH1 0x0 SWAP1 JUMPDEST DUP3 DUP3 LT ISZERO PUSH2 0x10A5 JUMPI DUP4 DUP3 SWAP1 PUSH1 0x0 MSTORE PUSH1 0x20 PUSH1 0x0 KECCAK256 ADD DUP1 SLOAD PUSH2 0x1018 SWAP1 PUSH2 0x2179 JUMP JUMPDEST DUP1 PUSH1 0x1F ADD PUSH1 0x20 DUP1 SWAP2 DIV MUL PUSH1 0x20 ADD PUSH1 0x40 MLOAD SWAP1 DUP2 ADD PUSH1 0x40 MSTORE DUP1 SWAP3 SWAP2 SWAP1 DUP2 DUP2 MSTORE PUSH1 0x20 ADD DUP3 DUP1 SLOAD PUSH2 0x1044 SWAP1 PUSH2 0x2179 JUMP JUMPDEST DUP1 ISZERO PUSH2 0x1091 JUMPI DUP1 PUSH1 0x1F LT PUSH2 0x1066 JUMPI PUSH2 0x100 DUP1 DUP4 SLOAD DIV MUL DUP4 MSTORE SWAP2 PUSH1 0x20 ADD SWAP2 PUSH2 0x1091 JUMP JUMPDEST DUP3 ADD SWAP2 SWAP1 PUSH1 0x0 MSTORE PUSH1 0x20 PUSH1 0x0 KECCAK256 SWAP1 JUMPDEST DUP2 SLOAD DUP2 MSTORE SWAP1 PUSH1 0x1 ADD SWAP1 PUSH1 0x20 ADD DUP1 DUP4 GT PUSH2 0x1074 JUMPI DUP3 SWAP1 SUB PUSH1 0x1F AND DUP3 ADD SWAP2 JUMPDEST POP POP POP POP POP DUP2 MSTORE PUSH1 0x20 ADD SWAP1 PUSH1 0x1 ADD SWAP1 PUSH2 0xFF9 JUMP JUMPDEST POP POP POP POP SWAP2 POP DUP1 DUP1 SLOAD DUP1 PUSH1 0x20 MUL PUSH1 0x20 ADD PUSH1 0x40 MLOAD SWAP1 DUP2 ADD PUSH1 0x40 MSTORE DUP1 SWAP3 SWAP2 SWAP1 DUP2 DUP2 MSTORE PUSH1 0x20 ADD PUSH1 0x0 SWAP1 JUMPDEST DUP3 DUP3 LT ISZERO PUSH2 0x1178 JUMPI DUP4 DUP3 SWAP1 PUSH1 0x0 MSTORE PUSH1 0x20 PUSH1 0x0 KECCAK256 ADD DUP1 SLOAD PUSH2 0x10EB SWAP1 PUSH2 0x2179 JUMP JUMPDEST DUP1 PUSH1 0x1F ADD PUSH1 0x20 DUP1 SWAP2 DIV MUL PUSH1 0x20 ADD PUSH1 0x40 MLOAD SWAP1 DUP2 ADD PUSH1 0x40 MSTORE DUP1 SWAP3 SWAP2 SWAP1 DUP2 DUP2 MSTORE PUSH1 0x20 ADD DUP3 DUP1 SLOAD PUSH2 0x1117 SWAP1 PUSH2 0x2179 JUMP JUMPDEST DUP1 ISZERO PUSH2 0x1164 JUMPI DUP1 PUSH1 0x1F LT PUSH2 0x1139 JUMPI PUSH2 0x100 DUP1 DUP4 SLOAD DIV MUL DUP4 MSTORE SWAP2 PUSH1 0x20 ADD SWAP2 PUSH2 0x1164 JUMP JUMPDEST DUP3 ADD SWAP2 SWAP1 PUSH1 0x0 MSTORE PUSH1 0x20 PUSH1 0x0 KECCAK256 SWAP1 JUMPDEST DUP2 SLOAD DUP2 MSTORE SWAP1 PUSH1 0x1 ADD SWAP1 PUSH1 0x20 ADD DUP1 DUP4 GT PUSH2 0x1147 JUMPI DUP3 SWAP1 SUB PUSH1 0x1F AND DUP3 ADD SWAP2 JUMPDEST POP POP POP POP POP DUP2 MSTORE PUSH1 0x20 ADD SWAP1 PUSH1 0x1 ADD SWAP1 PUSH2 0x10CC JUMP JUMPDEST POP POP POP POP SWAP1 POP SWAP5 POP SWAP5 POP SWAP5 POP POP POP SWAP2 SWAP4 SWAP1 SWAP3 POP JUMP JUMPDEST PUSH1 0x0 DUP1 DUP8 PUSH1 0x40 MLOAD PUSH2 0x119E SWAP2 SWAP1 PUSH2 0x2133 JUMP JUMPDEST SWAP1 DUP2 MSTORE PUSH1 0x20 ADD PUSH1 0x40 MLOAD DUP1 SWAP2 SUB SWAP1 KECCAK256 SWAP1 POP PUSH1 0x40 MLOAD DUP1 PUSH1 0x80 ADD PUSH1 0x40 MSTORE DUP1 DUP7 DUP2 MSTORE PUSH1 0x20 ADD DUP6 ISZERO ISZERO DUP2 MSTORE PUSH1 0x20 ADD DUP5 ISZERO ISZERO DUP2 MSTORE PUSH1 0x20 ADD DUP4 DUP2 MSTORE POP DUP2 PUSH1 0x7 ADD PUSH1 0x0 DUP9 DUP2 MSTORE PUSH1 0x20 ADD SWAP1 DUP2 MSTORE PUSH1 0x20 ADD PUSH1 0x0 KECCAK256 PUSH1 0x0 DUP3 ADD MLOAD DUP2 PUSH1 0x0 ADD SWAP1 DUP2 PUSH2 0x11FD SWAP2 SWAP1 PUSH2 0x2356 JUMP JUMPDEST POP PUSH1 0x20 DUP3 ADD MLOAD DUP2 PUSH1 0x1 ADD PUSH1 0x0 PUSH2 0x100 EXP DUP2 SLOAD DUP2 PUSH1 0xFF MUL NOT AND SWAP1 DUP4 ISZERO ISZERO MUL OR SWAP1 SSTORE POP PUSH1 0x40 DUP3 ADD MLOAD DUP2 PUSH1 0x1 ADD PUSH1 0x1 PUSH2 0x100 EXP DUP2 SLOAD DUP2 PUSH1 0xFF MUL NOT AND SWAP1 DUP4 ISZERO ISZERO MUL OR SWAP1 SSTORE POP PUSH1 0x60 DUP3 ADD MLOAD DUP2 PUSH1 0x2 ADD SSTORE SWAP1 POP POP POP POP POP POP POP POP POP JUMP JUMPDEST PUSH1 0x0 DUP1 DUP8 PUSH1 0x40 MLOAD PUSH2 0x1265 SWAP2 SWAP1 PUSH2 0x2133 JUMP JUMPDEST SWAP1 DUP2 MSTORE PUSH1 0x20 ADD PUSH1 0x40 MLOAD DUP1 SWAP2 SUB SWAP1 KECCAK256 SWAP1 POP PUSH1 0x40 MLOAD DUP1 PUSH1 0x80 ADD PUSH1 0x40 MSTORE DUP1 DUP7 DUP2 MSTORE PUSH1 0x20 ADD DUP6 DUP2 MSTORE PUSH1 0x20 ADD DUP5 DUP2 MSTORE PUSH1 0x20 ADD DUP4 DUP2 MSTORE POP DUP2 PUSH1 0x6 ADD PUSH1 0x0 DUP9 DUP2 MSTORE PUSH1 0x20 ADD SWAP1 DUP2 MSTORE PUSH1 0x20 ADD PUSH1 0x0 KECCAK256 PUSH1 0x0 DUP3 ADD MLOAD DUP2 PUSH1 0x0 ADD SWAP1 DUP2 PUSH2 0x12C0 SWAP2 SWAP1 PUSH2 0x2356 JUMP JUMPDEST POP PUSH1 0x20 DUP3 ADD MLOAD DUP2 PUSH1 0x1 ADD SSTORE PUSH1 0x40 DUP3 ADD MLOAD DUP2 PUSH1 0x2 ADD SSTORE PUSH1 0x60 DUP3 ADD MLOAD DUP2 PUSH1 0x3 ADD SSTORE SWAP1 POP POP POP POP POP POP POP POP POP JUMP JUMPDEST DUP3 DUP1 SLOAD DUP3 DUP3 SSTORE SWAP1 PUSH1 0x0 MSTORE PUSH1 0x20 PUSH1 0x0 KECCAK256 SWAP1 DUP2 ADD SWAP3 DUP3 ISZERO PUSH2 0x1333 JUMPI SWAP2 PUSH1 0x20 MUL DUP3 ADD JUMPDEST DUP3 DUP2 GT ISZERO PUSH2 0x1332 JUMPI DUP3 MLOAD DUP3 SWAP1 DUP2 PUSH2 0x1322 SWAP2 SWAP1 PUSH2 0x2356 JUMP JUMPDEST POP SWAP2 PUSH1 0x20 ADD SWAP2 SWAP1 PUSH1 0x1 ADD SWAP1 PUSH2 0x130B JUMP JUMPDEST JUMPDEST POP SWAP1 POP PUSH2 0x1340 SWAP2 SWAP1 PUSH2 0x1344 JUMP JUMPDEST POP SWAP1 JUMP JUMPDEST JUMPDEST DUP1 DUP3 GT ISZERO PUSH2 0x1364 JUMPI PUSH1 0x0 DUP2 DUP2 PUSH2 0x135B SWAP2 SWAP1 PUSH2 0x1368 JUMP JUMPDEST POP PUSH1 0x1 ADD PUSH2 0x1345 JUMP JUMPDEST POP SWAP1 JUMP JUMPDEST POP DUP1 SLOAD PUSH2 0x1374 SWAP1 PUSH2 0x2179 JUMP JUMPDEST PUSH1 0x0 DUP3 SSTORE DUP1 PUSH1 0x1F LT PUSH2 0x1386 JUMPI POP PUSH2 0x13A5 JUMP JUMPDEST PUSH1 0x1F ADD PUSH1 0x20 SWAP1 DIV SWAP1 PUSH1 0x0 MSTORE PUSH1 0x20 PUSH1 0x0 KECCAK256 SWAP1 DUP2 ADD SWAP1 PUSH2 0x13A4 SWAP2 SWAP1 PUSH2 0x13A8 JUMP JUMPDEST JUMPDEST POP JUMP JUMPDEST JUMPDEST DUP1 DUP3 GT ISZERO PUSH2 0x13C1 JUMPI PUSH1 0x0 DUP2 PUSH1 0x0 SWAP1 SSTORE POP PUSH1 0x1 ADD PUSH2 0x13A9 JUMP JUMPDEST POP SWAP1 JUMP JUMPDEST PUSH1 0x0 PUSH1 0x40 MLOAD SWAP1 POP SWAP1 JUMP JUMPDEST PUSH1 0x0 DUP1 REVERT JUMPDEST PUSH1 0x0 DUP1 REVERT JUMPDEST PUSH1 0x0 DUP1 REVERT JUMPDEST PUSH1 0x0 DUP1 REVERT JUMPDEST PUSH1 0x0 PUSH1 0x1F NOT PUSH1 0x1F DUP4 ADD AND SWAP1 POP SWAP2 SWAP1 POP JUMP JUMPDEST PUSH32 0x4E487B7100000000000000000000000000000000000000000000000000000000 PUSH1 0x0 MSTORE PUSH1 0x41 PUSH1 0x4 MSTORE PUSH1 0x24 PUSH1 0x0 REVERT JUMPDEST PUSH2 0x142C DUP3 PUSH2 0x13E3 JUMP JUMPDEST DUP2 ADD DUP2 DUP2 LT PUSH8 0xFFFFFFFFFFFFFFFF DUP3 GT OR ISZERO PUSH2 0x144B JUMPI PUSH2 0x144A PUSH2 0x13F4 JUMP JUMPDEST JUMPDEST DUP1 PUSH1 0x40 MSTORE POP POP POP JUMP JUMPDEST PUSH1 0x0 PUSH2 0x145E PUSH2 0x13C5 JUMP JUMPDEST SWAP1 POP PUSH2 0x146A DUP3 DUP3 PUSH2 0x1423 JUMP JUMPDEST SWAP2 SWAP1 POP JUMP JUMPDEST PUSH1 0x0 PUSH8 0xFFFFFFFFFFFFFFFF DUP3 GT ISZERO PUSH2 0x148A JUMPI PUSH2 0x1489 PUSH2 0x13F4 JUMP JUMPDEST JUMPDEST PUSH2 0x1493 DUP3 PUSH2 0x13E3 JUMP JUMPDEST SWAP1 POP PUSH1 0x20 DUP2 ADD SWAP1 POP SWAP2 SWAP1 POP JUMP JUMPDEST DUP3 DUP2 DUP4 CALLDATACOPY PUSH1 0x0 DUP4 DUP4 ADD MSTORE POP POP POP JUMP JUMPDEST PUSH1 0x0 PUSH2 0x14C2 PUSH2 0x14BD DUP5 PUSH2 0x146F JUMP JUMPDEST PUSH2 0x1454 JUMP JUMPDEST SWAP1 POP DUP3 DUP2 MSTORE PUSH1 0x20 DUP2 ADD DUP5 DUP5 DUP5 ADD GT ISZERO PUSH2 0x14DE JUMPI PUSH2 0x14DD PUSH2 0x13DE JUMP JUMPDEST JUMPDEST PUSH2 0x14E9 DUP5 DUP3 DUP6 PUSH2 0x14A0 JUMP JUMPDEST POP SWAP4 SWAP3 POP POP POP JUMP JUMPDEST PUSH1 0x0 DUP3 PUSH1 0x1F DUP4 ADD SLT PUSH2 0x1506 JUMPI PUSH2 0x1505 PUSH2 0x13D9 JUMP JUMPDEST JUMPDEST DUP2 CALLDATALOAD PUSH2 0x1516 DUP5 DUP3 PUSH1 0x20 DUP7 ADD PUSH2 0x14AF JUMP JUMPDEST SWAP2 POP POP SWAP3 SWAP2 POP POP JUMP JUMPDEST PUSH1 0x0 DUP2 SWAP1 POP SWAP2 SWAP1 POP JUMP JUMPDEST PUSH2 0x1532 DUP2 PUSH2 0x151F JUMP JUMPDEST DUP2 EQ PUSH2 0x153D JUMPI PUSH1 0x0 DUP1 REVERT JUMPDEST POP JUMP JUMPDEST PUSH1 0x0 DUP2 CALLDATALOAD SWAP1 POP PUSH2 0x154F DUP2 PUSH2 0x1529 JUMP JUMPDEST SWAP3 SWAP2 POP POP JUMP JUMPDEST PUSH1 0x0 DUP2 ISZERO ISZERO SWAP1 POP SWAP2 SWAP1 POP JUMP JUMPDEST PUSH2 0x156A DUP2 PUSH2 0x1555 JUMP JUMPDEST DUP2 EQ PUSH2 0x1575 JUMPI PUSH1 0x0 DUP1 REVERT JUMPDEST POP JUMP JUMPDEST PUSH1 0x0 DUP2 CALLDATALOAD SWAP1 POP PUSH2 0x1587 DUP2 PUSH2 0x1561 JUMP JUMPDEST SWAP3 SWAP2 POP POP JUMP JUMPDEST PUSH1 0x0 DUP1 PUSH1 0x0 DUP1 PUSH1 0x0 DUP1 PUSH1 0x0 PUSH1 0xE0 DUP9 DUP11 SUB SLT ISZERO PUSH2 0x15AC JUMPI PUSH2 0x15AB PUSH2 0x13CF JUMP JUMPDEST JUMPDEST PUSH1 0x0 DUP9 ADD CALLDATALOAD PUSH8 0xFFFFFFFFFFFFFFFF DUP2 GT ISZERO PUSH2 0x15CA JUMPI PUSH2 0x15C9 PUSH2 0x13D4 JUMP JUMPDEST JUMPDEST PUSH2 0x15D6 DUP11 DUP3 DUP12 ADD PUSH2 0x14F1 JUMP JUMPDEST SWAP8 POP POP PUSH1 0x20 DUP9 ADD CALLDATALOAD PUSH8 0xFFFFFFFFFFFFFFFF DUP2 GT ISZERO PUSH2 0x15F7 JUMPI PUSH2 0x15F6 PUSH2 0x13D4 JUMP JUMPDEST JUMPDEST PUSH2 0x1603 DUP11 DUP3 DUP12 ADD PUSH2 0x14F1 JUMP JUMPDEST SWAP7 POP POP PUSH1 0x40 DUP9 ADD CALLDATALOAD PUSH8 0xFFFFFFFFFFFFFFFF DUP2 GT ISZERO PUSH2 0x1624 JUMPI PUSH2 0x1623 PUSH2 0x13D4 JUMP JUMPDEST JUMPDEST PUSH2 0x1630 DUP11 DUP3 DUP12 ADD PUSH2 0x14F1 JUMP JUMPDEST SWAP6 POP POP PUSH1 0x60 PUSH2 0x1641 DUP11 DUP3 DUP12 ADD PUSH2 0x1540 JUMP JUMPDEST SWAP5 POP POP PUSH1 0x80 DUP9 ADD CALLDATALOAD PUSH8 0xFFFFFFFFFFFFFFFF DUP2 GT ISZERO PUSH2 0x1662 JUMPI PUSH2 0x1661 PUSH2 0x13D4 JUMP JUMPDEST JUMPDEST PUSH2 0x166E DUP11 DUP3 DUP12 ADD PUSH2 0x14F1 JUMP JUMPDEST SWAP4 POP POP PUSH1 0xA0 DUP9 ADD CALLDATALOAD PUSH8 0xFFFFFFFFFFFFFFFF DUP2 GT ISZERO PUSH2 0x168F JUMPI PUSH2 0x168E PUSH2 0x13D4 JUMP JUMPDEST JUMPDEST PUSH2 0x169B DUP11 DUP3 DUP12 ADD PUSH2 0x14F1 JUMP JUMPDEST SWAP3 POP POP PUSH1 0xC0 PUSH2 0x16AC DUP11 DUP3 DUP12 ADD PUSH2 0x1578 JUMP JUMPDEST SWAP2 POP POP SWAP3 SWAP6 SWAP9 SWAP2 SWAP5 SWAP8 POP SWAP3 SWAP6 POP JUMP JUMPDEST PUSH1 0x0 DUP1 PUSH1 0x40 DUP4 DUP6 SUB SLT ISZERO PUSH2 0x16D2 JUMPI PUSH2 0x16D1 PUSH2 0x13CF JUMP JUMPDEST JUMPDEST PUSH1 0x0 DUP4 ADD CALLDATALOAD PUSH8 0xFFFFFFFFFFFFFFFF DUP2 GT ISZERO PUSH2 0x16F0 JUMPI PUSH2 0x16EF PUSH2 0x13D4 JUMP JUMPDEST JUMPDEST PUSH2 0x16FC DUP6 DUP3 DUP7 ADD PUSH2 0x14F1 JUMP JUMPDEST SWAP3 POP POP PUSH1 0x20 PUSH2 0x170D DUP6 DUP3 DUP7 ADD PUSH2 0x1540 JUMP JUMPDEST SWAP2 POP POP SWAP3 POP SWAP3 SWAP1 POP JUMP JUMPDEST PUSH1 0x0 DUP2 MLOAD SWAP1 POP SWAP2 SWAP1 POP JUMP JUMPDEST PUSH1 0x0 DUP3 DUP3 MSTORE PUSH1 0x20 DUP3 ADD SWAP1 POP SWAP3 SWAP2 POP POP JUMP JUMPDEST PUSH1 0x0 JUMPDEST DUP4 DUP2 LT ISZERO PUSH2 0x1751 JUMPI DUP1 DUP3 ADD MLOAD DUP2 DUP5 ADD MSTORE PUSH1 0x20 DUP2 ADD SWAP1 POP PUSH2 0x1736 JUMP JUMPDEST PUSH1 0x0 DUP5 DUP5 ADD MSTORE POP POP POP POP JUMP JUMPDEST PUSH1 0x0 PUSH2 0x1768 DUP3 PUSH2 0x1717 JUMP JUMPDEST PUSH2 0x1772 DUP2 DUP6 PUSH2 0x1722 JUMP JUMPDEST SWAP4 POP PUSH2 0x1782 DUP2 DUP6 PUSH1 0x20 DUP7 ADD PUSH2 0x1733 JUMP JUMPDEST PUSH2 0x178B DUP2 PUSH2 0x13E3 JUMP JUMPDEST DUP5 ADD SWAP2 POP POP SWAP3 SWAP2 POP POP JUMP JUMPDEST PUSH2 0x179F DUP2 PUSH2 0x1555 JUMP JUMPDEST DUP3 MSTORE POP POP JUMP JUMPDEST PUSH2 0x17AE DUP2 PUSH2 0x151F JUMP JUMPDEST DUP3 MSTORE POP POP JUMP JUMPDEST PUSH1 0x0 PUSH1 0x80 DUP3 ADD SWAP1 POP DUP2 DUP2 SUB PUSH1 0x0 DUP4 ADD MSTORE PUSH2 0x17CE DUP2 DUP8 PUSH2 0x175D JUMP JUMPDEST SWAP1 POP PUSH2 0x17DD PUSH1 0x20 DUP4 ADD DUP7 PUSH2 0x1796 JUMP JUMPDEST PUSH2 0x17EA PUSH1 0x40 DUP4 ADD DUP6 PUSH2 0x1796 JUMP JUMPDEST PUSH2 0x17F7 PUSH1 0x60 DUP4 ADD DUP5 PUSH2 0x17A5 JUMP JUMPDEST SWAP6 SWAP5 POP POP POP POP POP JUMP JUMPDEST PUSH1 0x0 DUP1 PUSH1 0x0 DUP1 PUSH1 0x0 PUSH1 0xA0 DUP7 DUP9 SUB SLT ISZERO PUSH2 0x181C JUMPI PUSH2 0x181B PUSH2 0x13CF JUMP JUMPDEST JUMPDEST PUSH1 0x0 DUP7 ADD CALLDATALOAD PUSH8 0xFFFFFFFFFFFFFFFF DUP2 GT ISZERO PUSH2 0x183A JUMPI PUSH2 0x1839 PUSH2 0x13D4 JUMP JUMPDEST JUMPDEST PUSH2 0x1846 DUP9 DUP3 DUP10 ADD PUSH2 0x14F1 JUMP JUMPDEST SWAP6 POP POP PUSH1 0x20 DUP7 ADD CALLDATALOAD PUSH8 0xFFFFFFFFFFFFFFFF DUP2 GT ISZERO PUSH2 0x1867 JUMPI PUSH2 0x1866 PUSH2 0x13D4 JUMP JUMPDEST JUMPDEST PUSH2 0x1873 DUP9 DUP3 DUP10 ADD PUSH2 0x14F1 JUMP JUMPDEST SWAP5 POP POP PUSH1 0x40 PUSH2 0x1884 DUP9 DUP3 DUP10 ADD PUSH2 0x1540 JUMP JUMPDEST SWAP4 POP POP PUSH1 0x60 DUP7 ADD CALLDATALOAD PUSH8 0xFFFFFFFFFFFFFFFF DUP2 GT ISZERO PUSH2 0x18A5 JUMPI PUSH2 0x18A4 PUSH2 0x13D4 JUMP JUMPDEST JUMPDEST PUSH2 0x18B1 DUP9 DUP3 DUP10 ADD PUSH2 0x14F1 JUMP JUMPDEST SWAP3 POP POP PUSH1 0x80 DUP7 ADD CALLDATALOAD PUSH8 0xFFFFFFFFFFFFFFFF DUP2 GT ISZERO PUSH2 0x18D2 JUMPI PUSH2 0x18D1 PUSH2 0x13D4 JUMP JUMPDEST JUMPDEST PUSH2 0x18DE DUP9 DUP3 DUP10 ADD PUSH2 0x14F1 JUMP JUMPDEST SWAP2 POP POP SWAP3 SWAP6 POP SWAP3 SWAP6 SWAP1 SWAP4 POP JUMP JUMPDEST PUSH1 0x0 DUP1 PUSH1 0x0 PUSH1 0x60 DUP5 DUP7 SUB SLT ISZERO PUSH2 0x1904 JUMPI PUSH2 0x1903 PUSH2 0x13CF JUMP JUMPDEST JUMPDEST PUSH1 0x0 DUP5 ADD CALLDATALOAD PUSH8 0xFFFFFFFFFFFFFFFF DUP2 GT ISZERO PUSH2 0x1922 JUMPI PUSH2 0x1921 PUSH2 0x13D4 JUMP JUMPDEST JUMPDEST PUSH2 0x192E DUP7 DUP3 DUP8 ADD PUSH2 0x14F1 JUMP JUMPDEST SWAP4 POP POP PUSH1 0x20 DUP5 ADD CALLDATALOAD PUSH8 0xFFFFFFFFFFFFFFFF DUP2 GT ISZERO PUSH2 0x194F JUMPI PUSH2 0x194E PUSH2 0x13D4 JUMP JUMPDEST JUMPDEST PUSH2 0x195B DUP7 DUP3 DUP8 ADD PUSH2 0x14F1 JUMP JUMPDEST SWAP3 POP POP PUSH1 0x40 DUP5 ADD CALLDATALOAD PUSH8 0xFFFFFFFFFFFFFFFF DUP2 GT ISZERO PUSH2 0x197C JUMPI PUSH2 0x197B PUSH2 0x13D4 JUMP JUMPDEST JUMPDEST PUSH2 0x1988 DUP7 DUP3 DUP8 ADD PUSH2 0x14F1 JUMP JUMPDEST SWAP2 POP POP SWAP3 POP SWAP3 POP SWAP3 JUMP JUMPDEST PUSH1 0x0 PUSH8 0xFFFFFFFFFFFFFFFF DUP3 GT ISZERO PUSH2 0x19AD JUMPI PUSH2 0x19AC PUSH2 0x13F4 JUMP JUMPDEST JUMPDEST PUSH1 0x20 DUP3 MUL SWAP1 POP PUSH1 0x20 DUP2 ADD SWAP1 POP SWAP2 SWAP1 POP JUMP JUMPDEST PUSH1 0x0 DUP1 REVERT JUMPDEST PUSH1 0x0 PUSH2 0x19D6 PUSH2 0x19D1 DUP5 PUSH2 0x1992 JUMP JUMPDEST PUSH2 0x1454 JUMP JUMPDEST SWAP1 POP DUP1 DUP4 DUP3 MSTORE PUSH1 0x20 DUP3 ADD SWAP1 POP PUSH1 0x20 DUP5 MUL DUP4 ADD DUP6 DUP2 GT ISZERO PUSH2 0x19F9 JUMPI PUSH2 0x19F8 PUSH2 0x19BE JUMP JUMPDEST JUMPDEST DUP4 JUMPDEST DUP2 DUP2 LT ISZERO PUSH2 0x1A40 JUMPI DUP1 CALLDATALOAD PUSH8 0xFFFFFFFFFFFFFFFF DUP2 GT ISZERO PUSH2 0x1A1E JUMPI PUSH2 0x1A1D PUSH2 0x13D9 JUMP JUMPDEST JUMPDEST DUP1 DUP7 ADD PUSH2 0x1A2B DUP10 DUP3 PUSH2 0x14F1 JUMP JUMPDEST DUP6 MSTORE PUSH1 0x20 DUP6 ADD SWAP5 POP POP POP PUSH1 0x20 DUP2 ADD SWAP1 POP PUSH2 0x19FB JUMP JUMPDEST POP POP POP SWAP4 SWAP3 POP POP POP JUMP JUMPDEST PUSH1 0x0 DUP3 PUSH1 0x1F DUP4 ADD SLT PUSH2 0x1A5F JUMPI PUSH2 0x1A5E PUSH2 0x13D9 JUMP JUMPDEST JUMPDEST DUP2 CALLDATALOAD PUSH2 0x1A6F DUP5 DUP3 PUSH1 0x20 DUP7 ADD PUSH2 0x19C3 JUMP JUMPDEST SWAP2 POP POP SWAP3 SWAP2 POP POP JUMP JUMPDEST PUSH1 0x0 DUP1 PUSH1 0x0 DUP1 PUSH1 0x80 DUP6 DUP8 SUB SLT ISZERO PUSH2 0x1A92 JUMPI PUSH2 0x1A91 PUSH2 0x13CF JUMP JUMPDEST JUMPDEST PUSH1 0x0 DUP6 ADD CALLDATALOAD PUSH8 0xFFFFFFFFFFFFFFFF DUP2 GT ISZERO PUSH2 0x1AB0 JUMPI PUSH2 0x1AAF PUSH2 0x13D4 JUMP JUMPDEST JUMPDEST PUSH2 0x1ABC DUP8 DUP3 DUP9 ADD PUSH2 0x14F1 JUMP JUMPDEST SWAP5 POP POP PUSH1 0x20 DUP6 ADD CALLDATALOAD PUSH8 0xFFFFFFFFFFFFFFFF DUP2 GT ISZERO PUSH2 0x1ADD JUMPI PUSH2 0x1ADC PUSH2 0x13D4 JUMP JUMPDEST JUMPDEST PUSH2 0x1AE9 DUP8 DUP3 DUP9 ADD PUSH2 0x1A4A JUMP JUMPDEST SWAP4 POP POP PUSH1 0x40 DUP6 ADD CALLDATALOAD PUSH8 0xFFFFFFFFFFFFFFFF DUP2 GT ISZERO PUSH2 0x1B0A JUMPI PUSH2 0x1B09 PUSH2 0x13D4 JUMP JUMPDEST JUMPDEST PUSH2 0x1B16 DUP8 DUP3 DUP9 ADD PUSH2 0x1A4A JUMP JUMPDEST SWAP3 POP POP PUSH1 0x60 DUP6 ADD CALLDATALOAD PUSH8 0xFFFFFFFFFFFFFFFF DUP2 GT ISZERO PUSH2 0x1B37 JUMPI PUSH2 0x1B36 PUSH2 0x13D4 JUMP JUMPDEST JUMPDEST PUSH2 0x1B43 DUP8 DUP3 DUP9 ADD PUSH2 0x1A4A JUMP JUMPDEST SWAP2 POP POP SWAP3 SWAP6 SWAP2 SWAP5 POP SWAP3 POP JUMP JUMPDEST PUSH1 0x0 PUSH1 0x20 DUP3 DUP5 SUB SLT ISZERO PUSH2 0x1B65 JUMPI PUSH2 0x1B64 PUSH2 0x13CF JUMP JUMPDEST JUMPDEST PUSH1 0x0 DUP3 ADD CALLDATALOAD PUSH8 0xFFFFFFFFFFFFFFFF DUP2 GT ISZERO PUSH2 0x1B83 JUMPI PUSH2 0x1B82 PUSH2 0x13D4 JUMP JUMPDEST JUMPDEST PUSH2 0x1B8F DUP5 DUP3 DUP6 ADD PUSH2 0x14F1 JUMP JUMPDEST SWAP2 POP POP SWAP3 SWAP2 POP POP JUMP JUMPDEST PUSH1 0x0 PUSH1 0x80 DUP3 ADD SWAP1 POP DUP2 DUP2 SUB PUSH1 0x0 DUP4 ADD MSTORE PUSH2 0x1BB2 DUP2 DUP8 PUSH2 0x175D JUMP JUMPDEST SWAP1 POP PUSH2 0x1BC1 PUSH1 0x20 DUP4 ADD DUP7 PUSH2 0x17A5 JUMP JUMPDEST DUP2 DUP2 SUB PUSH1 0x40 DUP4 ADD MSTORE PUSH2 0x1BD3 DUP2 DUP6 PUSH2 0x175D JUMP JUMPDEST SWAP1 POP DUP2 DUP2 SUB PUSH1 0x60 DUP4 ADD MSTORE PUSH2 0x1BE7 DUP2 DUP5 PUSH2 0x175D JUMP JUMPDEST SWAP1 POP SWAP6 SWAP5 POP POP POP POP POP JUMP JUMPDEST PUSH1 0x0 DUP2 MLOAD SWAP1 POP SWAP2 SWAP1 POP JUMP JUMPDEST PUSH1 0x0 DUP3 DUP3 MSTORE PUSH1 0x20 DUP3 ADD SWAP1 POP SWAP3 SWAP2 POP POP JUMP JUMPDEST PUSH1 0x0 DUP2 SWAP1 POP PUSH1 0x20 DUP3 ADD SWAP1 POP SWAP2 SWAP1 POP JUMP JUMPDEST PUSH1 0x0 DUP3 DUP3 MSTORE PUSH1 0x20 DUP3 ADD SWAP1 POP SWAP3 SWAP2 POP POP JUMP JUMPDEST PUSH1 0x0 PUSH2 0x1C3A DUP3 PUSH2 0x1717 JUMP JUMPDEST PUSH2 0x1C44 DUP2 DUP6 PUSH2 0x1C1E JUMP JUMPDEST SWAP4 POP PUSH2 0x1C54 DUP2 DUP6 PUSH1 0x20 DUP7 ADD PUSH2 0x1733 JUMP JUMPDEST PUSH2 0x1C5D DUP2 PUSH2 0x13E3 JUMP JUMPDEST DUP5 ADD SWAP2 POP POP SWAP3 SWAP2 POP POP JUMP JUMPDEST PUSH2 0x1C71 DUP2 PUSH2 0x151F JUMP JUMPDEST DUP3 MSTORE POP POP JUMP JUMPDEST PUSH2 0x1C80 DUP2 PUSH2 0x1555 JUMP JUMPDEST DUP3 MSTORE POP POP JUMP JUMPDEST PUSH1 0x0 PUSH1 0xC0 DUP4 ADD PUSH1 0x0 DUP4 ADD MLOAD DUP5 DUP3 SUB PUSH1 0x0 DUP7 ADD MSTORE PUSH2 0x1CA3 DUP3 DUP3 PUSH2 0x1C2F JUMP JUMPDEST SWAP2 POP POP PUSH1 0x20 DUP4 ADD MLOAD DUP5 DUP3 SUB PUSH1 0x20 DUP7 ADD MSTORE PUSH2 0x1CBD DUP3 DUP3 PUSH2 0x1C2F JUMP JUMPDEST SWAP2 POP POP PUSH1 0x40 DUP4 ADD MLOAD PUSH2 0x1CD2 PUSH1 0x40 DUP7 ADD DUP3 PUSH2 0x1C68 JUMP JUMPDEST POP PUSH1 0x60 DUP4 ADD MLOAD DUP5 DUP3 SUB PUSH1 0x60 DUP7 ADD MSTORE PUSH2 0x1CEA DUP3 DUP3 PUSH2 0x1C2F JUMP JUMPDEST SWAP2 POP POP PUSH1 0x80 DUP4 ADD MLOAD DUP5 DUP3 SUB PUSH1 0x80 DUP7 ADD MSTORE PUSH2 0x1D04 DUP3 DUP3 PUSH2 0x1C2F JUMP JUMPDEST SWAP2 POP POP PUSH1 0xA0 DUP4 ADD MLOAD PUSH2 0x1D19 PUSH1 0xA0 DUP7 ADD DUP3 PUSH2 0x1C77 JUMP JUMPDEST POP DUP1 SWAP2 POP POP SWAP3 SWAP2 POP POP JUMP JUMPDEST PUSH1 0x0 PUSH2 0x1D30 DUP4 DUP4 PUSH2 0x1C86 JUMP JUMPDEST SWAP1 POP SWAP3 SWAP2 POP POP JUMP JUMPDEST PUSH1 0x0 PUSH1 0x20 DUP3 ADD SWAP1 POP SWAP2 SWAP1 POP JUMP JUMPDEST PUSH1 0x0 PUSH2 0x1D50 DUP3 PUSH2 0x1BF2 JUMP JUMPDEST PUSH2 0x1D5A DUP2 DUP6 PUSH2 0x1BFD JUMP JUMPDEST SWAP4 POP DUP4 PUSH1 0x20 DUP3 MUL DUP6 ADD PUSH2 0x1D6C DUP6 PUSH2 0x1C0E JUMP JUMPDEST DUP1 PUSH1 0x0 JUMPDEST DUP6 DUP2 LT ISZERO PUSH2 0x1DA8 JUMPI DUP5 DUP5 SUB DUP10 MSTORE DUP2 MLOAD PUSH2 0x1D89 DUP6 DUP3 PUSH2 0x1D24 JUMP JUMPDEST SWAP5 POP PUSH2 0x1D94 DUP4 PUSH2 0x1D38 JUMP JUMPDEST SWAP3 POP PUSH1 0x20 DUP11 ADD SWAP10 POP POP PUSH1 0x1 DUP2 ADD SWAP1 POP PUSH2 0x1D70 JUMP JUMPDEST POP DUP3 SWAP8 POP DUP8 SWAP6 POP POP POP POP POP POP SWAP3 SWAP2 POP POP JUMP JUMPDEST PUSH1 0x0 PUSH1 0x20 DUP3 ADD SWAP1 POP DUP2 DUP2 SUB PUSH1 0x0 DUP4 ADD MSTORE PUSH2 0x1DD4 DUP2 DUP5 PUSH2 0x1D45 JUMP JUMPDEST SWAP1 POP SWAP3 SWAP2 POP POP JUMP JUMPDEST PUSH1 0x0 DUP2 MLOAD SWAP1 POP SWAP2 SWAP1 POP JUMP JUMPDEST PUSH1 0x0 DUP3 DUP3 MSTORE PUSH1 0x20 DUP3 ADD SWAP1 POP SWAP3 SWAP2 POP POP JUMP JUMPDEST PUSH1 0x0 DUP2 SWAP1 POP PUSH1 0x20 DUP3 ADD SWAP1 POP SWAP2 SWAP1 POP JUMP JUMPDEST PUSH1 0x0 PUSH2 0x1E14 DUP4 DUP4 PUSH2 0x1C2F JUMP JUMPDEST SWAP1 POP SWAP3 SWAP2 POP POP JUMP JUMPDEST PUSH1 0x0 PUSH1 0x20 DUP3 ADD SWAP1 POP SWAP2 SWAP1 POP JUMP JUMPDEST PUSH1 0x0 PUSH2 0x1E34 DUP3 PUSH2 0x1DDC JUMP JUMPDEST PUSH2 0x1E3E DUP2 DUP6 PUSH2 0x1DE7 JUMP JUMPDEST SWAP4 POP DUP4 PUSH1 0x20 DUP3 MUL DUP6 ADD PUSH2 0x1E50 DUP6 PUSH2 0x1DF8 JUMP JUMPDEST DUP1 PUSH1 0x0 JUMPDEST DUP6 DUP2 LT ISZERO PUSH2 0x1E8C JUMPI DUP5 DUP5 SUB DUP10 MSTORE DUP2 MLOAD PUSH2 0x1E6D DUP6 DUP3 PUSH2 0x1E08 JUMP JUMPDEST SWAP5 POP PUSH2 0x1E78 DUP4 PUSH2 0x1E1C JUMP JUMPDEST SWAP3 POP PUSH1 0x20 DUP11 ADD SWAP10 POP POP PUSH1 0x1 DUP2 ADD SWAP1 POP PUSH2 0x1E54 JUMP JUMPDEST POP DUP3 SWAP8 POP DUP8 SWAP6 POP POP POP POP POP POP SWAP3 SWAP2 POP POP JUMP JUMPDEST PUSH1 0x0 PUSH1 0x40 DUP3 ADD SWAP1 POP DUP2 DUP2 SUB PUSH1 0x0 DUP4 ADD MSTORE PUSH2 0x1EB8 DUP2 DUP6 PUSH2 0x1E29 JUMP JUMPDEST SWAP1 POP DUP2 DUP2 SUB PUSH1 0x20 DUP4 ADD MSTORE PUSH2 0x1ECC DUP2 DUP5 PUSH2 0x1E29 JUMP JUMPDEST SWAP1 POP SWAP4 SWAP3 POP POP POP JUMP JUMPDEST PUSH1 0x0 PUSH1 0x80 DUP3 ADD SWAP1 POP DUP2 DUP2 SUB PUSH1 0x0 DUP4 ADD MSTORE PUSH2 0x1EEF DUP2 DUP8 PUSH2 0x175D JUMP JUMPDEST SWAP1 POP PUSH2 0x1EFE PUSH1 0x20 DUP4 ADD DUP7 PUSH2 0x17A5 JUMP JUMPDEST PUSH2 0x1F0B PUSH1 0x40 DUP4 ADD DUP6 PUSH2 0x17A5 JUMP JUMPDEST PUSH2 0x1F18 PUSH1 0x60 DUP4 ADD DUP5 PUSH2 0x17A5 JUMP JUMPDEST SWAP6 SWAP5 POP POP POP POP POP JUMP JUMPDEST PUSH1 0x0 PUSH1 0x60 DUP3 ADD SWAP1 POP DUP2 DUP2 SUB PUSH1 0x0 DUP4 ADD MSTORE PUSH2 0x1F3B DUP2 DUP7 PUSH2 0x1E29 JUMP JUMPDEST SWAP1 POP DUP2 DUP2 SUB PUSH1 0x20 DUP4 ADD MSTORE PUSH2 0x1F4F DUP2 DUP6 PUSH2 0x1E29 JUMP JUMPDEST SWAP1 POP DUP2 DUP2 SUB PUSH1 0x40 DUP4 ADD MSTORE PUSH2 0x1F63 DUP2 DUP5 PUSH2 0x1E29 JUMP JUMPDEST SWAP1 POP SWAP5 SWAP4 POP POP POP POP JUMP JUMPDEST PUSH1 0x0 DUP1 PUSH1 0x0 DUP1 PUSH1 0x0 DUP1 PUSH1 0xC0 DUP8 DUP10 SUB SLT ISZERO PUSH2 0x1F8A JUMPI PUSH2 0x1F89 PUSH2 0x13CF JUMP JUMPDEST JUMPDEST PUSH1 0x0 DUP8 ADD CALLDATALOAD PUSH8 0xFFFFFFFFFFFFFFFF DUP2 GT ISZERO PUSH2 0x1FA8 JUMPI PUSH2 0x1FA7 PUSH2 0x13D4 JUMP JUMPDEST JUMPDEST PUSH2 0x1FB4 DUP10 DUP3 DUP11 ADD PUSH2 0x14F1 JUMP JUMPDEST SWAP7 POP POP PUSH1 0x20 PUSH2 0x1FC5 DUP10 DUP3 DUP11 ADD PUSH2 0x1540 JUMP JUMPDEST SWAP6 POP POP PUSH1 0x40 DUP8 ADD CALLDATALOAD PUSH8 0xFFFFFFFFFFFFFFFF DUP2 GT ISZERO PUSH2 0x1FE6 JUMPI PUSH2 0x1FE5 PUSH2 0x13D4 JUMP JUMPDEST JUMPDEST PUSH2 0x1FF2 DUP10 DUP3 DUP11 ADD PUSH2 0x14F1 JUMP JUMPDEST SWAP5 POP POP PUSH1 0x60 PUSH2 0x2003 DUP10 DUP3 DUP11 ADD PUSH2 0x1578 JUMP JUMPDEST SWAP4 POP POP PUSH1 0x80 PUSH2 0x2014 DUP10 DUP3 DUP11 ADD PUSH2 0x1578 JUMP JUMPDEST SWAP3 POP POP PUSH1 0xA0 PUSH2 0x2025 DUP10 DUP3 DUP11 ADD PUSH2 0x1540 JUMP JUMPDEST SWAP2 POP POP SWAP3 SWAP6 POP SWAP3 SWAP6 POP SWAP3 SWAP6 JUMP JUMPDEST PUSH1 0x0 DUP1 PUSH1 0x0 DUP1 PUSH1 0x0 DUP1 PUSH1 0xC0 DUP8 DUP10 SUB SLT ISZERO PUSH2 0x204F JUMPI PUSH2 0x204E PUSH2 0x13CF JUMP JUMPDEST JUMPDEST PUSH1 0x0 DUP8 ADD CALLDATALOAD PUSH8 0xFFFFFFFFFFFFFFFF DUP2 GT ISZERO PUSH2 0x206D JUMPI PUSH2 0x206C PUSH2 0x13D4 JUMP JUMPDEST JUMPDEST PUSH2 0x2079 DUP10 DUP3 DUP11 ADD PUSH2 0x14F1 JUMP JUMPDEST SWAP7 POP POP PUSH1 0x20 PUSH2 0x208A DUP10 DUP3 DUP11 ADD PUSH2 0x1540 JUMP JUMPDEST SWAP6 POP POP PUSH1 0x40 DUP8 ADD CALLDATALOAD PUSH8 0xFFFFFFFFFFFFFFFF DUP2 GT ISZERO PUSH2 0x20AB JUMPI PUSH2 0x20AA PUSH2 0x13D4 JUMP JUMPDEST JUMPDEST PUSH2 0x20B7 DUP10 DUP3 DUP11 ADD PUSH2 0x14F1 JUMP JUMPDEST SWAP5 POP POP PUSH1 0x60 PUSH2 0x20C8 DUP10 DUP3 DUP11 ADD PUSH2 0x1540 JUMP JUMPDEST SWAP4 POP POP PUSH1 0x80 PUSH2 0x20D9 DUP10 DUP3 DUP11 ADD PUSH2 0x1540 JUMP JUMPDEST SWAP3 POP POP PUSH1 0xA0 PUSH2 0x20EA DUP10 DUP3 DUP11 ADD PUSH2 0x1540 JUMP JUMPDEST SWAP2 POP POP SWAP3 SWAP6 POP SWAP3 SWAP6 POP SWAP3 SWAP6 JUMP JUMPDEST PUSH1 0x0 DUP2 SWAP1 POP SWAP3 SWAP2 POP POP JUMP JUMPDEST PUSH1 0x0 PUSH2 0x210D DUP3 PUSH2 0x1717 JUMP JUMPDEST PUSH2 0x2117 DUP2 DUP6 PUSH2 0x20F7 JUMP JUMPDEST SWAP4 POP PUSH2 0x2127 DUP2 DUP6 PUSH1 0x20 DUP7 ADD PUSH2 0x1733 JUMP JUMPDEST DUP1 DUP5 ADD SWAP2 POP POP SWAP3 SWAP2 POP POP JUMP JUMPDEST PUSH1 0x0 PUSH2 0x213F DUP3 DUP5 PUSH2 0x2102 JUMP JUMPDEST SWAP2 POP DUP2 SWAP1 POP SWAP3 SWAP2 POP POP JUMP JUMPDEST PUSH32 0x4E487B7100000000000000000000000000000000000000000000000000000000 PUSH1 0x0 MSTORE PUSH1 0x22 PUSH1 0x4 MSTORE PUSH1 0x24 PUSH1 0x0 REVERT JUMPDEST PUSH1 0x0 PUSH1 0x2 DUP3 DIV SWAP1 POP PUSH1 0x1 DUP3 AND DUP1 PUSH2 0x2191 JUMPI PUSH1 0x7F DUP3 AND SWAP2 POP JUMPDEST PUSH1 0x20 DUP3 LT DUP2 SUB PUSH2 0x21A4 JUMPI PUSH2 0x21A3 PUSH2 0x214A JUMP JUMPDEST JUMPDEST POP SWAP2 SWAP1 POP JUMP JUMPDEST PUSH1 0x0 DUP2 SWAP1 POP DUP2 PUSH1 0x0 MSTORE PUSH1 0x20 PUSH1 0x0 KECCAK256 SWAP1 POP SWAP2 SWAP1 POP JUMP JUMPDEST PUSH1 0x0 PUSH1 0x20 PUSH1 0x1F DUP4 ADD DIV SWAP1 POP SWAP2 SWAP1 POP JUMP JUMPDEST PUSH1 0x0 DUP3 DUP3 SHL SWAP1 POP SWAP3 SWAP2 POP POP JUMP JUMPDEST PUSH1 0x0 PUSH1 0x8 DUP4 MUL PUSH2 0x220C PUSH32 0xFFFFFFFFFFFFFFFFFFFFFFFFFFFFFFFFFFFFFFFFFFFFFFFFFFFFFFFFFFFFFFFF DUP3 PUSH2 0x21CF JUMP JUMPDEST PUSH2 0x2216 DUP7 DUP4 PUSH2 0x21CF JUMP JUMPDEST SWAP6 POP DUP1 NOT DUP5 AND SWAP4 POP DUP1 DUP7 AND DUP5 OR SWAP3 POP POP POP SWAP4 SWAP3 POP POP POP JUMP JUMPDEST PUSH1 0x0 DUP2 SWAP1 POP SWAP2 SWAP1 POP JUMP JUMPDEST PUSH1 0x0 PUSH2 0x2253 PUSH2 0x224E PUSH2 0x2249 DUP5 PUSH2 0x151F JUMP JUMPDEST PUSH2 0x222E JUMP JUMPDEST PUSH2 0x151F JUMP JUMPDEST SWAP1 POP SWAP2 SWAP1 POP JUMP JUMPDEST PUSH1 0x0 DUP2 SWAP1 POP SWAP2 SWAP1 POP JUMP JUMPDEST PUSH2 0x226D DUP4 PUSH2 0x2238 JUMP JUMPDEST PUSH2 0x2281 PUSH2 0x2279 DUP3 PUSH2 0x225A JUMP JUMPDEST DUP5 DUP5 SLOAD PUSH2 0x21DC JUMP JUMPDEST DUP3 SSTORE POP POP POP POP JUMP JUMPDEST PUSH1 0x0 SWAP1 JUMP JUMPDEST PUSH2 0x2296 PUSH2 0x2289 JUMP JUMPDEST PUSH2 0x22A1 DUP2 DUP5 DUP5 PUSH2 0x2264 JUMP JUMPDEST POP POP POP JUMP JUMPDEST JUMPDEST DUP2 DUP2 LT ISZERO PUSH2 0x22C5 JUMPI PUSH2 0x22BA PUSH1 0x0 DUP3 PUSH2 0x228E JUMP JUMPDEST PUSH1 0x1 DUP2 ADD SWAP1 POP PUSH2 0x22A7 JUMP JUMPDEST POP POP JUMP JUMPDEST PUSH1 0x1F DUP3 GT ISZERO PUSH2 0x230A JUMPI PUSH2 0x22DB DUP2 PUSH2 0x21AA JUMP JUMPDEST PUSH2 0x22E4 DUP5 PUSH2 0x21BF JUMP JUMPDEST DUP2 ADD PUSH1 0x20 DUP6 LT ISZERO PUSH2 0x22F3 JUMPI DUP2 SWAP1 POP JUMPDEST PUSH2 0x2307 PUSH2 0x22FF DUP6 PUSH2 0x21BF JUMP JUMPDEST DUP4 ADD DUP3 PUSH2 0x22A6 JUMP JUMPDEST POP POP JUMPDEST POP POP POP JUMP JUMPDEST PUSH1 0x0 DUP3 DUP3 SHR SWAP1 POP SWAP3 SWAP2 POP POP JUMP JUMPDEST PUSH1 0x0 PUSH2 0x232D PUSH1 0x0 NOT DUP5 PUSH1 0x8 MUL PUSH2 0x230F JUMP JUMPDEST NOT DUP1 DUP4 AND SWAP2 POP POP SWAP3 SWAP2 POP POP JUMP JUMPDEST PUSH1 0x0 PUSH2 0x2346 DUP4 DUP4 PUSH2 0x231C JUMP JUMPDEST SWAP2 POP DUP3 PUSH1 0x2 MUL DUP3 OR SWAP1 POP SWAP3 SWAP2 POP POP JUMP JUMPDEST PUSH2 0x235F DUP3 PUSH2 0x1717 JUMP JUMPDEST PUSH8 0xFFFFFFFFFFFFFFFF DUP2 GT ISZERO PUSH2 0x2378 JUMPI PUSH2 0x2377 PUSH2 0x13F4 JUMP JUMPDEST JUMPDEST PUSH2 0x2382 DUP3 SLOAD PUSH2 0x2179 JUMP JUMPDEST PUSH2 0x238D DUP3 DUP3 DUP6 PUSH2 0x22C9 JUMP JUMPDEST PUSH1 0x0 PUSH1 0x20 SWAP1 POP PUSH1 0x1F DUP4 GT PUSH1 0x1 DUP2 EQ PUSH2 0x23C0 JUMPI PUSH1 0x0 DUP5 ISZERO PUSH2 0x23AE JUMPI DUP3 DUP8 ADD MLOAD SWAP1 POP JUMPDEST PUSH2 0x23B8 DUP6 DUP3 PUSH2 0x233A JUMP JUMPDEST DUP7 SSTORE POP PUSH2 0x2420 JUMP JUMPDEST PUSH1 0x1F NOT DUP5 AND PUSH2 0x23CE DUP7 PUSH2 0x21AA JUMP JUMPDEST PUSH1 0x0 JUMPDEST DUP3 DUP2 LT ISZERO PUSH2 0x23F6 JUMPI DUP5 DUP10 ADD MLOAD DUP3 SSTORE PUSH1 0x1 DUP3 ADD SWAP2 POP PUSH1 0x20 DUP6 ADD SWAP5 POP PUSH1 0x20 DUP2 ADD SWAP1 POP PUSH2 0x23D1 JUMP JUMPDEST DUP7 DUP4 LT ISZERO PUSH2 0x2413 JUMPI DUP5 DUP10 ADD MLOAD PUSH2 0x240F PUSH1 0x1F DUP10 AND DUP3 PUSH2 0x231C JUMP JUMPDEST DUP4 SSTORE POP JUMPDEST PUSH1 0x1 PUSH1 0x2 DUP9 MUL ADD DUP9 SSTORE POP POP POP JUMPDEST POP POP POP POP POP POP JUMP JUMPDEST PUSH32 0x4E487B7100000000000000000000000000000000000000000000000000000000 PUSH1 0x0 MSTORE PUSH1 0x11 PUSH1 0x4 MSTORE PUSH1 0x24 PUSH1 0x0 REVERT JUMPDEST PUSH1 0x0 PUSH2 0x2462 DUP3 PUSH2 0x151F JUMP JUMPDEST SWAP2 POP PUSH32 0xFFFFFFFFFFFFFFFFFFFFFFFFFFFFFFFFFFFFFFFFFFFFFFFFFFFFFFFFFFFFFFFF DUP3 SUB PUSH2 0x2494 JUMPI PUSH2 0x2493 PUSH2 0x2428 JUMP JUMPDEST JUMPDEST PUSH1 0x1 DUP3 ADD SWAP1 POP SWAP2 SWAP1 POP JUMP JUMPDEST PUSH32 0x4E487B7100000000000000000000000000000000000000000000000000000000 PUSH1 0x0 MSTORE PUSH1 0x32 PUSH1 0x4 MSTORE PUSH1 0x24 PUSH1 0x0 REVERT INVALID LOG2 PUSH5 0x6970667358 0x22 SLT KECCAK256 0xC2 KECCAK256 SWAP8 MULMOD ISZERO 0xBE 0x2D PREVRANDAO SMOD ISZERO TIMESTAMP JUMPI ISZERO 0xBE 0xB1 0x25 PUSH14 0xB624F918E4F4A686D93509A58706 0xF PUSH5 0x736F6C6343 STOP ADDMOD SLT STOP CALLER "
				},
				"gasEstimates": {
					"creation": {
						"codeDepositCost": "1895200",
						"executionCost": "2005",
						"totalCost": "1897205"
					},
					"external": {
						"addPatient(string,string,uint256,string,string)": "infinite",
						"getAllergies(string)": "infinite",
						"getBloodPressure(string,uint256)": "infinite",
						"getPatientInfo(string)": "infinite",
						"getPrescriptions(string)": "infinite",
						"getSugar(string,uint256)": "infinite",
						"getVaccines(string)": "infinite",
						"updateAllergies(string,string[],string[],string[])": "infinite",
						"updateBloodPressure(string,uint256,string,uint256,uint256,uint256)": "infinite",
						"updatePrescription(string,string,string,uint256,string,string,bool)": "infinite",
						"updateSugar(string,uint256,string,bool,bool,uint256)": "infinite",
						"updateVaccine(string,string,string)": "infinite"
					}
				},
				"methodIdentifiers": {
					"addPatient(string,string,uint256,string,string)": "3276a2ac",
					"getAllergies(string)": "d2ea8594",
					"getBloodPressure(string,uint256)": "c40cd876",
					"getPatientInfo(string)": "68cdafb3",
					"getPrescriptions(string)": "931126e9",
					"getSugar(string,uint256)": "30c012f0",
					"getVaccines(string)": "a12d9560",
					"updateAllergies(string,string[],string[],string[])": "669aaafb",
					"updateBloodPressure(string,uint256,string,uint256,uint256,uint256)": "f4ef06b4",
					"updatePrescription(string,string,string,uint256,string,string,bool)": "16c11d68",
					"updateSugar(string,uint256,string,bool,bool,uint256)": "e1d31458",
					"updateVaccine(string,string,string)": "54506048"
				}
			},
			"storageLayout": {
				"storage": [
					{
						"astId": 87,
						"contract": "contracts/_Database3.sol:MedicalRecords",
						"label": "patients",
						"offset": 0,
						"slot": "0",
						"type": "t_mapping(t_string_memory_ptr,t_struct(Patient)64_storage)"
					}
				],
				"types": {
					"t_array(t_string_storage)dyn_storage": {
						"base": "t_string_storage",
						"encoding": "dynamic_array",
						"label": "string[]",
						"numberOfBytes": "32"
					},
					"t_array(t_struct(Prescription)29_storage)dyn_storage": {
						"base": "t_struct(Prescription)29_storage",
						"encoding": "dynamic_array",
						"label": "struct MedicalRecords.Prescription[]",
						"numberOfBytes": "32"
					},
					"t_bool": {
						"encoding": "inplace",
						"label": "bool",
						"numberOfBytes": "1"
					},
					"t_mapping(t_string_memory_ptr,t_struct(Allergies)11_storage)": {
						"encoding": "mapping",
						"key": "t_string_memory_ptr",
						"label": "mapping(string => struct MedicalRecords.Allergies)",
						"numberOfBytes": "32",
						"value": "t_struct(Allergies)11_storage"
					},
					"t_mapping(t_string_memory_ptr,t_struct(Patient)64_storage)": {
						"encoding": "mapping",
						"key": "t_string_memory_ptr",
						"label": "mapping(string => struct MedicalRecords.Patient)",
						"numberOfBytes": "32",
						"value": "t_struct(Patient)64_storage"
					},
					"t_mapping(t_uint256,t_struct(BloodPressure)73_storage)": {
						"encoding": "mapping",
						"key": "t_uint256",
						"label": "mapping(uint256 => struct MedicalRecords.BloodPressure)",
						"numberOfBytes": "32",
						"value": "t_struct(BloodPressure)73_storage"
					},
					"t_mapping(t_uint256,t_struct(Sugar)82_storage)": {
						"encoding": "mapping",
						"key": "t_uint256",
						"label": "mapping(uint256 => struct MedicalRecords.Sugar)",
						"numberOfBytes": "32",
						"value": "t_struct(Sugar)82_storage"
					},
					"t_mapping(t_uint256,t_struct(Vaccine)16_storage)": {
						"encoding": "mapping",
						"key": "t_uint256",
						"label": "mapping(uint256 => struct MedicalRecords.Vaccine)",
						"numberOfBytes": "32",
						"value": "t_struct(Vaccine)16_storage"
					},
					"t_string_memory_ptr": {
						"encoding": "bytes",
						"label": "string",
						"numberOfBytes": "32"
					},
					"t_string_storage": {
						"encoding": "bytes",
						"label": "string",
						"numberOfBytes": "32"
					},
					"t_struct(Allergies)11_storage": {
						"encoding": "inplace",
						"label": "struct MedicalRecords.Allergies",
						"members": [
							{
								"astId": 4,
								"contract": "contracts/_Database3.sol:MedicalRecords",
								"label": "food",
								"offset": 0,
								"slot": "0",
								"type": "t_array(t_string_storage)dyn_storage"
							},
							{
								"astId": 7,
								"contract": "contracts/_Database3.sol:MedicalRecords",
								"label": "medicines",
								"offset": 0,
								"slot": "1",
								"type": "t_array(t_string_storage)dyn_storage"
							},
							{
								"astId": 10,
								"contract": "contracts/_Database3.sol:MedicalRecords",
								"label": "others",
								"offset": 0,
								"slot": "2",
								"type": "t_array(t_string_storage)dyn_storage"
							}
						],
						"numberOfBytes": "96"
					},
					"t_struct(BloodPressure)73_storage": {
						"encoding": "inplace",
						"label": "struct MedicalRecords.BloodPressure",
						"members": [
							{
								"astId": 66,
								"contract": "contracts/_Database3.sol:MedicalRecords",
								"label": "date",
								"offset": 0,
								"slot": "0",
								"type": "t_string_storage"
							},
							{
								"astId": 68,
								"contract": "contracts/_Database3.sol:MedicalRecords",
								"label": "SP",
								"offset": 0,
								"slot": "1",
								"type": "t_uint256"
							},
							{
								"astId": 70,
								"contract": "contracts/_Database3.sol:MedicalRecords",
								"label": "DP",
								"offset": 0,
								"slot": "2",
								"type": "t_uint256"
							},
							{
								"astId": 72,
								"contract": "contracts/_Database3.sol:MedicalRecords",
								"label": "HB",
								"offset": 0,
								"slot": "3",
								"type": "t_uint256"
							}
						],
						"numberOfBytes": "128"
					},
					"t_struct(Patient)64_storage": {
						"encoding": "inplace",
						"label": "struct MedicalRecords.Patient",
						"members": [
							{
								"astId": 31,
								"contract": "contracts/_Database3.sol:MedicalRecords",
								"label": "name",
								"offset": 0,
								"slot": "0",
								"type": "t_string_storage"
							},
							{
								"astId": 33,
								"contract": "contracts/_Database3.sol:MedicalRecords",
								"label": "age",
								"offset": 0,
								"slot": "1",
								"type": "t_uint256"
							},
							{
								"astId": 35,
								"contract": "contracts/_Database3.sol:MedicalRecords",
								"label": "specialConditions",
								"offset": 0,
								"slot": "2",
								"type": "t_string_storage"
							},
							{
								"astId": 37,
								"contract": "contracts/_Database3.sol:MedicalRecords",
								"label": "bloodGroup",
								"offset": 0,
								"slot": "3",
								"type": "t_string_storage"
							},
							{
								"astId": 42,
								"contract": "contracts/_Database3.sol:MedicalRecords",
								"label": "allergies",
								"offset": 0,
								"slot": "4",
								"type": "t_mapping(t_string_memory_ptr,t_struct(Allergies)11_storage)"
							},
							{
								"astId": 46,
								"contract": "contracts/_Database3.sol:MedicalRecords",
								"label": "prescriptions",
								"offset": 0,
								"slot": "5",
								"type": "t_array(t_struct(Prescription)29_storage)dyn_storage"
							},
							{
								"astId": 51,
								"contract": "contracts/_Database3.sol:MedicalRecords",
								"label": "bloodPressures",
								"offset": 0,
								"slot": "6",
								"type": "t_mapping(t_uint256,t_struct(BloodPressure)73_storage)"
							},
							{
								"astId": 56,
								"contract": "contracts/_Database3.sol:MedicalRecords",
								"label": "sugars",
								"offset": 0,
								"slot": "7",
								"type": "t_mapping(t_uint256,t_struct(Sugar)82_storage)"
							},
							{
								"astId": 61,
								"contract": "contracts/_Database3.sol:MedicalRecords",
								"label": "vaccines",
								"offset": 0,
								"slot": "8",
								"type": "t_mapping(t_uint256,t_struct(Vaccine)16_storage)"
							},
							{
								"astId": 63,
								"contract": "contracts/_Database3.sol:MedicalRecords",
								"label": "vaccineCount",
								"offset": 0,
								"slot": "9",
								"type": "t_uint256"
							}
						],
						"numberOfBytes": "320"
					},
					"t_struct(Prescription)29_storage": {
						"encoding": "inplace",
						"label": "struct MedicalRecords.Prescription",
						"members": [
							{
								"astId": 18,
								"contract": "contracts/_Database3.sol:MedicalRecords",
								"label": "date",
								"offset": 0,
								"slot": "0",
								"type": "t_string_storage"
							},
							{
								"astId": 20,
								"contract": "contracts/_Database3.sol:MedicalRecords",
								"label": "doctorName",
								"offset": 0,
								"slot": "1",
								"type": "t_string_storage"
							},
							{
								"astId": 22,
								"contract": "contracts/_Database3.sol:MedicalRecords",
								"label": "interval",
								"offset": 0,
								"slot": "2",
								"type": "t_uint256"
							},
							{
								"astId": 24,
								"contract": "contracts/_Database3.sol:MedicalRecords",
								"label": "name",
								"offset": 0,
								"slot": "3",
								"type": "t_string_storage"
							},
							{
								"astId": 26,
								"contract": "contracts/_Database3.sol:MedicalRecords",
								"label": "description",
								"offset": 0,
								"slot": "4",
								"type": "t_string_storage"
							},
							{
								"astId": 28,
								"contract": "contracts/_Database3.sol:MedicalRecords",
								"label": "isVisible",
								"offset": 0,
								"slot": "5",
								"type": "t_bool"
							}
						],
						"numberOfBytes": "192"
					},
					"t_struct(Sugar)82_storage": {
						"encoding": "inplace",
						"label": "struct MedicalRecords.Sugar",
						"members": [
							{
								"astId": 75,
								"contract": "contracts/_Database3.sol:MedicalRecords",
								"label": "date",
								"offset": 0,
								"slot": "0",
								"type": "t_string_storage"
							},
							{
								"astId": 77,
								"contract": "contracts/_Database3.sol:MedicalRecords",
								"label": "fasting",
								"offset": 0,
								"slot": "1",
								"type": "t_bool"
							},
							{
								"astId": 79,
								"contract": "contracts/_Database3.sol:MedicalRecords",
								"label": "afterMeal",
								"offset": 1,
								"slot": "1",
								"type": "t_bool"
							},
							{
								"astId": 81,
								"contract": "contracts/_Database3.sol:MedicalRecords",
								"label": "level",
								"offset": 0,
								"slot": "2",
								"type": "t_uint256"
							}
						],
						"numberOfBytes": "96"
					},
					"t_struct(Vaccine)16_storage": {
						"encoding": "inplace",
						"label": "struct MedicalRecords.Vaccine",
						"members": [
							{
								"astId": 13,
								"contract": "contracts/_Database3.sol:MedicalRecords",
								"label": "name",
								"offset": 0,
								"slot": "0",
								"type": "t_string_storage"
							},
							{
								"astId": 15,
								"contract": "contracts/_Database3.sol:MedicalRecords",
								"label": "date",
								"offset": 0,
								"slot": "1",
								"type": "t_string_storage"
							}
						],
						"numberOfBytes": "64"
					},
					"t_uint256": {
						"encoding": "inplace",
						"label": "uint256",
						"numberOfBytes": "32"
					}
				}
			},
			"userdoc": {
				"kind": "user",
				"methods": {},
				"version": 1
			}
		}
	}
}