{
	"contracts/_Doctorstorage.sol": {
		"Doctor": {
			"abi": [
				{
					"inputs": [
						{
							"internalType": "string",
							"name": "_name",
							"type": "string"
						},
						{
							"internalType": "string",
							"name": "_doctorId",
							"type": "string"
						},
						{
							"internalType": "string",
							"name": "_hospitalName",
							"type": "string"
						},
						{
							"internalType": "string",
							"name": "_license",
							"type": "string"
						},
						{
							"internalType": "string",
							"name": "_description",
							"type": "string"
						},
						{
							"internalType": "address",
							"name": "_doctorAddress",
							"type": "address"
						}
					],
					"name": "addDoctor",
					"outputs": [],
					"stateMutability": "nonpayable",
					"type": "function"
				},
				{
					"inputs": [
						{
							"internalType": "address",
							"name": "_doctorAddress",
							"type": "address"
						}
					],
					"name": "getDoctorInfo",
					"outputs": [
						{
							"internalType": "string",
							"name": "",
							"type": "string"
						},
						{
							"internalType": "string",
							"name": "",
							"type": "string"
						},
						{
							"internalType": "string",
							"name": "",
							"type": "string"
						},
						{
							"internalType": "string",
							"name": "",
							"type": "string"
						},
						{
							"internalType": "string",
							"name": "",
							"type": "string"
						}
					],
					"stateMutability": "view",
					"type": "function"
				}
			],
			"devdoc": {
				"kind": "dev",
				"methods": {},
				"version": 1
			},
			"evm": {
				"assembly": "    /* \"contracts/_Doctorstorage.sol\":60:1210  contract Doctor {... */\n  mstore(0x40, 0x80)\n  callvalue\n  dup1\n  iszero\n  tag_1\n  jumpi\n  0x00\n  dup1\n  revert\ntag_1:\n  pop\n  dataSize(sub_0)\n  dup1\n  dataOffset(sub_0)\n  0x00\n  codecopy\n  0x00\n  return\nstop\n\nsub_0: assembly {\n        /* \"contracts/_Doctorstorage.sol\":60:1210  contract Doctor {... */\n      mstore(0x40, 0x80)\n      callvalue\n      dup1\n      iszero\n      tag_1\n      jumpi\n      0x00\n      dup1\n      revert\n    tag_1:\n      pop\n      jumpi(tag_2, lt(calldatasize, 0x04))\n      shr(0xe0, calldataload(0x00))\n      dup1\n      0x6f12fc35\n      eq\n      tag_3\n      jumpi\n      dup1\n      0xf7aebeee\n      eq\n      tag_4\n      jumpi\n    tag_2:\n      0x00\n      dup1\n      revert\n        /* \"contracts/_Doctorstorage.sol\":705:1207  function getDoctorInfo(address _doctorAddress)... */\n    tag_3:\n      tag_5\n      0x04\n      dup1\n      calldatasize\n      sub\n      dup2\n      add\n      swap1\n      tag_6\n      swap2\n      swap1\n      tag_7\n      jump\t// in\n    tag_6:\n      tag_8\n      jump\t// in\n    tag_5:\n      mload(0x40)\n      tag_9\n      swap6\n      swap5\n      swap4\n      swap3\n      swap2\n      swap1\n      tag_10\n      jump\t// in\n    tag_9:\n      mload(0x40)\n      dup1\n      swap2\n      sub\n      swap1\n      return\n        /* \"contracts/_Doctorstorage.sol\":336:697  function addDoctor(... */\n    tag_4:\n      tag_11\n      0x04\n      dup1\n      calldatasize\n      sub\n      dup2\n      add\n      swap1\n      tag_12\n      swap2\n      swap1\n      tag_13\n      jump\t// in\n    tag_12:\n      tag_14\n      jump\t// in\n    tag_11:\n      stop\n        /* \"contracts/_Doctorstorage.sol\":705:1207  function getDoctorInfo(address _doctorAddress)... */\n    tag_8:\n        /* \"contracts/_Doctorstorage.sol\":814:827  string memory */\n      0x60\n        /* \"contracts/_Doctorstorage.sol\":842:855  string memory */\n      dup1\n        /* \"contracts/_Doctorstorage.sol\":870:883  string memory */\n      0x60\n        /* \"contracts/_Doctorstorage.sol\":898:911  string memory */\n      dup1\n        /* \"contracts/_Doctorstorage.sol\":926:939  string memory */\n      0x60\n        /* \"contracts/_Doctorstorage.sol\":967:992  DoctorInfo storage doctor */\n      0x00\n        /* \"contracts/_Doctorstorage.sol\":995:1002  doctors */\n      dup1\n        /* \"contracts/_Doctorstorage.sol\":995:1018  doctors[_doctorAddress] */\n      0x00\n        /* \"contracts/_Doctorstorage.sol\":1003:1017  _doctorAddress */\n      dup9\n        /* \"contracts/_Doctorstorage.sol\":995:1018  doctors[_doctorAddress] */\n      0xffffffffffffffffffffffffffffffffffffffff\n      and\n      0xffffffffffffffffffffffffffffffffffffffff\n      and\n      dup2\n      mstore\n      0x20\n      add\n      swap1\n      dup2\n      mstore\n      0x20\n      add\n      0x00\n      keccak256\n        /* \"contracts/_Doctorstorage.sol\":967:1018  DoctorInfo storage doctor = doctors[_doctorAddress] */\n      swap1\n      pop\n        /* \"contracts/_Doctorstorage.sol\":1051:1057  doctor */\n      dup1\n        /* \"contracts/_Doctorstorage.sol\":1051:1062  doctor.name */\n      0x00\n      add\n        /* \"contracts/_Doctorstorage.sol\":1077:1083  doctor */\n      dup2\n        /* \"contracts/_Doctorstorage.sol\":1077:1092  doctor.doctorId */\n      0x01\n      add\n        /* \"contracts/_Doctorstorage.sol\":1107:1113  doctor */\n      dup3\n        /* \"contracts/_Doctorstorage.sol\":1107:1126  doctor.hospitalName */\n      0x02\n      add\n        /* \"contracts/_Doctorstorage.sol\":1141:1147  doctor */\n      dup4\n        /* \"contracts/_Doctorstorage.sol\":1141:1155  doctor.license */\n      0x03\n      add\n        /* \"contracts/_Doctorstorage.sol\":1170:1176  doctor */\n      dup5\n        /* \"contracts/_Doctorstorage.sol\":1170:1188  doctor.description */\n      0x04\n      add\n        /* \"contracts/_Doctorstorage.sol\":1029:1199  return (... */\n      dup5\n      dup1\n      sload\n      tag_16\n      swap1\n      tag_17\n      jump\t// in\n    tag_16:\n      dup1\n      0x1f\n      add\n      0x20\n      dup1\n      swap2\n      div\n      mul\n      0x20\n      add\n      mload(0x40)\n      swap1\n      dup2\n      add\n      0x40\n      mstore\n      dup1\n      swap3\n      swap2\n      swap1\n      dup2\n      dup2\n      mstore\n      0x20\n      add\n      dup3\n      dup1\n      sload\n      tag_18\n      swap1\n      tag_17\n      jump\t// in\n    tag_18:\n      dup1\n      iszero\n      tag_19\n      jumpi\n      dup1\n      0x1f\n      lt\n      tag_20\n      jumpi\n      0x0100\n      dup1\n      dup4\n      sload\n      div\n      mul\n      dup4\n      mstore\n      swap2\n      0x20\n      add\n      swap2\n      jump(tag_19)\n    tag_20:\n      dup3\n      add\n      swap2\n      swap1\n      0x00\n      mstore\n      keccak256(0x00, 0x20)\n      swap1\n    tag_21:\n      dup2\n      sload\n      dup2\n      mstore\n      swap1\n      0x01\n      add\n      swap1\n      0x20\n      add\n      dup1\n      dup4\n      gt\n      tag_21\n      jumpi\n      dup3\n      swap1\n      sub\n      0x1f\n      and\n      dup3\n      add\n      swap2\n    tag_19:\n      pop\n      pop\n      pop\n      pop\n      pop\n      swap5\n      pop\n      dup4\n      dup1\n      sload\n      tag_22\n      swap1\n      tag_17\n      jump\t// in\n    tag_22:\n      dup1\n      0x1f\n      add\n      0x20\n      dup1\n      swap2\n      div\n      mul\n      0x20\n      add\n      mload(0x40)\n      swap1\n      dup2\n      add\n      0x40\n      mstore\n      dup1\n      swap3\n      swap2\n      swap1\n      dup2\n      dup2\n      mstore\n      0x20\n      add\n      dup3\n      dup1\n      sload\n      tag_23\n      swap1\n      tag_17\n      jump\t// in\n    tag_23:\n      dup1\n      iszero\n      tag_24\n      jumpi\n      dup1\n      0x1f\n      lt\n      tag_25\n      jumpi\n      0x0100\n      dup1\n      dup4\n      sload\n      div\n      mul\n      dup4\n      mstore\n      swap2\n      0x20\n      add\n      swap2\n      jump(tag_24)\n    tag_25:\n      dup3\n      add\n      swap2\n      swap1\n      0x00\n      mstore\n      keccak256(0x00, 0x20)\n      swap1\n    tag_26:\n      dup2\n      sload\n      dup2\n      mstore\n      swap1\n      0x01\n      add\n      swap1\n      0x20\n      add\n      dup1\n      dup4\n      gt\n      tag_26\n      jumpi\n      dup3\n      swap1\n      sub\n      0x1f\n      and\n      dup3\n      add\n      swap2\n    tag_24:\n      pop\n      pop\n      pop\n      pop\n      pop\n      swap4\n      pop\n      dup3\n      dup1\n      sload\n      tag_27\n      swap1\n      tag_17\n      jump\t// in\n    tag_27:\n      dup1\n      0x1f\n      add\n      0x20\n      dup1\n      swap2\n      div\n      mul\n      0x20\n      add\n      mload(0x40)\n      swap1\n      dup2\n      add\n      0x40\n      mstore\n      dup1\n      swap3\n      swap2\n      swap1\n      dup2\n      dup2\n      mstore\n      0x20\n      add\n      dup3\n      dup1\n      sload\n      tag_28\n      swap1\n      tag_17\n      jump\t// in\n    tag_28:\n      dup1\n      iszero\n      tag_29\n      jumpi\n      dup1\n      0x1f\n      lt\n      tag_30\n      jumpi\n      0x0100\n      dup1\n      dup4\n      sload\n      div\n      mul\n      dup4\n      mstore\n      swap2\n      0x20\n      add\n      swap2\n      jump(tag_29)\n    tag_30:\n      dup3\n      add\n      swap2\n      swap1\n      0x00\n      mstore\n      keccak256(0x00, 0x20)\n      swap1\n    tag_31:\n      dup2\n      sload\n      dup2\n      mstore\n      swap1\n      0x01\n      add\n      swap1\n      0x20\n      add\n      dup1\n      dup4\n      gt\n      tag_31\n      jumpi\n      dup3\n      swap1\n      sub\n      0x1f\n      and\n      dup3\n      add\n      swap2\n    tag_29:\n      pop\n      pop\n      pop\n      pop\n      pop\n      swap3\n      pop\n      dup2\n      dup1\n      sload\n      tag_32\n      swap1\n      tag_17\n      jump\t// in\n    tag_32:\n      dup1\n      0x1f\n      add\n      0x20\n      dup1\n      swap2\n      div\n      mul\n      0x20\n      add\n      mload(0x40)\n      swap1\n      dup2\n      add\n      0x40\n      mstore\n      dup1\n      swap3\n      swap2\n      swap1\n      dup2\n      dup2\n      mstore\n      0x20\n      add\n      dup3\n      dup1\n      sload\n      tag_33\n      swap1\n      tag_17\n      jump\t// in\n    tag_33:\n      dup1\n      iszero\n      tag_34\n      jumpi\n      dup1\n      0x1f\n      lt\n      tag_35\n      jumpi\n      0x0100\n      dup1\n      dup4\n      sload\n      div\n      mul\n      dup4\n      mstore\n      swap2\n      0x20\n      add\n      swap2\n      jump(tag_34)\n    tag_35:\n      dup3\n      add\n      swap2\n      swap1\n      0x00\n      mstore\n      keccak256(0x00, 0x20)\n      swap1\n    tag_36:\n      dup2\n      sload\n      dup2\n      mstore\n      swap1\n      0x01\n      add\n      swap1\n      0x20\n      add\n      dup1\n      dup4\n      gt\n      tag_36\n      jumpi\n      dup3\n      swap1\n      sub\n      0x1f\n      and\n      dup3\n      add\n      swap2\n    tag_34:\n      pop\n      pop\n      pop\n      pop\n      pop\n      swap2\n      pop\n      dup1\n      dup1\n      sload\n      tag_37\n      swap1\n      tag_17\n      jump\t// in\n    tag_37:\n      dup1\n      0x1f\n      add\n      0x20\n      dup1\n      swap2\n      div\n      mul\n      0x20\n      add\n      mload(0x40)\n      swap1\n      dup2\n      add\n      0x40\n      mstore\n      dup1\n      swap3\n      swap2\n      swap1\n      dup2\n      dup2\n      mstore\n      0x20\n      add\n      dup3\n      dup1\n      sload\n      tag_38\n      swap1\n      tag_17\n      jump\t// in\n    tag_38:\n      dup1\n      iszero\n      tag_39\n      jumpi\n      dup1\n      0x1f\n      lt\n      tag_40\n      jumpi\n      0x0100\n      dup1\n      dup4\n      sload\n      div\n      mul\n      dup4\n      mstore\n      swap2\n      0x20\n      add\n      swap2\n      jump(tag_39)\n    tag_40:\n      dup3\n      add\n      swap2\n      swap1\n      0x00\n      mstore\n      keccak256(0x00, 0x20)\n      swap1\n    tag_41:\n      dup2\n      sload\n      dup2\n      mstore\n      swap1\n      0x01\n      add\n      swap1\n      0x20\n      add\n      dup1\n      dup4\n      gt\n      tag_41\n      jumpi\n      dup3\n      swap1\n      sub\n      0x1f\n      and\n      dup3\n      add\n      swap2\n    tag_39:\n      pop\n      pop\n      pop\n      pop\n      pop\n      swap1\n      pop\n      swap6\n      pop\n      swap6\n      pop\n      swap6\n      pop\n      swap6\n      pop\n      swap6\n      pop\n      pop\n        /* \"contracts/_Doctorstorage.sol\":705:1207  function getDoctorInfo(address _doctorAddress)... */\n      swap2\n      swap4\n      swap6\n      swap1\n      swap3\n      swap5\n      pop\n      jump\t// out\n        /* \"contracts/_Doctorstorage.sol\":336:697  function addDoctor(... */\n    tag_14:\n        /* \"contracts/_Doctorstorage.sol\":607:689  DoctorInfo(_name, _doctorId, _hospitalName, _license, _description,_doctorAddress) */\n      mload(0x40)\n      dup1\n      0xc0\n      add\n      0x40\n      mstore\n      dup1\n        /* \"contracts/_Doctorstorage.sol\":618:623  _name */\n      dup8\n        /* \"contracts/_Doctorstorage.sol\":607:689  DoctorInfo(_name, _doctorId, _hospitalName, _license, _description,_doctorAddress) */\n      dup2\n      mstore\n      0x20\n      add\n        /* \"contracts/_Doctorstorage.sol\":625:634  _doctorId */\n      dup7\n        /* \"contracts/_Doctorstorage.sol\":607:689  DoctorInfo(_name, _doctorId, _hospitalName, _license, _description,_doctorAddress) */\n      dup2\n      mstore\n      0x20\n      add\n        /* \"contracts/_Doctorstorage.sol\":636:649  _hospitalName */\n      dup6\n        /* \"contracts/_Doctorstorage.sol\":607:689  DoctorInfo(_name, _doctorId, _hospitalName, _license, _description,_doctorAddress) */\n      dup2\n      mstore\n      0x20\n      add\n        /* \"contracts/_Doctorstorage.sol\":651:659  _license */\n      dup5\n        /* \"contracts/_Doctorstorage.sol\":607:689  DoctorInfo(_name, _doctorId, _hospitalName, _license, _description,_doctorAddress) */\n      dup2\n      mstore\n      0x20\n      add\n        /* \"contracts/_Doctorstorage.sol\":661:673  _description */\n      dup4\n        /* \"contracts/_Doctorstorage.sol\":607:689  DoctorInfo(_name, _doctorId, _hospitalName, _license, _description,_doctorAddress) */\n      dup2\n      mstore\n      0x20\n      add\n        /* \"contracts/_Doctorstorage.sol\":674:688  _doctorAddress */\n      dup3\n        /* \"contracts/_Doctorstorage.sol\":607:689  DoctorInfo(_name, _doctorId, _hospitalName, _license, _description,_doctorAddress) */\n      0xffffffffffffffffffffffffffffffffffffffff\n      and\n      dup2\n      mstore\n      pop\n        /* \"contracts/_Doctorstorage.sol\":585:592  doctors */\n      0x00\n        /* \"contracts/_Doctorstorage.sol\":585:604  doctors[msg.sender] */\n      dup1\n        /* \"contracts/_Doctorstorage.sol\":593:603  msg.sender */\n      caller\n        /* \"contracts/_Doctorstorage.sol\":585:604  doctors[msg.sender] */\n      0xffffffffffffffffffffffffffffffffffffffff\n      and\n      0xffffffffffffffffffffffffffffffffffffffff\n      and\n      dup2\n      mstore\n      0x20\n      add\n      swap1\n      dup2\n      mstore\n      0x20\n      add\n      0x00\n      keccak256\n        /* \"contracts/_Doctorstorage.sol\":585:689  doctors[msg.sender] = DoctorInfo(_name, _doctorId, _hospitalName, _license, _description,_doctorAddress) */\n      0x00\n      dup3\n      add\n      mload\n      dup2\n      0x00\n      add\n      swap1\n      dup2\n      tag_43\n      swap2\n      swap1\n      tag_44\n      jump\t// in\n    tag_43:\n      pop\n      0x20\n      dup3\n      add\n      mload\n      dup2\n      0x01\n      add\n      swap1\n      dup2\n      tag_45\n      swap2\n      swap1\n      tag_44\n      jump\t// in\n    tag_45:\n      pop\n      0x40\n      dup3\n      add\n      mload\n      dup2\n      0x02\n      add\n      swap1\n      dup2\n      tag_46\n      swap2\n      swap1\n      tag_44\n      jump\t// in\n    tag_46:\n      pop\n      0x60\n      dup3\n      add\n      mload\n      dup2\n      0x03\n      add\n      swap1\n      dup2\n      tag_47\n      swap2\n      swap1\n      tag_44\n      jump\t// in\n    tag_47:\n      pop\n      0x80\n      dup3\n      add\n      mload\n      dup2\n      0x04\n      add\n      swap1\n      dup2\n      tag_48\n      swap2\n      swap1\n      tag_44\n      jump\t// in\n    tag_48:\n      pop\n      0xa0\n      dup3\n      add\n      mload\n      dup2\n      0x05\n      add\n      exp(0x0100, 0x00)\n      dup2\n      sload\n      dup2\n      0xffffffffffffffffffffffffffffffffffffffff\n      mul\n      not\n      and\n      swap1\n      dup4\n      0xffffffffffffffffffffffffffffffffffffffff\n      and\n      mul\n      or\n      swap1\n      sstore\n      pop\n      swap1\n      pop\n      pop\n        /* \"contracts/_Doctorstorage.sol\":336:697  function addDoctor(... */\n      pop\n      pop\n      pop\n      pop\n      pop\n      pop\n      jump\t// out\n        /* \"#utility.yul\":7:82   */\n    tag_49:\n        /* \"#utility.yul\":40:46   */\n      0x00\n        /* \"#utility.yul\":73:75   */\n      0x40\n        /* \"#utility.yul\":67:76   */\n      mload\n        /* \"#utility.yul\":57:76   */\n      swap1\n      pop\n        /* \"#utility.yul\":7:82   */\n      swap1\n      jump\t// out\n        /* \"#utility.yul\":88:205   */\n    tag_50:\n        /* \"#utility.yul\":197:198   */\n      0x00\n        /* \"#utility.yul\":194:195   */\n      dup1\n        /* \"#utility.yul\":187:199   */\n      revert\n        /* \"#utility.yul\":211:328   */\n    tag_51:\n        /* \"#utility.yul\":320:321   */\n      0x00\n        /* \"#utility.yul\":317:318   */\n      dup1\n        /* \"#utility.yul\":310:322   */\n      revert\n        /* \"#utility.yul\":334:460   */\n    tag_52:\n        /* \"#utility.yul\":371:378   */\n      0x00\n        /* \"#utility.yul\":411:453   */\n      0xffffffffffffffffffffffffffffffffffffffff\n        /* \"#utility.yul\":404:409   */\n      dup3\n        /* \"#utility.yul\":400:454   */\n      and\n        /* \"#utility.yul\":389:454   */\n      swap1\n      pop\n        /* \"#utility.yul\":334:460   */\n      swap2\n      swap1\n      pop\n      jump\t// out\n        /* \"#utility.yul\":466:562   */\n    tag_53:\n        /* \"#utility.yul\":503:510   */\n      0x00\n        /* \"#utility.yul\":532:556   */\n      tag_93\n        /* \"#utility.yul\":550:555   */\n      dup3\n        /* \"#utility.yul\":532:556   */\n      tag_52\n      jump\t// in\n    tag_93:\n        /* \"#utility.yul\":521:556   */\n      swap1\n      pop\n        /* \"#utility.yul\":466:562   */\n      swap2\n      swap1\n      pop\n      jump\t// out\n        /* \"#utility.yul\":568:690   */\n    tag_54:\n        /* \"#utility.yul\":641:665   */\n      tag_95\n        /* \"#utility.yul\":659:664   */\n      dup2\n        /* \"#utility.yul\":641:665   */\n      tag_53\n      jump\t// in\n    tag_95:\n        /* \"#utility.yul\":634:639   */\n      dup2\n        /* \"#utility.yul\":631:666   */\n      eq\n        /* \"#utility.yul\":621:684   */\n      tag_96\n      jumpi\n        /* \"#utility.yul\":680:681   */\n      0x00\n        /* \"#utility.yul\":677:678   */\n      dup1\n        /* \"#utility.yul\":670:682   */\n      revert\n        /* \"#utility.yul\":621:684   */\n    tag_96:\n        /* \"#utility.yul\":568:690   */\n      pop\n      jump\t// out\n        /* \"#utility.yul\":696:835   */\n    tag_55:\n        /* \"#utility.yul\":742:747   */\n      0x00\n        /* \"#utility.yul\":780:786   */\n      dup2\n        /* \"#utility.yul\":767:787   */\n      calldataload\n        /* \"#utility.yul\":758:787   */\n      swap1\n      pop\n        /* \"#utility.yul\":796:829   */\n      tag_98\n        /* \"#utility.yul\":823:828   */\n      dup2\n        /* \"#utility.yul\":796:829   */\n      tag_54\n      jump\t// in\n    tag_98:\n        /* \"#utility.yul\":696:835   */\n      swap3\n      swap2\n      pop\n      pop\n      jump\t// out\n        /* \"#utility.yul\":841:1170   */\n    tag_7:\n        /* \"#utility.yul\":900:906   */\n      0x00\n        /* \"#utility.yul\":949:951   */\n      0x20\n        /* \"#utility.yul\":937:946   */\n      dup3\n        /* \"#utility.yul\":928:935   */\n      dup5\n        /* \"#utility.yul\":924:947   */\n      sub\n        /* \"#utility.yul\":920:952   */\n      slt\n        /* \"#utility.yul\":917:1036   */\n      iszero\n      tag_100\n      jumpi\n        /* \"#utility.yul\":955:1034   */\n      tag_101\n      tag_50\n      jump\t// in\n    tag_101:\n        /* \"#utility.yul\":917:1036   */\n    tag_100:\n        /* \"#utility.yul\":1075:1076   */\n      0x00\n        /* \"#utility.yul\":1100:1153   */\n      tag_102\n        /* \"#utility.yul\":1145:1152   */\n      dup5\n        /* \"#utility.yul\":1136:1142   */\n      dup3\n        /* \"#utility.yul\":1125:1134   */\n      dup6\n        /* \"#utility.yul\":1121:1143   */\n      add\n        /* \"#utility.yul\":1100:1153   */\n      tag_55\n      jump\t// in\n    tag_102:\n        /* \"#utility.yul\":1090:1153   */\n      swap2\n      pop\n        /* \"#utility.yul\":1046:1163   */\n      pop\n        /* \"#utility.yul\":841:1170   */\n      swap3\n      swap2\n      pop\n      pop\n      jump\t// out\n        /* \"#utility.yul\":1176:1275   */\n    tag_56:\n        /* \"#utility.yul\":1228:1234   */\n      0x00\n        /* \"#utility.yul\":1262:1267   */\n      dup2\n        /* \"#utility.yul\":1256:1268   */\n      mload\n        /* \"#utility.yul\":1246:1268   */\n      swap1\n      pop\n        /* \"#utility.yul\":1176:1275   */\n      swap2\n      swap1\n      pop\n      jump\t// out\n        /* \"#utility.yul\":1281:1450   */\n    tag_57:\n        /* \"#utility.yul\":1365:1376   */\n      0x00\n        /* \"#utility.yul\":1399:1405   */\n      dup3\n        /* \"#utility.yul\":1394:1397   */\n      dup3\n        /* \"#utility.yul\":1387:1406   */\n      mstore\n        /* \"#utility.yul\":1439:1443   */\n      0x20\n        /* \"#utility.yul\":1434:1437   */\n      dup3\n        /* \"#utility.yul\":1430:1444   */\n      add\n        /* \"#utility.yul\":1415:1444   */\n      swap1\n      pop\n        /* \"#utility.yul\":1281:1450   */\n      swap3\n      swap2\n      pop\n      pop\n      jump\t// out\n        /* \"#utility.yul\":1456:1702   */\n    tag_58:\n        /* \"#utility.yul\":1537:1538   */\n      0x00\n        /* \"#utility.yul\":1547:1660   */\n    tag_106:\n        /* \"#utility.yul\":1561:1567   */\n      dup4\n        /* \"#utility.yul\":1558:1559   */\n      dup2\n        /* \"#utility.yul\":1555:1568   */\n      lt\n        /* \"#utility.yul\":1547:1660   */\n      iszero\n      tag_108\n      jumpi\n        /* \"#utility.yul\":1646:1647   */\n      dup1\n        /* \"#utility.yul\":1641:1644   */\n      dup3\n        /* \"#utility.yul\":1637:1648   */\n      add\n        /* \"#utility.yul\":1631:1649   */\n      mload\n        /* \"#utility.yul\":1627:1628   */\n      dup2\n        /* \"#utility.yul\":1622:1625   */\n      dup5\n        /* \"#utility.yul\":1618:1629   */\n      add\n        /* \"#utility.yul\":1611:1650   */\n      mstore\n        /* \"#utility.yul\":1583:1585   */\n      0x20\n        /* \"#utility.yul\":1580:1581   */\n      dup2\n        /* \"#utility.yul\":1576:1586   */\n      add\n        /* \"#utility.yul\":1571:1586   */\n      swap1\n      pop\n        /* \"#utility.yul\":1547:1660   */\n      jump(tag_106)\n    tag_108:\n        /* \"#utility.yul\":1694:1695   */\n      0x00\n        /* \"#utility.yul\":1685:1691   */\n      dup5\n        /* \"#utility.yul\":1680:1683   */\n      dup5\n        /* \"#utility.yul\":1676:1692   */\n      add\n        /* \"#utility.yul\":1669:1696   */\n      mstore\n        /* \"#utility.yul\":1518:1702   */\n      pop\n        /* \"#utility.yul\":1456:1702   */\n      pop\n      pop\n      pop\n      jump\t// out\n        /* \"#utility.yul\":1708:1810   */\n    tag_59:\n        /* \"#utility.yul\":1749:1755   */\n      0x00\n        /* \"#utility.yul\":1800:1802   */\n      0x1f\n        /* \"#utility.yul\":1796:1803   */\n      not\n        /* \"#utility.yul\":1791:1793   */\n      0x1f\n        /* \"#utility.yul\":1784:1789   */\n      dup4\n        /* \"#utility.yul\":1780:1794   */\n      add\n        /* \"#utility.yul\":1776:1804   */\n      and\n        /* \"#utility.yul\":1766:1804   */\n      swap1\n      pop\n        /* \"#utility.yul\":1708:1810   */\n      swap2\n      swap1\n      pop\n      jump\t// out\n        /* \"#utility.yul\":1816:2193   */\n    tag_60:\n        /* \"#utility.yul\":1904:1907   */\n      0x00\n        /* \"#utility.yul\":1932:1971   */\n      tag_111\n        /* \"#utility.yul\":1965:1970   */\n      dup3\n        /* \"#utility.yul\":1932:1971   */\n      tag_56\n      jump\t// in\n    tag_111:\n        /* \"#utility.yul\":1987:2058   */\n      tag_112\n        /* \"#utility.yul\":2051:2057   */\n      dup2\n        /* \"#utility.yul\":2046:2049   */\n      dup6\n        /* \"#utility.yul\":1987:2058   */\n      tag_57\n      jump\t// in\n    tag_112:\n        /* \"#utility.yul\":1980:2058   */\n      swap4\n      pop\n        /* \"#utility.yul\":2067:2132   */\n      tag_113\n        /* \"#utility.yul\":2125:2131   */\n      dup2\n        /* \"#utility.yul\":2120:2123   */\n      dup6\n        /* \"#utility.yul\":2113:2117   */\n      0x20\n        /* \"#utility.yul\":2106:2111   */\n      dup7\n        /* \"#utility.yul\":2102:2118   */\n      add\n        /* \"#utility.yul\":2067:2132   */\n      tag_58\n      jump\t// in\n    tag_113:\n        /* \"#utility.yul\":2157:2186   */\n      tag_114\n        /* \"#utility.yul\":2179:2185   */\n      dup2\n        /* \"#utility.yul\":2157:2186   */\n      tag_59\n      jump\t// in\n    tag_114:\n        /* \"#utility.yul\":2152:2155   */\n      dup5\n        /* \"#utility.yul\":2148:2187   */\n      add\n        /* \"#utility.yul\":2141:2187   */\n      swap2\n      pop\n        /* \"#utility.yul\":1908:2193   */\n      pop\n        /* \"#utility.yul\":1816:2193   */\n      swap3\n      swap2\n      pop\n      pop\n      jump\t// out\n        /* \"#utility.yul\":2199:3318   */\n    tag_10:\n        /* \"#utility.yul\":2504:2508   */\n      0x00\n        /* \"#utility.yul\":2542:2545   */\n      0xa0\n        /* \"#utility.yul\":2531:2540   */\n      dup3\n        /* \"#utility.yul\":2527:2546   */\n      add\n        /* \"#utility.yul\":2519:2546   */\n      swap1\n      pop\n        /* \"#utility.yul\":2592:2601   */\n      dup2\n        /* \"#utility.yul\":2586:2590   */\n      dup2\n        /* \"#utility.yul\":2582:2602   */\n      sub\n        /* \"#utility.yul\":2578:2579   */\n      0x00\n        /* \"#utility.yul\":2567:2576   */\n      dup4\n        /* \"#utility.yul\":2563:2580   */\n      add\n        /* \"#utility.yul\":2556:2603   */\n      mstore\n        /* \"#utility.yul\":2620:2698   */\n      tag_116\n        /* \"#utility.yul\":2693:2697   */\n      dup2\n        /* \"#utility.yul\":2684:2690   */\n      dup9\n        /* \"#utility.yul\":2620:2698   */\n      tag_60\n      jump\t// in\n    tag_116:\n        /* \"#utility.yul\":2612:2698   */\n      swap1\n      pop\n        /* \"#utility.yul\":2745:2754   */\n      dup2\n        /* \"#utility.yul\":2739:2743   */\n      dup2\n        /* \"#utility.yul\":2735:2755   */\n      sub\n        /* \"#utility.yul\":2730:2732   */\n      0x20\n        /* \"#utility.yul\":2719:2728   */\n      dup4\n        /* \"#utility.yul\":2715:2733   */\n      add\n        /* \"#utility.yul\":2708:2756   */\n      mstore\n        /* \"#utility.yul\":2773:2851   */\n      tag_117\n        /* \"#utility.yul\":2846:2850   */\n      dup2\n        /* \"#utility.yul\":2837:2843   */\n      dup8\n        /* \"#utility.yul\":2773:2851   */\n      tag_60\n      jump\t// in\n    tag_117:\n        /* \"#utility.yul\":2765:2851   */\n      swap1\n      pop\n        /* \"#utility.yul\":2898:2907   */\n      dup2\n        /* \"#utility.yul\":2892:2896   */\n      dup2\n        /* \"#utility.yul\":2888:2908   */\n      sub\n        /* \"#utility.yul\":2883:2885   */\n      0x40\n        /* \"#utility.yul\":2872:2881   */\n      dup4\n        /* \"#utility.yul\":2868:2886   */\n      add\n        /* \"#utility.yul\":2861:2909   */\n      mstore\n        /* \"#utility.yul\":2926:3004   */\n      tag_118\n        /* \"#utility.yul\":2999:3003   */\n      dup2\n        /* \"#utility.yul\":2990:2996   */\n      dup7\n        /* \"#utility.yul\":2926:3004   */\n      tag_60\n      jump\t// in\n    tag_118:\n        /* \"#utility.yul\":2918:3004   */\n      swap1\n      pop\n        /* \"#utility.yul\":3051:3060   */\n      dup2\n        /* \"#utility.yul\":3045:3049   */\n      dup2\n        /* \"#utility.yul\":3041:3061   */\n      sub\n        /* \"#utility.yul\":3036:3038   */\n      0x60\n        /* \"#utility.yul\":3025:3034   */\n      dup4\n        /* \"#utility.yul\":3021:3039   */\n      add\n        /* \"#utility.yul\":3014:3062   */\n      mstore\n        /* \"#utility.yul\":3079:3157   */\n      tag_119\n        /* \"#utility.yul\":3152:3156   */\n      dup2\n        /* \"#utility.yul\":3143:3149   */\n      dup6\n        /* \"#utility.yul\":3079:3157   */\n      tag_60\n      jump\t// in\n    tag_119:\n        /* \"#utility.yul\":3071:3157   */\n      swap1\n      pop\n        /* \"#utility.yul\":3205:3214   */\n      dup2\n        /* \"#utility.yul\":3199:3203   */\n      dup2\n        /* \"#utility.yul\":3195:3215   */\n      sub\n        /* \"#utility.yul\":3189:3192   */\n      0x80\n        /* \"#utility.yul\":3178:3187   */\n      dup4\n        /* \"#utility.yul\":3174:3193   */\n      add\n        /* \"#utility.yul\":3167:3216   */\n      mstore\n        /* \"#utility.yul\":3233:3311   */\n      tag_120\n        /* \"#utility.yul\":3306:3310   */\n      dup2\n        /* \"#utility.yul\":3297:3303   */\n      dup5\n        /* \"#utility.yul\":3233:3311   */\n      tag_60\n      jump\t// in\n    tag_120:\n        /* \"#utility.yul\":3225:3311   */\n      swap1\n      pop\n        /* \"#utility.yul\":2199:3318   */\n      swap7\n      swap6\n      pop\n      pop\n      pop\n      pop\n      pop\n      pop\n      jump\t// out\n        /* \"#utility.yul\":3324:3441   */\n    tag_61:\n        /* \"#utility.yul\":3433:3434   */\n      0x00\n        /* \"#utility.yul\":3430:3431   */\n      dup1\n        /* \"#utility.yul\":3423:3435   */\n      revert\n        /* \"#utility.yul\":3447:3564   */\n    tag_62:\n        /* \"#utility.yul\":3556:3557   */\n      0x00\n        /* \"#utility.yul\":3553:3554   */\n      dup1\n        /* \"#utility.yul\":3546:3558   */\n      revert\n        /* \"#utility.yul\":3570:3750   */\n    tag_63:\n        /* \"#utility.yul\":3618:3695   */\n      0x4e487b7100000000000000000000000000000000000000000000000000000000\n        /* \"#utility.yul\":3615:3616   */\n      0x00\n        /* \"#utility.yul\":3608:3696   */\n      mstore\n        /* \"#utility.yul\":3715:3719   */\n      0x41\n        /* \"#utility.yul\":3712:3713   */\n      0x04\n        /* \"#utility.yul\":3705:3720   */\n      mstore\n        /* \"#utility.yul\":3739:3743   */\n      0x24\n        /* \"#utility.yul\":3736:3737   */\n      0x00\n        /* \"#utility.yul\":3729:3744   */\n      revert\n        /* \"#utility.yul\":3756:4037   */\n    tag_64:\n        /* \"#utility.yul\":3839:3866   */\n      tag_125\n        /* \"#utility.yul\":3861:3865   */\n      dup3\n        /* \"#utility.yul\":3839:3866   */\n      tag_59\n      jump\t// in\n    tag_125:\n        /* \"#utility.yul\":3831:3837   */\n      dup2\n        /* \"#utility.yul\":3827:3867   */\n      add\n        /* \"#utility.yul\":3969:3975   */\n      dup2\n        /* \"#utility.yul\":3957:3967   */\n      dup2\n        /* \"#utility.yul\":3954:3976   */\n      lt\n        /* \"#utility.yul\":3933:3951   */\n      0xffffffffffffffff\n        /* \"#utility.yul\":3921:3931   */\n      dup3\n        /* \"#utility.yul\":3918:3952   */\n      gt\n        /* \"#utility.yul\":3915:3977   */\n      or\n        /* \"#utility.yul\":3912:4000   */\n      iszero\n      tag_126\n      jumpi\n        /* \"#utility.yul\":3980:3998   */\n      tag_127\n      tag_63\n      jump\t// in\n    tag_127:\n        /* \"#utility.yul\":3912:4000   */\n    tag_126:\n        /* \"#utility.yul\":4020:4030   */\n      dup1\n        /* \"#utility.yul\":4016:4018   */\n      0x40\n        /* \"#utility.yul\":4009:4031   */\n      mstore\n        /* \"#utility.yul\":3799:4037   */\n      pop\n        /* \"#utility.yul\":3756:4037   */\n      pop\n      pop\n      jump\t// out\n        /* \"#utility.yul\":4043:4172   */\n    tag_65:\n        /* \"#utility.yul\":4077:4083   */\n      0x00\n        /* \"#utility.yul\":4104:4124   */\n      tag_129\n      tag_49\n      jump\t// in\n    tag_129:\n        /* \"#utility.yul\":4094:4124   */\n      swap1\n      pop\n        /* \"#utility.yul\":4133:4166   */\n      tag_130\n        /* \"#utility.yul\":4161:4165   */\n      dup3\n        /* \"#utility.yul\":4153:4159   */\n      dup3\n        /* \"#utility.yul\":4133:4166   */\n      tag_64\n      jump\t// in\n    tag_130:\n        /* \"#utility.yul\":4043:4172   */\n      swap2\n      swap1\n      pop\n      jump\t// out\n        /* \"#utility.yul\":4178:4486   */\n    tag_66:\n        /* \"#utility.yul\":4240:4244   */\n      0x00\n        /* \"#utility.yul\":4330:4348   */\n      0xffffffffffffffff\n        /* \"#utility.yul\":4322:4328   */\n      dup3\n        /* \"#utility.yul\":4319:4349   */\n      gt\n        /* \"#utility.yul\":4316:4372   */\n      iszero\n      tag_132\n      jumpi\n        /* \"#utility.yul\":4352:4370   */\n      tag_133\n      tag_63\n      jump\t// in\n    tag_133:\n        /* \"#utility.yul\":4316:4372   */\n    tag_132:\n        /* \"#utility.yul\":4390:4419   */\n      tag_134\n        /* \"#utility.yul\":4412:4418   */\n      dup3\n        /* \"#utility.yul\":4390:4419   */\n      tag_59\n      jump\t// in\n    tag_134:\n        /* \"#utility.yul\":4382:4419   */\n      swap1\n      pop\n        /* \"#utility.yul\":4474:4478   */\n      0x20\n        /* \"#utility.yul\":4468:4472   */\n      dup2\n        /* \"#utility.yul\":4464:4479   */\n      add\n        /* \"#utility.yul\":4456:4479   */\n      swap1\n      pop\n        /* \"#utility.yul\":4178:4486   */\n      swap2\n      swap1\n      pop\n      jump\t// out\n        /* \"#utility.yul\":4492:4638   */\n    tag_67:\n        /* \"#utility.yul\":4589:4595   */\n      dup3\n        /* \"#utility.yul\":4584:4587   */\n      dup2\n        /* \"#utility.yul\":4579:4582   */\n      dup4\n        /* \"#utility.yul\":4566:4596   */\n      calldatacopy\n        /* \"#utility.yul\":4630:4631   */\n      0x00\n        /* \"#utility.yul\":4621:4627   */\n      dup4\n        /* \"#utility.yul\":4616:4619   */\n      dup4\n        /* \"#utility.yul\":4612:4628   */\n      add\n        /* \"#utility.yul\":4605:4632   */\n      mstore\n        /* \"#utility.yul\":4492:4638   */\n      pop\n      pop\n      pop\n      jump\t// out\n        /* \"#utility.yul\":4644:5069   */\n    tag_68:\n        /* \"#utility.yul\":4722:4727   */\n      0x00\n        /* \"#utility.yul\":4747:4813   */\n      tag_137\n        /* \"#utility.yul\":4763:4812   */\n      tag_138\n        /* \"#utility.yul\":4805:4811   */\n      dup5\n        /* \"#utility.yul\":4763:4812   */\n      tag_66\n      jump\t// in\n    tag_138:\n        /* \"#utility.yul\":4747:4813   */\n      tag_65\n      jump\t// in\n    tag_137:\n        /* \"#utility.yul\":4738:4813   */\n      swap1\n      pop\n        /* \"#utility.yul\":4836:4842   */\n      dup3\n        /* \"#utility.yul\":4829:4834   */\n      dup2\n        /* \"#utility.yul\":4822:4843   */\n      mstore\n        /* \"#utility.yul\":4874:4878   */\n      0x20\n        /* \"#utility.yul\":4867:4872   */\n      dup2\n        /* \"#utility.yul\":4863:4879   */\n      add\n        /* \"#utility.yul\":4912:4915   */\n      dup5\n        /* \"#utility.yul\":4903:4909   */\n      dup5\n        /* \"#utility.yul\":4898:4901   */\n      dup5\n        /* \"#utility.yul\":4894:4910   */\n      add\n        /* \"#utility.yul\":4891:4916   */\n      gt\n        /* \"#utility.yul\":4888:5000   */\n      iszero\n      tag_139\n      jumpi\n        /* \"#utility.yul\":4919:4998   */\n      tag_140\n      tag_62\n      jump\t// in\n    tag_140:\n        /* \"#utility.yul\":4888:5000   */\n    tag_139:\n        /* \"#utility.yul\":5009:5063   */\n      tag_141\n        /* \"#utility.yul\":5056:5062   */\n      dup5\n        /* \"#utility.yul\":5051:5054   */\n      dup3\n        /* \"#utility.yul\":5046:5049   */\n      dup6\n        /* \"#utility.yul\":5009:5063   */\n      tag_67\n      jump\t// in\n    tag_141:\n        /* \"#utility.yul\":4728:5069   */\n      pop\n        /* \"#utility.yul\":4644:5069   */\n      swap4\n      swap3\n      pop\n      pop\n      pop\n      jump\t// out\n        /* \"#utility.yul\":5089:5429   */\n    tag_69:\n        /* \"#utility.yul\":5145:5150   */\n      0x00\n        /* \"#utility.yul\":5194:5197   */\n      dup3\n        /* \"#utility.yul\":5187:5191   */\n      0x1f\n        /* \"#utility.yul\":5179:5185   */\n      dup4\n        /* \"#utility.yul\":5175:5192   */\n      add\n        /* \"#utility.yul\":5171:5198   */\n      slt\n        /* \"#utility.yul\":5161:5283   */\n      tag_143\n      jumpi\n        /* \"#utility.yul\":5202:5281   */\n      tag_144\n      tag_61\n      jump\t// in\n    tag_144:\n        /* \"#utility.yul\":5161:5283   */\n    tag_143:\n        /* \"#utility.yul\":5319:5325   */\n      dup2\n        /* \"#utility.yul\":5306:5326   */\n      calldataload\n        /* \"#utility.yul\":5344:5423   */\n      tag_145\n        /* \"#utility.yul\":5419:5422   */\n      dup5\n        /* \"#utility.yul\":5411:5417   */\n      dup3\n        /* \"#utility.yul\":5404:5408   */\n      0x20\n        /* \"#utility.yul\":5396:5402   */\n      dup7\n        /* \"#utility.yul\":5392:5409   */\n      add\n        /* \"#utility.yul\":5344:5423   */\n      tag_68\n      jump\t// in\n    tag_145:\n        /* \"#utility.yul\":5335:5423   */\n      swap2\n      pop\n        /* \"#utility.yul\":5151:5429   */\n      pop\n        /* \"#utility.yul\":5089:5429   */\n      swap3\n      swap2\n      pop\n      pop\n      jump\t// out\n        /* \"#utility.yul\":5435:7392   */\n    tag_13:\n        /* \"#utility.yul\":5589:5595   */\n      0x00\n        /* \"#utility.yul\":5597:5603   */\n      dup1\n        /* \"#utility.yul\":5605:5611   */\n      0x00\n        /* \"#utility.yul\":5613:5619   */\n      dup1\n        /* \"#utility.yul\":5621:5627   */\n      0x00\n        /* \"#utility.yul\":5629:5635   */\n      dup1\n        /* \"#utility.yul\":5678:5681   */\n      0xc0\n        /* \"#utility.yul\":5666:5675   */\n      dup8\n        /* \"#utility.yul\":5657:5664   */\n      dup10\n        /* \"#utility.yul\":5653:5676   */\n      sub\n        /* \"#utility.yul\":5649:5682   */\n      slt\n        /* \"#utility.yul\":5646:5766   */\n      iszero\n      tag_147\n      jumpi\n        /* \"#utility.yul\":5685:5764   */\n      tag_148\n      tag_50\n      jump\t// in\n    tag_148:\n        /* \"#utility.yul\":5646:5766   */\n    tag_147:\n        /* \"#utility.yul\":5833:5834   */\n      0x00\n        /* \"#utility.yul\":5822:5831   */\n      dup8\n        /* \"#utility.yul\":5818:5835   */\n      add\n        /* \"#utility.yul\":5805:5836   */\n      calldataload\n        /* \"#utility.yul\":5863:5881   */\n      0xffffffffffffffff\n        /* \"#utility.yul\":5855:5861   */\n      dup2\n        /* \"#utility.yul\":5852:5882   */\n      gt\n        /* \"#utility.yul\":5849:5966   */\n      iszero\n      tag_149\n      jumpi\n        /* \"#utility.yul\":5885:5964   */\n      tag_150\n      tag_51\n      jump\t// in\n    tag_150:\n        /* \"#utility.yul\":5849:5966   */\n    tag_149:\n        /* \"#utility.yul\":5990:6053   */\n      tag_151\n        /* \"#utility.yul\":6045:6052   */\n      dup10\n        /* \"#utility.yul\":6036:6042   */\n      dup3\n        /* \"#utility.yul\":6025:6034   */\n      dup11\n        /* \"#utility.yul\":6021:6043   */\n      add\n        /* \"#utility.yul\":5990:6053   */\n      tag_69\n      jump\t// in\n    tag_151:\n        /* \"#utility.yul\":5980:6053   */\n      swap7\n      pop\n        /* \"#utility.yul\":5776:6063   */\n      pop\n        /* \"#utility.yul\":6130:6132   */\n      0x20\n        /* \"#utility.yul\":6119:6128   */\n      dup8\n        /* \"#utility.yul\":6115:6133   */\n      add\n        /* \"#utility.yul\":6102:6134   */\n      calldataload\n        /* \"#utility.yul\":6161:6179   */\n      0xffffffffffffffff\n        /* \"#utility.yul\":6153:6159   */\n      dup2\n        /* \"#utility.yul\":6150:6180   */\n      gt\n        /* \"#utility.yul\":6147:6264   */\n      iszero\n      tag_152\n      jumpi\n        /* \"#utility.yul\":6183:6262   */\n      tag_153\n      tag_51\n      jump\t// in\n    tag_153:\n        /* \"#utility.yul\":6147:6264   */\n    tag_152:\n        /* \"#utility.yul\":6288:6351   */\n      tag_154\n        /* \"#utility.yul\":6343:6350   */\n      dup10\n        /* \"#utility.yul\":6334:6340   */\n      dup3\n        /* \"#utility.yul\":6323:6332   */\n      dup11\n        /* \"#utility.yul\":6319:6341   */\n      add\n        /* \"#utility.yul\":6288:6351   */\n      tag_69\n      jump\t// in\n    tag_154:\n        /* \"#utility.yul\":6278:6351   */\n      swap6\n      pop\n        /* \"#utility.yul\":6073:6361   */\n      pop\n        /* \"#utility.yul\":6428:6430   */\n      0x40\n        /* \"#utility.yul\":6417:6426   */\n      dup8\n        /* \"#utility.yul\":6413:6431   */\n      add\n        /* \"#utility.yul\":6400:6432   */\n      calldataload\n        /* \"#utility.yul\":6459:6477   */\n      0xffffffffffffffff\n        /* \"#utility.yul\":6451:6457   */\n      dup2\n        /* \"#utility.yul\":6448:6478   */\n      gt\n        /* \"#utility.yul\":6445:6562   */\n      iszero\n      tag_155\n      jumpi\n        /* \"#utility.yul\":6481:6560   */\n      tag_156\n      tag_51\n      jump\t// in\n    tag_156:\n        /* \"#utility.yul\":6445:6562   */\n    tag_155:\n        /* \"#utility.yul\":6586:6649   */\n      tag_157\n        /* \"#utility.yul\":6641:6648   */\n      dup10\n        /* \"#utility.yul\":6632:6638   */\n      dup3\n        /* \"#utility.yul\":6621:6630   */\n      dup11\n        /* \"#utility.yul\":6617:6639   */\n      add\n        /* \"#utility.yul\":6586:6649   */\n      tag_69\n      jump\t// in\n    tag_157:\n        /* \"#utility.yul\":6576:6649   */\n      swap5\n      pop\n        /* \"#utility.yul\":6371:6659   */\n      pop\n        /* \"#utility.yul\":6726:6728   */\n      0x60\n        /* \"#utility.yul\":6715:6724   */\n      dup8\n        /* \"#utility.yul\":6711:6729   */\n      add\n        /* \"#utility.yul\":6698:6730   */\n      calldataload\n        /* \"#utility.yul\":6757:6775   */\n      0xffffffffffffffff\n        /* \"#utility.yul\":6749:6755   */\n      dup2\n        /* \"#utility.yul\":6746:6776   */\n      gt\n        /* \"#utility.yul\":6743:6860   */\n      iszero\n      tag_158\n      jumpi\n        /* \"#utility.yul\":6779:6858   */\n      tag_159\n      tag_51\n      jump\t// in\n    tag_159:\n        /* \"#utility.yul\":6743:6860   */\n    tag_158:\n        /* \"#utility.yul\":6884:6947   */\n      tag_160\n        /* \"#utility.yul\":6939:6946   */\n      dup10\n        /* \"#utility.yul\":6930:6936   */\n      dup3\n        /* \"#utility.yul\":6919:6928   */\n      dup11\n        /* \"#utility.yul\":6915:6937   */\n      add\n        /* \"#utility.yul\":6884:6947   */\n      tag_69\n      jump\t// in\n    tag_160:\n        /* \"#utility.yul\":6874:6947   */\n      swap4\n      pop\n        /* \"#utility.yul\":6669:6957   */\n      pop\n        /* \"#utility.yul\":7024:7027   */\n      0x80\n        /* \"#utility.yul\":7013:7022   */\n      dup8\n        /* \"#utility.yul\":7009:7028   */\n      add\n        /* \"#utility.yul\":6996:7029   */\n      calldataload\n        /* \"#utility.yul\":7056:7074   */\n      0xffffffffffffffff\n        /* \"#utility.yul\":7048:7054   */\n      dup2\n        /* \"#utility.yul\":7045:7075   */\n      gt\n        /* \"#utility.yul\":7042:7159   */\n      iszero\n      tag_161\n      jumpi\n        /* \"#utility.yul\":7078:7157   */\n      tag_162\n      tag_51\n      jump\t// in\n    tag_162:\n        /* \"#utility.yul\":7042:7159   */\n    tag_161:\n        /* \"#utility.yul\":7183:7246   */\n      tag_163\n        /* \"#utility.yul\":7238:7245   */\n      dup10\n        /* \"#utility.yul\":7229:7235   */\n      dup3\n        /* \"#utility.yul\":7218:7227   */\n      dup11\n        /* \"#utility.yul\":7214:7236   */\n      add\n        /* \"#utility.yul\":7183:7246   */\n      tag_69\n      jump\t// in\n    tag_163:\n        /* \"#utility.yul\":7173:7246   */\n      swap3\n      pop\n        /* \"#utility.yul\":6967:7256   */\n      pop\n        /* \"#utility.yul\":7295:7298   */\n      0xa0\n        /* \"#utility.yul\":7322:7375   */\n      tag_164\n        /* \"#utility.yul\":7367:7374   */\n      dup10\n        /* \"#utility.yul\":7358:7364   */\n      dup3\n        /* \"#utility.yul\":7347:7356   */\n      dup11\n        /* \"#utility.yul\":7343:7365   */\n      add\n        /* \"#utility.yul\":7322:7375   */\n      tag_55\n      jump\t// in\n    tag_164:\n        /* \"#utility.yul\":7312:7375   */\n      swap2\n      pop\n        /* \"#utility.yul\":7266:7385   */\n      pop\n        /* \"#utility.yul\":5435:7392   */\n      swap3\n      swap6\n      pop\n      swap3\n      swap6\n      pop\n      swap3\n      swap6\n      jump\t// out\n        /* \"#utility.yul\":7398:7578   */\n    tag_70:\n        /* \"#utility.yul\":7446:7523   */\n      0x4e487b7100000000000000000000000000000000000000000000000000000000\n        /* \"#utility.yul\":7443:7444   */\n      0x00\n        /* \"#utility.yul\":7436:7524   */\n      mstore\n        /* \"#utility.yul\":7543:7547   */\n      0x22\n        /* \"#utility.yul\":7540:7541   */\n      0x04\n        /* \"#utility.yul\":7533:7548   */\n      mstore\n        /* \"#utility.yul\":7567:7571   */\n      0x24\n        /* \"#utility.yul\":7564:7565   */\n      0x00\n        /* \"#utility.yul\":7557:7572   */\n      revert\n        /* \"#utility.yul\":7584:7904   */\n    tag_17:\n        /* \"#utility.yul\":7628:7634   */\n      0x00\n        /* \"#utility.yul\":7665:7666   */\n      0x02\n        /* \"#utility.yul\":7659:7663   */\n      dup3\n        /* \"#utility.yul\":7655:7667   */\n      div\n        /* \"#utility.yul\":7645:7667   */\n      swap1\n      pop\n        /* \"#utility.yul\":7712:7713   */\n      0x01\n        /* \"#utility.yul\":7706:7710   */\n      dup3\n        /* \"#utility.yul\":7702:7714   */\n      and\n        /* \"#utility.yul\":7733:7751   */\n      dup1\n        /* \"#utility.yul\":7723:7804   */\n      tag_167\n      jumpi\n        /* \"#utility.yul\":7789:7793   */\n      0x7f\n        /* \"#utility.yul\":7781:7787   */\n      dup3\n        /* \"#utility.yul\":7777:7794   */\n      and\n        /* \"#utility.yul\":7767:7794   */\n      swap2\n      pop\n        /* \"#utility.yul\":7723:7804   */\n    tag_167:\n        /* \"#utility.yul\":7851:7853   */\n      0x20\n        /* \"#utility.yul\":7843:7849   */\n      dup3\n        /* \"#utility.yul\":7840:7854   */\n      lt\n        /* \"#utility.yul\":7820:7838   */\n      dup2\n        /* \"#utility.yul\":7817:7855   */\n      sub\n        /* \"#utility.yul\":7814:7898   */\n      tag_168\n      jumpi\n        /* \"#utility.yul\":7870:7888   */\n      tag_169\n      tag_70\n      jump\t// in\n    tag_169:\n        /* \"#utility.yul\":7814:7898   */\n    tag_168:\n        /* \"#utility.yul\":7635:7904   */\n      pop\n        /* \"#utility.yul\":7584:7904   */\n      swap2\n      swap1\n      pop\n      jump\t// out\n        /* \"#utility.yul\":7910:8051   */\n    tag_71:\n        /* \"#utility.yul\":7959:7963   */\n      0x00\n        /* \"#utility.yul\":7982:7985   */\n      dup2\n        /* \"#utility.yul\":7974:7985   */\n      swap1\n      pop\n        /* \"#utility.yul\":8005:8008   */\n      dup2\n        /* \"#utility.yul\":8002:8003   */\n      0x00\n        /* \"#utility.yul\":7995:8009   */\n      mstore\n        /* \"#utility.yul\":8039:8043   */\n      0x20\n        /* \"#utility.yul\":8036:8037   */\n      0x00\n        /* \"#utility.yul\":8026:8044   */\n      keccak256\n        /* \"#utility.yul\":8018:8044   */\n      swap1\n      pop\n        /* \"#utility.yul\":7910:8051   */\n      swap2\n      swap1\n      pop\n      jump\t// out\n        /* \"#utility.yul\":8057:8150   */\n    tag_72:\n        /* \"#utility.yul\":8094:8100   */\n      0x00\n        /* \"#utility.yul\":8141:8143   */\n      0x20\n        /* \"#utility.yul\":8136:8138   */\n      0x1f\n        /* \"#utility.yul\":8129:8134   */\n      dup4\n        /* \"#utility.yul\":8125:8139   */\n      add\n        /* \"#utility.yul\":8121:8144   */\n      div\n        /* \"#utility.yul\":8111:8144   */\n      swap1\n      pop\n        /* \"#utility.yul\":8057:8150   */\n      swap2\n      swap1\n      pop\n      jump\t// out\n        /* \"#utility.yul\":8156:8263   */\n    tag_73:\n        /* \"#utility.yul\":8200:8208   */\n      0x00\n        /* \"#utility.yul\":8250:8255   */\n      dup3\n        /* \"#utility.yul\":8244:8248   */\n      dup3\n        /* \"#utility.yul\":8240:8256   */\n      shl\n        /* \"#utility.yul\":8219:8256   */\n      swap1\n      pop\n        /* \"#utility.yul\":8156:8263   */\n      swap3\n      swap2\n      pop\n      pop\n      jump\t// out\n        /* \"#utility.yul\":8269:8662   */\n    tag_74:\n        /* \"#utility.yul\":8338:8344   */\n      0x00\n        /* \"#utility.yul\":8388:8389   */\n      0x08\n        /* \"#utility.yul\":8376:8386   */\n      dup4\n        /* \"#utility.yul\":8372:8390   */\n      mul\n        /* \"#utility.yul\":8411:8508   */\n      tag_174\n        /* \"#utility.yul\":8441:8507   */\n      0xffffffffffffffffffffffffffffffffffffffffffffffffffffffffffffffff\n        /* \"#utility.yul\":8430:8439   */\n      dup3\n        /* \"#utility.yul\":8411:8508   */\n      tag_73\n      jump\t// in\n    tag_174:\n        /* \"#utility.yul\":8529:8568   */\n      tag_175\n        /* \"#utility.yul\":8559:8567   */\n      dup7\n        /* \"#utility.yul\":8548:8557   */\n      dup4\n        /* \"#utility.yul\":8529:8568   */\n      tag_73\n      jump\t// in\n    tag_175:\n        /* \"#utility.yul\":8517:8568   */\n      swap6\n      pop\n        /* \"#utility.yul\":8601:8605   */\n      dup1\n        /* \"#utility.yul\":8597:8606   */\n      not\n        /* \"#utility.yul\":8590:8595   */\n      dup5\n        /* \"#utility.yul\":8586:8607   */\n      and\n        /* \"#utility.yul\":8577:8607   */\n      swap4\n      pop\n        /* \"#utility.yul\":8650:8654   */\n      dup1\n        /* \"#utility.yul\":8640:8648   */\n      dup7\n        /* \"#utility.yul\":8636:8655   */\n      and\n        /* \"#utility.yul\":8629:8634   */\n      dup5\n        /* \"#utility.yul\":8626:8656   */\n      or\n        /* \"#utility.yul\":8616:8656   */\n      swap3\n      pop\n        /* \"#utility.yul\":8345:8662   */\n      pop\n      pop\n        /* \"#utility.yul\":8269:8662   */\n      swap4\n      swap3\n      pop\n      pop\n      pop\n      jump\t// out\n        /* \"#utility.yul\":8668:8745   */\n    tag_75:\n        /* \"#utility.yul\":8705:8712   */\n      0x00\n        /* \"#utility.yul\":8734:8739   */\n      dup2\n        /* \"#utility.yul\":8723:8739   */\n      swap1\n      pop\n        /* \"#utility.yul\":8668:8745   */\n      swap2\n      swap1\n      pop\n      jump\t// out\n        /* \"#utility.yul\":8751:8811   */\n    tag_76:\n        /* \"#utility.yul\":8779:8782   */\n      0x00\n        /* \"#utility.yul\":8800:8805   */\n      dup2\n        /* \"#utility.yul\":8793:8805   */\n      swap1\n      pop\n        /* \"#utility.yul\":8751:8811   */\n      swap2\n      swap1\n      pop\n      jump\t// out\n        /* \"#utility.yul\":8817:8959   */\n    tag_77:\n        /* \"#utility.yul\":8867:8876   */\n      0x00\n        /* \"#utility.yul\":8900:8953   */\n      tag_179\n        /* \"#utility.yul\":8918:8952   */\n      tag_180\n        /* \"#utility.yul\":8927:8951   */\n      tag_181\n        /* \"#utility.yul\":8945:8950   */\n      dup5\n        /* \"#utility.yul\":8927:8951   */\n      tag_75\n      jump\t// in\n    tag_181:\n        /* \"#utility.yul\":8918:8952   */\n      tag_76\n      jump\t// in\n    tag_180:\n        /* \"#utility.yul\":8900:8953   */\n      tag_75\n      jump\t// in\n    tag_179:\n        /* \"#utility.yul\":8887:8953   */\n      swap1\n      pop\n        /* \"#utility.yul\":8817:8959   */\n      swap2\n      swap1\n      pop\n      jump\t// out\n        /* \"#utility.yul\":8965:9040   */\n    tag_78:\n        /* \"#utility.yul\":9008:9011   */\n      0x00\n        /* \"#utility.yul\":9029:9034   */\n      dup2\n        /* \"#utility.yul\":9022:9034   */\n      swap1\n      pop\n        /* \"#utility.yul\":8965:9040   */\n      swap2\n      swap1\n      pop\n      jump\t// out\n        /* \"#utility.yul\":9046:9315   */\n    tag_79:\n        /* \"#utility.yul\":9156:9195   */\n      tag_184\n        /* \"#utility.yul\":9187:9194   */\n      dup4\n        /* \"#utility.yul\":9156:9195   */\n      tag_77\n      jump\t// in\n    tag_184:\n        /* \"#utility.yul\":9217:9308   */\n      tag_185\n        /* \"#utility.yul\":9266:9307   */\n      tag_186\n        /* \"#utility.yul\":9290:9306   */\n      dup3\n        /* \"#utility.yul\":9266:9307   */\n      tag_78\n      jump\t// in\n    tag_186:\n        /* \"#utility.yul\":9258:9264   */\n      dup5\n        /* \"#utility.yul\":9251:9255   */\n      dup5\n        /* \"#utility.yul\":9245:9256   */\n      sload\n        /* \"#utility.yul\":9217:9308   */\n      tag_74\n      jump\t// in\n    tag_185:\n        /* \"#utility.yul\":9211:9215   */\n      dup3\n        /* \"#utility.yul\":9204:9309   */\n      sstore\n        /* \"#utility.yul\":9122:9315   */\n      pop\n        /* \"#utility.yul\":9046:9315   */\n      pop\n      pop\n      pop\n      jump\t// out\n        /* \"#utility.yul\":9321:9394   */\n    tag_80:\n        /* \"#utility.yul\":9366:9369   */\n      0x00\n        /* \"#utility.yul\":9321:9394   */\n      swap1\n      jump\t// out\n        /* \"#utility.yul\":9400:9589   */\n    tag_81:\n        /* \"#utility.yul\":9477:9509   */\n      tag_189\n      tag_80\n      jump\t// in\n    tag_189:\n        /* \"#utility.yul\":9518:9583   */\n      tag_190\n        /* \"#utility.yul\":9576:9582   */\n      dup2\n        /* \"#utility.yul\":9568:9574   */\n      dup5\n        /* \"#utility.yul\":9562:9566   */\n      dup5\n        /* \"#utility.yul\":9518:9583   */\n      tag_79\n      jump\t// in\n    tag_190:\n        /* \"#utility.yul\":9453:9589   */\n      pop\n        /* \"#utility.yul\":9400:9589   */\n      pop\n      pop\n      jump\t// out\n        /* \"#utility.yul\":9595:9781   */\n    tag_82:\n        /* \"#utility.yul\":9655:9775   */\n    tag_192:\n        /* \"#utility.yul\":9672:9675   */\n      dup2\n        /* \"#utility.yul\":9665:9670   */\n      dup2\n        /* \"#utility.yul\":9662:9676   */\n      lt\n        /* \"#utility.yul\":9655:9775   */\n      iszero\n      tag_194\n      jumpi\n        /* \"#utility.yul\":9726:9765   */\n      tag_195\n        /* \"#utility.yul\":9763:9764   */\n      0x00\n        /* \"#utility.yul\":9756:9761   */\n      dup3\n        /* \"#utility.yul\":9726:9765   */\n      tag_81\n      jump\t// in\n    tag_195:\n        /* \"#utility.yul\":9699:9700   */\n      0x01\n        /* \"#utility.yul\":9692:9697   */\n      dup2\n        /* \"#utility.yul\":9688:9701   */\n      add\n        /* \"#utility.yul\":9679:9701   */\n      swap1\n      pop\n        /* \"#utility.yul\":9655:9775   */\n      jump(tag_192)\n    tag_194:\n        /* \"#utility.yul\":9595:9781   */\n      pop\n      pop\n      jump\t// out\n        /* \"#utility.yul\":9787:10330   */\n    tag_83:\n        /* \"#utility.yul\":9888:9890   */\n      0x1f\n        /* \"#utility.yul\":9883:9886   */\n      dup3\n        /* \"#utility.yul\":9880:9891   */\n      gt\n        /* \"#utility.yul\":9877:10323   */\n      iszero\n      tag_197\n      jumpi\n        /* \"#utility.yul\":9922:9960   */\n      tag_198\n        /* \"#utility.yul\":9954:9959   */\n      dup2\n        /* \"#utility.yul\":9922:9960   */\n      tag_71\n      jump\t// in\n    tag_198:\n        /* \"#utility.yul\":10006:10035   */\n      tag_199\n        /* \"#utility.yul\":10024:10034   */\n      dup5\n        /* \"#utility.yul\":10006:10035   */\n      tag_72\n      jump\t// in\n    tag_199:\n        /* \"#utility.yul\":9996:10004   */\n      dup2\n        /* \"#utility.yul\":9992:10036   */\n      add\n        /* \"#utility.yul\":10189:10191   */\n      0x20\n        /* \"#utility.yul\":10177:10187   */\n      dup6\n        /* \"#utility.yul\":10174:10192   */\n      lt\n        /* \"#utility.yul\":10171:10220   */\n      iszero\n      tag_200\n      jumpi\n        /* \"#utility.yul\":10210:10218   */\n      dup2\n        /* \"#utility.yul\":10195:10218   */\n      swap1\n      pop\n        /* \"#utility.yul\":10171:10220   */\n    tag_200:\n        /* \"#utility.yul\":10233:10313   */\n      tag_201\n        /* \"#utility.yul\":10289:10311   */\n      tag_202\n        /* \"#utility.yul\":10307:10310   */\n      dup6\n        /* \"#utility.yul\":10289:10311   */\n      tag_72\n      jump\t// in\n    tag_202:\n        /* \"#utility.yul\":10279:10287   */\n      dup4\n        /* \"#utility.yul\":10275:10312   */\n      add\n        /* \"#utility.yul\":10262:10273   */\n      dup3\n        /* \"#utility.yul\":10233:10313   */\n      tag_82\n      jump\t// in\n    tag_201:\n        /* \"#utility.yul\":9892:10323   */\n      pop\n      pop\n        /* \"#utility.yul\":9877:10323   */\n    tag_197:\n        /* \"#utility.yul\":9787:10330   */\n      pop\n      pop\n      pop\n      jump\t// out\n        /* \"#utility.yul\":10336:10453   */\n    tag_84:\n        /* \"#utility.yul\":10390:10398   */\n      0x00\n        /* \"#utility.yul\":10440:10445   */\n      dup3\n        /* \"#utility.yul\":10434:10438   */\n      dup3\n        /* \"#utility.yul\":10430:10446   */\n      shr\n        /* \"#utility.yul\":10409:10446   */\n      swap1\n      pop\n        /* \"#utility.yul\":10336:10453   */\n      swap3\n      swap2\n      pop\n      pop\n      jump\t// out\n        /* \"#utility.yul\":10459:10628   */\n    tag_85:\n        /* \"#utility.yul\":10503:10509   */\n      0x00\n        /* \"#utility.yul\":10536:10587   */\n      tag_205\n        /* \"#utility.yul\":10584:10585   */\n      0x00\n        /* \"#utility.yul\":10580:10586   */\n      not\n        /* \"#utility.yul\":10572:10577   */\n      dup5\n        /* \"#utility.yul\":10569:10570   */\n      0x08\n        /* \"#utility.yul\":10565:10578   */\n      mul\n        /* \"#utility.yul\":10536:10587   */\n      tag_84\n      jump\t// in\n    tag_205:\n        /* \"#utility.yul\":10532:10588   */\n      not\n        /* \"#utility.yul\":10617:10621   */\n      dup1\n        /* \"#utility.yul\":10611:10615   */\n      dup4\n        /* \"#utility.yul\":10607:10622   */\n      and\n        /* \"#utility.yul\":10597:10622   */\n      swap2\n      pop\n        /* \"#utility.yul\":10510:10628   */\n      pop\n        /* \"#utility.yul\":10459:10628   */\n      swap3\n      swap2\n      pop\n      pop\n      jump\t// out\n        /* \"#utility.yul\":10633:10928   */\n    tag_86:\n        /* \"#utility.yul\":10709:10713   */\n      0x00\n        /* \"#utility.yul\":10855:10884   */\n      tag_207\n        /* \"#utility.yul\":10880:10883   */\n      dup4\n        /* \"#utility.yul\":10874:10878   */\n      dup4\n        /* \"#utility.yul\":10855:10884   */\n      tag_85\n      jump\t// in\n    tag_207:\n        /* \"#utility.yul\":10847:10884   */\n      swap2\n      pop\n        /* \"#utility.yul\":10917:10920   */\n      dup3\n        /* \"#utility.yul\":10914:10915   */\n      0x02\n        /* \"#utility.yul\":10910:10921   */\n      mul\n        /* \"#utility.yul\":10904:10908   */\n      dup3\n        /* \"#utility.yul\":10901:10922   */\n      or\n        /* \"#utility.yul\":10893:10922   */\n      swap1\n      pop\n        /* \"#utility.yul\":10633:10928   */\n      swap3\n      swap2\n      pop\n      pop\n      jump\t// out\n        /* \"#utility.yul\":10933:12328   */\n    tag_44:\n        /* \"#utility.yul\":11050:11087   */\n      tag_209\n        /* \"#utility.yul\":11083:11086   */\n      dup3\n        /* \"#utility.yul\":11050:11087   */\n      tag_56\n      jump\t// in\n    tag_209:\n        /* \"#utility.yul\":11152:11170   */\n      0xffffffffffffffff\n        /* \"#utility.yul\":11144:11150   */\n      dup2\n        /* \"#utility.yul\":11141:11171   */\n      gt\n        /* \"#utility.yul\":11138:11194   */\n      iszero\n      tag_210\n      jumpi\n        /* \"#utility.yul\":11174:11192   */\n      tag_211\n      tag_63\n      jump\t// in\n    tag_211:\n        /* \"#utility.yul\":11138:11194   */\n    tag_210:\n        /* \"#utility.yul\":11218:11256   */\n      tag_212\n        /* \"#utility.yul\":11250:11254   */\n      dup3\n        /* \"#utility.yul\":11244:11255   */\n      sload\n        /* \"#utility.yul\":11218:11256   */\n      tag_17\n      jump\t// in\n    tag_212:\n        /* \"#utility.yul\":11303:11370   */\n      tag_213\n        /* \"#utility.yul\":11363:11369   */\n      dup3\n        /* \"#utility.yul\":11355:11361   */\n      dup3\n        /* \"#utility.yul\":11349:11353   */\n      dup6\n        /* \"#utility.yul\":11303:11370   */\n      tag_83\n      jump\t// in\n    tag_213:\n        /* \"#utility.yul\":11397:11398   */\n      0x00\n        /* \"#utility.yul\":11421:11425   */\n      0x20\n        /* \"#utility.yul\":11408:11425   */\n      swap1\n      pop\n        /* \"#utility.yul\":11453:11455   */\n      0x1f\n        /* \"#utility.yul\":11445:11451   */\n      dup4\n        /* \"#utility.yul\":11442:11456   */\n      gt\n        /* \"#utility.yul\":11470:11471   */\n      0x01\n        /* \"#utility.yul\":11465:12083   */\n      dup2\n      eq\n      tag_215\n      jumpi\n        /* \"#utility.yul\":12127:12128   */\n      0x00\n        /* \"#utility.yul\":12144:12150   */\n      dup5\n        /* \"#utility.yul\":12141:12218   */\n      iszero\n      tag_216\n      jumpi\n        /* \"#utility.yul\":12193:12202   */\n      dup3\n        /* \"#utility.yul\":12188:12191   */\n      dup8\n        /* \"#utility.yul\":12184:12203   */\n      add\n        /* \"#utility.yul\":12178:12204   */\n      mload\n        /* \"#utility.yul\":12169:12204   */\n      swap1\n      pop\n        /* \"#utility.yul\":12141:12218   */\n    tag_216:\n        /* \"#utility.yul\":12244:12311   */\n      tag_217\n        /* \"#utility.yul\":12304:12310   */\n      dup6\n        /* \"#utility.yul\":12297:12302   */\n      dup3\n        /* \"#utility.yul\":12244:12311   */\n      tag_86\n      jump\t// in\n    tag_217:\n        /* \"#utility.yul\":12238:12242   */\n      dup7\n        /* \"#utility.yul\":12231:12312   */\n      sstore\n        /* \"#utility.yul\":12100:12322   */\n      pop\n        /* \"#utility.yul\":11435:12322   */\n      jump(tag_214)\n        /* \"#utility.yul\":11465:12083   */\n    tag_215:\n        /* \"#utility.yul\":11517:11521   */\n      0x1f\n        /* \"#utility.yul\":11513:11522   */\n      not\n        /* \"#utility.yul\":11505:11511   */\n      dup5\n        /* \"#utility.yul\":11501:11523   */\n      and\n        /* \"#utility.yul\":11551:11588   */\n      tag_218\n        /* \"#utility.yul\":11583:11587   */\n      dup7\n        /* \"#utility.yul\":11551:11588   */\n      tag_71\n      jump\t// in\n    tag_218:\n        /* \"#utility.yul\":11610:11611   */\n      0x00\n        /* \"#utility.yul\":11624:11832   */\n    tag_219:\n        /* \"#utility.yul\":11638:11645   */\n      dup3\n        /* \"#utility.yul\":11635:11636   */\n      dup2\n        /* \"#utility.yul\":11632:11646   */\n      lt\n        /* \"#utility.yul\":11624:11832   */\n      iszero\n      tag_221\n      jumpi\n        /* \"#utility.yul\":11717:11726   */\n      dup5\n        /* \"#utility.yul\":11712:11715   */\n      dup10\n        /* \"#utility.yul\":11708:11727   */\n      add\n        /* \"#utility.yul\":11702:11728   */\n      mload\n        /* \"#utility.yul\":11694:11700   */\n      dup3\n        /* \"#utility.yul\":11687:11729   */\n      sstore\n        /* \"#utility.yul\":11768:11769   */\n      0x01\n        /* \"#utility.yul\":11760:11766   */\n      dup3\n        /* \"#utility.yul\":11756:11770   */\n      add\n        /* \"#utility.yul\":11746:11770   */\n      swap2\n      pop\n        /* \"#utility.yul\":11815:11817   */\n      0x20\n        /* \"#utility.yul\":11804:11813   */\n      dup6\n        /* \"#utility.yul\":11800:11818   */\n      add\n        /* \"#utility.yul\":11787:11818   */\n      swap5\n      pop\n        /* \"#utility.yul\":11661:11665   */\n      0x20\n        /* \"#utility.yul\":11658:11659   */\n      dup2\n        /* \"#utility.yul\":11654:11666   */\n      add\n        /* \"#utility.yul\":11649:11666   */\n      swap1\n      pop\n        /* \"#utility.yul\":11624:11832   */\n      jump(tag_219)\n    tag_221:\n        /* \"#utility.yul\":11860:11866   */\n      dup7\n        /* \"#utility.yul\":11851:11858   */\n      dup4\n        /* \"#utility.yul\":11848:11867   */\n      lt\n        /* \"#utility.yul\":11845:12024   */\n      iszero\n      tag_222\n      jumpi\n        /* \"#utility.yul\":11918:11927   */\n      dup5\n        /* \"#utility.yul\":11913:11916   */\n      dup10\n        /* \"#utility.yul\":11909:11928   */\n      add\n        /* \"#utility.yul\":11903:11929   */\n      mload\n        /* \"#utility.yul\":11961:12009   */\n      tag_223\n        /* \"#utility.yul\":12003:12007   */\n      0x1f\n        /* \"#utility.yul\":11995:12001   */\n      dup10\n        /* \"#utility.yul\":11991:12008   */\n      and\n        /* \"#utility.yul\":11980:11989   */\n      dup3\n        /* \"#utility.yul\":11961:12009   */\n      tag_85\n      jump\t// in\n    tag_223:\n        /* \"#utility.yul\":11953:11959   */\n      dup4\n        /* \"#utility.yul\":11946:12010   */\n      sstore\n        /* \"#utility.yul\":11868:12024   */\n      pop\n        /* \"#utility.yul\":11845:12024   */\n    tag_222:\n        /* \"#utility.yul\":12070:12071   */\n      0x01\n        /* \"#utility.yul\":12066:12067   */\n      0x02\n        /* \"#utility.yul\":12058:12064   */\n      dup9\n        /* \"#utility.yul\":12054:12068   */\n      mul\n        /* \"#utility.yul\":12050:12072   */\n      add\n        /* \"#utility.yul\":12044:12048   */\n      dup9\n        /* \"#utility.yul\":12037:12073   */\n      sstore\n        /* \"#utility.yul\":11472:12083   */\n      pop\n      pop\n      pop\n        /* \"#utility.yul\":11435:12322   */\n    tag_214:\n      pop\n        /* \"#utility.yul\":11025:12328   */\n      pop\n      pop\n      pop\n        /* \"#utility.yul\":10933:12328   */\n      pop\n      pop\n      jump\t// out\n\n    auxdata: 0xa2646970667358221220c173bc34263e31570afaf82dc5e0c5fde1024e21bb986adedbee9ca3ef4ff76064736f6c63430008120033\n}\n",
				"bytecode": {
					"linkReferences": {},
					"object": "608060405234801561001057600080fd5b50610c0b806100206000396000f3fe608060405234801561001057600080fd5b50600436106100365760003560e01c80636f12fc351461003b578063f7aebeee1461006f575b600080fd5b6100556004803603810190610050919061056c565b61008b565b604051610066959493929190610629565b60405180910390f35b610089600480360381019061008491906107d4565b6103b9565b005b606080606080606060008060008873ffffffffffffffffffffffffffffffffffffffff1673ffffffffffffffffffffffffffffffffffffffff168152602001908152602001600020905080600001816001018260020183600301846004018480546100f59061091c565b80601f01602080910402602001604051908101604052809291908181526020018280546101219061091c565b801561016e5780601f106101435761010080835404028352916020019161016e565b820191906000526020600020905b81548152906001019060200180831161015157829003601f168201915b505050505094508380546101819061091c565b80601f01602080910402602001604051908101604052809291908181526020018280546101ad9061091c565b80156101fa5780601f106101cf576101008083540402835291602001916101fa565b820191906000526020600020905b8154815290600101906020018083116101dd57829003601f168201915b5050505050935082805461020d9061091c565b80601f01602080910402602001604051908101604052809291908181526020018280546102399061091c565b80156102865780601f1061025b57610100808354040283529160200191610286565b820191906000526020600020905b81548152906001019060200180831161026957829003601f168201915b505050505092508180546102999061091c565b80601f01602080910402602001604051908101604052809291908181526020018280546102c59061091c565b80156103125780601f106102e757610100808354040283529160200191610312565b820191906000526020600020905b8154815290600101906020018083116102f557829003601f168201915b505050505091508080546103259061091c565b80601f01602080910402602001604051908101604052809291908181526020018280546103519061091c565b801561039e5780601f106103735761010080835404028352916020019161039e565b820191906000526020600020905b81548152906001019060200180831161038157829003601f168201915b50505050509050955095509550955095505091939590929450565b6040518060c001604052808781526020018681526020018581526020018481526020018381526020018273ffffffffffffffffffffffffffffffffffffffff168152506000803373ffffffffffffffffffffffffffffffffffffffff1673ffffffffffffffffffffffffffffffffffffffff168152602001908152602001600020600082015181600001908161044f9190610b03565b5060208201518160010190816104659190610b03565b50604082015181600201908161047b9190610b03565b5060608201518160030190816104919190610b03565b5060808201518160040190816104a79190610b03565b5060a08201518160050160006101000a81548173ffffffffffffffffffffffffffffffffffffffff021916908373ffffffffffffffffffffffffffffffffffffffff160217905550905050505050505050565b6000604051905090565b600080fd5b600080fd5b600073ffffffffffffffffffffffffffffffffffffffff82169050919050565b60006105398261050e565b9050919050565b6105498161052e565b811461055457600080fd5b50565b60008135905061056681610540565b92915050565b60006020828403121561058257610581610504565b5b600061059084828501610557565b91505092915050565b600081519050919050565b600082825260208201905092915050565b60005b838110156105d35780820151818401526020810190506105b8565b60008484015250505050565b6000601f19601f8301169050919050565b60006105fb82610599565b61060581856105a4565b93506106158185602086016105b5565b61061e816105df565b840191505092915050565b600060a082019050818103600083015261064381886105f0565b9050818103602083015261065781876105f0565b9050818103604083015261066b81866105f0565b9050818103606083015261067f81856105f0565b9050818103608083015261069381846105f0565b90509695505050505050565b600080fd5b600080fd5b7f4e487b7100000000000000000000000000000000000000000000000000000000600052604160045260246000fd5b6106e1826105df565b810181811067ffffffffffffffff82111715610700576106ff6106a9565b5b80604052505050565b60006107136104fa565b905061071f82826106d8565b919050565b600067ffffffffffffffff82111561073f5761073e6106a9565b5b610748826105df565b9050602081019050919050565b82818337600083830152505050565b600061077761077284610724565b610709565b905082815260208101848484011115610793576107926106a4565b5b61079e848285610755565b509392505050565b600082601f8301126107bb576107ba61069f565b5b81356107cb848260208601610764565b91505092915050565b60008060008060008060c087890312156107f1576107f0610504565b5b600087013567ffffffffffffffff81111561080f5761080e610509565b5b61081b89828a016107a6565b965050602087013567ffffffffffffffff81111561083c5761083b610509565b5b61084889828a016107a6565b955050604087013567ffffffffffffffff81111561086957610868610509565b5b61087589828a016107a6565b945050606087013567ffffffffffffffff81111561089657610895610509565b5b6108a289828a016107a6565b935050608087013567ffffffffffffffff8111156108c3576108c2610509565b5b6108cf89828a016107a6565b92505060a06108e089828a01610557565b9150509295509295509295565b7f4e487b7100000000000000000000000000000000000000000000000000000000600052602260045260246000fd5b6000600282049050600182168061093457607f821691505b602082108103610947576109466108ed565b5b50919050565b60008190508160005260206000209050919050565b60006020601f8301049050919050565b600082821b905092915050565b6000600883026109af7fffffffffffffffffffffffffffffffffffffffffffffffffffffffffffffffff82610972565b6109b98683610972565b95508019841693508086168417925050509392505050565b6000819050919050565b6000819050919050565b6000610a006109fb6109f6846109d1565b6109db565b6109d1565b9050919050565b6000819050919050565b610a1a836109e5565b610a2e610a2682610a07565b84845461097f565b825550505050565b600090565b610a43610a36565b610a4e818484610a11565b505050565b5b81811015610a7257610a67600082610a3b565b600181019050610a54565b5050565b601f821115610ab757610a888161094d565b610a9184610962565b81016020851015610aa0578190505b610ab4610aac85610962565b830182610a53565b50505b505050565b600082821c905092915050565b6000610ada60001984600802610abc565b1980831691505092915050565b6000610af38383610ac9565b9150826002028217905092915050565b610b0c82610599565b67ffffffffffffffff811115610b2557610b246106a9565b5b610b2f825461091c565b610b3a828285610a76565b600060209050601f831160018114610b6d5760008415610b5b578287015190505b610b658582610ae7565b865550610bcd565b601f198416610b7b8661094d565b60005b82811015610ba357848901518255600182019150602085019450602081019050610b7e565b86831015610bc05784890151610bbc601f891682610ac9565b8355505b6001600288020188555050505b50505050505056fea2646970667358221220c173bc34263e31570afaf82dc5e0c5fde1024e21bb986adedbee9ca3ef4ff76064736f6c63430008120033",
					"opcodes": "PUSH1 0x80 PUSH1 0x40 MSTORE CALLVALUE DUP1 ISZERO PUSH2 0x10 JUMPI PUSH1 0x0 DUP1 REVERT JUMPDEST POP PUSH2 0xC0B DUP1 PUSH2 0x20 PUSH1 0x0 CODECOPY PUSH1 0x0 RETURN INVALID PUSH1 0x80 PUSH1 0x40 MSTORE CALLVALUE DUP1 ISZERO PUSH2 0x10 JUMPI PUSH1 0x0 DUP1 REVERT JUMPDEST POP PUSH1 0x4 CALLDATASIZE LT PUSH2 0x36 JUMPI PUSH1 0x0 CALLDATALOAD PUSH1 0xE0 SHR DUP1 PUSH4 0x6F12FC35 EQ PUSH2 0x3B JUMPI DUP1 PUSH4 0xF7AEBEEE EQ PUSH2 0x6F JUMPI JUMPDEST PUSH1 0x0 DUP1 REVERT JUMPDEST PUSH2 0x55 PUSH1 0x4 DUP1 CALLDATASIZE SUB DUP2 ADD SWAP1 PUSH2 0x50 SWAP2 SWAP1 PUSH2 0x56C JUMP JUMPDEST PUSH2 0x8B JUMP JUMPDEST PUSH1 0x40 MLOAD PUSH2 0x66 SWAP6 SWAP5 SWAP4 SWAP3 SWAP2 SWAP1 PUSH2 0x629 JUMP JUMPDEST PUSH1 0x40 MLOAD DUP1 SWAP2 SUB SWAP1 RETURN JUMPDEST PUSH2 0x89 PUSH1 0x4 DUP1 CALLDATASIZE SUB DUP2 ADD SWAP1 PUSH2 0x84 SWAP2 SWAP1 PUSH2 0x7D4 JUMP JUMPDEST PUSH2 0x3B9 JUMP JUMPDEST STOP JUMPDEST PUSH1 0x60 DUP1 PUSH1 0x60 DUP1 PUSH1 0x60 PUSH1 0x0 DUP1 PUSH1 0x0 DUP9 PUSH20 0xFFFFFFFFFFFFFFFFFFFFFFFFFFFFFFFFFFFFFFFF AND PUSH20 0xFFFFFFFFFFFFFFFFFFFFFFFFFFFFFFFFFFFFFFFF AND DUP2 MSTORE PUSH1 0x20 ADD SWAP1 DUP2 MSTORE PUSH1 0x20 ADD PUSH1 0x0 KECCAK256 SWAP1 POP DUP1 PUSH1 0x0 ADD DUP2 PUSH1 0x1 ADD DUP3 PUSH1 0x2 ADD DUP4 PUSH1 0x3 ADD DUP5 PUSH1 0x4 ADD DUP5 DUP1 SLOAD PUSH2 0xF5 SWAP1 PUSH2 0x91C JUMP JUMPDEST DUP1 PUSH1 0x1F ADD PUSH1 0x20 DUP1 SWAP2 DIV MUL PUSH1 0x20 ADD PUSH1 0x40 MLOAD SWAP1 DUP2 ADD PUSH1 0x40 MSTORE DUP1 SWAP3 SWAP2 SWAP1 DUP2 DUP2 MSTORE PUSH1 0x20 ADD DUP3 DUP1 SLOAD PUSH2 0x121 SWAP1 PUSH2 0x91C JUMP JUMPDEST DUP1 ISZERO PUSH2 0x16E JUMPI DUP1 PUSH1 0x1F LT PUSH2 0x143 JUMPI PUSH2 0x100 DUP1 DUP4 SLOAD DIV MUL DUP4 MSTORE SWAP2 PUSH1 0x20 ADD SWAP2 PUSH2 0x16E JUMP JUMPDEST DUP3 ADD SWAP2 SWAP1 PUSH1 0x0 MSTORE PUSH1 0x20 PUSH1 0x0 KECCAK256 SWAP1 JUMPDEST DUP2 SLOAD DUP2 MSTORE SWAP1 PUSH1 0x1 ADD SWAP1 PUSH1 0x20 ADD DUP1 DUP4 GT PUSH2 0x151 JUMPI DUP3 SWAP1 SUB PUSH1 0x1F AND DUP3 ADD SWAP2 JUMPDEST POP POP POP POP POP SWAP5 POP DUP4 DUP1 SLOAD PUSH2 0x181 SWAP1 PUSH2 0x91C JUMP JUMPDEST DUP1 PUSH1 0x1F ADD PUSH1 0x20 DUP1 SWAP2 DIV MUL PUSH1 0x20 ADD PUSH1 0x40 MLOAD SWAP1 DUP2 ADD PUSH1 0x40 MSTORE DUP1 SWAP3 SWAP2 SWAP1 DUP2 DUP2 MSTORE PUSH1 0x20 ADD DUP3 DUP1 SLOAD PUSH2 0x1AD SWAP1 PUSH2 0x91C JUMP JUMPDEST DUP1 ISZERO PUSH2 0x1FA JUMPI DUP1 PUSH1 0x1F LT PUSH2 0x1CF JUMPI PUSH2 0x100 DUP1 DUP4 SLOAD DIV MUL DUP4 MSTORE SWAP2 PUSH1 0x20 ADD SWAP2 PUSH2 0x1FA JUMP JUMPDEST DUP3 ADD SWAP2 SWAP1 PUSH1 0x0 MSTORE PUSH1 0x20 PUSH1 0x0 KECCAK256 SWAP1 JUMPDEST DUP2 SLOAD DUP2 MSTORE SWAP1 PUSH1 0x1 ADD SWAP1 PUSH1 0x20 ADD DUP1 DUP4 GT PUSH2 0x1DD JUMPI DUP3 SWAP1 SUB PUSH1 0x1F AND DUP3 ADD SWAP2 JUMPDEST POP POP POP POP POP SWAP4 POP DUP3 DUP1 SLOAD PUSH2 0x20D SWAP1 PUSH2 0x91C JUMP JUMPDEST DUP1 PUSH1 0x1F ADD PUSH1 0x20 DUP1 SWAP2 DIV MUL PUSH1 0x20 ADD PUSH1 0x40 MLOAD SWAP1 DUP2 ADD PUSH1 0x40 MSTORE DUP1 SWAP3 SWAP2 SWAP1 DUP2 DUP2 MSTORE PUSH1 0x20 ADD DUP3 DUP1 SLOAD PUSH2 0x239 SWAP1 PUSH2 0x91C JUMP JUMPDEST DUP1 ISZERO PUSH2 0x286 JUMPI DUP1 PUSH1 0x1F LT PUSH2 0x25B JUMPI PUSH2 0x100 DUP1 DUP4 SLOAD DIV MUL DUP4 MSTORE SWAP2 PUSH1 0x20 ADD SWAP2 PUSH2 0x286 JUMP JUMPDEST DUP3 ADD SWAP2 SWAP1 PUSH1 0x0 MSTORE PUSH1 0x20 PUSH1 0x0 KECCAK256 SWAP1 JUMPDEST DUP2 SLOAD DUP2 MSTORE SWAP1 PUSH1 0x1 ADD SWAP1 PUSH1 0x20 ADD DUP1 DUP4 GT PUSH2 0x269 JUMPI DUP3 SWAP1 SUB PUSH1 0x1F AND DUP3 ADD SWAP2 JUMPDEST POP POP POP POP POP SWAP3 POP DUP2 DUP1 SLOAD PUSH2 0x299 SWAP1 PUSH2 0x91C JUMP JUMPDEST DUP1 PUSH1 0x1F ADD PUSH1 0x20 DUP1 SWAP2 DIV MUL PUSH1 0x20 ADD PUSH1 0x40 MLOAD SWAP1 DUP2 ADD PUSH1 0x40 MSTORE DUP1 SWAP3 SWAP2 SWAP1 DUP2 DUP2 MSTORE PUSH1 0x20 ADD DUP3 DUP1 SLOAD PUSH2 0x2C5 SWAP1 PUSH2 0x91C JUMP JUMPDEST DUP1 ISZERO PUSH2 0x312 JUMPI DUP1 PUSH1 0x1F LT PUSH2 0x2E7 JUMPI PUSH2 0x100 DUP1 DUP4 SLOAD DIV MUL DUP4 MSTORE SWAP2 PUSH1 0x20 ADD SWAP2 PUSH2 0x312 JUMP JUMPDEST DUP3 ADD SWAP2 SWAP1 PUSH1 0x0 MSTORE PUSH1 0x20 PUSH1 0x0 KECCAK256 SWAP1 JUMPDEST DUP2 SLOAD DUP2 MSTORE SWAP1 PUSH1 0x1 ADD SWAP1 PUSH1 0x20 ADD DUP1 DUP4 GT PUSH2 0x2F5 JUMPI DUP3 SWAP1 SUB PUSH1 0x1F AND DUP3 ADD SWAP2 JUMPDEST POP POP POP POP POP SWAP2 POP DUP1 DUP1 SLOAD PUSH2 0x325 SWAP1 PUSH2 0x91C JUMP JUMPDEST DUP1 PUSH1 0x1F ADD PUSH1 0x20 DUP1 SWAP2 DIV MUL PUSH1 0x20 ADD PUSH1 0x40 MLOAD SWAP1 DUP2 ADD PUSH1 0x40 MSTORE DUP1 SWAP3 SWAP2 SWAP1 DUP2 DUP2 MSTORE PUSH1 0x20 ADD DUP3 DUP1 SLOAD PUSH2 0x351 SWAP1 PUSH2 0x91C JUMP JUMPDEST DUP1 ISZERO PUSH2 0x39E JUMPI DUP1 PUSH1 0x1F LT PUSH2 0x373 JUMPI PUSH2 0x100 DUP1 DUP4 SLOAD DIV MUL DUP4 MSTORE SWAP2 PUSH1 0x20 ADD SWAP2 PUSH2 0x39E JUMP JUMPDEST DUP3 ADD SWAP2 SWAP1 PUSH1 0x0 MSTORE PUSH1 0x20 PUSH1 0x0 KECCAK256 SWAP1 JUMPDEST DUP2 SLOAD DUP2 MSTORE SWAP1 PUSH1 0x1 ADD SWAP1 PUSH1 0x20 ADD DUP1 DUP4 GT PUSH2 0x381 JUMPI DUP3 SWAP1 SUB PUSH1 0x1F AND DUP3 ADD SWAP2 JUMPDEST POP POP POP POP POP SWAP1 POP SWAP6 POP SWAP6 POP SWAP6 POP SWAP6 POP SWAP6 POP POP SWAP2 SWAP4 SWAP6 SWAP1 SWAP3 SWAP5 POP JUMP JUMPDEST PUSH1 0x40 MLOAD DUP1 PUSH1 0xC0 ADD PUSH1 0x40 MSTORE DUP1 DUP8 DUP2 MSTORE PUSH1 0x20 ADD DUP7 DUP2 MSTORE PUSH1 0x20 ADD DUP6 DUP2 MSTORE PUSH1 0x20 ADD DUP5 DUP2 MSTORE PUSH1 0x20 ADD DUP4 DUP2 MSTORE PUSH1 0x20 ADD DUP3 PUSH20 0xFFFFFFFFFFFFFFFFFFFFFFFFFFFFFFFFFFFFFFFF AND DUP2 MSTORE POP PUSH1 0x0 DUP1 CALLER PUSH20 0xFFFFFFFFFFFFFFFFFFFFFFFFFFFFFFFFFFFFFFFF AND PUSH20 0xFFFFFFFFFFFFFFFFFFFFFFFFFFFFFFFFFFFFFFFF AND DUP2 MSTORE PUSH1 0x20 ADD SWAP1 DUP2 MSTORE PUSH1 0x20 ADD PUSH1 0x0 KECCAK256 PUSH1 0x0 DUP3 ADD MLOAD DUP2 PUSH1 0x0 ADD SWAP1 DUP2 PUSH2 0x44F SWAP2 SWAP1 PUSH2 0xB03 JUMP JUMPDEST POP PUSH1 0x20 DUP3 ADD MLOAD DUP2 PUSH1 0x1 ADD SWAP1 DUP2 PUSH2 0x465 SWAP2 SWAP1 PUSH2 0xB03 JUMP JUMPDEST POP PUSH1 0x40 DUP3 ADD MLOAD DUP2 PUSH1 0x2 ADD SWAP1 DUP2 PUSH2 0x47B SWAP2 SWAP1 PUSH2 0xB03 JUMP JUMPDEST POP PUSH1 0x60 DUP3 ADD MLOAD DUP2 PUSH1 0x3 ADD SWAP1 DUP2 PUSH2 0x491 SWAP2 SWAP1 PUSH2 0xB03 JUMP JUMPDEST POP PUSH1 0x80 DUP3 ADD MLOAD DUP2 PUSH1 0x4 ADD SWAP1 DUP2 PUSH2 0x4A7 SWAP2 SWAP1 PUSH2 0xB03 JUMP JUMPDEST POP PUSH1 0xA0 DUP3 ADD MLOAD DUP2 PUSH1 0x5 ADD PUSH1 0x0 PUSH2 0x100 EXP DUP2 SLOAD DUP2 PUSH20 0xFFFFFFFFFFFFFFFFFFFFFFFFFFFFFFFFFFFFFFFF MUL NOT AND SWAP1 DUP4 PUSH20 0xFFFFFFFFFFFFFFFFFFFFFFFFFFFFFFFFFFFFFFFF AND MUL OR SWAP1 SSTORE POP SWAP1 POP POP POP POP POP POP POP POP JUMP JUMPDEST PUSH1 0x0 PUSH1 0x40 MLOAD SWAP1 POP SWAP1 JUMP JUMPDEST PUSH1 0x0 DUP1 REVERT JUMPDEST PUSH1 0x0 DUP1 REVERT JUMPDEST PUSH1 0x0 PUSH20 0xFFFFFFFFFFFFFFFFFFFFFFFFFFFFFFFFFFFFFFFF DUP3 AND SWAP1 POP SWAP2 SWAP1 POP JUMP JUMPDEST PUSH1 0x0 PUSH2 0x539 DUP3 PUSH2 0x50E JUMP JUMPDEST SWAP1 POP SWAP2 SWAP1 POP JUMP JUMPDEST PUSH2 0x549 DUP2 PUSH2 0x52E JUMP JUMPDEST DUP2 EQ PUSH2 0x554 JUMPI PUSH1 0x0 DUP1 REVERT JUMPDEST POP JUMP JUMPDEST PUSH1 0x0 DUP2 CALLDATALOAD SWAP1 POP PUSH2 0x566 DUP2 PUSH2 0x540 JUMP JUMPDEST SWAP3 SWAP2 POP POP JUMP JUMPDEST PUSH1 0x0 PUSH1 0x20 DUP3 DUP5 SUB SLT ISZERO PUSH2 0x582 JUMPI PUSH2 0x581 PUSH2 0x504 JUMP JUMPDEST JUMPDEST PUSH1 0x0 PUSH2 0x590 DUP5 DUP3 DUP6 ADD PUSH2 0x557 JUMP JUMPDEST SWAP2 POP POP SWAP3 SWAP2 POP POP JUMP JUMPDEST PUSH1 0x0 DUP2 MLOAD SWAP1 POP SWAP2 SWAP1 POP JUMP JUMPDEST PUSH1 0x0 DUP3 DUP3 MSTORE PUSH1 0x20 DUP3 ADD SWAP1 POP SWAP3 SWAP2 POP POP JUMP JUMPDEST PUSH1 0x0 JUMPDEST DUP4 DUP2 LT ISZERO PUSH2 0x5D3 JUMPI DUP1 DUP3 ADD MLOAD DUP2 DUP5 ADD MSTORE PUSH1 0x20 DUP2 ADD SWAP1 POP PUSH2 0x5B8 JUMP JUMPDEST PUSH1 0x0 DUP5 DUP5 ADD MSTORE POP POP POP POP JUMP JUMPDEST PUSH1 0x0 PUSH1 0x1F NOT PUSH1 0x1F DUP4 ADD AND SWAP1 POP SWAP2 SWAP1 POP JUMP JUMPDEST PUSH1 0x0 PUSH2 0x5FB DUP3 PUSH2 0x599 JUMP JUMPDEST PUSH2 0x605 DUP2 DUP6 PUSH2 0x5A4 JUMP JUMPDEST SWAP4 POP PUSH2 0x615 DUP2 DUP6 PUSH1 0x20 DUP7 ADD PUSH2 0x5B5 JUMP JUMPDEST PUSH2 0x61E DUP2 PUSH2 0x5DF JUMP JUMPDEST DUP5 ADD SWAP2 POP POP SWAP3 SWAP2 POP POP JUMP JUMPDEST PUSH1 0x0 PUSH1 0xA0 DUP3 ADD SWAP1 POP DUP2 DUP2 SUB PUSH1 0x0 DUP4 ADD MSTORE PUSH2 0x643 DUP2 DUP9 PUSH2 0x5F0 JUMP JUMPDEST SWAP1 POP DUP2 DUP2 SUB PUSH1 0x20 DUP4 ADD MSTORE PUSH2 0x657 DUP2 DUP8 PUSH2 0x5F0 JUMP JUMPDEST SWAP1 POP DUP2 DUP2 SUB PUSH1 0x40 DUP4 ADD MSTORE PUSH2 0x66B DUP2 DUP7 PUSH2 0x5F0 JUMP JUMPDEST SWAP1 POP DUP2 DUP2 SUB PUSH1 0x60 DUP4 ADD MSTORE PUSH2 0x67F DUP2 DUP6 PUSH2 0x5F0 JUMP JUMPDEST SWAP1 POP DUP2 DUP2 SUB PUSH1 0x80 DUP4 ADD MSTORE PUSH2 0x693 DUP2 DUP5 PUSH2 0x5F0 JUMP JUMPDEST SWAP1 POP SWAP7 SWAP6 POP POP POP POP POP POP JUMP JUMPDEST PUSH1 0x0 DUP1 REVERT JUMPDEST PUSH1 0x0 DUP1 REVERT JUMPDEST PUSH32 0x4E487B7100000000000000000000000000000000000000000000000000000000 PUSH1 0x0 MSTORE PUSH1 0x41 PUSH1 0x4 MSTORE PUSH1 0x24 PUSH1 0x0 REVERT JUMPDEST PUSH2 0x6E1 DUP3 PUSH2 0x5DF JUMP JUMPDEST DUP2 ADD DUP2 DUP2 LT PUSH8 0xFFFFFFFFFFFFFFFF DUP3 GT OR ISZERO PUSH2 0x700 JUMPI PUSH2 0x6FF PUSH2 0x6A9 JUMP JUMPDEST JUMPDEST DUP1 PUSH1 0x40 MSTORE POP POP POP JUMP JUMPDEST PUSH1 0x0 PUSH2 0x713 PUSH2 0x4FA JUMP JUMPDEST SWAP1 POP PUSH2 0x71F DUP3 DUP3 PUSH2 0x6D8 JUMP JUMPDEST SWAP2 SWAP1 POP JUMP JUMPDEST PUSH1 0x0 PUSH8 0xFFFFFFFFFFFFFFFF DUP3 GT ISZERO PUSH2 0x73F JUMPI PUSH2 0x73E PUSH2 0x6A9 JUMP JUMPDEST JUMPDEST PUSH2 0x748 DUP3 PUSH2 0x5DF JUMP JUMPDEST SWAP1 POP PUSH1 0x20 DUP2 ADD SWAP1 POP SWAP2 SWAP1 POP JUMP JUMPDEST DUP3 DUP2 DUP4 CALLDATACOPY PUSH1 0x0 DUP4 DUP4 ADD MSTORE POP POP POP JUMP JUMPDEST PUSH1 0x0 PUSH2 0x777 PUSH2 0x772 DUP5 PUSH2 0x724 JUMP JUMPDEST PUSH2 0x709 JUMP JUMPDEST SWAP1 POP DUP3 DUP2 MSTORE PUSH1 0x20 DUP2 ADD DUP5 DUP5 DUP5 ADD GT ISZERO PUSH2 0x793 JUMPI PUSH2 0x792 PUSH2 0x6A4 JUMP JUMPDEST JUMPDEST PUSH2 0x79E DUP5 DUP3 DUP6 PUSH2 0x755 JUMP JUMPDEST POP SWAP4 SWAP3 POP POP POP JUMP JUMPDEST PUSH1 0x0 DUP3 PUSH1 0x1F DUP4 ADD SLT PUSH2 0x7BB JUMPI PUSH2 0x7BA PUSH2 0x69F JUMP JUMPDEST JUMPDEST DUP2 CALLDATALOAD PUSH2 0x7CB DUP5 DUP3 PUSH1 0x20 DUP7 ADD PUSH2 0x764 JUMP JUMPDEST SWAP2 POP POP SWAP3 SWAP2 POP POP JUMP JUMPDEST PUSH1 0x0 DUP1 PUSH1 0x0 DUP1 PUSH1 0x0 DUP1 PUSH1 0xC0 DUP8 DUP10 SUB SLT ISZERO PUSH2 0x7F1 JUMPI PUSH2 0x7F0 PUSH2 0x504 JUMP JUMPDEST JUMPDEST PUSH1 0x0 DUP8 ADD CALLDATALOAD PUSH8 0xFFFFFFFFFFFFFFFF DUP2 GT ISZERO PUSH2 0x80F JUMPI PUSH2 0x80E PUSH2 0x509 JUMP JUMPDEST JUMPDEST PUSH2 0x81B DUP10 DUP3 DUP11 ADD PUSH2 0x7A6 JUMP JUMPDEST SWAP7 POP POP PUSH1 0x20 DUP8 ADD CALLDATALOAD PUSH8 0xFFFFFFFFFFFFFFFF DUP2 GT ISZERO PUSH2 0x83C JUMPI PUSH2 0x83B PUSH2 0x509 JUMP JUMPDEST JUMPDEST PUSH2 0x848 DUP10 DUP3 DUP11 ADD PUSH2 0x7A6 JUMP JUMPDEST SWAP6 POP POP PUSH1 0x40 DUP8 ADD CALLDATALOAD PUSH8 0xFFFFFFFFFFFFFFFF DUP2 GT ISZERO PUSH2 0x869 JUMPI PUSH2 0x868 PUSH2 0x509 JUMP JUMPDEST JUMPDEST PUSH2 0x875 DUP10 DUP3 DUP11 ADD PUSH2 0x7A6 JUMP JUMPDEST SWAP5 POP POP PUSH1 0x60 DUP8 ADD CALLDATALOAD PUSH8 0xFFFFFFFFFFFFFFFF DUP2 GT ISZERO PUSH2 0x896 JUMPI PUSH2 0x895 PUSH2 0x509 JUMP JUMPDEST JUMPDEST PUSH2 0x8A2 DUP10 DUP3 DUP11 ADD PUSH2 0x7A6 JUMP JUMPDEST SWAP4 POP POP PUSH1 0x80 DUP8 ADD CALLDATALOAD PUSH8 0xFFFFFFFFFFFFFFFF DUP2 GT ISZERO PUSH2 0x8C3 JUMPI PUSH2 0x8C2 PUSH2 0x509 JUMP JUMPDEST JUMPDEST PUSH2 0x8CF DUP10 DUP3 DUP11 ADD PUSH2 0x7A6 JUMP JUMPDEST SWAP3 POP POP PUSH1 0xA0 PUSH2 0x8E0 DUP10 DUP3 DUP11 ADD PUSH2 0x557 JUMP JUMPDEST SWAP2 POP POP SWAP3 SWAP6 POP SWAP3 SWAP6 POP SWAP3 SWAP6 JUMP JUMPDEST PUSH32 0x4E487B7100000000000000000000000000000000000000000000000000000000 PUSH1 0x0 MSTORE PUSH1 0x22 PUSH1 0x4 MSTORE PUSH1 0x24 PUSH1 0x0 REVERT JUMPDEST PUSH1 0x0 PUSH1 0x2 DUP3 DIV SWAP1 POP PUSH1 0x1 DUP3 AND DUP1 PUSH2 0x934 JUMPI PUSH1 0x7F DUP3 AND SWAP2 POP JUMPDEST PUSH1 0x20 DUP3 LT DUP2 SUB PUSH2 0x947 JUMPI PUSH2 0x946 PUSH2 0x8ED JUMP JUMPDEST JUMPDEST POP SWAP2 SWAP1 POP JUMP JUMPDEST PUSH1 0x0 DUP2 SWAP1 POP DUP2 PUSH1 0x0 MSTORE PUSH1 0x20 PUSH1 0x0 KECCAK256 SWAP1 POP SWAP2 SWAP1 POP JUMP JUMPDEST PUSH1 0x0 PUSH1 0x20 PUSH1 0x1F DUP4 ADD DIV SWAP1 POP SWAP2 SWAP1 POP JUMP JUMPDEST PUSH1 0x0 DUP3 DUP3 SHL SWAP1 POP SWAP3 SWAP2 POP POP JUMP JUMPDEST PUSH1 0x0 PUSH1 0x8 DUP4 MUL PUSH2 0x9AF PUSH32 0xFFFFFFFFFFFFFFFFFFFFFFFFFFFFFFFFFFFFFFFFFFFFFFFFFFFFFFFFFFFFFFFF DUP3 PUSH2 0x972 JUMP JUMPDEST PUSH2 0x9B9 DUP7 DUP4 PUSH2 0x972 JUMP JUMPDEST SWAP6 POP DUP1 NOT DUP5 AND SWAP4 POP DUP1 DUP7 AND DUP5 OR SWAP3 POP POP POP SWAP4 SWAP3 POP POP POP JUMP JUMPDEST PUSH1 0x0 DUP2 SWAP1 POP SWAP2 SWAP1 POP JUMP JUMPDEST PUSH1 0x0 DUP2 SWAP1 POP SWAP2 SWAP1 POP JUMP JUMPDEST PUSH1 0x0 PUSH2 0xA00 PUSH2 0x9FB PUSH2 0x9F6 DUP5 PUSH2 0x9D1 JUMP JUMPDEST PUSH2 0x9DB JUMP JUMPDEST PUSH2 0x9D1 JUMP JUMPDEST SWAP1 POP SWAP2 SWAP1 POP JUMP JUMPDEST PUSH1 0x0 DUP2 SWAP1 POP SWAP2 SWAP1 POP JUMP JUMPDEST PUSH2 0xA1A DUP4 PUSH2 0x9E5 JUMP JUMPDEST PUSH2 0xA2E PUSH2 0xA26 DUP3 PUSH2 0xA07 JUMP JUMPDEST DUP5 DUP5 SLOAD PUSH2 0x97F JUMP JUMPDEST DUP3 SSTORE POP POP POP POP JUMP JUMPDEST PUSH1 0x0 SWAP1 JUMP JUMPDEST PUSH2 0xA43 PUSH2 0xA36 JUMP JUMPDEST PUSH2 0xA4E DUP2 DUP5 DUP5 PUSH2 0xA11 JUMP JUMPDEST POP POP POP JUMP JUMPDEST JUMPDEST DUP2 DUP2 LT ISZERO PUSH2 0xA72 JUMPI PUSH2 0xA67 PUSH1 0x0 DUP3 PUSH2 0xA3B JUMP JUMPDEST PUSH1 0x1 DUP2 ADD SWAP1 POP PUSH2 0xA54 JUMP JUMPDEST POP POP JUMP JUMPDEST PUSH1 0x1F DUP3 GT ISZERO PUSH2 0xAB7 JUMPI PUSH2 0xA88 DUP2 PUSH2 0x94D JUMP JUMPDEST PUSH2 0xA91 DUP5 PUSH2 0x962 JUMP JUMPDEST DUP2 ADD PUSH1 0x20 DUP6 LT ISZERO PUSH2 0xAA0 JUMPI DUP2 SWAP1 POP JUMPDEST PUSH2 0xAB4 PUSH2 0xAAC DUP6 PUSH2 0x962 JUMP JUMPDEST DUP4 ADD DUP3 PUSH2 0xA53 JUMP JUMPDEST POP POP JUMPDEST POP POP POP JUMP JUMPDEST PUSH1 0x0 DUP3 DUP3 SHR SWAP1 POP SWAP3 SWAP2 POP POP JUMP JUMPDEST PUSH1 0x0 PUSH2 0xADA PUSH1 0x0 NOT DUP5 PUSH1 0x8 MUL PUSH2 0xABC JUMP JUMPDEST NOT DUP1 DUP4 AND SWAP2 POP POP SWAP3 SWAP2 POP POP JUMP JUMPDEST PUSH1 0x0 PUSH2 0xAF3 DUP4 DUP4 PUSH2 0xAC9 JUMP JUMPDEST SWAP2 POP DUP3 PUSH1 0x2 MUL DUP3 OR SWAP1 POP SWAP3 SWAP2 POP POP JUMP JUMPDEST PUSH2 0xB0C DUP3 PUSH2 0x599 JUMP JUMPDEST PUSH8 0xFFFFFFFFFFFFFFFF DUP2 GT ISZERO PUSH2 0xB25 JUMPI PUSH2 0xB24 PUSH2 0x6A9 JUMP JUMPDEST JUMPDEST PUSH2 0xB2F DUP3 SLOAD PUSH2 0x91C JUMP JUMPDEST PUSH2 0xB3A DUP3 DUP3 DUP6 PUSH2 0xA76 JUMP JUMPDEST PUSH1 0x0 PUSH1 0x20 SWAP1 POP PUSH1 0x1F DUP4 GT PUSH1 0x1 DUP2 EQ PUSH2 0xB6D JUMPI PUSH1 0x0 DUP5 ISZERO PUSH2 0xB5B JUMPI DUP3 DUP8 ADD MLOAD SWAP1 POP JUMPDEST PUSH2 0xB65 DUP6 DUP3 PUSH2 0xAE7 JUMP JUMPDEST DUP7 SSTORE POP PUSH2 0xBCD JUMP JUMPDEST PUSH1 0x1F NOT DUP5 AND PUSH2 0xB7B DUP7 PUSH2 0x94D JUMP JUMPDEST PUSH1 0x0 JUMPDEST DUP3 DUP2 LT ISZERO PUSH2 0xBA3 JUMPI DUP5 DUP10 ADD MLOAD DUP3 SSTORE PUSH1 0x1 DUP3 ADD SWAP2 POP PUSH1 0x20 DUP6 ADD SWAP5 POP PUSH1 0x20 DUP2 ADD SWAP1 POP PUSH2 0xB7E JUMP JUMPDEST DUP7 DUP4 LT ISZERO PUSH2 0xBC0 JUMPI DUP5 DUP10 ADD MLOAD PUSH2 0xBBC PUSH1 0x1F DUP10 AND DUP3 PUSH2 0xAC9 JUMP JUMPDEST DUP4 SSTORE POP JUMPDEST PUSH1 0x1 PUSH1 0x2 DUP9 MUL ADD DUP9 SSTORE POP POP POP JUMPDEST POP POP POP POP POP POP JUMP INVALID LOG2 PUSH5 0x6970667358 0x22 SLT KECCAK256 0xC1 PUSH20 0xBC34263E31570AFAF82DC5E0C5FDE1024E21BB98 PUSH11 0xDEDBEE9CA3EF4FF7606473 PUSH16 0x6C634300081200330000000000000000 "
				},
				"gasEstimates": {
					"creation": {
						"codeDepositCost": "616600",
						"executionCost": "651",
						"totalCost": "617251"
					},
					"external": {
						"addDoctor(string,string,string,string,string,address)": "infinite",
						"getDoctorInfo(address)": "infinite"
					}
				},
				"methodIdentifiers": {
					"addDoctor(string,string,string,string,string,address)": "f7aebeee",
					"getDoctorInfo(address)": "6f12fc35"
				}
			},
			"storageLayout": {
				"storage": [
					{
						"astId": 19,
						"contract": "contracts/_Doctorstorage.sol:Doctor",
						"label": "doctors",
						"offset": 0,
						"slot": "0",
						"type": "t_mapping(t_address,t_struct(DoctorInfo)14_storage)"
					}
				],
				"types": {
					"t_address": {
						"encoding": "inplace",
						"label": "address",
						"numberOfBytes": "20"
					},
					"t_mapping(t_address,t_struct(DoctorInfo)14_storage)": {
						"encoding": "mapping",
						"key": "t_address",
						"label": "mapping(address => struct Doctor.DoctorInfo)",
						"numberOfBytes": "32",
						"value": "t_struct(DoctorInfo)14_storage"
					},
					"t_string_storage": {
						"encoding": "bytes",
						"label": "string",
						"numberOfBytes": "32"
					},
					"t_struct(DoctorInfo)14_storage": {
						"encoding": "inplace",
						"label": "struct Doctor.DoctorInfo",
						"members": [
							{
								"astId": 3,
								"contract": "contracts/_Doctorstorage.sol:Doctor",
								"label": "name",
								"offset": 0,
								"slot": "0",
								"type": "t_string_storage"
							},
							{
								"astId": 5,
								"contract": "contracts/_Doctorstorage.sol:Doctor",
								"label": "doctorId",
								"offset": 0,
								"slot": "1",
								"type": "t_string_storage"
							},
							{
								"astId": 7,
								"contract": "contracts/_Doctorstorage.sol:Doctor",
								"label": "hospitalName",
								"offset": 0,
								"slot": "2",
								"type": "t_string_storage"
							},
							{
								"astId": 9,
								"contract": "contracts/_Doctorstorage.sol:Doctor",
								"label": "license",
								"offset": 0,
								"slot": "3",
								"type": "t_string_storage"
							},
							{
								"astId": 11,
								"contract": "contracts/_Doctorstorage.sol:Doctor",
								"label": "description",
								"offset": 0,
								"slot": "4",
								"type": "t_string_storage"
							},
							{
								"astId": 13,
								"contract": "contracts/_Doctorstorage.sol:Doctor",
								"label": "doctorAddress",
								"offset": 0,
								"slot": "5",
								"type": "t_address"
							}
						],
						"numberOfBytes": "192"
					}
				}
			},
			"userdoc": {
				"kind": "user",
				"methods": {},
				"version": 1
			}
		}
	}
}